{"abi":[{"anonymous":false,"inputs":[{"indexed":false,"internalType":"address","name":"sender","type":"address"},{"indexed":false,"internalType":"string","name":"action","type":"string"},{"indexed":false,"internalType":"bytes32","name":"key","type":"bytes32"}],"name":"LogUpdate","type":"event"},{"constant":true,"inputs":[],"name":"count","outputs":[{"internalType":"uint256","name":"","type":"uint256"}],"payable":false,"stateMutability":"view","type":"function"},{"constant":true,"inputs":[{"internalType":"bytes32","name":"key","type":"bytes32"}],"name":"exists","outputs":[{"internalType":"bool","name":"","type":"bool"}],"payable":false,"stateMutability":"view","type":"function"},{"constant":false,"inputs":[{"internalType":"bytes32","name":"key","type":"bytes32"}],"name":"insert","outputs":[],"payable":false,"stateMutability":"nonpayable","type":"function"},{"constant":true,"inputs":[{"internalType":"uint256","name":"index","type":"uint256"}],"name":"keyAtIndex","outputs":[{"internalType":"bytes32","name":"","type":"bytes32"}],"payable":false,"stateMutability":"view","type":"function"},{"constant":false,"inputs":[],"name":"nukeSet","outputs":[],"payable":false,"stateMutability":"nonpayable","type":"function"},{"constant":false,"inputs":[{"internalType":"bytes32","name":"key","type":"bytes32"}],"name":"remove","outputs":[],"payable":false,"stateMutability":"nonpayable","type":"function"}],"devdoc":{"methods":{}},"evm":{"assembly":"    /* \"HitchensUnorderedKeySet.sol\":3180:4068  contract HitchensUnorderedKeySet {\r... */\n  mstore(0x40, 0x80)\n  callvalue\n    /* \"--CODEGEN--\":8:17   */\n  dup1\n    /* \"--CODEGEN--\":5:7   */\n  iszero\n  tag_1\n  jumpi\n    /* \"--CODEGEN--\":30:31   */\n  0x00\n    /* \"--CODEGEN--\":27:28   */\n  dup1\n    /* \"--CODEGEN--\":20:32   */\n  revert\n    /* \"--CODEGEN--\":5:7   */\ntag_1:\n    /* \"HitchensUnorderedKeySet.sol\":3180:4068  contract HitchensUnorderedKeySet {\r... */\n  pop\n  dataSize(sub_0)\n  dup1\n  dataOffset(sub_0)\n  0x00\n  codecopy\n  0x00\n  return\nstop\n\nsub_0: assembly {\n        /* \"HitchensUnorderedKeySet.sol\":3180:4068  contract HitchensUnorderedKeySet {\r... */\n      mstore(0x40, 0x80)\n      callvalue\n        /* \"--CODEGEN--\":8:17   */\n      dup1\n        /* \"--CODEGEN--\":5:7   */\n      iszero\n      tag_1\n      jumpi\n        /* \"--CODEGEN--\":30:31   */\n      0x00\n        /* \"--CODEGEN--\":27:28   */\n      dup1\n        /* \"--CODEGEN--\":20:32   */\n      revert\n        /* \"--CODEGEN--\":5:7   */\n    tag_1:\n        /* \"HitchensUnorderedKeySet.sol\":3180:4068  contract HitchensUnorderedKeySet {\r... */\n      pop\n      jumpi(tag_2, lt(calldatasize, 0x04))\n      shr(0xe0, calldataload(0x00))\n      dup1\n      0x06661abd\n      eq\n      tag_3\n      jumpi\n      dup1\n      0x0e654c02\n      eq\n      tag_4\n      jumpi\n      dup1\n      0x2d287e43\n      eq\n      tag_5\n      jumpi\n      dup1\n      0x38a699a4\n      eq\n      tag_6\n      jumpi\n      dup1\n      0x8e0db0d9\n      eq\n      tag_7\n      jumpi\n      dup1\n      0x95bc2673\n      eq\n      tag_8\n      jumpi\n    tag_2:\n      0x00\n      dup1\n      revert\n        /* \"HitchensUnorderedKeySet.sol\":3795:3875  function count() public view returns(uint) {\r... */\n    tag_3:\n      tag_9\n      tag_10\n      jump\t// in\n    tag_9:\n      mload(0x40)\n      dup1\n      dup3\n      dup2\n      mstore\n      0x20\n      add\n      swap2\n      pop\n      pop\n      mload(0x40)\n      dup1\n      swap2\n      sub\n      swap1\n      return\n        /* \"HitchensUnorderedKeySet.sol\":4007:4065  function nukeSet() public {\r... */\n    tag_4:\n      tag_11\n      tag_12\n      jump\t// in\n    tag_11:\n      stop\n        /* \"HitchensUnorderedKeySet.sol\":3527:3649  function insert(bytes32 key) public {\r... */\n    tag_5:\n      tag_13\n      0x04\n      dup1\n      calldatasize\n      sub\n        /* \"--CODEGEN--\":13:15   */\n      0x20\n        /* \"--CODEGEN--\":8:11   */\n      dup2\n        /* \"--CODEGEN--\":5:16   */\n      lt\n        /* \"--CODEGEN--\":2:4   */\n      iszero\n      tag_14\n      jumpi\n        /* \"--CODEGEN--\":29:30   */\n      0x00\n        /* \"--CODEGEN--\":26:27   */\n      dup1\n        /* \"--CODEGEN--\":19:31   */\n      revert\n        /* \"--CODEGEN--\":2:4   */\n    tag_14:\n        /* \"HitchensUnorderedKeySet.sol\":3527:3649  function insert(bytes32 key) public {\r... */\n      dup2\n      add\n      swap1\n      dup1\n      dup1\n      calldataload\n      swap1\n      0x20\n      add\n      swap1\n      swap3\n      swap2\n      swap1\n      pop\n      pop\n      pop\n      tag_15\n      jump\t// in\n    tag_13:\n      stop\n        /* \"HitchensUnorderedKeySet.sol\":3419:3515  function exists(bytes32 key) public view returns(bool) {\r... */\n    tag_6:\n      tag_16\n      0x04\n      dup1\n      calldatasize\n      sub\n        /* \"--CODEGEN--\":13:15   */\n      0x20\n        /* \"--CODEGEN--\":8:11   */\n      dup2\n        /* \"--CODEGEN--\":5:16   */\n      lt\n        /* \"--CODEGEN--\":2:4   */\n      iszero\n      tag_17\n      jumpi\n        /* \"--CODEGEN--\":29:30   */\n      0x00\n        /* \"--CODEGEN--\":26:27   */\n      dup1\n        /* \"--CODEGEN--\":19:31   */\n      revert\n        /* \"--CODEGEN--\":2:4   */\n    tag_17:\n        /* \"HitchensUnorderedKeySet.sol\":3419:3515  function exists(bytes32 key) public view returns(bool) {\r... */\n      dup2\n      add\n      swap1\n      dup1\n      dup1\n      calldataload\n      swap1\n      0x20\n      add\n      swap1\n      swap3\n      swap2\n      swap1\n      pop\n      pop\n      pop\n      tag_18\n      jump\t// in\n    tag_16:\n      mload(0x40)\n      dup1\n      dup3\n      iszero\n      iszero\n      iszero\n      iszero\n      dup2\n      mstore\n      0x20\n      add\n      swap2\n      pop\n      pop\n      mload(0x40)\n      dup1\n      swap2\n      sub\n      swap1\n      return\n        /* \"HitchensUnorderedKeySet.sol\":3887:3995  function keyAtIndex(uint index) public view returns(bytes32) {\r... */\n    tag_7:\n      tag_19\n      0x04\n      dup1\n      calldatasize\n      sub\n        /* \"--CODEGEN--\":13:15   */\n      0x20\n        /* \"--CODEGEN--\":8:11   */\n      dup2\n        /* \"--CODEGEN--\":5:16   */\n      lt\n        /* \"--CODEGEN--\":2:4   */\n      iszero\n      tag_20\n      jumpi\n        /* \"--CODEGEN--\":29:30   */\n      0x00\n        /* \"--CODEGEN--\":26:27   */\n      dup1\n        /* \"--CODEGEN--\":19:31   */\n      revert\n        /* \"--CODEGEN--\":2:4   */\n    tag_20:\n        /* \"HitchensUnorderedKeySet.sol\":3887:3995  function keyAtIndex(uint index) public view returns(bytes32) {\r... */\n      dup2\n      add\n      swap1\n      dup1\n      dup1\n      calldataload\n      swap1\n      0x20\n      add\n      swap1\n      swap3\n      swap2\n      swap1\n      pop\n      pop\n      pop\n      tag_21\n      jump\t// in\n    tag_19:\n      mload(0x40)\n      dup1\n      dup3\n      dup2\n      mstore\n      0x20\n      add\n      swap2\n      pop\n      pop\n      mload(0x40)\n      dup1\n      swap2\n      sub\n      swap1\n      return\n        /* \"HitchensUnorderedKeySet.sol\":3661:3783  function remove(bytes32 key) public {\r... */\n    tag_8:\n      tag_22\n      0x04\n      dup1\n      calldatasize\n      sub\n        /* \"--CODEGEN--\":13:15   */\n      0x20\n        /* \"--CODEGEN--\":8:11   */\n      dup2\n        /* \"--CODEGEN--\":5:16   */\n      lt\n        /* \"--CODEGEN--\":2:4   */\n      iszero\n      tag_23\n      jumpi\n        /* \"--CODEGEN--\":29:30   */\n      0x00\n        /* \"--CODEGEN--\":26:27   */\n      dup1\n        /* \"--CODEGEN--\":19:31   */\n      revert\n        /* \"--CODEGEN--\":2:4   */\n    tag_23:\n        /* \"HitchensUnorderedKeySet.sol\":3661:3783  function remove(bytes32 key) public {\r... */\n      dup2\n      add\n      swap1\n      dup1\n      dup1\n      calldataload\n      swap1\n      0x20\n      add\n      swap1\n      swap3\n      swap2\n      swap1\n      pop\n      pop\n      pop\n      tag_24\n      jump\t// in\n    tag_22:\n      stop\n        /* \"HitchensUnorderedKeySet.sol\":3795:3875  function count() public view returns(uint) {\r... */\n    tag_10:\n        /* \"HitchensUnorderedKeySet.sol\":3832:3836  uint */\n      0x00\n        /* \"HitchensUnorderedKeySet.sol\":3856:3867  set.count() */\n      tag_26\n        /* \"HitchensUnorderedKeySet.sol\":3856:3859  set */\n      0x00\n        /* \"HitchensUnorderedKeySet.sol\":3856:3865  set.count */\n      tag_27\n        /* \"HitchensUnorderedKeySet.sol\":3856:3867  set.count() */\n      jump\t// in\n    tag_26:\n        /* \"HitchensUnorderedKeySet.sol\":3849:3867  return set.count() */\n      swap1\n      pop\n        /* \"HitchensUnorderedKeySet.sol\":3795:3875  function count() public view returns(uint) {\r... */\n      swap1\n      jump\t// out\n        /* \"HitchensUnorderedKeySet.sol\":4007:4065  function nukeSet() public {\r... */\n    tag_12:\n        /* \"HitchensUnorderedKeySet.sol\":4044:4047  set */\n      0x00\n        /* \"HitchensUnorderedKeySet.sol\":4044:4055  set.nukeSet */\n      linkerSymbol(\"bdff7ef9c0674ccbae9de14a5cb7f735c061935047909a3fb25027b556018278\")\n      0x440f7e9a\n      swap1\n      swap2\n        /* \"HitchensUnorderedKeySet.sol\":4044:4057  set.nukeSet() */\n      mload(0x40)\n      dup3\n      0xffffffff\n      and\n      0xe0\n      shl\n      dup2\n      mstore\n      0x04\n      add\n      dup1\n      dup3\n      dup2\n      mstore\n      0x20\n      add\n      swap2\n      pop\n      pop\n      0x00\n      mload(0x40)\n      dup1\n      dup4\n      sub\n      dup2\n      dup7\n      dup1\n      extcodesize\n      iszero\n        /* \"--CODEGEN--\":8:17   */\n      dup1\n        /* \"--CODEGEN--\":5:7   */\n      iszero\n      tag_29\n      jumpi\n        /* \"--CODEGEN--\":30:31   */\n      0x00\n        /* \"--CODEGEN--\":27:28   */\n      dup1\n        /* \"--CODEGEN--\":20:32   */\n      revert\n        /* \"--CODEGEN--\":5:7   */\n    tag_29:\n        /* \"HitchensUnorderedKeySet.sol\":4044:4057  set.nukeSet() */\n      pop\n      gas\n      delegatecall\n      iszero\n        /* \"--CODEGEN--\":8:17   */\n      dup1\n        /* \"--CODEGEN--\":5:7   */\n      iszero\n      tag_30\n      jumpi\n        /* \"--CODEGEN--\":45:61   */\n      returndatasize\n        /* \"--CODEGEN--\":42:43   */\n      0x00\n        /* \"--CODEGEN--\":39:40   */\n      dup1\n        /* \"--CODEGEN--\":24:62   */\n      returndatacopy\n        /* \"--CODEGEN--\":77:93   */\n      returndatasize\n        /* \"--CODEGEN--\":74:75   */\n      0x00\n        /* \"--CODEGEN--\":67:94   */\n      revert\n        /* \"--CODEGEN--\":5:7   */\n    tag_30:\n        /* \"HitchensUnorderedKeySet.sol\":4044:4057  set.nukeSet() */\n      pop\n      pop\n      pop\n      pop\n        /* \"HitchensUnorderedKeySet.sol\":4007:4065  function nukeSet() public {\r... */\n      jump\t// out\n        /* \"HitchensUnorderedKeySet.sol\":3527:3649  function insert(bytes32 key) public {\r... */\n    tag_15:\n        /* \"HitchensUnorderedKeySet.sol\":3574:3589  set.insert(key) */\n      tag_32\n        /* \"HitchensUnorderedKeySet.sol\":3585:3588  key */\n      dup2\n        /* \"HitchensUnorderedKeySet.sol\":3574:3577  set */\n      0x00\n        /* \"HitchensUnorderedKeySet.sol\":3574:3584  set.insert */\n      tag_33\n      swap1\n        /* \"HitchensUnorderedKeySet.sol\":3574:3589  set.insert(key) */\n      swap2\n      swap1\n      0xffffffff\n      and\n      jump\t// in\n    tag_32:\n        /* \"HitchensUnorderedKeySet.sol\":3605:3641  LogUpdate(msg.sender, \"insert\", key) */\n      0xa4869f7c3fa4f122d4ca6781128192666d46e2b77aad294a632bd83717091234\n        /* \"HitchensUnorderedKeySet.sol\":3615:3625  msg.sender */\n      caller\n        /* \"HitchensUnorderedKeySet.sol\":3637:3640  key */\n      dup3\n        /* \"HitchensUnorderedKeySet.sol\":3605:3641  LogUpdate(msg.sender, \"insert\", key) */\n      mload(0x40)\n      dup1\n      dup4\n      0xffffffffffffffffffffffffffffffffffffffff\n      and\n      0xffffffffffffffffffffffffffffffffffffffff\n      and\n      dup2\n      mstore\n      0x20\n      add\n      dup1\n      0x20\n      add\n      dup4\n      dup2\n      mstore\n      0x20\n      add\n      dup3\n      dup2\n      sub\n      dup3\n      mstore\n      0x06\n      dup2\n      mstore\n      0x20\n      add\n      dup1\n      0x696e736572740000000000000000000000000000000000000000000000000000\n      dup2\n      mstore\n      pop\n      0x20\n      add\n      swap4\n      pop\n      pop\n      pop\n      pop\n      mload(0x40)\n      dup1\n      swap2\n      sub\n      swap1\n      log1\n        /* \"HitchensUnorderedKeySet.sol\":3527:3649  function insert(bytes32 key) public {\r... */\n      pop\n      jump\t// out\n        /* \"HitchensUnorderedKeySet.sol\":3419:3515  function exists(bytes32 key) public view returns(bool) {\r... */\n    tag_18:\n        /* \"HitchensUnorderedKeySet.sol\":3468:3472  bool */\n      0x00\n        /* \"HitchensUnorderedKeySet.sol\":3492:3507  set.exists(key) */\n      tag_35\n        /* \"HitchensUnorderedKeySet.sol\":3503:3506  key */\n      dup3\n        /* \"HitchensUnorderedKeySet.sol\":3492:3495  set */\n      0x00\n        /* \"HitchensUnorderedKeySet.sol\":3492:3502  set.exists */\n      tag_36\n      swap1\n        /* \"HitchensUnorderedKeySet.sol\":3492:3507  set.exists(key) */\n      swap2\n      swap1\n      0xffffffff\n      and\n      jump\t// in\n    tag_35:\n        /* \"HitchensUnorderedKeySet.sol\":3485:3507  return set.exists(key) */\n      swap1\n      pop\n        /* \"HitchensUnorderedKeySet.sol\":3419:3515  function exists(bytes32 key) public view returns(bool) {\r... */\n      swap2\n      swap1\n      pop\n      jump\t// out\n        /* \"HitchensUnorderedKeySet.sol\":3887:3995  function keyAtIndex(uint index) public view returns(bytes32) {\r... */\n    tag_21:\n        /* \"HitchensUnorderedKeySet.sol\":3939:3946  bytes32 */\n      0x00\n        /* \"HitchensUnorderedKeySet.sol\":3966:3987  set.keyAtIndex(index) */\n      tag_38\n        /* \"HitchensUnorderedKeySet.sol\":3981:3986  index */\n      dup3\n        /* \"HitchensUnorderedKeySet.sol\":3966:3969  set */\n      0x00\n        /* \"HitchensUnorderedKeySet.sol\":3966:3980  set.keyAtIndex */\n      tag_39\n      swap1\n        /* \"HitchensUnorderedKeySet.sol\":3966:3987  set.keyAtIndex(index) */\n      swap2\n      swap1\n      0xffffffff\n      and\n      jump\t// in\n    tag_38:\n        /* \"HitchensUnorderedKeySet.sol\":3959:3987  return set.keyAtIndex(index) */\n      swap1\n      pop\n        /* \"HitchensUnorderedKeySet.sol\":3887:3995  function keyAtIndex(uint index) public view returns(bytes32) {\r... */\n      swap2\n      swap1\n      pop\n      jump\t// out\n        /* \"HitchensUnorderedKeySet.sol\":3661:3783  function remove(bytes32 key) public {\r... */\n    tag_24:\n        /* \"HitchensUnorderedKeySet.sol\":3708:3723  set.remove(key) */\n      tag_41\n        /* \"HitchensUnorderedKeySet.sol\":3719:3722  key */\n      dup2\n        /* \"HitchensUnorderedKeySet.sol\":3708:3711  set */\n      0x00\n        /* \"HitchensUnorderedKeySet.sol\":3708:3718  set.remove */\n      tag_42\n      swap1\n        /* \"HitchensUnorderedKeySet.sol\":3708:3723  set.remove(key) */\n      swap2\n      swap1\n      0xffffffff\n      and\n      jump\t// in\n    tag_41:\n        /* \"HitchensUnorderedKeySet.sol\":3739:3775  LogUpdate(msg.sender, \"remove\", key) */\n      0xa4869f7c3fa4f122d4ca6781128192666d46e2b77aad294a632bd83717091234\n        /* \"HitchensUnorderedKeySet.sol\":3749:3759  msg.sender */\n      caller\n        /* \"HitchensUnorderedKeySet.sol\":3771:3774  key */\n      dup3\n        /* \"HitchensUnorderedKeySet.sol\":3739:3775  LogUpdate(msg.sender, \"remove\", key) */\n      mload(0x40)\n      dup1\n      dup4\n      0xffffffffffffffffffffffffffffffffffffffff\n      and\n      0xffffffffffffffffffffffffffffffffffffffff\n      and\n      dup2\n      mstore\n      0x20\n      add\n      dup1\n      0x20\n      add\n      dup4\n      dup2\n      mstore\n      0x20\n      add\n      dup3\n      dup2\n      sub\n      dup3\n      mstore\n      0x06\n      dup2\n      mstore\n      0x20\n      add\n      dup1\n      0x72656d6f76650000000000000000000000000000000000000000000000000000\n      dup2\n      mstore\n      pop\n      0x20\n      add\n      swap4\n      pop\n      pop\n      pop\n      pop\n      mload(0x40)\n      dup1\n      swap2\n      sub\n      swap1\n      log1\n        /* \"HitchensUnorderedKeySet.sol\":3661:3783  function remove(bytes32 key) public {\r... */\n      pop\n      jump\t// out\n        /* \"HitchensUnorderedKeySet.sol\":2261:2368  function count(Set storage self) internal view returns(uint) {\r... */\n    tag_27:\n        /* \"HitchensUnorderedKeySet.sol\":2316:2320  uint */\n      0x00\n        /* \"HitchensUnorderedKeySet.sol\":2340:2344  self */\n      dup2\n        /* \"HitchensUnorderedKeySet.sol\":2340:2352  self.keyList */\n      0x01\n      add\n        /* \"HitchensUnorderedKeySet.sol\":2340:2359  self.keyList.length */\n      dup1\n      sload\n      swap1\n      pop\n        /* \"HitchensUnorderedKeySet.sol\":2333:2360  return(self.keyList.length) */\n      swap1\n      pop\n        /* \"HitchensUnorderedKeySet.sol\":2261:2368  function count(Set storage self) internal view returns(uint) {\r... */\n      swap2\n      swap1\n      pop\n      jump\t// out\n        /* \"HitchensUnorderedKeySet.sol\":1504:1796  function insert(Set storage self, bytes32 key) internal {\r... */\n    tag_33:\n        /* \"HitchensUnorderedKeySet.sol\":1586:1589  0x0 */\n      0x00\n        /* \"HitchensUnorderedKeySet.sol\":1579:1589  key != 0x0 */\n      dup1\n      shl\n        /* \"HitchensUnorderedKeySet.sol\":1579:1582  key */\n      dup2\n        /* \"HitchensUnorderedKeySet.sol\":1579:1589  key != 0x0 */\n      eq\n      iszero\n        /* \"HitchensUnorderedKeySet.sol\":1571:1634  require(key != 0x0, \"UnorderedKeySet(100) - Key cannot be 0x0\") */\n      tag_45\n      jumpi\n      mload(0x40)\n      0x08c379a000000000000000000000000000000000000000000000000000000000\n      dup2\n      mstore\n      0x04\n      add\n      dup1\n      dup1\n      0x20\n      add\n      dup3\n      dup2\n      sub\n      dup3\n      mstore\n      0x28\n      dup2\n      mstore\n      0x20\n      add\n      dup1\n      data_031dac4c0fd3fb26da649d964b99c1bb58fd5db59b37cd2a44f64d4951cf8636\n      0x28\n      swap2\n      codecopy\n      0x40\n      add\n      swap2\n      pop\n      pop\n      mload(0x40)\n      dup1\n      swap2\n      sub\n      swap1\n      revert\n    tag_45:\n        /* \"HitchensUnorderedKeySet.sol\":1654:1671  exists(self, key) */\n      tag_46\n        /* \"HitchensUnorderedKeySet.sol\":1661:1665  self */\n      dup3\n        /* \"HitchensUnorderedKeySet.sol\":1667:1670  key */\n      dup3\n        /* \"HitchensUnorderedKeySet.sol\":1654:1660  exists */\n      tag_36\n        /* \"HitchensUnorderedKeySet.sol\":1654:1671  exists(self, key) */\n      jump\t// in\n    tag_46:\n        /* \"HitchensUnorderedKeySet.sol\":1653:1671  !exists(self, key) */\n      iszero\n        /* \"HitchensUnorderedKeySet.sol\":1645:1729  require(!exists(self, key), \"UnorderedKeySet(101) - Key already exists in the set.\") */\n      tag_47\n      jumpi\n      mload(0x40)\n      0x08c379a000000000000000000000000000000000000000000000000000000000\n      dup2\n      mstore\n      0x04\n      add\n      dup1\n      dup1\n      0x20\n      add\n      dup3\n      dup2\n      sub\n      dup3\n      mstore\n      0x35\n      dup2\n      mstore\n      0x20\n      add\n      dup1\n      data_67f17f030c1d3538f6834d76d11770053274b85005c1c4396304442b3cc9116e\n      0x35\n      swap2\n      codecopy\n      0x40\n      add\n      swap2\n      pop\n      pop\n      mload(0x40)\n      dup1\n      swap2\n      sub\n      swap1\n      revert\n    tag_47:\n        /* \"HitchensUnorderedKeySet.sol\":1787:1788  1 */\n      0x01\n        /* \"HitchensUnorderedKeySet.sol\":1764:1768  self */\n      dup3\n        /* \"HitchensUnorderedKeySet.sol\":1764:1776  self.keyList */\n      0x01\n      add\n        /* \"HitchensUnorderedKeySet.sol\":1782:1785  key */\n      dup3\n        /* \"HitchensUnorderedKeySet.sol\":1764:1786  self.keyList.push(key) */\n      swap1\n      dup1\n        /* \"--CODEGEN--\":39:40   */\n      0x01\n        /* \"--CODEGEN--\":33:36   */\n      dup2\n        /* \"--CODEGEN--\":27:37   */\n      sload\n        /* \"--CODEGEN--\":23:41   */\n      add\n        /* \"--CODEGEN--\":57:67   */\n      dup1\n        /* \"--CODEGEN--\":52:55   */\n      dup3\n        /* \"--CODEGEN--\":45:68   */\n      sstore\n        /* \"--CODEGEN--\":79:89   */\n      dup1\n        /* \"--CODEGEN--\":72:89   */\n      swap2\n      pop\n        /* \"--CODEGEN--\":0:93   */\n      pop\n        /* \"HitchensUnorderedKeySet.sol\":1764:1786  self.keyList.push(key) */\n      swap1\n      0x01\n      dup3\n      sub\n      swap1\n      0x00\n      mstore\n      keccak256(0x00, 0x20)\n      add\n      0x00\n      swap1\n      swap2\n      swap3\n      swap1\n      swap2\n      swap1\n      swap2\n      pop\n      sstore\n        /* \"HitchensUnorderedKeySet.sol\":1764:1788  self.keyList.push(key)-1 */\n      sub\n        /* \"HitchensUnorderedKeySet.sol\":1740:1744  self */\n      dup3\n        /* \"HitchensUnorderedKeySet.sol\":1740:1756  self.keyPointers */\n      0x00\n      add\n        /* \"HitchensUnorderedKeySet.sol\":1740:1761  self.keyPointers[key] */\n      0x00\n        /* \"HitchensUnorderedKeySet.sol\":1757:1760  key */\n      dup4\n        /* \"HitchensUnorderedKeySet.sol\":1740:1761  self.keyPointers[key] */\n      dup2\n      mstore\n      0x20\n      add\n      swap1\n      dup2\n      mstore\n      0x20\n      add\n      0x00\n      keccak256\n        /* \"HitchensUnorderedKeySet.sol\":1740:1788  self.keyPointers[key] = self.keyList.push(key)-1 */\n      dup2\n      swap1\n      sstore\n      pop\n        /* \"HitchensUnorderedKeySet.sol\":1504:1796  function insert(Set storage self, bytes32 key) internal {\r... */\n      pop\n      pop\n      jump\t// out\n        /* \"HitchensUnorderedKeySet.sol\":2380:2575  function exists(Set storage self, bytes32 key) internal view returns(bool) {\r... */\n    tag_36:\n        /* \"HitchensUnorderedKeySet.sol\":2449:2453  bool */\n      0x00\n        /* \"HitchensUnorderedKeySet.sol\":2492:2493  0 */\n      dup1\n        /* \"HitchensUnorderedKeySet.sol\":2469:2473  self */\n      dup4\n        /* \"HitchensUnorderedKeySet.sol\":2469:2481  self.keyList */\n      0x01\n      add\n        /* \"HitchensUnorderedKeySet.sol\":2469:2488  self.keyList.length */\n      dup1\n      sload\n      swap1\n      pop\n        /* \"HitchensUnorderedKeySet.sol\":2469:2493  self.keyList.length == 0 */\n      eq\n        /* \"HitchensUnorderedKeySet.sol\":2466:2507  if(self.keyList.length == 0) return false */\n      iszero\n      tag_50\n      jumpi\n        /* \"HitchensUnorderedKeySet.sol\":2502:2507  false */\n      0x00\n        /* \"HitchensUnorderedKeySet.sol\":2495:2507  return false */\n      swap1\n      pop\n      jump(tag_49)\n        /* \"HitchensUnorderedKeySet.sol\":2466:2507  if(self.keyList.length == 0) return false */\n    tag_50:\n        /* \"HitchensUnorderedKeySet.sol\":2564:2567  key */\n      dup2\n        /* \"HitchensUnorderedKeySet.sol\":2525:2529  self */\n      dup4\n        /* \"HitchensUnorderedKeySet.sol\":2525:2537  self.keyList */\n      0x01\n      add\n        /* \"HitchensUnorderedKeySet.sol\":2538:2542  self */\n      dup5\n        /* \"HitchensUnorderedKeySet.sol\":2538:2554  self.keyPointers */\n      0x00\n      add\n        /* \"HitchensUnorderedKeySet.sol\":2538:2559  self.keyPointers[key] */\n      0x00\n        /* \"HitchensUnorderedKeySet.sol\":2555:2558  key */\n      dup6\n        /* \"HitchensUnorderedKeySet.sol\":2538:2559  self.keyPointers[key] */\n      dup2\n      mstore\n      0x20\n      add\n      swap1\n      dup2\n      mstore\n      0x20\n      add\n      0x00\n      keccak256\n      sload\n        /* \"HitchensUnorderedKeySet.sol\":2525:2560  self.keyList[self.keyPointers[key]] */\n      dup2\n      sload\n      dup2\n      lt\n      tag_51\n      jumpi\n      invalid\n    tag_51:\n      swap1\n      0x00\n      mstore\n      keccak256(0x00, 0x20)\n      add\n      sload\n        /* \"HitchensUnorderedKeySet.sol\":2525:2567  self.keyList[self.keyPointers[key]] == key */\n      eq\n        /* \"HitchensUnorderedKeySet.sol\":2518:2567  return self.keyList[self.keyPointers[key]] == key */\n      swap1\n      pop\n        /* \"HitchensUnorderedKeySet.sol\":2380:2575  function exists(Set storage self, bytes32 key) internal view returns(bool) {\r... */\n    tag_49:\n      swap3\n      swap2\n      pop\n      pop\n      jump\t// out\n        /* \"HitchensUnorderedKeySet.sol\":2587:2713  function keyAtIndex(Set storage self, uint index) internal view returns(bytes32) {\r... */\n    tag_39:\n        /* \"HitchensUnorderedKeySet.sol\":2659:2666  bytes32 */\n      0x00\n        /* \"HitchensUnorderedKeySet.sol\":2686:2690  self */\n      dup3\n        /* \"HitchensUnorderedKeySet.sol\":2686:2698  self.keyList */\n      0x01\n      add\n        /* \"HitchensUnorderedKeySet.sol\":2699:2704  index */\n      dup3\n        /* \"HitchensUnorderedKeySet.sol\":2686:2705  self.keyList[index] */\n      dup2\n      sload\n      dup2\n      lt\n      tag_54\n      jumpi\n      invalid\n    tag_54:\n      swap1\n      0x00\n      mstore\n      keccak256(0x00, 0x20)\n      add\n      sload\n        /* \"HitchensUnorderedKeySet.sol\":2679:2705  return self.keyList[index] */\n      swap1\n      pop\n        /* \"HitchensUnorderedKeySet.sol\":2587:2713  function keyAtIndex(Set storage self, uint index) internal view returns(bytes32) {\r... */\n      swap3\n      swap2\n      pop\n      pop\n      jump\t// out\n        /* \"HitchensUnorderedKeySet.sol\":1808:2249  function remove(Set storage self, bytes32 key) internal {\r... */\n    tag_42:\n        /* \"HitchensUnorderedKeySet.sol\":1883:1900  exists(self, key) */\n      tag_57\n        /* \"HitchensUnorderedKeySet.sol\":1890:1894  self */\n      dup3\n        /* \"HitchensUnorderedKeySet.sol\":1896:1899  key */\n      dup3\n        /* \"HitchensUnorderedKeySet.sol\":1883:1889  exists */\n      tag_36\n        /* \"HitchensUnorderedKeySet.sol\":1883:1900  exists(self, key) */\n      jump\t// in\n    tag_57:\n        /* \"HitchensUnorderedKeySet.sol\":1875:1958  require(exists(self, key), \"UnorderedKeySet(102) - Key does not exist in the set.\") */\n      tag_58\n      jumpi\n      mload(0x40)\n      0x08c379a000000000000000000000000000000000000000000000000000000000\n      dup2\n      mstore\n      0x04\n      add\n      dup1\n      dup1\n      0x20\n      add\n      dup3\n      dup2\n      sub\n      dup3\n      mstore\n      0x35\n      dup2\n      mstore\n      0x20\n      add\n      dup1\n      data_61f1f9f8ef6df4c42c63d617cab416dc9160e01550810a06a36ecb113bd20fda\n      0x35\n      swap2\n      codecopy\n      0x40\n      add\n      swap2\n      pop\n      pop\n      mload(0x40)\n      dup1\n      swap2\n      sub\n      swap1\n      revert\n    tag_58:\n        /* \"HitchensUnorderedKeySet.sol\":1969:1986  bytes32 keyToMove */\n      0x00\n        /* \"HitchensUnorderedKeySet.sol\":1989:1993  self */\n      dup3\n        /* \"HitchensUnorderedKeySet.sol\":1989:2001  self.keyList */\n      0x01\n      add\n        /* \"HitchensUnorderedKeySet.sol\":2014:2015  1 */\n      0x01\n        /* \"HitchensUnorderedKeySet.sol\":2002:2013  count(self) */\n      tag_59\n        /* \"HitchensUnorderedKeySet.sol\":2008:2012  self */\n      dup6\n        /* \"HitchensUnorderedKeySet.sol\":2002:2007  count */\n      tag_27\n        /* \"HitchensUnorderedKeySet.sol\":2002:2013  count(self) */\n      jump\t// in\n    tag_59:\n        /* \"HitchensUnorderedKeySet.sol\":2002:2015  count(self)-1 */\n      sub\n        /* \"HitchensUnorderedKeySet.sol\":1989:2016  self.keyList[count(self)-1] */\n      dup2\n      sload\n      dup2\n      lt\n      tag_60\n      jumpi\n      invalid\n    tag_60:\n      swap1\n      0x00\n      mstore\n      keccak256(0x00, 0x20)\n      add\n      sload\n        /* \"HitchensUnorderedKeySet.sol\":1969:2016  bytes32 keyToMove = self.keyList[count(self)-1] */\n      swap1\n      pop\n        /* \"HitchensUnorderedKeySet.sol\":2027:2044  uint rowToReplace */\n      0x00\n        /* \"HitchensUnorderedKeySet.sol\":2047:2051  self */\n      dup4\n        /* \"HitchensUnorderedKeySet.sol\":2047:2063  self.keyPointers */\n      0x00\n      add\n        /* \"HitchensUnorderedKeySet.sol\":2047:2068  self.keyPointers[key] */\n      0x00\n        /* \"HitchensUnorderedKeySet.sol\":2064:2067  key */\n      dup5\n        /* \"HitchensUnorderedKeySet.sol\":2047:2068  self.keyPointers[key] */\n      dup2\n      mstore\n      0x20\n      add\n      swap1\n      dup2\n      mstore\n      0x20\n      add\n      0x00\n      keccak256\n      sload\n        /* \"HitchensUnorderedKeySet.sol\":2027:2068  uint rowToReplace = self.keyPointers[key] */\n      swap1\n      pop\n        /* \"HitchensUnorderedKeySet.sol\":2109:2121  rowToReplace */\n      dup1\n        /* \"HitchensUnorderedKeySet.sol\":2079:2083  self */\n      dup5\n        /* \"HitchensUnorderedKeySet.sol\":2079:2095  self.keyPointers */\n      0x00\n      add\n        /* \"HitchensUnorderedKeySet.sol\":2079:2106  self.keyPointers[keyToMove] */\n      0x00\n        /* \"HitchensUnorderedKeySet.sol\":2096:2105  keyToMove */\n      dup5\n        /* \"HitchensUnorderedKeySet.sol\":2079:2106  self.keyPointers[keyToMove] */\n      dup2\n      mstore\n      0x20\n      add\n      swap1\n      dup2\n      mstore\n      0x20\n      add\n      0x00\n      keccak256\n        /* \"HitchensUnorderedKeySet.sol\":2079:2121  self.keyPointers[keyToMove] = rowToReplace */\n      dup2\n      swap1\n      sstore\n      pop\n        /* \"HitchensUnorderedKeySet.sol\":2161:2170  keyToMove */\n      dup2\n        /* \"HitchensUnorderedKeySet.sol\":2132:2136  self */\n      dup5\n        /* \"HitchensUnorderedKeySet.sol\":2132:2144  self.keyList */\n      0x01\n      add\n        /* \"HitchensUnorderedKeySet.sol\":2145:2157  rowToReplace */\n      dup3\n        /* \"HitchensUnorderedKeySet.sol\":2132:2158  self.keyList[rowToReplace] */\n      dup2\n      sload\n      dup2\n      lt\n      tag_62\n      jumpi\n      invalid\n    tag_62:\n      swap1\n      0x00\n      mstore\n      keccak256(0x00, 0x20)\n      add\n        /* \"HitchensUnorderedKeySet.sol\":2132:2170  self.keyList[rowToReplace] = keyToMove */\n      dup2\n      swap1\n      sstore\n      pop\n        /* \"HitchensUnorderedKeySet.sol\":2188:2192  self */\n      dup4\n        /* \"HitchensUnorderedKeySet.sol\":2188:2204  self.keyPointers */\n      0x00\n      add\n        /* \"HitchensUnorderedKeySet.sol\":2188:2209  self.keyPointers[key] */\n      0x00\n        /* \"HitchensUnorderedKeySet.sol\":2205:2208  key */\n      dup5\n        /* \"HitchensUnorderedKeySet.sol\":2188:2209  self.keyPointers[key] */\n      dup2\n      mstore\n      0x20\n      add\n      swap1\n      dup2\n      mstore\n      0x20\n      add\n      0x00\n      keccak256\n        /* \"HitchensUnorderedKeySet.sol\":2181:2209  delete self.keyPointers[key] */\n      0x00\n      swap1\n      sstore\n        /* \"HitchensUnorderedKeySet.sol\":2220:2224  self */\n      dup4\n        /* \"HitchensUnorderedKeySet.sol\":2220:2232  self.keyList */\n      0x01\n      add\n        /* \"HitchensUnorderedKeySet.sol\":2220:2241  self.keyList.length-- */\n      dup1\n      sload\n      dup1\n      swap2\n      swap1\n      0x01\n      swap1\n      sub\n      tag_64\n      swap2\n      swap1\n      tag_65\n      jump\t// in\n    tag_64:\n      pop\n        /* \"HitchensUnorderedKeySet.sol\":1808:2249  function remove(Set storage self, bytes32 key) internal {\r... */\n      pop\n      pop\n      pop\n      pop\n      jump\t// out\n        /* \"HitchensUnorderedKeySet.sol\":3180:4068  contract HitchensUnorderedKeySet {\r... */\n    tag_65:\n      dup2\n      sload\n      dup2\n      dup4\n      sstore\n      dup2\n      dup2\n      gt\n      iszero\n      tag_66\n      jumpi\n      dup2\n      dup4\n      0x00\n      mstore\n      keccak256(0x00, 0x20)\n      swap2\n      dup3\n      add\n      swap2\n      add\n      tag_67\n      swap2\n      swap1\n      tag_68\n      jump\t// in\n    tag_67:\n    tag_66:\n      pop\n      pop\n      pop\n      jump\t// out\n    tag_68:\n      tag_69\n      swap2\n      swap1\n    tag_70:\n      dup1\n      dup3\n      gt\n      iszero\n      tag_71\n      jumpi\n      0x00\n      dup2\n      0x00\n      swap1\n      sstore\n      pop\n      0x01\n      add\n      jump(tag_70)\n    tag_71:\n      pop\n      swap1\n      jump\n    tag_69:\n      swap1\n      jump\t// out\n    stop\n    data_031dac4c0fd3fb26da649d964b99c1bb58fd5db59b37cd2a44f64d4951cf8636 556e6f7264657265644b65795365742831303029202d204b65792063616e6e6f7420626520307830\n    data_61f1f9f8ef6df4c42c63d617cab416dc9160e01550810a06a36ecb113bd20fda 556e6f7264657265644b65795365742831303229202d204b657920646f6573206e6f7420657869737420696e20746865207365742e\n    data_67f17f030c1d3538f6834d76d11770053274b85005c1c4396304442b3cc9116e 556e6f7264657265644b65795365742831303129202d204b657920616c72656164792065786973747320696e20746865207365742e\n\n    auxdata: 0xa265627a7a72315820b42d8b4675694bf81939d6ce0f2f5cde21db9288385c0696073d721f5df69c4a64736f6c63430005100032\n}\n","bytecode":{"linkReferences":{"HitchensUnorderedKeySet.sol":{"HitchensUnorderedKeySetLib":[{"length":20,"start":424}]}},"object":"608060405234801561001057600080fd5b5061075b806100206000396000f3fe608060405234801561001057600080fd5b50600436106100625760003560e01c806306661abd146100675780630e654c02146100855780632d287e431461008f57806338a699a4146100bd5780638e0db0d91461010357806395bc267314610145575b600080fd5b61006f610173565b6040518082815260200191505060405180910390f35b61008d610184565b005b6100bb600480360360208110156100a557600080fd5b81019080803590602001909291905050506101f0565b005b6100e9600480360360208110156100d357600080fd5b81019080803590602001909291905050506102ab565b604051808215151515815260200191505060405180910390f35b61012f6004803603602081101561011957600080fd5b81019080803590602001909291905050506102c8565b6040518082815260200191505060405180910390f35b6101716004803603602081101561015b57600080fd5b81019080803590602001909291905050506102e5565b005b600061017f60006103a0565b905090565b600073__$bdff7ef9c0674ccbae9de14a5cb7f735c0$__63440f7e9a90916040518263ffffffff1660e01b81526004018082815260200191505060006040518083038186803b1580156101d657600080fd5b505af41580156101ea573d6000803e3d6000fd5b50505050565b6102048160006103b190919063ffffffff16565b7fa4869f7c3fa4f122d4ca6781128192666d46e2b77aad294a632bd837170912343382604051808373ffffffffffffffffffffffffffffffffffffffff1673ffffffffffffffffffffffffffffffffffffffff16815260200180602001838152602001828103825260068152602001807f696e736572740000000000000000000000000000000000000000000000000000815250602001935050505060405180910390a150565b60006102c18260006104ba90919063ffffffff16565b9050919050565b60006102de82600061050e90919063ffffffff16565b9050919050565b6102f981600061053290919063ffffffff16565b7fa4869f7c3fa4f122d4ca6781128192666d46e2b77aad294a632bd837170912343382604051808373ffffffffffffffffffffffffffffffffffffffff1673ffffffffffffffffffffffffffffffffffffffff16815260200180602001838152602001828103825260068152602001807f72656d6f76650000000000000000000000000000000000000000000000000000815250602001935050505060405180910390a150565b600081600101805490509050919050565b6000801b81141561040d576040517f08c379a00000000000000000000000000000000000000000000000000000000081526004018080602001828103825260288152602001806106956028913960400191505060405180910390fd5b61041782826104ba565b1561046d576040517f08c379a00000000000000000000000000000000000000000000000000000000081526004018080602001828103825260358152602001806106f26035913960400191505060405180910390fd5b600182600101829080600181540180825580915050906001820390600052602060002001600090919290919091505503826000016000838152602001908152602001600020819055505050565b600080836001018054905014156104d45760009050610508565b818360010184600001600085815260200190815260200160002054815481106104f957fe5b90600052602060002001541490505b92915050565b600082600101828154811061051f57fe5b9060005260206000200154905092915050565b61053c82826104ba565b610591576040517f08c379a00000000000000000000000000000000000000000000000000000000081526004018080602001828103825260358152602001806106bd6035913960400191505060405180910390fd5b60008260010160016105a2856103a0565b03815481106105ad57fe5b9060005260206000200154905060008360000160008481526020019081526020016000205490508084600001600084815260200190815260200160002081905550818460010182815481106105fe57fe5b9060005260206000200181905550836000016000848152602001908152602001600020600090558360010180548091906001900361063c9190610643565b5050505050565b81548183558181111561066a57818360005260206000209182019101610669919061066f565b5b505050565b61069191905b8082111561068d576000816000905550600101610675565b5090565b9056fe556e6f7264657265644b65795365742831303029202d204b65792063616e6e6f7420626520307830556e6f7264657265644b65795365742831303229202d204b657920646f6573206e6f7420657869737420696e20746865207365742e556e6f7264657265644b65795365742831303129202d204b657920616c72656164792065786973747320696e20746865207365742ea265627a7a72315820b42d8b4675694bf81939d6ce0f2f5cde21db9288385c0696073d721f5df69c4a64736f6c63430005100032","opcodes":"PUSH1 0x80 PUSH1 0x40 MSTORE CALLVALUE DUP1 ISZERO PUSH2 0x10 JUMPI PUSH1 0x0 DUP1 REVERT JUMPDEST POP PUSH2 0x75B DUP1 PUSH2 0x20 PUSH1 0x0 CODECOPY PUSH1 0x0 RETURN INVALID PUSH1 0x80 PUSH1 0x40 MSTORE CALLVALUE DUP1 ISZERO PUSH2 0x10 JUMPI PUSH1 0x0 DUP1 REVERT JUMPDEST POP PUSH1 0x4 CALLDATASIZE LT PUSH2 0x62 JUMPI PUSH1 0x0 CALLDATALOAD PUSH1 0xE0 SHR DUP1 PUSH4 0x6661ABD EQ PUSH2 0x67 JUMPI DUP1 PUSH4 0xE654C02 EQ PUSH2 0x85 JUMPI DUP1 PUSH4 0x2D287E43 EQ PUSH2 0x8F JUMPI DUP1 PUSH4 0x38A699A4 EQ PUSH2 0xBD JUMPI DUP1 PUSH4 0x8E0DB0D9 EQ PUSH2 0x103 JUMPI DUP1 PUSH4 0x95BC2673 EQ PUSH2 0x145 JUMPI JUMPDEST PUSH1 0x0 DUP1 REVERT JUMPDEST PUSH2 0x6F PUSH2 0x173 JUMP JUMPDEST PUSH1 0x40 MLOAD DUP1 DUP3 DUP2 MSTORE PUSH1 0x20 ADD SWAP2 POP POP PUSH1 0x40 MLOAD DUP1 SWAP2 SUB SWAP1 RETURN JUMPDEST PUSH2 0x8D PUSH2 0x184 JUMP JUMPDEST STOP JUMPDEST PUSH2 0xBB PUSH1 0x4 DUP1 CALLDATASIZE SUB PUSH1 0x20 DUP2 LT ISZERO PUSH2 0xA5 JUMPI PUSH1 0x0 DUP1 REVERT JUMPDEST DUP2 ADD SWAP1 DUP1 DUP1 CALLDATALOAD SWAP1 PUSH1 0x20 ADD SWAP1 SWAP3 SWAP2 SWAP1 POP POP POP PUSH2 0x1F0 JUMP JUMPDEST STOP JUMPDEST PUSH2 0xE9 PUSH1 0x4 DUP1 CALLDATASIZE SUB PUSH1 0x20 DUP2 LT ISZERO PUSH2 0xD3 JUMPI PUSH1 0x0 DUP1 REVERT JUMPDEST DUP2 ADD SWAP1 DUP1 DUP1 CALLDATALOAD SWAP1 PUSH1 0x20 ADD SWAP1 SWAP3 SWAP2 SWAP1 POP POP POP PUSH2 0x2AB JUMP JUMPDEST PUSH1 0x40 MLOAD DUP1 DUP3 ISZERO ISZERO ISZERO ISZERO DUP2 MSTORE PUSH1 0x20 ADD SWAP2 POP POP PUSH1 0x40 MLOAD DUP1 SWAP2 SUB SWAP1 RETURN JUMPDEST PUSH2 0x12F PUSH1 0x4 DUP1 CALLDATASIZE SUB PUSH1 0x20 DUP2 LT ISZERO PUSH2 0x119 JUMPI PUSH1 0x0 DUP1 REVERT JUMPDEST DUP2 ADD SWAP1 DUP1 DUP1 CALLDATALOAD SWAP1 PUSH1 0x20 ADD SWAP1 SWAP3 SWAP2 SWAP1 POP POP POP PUSH2 0x2C8 JUMP JUMPDEST PUSH1 0x40 MLOAD DUP1 DUP3 DUP2 MSTORE PUSH1 0x20 ADD SWAP2 POP POP PUSH1 0x40 MLOAD DUP1 SWAP2 SUB SWAP1 RETURN JUMPDEST PUSH2 0x171 PUSH1 0x4 DUP1 CALLDATASIZE SUB PUSH1 0x20 DUP2 LT ISZERO PUSH2 0x15B JUMPI PUSH1 0x0 DUP1 REVERT JUMPDEST DUP2 ADD SWAP1 DUP1 DUP1 CALLDATALOAD SWAP1 PUSH1 0x20 ADD SWAP1 SWAP3 SWAP2 SWAP1 POP POP POP PUSH2 0x2E5 JUMP JUMPDEST STOP JUMPDEST PUSH1 0x0 PUSH2 0x17F PUSH1 0x0 PUSH2 0x3A0 JUMP JUMPDEST SWAP1 POP SWAP1 JUMP JUMPDEST PUSH1 0x0 PUSH20 0x0 PUSH4 0x440F7E9A SWAP1 SWAP2 PUSH1 0x40 MLOAD DUP3 PUSH4 0xFFFFFFFF AND PUSH1 0xE0 SHL DUP2 MSTORE PUSH1 0x4 ADD DUP1 DUP3 DUP2 MSTORE PUSH1 0x20 ADD SWAP2 POP POP PUSH1 0x0 PUSH1 0x40 MLOAD DUP1 DUP4 SUB DUP2 DUP7 DUP1 EXTCODESIZE ISZERO DUP1 ISZERO PUSH2 0x1D6 JUMPI PUSH1 0x0 DUP1 REVERT JUMPDEST POP GAS DELEGATECALL ISZERO DUP1 ISZERO PUSH2 0x1EA JUMPI RETURNDATASIZE PUSH1 0x0 DUP1 RETURNDATACOPY RETURNDATASIZE PUSH1 0x0 REVERT JUMPDEST POP POP POP POP JUMP JUMPDEST PUSH2 0x204 DUP2 PUSH1 0x0 PUSH2 0x3B1 SWAP1 SWAP2 SWAP1 PUSH4 0xFFFFFFFF AND JUMP JUMPDEST PUSH32 0xA4869F7C3FA4F122D4CA6781128192666D46E2B77AAD294A632BD83717091234 CALLER DUP3 PUSH1 0x40 MLOAD DUP1 DUP4 PUSH20 0xFFFFFFFFFFFFFFFFFFFFFFFFFFFFFFFFFFFFFFFF AND PUSH20 0xFFFFFFFFFFFFFFFFFFFFFFFFFFFFFFFFFFFFFFFF AND DUP2 MSTORE PUSH1 0x20 ADD DUP1 PUSH1 0x20 ADD DUP4 DUP2 MSTORE PUSH1 0x20 ADD DUP3 DUP2 SUB DUP3 MSTORE PUSH1 0x6 DUP2 MSTORE PUSH1 0x20 ADD DUP1 PUSH32 0x696E736572740000000000000000000000000000000000000000000000000000 DUP2 MSTORE POP PUSH1 0x20 ADD SWAP4 POP POP POP POP PUSH1 0x40 MLOAD DUP1 SWAP2 SUB SWAP1 LOG1 POP JUMP JUMPDEST PUSH1 0x0 PUSH2 0x2C1 DUP3 PUSH1 0x0 PUSH2 0x4BA SWAP1 SWAP2 SWAP1 PUSH4 0xFFFFFFFF AND JUMP JUMPDEST SWAP1 POP SWAP2 SWAP1 POP JUMP JUMPDEST PUSH1 0x0 PUSH2 0x2DE DUP3 PUSH1 0x0 PUSH2 0x50E SWAP1 SWAP2 SWAP1 PUSH4 0xFFFFFFFF AND JUMP JUMPDEST SWAP1 POP SWAP2 SWAP1 POP JUMP JUMPDEST PUSH2 0x2F9 DUP2 PUSH1 0x0 PUSH2 0x532 SWAP1 SWAP2 SWAP1 PUSH4 0xFFFFFFFF AND JUMP JUMPDEST PUSH32 0xA4869F7C3FA4F122D4CA6781128192666D46E2B77AAD294A632BD83717091234 CALLER DUP3 PUSH1 0x40 MLOAD DUP1 DUP4 PUSH20 0xFFFFFFFFFFFFFFFFFFFFFFFFFFFFFFFFFFFFFFFF AND PUSH20 0xFFFFFFFFFFFFFFFFFFFFFFFFFFFFFFFFFFFFFFFF AND DUP2 MSTORE PUSH1 0x20 ADD DUP1 PUSH1 0x20 ADD DUP4 DUP2 MSTORE PUSH1 0x20 ADD DUP3 DUP2 SUB DUP3 MSTORE PUSH1 0x6 DUP2 MSTORE PUSH1 0x20 ADD DUP1 PUSH32 0x72656D6F76650000000000000000000000000000000000000000000000000000 DUP2 MSTORE POP PUSH1 0x20 ADD SWAP4 POP POP POP POP PUSH1 0x40 MLOAD DUP1 SWAP2 SUB SWAP1 LOG1 POP JUMP JUMPDEST PUSH1 0x0 DUP2 PUSH1 0x1 ADD DUP1 SLOAD SWAP1 POP SWAP1 POP SWAP2 SWAP1 POP JUMP JUMPDEST PUSH1 0x0 DUP1 SHL DUP2 EQ ISZERO PUSH2 0x40D JUMPI PUSH1 0x40 MLOAD PUSH32 0x8C379A000000000000000000000000000000000000000000000000000000000 DUP2 MSTORE PUSH1 0x4 ADD DUP1 DUP1 PUSH1 0x20 ADD DUP3 DUP2 SUB DUP3 MSTORE PUSH1 0x28 DUP2 MSTORE PUSH1 0x20 ADD DUP1 PUSH2 0x695 PUSH1 0x28 SWAP2 CODECOPY PUSH1 0x40 ADD SWAP2 POP POP PUSH1 0x40 MLOAD DUP1 SWAP2 SUB SWAP1 REVERT JUMPDEST PUSH2 0x417 DUP3 DUP3 PUSH2 0x4BA JUMP JUMPDEST ISZERO PUSH2 0x46D JUMPI PUSH1 0x40 MLOAD PUSH32 0x8C379A000000000000000000000000000000000000000000000000000000000 DUP2 MSTORE PUSH1 0x4 ADD DUP1 DUP1 PUSH1 0x20 ADD DUP3 DUP2 SUB DUP3 MSTORE PUSH1 0x35 DUP2 MSTORE PUSH1 0x20 ADD DUP1 PUSH2 0x6F2 PUSH1 0x35 SWAP2 CODECOPY PUSH1 0x40 ADD SWAP2 POP POP PUSH1 0x40 MLOAD DUP1 SWAP2 SUB SWAP1 REVERT JUMPDEST PUSH1 0x1 DUP3 PUSH1 0x1 ADD DUP3 SWAP1 DUP1 PUSH1 0x1 DUP2 SLOAD ADD DUP1 DUP3 SSTORE DUP1 SWAP2 POP POP SWAP1 PUSH1 0x1 DUP3 SUB SWAP1 PUSH1 0x0 MSTORE PUSH1 0x20 PUSH1 0x0 KECCAK256 ADD PUSH1 0x0 SWAP1 SWAP2 SWAP3 SWAP1 SWAP2 SWAP1 SWAP2 POP SSTORE SUB DUP3 PUSH1 0x0 ADD PUSH1 0x0 DUP4 DUP2 MSTORE PUSH1 0x20 ADD SWAP1 DUP2 MSTORE PUSH1 0x20 ADD PUSH1 0x0 KECCAK256 DUP2 SWAP1 SSTORE POP POP POP JUMP JUMPDEST PUSH1 0x0 DUP1 DUP4 PUSH1 0x1 ADD DUP1 SLOAD SWAP1 POP EQ ISZERO PUSH2 0x4D4 JUMPI PUSH1 0x0 SWAP1 POP PUSH2 0x508 JUMP JUMPDEST DUP2 DUP4 PUSH1 0x1 ADD DUP5 PUSH1 0x0 ADD PUSH1 0x0 DUP6 DUP2 MSTORE PUSH1 0x20 ADD SWAP1 DUP2 MSTORE PUSH1 0x20 ADD PUSH1 0x0 KECCAK256 SLOAD DUP2 SLOAD DUP2 LT PUSH2 0x4F9 JUMPI INVALID JUMPDEST SWAP1 PUSH1 0x0 MSTORE PUSH1 0x20 PUSH1 0x0 KECCAK256 ADD SLOAD EQ SWAP1 POP JUMPDEST SWAP3 SWAP2 POP POP JUMP JUMPDEST PUSH1 0x0 DUP3 PUSH1 0x1 ADD DUP3 DUP2 SLOAD DUP2 LT PUSH2 0x51F JUMPI INVALID JUMPDEST SWAP1 PUSH1 0x0 MSTORE PUSH1 0x20 PUSH1 0x0 KECCAK256 ADD SLOAD SWAP1 POP SWAP3 SWAP2 POP POP JUMP JUMPDEST PUSH2 0x53C DUP3 DUP3 PUSH2 0x4BA JUMP JUMPDEST PUSH2 0x591 JUMPI PUSH1 0x40 MLOAD PUSH32 0x8C379A000000000000000000000000000000000000000000000000000000000 DUP2 MSTORE PUSH1 0x4 ADD DUP1 DUP1 PUSH1 0x20 ADD DUP3 DUP2 SUB DUP3 MSTORE PUSH1 0x35 DUP2 MSTORE PUSH1 0x20 ADD DUP1 PUSH2 0x6BD PUSH1 0x35 SWAP2 CODECOPY PUSH1 0x40 ADD SWAP2 POP POP PUSH1 0x40 MLOAD DUP1 SWAP2 SUB SWAP1 REVERT JUMPDEST PUSH1 0x0 DUP3 PUSH1 0x1 ADD PUSH1 0x1 PUSH2 0x5A2 DUP6 PUSH2 0x3A0 JUMP JUMPDEST SUB DUP2 SLOAD DUP2 LT PUSH2 0x5AD JUMPI INVALID JUMPDEST SWAP1 PUSH1 0x0 MSTORE PUSH1 0x20 PUSH1 0x0 KECCAK256 ADD SLOAD SWAP1 POP PUSH1 0x0 DUP4 PUSH1 0x0 ADD PUSH1 0x0 DUP5 DUP2 MSTORE PUSH1 0x20 ADD SWAP1 DUP2 MSTORE PUSH1 0x20 ADD PUSH1 0x0 KECCAK256 SLOAD SWAP1 POP DUP1 DUP5 PUSH1 0x0 ADD PUSH1 0x0 DUP5 DUP2 MSTORE PUSH1 0x20 ADD SWAP1 DUP2 MSTORE PUSH1 0x20 ADD PUSH1 0x0 KECCAK256 DUP2 SWAP1 SSTORE POP DUP2 DUP5 PUSH1 0x1 ADD DUP3 DUP2 SLOAD DUP2 LT PUSH2 0x5FE JUMPI INVALID JUMPDEST SWAP1 PUSH1 0x0 MSTORE PUSH1 0x20 PUSH1 0x0 KECCAK256 ADD DUP2 SWAP1 SSTORE POP DUP4 PUSH1 0x0 ADD PUSH1 0x0 DUP5 DUP2 MSTORE PUSH1 0x20 ADD SWAP1 DUP2 MSTORE PUSH1 0x20 ADD PUSH1 0x0 KECCAK256 PUSH1 0x0 SWAP1 SSTORE DUP4 PUSH1 0x1 ADD DUP1 SLOAD DUP1 SWAP2 SWAP1 PUSH1 0x1 SWAP1 SUB PUSH2 0x63C SWAP2 SWAP1 PUSH2 0x643 JUMP JUMPDEST POP POP POP POP POP JUMP JUMPDEST DUP2 SLOAD DUP2 DUP4 SSTORE DUP2 DUP2 GT ISZERO PUSH2 0x66A JUMPI DUP2 DUP4 PUSH1 0x0 MSTORE PUSH1 0x20 PUSH1 0x0 KECCAK256 SWAP2 DUP3 ADD SWAP2 ADD PUSH2 0x669 SWAP2 SWAP1 PUSH2 0x66F JUMP JUMPDEST JUMPDEST POP POP POP JUMP JUMPDEST PUSH2 0x691 SWAP2 SWAP1 JUMPDEST DUP1 DUP3 GT ISZERO PUSH2 0x68D JUMPI PUSH1 0x0 DUP2 PUSH1 0x0 SWAP1 SSTORE POP PUSH1 0x1 ADD PUSH2 0x675 JUMP JUMPDEST POP SWAP1 JUMP JUMPDEST SWAP1 JUMP INVALID SSTORE PUSH15 0x6F7264657265644B65795365742831 ADDRESS ADDRESS 0x29 KECCAK256 0x2D KECCAK256 0x4B PUSH6 0x792063616E6E PUSH16 0x7420626520307830556E6F7264657265 PUSH5 0x4B65795365 PUSH21 0x2831303229202D204B657920646F6573206E6F7420 PUSH6 0x786973742069 PUSH15 0x20746865207365742E556E6F726465 PUSH19 0x65644B65795365742831303129202D204B6579 KECCAK256 PUSH2 0x6C72 PUSH6 0x616479206578 PUSH10 0x73747320696E20746865 KECCAK256 PUSH20 0x65742EA265627A7A72315820B42D8B4675694BF8 NOT CODECOPY 0xD6 0xCE 0xF 0x2F 0x5C 0xDE 0x21 0xDB SWAP3 DUP9 CODESIZE 0x5C MOD SWAP7 SMOD RETURNDATASIZE PUSH19 0x1F5DF69C4A64736F6C63430005100032000000 "},"gasEstimates":{"creation":{"codeDepositCost":"376600","executionCost":"411","totalCost":"377011"},"external":{"count()":"1048","exists(bytes32)":"infinite","insert(bytes32)":"infinite","keyAtIndex(uint256)":"infinite","nukeSet()":"infinite","remove(bytes32)":"infinite"}},"methodIdentifiers":{"count()":"06661abd","exists(bytes32)":"38a699a4","insert(bytes32)":"2d287e43","keyAtIndex(uint256)":"8e0db0d9","nukeSet()":"0e654c02","remove(bytes32)":"95bc2673"}},"storageLayout":{"storage":[{"astId":236,"contract":"HitchensUnorderedKeySet.sol:HitchensUnorderedKeySet","label":"set","offset":0,"slot":"0","type":"t_struct(Set)9_storage"}],"types":{"t_array(t_bytes32)dyn_storage":{"base":"t_bytes32","encoding":"dynamic_array","label":"bytes32[]","numberOfBytes":"32"},"t_bytes32":{"encoding":"inplace","label":"bytes32","numberOfBytes":"32"},"t_mapping(t_bytes32,t_uint256)":{"encoding":"mapping","key":"t_bytes32","label":"mapping(bytes32 => uint256)","numberOfBytes":"32","value":"t_uint256"},"t_struct(Set)9_storage":{"encoding":"inplace","label":"struct HitchensUnorderedKeySetLib.Set","members":[{"astId":5,"contract":"HitchensUnorderedKeySet.sol:HitchensUnorderedKeySet","label":"keyPointers","offset":0,"slot":"0","type":"t_mapping(t_bytes32,t_uint256)"},{"astId":8,"contract":"HitchensUnorderedKeySet.sol:HitchensUnorderedKeySet","label":"keyList","offset":0,"slot":"1","type":"t_array(t_bytes32)dyn_storage"}],"numberOfBytes":"64"},"t_uint256":{"encoding":"inplace","label":"uint256","numberOfBytes":"32"}}},"userdoc":{"methods":{}}}