{"abi":[{"inputs":[{"internalType":"address","name":"repFactoryAddress","type":"address"},{"internalType":"address","name":"sender","type":"address"}],"payable":false,"stateMutability":"nonpayable","type":"constructor"},{"constant":false,"inputs":[{"internalType":"uint256","name":"addRep","type":"uint256"}],"name":"addReputation","outputs":[],"payable":false,"stateMutability":"nonpayable","type":"function"},{"constant":false,"inputs":[{"internalType":"address payable","name":"topicAddress","type":"address"},{"internalType":"address","name":"sender","type":"address"}],"name":"addTopic","outputs":[],"payable":false,"stateMutability":"nonpayable","type":"function"},{"constant":true,"inputs":[],"name":"getNumberOfTopics","outputs":[{"internalType":"uint256","name":"","type":"uint256"}],"payable":false,"stateMutability":"view","type":"function"},{"constant":true,"inputs":[{"internalType":"uint256","name":"startIndex","type":"uint256"},{"internalType":"uint256","name":"endIndex","type":"uint256"}],"name":"getTopics","outputs":[{"internalType":"address[]","name":"","type":"address[]"}],"payable":false,"stateMutability":"view","type":"function"},{"constant":true,"inputs":[],"name":"owner","outputs":[{"internalType":"address","name":"","type":"address"}],"payable":false,"stateMutability":"view","type":"function"},{"constant":true,"inputs":[],"name":"rep","outputs":[{"internalType":"uint256","name":"","type":"uint256"}],"payable":false,"stateMutability":"view","type":"function"},{"constant":false,"inputs":[{"internalType":"address","name":"topic","type":"address"},{"internalType":"uint256","name":"removeRep","type":"uint256"}],"name":"spendReputation","outputs":[],"payable":false,"stateMutability":"nonpayable","type":"function"}],"devdoc":{"methods":{}},"evm":{"assembly":"    /* \"Reputation.sol\":53:2007  contract Reputation {\r... */\n  mstore(0x40, 0x80)\n    /* \"Reputation.sol\":774:944  constructor(address repFactoryAddress, address sender) public {\r... */\n  callvalue\n    /* \"--CODEGEN--\":8:17   */\n  dup1\n    /* \"--CODEGEN--\":5:7   */\n  iszero\n  tag_1\n  jumpi\n    /* \"--CODEGEN--\":30:31   */\n  0x00\n    /* \"--CODEGEN--\":27:28   */\n  dup1\n    /* \"--CODEGEN--\":20:32   */\n  revert\n    /* \"--CODEGEN--\":5:7   */\ntag_1:\n    /* \"Reputation.sol\":774:944  constructor(address repFactoryAddress, address sender) public {\r... */\n  pop\n  mload(0x40)\n  sub(codesize, bytecodeSize)\n  dup1\n  bytecodeSize\n  dup4\n  codecopy\n  dup2\n  dup2\n  add\n  0x40\n  mstore\n    /* \"--CODEGEN--\":13:15   */\n  0x40\n    /* \"--CODEGEN--\":8:11   */\n  dup2\n    /* \"--CODEGEN--\":5:16   */\n  lt\n    /* \"--CODEGEN--\":2:4   */\n  iszero\n  tag_2\n  jumpi\n    /* \"--CODEGEN--\":29:30   */\n  0x00\n    /* \"--CODEGEN--\":26:27   */\n  dup1\n    /* \"--CODEGEN--\":19:31   */\n  revert\n    /* \"--CODEGEN--\":2:4   */\ntag_2:\n    /* \"Reputation.sol\":774:944  constructor(address repFactoryAddress, address sender) public {\r... */\n  dup2\n  add\n  swap1\n  dup1\n  dup1\n  mload\n  swap1\n  0x20\n  add\n  swap1\n  swap3\n  swap2\n  swap1\n  dup1\n  mload\n  swap1\n  0x20\n  add\n  swap1\n  swap3\n  swap2\n  swap1\n  pop\n  pop\n  pop\n    /* \"Reputation.sol\":874:891  repFactoryAddress */\n  dup2\n    /* \"Reputation.sol\":847:871  reputationFactoryAddress */\n  0x00\n  dup1\n    /* \"Reputation.sol\":847:891  reputationFactoryAddress = repFactoryAddress */\n  0x0100\n  exp\n  dup2\n  sload\n  dup2\n  0xffffffffffffffffffffffffffffffffffffffff\n  mul\n  not\n  and\n  swap1\n  dup4\n  0xffffffffffffffffffffffffffffffffffffffff\n  and\n  mul\n  or\n  swap1\n  sstore\n  pop\n    /* \"Reputation.sol\":908:911  100 */\n  0x64\n    /* \"Reputation.sol\":902:905  rep */\n  0x02\n    /* \"Reputation.sol\":902:911  rep = 100 */\n  dup2\n  swap1\n  sstore\n  pop\n    /* \"Reputation.sol\":930:936  sender */\n  dup1\n    /* \"Reputation.sol\":922:927  owner */\n  0x01\n  0x00\n    /* \"Reputation.sol\":922:936  owner = sender */\n  0x0100\n  exp\n  dup2\n  sload\n  dup2\n  0xffffffffffffffffffffffffffffffffffffffff\n  mul\n  not\n  and\n  swap1\n  dup4\n  0xffffffffffffffffffffffffffffffffffffffff\n  and\n  mul\n  or\n  swap1\n  sstore\n  pop\n    /* \"Reputation.sol\":774:944  constructor(address repFactoryAddress, address sender) public {\r... */\n  pop\n  pop\n    /* \"Reputation.sol\":53:2007  contract Reputation {\r... */\n  dataSize(sub_0)\n  dup1\n  dataOffset(sub_0)\n  0x00\n  codecopy\n  0x00\n  return\nstop\n\nsub_0: assembly {\n        /* \"Reputation.sol\":53:2007  contract Reputation {\r... */\n      mstore(0x40, 0x80)\n      callvalue\n        /* \"--CODEGEN--\":8:17   */\n      dup1\n        /* \"--CODEGEN--\":5:7   */\n      iszero\n      tag_1\n      jumpi\n        /* \"--CODEGEN--\":30:31   */\n      0x00\n        /* \"--CODEGEN--\":27:28   */\n      dup1\n        /* \"--CODEGEN--\":20:32   */\n      revert\n        /* \"--CODEGEN--\":5:7   */\n    tag_1:\n        /* \"Reputation.sol\":53:2007  contract Reputation {\r... */\n      pop\n      jumpi(tag_2, lt(calldatasize, 0x04))\n      shr(0xe0, calldataload(0x00))\n      dup1\n      0xb50ac9fc\n      gt\n      tag_10\n      jumpi\n      dup1\n      0xb50ac9fc\n      eq\n      tag_6\n      jumpi\n      dup1\n      0xc729818b\n      eq\n      tag_7\n      jumpi\n      dup1\n      0xc881cc60\n      eq\n      tag_8\n      jumpi\n      dup1\n      0xccc07959\n      eq\n      tag_9\n      jumpi\n      jump(tag_2)\n    tag_10:\n      dup1\n      0x56ea46d9\n      eq\n      tag_3\n      jumpi\n      dup1\n      0x8da5cb5b\n      eq\n      tag_4\n      jumpi\n      dup1\n      0x908f9184\n      eq\n      tag_5\n      jumpi\n    tag_2:\n      0x00\n      dup1\n      revert\n        /* \"Reputation.sol\":1293:1656  function getTopics(uint startIndex, uint endIndex) public view returns (address[] memory) {\r... */\n    tag_3:\n      tag_11\n      0x04\n      dup1\n      calldatasize\n      sub\n        /* \"--CODEGEN--\":13:15   */\n      0x40\n        /* \"--CODEGEN--\":8:11   */\n      dup2\n        /* \"--CODEGEN--\":5:16   */\n      lt\n        /* \"--CODEGEN--\":2:4   */\n      iszero\n      tag_12\n      jumpi\n        /* \"--CODEGEN--\":29:30   */\n      0x00\n        /* \"--CODEGEN--\":26:27   */\n      dup1\n        /* \"--CODEGEN--\":19:31   */\n      revert\n        /* \"--CODEGEN--\":2:4   */\n    tag_12:\n        /* \"Reputation.sol\":1293:1656  function getTopics(uint startIndex, uint endIndex) public view returns (address[] memory) {\r... */\n      dup2\n      add\n      swap1\n      dup1\n      dup1\n      calldataload\n      swap1\n      0x20\n      add\n      swap1\n      swap3\n      swap2\n      swap1\n      dup1\n      calldataload\n      swap1\n      0x20\n      add\n      swap1\n      swap3\n      swap2\n      swap1\n      pop\n      pop\n      pop\n      tag_13\n      jump\t// in\n    tag_11:\n      mload(0x40)\n      dup1\n      dup1\n      0x20\n      add\n      dup3\n      dup2\n      sub\n      dup3\n      mstore\n      dup4\n      dup2\n      dup2\n      mload\n      dup2\n      mstore\n      0x20\n      add\n      swap2\n      pop\n      dup1\n      mload\n      swap1\n      0x20\n      add\n      swap1\n      0x20\n      mul\n      dup1\n      dup4\n      dup4\n        /* \"--CODEGEN--\":23:24   */\n      0x00\n        /* \"--CODEGEN--\":8:108   */\n    tag_14:\n        /* \"--CODEGEN--\":33:36   */\n      dup4\n        /* \"--CODEGEN--\":30:31   */\n      dup2\n        /* \"--CODEGEN--\":27:37   */\n      lt\n        /* \"--CODEGEN--\":8:108   */\n      iszero\n      tag_16\n      jumpi\n        /* \"--CODEGEN--\":99:100   */\n      dup1\n        /* \"--CODEGEN--\":94:97   */\n      dup3\n        /* \"--CODEGEN--\":90:101   */\n      add\n        /* \"--CODEGEN--\":84:102   */\n      mload\n        /* \"--CODEGEN--\":80:81   */\n      dup2\n        /* \"--CODEGEN--\":75:78   */\n      dup5\n        /* \"--CODEGEN--\":71:82   */\n      add\n        /* \"--CODEGEN--\":64:103   */\n      mstore\n        /* \"--CODEGEN--\":52:54   */\n      0x20\n        /* \"--CODEGEN--\":49:50   */\n      dup2\n        /* \"--CODEGEN--\":45:55   */\n      add\n        /* \"--CODEGEN--\":40:55   */\n      swap1\n      pop\n        /* \"--CODEGEN--\":8:108   */\n      jump(tag_14)\n    tag_16:\n        /* \"--CODEGEN--\":12:26   */\n      pop\n        /* \"Reputation.sol\":1293:1656  function getTopics(uint startIndex, uint endIndex) public view returns (address[] memory) {\r... */\n      pop\n      pop\n      pop\n      swap1\n      pop\n      add\n      swap3\n      pop\n      pop\n      pop\n      mload(0x40)\n      dup1\n      swap2\n      sub\n      swap1\n      return\n        /* \"Reputation.sol\":344:364  address public owner */\n    tag_4:\n      tag_17\n      tag_18\n      jump\t// in\n    tag_17:\n      mload(0x40)\n      dup1\n      dup3\n      0xffffffffffffffffffffffffffffffffffffffff\n      and\n      0xffffffffffffffffffffffffffffffffffffffff\n      and\n      dup2\n      mstore\n      0x20\n      add\n      swap2\n      pop\n      pop\n      mload(0x40)\n      dup1\n      swap2\n      sub\n      swap1\n      return\n        /* \"Reputation.sol\":1770:2004  function spendReputation(address topic, uint removeRep) public _reputationFactoryOnly {\r... */\n    tag_5:\n      tag_19\n      0x04\n      dup1\n      calldatasize\n      sub\n        /* \"--CODEGEN--\":13:15   */\n      0x40\n        /* \"--CODEGEN--\":8:11   */\n      dup2\n        /* \"--CODEGEN--\":5:16   */\n      lt\n        /* \"--CODEGEN--\":2:4   */\n      iszero\n      tag_20\n      jumpi\n        /* \"--CODEGEN--\":29:30   */\n      0x00\n        /* \"--CODEGEN--\":26:27   */\n      dup1\n        /* \"--CODEGEN--\":19:31   */\n      revert\n        /* \"--CODEGEN--\":2:4   */\n    tag_20:\n        /* \"Reputation.sol\":1770:2004  function spendReputation(address topic, uint removeRep) public _reputationFactoryOnly {\r... */\n      dup2\n      add\n      swap1\n      dup1\n      dup1\n      calldataload\n      0xffffffffffffffffffffffffffffffffffffffff\n      and\n      swap1\n      0x20\n      add\n      swap1\n      swap3\n      swap2\n      swap1\n      dup1\n      calldataload\n      swap1\n      0x20\n      add\n      swap1\n      swap3\n      swap2\n      swap1\n      pop\n      pop\n      pop\n      tag_21\n      jump\t// in\n    tag_19:\n      stop\n        /* \"Reputation.sol\":1664:1762  function addReputation(uint addRep) public _reputationFactoryOnly {\r... */\n    tag_6:\n      tag_22\n      0x04\n      dup1\n      calldatasize\n      sub\n        /* \"--CODEGEN--\":13:15   */\n      0x20\n        /* \"--CODEGEN--\":8:11   */\n      dup2\n        /* \"--CODEGEN--\":5:16   */\n      lt\n        /* \"--CODEGEN--\":2:4   */\n      iszero\n      tag_23\n      jumpi\n        /* \"--CODEGEN--\":29:30   */\n      0x00\n        /* \"--CODEGEN--\":26:27   */\n      dup1\n        /* \"--CODEGEN--\":19:31   */\n      revert\n        /* \"--CODEGEN--\":2:4   */\n    tag_23:\n        /* \"Reputation.sol\":1664:1762  function addReputation(uint addRep) public _reputationFactoryOnly {\r... */\n      dup2\n      add\n      swap1\n      dup1\n      dup1\n      calldataload\n      swap1\n      0x20\n      add\n      swap1\n      swap3\n      swap2\n      swap1\n      pop\n      pop\n      pop\n      tag_24\n      jump\t// in\n    tag_22:\n      stop\n        /* \"Reputation.sol\":1190:1285  function getNumberOfTopics() public view returns (uint) {\r... */\n    tag_7:\n      tag_25\n      tag_26\n      jump\t// in\n    tag_25:\n      mload(0x40)\n      dup1\n      dup3\n      dup2\n      mstore\n      0x20\n      add\n      swap2\n      pop\n      pop\n      mload(0x40)\n      dup1\n      swap2\n      sub\n      swap1\n      return\n        /* \"Reputation.sol\":952:1182  function addTopic(address payable topicAddress, address sender) public {\r... */\n    tag_8:\n      tag_27\n      0x04\n      dup1\n      calldatasize\n      sub\n        /* \"--CODEGEN--\":13:15   */\n      0x40\n        /* \"--CODEGEN--\":8:11   */\n      dup2\n        /* \"--CODEGEN--\":5:16   */\n      lt\n        /* \"--CODEGEN--\":2:4   */\n      iszero\n      tag_28\n      jumpi\n        /* \"--CODEGEN--\":29:30   */\n      0x00\n        /* \"--CODEGEN--\":26:27   */\n      dup1\n        /* \"--CODEGEN--\":19:31   */\n      revert\n        /* \"--CODEGEN--\":2:4   */\n    tag_28:\n        /* \"Reputation.sol\":952:1182  function addTopic(address payable topicAddress, address sender) public {\r... */\n      dup2\n      add\n      swap1\n      dup1\n      dup1\n      calldataload\n      0xffffffffffffffffffffffffffffffffffffffff\n      and\n      swap1\n      0x20\n      add\n      swap1\n      swap3\n      swap2\n      swap1\n      dup1\n      calldataload\n      0xffffffffffffffffffffffffffffffffffffffff\n      and\n      swap1\n      0x20\n      add\n      swap1\n      swap3\n      swap2\n      swap1\n      pop\n      pop\n      pop\n      tag_29\n      jump\t// in\n    tag_27:\n      stop\n        /* \"Reputation.sol\":371:386  uint public rep */\n    tag_9:\n      tag_30\n      tag_31\n      jump\t// in\n    tag_30:\n      mload(0x40)\n      dup1\n      dup3\n      dup2\n      mstore\n      0x20\n      add\n      swap2\n      pop\n      pop\n      mload(0x40)\n      dup1\n      swap2\n      sub\n      swap1\n      return\n        /* \"Reputation.sol\":1293:1656  function getTopics(uint startIndex, uint endIndex) public view returns (address[] memory) {\r... */\n    tag_13:\n        /* \"Reputation.sol\":1365:1381  address[] memory */\n      0x60\n        /* \"Reputation.sol\":1394:1403  uint diff */\n      0x00\n        /* \"Reputation.sol\":1417:1427  startIndex */\n      dup4\n        /* \"Reputation.sol\":1406:1414  endIndex */\n      dup4\n        /* \"Reputation.sol\":1406:1427  endIndex - startIndex */\n      sub\n        /* \"Reputation.sol\":1394:1427  uint diff = endIndex - startIndex */\n      swap1\n      pop\n        /* \"Reputation.sol\":1438:1465  address[] memory tempTopics */\n      0x60\n        /* \"Reputation.sol\":1491:1501  startIndex */\n      dup5\n        /* \"Reputation.sol\":1482:1490  endIndex */\n      dup5\n        /* \"Reputation.sol\":1482:1501  endIndex-startIndex */\n      sub\n        /* \"Reputation.sol\":1468:1502  new address[](endIndex-startIndex) */\n      mload(0x40)\n      swap1\n      dup1\n      dup3\n      mstore\n      dup1\n      0x20\n      mul\n      0x20\n      add\n      dup3\n      add\n      0x40\n      mstore\n      dup1\n      iszero\n      tag_33\n      jumpi\n      dup2\n      0x20\n      add\n        /* \"--CODEGEN--\":29:31   */\n      0x20\n        /* \"--CODEGEN--\":21:27   */\n      dup3\n        /* \"--CODEGEN--\":17:32   */\n      mul\n        /* \"--CODEGEN--\":117:121   */\n      dup1\n        /* \"--CODEGEN--\":105:115   */\n      codesize\n        /* \"--CODEGEN--\":97:103   */\n      dup4\n        /* \"--CODEGEN--\":88:122   */\n      codecopy\n        /* \"--CODEGEN--\":148:152   */\n      dup1\n        /* \"--CODEGEN--\":140:146   */\n      dup3\n        /* \"--CODEGEN--\":136:153   */\n      add\n        /* \"--CODEGEN--\":126:153   */\n      swap2\n      pop\n        /* \"--CODEGEN--\":0:157   */\n      pop\n        /* \"Reputation.sol\":1468:1502  new address[](endIndex-startIndex) */\n      swap1\n      pop\n    tag_33:\n      pop\n        /* \"Reputation.sol\":1438:1502  address[] memory tempTopics = new address[](endIndex-startIndex) */\n      swap1\n      pop\n        /* \"Reputation.sol\":1520:1526  uint i */\n      0x00\n        /* \"Reputation.sol\":1529:1530  0 */\n      dup1\n        /* \"Reputation.sol\":1520:1530  uint i = 0 */\n      swap1\n      pop\n        /* \"Reputation.sol\":1515:1621  for (uint i = 0; i < diff; i++) {\r... */\n    tag_34:\n        /* \"Reputation.sol\":1536:1540  diff */\n      dup3\n        /* \"Reputation.sol\":1532:1533  i */\n      dup2\n        /* \"Reputation.sol\":1532:1540  i < diff */\n      lt\n        /* \"Reputation.sol\":1515:1621  for (uint i = 0; i < diff; i++) {\r... */\n      iszero\n      tag_35\n      jumpi\n        /* \"Reputation.sol\":1586:1592  topics */\n      0x03\n        /* \"Reputation.sol\":1606:1607  i */\n      dup2\n        /* \"Reputation.sol\":1593:1603  startIndex */\n      dup8\n        /* \"Reputation.sol\":1593:1607  startIndex + i */\n      add\n        /* \"Reputation.sol\":1586:1608  topics[startIndex + i] */\n      dup2\n      sload\n      dup2\n      lt\n      tag_37\n      jumpi\n      invalid\n    tag_37:\n      swap1\n      0x00\n      mstore\n      keccak256(0x00, 0x20)\n      add\n      0x00\n      swap1\n      sload\n      swap1\n      0x0100\n      exp\n      swap1\n      div\n      0xffffffffffffffffffffffffffffffffffffffff\n      and\n        /* \"Reputation.sol\":1562:1572  tempTopics */\n      dup3\n        /* \"Reputation.sol\":1573:1574  i */\n      dup3\n        /* \"Reputation.sol\":1562:1575  tempTopics[i] */\n      dup2\n      mload\n      dup2\n      lt\n      tag_39\n      jumpi\n      invalid\n    tag_39:\n      0x20\n      mul\n      0x20\n      add\n      add\n        /* \"Reputation.sol\":1562:1609  tempTopics[i] = address(topics[startIndex + i]) */\n      swap1\n      0xffffffffffffffffffffffffffffffffffffffff\n      and\n      swap1\n      dup2\n      0xffffffffffffffffffffffffffffffffffffffff\n      and\n      dup2\n      mstore\n      pop\n      pop\n        /* \"Reputation.sol\":1542:1545  i++ */\n      dup1\n      dup1\n      0x01\n      add\n      swap2\n      pop\n      pop\n        /* \"Reputation.sol\":1515:1621  for (uint i = 0; i < diff; i++) {\r... */\n      jump(tag_34)\n    tag_35:\n      pop\n        /* \"Reputation.sol\":1638:1648  tempTopics */\n      dup1\n        /* \"Reputation.sol\":1631:1648  return tempTopics */\n      swap3\n      pop\n      pop\n      pop\n        /* \"Reputation.sol\":1293:1656  function getTopics(uint startIndex, uint endIndex) public view returns (address[] memory) {\r... */\n      swap3\n      swap2\n      pop\n      pop\n      jump\t// out\n        /* \"Reputation.sol\":344:364  address public owner */\n    tag_18:\n      0x01\n      0x00\n      swap1\n      sload\n      swap1\n      0x0100\n      exp\n      swap1\n      div\n      0xffffffffffffffffffffffffffffffffffffffff\n      and\n      dup2\n      jump\t// out\n        /* \"Reputation.sol\":1770:2004  function spendReputation(address topic, uint removeRep) public _reputationFactoryOnly {\r... */\n    tag_21:\n        /* \"Reputation.sol\":664:688  reputationFactoryAddress */\n      0x00\n      dup1\n      swap1\n      sload\n      swap1\n      0x0100\n      exp\n      swap1\n      div\n      0xffffffffffffffffffffffffffffffffffffffff\n      and\n        /* \"Reputation.sol\":650:688  msg.sender == reputationFactoryAddress */\n      0xffffffffffffffffffffffffffffffffffffffff\n      and\n        /* \"Reputation.sol\":650:660  msg.sender */\n      caller\n        /* \"Reputation.sol\":650:688  msg.sender == reputationFactoryAddress */\n      0xffffffffffffffffffffffffffffffffffffffff\n      and\n      eq\n        /* \"Reputation.sol\":642:746  require(msg.sender == reputationFactoryAddress, 'Only the reputation factory can invoke this function.') */\n      tag_41\n      jumpi\n      mload(0x40)\n      0x08c379a000000000000000000000000000000000000000000000000000000000\n      dup2\n      mstore\n      0x04\n      add\n      dup1\n      dup1\n      0x20\n      add\n      dup3\n      dup2\n      sub\n      dup3\n      mstore\n      0x35\n      dup2\n      mstore\n      0x20\n      add\n      dup1\n      data_d53f9906e0171eb79392ab60580151b625571c2aa0c2f67b33b41318a7de8c6a\n      0x35\n      swap2\n      codecopy\n      0x40\n      add\n      swap2\n      pop\n      pop\n      mload(0x40)\n      dup1\n      swap2\n      sub\n      swap1\n      revert\n    tag_41:\n        /* \"Reputation.sol\":1882:1891  removeRep */\n      dup1\n        /* \"Reputation.sol\":1875:1878  rep */\n      sload(0x02)\n        /* \"Reputation.sol\":1875:1891  rep >= removeRep */\n      lt\n      iszero\n        /* \"Reputation.sol\":1867:1935  require(rep >= removeRep, \"You don't have enough rep to give away.\") */\n      tag_43\n      jumpi\n      mload(0x40)\n      0x08c379a000000000000000000000000000000000000000000000000000000000\n      dup2\n      mstore\n      0x04\n      add\n      dup1\n      dup1\n      0x20\n      add\n      dup3\n      dup2\n      sub\n      dup3\n      mstore\n      0x27\n      dup2\n      mstore\n      0x20\n      add\n      dup1\n      data_4bcad3f30b5a6f99e21c62331798cb3581db9a809305078b4b83e856df08713f\n      0x27\n      swap2\n      codecopy\n      0x40\n      add\n      swap2\n      pop\n      pop\n      mload(0x40)\n      dup1\n      swap2\n      sub\n      swap1\n      revert\n    tag_43:\n        /* \"Reputation.sol\":1946:1957  votedTopics */\n      0x04\n        /* \"Reputation.sol\":1963:1968  topic */\n      dup3\n        /* \"Reputation.sol\":1946:1969  votedTopics.push(topic) */\n      swap1\n      dup1\n        /* \"--CODEGEN--\":39:40   */\n      0x01\n        /* \"--CODEGEN--\":33:36   */\n      dup2\n        /* \"--CODEGEN--\":27:37   */\n      sload\n        /* \"--CODEGEN--\":23:41   */\n      add\n        /* \"--CODEGEN--\":57:67   */\n      dup1\n        /* \"--CODEGEN--\":52:55   */\n      dup3\n        /* \"--CODEGEN--\":45:68   */\n      sstore\n        /* \"--CODEGEN--\":79:89   */\n      dup1\n        /* \"--CODEGEN--\":72:89   */\n      swap2\n      pop\n        /* \"--CODEGEN--\":0:93   */\n      pop\n        /* \"Reputation.sol\":1946:1969  votedTopics.push(topic) */\n      swap1\n      0x01\n      dup3\n      sub\n      swap1\n      0x00\n      mstore\n      keccak256(0x00, 0x20)\n      add\n      0x00\n      swap1\n      swap2\n      swap3\n      swap1\n      swap2\n      swap1\n      swap2\n      0x0100\n      exp\n      dup2\n      sload\n      dup2\n      0xffffffffffffffffffffffffffffffffffffffff\n      mul\n      not\n      and\n      swap1\n      dup4\n      0xffffffffffffffffffffffffffffffffffffffff\n      and\n      mul\n      or\n      swap1\n      sstore\n      pop\n      pop\n        /* \"Reputation.sol\":1987:1996  removeRep */\n      dup1\n        /* \"Reputation.sol\":1980:1983  rep */\n      0x02\n      0x00\n        /* \"Reputation.sol\":1980:1996  rep -= removeRep */\n      dup3\n      dup3\n      sload\n      sub\n      swap3\n      pop\n      pop\n      dup2\n      swap1\n      sstore\n      pop\n        /* \"Reputation.sol\":1770:2004  function spendReputation(address topic, uint removeRep) public _reputationFactoryOnly {\r... */\n      pop\n      pop\n      jump\t// out\n        /* \"Reputation.sol\":1664:1762  function addReputation(uint addRep) public _reputationFactoryOnly {\r... */\n    tag_24:\n        /* \"Reputation.sol\":664:688  reputationFactoryAddress */\n      0x00\n      dup1\n      swap1\n      sload\n      swap1\n      0x0100\n      exp\n      swap1\n      div\n      0xffffffffffffffffffffffffffffffffffffffff\n      and\n        /* \"Reputation.sol\":650:688  msg.sender == reputationFactoryAddress */\n      0xffffffffffffffffffffffffffffffffffffffff\n      and\n        /* \"Reputation.sol\":650:660  msg.sender */\n      caller\n        /* \"Reputation.sol\":650:688  msg.sender == reputationFactoryAddress */\n      0xffffffffffffffffffffffffffffffffffffffff\n      and\n      eq\n        /* \"Reputation.sol\":642:746  require(msg.sender == reputationFactoryAddress, 'Only the reputation factory can invoke this function.') */\n      tag_46\n      jumpi\n      mload(0x40)\n      0x08c379a000000000000000000000000000000000000000000000000000000000\n      dup2\n      mstore\n      0x04\n      add\n      dup1\n      dup1\n      0x20\n      add\n      dup3\n      dup2\n      sub\n      dup3\n      mstore\n      0x35\n      dup2\n      mstore\n      0x20\n      add\n      dup1\n      data_d53f9906e0171eb79392ab60580151b625571c2aa0c2f67b33b41318a7de8c6a\n      0x35\n      swap2\n      codecopy\n      0x40\n      add\n      swap2\n      pop\n      pop\n      mload(0x40)\n      dup1\n      swap2\n      sub\n      swap1\n      revert\n    tag_46:\n        /* \"Reputation.sol\":1748:1754  addRep */\n      dup1\n        /* \"Reputation.sol\":1741:1744  rep */\n      0x02\n      0x00\n        /* \"Reputation.sol\":1741:1754  rep += addRep */\n      dup3\n      dup3\n      sload\n      add\n      swap3\n      pop\n      pop\n      dup2\n      swap1\n      sstore\n      pop\n        /* \"Reputation.sol\":1664:1762  function addReputation(uint addRep) public _reputationFactoryOnly {\r... */\n      pop\n      jump\t// out\n        /* \"Reputation.sol\":1190:1285  function getNumberOfTopics() public view returns (uint) {\r... */\n    tag_26:\n        /* \"Reputation.sol\":1240:1244  uint */\n      0x00\n        /* \"Reputation.sol\":1264:1270  topics */\n      0x03\n        /* \"Reputation.sol\":1264:1277  topics.length */\n      dup1\n      sload\n      swap1\n      pop\n        /* \"Reputation.sol\":1257:1277  return topics.length */\n      swap1\n      pop\n        /* \"Reputation.sol\":1190:1285  function getNumberOfTopics() public view returns (uint) {\r... */\n      swap1\n      jump\t// out\n        /* \"Reputation.sol\":952:1182  function addTopic(address payable topicAddress, address sender) public {\r... */\n    tag_29:\n        /* \"Reputation.sol\":1075:1081  sender */\n      dup1\n        /* \"Reputation.sol\":1042:1081  Topic(topicAddress).creator() == sender */\n      0xffffffffffffffffffffffffffffffffffffffff\n      and\n        /* \"Reputation.sol\":1048:1060  topicAddress */\n      dup3\n        /* \"Reputation.sol\":1042:1069  Topic(topicAddress).creator */\n      0xffffffffffffffffffffffffffffffffffffffff\n      and\n      0x02d05d3f\n        /* \"Reputation.sol\":1042:1071  Topic(topicAddress).creator() */\n      mload(0x40)\n      dup2\n      0xffffffff\n      and\n      0xe0\n      shl\n      dup2\n      mstore\n      0x04\n      add\n      0x20\n      mload(0x40)\n      dup1\n      dup4\n      sub\n      dup2\n      dup7\n      dup1\n      extcodesize\n      iszero\n        /* \"--CODEGEN--\":8:17   */\n      dup1\n        /* \"--CODEGEN--\":5:7   */\n      iszero\n      tag_50\n      jumpi\n        /* \"--CODEGEN--\":30:31   */\n      0x00\n        /* \"--CODEGEN--\":27:28   */\n      dup1\n        /* \"--CODEGEN--\":20:32   */\n      revert\n        /* \"--CODEGEN--\":5:7   */\n    tag_50:\n        /* \"Reputation.sol\":1042:1071  Topic(topicAddress).creator() */\n      pop\n      gas\n      staticcall\n      iszero\n        /* \"--CODEGEN--\":8:17   */\n      dup1\n        /* \"--CODEGEN--\":5:7   */\n      iszero\n      tag_51\n      jumpi\n        /* \"--CODEGEN--\":45:61   */\n      returndatasize\n        /* \"--CODEGEN--\":42:43   */\n      0x00\n        /* \"--CODEGEN--\":39:40   */\n      dup1\n        /* \"--CODEGEN--\":24:62   */\n      returndatacopy\n        /* \"--CODEGEN--\":77:93   */\n      returndatasize\n        /* \"--CODEGEN--\":74:75   */\n      0x00\n        /* \"--CODEGEN--\":67:94   */\n      revert\n        /* \"--CODEGEN--\":5:7   */\n    tag_51:\n        /* \"Reputation.sol\":1042:1071  Topic(topicAddress).creator() */\n      pop\n      pop\n      pop\n      pop\n      mload(0x40)\n      returndatasize\n        /* \"--CODEGEN--\":13:15   */\n      0x20\n        /* \"--CODEGEN--\":8:11   */\n      dup2\n        /* \"--CODEGEN--\":5:16   */\n      lt\n        /* \"--CODEGEN--\":2:4   */\n      iszero\n      tag_52\n      jumpi\n        /* \"--CODEGEN--\":29:30   */\n      0x00\n        /* \"--CODEGEN--\":26:27   */\n      dup1\n        /* \"--CODEGEN--\":19:31   */\n      revert\n        /* \"--CODEGEN--\":2:4   */\n    tag_52:\n        /* \"Reputation.sol\":1042:1071  Topic(topicAddress).creator() */\n      dup2\n      add\n      swap1\n      dup1\n      dup1\n      mload\n      swap1\n      0x20\n      add\n      swap1\n      swap3\n      swap2\n      swap1\n      pop\n      pop\n      pop\n        /* \"Reputation.sol\":1042:1081  Topic(topicAddress).creator() == sender */\n      0xffffffffffffffffffffffffffffffffffffffff\n      and\n      eq\n        /* \"Reputation.sol\":1034:1138  require(Topic(topicAddress).creator() == sender, \"Must be the creator of the Topic in order to add it.\") */\n      tag_53\n      jumpi\n      mload(0x40)\n      0x08c379a000000000000000000000000000000000000000000000000000000000\n      dup2\n      mstore\n      0x04\n      add\n      dup1\n      dup1\n      0x20\n      add\n      dup3\n      dup2\n      sub\n      dup3\n      mstore\n      0x34\n      dup2\n      mstore\n      0x20\n      add\n      dup1\n      data_a15fdaf5d5321fa31887ccf2561f20e6b38e528c1c6a0f76f581a4a7dac3aea3\n      0x34\n      swap2\n      codecopy\n      0x40\n      add\n      swap2\n      pop\n      pop\n      mload(0x40)\n      dup1\n      swap2\n      sub\n      swap1\n      revert\n    tag_53:\n        /* \"Reputation.sol\":1149:1155  topics */\n      0x03\n        /* \"Reputation.sol\":1161:1173  topicAddress */\n      dup3\n        /* \"Reputation.sol\":1149:1174  topics.push(topicAddress) */\n      swap1\n      dup1\n        /* \"--CODEGEN--\":39:40   */\n      0x01\n        /* \"--CODEGEN--\":33:36   */\n      dup2\n        /* \"--CODEGEN--\":27:37   */\n      sload\n        /* \"--CODEGEN--\":23:41   */\n      add\n        /* \"--CODEGEN--\":57:67   */\n      dup1\n        /* \"--CODEGEN--\":52:55   */\n      dup3\n        /* \"--CODEGEN--\":45:68   */\n      sstore\n        /* \"--CODEGEN--\":79:89   */\n      dup1\n        /* \"--CODEGEN--\":72:89   */\n      swap2\n      pop\n        /* \"--CODEGEN--\":0:93   */\n      pop\n        /* \"Reputation.sol\":1149:1174  topics.push(topicAddress) */\n      swap1\n      0x01\n      dup3\n      sub\n      swap1\n      0x00\n      mstore\n      keccak256(0x00, 0x20)\n      add\n      0x00\n      swap1\n      swap2\n      swap3\n      swap1\n      swap2\n      swap1\n      swap2\n      0x0100\n      exp\n      dup2\n      sload\n      dup2\n      0xffffffffffffffffffffffffffffffffffffffff\n      mul\n      not\n      and\n      swap1\n      dup4\n      0xffffffffffffffffffffffffffffffffffffffff\n      and\n      mul\n      or\n      swap1\n      sstore\n      pop\n      pop\n        /* \"Reputation.sol\":952:1182  function addTopic(address payable topicAddress, address sender) public {\r... */\n      pop\n      pop\n      jump\t// out\n        /* \"Reputation.sol\":371:386  uint public rep */\n    tag_31:\n      sload(0x02)\n      dup2\n      jump\t// out\n    stop\n    data_4bcad3f30b5a6f99e21c62331798cb3581db9a809305078b4b83e856df08713f 596f7520646f6e2774206861766520656e6f7567682072657020746f206769766520617761792e\n    data_a15fdaf5d5321fa31887ccf2561f20e6b38e528c1c6a0f76f581a4a7dac3aea3 4d757374206265207468652063726561746f72206f662074686520546f70696320696e206f7264657220746f206164642069742e\n    data_d53f9906e0171eb79392ab60580151b625571c2aa0c2f67b33b41318a7de8c6a 4f6e6c79207468652072657075746174696f6e20666163746f72792063616e20696e766f6b6520746869732066756e6374696f6e2e\n\n    auxdata: 0xa265627a7a72315820d8f725cb05394b83c09ae222c1c3dbe37a8bf66deb092e7857a959391e209d0d64736f6c634300050d0032\n}\n","bytecode":{"linkReferences":{},"object":"608060405234801561001057600080fd5b506040516108e13803806108e18339818101604052604081101561003357600080fd5b810190808051906020019092919080519060200190929190505050816000806101000a81548173ffffffffffffffffffffffffffffffffffffffff021916908373ffffffffffffffffffffffffffffffffffffffff160217905550606460028190555080600160006101000a81548173ffffffffffffffffffffffffffffffffffffffff021916908373ffffffffffffffffffffffffffffffffffffffff16021790555050506107f9806100e86000396000f3fe608060405234801561001057600080fd5b506004361061007d5760003560e01c8063b50ac9fc1161005b578063b50ac9fc146101a7578063c729818b146101d5578063c881cc60146101f3578063ccc07959146102575761007d565b806356ea46d9146100825780638da5cb5b1461010f578063908f918414610159575b600080fd5b6100b86004803603604081101561009857600080fd5b810190808035906020019092919080359060200190929190505050610275565b6040518080602001828103825283818151815260200191508051906020019060200280838360005b838110156100fb5780820151818401526020810190506100e0565b505050509050019250505060405180910390f35b61011761035b565b604051808273ffffffffffffffffffffffffffffffffffffffff1673ffffffffffffffffffffffffffffffffffffffff16815260200191505060405180910390f35b6101a56004803603604081101561016f57600080fd5b81019080803573ffffffffffffffffffffffffffffffffffffffff16906020019092919080359060200190929190505050610381565b005b6101d3600480360360208110156101bd57600080fd5b81019080803590602001909291905050506104fb565b005b6101dd6105b3565b6040518082815260200191505060405180910390f35b6102556004803603604081101561020957600080fd5b81019080803573ffffffffffffffffffffffffffffffffffffffff169060200190929190803573ffffffffffffffffffffffffffffffffffffffff1690602001909291905050506105c0565b005b61025f61072e565b6040518082815260200191505060405180910390f35b60606000838303905060608484036040519080825280602002602001820160405280156102b15781602001602082028038833980820191505090505b50905060008090505b8281101561034f576003818701815481106102d157fe5b9060005260206000200160009054906101000a900473ffffffffffffffffffffffffffffffffffffffff1682828151811061030857fe5b602002602001019073ffffffffffffffffffffffffffffffffffffffff16908173ffffffffffffffffffffffffffffffffffffffff168152505080806001019150506102ba565b50809250505092915050565b600160009054906101000a900473ffffffffffffffffffffffffffffffffffffffff1681565b6000809054906101000a900473ffffffffffffffffffffffffffffffffffffffff1673ffffffffffffffffffffffffffffffffffffffff163373ffffffffffffffffffffffffffffffffffffffff1614610426576040517f08c379a00000000000000000000000000000000000000000000000000000000081526004018080602001828103825260358152602001806107906035913960400191505060405180910390fd5b806002541015610481576040517f08c379a00000000000000000000000000000000000000000000000000000000081526004018080602001828103825260278152602001806107356027913960400191505060405180910390fd5b60048290806001815401808255809150509060018203906000526020600020016000909192909190916101000a81548173ffffffffffffffffffffffffffffffffffffffff021916908373ffffffffffffffffffffffffffffffffffffffff16021790555050806002600082825403925050819055505050565b6000809054906101000a900473ffffffffffffffffffffffffffffffffffffffff1673ffffffffffffffffffffffffffffffffffffffff163373ffffffffffffffffffffffffffffffffffffffff16146105a0576040517f08c379a00000000000000000000000000000000000000000000000000000000081526004018080602001828103825260358152602001806107906035913960400191505060405180910390fd5b8060026000828254019250508190555050565b6000600380549050905090565b8073ffffffffffffffffffffffffffffffffffffffff168273ffffffffffffffffffffffffffffffffffffffff166302d05d3f6040518163ffffffff1660e01b815260040160206040518083038186803b15801561061d57600080fd5b505afa158015610631573d6000803e3d6000fd5b505050506040513d602081101561064757600080fd5b810190808051906020019092919050505073ffffffffffffffffffffffffffffffffffffffff16146106c4576040517f08c379a000000000000000000000000000000000000000000000000000000000815260040180806020018281038252603481526020018061075c6034913960400191505060405180910390fd5b60038290806001815401808255809150509060018203906000526020600020016000909192909190916101000a81548173ffffffffffffffffffffffffffffffffffffffff021916908373ffffffffffffffffffffffffffffffffffffffff160217905550505050565b6002548156fe596f7520646f6e2774206861766520656e6f7567682072657020746f206769766520617761792e4d757374206265207468652063726561746f72206f662074686520546f70696320696e206f7264657220746f206164642069742e4f6e6c79207468652072657075746174696f6e20666163746f72792063616e20696e766f6b6520746869732066756e6374696f6e2ea265627a7a72315820d8f725cb05394b83c09ae222c1c3dbe37a8bf66deb092e7857a959391e209d0d64736f6c634300050d0032","opcodes":"PUSH1 0x80 PUSH1 0x40 MSTORE CALLVALUE DUP1 ISZERO PUSH2 0x10 JUMPI PUSH1 0x0 DUP1 REVERT JUMPDEST POP PUSH1 0x40 MLOAD PUSH2 0x8E1 CODESIZE SUB DUP1 PUSH2 0x8E1 DUP4 CODECOPY DUP2 DUP2 ADD PUSH1 0x40 MSTORE PUSH1 0x40 DUP2 LT ISZERO PUSH2 0x33 JUMPI PUSH1 0x0 DUP1 REVERT JUMPDEST DUP2 ADD SWAP1 DUP1 DUP1 MLOAD SWAP1 PUSH1 0x20 ADD SWAP1 SWAP3 SWAP2 SWAP1 DUP1 MLOAD SWAP1 PUSH1 0x20 ADD SWAP1 SWAP3 SWAP2 SWAP1 POP POP POP DUP2 PUSH1 0x0 DUP1 PUSH2 0x100 EXP DUP2 SLOAD DUP2 PUSH20 0xFFFFFFFFFFFFFFFFFFFFFFFFFFFFFFFFFFFFFFFF MUL NOT AND SWAP1 DUP4 PUSH20 0xFFFFFFFFFFFFFFFFFFFFFFFFFFFFFFFFFFFFFFFF AND MUL OR SWAP1 SSTORE POP PUSH1 0x64 PUSH1 0x2 DUP2 SWAP1 SSTORE POP DUP1 PUSH1 0x1 PUSH1 0x0 PUSH2 0x100 EXP DUP2 SLOAD DUP2 PUSH20 0xFFFFFFFFFFFFFFFFFFFFFFFFFFFFFFFFFFFFFFFF MUL NOT AND SWAP1 DUP4 PUSH20 0xFFFFFFFFFFFFFFFFFFFFFFFFFFFFFFFFFFFFFFFF AND MUL OR SWAP1 SSTORE POP POP POP PUSH2 0x7F9 DUP1 PUSH2 0xE8 PUSH1 0x0 CODECOPY PUSH1 0x0 RETURN INVALID PUSH1 0x80 PUSH1 0x40 MSTORE CALLVALUE DUP1 ISZERO PUSH2 0x10 JUMPI PUSH1 0x0 DUP1 REVERT JUMPDEST POP PUSH1 0x4 CALLDATASIZE LT PUSH2 0x7D JUMPI PUSH1 0x0 CALLDATALOAD PUSH1 0xE0 SHR DUP1 PUSH4 0xB50AC9FC GT PUSH2 0x5B JUMPI DUP1 PUSH4 0xB50AC9FC EQ PUSH2 0x1A7 JUMPI DUP1 PUSH4 0xC729818B EQ PUSH2 0x1D5 JUMPI DUP1 PUSH4 0xC881CC60 EQ PUSH2 0x1F3 JUMPI DUP1 PUSH4 0xCCC07959 EQ PUSH2 0x257 JUMPI PUSH2 0x7D JUMP JUMPDEST DUP1 PUSH4 0x56EA46D9 EQ PUSH2 0x82 JUMPI DUP1 PUSH4 0x8DA5CB5B EQ PUSH2 0x10F JUMPI DUP1 PUSH4 0x908F9184 EQ PUSH2 0x159 JUMPI JUMPDEST PUSH1 0x0 DUP1 REVERT JUMPDEST PUSH2 0xB8 PUSH1 0x4 DUP1 CALLDATASIZE SUB PUSH1 0x40 DUP2 LT ISZERO PUSH2 0x98 JUMPI PUSH1 0x0 DUP1 REVERT JUMPDEST DUP2 ADD SWAP1 DUP1 DUP1 CALLDATALOAD SWAP1 PUSH1 0x20 ADD SWAP1 SWAP3 SWAP2 SWAP1 DUP1 CALLDATALOAD SWAP1 PUSH1 0x20 ADD SWAP1 SWAP3 SWAP2 SWAP1 POP POP POP PUSH2 0x275 JUMP JUMPDEST PUSH1 0x40 MLOAD DUP1 DUP1 PUSH1 0x20 ADD DUP3 DUP2 SUB DUP3 MSTORE DUP4 DUP2 DUP2 MLOAD DUP2 MSTORE PUSH1 0x20 ADD SWAP2 POP DUP1 MLOAD SWAP1 PUSH1 0x20 ADD SWAP1 PUSH1 0x20 MUL DUP1 DUP4 DUP4 PUSH1 0x0 JUMPDEST DUP4 DUP2 LT ISZERO PUSH2 0xFB JUMPI DUP1 DUP3 ADD MLOAD DUP2 DUP5 ADD MSTORE PUSH1 0x20 DUP2 ADD SWAP1 POP PUSH2 0xE0 JUMP JUMPDEST POP POP POP POP SWAP1 POP ADD SWAP3 POP POP POP PUSH1 0x40 MLOAD DUP1 SWAP2 SUB SWAP1 RETURN JUMPDEST PUSH2 0x117 PUSH2 0x35B JUMP JUMPDEST PUSH1 0x40 MLOAD DUP1 DUP3 PUSH20 0xFFFFFFFFFFFFFFFFFFFFFFFFFFFFFFFFFFFFFFFF AND PUSH20 0xFFFFFFFFFFFFFFFFFFFFFFFFFFFFFFFFFFFFFFFF AND DUP2 MSTORE PUSH1 0x20 ADD SWAP2 POP POP PUSH1 0x40 MLOAD DUP1 SWAP2 SUB SWAP1 RETURN JUMPDEST PUSH2 0x1A5 PUSH1 0x4 DUP1 CALLDATASIZE SUB PUSH1 0x40 DUP2 LT ISZERO PUSH2 0x16F JUMPI PUSH1 0x0 DUP1 REVERT JUMPDEST DUP2 ADD SWAP1 DUP1 DUP1 CALLDATALOAD PUSH20 0xFFFFFFFFFFFFFFFFFFFFFFFFFFFFFFFFFFFFFFFF AND SWAP1 PUSH1 0x20 ADD SWAP1 SWAP3 SWAP2 SWAP1 DUP1 CALLDATALOAD SWAP1 PUSH1 0x20 ADD SWAP1 SWAP3 SWAP2 SWAP1 POP POP POP PUSH2 0x381 JUMP JUMPDEST STOP JUMPDEST PUSH2 0x1D3 PUSH1 0x4 DUP1 CALLDATASIZE SUB PUSH1 0x20 DUP2 LT ISZERO PUSH2 0x1BD JUMPI PUSH1 0x0 DUP1 REVERT JUMPDEST DUP2 ADD SWAP1 DUP1 DUP1 CALLDATALOAD SWAP1 PUSH1 0x20 ADD SWAP1 SWAP3 SWAP2 SWAP1 POP POP POP PUSH2 0x4FB JUMP JUMPDEST STOP JUMPDEST PUSH2 0x1DD PUSH2 0x5B3 JUMP JUMPDEST PUSH1 0x40 MLOAD DUP1 DUP3 DUP2 MSTORE PUSH1 0x20 ADD SWAP2 POP POP PUSH1 0x40 MLOAD DUP1 SWAP2 SUB SWAP1 RETURN JUMPDEST PUSH2 0x255 PUSH1 0x4 DUP1 CALLDATASIZE SUB PUSH1 0x40 DUP2 LT ISZERO PUSH2 0x209 JUMPI PUSH1 0x0 DUP1 REVERT JUMPDEST DUP2 ADD SWAP1 DUP1 DUP1 CALLDATALOAD PUSH20 0xFFFFFFFFFFFFFFFFFFFFFFFFFFFFFFFFFFFFFFFF AND SWAP1 PUSH1 0x20 ADD SWAP1 SWAP3 SWAP2 SWAP1 DUP1 CALLDATALOAD PUSH20 0xFFFFFFFFFFFFFFFFFFFFFFFFFFFFFFFFFFFFFFFF AND SWAP1 PUSH1 0x20 ADD SWAP1 SWAP3 SWAP2 SWAP1 POP POP POP PUSH2 0x5C0 JUMP JUMPDEST STOP JUMPDEST PUSH2 0x25F PUSH2 0x72E JUMP JUMPDEST PUSH1 0x40 MLOAD DUP1 DUP3 DUP2 MSTORE PUSH1 0x20 ADD SWAP2 POP POP PUSH1 0x40 MLOAD DUP1 SWAP2 SUB SWAP1 RETURN JUMPDEST PUSH1 0x60 PUSH1 0x0 DUP4 DUP4 SUB SWAP1 POP PUSH1 0x60 DUP5 DUP5 SUB PUSH1 0x40 MLOAD SWAP1 DUP1 DUP3 MSTORE DUP1 PUSH1 0x20 MUL PUSH1 0x20 ADD DUP3 ADD PUSH1 0x40 MSTORE DUP1 ISZERO PUSH2 0x2B1 JUMPI DUP2 PUSH1 0x20 ADD PUSH1 0x20 DUP3 MUL DUP1 CODESIZE DUP4 CODECOPY DUP1 DUP3 ADD SWAP2 POP POP SWAP1 POP JUMPDEST POP SWAP1 POP PUSH1 0x0 DUP1 SWAP1 POP JUMPDEST DUP3 DUP2 LT ISZERO PUSH2 0x34F JUMPI PUSH1 0x3 DUP2 DUP8 ADD DUP2 SLOAD DUP2 LT PUSH2 0x2D1 JUMPI INVALID JUMPDEST SWAP1 PUSH1 0x0 MSTORE PUSH1 0x20 PUSH1 0x0 KECCAK256 ADD PUSH1 0x0 SWAP1 SLOAD SWAP1 PUSH2 0x100 EXP SWAP1 DIV PUSH20 0xFFFFFFFFFFFFFFFFFFFFFFFFFFFFFFFFFFFFFFFF AND DUP3 DUP3 DUP2 MLOAD DUP2 LT PUSH2 0x308 JUMPI INVALID JUMPDEST PUSH1 0x20 MUL PUSH1 0x20 ADD ADD SWAP1 PUSH20 0xFFFFFFFFFFFFFFFFFFFFFFFFFFFFFFFFFFFFFFFF AND SWAP1 DUP2 PUSH20 0xFFFFFFFFFFFFFFFFFFFFFFFFFFFFFFFFFFFFFFFF AND DUP2 MSTORE POP POP DUP1 DUP1 PUSH1 0x1 ADD SWAP2 POP POP PUSH2 0x2BA JUMP JUMPDEST POP DUP1 SWAP3 POP POP POP SWAP3 SWAP2 POP POP JUMP JUMPDEST PUSH1 0x1 PUSH1 0x0 SWAP1 SLOAD SWAP1 PUSH2 0x100 EXP SWAP1 DIV PUSH20 0xFFFFFFFFFFFFFFFFFFFFFFFFFFFFFFFFFFFFFFFF AND DUP2 JUMP JUMPDEST PUSH1 0x0 DUP1 SWAP1 SLOAD SWAP1 PUSH2 0x100 EXP SWAP1 DIV PUSH20 0xFFFFFFFFFFFFFFFFFFFFFFFFFFFFFFFFFFFFFFFF AND PUSH20 0xFFFFFFFFFFFFFFFFFFFFFFFFFFFFFFFFFFFFFFFF AND CALLER PUSH20 0xFFFFFFFFFFFFFFFFFFFFFFFFFFFFFFFFFFFFFFFF AND EQ PUSH2 0x426 JUMPI PUSH1 0x40 MLOAD PUSH32 0x8C379A000000000000000000000000000000000000000000000000000000000 DUP2 MSTORE PUSH1 0x4 ADD DUP1 DUP1 PUSH1 0x20 ADD DUP3 DUP2 SUB DUP3 MSTORE PUSH1 0x35 DUP2 MSTORE PUSH1 0x20 ADD DUP1 PUSH2 0x790 PUSH1 0x35 SWAP2 CODECOPY PUSH1 0x40 ADD SWAP2 POP POP PUSH1 0x40 MLOAD DUP1 SWAP2 SUB SWAP1 REVERT JUMPDEST DUP1 PUSH1 0x2 SLOAD LT ISZERO PUSH2 0x481 JUMPI PUSH1 0x40 MLOAD PUSH32 0x8C379A000000000000000000000000000000000000000000000000000000000 DUP2 MSTORE PUSH1 0x4 ADD DUP1 DUP1 PUSH1 0x20 ADD DUP3 DUP2 SUB DUP3 MSTORE PUSH1 0x27 DUP2 MSTORE PUSH1 0x20 ADD DUP1 PUSH2 0x735 PUSH1 0x27 SWAP2 CODECOPY PUSH1 0x40 ADD SWAP2 POP POP PUSH1 0x40 MLOAD DUP1 SWAP2 SUB SWAP1 REVERT JUMPDEST PUSH1 0x4 DUP3 SWAP1 DUP1 PUSH1 0x1 DUP2 SLOAD ADD DUP1 DUP3 SSTORE DUP1 SWAP2 POP POP SWAP1 PUSH1 0x1 DUP3 SUB SWAP1 PUSH1 0x0 MSTORE PUSH1 0x20 PUSH1 0x0 KECCAK256 ADD PUSH1 0x0 SWAP1 SWAP2 SWAP3 SWAP1 SWAP2 SWAP1 SWAP2 PUSH2 0x100 EXP DUP2 SLOAD DUP2 PUSH20 0xFFFFFFFFFFFFFFFFFFFFFFFFFFFFFFFFFFFFFFFF MUL NOT AND SWAP1 DUP4 PUSH20 0xFFFFFFFFFFFFFFFFFFFFFFFFFFFFFFFFFFFFFFFF AND MUL OR SWAP1 SSTORE POP POP DUP1 PUSH1 0x2 PUSH1 0x0 DUP3 DUP3 SLOAD SUB SWAP3 POP POP DUP2 SWAP1 SSTORE POP POP POP JUMP JUMPDEST PUSH1 0x0 DUP1 SWAP1 SLOAD SWAP1 PUSH2 0x100 EXP SWAP1 DIV PUSH20 0xFFFFFFFFFFFFFFFFFFFFFFFFFFFFFFFFFFFFFFFF AND PUSH20 0xFFFFFFFFFFFFFFFFFFFFFFFFFFFFFFFFFFFFFFFF AND CALLER PUSH20 0xFFFFFFFFFFFFFFFFFFFFFFFFFFFFFFFFFFFFFFFF AND EQ PUSH2 0x5A0 JUMPI PUSH1 0x40 MLOAD PUSH32 0x8C379A000000000000000000000000000000000000000000000000000000000 DUP2 MSTORE PUSH1 0x4 ADD DUP1 DUP1 PUSH1 0x20 ADD DUP3 DUP2 SUB DUP3 MSTORE PUSH1 0x35 DUP2 MSTORE PUSH1 0x20 ADD DUP1 PUSH2 0x790 PUSH1 0x35 SWAP2 CODECOPY PUSH1 0x40 ADD SWAP2 POP POP PUSH1 0x40 MLOAD DUP1 SWAP2 SUB SWAP1 REVERT JUMPDEST DUP1 PUSH1 0x2 PUSH1 0x0 DUP3 DUP3 SLOAD ADD SWAP3 POP POP DUP2 SWAP1 SSTORE POP POP JUMP JUMPDEST PUSH1 0x0 PUSH1 0x3 DUP1 SLOAD SWAP1 POP SWAP1 POP SWAP1 JUMP JUMPDEST DUP1 PUSH20 0xFFFFFFFFFFFFFFFFFFFFFFFFFFFFFFFFFFFFFFFF AND DUP3 PUSH20 0xFFFFFFFFFFFFFFFFFFFFFFFFFFFFFFFFFFFFFFFF AND PUSH4 0x2D05D3F PUSH1 0x40 MLOAD DUP2 PUSH4 0xFFFFFFFF AND PUSH1 0xE0 SHL DUP2 MSTORE PUSH1 0x4 ADD PUSH1 0x20 PUSH1 0x40 MLOAD DUP1 DUP4 SUB DUP2 DUP7 DUP1 EXTCODESIZE ISZERO DUP1 ISZERO PUSH2 0x61D JUMPI PUSH1 0x0 DUP1 REVERT JUMPDEST POP GAS STATICCALL ISZERO DUP1 ISZERO PUSH2 0x631 JUMPI RETURNDATASIZE PUSH1 0x0 DUP1 RETURNDATACOPY RETURNDATASIZE PUSH1 0x0 REVERT JUMPDEST POP POP POP POP PUSH1 0x40 MLOAD RETURNDATASIZE PUSH1 0x20 DUP2 LT ISZERO PUSH2 0x647 JUMPI PUSH1 0x0 DUP1 REVERT JUMPDEST DUP2 ADD SWAP1 DUP1 DUP1 MLOAD SWAP1 PUSH1 0x20 ADD SWAP1 SWAP3 SWAP2 SWAP1 POP POP POP PUSH20 0xFFFFFFFFFFFFFFFFFFFFFFFFFFFFFFFFFFFFFFFF AND EQ PUSH2 0x6C4 JUMPI PUSH1 0x40 MLOAD PUSH32 0x8C379A000000000000000000000000000000000000000000000000000000000 DUP2 MSTORE PUSH1 0x4 ADD DUP1 DUP1 PUSH1 0x20 ADD DUP3 DUP2 SUB DUP3 MSTORE PUSH1 0x34 DUP2 MSTORE PUSH1 0x20 ADD DUP1 PUSH2 0x75C PUSH1 0x34 SWAP2 CODECOPY PUSH1 0x40 ADD SWAP2 POP POP PUSH1 0x40 MLOAD DUP1 SWAP2 SUB SWAP1 REVERT JUMPDEST PUSH1 0x3 DUP3 SWAP1 DUP1 PUSH1 0x1 DUP2 SLOAD ADD DUP1 DUP3 SSTORE DUP1 SWAP2 POP POP SWAP1 PUSH1 0x1 DUP3 SUB SWAP1 PUSH1 0x0 MSTORE PUSH1 0x20 PUSH1 0x0 KECCAK256 ADD PUSH1 0x0 SWAP1 SWAP2 SWAP3 SWAP1 SWAP2 SWAP1 SWAP2 PUSH2 0x100 EXP DUP2 SLOAD DUP2 PUSH20 0xFFFFFFFFFFFFFFFFFFFFFFFFFFFFFFFFFFFFFFFF MUL NOT AND SWAP1 DUP4 PUSH20 0xFFFFFFFFFFFFFFFFFFFFFFFFFFFFFFFFFFFFFFFF AND MUL OR SWAP1 SSTORE POP POP POP POP JUMP JUMPDEST PUSH1 0x2 SLOAD DUP2 JUMP INVALID MSIZE PUSH16 0x7520646F6E2774206861766520656E6F PUSH22 0x67682072657020746F206769766520617761792E4D75 PUSH20 0x74206265207468652063726561746F72206F6620 PUSH21 0x686520546F70696320696E206F7264657220746F20 PUSH2 0x6464 KECCAK256 PUSH10 0x742E4F6E6C7920746865 KECCAK256 PUSH19 0x657075746174696F6E20666163746F72792063 PUSH2 0x6E20 PUSH10 0x6E766F6B652074686973 KECCAK256 PUSH7 0x756E6374696F6E 0x2E LOG2 PUSH6 0x627A7A723158 KECCAK256 0xD8 0xF7 0x25 0xCB SDIV CODECOPY 0x4B DUP4 0xC0 SWAP11 0xE2 0x22 0xC1 0xC3 0xDB 0xE3 PUSH27 0x8BF66DEB092E7857A959391E209D0D64736F6C634300050D003200 "},"gasEstimates":{"creation":{"codeDepositCost":"408200","executionCost":"infinite","totalCost":"infinite"},"external":{"addReputation(uint256)":"infinite","addTopic(address,address)":"infinite","getNumberOfTopics()":"443","getTopics(uint256,uint256)":"infinite","owner()":"476","rep()":"471","spendReputation(address,uint256)":"infinite"}},"methodIdentifiers":{"addReputation(uint256)":"b50ac9fc","addTopic(address,address)":"c881cc60","getNumberOfTopics()":"c729818b","getTopics(uint256,uint256)":"56ea46d9","owner()":"8da5cb5b","rep()":"ccc07959","spendReputation(address,uint256)":"908f9184"}},"storageLayout":{"storage":[{"astId":4,"contract":"Reputation.sol:Reputation","label":"reputationFactoryAddress","offset":0,"slot":"0","type":"t_address"},{"astId":15,"contract":"Reputation.sol:Reputation","label":"owner","offset":0,"slot":"1","type":"t_address"},{"astId":17,"contract":"Reputation.sol:Reputation","label":"rep","offset":0,"slot":"2","type":"t_uint256"},{"astId":20,"contract":"Reputation.sol:Reputation","label":"topics","offset":0,"slot":"3","type":"t_array(t_address)dyn_storage"},{"astId":23,"contract":"Reputation.sol:Reputation","label":"votedTopics","offset":0,"slot":"4","type":"t_array(t_address)dyn_storage"}],"types":{"t_address":{"encoding":"inplace","label":"address","numberOfBytes":"20"},"t_array(t_address)dyn_storage":{"base":"t_address","encoding":"dynamic_array","label":"address[]","numberOfBytes":"32"},"t_uint256":{"encoding":"inplace","label":"uint256","numberOfBytes":"32"}}},"userdoc":{"methods":{}}}