{"abi":[{"inputs":[{"internalType":"address","name":"repFactoryAddress","type":"address"},{"internalType":"address","name":"sender","type":"address"}],"payable":false,"stateMutability":"nonpayable","type":"constructor"},{"constant":false,"inputs":[{"internalType":"uint256","name":"addRep","type":"uint256"}],"name":"addReputation","outputs":[],"payable":false,"stateMutability":"nonpayable","type":"function"},{"constant":false,"inputs":[{"internalType":"address payable","name":"topicAddress","type":"address"}],"name":"addTopic","outputs":[],"payable":false,"stateMutability":"nonpayable","type":"function"},{"constant":true,"inputs":[],"name":"getNumberOfTopics","outputs":[{"internalType":"uint256","name":"","type":"uint256"}],"payable":false,"stateMutability":"view","type":"function"},{"constant":true,"inputs":[],"name":"getNumberOfVotedTopics","outputs":[{"internalType":"uint256","name":"","type":"uint256"}],"payable":false,"stateMutability":"view","type":"function"},{"constant":true,"inputs":[{"internalType":"uint256","name":"startIndex","type":"uint256"},{"internalType":"uint256","name":"endIndex","type":"uint256"}],"name":"getTopics","outputs":[{"internalType":"address[]","name":"","type":"address[]"}],"payable":false,"stateMutability":"view","type":"function"},{"constant":true,"inputs":[{"internalType":"uint256","name":"startIndex","type":"uint256"},{"internalType":"uint256","name":"endIndex","type":"uint256"}],"name":"getVotedTopics","outputs":[{"internalType":"address[]","name":"","type":"address[]"}],"payable":false,"stateMutability":"view","type":"function"},{"constant":true,"inputs":[],"name":"owner","outputs":[{"internalType":"address","name":"","type":"address"}],"payable":false,"stateMutability":"view","type":"function"},{"constant":true,"inputs":[],"name":"rep","outputs":[{"internalType":"uint256","name":"","type":"uint256"}],"payable":false,"stateMutability":"view","type":"function"},{"constant":false,"inputs":[{"internalType":"address","name":"topic","type":"address"},{"internalType":"uint256","name":"removeRep","type":"uint256"}],"name":"spendReputation","outputs":[],"payable":false,"stateMutability":"nonpayable","type":"function"}],"devdoc":{"methods":{}},"evm":{"assembly":"    /* \"Reputation.sol\":53:2265  contract Reputation {\r... */\n  mstore(0x40, 0x80)\n    /* \"Reputation.sol\":555:725  constructor(address repFactoryAddress, address sender) public {\r... */\n  callvalue\n    /* \"--CODEGEN--\":8:17   */\n  dup1\n    /* \"--CODEGEN--\":5:7   */\n  iszero\n  tag_1\n  jumpi\n    /* \"--CODEGEN--\":30:31   */\n  0x00\n    /* \"--CODEGEN--\":27:28   */\n  dup1\n    /* \"--CODEGEN--\":20:32   */\n  revert\n    /* \"--CODEGEN--\":5:7   */\ntag_1:\n    /* \"Reputation.sol\":555:725  constructor(address repFactoryAddress, address sender) public {\r... */\n  pop\n  mload(0x40)\n  sub(codesize, bytecodeSize)\n  dup1\n  bytecodeSize\n  dup4\n  codecopy\n  dup2\n  dup2\n  add\n  0x40\n  mstore\n    /* \"--CODEGEN--\":13:15   */\n  0x40\n    /* \"--CODEGEN--\":8:11   */\n  dup2\n    /* \"--CODEGEN--\":5:16   */\n  lt\n    /* \"--CODEGEN--\":2:4   */\n  iszero\n  tag_2\n  jumpi\n    /* \"--CODEGEN--\":29:30   */\n  0x00\n    /* \"--CODEGEN--\":26:27   */\n  dup1\n    /* \"--CODEGEN--\":19:31   */\n  revert\n    /* \"--CODEGEN--\":2:4   */\ntag_2:\n    /* \"Reputation.sol\":555:725  constructor(address repFactoryAddress, address sender) public {\r... */\n  dup2\n  add\n  swap1\n  dup1\n  dup1\n  mload\n  swap1\n  0x20\n  add\n  swap1\n  swap3\n  swap2\n  swap1\n  dup1\n  mload\n  swap1\n  0x20\n  add\n  swap1\n  swap3\n  swap2\n  swap1\n  pop\n  pop\n  pop\n    /* \"Reputation.sol\":655:672  repFactoryAddress */\n  dup2\n    /* \"Reputation.sol\":628:652  reputationFactoryAddress */\n  0x00\n  dup1\n    /* \"Reputation.sol\":628:672  reputationFactoryAddress = repFactoryAddress */\n  0x0100\n  exp\n  dup2\n  sload\n  dup2\n  0xffffffffffffffffffffffffffffffffffffffff\n  mul\n  not\n  and\n  swap1\n  dup4\n  0xffffffffffffffffffffffffffffffffffffffff\n  and\n  mul\n  or\n  swap1\n  sstore\n  pop\n    /* \"Reputation.sol\":689:692  100 */\n  0x64\n    /* \"Reputation.sol\":683:686  rep */\n  0x02\n    /* \"Reputation.sol\":683:692  rep = 100 */\n  dup2\n  swap1\n  sstore\n  pop\n    /* \"Reputation.sol\":711:717  sender */\n  dup1\n    /* \"Reputation.sol\":703:708  owner */\n  0x01\n  0x00\n    /* \"Reputation.sol\":703:717  owner = sender */\n  0x0100\n  exp\n  dup2\n  sload\n  dup2\n  0xffffffffffffffffffffffffffffffffffffffff\n  mul\n  not\n  and\n  swap1\n  dup4\n  0xffffffffffffffffffffffffffffffffffffffff\n  and\n  mul\n  or\n  swap1\n  sstore\n  pop\n    /* \"Reputation.sol\":555:725  constructor(address repFactoryAddress, address sender) public {\r... */\n  pop\n  pop\n    /* \"Reputation.sol\":53:2265  contract Reputation {\r... */\n  dataSize(sub_0)\n  dup1\n  dataOffset(sub_0)\n  0x00\n  codecopy\n  0x00\n  return\nstop\n\nsub_0: assembly {\n        /* \"Reputation.sol\":53:2265  contract Reputation {\r... */\n      mstore(0x40, 0x80)\n      callvalue\n        /* \"--CODEGEN--\":8:17   */\n      dup1\n        /* \"--CODEGEN--\":5:7   */\n      iszero\n      tag_1\n      jumpi\n        /* \"--CODEGEN--\":30:31   */\n      0x00\n        /* \"--CODEGEN--\":27:28   */\n      dup1\n        /* \"--CODEGEN--\":20:32   */\n      revert\n        /* \"--CODEGEN--\":5:7   */\n    tag_1:\n        /* \"Reputation.sol\":53:2265  contract Reputation {\r... */\n      pop\n      jumpi(tag_2, lt(calldatasize, 0x04))\n      shr(0xe0, calldataload(0x00))\n      dup1\n      0xb50ac9fc\n      gt\n      tag_12\n      jumpi\n      dup1\n      0xb50ac9fc\n      eq\n      tag_7\n      jumpi\n      dup1\n      0xc729818b\n      eq\n      tag_8\n      jumpi\n      dup1\n      0xccc07959\n      eq\n      tag_9\n      jumpi\n      dup1\n      0xd7dc8c7b\n      eq\n      tag_10\n      jumpi\n      dup1\n      0xf18df9e7\n      eq\n      tag_11\n      jumpi\n      jump(tag_2)\n    tag_12:\n      dup1\n      0x56ea46d9\n      eq\n      tag_3\n      jumpi\n      dup1\n      0x8da5cb5b\n      eq\n      tag_4\n      jumpi\n      dup1\n      0x908f9184\n      eq\n      tag_5\n      jumpi\n      dup1\n      0xa450736c\n      eq\n      tag_6\n      jumpi\n    tag_2:\n      0x00\n      dup1\n      revert\n        /* \"Reputation.sol\":954:1317  function getTopics(uint startIndex, uint endIndex) public view returns (address[] memory) {\r... */\n    tag_3:\n      tag_13\n      0x04\n      dup1\n      calldatasize\n      sub\n        /* \"--CODEGEN--\":13:15   */\n      0x40\n        /* \"--CODEGEN--\":8:11   */\n      dup2\n        /* \"--CODEGEN--\":5:16   */\n      lt\n        /* \"--CODEGEN--\":2:4   */\n      iszero\n      tag_14\n      jumpi\n        /* \"--CODEGEN--\":29:30   */\n      0x00\n        /* \"--CODEGEN--\":26:27   */\n      dup1\n        /* \"--CODEGEN--\":19:31   */\n      revert\n        /* \"--CODEGEN--\":2:4   */\n    tag_14:\n        /* \"Reputation.sol\":954:1317  function getTopics(uint startIndex, uint endIndex) public view returns (address[] memory) {\r... */\n      dup2\n      add\n      swap1\n      dup1\n      dup1\n      calldataload\n      swap1\n      0x20\n      add\n      swap1\n      swap3\n      swap2\n      swap1\n      dup1\n      calldataload\n      swap1\n      0x20\n      add\n      swap1\n      swap3\n      swap2\n      swap1\n      pop\n      pop\n      pop\n      tag_15\n      jump\t// in\n    tag_13:\n      mload(0x40)\n      dup1\n      dup1\n      0x20\n      add\n      dup3\n      dup2\n      sub\n      dup3\n      mstore\n      dup4\n      dup2\n      dup2\n      mload\n      dup2\n      mstore\n      0x20\n      add\n      swap2\n      pop\n      dup1\n      mload\n      swap1\n      0x20\n      add\n      swap1\n      0x20\n      mul\n      dup1\n      dup4\n      dup4\n        /* \"--CODEGEN--\":23:24   */\n      0x00\n        /* \"--CODEGEN--\":8:108   */\n    tag_16:\n        /* \"--CODEGEN--\":33:36   */\n      dup4\n        /* \"--CODEGEN--\":30:31   */\n      dup2\n        /* \"--CODEGEN--\":27:37   */\n      lt\n        /* \"--CODEGEN--\":8:108   */\n      iszero\n      tag_18\n      jumpi\n        /* \"--CODEGEN--\":99:100   */\n      dup1\n        /* \"--CODEGEN--\":94:97   */\n      dup3\n        /* \"--CODEGEN--\":90:101   */\n      add\n        /* \"--CODEGEN--\":84:102   */\n      mload\n        /* \"--CODEGEN--\":80:81   */\n      dup2\n        /* \"--CODEGEN--\":75:78   */\n      dup5\n        /* \"--CODEGEN--\":71:82   */\n      add\n        /* \"--CODEGEN--\":64:103   */\n      mstore\n        /* \"--CODEGEN--\":52:54   */\n      0x20\n        /* \"--CODEGEN--\":49:50   */\n      dup2\n        /* \"--CODEGEN--\":45:55   */\n      add\n        /* \"--CODEGEN--\":40:55   */\n      swap1\n      pop\n        /* \"--CODEGEN--\":8:108   */\n      jump(tag_16)\n    tag_18:\n        /* \"--CODEGEN--\":12:26   */\n      pop\n        /* \"Reputation.sol\":954:1317  function getTopics(uint startIndex, uint endIndex) public view returns (address[] memory) {\r... */\n      pop\n      pop\n      pop\n      swap1\n      pop\n      add\n      swap3\n      pop\n      pop\n      pop\n      mload(0x40)\n      dup1\n      swap2\n      sub\n      swap1\n      return\n        /* \"Reputation.sol\":125:145  address public owner */\n    tag_4:\n      tag_19\n      tag_20\n      jump\t// in\n    tag_19:\n      mload(0x40)\n      dup1\n      dup3\n      0xffffffffffffffffffffffffffffffffffffffff\n      and\n      0xffffffffffffffffffffffffffffffffffffffff\n      and\n      dup2\n      mstore\n      0x20\n      add\n      swap2\n      pop\n      pop\n      mload(0x40)\n      dup1\n      swap2\n      sub\n      swap1\n      return\n        /* \"Reputation.sol\":2028:2262  function spendReputation(address topic, uint removeRep) public _reputationFactoryOnly {\r... */\n    tag_5:\n      tag_21\n      0x04\n      dup1\n      calldatasize\n      sub\n        /* \"--CODEGEN--\":13:15   */\n      0x40\n        /* \"--CODEGEN--\":8:11   */\n      dup2\n        /* \"--CODEGEN--\":5:16   */\n      lt\n        /* \"--CODEGEN--\":2:4   */\n      iszero\n      tag_22\n      jumpi\n        /* \"--CODEGEN--\":29:30   */\n      0x00\n        /* \"--CODEGEN--\":26:27   */\n      dup1\n        /* \"--CODEGEN--\":19:31   */\n      revert\n        /* \"--CODEGEN--\":2:4   */\n    tag_22:\n        /* \"Reputation.sol\":2028:2262  function spendReputation(address topic, uint removeRep) public _reputationFactoryOnly {\r... */\n      dup2\n      add\n      swap1\n      dup1\n      dup1\n      calldataload\n      0xffffffffffffffffffffffffffffffffffffffff\n      and\n      swap1\n      0x20\n      add\n      swap1\n      swap3\n      swap2\n      swap1\n      dup1\n      calldataload\n      swap1\n      0x20\n      add\n      swap1\n      swap3\n      swap2\n      swap1\n      pop\n      pop\n      pop\n      tag_23\n      jump\t// in\n    tag_21:\n      stop\n        /* \"Reputation.sol\":1809:1914  function getNumberOfVotedTopics() public view returns (uint) {\r... */\n    tag_6:\n      tag_24\n      tag_25\n      jump\t// in\n    tag_24:\n      mload(0x40)\n      dup1\n      dup3\n      dup2\n      mstore\n      0x20\n      add\n      swap2\n      pop\n      pop\n      mload(0x40)\n      dup1\n      swap2\n      sub\n      swap1\n      return\n        /* \"Reputation.sol\":1922:2020  function addReputation(uint addRep) public _reputationFactoryOnly {\r... */\n    tag_7:\n      tag_26\n      0x04\n      dup1\n      calldatasize\n      sub\n        /* \"--CODEGEN--\":13:15   */\n      0x20\n        /* \"--CODEGEN--\":8:11   */\n      dup2\n        /* \"--CODEGEN--\":5:16   */\n      lt\n        /* \"--CODEGEN--\":2:4   */\n      iszero\n      tag_27\n      jumpi\n        /* \"--CODEGEN--\":29:30   */\n      0x00\n        /* \"--CODEGEN--\":26:27   */\n      dup1\n        /* \"--CODEGEN--\":19:31   */\n      revert\n        /* \"--CODEGEN--\":2:4   */\n    tag_27:\n        /* \"Reputation.sol\":1922:2020  function addReputation(uint addRep) public _reputationFactoryOnly {\r... */\n      dup2\n      add\n      swap1\n      dup1\n      dup1\n      calldataload\n      swap1\n      0x20\n      add\n      swap1\n      swap3\n      swap2\n      swap1\n      pop\n      pop\n      pop\n      tag_28\n      jump\t// in\n    tag_26:\n      stop\n        /* \"Reputation.sol\":1325:1420  function getNumberOfTopics() public view returns (uint) {\r... */\n    tag_8:\n      tag_29\n      tag_30\n      jump\t// in\n    tag_29:\n      mload(0x40)\n      dup1\n      dup3\n      dup2\n      mstore\n      0x20\n      add\n      swap2\n      pop\n      pop\n      mload(0x40)\n      dup1\n      swap2\n      sub\n      swap1\n      return\n        /* \"Reputation.sol\":152:167  uint public rep */\n    tag_9:\n      tag_31\n      tag_32\n      jump\t// in\n    tag_31:\n      mload(0x40)\n      dup1\n      dup3\n      dup2\n      mstore\n      0x20\n      add\n      swap2\n      pop\n      pop\n      mload(0x40)\n      dup1\n      swap2\n      sub\n      swap1\n      return\n        /* \"Reputation.sol\":1428:1801  function getVotedTopics(uint startIndex, uint endIndex) public view returns (address[] memory) {\r... */\n    tag_10:\n      tag_33\n      0x04\n      dup1\n      calldatasize\n      sub\n        /* \"--CODEGEN--\":13:15   */\n      0x40\n        /* \"--CODEGEN--\":8:11   */\n      dup2\n        /* \"--CODEGEN--\":5:16   */\n      lt\n        /* \"--CODEGEN--\":2:4   */\n      iszero\n      tag_34\n      jumpi\n        /* \"--CODEGEN--\":29:30   */\n      0x00\n        /* \"--CODEGEN--\":26:27   */\n      dup1\n        /* \"--CODEGEN--\":19:31   */\n      revert\n        /* \"--CODEGEN--\":2:4   */\n    tag_34:\n        /* \"Reputation.sol\":1428:1801  function getVotedTopics(uint startIndex, uint endIndex) public view returns (address[] memory) {\r... */\n      dup2\n      add\n      swap1\n      dup1\n      dup1\n      calldataload\n      swap1\n      0x20\n      add\n      swap1\n      swap3\n      swap2\n      swap1\n      dup1\n      calldataload\n      swap1\n      0x20\n      add\n      swap1\n      swap3\n      swap2\n      swap1\n      pop\n      pop\n      pop\n      tag_35\n      jump\t// in\n    tag_33:\n      mload(0x40)\n      dup1\n      dup1\n      0x20\n      add\n      dup3\n      dup2\n      sub\n      dup3\n      mstore\n      dup4\n      dup2\n      dup2\n      mload\n      dup2\n      mstore\n      0x20\n      add\n      swap2\n      pop\n      dup1\n      mload\n      swap1\n      0x20\n      add\n      swap1\n      0x20\n      mul\n      dup1\n      dup4\n      dup4\n        /* \"--CODEGEN--\":23:24   */\n      0x00\n        /* \"--CODEGEN--\":8:108   */\n    tag_36:\n        /* \"--CODEGEN--\":33:36   */\n      dup4\n        /* \"--CODEGEN--\":30:31   */\n      dup2\n        /* \"--CODEGEN--\":27:37   */\n      lt\n        /* \"--CODEGEN--\":8:108   */\n      iszero\n      tag_38\n      jumpi\n        /* \"--CODEGEN--\":99:100   */\n      dup1\n        /* \"--CODEGEN--\":94:97   */\n      dup3\n        /* \"--CODEGEN--\":90:101   */\n      add\n        /* \"--CODEGEN--\":84:102   */\n      mload\n        /* \"--CODEGEN--\":80:81   */\n      dup2\n        /* \"--CODEGEN--\":75:78   */\n      dup5\n        /* \"--CODEGEN--\":71:82   */\n      add\n        /* \"--CODEGEN--\":64:103   */\n      mstore\n        /* \"--CODEGEN--\":52:54   */\n      0x20\n        /* \"--CODEGEN--\":49:50   */\n      dup2\n        /* \"--CODEGEN--\":45:55   */\n      add\n        /* \"--CODEGEN--\":40:55   */\n      swap1\n      pop\n        /* \"--CODEGEN--\":8:108   */\n      jump(tag_36)\n    tag_38:\n        /* \"--CODEGEN--\":12:26   */\n      pop\n        /* \"Reputation.sol\":1428:1801  function getVotedTopics(uint startIndex, uint endIndex) public view returns (address[] memory) {\r... */\n      pop\n      pop\n      pop\n      swap1\n      pop\n      add\n      swap3\n      pop\n      pop\n      pop\n      mload(0x40)\n      dup1\n      swap2\n      sub\n      swap1\n      return\n        /* \"Reputation.sol\":733:946  function addTopic(address payable topicAddress) public {\r... */\n    tag_11:\n      tag_39\n      0x04\n      dup1\n      calldatasize\n      sub\n        /* \"--CODEGEN--\":13:15   */\n      0x20\n        /* \"--CODEGEN--\":8:11   */\n      dup2\n        /* \"--CODEGEN--\":5:16   */\n      lt\n        /* \"--CODEGEN--\":2:4   */\n      iszero\n      tag_40\n      jumpi\n        /* \"--CODEGEN--\":29:30   */\n      0x00\n        /* \"--CODEGEN--\":26:27   */\n      dup1\n        /* \"--CODEGEN--\":19:31   */\n      revert\n        /* \"--CODEGEN--\":2:4   */\n    tag_40:\n        /* \"Reputation.sol\":733:946  function addTopic(address payable topicAddress) public {\r... */\n      dup2\n      add\n      swap1\n      dup1\n      dup1\n      calldataload\n      0xffffffffffffffffffffffffffffffffffffffff\n      and\n      swap1\n      0x20\n      add\n      swap1\n      swap3\n      swap2\n      swap1\n      pop\n      pop\n      pop\n      tag_41\n      jump\t// in\n    tag_39:\n      stop\n        /* \"Reputation.sol\":954:1317  function getTopics(uint startIndex, uint endIndex) public view returns (address[] memory) {\r... */\n    tag_15:\n        /* \"Reputation.sol\":1026:1042  address[] memory */\n      0x60\n        /* \"Reputation.sol\":1055:1064  uint diff */\n      0x00\n        /* \"Reputation.sol\":1078:1088  startIndex */\n      dup4\n        /* \"Reputation.sol\":1067:1075  endIndex */\n      dup4\n        /* \"Reputation.sol\":1067:1088  endIndex - startIndex */\n      sub\n        /* \"Reputation.sol\":1055:1088  uint diff = endIndex - startIndex */\n      swap1\n      pop\n        /* \"Reputation.sol\":1099:1126  address[] memory tempTopics */\n      0x60\n        /* \"Reputation.sol\":1152:1162  startIndex */\n      dup5\n        /* \"Reputation.sol\":1143:1151  endIndex */\n      dup5\n        /* \"Reputation.sol\":1143:1162  endIndex-startIndex */\n      sub\n        /* \"Reputation.sol\":1129:1163  new address[](endIndex-startIndex) */\n      mload(0x40)\n      swap1\n      dup1\n      dup3\n      mstore\n      dup1\n      0x20\n      mul\n      0x20\n      add\n      dup3\n      add\n      0x40\n      mstore\n      dup1\n      iszero\n      tag_43\n      jumpi\n      dup2\n      0x20\n      add\n        /* \"--CODEGEN--\":29:31   */\n      0x20\n        /* \"--CODEGEN--\":21:27   */\n      dup3\n        /* \"--CODEGEN--\":17:32   */\n      mul\n        /* \"--CODEGEN--\":117:121   */\n      dup1\n        /* \"--CODEGEN--\":105:115   */\n      codesize\n        /* \"--CODEGEN--\":97:103   */\n      dup4\n        /* \"--CODEGEN--\":88:122   */\n      codecopy\n        /* \"--CODEGEN--\":148:152   */\n      dup1\n        /* \"--CODEGEN--\":140:146   */\n      dup3\n        /* \"--CODEGEN--\":136:153   */\n      add\n        /* \"--CODEGEN--\":126:153   */\n      swap2\n      pop\n        /* \"--CODEGEN--\":0:157   */\n      pop\n        /* \"Reputation.sol\":1129:1163  new address[](endIndex-startIndex) */\n      swap1\n      pop\n    tag_43:\n      pop\n        /* \"Reputation.sol\":1099:1163  address[] memory tempTopics = new address[](endIndex-startIndex) */\n      swap1\n      pop\n        /* \"Reputation.sol\":1181:1187  uint i */\n      0x00\n        /* \"Reputation.sol\":1190:1191  0 */\n      dup1\n        /* \"Reputation.sol\":1181:1191  uint i = 0 */\n      swap1\n      pop\n        /* \"Reputation.sol\":1176:1282  for (uint i = 0; i < diff; i++) {\r... */\n    tag_44:\n        /* \"Reputation.sol\":1197:1201  diff */\n      dup3\n        /* \"Reputation.sol\":1193:1194  i */\n      dup2\n        /* \"Reputation.sol\":1193:1201  i < diff */\n      lt\n        /* \"Reputation.sol\":1176:1282  for (uint i = 0; i < diff; i++) {\r... */\n      iszero\n      tag_45\n      jumpi\n        /* \"Reputation.sol\":1247:1253  topics */\n      0x03\n        /* \"Reputation.sol\":1267:1268  i */\n      dup2\n        /* \"Reputation.sol\":1254:1264  startIndex */\n      dup8\n        /* \"Reputation.sol\":1254:1268  startIndex + i */\n      add\n        /* \"Reputation.sol\":1247:1269  topics[startIndex + i] */\n      dup2\n      sload\n      dup2\n      lt\n      tag_47\n      jumpi\n      invalid\n    tag_47:\n      swap1\n      0x00\n      mstore\n      keccak256(0x00, 0x20)\n      add\n      0x00\n      swap1\n      sload\n      swap1\n      0x0100\n      exp\n      swap1\n      div\n      0xffffffffffffffffffffffffffffffffffffffff\n      and\n        /* \"Reputation.sol\":1223:1233  tempTopics */\n      dup3\n        /* \"Reputation.sol\":1234:1235  i */\n      dup3\n        /* \"Reputation.sol\":1223:1236  tempTopics[i] */\n      dup2\n      mload\n      dup2\n      lt\n      tag_49\n      jumpi\n      invalid\n    tag_49:\n      0x20\n      mul\n      0x20\n      add\n      add\n        /* \"Reputation.sol\":1223:1270  tempTopics[i] = address(topics[startIndex + i]) */\n      swap1\n      0xffffffffffffffffffffffffffffffffffffffff\n      and\n      swap1\n      dup2\n      0xffffffffffffffffffffffffffffffffffffffff\n      and\n      dup2\n      mstore\n      pop\n      pop\n        /* \"Reputation.sol\":1203:1206  i++ */\n      dup1\n      dup1\n      0x01\n      add\n      swap2\n      pop\n      pop\n        /* \"Reputation.sol\":1176:1282  for (uint i = 0; i < diff; i++) {\r... */\n      jump(tag_44)\n    tag_45:\n      pop\n        /* \"Reputation.sol\":1299:1309  tempTopics */\n      dup1\n        /* \"Reputation.sol\":1292:1309  return tempTopics */\n      swap3\n      pop\n      pop\n      pop\n        /* \"Reputation.sol\":954:1317  function getTopics(uint startIndex, uint endIndex) public view returns (address[] memory) {\r... */\n      swap3\n      swap2\n      pop\n      pop\n      jump\t// out\n        /* \"Reputation.sol\":125:145  address public owner */\n    tag_20:\n      0x01\n      0x00\n      swap1\n      sload\n      swap1\n      0x0100\n      exp\n      swap1\n      div\n      0xffffffffffffffffffffffffffffffffffffffff\n      and\n      dup2\n      jump\t// out\n        /* \"Reputation.sol\":2028:2262  function spendReputation(address topic, uint removeRep) public _reputationFactoryOnly {\r... */\n    tag_23:\n        /* \"Reputation.sol\":445:469  reputationFactoryAddress */\n      0x00\n      dup1\n      swap1\n      sload\n      swap1\n      0x0100\n      exp\n      swap1\n      div\n      0xffffffffffffffffffffffffffffffffffffffff\n      and\n        /* \"Reputation.sol\":431:469  msg.sender == reputationFactoryAddress */\n      0xffffffffffffffffffffffffffffffffffffffff\n      and\n        /* \"Reputation.sol\":431:441  msg.sender */\n      caller\n        /* \"Reputation.sol\":431:469  msg.sender == reputationFactoryAddress */\n      0xffffffffffffffffffffffffffffffffffffffff\n      and\n      eq\n        /* \"Reputation.sol\":423:527  require(msg.sender == reputationFactoryAddress, 'Only the reputation factory can invoke this function.') */\n      tag_51\n      jumpi\n      mload(0x40)\n      0x08c379a000000000000000000000000000000000000000000000000000000000\n      dup2\n      mstore\n      0x04\n      add\n      dup1\n      dup1\n      0x20\n      add\n      dup3\n      dup2\n      sub\n      dup3\n      mstore\n      0x35\n      dup2\n      mstore\n      0x20\n      add\n      dup1\n      data_d53f9906e0171eb79392ab60580151b625571c2aa0c2f67b33b41318a7de8c6a\n      0x35\n      swap2\n      codecopy\n      0x40\n      add\n      swap2\n      pop\n      pop\n      mload(0x40)\n      dup1\n      swap2\n      sub\n      swap1\n      revert\n    tag_51:\n        /* \"Reputation.sol\":2140:2149  removeRep */\n      dup1\n        /* \"Reputation.sol\":2133:2136  rep */\n      sload(0x02)\n        /* \"Reputation.sol\":2133:2149  rep >= removeRep */\n      lt\n      iszero\n        /* \"Reputation.sol\":2125:2193  require(rep >= removeRep, \"You don't have enough rep to give away.\") */\n      tag_53\n      jumpi\n      mload(0x40)\n      0x08c379a000000000000000000000000000000000000000000000000000000000\n      dup2\n      mstore\n      0x04\n      add\n      dup1\n      dup1\n      0x20\n      add\n      dup3\n      dup2\n      sub\n      dup3\n      mstore\n      0x27\n      dup2\n      mstore\n      0x20\n      add\n      dup1\n      data_4bcad3f30b5a6f99e21c62331798cb3581db9a809305078b4b83e856df08713f\n      0x27\n      swap2\n      codecopy\n      0x40\n      add\n      swap2\n      pop\n      pop\n      mload(0x40)\n      dup1\n      swap2\n      sub\n      swap1\n      revert\n    tag_53:\n        /* \"Reputation.sol\":2204:2215  votedTopics */\n      0x04\n        /* \"Reputation.sol\":2221:2226  topic */\n      dup3\n        /* \"Reputation.sol\":2204:2227  votedTopics.push(topic) */\n      swap1\n      dup1\n        /* \"--CODEGEN--\":39:40   */\n      0x01\n        /* \"--CODEGEN--\":33:36   */\n      dup2\n        /* \"--CODEGEN--\":27:37   */\n      sload\n        /* \"--CODEGEN--\":23:41   */\n      add\n        /* \"--CODEGEN--\":57:67   */\n      dup1\n        /* \"--CODEGEN--\":52:55   */\n      dup3\n        /* \"--CODEGEN--\":45:68   */\n      sstore\n        /* \"--CODEGEN--\":79:89   */\n      dup1\n        /* \"--CODEGEN--\":72:89   */\n      swap2\n      pop\n        /* \"--CODEGEN--\":0:93   */\n      pop\n        /* \"Reputation.sol\":2204:2227  votedTopics.push(topic) */\n      swap1\n      0x01\n      dup3\n      sub\n      swap1\n      0x00\n      mstore\n      keccak256(0x00, 0x20)\n      add\n      0x00\n      swap1\n      swap2\n      swap3\n      swap1\n      swap2\n      swap1\n      swap2\n      0x0100\n      exp\n      dup2\n      sload\n      dup2\n      0xffffffffffffffffffffffffffffffffffffffff\n      mul\n      not\n      and\n      swap1\n      dup4\n      0xffffffffffffffffffffffffffffffffffffffff\n      and\n      mul\n      or\n      swap1\n      sstore\n      pop\n      pop\n        /* \"Reputation.sol\":2245:2254  removeRep */\n      dup1\n        /* \"Reputation.sol\":2238:2241  rep */\n      0x02\n      0x00\n        /* \"Reputation.sol\":2238:2254  rep -= removeRep */\n      dup3\n      dup3\n      sload\n      sub\n      swap3\n      pop\n      pop\n      dup2\n      swap1\n      sstore\n      pop\n        /* \"Reputation.sol\":2028:2262  function spendReputation(address topic, uint removeRep) public _reputationFactoryOnly {\r... */\n      pop\n      pop\n      jump\t// out\n        /* \"Reputation.sol\":1809:1914  function getNumberOfVotedTopics() public view returns (uint) {\r... */\n    tag_25:\n        /* \"Reputation.sol\":1864:1868  uint */\n      0x00\n        /* \"Reputation.sol\":1888:1899  votedTopics */\n      0x04\n        /* \"Reputation.sol\":1888:1906  votedTopics.length */\n      dup1\n      sload\n      swap1\n      pop\n        /* \"Reputation.sol\":1881:1906  return votedTopics.length */\n      swap1\n      pop\n        /* \"Reputation.sol\":1809:1914  function getNumberOfVotedTopics() public view returns (uint) {\r... */\n      swap1\n      jump\t// out\n        /* \"Reputation.sol\":1922:2020  function addReputation(uint addRep) public _reputationFactoryOnly {\r... */\n    tag_28:\n        /* \"Reputation.sol\":445:469  reputationFactoryAddress */\n      0x00\n      dup1\n      swap1\n      sload\n      swap1\n      0x0100\n      exp\n      swap1\n      div\n      0xffffffffffffffffffffffffffffffffffffffff\n      and\n        /* \"Reputation.sol\":431:469  msg.sender == reputationFactoryAddress */\n      0xffffffffffffffffffffffffffffffffffffffff\n      and\n        /* \"Reputation.sol\":431:441  msg.sender */\n      caller\n        /* \"Reputation.sol\":431:469  msg.sender == reputationFactoryAddress */\n      0xffffffffffffffffffffffffffffffffffffffff\n      and\n      eq\n        /* \"Reputation.sol\":423:527  require(msg.sender == reputationFactoryAddress, 'Only the reputation factory can invoke this function.') */\n      tag_57\n      jumpi\n      mload(0x40)\n      0x08c379a000000000000000000000000000000000000000000000000000000000\n      dup2\n      mstore\n      0x04\n      add\n      dup1\n      dup1\n      0x20\n      add\n      dup3\n      dup2\n      sub\n      dup3\n      mstore\n      0x35\n      dup2\n      mstore\n      0x20\n      add\n      dup1\n      data_d53f9906e0171eb79392ab60580151b625571c2aa0c2f67b33b41318a7de8c6a\n      0x35\n      swap2\n      codecopy\n      0x40\n      add\n      swap2\n      pop\n      pop\n      mload(0x40)\n      dup1\n      swap2\n      sub\n      swap1\n      revert\n    tag_57:\n        /* \"Reputation.sol\":2006:2012  addRep */\n      dup1\n        /* \"Reputation.sol\":1999:2002  rep */\n      0x02\n      0x00\n        /* \"Reputation.sol\":1999:2012  rep += addRep */\n      dup3\n      dup3\n      sload\n      add\n      swap3\n      pop\n      pop\n      dup2\n      swap1\n      sstore\n      pop\n        /* \"Reputation.sol\":1922:2020  function addReputation(uint addRep) public _reputationFactoryOnly {\r... */\n      pop\n      jump\t// out\n        /* \"Reputation.sol\":1325:1420  function getNumberOfTopics() public view returns (uint) {\r... */\n    tag_30:\n        /* \"Reputation.sol\":1375:1379  uint */\n      0x00\n        /* \"Reputation.sol\":1399:1405  topics */\n      0x03\n        /* \"Reputation.sol\":1399:1412  topics.length */\n      dup1\n      sload\n      swap1\n      pop\n        /* \"Reputation.sol\":1392:1412  return topics.length */\n      swap1\n      pop\n        /* \"Reputation.sol\":1325:1420  function getNumberOfTopics() public view returns (uint) {\r... */\n      swap1\n      jump\t// out\n        /* \"Reputation.sol\":152:167  uint public rep */\n    tag_32:\n      sload(0x02)\n      dup2\n      jump\t// out\n        /* \"Reputation.sol\":1428:1801  function getVotedTopics(uint startIndex, uint endIndex) public view returns (address[] memory) {\r... */\n    tag_35:\n        /* \"Reputation.sol\":1505:1521  address[] memory */\n      0x60\n        /* \"Reputation.sol\":1534:1543  uint diff */\n      0x00\n        /* \"Reputation.sol\":1557:1567  startIndex */\n      dup4\n        /* \"Reputation.sol\":1546:1554  endIndex */\n      dup4\n        /* \"Reputation.sol\":1546:1567  endIndex - startIndex */\n      sub\n        /* \"Reputation.sol\":1534:1567  uint diff = endIndex - startIndex */\n      swap1\n      pop\n        /* \"Reputation.sol\":1578:1605  address[] memory tempTopics */\n      0x60\n        /* \"Reputation.sol\":1631:1641  startIndex */\n      dup5\n        /* \"Reputation.sol\":1622:1630  endIndex */\n      dup5\n        /* \"Reputation.sol\":1622:1641  endIndex-startIndex */\n      sub\n        /* \"Reputation.sol\":1608:1642  new address[](endIndex-startIndex) */\n      mload(0x40)\n      swap1\n      dup1\n      dup3\n      mstore\n      dup1\n      0x20\n      mul\n      0x20\n      add\n      dup3\n      add\n      0x40\n      mstore\n      dup1\n      iszero\n      tag_61\n      jumpi\n      dup2\n      0x20\n      add\n        /* \"--CODEGEN--\":29:31   */\n      0x20\n        /* \"--CODEGEN--\":21:27   */\n      dup3\n        /* \"--CODEGEN--\":17:32   */\n      mul\n        /* \"--CODEGEN--\":117:121   */\n      dup1\n        /* \"--CODEGEN--\":105:115   */\n      codesize\n        /* \"--CODEGEN--\":97:103   */\n      dup4\n        /* \"--CODEGEN--\":88:122   */\n      codecopy\n        /* \"--CODEGEN--\":148:152   */\n      dup1\n        /* \"--CODEGEN--\":140:146   */\n      dup3\n        /* \"--CODEGEN--\":136:153   */\n      add\n        /* \"--CODEGEN--\":126:153   */\n      swap2\n      pop\n        /* \"--CODEGEN--\":0:157   */\n      pop\n        /* \"Reputation.sol\":1608:1642  new address[](endIndex-startIndex) */\n      swap1\n      pop\n    tag_61:\n      pop\n        /* \"Reputation.sol\":1578:1642  address[] memory tempTopics = new address[](endIndex-startIndex) */\n      swap1\n      pop\n        /* \"Reputation.sol\":1660:1666  uint i */\n      0x00\n        /* \"Reputation.sol\":1669:1670  0 */\n      dup1\n        /* \"Reputation.sol\":1660:1670  uint i = 0 */\n      swap1\n      pop\n        /* \"Reputation.sol\":1655:1766  for (uint i = 0; i < diff; i++) {\r... */\n    tag_62:\n        /* \"Reputation.sol\":1676:1680  diff */\n      dup3\n        /* \"Reputation.sol\":1672:1673  i */\n      dup2\n        /* \"Reputation.sol\":1672:1680  i < diff */\n      lt\n        /* \"Reputation.sol\":1655:1766  for (uint i = 0; i < diff; i++) {\r... */\n      iszero\n      tag_63\n      jumpi\n        /* \"Reputation.sol\":1726:1737  votedTopics */\n      0x04\n        /* \"Reputation.sol\":1751:1752  i */\n      dup2\n        /* \"Reputation.sol\":1738:1748  startIndex */\n      dup8\n        /* \"Reputation.sol\":1738:1752  startIndex + i */\n      add\n        /* \"Reputation.sol\":1726:1753  votedTopics[startIndex + i] */\n      dup2\n      sload\n      dup2\n      lt\n      tag_65\n      jumpi\n      invalid\n    tag_65:\n      swap1\n      0x00\n      mstore\n      keccak256(0x00, 0x20)\n      add\n      0x00\n      swap1\n      sload\n      swap1\n      0x0100\n      exp\n      swap1\n      div\n      0xffffffffffffffffffffffffffffffffffffffff\n      and\n        /* \"Reputation.sol\":1702:1712  tempTopics */\n      dup3\n        /* \"Reputation.sol\":1713:1714  i */\n      dup3\n        /* \"Reputation.sol\":1702:1715  tempTopics[i] */\n      dup2\n      mload\n      dup2\n      lt\n      tag_67\n      jumpi\n      invalid\n    tag_67:\n      0x20\n      mul\n      0x20\n      add\n      add\n        /* \"Reputation.sol\":1702:1754  tempTopics[i] = address(votedTopics[startIndex + i]) */\n      swap1\n      0xffffffffffffffffffffffffffffffffffffffff\n      and\n      swap1\n      dup2\n      0xffffffffffffffffffffffffffffffffffffffff\n      and\n      dup2\n      mstore\n      pop\n      pop\n        /* \"Reputation.sol\":1682:1685  i++ */\n      dup1\n      dup1\n      0x01\n      add\n      swap2\n      pop\n      pop\n        /* \"Reputation.sol\":1655:1766  for (uint i = 0; i < diff; i++) {\r... */\n      jump(tag_62)\n    tag_63:\n      pop\n        /* \"Reputation.sol\":1783:1793  tempTopics */\n      dup1\n        /* \"Reputation.sol\":1776:1793  return tempTopics */\n      swap3\n      pop\n      pop\n      pop\n        /* \"Reputation.sol\":1428:1801  function getVotedTopics(uint startIndex, uint endIndex) public view returns (address[] memory) {\r... */\n      swap3\n      swap2\n      pop\n      pop\n      jump\t// out\n        /* \"Reputation.sol\":733:946  function addTopic(address payable topicAddress) public {\r... */\n    tag_41:\n        /* \"Reputation.sol\":840:845  owner */\n      0x01\n      0x00\n      swap1\n      sload\n      swap1\n      0x0100\n      exp\n      swap1\n      div\n      0xffffffffffffffffffffffffffffffffffffffff\n      and\n        /* \"Reputation.sol\":807:845  Topic(topicAddress).creator() == owner */\n      0xffffffffffffffffffffffffffffffffffffffff\n      and\n        /* \"Reputation.sol\":813:825  topicAddress */\n      dup2\n        /* \"Reputation.sol\":807:834  Topic(topicAddress).creator */\n      0xffffffffffffffffffffffffffffffffffffffff\n      and\n      0x02d05d3f\n        /* \"Reputation.sol\":807:836  Topic(topicAddress).creator() */\n      mload(0x40)\n      dup2\n      0xffffffff\n      and\n      0xe0\n      shl\n      dup2\n      mstore\n      0x04\n      add\n      0x20\n      mload(0x40)\n      dup1\n      dup4\n      sub\n      dup2\n      dup7\n      dup1\n      extcodesize\n      iszero\n        /* \"--CODEGEN--\":8:17   */\n      dup1\n        /* \"--CODEGEN--\":5:7   */\n      iszero\n      tag_69\n      jumpi\n        /* \"--CODEGEN--\":30:31   */\n      0x00\n        /* \"--CODEGEN--\":27:28   */\n      dup1\n        /* \"--CODEGEN--\":20:32   */\n      revert\n        /* \"--CODEGEN--\":5:7   */\n    tag_69:\n        /* \"Reputation.sol\":807:836  Topic(topicAddress).creator() */\n      pop\n      gas\n      staticcall\n      iszero\n        /* \"--CODEGEN--\":8:17   */\n      dup1\n        /* \"--CODEGEN--\":5:7   */\n      iszero\n      tag_70\n      jumpi\n        /* \"--CODEGEN--\":45:61   */\n      returndatasize\n        /* \"--CODEGEN--\":42:43   */\n      0x00\n        /* \"--CODEGEN--\":39:40   */\n      dup1\n        /* \"--CODEGEN--\":24:62   */\n      returndatacopy\n        /* \"--CODEGEN--\":77:93   */\n      returndatasize\n        /* \"--CODEGEN--\":74:75   */\n      0x00\n        /* \"--CODEGEN--\":67:94   */\n      revert\n        /* \"--CODEGEN--\":5:7   */\n    tag_70:\n        /* \"Reputation.sol\":807:836  Topic(topicAddress).creator() */\n      pop\n      pop\n      pop\n      pop\n      mload(0x40)\n      returndatasize\n        /* \"--CODEGEN--\":13:15   */\n      0x20\n        /* \"--CODEGEN--\":8:11   */\n      dup2\n        /* \"--CODEGEN--\":5:16   */\n      lt\n        /* \"--CODEGEN--\":2:4   */\n      iszero\n      tag_71\n      jumpi\n        /* \"--CODEGEN--\":29:30   */\n      0x00\n        /* \"--CODEGEN--\":26:27   */\n      dup1\n        /* \"--CODEGEN--\":19:31   */\n      revert\n        /* \"--CODEGEN--\":2:4   */\n    tag_71:\n        /* \"Reputation.sol\":807:836  Topic(topicAddress).creator() */\n      dup2\n      add\n      swap1\n      dup1\n      dup1\n      mload\n      swap1\n      0x20\n      add\n      swap1\n      swap3\n      swap2\n      swap1\n      pop\n      pop\n      pop\n        /* \"Reputation.sol\":807:845  Topic(topicAddress).creator() == owner */\n      0xffffffffffffffffffffffffffffffffffffffff\n      and\n      eq\n        /* \"Reputation.sol\":799:902  require(Topic(topicAddress).creator() == owner, \"Must be the creator of the Topic in order to add it.\") */\n      tag_72\n      jumpi\n      mload(0x40)\n      0x08c379a000000000000000000000000000000000000000000000000000000000\n      dup2\n      mstore\n      0x04\n      add\n      dup1\n      dup1\n      0x20\n      add\n      dup3\n      dup2\n      sub\n      dup3\n      mstore\n      0x34\n      dup2\n      mstore\n      0x20\n      add\n      dup1\n      data_a15fdaf5d5321fa31887ccf2561f20e6b38e528c1c6a0f76f581a4a7dac3aea3\n      0x34\n      swap2\n      codecopy\n      0x40\n      add\n      swap2\n      pop\n      pop\n      mload(0x40)\n      dup1\n      swap2\n      sub\n      swap1\n      revert\n    tag_72:\n        /* \"Reputation.sol\":913:919  topics */\n      0x03\n        /* \"Reputation.sol\":925:937  topicAddress */\n      dup2\n        /* \"Reputation.sol\":913:938  topics.push(topicAddress) */\n      swap1\n      dup1\n        /* \"--CODEGEN--\":39:40   */\n      0x01\n        /* \"--CODEGEN--\":33:36   */\n      dup2\n        /* \"--CODEGEN--\":27:37   */\n      sload\n        /* \"--CODEGEN--\":23:41   */\n      add\n        /* \"--CODEGEN--\":57:67   */\n      dup1\n        /* \"--CODEGEN--\":52:55   */\n      dup3\n        /* \"--CODEGEN--\":45:68   */\n      sstore\n        /* \"--CODEGEN--\":79:89   */\n      dup1\n        /* \"--CODEGEN--\":72:89   */\n      swap2\n      pop\n        /* \"--CODEGEN--\":0:93   */\n      pop\n        /* \"Reputation.sol\":913:938  topics.push(topicAddress) */\n      swap1\n      0x01\n      dup3\n      sub\n      swap1\n      0x00\n      mstore\n      keccak256(0x00, 0x20)\n      add\n      0x00\n      swap1\n      swap2\n      swap3\n      swap1\n      swap2\n      swap1\n      swap2\n      0x0100\n      exp\n      dup2\n      sload\n      dup2\n      0xffffffffffffffffffffffffffffffffffffffff\n      mul\n      not\n      and\n      swap1\n      dup4\n      0xffffffffffffffffffffffffffffffffffffffff\n      and\n      mul\n      or\n      swap1\n      sstore\n      pop\n      pop\n        /* \"Reputation.sol\":733:946  function addTopic(address payable topicAddress) public {\r... */\n      pop\n      jump\t// out\n    stop\n    data_4bcad3f30b5a6f99e21c62331798cb3581db9a809305078b4b83e856df08713f 596f7520646f6e2774206861766520656e6f7567682072657020746f206769766520617761792e\n    data_a15fdaf5d5321fa31887ccf2561f20e6b38e528c1c6a0f76f581a4a7dac3aea3 4d757374206265207468652063726561746f72206f662074686520546f70696320696e206f7264657220746f206164642069742e\n    data_d53f9906e0171eb79392ab60580151b625571c2aa0c2f67b33b41318a7de8c6a 4f6e6c79207468652072657075746174696f6e20666163746f72792063616e20696e766f6b6520746869732066756e6374696f6e2e\n\n    auxdata: 0xa265627a7a72315820b40faa0fb6aef0a0abd404daffd956ca1a9f9825f6f871b46fef2b37f5428e0c64736f6c63430005100032\n}\n","bytecode":{"linkReferences":{},"object":"608060405234801561001057600080fd5b50604051610a96380380610a968339818101604052604081101561003357600080fd5b810190808051906020019092919080519060200190929190505050816000806101000a81548173ffffffffffffffffffffffffffffffffffffffff021916908373ffffffffffffffffffffffffffffffffffffffff160217905550606460028190555080600160006101000a81548173ffffffffffffffffffffffffffffffffffffffff021916908373ffffffffffffffffffffffffffffffffffffffff16021790555050506109ae806100e86000396000f3fe608060405234801561001057600080fd5b50600436106100935760003560e01c8063b50ac9fc11610066578063b50ac9fc146101db578063c729818b14610209578063ccc0795914610227578063d7dc8c7b14610245578063f18df9e7146102d257610093565b806356ea46d9146100985780638da5cb5b14610125578063908f91841461016f578063a450736c146101bd575b600080fd5b6100ce600480360360408110156100ae57600080fd5b810190808035906020019092919080359060200190929190505050610316565b6040518080602001828103825283818151815260200191508051906020019060200280838360005b838110156101115780820151818401526020810190506100f6565b505050509050019250505060405180910390f35b61012d6103fc565b604051808273ffffffffffffffffffffffffffffffffffffffff1673ffffffffffffffffffffffffffffffffffffffff16815260200191505060405180910390f35b6101bb6004803603604081101561018557600080fd5b81019080803573ffffffffffffffffffffffffffffffffffffffff16906020019092919080359060200190929190505050610422565b005b6101c561059c565b6040518082815260200191505060405180910390f35b610207600480360360208110156101f157600080fd5b81019080803590602001909291905050506105a9565b005b610211610661565b6040518082815260200191505060405180910390f35b61022f61066e565b6040518082815260200191505060405180910390f35b61027b6004803603604081101561025b57600080fd5b810190808035906020019092919080359060200190929190505050610674565b6040518080602001828103825283818151815260200191508051906020019060200280838360005b838110156102be5780820151818401526020810190506102a3565b505050509050019250505060405180910390f35b610314600480360360208110156102e857600080fd5b81019080803573ffffffffffffffffffffffffffffffffffffffff16906020019092919050505061075a565b005b60606000838303905060608484036040519080825280602002602001820160405280156103525781602001602082028038833980820191505090505b50905060008090505b828110156103f05760038187018154811061037257fe5b9060005260206000200160009054906101000a900473ffffffffffffffffffffffffffffffffffffffff168282815181106103a957fe5b602002602001019073ffffffffffffffffffffffffffffffffffffffff16908173ffffffffffffffffffffffffffffffffffffffff1681525050808060010191505061035b565b50809250505092915050565b600160009054906101000a900473ffffffffffffffffffffffffffffffffffffffff1681565b6000809054906101000a900473ffffffffffffffffffffffffffffffffffffffff1673ffffffffffffffffffffffffffffffffffffffff163373ffffffffffffffffffffffffffffffffffffffff16146104c7576040517f08c379a00000000000000000000000000000000000000000000000000000000081526004018080602001828103825260358152602001806109456035913960400191505060405180910390fd5b806002541015610522576040517f08c379a00000000000000000000000000000000000000000000000000000000081526004018080602001828103825260278152602001806108ea6027913960400191505060405180910390fd5b60048290806001815401808255809150509060018203906000526020600020016000909192909190916101000a81548173ffffffffffffffffffffffffffffffffffffffff021916908373ffffffffffffffffffffffffffffffffffffffff16021790555050806002600082825403925050819055505050565b6000600480549050905090565b6000809054906101000a900473ffffffffffffffffffffffffffffffffffffffff1673ffffffffffffffffffffffffffffffffffffffff163373ffffffffffffffffffffffffffffffffffffffff161461064e576040517f08c379a00000000000000000000000000000000000000000000000000000000081526004018080602001828103825260358152602001806109456035913960400191505060405180910390fd5b8060026000828254019250508190555050565b6000600380549050905090565b60025481565b60606000838303905060608484036040519080825280602002602001820160405280156106b05781602001602082028038833980820191505090505b50905060008090505b8281101561074e576004818701815481106106d057fe5b9060005260206000200160009054906101000a900473ffffffffffffffffffffffffffffffffffffffff1682828151811061070757fe5b602002602001019073ffffffffffffffffffffffffffffffffffffffff16908173ffffffffffffffffffffffffffffffffffffffff168152505080806001019150506106b9565b50809250505092915050565b600160009054906101000a900473ffffffffffffffffffffffffffffffffffffffff1673ffffffffffffffffffffffffffffffffffffffff168173ffffffffffffffffffffffffffffffffffffffff166302d05d3f6040518163ffffffff1660e01b815260040160206040518083038186803b1580156107d957600080fd5b505afa1580156107ed573d6000803e3d6000fd5b505050506040513d602081101561080357600080fd5b810190808051906020019092919050505073ffffffffffffffffffffffffffffffffffffffff1614610880576040517f08c379a00000000000000000000000000000000000000000000000000000000081526004018080602001828103825260348152602001806109116034913960400191505060405180910390fd5b60038190806001815401808255809150509060018203906000526020600020016000909192909190916101000a81548173ffffffffffffffffffffffffffffffffffffffff021916908373ffffffffffffffffffffffffffffffffffffffff160217905550505056fe596f7520646f6e2774206861766520656e6f7567682072657020746f206769766520617761792e4d757374206265207468652063726561746f72206f662074686520546f70696320696e206f7264657220746f206164642069742e4f6e6c79207468652072657075746174696f6e20666163746f72792063616e20696e766f6b6520746869732066756e6374696f6e2ea265627a7a72315820b40faa0fb6aef0a0abd404daffd956ca1a9f9825f6f871b46fef2b37f5428e0c64736f6c63430005100032","opcodes":"PUSH1 0x80 PUSH1 0x40 MSTORE CALLVALUE DUP1 ISZERO PUSH2 0x10 JUMPI PUSH1 0x0 DUP1 REVERT JUMPDEST POP PUSH1 0x40 MLOAD PUSH2 0xA96 CODESIZE SUB DUP1 PUSH2 0xA96 DUP4 CODECOPY DUP2 DUP2 ADD PUSH1 0x40 MSTORE PUSH1 0x40 DUP2 LT ISZERO PUSH2 0x33 JUMPI PUSH1 0x0 DUP1 REVERT JUMPDEST DUP2 ADD SWAP1 DUP1 DUP1 MLOAD SWAP1 PUSH1 0x20 ADD SWAP1 SWAP3 SWAP2 SWAP1 DUP1 MLOAD SWAP1 PUSH1 0x20 ADD SWAP1 SWAP3 SWAP2 SWAP1 POP POP POP DUP2 PUSH1 0x0 DUP1 PUSH2 0x100 EXP DUP2 SLOAD DUP2 PUSH20 0xFFFFFFFFFFFFFFFFFFFFFFFFFFFFFFFFFFFFFFFF MUL NOT AND SWAP1 DUP4 PUSH20 0xFFFFFFFFFFFFFFFFFFFFFFFFFFFFFFFFFFFFFFFF AND MUL OR SWAP1 SSTORE POP PUSH1 0x64 PUSH1 0x2 DUP2 SWAP1 SSTORE POP DUP1 PUSH1 0x1 PUSH1 0x0 PUSH2 0x100 EXP DUP2 SLOAD DUP2 PUSH20 0xFFFFFFFFFFFFFFFFFFFFFFFFFFFFFFFFFFFFFFFF MUL NOT AND SWAP1 DUP4 PUSH20 0xFFFFFFFFFFFFFFFFFFFFFFFFFFFFFFFFFFFFFFFF AND MUL OR SWAP1 SSTORE POP POP POP PUSH2 0x9AE DUP1 PUSH2 0xE8 PUSH1 0x0 CODECOPY PUSH1 0x0 RETURN INVALID PUSH1 0x80 PUSH1 0x40 MSTORE CALLVALUE DUP1 ISZERO PUSH2 0x10 JUMPI PUSH1 0x0 DUP1 REVERT JUMPDEST POP PUSH1 0x4 CALLDATASIZE LT PUSH2 0x93 JUMPI PUSH1 0x0 CALLDATALOAD PUSH1 0xE0 SHR DUP1 PUSH4 0xB50AC9FC GT PUSH2 0x66 JUMPI DUP1 PUSH4 0xB50AC9FC EQ PUSH2 0x1DB JUMPI DUP1 PUSH4 0xC729818B EQ PUSH2 0x209 JUMPI DUP1 PUSH4 0xCCC07959 EQ PUSH2 0x227 JUMPI DUP1 PUSH4 0xD7DC8C7B EQ PUSH2 0x245 JUMPI DUP1 PUSH4 0xF18DF9E7 EQ PUSH2 0x2D2 JUMPI PUSH2 0x93 JUMP JUMPDEST DUP1 PUSH4 0x56EA46D9 EQ PUSH2 0x98 JUMPI DUP1 PUSH4 0x8DA5CB5B EQ PUSH2 0x125 JUMPI DUP1 PUSH4 0x908F9184 EQ PUSH2 0x16F JUMPI DUP1 PUSH4 0xA450736C EQ PUSH2 0x1BD JUMPI JUMPDEST PUSH1 0x0 DUP1 REVERT JUMPDEST PUSH2 0xCE PUSH1 0x4 DUP1 CALLDATASIZE SUB PUSH1 0x40 DUP2 LT ISZERO PUSH2 0xAE JUMPI PUSH1 0x0 DUP1 REVERT JUMPDEST DUP2 ADD SWAP1 DUP1 DUP1 CALLDATALOAD SWAP1 PUSH1 0x20 ADD SWAP1 SWAP3 SWAP2 SWAP1 DUP1 CALLDATALOAD SWAP1 PUSH1 0x20 ADD SWAP1 SWAP3 SWAP2 SWAP1 POP POP POP PUSH2 0x316 JUMP JUMPDEST PUSH1 0x40 MLOAD DUP1 DUP1 PUSH1 0x20 ADD DUP3 DUP2 SUB DUP3 MSTORE DUP4 DUP2 DUP2 MLOAD DUP2 MSTORE PUSH1 0x20 ADD SWAP2 POP DUP1 MLOAD SWAP1 PUSH1 0x20 ADD SWAP1 PUSH1 0x20 MUL DUP1 DUP4 DUP4 PUSH1 0x0 JUMPDEST DUP4 DUP2 LT ISZERO PUSH2 0x111 JUMPI DUP1 DUP3 ADD MLOAD DUP2 DUP5 ADD MSTORE PUSH1 0x20 DUP2 ADD SWAP1 POP PUSH2 0xF6 JUMP JUMPDEST POP POP POP POP SWAP1 POP ADD SWAP3 POP POP POP PUSH1 0x40 MLOAD DUP1 SWAP2 SUB SWAP1 RETURN JUMPDEST PUSH2 0x12D PUSH2 0x3FC JUMP JUMPDEST PUSH1 0x40 MLOAD DUP1 DUP3 PUSH20 0xFFFFFFFFFFFFFFFFFFFFFFFFFFFFFFFFFFFFFFFF AND PUSH20 0xFFFFFFFFFFFFFFFFFFFFFFFFFFFFFFFFFFFFFFFF AND DUP2 MSTORE PUSH1 0x20 ADD SWAP2 POP POP PUSH1 0x40 MLOAD DUP1 SWAP2 SUB SWAP1 RETURN JUMPDEST PUSH2 0x1BB PUSH1 0x4 DUP1 CALLDATASIZE SUB PUSH1 0x40 DUP2 LT ISZERO PUSH2 0x185 JUMPI PUSH1 0x0 DUP1 REVERT JUMPDEST DUP2 ADD SWAP1 DUP1 DUP1 CALLDATALOAD PUSH20 0xFFFFFFFFFFFFFFFFFFFFFFFFFFFFFFFFFFFFFFFF AND SWAP1 PUSH1 0x20 ADD SWAP1 SWAP3 SWAP2 SWAP1 DUP1 CALLDATALOAD SWAP1 PUSH1 0x20 ADD SWAP1 SWAP3 SWAP2 SWAP1 POP POP POP PUSH2 0x422 JUMP JUMPDEST STOP JUMPDEST PUSH2 0x1C5 PUSH2 0x59C JUMP JUMPDEST PUSH1 0x40 MLOAD DUP1 DUP3 DUP2 MSTORE PUSH1 0x20 ADD SWAP2 POP POP PUSH1 0x40 MLOAD DUP1 SWAP2 SUB SWAP1 RETURN JUMPDEST PUSH2 0x207 PUSH1 0x4 DUP1 CALLDATASIZE SUB PUSH1 0x20 DUP2 LT ISZERO PUSH2 0x1F1 JUMPI PUSH1 0x0 DUP1 REVERT JUMPDEST DUP2 ADD SWAP1 DUP1 DUP1 CALLDATALOAD SWAP1 PUSH1 0x20 ADD SWAP1 SWAP3 SWAP2 SWAP1 POP POP POP PUSH2 0x5A9 JUMP JUMPDEST STOP JUMPDEST PUSH2 0x211 PUSH2 0x661 JUMP JUMPDEST PUSH1 0x40 MLOAD DUP1 DUP3 DUP2 MSTORE PUSH1 0x20 ADD SWAP2 POP POP PUSH1 0x40 MLOAD DUP1 SWAP2 SUB SWAP1 RETURN JUMPDEST PUSH2 0x22F PUSH2 0x66E JUMP JUMPDEST PUSH1 0x40 MLOAD DUP1 DUP3 DUP2 MSTORE PUSH1 0x20 ADD SWAP2 POP POP PUSH1 0x40 MLOAD DUP1 SWAP2 SUB SWAP1 RETURN JUMPDEST PUSH2 0x27B PUSH1 0x4 DUP1 CALLDATASIZE SUB PUSH1 0x40 DUP2 LT ISZERO PUSH2 0x25B JUMPI PUSH1 0x0 DUP1 REVERT JUMPDEST DUP2 ADD SWAP1 DUP1 DUP1 CALLDATALOAD SWAP1 PUSH1 0x20 ADD SWAP1 SWAP3 SWAP2 SWAP1 DUP1 CALLDATALOAD SWAP1 PUSH1 0x20 ADD SWAP1 SWAP3 SWAP2 SWAP1 POP POP POP PUSH2 0x674 JUMP JUMPDEST PUSH1 0x40 MLOAD DUP1 DUP1 PUSH1 0x20 ADD DUP3 DUP2 SUB DUP3 MSTORE DUP4 DUP2 DUP2 MLOAD DUP2 MSTORE PUSH1 0x20 ADD SWAP2 POP DUP1 MLOAD SWAP1 PUSH1 0x20 ADD SWAP1 PUSH1 0x20 MUL DUP1 DUP4 DUP4 PUSH1 0x0 JUMPDEST DUP4 DUP2 LT ISZERO PUSH2 0x2BE JUMPI DUP1 DUP3 ADD MLOAD DUP2 DUP5 ADD MSTORE PUSH1 0x20 DUP2 ADD SWAP1 POP PUSH2 0x2A3 JUMP JUMPDEST POP POP POP POP SWAP1 POP ADD SWAP3 POP POP POP PUSH1 0x40 MLOAD DUP1 SWAP2 SUB SWAP1 RETURN JUMPDEST PUSH2 0x314 PUSH1 0x4 DUP1 CALLDATASIZE SUB PUSH1 0x20 DUP2 LT ISZERO PUSH2 0x2E8 JUMPI PUSH1 0x0 DUP1 REVERT JUMPDEST DUP2 ADD SWAP1 DUP1 DUP1 CALLDATALOAD PUSH20 0xFFFFFFFFFFFFFFFFFFFFFFFFFFFFFFFFFFFFFFFF AND SWAP1 PUSH1 0x20 ADD SWAP1 SWAP3 SWAP2 SWAP1 POP POP POP PUSH2 0x75A JUMP JUMPDEST STOP JUMPDEST PUSH1 0x60 PUSH1 0x0 DUP4 DUP4 SUB SWAP1 POP PUSH1 0x60 DUP5 DUP5 SUB PUSH1 0x40 MLOAD SWAP1 DUP1 DUP3 MSTORE DUP1 PUSH1 0x20 MUL PUSH1 0x20 ADD DUP3 ADD PUSH1 0x40 MSTORE DUP1 ISZERO PUSH2 0x352 JUMPI DUP2 PUSH1 0x20 ADD PUSH1 0x20 DUP3 MUL DUP1 CODESIZE DUP4 CODECOPY DUP1 DUP3 ADD SWAP2 POP POP SWAP1 POP JUMPDEST POP SWAP1 POP PUSH1 0x0 DUP1 SWAP1 POP JUMPDEST DUP3 DUP2 LT ISZERO PUSH2 0x3F0 JUMPI PUSH1 0x3 DUP2 DUP8 ADD DUP2 SLOAD DUP2 LT PUSH2 0x372 JUMPI INVALID JUMPDEST SWAP1 PUSH1 0x0 MSTORE PUSH1 0x20 PUSH1 0x0 KECCAK256 ADD PUSH1 0x0 SWAP1 SLOAD SWAP1 PUSH2 0x100 EXP SWAP1 DIV PUSH20 0xFFFFFFFFFFFFFFFFFFFFFFFFFFFFFFFFFFFFFFFF AND DUP3 DUP3 DUP2 MLOAD DUP2 LT PUSH2 0x3A9 JUMPI INVALID JUMPDEST PUSH1 0x20 MUL PUSH1 0x20 ADD ADD SWAP1 PUSH20 0xFFFFFFFFFFFFFFFFFFFFFFFFFFFFFFFFFFFFFFFF AND SWAP1 DUP2 PUSH20 0xFFFFFFFFFFFFFFFFFFFFFFFFFFFFFFFFFFFFFFFF AND DUP2 MSTORE POP POP DUP1 DUP1 PUSH1 0x1 ADD SWAP2 POP POP PUSH2 0x35B JUMP JUMPDEST POP DUP1 SWAP3 POP POP POP SWAP3 SWAP2 POP POP JUMP JUMPDEST PUSH1 0x1 PUSH1 0x0 SWAP1 SLOAD SWAP1 PUSH2 0x100 EXP SWAP1 DIV PUSH20 0xFFFFFFFFFFFFFFFFFFFFFFFFFFFFFFFFFFFFFFFF AND DUP2 JUMP JUMPDEST PUSH1 0x0 DUP1 SWAP1 SLOAD SWAP1 PUSH2 0x100 EXP SWAP1 DIV PUSH20 0xFFFFFFFFFFFFFFFFFFFFFFFFFFFFFFFFFFFFFFFF AND PUSH20 0xFFFFFFFFFFFFFFFFFFFFFFFFFFFFFFFFFFFFFFFF AND CALLER PUSH20 0xFFFFFFFFFFFFFFFFFFFFFFFFFFFFFFFFFFFFFFFF AND EQ PUSH2 0x4C7 JUMPI PUSH1 0x40 MLOAD PUSH32 0x8C379A000000000000000000000000000000000000000000000000000000000 DUP2 MSTORE PUSH1 0x4 ADD DUP1 DUP1 PUSH1 0x20 ADD DUP3 DUP2 SUB DUP3 MSTORE PUSH1 0x35 DUP2 MSTORE PUSH1 0x20 ADD DUP1 PUSH2 0x945 PUSH1 0x35 SWAP2 CODECOPY PUSH1 0x40 ADD SWAP2 POP POP PUSH1 0x40 MLOAD DUP1 SWAP2 SUB SWAP1 REVERT JUMPDEST DUP1 PUSH1 0x2 SLOAD LT ISZERO PUSH2 0x522 JUMPI PUSH1 0x40 MLOAD PUSH32 0x8C379A000000000000000000000000000000000000000000000000000000000 DUP2 MSTORE PUSH1 0x4 ADD DUP1 DUP1 PUSH1 0x20 ADD DUP3 DUP2 SUB DUP3 MSTORE PUSH1 0x27 DUP2 MSTORE PUSH1 0x20 ADD DUP1 PUSH2 0x8EA PUSH1 0x27 SWAP2 CODECOPY PUSH1 0x40 ADD SWAP2 POP POP PUSH1 0x40 MLOAD DUP1 SWAP2 SUB SWAP1 REVERT JUMPDEST PUSH1 0x4 DUP3 SWAP1 DUP1 PUSH1 0x1 DUP2 SLOAD ADD DUP1 DUP3 SSTORE DUP1 SWAP2 POP POP SWAP1 PUSH1 0x1 DUP3 SUB SWAP1 PUSH1 0x0 MSTORE PUSH1 0x20 PUSH1 0x0 KECCAK256 ADD PUSH1 0x0 SWAP1 SWAP2 SWAP3 SWAP1 SWAP2 SWAP1 SWAP2 PUSH2 0x100 EXP DUP2 SLOAD DUP2 PUSH20 0xFFFFFFFFFFFFFFFFFFFFFFFFFFFFFFFFFFFFFFFF MUL NOT AND SWAP1 DUP4 PUSH20 0xFFFFFFFFFFFFFFFFFFFFFFFFFFFFFFFFFFFFFFFF AND MUL OR SWAP1 SSTORE POP POP DUP1 PUSH1 0x2 PUSH1 0x0 DUP3 DUP3 SLOAD SUB SWAP3 POP POP DUP2 SWAP1 SSTORE POP POP POP JUMP JUMPDEST PUSH1 0x0 PUSH1 0x4 DUP1 SLOAD SWAP1 POP SWAP1 POP SWAP1 JUMP JUMPDEST PUSH1 0x0 DUP1 SWAP1 SLOAD SWAP1 PUSH2 0x100 EXP SWAP1 DIV PUSH20 0xFFFFFFFFFFFFFFFFFFFFFFFFFFFFFFFFFFFFFFFF AND PUSH20 0xFFFFFFFFFFFFFFFFFFFFFFFFFFFFFFFFFFFFFFFF AND CALLER PUSH20 0xFFFFFFFFFFFFFFFFFFFFFFFFFFFFFFFFFFFFFFFF AND EQ PUSH2 0x64E JUMPI PUSH1 0x40 MLOAD PUSH32 0x8C379A000000000000000000000000000000000000000000000000000000000 DUP2 MSTORE PUSH1 0x4 ADD DUP1 DUP1 PUSH1 0x20 ADD DUP3 DUP2 SUB DUP3 MSTORE PUSH1 0x35 DUP2 MSTORE PUSH1 0x20 ADD DUP1 PUSH2 0x945 PUSH1 0x35 SWAP2 CODECOPY PUSH1 0x40 ADD SWAP2 POP POP PUSH1 0x40 MLOAD DUP1 SWAP2 SUB SWAP1 REVERT JUMPDEST DUP1 PUSH1 0x2 PUSH1 0x0 DUP3 DUP3 SLOAD ADD SWAP3 POP POP DUP2 SWAP1 SSTORE POP POP JUMP JUMPDEST PUSH1 0x0 PUSH1 0x3 DUP1 SLOAD SWAP1 POP SWAP1 POP SWAP1 JUMP JUMPDEST PUSH1 0x2 SLOAD DUP2 JUMP JUMPDEST PUSH1 0x60 PUSH1 0x0 DUP4 DUP4 SUB SWAP1 POP PUSH1 0x60 DUP5 DUP5 SUB PUSH1 0x40 MLOAD SWAP1 DUP1 DUP3 MSTORE DUP1 PUSH1 0x20 MUL PUSH1 0x20 ADD DUP3 ADD PUSH1 0x40 MSTORE DUP1 ISZERO PUSH2 0x6B0 JUMPI DUP2 PUSH1 0x20 ADD PUSH1 0x20 DUP3 MUL DUP1 CODESIZE DUP4 CODECOPY DUP1 DUP3 ADD SWAP2 POP POP SWAP1 POP JUMPDEST POP SWAP1 POP PUSH1 0x0 DUP1 SWAP1 POP JUMPDEST DUP3 DUP2 LT ISZERO PUSH2 0x74E JUMPI PUSH1 0x4 DUP2 DUP8 ADD DUP2 SLOAD DUP2 LT PUSH2 0x6D0 JUMPI INVALID JUMPDEST SWAP1 PUSH1 0x0 MSTORE PUSH1 0x20 PUSH1 0x0 KECCAK256 ADD PUSH1 0x0 SWAP1 SLOAD SWAP1 PUSH2 0x100 EXP SWAP1 DIV PUSH20 0xFFFFFFFFFFFFFFFFFFFFFFFFFFFFFFFFFFFFFFFF AND DUP3 DUP3 DUP2 MLOAD DUP2 LT PUSH2 0x707 JUMPI INVALID JUMPDEST PUSH1 0x20 MUL PUSH1 0x20 ADD ADD SWAP1 PUSH20 0xFFFFFFFFFFFFFFFFFFFFFFFFFFFFFFFFFFFFFFFF AND SWAP1 DUP2 PUSH20 0xFFFFFFFFFFFFFFFFFFFFFFFFFFFFFFFFFFFFFFFF AND DUP2 MSTORE POP POP DUP1 DUP1 PUSH1 0x1 ADD SWAP2 POP POP PUSH2 0x6B9 JUMP JUMPDEST POP DUP1 SWAP3 POP POP POP SWAP3 SWAP2 POP POP JUMP JUMPDEST PUSH1 0x1 PUSH1 0x0 SWAP1 SLOAD SWAP1 PUSH2 0x100 EXP SWAP1 DIV PUSH20 0xFFFFFFFFFFFFFFFFFFFFFFFFFFFFFFFFFFFFFFFF AND PUSH20 0xFFFFFFFFFFFFFFFFFFFFFFFFFFFFFFFFFFFFFFFF AND DUP2 PUSH20 0xFFFFFFFFFFFFFFFFFFFFFFFFFFFFFFFFFFFFFFFF AND PUSH4 0x2D05D3F PUSH1 0x40 MLOAD DUP2 PUSH4 0xFFFFFFFF AND PUSH1 0xE0 SHL DUP2 MSTORE PUSH1 0x4 ADD PUSH1 0x20 PUSH1 0x40 MLOAD DUP1 DUP4 SUB DUP2 DUP7 DUP1 EXTCODESIZE ISZERO DUP1 ISZERO PUSH2 0x7D9 JUMPI PUSH1 0x0 DUP1 REVERT JUMPDEST POP GAS STATICCALL ISZERO DUP1 ISZERO PUSH2 0x7ED JUMPI RETURNDATASIZE PUSH1 0x0 DUP1 RETURNDATACOPY RETURNDATASIZE PUSH1 0x0 REVERT JUMPDEST POP POP POP POP PUSH1 0x40 MLOAD RETURNDATASIZE PUSH1 0x20 DUP2 LT ISZERO PUSH2 0x803 JUMPI PUSH1 0x0 DUP1 REVERT JUMPDEST DUP2 ADD SWAP1 DUP1 DUP1 MLOAD SWAP1 PUSH1 0x20 ADD SWAP1 SWAP3 SWAP2 SWAP1 POP POP POP PUSH20 0xFFFFFFFFFFFFFFFFFFFFFFFFFFFFFFFFFFFFFFFF AND EQ PUSH2 0x880 JUMPI PUSH1 0x40 MLOAD PUSH32 0x8C379A000000000000000000000000000000000000000000000000000000000 DUP2 MSTORE PUSH1 0x4 ADD DUP1 DUP1 PUSH1 0x20 ADD DUP3 DUP2 SUB DUP3 MSTORE PUSH1 0x34 DUP2 MSTORE PUSH1 0x20 ADD DUP1 PUSH2 0x911 PUSH1 0x34 SWAP2 CODECOPY PUSH1 0x40 ADD SWAP2 POP POP PUSH1 0x40 MLOAD DUP1 SWAP2 SUB SWAP1 REVERT JUMPDEST PUSH1 0x3 DUP2 SWAP1 DUP1 PUSH1 0x1 DUP2 SLOAD ADD DUP1 DUP3 SSTORE DUP1 SWAP2 POP POP SWAP1 PUSH1 0x1 DUP3 SUB SWAP1 PUSH1 0x0 MSTORE PUSH1 0x20 PUSH1 0x0 KECCAK256 ADD PUSH1 0x0 SWAP1 SWAP2 SWAP3 SWAP1 SWAP2 SWAP1 SWAP2 PUSH2 0x100 EXP DUP2 SLOAD DUP2 PUSH20 0xFFFFFFFFFFFFFFFFFFFFFFFFFFFFFFFFFFFFFFFF MUL NOT AND SWAP1 DUP4 PUSH20 0xFFFFFFFFFFFFFFFFFFFFFFFFFFFFFFFFFFFFFFFF AND MUL OR SWAP1 SSTORE POP POP POP JUMP INVALID MSIZE PUSH16 0x7520646F6E2774206861766520656E6F PUSH22 0x67682072657020746F206769766520617761792E4D75 PUSH20 0x74206265207468652063726561746F72206F6620 PUSH21 0x686520546F70696320696E206F7264657220746F20 PUSH2 0x6464 KECCAK256 PUSH10 0x742E4F6E6C7920746865 KECCAK256 PUSH19 0x657075746174696F6E20666163746F72792063 PUSH2 0x6E20 PUSH10 0x6E766F6B652074686973 KECCAK256 PUSH7 0x756E6374696F6E 0x2E LOG2 PUSH6 0x627A7A723158 KECCAK256 0xB4 0xF 0xAA 0xF 0xB6 0xAE CREATE LOG0 0xAB 0xD4 DIV 0xDA SELFDESTRUCT 0xD9 JUMP 0xCA BYTE SWAP16 SWAP9 0x25 0xF6 0xF8 PUSH18 0xB46FEF2B37F5428E0C64736F6C6343000510 STOP ORIGIN "},"gasEstimates":{"creation":{"codeDepositCost":"495600","executionCost":"infinite","totalCost":"infinite"},"external":{"addReputation(uint256)":"infinite","addTopic(address)":"infinite","getNumberOfTopics()":"1043","getNumberOfVotedTopics()":"1088","getTopics(uint256,uint256)":"infinite","getVotedTopics(uint256,uint256)":"infinite","owner()":"1076","rep()":"1049","spendReputation(address,uint256)":"infinite"}},"methodIdentifiers":{"addReputation(uint256)":"b50ac9fc","addTopic(address)":"f18df9e7","getNumberOfTopics()":"c729818b","getNumberOfVotedTopics()":"a450736c","getTopics(uint256,uint256)":"56ea46d9","getVotedTopics(uint256,uint256)":"d7dc8c7b","owner()":"8da5cb5b","rep()":"ccc07959","spendReputation(address,uint256)":"908f9184"}},"storageLayout":{"storage":[{"astId":333,"contract":"Reputation.sol:Reputation","label":"reputationFactoryAddress","offset":0,"slot":"0","type":"t_address"},{"astId":335,"contract":"Reputation.sol:Reputation","label":"owner","offset":0,"slot":"1","type":"t_address"},{"astId":337,"contract":"Reputation.sol:Reputation","label":"rep","offset":0,"slot":"2","type":"t_uint256"},{"astId":340,"contract":"Reputation.sol:Reputation","label":"topics","offset":0,"slot":"3","type":"t_array(t_address)dyn_storage"},{"astId":343,"contract":"Reputation.sol:Reputation","label":"votedTopics","offset":0,"slot":"4","type":"t_array(t_address)dyn_storage"}],"types":{"t_address":{"encoding":"inplace","label":"address","numberOfBytes":"20"},"t_array(t_address)dyn_storage":{"base":"t_address","encoding":"dynamic_array","label":"address[]","numberOfBytes":"32"},"t_uint256":{"encoding":"inplace","label":"uint256","numberOfBytes":"32"}}},"userdoc":{"methods":{}}}