{"abi":[{"inputs":[{"internalType":"address","name":"_reputationFactoryAddress","type":"address"}],"payable":false,"stateMutability":"nonpayable","type":"constructor"},{"anonymous":false,"inputs":[{"indexed":false,"internalType":"address","name":"sender","type":"address"},{"indexed":false,"internalType":"address","name":"topicAddress","type":"address"},{"indexed":false,"internalType":"uint256","name":"minInvestment","type":"uint256"},{"indexed":false,"internalType":"uint256","name":"secondsAvailable","type":"uint256"}],"name":"LogNewTopic","type":"event"},{"anonymous":false,"inputs":[{"indexed":false,"internalType":"address","name":"sender","type":"address"},{"indexed":false,"internalType":"address","name":"topicAddress","type":"address"},{"indexed":false,"internalType":"bytes32","name":"key","type":"bytes32"}],"name":"LogRemoveTopic","type":"event"},{"constant":false,"inputs":[{"internalType":"address","name":"newAdminAddress","type":"address"}],"name":"addAdmin","outputs":[],"payable":false,"stateMutability":"nonpayable","type":"function"},{"constant":true,"inputs":[{"internalType":"address","name":"a","type":"address"}],"name":"addressToBytes32","outputs":[{"internalType":"bytes32","name":"","type":"bytes32"}],"payable":false,"stateMutability":"pure","type":"function"},{"constant":false,"inputs":[{"internalType":"address","name":"topicAddress","type":"address"}],"name":"adminRemoveDeployedTopic","outputs":[],"payable":false,"stateMutability":"nonpayable","type":"function"},{"constant":true,"inputs":[{"internalType":"bytes32","name":"b","type":"bytes32"}],"name":"bytes32ToAddress","outputs":[{"internalType":"address","name":"","type":"address"}],"payable":false,"stateMutability":"pure","type":"function"},{"constant":true,"inputs":[{"internalType":"address","name":"topicAddress","type":"address"}],"name":"checkIfValidTopicAddress","outputs":[{"internalType":"bool","name":"","type":"bool"}],"payable":false,"stateMutability":"view","type":"function"},{"constant":false,"inputs":[{"internalType":"string","name":"topicContent","type":"string"},{"internalType":"uint256","name":"minInvestment","type":"uint256"},{"internalType":"uint256","name":"secondsAvailable","type":"uint256"}],"name":"createTopic","outputs":[],"payable":true,"stateMutability":"payable","type":"function"},{"constant":true,"inputs":[{"internalType":"uint256","name":"startIndex","type":"uint256"},{"internalType":"uint256","name":"endIndex","type":"uint256"}],"name":"getCompletedTopicsBetweenIndices","outputs":[{"internalType":"address[]","name":"","type":"address[]"}],"payable":false,"stateMutability":"view","type":"function"},{"constant":true,"inputs":[{"internalType":"uint256","name":"index","type":"uint256"}],"name":"getDeployedTopic","outputs":[{"internalType":"address","name":"","type":"address"}],"payable":false,"stateMutability":"view","type":"function"},{"constant":true,"inputs":[],"name":"getNumberOfCompletedContracts","outputs":[{"internalType":"uint256","name":"","type":"uint256"}],"payable":false,"stateMutability":"view","type":"function"},{"constant":true,"inputs":[],"name":"getNumberOfDeployedContracts","outputs":[{"internalType":"uint256","name":"","type":"uint256"}],"payable":false,"stateMutability":"view","type":"function"},{"constant":true,"inputs":[{"internalType":"uint256[]","name":"indices","type":"uint256[]"}],"name":"getTopicsAtIndices","outputs":[{"internalType":"address[]","name":"","type":"address[]"}],"payable":false,"stateMutability":"view","type":"function"},{"constant":true,"inputs":[{"internalType":"uint256","name":"startIndex","type":"uint256"},{"internalType":"uint256","name":"endIndex","type":"uint256"}],"name":"getTopicsBetweenIndices","outputs":[{"internalType":"address[]","name":"","type":"address[]"}],"payable":false,"stateMutability":"view","type":"function"},{"constant":false,"inputs":[{"internalType":"address","name":"topicAddress","type":"address"}],"name":"markTopicAsCompleted","outputs":[],"payable":false,"stateMutability":"nonpayable","type":"function"},{"constant":true,"inputs":[],"name":"owner","outputs":[{"internalType":"address","name":"","type":"address"}],"payable":false,"stateMutability":"view","type":"function"},{"constant":false,"inputs":[],"name":"removeAdmin","outputs":[],"payable":false,"stateMutability":"nonpayable","type":"function"},{"constant":false,"inputs":[{"internalType":"address","name":"_topicAssignerAddress","type":"address"}],"name":"updateTopicAssignerAddress","outputs":[],"payable":false,"stateMutability":"nonpayable","type":"function"}],"devdoc":{"methods":{}},"evm":{"assembly":"    /* \"TopicFactory.sol\":157:6450  contract TopicFactory {\r... */\n  mstore(0x40, 0x80)\n    /* \"TopicFactory.sol\":1755:1909  constructor(address _reputationFactoryAddress) public {\r... */\n  callvalue\n    /* \"--CODEGEN--\":8:17   */\n  dup1\n    /* \"--CODEGEN--\":5:7   */\n  iszero\n  tag_1\n  jumpi\n    /* \"--CODEGEN--\":30:31   */\n  0x00\n    /* \"--CODEGEN--\":27:28   */\n  dup1\n    /* \"--CODEGEN--\":20:32   */\n  revert\n    /* \"--CODEGEN--\":5:7   */\ntag_1:\n    /* \"TopicFactory.sol\":1755:1909  constructor(address _reputationFactoryAddress) public {\r... */\n  pop\n  mload(0x40)\n  sub(codesize, bytecodeSize)\n  dup1\n  bytecodeSize\n  dup4\n  codecopy\n  dup2\n  dup2\n  add\n  0x40\n  mstore\n    /* \"--CODEGEN--\":13:15   */\n  0x20\n    /* \"--CODEGEN--\":8:11   */\n  dup2\n    /* \"--CODEGEN--\":5:16   */\n  lt\n    /* \"--CODEGEN--\":2:4   */\n  iszero\n  tag_2\n  jumpi\n    /* \"--CODEGEN--\":29:30   */\n  0x00\n    /* \"--CODEGEN--\":26:27   */\n  dup1\n    /* \"--CODEGEN--\":19:31   */\n  revert\n    /* \"--CODEGEN--\":2:4   */\ntag_2:\n    /* \"TopicFactory.sol\":1755:1909  constructor(address _reputationFactoryAddress) public {\r... */\n  dup2\n  add\n  swap1\n  dup1\n  dup1\n  mload\n  swap1\n  0x20\n  add\n  swap1\n  swap3\n  swap2\n  swap1\n  pop\n  pop\n  pop\n    /* \"TopicFactory.sol\":1847:1872  _reputationFactoryAddress */\n  dup1\n    /* \"TopicFactory.sol\":1820:1844  reputationFactoryAddress */\n  0x08\n  0x00\n    /* \"TopicFactory.sol\":1820:1872  reputationFactoryAddress = _reputationFactoryAddress */\n  0x0100\n  exp\n  dup2\n  sload\n  dup2\n  0xffffffffffffffffffffffffffffffffffffffff\n  mul\n  not\n  and\n  swap1\n  dup4\n  0xffffffffffffffffffffffffffffffffffffffff\n  and\n  mul\n  or\n  swap1\n  sstore\n  pop\n    /* \"TopicFactory.sol\":1891:1901  msg.sender */\n  caller\n    /* \"TopicFactory.sol\":1883:1888  owner */\n  0x07\n  0x00\n    /* \"TopicFactory.sol\":1883:1901  owner = msg.sender */\n  0x0100\n  exp\n  dup2\n  sload\n  dup2\n  0xffffffffffffffffffffffffffffffffffffffff\n  mul\n  not\n  and\n  swap1\n  dup4\n  0xffffffffffffffffffffffffffffffffffffffff\n  and\n  mul\n  or\n  swap1\n  sstore\n  pop\n    /* \"TopicFactory.sol\":1755:1909  constructor(address _reputationFactoryAddress) public {\r... */\n  pop\n    /* \"TopicFactory.sol\":157:6450  contract TopicFactory {\r... */\n  dataSize(sub_0)\n  dup1\n  dataOffset(sub_0)\n  0x00\n  codecopy\n  0x00\n  return\nstop\n\nsub_0: assembly {\n        /* \"TopicFactory.sol\":157:6450  contract TopicFactory {\r... */\n      mstore(0x40, 0x80)\n      jumpi(tag_1, lt(calldatasize, 0x04))\n      shr(0xe0, calldataload(0x00))\n      dup1\n      0x8da5cb5b\n      gt\n      tag_18\n      jumpi\n      dup1\n      0x9d378fe9\n      gt\n      tag_19\n      jumpi\n      dup1\n      0x9d378fe9\n      eq\n      tag_14\n      jumpi\n      dup1\n      0xdc983f08\n      eq\n      tag_15\n      jumpi\n      dup1\n      0xdfb09700\n      eq\n      tag_16\n      jumpi\n      dup1\n      0xe25db2a4\n      eq\n      tag_17\n      jumpi\n      jump(tag_1)\n    tag_19:\n      dup1\n      0x8da5cb5b\n      eq\n      tag_10\n      jumpi\n      dup1\n      0x8fdb9d72\n      eq\n      tag_11\n      jumpi\n      dup1\n      0x9a202d47\n      eq\n      tag_12\n      jumpi\n      dup1\n      0x9c6472c0\n      eq\n      tag_13\n      jumpi\n      jump(tag_1)\n    tag_18:\n      dup1\n      0x5ced058e\n      gt\n      tag_20\n      jumpi\n      dup1\n      0x5ced058e\n      eq\n      tag_6\n      jumpi\n      dup1\n      0x70480275\n      eq\n      tag_7\n      jumpi\n      dup1\n      0x73cd5cce\n      eq\n      tag_8\n      jumpi\n      dup1\n      0x82c947b7\n      eq\n      tag_9\n      jumpi\n      jump(tag_1)\n    tag_20:\n      dup1\n      0x0a5e47bb\n      eq\n      tag_2\n      jumpi\n      dup1\n      0x33cfe2ce\n      eq\n      tag_3\n      jumpi\n      dup1\n      0x405b21f7\n      eq\n      tag_4\n      jumpi\n      dup1\n      0x5159467b\n      eq\n      tag_5\n      jumpi\n    tag_1:\n      0x00\n      dup1\n      revert\n        /* \"TopicFactory.sol\":2081:3421  function createTopic(string memory topicContent, uint minInvestment, uint secondsAvailable) payable public {\r... */\n    tag_2:\n      tag_21\n      0x04\n      dup1\n      calldatasize\n      sub\n        /* \"--CODEGEN--\":13:15   */\n      0x60\n        /* \"--CODEGEN--\":8:11   */\n      dup2\n        /* \"--CODEGEN--\":5:16   */\n      lt\n        /* \"--CODEGEN--\":2:4   */\n      iszero\n      tag_22\n      jumpi\n        /* \"--CODEGEN--\":29:30   */\n      0x00\n        /* \"--CODEGEN--\":26:27   */\n      dup1\n        /* \"--CODEGEN--\":19:31   */\n      revert\n        /* \"--CODEGEN--\":2:4   */\n    tag_22:\n        /* \"TopicFactory.sol\":2081:3421  function createTopic(string memory topicContent, uint minInvestment, uint secondsAvailable) payable public {\r... */\n      dup2\n      add\n      swap1\n      dup1\n      dup1\n      calldataload\n      swap1\n      0x20\n      add\n      swap1\n        /* \"--CODEGEN--\":21:32   */\n      0x0100000000\n        /* \"--CODEGEN--\":8:19   */\n      dup2\n        /* \"--CODEGEN--\":5:33   */\n      gt\n        /* \"--CODEGEN--\":2:4   */\n      iszero\n      tag_23\n      jumpi\n        /* \"--CODEGEN--\":46:47   */\n      0x00\n        /* \"--CODEGEN--\":43:44   */\n      dup1\n        /* \"--CODEGEN--\":36:48   */\n      revert\n        /* \"--CODEGEN--\":2:4   */\n    tag_23:\n        /* \"TopicFactory.sol\":2081:3421  function createTopic(string memory topicContent, uint minInvestment, uint secondsAvailable) payable public {\r... */\n      dup3\n      add\n        /* \"--CODEGEN--\":35:44   */\n      dup4\n        /* \"--CODEGEN--\":28:32   */\n      0x20\n        /* \"--CODEGEN--\":12:26   */\n      dup3\n        /* \"--CODEGEN--\":8:33   */\n      add\n        /* \"--CODEGEN--\":5:45   */\n      gt\n        /* \"--CODEGEN--\":2:4   */\n      iszero\n      tag_24\n      jumpi\n        /* \"--CODEGEN--\":58:59   */\n      0x00\n        /* \"--CODEGEN--\":55:56   */\n      dup1\n        /* \"--CODEGEN--\":48:60   */\n      revert\n        /* \"--CODEGEN--\":2:4   */\n    tag_24:\n        /* \"TopicFactory.sol\":2081:3421  function createTopic(string memory topicContent, uint minInvestment, uint secondsAvailable) payable public {\r... */\n      dup1\n      calldataload\n      swap1\n      0x20\n      add\n      swap2\n        /* \"--CODEGEN--\":100:109   */\n      dup5\n        /* \"--CODEGEN--\":95:96   */\n      0x01\n        /* \"--CODEGEN--\":81:93   */\n      dup4\n        /* \"--CODEGEN--\":77:97   */\n      mul\n        /* \"--CODEGEN--\":67:75   */\n      dup5\n        /* \"--CODEGEN--\":63:98   */\n      add\n        /* \"--CODEGEN--\":60:110   */\n      gt\n        /* \"--CODEGEN--\":39:50   */\n      0x0100000000\n        /* \"--CODEGEN--\":25:37   */\n      dup4\n        /* \"--CODEGEN--\":22:51   */\n      gt\n        /* \"--CODEGEN--\":11:118   */\n      or\n        /* \"--CODEGEN--\":8:10   */\n      iszero\n      tag_25\n      jumpi\n        /* \"--CODEGEN--\":131:132   */\n      0x00\n        /* \"--CODEGEN--\":128:129   */\n      dup1\n        /* \"--CODEGEN--\":121:133   */\n      revert\n        /* \"--CODEGEN--\":8:10   */\n    tag_25:\n        /* \"TopicFactory.sol\":2081:3421  function createTopic(string memory topicContent, uint minInvestment, uint secondsAvailable) payable public {\r... */\n      swap2\n      swap1\n      dup1\n      dup1\n      0x1f\n      add\n      0x20\n      dup1\n      swap2\n      div\n      mul\n      0x20\n      add\n      mload(0x40)\n      swap1\n      dup2\n      add\n      0x40\n      mstore\n      dup1\n      swap4\n      swap3\n      swap2\n      swap1\n      dup2\n      dup2\n      mstore\n      0x20\n      add\n      dup4\n      dup4\n        /* \"--CODEGEN--\":30:33   */\n      dup1\n        /* \"--CODEGEN--\":22:28   */\n      dup3\n        /* \"--CODEGEN--\":14:20   */\n      dup5\n        /* \"--CODEGEN--\":1:34   */\n      calldatacopy\n        /* \"--CODEGEN--\":99:100   */\n      0x00\n        /* \"--CODEGEN--\":93:96   */\n      dup2\n        /* \"--CODEGEN--\":85:91   */\n      dup5\n        /* \"--CODEGEN--\":81:97   */\n      add\n        /* \"--CODEGEN--\":74:101   */\n      mstore\n        /* \"--CODEGEN--\":137:141   */\n      0x1f\n        /* \"--CODEGEN--\":133:142   */\n      not\n        /* \"--CODEGEN--\":126:130   */\n      0x1f\n        /* \"--CODEGEN--\":121:124   */\n      dup3\n        /* \"--CODEGEN--\":117:131   */\n      add\n        /* \"--CODEGEN--\":113:143   */\n      and\n        /* \"--CODEGEN--\":106:143   */\n      swap1\n      pop\n        /* \"--CODEGEN--\":169:172   */\n      dup1\n        /* \"--CODEGEN--\":161:167   */\n      dup4\n        /* \"--CODEGEN--\":157:173   */\n      add\n        /* \"--CODEGEN--\":147:173   */\n      swap3\n      pop\n        /* \"TopicFactory.sol\":2081:3421  function createTopic(string memory topicContent, uint minInvestment, uint secondsAvailable) payable public {\r... */\n      pop\n      pop\n      pop\n      pop\n      pop\n      pop\n      swap2\n      swap3\n      swap2\n      swap3\n      swap1\n      dup1\n      calldataload\n      swap1\n      0x20\n      add\n      swap1\n      swap3\n      swap2\n      swap1\n      dup1\n      calldataload\n      swap1\n      0x20\n      add\n      swap1\n      swap3\n      swap2\n      swap1\n      pop\n      pop\n      pop\n      tag_26\n      jump\t// in\n    tag_21:\n      stop\n        /* \"TopicFactory.sol\":3429:3564  function checkIfValidTopicAddress(address topicAddress) public view returns (bool) {\r... */\n    tag_3:\n      callvalue\n        /* \"--CODEGEN--\":8:17   */\n      dup1\n        /* \"--CODEGEN--\":5:7   */\n      iszero\n      tag_27\n      jumpi\n        /* \"--CODEGEN--\":30:31   */\n      0x00\n        /* \"--CODEGEN--\":27:28   */\n      dup1\n        /* \"--CODEGEN--\":20:32   */\n      revert\n        /* \"--CODEGEN--\":5:7   */\n    tag_27:\n        /* \"TopicFactory.sol\":3429:3564  function checkIfValidTopicAddress(address topicAddress) public view returns (bool) {\r... */\n      pop\n      tag_28\n      0x04\n      dup1\n      calldatasize\n      sub\n        /* \"--CODEGEN--\":13:15   */\n      0x20\n        /* \"--CODEGEN--\":8:11   */\n      dup2\n        /* \"--CODEGEN--\":5:16   */\n      lt\n        /* \"--CODEGEN--\":2:4   */\n      iszero\n      tag_29\n      jumpi\n        /* \"--CODEGEN--\":29:30   */\n      0x00\n        /* \"--CODEGEN--\":26:27   */\n      dup1\n        /* \"--CODEGEN--\":19:31   */\n      revert\n        /* \"--CODEGEN--\":2:4   */\n    tag_29:\n        /* \"TopicFactory.sol\":3429:3564  function checkIfValidTopicAddress(address topicAddress) public view returns (bool) {\r... */\n      dup2\n      add\n      swap1\n      dup1\n      dup1\n      calldataload\n      0xffffffffffffffffffffffffffffffffffffffff\n      and\n      swap1\n      0x20\n      add\n      swap1\n      swap3\n      swap2\n      swap1\n      pop\n      pop\n      pop\n      tag_30\n      jump\t// in\n    tag_28:\n      mload(0x40)\n      dup1\n      dup3\n      iszero\n      iszero\n      iszero\n      iszero\n      dup2\n      mstore\n      0x20\n      add\n      swap2\n      pop\n      pop\n      mload(0x40)\n      dup1\n      swap2\n      sub\n      swap1\n      return\n        /* \"TopicFactory.sol\":4838:4957  function getNumberOfCompletedContracts() public view returns (uint) {\r... */\n    tag_4:\n      callvalue\n        /* \"--CODEGEN--\":8:17   */\n      dup1\n        /* \"--CODEGEN--\":5:7   */\n      iszero\n      tag_31\n      jumpi\n        /* \"--CODEGEN--\":30:31   */\n      0x00\n        /* \"--CODEGEN--\":27:28   */\n      dup1\n        /* \"--CODEGEN--\":20:32   */\n      revert\n        /* \"--CODEGEN--\":5:7   */\n    tag_31:\n        /* \"TopicFactory.sol\":4838:4957  function getNumberOfCompletedContracts() public view returns (uint) {\r... */\n      pop\n      tag_32\n      tag_33\n      jump\t// in\n    tag_32:\n      mload(0x40)\n      dup1\n      dup3\n      dup2\n      mstore\n      0x20\n      add\n      swap2\n      pop\n      pop\n      mload(0x40)\n      dup1\n      swap2\n      sub\n      swap1\n      return\n        /* \"TopicFactory.sol\":3943:4069  function adminRemoveDeployedTopic(address topicAddress) public _adminOnly {\r... */\n    tag_5:\n      callvalue\n        /* \"--CODEGEN--\":8:17   */\n      dup1\n        /* \"--CODEGEN--\":5:7   */\n      iszero\n      tag_34\n      jumpi\n        /* \"--CODEGEN--\":30:31   */\n      0x00\n        /* \"--CODEGEN--\":27:28   */\n      dup1\n        /* \"--CODEGEN--\":20:32   */\n      revert\n        /* \"--CODEGEN--\":5:7   */\n    tag_34:\n        /* \"TopicFactory.sol\":3943:4069  function adminRemoveDeployedTopic(address topicAddress) public _adminOnly {\r... */\n      pop\n      tag_35\n      0x04\n      dup1\n      calldatasize\n      sub\n        /* \"--CODEGEN--\":13:15   */\n      0x20\n        /* \"--CODEGEN--\":8:11   */\n      dup2\n        /* \"--CODEGEN--\":5:16   */\n      lt\n        /* \"--CODEGEN--\":2:4   */\n      iszero\n      tag_36\n      jumpi\n        /* \"--CODEGEN--\":29:30   */\n      0x00\n        /* \"--CODEGEN--\":26:27   */\n      dup1\n        /* \"--CODEGEN--\":19:31   */\n      revert\n        /* \"--CODEGEN--\":2:4   */\n    tag_36:\n        /* \"TopicFactory.sol\":3943:4069  function adminRemoveDeployedTopic(address topicAddress) public _adminOnly {\r... */\n      dup2\n      add\n      swap1\n      dup1\n      dup1\n      calldataload\n      0xffffffffffffffffffffffffffffffffffffffff\n      and\n      swap1\n      0x20\n      add\n      swap1\n      swap3\n      swap2\n      swap1\n      pop\n      pop\n      pop\n      tag_37\n      jump\t// in\n    tag_35:\n      stop\n        /* \"TopicFactory.sol\":1628:1743  function bytes32ToAddress(bytes32 b) public pure returns(address) {\r... */\n    tag_6:\n      callvalue\n        /* \"--CODEGEN--\":8:17   */\n      dup1\n        /* \"--CODEGEN--\":5:7   */\n      iszero\n      tag_38\n      jumpi\n        /* \"--CODEGEN--\":30:31   */\n      0x00\n        /* \"--CODEGEN--\":27:28   */\n      dup1\n        /* \"--CODEGEN--\":20:32   */\n      revert\n        /* \"--CODEGEN--\":5:7   */\n    tag_38:\n        /* \"TopicFactory.sol\":1628:1743  function bytes32ToAddress(bytes32 b) public pure returns(address) {\r... */\n      pop\n      tag_39\n      0x04\n      dup1\n      calldatasize\n      sub\n        /* \"--CODEGEN--\":13:15   */\n      0x20\n        /* \"--CODEGEN--\":8:11   */\n      dup2\n        /* \"--CODEGEN--\":5:16   */\n      lt\n        /* \"--CODEGEN--\":2:4   */\n      iszero\n      tag_40\n      jumpi\n        /* \"--CODEGEN--\":29:30   */\n      0x00\n        /* \"--CODEGEN--\":26:27   */\n      dup1\n        /* \"--CODEGEN--\":19:31   */\n      revert\n        /* \"--CODEGEN--\":2:4   */\n    tag_40:\n        /* \"TopicFactory.sol\":1628:1743  function bytes32ToAddress(bytes32 b) public pure returns(address) {\r... */\n      dup2\n      add\n      swap1\n      dup1\n      dup1\n      calldataload\n      swap1\n      0x20\n      add\n      swap1\n      swap3\n      swap2\n      swap1\n      pop\n      pop\n      pop\n      tag_41\n      jump\t// in\n    tag_39:\n      mload(0x40)\n      dup1\n      dup3\n      0xffffffffffffffffffffffffffffffffffffffff\n      and\n      0xffffffffffffffffffffffffffffffffffffffff\n      and\n      dup2\n      mstore\n      0x20\n      add\n      swap2\n      pop\n      pop\n      mload(0x40)\n      dup1\n      swap2\n      sub\n      swap1\n      return\n        /* \"TopicFactory.sol\":1196:1307  function addAdmin(address newAdminAddress) public _adminOnly {\r... */\n    tag_7:\n      callvalue\n        /* \"--CODEGEN--\":8:17   */\n      dup1\n        /* \"--CODEGEN--\":5:7   */\n      iszero\n      tag_42\n      jumpi\n        /* \"--CODEGEN--\":30:31   */\n      0x00\n        /* \"--CODEGEN--\":27:28   */\n      dup1\n        /* \"--CODEGEN--\":20:32   */\n      revert\n        /* \"--CODEGEN--\":5:7   */\n    tag_42:\n        /* \"TopicFactory.sol\":1196:1307  function addAdmin(address newAdminAddress) public _adminOnly {\r... */\n      pop\n      tag_43\n      0x04\n      dup1\n      calldatasize\n      sub\n        /* \"--CODEGEN--\":13:15   */\n      0x20\n        /* \"--CODEGEN--\":8:11   */\n      dup2\n        /* \"--CODEGEN--\":5:16   */\n      lt\n        /* \"--CODEGEN--\":2:4   */\n      iszero\n      tag_44\n      jumpi\n        /* \"--CODEGEN--\":29:30   */\n      0x00\n        /* \"--CODEGEN--\":26:27   */\n      dup1\n        /* \"--CODEGEN--\":19:31   */\n      revert\n        /* \"--CODEGEN--\":2:4   */\n    tag_44:\n        /* \"TopicFactory.sol\":1196:1307  function addAdmin(address newAdminAddress) public _adminOnly {\r... */\n      dup2\n      add\n      swap1\n      dup1\n      dup1\n      calldataload\n      0xffffffffffffffffffffffffffffffffffffffff\n      and\n      swap1\n      0x20\n      add\n      swap1\n      swap3\n      swap2\n      swap1\n      pop\n      pop\n      pop\n      tag_45\n      jump\t// in\n    tag_43:\n      stop\n        /* \"TopicFactory.sol\":5772:6221  function getCompletedTopicsBetweenIndices(uint startIndex, uint endIndex) public view returns (address[] memory) {\r... */\n    tag_8:\n      callvalue\n        /* \"--CODEGEN--\":8:17   */\n      dup1\n        /* \"--CODEGEN--\":5:7   */\n      iszero\n      tag_46\n      jumpi\n        /* \"--CODEGEN--\":30:31   */\n      0x00\n        /* \"--CODEGEN--\":27:28   */\n      dup1\n        /* \"--CODEGEN--\":20:32   */\n      revert\n        /* \"--CODEGEN--\":5:7   */\n    tag_46:\n        /* \"TopicFactory.sol\":5772:6221  function getCompletedTopicsBetweenIndices(uint startIndex, uint endIndex) public view returns (address[] memory) {\r... */\n      pop\n      tag_47\n      0x04\n      dup1\n      calldatasize\n      sub\n        /* \"--CODEGEN--\":13:15   */\n      0x40\n        /* \"--CODEGEN--\":8:11   */\n      dup2\n        /* \"--CODEGEN--\":5:16   */\n      lt\n        /* \"--CODEGEN--\":2:4   */\n      iszero\n      tag_48\n      jumpi\n        /* \"--CODEGEN--\":29:30   */\n      0x00\n        /* \"--CODEGEN--\":26:27   */\n      dup1\n        /* \"--CODEGEN--\":19:31   */\n      revert\n        /* \"--CODEGEN--\":2:4   */\n    tag_48:\n        /* \"TopicFactory.sol\":5772:6221  function getCompletedTopicsBetweenIndices(uint startIndex, uint endIndex) public view returns (address[] memory) {\r... */\n      dup2\n      add\n      swap1\n      dup1\n      dup1\n      calldataload\n      swap1\n      0x20\n      add\n      swap1\n      swap3\n      swap2\n      swap1\n      dup1\n      calldataload\n      swap1\n      0x20\n      add\n      swap1\n      swap3\n      swap2\n      swap1\n      pop\n      pop\n      pop\n      tag_49\n      jump\t// in\n    tag_47:\n      mload(0x40)\n      dup1\n      dup1\n      0x20\n      add\n      dup3\n      dup2\n      sub\n      dup3\n      mstore\n      dup4\n      dup2\n      dup2\n      mload\n      dup2\n      mstore\n      0x20\n      add\n      swap2\n      pop\n      dup1\n      mload\n      swap1\n      0x20\n      add\n      swap1\n      0x20\n      mul\n      dup1\n      dup4\n      dup4\n        /* \"--CODEGEN--\":23:24   */\n      0x00\n        /* \"--CODEGEN--\":8:108   */\n    tag_50:\n        /* \"--CODEGEN--\":33:36   */\n      dup4\n        /* \"--CODEGEN--\":30:31   */\n      dup2\n        /* \"--CODEGEN--\":27:37   */\n      lt\n        /* \"--CODEGEN--\":8:108   */\n      iszero\n      tag_52\n      jumpi\n        /* \"--CODEGEN--\":99:100   */\n      dup1\n        /* \"--CODEGEN--\":94:97   */\n      dup3\n        /* \"--CODEGEN--\":90:101   */\n      add\n        /* \"--CODEGEN--\":84:102   */\n      mload\n        /* \"--CODEGEN--\":80:81   */\n      dup2\n        /* \"--CODEGEN--\":75:78   */\n      dup5\n        /* \"--CODEGEN--\":71:82   */\n      add\n        /* \"--CODEGEN--\":64:103   */\n      mstore\n        /* \"--CODEGEN--\":52:54   */\n      0x20\n        /* \"--CODEGEN--\":49:50   */\n      dup2\n        /* \"--CODEGEN--\":45:55   */\n      add\n        /* \"--CODEGEN--\":40:55   */\n      swap1\n      pop\n        /* \"--CODEGEN--\":8:108   */\n      jump(tag_50)\n    tag_52:\n        /* \"--CODEGEN--\":12:26   */\n      pop\n        /* \"TopicFactory.sol\":5772:6221  function getCompletedTopicsBetweenIndices(uint startIndex, uint endIndex) public view returns (address[] memory) {\r... */\n      pop\n      pop\n      pop\n      swap1\n      pop\n      add\n      swap3\n      pop\n      pop\n      pop\n      mload(0x40)\n      dup1\n      swap2\n      sub\n      swap1\n      return\n        /* \"TopicFactory.sol\":1501:1616  function addressToBytes32(address a) public pure returns(bytes32) {\r... */\n    tag_9:\n      callvalue\n        /* \"--CODEGEN--\":8:17   */\n      dup1\n        /* \"--CODEGEN--\":5:7   */\n      iszero\n      tag_53\n      jumpi\n        /* \"--CODEGEN--\":30:31   */\n      0x00\n        /* \"--CODEGEN--\":27:28   */\n      dup1\n        /* \"--CODEGEN--\":20:32   */\n      revert\n        /* \"--CODEGEN--\":5:7   */\n    tag_53:\n        /* \"TopicFactory.sol\":1501:1616  function addressToBytes32(address a) public pure returns(bytes32) {\r... */\n      pop\n      tag_54\n      0x04\n      dup1\n      calldatasize\n      sub\n        /* \"--CODEGEN--\":13:15   */\n      0x20\n        /* \"--CODEGEN--\":8:11   */\n      dup2\n        /* \"--CODEGEN--\":5:16   */\n      lt\n        /* \"--CODEGEN--\":2:4   */\n      iszero\n      tag_55\n      jumpi\n        /* \"--CODEGEN--\":29:30   */\n      0x00\n        /* \"--CODEGEN--\":26:27   */\n      dup1\n        /* \"--CODEGEN--\":19:31   */\n      revert\n        /* \"--CODEGEN--\":2:4   */\n    tag_55:\n        /* \"TopicFactory.sol\":1501:1616  function addressToBytes32(address a) public pure returns(bytes32) {\r... */\n      dup2\n      add\n      swap1\n      dup1\n      dup1\n      calldataload\n      0xffffffffffffffffffffffffffffffffffffffff\n      and\n      swap1\n      0x20\n      add\n      swap1\n      swap3\n      swap2\n      swap1\n      pop\n      pop\n      pop\n      tag_56\n      jump\t// in\n    tag_54:\n      mload(0x40)\n      dup1\n      dup3\n      dup2\n      mstore\n      0x20\n      add\n      swap2\n      pop\n      pop\n      mload(0x40)\n      dup1\n      swap2\n      sub\n      swap1\n      return\n        /* \"TopicFactory.sol\":522:542  address public owner */\n    tag_10:\n      callvalue\n        /* \"--CODEGEN--\":8:17   */\n      dup1\n        /* \"--CODEGEN--\":5:7   */\n      iszero\n      tag_57\n      jumpi\n        /* \"--CODEGEN--\":30:31   */\n      0x00\n        /* \"--CODEGEN--\":27:28   */\n      dup1\n        /* \"--CODEGEN--\":20:32   */\n      revert\n        /* \"--CODEGEN--\":5:7   */\n    tag_57:\n        /* \"TopicFactory.sol\":522:542  address public owner */\n      pop\n      tag_58\n      tag_59\n      jump\t// in\n    tag_58:\n      mload(0x40)\n      dup1\n      dup3\n      0xffffffffffffffffffffffffffffffffffffffff\n      and\n      0xffffffffffffffffffffffffffffffffffffffff\n      and\n      dup2\n      mstore\n      0x20\n      add\n      swap2\n      pop\n      pop\n      mload(0x40)\n      dup1\n      swap2\n      sub\n      swap1\n      return\n        /* \"TopicFactory.sol\":4412:4703  function getDeployedTopic(uint index) public view returns(address) {\r... */\n    tag_11:\n      callvalue\n        /* \"--CODEGEN--\":8:17   */\n      dup1\n        /* \"--CODEGEN--\":5:7   */\n      iszero\n      tag_60\n      jumpi\n        /* \"--CODEGEN--\":30:31   */\n      0x00\n        /* \"--CODEGEN--\":27:28   */\n      dup1\n        /* \"--CODEGEN--\":20:32   */\n      revert\n        /* \"--CODEGEN--\":5:7   */\n    tag_60:\n        /* \"TopicFactory.sol\":4412:4703  function getDeployedTopic(uint index) public view returns(address) {\r... */\n      pop\n      tag_61\n      0x04\n      dup1\n      calldatasize\n      sub\n        /* \"--CODEGEN--\":13:15   */\n      0x20\n        /* \"--CODEGEN--\":8:11   */\n      dup2\n        /* \"--CODEGEN--\":5:16   */\n      lt\n        /* \"--CODEGEN--\":2:4   */\n      iszero\n      tag_62\n      jumpi\n        /* \"--CODEGEN--\":29:30   */\n      0x00\n        /* \"--CODEGEN--\":26:27   */\n      dup1\n        /* \"--CODEGEN--\":19:31   */\n      revert\n        /* \"--CODEGEN--\":2:4   */\n    tag_62:\n        /* \"TopicFactory.sol\":4412:4703  function getDeployedTopic(uint index) public view returns(address) {\r... */\n      dup2\n      add\n      swap1\n      dup1\n      dup1\n      calldataload\n      swap1\n      0x20\n      add\n      swap1\n      swap3\n      swap2\n      swap1\n      pop\n      pop\n      pop\n      tag_63\n      jump\t// in\n    tag_61:\n      mload(0x40)\n      dup1\n      dup3\n      0xffffffffffffffffffffffffffffffffffffffff\n      and\n      0xffffffffffffffffffffffffffffffffffffffff\n      and\n      dup2\n      mstore\n      0x20\n      add\n      swap2\n      pop\n      pop\n      mload(0x40)\n      dup1\n      swap2\n      sub\n      swap1\n      return\n        /* \"TopicFactory.sol\":1315:1391  function removeAdmin() public {\r... */\n    tag_12:\n      callvalue\n        /* \"--CODEGEN--\":8:17   */\n      dup1\n        /* \"--CODEGEN--\":5:7   */\n      iszero\n      tag_64\n      jumpi\n        /* \"--CODEGEN--\":30:31   */\n      0x00\n        /* \"--CODEGEN--\":27:28   */\n      dup1\n        /* \"--CODEGEN--\":20:32   */\n      revert\n        /* \"--CODEGEN--\":5:7   */\n    tag_64:\n        /* \"TopicFactory.sol\":1315:1391  function removeAdmin() public {\r... */\n      pop\n      tag_65\n      tag_66\n      jump\t// in\n    tag_65:\n      stop\n        /* \"TopicFactory.sol\":1921:2069  function updateTopicAssignerAddress(address _topicAssignerAddress) public _ownerOnly {\r... */\n    tag_13:\n      callvalue\n        /* \"--CODEGEN--\":8:17   */\n      dup1\n        /* \"--CODEGEN--\":5:7   */\n      iszero\n      tag_67\n      jumpi\n        /* \"--CODEGEN--\":30:31   */\n      0x00\n        /* \"--CODEGEN--\":27:28   */\n      dup1\n        /* \"--CODEGEN--\":20:32   */\n      revert\n        /* \"--CODEGEN--\":5:7   */\n    tag_67:\n        /* \"TopicFactory.sol\":1921:2069  function updateTopicAssignerAddress(address _topicAssignerAddress) public _ownerOnly {\r... */\n      pop\n      tag_68\n      0x04\n      dup1\n      calldatasize\n      sub\n        /* \"--CODEGEN--\":13:15   */\n      0x20\n        /* \"--CODEGEN--\":8:11   */\n      dup2\n        /* \"--CODEGEN--\":5:16   */\n      lt\n        /* \"--CODEGEN--\":2:4   */\n      iszero\n      tag_69\n      jumpi\n        /* \"--CODEGEN--\":29:30   */\n      0x00\n        /* \"--CODEGEN--\":26:27   */\n      dup1\n        /* \"--CODEGEN--\":19:31   */\n      revert\n        /* \"--CODEGEN--\":2:4   */\n    tag_69:\n        /* \"TopicFactory.sol\":1921:2069  function updateTopicAssignerAddress(address _topicAssignerAddress) public _ownerOnly {\r... */\n      dup2\n      add\n      swap1\n      dup1\n      dup1\n      calldataload\n      0xffffffffffffffffffffffffffffffffffffffff\n      and\n      swap1\n      0x20\n      add\n      swap1\n      swap3\n      swap2\n      swap1\n      pop\n      pop\n      pop\n      tag_70\n      jump\t// in\n    tag_68:\n      stop\n        /* \"TopicFactory.sol\":5329:5760  function getTopicsBetweenIndices(uint startIndex, uint endIndex) public view returns (address[] memory) {\r... */\n    tag_14:\n      callvalue\n        /* \"--CODEGEN--\":8:17   */\n      dup1\n        /* \"--CODEGEN--\":5:7   */\n      iszero\n      tag_71\n      jumpi\n        /* \"--CODEGEN--\":30:31   */\n      0x00\n        /* \"--CODEGEN--\":27:28   */\n      dup1\n        /* \"--CODEGEN--\":20:32   */\n      revert\n        /* \"--CODEGEN--\":5:7   */\n    tag_71:\n        /* \"TopicFactory.sol\":5329:5760  function getTopicsBetweenIndices(uint startIndex, uint endIndex) public view returns (address[] memory) {\r... */\n      pop\n      tag_72\n      0x04\n      dup1\n      calldatasize\n      sub\n        /* \"--CODEGEN--\":13:15   */\n      0x40\n        /* \"--CODEGEN--\":8:11   */\n      dup2\n        /* \"--CODEGEN--\":5:16   */\n      lt\n        /* \"--CODEGEN--\":2:4   */\n      iszero\n      tag_73\n      jumpi\n        /* \"--CODEGEN--\":29:30   */\n      0x00\n        /* \"--CODEGEN--\":26:27   */\n      dup1\n        /* \"--CODEGEN--\":19:31   */\n      revert\n        /* \"--CODEGEN--\":2:4   */\n    tag_73:\n        /* \"TopicFactory.sol\":5329:5760  function getTopicsBetweenIndices(uint startIndex, uint endIndex) public view returns (address[] memory) {\r... */\n      dup2\n      add\n      swap1\n      dup1\n      dup1\n      calldataload\n      swap1\n      0x20\n      add\n      swap1\n      swap3\n      swap2\n      swap1\n      dup1\n      calldataload\n      swap1\n      0x20\n      add\n      swap1\n      swap3\n      swap2\n      swap1\n      pop\n      pop\n      pop\n      tag_74\n      jump\t// in\n    tag_72:\n      mload(0x40)\n      dup1\n      dup1\n      0x20\n      add\n      dup3\n      dup2\n      sub\n      dup3\n      mstore\n      dup4\n      dup2\n      dup2\n      mload\n      dup2\n      mstore\n      0x20\n      add\n      swap2\n      pop\n      dup1\n      mload\n      swap1\n      0x20\n      add\n      swap1\n      0x20\n      mul\n      dup1\n      dup4\n      dup4\n        /* \"--CODEGEN--\":23:24   */\n      0x00\n        /* \"--CODEGEN--\":8:108   */\n    tag_75:\n        /* \"--CODEGEN--\":33:36   */\n      dup4\n        /* \"--CODEGEN--\":30:31   */\n      dup2\n        /* \"--CODEGEN--\":27:37   */\n      lt\n        /* \"--CODEGEN--\":8:108   */\n      iszero\n      tag_77\n      jumpi\n        /* \"--CODEGEN--\":99:100   */\n      dup1\n        /* \"--CODEGEN--\":94:97   */\n      dup3\n        /* \"--CODEGEN--\":90:101   */\n      add\n        /* \"--CODEGEN--\":84:102   */\n      mload\n        /* \"--CODEGEN--\":80:81   */\n      dup2\n        /* \"--CODEGEN--\":75:78   */\n      dup5\n        /* \"--CODEGEN--\":71:82   */\n      add\n        /* \"--CODEGEN--\":64:103   */\n      mstore\n        /* \"--CODEGEN--\":52:54   */\n      0x20\n        /* \"--CODEGEN--\":49:50   */\n      dup2\n        /* \"--CODEGEN--\":45:55   */\n      add\n        /* \"--CODEGEN--\":40:55   */\n      swap1\n      pop\n        /* \"--CODEGEN--\":8:108   */\n      jump(tag_75)\n    tag_77:\n        /* \"--CODEGEN--\":12:26   */\n      pop\n        /* \"TopicFactory.sol\":5329:5760  function getTopicsBetweenIndices(uint startIndex, uint endIndex) public view returns (address[] memory) {\r... */\n      pop\n      pop\n      pop\n      swap1\n      pop\n      add\n      swap3\n      pop\n      pop\n      pop\n      mload(0x40)\n      dup1\n      swap2\n      sub\n      swap1\n      return\n        /* \"TopicFactory.sol\":6234:6447  function getTopicsAtIndices(uint[] memory indices) public view returns (address[] memory) {\r... */\n    tag_15:\n      callvalue\n        /* \"--CODEGEN--\":8:17   */\n      dup1\n        /* \"--CODEGEN--\":5:7   */\n      iszero\n      tag_78\n      jumpi\n        /* \"--CODEGEN--\":30:31   */\n      0x00\n        /* \"--CODEGEN--\":27:28   */\n      dup1\n        /* \"--CODEGEN--\":20:32   */\n      revert\n        /* \"--CODEGEN--\":5:7   */\n    tag_78:\n        /* \"TopicFactory.sol\":6234:6447  function getTopicsAtIndices(uint[] memory indices) public view returns (address[] memory) {\r... */\n      pop\n      tag_79\n      0x04\n      dup1\n      calldatasize\n      sub\n        /* \"--CODEGEN--\":13:15   */\n      0x20\n        /* \"--CODEGEN--\":8:11   */\n      dup2\n        /* \"--CODEGEN--\":5:16   */\n      lt\n        /* \"--CODEGEN--\":2:4   */\n      iszero\n      tag_80\n      jumpi\n        /* \"--CODEGEN--\":29:30   */\n      0x00\n        /* \"--CODEGEN--\":26:27   */\n      dup1\n        /* \"--CODEGEN--\":19:31   */\n      revert\n        /* \"--CODEGEN--\":2:4   */\n    tag_80:\n        /* \"TopicFactory.sol\":6234:6447  function getTopicsAtIndices(uint[] memory indices) public view returns (address[] memory) {\r... */\n      dup2\n      add\n      swap1\n      dup1\n      dup1\n      calldataload\n      swap1\n      0x20\n      add\n      swap1\n        /* \"--CODEGEN--\":21:32   */\n      0x0100000000\n        /* \"--CODEGEN--\":8:19   */\n      dup2\n        /* \"--CODEGEN--\":5:33   */\n      gt\n        /* \"--CODEGEN--\":2:4   */\n      iszero\n      tag_81\n      jumpi\n        /* \"--CODEGEN--\":46:47   */\n      0x00\n        /* \"--CODEGEN--\":43:44   */\n      dup1\n        /* \"--CODEGEN--\":36:48   */\n      revert\n        /* \"--CODEGEN--\":2:4   */\n    tag_81:\n        /* \"TopicFactory.sol\":6234:6447  function getTopicsAtIndices(uint[] memory indices) public view returns (address[] memory) {\r... */\n      dup3\n      add\n        /* \"--CODEGEN--\":35:44   */\n      dup4\n        /* \"--CODEGEN--\":28:32   */\n      0x20\n        /* \"--CODEGEN--\":12:26   */\n      dup3\n        /* \"--CODEGEN--\":8:33   */\n      add\n        /* \"--CODEGEN--\":5:45   */\n      gt\n        /* \"--CODEGEN--\":2:4   */\n      iszero\n      tag_82\n      jumpi\n        /* \"--CODEGEN--\":58:59   */\n      0x00\n        /* \"--CODEGEN--\":55:56   */\n      dup1\n        /* \"--CODEGEN--\":48:60   */\n      revert\n        /* \"--CODEGEN--\":2:4   */\n    tag_82:\n        /* \"TopicFactory.sol\":6234:6447  function getTopicsAtIndices(uint[] memory indices) public view returns (address[] memory) {\r... */\n      dup1\n      calldataload\n      swap1\n      0x20\n      add\n      swap2\n        /* \"--CODEGEN--\":101:110   */\n      dup5\n        /* \"--CODEGEN--\":95:97   */\n      0x20\n        /* \"--CODEGEN--\":81:93   */\n      dup4\n        /* \"--CODEGEN--\":77:98   */\n      mul\n        /* \"--CODEGEN--\":67:75   */\n      dup5\n        /* \"--CODEGEN--\":63:99   */\n      add\n        /* \"--CODEGEN--\":60:111   */\n      gt\n        /* \"--CODEGEN--\":39:50   */\n      0x0100000000\n        /* \"--CODEGEN--\":25:37   */\n      dup4\n        /* \"--CODEGEN--\":22:51   */\n      gt\n        /* \"--CODEGEN--\":11:119   */\n      or\n        /* \"--CODEGEN--\":8:10   */\n      iszero\n      tag_83\n      jumpi\n        /* \"--CODEGEN--\":132:133   */\n      0x00\n        /* \"--CODEGEN--\":129:130   */\n      dup1\n        /* \"--CODEGEN--\":122:134   */\n      revert\n        /* \"--CODEGEN--\":8:10   */\n    tag_83:\n        /* \"TopicFactory.sol\":6234:6447  function getTopicsAtIndices(uint[] memory indices) public view returns (address[] memory) {\r... */\n      swap2\n      swap1\n      dup1\n      dup1\n      0x20\n      mul\n      0x20\n      add\n      mload(0x40)\n      swap1\n      dup2\n      add\n      0x40\n      mstore\n      dup1\n      swap4\n      swap3\n      swap2\n      swap1\n      dup2\n      dup2\n      mstore\n      0x20\n      add\n      dup4\n      dup4\n      0x20\n      mul\n        /* \"--CODEGEN--\":30:33   */\n      dup1\n        /* \"--CODEGEN--\":22:28   */\n      dup3\n        /* \"--CODEGEN--\":14:20   */\n      dup5\n        /* \"--CODEGEN--\":1:34   */\n      calldatacopy\n        /* \"--CODEGEN--\":99:100   */\n      0x00\n        /* \"--CODEGEN--\":93:96   */\n      dup2\n        /* \"--CODEGEN--\":85:91   */\n      dup5\n        /* \"--CODEGEN--\":81:97   */\n      add\n        /* \"--CODEGEN--\":74:101   */\n      mstore\n        /* \"--CODEGEN--\":137:141   */\n      0x1f\n        /* \"--CODEGEN--\":133:142   */\n      not\n        /* \"--CODEGEN--\":126:130   */\n      0x1f\n        /* \"--CODEGEN--\":121:124   */\n      dup3\n        /* \"--CODEGEN--\":117:131   */\n      add\n        /* \"--CODEGEN--\":113:143   */\n      and\n        /* \"--CODEGEN--\":106:143   */\n      swap1\n      pop\n        /* \"--CODEGEN--\":169:172   */\n      dup1\n        /* \"--CODEGEN--\":161:167   */\n      dup4\n        /* \"--CODEGEN--\":157:173   */\n      add\n        /* \"--CODEGEN--\":147:173   */\n      swap3\n      pop\n        /* \"TopicFactory.sol\":6234:6447  function getTopicsAtIndices(uint[] memory indices) public view returns (address[] memory) {\r... */\n      pop\n      pop\n      pop\n      pop\n      pop\n      pop\n      swap2\n      swap3\n      swap2\n      swap3\n      swap1\n      pop\n      pop\n      pop\n      tag_84\n      jump\t// in\n    tag_79:\n      mload(0x40)\n      dup1\n      dup1\n      0x20\n      add\n      dup3\n      dup2\n      sub\n      dup3\n      mstore\n      dup4\n      dup2\n      dup2\n      mload\n      dup2\n      mstore\n      0x20\n      add\n      swap2\n      pop\n      dup1\n      mload\n      swap1\n      0x20\n      add\n      swap1\n      0x20\n      mul\n      dup1\n      dup4\n      dup4\n        /* \"--CODEGEN--\":23:24   */\n      0x00\n        /* \"--CODEGEN--\":8:108   */\n    tag_85:\n        /* \"--CODEGEN--\":33:36   */\n      dup4\n        /* \"--CODEGEN--\":30:31   */\n      dup2\n        /* \"--CODEGEN--\":27:37   */\n      lt\n        /* \"--CODEGEN--\":8:108   */\n      iszero\n      tag_87\n      jumpi\n        /* \"--CODEGEN--\":99:100   */\n      dup1\n        /* \"--CODEGEN--\":94:97   */\n      dup3\n        /* \"--CODEGEN--\":90:101   */\n      add\n        /* \"--CODEGEN--\":84:102   */\n      mload\n        /* \"--CODEGEN--\":80:81   */\n      dup2\n        /* \"--CODEGEN--\":75:78   */\n      dup5\n        /* \"--CODEGEN--\":71:82   */\n      add\n        /* \"--CODEGEN--\":64:103   */\n      mstore\n        /* \"--CODEGEN--\":52:54   */\n      0x20\n        /* \"--CODEGEN--\":49:50   */\n      dup2\n        /* \"--CODEGEN--\":45:55   */\n      add\n        /* \"--CODEGEN--\":40:55   */\n      swap1\n      pop\n        /* \"--CODEGEN--\":8:108   */\n      jump(tag_85)\n    tag_87:\n        /* \"--CODEGEN--\":12:26   */\n      pop\n        /* \"TopicFactory.sol\":6234:6447  function getTopicsAtIndices(uint[] memory indices) public view returns (address[] memory) {\r... */\n      pop\n      pop\n      pop\n      swap1\n      pop\n      add\n      swap3\n      pop\n      pop\n      pop\n      mload(0x40)\n      dup1\n      swap2\n      sub\n      swap1\n      return\n        /* \"TopicFactory.sol\":4717:4826  function getNumberOfDeployedContracts() public view returns (uint) {\r... */\n    tag_16:\n      callvalue\n        /* \"--CODEGEN--\":8:17   */\n      dup1\n        /* \"--CODEGEN--\":5:7   */\n      iszero\n      tag_88\n      jumpi\n        /* \"--CODEGEN--\":30:31   */\n      0x00\n        /* \"--CODEGEN--\":27:28   */\n      dup1\n        /* \"--CODEGEN--\":20:32   */\n      revert\n        /* \"--CODEGEN--\":5:7   */\n    tag_88:\n        /* \"TopicFactory.sol\":4717:4826  function getNumberOfDeployedContracts() public view returns (uint) {\r... */\n      pop\n      tag_89\n      tag_90\n      jump\t// in\n    tag_89:\n      mload(0x40)\n      dup1\n      dup3\n      dup2\n      mstore\n      0x20\n      add\n      swap2\n      pop\n      pop\n      mload(0x40)\n      dup1\n      swap2\n      sub\n      swap1\n      return\n        /* \"TopicFactory.sol\":3576:3935  function markTopicAsCompleted(address topicAddress) public {\r... */\n    tag_17:\n      callvalue\n        /* \"--CODEGEN--\":8:17   */\n      dup1\n        /* \"--CODEGEN--\":5:7   */\n      iszero\n      tag_91\n      jumpi\n        /* \"--CODEGEN--\":30:31   */\n      0x00\n        /* \"--CODEGEN--\":27:28   */\n      dup1\n        /* \"--CODEGEN--\":20:32   */\n      revert\n        /* \"--CODEGEN--\":5:7   */\n    tag_91:\n        /* \"TopicFactory.sol\":3576:3935  function markTopicAsCompleted(address topicAddress) public {\r... */\n      pop\n      tag_92\n      0x04\n      dup1\n      calldatasize\n      sub\n        /* \"--CODEGEN--\":13:15   */\n      0x20\n        /* \"--CODEGEN--\":8:11   */\n      dup2\n        /* \"--CODEGEN--\":5:16   */\n      lt\n        /* \"--CODEGEN--\":2:4   */\n      iszero\n      tag_93\n      jumpi\n        /* \"--CODEGEN--\":29:30   */\n      0x00\n        /* \"--CODEGEN--\":26:27   */\n      dup1\n        /* \"--CODEGEN--\":19:31   */\n      revert\n        /* \"--CODEGEN--\":2:4   */\n    tag_93:\n        /* \"TopicFactory.sol\":3576:3935  function markTopicAsCompleted(address topicAddress) public {\r... */\n      dup2\n      add\n      swap1\n      dup1\n      dup1\n      calldataload\n      0xffffffffffffffffffffffffffffffffffffffff\n      and\n      swap1\n      0x20\n      add\n      swap1\n      swap3\n      swap2\n      swap1\n      pop\n      pop\n      pop\n      tag_94\n      jump\t// in\n    tag_92:\n      stop\n        /* \"TopicFactory.sol\":2081:3421  function createTopic(string memory topicContent, uint minInvestment, uint secondsAvailable) payable public {\r... */\n    tag_26:\n        /* \"TopicFactory.sol\":2239:2240  0 */\n      0x00\n        /* \"TopicFactory.sol\":2207:2241  topicAssignerAddress != address(0) */\n      0xffffffffffffffffffffffffffffffffffffffff\n      and\n        /* \"TopicFactory.sol\":2207:2227  topicAssignerAddress */\n      0x09\n      0x00\n      swap1\n      sload\n      swap1\n      0x0100\n      exp\n      swap1\n      div\n      0xffffffffffffffffffffffffffffffffffffffff\n      and\n        /* \"TopicFactory.sol\":2207:2241  topicAssignerAddress != address(0) */\n      0xffffffffffffffffffffffffffffffffffffffff\n      and\n      eq\n      iszero\n        /* \"TopicFactory.sol\":2199:2340  require(topicAssignerAddress != address(0), \"A Topic Assigner contract address must be assigned before being able to create any new topics.\") */\n      tag_96\n      jumpi\n      mload(0x40)\n      0x08c379a000000000000000000000000000000000000000000000000000000000\n      dup2\n      mstore\n      0x04\n      add\n      dup1\n      dup1\n      0x20\n      add\n      dup3\n      dup2\n      sub\n      dup3\n      mstore\n      0x5e\n      dup2\n      mstore\n      0x20\n      add\n      dup1\n      data_3addc1733ef1a0e4379892d889443257fa7c6127308b38f696d35dc85a617f37\n      0x5e\n      swap2\n      codecopy\n      0x60\n      add\n      swap2\n      pop\n      pop\n      mload(0x40)\n      dup1\n      swap2\n      sub\n      swap1\n      revert\n    tag_96:\n        /* \"TopicFactory.sol\":2351:2365  Topic newTopic */\n      0x00\n        /* \"TopicFactory.sol\":2386:2390  this */\n      address\n        /* \"TopicFactory.sol\":2393:2417  reputationFactoryAddress */\n      0x08\n      0x00\n      swap1\n      sload\n      swap1\n      0x0100\n      exp\n      swap1\n      div\n      0xffffffffffffffffffffffffffffffffffffffff\n      and\n        /* \"TopicFactory.sol\":2419:2439  topicAssignerAddress */\n      0x09\n      0x00\n      swap1\n      sload\n      swap1\n      0x0100\n      exp\n      swap1\n      div\n      0xffffffffffffffffffffffffffffffffffffffff\n      and\n        /* \"TopicFactory.sol\":2441:2453  topicContent */\n      dup7\n        /* \"TopicFactory.sol\":2455:2468  minInvestment */\n      dup7\n        /* \"TopicFactory.sol\":2470:2486  secondsAvailable */\n      dup7\n        /* \"TopicFactory.sol\":2488:2498  msg.sender */\n      caller\n        /* \"TopicFactory.sol\":2368:2499  new Topic(address(this), reputationFactoryAddress, topicAssignerAddress, topicContent, minInvestment, secondsAvailable, msg.sender) */\n      mload(0x40)\n      tag_97\n      swap1\n      tag_98\n      jump\t// in\n    tag_97:\n      dup1\n      dup9\n      0xffffffffffffffffffffffffffffffffffffffff\n      and\n      0xffffffffffffffffffffffffffffffffffffffff\n      and\n      dup2\n      mstore\n      0x20\n      add\n      dup8\n      0xffffffffffffffffffffffffffffffffffffffff\n      and\n      0xffffffffffffffffffffffffffffffffffffffff\n      and\n      dup2\n      mstore\n      0x20\n      add\n      dup7\n      0xffffffffffffffffffffffffffffffffffffffff\n      and\n      0xffffffffffffffffffffffffffffffffffffffff\n      and\n      dup2\n      mstore\n      0x20\n      add\n      dup1\n      0x20\n      add\n      dup6\n      dup2\n      mstore\n      0x20\n      add\n      dup5\n      dup2\n      mstore\n      0x20\n      add\n      dup4\n      0xffffffffffffffffffffffffffffffffffffffff\n      and\n      0xffffffffffffffffffffffffffffffffffffffff\n      and\n      dup2\n      mstore\n      0x20\n      add\n      dup3\n      dup2\n      sub\n      dup3\n      mstore\n      dup7\n      dup2\n      dup2\n      mload\n      dup2\n      mstore\n      0x20\n      add\n      swap2\n      pop\n      dup1\n      mload\n      swap1\n      0x20\n      add\n      swap1\n      dup1\n      dup4\n      dup4\n        /* \"--CODEGEN--\":23:24   */\n      0x00\n        /* \"--CODEGEN--\":8:108   */\n    tag_99:\n        /* \"--CODEGEN--\":33:36   */\n      dup4\n        /* \"--CODEGEN--\":30:31   */\n      dup2\n        /* \"--CODEGEN--\":27:37   */\n      lt\n        /* \"--CODEGEN--\":8:108   */\n      iszero\n      tag_101\n      jumpi\n        /* \"--CODEGEN--\":99:100   */\n      dup1\n        /* \"--CODEGEN--\":94:97   */\n      dup3\n        /* \"--CODEGEN--\":90:101   */\n      add\n        /* \"--CODEGEN--\":84:102   */\n      mload\n        /* \"--CODEGEN--\":80:81   */\n      dup2\n        /* \"--CODEGEN--\":75:78   */\n      dup5\n        /* \"--CODEGEN--\":71:82   */\n      add\n        /* \"--CODEGEN--\":64:103   */\n      mstore\n        /* \"--CODEGEN--\":52:54   */\n      0x20\n        /* \"--CODEGEN--\":49:50   */\n      dup2\n        /* \"--CODEGEN--\":45:55   */\n      add\n        /* \"--CODEGEN--\":40:55   */\n      swap1\n      pop\n        /* \"--CODEGEN--\":8:108   */\n      jump(tag_99)\n    tag_101:\n        /* \"--CODEGEN--\":12:26   */\n      pop\n        /* \"TopicFactory.sol\":2368:2499  new Topic(address(this), reputationFactoryAddress, topicAssignerAddress, topicContent, minInvestment, secondsAvailable, msg.sender) */\n      pop\n      pop\n      pop\n      swap1\n      pop\n      swap1\n      dup2\n      add\n      swap1\n      0x1f\n      and\n      dup1\n      iszero\n      tag_102\n      jumpi\n      dup1\n      dup3\n      sub\n      dup1\n      mload\n      0x01\n      dup4\n      0x20\n      sub\n      0x0100\n      exp\n      sub\n      not\n      and\n      dup2\n      mstore\n      0x20\n      add\n      swap2\n      pop\n    tag_102:\n      pop\n      swap9\n      pop\n      pop\n      pop\n      pop\n      pop\n      pop\n      pop\n      pop\n      pop\n      mload(0x40)\n      dup1\n      swap2\n      sub\n      swap1\n      0x00\n      create\n      dup1\n      iszero\n        /* \"--CODEGEN--\":8:17   */\n      dup1\n        /* \"--CODEGEN--\":5:7   */\n      iszero\n      tag_103\n      jumpi\n        /* \"--CODEGEN--\":45:61   */\n      returndatasize\n        /* \"--CODEGEN--\":42:43   */\n      0x00\n        /* \"--CODEGEN--\":39:40   */\n      dup1\n        /* \"--CODEGEN--\":24:62   */\n      returndatacopy\n        /* \"--CODEGEN--\":77:93   */\n      returndatasize\n        /* \"--CODEGEN--\":74:75   */\n      0x00\n        /* \"--CODEGEN--\":67:94   */\n      revert\n        /* \"--CODEGEN--\":5:7   */\n    tag_103:\n        /* \"TopicFactory.sol\":2368:2499  new Topic(address(this), reputationFactoryAddress, topicAssignerAddress, topicContent, minInvestment, secondsAvailable, msg.sender) */\n      pop\n        /* \"TopicFactory.sol\":2351:2499  Topic newTopic = new Topic(address(this), reputationFactoryAddress, topicAssignerAddress, topicContent, minInvestment, secondsAvailable, msg.sender) */\n      swap1\n      pop\n        /* \"TopicFactory.sol\":2510:2541  address payable newTopicAddress */\n      0x00\n        /* \"TopicFactory.sol\":2568:2576  newTopic */\n      dup2\n        /* \"TopicFactory.sol\":2510:2579  address payable newTopicAddress = address(uint160(address(newTopic))) */\n      swap1\n      pop\n        /* \"TopicFactory.sol\":2590:2605  newTopicAddress */\n      dup1\n        /* \"TopicFactory.sol\":2590:2614  newTopicAddress.transfer */\n      0xffffffffffffffffffffffffffffffffffffffff\n      and\n        /* \"TopicFactory.sol\":2590:2637  newTopicAddress.transfer(address(this).balance) */\n      0x08fc\n        /* \"TopicFactory.sol\":2615:2636  address(this).balance */\n      selfbalance\n        /* \"TopicFactory.sol\":2590:2637  newTopicAddress.transfer(address(this).balance) */\n      swap1\n      dup2\n      iszero\n      mul\n      swap1\n      mload(0x40)\n      0x00\n      mload(0x40)\n      dup1\n      dup4\n      sub\n      dup2\n      dup6\n      dup9\n      dup9\n      call\n      swap4\n      pop\n      pop\n      pop\n      pop\n      iszero\n        /* \"--CODEGEN--\":8:17   */\n      dup1\n        /* \"--CODEGEN--\":5:7   */\n      iszero\n      tag_104\n      jumpi\n        /* \"--CODEGEN--\":45:61   */\n      returndatasize\n        /* \"--CODEGEN--\":42:43   */\n      0x00\n        /* \"--CODEGEN--\":39:40   */\n      dup1\n        /* \"--CODEGEN--\":24:62   */\n      returndatacopy\n        /* \"--CODEGEN--\":77:93   */\n      returndatasize\n        /* \"--CODEGEN--\":74:75   */\n      0x00\n        /* \"--CODEGEN--\":67:94   */\n      revert\n        /* \"--CODEGEN--\":5:7   */\n    tag_104:\n        /* \"TopicFactory.sol\":2590:2637  newTopicAddress.transfer(address(this).balance) */\n      pop\n        /* \"TopicFactory.sol\":2658:2669  bytes32 key */\n      0x00\n        /* \"TopicFactory.sol\":2672:2707  addressToBytes32(address(newTopic)) */\n      tag_105\n        /* \"TopicFactory.sol\":2697:2705  newTopic */\n      dup4\n        /* \"TopicFactory.sol\":2672:2688  addressToBytes32 */\n      tag_56\n        /* \"TopicFactory.sol\":2672:2707  addressToBytes32(address(newTopic)) */\n      jump\t// in\n    tag_105:\n        /* \"TopicFactory.sol\":2658:2707  bytes32 key = addressToBytes32(address(newTopic)) */\n      swap1\n      pop\n        /* \"TopicFactory.sol\":2718:2738  topicSet.insert(key) */\n      tag_106\n        /* \"TopicFactory.sol\":2734:2737  key */\n      dup2\n        /* \"TopicFactory.sol\":2718:2726  topicSet */\n      0x00\n        /* \"TopicFactory.sol\":2718:2733  topicSet.insert */\n      tag_107\n      swap1\n        /* \"TopicFactory.sol\":2718:2738  topicSet.insert(key) */\n      swap2\n      swap1\n      0xffffffff\n      and\n      jump\t// in\n    tag_106:\n        /* \"TopicFactory.sol\":2779:2787  newTopic */\n      dup3\n        /* \"TopicFactory.sol\":2749:2763  deployedTopics */\n      0x04\n        /* \"TopicFactory.sol\":2749:2768  deployedTopics[key] */\n      0x00\n        /* \"TopicFactory.sol\":2764:2767  key */\n      dup4\n        /* \"TopicFactory.sol\":2749:2768  deployedTopics[key] */\n      dup2\n      mstore\n      0x20\n      add\n      swap1\n      dup2\n      mstore\n      0x20\n      add\n      0x00\n      keccak256\n      0x00\n        /* \"TopicFactory.sol\":2749:2788  deployedTopics[key] = address(newTopic) */\n      0x0100\n      exp\n      dup2\n      sload\n      dup2\n      0xffffffffffffffffffffffffffffffffffffffff\n      mul\n      not\n      and\n      swap1\n      dup4\n      0xffffffffffffffffffffffffffffffffffffffff\n      and\n      mul\n      or\n      swap1\n      sstore\n      pop\n        /* \"TopicFactory.sol\":3026:3061  ReputationFactory reputationFactory */\n      0x00\n        /* \"TopicFactory.sol\":3082:3106  reputationFactoryAddress */\n      0x08\n      0x00\n      swap1\n      sload\n      swap1\n      0x0100\n      exp\n      swap1\n      div\n      0xffffffffffffffffffffffffffffffffffffffff\n      and\n        /* \"TopicFactory.sol\":3026:3107  ReputationFactory reputationFactory = ReputationFactory(reputationFactoryAddress) */\n      swap1\n      pop\n        /* \"TopicFactory.sol\":3118:3143  address reputationAddress */\n      0x00\n        /* \"TopicFactory.sol\":3146:3163  reputationFactory */\n      dup2\n        /* \"TopicFactory.sol\":3146:3183  reputationFactory.deployedReputations */\n      0xffffffffffffffffffffffffffffffffffffffff\n      and\n      0x9f96dab0\n        /* \"TopicFactory.sol\":3184:3194  msg.sender */\n      caller\n        /* \"TopicFactory.sol\":3146:3195  reputationFactory.deployedReputations(msg.sender) */\n      mload(0x40)\n      dup3\n      0xffffffff\n      and\n      0xe0\n      shl\n      dup2\n      mstore\n      0x04\n      add\n      dup1\n      dup3\n      0xffffffffffffffffffffffffffffffffffffffff\n      and\n      0xffffffffffffffffffffffffffffffffffffffff\n      and\n      dup2\n      mstore\n      0x20\n      add\n      swap2\n      pop\n      pop\n      0x20\n      mload(0x40)\n      dup1\n      dup4\n      sub\n      dup2\n      dup7\n      dup1\n      extcodesize\n      iszero\n        /* \"--CODEGEN--\":8:17   */\n      dup1\n        /* \"--CODEGEN--\":5:7   */\n      iszero\n      tag_108\n      jumpi\n        /* \"--CODEGEN--\":30:31   */\n      0x00\n        /* \"--CODEGEN--\":27:28   */\n      dup1\n        /* \"--CODEGEN--\":20:32   */\n      revert\n        /* \"--CODEGEN--\":5:7   */\n    tag_108:\n        /* \"TopicFactory.sol\":3146:3195  reputationFactory.deployedReputations(msg.sender) */\n      pop\n      gas\n      staticcall\n      iszero\n        /* \"--CODEGEN--\":8:17   */\n      dup1\n        /* \"--CODEGEN--\":5:7   */\n      iszero\n      tag_109\n      jumpi\n        /* \"--CODEGEN--\":45:61   */\n      returndatasize\n        /* \"--CODEGEN--\":42:43   */\n      0x00\n        /* \"--CODEGEN--\":39:40   */\n      dup1\n        /* \"--CODEGEN--\":24:62   */\n      returndatacopy\n        /* \"--CODEGEN--\":77:93   */\n      returndatasize\n        /* \"--CODEGEN--\":74:75   */\n      0x00\n        /* \"--CODEGEN--\":67:94   */\n      revert\n        /* \"--CODEGEN--\":5:7   */\n    tag_109:\n        /* \"TopicFactory.sol\":3146:3195  reputationFactory.deployedReputations(msg.sender) */\n      pop\n      pop\n      pop\n      pop\n      mload(0x40)\n      returndatasize\n        /* \"--CODEGEN--\":13:15   */\n      0x20\n        /* \"--CODEGEN--\":8:11   */\n      dup2\n        /* \"--CODEGEN--\":5:16   */\n      lt\n        /* \"--CODEGEN--\":2:4   */\n      iszero\n      tag_110\n      jumpi\n        /* \"--CODEGEN--\":29:30   */\n      0x00\n        /* \"--CODEGEN--\":26:27   */\n      dup1\n        /* \"--CODEGEN--\":19:31   */\n      revert\n        /* \"--CODEGEN--\":2:4   */\n    tag_110:\n        /* \"TopicFactory.sol\":3146:3195  reputationFactory.deployedReputations(msg.sender) */\n      dup2\n      add\n      swap1\n      dup1\n      dup1\n      mload\n      swap1\n      0x20\n      add\n      swap1\n      swap3\n      swap2\n      swap1\n      pop\n      pop\n      pop\n        /* \"TopicFactory.sol\":3118:3195  address reputationAddress = reputationFactory.deployedReputations(msg.sender) */\n      swap1\n      pop\n        /* \"TopicFactory.sol\":3217:3234  reputationAddress */\n      dup1\n        /* \"TopicFactory.sol\":3206:3244  Reputation(reputationAddress).addTopic */\n      0xffffffffffffffffffffffffffffffffffffffff\n      and\n      0xf18df9e7\n        /* \"TopicFactory.sol\":3245:3260  newTopicAddress */\n      dup6\n        /* \"TopicFactory.sol\":3206:3261  Reputation(reputationAddress).addTopic(newTopicAddress) */\n      mload(0x40)\n      dup3\n      0xffffffff\n      and\n      0xe0\n      shl\n      dup2\n      mstore\n      0x04\n      add\n      dup1\n      dup3\n      0xffffffffffffffffffffffffffffffffffffffff\n      and\n      0xffffffffffffffffffffffffffffffffffffffff\n      and\n      dup2\n      mstore\n      0x20\n      add\n      swap2\n      pop\n      pop\n      0x00\n      mload(0x40)\n      dup1\n      dup4\n      sub\n      dup2\n      0x00\n      dup8\n      dup1\n      extcodesize\n      iszero\n        /* \"--CODEGEN--\":8:17   */\n      dup1\n        /* \"--CODEGEN--\":5:7   */\n      iszero\n      tag_111\n      jumpi\n        /* \"--CODEGEN--\":30:31   */\n      0x00\n        /* \"--CODEGEN--\":27:28   */\n      dup1\n        /* \"--CODEGEN--\":20:32   */\n      revert\n        /* \"--CODEGEN--\":5:7   */\n    tag_111:\n        /* \"TopicFactory.sol\":3206:3261  Reputation(reputationAddress).addTopic(newTopicAddress) */\n      pop\n      gas\n      call\n      iszero\n        /* \"--CODEGEN--\":8:17   */\n      dup1\n        /* \"--CODEGEN--\":5:7   */\n      iszero\n      tag_112\n      jumpi\n        /* \"--CODEGEN--\":45:61   */\n      returndatasize\n        /* \"--CODEGEN--\":42:43   */\n      0x00\n        /* \"--CODEGEN--\":39:40   */\n      dup1\n        /* \"--CODEGEN--\":24:62   */\n      returndatacopy\n        /* \"--CODEGEN--\":77:93   */\n      returndatasize\n        /* \"--CODEGEN--\":74:75   */\n      0x00\n        /* \"--CODEGEN--\":67:94   */\n      revert\n        /* \"--CODEGEN--\":5:7   */\n    tag_112:\n        /* \"TopicFactory.sol\":3206:3261  Reputation(reputationAddress).addTopic(newTopicAddress) */\n      pop\n      pop\n      pop\n      pop\n        /* \"TopicFactory.sol\":3316:3320  true */\n      0x01\n        /* \"TopicFactory.sol\":3282:3294  isValidTopic */\n      0x06\n        /* \"TopicFactory.sol\":3282:3313  isValidTopic[address(newTopic)] */\n      0x00\n        /* \"TopicFactory.sol\":3303:3311  newTopic */\n      dup8\n        /* \"TopicFactory.sol\":3282:3313  isValidTopic[address(newTopic)] */\n      0xffffffffffffffffffffffffffffffffffffffff\n      and\n      0xffffffffffffffffffffffffffffffffffffffff\n      and\n      dup2\n      mstore\n      0x20\n      add\n      swap1\n      dup2\n      mstore\n      0x20\n      add\n      0x00\n      keccak256\n      0x00\n        /* \"TopicFactory.sol\":3282:3320  isValidTopic[address(newTopic)] = true */\n      0x0100\n      exp\n      dup2\n      sload\n      dup2\n      0xff\n      mul\n      not\n      and\n      swap1\n      dup4\n      iszero\n      iszero\n      mul\n      or\n      swap1\n      sstore\n      pop\n        /* \"TopicFactory.sol\":3338:3413  LogNewTopic(msg.sender, address(newTopic), minInvestment, secondsAvailable) */\n      0x3de526a908f518e7ea42b44d581b69406f6a241dcfa2890d7830e3272ad039d7\n        /* \"TopicFactory.sol\":3350:3360  msg.sender */\n      caller\n        /* \"TopicFactory.sol\":3370:3378  newTopic */\n      dup7\n        /* \"TopicFactory.sol\":3381:3394  minInvestment */\n      dup10\n        /* \"TopicFactory.sol\":3396:3412  secondsAvailable */\n      dup10\n        /* \"TopicFactory.sol\":3338:3413  LogNewTopic(msg.sender, address(newTopic), minInvestment, secondsAvailable) */\n      mload(0x40)\n      dup1\n      dup6\n      0xffffffffffffffffffffffffffffffffffffffff\n      and\n      0xffffffffffffffffffffffffffffffffffffffff\n      and\n      dup2\n      mstore\n      0x20\n      add\n      dup5\n      0xffffffffffffffffffffffffffffffffffffffff\n      and\n      0xffffffffffffffffffffffffffffffffffffffff\n      and\n      dup2\n      mstore\n      0x20\n      add\n      dup4\n      dup2\n      mstore\n      0x20\n      add\n      dup3\n      dup2\n      mstore\n      0x20\n      add\n      swap5\n      pop\n      pop\n      pop\n      pop\n      pop\n      mload(0x40)\n      dup1\n      swap2\n      sub\n      swap1\n      log1\n        /* \"TopicFactory.sol\":2081:3421  function createTopic(string memory topicContent, uint minInvestment, uint secondsAvailable) payable public {\r... */\n      pop\n      pop\n      pop\n      pop\n      pop\n      pop\n      pop\n      pop\n      jump\t// out\n        /* \"TopicFactory.sol\":3429:3564  function checkIfValidTopicAddress(address topicAddress) public view returns (bool) {\r... */\n    tag_30:\n        /* \"TopicFactory.sol\":3506:3510  bool */\n      0x00\n        /* \"TopicFactory.sol\":3530:3542  isValidTopic */\n      0x06\n        /* \"TopicFactory.sol\":3530:3556  isValidTopic[topicAddress] */\n      0x00\n        /* \"TopicFactory.sol\":3543:3555  topicAddress */\n      dup4\n        /* \"TopicFactory.sol\":3530:3556  isValidTopic[topicAddress] */\n      0xffffffffffffffffffffffffffffffffffffffff\n      and\n      0xffffffffffffffffffffffffffffffffffffffff\n      and\n      dup2\n      mstore\n      0x20\n      add\n      swap1\n      dup2\n      mstore\n      0x20\n      add\n      0x00\n      keccak256\n      0x00\n      swap1\n      sload\n      swap1\n      0x0100\n      exp\n      swap1\n      div\n      0xff\n      and\n        /* \"TopicFactory.sol\":3523:3556  return isValidTopic[topicAddress] */\n      swap1\n      pop\n        /* \"TopicFactory.sol\":3429:3564  function checkIfValidTopicAddress(address topicAddress) public view returns (bool) {\r... */\n      swap2\n      swap1\n      pop\n      jump\t// out\n        /* \"TopicFactory.sol\":4838:4957  function getNumberOfCompletedContracts() public view returns (uint) {\r... */\n    tag_33:\n        /* \"TopicFactory.sol\":4900:4904  uint */\n      0x00\n        /* \"TopicFactory.sol\":4924:4949  completedTopicSet.count() */\n      tag_115\n        /* \"TopicFactory.sol\":4924:4941  completedTopicSet */\n      0x02\n        /* \"TopicFactory.sol\":4924:4947  completedTopicSet.count */\n      tag_116\n        /* \"TopicFactory.sol\":4924:4949  completedTopicSet.count() */\n      jump\t// in\n    tag_115:\n        /* \"TopicFactory.sol\":4917:4949  return completedTopicSet.count() */\n      swap1\n      pop\n        /* \"TopicFactory.sol\":4838:4957  function getNumberOfCompletedContracts() public view returns (uint) {\r... */\n      swap1\n      jump\t// out\n        /* \"TopicFactory.sol\":3943:4069  function adminRemoveDeployedTopic(address topicAddress) public _adminOnly {\r... */\n    tag_37:\n        /* \"TopicFactory.sol\":1080:1087  isAdmin */\n      0x0a\n        /* \"TopicFactory.sol\":1080:1099  isAdmin[msg.sender] */\n      0x00\n        /* \"TopicFactory.sol\":1088:1098  msg.sender */\n      caller\n        /* \"TopicFactory.sol\":1080:1099  isAdmin[msg.sender] */\n      0xffffffffffffffffffffffffffffffffffffffff\n      and\n      0xffffffffffffffffffffffffffffffffffffffff\n      and\n      dup2\n      mstore\n      0x20\n      add\n      swap1\n      dup2\n      mstore\n      0x20\n      add\n      0x00\n      keccak256\n      0x00\n      swap1\n      sload\n      swap1\n      0x0100\n      exp\n      swap1\n      div\n      0xff\n      and\n        /* \"TopicFactory.sol\":1080:1122  isAdmin[msg.sender] || msg.sender == owner */\n      dup1\n      tag_118\n      jumpi\n      pop\n        /* \"TopicFactory.sol\":1117:1122  owner */\n      0x07\n      0x00\n      swap1\n      sload\n      swap1\n      0x0100\n      exp\n      swap1\n      div\n      0xffffffffffffffffffffffffffffffffffffffff\n      and\n        /* \"TopicFactory.sol\":1103:1122  msg.sender == owner */\n      0xffffffffffffffffffffffffffffffffffffffff\n      and\n        /* \"TopicFactory.sol\":1103:1113  msg.sender */\n      caller\n        /* \"TopicFactory.sol\":1103:1122  msg.sender == owner */\n      0xffffffffffffffffffffffffffffffffffffffff\n      and\n      eq\n        /* \"TopicFactory.sol\":1080:1122  isAdmin[msg.sender] || msg.sender == owner */\n    tag_118:\n        /* \"TopicFactory.sol\":1072:1168  require(isAdmin[msg.sender] || msg.sender == owner, 'You must be an admin in order to do this.') */\n      tag_119\n      jumpi\n      mload(0x40)\n      0x08c379a000000000000000000000000000000000000000000000000000000000\n      dup2\n      mstore\n      0x04\n      add\n      dup1\n      dup1\n      0x20\n      add\n      dup3\n      dup2\n      sub\n      dup3\n      mstore\n      0x29\n      dup2\n      mstore\n      0x20\n      add\n      dup1\n      data_97ed1b1ec3ae07cffbdd6ba7bff5a0c6f0326b64889699cc9bc6826284d70392\n      0x29\n      swap2\n      codecopy\n      0x40\n      add\n      swap2\n      pop\n      pop\n      mload(0x40)\n      dup1\n      swap2\n      sub\n      swap1\n      revert\n    tag_119:\n        /* \"TopicFactory.sol\":4028:4061  removeDeployedTopic(topicAddress) */\n      tag_121\n        /* \"TopicFactory.sol\":4048:4060  topicAddress */\n      dup2\n        /* \"TopicFactory.sol\":4028:4047  removeDeployedTopic */\n      tag_122\n        /* \"TopicFactory.sol\":4028:4061  removeDeployedTopic(topicAddress) */\n      jump\t// in\n    tag_121:\n        /* \"TopicFactory.sol\":3943:4069  function adminRemoveDeployedTopic(address topicAddress) public _adminOnly {\r... */\n      pop\n      jump\t// out\n        /* \"TopicFactory.sol\":1628:1743  function bytes32ToAddress(bytes32 b) public pure returns(address) {\r... */\n    tag_41:\n        /* \"TopicFactory.sol\":1685:1692  address */\n      0x00\n        /* \"TopicFactory.sol\":1731:1732  b */\n      dup2\n        /* \"TopicFactory.sol\":1726:1733  uint(b) */\n      0x00\n      shr\n        /* \"TopicFactory.sol\":1703:1735  return address(uint160(uint(b))) */\n      swap1\n      pop\n        /* \"TopicFactory.sol\":1628:1743  function bytes32ToAddress(bytes32 b) public pure returns(address) {\r... */\n      swap2\n      swap1\n      pop\n      jump\t// out\n        /* \"TopicFactory.sol\":1196:1307  function addAdmin(address newAdminAddress) public _adminOnly {\r... */\n    tag_45:\n        /* \"TopicFactory.sol\":1080:1087  isAdmin */\n      0x0a\n        /* \"TopicFactory.sol\":1080:1099  isAdmin[msg.sender] */\n      0x00\n        /* \"TopicFactory.sol\":1088:1098  msg.sender */\n      caller\n        /* \"TopicFactory.sol\":1080:1099  isAdmin[msg.sender] */\n      0xffffffffffffffffffffffffffffffffffffffff\n      and\n      0xffffffffffffffffffffffffffffffffffffffff\n      and\n      dup2\n      mstore\n      0x20\n      add\n      swap1\n      dup2\n      mstore\n      0x20\n      add\n      0x00\n      keccak256\n      0x00\n      swap1\n      sload\n      swap1\n      0x0100\n      exp\n      swap1\n      div\n      0xff\n      and\n        /* \"TopicFactory.sol\":1080:1122  isAdmin[msg.sender] || msg.sender == owner */\n      dup1\n      tag_125\n      jumpi\n      pop\n        /* \"TopicFactory.sol\":1117:1122  owner */\n      0x07\n      0x00\n      swap1\n      sload\n      swap1\n      0x0100\n      exp\n      swap1\n      div\n      0xffffffffffffffffffffffffffffffffffffffff\n      and\n        /* \"TopicFactory.sol\":1103:1122  msg.sender == owner */\n      0xffffffffffffffffffffffffffffffffffffffff\n      and\n        /* \"TopicFactory.sol\":1103:1113  msg.sender */\n      caller\n        /* \"TopicFactory.sol\":1103:1122  msg.sender == owner */\n      0xffffffffffffffffffffffffffffffffffffffff\n      and\n      eq\n        /* \"TopicFactory.sol\":1080:1122  isAdmin[msg.sender] || msg.sender == owner */\n    tag_125:\n        /* \"TopicFactory.sol\":1072:1168  require(isAdmin[msg.sender] || msg.sender == owner, 'You must be an admin in order to do this.') */\n      tag_126\n      jumpi\n      mload(0x40)\n      0x08c379a000000000000000000000000000000000000000000000000000000000\n      dup2\n      mstore\n      0x04\n      add\n      dup1\n      dup1\n      0x20\n      add\n      dup3\n      dup2\n      sub\n      dup3\n      mstore\n      0x29\n      dup2\n      mstore\n      0x20\n      add\n      dup1\n      data_97ed1b1ec3ae07cffbdd6ba7bff5a0c6f0326b64889699cc9bc6826284d70392\n      0x29\n      swap2\n      codecopy\n      0x40\n      add\n      swap2\n      pop\n      pop\n      mload(0x40)\n      dup1\n      swap2\n      sub\n      swap1\n      revert\n    tag_126:\n        /* \"TopicFactory.sol\":1295:1299  true */\n      0x01\n        /* \"TopicFactory.sol\":1268:1275  isAdmin */\n      0x0a\n        /* \"TopicFactory.sol\":1268:1292  isAdmin[newAdminAddress] */\n      0x00\n        /* \"TopicFactory.sol\":1276:1291  newAdminAddress */\n      dup4\n        /* \"TopicFactory.sol\":1268:1292  isAdmin[newAdminAddress] */\n      0xffffffffffffffffffffffffffffffffffffffff\n      and\n      0xffffffffffffffffffffffffffffffffffffffff\n      and\n      dup2\n      mstore\n      0x20\n      add\n      swap1\n      dup2\n      mstore\n      0x20\n      add\n      0x00\n      keccak256\n      0x00\n        /* \"TopicFactory.sol\":1268:1299  isAdmin[newAdminAddress] = true */\n      0x0100\n      exp\n      dup2\n      sload\n      dup2\n      0xff\n      mul\n      not\n      and\n      swap1\n      dup4\n      iszero\n      iszero\n      mul\n      or\n      swap1\n      sstore\n      pop\n        /* \"TopicFactory.sol\":1196:1307  function addAdmin(address newAdminAddress) public _adminOnly {\r... */\n      pop\n      jump\t// out\n        /* \"TopicFactory.sol\":5772:6221  function getCompletedTopicsBetweenIndices(uint startIndex, uint endIndex) public view returns (address[] memory) {\r... */\n    tag_49:\n        /* \"TopicFactory.sol\":5867:5883  address[] memory */\n      0x60\n        /* \"TopicFactory.sol\":5896:5905  uint diff */\n      0x00\n        /* \"TopicFactory.sol\":5919:5929  startIndex */\n      dup4\n        /* \"TopicFactory.sol\":5908:5916  endIndex */\n      dup4\n        /* \"TopicFactory.sol\":5908:5929  endIndex - startIndex */\n      sub\n        /* \"TopicFactory.sol\":5896:5929  uint diff = endIndex - startIndex */\n      swap1\n      pop\n        /* \"TopicFactory.sol\":5940:5961  uint[] memory indices */\n      0x60\n        /* \"TopicFactory.sol\":5975:5979  diff */\n      dup2\n        /* \"TopicFactory.sol\":5964:5980  new uint[](diff) */\n      mload(0x40)\n      swap1\n      dup1\n      dup3\n      mstore\n      dup1\n      0x20\n      mul\n      0x20\n      add\n      dup3\n      add\n      0x40\n      mstore\n      dup1\n      iszero\n      tag_129\n      jumpi\n      dup2\n      0x20\n      add\n        /* \"--CODEGEN--\":29:31   */\n      0x20\n        /* \"--CODEGEN--\":21:27   */\n      dup3\n        /* \"--CODEGEN--\":17:32   */\n      mul\n        /* \"--CODEGEN--\":117:121   */\n      dup1\n        /* \"--CODEGEN--\":105:115   */\n      codesize\n        /* \"--CODEGEN--\":97:103   */\n      dup4\n        /* \"--CODEGEN--\":88:122   */\n      codecopy\n        /* \"--CODEGEN--\":148:152   */\n      dup1\n        /* \"--CODEGEN--\":140:146   */\n      dup3\n        /* \"--CODEGEN--\":136:153   */\n      add\n        /* \"--CODEGEN--\":126:153   */\n      swap2\n      pop\n        /* \"--CODEGEN--\":0:157   */\n      pop\n        /* \"TopicFactory.sol\":5964:5980  new uint[](diff) */\n      swap1\n      pop\n    tag_129:\n      pop\n        /* \"TopicFactory.sol\":5940:5980  uint[] memory indices = new uint[](diff) */\n      swap1\n      pop\n        /* \"TopicFactory.sol\":6007:6013  uint i */\n      0x00\n        /* \"TopicFactory.sol\":6016:6017  0 */\n      dup1\n        /* \"TopicFactory.sol\":6007:6017  uint i = 0 */\n      swap1\n      pop\n        /* \"TopicFactory.sol\":6002:6088  for (uint i = 0; i < diff; i++) {\r... */\n    tag_130:\n        /* \"TopicFactory.sol\":6023:6027  diff */\n      dup3\n        /* \"TopicFactory.sol\":6019:6020  i */\n      dup2\n        /* \"TopicFactory.sol\":6019:6027  i < diff */\n      lt\n        /* \"TopicFactory.sol\":6002:6088  for (uint i = 0; i < diff; i++) {\r... */\n      iszero\n      tag_131\n      jumpi\n        /* \"TopicFactory.sol\":6075:6076  i */\n      dup1\n        /* \"TopicFactory.sol\":6062:6072  startIndex */\n      dup7\n        /* \"TopicFactory.sol\":6062:6076  startIndex + i */\n      add\n        /* \"TopicFactory.sol\":6049:6056  indices */\n      dup3\n        /* \"TopicFactory.sol\":6057:6058  i */\n      dup3\n        /* \"TopicFactory.sol\":6049:6059  indices[i] */\n      dup2\n      mload\n      dup2\n      lt\n      tag_133\n      jumpi\n      invalid\n    tag_133:\n      0x20\n      mul\n      0x20\n      add\n      add\n        /* \"TopicFactory.sol\":6049:6076  indices[i] = startIndex + i */\n      dup2\n      dup2\n      mstore\n      pop\n      pop\n        /* \"TopicFactory.sol\":6029:6032  i++ */\n      dup1\n      dup1\n      0x01\n      add\n      swap2\n      pop\n      pop\n        /* \"TopicFactory.sol\":6002:6088  for (uint i = 0; i < diff; i++) {\r... */\n      jump(tag_130)\n    tag_131:\n      pop\n        /* \"TopicFactory.sol\":6098:6119  bytes32[] memory keys */\n      0x60\n        /* \"TopicFactory.sol\":6122:6162  completedTopicSet.keysAtIndices(indices) */\n      tag_134\n        /* \"TopicFactory.sol\":6154:6161  indices */\n      dup3\n        /* \"TopicFactory.sol\":6122:6139  completedTopicSet */\n      0x02\n        /* \"TopicFactory.sol\":6122:6153  completedTopicSet.keysAtIndices */\n      tag_135\n      swap1\n        /* \"TopicFactory.sol\":6122:6162  completedTopicSet.keysAtIndices(indices) */\n      swap2\n      swap1\n      0xffffffff\n      and\n      jump\t// in\n    tag_134:\n        /* \"TopicFactory.sol\":6098:6162  bytes32[] memory keys = completedTopicSet.keysAtIndices(indices) */\n      swap1\n      pop\n        /* \"TopicFactory.sol\":6182:6213  convertKeyListToTopicList(keys) */\n      tag_136\n        /* \"TopicFactory.sol\":6208:6212  keys */\n      dup2\n        /* \"TopicFactory.sol\":6182:6207  convertKeyListToTopicList */\n      tag_137\n        /* \"TopicFactory.sol\":6182:6213  convertKeyListToTopicList(keys) */\n      jump\t// in\n    tag_136:\n        /* \"TopicFactory.sol\":6175:6213  return convertKeyListToTopicList(keys) */\n      swap4\n      pop\n      pop\n      pop\n      pop\n        /* \"TopicFactory.sol\":5772:6221  function getCompletedTopicsBetweenIndices(uint startIndex, uint endIndex) public view returns (address[] memory) {\r... */\n      swap3\n      swap2\n      pop\n      pop\n      jump\t// out\n        /* \"TopicFactory.sol\":1501:1616  function addressToBytes32(address a) public pure returns(bytes32) {\r... */\n    tag_56:\n        /* \"TopicFactory.sol\":1558:1565  bytes32 */\n      0x00\n        /* \"TopicFactory.sol\":1604:1605  a */\n      dup2\n        /* \"TopicFactory.sol\":1591:1607  uint(uint160(a)) */\n      0xffffffffffffffffffffffffffffffffffffffff\n      and\n        /* \"TopicFactory.sol\":1583:1608  bytes32(uint(uint160(a))) */\n      0x00\n      shl\n        /* \"TopicFactory.sol\":1576:1608  return bytes32(uint(uint160(a))) */\n      swap1\n      pop\n        /* \"TopicFactory.sol\":1501:1616  function addressToBytes32(address a) public pure returns(bytes32) {\r... */\n      swap2\n      swap1\n      pop\n      jump\t// out\n        /* \"TopicFactory.sol\":522:542  address public owner */\n    tag_59:\n      0x07\n      0x00\n      swap1\n      sload\n      swap1\n      0x0100\n      exp\n      swap1\n      div\n      0xffffffffffffffffffffffffffffffffffffffff\n      and\n      dup2\n      jump\t// out\n        /* \"TopicFactory.sol\":4412:4703  function getDeployedTopic(uint index) public view returns(address) {\r... */\n    tag_63:\n        /* \"TopicFactory.sol\":4470:4477  address */\n      0x00\n        /* \"TopicFactory.sol\":4490:4501  bytes32 key */\n      dup1\n        /* \"TopicFactory.sol\":4504:4530  topicSet.keyAtIndex(index) */\n      tag_140\n        /* \"TopicFactory.sol\":4524:4529  index */\n      dup4\n        /* \"TopicFactory.sol\":4504:4512  topicSet */\n      0x00\n        /* \"TopicFactory.sol\":4504:4523  topicSet.keyAtIndex */\n      tag_141\n      swap1\n        /* \"TopicFactory.sol\":4504:4530  topicSet.keyAtIndex(index) */\n      swap2\n      swap1\n      0xffffffff\n      and\n      jump\t// in\n    tag_140:\n        /* \"TopicFactory.sol\":4490:4530  bytes32 key = topicSet.keyAtIndex(index) */\n      swap1\n      pop\n        /* \"TopicFactory.sol\":4549:4569  topicSet.exists(key) */\n      tag_142\n        /* \"TopicFactory.sol\":4565:4568  key */\n      dup2\n        /* \"TopicFactory.sol\":4549:4557  topicSet */\n      0x00\n        /* \"TopicFactory.sol\":4549:4564  topicSet.exists */\n      tag_143\n      swap1\n        /* \"TopicFactory.sol\":4549:4569  topicSet.exists(key) */\n      swap2\n      swap1\n      0xffffffff\n      and\n      jump\t// in\n    tag_142:\n        /* \"TopicFactory.sol\":4541:4611  require(topicSet.exists(key), \"Can't get a topic that doesn't exist.\") */\n      tag_144\n      jumpi\n      mload(0x40)\n      0x08c379a000000000000000000000000000000000000000000000000000000000\n      dup2\n      mstore\n      0x04\n      add\n      dup1\n      dup1\n      0x20\n      add\n      dup3\n      dup2\n      sub\n      dup3\n      mstore\n      0x25\n      dup2\n      mstore\n      0x20\n      add\n      dup1\n      data_a80fafd586c1e4992bd97ee2afc29fade136833ddf03511fc7938d2b94f4e312\n      0x25\n      swap2\n      codecopy\n      0x40\n      add\n      swap2\n      pop\n      pop\n      mload(0x40)\n      dup1\n      swap2\n      sub\n      swap1\n      revert\n    tag_144:\n        /* \"TopicFactory.sol\":4622:4642  address topicAddress */\n      0x00\n        /* \"TopicFactory.sol\":4645:4659  deployedTopics */\n      0x04\n        /* \"TopicFactory.sol\":4645:4664  deployedTopics[key] */\n      0x00\n        /* \"TopicFactory.sol\":4660:4663  key */\n      dup4\n        /* \"TopicFactory.sol\":4645:4664  deployedTopics[key] */\n      dup2\n      mstore\n      0x20\n      add\n      swap1\n      dup2\n      mstore\n      0x20\n      add\n      0x00\n      keccak256\n      0x00\n      swap1\n      sload\n      swap1\n      0x0100\n      exp\n      swap1\n      div\n      0xffffffffffffffffffffffffffffffffffffffff\n      and\n        /* \"TopicFactory.sol\":4622:4664  address topicAddress = deployedTopics[key] */\n      swap1\n      pop\n        /* \"TopicFactory.sol\":4682:4694  topicAddress */\n      dup1\n        /* \"TopicFactory.sol\":4675:4695  return(topicAddress) */\n      swap3\n      pop\n      pop\n      pop\n        /* \"TopicFactory.sol\":4412:4703  function getDeployedTopic(uint index) public view returns(address) {\r... */\n      swap2\n      swap1\n      pop\n      jump\t// out\n        /* \"TopicFactory.sol\":1315:1391  function removeAdmin() public {\r... */\n    tag_66:\n        /* \"TopicFactory.sol\":1378:1383  false */\n      0x00\n        /* \"TopicFactory.sol\":1356:1363  isAdmin */\n      0x0a\n        /* \"TopicFactory.sol\":1356:1375  isAdmin[msg.sender] */\n      0x00\n        /* \"TopicFactory.sol\":1364:1374  msg.sender */\n      caller\n        /* \"TopicFactory.sol\":1356:1375  isAdmin[msg.sender] */\n      0xffffffffffffffffffffffffffffffffffffffff\n      and\n      0xffffffffffffffffffffffffffffffffffffffff\n      and\n      dup2\n      mstore\n      0x20\n      add\n      swap1\n      dup2\n      mstore\n      0x20\n      add\n      0x00\n      keccak256\n      0x00\n        /* \"TopicFactory.sol\":1356:1383  isAdmin[msg.sender] = false */\n      0x0100\n      exp\n      dup2\n      sload\n      dup2\n      0xff\n      mul\n      not\n      and\n      swap1\n      dup4\n      iszero\n      iszero\n      mul\n      or\n      swap1\n      sstore\n      pop\n        /* \"TopicFactory.sol\":1315:1391  function removeAdmin() public {\r... */\n      jump\t// out\n        /* \"TopicFactory.sol\":1921:2069  function updateTopicAssignerAddress(address _topicAssignerAddress) public _ownerOnly {\r... */\n    tag_70:\n        /* \"TopicFactory.sol\":935:940  owner */\n      0x07\n      0x00\n      swap1\n      sload\n      swap1\n      0x0100\n      exp\n      swap1\n      div\n      0xffffffffffffffffffffffffffffffffffffffff\n      and\n        /* \"TopicFactory.sol\":921:940  msg.sender == owner */\n      0xffffffffffffffffffffffffffffffffffffffff\n      and\n        /* \"TopicFactory.sol\":921:931  msg.sender */\n      caller\n        /* \"TopicFactory.sol\":921:940  msg.sender == owner */\n      0xffffffffffffffffffffffffffffffffffffffff\n      and\n      eq\n        /* \"TopicFactory.sol\":913:1011  require(msg.sender == owner, 'You must be the creator of this Topic Factory in order to do this.') */\n      tag_147\n      jumpi\n      mload(0x40)\n      0x08c379a000000000000000000000000000000000000000000000000000000000\n      dup2\n      mstore\n      0x04\n      add\n      dup1\n      dup1\n      0x20\n      add\n      dup3\n      dup2\n      sub\n      dup3\n      mstore\n      0x42\n      dup2\n      mstore\n      0x20\n      add\n      dup1\n      data_0367d8750ab86e28eeeac06254f9df02e49d23539ed9d756e3bfa1b28596c2d1\n      0x42\n      swap2\n      codecopy\n      0x60\n      add\n      swap2\n      pop\n      pop\n      mload(0x40)\n      dup1\n      swap2\n      sub\n      swap1\n      revert\n    tag_147:\n        /* \"TopicFactory.sol\":2040:2061  _topicAssignerAddress */\n      dup1\n        /* \"TopicFactory.sol\":2017:2037  topicAssignerAddress */\n      0x09\n      0x00\n        /* \"TopicFactory.sol\":2017:2061  topicAssignerAddress = _topicAssignerAddress */\n      0x0100\n      exp\n      dup2\n      sload\n      dup2\n      0xffffffffffffffffffffffffffffffffffffffff\n      mul\n      not\n      and\n      swap1\n      dup4\n      0xffffffffffffffffffffffffffffffffffffffff\n      and\n      mul\n      or\n      swap1\n      sstore\n      pop\n        /* \"TopicFactory.sol\":1921:2069  function updateTopicAssignerAddress(address _topicAssignerAddress) public _ownerOnly {\r... */\n      pop\n      jump\t// out\n        /* \"TopicFactory.sol\":5329:5760  function getTopicsBetweenIndices(uint startIndex, uint endIndex) public view returns (address[] memory) {\r... */\n    tag_74:\n        /* \"TopicFactory.sol\":5415:5431  address[] memory */\n      0x60\n        /* \"TopicFactory.sol\":5444:5453  uint diff */\n      0x00\n        /* \"TopicFactory.sol\":5467:5477  startIndex */\n      dup4\n        /* \"TopicFactory.sol\":5456:5464  endIndex */\n      dup4\n        /* \"TopicFactory.sol\":5456:5477  endIndex - startIndex */\n      sub\n        /* \"TopicFactory.sol\":5444:5477  uint diff = endIndex - startIndex */\n      swap1\n      pop\n        /* \"TopicFactory.sol\":5488:5509  uint[] memory indices */\n      0x60\n        /* \"TopicFactory.sol\":5523:5527  diff */\n      dup2\n        /* \"TopicFactory.sol\":5512:5528  new uint[](diff) */\n      mload(0x40)\n      swap1\n      dup1\n      dup3\n      mstore\n      dup1\n      0x20\n      mul\n      0x20\n      add\n      dup3\n      add\n      0x40\n      mstore\n      dup1\n      iszero\n      tag_150\n      jumpi\n      dup2\n      0x20\n      add\n        /* \"--CODEGEN--\":29:31   */\n      0x20\n        /* \"--CODEGEN--\":21:27   */\n      dup3\n        /* \"--CODEGEN--\":17:32   */\n      mul\n        /* \"--CODEGEN--\":117:121   */\n      dup1\n        /* \"--CODEGEN--\":105:115   */\n      codesize\n        /* \"--CODEGEN--\":97:103   */\n      dup4\n        /* \"--CODEGEN--\":88:122   */\n      codecopy\n        /* \"--CODEGEN--\":148:152   */\n      dup1\n        /* \"--CODEGEN--\":140:146   */\n      dup3\n        /* \"--CODEGEN--\":136:153   */\n      add\n        /* \"--CODEGEN--\":126:153   */\n      swap2\n      pop\n        /* \"--CODEGEN--\":0:157   */\n      pop\n        /* \"TopicFactory.sol\":5512:5528  new uint[](diff) */\n      swap1\n      pop\n    tag_150:\n      pop\n        /* \"TopicFactory.sol\":5488:5528  uint[] memory indices = new uint[](diff) */\n      swap1\n      pop\n        /* \"TopicFactory.sol\":5555:5561  uint i */\n      0x00\n        /* \"TopicFactory.sol\":5564:5565  0 */\n      dup1\n        /* \"TopicFactory.sol\":5555:5565  uint i = 0 */\n      swap1\n      pop\n        /* \"TopicFactory.sol\":5550:5636  for (uint i = 0; i < diff; i++) {\r... */\n    tag_151:\n        /* \"TopicFactory.sol\":5571:5575  diff */\n      dup3\n        /* \"TopicFactory.sol\":5567:5568  i */\n      dup2\n        /* \"TopicFactory.sol\":5567:5575  i < diff */\n      lt\n        /* \"TopicFactory.sol\":5550:5636  for (uint i = 0; i < diff; i++) {\r... */\n      iszero\n      tag_152\n      jumpi\n        /* \"TopicFactory.sol\":5623:5624  i */\n      dup1\n        /* \"TopicFactory.sol\":5610:5620  startIndex */\n      dup7\n        /* \"TopicFactory.sol\":5610:5624  startIndex + i */\n      add\n        /* \"TopicFactory.sol\":5597:5604  indices */\n      dup3\n        /* \"TopicFactory.sol\":5605:5606  i */\n      dup3\n        /* \"TopicFactory.sol\":5597:5607  indices[i] */\n      dup2\n      mload\n      dup2\n      lt\n      tag_154\n      jumpi\n      invalid\n    tag_154:\n      0x20\n      mul\n      0x20\n      add\n      add\n        /* \"TopicFactory.sol\":5597:5624  indices[i] = startIndex + i */\n      dup2\n      dup2\n      mstore\n      pop\n      pop\n        /* \"TopicFactory.sol\":5577:5580  i++ */\n      dup1\n      dup1\n      0x01\n      add\n      swap2\n      pop\n      pop\n        /* \"TopicFactory.sol\":5550:5636  for (uint i = 0; i < diff; i++) {\r... */\n      jump(tag_151)\n    tag_152:\n      pop\n        /* \"TopicFactory.sol\":5646:5667  bytes32[] memory keys */\n      0x60\n        /* \"TopicFactory.sol\":5670:5701  topicSet.keysAtIndices(indices) */\n      tag_155\n        /* \"TopicFactory.sol\":5693:5700  indices */\n      dup3\n        /* \"TopicFactory.sol\":5670:5678  topicSet */\n      0x00\n        /* \"TopicFactory.sol\":5670:5692  topicSet.keysAtIndices */\n      tag_135\n      swap1\n        /* \"TopicFactory.sol\":5670:5701  topicSet.keysAtIndices(indices) */\n      swap2\n      swap1\n      0xffffffff\n      and\n      jump\t// in\n    tag_155:\n        /* \"TopicFactory.sol\":5646:5701  bytes32[] memory keys = topicSet.keysAtIndices(indices) */\n      swap1\n      pop\n        /* \"TopicFactory.sol\":5721:5752  convertKeyListToTopicList(keys) */\n      tag_156\n        /* \"TopicFactory.sol\":5747:5751  keys */\n      dup2\n        /* \"TopicFactory.sol\":5721:5746  convertKeyListToTopicList */\n      tag_137\n        /* \"TopicFactory.sol\":5721:5752  convertKeyListToTopicList(keys) */\n      jump\t// in\n    tag_156:\n        /* \"TopicFactory.sol\":5714:5752  return convertKeyListToTopicList(keys) */\n      swap4\n      pop\n      pop\n      pop\n      pop\n        /* \"TopicFactory.sol\":5329:5760  function getTopicsBetweenIndices(uint startIndex, uint endIndex) public view returns (address[] memory) {\r... */\n      swap3\n      swap2\n      pop\n      pop\n      jump\t// out\n        /* \"TopicFactory.sol\":6234:6447  function getTopicsAtIndices(uint[] memory indices) public view returns (address[] memory) {\r... */\n    tag_84:\n        /* \"TopicFactory.sol\":6306:6322  address[] memory */\n      0x60\n        /* \"TopicFactory.sol\":6335:6356  bytes32[] memory keys */\n      dup1\n        /* \"TopicFactory.sol\":6359:6390  topicSet.keysAtIndices(indices) */\n      tag_158\n        /* \"TopicFactory.sol\":6382:6389  indices */\n      dup4\n        /* \"TopicFactory.sol\":6359:6367  topicSet */\n      0x00\n        /* \"TopicFactory.sol\":6359:6381  topicSet.keysAtIndices */\n      tag_135\n      swap1\n        /* \"TopicFactory.sol\":6359:6390  topicSet.keysAtIndices(indices) */\n      swap2\n      swap1\n      0xffffffff\n      and\n      jump\t// in\n    tag_158:\n        /* \"TopicFactory.sol\":6335:6390  bytes32[] memory keys = topicSet.keysAtIndices(indices) */\n      swap1\n      pop\n        /* \"TopicFactory.sol\":6408:6439  convertKeyListToTopicList(keys) */\n      tag_159\n        /* \"TopicFactory.sol\":6434:6438  keys */\n      dup2\n        /* \"TopicFactory.sol\":6408:6433  convertKeyListToTopicList */\n      tag_137\n        /* \"TopicFactory.sol\":6408:6439  convertKeyListToTopicList(keys) */\n      jump\t// in\n    tag_159:\n        /* \"TopicFactory.sol\":6401:6439  return convertKeyListToTopicList(keys) */\n      swap2\n      pop\n      pop\n        /* \"TopicFactory.sol\":6234:6447  function getTopicsAtIndices(uint[] memory indices) public view returns (address[] memory) {\r... */\n      swap2\n      swap1\n      pop\n      jump\t// out\n        /* \"TopicFactory.sol\":4717:4826  function getNumberOfDeployedContracts() public view returns (uint) {\r... */\n    tag_90:\n        /* \"TopicFactory.sol\":4778:4782  uint */\n      0x00\n        /* \"TopicFactory.sol\":4802:4818  topicSet.count() */\n      tag_161\n        /* \"TopicFactory.sol\":4802:4810  topicSet */\n      0x00\n        /* \"TopicFactory.sol\":4802:4816  topicSet.count */\n      tag_116\n        /* \"TopicFactory.sol\":4802:4818  topicSet.count() */\n      jump\t// in\n    tag_161:\n        /* \"TopicFactory.sol\":4795:4818  return topicSet.count() */\n      swap1\n      pop\n        /* \"TopicFactory.sol\":4717:4826  function getNumberOfDeployedContracts() public view returns (uint) {\r... */\n      swap1\n      jump\t// out\n        /* \"TopicFactory.sol\":3576:3935  function markTopicAsCompleted(address topicAddress) public {\r... */\n    tag_94:\n        /* \"TopicFactory.sol\":3668:3680  topicAddress */\n      dup1\n        /* \"TopicFactory.sol\":3654:3680  msg.sender == topicAddress */\n      0xffffffffffffffffffffffffffffffffffffffff\n      and\n        /* \"TopicFactory.sol\":3654:3664  msg.sender */\n      caller\n        /* \"TopicFactory.sol\":3654:3680  msg.sender == topicAddress */\n      0xffffffffffffffffffffffffffffffffffffffff\n      and\n      eq\n        /* \"TopicFactory.sol\":3646:3742  require(msg.sender == topicAddress, 'Only the topic contract itself can complete the contract.') */\n      tag_163\n      jumpi\n      mload(0x40)\n      0x08c379a000000000000000000000000000000000000000000000000000000000\n      dup2\n      mstore\n      0x04\n      add\n      dup1\n      dup1\n      0x20\n      add\n      dup3\n      dup2\n      sub\n      dup3\n      mstore\n      0x39\n      dup2\n      mstore\n      0x20\n      add\n      dup1\n      data_b53c818400d7a722da0d1e70624cbdcd3712e375ff80ef96a605395596cfc7d9\n      0x39\n      swap2\n      codecopy\n      0x40\n      add\n      swap2\n      pop\n      pop\n      mload(0x40)\n      dup1\n      swap2\n      sub\n      swap1\n      revert\n    tag_163:\n        /* \"TopicFactory.sol\":3753:3764  bytes32 key */\n      0x00\n        /* \"TopicFactory.sol\":3767:3797  addressToBytes32(topicAddress) */\n      tag_164\n        /* \"TopicFactory.sol\":3784:3796  topicAddress */\n      dup3\n        /* \"TopicFactory.sol\":3767:3783  addressToBytes32 */\n      tag_56\n        /* \"TopicFactory.sol\":3767:3797  addressToBytes32(topicAddress) */\n      jump\t// in\n    tag_164:\n        /* \"TopicFactory.sol\":3753:3797  bytes32 key = addressToBytes32(topicAddress) */\n      swap1\n      pop\n        /* \"TopicFactory.sol\":3808:3841  removeDeployedTopic(topicAddress) */\n      tag_165\n        /* \"TopicFactory.sol\":3828:3840  topicAddress */\n      dup3\n        /* \"TopicFactory.sol\":3808:3827  removeDeployedTopic */\n      tag_122\n        /* \"TopicFactory.sol\":3808:3841  removeDeployedTopic(topicAddress) */\n      jump\t// in\n    tag_165:\n        /* \"TopicFactory.sol\":3852:3881  completedTopicSet.insert(key) */\n      tag_166\n        /* \"TopicFactory.sol\":3877:3880  key */\n      dup2\n        /* \"TopicFactory.sol\":3852:3869  completedTopicSet */\n      0x02\n        /* \"TopicFactory.sol\":3852:3876  completedTopicSet.insert */\n      tag_107\n      swap1\n        /* \"TopicFactory.sol\":3852:3881  completedTopicSet.insert(key) */\n      swap2\n      swap1\n      0xffffffff\n      and\n      jump\t// in\n    tag_166:\n        /* \"TopicFactory.sol\":3915:3927  topicAddress */\n      dup2\n        /* \"TopicFactory.sol\":3892:3907  completedTopics */\n      0x05\n        /* \"TopicFactory.sol\":3892:3912  completedTopics[key] */\n      0x00\n        /* \"TopicFactory.sol\":3908:3911  key */\n      dup4\n        /* \"TopicFactory.sol\":3892:3912  completedTopics[key] */\n      dup2\n      mstore\n      0x20\n      add\n      swap1\n      dup2\n      mstore\n      0x20\n      add\n      0x00\n      keccak256\n      0x00\n        /* \"TopicFactory.sol\":3892:3927  completedTopics[key] = topicAddress */\n      0x0100\n      exp\n      dup2\n      sload\n      dup2\n      0xffffffffffffffffffffffffffffffffffffffff\n      mul\n      not\n      and\n      swap1\n      dup4\n      0xffffffffffffffffffffffffffffffffffffffff\n      and\n      mul\n      or\n      swap1\n      sstore\n      pop\n        /* \"TopicFactory.sol\":3576:3935  function markTopicAsCompleted(address topicAddress) public {\r... */\n      pop\n      pop\n      jump\t// out\n        /* \"HitchensUnorderedKeySet.sol\":1504:1796  function insert(Set storage self, bytes32 key) internal {\r... */\n    tag_107:\n        /* \"HitchensUnorderedKeySet.sol\":1586:1589  0x0 */\n      0x00\n        /* \"HitchensUnorderedKeySet.sol\":1579:1589  key != 0x0 */\n      dup1\n      shl\n        /* \"HitchensUnorderedKeySet.sol\":1579:1582  key */\n      dup2\n        /* \"HitchensUnorderedKeySet.sol\":1579:1589  key != 0x0 */\n      eq\n      iszero\n        /* \"HitchensUnorderedKeySet.sol\":1571:1634  require(key != 0x0, \"UnorderedKeySet(100) - Key cannot be 0x0\") */\n      tag_168\n      jumpi\n      mload(0x40)\n      0x08c379a000000000000000000000000000000000000000000000000000000000\n      dup2\n      mstore\n      0x04\n      add\n      dup1\n      dup1\n      0x20\n      add\n      dup3\n      dup2\n      sub\n      dup3\n      mstore\n      0x28\n      dup2\n      mstore\n      0x20\n      add\n      dup1\n      data_031dac4c0fd3fb26da649d964b99c1bb58fd5db59b37cd2a44f64d4951cf8636\n      0x28\n      swap2\n      codecopy\n      0x40\n      add\n      swap2\n      pop\n      pop\n      mload(0x40)\n      dup1\n      swap2\n      sub\n      swap1\n      revert\n    tag_168:\n        /* \"HitchensUnorderedKeySet.sol\":1654:1671  exists(self, key) */\n      tag_169\n        /* \"HitchensUnorderedKeySet.sol\":1661:1665  self */\n      dup3\n        /* \"HitchensUnorderedKeySet.sol\":1667:1670  key */\n      dup3\n        /* \"HitchensUnorderedKeySet.sol\":1654:1660  exists */\n      tag_143\n        /* \"HitchensUnorderedKeySet.sol\":1654:1671  exists(self, key) */\n      jump\t// in\n    tag_169:\n        /* \"HitchensUnorderedKeySet.sol\":1653:1671  !exists(self, key) */\n      iszero\n        /* \"HitchensUnorderedKeySet.sol\":1645:1729  require(!exists(self, key), \"UnorderedKeySet(101) - Key already exists in the set.\") */\n      tag_170\n      jumpi\n      mload(0x40)\n      0x08c379a000000000000000000000000000000000000000000000000000000000\n      dup2\n      mstore\n      0x04\n      add\n      dup1\n      dup1\n      0x20\n      add\n      dup3\n      dup2\n      sub\n      dup3\n      mstore\n      0x35\n      dup2\n      mstore\n      0x20\n      add\n      dup1\n      data_67f17f030c1d3538f6834d76d11770053274b85005c1c4396304442b3cc9116e\n      0x35\n      swap2\n      codecopy\n      0x40\n      add\n      swap2\n      pop\n      pop\n      mload(0x40)\n      dup1\n      swap2\n      sub\n      swap1\n      revert\n    tag_170:\n        /* \"HitchensUnorderedKeySet.sol\":1787:1788  1 */\n      0x01\n        /* \"HitchensUnorderedKeySet.sol\":1764:1768  self */\n      dup3\n        /* \"HitchensUnorderedKeySet.sol\":1764:1776  self.keyList */\n      0x01\n      add\n        /* \"HitchensUnorderedKeySet.sol\":1782:1785  key */\n      dup3\n        /* \"HitchensUnorderedKeySet.sol\":1764:1786  self.keyList.push(key) */\n      swap1\n      dup1\n        /* \"--CODEGEN--\":39:40   */\n      0x01\n        /* \"--CODEGEN--\":33:36   */\n      dup2\n        /* \"--CODEGEN--\":27:37   */\n      sload\n        /* \"--CODEGEN--\":23:41   */\n      add\n        /* \"--CODEGEN--\":57:67   */\n      dup1\n        /* \"--CODEGEN--\":52:55   */\n      dup3\n        /* \"--CODEGEN--\":45:68   */\n      sstore\n        /* \"--CODEGEN--\":79:89   */\n      dup1\n        /* \"--CODEGEN--\":72:89   */\n      swap2\n      pop\n        /* \"--CODEGEN--\":0:93   */\n      pop\n        /* \"HitchensUnorderedKeySet.sol\":1764:1786  self.keyList.push(key) */\n      swap1\n      0x01\n      dup3\n      sub\n      swap1\n      0x00\n      mstore\n      keccak256(0x00, 0x20)\n      add\n      0x00\n      swap1\n      swap2\n      swap3\n      swap1\n      swap2\n      swap1\n      swap2\n      pop\n      sstore\n        /* \"HitchensUnorderedKeySet.sol\":1764:1788  self.keyList.push(key)-1 */\n      sub\n        /* \"HitchensUnorderedKeySet.sol\":1740:1744  self */\n      dup3\n        /* \"HitchensUnorderedKeySet.sol\":1740:1756  self.keyPointers */\n      0x00\n      add\n        /* \"HitchensUnorderedKeySet.sol\":1740:1761  self.keyPointers[key] */\n      0x00\n        /* \"HitchensUnorderedKeySet.sol\":1757:1760  key */\n      dup4\n        /* \"HitchensUnorderedKeySet.sol\":1740:1761  self.keyPointers[key] */\n      dup2\n      mstore\n      0x20\n      add\n      swap1\n      dup2\n      mstore\n      0x20\n      add\n      0x00\n      keccak256\n        /* \"HitchensUnorderedKeySet.sol\":1740:1788  self.keyPointers[key] = self.keyList.push(key)-1 */\n      dup2\n      swap1\n      sstore\n      pop\n        /* \"HitchensUnorderedKeySet.sol\":1504:1796  function insert(Set storage self, bytes32 key) internal {\r... */\n      pop\n      pop\n      jump\t// out\n        /* \"HitchensUnorderedKeySet.sol\":2261:2368  function count(Set storage self) internal view returns(uint) {\r... */\n    tag_116:\n        /* \"HitchensUnorderedKeySet.sol\":2316:2320  uint */\n      0x00\n        /* \"HitchensUnorderedKeySet.sol\":2340:2344  self */\n      dup2\n        /* \"HitchensUnorderedKeySet.sol\":2340:2352  self.keyList */\n      0x01\n      add\n        /* \"HitchensUnorderedKeySet.sol\":2340:2359  self.keyList.length */\n      dup1\n      sload\n      swap1\n      pop\n        /* \"HitchensUnorderedKeySet.sol\":2333:2360  return(self.keyList.length) */\n      swap1\n      pop\n        /* \"HitchensUnorderedKeySet.sol\":2261:2368  function count(Set storage self) internal view returns(uint) {\r... */\n      swap2\n      swap1\n      pop\n      jump\t// out\n        /* \"TopicFactory.sol\":4081:4400  function removeDeployedTopic(address topicAddress) internal {\r... */\n    tag_122:\n        /* \"TopicFactory.sol\":4152:4163  bytes32 key */\n      0x00\n        /* \"TopicFactory.sol\":4166:4196  addressToBytes32(topicAddress) */\n      tag_174\n        /* \"TopicFactory.sol\":4183:4195  topicAddress */\n      dup3\n        /* \"TopicFactory.sol\":4166:4182  addressToBytes32 */\n      tag_56\n        /* \"TopicFactory.sol\":4166:4196  addressToBytes32(topicAddress) */\n      jump\t// in\n    tag_174:\n        /* \"TopicFactory.sol\":4152:4196  bytes32 key = addressToBytes32(topicAddress) */\n      swap1\n      pop\n        /* \"TopicFactory.sol\":4207:4227  topicSet.remove(key) */\n      tag_175\n        /* \"TopicFactory.sol\":4223:4226  key */\n      dup2\n        /* \"TopicFactory.sol\":4207:4215  topicSet */\n      0x00\n        /* \"TopicFactory.sol\":4207:4222  topicSet.remove */\n      tag_176\n      swap1\n        /* \"TopicFactory.sol\":4207:4227  topicSet.remove(key) */\n      swap2\n      swap1\n      0xffffffff\n      and\n      jump\t// in\n    tag_175:\n        /* \"TopicFactory.sol\":4312:4326  deployedTopics */\n      0x04\n        /* \"TopicFactory.sol\":4312:4331  deployedTopics[key] */\n      0x00\n        /* \"TopicFactory.sol\":4327:4330  key */\n      dup3\n        /* \"TopicFactory.sol\":4312:4331  deployedTopics[key] */\n      dup2\n      mstore\n      0x20\n      add\n      swap1\n      dup2\n      mstore\n      0x20\n      add\n      0x00\n      keccak256\n      0x00\n        /* \"TopicFactory.sol\":4305:4331  delete deployedTopics[key] */\n      0x0100\n      exp\n      dup2\n      sload\n      swap1\n      0xffffffffffffffffffffffffffffffffffffffff\n      mul\n      not\n      and\n      swap1\n      sstore\n        /* \"TopicFactory.sol\":4347:4392  LogRemoveTopic(msg.sender, topicAddress, key) */\n      0xa47cfc8cdf313693db1a69bb82559cc1a32d10f6d85a649a1baddf5c1e0ac22c\n        /* \"TopicFactory.sol\":4362:4372  msg.sender */\n      caller\n        /* \"TopicFactory.sol\":4374:4386  topicAddress */\n      dup4\n        /* \"TopicFactory.sol\":4388:4391  key */\n      dup4\n        /* \"TopicFactory.sol\":4347:4392  LogRemoveTopic(msg.sender, topicAddress, key) */\n      mload(0x40)\n      dup1\n      dup5\n      0xffffffffffffffffffffffffffffffffffffffff\n      and\n      0xffffffffffffffffffffffffffffffffffffffff\n      and\n      dup2\n      mstore\n      0x20\n      add\n      dup4\n      0xffffffffffffffffffffffffffffffffffffffff\n      and\n      0xffffffffffffffffffffffffffffffffffffffff\n      and\n      dup2\n      mstore\n      0x20\n      add\n      dup3\n      dup2\n      mstore\n      0x20\n      add\n      swap4\n      pop\n      pop\n      pop\n      pop\n      mload(0x40)\n      dup1\n      swap2\n      sub\n      swap1\n      log1\n        /* \"TopicFactory.sol\":4081:4400  function removeDeployedTopic(address topicAddress) internal {\r... */\n      pop\n      pop\n      jump\t// out\n        /* \"HitchensUnorderedKeySet.sol\":2725:3081  function keysAtIndices(Set storage self, uint[] memory indices) internal view returns(bytes32[] memory) {\r... */\n    tag_135:\n        /* \"HitchensUnorderedKeySet.sol\":2811:2827  bytes32[] memory */\n      0x60\n        /* \"HitchensUnorderedKeySet.sol\":2840:2861  bytes32[] memory keys */\n      dup1\n        /* \"HitchensUnorderedKeySet.sol\":2878:2885  indices */\n      dup3\n        /* \"HitchensUnorderedKeySet.sol\":2878:2892  indices.length */\n      mload\n        /* \"HitchensUnorderedKeySet.sol\":2864:2893  new bytes32[](indices.length) */\n      mload(0x40)\n      swap1\n      dup1\n      dup3\n      mstore\n      dup1\n      0x20\n      mul\n      0x20\n      add\n      dup3\n      add\n      0x40\n      mstore\n      dup1\n      iszero\n      tag_178\n      jumpi\n      dup2\n      0x20\n      add\n        /* \"--CODEGEN--\":29:31   */\n      0x20\n        /* \"--CODEGEN--\":21:27   */\n      dup3\n        /* \"--CODEGEN--\":17:32   */\n      mul\n        /* \"--CODEGEN--\":117:121   */\n      dup1\n        /* \"--CODEGEN--\":105:115   */\n      codesize\n        /* \"--CODEGEN--\":97:103   */\n      dup4\n        /* \"--CODEGEN--\":88:122   */\n      codecopy\n        /* \"--CODEGEN--\":148:152   */\n      dup1\n        /* \"--CODEGEN--\":140:146   */\n      dup3\n        /* \"--CODEGEN--\":136:153   */\n      add\n        /* \"--CODEGEN--\":126:153   */\n      swap2\n      pop\n        /* \"--CODEGEN--\":0:157   */\n      pop\n        /* \"HitchensUnorderedKeySet.sol\":2864:2893  new bytes32[](indices.length) */\n      swap1\n      pop\n    tag_178:\n      pop\n        /* \"HitchensUnorderedKeySet.sol\":2840:2893  bytes32[] memory keys = new bytes32[](indices.length) */\n      swap1\n      pop\n        /* \"HitchensUnorderedKeySet.sol\":2919:2925  uint i */\n      0x00\n        /* \"HitchensUnorderedKeySet.sol\":2928:2929  0 */\n      dup1\n        /* \"HitchensUnorderedKeySet.sol\":2919:2929  uint i = 0 */\n      swap1\n      pop\n        /* \"HitchensUnorderedKeySet.sol\":2914:3052  for (uint i = 0; i < indices.length; i++) {\r... */\n    tag_179:\n        /* \"HitchensUnorderedKeySet.sol\":2935:2942  indices */\n      dup4\n        /* \"HitchensUnorderedKeySet.sol\":2935:2949  indices.length */\n      mload\n        /* \"HitchensUnorderedKeySet.sol\":2931:2932  i */\n      dup2\n        /* \"HitchensUnorderedKeySet.sol\":2931:2949  i < indices.length */\n      lt\n        /* \"HitchensUnorderedKeySet.sol\":2914:3052  for (uint i = 0; i < indices.length; i++) {\r... */\n      iszero\n      tag_180\n      jumpi\n        /* \"HitchensUnorderedKeySet.sol\":2971:2981  uint index */\n      0x00\n        /* \"HitchensUnorderedKeySet.sol\":2984:2991  indices */\n      dup5\n        /* \"HitchensUnorderedKeySet.sol\":2992:2993  i */\n      dup3\n        /* \"HitchensUnorderedKeySet.sol\":2984:2994  indices[i] */\n      dup2\n      mload\n      dup2\n      lt\n      tag_182\n      jumpi\n      invalid\n    tag_182:\n      0x20\n      mul\n      0x20\n      add\n      add\n      mload\n        /* \"HitchensUnorderedKeySet.sol\":2971:2994  uint index = indices[i] */\n      swap1\n      pop\n        /* \"HitchensUnorderedKeySet.sol\":3020:3024  self */\n      dup6\n        /* \"HitchensUnorderedKeySet.sol\":3020:3032  self.keyList */\n      0x01\n      add\n        /* \"HitchensUnorderedKeySet.sol\":3033:3038  index */\n      dup2\n        /* \"HitchensUnorderedKeySet.sol\":3020:3039  self.keyList[index] */\n      dup2\n      sload\n      dup2\n      lt\n      tag_183\n      jumpi\n      invalid\n    tag_183:\n      swap1\n      0x00\n      mstore\n      keccak256(0x00, 0x20)\n      add\n      sload\n        /* \"HitchensUnorderedKeySet.sol\":3009:3013  keys */\n      dup4\n        /* \"HitchensUnorderedKeySet.sol\":3014:3015  i */\n      dup4\n        /* \"HitchensUnorderedKeySet.sol\":3009:3016  keys[i] */\n      dup2\n      mload\n      dup2\n      lt\n      tag_185\n      jumpi\n      invalid\n    tag_185:\n      0x20\n      mul\n      0x20\n      add\n      add\n        /* \"HitchensUnorderedKeySet.sol\":3009:3040  keys[i] = (self.keyList[index]) */\n      dup2\n      dup2\n      mstore\n      pop\n      pop\n        /* \"HitchensUnorderedKeySet.sol\":2914:3052  for (uint i = 0; i < indices.length; i++) {\r... */\n      pop\n        /* \"HitchensUnorderedKeySet.sol\":2951:2954  i++ */\n      dup1\n      dup1\n      0x01\n      add\n      swap2\n      pop\n      pop\n        /* \"HitchensUnorderedKeySet.sol\":2914:3052  for (uint i = 0; i < indices.length; i++) {\r... */\n      jump(tag_179)\n    tag_180:\n      pop\n        /* \"HitchensUnorderedKeySet.sol\":3069:3073  keys */\n      dup1\n        /* \"HitchensUnorderedKeySet.sol\":3062:3073  return keys */\n      swap2\n      pop\n      pop\n        /* \"HitchensUnorderedKeySet.sol\":2725:3081  function keysAtIndices(Set storage self, uint[] memory indices) internal view returns(bytes32[] memory) {\r... */\n      swap3\n      swap2\n      pop\n      pop\n      jump\t// out\n        /* \"TopicFactory.sol\":4969:5321  function convertKeyListToTopicList(bytes32[] memory keyList) internal view returns (address[] memory) {\r... */\n    tag_137:\n        /* \"TopicFactory.sol\":5053:5069  address[] memory */\n      0x60\n        /* \"TopicFactory.sol\":5082:5092  uint count */\n      0x00\n        /* \"TopicFactory.sol\":5095:5102  keyList */\n      dup3\n        /* \"TopicFactory.sol\":5095:5109  keyList.length */\n      mload\n        /* \"TopicFactory.sol\":5082:5109  uint count = keyList.length */\n      swap1\n      pop\n        /* \"TopicFactory.sol\":5122:5145  address[] memory topics */\n      0x60\n        /* \"TopicFactory.sol\":5162:5167  count */\n      dup2\n        /* \"TopicFactory.sol\":5148:5168  new address[](count) */\n      mload(0x40)\n      swap1\n      dup1\n      dup3\n      mstore\n      dup1\n      0x20\n      mul\n      0x20\n      add\n      dup3\n      add\n      0x40\n      mstore\n      dup1\n      iszero\n      tag_187\n      jumpi\n      dup2\n      0x20\n      add\n        /* \"--CODEGEN--\":29:31   */\n      0x20\n        /* \"--CODEGEN--\":21:27   */\n      dup3\n        /* \"--CODEGEN--\":17:32   */\n      mul\n        /* \"--CODEGEN--\":117:121   */\n      dup1\n        /* \"--CODEGEN--\":105:115   */\n      codesize\n        /* \"--CODEGEN--\":97:103   */\n      dup4\n        /* \"--CODEGEN--\":88:122   */\n      codecopy\n        /* \"--CODEGEN--\":148:152   */\n      dup1\n        /* \"--CODEGEN--\":140:146   */\n      dup3\n        /* \"--CODEGEN--\":136:153   */\n      add\n        /* \"--CODEGEN--\":126:153   */\n      swap2\n      pop\n        /* \"--CODEGEN--\":0:157   */\n      pop\n        /* \"TopicFactory.sol\":5148:5168  new address[](count) */\n      swap1\n      pop\n    tag_187:\n      pop\n        /* \"TopicFactory.sol\":5122:5168  address[] memory topics = new address[](count) */\n      swap1\n      pop\n        /* \"TopicFactory.sol\":5186:5192  uint i */\n      0x00\n        /* \"TopicFactory.sol\":5195:5196  0 */\n      dup1\n        /* \"TopicFactory.sol\":5186:5196  uint i = 0 */\n      swap1\n      pop\n        /* \"TopicFactory.sol\":5181:5288  for (uint i = 0; i < keyList.length; i++) {\r... */\n    tag_188:\n        /* \"TopicFactory.sol\":5202:5209  keyList */\n      dup5\n        /* \"TopicFactory.sol\":5202:5216  keyList.length */\n      mload\n        /* \"TopicFactory.sol\":5198:5199  i */\n      dup2\n        /* \"TopicFactory.sol\":5198:5216  i < keyList.length */\n      lt\n        /* \"TopicFactory.sol\":5181:5288  for (uint i = 0; i < keyList.length; i++) {\r... */\n      iszero\n      tag_189\n      jumpi\n        /* \"TopicFactory.sol\":5250:5264  deployedTopics */\n      0x04\n        /* \"TopicFactory.sol\":5250:5276  deployedTopics[keyList[i]] */\n      0x00\n        /* \"TopicFactory.sol\":5265:5272  keyList */\n      dup7\n        /* \"TopicFactory.sol\":5273:5274  i */\n      dup4\n        /* \"TopicFactory.sol\":5265:5275  keyList[i] */\n      dup2\n      mload\n      dup2\n      lt\n      tag_191\n      jumpi\n      invalid\n    tag_191:\n      0x20\n      mul\n      0x20\n      add\n      add\n      mload\n        /* \"TopicFactory.sol\":5250:5276  deployedTopics[keyList[i]] */\n      dup2\n      mstore\n      0x20\n      add\n      swap1\n      dup2\n      mstore\n      0x20\n      add\n      0x00\n      keccak256\n      0x00\n      swap1\n      sload\n      swap1\n      0x0100\n      exp\n      swap1\n      div\n      0xffffffffffffffffffffffffffffffffffffffff\n      and\n        /* \"TopicFactory.sol\":5238:5244  topics */\n      dup3\n        /* \"TopicFactory.sol\":5245:5246  i */\n      dup3\n        /* \"TopicFactory.sol\":5238:5247  topics[i] */\n      dup2\n      mload\n      dup2\n      lt\n      tag_192\n      jumpi\n      invalid\n    tag_192:\n      0x20\n      mul\n      0x20\n      add\n      add\n        /* \"TopicFactory.sol\":5238:5276  topics[i] = deployedTopics[keyList[i]] */\n      swap1\n      0xffffffffffffffffffffffffffffffffffffffff\n      and\n      swap1\n      dup2\n      0xffffffffffffffffffffffffffffffffffffffff\n      and\n      dup2\n      mstore\n      pop\n      pop\n        /* \"TopicFactory.sol\":5218:5221  i++ */\n      dup1\n      dup1\n      0x01\n      add\n      swap2\n      pop\n      pop\n        /* \"TopicFactory.sol\":5181:5288  for (uint i = 0; i < keyList.length; i++) {\r... */\n      jump(tag_188)\n    tag_189:\n      pop\n        /* \"TopicFactory.sol\":5307:5313  topics */\n      dup1\n        /* \"TopicFactory.sol\":5300:5313  return topics */\n      swap3\n      pop\n      pop\n      pop\n        /* \"TopicFactory.sol\":4969:5321  function convertKeyListToTopicList(bytes32[] memory keyList) internal view returns (address[] memory) {\r... */\n      swap2\n      swap1\n      pop\n      jump\t// out\n        /* \"HitchensUnorderedKeySet.sol\":2587:2713  function keyAtIndex(Set storage self, uint index) internal view returns(bytes32) {\r... */\n    tag_141:\n        /* \"HitchensUnorderedKeySet.sol\":2659:2666  bytes32 */\n      0x00\n        /* \"HitchensUnorderedKeySet.sol\":2686:2690  self */\n      dup3\n        /* \"HitchensUnorderedKeySet.sol\":2686:2698  self.keyList */\n      0x01\n      add\n        /* \"HitchensUnorderedKeySet.sol\":2699:2704  index */\n      dup3\n        /* \"HitchensUnorderedKeySet.sol\":2686:2705  self.keyList[index] */\n      dup2\n      sload\n      dup2\n      lt\n      tag_194\n      jumpi\n      invalid\n    tag_194:\n      swap1\n      0x00\n      mstore\n      keccak256(0x00, 0x20)\n      add\n      sload\n        /* \"HitchensUnorderedKeySet.sol\":2679:2705  return self.keyList[index] */\n      swap1\n      pop\n        /* \"HitchensUnorderedKeySet.sol\":2587:2713  function keyAtIndex(Set storage self, uint index) internal view returns(bytes32) {\r... */\n      swap3\n      swap2\n      pop\n      pop\n      jump\t// out\n        /* \"HitchensUnorderedKeySet.sol\":2380:2575  function exists(Set storage self, bytes32 key) internal view returns(bool) {\r... */\n    tag_143:\n        /* \"HitchensUnorderedKeySet.sol\":2449:2453  bool */\n      0x00\n        /* \"HitchensUnorderedKeySet.sol\":2492:2493  0 */\n      dup1\n        /* \"HitchensUnorderedKeySet.sol\":2469:2473  self */\n      dup4\n        /* \"HitchensUnorderedKeySet.sol\":2469:2481  self.keyList */\n      0x01\n      add\n        /* \"HitchensUnorderedKeySet.sol\":2469:2488  self.keyList.length */\n      dup1\n      sload\n      swap1\n      pop\n        /* \"HitchensUnorderedKeySet.sol\":2469:2493  self.keyList.length == 0 */\n      eq\n        /* \"HitchensUnorderedKeySet.sol\":2466:2507  if(self.keyList.length == 0) return false */\n      iszero\n      tag_197\n      jumpi\n        /* \"HitchensUnorderedKeySet.sol\":2502:2507  false */\n      0x00\n        /* \"HitchensUnorderedKeySet.sol\":2495:2507  return false */\n      swap1\n      pop\n      jump(tag_196)\n        /* \"HitchensUnorderedKeySet.sol\":2466:2507  if(self.keyList.length == 0) return false */\n    tag_197:\n        /* \"HitchensUnorderedKeySet.sol\":2564:2567  key */\n      dup2\n        /* \"HitchensUnorderedKeySet.sol\":2525:2529  self */\n      dup4\n        /* \"HitchensUnorderedKeySet.sol\":2525:2537  self.keyList */\n      0x01\n      add\n        /* \"HitchensUnorderedKeySet.sol\":2538:2542  self */\n      dup5\n        /* \"HitchensUnorderedKeySet.sol\":2538:2554  self.keyPointers */\n      0x00\n      add\n        /* \"HitchensUnorderedKeySet.sol\":2538:2559  self.keyPointers[key] */\n      0x00\n        /* \"HitchensUnorderedKeySet.sol\":2555:2558  key */\n      dup6\n        /* \"HitchensUnorderedKeySet.sol\":2538:2559  self.keyPointers[key] */\n      dup2\n      mstore\n      0x20\n      add\n      swap1\n      dup2\n      mstore\n      0x20\n      add\n      0x00\n      keccak256\n      sload\n        /* \"HitchensUnorderedKeySet.sol\":2525:2560  self.keyList[self.keyPointers[key]] */\n      dup2\n      sload\n      dup2\n      lt\n      tag_198\n      jumpi\n      invalid\n    tag_198:\n      swap1\n      0x00\n      mstore\n      keccak256(0x00, 0x20)\n      add\n      sload\n        /* \"HitchensUnorderedKeySet.sol\":2525:2567  self.keyList[self.keyPointers[key]] == key */\n      eq\n        /* \"HitchensUnorderedKeySet.sol\":2518:2567  return self.keyList[self.keyPointers[key]] == key */\n      swap1\n      pop\n        /* \"HitchensUnorderedKeySet.sol\":2380:2575  function exists(Set storage self, bytes32 key) internal view returns(bool) {\r... */\n    tag_196:\n      swap3\n      swap2\n      pop\n      pop\n      jump\t// out\n        /* \"HitchensUnorderedKeySet.sol\":1808:2249  function remove(Set storage self, bytes32 key) internal {\r... */\n    tag_176:\n        /* \"HitchensUnorderedKeySet.sol\":1883:1900  exists(self, key) */\n      tag_201\n        /* \"HitchensUnorderedKeySet.sol\":1890:1894  self */\n      dup3\n        /* \"HitchensUnorderedKeySet.sol\":1896:1899  key */\n      dup3\n        /* \"HitchensUnorderedKeySet.sol\":1883:1889  exists */\n      tag_143\n        /* \"HitchensUnorderedKeySet.sol\":1883:1900  exists(self, key) */\n      jump\t// in\n    tag_201:\n        /* \"HitchensUnorderedKeySet.sol\":1875:1958  require(exists(self, key), \"UnorderedKeySet(102) - Key does not exist in the set.\") */\n      tag_202\n      jumpi\n      mload(0x40)\n      0x08c379a000000000000000000000000000000000000000000000000000000000\n      dup2\n      mstore\n      0x04\n      add\n      dup1\n      dup1\n      0x20\n      add\n      dup3\n      dup2\n      sub\n      dup3\n      mstore\n      0x35\n      dup2\n      mstore\n      0x20\n      add\n      dup1\n      data_61f1f9f8ef6df4c42c63d617cab416dc9160e01550810a06a36ecb113bd20fda\n      0x35\n      swap2\n      codecopy\n      0x40\n      add\n      swap2\n      pop\n      pop\n      mload(0x40)\n      dup1\n      swap2\n      sub\n      swap1\n      revert\n    tag_202:\n        /* \"HitchensUnorderedKeySet.sol\":1969:1986  bytes32 keyToMove */\n      0x00\n        /* \"HitchensUnorderedKeySet.sol\":1989:1993  self */\n      dup3\n        /* \"HitchensUnorderedKeySet.sol\":1989:2001  self.keyList */\n      0x01\n      add\n        /* \"HitchensUnorderedKeySet.sol\":2014:2015  1 */\n      0x01\n        /* \"HitchensUnorderedKeySet.sol\":2002:2013  count(self) */\n      tag_203\n        /* \"HitchensUnorderedKeySet.sol\":2008:2012  self */\n      dup6\n        /* \"HitchensUnorderedKeySet.sol\":2002:2007  count */\n      tag_116\n        /* \"HitchensUnorderedKeySet.sol\":2002:2013  count(self) */\n      jump\t// in\n    tag_203:\n        /* \"HitchensUnorderedKeySet.sol\":2002:2015  count(self)-1 */\n      sub\n        /* \"HitchensUnorderedKeySet.sol\":1989:2016  self.keyList[count(self)-1] */\n      dup2\n      sload\n      dup2\n      lt\n      tag_204\n      jumpi\n      invalid\n    tag_204:\n      swap1\n      0x00\n      mstore\n      keccak256(0x00, 0x20)\n      add\n      sload\n        /* \"HitchensUnorderedKeySet.sol\":1969:2016  bytes32 keyToMove = self.keyList[count(self)-1] */\n      swap1\n      pop\n        /* \"HitchensUnorderedKeySet.sol\":2027:2044  uint rowToReplace */\n      0x00\n        /* \"HitchensUnorderedKeySet.sol\":2047:2051  self */\n      dup4\n        /* \"HitchensUnorderedKeySet.sol\":2047:2063  self.keyPointers */\n      0x00\n      add\n        /* \"HitchensUnorderedKeySet.sol\":2047:2068  self.keyPointers[key] */\n      0x00\n        /* \"HitchensUnorderedKeySet.sol\":2064:2067  key */\n      dup5\n        /* \"HitchensUnorderedKeySet.sol\":2047:2068  self.keyPointers[key] */\n      dup2\n      mstore\n      0x20\n      add\n      swap1\n      dup2\n      mstore\n      0x20\n      add\n      0x00\n      keccak256\n      sload\n        /* \"HitchensUnorderedKeySet.sol\":2027:2068  uint rowToReplace = self.keyPointers[key] */\n      swap1\n      pop\n        /* \"HitchensUnorderedKeySet.sol\":2109:2121  rowToReplace */\n      dup1\n        /* \"HitchensUnorderedKeySet.sol\":2079:2083  self */\n      dup5\n        /* \"HitchensUnorderedKeySet.sol\":2079:2095  self.keyPointers */\n      0x00\n      add\n        /* \"HitchensUnorderedKeySet.sol\":2079:2106  self.keyPointers[keyToMove] */\n      0x00\n        /* \"HitchensUnorderedKeySet.sol\":2096:2105  keyToMove */\n      dup5\n        /* \"HitchensUnorderedKeySet.sol\":2079:2106  self.keyPointers[keyToMove] */\n      dup2\n      mstore\n      0x20\n      add\n      swap1\n      dup2\n      mstore\n      0x20\n      add\n      0x00\n      keccak256\n        /* \"HitchensUnorderedKeySet.sol\":2079:2121  self.keyPointers[keyToMove] = rowToReplace */\n      dup2\n      swap1\n      sstore\n      pop\n        /* \"HitchensUnorderedKeySet.sol\":2161:2170  keyToMove */\n      dup2\n        /* \"HitchensUnorderedKeySet.sol\":2132:2136  self */\n      dup5\n        /* \"HitchensUnorderedKeySet.sol\":2132:2144  self.keyList */\n      0x01\n      add\n        /* \"HitchensUnorderedKeySet.sol\":2145:2157  rowToReplace */\n      dup3\n        /* \"HitchensUnorderedKeySet.sol\":2132:2158  self.keyList[rowToReplace] */\n      dup2\n      sload\n      dup2\n      lt\n      tag_206\n      jumpi\n      invalid\n    tag_206:\n      swap1\n      0x00\n      mstore\n      keccak256(0x00, 0x20)\n      add\n        /* \"HitchensUnorderedKeySet.sol\":2132:2170  self.keyList[rowToReplace] = keyToMove */\n      dup2\n      swap1\n      sstore\n      pop\n        /* \"HitchensUnorderedKeySet.sol\":2188:2192  self */\n      dup4\n        /* \"HitchensUnorderedKeySet.sol\":2188:2204  self.keyPointers */\n      0x00\n      add\n        /* \"HitchensUnorderedKeySet.sol\":2188:2209  self.keyPointers[key] */\n      0x00\n        /* \"HitchensUnorderedKeySet.sol\":2205:2208  key */\n      dup5\n        /* \"HitchensUnorderedKeySet.sol\":2188:2209  self.keyPointers[key] */\n      dup2\n      mstore\n      0x20\n      add\n      swap1\n      dup2\n      mstore\n      0x20\n      add\n      0x00\n      keccak256\n        /* \"HitchensUnorderedKeySet.sol\":2181:2209  delete self.keyPointers[key] */\n      0x00\n      swap1\n      sstore\n        /* \"HitchensUnorderedKeySet.sol\":2220:2224  self */\n      dup4\n        /* \"HitchensUnorderedKeySet.sol\":2220:2232  self.keyList */\n      0x01\n      add\n        /* \"HitchensUnorderedKeySet.sol\":2220:2241  self.keyList.length-- */\n      dup1\n      sload\n      dup1\n      swap2\n      swap1\n      0x01\n      swap1\n      sub\n      tag_208\n      swap2\n      swap1\n      tag_209\n      jump\t// in\n    tag_208:\n      pop\n        /* \"HitchensUnorderedKeySet.sol\":1808:2249  function remove(Set storage self, bytes32 key) internal {\r... */\n      pop\n      pop\n      pop\n      pop\n      jump\t// out\n        /* \"TopicFactory.sol\":157:6450  contract TopicFactory {\r... */\n    tag_98:\n      dataSize(sub_0)\n      dup1\n      dataOffset(sub_0)\n      dup4\n      codecopy\n      add\n      swap1\n      jump\t// out\n    tag_209:\n      dup2\n      sload\n      dup2\n      dup4\n      sstore\n      dup2\n      dup2\n      gt\n      iszero\n      tag_210\n      jumpi\n      dup2\n      dup4\n      0x00\n      mstore\n      keccak256(0x00, 0x20)\n      swap2\n      dup3\n      add\n      swap2\n      add\n      tag_211\n      swap2\n      swap1\n      tag_212\n      jump\t// in\n    tag_211:\n    tag_210:\n      pop\n      pop\n      pop\n      jump\t// out\n    tag_212:\n      tag_213\n      swap2\n      swap1\n    tag_214:\n      dup1\n      dup3\n      gt\n      iszero\n      tag_215\n      jumpi\n      0x00\n      dup2\n      0x00\n      swap1\n      sstore\n      pop\n      0x01\n      add\n      jump(tag_214)\n    tag_215:\n      pop\n      swap1\n      jump\n    tag_213:\n      swap1\n      jump\t// out\n    stop\n    data_031dac4c0fd3fb26da649d964b99c1bb58fd5db59b37cd2a44f64d4951cf8636 556e6f7264657265644b65795365742831303029202d204b65792063616e6e6f7420626520307830\n    data_0367d8750ab86e28eeeac06254f9df02e49d23539ed9d756e3bfa1b28596c2d1 596f75206d757374206265207468652063726561746f72206f66207468697320546f70696320466163746f727920696e206f7264657220746f20646f20746869732e\n    data_3addc1733ef1a0e4379892d889443257fa7c6127308b38f696d35dc85a617f37 4120546f7069632041737369676e657220636f6e74726163742061646472657373206d7573742062652061737369676e6564206265666f7265206265696e672061626c6520746f2063726561746520616e79206e657720746f706963732e\n    data_61f1f9f8ef6df4c42c63d617cab416dc9160e01550810a06a36ecb113bd20fda 556e6f7264657265644b65795365742831303229202d204b657920646f6573206e6f7420657869737420696e20746865207365742e\n    data_67f17f030c1d3538f6834d76d11770053274b85005c1c4396304442b3cc9116e 556e6f7264657265644b65795365742831303129202d204b657920616c72656164792065786973747320696e20746865207365742e\n    data_97ed1b1ec3ae07cffbdd6ba7bff5a0c6f0326b64889699cc9bc6826284d70392 596f75206d75737420626520616e2061646d696e20696e206f7264657220746f20646f20746869732e\n    data_a80fafd586c1e4992bd97ee2afc29fade136833ddf03511fc7938d2b94f4e312 43616e277420676574206120746f706963207468617420646f65736e27742065786973742e\n    data_b53c818400d7a722da0d1e70624cbdcd3712e375ff80ef96a605395596cfc7d9 4f6e6c792074686520746f70696320636f6e747261637420697473656c662063616e20636f6d706c6574652074686520636f6e74726163742e\n\n    sub_0: assembly {\n            /* \"Topic.sol\":96:11994  contract Topic {\r... */\n          mstore(0x40, 0x80)\n            /* \"Topic.sol\":1911:2662  constructor(address _topicFactoryAddress, address repFactoryAddress, address _topicAssignerAddress, string memory topicContent, uint minInvestment, uint secondsAvailable, address sender) public {\r... */\n          callvalue\n            /* \"--CODEGEN--\":8:17   */\n          dup1\n            /* \"--CODEGEN--\":5:7   */\n          iszero\n          tag_1\n          jumpi\n            /* \"--CODEGEN--\":30:31   */\n          0x00\n            /* \"--CODEGEN--\":27:28   */\n          dup1\n            /* \"--CODEGEN--\":20:32   */\n          revert\n            /* \"--CODEGEN--\":5:7   */\n        tag_1:\n            /* \"Topic.sol\":1911:2662  constructor(address _topicFactoryAddress, address repFactoryAddress, address _topicAssignerAddress, string memory topicContent, uint minInvestment, uint secondsAvailable, address sender) public {\r... */\n          pop\n          mload(0x40)\n          sub(codesize, bytecodeSize)\n          dup1\n          bytecodeSize\n          dup4\n          codecopy\n          dup2\n          dup2\n          add\n          0x40\n          mstore\n            /* \"--CODEGEN--\":13:16   */\n          0xe0\n            /* \"--CODEGEN--\":8:11   */\n          dup2\n            /* \"--CODEGEN--\":5:17   */\n          lt\n            /* \"--CODEGEN--\":2:4   */\n          iszero\n          tag_2\n          jumpi\n            /* \"--CODEGEN--\":30:31   */\n          0x00\n            /* \"--CODEGEN--\":27:28   */\n          dup1\n            /* \"--CODEGEN--\":20:32   */\n          revert\n            /* \"--CODEGEN--\":2:4   */\n        tag_2:\n            /* \"Topic.sol\":1911:2662  constructor(address _topicFactoryAddress, address repFactoryAddress, address _topicAssignerAddress, string memory topicContent, uint minInvestment, uint secondsAvailable, address sender) public {\r... */\n          dup2\n          add\n          swap1\n          dup1\n          dup1\n          mload\n          swap1\n          0x20\n          add\n          swap1\n          swap3\n          swap2\n          swap1\n          dup1\n          mload\n          swap1\n          0x20\n          add\n          swap1\n          swap3\n          swap2\n          swap1\n          dup1\n          mload\n          swap1\n          0x20\n          add\n          swap1\n          swap3\n          swap2\n          swap1\n          dup1\n          mload\n          mload(0x40)\n          swap4\n          swap3\n          swap2\n          swap1\n          dup5\n            /* \"--CODEGEN--\":19:30   */\n          0x0100000000\n            /* \"--CODEGEN--\":14:17   */\n          dup3\n            /* \"--CODEGEN--\":11:31   */\n          gt\n            /* \"--CODEGEN--\":8:10   */\n          iszero\n          tag_3\n          jumpi\n            /* \"--CODEGEN--\":44:45   */\n          0x00\n            /* \"--CODEGEN--\":41:42   */\n          dup1\n            /* \"--CODEGEN--\":34:46   */\n          revert\n            /* \"--CODEGEN--\":8:10   */\n        tag_3:\n            /* \"--CODEGEN--\":71:82   */\n          dup4\n            /* \"--CODEGEN--\":66:69   */\n          dup3\n            /* \"--CODEGEN--\":62:83   */\n          add\n            /* \"--CODEGEN--\":55:83   */\n          swap2\n          pop\n            /* \"--CODEGEN--\":123:127   */\n          0x20\n            /* \"--CODEGEN--\":118:121   */\n          dup3\n            /* \"--CODEGEN--\":114:128   */\n          add\n            /* \"--CODEGEN--\":159:168   */\n          dup6\n            /* \"--CODEGEN--\":141:157   */\n          dup2\n            /* \"--CODEGEN--\":138:169   */\n          gt\n            /* \"--CODEGEN--\":135:137   */\n          iszero\n          tag_4\n          jumpi\n            /* \"--CODEGEN--\":182:183   */\n          0x00\n            /* \"--CODEGEN--\":179:180   */\n          dup1\n            /* \"--CODEGEN--\":172:184   */\n          revert\n            /* \"--CODEGEN--\":135:137   */\n        tag_4:\n            /* \"--CODEGEN--\":219:222   */\n          dup3\n            /* \"--CODEGEN--\":213:223   */\n          mload\n            /* \"--CODEGEN--\":330:339   */\n          dup7\n            /* \"--CODEGEN--\":325:326   */\n          0x01\n            /* \"--CODEGEN--\":311:323   */\n          dup3\n            /* \"--CODEGEN--\":307:327   */\n          mul\n            /* \"--CODEGEN--\":289:305   */\n          dup4\n            /* \"--CODEGEN--\":285:328   */\n          add\n            /* \"--CODEGEN--\":282:340   */\n          gt\n            /* \"--CODEGEN--\":261:272   */\n          0x0100000000\n            /* \"--CODEGEN--\":247:259   */\n          dup3\n            /* \"--CODEGEN--\":244:273   */\n          gt\n            /* \"--CODEGEN--\":233:348   */\n          or\n            /* \"--CODEGEN--\":230:232   */\n          iszero\n          tag_5\n          jumpi\n            /* \"--CODEGEN--\":361:362   */\n          0x00\n            /* \"--CODEGEN--\":358:359   */\n          dup1\n            /* \"--CODEGEN--\":351:363   */\n          revert\n            /* \"--CODEGEN--\":230:232   */\n        tag_5:\n            /* \"--CODEGEN--\":384:396   */\n          dup1\n            /* \"--CODEGEN--\":379:382   */\n          dup4\n            /* \"--CODEGEN--\":372:397   */\n          mstore\n            /* \"--CODEGEN--\":420:424   */\n          0x20\n            /* \"--CODEGEN--\":415:418   */\n          dup4\n            /* \"--CODEGEN--\":411:425   */\n          add\n            /* \"--CODEGEN--\":404:425   */\n          swap3\n          pop\n            /* \"--CODEGEN--\":0:432   */\n          pop\n          pop\n            /* \"Topic.sol\":1911:2662  constructor(address _topicFactoryAddress, address repFactoryAddress, address _topicAssignerAddress, string memory topicContent, uint minInvestment, uint secondsAvailable, address sender) public {\r... */\n          swap1\n          dup1\n          mload\n          swap1\n          0x20\n          add\n          swap1\n          dup1\n          dup4\n          dup4\n            /* \"--CODEGEN--\":23:24   */\n          0x00\n            /* \"--CODEGEN--\":8:108   */\n        tag_6:\n            /* \"--CODEGEN--\":33:36   */\n          dup4\n            /* \"--CODEGEN--\":30:31   */\n          dup2\n            /* \"--CODEGEN--\":27:37   */\n          lt\n            /* \"--CODEGEN--\":8:108   */\n          iszero\n          tag_8\n          jumpi\n            /* \"--CODEGEN--\":99:100   */\n          dup1\n            /* \"--CODEGEN--\":94:97   */\n          dup3\n            /* \"--CODEGEN--\":90:101   */\n          add\n            /* \"--CODEGEN--\":84:102   */\n          mload\n            /* \"--CODEGEN--\":80:81   */\n          dup2\n            /* \"--CODEGEN--\":75:78   */\n          dup5\n            /* \"--CODEGEN--\":71:82   */\n          add\n            /* \"--CODEGEN--\":64:103   */\n          mstore\n            /* \"--CODEGEN--\":52:54   */\n          0x20\n            /* \"--CODEGEN--\":49:50   */\n          dup2\n            /* \"--CODEGEN--\":45:55   */\n          add\n            /* \"--CODEGEN--\":40:55   */\n          swap1\n          pop\n            /* \"--CODEGEN--\":8:108   */\n          jump(tag_6)\n        tag_8:\n            /* \"--CODEGEN--\":12:26   */\n          pop\n            /* \"Topic.sol\":1911:2662  constructor(address _topicFactoryAddress, address repFactoryAddress, address _topicAssignerAddress, string memory topicContent, uint minInvestment, uint secondsAvailable, address sender) public {\r... */\n          pop\n          pop\n          pop\n          swap1\n          pop\n          swap1\n          dup2\n          add\n          swap1\n          0x1f\n          and\n          dup1\n          iszero\n          tag_9\n          jumpi\n          dup1\n          dup3\n          sub\n          dup1\n          mload\n          0x01\n          dup4\n          0x20\n          sub\n          0x0100\n          exp\n          sub\n          not\n          and\n          dup2\n          mstore\n          0x20\n          add\n          swap2\n          pop\n        tag_9:\n          pop\n          0x40\n          mstore\n          0x20\n          add\n          dup1\n          mload\n          swap1\n          0x20\n          add\n          swap1\n          swap3\n          swap2\n          swap1\n          dup1\n          mload\n          swap1\n          0x20\n          add\n          swap1\n          swap3\n          swap2\n          swap1\n          dup1\n          mload\n          swap1\n          0x20\n          add\n          swap1\n          swap3\n          swap2\n          swap1\n          pop\n          pop\n          pop\n            /* \"Topic.sol\":2138:2158  _topicFactoryAddress */\n          dup7\n            /* \"Topic.sol\":2116:2135  topicFactoryAddress */\n          0x02\n          0x00\n            /* \"Topic.sol\":2116:2158  topicFactoryAddress = _topicFactoryAddress */\n          0x0100\n          exp\n          dup2\n          sload\n          dup2\n          0xffffffffffffffffffffffffffffffffffffffff\n          mul\n          not\n          and\n          swap1\n          dup4\n          0xffffffffffffffffffffffffffffffffffffffff\n          and\n          mul\n          or\n          swap1\n          sstore\n          pop\n            /* \"Topic.sol\":2196:2213  repFactoryAddress */\n          dup6\n            /* \"Topic.sol\":2169:2193  reputationFactoryAddress */\n          0x00\n          dup1\n            /* \"Topic.sol\":2169:2213  reputationFactoryAddress = repFactoryAddress */\n          0x0100\n          exp\n          dup2\n          sload\n          dup2\n          0xffffffffffffffffffffffffffffffffffffffff\n          mul\n          not\n          and\n          swap1\n          dup4\n          0xffffffffffffffffffffffffffffffffffffffff\n          and\n          mul\n          or\n          swap1\n          sstore\n          pop\n            /* \"Topic.sol\":2247:2268  _topicAssignerAddress */\n          dup5\n            /* \"Topic.sol\":2224:2244  topicAssignerAddress */\n          0x01\n          0x00\n            /* \"Topic.sol\":2224:2268  topicAssignerAddress = _topicAssignerAddress */\n          0x0100\n          exp\n          dup2\n          sload\n          dup2\n          0xffffffffffffffffffffffffffffffffffffffff\n          mul\n          not\n          and\n          swap1\n          dup4\n          0xffffffffffffffffffffffffffffffffffffffff\n          and\n          mul\n          or\n          swap1\n          sstore\n          pop\n            /* \"Topic.sol\":2289:2301  topicContent */\n          dup4\n            /* \"Topic.sol\":2279:2286  content */\n          0x03\n            /* \"Topic.sol\":2279:2301  content = topicContent */\n          swap1\n          dup1\n          mload\n          swap1\n          0x20\n          add\n          swap1\n          tag_12\n          swap3\n          swap2\n          swap1\n          tag_13\n          jump\t// in\n        tag_12:\n          pop\n            /* \"Topic.sol\":2332:2345  minInvestment */\n          dup3\n            /* \"Topic.sol\":2312:2329  minimumInvestment */\n          0x05\n            /* \"Topic.sol\":2312:2345  minimumInvestment = minInvestment */\n          dup2\n          swap1\n          sstore\n          pop\n            /* \"Topic.sol\":2366:2372  sender */\n          dup1\n            /* \"Topic.sol\":2356:2363  creator */\n          0x04\n          0x00\n            /* \"Topic.sol\":2356:2372  creator = sender */\n          0x0100\n          exp\n          dup2\n          sload\n          dup2\n          0xffffffffffffffffffffffffffffffffffffffff\n          mul\n          not\n          and\n          swap1\n          dup4\n          0xffffffffffffffffffffffffffffffffffffffff\n          and\n          mul\n          or\n          swap1\n          sstore\n          pop\n            /* \"Topic.sol\":2394:2395  0 */\n          0x00\n            /* \"Topic.sol\":2383:2391  majority */\n          0x16\n            /* \"Topic.sol\":2383:2395  majority = 0 */\n          dup2\n          swap1\n          sstore\n          pop\n            /* \"Topic.sol\":2454:2463  1 seconds */\n          0x01\n            /* \"Topic.sol\":2434:2450  secondsAvailable */\n          dup3\n            /* \"Topic.sol\":2434:2463  secondsAvailable  * 1 seconds */\n          mul\n            /* \"Topic.sol\":2416:2431  block.timestamp */\n          timestamp\n            /* \"Topic.sol\":2416:2463  block.timestamp + secondsAvailable  * 1 seconds */\n          add\n            /* \"Topic.sol\":2406:2413  endTime */\n          0x06\n            /* \"Topic.sol\":2406:2463  endTime = block.timestamp + secondsAvailable  * 1 seconds */\n          dup2\n          swap1\n          sstore\n          pop\n            /* \"Topic.sol\":2497:2498  0 */\n          0x00\n            /* \"Topic.sol\":2476:2494  finalMonetaryTotal */\n          0x0e\n            /* \"Topic.sol\":2476:2498  finalMonetaryTotal = 0 */\n          dup2\n          swap1\n          sstore\n          pop\n            /* \"Topic.sol\":2567:2654  createArgument('You have not chosen yet whether the statement is true or false', false) */\n          tag_14\n          mload(0x40)\n          dup1\n          0x60\n          add\n          0x40\n          mstore\n          dup1\n          0x3e\n          dup2\n          mstore\n          0x20\n          add\n          data_aa34df7392f94c823c9355455ea589580c646b3576ea8448d1271c2c6cadfb70\n          0x3e\n          swap2\n          codecopy\n            /* \"Topic.sol\":2648:2653  false */\n          0x00\n            /* \"Topic.sol\":2567:2581  createArgument */\n          shl(0x20, tag_15)\n            /* \"Topic.sol\":2567:2654  createArgument('You have not chosen yet whether the statement is true or false', false) */\n          0x20\n          shr\n          jump\t// in\n        tag_14:\n            /* \"Topic.sol\":1911:2662  constructor(address _topicFactoryAddress, address repFactoryAddress, address _topicAssignerAddress, string memory topicContent, uint minInvestment, uint secondsAvailable, address sender) public {\r... */\n          pop\n          pop\n          pop\n          pop\n          pop\n          pop\n          pop\n            /* \"Topic.sol\":96:11994  contract Topic {\r... */\n          jump(tag_16)\n            /* \"Topic.sol\":4424:4919  function createArgument(string memory argumentContent, bool belief) public _mustBeWithinTimeFrame {\r... */\n        tag_15:\n            /* \"Topic.sol\":1790:1797  endTime */\n          sload(0x06)\n            /* \"Topic.sol\":1772:1787  block.timestamp */\n          timestamp\n            /* \"Topic.sol\":1772:1797  block.timestamp < endTime */\n          lt\n            /* \"Topic.sol\":1764:1845  require(block.timestamp < endTime, 'The period for the Topic has already ended.') */\n          tag_18\n          jumpi\n          mload(0x40)\n          0x08c379a000000000000000000000000000000000000000000000000000000000\n          dup2\n          mstore\n          0x04\n          add\n          dup1\n          dup1\n          0x20\n          add\n          dup3\n          dup2\n          sub\n          dup3\n          mstore\n          0x2b\n          dup2\n          mstore\n          0x20\n          add\n          dup1\n          data_9f7f122b70f117f8950311c325d9279ba88d6a0d2b593ed4f11b7663b9f48d07\n          0x2b\n          swap2\n          codecopy\n          0x40\n          add\n          swap2\n          pop\n          pop\n          mload(0x40)\n          dup1\n          swap2\n          sub\n          swap1\n          revert\n        tag_18:\n            /* \"Topic.sol\":4572:4573  0 */\n          0x00\n            /* \"Topic.sol\":4541:4556  createdArgument */\n          0x13\n            /* \"Topic.sol\":4541:4568  createdArgument[msg.sender] */\n          0x00\n            /* \"Topic.sol\":4557:4567  msg.sender */\n          caller\n            /* \"Topic.sol\":4541:4568  createdArgument[msg.sender] */\n          0xffffffffffffffffffffffffffffffffffffffff\n          and\n          0xffffffffffffffffffffffffffffffffffffffff\n          and\n          dup2\n          mstore\n          0x20\n          add\n          swap1\n          dup2\n          mstore\n          0x20\n          add\n          0x00\n          keccak256\n          sload\n            /* \"Topic.sol\":4541:4573  createdArgument[msg.sender] == 0 */\n          eq\n            /* \"Topic.sol\":4533:4615  require(createdArgument[msg.sender] == 0, 'You have already created an argument.') */\n          tag_20\n          jumpi\n          mload(0x40)\n          0x08c379a000000000000000000000000000000000000000000000000000000000\n          dup2\n          mstore\n          0x04\n          add\n          dup1\n          dup1\n          0x20\n          add\n          dup3\n          dup2\n          sub\n          dup3\n          mstore\n          0x25\n          dup2\n          mstore\n          0x20\n          add\n          dup1\n          data_8912f675a50e382e9fd7b592cf1cd9595235c43ce4309904b1bd35e2a18fc4ee\n          0x25\n          swap2\n          codecopy\n          0x40\n          add\n          swap2\n          pop\n          pop\n          mload(0x40)\n          dup1\n          swap2\n          sub\n          swap1\n          revert\n        tag_20:\n            /* \"Topic.sol\":4628:4655  Argument memory newArgument */\n          tag_21\n          tag_22\n          jump\t// in\n        tag_21:\n            /* \"Topic.sol\":4658:4808  Argument({\r... */\n          mload(0x40)\n          dup1\n          0x80\n          add\n          0x40\n          mstore\n          dup1\n            /* \"Topic.sol\":4691:4706  argumentContent */\n          dup5\n            /* \"Topic.sol\":4658:4808  Argument({\r... */\n          dup2\n          mstore\n          0x20\n          add\n            /* \"Topic.sol\":4729:4735  belief */\n          dup4\n            /* \"Topic.sol\":4658:4808  Argument({\r... */\n          iszero\n          iszero\n          dup2\n          mstore\n          0x20\n          add\n            /* \"Topic.sol\":4759:4769  msg.sender */\n          caller\n            /* \"Topic.sol\":4658:4808  Argument({\r... */\n          0xffffffffffffffffffffffffffffffffffffffff\n          and\n          dup2\n          mstore\n          0x20\n          add\n            /* \"Topic.sol\":4795:4796  0 */\n          0x00\n            /* \"Topic.sol\":4658:4808  Argument({\r... */\n          dup2\n          mstore\n          pop\n            /* \"Topic.sol\":4628:4808  Argument memory newArgument = Argument({\r... */\n          swap1\n          pop\n            /* \"Topic.sol\":4819:4828  arguments */\n          0x07\n            /* \"Topic.sol\":4834:4845  newArgument */\n          dup2\n            /* \"Topic.sol\":4819:4846  arguments.push(newArgument) */\n          swap1\n          dup1\n            /* \"--CODEGEN--\":39:40   */\n          0x01\n            /* \"--CODEGEN--\":33:36   */\n          dup2\n            /* \"--CODEGEN--\":27:37   */\n          sload\n            /* \"--CODEGEN--\":23:41   */\n          add\n            /* \"--CODEGEN--\":57:67   */\n          dup1\n            /* \"--CODEGEN--\":52:55   */\n          dup3\n            /* \"--CODEGEN--\":45:68   */\n          sstore\n            /* \"--CODEGEN--\":79:89   */\n          dup1\n            /* \"--CODEGEN--\":72:89   */\n          swap2\n          pop\n            /* \"--CODEGEN--\":0:93   */\n          pop\n            /* \"Topic.sol\":4819:4846  arguments.push(newArgument) */\n          swap1\n          0x01\n          dup3\n          sub\n          swap1\n          0x00\n          mstore\n          keccak256(0x00, 0x20)\n          swap1\n          0x03\n          mul\n          add\n          0x00\n          swap1\n          swap2\n          swap3\n          swap1\n          swap2\n          swap1\n          swap2\n          pop\n          0x00\n          dup3\n          add\n          mload\n          dup2\n          0x00\n          add\n          swap1\n          dup1\n          mload\n          swap1\n          0x20\n          add\n          swap1\n          tag_24\n          swap3\n          swap2\n          swap1\n          tag_25\n          jump\t// in\n        tag_24:\n          pop\n          0x20\n          dup3\n          add\n          mload\n          dup2\n          0x01\n          add\n          exp(0x0100, 0x00)\n          dup2\n          sload\n          dup2\n          0xff\n          mul\n          not\n          and\n          swap1\n          dup4\n          iszero\n          iszero\n          mul\n          or\n          swap1\n          sstore\n          pop\n          0x40\n          dup3\n          add\n          mload\n          dup2\n          0x01\n          add\n          exp(0x0100, 0x01)\n          dup2\n          sload\n          dup2\n          0xffffffffffffffffffffffffffffffffffffffff\n          mul\n          not\n          and\n          swap1\n          dup4\n          0xffffffffffffffffffffffffffffffffffffffff\n          and\n          mul\n          or\n          swap1\n          sstore\n          pop\n          0x60\n          dup3\n          add\n          mload\n          dup2\n          0x02\n          add\n          sstore\n          pop\n          pop\n          pop\n            /* \"Topic.sol\":4908:4909  1 */\n          0x01\n            /* \"Topic.sol\":4887:4905  getArgumentCount() */\n          tag_26\n            /* \"Topic.sol\":4887:4903  getArgumentCount */\n          shl(0x20, tag_27)\n            /* \"Topic.sol\":4887:4905  getArgumentCount() */\n          0x20\n          shr\n          jump\t// in\n        tag_26:\n            /* \"Topic.sol\":4887:4909  getArgumentCount() - 1 */\n          sub\n            /* \"Topic.sol\":4857:4872  createdArgument */\n          0x13\n            /* \"Topic.sol\":4857:4884  createdArgument[msg.sender] */\n          0x00\n            /* \"Topic.sol\":4873:4883  msg.sender */\n          caller\n            /* \"Topic.sol\":4857:4884  createdArgument[msg.sender] */\n          0xffffffffffffffffffffffffffffffffffffffff\n          and\n          0xffffffffffffffffffffffffffffffffffffffff\n          and\n          dup2\n          mstore\n          0x20\n          add\n          swap1\n          dup2\n          mstore\n          0x20\n          add\n          0x00\n          keccak256\n            /* \"Topic.sol\":4857:4909  createdArgument[msg.sender] = getArgumentCount() - 1 */\n          dup2\n          swap1\n          sstore\n          pop\n            /* \"Topic.sol\":1856:1857  _ */\n          pop\n            /* \"Topic.sol\":4424:4919  function createArgument(string memory argumentContent, bool belief) public _mustBeWithinTimeFrame {\r... */\n          pop\n          pop\n          jump\t// out\n            /* \"Topic.sol\":5389:5486  function getArgumentCount() public view returns (uint) {\r... */\n        tag_27:\n            /* \"Topic.sol\":5438:5442  uint */\n          0x00\n            /* \"Topic.sol\":5462:5471  arguments */\n          0x07\n            /* \"Topic.sol\":5462:5478  arguments.length */\n          dup1\n          sload\n          swap1\n          pop\n            /* \"Topic.sol\":5455:5478  return arguments.length */\n          swap1\n          pop\n            /* \"Topic.sol\":5389:5486  function getArgumentCount() public view returns (uint) {\r... */\n          swap1\n          jump\t// out\n            /* \"Topic.sol\":96:11994  contract Topic {\r... */\n        tag_13:\n          dup3\n          dup1\n          sload\n          0x01\n          dup2\n          0x01\n          and\n          iszero\n          0x0100\n          mul\n          sub\n          and\n          0x02\n          swap1\n          div\n          swap1\n          0x00\n          mstore\n          keccak256(0x00, 0x20)\n          swap1\n          0x1f\n          add\n          0x20\n          swap1\n          div\n          dup2\n          add\n          swap3\n          dup3\n          0x1f\n          lt\n          tag_30\n          jumpi\n          dup1\n          mload\n          not(0xff)\n          and\n          dup4\n          dup1\n          add\n          or\n          dup6\n          sstore\n          jump(tag_29)\n        tag_30:\n          dup3\n          dup1\n          add\n          0x01\n          add\n          dup6\n          sstore\n          dup3\n          iszero\n          tag_29\n          jumpi\n          swap2\n          dup3\n          add\n        tag_31:\n          dup3\n          dup2\n          gt\n          iszero\n          tag_32\n          jumpi\n          dup3\n          mload\n          dup3\n          sstore\n          swap2\n          0x20\n          add\n          swap2\n          swap1\n          0x01\n          add\n          swap1\n          jump(tag_31)\n        tag_32:\n        tag_29:\n          pop\n          swap1\n          pop\n          tag_33\n          swap2\n          swap1\n          tag_34\n          jump\t// in\n        tag_33:\n          pop\n          swap1\n          jump\t// out\n        tag_22:\n          mload(0x40)\n          dup1\n          0x80\n          add\n          0x40\n          mstore\n          dup1\n          0x60\n          dup2\n          mstore\n          0x20\n          add\n          iszero(iszero(0x00))\n          dup2\n          mstore\n          0x20\n          add\n          and(0xffffffffffffffffffffffffffffffffffffffff, 0x00)\n          dup2\n          mstore\n          0x20\n          add\n          0x00\n          dup2\n          mstore\n          pop\n          swap1\n          jump\t// out\n        tag_25:\n          dup3\n          dup1\n          sload\n          0x01\n          dup2\n          0x01\n          and\n          iszero\n          0x0100\n          mul\n          sub\n          and\n          0x02\n          swap1\n          div\n          swap1\n          0x00\n          mstore\n          keccak256(0x00, 0x20)\n          swap1\n          0x1f\n          add\n          0x20\n          swap1\n          div\n          dup2\n          add\n          swap3\n          dup3\n          0x1f\n          lt\n          tag_36\n          jumpi\n          dup1\n          mload\n          not(0xff)\n          and\n          dup4\n          dup1\n          add\n          or\n          dup6\n          sstore\n          jump(tag_35)\n        tag_36:\n          dup3\n          dup1\n          add\n          0x01\n          add\n          dup6\n          sstore\n          dup3\n          iszero\n          tag_35\n          jumpi\n          swap2\n          dup3\n          add\n        tag_37:\n          dup3\n          dup2\n          gt\n          iszero\n          tag_38\n          jumpi\n          dup3\n          mload\n          dup3\n          sstore\n          swap2\n          0x20\n          add\n          swap2\n          swap1\n          0x01\n          add\n          swap1\n          jump(tag_37)\n        tag_38:\n        tag_35:\n          pop\n          swap1\n          pop\n          tag_39\n          swap2\n          swap1\n          tag_34\n          jump\t// in\n        tag_39:\n          pop\n          swap1\n          jump\t// out\n        tag_34:\n          tag_40\n          swap2\n          swap1\n        tag_41:\n          dup1\n          dup3\n          gt\n          iszero\n          tag_42\n          jumpi\n          0x00\n          dup2\n          0x00\n          swap1\n          sstore\n          pop\n          0x01\n          add\n          jump(tag_41)\n        tag_42:\n          pop\n          swap1\n          jump\n        tag_40:\n          swap1\n          jump\t// out\n        tag_16:\n          dataSize(sub_0)\n          dup1\n          dataOffset(sub_0)\n          0x00\n          codecopy\n          0x00\n          return\n        stop\n        data_8912f675a50e382e9fd7b592cf1cd9595235c43ce4309904b1bd35e2a18fc4ee 596f75206861766520616c7265616479206372656174656420616e20617267756d656e742e\n        data_9f7f122b70f117f8950311c325d9279ba88d6a0d2b593ed4f11b7663b9f48d07 54686520706572696f6420666f722074686520546f7069632068617320616c726561647920656e6465642e\n        data_aa34df7392f94c823c9355455ea589580c646b3576ea8448d1271c2c6cadfb70 596f752068617665206e6f742063686f73656e207965742077686574686572207468652073746174656d656e742069732074727565206f722066616c7365\n\n        sub_0: assembly {\n                /* \"Topic.sol\":96:11994  contract Topic {\r... */\n              mstore(0x40, 0x80)\n              jumpi(tag_1, lt(calldatasize, 0x04))\n              shr(0xe0, calldataload(0x00))\n              dup1\n              0x9380b1cf\n              gt\n              tag_38\n              jumpi\n              dup1\n              0xe478abab\n              gt\n              tag_39\n              jumpi\n              dup1\n              0xf9588ed9\n              gt\n              tag_40\n              jumpi\n              dup1\n              0xf9588ed9\n              eq\n              tag_33\n              jumpi\n              dup1\n              0xfa391c64\n              eq\n              tag_34\n              jumpi\n              dup1\n              0xfbba5cb9\n              eq\n              tag_35\n              jumpi\n              dup1\n              0xfbbf93a0\n              eq\n              tag_36\n              jumpi\n              dup1\n              0xfda9198b\n              eq\n              tag_37\n              jumpi\n              jump(tag_1)\n            tag_40:\n              dup1\n              0xe478abab\n              eq\n              tag_29\n              jumpi\n              dup1\n              0xe5d00035\n              eq\n              tag_30\n              jumpi\n              dup1\n              0xe72b0148\n              eq\n              tag_31\n              jumpi\n              dup1\n              0xf7ca7c72\n              eq\n              tag_32\n              jumpi\n              jump(tag_1)\n            tag_39:\n              dup1\n              0xb6e54bdf\n              gt\n              tag_41\n              jumpi\n              dup1\n              0xb6e54bdf\n              eq\n              tag_24\n              jumpi\n              dup1\n              0xc234d789\n              eq\n              tag_25\n              jumpi\n              dup1\n              0xc884ef83\n              eq\n              tag_26\n              jumpi\n              dup1\n              0xca94fb2b\n              eq\n              tag_27\n              jumpi\n              dup1\n              0xd04ae69d\n              eq\n              tag_28\n              jumpi\n              jump(tag_1)\n            tag_41:\n              dup1\n              0x9380b1cf\n              eq\n              tag_20\n              jumpi\n              dup1\n              0xaec2ccae\n              eq\n              tag_21\n              jumpi\n              dup1\n              0xb384abef\n              eq\n              tag_22\n              jumpi\n              dup1\n              0xb3b9ac1d\n              eq\n              tag_23\n              jumpi\n              jump(tag_1)\n            tag_38:\n              dup1\n              0x3197cbb6\n              gt\n              tag_42\n              jumpi\n              dup1\n              0x6dc7a627\n              gt\n              tag_43\n              jumpi\n              dup1\n              0x6dc7a627\n              eq\n              tag_15\n              jumpi\n              dup1\n              0x6e3ebc2e\n              eq\n              tag_16\n              jumpi\n              dup1\n              0x74986bfc\n              eq\n              tag_17\n              jumpi\n              dup1\n              0x85730fa1\n              eq\n              tag_18\n              jumpi\n              dup1\n              0x8a4d5a67\n              eq\n              tag_19\n              jumpi\n              jump(tag_1)\n            tag_43:\n              dup1\n              0x3197cbb6\n              eq\n              tag_11\n              jumpi\n              dup1\n              0x3ff894ad\n              eq\n              tag_12\n              jumpi\n              dup1\n              0x44fe9432\n              eq\n              tag_13\n              jumpi\n              dup1\n              0x4e71d92d\n              eq\n              tag_14\n              jumpi\n              jump(tag_1)\n            tag_42:\n              dup1\n              0x0a68f631\n              gt\n              tag_44\n              jumpi\n              dup1\n              0x0a68f631\n              eq\n              tag_6\n              jumpi\n              dup1\n              0x159e7064\n              eq\n              tag_7\n              jumpi\n              dup1\n              0x1c7cd6ac\n              eq\n              tag_8\n              jumpi\n              dup1\n              0x2b925b25\n              eq\n              tag_9\n              jumpi\n              dup1\n              0x2ec32e6d\n              eq\n              tag_10\n              jumpi\n              jump(tag_1)\n            tag_44:\n              dup1\n              0x02d05d3f\n              eq\n              tag_2\n              jumpi\n              dup1\n              0x0715ef00\n              eq\n              tag_3\n              jumpi\n              dup1\n              0x09c7caf1\n              eq\n              tag_4\n              jumpi\n              dup1\n              0x09f74db7\n              eq\n              tag_5\n              jumpi\n            tag_1:\n              stop\n                /* \"Topic.sol\":479:501  address public creator */\n            tag_2:\n              callvalue\n                /* \"--CODEGEN--\":8:17   */\n              dup1\n                /* \"--CODEGEN--\":5:7   */\n              iszero\n              tag_47\n              jumpi\n                /* \"--CODEGEN--\":30:31   */\n              0x00\n                /* \"--CODEGEN--\":27:28   */\n              dup1\n                /* \"--CODEGEN--\":20:32   */\n              revert\n                /* \"--CODEGEN--\":5:7   */\n            tag_47:\n                /* \"Topic.sol\":479:501  address public creator */\n              pop\n              tag_48\n              tag_49\n              jump\t// in\n            tag_48:\n              mload(0x40)\n              dup1\n              dup3\n              0xffffffffffffffffffffffffffffffffffffffff\n              and\n              0xffffffffffffffffffffffffffffffffffffffff\n              and\n              dup2\n              mstore\n              0x20\n              add\n              swap2\n              pop\n              pop\n              mload(0x40)\n              dup1\n              swap2\n              sub\n              swap1\n              return\n                /* \"Topic.sol\":4424:4919  function createArgument(string memory argumentContent, bool belief) public _mustBeWithinTimeFrame {\r... */\n            tag_3:\n              callvalue\n                /* \"--CODEGEN--\":8:17   */\n              dup1\n                /* \"--CODEGEN--\":5:7   */\n              iszero\n              tag_50\n              jumpi\n                /* \"--CODEGEN--\":30:31   */\n              0x00\n                /* \"--CODEGEN--\":27:28   */\n              dup1\n                /* \"--CODEGEN--\":20:32   */\n              revert\n                /* \"--CODEGEN--\":5:7   */\n            tag_50:\n                /* \"Topic.sol\":4424:4919  function createArgument(string memory argumentContent, bool belief) public _mustBeWithinTimeFrame {\r... */\n              pop\n              tag_51\n              0x04\n              dup1\n              calldatasize\n              sub\n                /* \"--CODEGEN--\":13:15   */\n              0x40\n                /* \"--CODEGEN--\":8:11   */\n              dup2\n                /* \"--CODEGEN--\":5:16   */\n              lt\n                /* \"--CODEGEN--\":2:4   */\n              iszero\n              tag_52\n              jumpi\n                /* \"--CODEGEN--\":29:30   */\n              0x00\n                /* \"--CODEGEN--\":26:27   */\n              dup1\n                /* \"--CODEGEN--\":19:31   */\n              revert\n                /* \"--CODEGEN--\":2:4   */\n            tag_52:\n                /* \"Topic.sol\":4424:4919  function createArgument(string memory argumentContent, bool belief) public _mustBeWithinTimeFrame {\r... */\n              dup2\n              add\n              swap1\n              dup1\n              dup1\n              calldataload\n              swap1\n              0x20\n              add\n              swap1\n                /* \"--CODEGEN--\":21:32   */\n              0x0100000000\n                /* \"--CODEGEN--\":8:19   */\n              dup2\n                /* \"--CODEGEN--\":5:33   */\n              gt\n                /* \"--CODEGEN--\":2:4   */\n              iszero\n              tag_53\n              jumpi\n                /* \"--CODEGEN--\":46:47   */\n              0x00\n                /* \"--CODEGEN--\":43:44   */\n              dup1\n                /* \"--CODEGEN--\":36:48   */\n              revert\n                /* \"--CODEGEN--\":2:4   */\n            tag_53:\n                /* \"Topic.sol\":4424:4919  function createArgument(string memory argumentContent, bool belief) public _mustBeWithinTimeFrame {\r... */\n              dup3\n              add\n                /* \"--CODEGEN--\":35:44   */\n              dup4\n                /* \"--CODEGEN--\":28:32   */\n              0x20\n                /* \"--CODEGEN--\":12:26   */\n              dup3\n                /* \"--CODEGEN--\":8:33   */\n              add\n                /* \"--CODEGEN--\":5:45   */\n              gt\n                /* \"--CODEGEN--\":2:4   */\n              iszero\n              tag_54\n              jumpi\n                /* \"--CODEGEN--\":58:59   */\n              0x00\n                /* \"--CODEGEN--\":55:56   */\n              dup1\n                /* \"--CODEGEN--\":48:60   */\n              revert\n                /* \"--CODEGEN--\":2:4   */\n            tag_54:\n                /* \"Topic.sol\":4424:4919  function createArgument(string memory argumentContent, bool belief) public _mustBeWithinTimeFrame {\r... */\n              dup1\n              calldataload\n              swap1\n              0x20\n              add\n              swap2\n                /* \"--CODEGEN--\":100:109   */\n              dup5\n                /* \"--CODEGEN--\":95:96   */\n              0x01\n                /* \"--CODEGEN--\":81:93   */\n              dup4\n                /* \"--CODEGEN--\":77:97   */\n              mul\n                /* \"--CODEGEN--\":67:75   */\n              dup5\n                /* \"--CODEGEN--\":63:98   */\n              add\n                /* \"--CODEGEN--\":60:110   */\n              gt\n                /* \"--CODEGEN--\":39:50   */\n              0x0100000000\n                /* \"--CODEGEN--\":25:37   */\n              dup4\n                /* \"--CODEGEN--\":22:51   */\n              gt\n                /* \"--CODEGEN--\":11:118   */\n              or\n                /* \"--CODEGEN--\":8:10   */\n              iszero\n              tag_55\n              jumpi\n                /* \"--CODEGEN--\":131:132   */\n              0x00\n                /* \"--CODEGEN--\":128:129   */\n              dup1\n                /* \"--CODEGEN--\":121:133   */\n              revert\n                /* \"--CODEGEN--\":8:10   */\n            tag_55:\n                /* \"Topic.sol\":4424:4919  function createArgument(string memory argumentContent, bool belief) public _mustBeWithinTimeFrame {\r... */\n              swap2\n              swap1\n              dup1\n              dup1\n              0x1f\n              add\n              0x20\n              dup1\n              swap2\n              div\n              mul\n              0x20\n              add\n              mload(0x40)\n              swap1\n              dup2\n              add\n              0x40\n              mstore\n              dup1\n              swap4\n              swap3\n              swap2\n              swap1\n              dup2\n              dup2\n              mstore\n              0x20\n              add\n              dup4\n              dup4\n                /* \"--CODEGEN--\":30:33   */\n              dup1\n                /* \"--CODEGEN--\":22:28   */\n              dup3\n                /* \"--CODEGEN--\":14:20   */\n              dup5\n                /* \"--CODEGEN--\":1:34   */\n              calldatacopy\n                /* \"--CODEGEN--\":99:100   */\n              0x00\n                /* \"--CODEGEN--\":93:96   */\n              dup2\n                /* \"--CODEGEN--\":85:91   */\n              dup5\n                /* \"--CODEGEN--\":81:97   */\n              add\n                /* \"--CODEGEN--\":74:101   */\n              mstore\n                /* \"--CODEGEN--\":137:141   */\n              0x1f\n                /* \"--CODEGEN--\":133:142   */\n              not\n                /* \"--CODEGEN--\":126:130   */\n              0x1f\n                /* \"--CODEGEN--\":121:124   */\n              dup3\n                /* \"--CODEGEN--\":117:131   */\n              add\n                /* \"--CODEGEN--\":113:143   */\n              and\n                /* \"--CODEGEN--\":106:143   */\n              swap1\n              pop\n                /* \"--CODEGEN--\":169:172   */\n              dup1\n                /* \"--CODEGEN--\":161:167   */\n              dup4\n                /* \"--CODEGEN--\":157:173   */\n              add\n                /* \"--CODEGEN--\":147:173   */\n              swap3\n              pop\n                /* \"Topic.sol\":4424:4919  function createArgument(string memory argumentContent, bool belief) public _mustBeWithinTimeFrame {\r... */\n              pop\n              pop\n              pop\n              pop\n              pop\n              pop\n              swap2\n              swap3\n              swap2\n              swap3\n              swap1\n              dup1\n              calldataload\n              iszero\n              iszero\n              swap1\n              0x20\n              add\n              swap1\n              swap3\n              swap2\n              swap1\n              pop\n              pop\n              pop\n              tag_56\n              jump\t// in\n            tag_51:\n              stop\n                /* \"Topic.sol\":852:902  mapping(address => uint) public monetaryInvestment */\n            tag_4:\n              callvalue\n                /* \"--CODEGEN--\":8:17   */\n              dup1\n                /* \"--CODEGEN--\":5:7   */\n              iszero\n              tag_57\n              jumpi\n                /* \"--CODEGEN--\":30:31   */\n              0x00\n                /* \"--CODEGEN--\":27:28   */\n              dup1\n                /* \"--CODEGEN--\":20:32   */\n              revert\n                /* \"--CODEGEN--\":5:7   */\n            tag_57:\n                /* \"Topic.sol\":852:902  mapping(address => uint) public monetaryInvestment */\n              pop\n              tag_58\n              0x04\n              dup1\n              calldatasize\n              sub\n                /* \"--CODEGEN--\":13:15   */\n              0x20\n                /* \"--CODEGEN--\":8:11   */\n              dup2\n                /* \"--CODEGEN--\":5:16   */\n              lt\n                /* \"--CODEGEN--\":2:4   */\n              iszero\n              tag_59\n              jumpi\n                /* \"--CODEGEN--\":29:30   */\n              0x00\n                /* \"--CODEGEN--\":26:27   */\n              dup1\n                /* \"--CODEGEN--\":19:31   */\n              revert\n                /* \"--CODEGEN--\":2:4   */\n            tag_59:\n                /* \"Topic.sol\":852:902  mapping(address => uint) public monetaryInvestment */\n              dup2\n              add\n              swap1\n              dup1\n              dup1\n              calldataload\n              0xffffffffffffffffffffffffffffffffffffffff\n              and\n              swap1\n              0x20\n              add\n              swap1\n              swap3\n              swap2\n              swap1\n              pop\n              pop\n              pop\n              tag_60\n              jump\t// in\n            tag_58:\n              mload(0x40)\n              dup1\n              dup3\n              dup2\n              mstore\n              0x20\n              add\n              swap2\n              pop\n              pop\n              mload(0x40)\n              dup1\n              swap2\n              sub\n              swap1\n              return\n                /* \"Topic.sol\":756:790  address payable[] public lieVoters */\n            tag_5:\n              callvalue\n                /* \"--CODEGEN--\":8:17   */\n              dup1\n                /* \"--CODEGEN--\":5:7   */\n              iszero\n              tag_61\n              jumpi\n                /* \"--CODEGEN--\":30:31   */\n              0x00\n                /* \"--CODEGEN--\":27:28   */\n              dup1\n                /* \"--CODEGEN--\":20:32   */\n              revert\n                /* \"--CODEGEN--\":5:7   */\n            tag_61:\n                /* \"Topic.sol\":756:790  address payable[] public lieVoters */\n              pop\n              tag_62\n              0x04\n              dup1\n              calldatasize\n              sub\n                /* \"--CODEGEN--\":13:15   */\n              0x20\n                /* \"--CODEGEN--\":8:11   */\n              dup2\n                /* \"--CODEGEN--\":5:16   */\n              lt\n                /* \"--CODEGEN--\":2:4   */\n              iszero\n              tag_63\n              jumpi\n                /* \"--CODEGEN--\":29:30   */\n              0x00\n                /* \"--CODEGEN--\":26:27   */\n              dup1\n                /* \"--CODEGEN--\":19:31   */\n              revert\n                /* \"--CODEGEN--\":2:4   */\n            tag_63:\n                /* \"Topic.sol\":756:790  address payable[] public lieVoters */\n              dup2\n              add\n              swap1\n              dup1\n              dup1\n              calldataload\n              swap1\n              0x20\n              add\n              swap1\n              swap3\n              swap2\n              swap1\n              pop\n              pop\n              pop\n              tag_64\n              jump\t// in\n            tag_62:\n              mload(0x40)\n              dup1\n              dup3\n              0xffffffffffffffffffffffffffffffffffffffff\n              and\n              0xffffffffffffffffffffffffffffffffffffffff\n              and\n              dup2\n              mstore\n              0x20\n              add\n              swap2\n              pop\n              pop\n              mload(0x40)\n              dup1\n              swap2\n              sub\n              swap1\n              return\n                /* \"Topic.sol\":570:597  Argument[] public arguments */\n            tag_6:\n              callvalue\n                /* \"--CODEGEN--\":8:17   */\n              dup1\n                /* \"--CODEGEN--\":5:7   */\n              iszero\n              tag_65\n              jumpi\n                /* \"--CODEGEN--\":30:31   */\n              0x00\n                /* \"--CODEGEN--\":27:28   */\n              dup1\n                /* \"--CODEGEN--\":20:32   */\n              revert\n                /* \"--CODEGEN--\":5:7   */\n            tag_65:\n                /* \"Topic.sol\":570:597  Argument[] public arguments */\n              pop\n              tag_66\n              0x04\n              dup1\n              calldatasize\n              sub\n                /* \"--CODEGEN--\":13:15   */\n              0x20\n                /* \"--CODEGEN--\":8:11   */\n              dup2\n                /* \"--CODEGEN--\":5:16   */\n              lt\n                /* \"--CODEGEN--\":2:4   */\n              iszero\n              tag_67\n              jumpi\n                /* \"--CODEGEN--\":29:30   */\n              0x00\n                /* \"--CODEGEN--\":26:27   */\n              dup1\n                /* \"--CODEGEN--\":19:31   */\n              revert\n                /* \"--CODEGEN--\":2:4   */\n            tag_67:\n                /* \"Topic.sol\":570:597  Argument[] public arguments */\n              dup2\n              add\n              swap1\n              dup1\n              dup1\n              calldataload\n              swap1\n              0x20\n              add\n              swap1\n              swap3\n              swap2\n              swap1\n              pop\n              pop\n              pop\n              tag_68\n              jump\t// in\n            tag_66:\n              mload(0x40)\n              dup1\n              dup1\n              0x20\n              add\n              dup6\n              iszero\n              iszero\n              iszero\n              iszero\n              dup2\n              mstore\n              0x20\n              add\n              dup5\n              0xffffffffffffffffffffffffffffffffffffffff\n              and\n              0xffffffffffffffffffffffffffffffffffffffff\n              and\n              dup2\n              mstore\n              0x20\n              add\n              dup4\n              dup2\n              mstore\n              0x20\n              add\n              dup3\n              dup2\n              sub\n              dup3\n              mstore\n              dup7\n              dup2\n              dup2\n              mload\n              dup2\n              mstore\n              0x20\n              add\n              swap2\n              pop\n              dup1\n              mload\n              swap1\n              0x20\n              add\n              swap1\n              dup1\n              dup4\n              dup4\n                /* \"--CODEGEN--\":23:24   */\n              0x00\n                /* \"--CODEGEN--\":8:108   */\n            tag_69:\n                /* \"--CODEGEN--\":33:36   */\n              dup4\n                /* \"--CODEGEN--\":30:31   */\n              dup2\n                /* \"--CODEGEN--\":27:37   */\n              lt\n                /* \"--CODEGEN--\":8:108   */\n              iszero\n              tag_71\n              jumpi\n                /* \"--CODEGEN--\":99:100   */\n              dup1\n                /* \"--CODEGEN--\":94:97   */\n              dup3\n                /* \"--CODEGEN--\":90:101   */\n              add\n                /* \"--CODEGEN--\":84:102   */\n              mload\n                /* \"--CODEGEN--\":80:81   */\n              dup2\n                /* \"--CODEGEN--\":75:78   */\n              dup5\n                /* \"--CODEGEN--\":71:82   */\n              add\n                /* \"--CODEGEN--\":64:103   */\n              mstore\n                /* \"--CODEGEN--\":52:54   */\n              0x20\n                /* \"--CODEGEN--\":49:50   */\n              dup2\n                /* \"--CODEGEN--\":45:55   */\n              add\n                /* \"--CODEGEN--\":40:55   */\n              swap1\n              pop\n                /* \"--CODEGEN--\":8:108   */\n              jump(tag_69)\n            tag_71:\n                /* \"--CODEGEN--\":12:26   */\n              pop\n                /* \"Topic.sol\":570:597  Argument[] public arguments */\n              pop\n              pop\n              pop\n              swap1\n              pop\n              swap1\n              dup2\n              add\n              swap1\n              0x1f\n              and\n              dup1\n              iszero\n              tag_72\n              jumpi\n              dup1\n              dup3\n              sub\n              dup1\n              mload\n              0x01\n              dup4\n              0x20\n              sub\n              0x0100\n              exp\n              sub\n              not\n              and\n              dup2\n              mstore\n              0x20\n              add\n              swap2\n              pop\n            tag_72:\n              pop\n              swap6\n              pop\n              pop\n              pop\n              pop\n              pop\n              pop\n              mload(0x40)\n              dup1\n              swap2\n              sub\n              swap1\n              return\n                /* \"Topic.sol\":2754:2978  function canVote() public view returns (bool) {\r... */\n            tag_7:\n              callvalue\n                /* \"--CODEGEN--\":8:17   */\n              dup1\n                /* \"--CODEGEN--\":5:7   */\n              iszero\n              tag_73\n              jumpi\n                /* \"--CODEGEN--\":30:31   */\n              0x00\n                /* \"--CODEGEN--\":27:28   */\n              dup1\n                /* \"--CODEGEN--\":20:32   */\n              revert\n                /* \"--CODEGEN--\":5:7   */\n            tag_73:\n                /* \"Topic.sol\":2754:2978  function canVote() public view returns (bool) {\r... */\n              pop\n              tag_74\n              tag_75\n              jump\t// in\n            tag_74:\n              mload(0x40)\n              dup1\n              dup3\n              iszero\n              iszero\n              iszero\n              iszero\n              dup2\n              mstore\n              0x20\n              add\n              swap2\n              pop\n              pop\n              mload(0x40)\n              dup1\n              swap2\n              sub\n              swap1\n              return\n                /* \"Topic.sol\":1190:1217  uint public truthReputation */\n            tag_8:\n              callvalue\n                /* \"--CODEGEN--\":8:17   */\n              dup1\n                /* \"--CODEGEN--\":5:7   */\n              iszero\n              tag_76\n              jumpi\n                /* \"--CODEGEN--\":30:31   */\n              0x00\n                /* \"--CODEGEN--\":27:28   */\n              dup1\n                /* \"--CODEGEN--\":20:32   */\n              revert\n                /* \"--CODEGEN--\":5:7   */\n            tag_76:\n                /* \"Topic.sol\":1190:1217  uint public truthReputation */\n              pop\n              tag_77\n              tag_78\n              jump\t// in\n            tag_77:\n              mload(0x40)\n              dup1\n              dup3\n              dup2\n              mstore\n              0x20\n              add\n              swap2\n              pop\n              pop\n              mload(0x40)\n              dup1\n              swap2\n              sub\n              swap1\n              return\n                /* \"Topic.sol\":508:537  uint public minimumInvestment */\n            tag_9:\n              callvalue\n                /* \"--CODEGEN--\":8:17   */\n              dup1\n                /* \"--CODEGEN--\":5:7   */\n              iszero\n              tag_79\n              jumpi\n                /* \"--CODEGEN--\":30:31   */\n              0x00\n                /* \"--CODEGEN--\":27:28   */\n              dup1\n                /* \"--CODEGEN--\":20:32   */\n              revert\n                /* \"--CODEGEN--\":5:7   */\n            tag_79:\n                /* \"Topic.sol\":508:537  uint public minimumInvestment */\n              pop\n              tag_80\n              tag_81\n              jump\t// in\n            tag_80:\n              mload(0x40)\n              dup1\n              dup3\n              dup2\n              mstore\n              0x20\n              add\n              swap2\n              pop\n              pop\n              mload(0x40)\n              dup1\n              swap2\n              sub\n              swap1\n              return\n                /* \"Topic.sol\":4220:4316  function getTruthCount() public view returns (uint) {\r... */\n            tag_10:\n              callvalue\n                /* \"--CODEGEN--\":8:17   */\n              dup1\n                /* \"--CODEGEN--\":5:7   */\n              iszero\n              tag_82\n              jumpi\n                /* \"--CODEGEN--\":30:31   */\n              0x00\n                /* \"--CODEGEN--\":27:28   */\n              dup1\n                /* \"--CODEGEN--\":20:32   */\n              revert\n                /* \"--CODEGEN--\":5:7   */\n            tag_82:\n                /* \"Topic.sol\":4220:4316  function getTruthCount() public view returns (uint) {\r... */\n              pop\n              tag_83\n              tag_84\n              jump\t// in\n            tag_83:\n              mload(0x40)\n              dup1\n              dup3\n              dup2\n              mstore\n              0x20\n              add\n              swap2\n              pop\n              pop\n              mload(0x40)\n              dup1\n              swap2\n              sub\n              swap1\n              return\n                /* \"Topic.sol\":544:563  uint public endTime */\n            tag_11:\n              callvalue\n                /* \"--CODEGEN--\":8:17   */\n              dup1\n                /* \"--CODEGEN--\":5:7   */\n              iszero\n              tag_85\n              jumpi\n                /* \"--CODEGEN--\":30:31   */\n              0x00\n                /* \"--CODEGEN--\":27:28   */\n              dup1\n                /* \"--CODEGEN--\":20:32   */\n              revert\n                /* \"--CODEGEN--\":5:7   */\n            tag_85:\n                /* \"Topic.sol\":544:563  uint public endTime */\n              pop\n              tag_86\n              tag_87\n              jump\t// in\n            tag_86:\n              mload(0x40)\n              dup1\n              dup3\n              dup2\n              mstore\n              0x20\n              add\n              swap2\n              pop\n              pop\n              mload(0x40)\n              dup1\n              swap2\n              sub\n              swap1\n              return\n                /* \"Topic.sol\":977:1010  uint public lieMonetaryInvestment */\n            tag_12:\n              callvalue\n                /* \"--CODEGEN--\":8:17   */\n              dup1\n                /* \"--CODEGEN--\":5:7   */\n              iszero\n              tag_88\n              jumpi\n                /* \"--CODEGEN--\":30:31   */\n              0x00\n                /* \"--CODEGEN--\":27:28   */\n              dup1\n                /* \"--CODEGEN--\":20:32   */\n              revert\n                /* \"--CODEGEN--\":5:7   */\n            tag_88:\n                /* \"Topic.sol\":977:1010  uint public lieMonetaryInvestment */\n              pop\n              tag_89\n              tag_90\n              jump\t// in\n            tag_89:\n              mload(0x40)\n              dup1\n              dup3\n              dup2\n              mstore\n              0x20\n              add\n              swap2\n              pop\n              pop\n              mload(0x40)\n              dup1\n              swap2\n              sub\n              swap1\n              return\n                /* \"Topic.sol\":1302:1349  mapping(address => uint) public createdArgument */\n            tag_13:\n              callvalue\n                /* \"--CODEGEN--\":8:17   */\n              dup1\n                /* \"--CODEGEN--\":5:7   */\n              iszero\n              tag_91\n              jumpi\n                /* \"--CODEGEN--\":30:31   */\n              0x00\n                /* \"--CODEGEN--\":27:28   */\n              dup1\n                /* \"--CODEGEN--\":20:32   */\n              revert\n                /* \"--CODEGEN--\":5:7   */\n            tag_91:\n                /* \"Topic.sol\":1302:1349  mapping(address => uint) public createdArgument */\n              pop\n              tag_92\n              0x04\n              dup1\n              calldatasize\n              sub\n                /* \"--CODEGEN--\":13:15   */\n              0x20\n                /* \"--CODEGEN--\":8:11   */\n              dup2\n                /* \"--CODEGEN--\":5:16   */\n              lt\n                /* \"--CODEGEN--\":2:4   */\n              iszero\n              tag_93\n              jumpi\n                /* \"--CODEGEN--\":29:30   */\n              0x00\n                /* \"--CODEGEN--\":26:27   */\n              dup1\n                /* \"--CODEGEN--\":19:31   */\n              revert\n                /* \"--CODEGEN--\":2:4   */\n            tag_93:\n                /* \"Topic.sol\":1302:1349  mapping(address => uint) public createdArgument */\n              dup2\n              add\n              swap1\n              dup1\n              dup1\n              calldataload\n              0xffffffffffffffffffffffffffffffffffffffff\n              and\n              swap1\n              0x20\n              add\n              swap1\n              swap3\n              swap2\n              swap1\n              pop\n              pop\n              pop\n              tag_94\n              jump\t// in\n            tag_92:\n              mload(0x40)\n              dup1\n              dup3\n              dup2\n              mstore\n              0x20\n              add\n              swap2\n              pop\n              pop\n              mload(0x40)\n              dup1\n              swap2\n              sub\n              swap1\n              return\n                /* \"Topic.sol\":6818:7537  function claim() public {\r... */\n            tag_14:\n              callvalue\n                /* \"--CODEGEN--\":8:17   */\n              dup1\n                /* \"--CODEGEN--\":5:7   */\n              iszero\n              tag_95\n              jumpi\n                /* \"--CODEGEN--\":30:31   */\n              0x00\n                /* \"--CODEGEN--\":27:28   */\n              dup1\n                /* \"--CODEGEN--\":20:32   */\n              revert\n                /* \"--CODEGEN--\":5:7   */\n            tag_95:\n                /* \"Topic.sol\":6818:7537  function claim() public {\r... */\n              pop\n              tag_96\n              tag_97\n              jump\t// in\n            tag_96:\n              stop\n                /* \"Topic.sol\":6617:6810  function canClaim() public view returns (bool) {\r... */\n            tag_15:\n              callvalue\n                /* \"--CODEGEN--\":8:17   */\n              dup1\n                /* \"--CODEGEN--\":5:7   */\n              iszero\n              tag_98\n              jumpi\n                /* \"--CODEGEN--\":30:31   */\n              0x00\n                /* \"--CODEGEN--\":27:28   */\n              dup1\n                /* \"--CODEGEN--\":20:32   */\n              revert\n                /* \"--CODEGEN--\":5:7   */\n            tag_98:\n                /* \"Topic.sol\":6617:6810  function canClaim() public view returns (bool) {\r... */\n              pop\n              tag_99\n              tag_100\n              jump\t// in\n            tag_99:\n              mload(0x40)\n              dup1\n              dup3\n              iszero\n              iszero\n              iszero\n              iszero\n              dup2\n              mstore\n              0x20\n              add\n              swap2\n              pop\n              pop\n              mload(0x40)\n              dup1\n              swap2\n              sub\n              swap1\n              return\n                /* \"Topic.sol\":4324:4416  function getLieCount() public view returns (uint) {\r... */\n            tag_16:\n              callvalue\n                /* \"--CODEGEN--\":8:17   */\n              dup1\n                /* \"--CODEGEN--\":5:7   */\n              iszero\n              tag_101\n              jumpi\n                /* \"--CODEGEN--\":30:31   */\n              0x00\n                /* \"--CODEGEN--\":27:28   */\n              dup1\n                /* \"--CODEGEN--\":20:32   */\n              revert\n                /* \"--CODEGEN--\":5:7   */\n            tag_101:\n                /* \"Topic.sol\":4324:4416  function getLieCount() public view returns (uint) {\r... */\n              pop\n              tag_102\n              tag_103\n              jump\t// in\n            tag_102:\n              mload(0x40)\n              dup1\n              dup3\n              dup2\n              mstore\n              0x20\n              add\n              swap2\n              pop\n              pop\n              mload(0x40)\n              dup1\n              swap2\n              sub\n              swap1\n              return\n                /* \"Topic.sol\":2670:2746  function isTopic() public pure returns (bool) {\r... */\n            tag_17:\n              callvalue\n                /* \"--CODEGEN--\":8:17   */\n              dup1\n                /* \"--CODEGEN--\":5:7   */\n              iszero\n              tag_104\n              jumpi\n                /* \"--CODEGEN--\":30:31   */\n              0x00\n                /* \"--CODEGEN--\":27:28   */\n              dup1\n                /* \"--CODEGEN--\":20:32   */\n              revert\n                /* \"--CODEGEN--\":5:7   */\n            tag_104:\n                /* \"Topic.sol\":2670:2746  function isTopic() public pure returns (bool) {\r... */\n              pop\n              tag_105\n              tag_106\n              jump\t// in\n            tag_105:\n              mload(0x40)\n              dup1\n              dup3\n              iszero\n              iszero\n              iszero\n              iszero\n              dup2\n              mstore\n              0x20\n              add\n              swap2\n              pop\n              pop\n              mload(0x40)\n              dup1\n              swap2\n              sub\n              swap1\n              return\n                /* \"Topic.sol\":935:970  uint public truthMonetaryInvestment */\n            tag_18:\n              callvalue\n                /* \"--CODEGEN--\":8:17   */\n              dup1\n                /* \"--CODEGEN--\":5:7   */\n              iszero\n              tag_107\n              jumpi\n                /* \"--CODEGEN--\":30:31   */\n              0x00\n                /* \"--CODEGEN--\":27:28   */\n              dup1\n                /* \"--CODEGEN--\":20:32   */\n              revert\n                /* \"--CODEGEN--\":5:7   */\n            tag_107:\n                /* \"Topic.sol\":935:970  uint public truthMonetaryInvestment */\n              pop\n              tag_108\n              tag_109\n              jump\t// in\n            tag_108:\n              mload(0x40)\n              dup1\n              dup3\n              dup2\n              mstore\n              0x20\n              add\n              swap2\n              pop\n              pop\n              mload(0x40)\n              dup1\n              swap2\n              sub\n              swap1\n              return\n                /* \"Topic.sol\":451:472  string public content */\n            tag_19:\n              callvalue\n                /* \"--CODEGEN--\":8:17   */\n              dup1\n                /* \"--CODEGEN--\":5:7   */\n              iszero\n              tag_110\n              jumpi\n                /* \"--CODEGEN--\":30:31   */\n              0x00\n                /* \"--CODEGEN--\":27:28   */\n              dup1\n                /* \"--CODEGEN--\":20:32   */\n              revert\n                /* \"--CODEGEN--\":5:7   */\n            tag_110:\n                /* \"Topic.sol\":451:472  string public content */\n              pop\n              tag_111\n              tag_112\n              jump\t// in\n            tag_111:\n              mload(0x40)\n              dup1\n              dup1\n              0x20\n              add\n              dup3\n              dup2\n              sub\n              dup3\n              mstore\n              dup4\n              dup2\n              dup2\n              mload\n              dup2\n              mstore\n              0x20\n              add\n              swap2\n              pop\n              dup1\n              mload\n              swap1\n              0x20\n              add\n              swap1\n              dup1\n              dup4\n              dup4\n                /* \"--CODEGEN--\":23:24   */\n              0x00\n                /* \"--CODEGEN--\":8:108   */\n            tag_113:\n                /* \"--CODEGEN--\":33:36   */\n              dup4\n                /* \"--CODEGEN--\":30:31   */\n              dup2\n                /* \"--CODEGEN--\":27:37   */\n              lt\n                /* \"--CODEGEN--\":8:108   */\n              iszero\n              tag_115\n              jumpi\n                /* \"--CODEGEN--\":99:100   */\n              dup1\n                /* \"--CODEGEN--\":94:97   */\n              dup3\n                /* \"--CODEGEN--\":90:101   */\n              add\n                /* \"--CODEGEN--\":84:102   */\n              mload\n                /* \"--CODEGEN--\":80:81   */\n              dup2\n                /* \"--CODEGEN--\":75:78   */\n              dup5\n                /* \"--CODEGEN--\":71:82   */\n              add\n                /* \"--CODEGEN--\":64:103   */\n              mstore\n                /* \"--CODEGEN--\":52:54   */\n              0x20\n                /* \"--CODEGEN--\":49:50   */\n              dup2\n                /* \"--CODEGEN--\":45:55   */\n              add\n                /* \"--CODEGEN--\":40:55   */\n              swap1\n              pop\n                /* \"--CODEGEN--\":8:108   */\n              jump(tag_113)\n            tag_115:\n                /* \"--CODEGEN--\":12:26   */\n              pop\n                /* \"Topic.sol\":451:472  string public content */\n              pop\n              pop\n              pop\n              swap1\n              pop\n              swap1\n              dup2\n              add\n              swap1\n              0x1f\n              and\n              dup1\n              iszero\n              tag_116\n              jumpi\n              dup1\n              dup3\n              sub\n              dup1\n              mload\n              0x01\n              dup4\n              0x20\n              sub\n              0x0100\n              exp\n              sub\n              not\n              and\n              dup2\n              mstore\n              0x20\n              add\n              swap2\n              pop\n            tag_116:\n              pop\n              swap3\n              pop\n              pop\n              pop\n              mload(0x40)\n              dup1\n              swap2\n              sub\n              swap1\n              return\n                /* \"Topic.sol\":7545:7943  function creatorClaim() public _creatorOnly {\r... */\n            tag_20:\n              callvalue\n                /* \"--CODEGEN--\":8:17   */\n              dup1\n                /* \"--CODEGEN--\":5:7   */\n              iszero\n              tag_117\n              jumpi\n                /* \"--CODEGEN--\":30:31   */\n              0x00\n                /* \"--CODEGEN--\":27:28   */\n              dup1\n                /* \"--CODEGEN--\":20:32   */\n              revert\n                /* \"--CODEGEN--\":5:7   */\n            tag_117:\n                /* \"Topic.sol\":7545:7943  function creatorClaim() public _creatorOnly {\r... */\n              pop\n              tag_118\n              tag_119\n              jump\t// in\n            tag_118:\n              stop\n                /* \"Topic.sol\":627:664  mapping(address => uint) public voted */\n            tag_21:\n              callvalue\n                /* \"--CODEGEN--\":8:17   */\n              dup1\n                /* \"--CODEGEN--\":5:7   */\n              iszero\n              tag_120\n              jumpi\n                /* \"--CODEGEN--\":30:31   */\n              0x00\n                /* \"--CODEGEN--\":27:28   */\n              dup1\n                /* \"--CODEGEN--\":20:32   */\n              revert\n                /* \"--CODEGEN--\":5:7   */\n            tag_120:\n                /* \"Topic.sol\":627:664  mapping(address => uint) public voted */\n              pop\n              tag_121\n              0x04\n              dup1\n              calldatasize\n              sub\n                /* \"--CODEGEN--\":13:15   */\n              0x20\n                /* \"--CODEGEN--\":8:11   */\n              dup2\n                /* \"--CODEGEN--\":5:16   */\n              lt\n                /* \"--CODEGEN--\":2:4   */\n              iszero\n              tag_122\n              jumpi\n                /* \"--CODEGEN--\":29:30   */\n              0x00\n                /* \"--CODEGEN--\":26:27   */\n              dup1\n                /* \"--CODEGEN--\":19:31   */\n              revert\n                /* \"--CODEGEN--\":2:4   */\n            tag_122:\n                /* \"Topic.sol\":627:664  mapping(address => uint) public voted */\n              dup2\n              add\n              swap1\n              dup1\n              dup1\n              calldataload\n              0xffffffffffffffffffffffffffffffffffffffff\n              and\n              swap1\n              0x20\n              add\n              swap1\n              swap3\n              swap2\n              swap1\n              pop\n              pop\n              pop\n              tag_123\n              jump\t// in\n            tag_121:\n              mload(0x40)\n              dup1\n              dup3\n              dup2\n              mstore\n              0x20\n              add\n              swap2\n              pop\n              pop\n              mload(0x40)\n              dup1\n              swap2\n              sub\n              swap1\n              return\n                /* \"Topic.sol\":3040:4212  function vote(uint argumentIndex, uint reputationCost) public payable _mustBeWithinTimeFrame {\r... */\n            tag_22:\n              tag_124\n              0x04\n              dup1\n              calldatasize\n              sub\n                /* \"--CODEGEN--\":13:15   */\n              0x40\n                /* \"--CODEGEN--\":8:11   */\n              dup2\n                /* \"--CODEGEN--\":5:16   */\n              lt\n                /* \"--CODEGEN--\":2:4   */\n              iszero\n              tag_125\n              jumpi\n                /* \"--CODEGEN--\":29:30   */\n              0x00\n                /* \"--CODEGEN--\":26:27   */\n              dup1\n                /* \"--CODEGEN--\":19:31   */\n              revert\n                /* \"--CODEGEN--\":2:4   */\n            tag_125:\n                /* \"Topic.sol\":3040:4212  function vote(uint argumentIndex, uint reputationCost) public payable _mustBeWithinTimeFrame {\r... */\n              dup2\n              add\n              swap1\n              dup1\n              dup1\n              calldataload\n              swap1\n              0x20\n              add\n              swap1\n              swap3\n              swap2\n              swap1\n              dup1\n              calldataload\n              swap1\n              0x20\n              add\n              swap1\n              swap3\n              swap2\n              swap1\n              pop\n              pop\n              pop\n              tag_126\n              jump\t// in\n            tag_124:\n              stop\n                /* \"Topic.sol\":8908:9157  function calculateReputationGain(uint initialReputation) public view returns (uint) {\r... */\n            tag_23:\n              callvalue\n                /* \"--CODEGEN--\":8:17   */\n              dup1\n                /* \"--CODEGEN--\":5:7   */\n              iszero\n              tag_127\n              jumpi\n                /* \"--CODEGEN--\":30:31   */\n              0x00\n                /* \"--CODEGEN--\":27:28   */\n              dup1\n                /* \"--CODEGEN--\":20:32   */\n              revert\n                /* \"--CODEGEN--\":5:7   */\n            tag_127:\n                /* \"Topic.sol\":8908:9157  function calculateReputationGain(uint initialReputation) public view returns (uint) {\r... */\n              pop\n              tag_128\n              0x04\n              dup1\n              calldatasize\n              sub\n                /* \"--CODEGEN--\":13:15   */\n              0x20\n                /* \"--CODEGEN--\":8:11   */\n              dup2\n                /* \"--CODEGEN--\":5:16   */\n              lt\n                /* \"--CODEGEN--\":2:4   */\n              iszero\n              tag_129\n              jumpi\n                /* \"--CODEGEN--\":29:30   */\n              0x00\n                /* \"--CODEGEN--\":26:27   */\n              dup1\n                /* \"--CODEGEN--\":19:31   */\n              revert\n                /* \"--CODEGEN--\":2:4   */\n            tag_129:\n                /* \"Topic.sol\":8908:9157  function calculateReputationGain(uint initialReputation) public view returns (uint) {\r... */\n              dup2\n              add\n              swap1\n              dup1\n              dup1\n              calldataload\n              swap1\n              0x20\n              add\n              swap1\n              swap3\n              swap2\n              swap1\n              pop\n              pop\n              pop\n              tag_130\n              jump\t// in\n            tag_128:\n              mload(0x40)\n              dup1\n              dup3\n              dup2\n              mstore\n              0x20\n              add\n              swap2\n              pop\n              pop\n              mload(0x40)\n              dup1\n              swap2\n              sub\n              swap1\n              return\n                /* \"Topic.sol\":1535:1555  uint public majority */\n            tag_24:\n              callvalue\n                /* \"--CODEGEN--\":8:17   */\n              dup1\n                /* \"--CODEGEN--\":5:7   */\n              iszero\n              tag_131\n              jumpi\n                /* \"--CODEGEN--\":30:31   */\n              0x00\n                /* \"--CODEGEN--\":27:28   */\n              dup1\n                /* \"--CODEGEN--\":20:32   */\n              revert\n                /* \"--CODEGEN--\":5:7   */\n            tag_131:\n                /* \"Topic.sol\":1535:1555  uint public majority */\n              pop\n              tag_132\n              tag_133\n              jump\t// in\n            tag_132:\n              mload(0x40)\n              dup1\n              dup3\n              dup2\n              mstore\n              0x20\n              add\n              swap2\n              pop\n              pop\n              mload(0x40)\n              dup1\n              swap2\n              sub\n              swap1\n              return\n                /* \"Topic.sol\":5389:5486  function getArgumentCount() public view returns (uint) {\r... */\n            tag_25:\n              callvalue\n                /* \"--CODEGEN--\":8:17   */\n              dup1\n                /* \"--CODEGEN--\":5:7   */\n              iszero\n              tag_134\n              jumpi\n                /* \"--CODEGEN--\":30:31   */\n              0x00\n                /* \"--CODEGEN--\":27:28   */\n              dup1\n                /* \"--CODEGEN--\":20:32   */\n              revert\n                /* \"--CODEGEN--\":5:7   */\n            tag_134:\n                /* \"Topic.sol\":5389:5486  function getArgumentCount() public view returns (uint) {\r... */\n              pop\n              tag_135\n              tag_136\n              jump\t// in\n            tag_135:\n              mload(0x40)\n              dup1\n              dup3\n              dup2\n              mstore\n              0x20\n              add\n              swap2\n              pop\n              pop\n              mload(0x40)\n              dup1\n              swap2\n              sub\n              swap1\n              return\n                /* \"Topic.sol\":1384:1423  mapping(address => bool) public claimed */\n            tag_26:\n              callvalue\n                /* \"--CODEGEN--\":8:17   */\n              dup1\n                /* \"--CODEGEN--\":5:7   */\n              iszero\n              tag_137\n              jumpi\n                /* \"--CODEGEN--\":30:31   */\n              0x00\n                /* \"--CODEGEN--\":27:28   */\n              dup1\n                /* \"--CODEGEN--\":20:32   */\n              revert\n                /* \"--CODEGEN--\":5:7   */\n            tag_137:\n                /* \"Topic.sol\":1384:1423  mapping(address => bool) public claimed */\n              pop\n              tag_138\n              0x04\n              dup1\n              calldatasize\n              sub\n                /* \"--CODEGEN--\":13:15   */\n              0x20\n                /* \"--CODEGEN--\":8:11   */\n              dup2\n                /* \"--CODEGEN--\":5:16   */\n              lt\n                /* \"--CODEGEN--\":2:4   */\n              iszero\n              tag_139\n              jumpi\n                /* \"--CODEGEN--\":29:30   */\n              0x00\n                /* \"--CODEGEN--\":26:27   */\n              dup1\n                /* \"--CODEGEN--\":19:31   */\n              revert\n                /* \"--CODEGEN--\":2:4   */\n            tag_139:\n                /* \"Topic.sol\":1384:1423  mapping(address => bool) public claimed */\n              dup2\n              add\n              swap1\n              dup1\n              dup1\n              calldataload\n              0xffffffffffffffffffffffffffffffffffffffff\n              and\n              swap1\n              0x20\n              add\n              swap1\n              swap3\n              swap2\n              swap1\n              pop\n              pop\n              pop\n              tag_140\n              jump\t// in\n            tag_138:\n              mload(0x40)\n              dup1\n              dup3\n              iszero\n              iszero\n              iszero\n              iszero\n              dup2\n              mstore\n              0x20\n              add\n              swap2\n              pop\n              pop\n              mload(0x40)\n              dup1\n              swap2\n              sub\n              swap1\n              return\n                /* \"Topic.sol\":1098:1150  mapping(address => uint) public reputationInvestment */\n            tag_27:\n              callvalue\n                /* \"--CODEGEN--\":8:17   */\n              dup1\n                /* \"--CODEGEN--\":5:7   */\n              iszero\n              tag_141\n              jumpi\n                /* \"--CODEGEN--\":30:31   */\n              0x00\n                /* \"--CODEGEN--\":27:28   */\n              dup1\n                /* \"--CODEGEN--\":20:32   */\n              revert\n                /* \"--CODEGEN--\":5:7   */\n            tag_141:\n                /* \"Topic.sol\":1098:1150  mapping(address => uint) public reputationInvestment */\n              pop\n              tag_142\n              0x04\n              dup1\n              calldatasize\n              sub\n                /* \"--CODEGEN--\":13:15   */\n              0x20\n                /* \"--CODEGEN--\":8:11   */\n              dup2\n                /* \"--CODEGEN--\":5:16   */\n              lt\n                /* \"--CODEGEN--\":2:4   */\n              iszero\n              tag_143\n              jumpi\n                /* \"--CODEGEN--\":29:30   */\n              0x00\n                /* \"--CODEGEN--\":26:27   */\n              dup1\n                /* \"--CODEGEN--\":19:31   */\n              revert\n                /* \"--CODEGEN--\":2:4   */\n            tag_143:\n                /* \"Topic.sol\":1098:1150  mapping(address => uint) public reputationInvestment */\n              dup2\n              add\n              swap1\n              dup1\n              dup1\n              calldataload\n              0xffffffffffffffffffffffffffffffffffffffff\n              and\n              swap1\n              0x20\n              add\n              swap1\n              swap3\n              swap2\n              swap1\n              pop\n              pop\n              pop\n              tag_144\n              jump\t// in\n            tag_142:\n              mload(0x40)\n              dup1\n              dup3\n              dup2\n              mstore\n              0x20\n              add\n              swap2\n              pop\n              pop\n              mload(0x40)\n              dup1\n              swap2\n              sub\n              swap1\n              return\n                /* \"Topic.sol\":1224:1249  uint public lieReputation */\n            tag_28:\n              callvalue\n                /* \"--CODEGEN--\":8:17   */\n              dup1\n                /* \"--CODEGEN--\":5:7   */\n              iszero\n              tag_145\n              jumpi\n                /* \"--CODEGEN--\":30:31   */\n              0x00\n                /* \"--CODEGEN--\":27:28   */\n              dup1\n                /* \"--CODEGEN--\":20:32   */\n              revert\n                /* \"--CODEGEN--\":5:7   */\n            tag_145:\n                /* \"Topic.sol\":1224:1249  uint public lieReputation */\n              pop\n              tag_146\n              tag_147\n              jump\t// in\n            tag_146:\n              mload(0x40)\n              dup1\n              dup3\n              dup2\n              mstore\n              0x20\n              add\n              swap2\n              pop\n              pop\n              mload(0x40)\n              dup1\n              swap2\n              sub\n              swap1\n              return\n                /* \"Topic.sol\":9481:9700  function inMajority() public view returns (bool) {\r... */\n            tag_29:\n              callvalue\n                /* \"--CODEGEN--\":8:17   */\n              dup1\n                /* \"--CODEGEN--\":5:7   */\n              iszero\n              tag_148\n              jumpi\n                /* \"--CODEGEN--\":30:31   */\n              0x00\n                /* \"--CODEGEN--\":27:28   */\n              dup1\n                /* \"--CODEGEN--\":20:32   */\n              revert\n                /* \"--CODEGEN--\":5:7   */\n            tag_148:\n                /* \"Topic.sol\":9481:9700  function inMajority() public view returns (bool) {\r... */\n              pop\n              tag_149\n              tag_150\n              jump\t// in\n            tag_149:\n              mload(0x40)\n              dup1\n              dup3\n              iszero\n              iszero\n              iszero\n              iszero\n              dup2\n              mstore\n              0x20\n              add\n              swap2\n              pop\n              pop\n              mload(0x40)\n              dup1\n              swap2\n              sub\n              swap1\n              return\n                /* \"Topic.sol\":697:733  address payable[] public truthVoters */\n            tag_30:\n              callvalue\n                /* \"--CODEGEN--\":8:17   */\n              dup1\n                /* \"--CODEGEN--\":5:7   */\n              iszero\n              tag_151\n              jumpi\n                /* \"--CODEGEN--\":30:31   */\n              0x00\n                /* \"--CODEGEN--\":27:28   */\n              dup1\n                /* \"--CODEGEN--\":20:32   */\n              revert\n                /* \"--CODEGEN--\":5:7   */\n            tag_151:\n                /* \"Topic.sol\":697:733  address payable[] public truthVoters */\n              pop\n              tag_152\n              0x04\n              dup1\n              calldatasize\n              sub\n                /* \"--CODEGEN--\":13:15   */\n              0x20\n                /* \"--CODEGEN--\":8:11   */\n              dup2\n                /* \"--CODEGEN--\":5:16   */\n              lt\n                /* \"--CODEGEN--\":2:4   */\n              iszero\n              tag_153\n              jumpi\n                /* \"--CODEGEN--\":29:30   */\n              0x00\n                /* \"--CODEGEN--\":26:27   */\n              dup1\n                /* \"--CODEGEN--\":19:31   */\n              revert\n                /* \"--CODEGEN--\":2:4   */\n            tag_153:\n                /* \"Topic.sol\":697:733  address payable[] public truthVoters */\n              dup2\n              add\n              swap1\n              dup1\n              dup1\n              calldataload\n              swap1\n              0x20\n              add\n              swap1\n              swap3\n              swap2\n              swap1\n              pop\n              pop\n              pop\n              tag_154\n              jump\t// in\n            tag_152:\n              mload(0x40)\n              dup1\n              dup3\n              0xffffffffffffffffffffffffffffffffffffffff\n              and\n              0xffffffffffffffffffffffffffffffffffffffff\n              and\n              dup2\n              mstore\n              0x20\n              add\n              swap2\n              pop\n              pop\n              mload(0x40)\n              dup1\n              swap2\n              sub\n              swap1\n              return\n                /* \"Topic.sol\":1256:1293  uint public totalReputationInvestment */\n            tag_31:\n              callvalue\n                /* \"--CODEGEN--\":8:17   */\n              dup1\n                /* \"--CODEGEN--\":5:7   */\n              iszero\n              tag_155\n              jumpi\n                /* \"--CODEGEN--\":30:31   */\n              0x00\n                /* \"--CODEGEN--\":27:28   */\n              dup1\n                /* \"--CODEGEN--\":20:32   */\n              revert\n                /* \"--CODEGEN--\":5:7   */\n            tag_155:\n                /* \"Topic.sol\":1256:1293  uint public totalReputationInvestment */\n              pop\n              tag_156\n              tag_157\n              jump\t// in\n            tag_156:\n              mload(0x40)\n              dup1\n              dup3\n              dup2\n              mstore\n              0x20\n              add\n              swap2\n              pop\n              pop\n              mload(0x40)\n              dup1\n              swap2\n              sub\n              swap1\n              return\n                /* \"Topic.sol\":4927:5381  function modifyArgument(uint argumentIndex, string memory newContent, bool belief) public _mustBeWithinTimeFrame  {\r... */\n            tag_32:\n              callvalue\n                /* \"--CODEGEN--\":8:17   */\n              dup1\n                /* \"--CODEGEN--\":5:7   */\n              iszero\n              tag_158\n              jumpi\n                /* \"--CODEGEN--\":30:31   */\n              0x00\n                /* \"--CODEGEN--\":27:28   */\n              dup1\n                /* \"--CODEGEN--\":20:32   */\n              revert\n                /* \"--CODEGEN--\":5:7   */\n            tag_158:\n                /* \"Topic.sol\":4927:5381  function modifyArgument(uint argumentIndex, string memory newContent, bool belief) public _mustBeWithinTimeFrame  {\r... */\n              pop\n              tag_159\n              0x04\n              dup1\n              calldatasize\n              sub\n                /* \"--CODEGEN--\":13:15   */\n              0x60\n                /* \"--CODEGEN--\":8:11   */\n              dup2\n                /* \"--CODEGEN--\":5:16   */\n              lt\n                /* \"--CODEGEN--\":2:4   */\n              iszero\n              tag_160\n              jumpi\n                /* \"--CODEGEN--\":29:30   */\n              0x00\n                /* \"--CODEGEN--\":26:27   */\n              dup1\n                /* \"--CODEGEN--\":19:31   */\n              revert\n                /* \"--CODEGEN--\":2:4   */\n            tag_160:\n                /* \"Topic.sol\":4927:5381  function modifyArgument(uint argumentIndex, string memory newContent, bool belief) public _mustBeWithinTimeFrame  {\r... */\n              dup2\n              add\n              swap1\n              dup1\n              dup1\n              calldataload\n              swap1\n              0x20\n              add\n              swap1\n              swap3\n              swap2\n              swap1\n              dup1\n              calldataload\n              swap1\n              0x20\n              add\n              swap1\n                /* \"--CODEGEN--\":21:32   */\n              0x0100000000\n                /* \"--CODEGEN--\":8:19   */\n              dup2\n                /* \"--CODEGEN--\":5:33   */\n              gt\n                /* \"--CODEGEN--\":2:4   */\n              iszero\n              tag_161\n              jumpi\n                /* \"--CODEGEN--\":46:47   */\n              0x00\n                /* \"--CODEGEN--\":43:44   */\n              dup1\n                /* \"--CODEGEN--\":36:48   */\n              revert\n                /* \"--CODEGEN--\":2:4   */\n            tag_161:\n                /* \"Topic.sol\":4927:5381  function modifyArgument(uint argumentIndex, string memory newContent, bool belief) public _mustBeWithinTimeFrame  {\r... */\n              dup3\n              add\n                /* \"--CODEGEN--\":35:44   */\n              dup4\n                /* \"--CODEGEN--\":28:32   */\n              0x20\n                /* \"--CODEGEN--\":12:26   */\n              dup3\n                /* \"--CODEGEN--\":8:33   */\n              add\n                /* \"--CODEGEN--\":5:45   */\n              gt\n                /* \"--CODEGEN--\":2:4   */\n              iszero\n              tag_162\n              jumpi\n                /* \"--CODEGEN--\":58:59   */\n              0x00\n                /* \"--CODEGEN--\":55:56   */\n              dup1\n                /* \"--CODEGEN--\":48:60   */\n              revert\n                /* \"--CODEGEN--\":2:4   */\n            tag_162:\n                /* \"Topic.sol\":4927:5381  function modifyArgument(uint argumentIndex, string memory newContent, bool belief) public _mustBeWithinTimeFrame  {\r... */\n              dup1\n              calldataload\n              swap1\n              0x20\n              add\n              swap2\n                /* \"--CODEGEN--\":100:109   */\n              dup5\n                /* \"--CODEGEN--\":95:96   */\n              0x01\n                /* \"--CODEGEN--\":81:93   */\n              dup4\n                /* \"--CODEGEN--\":77:97   */\n              mul\n                /* \"--CODEGEN--\":67:75   */\n              dup5\n                /* \"--CODEGEN--\":63:98   */\n              add\n                /* \"--CODEGEN--\":60:110   */\n              gt\n                /* \"--CODEGEN--\":39:50   */\n              0x0100000000\n                /* \"--CODEGEN--\":25:37   */\n              dup4\n                /* \"--CODEGEN--\":22:51   */\n              gt\n                /* \"--CODEGEN--\":11:118   */\n              or\n                /* \"--CODEGEN--\":8:10   */\n              iszero\n              tag_163\n              jumpi\n                /* \"--CODEGEN--\":131:132   */\n              0x00\n                /* \"--CODEGEN--\":128:129   */\n              dup1\n                /* \"--CODEGEN--\":121:133   */\n              revert\n                /* \"--CODEGEN--\":8:10   */\n            tag_163:\n                /* \"Topic.sol\":4927:5381  function modifyArgument(uint argumentIndex, string memory newContent, bool belief) public _mustBeWithinTimeFrame  {\r... */\n              swap2\n              swap1\n              dup1\n              dup1\n              0x1f\n              add\n              0x20\n              dup1\n              swap2\n              div\n              mul\n              0x20\n              add\n              mload(0x40)\n              swap1\n              dup2\n              add\n              0x40\n              mstore\n              dup1\n              swap4\n              swap3\n              swap2\n              swap1\n              dup2\n              dup2\n              mstore\n              0x20\n              add\n              dup4\n              dup4\n                /* \"--CODEGEN--\":30:33   */\n              dup1\n                /* \"--CODEGEN--\":22:28   */\n              dup3\n                /* \"--CODEGEN--\":14:20   */\n              dup5\n                /* \"--CODEGEN--\":1:34   */\n              calldatacopy\n                /* \"--CODEGEN--\":99:100   */\n              0x00\n                /* \"--CODEGEN--\":93:96   */\n              dup2\n                /* \"--CODEGEN--\":85:91   */\n              dup5\n                /* \"--CODEGEN--\":81:97   */\n              add\n                /* \"--CODEGEN--\":74:101   */\n              mstore\n                /* \"--CODEGEN--\":137:141   */\n              0x1f\n                /* \"--CODEGEN--\":133:142   */\n              not\n                /* \"--CODEGEN--\":126:130   */\n              0x1f\n                /* \"--CODEGEN--\":121:124   */\n              dup3\n                /* \"--CODEGEN--\":117:131   */\n              add\n                /* \"--CODEGEN--\":113:143   */\n              and\n                /* \"--CODEGEN--\":106:143   */\n              swap1\n              pop\n                /* \"--CODEGEN--\":169:172   */\n              dup1\n                /* \"--CODEGEN--\":161:167   */\n              dup4\n                /* \"--CODEGEN--\":157:173   */\n              add\n                /* \"--CODEGEN--\":147:173   */\n              swap3\n              pop\n                /* \"Topic.sol\":4927:5381  function modifyArgument(uint argumentIndex, string memory newContent, bool belief) public _mustBeWithinTimeFrame  {\r... */\n              pop\n              pop\n              pop\n              pop\n              pop\n              pop\n              swap2\n              swap3\n              swap2\n              swap3\n              swap1\n              dup1\n              calldataload\n              iszero\n              iszero\n              swap1\n              0x20\n              add\n              swap1\n              swap3\n              swap2\n              swap1\n              pop\n              pop\n              pop\n              tag_164\n              jump\t// in\n            tag_159:\n              stop\n                /* \"Topic.sol\":9708:9806  function getMoneyPool() public view returns (uint) {\r... */\n            tag_33:\n              callvalue\n                /* \"--CODEGEN--\":8:17   */\n              dup1\n                /* \"--CODEGEN--\":5:7   */\n              iszero\n              tag_165\n              jumpi\n                /* \"--CODEGEN--\":30:31   */\n              0x00\n                /* \"--CODEGEN--\":27:28   */\n              dup1\n                /* \"--CODEGEN--\":20:32   */\n              revert\n                /* \"--CODEGEN--\":5:7   */\n            tag_165:\n                /* \"Topic.sol\":9708:9806  function getMoneyPool() public view returns (uint) {\r... */\n              pop\n              tag_166\n              tag_167\n              jump\t// in\n            tag_166:\n              mload(0x40)\n              dup1\n              dup3\n              dup2\n              mstore\n              0x20\n              add\n              swap2\n              pop\n              pop\n              mload(0x40)\n              dup1\n              swap2\n              sub\n              swap1\n              return\n                /* \"Topic.sol\":1505:1528  bool public isCompleted */\n            tag_34:\n              callvalue\n                /* \"--CODEGEN--\":8:17   */\n              dup1\n                /* \"--CODEGEN--\":5:7   */\n              iszero\n              tag_168\n              jumpi\n                /* \"--CODEGEN--\":30:31   */\n              0x00\n                /* \"--CODEGEN--\":27:28   */\n              dup1\n                /* \"--CODEGEN--\":20:32   */\n              revert\n                /* \"--CODEGEN--\":5:7   */\n            tag_168:\n                /* \"Topic.sol\":1505:1528  bool public isCompleted */\n              pop\n              tag_169\n              tag_170\n              jump\t// in\n            tag_169:\n              mload(0x40)\n              dup1\n              dup3\n              iszero\n              iszero\n              iszero\n              iszero\n              dup2\n              mstore\n              0x20\n              add\n              swap2\n              pop\n              pop\n              mload(0x40)\n              dup1\n              swap2\n              sub\n              swap1\n              return\n                /* \"Topic.sol\":1017:1047  uint public finalMonetaryTotal */\n            tag_35:\n              callvalue\n                /* \"--CODEGEN--\":8:17   */\n              dup1\n                /* \"--CODEGEN--\":5:7   */\n              iszero\n              tag_171\n              jumpi\n                /* \"--CODEGEN--\":30:31   */\n              0x00\n                /* \"--CODEGEN--\":27:28   */\n              dup1\n                /* \"--CODEGEN--\":20:32   */\n              revert\n                /* \"--CODEGEN--\":5:7   */\n            tag_171:\n                /* \"Topic.sol\":1017:1047  uint public finalMonetaryTotal */\n              pop\n              tag_172\n              tag_173\n              jump\t// in\n            tag_172:\n              mload(0x40)\n              dup1\n              dup3\n              dup2\n              mstore\n              0x20\n              add\n              swap2\n              pop\n              pop\n              mload(0x40)\n              dup1\n              swap2\n              sub\n              swap1\n              return\n                /* \"Topic.sol\":9165:9473  function getDetails() public view returns (address, uint, uint, bool, bool, bool, uint, uint, uint, uint, uint) {\r... */\n            tag_36:\n              callvalue\n                /* \"--CODEGEN--\":8:17   */\n              dup1\n                /* \"--CODEGEN--\":5:7   */\n              iszero\n              tag_174\n              jumpi\n                /* \"--CODEGEN--\":30:31   */\n              0x00\n                /* \"--CODEGEN--\":27:28   */\n              dup1\n                /* \"--CODEGEN--\":20:32   */\n              revert\n                /* \"--CODEGEN--\":5:7   */\n            tag_174:\n                /* \"Topic.sol\":9165:9473  function getDetails() public view returns (address, uint, uint, bool, bool, bool, uint, uint, uint, uint, uint) {\r... */\n              pop\n              tag_175\n              tag_176\n              jump\t// in\n            tag_175:\n              mload(0x40)\n              dup1\n              dup13\n              0xffffffffffffffffffffffffffffffffffffffff\n              and\n              0xffffffffffffffffffffffffffffffffffffffff\n              and\n              dup2\n              mstore\n              0x20\n              add\n              dup12\n              dup2\n              mstore\n              0x20\n              add\n              dup11\n              dup2\n              mstore\n              0x20\n              add\n              dup10\n              iszero\n              iszero\n              iszero\n              iszero\n              dup2\n              mstore\n              0x20\n              add\n              dup9\n              iszero\n              iszero\n              iszero\n              iszero\n              dup2\n              mstore\n              0x20\n              add\n              dup8\n              iszero\n              iszero\n              iszero\n              iszero\n              dup2\n              mstore\n              0x20\n              add\n              dup7\n              dup2\n              mstore\n              0x20\n              add\n              dup6\n              dup2\n              mstore\n              0x20\n              add\n              dup5\n              dup2\n              mstore\n              0x20\n              add\n              dup4\n              dup2\n              mstore\n              0x20\n              add\n              dup3\n              dup2\n              mstore\n              0x20\n              add\n              swap12\n              pop\n              pop\n              pop\n              pop\n              pop\n              pop\n              pop\n              pop\n              pop\n              pop\n              pop\n              pop\n              mload(0x40)\n              dup1\n              swap2\n              sub\n              swap1\n              return\n                /* \"Topic.sol\":8118:8900  function calculateMonetaryGain(uint initialMonetaryInvestment, bool onTruthSide) public view returns (uint) {\r... */\n            tag_37:\n              callvalue\n                /* \"--CODEGEN--\":8:17   */\n              dup1\n                /* \"--CODEGEN--\":5:7   */\n              iszero\n              tag_177\n              jumpi\n                /* \"--CODEGEN--\":30:31   */\n              0x00\n                /* \"--CODEGEN--\":27:28   */\n              dup1\n                /* \"--CODEGEN--\":20:32   */\n              revert\n                /* \"--CODEGEN--\":5:7   */\n            tag_177:\n                /* \"Topic.sol\":8118:8900  function calculateMonetaryGain(uint initialMonetaryInvestment, bool onTruthSide) public view returns (uint) {\r... */\n              pop\n              tag_178\n              0x04\n              dup1\n              calldatasize\n              sub\n                /* \"--CODEGEN--\":13:15   */\n              0x40\n                /* \"--CODEGEN--\":8:11   */\n              dup2\n                /* \"--CODEGEN--\":5:16   */\n              lt\n                /* \"--CODEGEN--\":2:4   */\n              iszero\n              tag_179\n              jumpi\n                /* \"--CODEGEN--\":29:30   */\n              0x00\n                /* \"--CODEGEN--\":26:27   */\n              dup1\n                /* \"--CODEGEN--\":19:31   */\n              revert\n                /* \"--CODEGEN--\":2:4   */\n            tag_179:\n                /* \"Topic.sol\":8118:8900  function calculateMonetaryGain(uint initialMonetaryInvestment, bool onTruthSide) public view returns (uint) {\r... */\n              dup2\n              add\n              swap1\n              dup1\n              dup1\n              calldataload\n              swap1\n              0x20\n              add\n              swap1\n              swap3\n              swap2\n              swap1\n              dup1\n              calldataload\n              iszero\n              iszero\n              swap1\n              0x20\n              add\n              swap1\n              swap3\n              swap2\n              swap1\n              pop\n              pop\n              pop\n              tag_180\n              jump\t// in\n            tag_178:\n              mload(0x40)\n              dup1\n              dup3\n              dup2\n              mstore\n              0x20\n              add\n              swap2\n              pop\n              pop\n              mload(0x40)\n              dup1\n              swap2\n              sub\n              swap1\n              return\n                /* \"Topic.sol\":479:501  address public creator */\n            tag_49:\n              0x04\n              0x00\n              swap1\n              sload\n              swap1\n              0x0100\n              exp\n              swap1\n              div\n              0xffffffffffffffffffffffffffffffffffffffff\n              and\n              dup2\n              jump\t// out\n                /* \"Topic.sol\":4424:4919  function createArgument(string memory argumentContent, bool belief) public _mustBeWithinTimeFrame {\r... */\n            tag_56:\n                /* \"Topic.sol\":1790:1797  endTime */\n              sload(0x06)\n                /* \"Topic.sol\":1772:1787  block.timestamp */\n              timestamp\n                /* \"Topic.sol\":1772:1797  block.timestamp < endTime */\n              lt\n                /* \"Topic.sol\":1764:1845  require(block.timestamp < endTime, 'The period for the Topic has already ended.') */\n              tag_182\n              jumpi\n              mload(0x40)\n              0x08c379a000000000000000000000000000000000000000000000000000000000\n              dup2\n              mstore\n              0x04\n              add\n              dup1\n              dup1\n              0x20\n              add\n              dup3\n              dup2\n              sub\n              dup3\n              mstore\n              0x2b\n              dup2\n              mstore\n              0x20\n              add\n              dup1\n              data_9f7f122b70f117f8950311c325d9279ba88d6a0d2b593ed4f11b7663b9f48d07\n              0x2b\n              swap2\n              codecopy\n              0x40\n              add\n              swap2\n              pop\n              pop\n              mload(0x40)\n              dup1\n              swap2\n              sub\n              swap1\n              revert\n            tag_182:\n                /* \"Topic.sol\":4572:4573  0 */\n              0x00\n                /* \"Topic.sol\":4541:4556  createdArgument */\n              0x13\n                /* \"Topic.sol\":4541:4568  createdArgument[msg.sender] */\n              0x00\n                /* \"Topic.sol\":4557:4567  msg.sender */\n              caller\n                /* \"Topic.sol\":4541:4568  createdArgument[msg.sender] */\n              0xffffffffffffffffffffffffffffffffffffffff\n              and\n              0xffffffffffffffffffffffffffffffffffffffff\n              and\n              dup2\n              mstore\n              0x20\n              add\n              swap1\n              dup2\n              mstore\n              0x20\n              add\n              0x00\n              keccak256\n              sload\n                /* \"Topic.sol\":4541:4573  createdArgument[msg.sender] == 0 */\n              eq\n                /* \"Topic.sol\":4533:4615  require(createdArgument[msg.sender] == 0, 'You have already created an argument.') */\n              tag_184\n              jumpi\n              mload(0x40)\n              0x08c379a000000000000000000000000000000000000000000000000000000000\n              dup2\n              mstore\n              0x04\n              add\n              dup1\n              dup1\n              0x20\n              add\n              dup3\n              dup2\n              sub\n              dup3\n              mstore\n              0x25\n              dup2\n              mstore\n              0x20\n              add\n              dup1\n              data_8912f675a50e382e9fd7b592cf1cd9595235c43ce4309904b1bd35e2a18fc4ee\n              0x25\n              swap2\n              codecopy\n              0x40\n              add\n              swap2\n              pop\n              pop\n              mload(0x40)\n              dup1\n              swap2\n              sub\n              swap1\n              revert\n            tag_184:\n                /* \"Topic.sol\":4628:4655  Argument memory newArgument */\n              tag_185\n              tag_186\n              jump\t// in\n            tag_185:\n                /* \"Topic.sol\":4658:4808  Argument({\r... */\n              mload(0x40)\n              dup1\n              0x80\n              add\n              0x40\n              mstore\n              dup1\n                /* \"Topic.sol\":4691:4706  argumentContent */\n              dup5\n                /* \"Topic.sol\":4658:4808  Argument({\r... */\n              dup2\n              mstore\n              0x20\n              add\n                /* \"Topic.sol\":4729:4735  belief */\n              dup4\n                /* \"Topic.sol\":4658:4808  Argument({\r... */\n              iszero\n              iszero\n              dup2\n              mstore\n              0x20\n              add\n                /* \"Topic.sol\":4759:4769  msg.sender */\n              caller\n                /* \"Topic.sol\":4658:4808  Argument({\r... */\n              0xffffffffffffffffffffffffffffffffffffffff\n              and\n              dup2\n              mstore\n              0x20\n              add\n                /* \"Topic.sol\":4795:4796  0 */\n              0x00\n                /* \"Topic.sol\":4658:4808  Argument({\r... */\n              dup2\n              mstore\n              pop\n                /* \"Topic.sol\":4628:4808  Argument memory newArgument = Argument({\r... */\n              swap1\n              pop\n                /* \"Topic.sol\":4819:4828  arguments */\n              0x07\n                /* \"Topic.sol\":4834:4845  newArgument */\n              dup2\n                /* \"Topic.sol\":4819:4846  arguments.push(newArgument) */\n              swap1\n              dup1\n                /* \"--CODEGEN--\":39:40   */\n              0x01\n                /* \"--CODEGEN--\":33:36   */\n              dup2\n                /* \"--CODEGEN--\":27:37   */\n              sload\n                /* \"--CODEGEN--\":23:41   */\n              add\n                /* \"--CODEGEN--\":57:67   */\n              dup1\n                /* \"--CODEGEN--\":52:55   */\n              dup3\n                /* \"--CODEGEN--\":45:68   */\n              sstore\n                /* \"--CODEGEN--\":79:89   */\n              dup1\n                /* \"--CODEGEN--\":72:89   */\n              swap2\n              pop\n                /* \"--CODEGEN--\":0:93   */\n              pop\n                /* \"Topic.sol\":4819:4846  arguments.push(newArgument) */\n              swap1\n              0x01\n              dup3\n              sub\n              swap1\n              0x00\n              mstore\n              keccak256(0x00, 0x20)\n              swap1\n              0x03\n              mul\n              add\n              0x00\n              swap1\n              swap2\n              swap3\n              swap1\n              swap2\n              swap1\n              swap2\n              pop\n              0x00\n              dup3\n              add\n              mload\n              dup2\n              0x00\n              add\n              swap1\n              dup1\n              mload\n              swap1\n              0x20\n              add\n              swap1\n              tag_188\n              swap3\n              swap2\n              swap1\n              tag_189\n              jump\t// in\n            tag_188:\n              pop\n              0x20\n              dup3\n              add\n              mload\n              dup2\n              0x01\n              add\n              exp(0x0100, 0x00)\n              dup2\n              sload\n              dup2\n              0xff\n              mul\n              not\n              and\n              swap1\n              dup4\n              iszero\n              iszero\n              mul\n              or\n              swap1\n              sstore\n              pop\n              0x40\n              dup3\n              add\n              mload\n              dup2\n              0x01\n              add\n              exp(0x0100, 0x01)\n              dup2\n              sload\n              dup2\n              0xffffffffffffffffffffffffffffffffffffffff\n              mul\n              not\n              and\n              swap1\n              dup4\n              0xffffffffffffffffffffffffffffffffffffffff\n              and\n              mul\n              or\n              swap1\n              sstore\n              pop\n              0x60\n              dup3\n              add\n              mload\n              dup2\n              0x02\n              add\n              sstore\n              pop\n              pop\n              pop\n                /* \"Topic.sol\":4908:4909  1 */\n              0x01\n                /* \"Topic.sol\":4887:4905  getArgumentCount() */\n              tag_190\n                /* \"Topic.sol\":4887:4903  getArgumentCount */\n              tag_136\n                /* \"Topic.sol\":4887:4905  getArgumentCount() */\n              jump\t// in\n            tag_190:\n                /* \"Topic.sol\":4887:4909  getArgumentCount() - 1 */\n              sub\n                /* \"Topic.sol\":4857:4872  createdArgument */\n              0x13\n                /* \"Topic.sol\":4857:4884  createdArgument[msg.sender] */\n              0x00\n                /* \"Topic.sol\":4873:4883  msg.sender */\n              caller\n                /* \"Topic.sol\":4857:4884  createdArgument[msg.sender] */\n              0xffffffffffffffffffffffffffffffffffffffff\n              and\n              0xffffffffffffffffffffffffffffffffffffffff\n              and\n              dup2\n              mstore\n              0x20\n              add\n              swap1\n              dup2\n              mstore\n              0x20\n              add\n              0x00\n              keccak256\n                /* \"Topic.sol\":4857:4909  createdArgument[msg.sender] = getArgumentCount() - 1 */\n              dup2\n              swap1\n              sstore\n              pop\n                /* \"Topic.sol\":1856:1857  _ */\n              pop\n                /* \"Topic.sol\":4424:4919  function createArgument(string memory argumentContent, bool belief) public _mustBeWithinTimeFrame {\r... */\n              pop\n              pop\n              jump\t// out\n                /* \"Topic.sol\":852:902  mapping(address => uint) public monetaryInvestment */\n            tag_60:\n              mstore(0x20, 0x0b)\n              dup1\n              0x00\n              mstore\n              keccak256(0x00, 0x40)\n              0x00\n              swap2\n              pop\n              swap1\n              pop\n              sload\n              dup2\n              jump\t// out\n                /* \"Topic.sol\":756:790  address payable[] public lieVoters */\n            tag_64:\n              0x0a\n              dup2\n              dup2\n              sload\n              dup2\n              lt\n              tag_191\n              jumpi\n              invalid\n            tag_191:\n              swap1\n              0x00\n              mstore\n              keccak256(0x00, 0x20)\n              add\n              0x00\n              swap2\n              pop\n              sload\n              swap1\n              0x0100\n              exp\n              swap1\n              div\n              0xffffffffffffffffffffffffffffffffffffffff\n              and\n              dup2\n              jump\t// out\n                /* \"Topic.sol\":570:597  Argument[] public arguments */\n            tag_68:\n              0x07\n              dup2\n              dup2\n              sload\n              dup2\n              lt\n              tag_193\n              jumpi\n              invalid\n            tag_193:\n              swap1\n              0x00\n              mstore\n              keccak256(0x00, 0x20)\n              swap1\n              0x03\n              mul\n              add\n              0x00\n              swap2\n              pop\n              swap1\n              pop\n              dup1\n              0x00\n              add\n              dup1\n              sload\n              0x01\n              dup2\n              0x01\n              and\n              iszero\n              0x0100\n              mul\n              sub\n              and\n              0x02\n              swap1\n              div\n              dup1\n              0x1f\n              add\n              0x20\n              dup1\n              swap2\n              div\n              mul\n              0x20\n              add\n              mload(0x40)\n              swap1\n              dup2\n              add\n              0x40\n              mstore\n              dup1\n              swap3\n              swap2\n              swap1\n              dup2\n              dup2\n              mstore\n              0x20\n              add\n              dup3\n              dup1\n              sload\n              0x01\n              dup2\n              0x01\n              and\n              iszero\n              0x0100\n              mul\n              sub\n              and\n              0x02\n              swap1\n              div\n              dup1\n              iszero\n              tag_195\n              jumpi\n              dup1\n              0x1f\n              lt\n              tag_196\n              jumpi\n              0x0100\n              dup1\n              dup4\n              sload\n              div\n              mul\n              dup4\n              mstore\n              swap2\n              0x20\n              add\n              swap2\n              jump(tag_195)\n            tag_196:\n              dup3\n              add\n              swap2\n              swap1\n              0x00\n              mstore\n              keccak256(0x00, 0x20)\n              swap1\n            tag_197:\n              dup2\n              sload\n              dup2\n              mstore\n              swap1\n              0x01\n              add\n              swap1\n              0x20\n              add\n              dup1\n              dup4\n              gt\n              tag_197\n              jumpi\n              dup3\n              swap1\n              sub\n              0x1f\n              and\n              dup3\n              add\n              swap2\n            tag_195:\n              pop\n              pop\n              pop\n              pop\n              pop\n              swap1\n              dup1\n              0x01\n              add\n              0x00\n              swap1\n              sload\n              swap1\n              0x0100\n              exp\n              swap1\n              div\n              0xff\n              and\n              swap1\n              dup1\n              0x01\n              add\n              0x01\n              swap1\n              sload\n              swap1\n              0x0100\n              exp\n              swap1\n              div\n              0xffffffffffffffffffffffffffffffffffffffff\n              and\n              swap1\n              dup1\n              0x02\n              add\n              sload\n              swap1\n              pop\n              dup5\n              jump\t// out\n                /* \"Topic.sol\":2754:2978  function canVote() public view returns (bool) {\r... */\n            tag_75:\n                /* \"Topic.sol\":2794:2798  bool */\n              0x00\n                /* \"Topic.sol\":2811:2838  TopicAssigner topicAssigner */\n              dup1\n                /* \"Topic.sol\":2855:2875  topicAssignerAddress */\n              0x01\n              0x00\n              swap1\n              sload\n              swap1\n              0x0100\n              exp\n              swap1\n              div\n              0xffffffffffffffffffffffffffffffffffffffff\n              and\n                /* \"Topic.sol\":2811:2876  TopicAssigner topicAssigner = TopicAssigner(topicAssignerAddress) */\n              swap1\n              pop\n                /* \"Topic.sol\":2916:2917  0 */\n              0x00\n                /* \"Topic.sol\":2895:2900  voted */\n              0x08\n                /* \"Topic.sol\":2895:2912  voted[msg.sender] */\n              0x00\n                /* \"Topic.sol\":2901:2911  msg.sender */\n              caller\n                /* \"Topic.sol\":2895:2912  voted[msg.sender] */\n              0xffffffffffffffffffffffffffffffffffffffff\n              and\n              0xffffffffffffffffffffffffffffffffffffffff\n              and\n              dup2\n              mstore\n              0x20\n              add\n              swap1\n              dup2\n              mstore\n              0x20\n              add\n              0x00\n              keccak256\n              sload\n                /* \"Topic.sol\":2895:2917  voted[msg.sender] == 0 */\n              eq\n                /* \"Topic.sol\":2895:2970  voted[msg.sender] == 0 && topicAssigner.hasTopic(msg.sender, address(this)) */\n              dup1\n              iszero\n              tag_199\n              jumpi\n              pop\n                /* \"Topic.sol\":2921:2934  topicAssigner */\n              dup1\n                /* \"Topic.sol\":2921:2943  topicAssigner.hasTopic */\n              0xffffffffffffffffffffffffffffffffffffffff\n              and\n              0x902701b7\n                /* \"Topic.sol\":2944:2954  msg.sender */\n              caller\n                /* \"Topic.sol\":2964:2968  this */\n              address\n                /* \"Topic.sol\":2921:2970  topicAssigner.hasTopic(msg.sender, address(this)) */\n              mload(0x40)\n              dup4\n              0xffffffff\n              and\n              0xe0\n              shl\n              dup2\n              mstore\n              0x04\n              add\n              dup1\n              dup4\n              0xffffffffffffffffffffffffffffffffffffffff\n              and\n              0xffffffffffffffffffffffffffffffffffffffff\n              and\n              dup2\n              mstore\n              0x20\n              add\n              dup3\n              0xffffffffffffffffffffffffffffffffffffffff\n              and\n              0xffffffffffffffffffffffffffffffffffffffff\n              and\n              dup2\n              mstore\n              0x20\n              add\n              swap3\n              pop\n              pop\n              pop\n              0x20\n              mload(0x40)\n              dup1\n              dup4\n              sub\n              dup2\n              dup7\n              dup1\n              extcodesize\n              iszero\n                /* \"--CODEGEN--\":8:17   */\n              dup1\n                /* \"--CODEGEN--\":5:7   */\n              iszero\n              tag_200\n              jumpi\n                /* \"--CODEGEN--\":30:31   */\n              0x00\n                /* \"--CODEGEN--\":27:28   */\n              dup1\n                /* \"--CODEGEN--\":20:32   */\n              revert\n                /* \"--CODEGEN--\":5:7   */\n            tag_200:\n                /* \"Topic.sol\":2921:2970  topicAssigner.hasTopic(msg.sender, address(this)) */\n              pop\n              gas\n              staticcall\n              iszero\n                /* \"--CODEGEN--\":8:17   */\n              dup1\n                /* \"--CODEGEN--\":5:7   */\n              iszero\n              tag_201\n              jumpi\n                /* \"--CODEGEN--\":45:61   */\n              returndatasize\n                /* \"--CODEGEN--\":42:43   */\n              0x00\n                /* \"--CODEGEN--\":39:40   */\n              dup1\n                /* \"--CODEGEN--\":24:62   */\n              returndatacopy\n                /* \"--CODEGEN--\":77:93   */\n              returndatasize\n                /* \"--CODEGEN--\":74:75   */\n              0x00\n                /* \"--CODEGEN--\":67:94   */\n              revert\n                /* \"--CODEGEN--\":5:7   */\n            tag_201:\n                /* \"Topic.sol\":2921:2970  topicAssigner.hasTopic(msg.sender, address(this)) */\n              pop\n              pop\n              pop\n              pop\n              mload(0x40)\n              returndatasize\n                /* \"--CODEGEN--\":13:15   */\n              0x20\n                /* \"--CODEGEN--\":8:11   */\n              dup2\n                /* \"--CODEGEN--\":5:16   */\n              lt\n                /* \"--CODEGEN--\":2:4   */\n              iszero\n              tag_202\n              jumpi\n                /* \"--CODEGEN--\":29:30   */\n              0x00\n                /* \"--CODEGEN--\":26:27   */\n              dup1\n                /* \"--CODEGEN--\":19:31   */\n              revert\n                /* \"--CODEGEN--\":2:4   */\n            tag_202:\n                /* \"Topic.sol\":2921:2970  topicAssigner.hasTopic(msg.sender, address(this)) */\n              dup2\n              add\n              swap1\n              dup1\n              dup1\n              mload\n              swap1\n              0x20\n              add\n              swap1\n              swap3\n              swap2\n              swap1\n              pop\n              pop\n              pop\n                /* \"Topic.sol\":2895:2970  voted[msg.sender] == 0 && topicAssigner.hasTopic(msg.sender, address(this)) */\n            tag_199:\n                /* \"Topic.sol\":2888:2970  return voted[msg.sender] == 0 && topicAssigner.hasTopic(msg.sender, address(this)) */\n              swap2\n              pop\n              pop\n                /* \"Topic.sol\":2754:2978  function canVote() public view returns (bool) {\r... */\n              swap1\n              jump\t// out\n                /* \"Topic.sol\":1190:1217  uint public truthReputation */\n            tag_78:\n              sload(0x10)\n              dup2\n              jump\t// out\n                /* \"Topic.sol\":508:537  uint public minimumInvestment */\n            tag_81:\n              sload(0x05)\n              dup2\n              jump\t// out\n                /* \"Topic.sol\":4220:4316  function getTruthCount() public view returns (uint) {\r... */\n            tag_84:\n                /* \"Topic.sol\":4266:4270  uint */\n              0x00\n                /* \"Topic.sol\":4290:4301  truthVoters */\n              0x09\n                /* \"Topic.sol\":4290:4308  truthVoters.length */\n              dup1\n              sload\n              swap1\n              pop\n                /* \"Topic.sol\":4283:4308  return truthVoters.length */\n              swap1\n              pop\n                /* \"Topic.sol\":4220:4316  function getTruthCount() public view returns (uint) {\r... */\n              swap1\n              jump\t// out\n                /* \"Topic.sol\":544:563  uint public endTime */\n            tag_87:\n              sload(0x06)\n              dup2\n              jump\t// out\n                /* \"Topic.sol\":977:1010  uint public lieMonetaryInvestment */\n            tag_90:\n              sload(0x0d)\n              dup2\n              jump\t// out\n                /* \"Topic.sol\":1302:1349  mapping(address => uint) public createdArgument */\n            tag_94:\n              mstore(0x20, 0x13)\n              dup1\n              0x00\n              mstore\n              keccak256(0x00, 0x40)\n              0x00\n              swap2\n              pop\n              swap1\n              pop\n              sload\n              dup2\n              jump\t// out\n                /* \"Topic.sol\":6818:7537  function claim() public {\r... */\n            tag_97:\n                /* \"Topic.sol\":6861:6871  canClaim() */\n              tag_205\n                /* \"Topic.sol\":6861:6869  canClaim */\n              tag_100\n                /* \"Topic.sol\":6861:6871  canClaim() */\n              jump\t// in\n            tag_205:\n                /* \"Topic.sol\":6853:6937  require(canClaim(), 'You did not vote during the period or the period is not over.') */\n              tag_206\n              jumpi\n              mload(0x40)\n              0x08c379a000000000000000000000000000000000000000000000000000000000\n              dup2\n              mstore\n              0x04\n              add\n              dup1\n              dup1\n              0x20\n              add\n              dup3\n              dup2\n              sub\n              dup3\n              mstore\n              0x3d\n              dup2\n              mstore\n              0x20\n              add\n              dup1\n              data_a10f947ba0aa3fe256eaedc5073a534f9ad99f6544d43c3b41c41d275abbd6fe\n              0x3d\n              swap2\n              codecopy\n              0x40\n              add\n              swap2\n              pop\n              pop\n              mload(0x40)\n              dup1\n              swap2\n              sub\n              swap1\n              revert\n            tag_206:\n                /* \"Topic.sol\":6948:6966  uint argumentIndex */\n              0x00\n                /* \"Topic.sol\":6969:6974  voted */\n              0x08\n                /* \"Topic.sol\":6969:6986  voted[msg.sender] */\n              0x00\n                /* \"Topic.sol\":6975:6985  msg.sender */\n              caller\n                /* \"Topic.sol\":6969:6986  voted[msg.sender] */\n              0xffffffffffffffffffffffffffffffffffffffff\n              and\n              0xffffffffffffffffffffffffffffffffffffffff\n              and\n              dup2\n              mstore\n              0x20\n              add\n              swap1\n              dup2\n              mstore\n              0x20\n              add\n              0x00\n              keccak256\n              sload\n                /* \"Topic.sol\":6948:6986  uint argumentIndex = voted[msg.sender] */\n              swap1\n              pop\n                /* \"Topic.sol\":6997:7017  Argument storage arg */\n              0x00\n                /* \"Topic.sol\":7020:7029  arguments */\n              0x07\n                /* \"Topic.sol\":7030:7043  argumentIndex */\n              dup3\n                /* \"Topic.sol\":7020:7044  arguments[argumentIndex] */\n              dup2\n              sload\n              dup2\n              lt\n              tag_207\n              jumpi\n              invalid\n            tag_207:\n              swap1\n              0x00\n              mstore\n              keccak256(0x00, 0x20)\n              swap1\n              0x03\n              mul\n              add\n                /* \"Topic.sol\":6997:7044  Argument storage arg = arguments[argumentIndex] */\n              swap1\n              pop\n                /* \"Topic.sol\":7098:7099  0 */\n              0x00\n                /* \"Topic.sol\":7086:7094  majority */\n              sload(0x16)\n                /* \"Topic.sol\":7086:7099  majority == 0 */\n              eq\n                /* \"Topic.sol\":7082:7147  if (majority == 0) {\r... */\n              iszero\n              tag_209\n              jumpi\n                /* \"Topic.sol\":7116:7135  calculateMajority() */\n              tag_210\n                /* \"Topic.sol\":7116:7133  calculateMajority */\n              tag_211\n                /* \"Topic.sol\":7116:7135  calculateMajority() */\n              jump\t// in\n            tag_210:\n                /* \"Topic.sol\":7082:7147  if (majority == 0) {\r... */\n            tag_209:\n                /* \"Topic.sol\":7163:7175  inMajority() */\n              tag_212\n                /* \"Topic.sol\":7163:7173  inMajority */\n              tag_150\n                /* \"Topic.sol\":7163:7175  inMajority() */\n              jump\t// in\n            tag_212:\n                /* \"Topic.sol\":7159:7295  if (inMajority()) {\r... */\n              iszero\n              tag_213\n              jumpi\n                /* \"Topic.sol\":7192:7202  msg.sender */\n              caller\n                /* \"Topic.sol\":7192:7211  msg.sender.transfer */\n              0xffffffffffffffffffffffffffffffffffffffff\n              and\n                /* \"Topic.sol\":7192:7283  msg.sender.transfer(this.calculateMonetaryGain(monetaryInvestment[msg.sender], arg.isTrue)) */\n              0x08fc\n                /* \"Topic.sol\":7212:7216  this */\n              address\n                /* \"Topic.sol\":7212:7238  this.calculateMonetaryGain */\n              0xffffffffffffffffffffffffffffffffffffffff\n              and\n              0xfda9198b\n                /* \"Topic.sol\":7239:7257  monetaryInvestment */\n              0x0b\n                /* \"Topic.sol\":7239:7269  monetaryInvestment[msg.sender] */\n              0x00\n                /* \"Topic.sol\":7258:7268  msg.sender */\n              caller\n                /* \"Topic.sol\":7239:7269  monetaryInvestment[msg.sender] */\n              0xffffffffffffffffffffffffffffffffffffffff\n              and\n              0xffffffffffffffffffffffffffffffffffffffff\n              and\n              dup2\n              mstore\n              0x20\n              add\n              swap1\n              dup2\n              mstore\n              0x20\n              add\n              0x00\n              keccak256\n              sload\n                /* \"Topic.sol\":7271:7274  arg */\n              dup6\n                /* \"Topic.sol\":7271:7281  arg.isTrue */\n              0x01\n              add\n              0x00\n              swap1\n              sload\n              swap1\n              0x0100\n              exp\n              swap1\n              div\n              0xff\n              and\n                /* \"Topic.sol\":7212:7282  this.calculateMonetaryGain(monetaryInvestment[msg.sender], arg.isTrue) */\n              mload(0x40)\n              dup4\n              0xffffffff\n              and\n              0xe0\n              shl\n              dup2\n              mstore\n              0x04\n              add\n              dup1\n              dup4\n              dup2\n              mstore\n              0x20\n              add\n              dup3\n              iszero\n              iszero\n              iszero\n              iszero\n              dup2\n              mstore\n              0x20\n              add\n              swap3\n              pop\n              pop\n              pop\n              0x20\n              mload(0x40)\n              dup1\n              dup4\n              sub\n              dup2\n              dup7\n              dup1\n              extcodesize\n              iszero\n                /* \"--CODEGEN--\":8:17   */\n              dup1\n                /* \"--CODEGEN--\":5:7   */\n              iszero\n              tag_214\n              jumpi\n                /* \"--CODEGEN--\":30:31   */\n              0x00\n                /* \"--CODEGEN--\":27:28   */\n              dup1\n                /* \"--CODEGEN--\":20:32   */\n              revert\n                /* \"--CODEGEN--\":5:7   */\n            tag_214:\n                /* \"Topic.sol\":7212:7282  this.calculateMonetaryGain(monetaryInvestment[msg.sender], arg.isTrue) */\n              pop\n              gas\n              staticcall\n              iszero\n                /* \"--CODEGEN--\":8:17   */\n              dup1\n                /* \"--CODEGEN--\":5:7   */\n              iszero\n              tag_215\n              jumpi\n                /* \"--CODEGEN--\":45:61   */\n              returndatasize\n                /* \"--CODEGEN--\":42:43   */\n              0x00\n                /* \"--CODEGEN--\":39:40   */\n              dup1\n                /* \"--CODEGEN--\":24:62   */\n              returndatacopy\n                /* \"--CODEGEN--\":77:93   */\n              returndatasize\n                /* \"--CODEGEN--\":74:75   */\n              0x00\n                /* \"--CODEGEN--\":67:94   */\n              revert\n                /* \"--CODEGEN--\":5:7   */\n            tag_215:\n                /* \"Topic.sol\":7212:7282  this.calculateMonetaryGain(monetaryInvestment[msg.sender], arg.isTrue) */\n              pop\n              pop\n              pop\n              pop\n              mload(0x40)\n              returndatasize\n                /* \"--CODEGEN--\":13:15   */\n              0x20\n                /* \"--CODEGEN--\":8:11   */\n              dup2\n                /* \"--CODEGEN--\":5:16   */\n              lt\n                /* \"--CODEGEN--\":2:4   */\n              iszero\n              tag_216\n              jumpi\n                /* \"--CODEGEN--\":29:30   */\n              0x00\n                /* \"--CODEGEN--\":26:27   */\n              dup1\n                /* \"--CODEGEN--\":19:31   */\n              revert\n                /* \"--CODEGEN--\":2:4   */\n            tag_216:\n                /* \"Topic.sol\":7212:7282  this.calculateMonetaryGain(monetaryInvestment[msg.sender], arg.isTrue) */\n              dup2\n              add\n              swap1\n              dup1\n              dup1\n              mload\n              swap1\n              0x20\n              add\n              swap1\n              swap3\n              swap2\n              swap1\n              pop\n              pop\n              pop\n                /* \"Topic.sol\":7192:7283  msg.sender.transfer(this.calculateMonetaryGain(monetaryInvestment[msg.sender], arg.isTrue)) */\n              swap1\n              dup2\n              iszero\n              mul\n              swap1\n              mload(0x40)\n              0x00\n              mload(0x40)\n              dup1\n              dup4\n              sub\n              dup2\n              dup6\n              dup9\n              dup9\n              call\n              swap4\n              pop\n              pop\n              pop\n              pop\n              iszero\n                /* \"--CODEGEN--\":8:17   */\n              dup1\n                /* \"--CODEGEN--\":5:7   */\n              iszero\n              tag_217\n              jumpi\n                /* \"--CODEGEN--\":45:61   */\n              returndatasize\n                /* \"--CODEGEN--\":42:43   */\n              0x00\n                /* \"--CODEGEN--\":39:40   */\n              dup1\n                /* \"--CODEGEN--\":24:62   */\n              returndatacopy\n                /* \"--CODEGEN--\":77:93   */\n              returndatasize\n                /* \"--CODEGEN--\":74:75   */\n              0x00\n                /* \"--CODEGEN--\":67:94   */\n              revert\n                /* \"--CODEGEN--\":5:7   */\n            tag_217:\n                /* \"Topic.sol\":7192:7283  msg.sender.transfer(this.calculateMonetaryGain(monetaryInvestment[msg.sender], arg.isTrue)) */\n              pop\n                /* \"Topic.sol\":7159:7295  if (inMajority()) {\r... */\n            tag_213:\n                /* \"Topic.sol\":7307:7335  ReputationFactory repFactory */\n              0x00\n                /* \"Topic.sol\":7356:7380  reputationFactoryAddress */\n              dup1\n              0x00\n              swap1\n              sload\n              swap1\n              0x0100\n              exp\n              swap1\n              div\n              0xffffffffffffffffffffffffffffffffffffffff\n              and\n                /* \"Topic.sol\":7307:7381  ReputationFactory repFactory = ReputationFactory(reputationFactoryAddress) */\n              swap1\n              pop\n                /* \"Topic.sol\":7392:7402  repFactory */\n              dup1\n                /* \"Topic.sol\":7392:7416  repFactory.addReputation */\n              0xffffffffffffffffffffffffffffffffffffffff\n              and\n              0x5f2ab567\n                /* \"Topic.sol\":7417:7421  this */\n              address\n                /* \"Topic.sol\":7417:7445  this.calculateReputationGain */\n              0xffffffffffffffffffffffffffffffffffffffff\n              and\n              0xb3b9ac1d\n                /* \"Topic.sol\":7446:7466  reputationInvestment */\n              0x0f\n                /* \"Topic.sol\":7446:7478  reputationInvestment[msg.sender] */\n              0x00\n                /* \"Topic.sol\":7467:7477  msg.sender */\n              caller\n                /* \"Topic.sol\":7446:7478  reputationInvestment[msg.sender] */\n              0xffffffffffffffffffffffffffffffffffffffff\n              and\n              0xffffffffffffffffffffffffffffffffffffffff\n              and\n              dup2\n              mstore\n              0x20\n              add\n              swap1\n              dup2\n              mstore\n              0x20\n              add\n              0x00\n              keccak256\n              sload\n                /* \"Topic.sol\":7417:7479  this.calculateReputationGain(reputationInvestment[msg.sender]) */\n              mload(0x40)\n              dup3\n              0xffffffff\n              and\n              0xe0\n              shl\n              dup2\n              mstore\n              0x04\n              add\n              dup1\n              dup3\n              dup2\n              mstore\n              0x20\n              add\n              swap2\n              pop\n              pop\n              0x20\n              mload(0x40)\n              dup1\n              dup4\n              sub\n              dup2\n              dup7\n              dup1\n              extcodesize\n              iszero\n                /* \"--CODEGEN--\":8:17   */\n              dup1\n                /* \"--CODEGEN--\":5:7   */\n              iszero\n              tag_218\n              jumpi\n                /* \"--CODEGEN--\":30:31   */\n              0x00\n                /* \"--CODEGEN--\":27:28   */\n              dup1\n                /* \"--CODEGEN--\":20:32   */\n              revert\n                /* \"--CODEGEN--\":5:7   */\n            tag_218:\n                /* \"Topic.sol\":7417:7479  this.calculateReputationGain(reputationInvestment[msg.sender]) */\n              pop\n              gas\n              staticcall\n              iszero\n                /* \"--CODEGEN--\":8:17   */\n              dup1\n                /* \"--CODEGEN--\":5:7   */\n              iszero\n              tag_219\n              jumpi\n                /* \"--CODEGEN--\":45:61   */\n              returndatasize\n                /* \"--CODEGEN--\":42:43   */\n              0x00\n                /* \"--CODEGEN--\":39:40   */\n              dup1\n                /* \"--CODEGEN--\":24:62   */\n              returndatacopy\n                /* \"--CODEGEN--\":77:93   */\n              returndatasize\n                /* \"--CODEGEN--\":74:75   */\n              0x00\n                /* \"--CODEGEN--\":67:94   */\n              revert\n                /* \"--CODEGEN--\":5:7   */\n            tag_219:\n                /* \"Topic.sol\":7417:7479  this.calculateReputationGain(reputationInvestment[msg.sender]) */\n              pop\n              pop\n              pop\n              pop\n              mload(0x40)\n              returndatasize\n                /* \"--CODEGEN--\":13:15   */\n              0x20\n                /* \"--CODEGEN--\":8:11   */\n              dup2\n                /* \"--CODEGEN--\":5:16   */\n              lt\n                /* \"--CODEGEN--\":2:4   */\n              iszero\n              tag_220\n              jumpi\n                /* \"--CODEGEN--\":29:30   */\n              0x00\n                /* \"--CODEGEN--\":26:27   */\n              dup1\n                /* \"--CODEGEN--\":19:31   */\n              revert\n                /* \"--CODEGEN--\":2:4   */\n            tag_220:\n                /* \"Topic.sol\":7417:7479  this.calculateReputationGain(reputationInvestment[msg.sender]) */\n              dup2\n              add\n              swap1\n              dup1\n              dup1\n              mload\n              swap1\n              0x20\n              add\n              swap1\n              swap3\n              swap2\n              swap1\n              pop\n              pop\n              pop\n                /* \"Topic.sol\":7481:7491  msg.sender */\n              caller\n                /* \"Topic.sol\":7392:7492  repFactory.addReputation(this.calculateReputationGain(reputationInvestment[msg.sender]), msg.sender) */\n              mload(0x40)\n              dup4\n              0xffffffff\n              and\n              0xe0\n              shl\n              dup2\n              mstore\n              0x04\n              add\n              dup1\n              dup4\n              dup2\n              mstore\n              0x20\n              add\n              dup3\n              0xffffffffffffffffffffffffffffffffffffffff\n              and\n              0xffffffffffffffffffffffffffffffffffffffff\n              and\n              dup2\n              mstore\n              0x20\n              add\n              swap3\n              pop\n              pop\n              pop\n              0x00\n              mload(0x40)\n              dup1\n              dup4\n              sub\n              dup2\n              0x00\n              dup8\n              dup1\n              extcodesize\n              iszero\n                /* \"--CODEGEN--\":8:17   */\n              dup1\n                /* \"--CODEGEN--\":5:7   */\n              iszero\n              tag_221\n              jumpi\n                /* \"--CODEGEN--\":30:31   */\n              0x00\n                /* \"--CODEGEN--\":27:28   */\n              dup1\n                /* \"--CODEGEN--\":20:32   */\n              revert\n                /* \"--CODEGEN--\":5:7   */\n            tag_221:\n                /* \"Topic.sol\":7392:7492  repFactory.addReputation(this.calculateReputationGain(reputationInvestment[msg.sender]), msg.sender) */\n              pop\n              gas\n              call\n              iszero\n                /* \"--CODEGEN--\":8:17   */\n              dup1\n                /* \"--CODEGEN--\":5:7   */\n              iszero\n              tag_222\n              jumpi\n                /* \"--CODEGEN--\":45:61   */\n              returndatasize\n                /* \"--CODEGEN--\":42:43   */\n              0x00\n                /* \"--CODEGEN--\":39:40   */\n              dup1\n                /* \"--CODEGEN--\":24:62   */\n              returndatacopy\n                /* \"--CODEGEN--\":77:93   */\n              returndatasize\n                /* \"--CODEGEN--\":74:75   */\n              0x00\n                /* \"--CODEGEN--\":67:94   */\n              revert\n                /* \"--CODEGEN--\":5:7   */\n            tag_222:\n                /* \"Topic.sol\":7392:7492  repFactory.addReputation(this.calculateReputationGain(reputationInvestment[msg.sender]), msg.sender) */\n              pop\n              pop\n              pop\n              pop\n                /* \"Topic.sol\":7525:7529  true */\n              0x01\n                /* \"Topic.sol\":7503:7510  claimed */\n              0x14\n                /* \"Topic.sol\":7503:7522  claimed[msg.sender] */\n              0x00\n                /* \"Topic.sol\":7511:7521  msg.sender */\n              caller\n                /* \"Topic.sol\":7503:7522  claimed[msg.sender] */\n              0xffffffffffffffffffffffffffffffffffffffff\n              and\n              0xffffffffffffffffffffffffffffffffffffffff\n              and\n              dup2\n              mstore\n              0x20\n              add\n              swap1\n              dup2\n              mstore\n              0x20\n              add\n              0x00\n              keccak256\n              0x00\n                /* \"Topic.sol\":7503:7529  claimed[msg.sender] = true */\n              0x0100\n              exp\n              dup2\n              sload\n              dup2\n              0xff\n              mul\n              not\n              and\n              swap1\n              dup4\n              iszero\n              iszero\n              mul\n              or\n              swap1\n              sstore\n              pop\n                /* \"Topic.sol\":6818:7537  function claim() public {\r... */\n              pop\n              pop\n              pop\n              jump\t// out\n                /* \"Topic.sol\":6617:6810  function canClaim() public view returns (bool) {\r... */\n            tag_100:\n                /* \"Topic.sol\":6658:6662  bool */\n              0x00\n                /* \"Topic.sol\":6675:6693  uint argumentIndex */\n              dup1\n                /* \"Topic.sol\":6696:6701  voted */\n              0x08\n                /* \"Topic.sol\":6696:6713  voted[msg.sender] */\n              0x00\n                /* \"Topic.sol\":6702:6712  msg.sender */\n              caller\n                /* \"Topic.sol\":6696:6713  voted[msg.sender] */\n              0xffffffffffffffffffffffffffffffffffffffff\n              and\n              0xffffffffffffffffffffffffffffffffffffffff\n              and\n              dup2\n              mstore\n              0x20\n              add\n              swap1\n              dup2\n              mstore\n              0x20\n              add\n              0x00\n              keccak256\n              sload\n                /* \"Topic.sol\":6675:6713  uint argumentIndex = voted[msg.sender] */\n              swap1\n              pop\n                /* \"Topic.sol\":6749:6756  endTime */\n              sload(0x06)\n                /* \"Topic.sol\":6731:6746  block.timestamp */\n              timestamp\n                /* \"Topic.sol\":6731:6756  block.timestamp > endTime */\n              gt\n                /* \"Topic.sol\":6731:6778  block.timestamp > endTime && argumentIndex != 0 */\n              dup1\n              iszero\n              tag_224\n              jumpi\n              pop\n                /* \"Topic.sol\":6777:6778  0 */\n              0x00\n                /* \"Topic.sol\":6760:6773  argumentIndex */\n              dup2\n                /* \"Topic.sol\":6760:6778  argumentIndex != 0 */\n              eq\n              iszero\n                /* \"Topic.sol\":6731:6778  block.timestamp > endTime && argumentIndex != 0 */\n            tag_224:\n                /* \"Topic.sol\":6731:6802  block.timestamp > endTime && argumentIndex != 0 && !claimed[msg.sender] */\n              dup1\n              iszero\n              tag_225\n              jumpi\n              pop\n                /* \"Topic.sol\":6783:6790  claimed */\n              0x14\n                /* \"Topic.sol\":6783:6802  claimed[msg.sender] */\n              0x00\n                /* \"Topic.sol\":6791:6801  msg.sender */\n              caller\n                /* \"Topic.sol\":6783:6802  claimed[msg.sender] */\n              0xffffffffffffffffffffffffffffffffffffffff\n              and\n              0xffffffffffffffffffffffffffffffffffffffff\n              and\n              dup2\n              mstore\n              0x20\n              add\n              swap1\n              dup2\n              mstore\n              0x20\n              add\n              0x00\n              keccak256\n              0x00\n              swap1\n              sload\n              swap1\n              0x0100\n              exp\n              swap1\n              div\n              0xff\n              and\n                /* \"Topic.sol\":6782:6802  !claimed[msg.sender] */\n              iszero\n                /* \"Topic.sol\":6731:6802  block.timestamp > endTime && argumentIndex != 0 && !claimed[msg.sender] */\n            tag_225:\n                /* \"Topic.sol\":6724:6802  return block.timestamp > endTime && argumentIndex != 0 && !claimed[msg.sender] */\n              swap2\n              pop\n              pop\n                /* \"Topic.sol\":6617:6810  function canClaim() public view returns (bool) {\r... */\n              swap1\n              jump\t// out\n                /* \"Topic.sol\":4324:4416  function getLieCount() public view returns (uint) {\r... */\n            tag_103:\n                /* \"Topic.sol\":4368:4372  uint */\n              0x00\n                /* \"Topic.sol\":4392:4401  lieVoters */\n              0x0a\n                /* \"Topic.sol\":4392:4408  lieVoters.length */\n              dup1\n              sload\n              swap1\n              pop\n                /* \"Topic.sol\":4385:4408  return lieVoters.length */\n              swap1\n              pop\n                /* \"Topic.sol\":4324:4416  function getLieCount() public view returns (uint) {\r... */\n              swap1\n              jump\t// out\n                /* \"Topic.sol\":2670:2746  function isTopic() public pure returns (bool) {\r... */\n            tag_106:\n                /* \"Topic.sol\":2710:2714  bool */\n              0x00\n                /* \"Topic.sol\":2734:2738  true */\n              0x01\n                /* \"Topic.sol\":2727:2738  return true */\n              swap1\n              pop\n                /* \"Topic.sol\":2670:2746  function isTopic() public pure returns (bool) {\r... */\n              swap1\n              jump\t// out\n                /* \"Topic.sol\":935:970  uint public truthMonetaryInvestment */\n            tag_109:\n              sload(0x0c)\n              dup2\n              jump\t// out\n                /* \"Topic.sol\":451:472  string public content */\n            tag_112:\n              0x03\n              dup1\n              sload\n              0x01\n              dup2\n              0x01\n              and\n              iszero\n              0x0100\n              mul\n              sub\n              and\n              0x02\n              swap1\n              div\n              dup1\n              0x1f\n              add\n              0x20\n              dup1\n              swap2\n              div\n              mul\n              0x20\n              add\n              mload(0x40)\n              swap1\n              dup2\n              add\n              0x40\n              mstore\n              dup1\n              swap3\n              swap2\n              swap1\n              dup2\n              dup2\n              mstore\n              0x20\n              add\n              dup3\n              dup1\n              sload\n              0x01\n              dup2\n              0x01\n              and\n              iszero\n              0x0100\n              mul\n              sub\n              and\n              0x02\n              swap1\n              div\n              dup1\n              iszero\n              tag_228\n              jumpi\n              dup1\n              0x1f\n              lt\n              tag_229\n              jumpi\n              0x0100\n              dup1\n              dup4\n              sload\n              div\n              mul\n              dup4\n              mstore\n              swap2\n              0x20\n              add\n              swap2\n              jump(tag_228)\n            tag_229:\n              dup3\n              add\n              swap2\n              swap1\n              0x00\n              mstore\n              keccak256(0x00, 0x20)\n              swap1\n            tag_230:\n              dup2\n              sload\n              dup2\n              mstore\n              swap1\n              0x01\n              add\n              swap1\n              0x20\n              add\n              dup1\n              dup4\n              gt\n              tag_230\n              jumpi\n              dup3\n              swap1\n              sub\n              0x1f\n              and\n              dup3\n              add\n              swap2\n            tag_228:\n              pop\n              pop\n              pop\n              pop\n              pop\n              dup2\n              jump\t// out\n                /* \"Topic.sol\":7545:7943  function creatorClaim() public _creatorOnly {\r... */\n            tag_119:\n                /* \"Topic.sol\":1621:1628  creator */\n              0x04\n              0x00\n              swap1\n              sload\n              swap1\n              0x0100\n              exp\n              swap1\n              div\n              0xffffffffffffffffffffffffffffffffffffffff\n              and\n                /* \"Topic.sol\":1607:1628  msg.sender == creator */\n              0xffffffffffffffffffffffffffffffffffffffff\n              and\n                /* \"Topic.sol\":1607:1617  msg.sender */\n              caller\n                /* \"Topic.sol\":1607:1628  msg.sender == creator */\n              0xffffffffffffffffffffffffffffffffffffffff\n              and\n              eq\n                /* \"Topic.sol\":1599:1691  require(msg.sender == creator, 'You must be the creator of this Topic in order to do this.') */\n              tag_232\n              jumpi\n              mload(0x40)\n              0x08c379a000000000000000000000000000000000000000000000000000000000\n              dup2\n              mstore\n              0x04\n              add\n              dup1\n              dup1\n              0x20\n              add\n              dup3\n              dup2\n              sub\n              dup3\n              mstore\n              0x3a\n              dup2\n              mstore\n              0x20\n              add\n              dup1\n              data_8e90808f17bc1108e9ea5a79970bcefb81f12d2e44e112b3ad4b251ae0873244\n              0x3a\n              swap2\n              codecopy\n              0x40\n              add\n              swap2\n              pop\n              pop\n              mload(0x40)\n              dup1\n              swap2\n              sub\n              swap1\n              revert\n            tag_232:\n                /* \"Topic.sol\":7644:7645  0 */\n              0x00\n                /* \"Topic.sol\":7627:7640  getLieCount() */\n              tag_234\n                /* \"Topic.sol\":7627:7638  getLieCount */\n              tag_103\n                /* \"Topic.sol\":7627:7640  getLieCount() */\n              jump\t// in\n            tag_234:\n                /* \"Topic.sol\":7609:7624  getTruthCount() */\n              tag_235\n                /* \"Topic.sol\":7609:7622  getTruthCount */\n              tag_84\n                /* \"Topic.sol\":7609:7624  getTruthCount() */\n              jump\t// in\n            tag_235:\n                /* \"Topic.sol\":7609:7640  getTruthCount() + getLieCount() */\n              add\n                /* \"Topic.sol\":7609:7645  getTruthCount() + getLieCount() == 0 */\n              eq\n                /* \"Topic.sol\":7600:7712  require((getTruthCount() + getLieCount() == 0), 'The money goes to the people who participated in the process.') */\n              tag_236\n              jumpi\n              mload(0x40)\n              0x08c379a000000000000000000000000000000000000000000000000000000000\n              dup2\n              mstore\n              0x04\n              add\n              dup1\n              dup1\n              0x20\n              add\n              dup3\n              dup2\n              sub\n              dup3\n              mstore\n              0x3d\n              dup2\n              mstore\n              0x20\n              add\n              dup1\n              data_487936df645dd8c7181d68f73972966a3a06b5ee3756057942e5a7608d64edfe\n              0x3d\n              swap2\n              codecopy\n              0x40\n              add\n              swap2\n              pop\n              pop\n              mload(0x40)\n              dup1\n              swap2\n              sub\n              swap1\n              revert\n            tag_236:\n                /* \"Topic.sol\":7749:7756  endTime */\n              sload(0x06)\n                /* \"Topic.sol\":7731:7746  block.timestamp */\n              timestamp\n                /* \"Topic.sol\":7731:7756  block.timestamp > endTime */\n              gt\n                /* \"Topic.sol\":7723:7815  require(block.timestamp > endTime, 'You can only claim your rewards after the time period.') */\n              tag_237\n              jumpi\n              mload(0x40)\n              0x08c379a000000000000000000000000000000000000000000000000000000000\n              dup2\n              mstore\n              0x04\n              add\n              dup1\n              dup1\n              0x20\n              add\n              dup3\n              dup2\n              sub\n              dup3\n              mstore\n              0x36\n              dup2\n              mstore\n              0x20\n              add\n              dup1\n              data_1382083f71a022fa6144748d79496d6f05d3bcf3a0f484b323383c5c8edd8d26\n              0x36\n              swap2\n              codecopy\n              0x40\n              add\n              swap2\n              pop\n              pop\n              mload(0x40)\n              dup1\n              swap2\n              sub\n              swap1\n              revert\n            tag_237:\n                /* \"Topic.sol\":7828:7838  msg.sender */\n              caller\n                /* \"Topic.sol\":7828:7847  msg.sender.transfer */\n              0xffffffffffffffffffffffffffffffffffffffff\n              and\n                /* \"Topic.sol\":7828:7870  msg.sender.transfer(address(this).balance) */\n              0x08fc\n                /* \"Topic.sol\":7848:7869  address(this).balance */\n              selfbalance\n                /* \"Topic.sol\":7828:7870  msg.sender.transfer(address(this).balance) */\n              swap1\n              dup2\n              iszero\n              mul\n              swap1\n              mload(0x40)\n              0x00\n              mload(0x40)\n              dup1\n              dup4\n              sub\n              dup2\n              dup6\n              dup9\n              dup9\n              call\n              swap4\n              pop\n              pop\n              pop\n              pop\n              iszero\n                /* \"--CODEGEN--\":8:17   */\n              dup1\n                /* \"--CODEGEN--\":5:7   */\n              iszero\n              tag_238\n              jumpi\n                /* \"--CODEGEN--\":45:61   */\n              returndatasize\n                /* \"--CODEGEN--\":42:43   */\n              0x00\n                /* \"--CODEGEN--\":39:40   */\n              dup1\n                /* \"--CODEGEN--\":24:62   */\n              returndatacopy\n                /* \"--CODEGEN--\":77:93   */\n              returndatasize\n                /* \"--CODEGEN--\":74:75   */\n              0x00\n                /* \"--CODEGEN--\":67:94   */\n              revert\n                /* \"--CODEGEN--\":5:7   */\n            tag_238:\n                /* \"Topic.sol\":7828:7870  msg.sender.transfer(address(this).balance) */\n              pop\n                /* \"Topic.sol\":7881:7898  markAsCompleted() */\n              tag_239\n                /* \"Topic.sol\":7881:7896  markAsCompleted */\n              tag_240\n                /* \"Topic.sol\":7881:7898  markAsCompleted() */\n              jump\t// in\n            tag_239:\n                /* \"Topic.sol\":7931:7935  true */\n              0x01\n                /* \"Topic.sol\":7909:7916  claimed */\n              0x14\n                /* \"Topic.sol\":7909:7928  claimed[msg.sender] */\n              0x00\n                /* \"Topic.sol\":7917:7927  msg.sender */\n              caller\n                /* \"Topic.sol\":7909:7928  claimed[msg.sender] */\n              0xffffffffffffffffffffffffffffffffffffffff\n              and\n              0xffffffffffffffffffffffffffffffffffffffff\n              and\n              dup2\n              mstore\n              0x20\n              add\n              swap1\n              dup2\n              mstore\n              0x20\n              add\n              0x00\n              keccak256\n              0x00\n                /* \"Topic.sol\":7909:7935  claimed[msg.sender] = true */\n              0x0100\n              exp\n              dup2\n              sload\n              dup2\n              0xff\n              mul\n              not\n              and\n              swap1\n              dup4\n              iszero\n              iszero\n              mul\n              or\n              swap1\n              sstore\n              pop\n                /* \"Topic.sol\":7545:7943  function creatorClaim() public _creatorOnly {\r... */\n              jump\t// out\n                /* \"Topic.sol\":627:664  mapping(address => uint) public voted */\n            tag_123:\n              mstore(0x20, 0x08)\n              dup1\n              0x00\n              mstore\n              keccak256(0x00, 0x40)\n              0x00\n              swap2\n              pop\n              swap1\n              pop\n              sload\n              dup2\n              jump\t// out\n                /* \"Topic.sol\":3040:4212  function vote(uint argumentIndex, uint reputationCost) public payable _mustBeWithinTimeFrame {\r... */\n            tag_126:\n                /* \"Topic.sol\":1790:1797  endTime */\n              sload(0x06)\n                /* \"Topic.sol\":1772:1787  block.timestamp */\n              timestamp\n                /* \"Topic.sol\":1772:1797  block.timestamp < endTime */\n              lt\n                /* \"Topic.sol\":1764:1845  require(block.timestamp < endTime, 'The period for the Topic has already ended.') */\n              tag_242\n              jumpi\n              mload(0x40)\n              0x08c379a000000000000000000000000000000000000000000000000000000000\n              dup2\n              mstore\n              0x04\n              add\n              dup1\n              dup1\n              0x20\n              add\n              dup3\n              dup2\n              sub\n              dup3\n              mstore\n              0x2b\n              dup2\n              mstore\n              0x20\n              add\n              dup1\n              data_9f7f122b70f117f8950311c325d9279ba88d6a0d2b593ed4f11b7663b9f48d07\n              0x2b\n              swap2\n              codecopy\n              0x40\n              add\n              swap2\n              pop\n              pop\n              mload(0x40)\n              dup1\n              swap2\n              sub\n              swap1\n              revert\n            tag_242:\n                /* \"Topic.sol\":3169:3170  0 */\n              0x00\n                /* \"Topic.sol\":3152:3165  argumentIndex */\n              dup3\n                /* \"Topic.sol\":3152:3170  argumentIndex != 0 */\n              eq\n              iszero\n                /* \"Topic.sol\":3144:3234  require(argumentIndex != 0, 'You cannot vote for the argument generated by the contract.') */\n              tag_244\n              jumpi\n              mload(0x40)\n              0x08c379a000000000000000000000000000000000000000000000000000000000\n              dup2\n              mstore\n              0x04\n              add\n              dup1\n              dup1\n              0x20\n              add\n              dup3\n              dup2\n              sub\n              dup3\n              mstore\n              0x3b\n              dup2\n              mstore\n              0x20\n              add\n              dup1\n              data_a51d6c7e63ccd193933dbe11cb306fe5ec831a64f09f21fc7409bad4b2e4d83d\n              0x3b\n              swap2\n              codecopy\n              0x40\n              add\n              swap2\n              pop\n              pop\n              mload(0x40)\n              dup1\n              swap2\n              sub\n              swap1\n              revert\n            tag_244:\n                /* \"Topic.sol\":3266:3283  minimumInvestment */\n              sload(0x05)\n                /* \"Topic.sol\":3253:3262  msg.value */\n              callvalue\n                /* \"Topic.sol\":3253:3283  msg.value >= minimumInvestment */\n              lt\n              iszero\n                /* \"Topic.sol\":3245:3358  require(msg.value >= minimumInvestment, 'You must invest at least the minimum amount as decided by the creator.') */\n              tag_245\n              jumpi\n              mload(0x40)\n              0x08c379a000000000000000000000000000000000000000000000000000000000\n              dup2\n              mstore\n              0x04\n              add\n              dup1\n              dup1\n              0x20\n              add\n              dup3\n              dup2\n              sub\n              dup3\n              mstore\n              0x46\n              dup2\n              mstore\n              0x20\n              add\n              dup1\n              data_34b98d23d562a1a462a2b6766e2d3e1a49232f6fdafbe1eaa8383a3a59d99a34\n              0x46\n              swap2\n              codecopy\n              0x60\n              add\n              swap2\n              pop\n              pop\n              mload(0x40)\n              dup1\n              swap2\n              sub\n              swap1\n              revert\n            tag_245:\n                /* \"Topic.sol\":3377:3386  canVote() */\n              tag_246\n                /* \"Topic.sol\":3377:3384  canVote */\n              tag_75\n                /* \"Topic.sol\":3377:3386  canVote() */\n              jump\t// in\n            tag_246:\n                /* \"Topic.sol\":3369:3466  require(canVote(), \"You don't have this topic on your available list or you have already voted.\") */\n              tag_247\n              jumpi\n              mload(0x40)\n              0x08c379a000000000000000000000000000000000000000000000000000000000\n              dup2\n              mstore\n              0x04\n              add\n              dup1\n              dup1\n              0x20\n              add\n              dup3\n              dup2\n              sub\n              dup3\n              mstore\n              0x4b\n              dup2\n              mstore\n              0x20\n              add\n              dup1\n              data_cce99a9599a6abdd22376ab7035884d1e392d41c83e7fcfff1492424abef7dca\n              0x4b\n              swap2\n              codecopy\n              0x60\n              add\n              swap2\n              pop\n              pop\n              mload(0x40)\n              dup1\n              swap2\n              sub\n              swap1\n              revert\n            tag_247:\n                /* \"Topic.sol\":3505:3529  reputationFactoryAddress */\n              0x00\n              dup1\n              swap1\n              sload\n              swap1\n              0x0100\n              exp\n              swap1\n              div\n              0xffffffffffffffffffffffffffffffffffffffff\n              and\n                /* \"Topic.sol\":3487:3546  ReputationFactory(reputationFactoryAddress).spendReputation */\n              0xffffffffffffffffffffffffffffffffffffffff\n              and\n              0x37c10389\n                /* \"Topic.sol\":3555:3559  this */\n              address\n                /* \"Topic.sol\":3562:3576  reputationCost */\n              dup4\n                /* \"Topic.sol\":3578:3588  msg.sender */\n              caller\n                /* \"Topic.sol\":3487:3589  ReputationFactory(reputationFactoryAddress).spendReputation(address(this), reputationCost, msg.sender) */\n              mload(0x40)\n              dup5\n              0xffffffff\n              and\n              0xe0\n              shl\n              dup2\n              mstore\n              0x04\n              add\n              dup1\n              dup5\n              0xffffffffffffffffffffffffffffffffffffffff\n              and\n              0xffffffffffffffffffffffffffffffffffffffff\n              and\n              dup2\n              mstore\n              0x20\n              add\n              dup4\n              dup2\n              mstore\n              0x20\n              add\n              dup3\n              0xffffffffffffffffffffffffffffffffffffffff\n              and\n              0xffffffffffffffffffffffffffffffffffffffff\n              and\n              dup2\n              mstore\n              0x20\n              add\n              swap4\n              pop\n              pop\n              pop\n              pop\n              0x00\n              mload(0x40)\n              dup1\n              dup4\n              sub\n              dup2\n              0x00\n              dup8\n              dup1\n              extcodesize\n              iszero\n                /* \"--CODEGEN--\":8:17   */\n              dup1\n                /* \"--CODEGEN--\":5:7   */\n              iszero\n              tag_248\n              jumpi\n                /* \"--CODEGEN--\":30:31   */\n              0x00\n                /* \"--CODEGEN--\":27:28   */\n              dup1\n                /* \"--CODEGEN--\":20:32   */\n              revert\n                /* \"--CODEGEN--\":5:7   */\n            tag_248:\n                /* \"Topic.sol\":3487:3589  ReputationFactory(reputationFactoryAddress).spendReputation(address(this), reputationCost, msg.sender) */\n              pop\n              gas\n              call\n              iszero\n                /* \"--CODEGEN--\":8:17   */\n              dup1\n                /* \"--CODEGEN--\":5:7   */\n              iszero\n              tag_249\n              jumpi\n                /* \"--CODEGEN--\":45:61   */\n              returndatasize\n                /* \"--CODEGEN--\":42:43   */\n              0x00\n                /* \"--CODEGEN--\":39:40   */\n              dup1\n                /* \"--CODEGEN--\":24:62   */\n              returndatacopy\n                /* \"--CODEGEN--\":77:93   */\n              returndatasize\n                /* \"--CODEGEN--\":74:75   */\n              0x00\n                /* \"--CODEGEN--\":67:94   */\n              revert\n                /* \"--CODEGEN--\":5:7   */\n            tag_249:\n                /* \"Topic.sol\":3487:3589  ReputationFactory(reputationFactoryAddress).spendReputation(address(this), reputationCost, msg.sender) */\n              pop\n              pop\n              pop\n              pop\n                /* \"Topic.sol\":3620:3633  argumentIndex */\n              dup2\n                /* \"Topic.sol\":3600:3605  voted */\n              0x08\n                /* \"Topic.sol\":3600:3617  voted[msg.sender] */\n              0x00\n                /* \"Topic.sol\":3606:3616  msg.sender */\n              caller\n                /* \"Topic.sol\":3600:3617  voted[msg.sender] */\n              0xffffffffffffffffffffffffffffffffffffffff\n              and\n              0xffffffffffffffffffffffffffffffffffffffff\n              and\n              dup2\n              mstore\n              0x20\n              add\n              swap1\n              dup2\n              mstore\n              0x20\n              add\n              0x00\n              keccak256\n                /* \"Topic.sol\":3600:3633  voted[msg.sender] = argumentIndex */\n              dup2\n              swap1\n              sstore\n              pop\n                /* \"Topic.sol\":3677:3686  msg.value */\n              callvalue\n                /* \"Topic.sol\":3644:3662  monetaryInvestment */\n              0x0b\n                /* \"Topic.sol\":3644:3674  monetaryInvestment[msg.sender] */\n              0x00\n                /* \"Topic.sol\":3663:3673  msg.sender */\n              caller\n                /* \"Topic.sol\":3644:3674  monetaryInvestment[msg.sender] */\n              0xffffffffffffffffffffffffffffffffffffffff\n              and\n              0xffffffffffffffffffffffffffffffffffffffff\n              and\n              dup2\n              mstore\n              0x20\n              add\n              swap1\n              dup2\n              mstore\n              0x20\n              add\n              0x00\n              keccak256\n                /* \"Topic.sol\":3644:3686  monetaryInvestment[msg.sender] = msg.value */\n              dup2\n              swap1\n              sstore\n              pop\n                /* \"Topic.sol\":3732:3746  reputationCost */\n              dup1\n                /* \"Topic.sol\":3697:3717  reputationInvestment */\n              0x0f\n                /* \"Topic.sol\":3697:3729  reputationInvestment[msg.sender] */\n              0x00\n                /* \"Topic.sol\":3718:3728  msg.sender */\n              caller\n                /* \"Topic.sol\":3697:3729  reputationInvestment[msg.sender] */\n              0xffffffffffffffffffffffffffffffffffffffff\n              and\n              0xffffffffffffffffffffffffffffffffffffffff\n              and\n              dup2\n              mstore\n              0x20\n              add\n              swap1\n              dup2\n              mstore\n              0x20\n              add\n              0x00\n              keccak256\n                /* \"Topic.sol\":3697:3746  reputationInvestment[msg.sender] = reputationCost */\n              dup2\n              swap1\n              sstore\n              pop\n                /* \"Topic.sol\":3786:3800  reputationCost */\n              dup1\n                /* \"Topic.sol\":3757:3782  totalReputationInvestment */\n              0x12\n              0x00\n                /* \"Topic.sol\":3757:3800  totalReputationInvestment += reputationCost */\n              dup3\n              dup3\n              sload\n              add\n              swap3\n              pop\n              pop\n              dup2\n              swap1\n              sstore\n              pop\n                /* \"Topic.sol\":3813:3822  arguments */\n              0x07\n                /* \"Topic.sol\":3823:3836  argumentIndex */\n              dup3\n                /* \"Topic.sol\":3813:3837  arguments[argumentIndex] */\n              dup2\n              sload\n              dup2\n              lt\n              tag_250\n              jumpi\n              invalid\n            tag_250:\n              swap1\n              0x00\n              mstore\n              keccak256(0x00, 0x20)\n              swap1\n              0x03\n              mul\n              add\n                /* \"Topic.sol\":3813:3847  arguments[argumentIndex].voteCount */\n              0x02\n              add\n              0x00\n                /* \"Topic.sol\":3813:3849  arguments[argumentIndex].voteCount++ */\n              dup2\n              sload\n              dup1\n              swap3\n              swap2\n              swap1\n              0x01\n              add\n              swap2\n              swap1\n              pop\n              sstore\n              pop\n                /* \"Topic.sol\":3864:3873  arguments */\n              0x07\n                /* \"Topic.sol\":3874:3887  argumentIndex */\n              dup3\n                /* \"Topic.sol\":3864:3888  arguments[argumentIndex] */\n              dup2\n              sload\n              dup2\n              lt\n              tag_252\n              jumpi\n              invalid\n            tag_252:\n              swap1\n              0x00\n              mstore\n              keccak256(0x00, 0x20)\n              swap1\n              0x03\n              mul\n              add\n                /* \"Topic.sol\":3864:3895  arguments[argumentIndex].isTrue */\n              0x01\n              add\n              0x00\n              swap1\n              sload\n              swap1\n              0x0100\n              exp\n              swap1\n              div\n              0xff\n              and\n                /* \"Topic.sol\":3860:4205  if (arguments[argumentIndex].isTrue) {\r... */\n              iszero\n              tag_254\n              jumpi\n                /* \"Topic.sol\":3912:3923  truthVoters */\n              0x09\n                /* \"Topic.sol\":3929:3939  msg.sender */\n              caller\n                /* \"Topic.sol\":3912:3940  truthVoters.push(msg.sender) */\n              swap1\n              dup1\n                /* \"--CODEGEN--\":39:40   */\n              0x01\n                /* \"--CODEGEN--\":33:36   */\n              dup2\n                /* \"--CODEGEN--\":27:37   */\n              sload\n                /* \"--CODEGEN--\":23:41   */\n              add\n                /* \"--CODEGEN--\":57:67   */\n              dup1\n                /* \"--CODEGEN--\":52:55   */\n              dup3\n                /* \"--CODEGEN--\":45:68   */\n              sstore\n                /* \"--CODEGEN--\":79:89   */\n              dup1\n                /* \"--CODEGEN--\":72:89   */\n              swap2\n              pop\n                /* \"--CODEGEN--\":0:93   */\n              pop\n                /* \"Topic.sol\":3912:3940  truthVoters.push(msg.sender) */\n              swap1\n              0x01\n              dup3\n              sub\n              swap1\n              0x00\n              mstore\n              keccak256(0x00, 0x20)\n              add\n              0x00\n              swap1\n              swap2\n              swap3\n              swap1\n              swap2\n              swap1\n              swap2\n              0x0100\n              exp\n              dup2\n              sload\n              dup2\n              0xffffffffffffffffffffffffffffffffffffffff\n              mul\n              not\n              and\n              swap1\n              dup4\n              0xffffffffffffffffffffffffffffffffffffffff\n              and\n              mul\n              or\n              swap1\n              sstore\n              pop\n              pop\n                /* \"Topic.sol\":3974:3988  reputationCost */\n              dup1\n                /* \"Topic.sol\":3955:3970  truthReputation */\n              0x10\n              0x00\n                /* \"Topic.sol\":3955:3988  truthReputation += reputationCost */\n              dup3\n              dup3\n              sload\n              add\n              swap3\n              pop\n              pop\n              dup2\n              swap1\n              sstore\n              pop\n                /* \"Topic.sol\":4030:4039  msg.value */\n              callvalue\n                /* \"Topic.sol\":4003:4026  truthMonetaryInvestment */\n              0x0c\n              0x00\n                /* \"Topic.sol\":4003:4039  truthMonetaryInvestment += msg.value */\n              dup3\n              dup3\n              sload\n              add\n              swap3\n              pop\n              pop\n              dup2\n              swap1\n              sstore\n              pop\n                /* \"Topic.sol\":3860:4205  if (arguments[argumentIndex].isTrue) {\r... */\n              jump(tag_256)\n            tag_254:\n                /* \"Topic.sol\":4072:4081  lieVoters */\n              0x0a\n                /* \"Topic.sol\":4087:4097  msg.sender */\n              caller\n                /* \"Topic.sol\":4072:4098  lieVoters.push(msg.sender) */\n              swap1\n              dup1\n                /* \"--CODEGEN--\":39:40   */\n              0x01\n                /* \"--CODEGEN--\":33:36   */\n              dup2\n                /* \"--CODEGEN--\":27:37   */\n              sload\n                /* \"--CODEGEN--\":23:41   */\n              add\n                /* \"--CODEGEN--\":57:67   */\n              dup1\n                /* \"--CODEGEN--\":52:55   */\n              dup3\n                /* \"--CODEGEN--\":45:68   */\n              sstore\n                /* \"--CODEGEN--\":79:89   */\n              dup1\n                /* \"--CODEGEN--\":72:89   */\n              swap2\n              pop\n                /* \"--CODEGEN--\":0:93   */\n              pop\n                /* \"Topic.sol\":4072:4098  lieVoters.push(msg.sender) */\n              swap1\n              0x01\n              dup3\n              sub\n              swap1\n              0x00\n              mstore\n              keccak256(0x00, 0x20)\n              add\n              0x00\n              swap1\n              swap2\n              swap3\n              swap1\n              swap2\n              swap1\n              swap2\n              0x0100\n              exp\n              dup2\n              sload\n              dup2\n              0xffffffffffffffffffffffffffffffffffffffff\n              mul\n              not\n              and\n              swap1\n              dup4\n              0xffffffffffffffffffffffffffffffffffffffff\n              and\n              mul\n              or\n              swap1\n              sstore\n              pop\n              pop\n                /* \"Topic.sol\":4130:4144  reputationCost */\n              dup1\n                /* \"Topic.sol\":4113:4126  lieReputation */\n              0x11\n              0x00\n                /* \"Topic.sol\":4113:4144  lieReputation += reputationCost */\n              dup3\n              dup3\n              sload\n              add\n              swap3\n              pop\n              pop\n              dup2\n              swap1\n              sstore\n              pop\n                /* \"Topic.sol\":4184:4193  msg.value */\n              callvalue\n                /* \"Topic.sol\":4159:4180  lieMonetaryInvestment */\n              0x0d\n              0x00\n                /* \"Topic.sol\":4159:4193  lieMonetaryInvestment += msg.value */\n              dup3\n              dup3\n              sload\n              add\n              swap3\n              pop\n              pop\n              dup2\n              swap1\n              sstore\n              pop\n                /* \"Topic.sol\":3860:4205  if (arguments[argumentIndex].isTrue) {\r... */\n            tag_256:\n                /* \"Topic.sol\":3040:4212  function vote(uint argumentIndex, uint reputationCost) public payable _mustBeWithinTimeFrame {\r... */\n              pop\n              pop\n              jump\t// out\n                /* \"Topic.sol\":8908:9157  function calculateReputationGain(uint initialReputation) public view returns (uint) {\r... */\n            tag_130:\n                /* \"Topic.sol\":8986:8990  uint */\n              0x00\n                /* \"Topic.sol\":9007:9019  inMajority() */\n              tag_259\n                /* \"Topic.sol\":9007:9017  inMajority */\n              tag_150\n                /* \"Topic.sol\":9007:9019  inMajority() */\n              jump\t// in\n            tag_259:\n                /* \"Topic.sol\":9003:9150  if (inMajority()) {\r... */\n              iszero\n              tag_260\n              jumpi\n                /* \"Topic.sol\":9068:9070  10 */\n              0x0a\n                /* \"Topic.sol\":9063:9065  11 */\n              0x0b\n                /* \"Topic.sol\":9043:9060  initialReputation */\n              dup4\n                /* \"Topic.sol\":9043:9065  initialReputation * 11 */\n              mul\n                /* \"Topic.sol\":9043:9070  initialReputation * 11 / 10 */\n              dup2\n              tag_261\n              jumpi\n              invalid\n            tag_261:\n              div\n                /* \"Topic.sol\":9036:9070  return initialReputation * 11 / 10 */\n              swap1\n              pop\n              jump(tag_258)\n                /* \"Topic.sol\":9003:9150  if (inMajority()) {\r... */\n            tag_260:\n                /* \"Topic.sol\":9135:9137  10 */\n              0x0a\n                /* \"Topic.sol\":9131:9132  8 */\n              0x08\n                /* \"Topic.sol\":9111:9128  initialReputation */\n              dup4\n                /* \"Topic.sol\":9111:9132  initialReputation * 8 */\n              mul\n                /* \"Topic.sol\":9111:9137  initialReputation * 8 / 10 */\n              dup2\n              tag_263\n              jumpi\n              invalid\n            tag_263:\n              div\n                /* \"Topic.sol\":9104:9137  return initialReputation * 8 / 10 */\n              swap1\n              pop\n                /* \"Topic.sol\":8908:9157  function calculateReputationGain(uint initialReputation) public view returns (uint) {\r... */\n            tag_258:\n              swap2\n              swap1\n              pop\n              jump\t// out\n                /* \"Topic.sol\":1535:1555  uint public majority */\n            tag_133:\n              sload(0x16)\n              dup2\n              jump\t// out\n                /* \"Topic.sol\":5389:5486  function getArgumentCount() public view returns (uint) {\r... */\n            tag_136:\n                /* \"Topic.sol\":5438:5442  uint */\n              0x00\n                /* \"Topic.sol\":5462:5471  arguments */\n              0x07\n                /* \"Topic.sol\":5462:5478  arguments.length */\n              dup1\n              sload\n              swap1\n              pop\n                /* \"Topic.sol\":5455:5478  return arguments.length */\n              swap1\n              pop\n                /* \"Topic.sol\":5389:5486  function getArgumentCount() public view returns (uint) {\r... */\n              swap1\n              jump\t// out\n                /* \"Topic.sol\":1384:1423  mapping(address => bool) public claimed */\n            tag_140:\n              mstore(0x20, 0x14)\n              dup1\n              0x00\n              mstore\n              keccak256(0x00, 0x40)\n              0x00\n              swap2\n              pop\n              sload\n              swap1\n              0x0100\n              exp\n              swap1\n              div\n              0xff\n              and\n              dup2\n              jump\t// out\n                /* \"Topic.sol\":1098:1150  mapping(address => uint) public reputationInvestment */\n            tag_144:\n              mstore(0x20, 0x0f)\n              dup1\n              0x00\n              mstore\n              keccak256(0x00, 0x40)\n              0x00\n              swap2\n              pop\n              swap1\n              pop\n              sload\n              dup2\n              jump\t// out\n                /* \"Topic.sol\":1224:1249  uint public lieReputation */\n            tag_147:\n              sload(0x11)\n              dup2\n              jump\t// out\n                /* \"Topic.sol\":9481:9700  function inMajority() public view returns (bool) {\r... */\n            tag_150:\n                /* \"Topic.sol\":9524:9528  bool */\n              0x00\n                /* \"Topic.sol\":9541:9561  Argument storage arg */\n              dup1\n                /* \"Topic.sol\":9564:9573  arguments */\n              0x07\n                /* \"Topic.sol\":9574:9579  voted */\n              0x08\n                /* \"Topic.sol\":9574:9591  voted[msg.sender] */\n              0x00\n                /* \"Topic.sol\":9580:9590  msg.sender */\n              caller\n                /* \"Topic.sol\":9574:9591  voted[msg.sender] */\n              0xffffffffffffffffffffffffffffffffffffffff\n              and\n              0xffffffffffffffffffffffffffffffffffffffff\n              and\n              dup2\n              mstore\n              0x20\n              add\n              swap1\n              dup2\n              mstore\n              0x20\n              add\n              0x00\n              keccak256\n              sload\n                /* \"Topic.sol\":9564:9592  arguments[voted[msg.sender]] */\n              dup2\n              sload\n              dup2\n              lt\n              tag_266\n              jumpi\n              invalid\n            tag_266:\n              swap1\n              0x00\n              mstore\n              keccak256(0x00, 0x20)\n              swap1\n              0x03\n              mul\n              add\n                /* \"Topic.sol\":9541:9592  Argument storage arg = arguments[voted[msg.sender]] */\n              swap1\n              pop\n                /* \"Topic.sol\":9623:9624  1 */\n              0x01\n                /* \"Topic.sol\":9611:9619  majority */\n              sload(0x16)\n                /* \"Topic.sol\":9611:9624  majority == 1 */\n              eq\n                /* \"Topic.sol\":9611:9638  majority == 1 && arg.isTrue */\n              dup1\n              iszero\n              tag_268\n              jumpi\n              pop\n                /* \"Topic.sol\":9628:9631  arg */\n              dup1\n                /* \"Topic.sol\":9628:9638  arg.isTrue */\n              0x01\n              add\n              0x00\n              swap1\n              sload\n              swap1\n              0x0100\n              exp\n              swap1\n              div\n              0xff\n              and\n                /* \"Topic.sol\":9611:9638  majority == 1 && arg.isTrue */\n            tag_268:\n                /* \"Topic.sol\":9610:9673  (majority == 1 && arg.isTrue) || (majority == 2 && !arg.isTrue) */\n              dup1\n              tag_269\n              jumpi\n              pop\n                /* \"Topic.sol\":9656:9657  2 */\n              0x02\n                /* \"Topic.sol\":9644:9652  majority */\n              sload(0x16)\n                /* \"Topic.sol\":9644:9657  majority == 2 */\n              eq\n                /* \"Topic.sol\":9644:9672  majority == 2 && !arg.isTrue */\n              dup1\n              iszero\n              tag_270\n              jumpi\n              pop\n                /* \"Topic.sol\":9662:9665  arg */\n              dup1\n                /* \"Topic.sol\":9662:9672  arg.isTrue */\n              0x01\n              add\n              0x00\n              swap1\n              sload\n              swap1\n              0x0100\n              exp\n              swap1\n              div\n              0xff\n              and\n                /* \"Topic.sol\":9661:9672  !arg.isTrue */\n              iszero\n                /* \"Topic.sol\":9644:9672  majority == 2 && !arg.isTrue */\n            tag_270:\n                /* \"Topic.sol\":9610:9673  (majority == 1 && arg.isTrue) || (majority == 2 && !arg.isTrue) */\n            tag_269:\n                /* \"Topic.sol\":9610:9692  (majority == 1 && arg.isTrue) || (majority == 2 && !arg.isTrue) || (majority == 3) */\n              dup1\n              tag_271\n              jumpi\n              pop\n                /* \"Topic.sol\":9690:9691  3 */\n              0x03\n                /* \"Topic.sol\":9678:9686  majority */\n              sload(0x16)\n                /* \"Topic.sol\":9678:9691  majority == 3 */\n              eq\n                /* \"Topic.sol\":9610:9692  (majority == 1 && arg.isTrue) || (majority == 2 && !arg.isTrue) || (majority == 3) */\n            tag_271:\n                /* \"Topic.sol\":9603:9692  return (majority == 1 && arg.isTrue) || (majority == 2 && !arg.isTrue) || (majority == 3) */\n              swap2\n              pop\n              pop\n                /* \"Topic.sol\":9481:9700  function inMajority() public view returns (bool) {\r... */\n              swap1\n              jump\t// out\n                /* \"Topic.sol\":697:733  address payable[] public truthVoters */\n            tag_154:\n              0x09\n              dup2\n              dup2\n              sload\n              dup2\n              lt\n              tag_272\n              jumpi\n              invalid\n            tag_272:\n              swap1\n              0x00\n              mstore\n              keccak256(0x00, 0x20)\n              add\n              0x00\n              swap2\n              pop\n              sload\n              swap1\n              0x0100\n              exp\n              swap1\n              div\n              0xffffffffffffffffffffffffffffffffffffffff\n              and\n              dup2\n              jump\t// out\n                /* \"Topic.sol\":1256:1293  uint public totalReputationInvestment */\n            tag_157:\n              sload(0x12)\n              dup2\n              jump\t// out\n                /* \"Topic.sol\":4927:5381  function modifyArgument(uint argumentIndex, string memory newContent, bool belief) public _mustBeWithinTimeFrame  {\r... */\n            tag_164:\n                /* \"Topic.sol\":1790:1797  endTime */\n              sload(0x06)\n                /* \"Topic.sol\":1772:1787  block.timestamp */\n              timestamp\n                /* \"Topic.sol\":1772:1797  block.timestamp < endTime */\n              lt\n                /* \"Topic.sol\":1764:1845  require(block.timestamp < endTime, 'The period for the Topic has already ended.') */\n              tag_275\n              jumpi\n              mload(0x40)\n              0x08c379a000000000000000000000000000000000000000000000000000000000\n              dup2\n              mstore\n              0x04\n              add\n              dup1\n              dup1\n              0x20\n              add\n              dup3\n              dup2\n              sub\n              dup3\n              mstore\n              0x2b\n              dup2\n              mstore\n              0x20\n              add\n              dup1\n              data_9f7f122b70f117f8950311c325d9279ba88d6a0d2b593ed4f11b7663b9f48d07\n              0x2b\n              swap2\n              codecopy\n              0x40\n              add\n              swap2\n              pop\n              pop\n              mload(0x40)\n              dup1\n              swap2\n              sub\n              swap1\n              revert\n            tag_275:\n                /* \"Topic.sol\":5052:5072  Argument storage arg */\n              0x00\n                /* \"Topic.sol\":5075:5084  arguments */\n              0x07\n                /* \"Topic.sol\":5085:5098  argumentIndex */\n              dup5\n                /* \"Topic.sol\":5075:5099  arguments[argumentIndex] */\n              dup2\n              sload\n              dup2\n              lt\n              tag_277\n              jumpi\n              invalid\n            tag_277:\n              swap1\n              0x00\n              mstore\n              keccak256(0x00, 0x20)\n              swap1\n              0x03\n              mul\n              add\n                /* \"Topic.sol\":5052:5099  Argument storage arg = arguments[argumentIndex] */\n              swap1\n              pop\n                /* \"Topic.sol\":5133:5143  msg.sender */\n              caller\n                /* \"Topic.sol\":5118:5143  arg.creator == msg.sender */\n              0xffffffffffffffffffffffffffffffffffffffff\n              and\n                /* \"Topic.sol\":5118:5121  arg */\n              dup2\n                /* \"Topic.sol\":5118:5129  arg.creator */\n              0x01\n              add\n              0x01\n              swap1\n              sload\n              swap1\n              0x0100\n              exp\n              swap1\n              div\n              0xffffffffffffffffffffffffffffffffffffffff\n              and\n                /* \"Topic.sol\":5118:5143  arg.creator == msg.sender */\n              0xffffffffffffffffffffffffffffffffffffffff\n              and\n              eq\n                /* \"Topic.sol\":5110:5211  require(arg.creator == msg.sender, 'You must be the creator of this argument to modify its contents') */\n              tag_279\n              jumpi\n              mload(0x40)\n              0x08c379a000000000000000000000000000000000000000000000000000000000\n              dup2\n              mstore\n              0x04\n              add\n              dup1\n              dup1\n              0x20\n              add\n              dup3\n              dup2\n              sub\n              dup3\n              mstore\n              0x3f\n              dup2\n              mstore\n              0x20\n              add\n              dup1\n              data_462972cdfa3949c714200f01cc0119c34f13d2febb0b716c5c847368d043f42b\n              0x3f\n              swap2\n              codecopy\n              0x40\n              add\n              swap2\n              pop\n              pop\n              mload(0x40)\n              dup1\n              swap2\n              sub\n              swap1\n              revert\n            tag_279:\n                /* \"Topic.sol\":5247:5248  0 */\n              0x00\n                /* \"Topic.sol\":5230:5233  arg */\n              dup2\n                /* \"Topic.sol\":5230:5243  arg.voteCount */\n              0x02\n              add\n              sload\n                /* \"Topic.sol\":5230:5248  arg.voteCount == 0 */\n              eq\n                /* \"Topic.sol\":5222:5308  require(arg.voteCount == 0, 'Argument has already been voted on. Cannot be modified.') */\n              tag_280\n              jumpi\n              mload(0x40)\n              0x08c379a000000000000000000000000000000000000000000000000000000000\n              dup2\n              mstore\n              0x04\n              add\n              dup1\n              dup1\n              0x20\n              add\n              dup3\n              dup2\n              sub\n              dup3\n              mstore\n              0x37\n              dup2\n              mstore\n              0x20\n              add\n              dup1\n              data_1be1a3b9e30cac1814559605f4ac4b55233032853cb87250e77213ea0088799b\n              0x37\n              swap2\n              codecopy\n              0x40\n              add\n              swap2\n              pop\n              pop\n              mload(0x40)\n              dup1\n              swap2\n              sub\n              swap1\n              revert\n            tag_280:\n                /* \"Topic.sol\":5333:5343  newContent */\n              dup3\n                /* \"Topic.sol\":5319:5322  arg */\n              dup2\n                /* \"Topic.sol\":5319:5330  arg.content */\n              0x00\n              add\n                /* \"Topic.sol\":5319:5343  arg.content = newContent */\n              swap1\n              dup1\n              mload\n              swap1\n              0x20\n              add\n              swap1\n              tag_281\n              swap3\n              swap2\n              swap1\n              tag_282\n              jump\t// in\n            tag_281:\n              pop\n                /* \"Topic.sol\":5367:5373  belief */\n              dup2\n                /* \"Topic.sol\":5354:5357  arg */\n              dup2\n                /* \"Topic.sol\":5354:5364  arg.isTrue */\n              0x01\n              add\n              0x00\n                /* \"Topic.sol\":5354:5373  arg.isTrue = belief */\n              0x0100\n              exp\n              dup2\n              sload\n              dup2\n              0xff\n              mul\n              not\n              and\n              swap1\n              dup4\n              iszero\n              iszero\n              mul\n              or\n              swap1\n              sstore\n              pop\n                /* \"Topic.sol\":1856:1857  _ */\n              pop\n                /* \"Topic.sol\":4927:5381  function modifyArgument(uint argumentIndex, string memory newContent, bool belief) public _mustBeWithinTimeFrame  {\r... */\n              pop\n              pop\n              pop\n              jump\t// out\n                /* \"Topic.sol\":9708:9806  function getMoneyPool() public view returns (uint) {\r... */\n            tag_167:\n                /* \"Topic.sol\":9753:9757  uint */\n              0x00\n                /* \"Topic.sol\":9777:9798  address(this).balance */\n              selfbalance\n                /* \"Topic.sol\":9770:9798  return address(this).balance */\n              swap1\n              pop\n                /* \"Topic.sol\":9708:9806  function getMoneyPool() public view returns (uint) {\r... */\n              swap1\n              jump\t// out\n                /* \"Topic.sol\":1505:1528  bool public isCompleted */\n            tag_170:\n              0x15\n              0x00\n              swap1\n              sload\n              swap1\n              0x0100\n              exp\n              swap1\n              div\n              0xff\n              and\n              dup2\n              jump\t// out\n                /* \"Topic.sol\":1017:1047  uint public finalMonetaryTotal */\n            tag_173:\n              sload(0x0e)\n              dup2\n              jump\t// out\n                /* \"Topic.sol\":9165:9473  function getDetails() public view returns (address, uint, uint, bool, bool, bool, uint, uint, uint, uint, uint) {\r... */\n            tag_176:\n                /* \"Topic.sol\":9208:9215  address */\n              0x00\n                /* \"Topic.sol\":9217:9221  uint */\n              dup1\n                /* \"Topic.sol\":9223:9227  uint */\n              0x00\n                /* \"Topic.sol\":9229:9233  bool */\n              dup1\n                /* \"Topic.sol\":9235:9239  bool */\n              0x00\n                /* \"Topic.sol\":9241:9245  bool */\n              dup1\n                /* \"Topic.sol\":9247:9251  uint */\n              0x00\n                /* \"Topic.sol\":9253:9257  uint */\n              dup1\n                /* \"Topic.sol\":9259:9263  uint */\n              0x00\n                /* \"Topic.sol\":9265:9269  uint */\n              dup1\n                /* \"Topic.sol\":9271:9275  uint */\n              0x00\n                /* \"Topic.sol\":9296:9303  creator */\n              0x04\n              0x00\n              swap1\n              sload\n              swap1\n              0x0100\n              exp\n              swap1\n              div\n              0xffffffffffffffffffffffffffffffffffffffff\n              and\n                /* \"Topic.sol\":9305:9322  minimumInvestment */\n              sload(0x05)\n                /* \"Topic.sol\":9324:9331  endTime */\n              sload(0x06)\n                /* \"Topic.sol\":9333:9344  isCompleted */\n              0x15\n              0x00\n              swap1\n              sload\n              swap1\n              0x0100\n              exp\n              swap1\n              div\n              0xff\n              and\n                /* \"Topic.sol\":9346:9356  canClaim() */\n              tag_285\n                /* \"Topic.sol\":9346:9354  canClaim */\n              tag_100\n                /* \"Topic.sol\":9346:9356  canClaim() */\n              jump\t// in\n            tag_285:\n                /* \"Topic.sol\":9358:9365  claimed */\n              0x14\n                /* \"Topic.sol\":9358:9377  claimed[msg.sender] */\n              0x00\n                /* \"Topic.sol\":9366:9376  msg.sender */\n              caller\n                /* \"Topic.sol\":9358:9377  claimed[msg.sender] */\n              0xffffffffffffffffffffffffffffffffffffffff\n              and\n              0xffffffffffffffffffffffffffffffffffffffff\n              and\n              dup2\n              mstore\n              0x20\n              add\n              swap1\n              dup2\n              mstore\n              0x20\n              add\n              0x00\n              keccak256\n              0x00\n              swap1\n              sload\n              swap1\n              0x0100\n              exp\n              swap1\n              div\n              0xff\n              and\n                /* \"Topic.sol\":9379:9400  address(this).balance */\n              selfbalance\n                /* \"Topic.sol\":9402:9417  getTruthCount() */\n              tag_286\n                /* \"Topic.sol\":9402:9415  getTruthCount */\n              tag_84\n                /* \"Topic.sol\":9402:9417  getTruthCount() */\n              jump\t// in\n            tag_286:\n                /* \"Topic.sol\":9419:9432  getLieCount() */\n              tag_287\n                /* \"Topic.sol\":9419:9430  getLieCount */\n              tag_103\n                /* \"Topic.sol\":9419:9432  getLieCount() */\n              jump\t// in\n            tag_287:\n                /* \"Topic.sol\":9434:9449  truthReputation */\n              sload(0x10)\n                /* \"Topic.sol\":9451:9464  lieReputation */\n              sload(0x11)\n                /* \"Topic.sol\":9288:9465  return (creator, minimumInvestment, endTime, isCompleted, canClaim(), claimed[msg.sender], address(this).balance, getTruthCount(), getLieCount(), truthReputation, lieReputation) */\n              swap11\n              pop\n              swap11\n              pop\n              swap11\n              pop\n              swap11\n              pop\n              swap11\n              pop\n              swap11\n              pop\n              swap11\n              pop\n              swap11\n              pop\n              swap11\n              pop\n              swap11\n              pop\n              swap11\n              pop\n                /* \"Topic.sol\":9165:9473  function getDetails() public view returns (address, uint, uint, bool, bool, bool, uint, uint, uint, uint, uint) {\r... */\n              swap1\n              swap2\n              swap3\n              swap4\n              swap5\n              swap6\n              swap7\n              swap8\n              swap9\n              swap10\n              swap11\n              jump\t// out\n                /* \"Topic.sol\":8118:8900  function calculateMonetaryGain(uint initialMonetaryInvestment, bool onTruthSide) public view returns (uint) {\r... */\n            tag_180:\n                /* \"Topic.sol\":8220:8224  uint */\n              0x00\n                /* \"Topic.sol\":8237:8261  uint tempTotalInvestment */\n              dup1\n                /* \"Topic.sol\":8276:8287  onTruthSide */\n              dup3\n                /* \"Topic.sol\":8272:8437  if (onTruthSide) {\r... */\n              iszero\n              tag_289\n              jumpi\n                /* \"Topic.sol\":8326:8349  truthMonetaryInvestment */\n              sload(0x0c)\n                /* \"Topic.sol\":8304:8349  tempTotalInvestment = truthMonetaryInvestment */\n              swap1\n              pop\n                /* \"Topic.sol\":8272:8437  if (onTruthSide) {\r... */\n              jump(tag_290)\n            tag_289:\n                /* \"Topic.sol\":8404:8425  lieMonetaryInvestment */\n              sload(0x0d)\n                /* \"Topic.sol\":8382:8425  tempTotalInvestment = lieMonetaryInvestment */\n              swap1\n              pop\n                /* \"Topic.sol\":8272:8437  if (onTruthSide) {\r... */\n            tag_290:\n                /* \"Topic.sol\":8476:8477  0 */\n              0x00\n                /* \"Topic.sol\":8453:8472  tempTotalInvestment */\n              dup2\n                /* \"Topic.sol\":8453:8477  tempTotalInvestment <= 0 */\n              gt\n                /* \"Topic.sol\":8449:8514  if (tempTotalInvestment <= 0) {\r... */\n              tag_291\n              jumpi\n                /* \"Topic.sol\":8501:8502  0 */\n              0x00\n                /* \"Topic.sol\":8494:8502  return 0 */\n              swap2\n              pop\n              pop\n              jump(tag_288)\n                /* \"Topic.sol\":8449:8514  if (tempTotalInvestment <= 0) {\r... */\n            tag_291:\n                /* \"Topic.sol\":8530:8541  isCompleted */\n              0x15\n              0x00\n              swap1\n              sload\n              swap1\n              0x0100\n              exp\n              swap1\n              div\n              0xff\n              and\n                /* \"Topic.sol\":8526:8893  if (isCompleted) {\r... */\n              iszero\n              tag_292\n              jumpi\n                /* \"Topic.sol\":8574:8575  3 */\n              0x03\n                /* \"Topic.sol\":8562:8570  majority */\n              sload(0x16)\n                /* \"Topic.sol\":8562:8575  majority == 3 */\n              eq\n                /* \"Topic.sol\":8558:8681  if (majority == 3) {\r... */\n              iszero\n              tag_293\n              jumpi\n                /* \"Topic.sol\":8644:8665  lieMonetaryInvestment */\n              sload(0x0d)\n                /* \"Topic.sol\":8618:8641  truthMonetaryInvestment */\n              sload(0x0c)\n                /* \"Topic.sol\":8618:8665  truthMonetaryInvestment + lieMonetaryInvestment */\n              add\n                /* \"Topic.sol\":8596:8665  tempTotalInvestment = truthMonetaryInvestment + lieMonetaryInvestment */\n              swap1\n              pop\n                /* \"Topic.sol\":8558:8681  if (majority == 3) {\r... */\n            tag_293:\n                /* \"Topic.sol\":8751:8770  tempTotalInvestment */\n              dup1\n                /* \"Topic.sol\":8723:8748  initialMonetaryInvestment */\n              dup5\n                /* \"Topic.sol\":8702:8720  finalMonetaryTotal */\n              sload(0x0e)\n                /* \"Topic.sol\":8702:8748  finalMonetaryTotal * initialMonetaryInvestment */\n              mul\n                /* \"Topic.sol\":8702:8770  finalMonetaryTotal * initialMonetaryInvestment / tempTotalInvestment */\n              dup2\n              tag_294\n              jumpi\n              invalid\n            tag_294:\n              div\n                /* \"Topic.sol\":8695:8770  return finalMonetaryTotal * initialMonetaryInvestment / tempTotalInvestment */\n              swap2\n              pop\n              pop\n              jump(tag_288)\n                /* \"Topic.sol\":8526:8893  if (isCompleted) {\r... */\n            tag_292:\n                /* \"Topic.sol\":8862:8881  tempTotalInvestment */\n              dup1\n                /* \"Topic.sol\":8834:8859  initialMonetaryInvestment */\n              dup5\n                /* \"Topic.sol\":8810:8831  address(this).balance */\n              selfbalance\n                /* \"Topic.sol\":8810:8859  address(this).balance * initialMonetaryInvestment */\n              mul\n                /* \"Topic.sol\":8810:8881  address(this).balance * initialMonetaryInvestment / tempTotalInvestment */\n              dup2\n              tag_296\n              jumpi\n              invalid\n            tag_296:\n              div\n                /* \"Topic.sol\":8803:8881  return address(this).balance * initialMonetaryInvestment / tempTotalInvestment */\n              swap2\n              pop\n              pop\n                /* \"Topic.sol\":8118:8900  function calculateMonetaryGain(uint initialMonetaryInvestment, bool onTruthSide) public view returns (uint) {\r... */\n            tag_288:\n              swap3\n              swap2\n              pop\n              pop\n              jump\t// out\n                /* \"Topic.sol\":5657:6332  function calculateMajority() internal {\r... */\n            tag_211:\n                /* \"Topic.sol\":5726:5727  0 */\n              0x00\n                /* \"Topic.sol\":5714:5722  majority */\n              sload(0x16)\n                /* \"Topic.sol\":5714:5727  majority == 0 */\n              eq\n                /* \"Topic.sol\":5706:5766  require(majority == 0, 'Majority has already been decided.') */\n              tag_298\n              jumpi\n              mload(0x40)\n              0x08c379a000000000000000000000000000000000000000000000000000000000\n              dup2\n              mstore\n              0x04\n              add\n              dup1\n              dup1\n              0x20\n              add\n              dup3\n              dup2\n              sub\n              dup3\n              mstore\n              0x22\n              dup2\n              mstore\n              0x20\n              add\n              dup1\n              data_b923ef61fa2999a084d0e68c9e9898cf18c32317d3ee24c87dceb47dffcde339\n              0x22\n              swap2\n              codecopy\n              0x40\n              add\n              swap2\n              pop\n              pop\n              mload(0x40)\n              dup1\n              swap2\n              sub\n              swap1\n              revert\n            tag_298:\n                /* \"Topic.sol\":5800:5805  false */\n              0x00\n                /* \"Topic.sol\":5785:5805  isCompleted == false */\n              iszero\n              iszero\n                /* \"Topic.sol\":5785:5796  isCompleted */\n              0x15\n              0x00\n              swap1\n              sload\n              swap1\n              0x0100\n              exp\n              swap1\n              div\n              0xff\n              and\n                /* \"Topic.sol\":5785:5805  isCompleted == false */\n              iszero\n              iszero\n              eq\n                /* \"Topic.sol\":5777:5847  require(isCompleted == false, 'Topic is already marked as completed.') */\n              tag_299\n              jumpi\n              mload(0x40)\n              0x08c379a000000000000000000000000000000000000000000000000000000000\n              dup2\n              mstore\n              0x04\n              add\n              dup1\n              dup1\n              0x20\n              add\n              dup3\n              dup2\n              sub\n              dup3\n              mstore\n              0x25\n              dup2\n              mstore\n              0x20\n              add\n              dup1\n              data_69abe80003e6d0795ace8e04b4282120b32e88a03434cef64287876f072cb77e\n              0x25\n              swap2\n              codecopy\n              0x40\n              add\n              swap2\n              pop\n              pop\n              mload(0x40)\n              dup1\n              swap2\n              sub\n              swap1\n              revert\n            tag_299:\n                /* \"Topic.sol\":5884:5891  endTime */\n              sload(0x06)\n                /* \"Topic.sol\":5866:5881  block.timestamp */\n              timestamp\n                /* \"Topic.sol\":5866:5891  block.timestamp > endTime */\n              gt\n                /* \"Topic.sol\":5858:5960  require(block.timestamp > endTime, 'Majority can only be calculated after the time period has ended.') */\n              tag_300\n              jumpi\n              mload(0x40)\n              0x08c379a000000000000000000000000000000000000000000000000000000000\n              dup2\n              mstore\n              0x04\n              add\n              dup1\n              dup1\n              0x20\n              add\n              dup3\n              dup2\n              sub\n              dup3\n              mstore\n              0x40\n              dup2\n              mstore\n              0x20\n              add\n              dup1\n              data_81338d347818a2fed0620a7e85f685926d9e1bdbc7e2764bf0092067d32f7024\n              0x40\n              swap2\n              codecopy\n              0x40\n              add\n              swap2\n              pop\n              pop\n              mload(0x40)\n              dup1\n              swap2\n              sub\n              swap1\n              revert\n            tag_300:\n                /* \"Topic.sol\":5973:5988  uint truthCount */\n              0x00\n                /* \"Topic.sol\":5991:6006  getTruthCount() */\n              tag_301\n                /* \"Topic.sol\":5991:6004  getTruthCount */\n              tag_84\n                /* \"Topic.sol\":5991:6006  getTruthCount() */\n              jump\t// in\n            tag_301:\n                /* \"Topic.sol\":5973:6006  uint truthCount = getTruthCount() */\n              swap1\n              pop\n                /* \"Topic.sol\":6017:6030  uint lieCount */\n              0x00\n                /* \"Topic.sol\":6033:6046  getLieCount() */\n              tag_302\n                /* \"Topic.sol\":6033:6044  getLieCount */\n              tag_103\n                /* \"Topic.sol\":6033:6046  getLieCount() */\n              jump\t// in\n            tag_302:\n                /* \"Topic.sol\":6017:6046  uint lieCount = getLieCount() */\n              swap1\n              pop\n                /* \"Topic.sol\":6076:6084  lieCount */\n              dup1\n                /* \"Topic.sol\":6063:6073  truthCount */\n              dup3\n                /* \"Topic.sol\":6063:6084  truthCount > lieCount */\n              gt\n                /* \"Topic.sol\":6059:6242  if (truthCount > lieCount) {\r... */\n              iszero\n              tag_303\n              jumpi\n                /* \"Topic.sol\":6112:6113  1 */\n              0x01\n                /* \"Topic.sol\":6101:6109  majority */\n              0x16\n                /* \"Topic.sol\":6101:6113  majority = 1 */\n              dup2\n              swap1\n              sstore\n              pop\n                /* \"Topic.sol\":6059:6242  if (truthCount > lieCount) {\r... */\n              jump(tag_304)\n            tag_303:\n                /* \"Topic.sol\":6148:6156  lieCount */\n              dup1\n                /* \"Topic.sol\":6135:6145  truthCount */\n              dup3\n                /* \"Topic.sol\":6135:6156  truthCount < lieCount */\n              lt\n                /* \"Topic.sol\":6131:6242  if (truthCount < lieCount) {\r... */\n              iszero\n              tag_305\n              jumpi\n                /* \"Topic.sol\":6184:6185  2 */\n              0x02\n                /* \"Topic.sol\":6173:6181  majority */\n              0x16\n                /* \"Topic.sol\":6173:6185  majority = 2 */\n              dup2\n              swap1\n              sstore\n              pop\n                /* \"Topic.sol\":6131:6242  if (truthCount < lieCount) {\r... */\n              jump(tag_306)\n            tag_305:\n                /* \"Topic.sol\":6229:6230  3 */\n              0x03\n                /* \"Topic.sol\":6218:6226  majority */\n              0x16\n                /* \"Topic.sol\":6218:6230  majority = 3 */\n              dup2\n              swap1\n              sstore\n              pop\n                /* \"Topic.sol\":6131:6242  if (truthCount < lieCount) {\r... */\n            tag_306:\n                /* \"Topic.sol\":6059:6242  if (truthCount > lieCount) {\r... */\n            tag_304:\n                /* \"Topic.sol\":6275:6296  address(this).balance */\n              selfbalance\n                /* \"Topic.sol\":6254:6272  finalMonetaryTotal */\n              0x0e\n                /* \"Topic.sol\":6254:6296  finalMonetaryTotal = address(this).balance */\n              dup2\n              swap1\n              sstore\n              pop\n                /* \"Topic.sol\":6307:6324  markAsCompleted() */\n              tag_307\n                /* \"Topic.sol\":6307:6322  markAsCompleted */\n              tag_240\n                /* \"Topic.sol\":6307:6324  markAsCompleted() */\n              jump\t// in\n            tag_307:\n                /* \"Topic.sol\":5657:6332  function calculateMajority() internal {\r... */\n              pop\n              pop\n              jump\t// out\n                /* \"Topic.sol\":6344:6609  function markAsCompleted() internal {\r... */\n            tag_240:\n                /* \"Topic.sol\":6405:6409  true */\n              0x01\n                /* \"Topic.sol\":6391:6402  isCompleted */\n              0x15\n              0x00\n                /* \"Topic.sol\":6391:6409  isCompleted = true */\n              0x0100\n              exp\n              dup2\n              sload\n              dup2\n              0xff\n              mul\n              not\n              and\n              swap1\n              dup4\n              iszero\n              iszero\n              mul\n              or\n              swap1\n              sstore\n              pop\n                /* \"Topic.sol\":6481:6506  TopicFactory topicFactory */\n              0x00\n                /* \"Topic.sol\":6522:6541  topicFactoryAddress */\n              0x02\n              0x00\n              swap1\n              sload\n              swap1\n              0x0100\n              exp\n              swap1\n              div\n              0xffffffffffffffffffffffffffffffffffffffff\n              and\n                /* \"Topic.sol\":6481:6542  TopicFactory topicFactory = TopicFactory(topicFactoryAddress) */\n              swap1\n              pop\n                /* \"Topic.sol\":6553:6565  topicFactory */\n              dup1\n                /* \"Topic.sol\":6553:6586  topicFactory.markTopicAsCompleted */\n              0xffffffffffffffffffffffffffffffffffffffff\n              and\n              0xe25db2a4\n                /* \"Topic.sol\":6595:6599  this */\n              address\n                /* \"Topic.sol\":6553:6601  topicFactory.markTopicAsCompleted(address(this)) */\n              mload(0x40)\n              dup3\n              0xffffffff\n              and\n              0xe0\n              shl\n              dup2\n              mstore\n              0x04\n              add\n              dup1\n              dup3\n              0xffffffffffffffffffffffffffffffffffffffff\n              and\n              0xffffffffffffffffffffffffffffffffffffffff\n              and\n              dup2\n              mstore\n              0x20\n              add\n              swap2\n              pop\n              pop\n              0x00\n              mload(0x40)\n              dup1\n              dup4\n              sub\n              dup2\n              0x00\n              dup8\n              dup1\n              extcodesize\n              iszero\n                /* \"--CODEGEN--\":8:17   */\n              dup1\n                /* \"--CODEGEN--\":5:7   */\n              iszero\n              tag_309\n              jumpi\n                /* \"--CODEGEN--\":30:31   */\n              0x00\n                /* \"--CODEGEN--\":27:28   */\n              dup1\n                /* \"--CODEGEN--\":20:32   */\n              revert\n                /* \"--CODEGEN--\":5:7   */\n            tag_309:\n                /* \"Topic.sol\":6553:6601  topicFactory.markTopicAsCompleted(address(this)) */\n              pop\n              gas\n              call\n              iszero\n                /* \"--CODEGEN--\":8:17   */\n              dup1\n                /* \"--CODEGEN--\":5:7   */\n              iszero\n              tag_310\n              jumpi\n                /* \"--CODEGEN--\":45:61   */\n              returndatasize\n                /* \"--CODEGEN--\":42:43   */\n              0x00\n                /* \"--CODEGEN--\":39:40   */\n              dup1\n                /* \"--CODEGEN--\":24:62   */\n              returndatacopy\n                /* \"--CODEGEN--\":77:93   */\n              returndatasize\n                /* \"--CODEGEN--\":74:75   */\n              0x00\n                /* \"--CODEGEN--\":67:94   */\n              revert\n                /* \"--CODEGEN--\":5:7   */\n            tag_310:\n                /* \"Topic.sol\":6553:6601  topicFactory.markTopicAsCompleted(address(this)) */\n              pop\n              pop\n              pop\n              pop\n                /* \"Topic.sol\":6344:6609  function markAsCompleted() internal {\r... */\n              pop\n              jump\t// out\n                /* \"Topic.sol\":96:11994  contract Topic {\r... */\n            tag_186:\n              mload(0x40)\n              dup1\n              0x80\n              add\n              0x40\n              mstore\n              dup1\n              0x60\n              dup2\n              mstore\n              0x20\n              add\n              iszero(iszero(0x00))\n              dup2\n              mstore\n              0x20\n              add\n              and(0xffffffffffffffffffffffffffffffffffffffff, 0x00)\n              dup2\n              mstore\n              0x20\n              add\n              0x00\n              dup2\n              mstore\n              pop\n              swap1\n              jump\t// out\n            tag_189:\n              dup3\n              dup1\n              sload\n              0x01\n              dup2\n              0x01\n              and\n              iszero\n              0x0100\n              mul\n              sub\n              and\n              0x02\n              swap1\n              div\n              swap1\n              0x00\n              mstore\n              keccak256(0x00, 0x20)\n              swap1\n              0x1f\n              add\n              0x20\n              swap1\n              div\n              dup2\n              add\n              swap3\n              dup3\n              0x1f\n              lt\n              tag_312\n              jumpi\n              dup1\n              mload\n              not(0xff)\n              and\n              dup4\n              dup1\n              add\n              or\n              dup6\n              sstore\n              jump(tag_311)\n            tag_312:\n              dup3\n              dup1\n              add\n              0x01\n              add\n              dup6\n              sstore\n              dup3\n              iszero\n              tag_311\n              jumpi\n              swap2\n              dup3\n              add\n            tag_313:\n              dup3\n              dup2\n              gt\n              iszero\n              tag_314\n              jumpi\n              dup3\n              mload\n              dup3\n              sstore\n              swap2\n              0x20\n              add\n              swap2\n              swap1\n              0x01\n              add\n              swap1\n              jump(tag_313)\n            tag_314:\n            tag_311:\n              pop\n              swap1\n              pop\n              tag_315\n              swap2\n              swap1\n              tag_316\n              jump\t// in\n            tag_315:\n              pop\n              swap1\n              jump\t// out\n            tag_282:\n              dup3\n              dup1\n              sload\n              0x01\n              dup2\n              0x01\n              and\n              iszero\n              0x0100\n              mul\n              sub\n              and\n              0x02\n              swap1\n              div\n              swap1\n              0x00\n              mstore\n              keccak256(0x00, 0x20)\n              swap1\n              0x1f\n              add\n              0x20\n              swap1\n              div\n              dup2\n              add\n              swap3\n              dup3\n              0x1f\n              lt\n              tag_318\n              jumpi\n              dup1\n              mload\n              not(0xff)\n              and\n              dup4\n              dup1\n              add\n              or\n              dup6\n              sstore\n              jump(tag_317)\n            tag_318:\n              dup3\n              dup1\n              add\n              0x01\n              add\n              dup6\n              sstore\n              dup3\n              iszero\n              tag_317\n              jumpi\n              swap2\n              dup3\n              add\n            tag_319:\n              dup3\n              dup2\n              gt\n              iszero\n              tag_320\n              jumpi\n              dup3\n              mload\n              dup3\n              sstore\n              swap2\n              0x20\n              add\n              swap2\n              swap1\n              0x01\n              add\n              swap1\n              jump(tag_319)\n            tag_320:\n            tag_317:\n              pop\n              swap1\n              pop\n              tag_321\n              swap2\n              swap1\n              tag_316\n              jump\t// in\n            tag_321:\n              pop\n              swap1\n              jump\t// out\n            tag_316:\n              tag_322\n              swap2\n              swap1\n            tag_323:\n              dup1\n              dup3\n              gt\n              iszero\n              tag_324\n              jumpi\n              0x00\n              dup2\n              0x00\n              swap1\n              sstore\n              pop\n              0x01\n              add\n              jump(tag_323)\n            tag_324:\n              pop\n              swap1\n              jump\n            tag_322:\n              swap1\n              jump\t// out\n            stop\n            data_1382083f71a022fa6144748d79496d6f05d3bcf3a0f484b323383c5c8edd8d26 596f752063616e206f6e6c7920636c61696d20796f75722072657761726473206166746572207468652074696d6520706572696f642e\n            data_1be1a3b9e30cac1814559605f4ac4b55233032853cb87250e77213ea0088799b 417267756d656e742068617320616c7265616479206265656e20766f746564206f6e2e2043616e6e6f74206265206d6f6469666965642e\n            data_34b98d23d562a1a462a2b6766e2d3e1a49232f6fdafbe1eaa8383a3a59d99a34 596f75206d75737420696e76657374206174206c6561737420746865206d696e696d756d20616d6f756e742061732064656369646564206279207468652063726561746f722e\n            data_462972cdfa3949c714200f01cc0119c34f13d2febb0b716c5c847368d043f42b 596f75206d757374206265207468652063726561746f72206f66207468697320617267756d656e7420746f206d6f646966792069747320636f6e74656e7473\n            data_487936df645dd8c7181d68f73972966a3a06b5ee3756057942e5a7608d64edfe 546865206d6f6e657920676f657320746f207468652070656f706c652077686f2070617274696369706174656420696e207468652070726f636573732e\n            data_69abe80003e6d0795ace8e04b4282120b32e88a03434cef64287876f072cb77e 546f70696320697320616c7265616479206d61726b656420617320636f6d706c657465642e\n            data_81338d347818a2fed0620a7e85f685926d9e1bdbc7e2764bf0092067d32f7024 4d616a6f726974792063616e206f6e6c792062652063616c63756c61746564206166746572207468652074696d6520706572696f642068617320656e6465642e\n            data_8912f675a50e382e9fd7b592cf1cd9595235c43ce4309904b1bd35e2a18fc4ee 596f75206861766520616c7265616479206372656174656420616e20617267756d656e742e\n            data_8e90808f17bc1108e9ea5a79970bcefb81f12d2e44e112b3ad4b251ae0873244 596f75206d757374206265207468652063726561746f72206f66207468697320546f70696320696e206f7264657220746f20646f20746869732e\n            data_9f7f122b70f117f8950311c325d9279ba88d6a0d2b593ed4f11b7663b9f48d07 54686520706572696f6420666f722074686520546f7069632068617320616c726561647920656e6465642e\n            data_a10f947ba0aa3fe256eaedc5073a534f9ad99f6544d43c3b41c41d275abbd6fe 596f7520646964206e6f7420766f746520647572696e672074686520706572696f64206f722074686520706572696f64206973206e6f74206f7665722e\n            data_a51d6c7e63ccd193933dbe11cb306fe5ec831a64f09f21fc7409bad4b2e4d83d 596f752063616e6e6f7420766f746520666f722074686520617267756d656e742067656e6572617465642062792074686520636f6e74726163742e\n            data_b923ef61fa2999a084d0e68c9e9898cf18c32317d3ee24c87dceb47dffcde339 4d616a6f726974792068617320616c7265616479206265656e20646563696465642e\n            data_cce99a9599a6abdd22376ab7035884d1e392d41c83e7fcfff1492424abef7dca 596f7520646f6e27742068617665207468697320746f706963206f6e20796f757220617661696c61626c65206c697374206f7220796f75206861766520616c726561647920766f7465642e\n\n            auxdata: 0xa265627a7a72315820094695ba5d4dfd0ccbe1bda83854fa9c868f957ecb9e6c86199050181876630e64736f6c63430005100032\n        }\n    }\n\n    auxdata: 0xa265627a7a723158207226abed7b8e8b8ac640807ad84d1e3e65a4d01d8aeece62a1f077851bedd19864736f6c63430005100032\n}\n","bytecode":{"linkReferences":{},"object":"608060405234801561001057600080fd5b5060405161503b38038061503b8339818101604052602081101561003357600080fd5b810190808051906020019092919050505080600860006101000a81548173ffffffffffffffffffffffffffffffffffffffff021916908373ffffffffffffffffffffffffffffffffffffffff16021790555033600760006101000a81548173ffffffffffffffffffffffffffffffffffffffff021916908373ffffffffffffffffffffffffffffffffffffffff16021790555050614f65806100d66000396000f3fe6080604052600436106200010a5760003560e01c80638da5cb5b11620000975780639d378fe911620000615780639d378fe914620005f9578063dc983f081462000699578063dfb0970014620007bc578063e25db2a414620007ea576200010a565b80638da5cb5b14620004b15780638fdb9d72146200050b5780639a202d47146200058a5780639c6472c014620005a4576200010a565b80635ced058e11620000d95780635ced058e14620002d457806370480275146200035357806373cd5cce14620003a857806382c947b71462000448576200010a565b80630a5e47bb146200010f57806333cfe2ce14620001e4578063405b21f714620002515780635159467b146200027f575b600080fd5b620001e2600480360360608110156200012757600080fd5b81019080803590602001906401000000008111156200014557600080fd5b8201836020820111156200015857600080fd5b803590602001918460018302840111640100000000831117156200017b57600080fd5b91908080601f016020809104026020016040519081016040528093929190818152602001838380828437600081840152601f19601f82011690508083019250505050505050919291929080359060200190929190803590602001909291905050506200083f565b005b348015620001f157600080fd5b5062000237600480360360208110156200020a57600080fd5b81019080803573ffffffffffffffffffffffffffffffffffffffff16906020019092919050505062000dfc565b604051808215151515815260200191505060405180910390f35b3480156200025e57600080fd5b506200026962000e52565b6040518082815260200191505060405180910390f35b3480156200028c57600080fd5b50620002d260048036036020811015620002a557600080fd5b81019080803573ffffffffffffffffffffffffffffffffffffffff16906020019092919050505062000e65565b005b348015620002e157600080fd5b506200031160048036036020811015620002fa57600080fd5b810190808035906020019092919050505062000f70565b604051808273ffffffffffffffffffffffffffffffffffffffff1673ffffffffffffffffffffffffffffffffffffffff16815260200191505060405180910390f35b3480156200036057600080fd5b50620003a6600480360360208110156200037957600080fd5b81019080803573ffffffffffffffffffffffffffffffffffffffff16906020019092919050505062000f7d565b005b348015620003b557600080fd5b50620003ef60048036036040811015620003ce57600080fd5b810190808035906020019092919080359060200190929190505050620010d5565b6040518080602001828103825283818151815260200191508051906020019060200280838360005b838110156200043457808201518184015260208101905062000417565b505050509050019250505060405180910390f35b3480156200045557600080fd5b506200049b600480360360208110156200046e57600080fd5b81019080803573ffffffffffffffffffffffffffffffffffffffff1690602001909291905050506200117d565b6040518082815260200191505060405180910390f35b348015620004be57600080fd5b50620004c9620011a0565b604051808273ffffffffffffffffffffffffffffffffffffffff1673ffffffffffffffffffffffffffffffffffffffff16815260200191505060405180910390f35b3480156200051857600080fd5b5062000548600480360360208110156200053157600080fd5b8101908080359060200190929190505050620011c6565b604051808273ffffffffffffffffffffffffffffffffffffffff1673ffffffffffffffffffffffffffffffffffffffff16815260200191505060405180910390f35b3480156200059757600080fd5b50620005a262001290565b005b348015620005b157600080fd5b50620005f760048036036020811015620005ca57600080fd5b81019080803573ffffffffffffffffffffffffffffffffffffffff169060200190929190505050620012ea565b005b3480156200060657600080fd5b5062000640600480360360408110156200061f57600080fd5b810190808035906020019092919080359060200190929190505050620013d6565b6040518080602001828103825283818151815260200191508051906020019060200280838360005b838110156200068557808201518184015260208101905062000668565b505050509050019250505060405180910390f35b348015620006a657600080fd5b506200076360048036036020811015620006bf57600080fd5b8101908080359060200190640100000000811115620006dd57600080fd5b820183602082011115620006f057600080fd5b803590602001918460208302840111640100000000831117156200071357600080fd5b919080806020026020016040519081016040528093929190818152602001838360200280828437600081840152601f19601f8201169050808301925050505050505091929192905050506200147e565b6040518080602001828103825283818151815260200191508051906020019060200280838360005b83811015620007a85780820151818401526020810190506200078b565b505050509050019250505060405180910390f35b348015620007c957600080fd5b50620007d4620014ac565b6040518082815260200191505060405180910390f35b348015620007f757600080fd5b506200083d600480360360208110156200081057600080fd5b81019080803573ffffffffffffffffffffffffffffffffffffffff169060200190929190505050620014bf565b005b600073ffffffffffffffffffffffffffffffffffffffff16600960009054906101000a900473ffffffffffffffffffffffffffffffffffffffff1673ffffffffffffffffffffffffffffffffffffffff161415620008e9576040517f08c379a000000000000000000000000000000000000000000000000000000000815260040180806020018281038252605e81526020018062004de2605e913960600191505060405180910390fd5b600030600860009054906101000a900473ffffffffffffffffffffffffffffffffffffffff16600960009054906101000a900473ffffffffffffffffffffffffffffffffffffffff1686868633604051620009449062001b23565b808873ffffffffffffffffffffffffffffffffffffffff1673ffffffffffffffffffffffffffffffffffffffff1681526020018773ffffffffffffffffffffffffffffffffffffffff1673ffffffffffffffffffffffffffffffffffffffff1681526020018673ffffffffffffffffffffffffffffffffffffffff1673ffffffffffffffffffffffffffffffffffffffff168152602001806020018581526020018481526020018373ffffffffffffffffffffffffffffffffffffffff1673ffffffffffffffffffffffffffffffffffffffff168152602001828103825286818151815260200191508051906020019080838360005b8381101562000a5757808201518184015260208101905062000a3a565b50505050905090810190601f16801562000a855780820380516001836020036101000a031916815260200191505b5098505050505050505050604051809103906000f08015801562000aad573d6000803e3d6000fd5b50905060008190508073ffffffffffffffffffffffffffffffffffffffff166108fc479081150290604051600060405180830381858888f1935050505015801562000afc573d6000803e3d6000fd5b50600062000b0a836200117d565b905062000b22816000620015cb90919063ffffffff16565b826004600083815260200190815260200160002060006101000a81548173ffffffffffffffffffffffffffffffffffffffff021916908373ffffffffffffffffffffffffffffffffffffffff1602179055506000600860009054906101000a900473ffffffffffffffffffffffffffffffffffffffff16905060008173ffffffffffffffffffffffffffffffffffffffff16639f96dab0336040518263ffffffff1660e01b8152600401808273ffffffffffffffffffffffffffffffffffffffff1673ffffffffffffffffffffffffffffffffffffffff16815260200191505060206040518083038186803b15801562000c1b57600080fd5b505afa15801562000c30573d6000803e3d6000fd5b505050506040513d602081101562000c4757600080fd5b810190808051906020019092919050505090508073ffffffffffffffffffffffffffffffffffffffff1663f18df9e7856040518263ffffffff1660e01b8152600401808273ffffffffffffffffffffffffffffffffffffffff1673ffffffffffffffffffffffffffffffffffffffff168152602001915050600060405180830381600087803b15801562000cda57600080fd5b505af115801562000cef573d6000803e3d6000fd5b505050506001600660008773ffffffffffffffffffffffffffffffffffffffff1673ffffffffffffffffffffffffffffffffffffffff16815260200190815260200160002060006101000a81548160ff0219169083151502179055507f3de526a908f518e7ea42b44d581b69406f6a241dcfa2890d7830e3272ad039d733868989604051808573ffffffffffffffffffffffffffffffffffffffff1673ffffffffffffffffffffffffffffffffffffffff1681526020018473ffffffffffffffffffffffffffffffffffffffff1673ffffffffffffffffffffffffffffffffffffffff16815260200183815260200182815260200194505050505060405180910390a15050505050505050565b6000600660008373ffffffffffffffffffffffffffffffffffffffff1673ffffffffffffffffffffffffffffffffffffffff16815260200190815260200160002060009054906101000a900460ff169050919050565b600062000e606002620016da565b905090565b600a60003373ffffffffffffffffffffffffffffffffffffffff1673ffffffffffffffffffffffffffffffffffffffff16815260200190815260200160002060009054906101000a900460ff168062000f0b5750600760009054906101000a900473ffffffffffffffffffffffffffffffffffffffff1673ffffffffffffffffffffffffffffffffffffffff163373ffffffffffffffffffffffffffffffffffffffff16145b62000f62576040517f08c379a000000000000000000000000000000000000000000000000000000000815260040180806020018281038252602981526020018062004eaa6029913960400191505060405180910390fd5b62000f6d81620016eb565b50565b60008160001c9050919050565b600a60003373ffffffffffffffffffffffffffffffffffffffff1673ffffffffffffffffffffffffffffffffffffffff16815260200190815260200160002060009054906101000a900460ff1680620010235750600760009054906101000a900473ffffffffffffffffffffffffffffffffffffffff1673ffffffffffffffffffffffffffffffffffffffff163373ffffffffffffffffffffffffffffffffffffffff16145b6200107a576040517f08c379a000000000000000000000000000000000000000000000000000000000815260040180806020018281038252602981526020018062004eaa6029913960400191505060405180910390fd5b6001600a60008373ffffffffffffffffffffffffffffffffffffffff1673ffffffffffffffffffffffffffffffffffffffff16815260200190815260200160002060006101000a81548160ff02191690831515021790555050565b606060008383039050606081604051908082528060200260200182016040528015620011105781602001602082028038833980820191505090505b50905060008090505b828110156200114c578086018282815181106200113257fe5b602002602001018181525050808060010191505062001119565b50606062001165826002620017e990919063ffffffff16565b9050620011728162001897565b935050505092915050565b60008173ffffffffffffffffffffffffffffffffffffffff1660001b9050919050565b600760009054906101000a900473ffffffffffffffffffffffffffffffffffffffff1681565b600080620011df8360006200198c90919063ffffffff16565b9050620011f7816000620019b190919063ffffffff16565b6200124e576040517f08c379a000000000000000000000000000000000000000000000000000000000815260040180806020018281038252602581526020018062004ed36025913960400191505060405180910390fd5b60006004600083815260200190815260200160002060009054906101000a900473ffffffffffffffffffffffffffffffffffffffff1690508092505050919050565b6000600a60003373ffffffffffffffffffffffffffffffffffffffff1673ffffffffffffffffffffffffffffffffffffffff16815260200190815260200160002060006101000a81548160ff021916908315150217905550565b600760009054906101000a900473ffffffffffffffffffffffffffffffffffffffff1673ffffffffffffffffffffffffffffffffffffffff163373ffffffffffffffffffffffffffffffffffffffff161462001392576040517f08c379a000000000000000000000000000000000000000000000000000000000815260040180806020018281038252604281526020018062004da06042913960600191505060405180910390fd5b80600960006101000a81548173ffffffffffffffffffffffffffffffffffffffff021916908373ffffffffffffffffffffffffffffffffffffffff16021790555050565b606060008383039050606081604051908082528060200260200182016040528015620014115781602001602082028038833980820191505090505b50905060008090505b828110156200144d578086018282815181106200143357fe5b60200260200101818152505080806001019150506200141a565b50606062001466826000620017e990919063ffffffff16565b9050620014738162001897565b935050505092915050565b60608062001497836000620017e990919063ffffffff16565b9050620014a48162001897565b915050919050565b6000620014ba6000620016da565b905090565b8073ffffffffffffffffffffffffffffffffffffffff163373ffffffffffffffffffffffffffffffffffffffff161462001545576040517f08c379a000000000000000000000000000000000000000000000000000000000815260040180806020018281038252603981526020018062004ef86039913960400191505060405180910390fd5b600062001552826200117d565b90506200155f82620016eb565b62001575816002620015cb90919063ffffffff16565b816005600083815260200190815260200160002060006101000a81548173ffffffffffffffffffffffffffffffffffffffff021916908373ffffffffffffffffffffffffffffffffffffffff1602179055505050565b6000801b81141562001629576040517f08c379a000000000000000000000000000000000000000000000000000000000815260040180806020018281038252602881526020018062004d786028913960400191505060405180910390fd5b620016358282620019b1565b156200168d576040517f08c379a000000000000000000000000000000000000000000000000000000000815260040180806020018281038252603581526020018062004e756035913960400191505060405180910390fd5b600182600101829080600181540180825580915050906001820390600052602060002001600090919290919091505503826000016000838152602001908152602001600020819055505050565b600081600101805490509050919050565b6000620016f8826200117d565b90506200171081600062001a0890919063ffffffff16565b6004600082815260200190815260200160002060006101000a81549073ffffffffffffffffffffffffffffffffffffffff02191690557fa47cfc8cdf313693db1a69bb82559cc1a32d10f6d85a649a1baddf5c1e0ac22c338383604051808473ffffffffffffffffffffffffffffffffffffffff1673ffffffffffffffffffffffffffffffffffffffff1681526020018373ffffffffffffffffffffffffffffffffffffffff1673ffffffffffffffffffffffffffffffffffffffff168152602001828152602001935050505060405180910390a15050565b60608082516040519080825280602002602001820160405280156200181d5781602001602082028038833980820191505090505b50905060008090505b83518110156200188c5760008482815181106200183f57fe5b602002602001015190508560010181815481106200185957fe5b90600052602060002001548383815181106200187157fe5b60200260200101818152505050808060010191505062001826565b508091505092915050565b6060600082519050606081604051908082528060200260200182016040528015620018d15781602001602082028038833980820191505090505b50905060008090505b8451811015620019815760046000868381518110620018f557fe5b6020026020010151815260200190815260200160002060009054906101000a900473ffffffffffffffffffffffffffffffffffffffff168282815181106200193957fe5b602002602001019073ffffffffffffffffffffffffffffffffffffffff16908173ffffffffffffffffffffffffffffffffffffffff16815250508080600101915050620018da565b508092505050919050565b60008260010182815481106200199e57fe5b9060005260206000200154905092915050565b60008083600101805490501415620019cd576000905062001a02565b81836001018460000160008581526020019081526020016000205481548110620019f357fe5b90600052602060002001541490505b92915050565b62001a148282620019b1565b62001a6b576040517f08c379a000000000000000000000000000000000000000000000000000000000815260040180806020018281038252603581526020018062004e406035913960400191505060405180910390fd5b600082600101600162001a7e85620016da565b038154811062001a8a57fe5b90600052602060002001549050600083600001600084815260200190815260200160002054905080846000016000848152602001908152602001600020819055508184600101828154811062001adc57fe5b9060005260206000200181905550836000016000848152602001908152602001600020600090558360010180548091906001900362001b1c919062001b31565b5050505050565b6131ef8062001b8983390190565b81548183558181111562001b5b5781836000526020600020918201910162001b5a919062001b60565b5b505050565b62001b8591905b8082111562001b8157600081600090555060010162001b67565b5090565b9056fe60806040523480156200001157600080fd5b50604051620031ef380380620031ef833981810160405260e08110156200003757600080fd5b81019080805190602001909291908051906020019092919080519060200190929190805160405193929190846401000000008211156200007657600080fd5b838201915060208201858111156200008d57600080fd5b8251866001820283011164010000000082111715620000ab57600080fd5b8083526020830192505050908051906020019080838360005b83811015620000e1578082015181840152602081019050620000c4565b50505050905090810190601f1680156200010f5780820380516001836020036101000a031916815260200191505b5060405260200180519060200190929190805190602001909291908051906020019092919050505086600260006101000a81548173ffffffffffffffffffffffffffffffffffffffff021916908373ffffffffffffffffffffffffffffffffffffffff160217905550856000806101000a81548173ffffffffffffffffffffffffffffffffffffffff021916908373ffffffffffffffffffffffffffffffffffffffff16021790555084600160006101000a81548173ffffffffffffffffffffffffffffffffffffffff021916908373ffffffffffffffffffffffffffffffffffffffff16021790555083600390805190602001906200021192919062000514565b508260058190555080600460006101000a81548173ffffffffffffffffffffffffffffffffffffffff021916908373ffffffffffffffffffffffffffffffffffffffff16021790555060006016819055506001820242016006819055506000600e81905550620002a26040518060600160405280603e8152602001620031b1603e91396000620002af60201b60201c565b505050505050506200068a565b60065442106200030b576040517f08c379a000000000000000000000000000000000000000000000000000000000815260040180806020018281038252602b81526020018062003186602b913960400191505060405180910390fd5b6000601360003373ffffffffffffffffffffffffffffffffffffffff1673ffffffffffffffffffffffffffffffffffffffff1681526020019081526020016000205414620003a5576040517f08c379a0000000000000000000000000000000000000000000000000000000008152600401808060200182810382526025815260200180620031616025913960400191505060405180910390fd5b620003af6200059b565b604051806080016040528084815260200183151581526020013373ffffffffffffffffffffffffffffffffffffffff1681526020016000815250905060078190806001815401808255809150509060018203906000526020600020906003020160009091929091909150600082015181600001908051906020019062000437929190620005db565b5060208201518160010160006101000a81548160ff02191690831515021790555060408201518160010160016101000a81548173ffffffffffffffffffffffffffffffffffffffff021916908373ffffffffffffffffffffffffffffffffffffffff160217905550606082015181600201555050506001620004be6200050760201b60201c565b03601360003373ffffffffffffffffffffffffffffffffffffffff1673ffffffffffffffffffffffffffffffffffffffff16815260200190815260200160002081905550505050565b6000600780549050905090565b828054600181600116156101000203166002900490600052602060002090601f016020900481019282601f106200055757805160ff191683800117855562000588565b8280016001018555821562000588579182015b82811115620005875782518255916020019190600101906200056a565b5b50905062000597919062000662565b5090565b604051806080016040528060608152602001600015158152602001600073ffffffffffffffffffffffffffffffffffffffff168152602001600081525090565b828054600181600116156101000203166002900490600052602060002090601f016020900481019282601f106200061e57805160ff19168380011785556200064f565b828001600101855582156200064f579182015b828111156200064e57825182559160200191906001019062000631565b5b5090506200065e919062000662565b5090565b6200068791905b808211156200068357600081600090555060010162000669565b5090565b90565b612ac7806200069a6000396000f3fe60806040526004361061020f5760003560e01c80639380b1cf11610118578063e478abab116100a0578063f9588ed91161006f578063f9588ed914610be0578063fa391c6414610c0b578063fbba5cb914610c3a578063fbbf93a014610c65578063fda9198b14610d0e5761020f565b8063e478abab14610a2d578063e5d0003514610a5c578063e72b014814610ad7578063f7ca7c7214610b025761020f565b8063b6e54bdf116100e7578063b6e54bdf146108de578063c234d78914610909578063c884ef8314610934578063ca94fb2b1461099d578063d04ae69d14610a025761020f565b80639380b1cf146107db578063aec2ccae146107f2578063b384abef14610857578063b3b9ac1d1461088f5761020f565b80633197cbb61161019b5780636dc7a6271161016a5780636dc7a627146106975780636e3ebc2e146106c657806374986bfc146106f157806385730fa1146107205780638a4d5a671461074b5761020f565b80633197cbb6146105c55780633ff894ad146105f057806344fe94321461061b5780634e71d92d146106805761020f565b80630a68f631116101e25780630a68f6311461041c578063159e7064146105155780631c7cd6ac146105445780632b925b251461056f5780632ec32e6d1461059a5761020f565b806302d05d3f146102115780630715ef001461026857806309c7caf11461033c57806309f74db7146103a1575b005b34801561021d57600080fd5b50610226610d69565b604051808273ffffffffffffffffffffffffffffffffffffffff1673ffffffffffffffffffffffffffffffffffffffff16815260200191505060405180910390f35b34801561027457600080fd5b5061033a6004803603604081101561028b57600080fd5b81019080803590602001906401000000008111156102a857600080fd5b8201836020820111156102ba57600080fd5b803590602001918460018302840111640100000000831117156102dc57600080fd5b91908080601f016020809104026020016040519081016040528093929190818152602001838380828437600081840152601f19601f820116905080830192505050505050509192919290803515159060200190929190505050610d8f565b005b34801561034857600080fd5b5061038b6004803603602081101561035f57600080fd5b81019080803573ffffffffffffffffffffffffffffffffffffffff169060200190929190505050610fd7565b6040518082815260200191505060405180910390f35b3480156103ad57600080fd5b506103da600480360360208110156103c457600080fd5b8101908080359060200190929190505050610fef565b604051808273ffffffffffffffffffffffffffffffffffffffff1673ffffffffffffffffffffffffffffffffffffffff16815260200191505060405180910390f35b34801561042857600080fd5b506104556004803603602081101561043f57600080fd5b810190808035906020019092919050505061102b565b6040518080602001851515151581526020018473ffffffffffffffffffffffffffffffffffffffff1673ffffffffffffffffffffffffffffffffffffffff168152602001838152602001828103825286818151815260200191508051906020019080838360005b838110156104d75780820151818401526020810190506104bc565b50505050905090810190601f1680156105045780820380516001836020036101000a031916815260200191505b509550505050505060405180910390f35b34801561052157600080fd5b5061052a61112d565b604051808215151515815260200191505060405180910390f35b34801561055057600080fd5b50610559611292565b6040518082815260200191505060405180910390f35b34801561057b57600080fd5b50610584611298565b6040518082815260200191505060405180910390f35b3480156105a657600080fd5b506105af61129e565b6040518082815260200191505060405180910390f35b3480156105d157600080fd5b506105da6112ab565b6040518082815260200191505060405180910390f35b3480156105fc57600080fd5b506106056112b1565b6040518082815260200191505060405180910390f35b34801561062757600080fd5b5061066a6004803603602081101561063e57600080fd5b81019080803573ffffffffffffffffffffffffffffffffffffffff1690602001909291905050506112b7565b6040518082815260200191505060405180910390f35b34801561068c57600080fd5b506106956112cf565b005b3480156106a357600080fd5b506106ac6116cb565b604051808215151515815260200191505060405180910390f35b3480156106d257600080fd5b506106db61177e565b6040518082815260200191505060405180910390f35b3480156106fd57600080fd5b5061070661178b565b604051808215151515815260200191505060405180910390f35b34801561072c57600080fd5b50610735611794565b6040518082815260200191505060405180910390f35b34801561075757600080fd5b5061076061179a565b6040518080602001828103825283818151815260200191508051906020019080838360005b838110156107a0578082015181840152602081019050610785565b50505050905090810190601f1680156107cd5780820380516001836020036101000a031916815260200191505b509250505060405180910390f35b3480156107e757600080fd5b506107f0611838565b005b3480156107fe57600080fd5b506108416004803603602081101561081557600080fd5b81019080803573ffffffffffffffffffffffffffffffffffffffff169060200190929190505050611a4a565b6040518082815260200191505060405180910390f35b61088d6004803603604081101561086d57600080fd5b810190808035906020019092919080359060200190929190505050611a62565b005b34801561089b57600080fd5b506108c8600480360360208110156108b257600080fd5b8101908080359060200190929190505050611f13565b6040518082815260200191505060405180910390f35b3480156108ea57600080fd5b506108f3611f4d565b6040518082815260200191505060405180910390f35b34801561091557600080fd5b5061091e611f53565b6040518082815260200191505060405180910390f35b34801561094057600080fd5b506109836004803603602081101561095757600080fd5b81019080803573ffffffffffffffffffffffffffffffffffffffff169060200190929190505050611f60565b604051808215151515815260200191505060405180910390f35b3480156109a957600080fd5b506109ec600480360360208110156109c057600080fd5b81019080803573ffffffffffffffffffffffffffffffffffffffff169060200190929190505050611f80565b6040518082815260200191505060405180910390f35b348015610a0e57600080fd5b50610a17611f98565b6040518082815260200191505060405180910390f35b348015610a3957600080fd5b50610a42611f9e565b604051808215151515815260200191505060405180910390f35b348015610a6857600080fd5b50610a9560048036036020811015610a7f57600080fd5b8101908080359060200190929190505050612058565b604051808273ffffffffffffffffffffffffffffffffffffffff1673ffffffffffffffffffffffffffffffffffffffff16815260200191505060405180910390f35b348015610ae357600080fd5b50610aec612094565b6040518082815260200191505060405180910390f35b348015610b0e57600080fd5b50610bde60048036036060811015610b2557600080fd5b810190808035906020019092919080359060200190640100000000811115610b4c57600080fd5b820183602082011115610b5e57600080fd5b80359060200191846001830284011164010000000083111715610b8057600080fd5b91908080601f016020809104026020016040519081016040528093929190818152602001838380828437600081840152601f19601f82011690508083019250505050505050919291929080351515906020019092919050505061209a565b005b348015610bec57600080fd5b50610bf5612253565b6040518082815260200191505060405180910390f35b348015610c1757600080fd5b50610c2061225b565b604051808215151515815260200191505060405180910390f35b348015610c4657600080fd5b50610c4f61226e565b6040518082815260200191505060405180910390f35b348015610c7157600080fd5b50610c7a612274565b604051808c73ffffffffffffffffffffffffffffffffffffffff1673ffffffffffffffffffffffffffffffffffffffff1681526020018b81526020018a81526020018915151515815260200188151515158152602001871515151581526020018681526020018581526020018481526020018381526020018281526020019b50505050505050505050505060405180910390f35b348015610d1a57600080fd5b50610d5360048036036040811015610d3157600080fd5b810190808035906020019092919080351515906020019092919050505061234d565b6040518082815260200191505060405180910390f35b600460009054906101000a900473ffffffffffffffffffffffffffffffffffffffff1681565b6006544210610de9576040517f08c379a000000000000000000000000000000000000000000000000000000000815260040180806020018281038252602b815260200180612983602b913960400191505060405180910390fd5b6000601360003373ffffffffffffffffffffffffffffffffffffffff1673ffffffffffffffffffffffffffffffffffffffff1681526020019081526020016000205414610e81576040517f08c379a00000000000000000000000000000000000000000000000000000000081526004018080602001828103825260258152602001806129246025913960400191505060405180910390fd5b610e8961262a565b604051806080016040528084815260200183151581526020013373ffffffffffffffffffffffffffffffffffffffff16815260200160008152509050600781908060018154018082558091505090600182039060005260206000209060030201600090919290919091506000820151816000019080519060200190610f0f92919061266a565b5060208201518160010160006101000a81548160ff02191690831515021790555060408201518160010160016101000a81548173ffffffffffffffffffffffffffffffffffffffff021916908373ffffffffffffffffffffffffffffffffffffffff160217905550606082015181600201555050506001610f8e611f53565b03601360003373ffffffffffffffffffffffffffffffffffffffff1673ffffffffffffffffffffffffffffffffffffffff16815260200190815260200160002081905550505050565b600b6020528060005260406000206000915090505481565b600a8181548110610ffc57fe5b906000526020600020016000915054906101000a900473ffffffffffffffffffffffffffffffffffffffff1681565b6007818154811061103857fe5b9060005260206000209060030201600091509050806000018054600181600116156101000203166002900480601f0160208091040260200160405190810160405280929190818152602001828054600181600116156101000203166002900480156110e45780601f106110b9576101008083540402835291602001916110e4565b820191906000526020600020905b8154815290600101906020018083116110c757829003601f168201915b5050505050908060010160009054906101000a900460ff16908060010160019054906101000a900473ffffffffffffffffffffffffffffffffffffffff16908060020154905084565b600080600160009054906101000a900473ffffffffffffffffffffffffffffffffffffffff1690506000600860003373ffffffffffffffffffffffffffffffffffffffff1673ffffffffffffffffffffffffffffffffffffffff1681526020019081526020016000205414801561128c57508073ffffffffffffffffffffffffffffffffffffffff1663902701b733306040518363ffffffff1660e01b8152600401808373ffffffffffffffffffffffffffffffffffffffff1673ffffffffffffffffffffffffffffffffffffffff1681526020018273ffffffffffffffffffffffffffffffffffffffff1673ffffffffffffffffffffffffffffffffffffffff1681526020019250505060206040518083038186803b15801561125057600080fd5b505afa158015611264573d6000803e3d6000fd5b505050506040513d602081101561127a57600080fd5b81019080805190602001909291905050505b91505090565b60105481565b60055481565b6000600980549050905090565b60065481565b600d5481565b60136020528060005260406000206000915090505481565b6112d76116cb565b61132c576040517f08c379a000000000000000000000000000000000000000000000000000000000815260040180806020018281038252603d8152602001806129ae603d913960400191505060405180910390fd5b6000600860003373ffffffffffffffffffffffffffffffffffffffff1673ffffffffffffffffffffffffffffffffffffffff16815260200190815260200160002054905060006007828154811061137f57fe5b90600052602060002090600302019050600060165414156113a3576113a26123ce565b5b6113ab611f9e565b156114df573373ffffffffffffffffffffffffffffffffffffffff166108fc3073ffffffffffffffffffffffffffffffffffffffff1663fda9198b600b60003373ffffffffffffffffffffffffffffffffffffffff1673ffffffffffffffffffffffffffffffffffffffff168152602001908152602001600020548560010160009054906101000a900460ff166040518363ffffffff1660e01b815260040180838152602001821515151581526020019250505060206040518083038186803b15801561147757600080fd5b505afa15801561148b573d6000803e3d6000fd5b505050506040513d60208110156114a157600080fd5b81019080805190602001909291905050509081150290604051600060405180830381858888f193505050501580156114dd573d6000803e3d6000fd5b505b60008060009054906101000a900473ffffffffffffffffffffffffffffffffffffffff1690508073ffffffffffffffffffffffffffffffffffffffff16635f2ab5673073ffffffffffffffffffffffffffffffffffffffff1663b3b9ac1d600f60003373ffffffffffffffffffffffffffffffffffffffff1673ffffffffffffffffffffffffffffffffffffffff168152602001908152602001600020546040518263ffffffff1660e01b81526004018082815260200191505060206040518083038186803b1580156115b157600080fd5b505afa1580156115c5573d6000803e3d6000fd5b505050506040513d60208110156115db57600080fd5b8101908080519060200190929190505050336040518363ffffffff1660e01b8152600401808381526020018273ffffffffffffffffffffffffffffffffffffffff1673ffffffffffffffffffffffffffffffffffffffff16815260200192505050600060405180830381600087803b15801561165657600080fd5b505af115801561166a573d6000803e3d6000fd5b505050506001601460003373ffffffffffffffffffffffffffffffffffffffff1673ffffffffffffffffffffffffffffffffffffffff16815260200190815260200160002060006101000a81548160ff021916908315150217905550505050565b600080600860003373ffffffffffffffffffffffffffffffffffffffff1673ffffffffffffffffffffffffffffffffffffffff16815260200190815260200160002054905060065442118015611722575060008114155b80156117785750601460003373ffffffffffffffffffffffffffffffffffffffff1673ffffffffffffffffffffffffffffffffffffffff16815260200190815260200160002060009054906101000a900460ff16155b91505090565b6000600a80549050905090565b60006001905090565b600c5481565b60038054600181600116156101000203166002900480601f0160208091040260200160405190810160405280929190818152602001828054600181600116156101000203166002900480156118305780601f1061180557610100808354040283529160200191611830565b820191906000526020600020905b81548152906001019060200180831161181357829003601f168201915b505050505081565b600460009054906101000a900473ffffffffffffffffffffffffffffffffffffffff1673ffffffffffffffffffffffffffffffffffffffff163373ffffffffffffffffffffffffffffffffffffffff16146118de576040517f08c379a000000000000000000000000000000000000000000000000000000000815260040180806020018281038252603a815260200180612949603a913960400191505060405180910390fd5b60006118e861177e565b6118f061129e565b0114611947576040517f08c379a000000000000000000000000000000000000000000000000000000000815260040180806020018281038252603d815260200180612882603d913960400191505060405180910390fd5b60065442116119a1576040517f08c379a00000000000000000000000000000000000000000000000000000000081526004018080602001828103825260368152602001806127906036913960400191505060405180910390fd5b3373ffffffffffffffffffffffffffffffffffffffff166108fc479081150290604051600060405180830381858888f193505050501580156119e7573d6000803e3d6000fd5b506119f061254e565b6001601460003373ffffffffffffffffffffffffffffffffffffffff1673ffffffffffffffffffffffffffffffffffffffff16815260200190815260200160002060006101000a81548160ff021916908315150217905550565b60086020528060005260406000206000915090505481565b6006544210611abc576040517f08c379a000000000000000000000000000000000000000000000000000000000815260040180806020018281038252602b815260200180612983602b913960400191505060405180910390fd5b6000821415611b16576040517f08c379a000000000000000000000000000000000000000000000000000000000815260040180806020018281038252603b8152602001806129eb603b913960400191505060405180910390fd5b600554341015611b71576040517f08c379a00000000000000000000000000000000000000000000000000000000081526004018080602001828103825260468152602001806127fd6046913960600191505060405180910390fd5b611b7961112d565b611bce576040517f08c379a000000000000000000000000000000000000000000000000000000000815260040180806020018281038252604b815260200180612a48604b913960600191505060405180910390fd5b6000809054906101000a900473ffffffffffffffffffffffffffffffffffffffff1673ffffffffffffffffffffffffffffffffffffffff166337c103893083336040518463ffffffff1660e01b8152600401808473ffffffffffffffffffffffffffffffffffffffff1673ffffffffffffffffffffffffffffffffffffffff1681526020018381526020018273ffffffffffffffffffffffffffffffffffffffff1673ffffffffffffffffffffffffffffffffffffffff1681526020019350505050600060405180830381600087803b158015611caa57600080fd5b505af1158015611cbe573d6000803e3d6000fd5b5050505081600860003373ffffffffffffffffffffffffffffffffffffffff1673ffffffffffffffffffffffffffffffffffffffff1681526020019081526020016000208190555034600b60003373ffffffffffffffffffffffffffffffffffffffff1673ffffffffffffffffffffffffffffffffffffffff1681526020019081526020016000208190555080600f60003373ffffffffffffffffffffffffffffffffffffffff1673ffffffffffffffffffffffffffffffffffffffff168152602001908152602001600020819055508060126000828254019250508190555060078281548110611dab57fe5b90600052602060002090600302016002016000815480929190600101919050555060078281548110611dd957fe5b906000526020600020906003020160010160009054906101000a900460ff1615611e885760093390806001815401808255809150509060018203906000526020600020016000909192909190916101000a81548173ffffffffffffffffffffffffffffffffffffffff021916908373ffffffffffffffffffffffffffffffffffffffff160217905550508060106000828254019250508190555034600c60008282540192505081905550611f0f565b600a3390806001815401808255809150509060018203906000526020600020016000909192909190916101000a81548173ffffffffffffffffffffffffffffffffffffffff021916908373ffffffffffffffffffffffffffffffffffffffff160217905550508060116000828254019250508190555034600d600082825401925050819055505b5050565b6000611f1d611f9e565b15611f3757600a600b830281611f2f57fe5b049050611f48565b600a6008830281611f4457fe5b0490505b919050565b60165481565b6000600780549050905090565b60146020528060005260406000206000915054906101000a900460ff1681565b600f6020528060005260406000206000915090505481565b60115481565b6000806007600860003373ffffffffffffffffffffffffffffffffffffffff1673ffffffffffffffffffffffffffffffffffffffff1681526020019081526020016000205481548110611fed57fe5b90600052602060002090600302019050600160165414801561201d57508060010160009054906101000a900460ff165b806120455750600260165414801561204457508060010160009054906101000a900460ff16155b5b8061205257506003601654145b91505090565b6009818154811061206557fe5b906000526020600020016000915054906101000a900473ffffffffffffffffffffffffffffffffffffffff1681565b60125481565b60065442106120f4576040517f08c379a000000000000000000000000000000000000000000000000000000000815260040180806020018281038252602b815260200180612983602b913960400191505060405180910390fd5b60006007848154811061210357fe5b906000526020600020906003020190503373ffffffffffffffffffffffffffffffffffffffff168160010160019054906101000a900473ffffffffffffffffffffffffffffffffffffffff1673ffffffffffffffffffffffffffffffffffffffff16146121bb576040517f08c379a000000000000000000000000000000000000000000000000000000000815260040180806020018281038252603f815260200180612843603f913960400191505060405180910390fd5b6000816002015414612218576040517f08c379a00000000000000000000000000000000000000000000000000000000081526004018080602001828103825260378152602001806127c66037913960400191505060405180910390fd5b828160000190805190602001906122309291906126ea565b50818160010160006101000a81548160ff02191690831515021790555050505050565b600047905090565b601560009054906101000a900460ff1681565b600e5481565b6000806000806000806000806000806000600460009054906101000a900473ffffffffffffffffffffffffffffffffffffffff16600554600654601560009054906101000a900460ff166122c66116cb565b601460003373ffffffffffffffffffffffffffffffffffffffff1673ffffffffffffffffffffffffffffffffffffffff16815260200190815260200160002060009054906101000a900460ff164761231c61129e565b61232461177e565b6010546011549a509a509a509a509a509a509a509a509a509a509a50909192939495969798999a565b600080821561236057600c549050612366565b600d5490505b600081116123785760009150506123c8565b601560009054906101000a900460ff16156123b857600360165414156123a257600d54600c540190505b8084600e5402816123af57fe5b049150506123c8565b80844702816123c357fe5b049150505b92915050565b600060165414612429576040517f08c379a0000000000000000000000000000000000000000000000000000000008152600401808060200182810382526022815260200180612a266022913960400191505060405180910390fd5b60001515601560009054906101000a900460ff16151514612495576040517f08c379a00000000000000000000000000000000000000000000000000000000081526004018080602001828103825260258152602001806128bf6025913960400191505060405180910390fd5b60065442116124ef576040517f08c379a00000000000000000000000000000000000000000000000000000000081526004018080602001828103825260408152602001806128e46040913960400191505060405180910390fd5b60006124f961129e565b9050600061250561177e565b90508082111561251c57600160168190555061253b565b8082101561253157600260168190555061253a565b60036016819055505b5b47600e8190555061254a61254e565b5050565b6001601560006101000a81548160ff0219169083151502179055506000600260009054906101000a900473ffffffffffffffffffffffffffffffffffffffff1690508073ffffffffffffffffffffffffffffffffffffffff1663e25db2a4306040518263ffffffff1660e01b8152600401808273ffffffffffffffffffffffffffffffffffffffff1673ffffffffffffffffffffffffffffffffffffffff168152602001915050600060405180830381600087803b15801561260f57600080fd5b505af1158015612623573d6000803e3d6000fd5b5050505050565b604051806080016040528060608152602001600015158152602001600073ffffffffffffffffffffffffffffffffffffffff168152602001600081525090565b828054600181600116156101000203166002900490600052602060002090601f016020900481019282601f106126ab57805160ff19168380011785556126d9565b828001600101855582156126d9579182015b828111156126d85782518255916020019190600101906126bd565b5b5090506126e6919061276a565b5090565b828054600181600116156101000203166002900490600052602060002090601f016020900481019282601f1061272b57805160ff1916838001178555612759565b82800160010185558215612759579182015b8281111561275857825182559160200191906001019061273d565b5b509050612766919061276a565b5090565b61278c91905b80821115612788576000816000905550600101612770565b5090565b9056fe596f752063616e206f6e6c7920636c61696d20796f75722072657761726473206166746572207468652074696d6520706572696f642e417267756d656e742068617320616c7265616479206265656e20766f746564206f6e2e2043616e6e6f74206265206d6f6469666965642e596f75206d75737420696e76657374206174206c6561737420746865206d696e696d756d20616d6f756e742061732064656369646564206279207468652063726561746f722e596f75206d757374206265207468652063726561746f72206f66207468697320617267756d656e7420746f206d6f646966792069747320636f6e74656e7473546865206d6f6e657920676f657320746f207468652070656f706c652077686f2070617274696369706174656420696e207468652070726f636573732e546f70696320697320616c7265616479206d61726b656420617320636f6d706c657465642e4d616a6f726974792063616e206f6e6c792062652063616c63756c61746564206166746572207468652074696d6520706572696f642068617320656e6465642e596f75206861766520616c7265616479206372656174656420616e20617267756d656e742e596f75206d757374206265207468652063726561746f72206f66207468697320546f70696320696e206f7264657220746f20646f20746869732e54686520706572696f6420666f722074686520546f7069632068617320616c726561647920656e6465642e596f7520646964206e6f7420766f746520647572696e672074686520706572696f64206f722074686520706572696f64206973206e6f74206f7665722e596f752063616e6e6f7420766f746520666f722074686520617267756d656e742067656e6572617465642062792074686520636f6e74726163742e4d616a6f726974792068617320616c7265616479206265656e20646563696465642e596f7520646f6e27742068617665207468697320746f706963206f6e20796f757220617661696c61626c65206c697374206f7220796f75206861766520616c726561647920766f7465642ea265627a7a72315820094695ba5d4dfd0ccbe1bda83854fa9c868f957ecb9e6c86199050181876630e64736f6c63430005100032596f75206861766520616c7265616479206372656174656420616e20617267756d656e742e54686520706572696f6420666f722074686520546f7069632068617320616c726561647920656e6465642e596f752068617665206e6f742063686f73656e207965742077686574686572207468652073746174656d656e742069732074727565206f722066616c7365556e6f7264657265644b65795365742831303029202d204b65792063616e6e6f7420626520307830596f75206d757374206265207468652063726561746f72206f66207468697320546f70696320466163746f727920696e206f7264657220746f20646f20746869732e4120546f7069632041737369676e657220636f6e74726163742061646472657373206d7573742062652061737369676e6564206265666f7265206265696e672061626c6520746f2063726561746520616e79206e657720746f706963732e556e6f7264657265644b65795365742831303229202d204b657920646f6573206e6f7420657869737420696e20746865207365742e556e6f7264657265644b65795365742831303129202d204b657920616c72656164792065786973747320696e20746865207365742e596f75206d75737420626520616e2061646d696e20696e206f7264657220746f20646f20746869732e43616e277420676574206120746f706963207468617420646f65736e27742065786973742e4f6e6c792074686520746f70696320636f6e747261637420697473656c662063616e20636f6d706c6574652074686520636f6e74726163742ea265627a7a723158207226abed7b8e8b8ac640807ad84d1e3e65a4d01d8aeece62a1f077851bedd19864736f6c63430005100032","opcodes":"PUSH1 0x80 PUSH1 0x40 MSTORE CALLVALUE DUP1 ISZERO PUSH2 0x10 JUMPI PUSH1 0x0 DUP1 REVERT JUMPDEST POP PUSH1 0x40 MLOAD PUSH2 0x503B CODESIZE SUB DUP1 PUSH2 0x503B DUP4 CODECOPY DUP2 DUP2 ADD PUSH1 0x40 MSTORE PUSH1 0x20 DUP2 LT ISZERO PUSH2 0x33 JUMPI PUSH1 0x0 DUP1 REVERT JUMPDEST DUP2 ADD SWAP1 DUP1 DUP1 MLOAD SWAP1 PUSH1 0x20 ADD SWAP1 SWAP3 SWAP2 SWAP1 POP POP POP DUP1 PUSH1 0x8 PUSH1 0x0 PUSH2 0x100 EXP DUP2 SLOAD DUP2 PUSH20 0xFFFFFFFFFFFFFFFFFFFFFFFFFFFFFFFFFFFFFFFF MUL NOT AND SWAP1 DUP4 PUSH20 0xFFFFFFFFFFFFFFFFFFFFFFFFFFFFFFFFFFFFFFFF AND MUL OR SWAP1 SSTORE POP CALLER PUSH1 0x7 PUSH1 0x0 PUSH2 0x100 EXP DUP2 SLOAD DUP2 PUSH20 0xFFFFFFFFFFFFFFFFFFFFFFFFFFFFFFFFFFFFFFFF MUL NOT AND SWAP1 DUP4 PUSH20 0xFFFFFFFFFFFFFFFFFFFFFFFFFFFFFFFFFFFFFFFF AND MUL OR SWAP1 SSTORE POP POP PUSH2 0x4F65 DUP1 PUSH2 0xD6 PUSH1 0x0 CODECOPY PUSH1 0x0 RETURN INVALID PUSH1 0x80 PUSH1 0x40 MSTORE PUSH1 0x4 CALLDATASIZE LT PUSH3 0x10A JUMPI PUSH1 0x0 CALLDATALOAD PUSH1 0xE0 SHR DUP1 PUSH4 0x8DA5CB5B GT PUSH3 0x97 JUMPI DUP1 PUSH4 0x9D378FE9 GT PUSH3 0x61 JUMPI DUP1 PUSH4 0x9D378FE9 EQ PUSH3 0x5F9 JUMPI DUP1 PUSH4 0xDC983F08 EQ PUSH3 0x699 JUMPI DUP1 PUSH4 0xDFB09700 EQ PUSH3 0x7BC JUMPI DUP1 PUSH4 0xE25DB2A4 EQ PUSH3 0x7EA JUMPI PUSH3 0x10A JUMP JUMPDEST DUP1 PUSH4 0x8DA5CB5B EQ PUSH3 0x4B1 JUMPI DUP1 PUSH4 0x8FDB9D72 EQ PUSH3 0x50B JUMPI DUP1 PUSH4 0x9A202D47 EQ PUSH3 0x58A JUMPI DUP1 PUSH4 0x9C6472C0 EQ PUSH3 0x5A4 JUMPI PUSH3 0x10A JUMP JUMPDEST DUP1 PUSH4 0x5CED058E GT PUSH3 0xD9 JUMPI DUP1 PUSH4 0x5CED058E EQ PUSH3 0x2D4 JUMPI DUP1 PUSH4 0x70480275 EQ PUSH3 0x353 JUMPI DUP1 PUSH4 0x73CD5CCE EQ PUSH3 0x3A8 JUMPI DUP1 PUSH4 0x82C947B7 EQ PUSH3 0x448 JUMPI PUSH3 0x10A JUMP JUMPDEST DUP1 PUSH4 0xA5E47BB EQ PUSH3 0x10F JUMPI DUP1 PUSH4 0x33CFE2CE EQ PUSH3 0x1E4 JUMPI DUP1 PUSH4 0x405B21F7 EQ PUSH3 0x251 JUMPI DUP1 PUSH4 0x5159467B EQ PUSH3 0x27F JUMPI JUMPDEST PUSH1 0x0 DUP1 REVERT JUMPDEST PUSH3 0x1E2 PUSH1 0x4 DUP1 CALLDATASIZE SUB PUSH1 0x60 DUP2 LT ISZERO PUSH3 0x127 JUMPI PUSH1 0x0 DUP1 REVERT JUMPDEST DUP2 ADD SWAP1 DUP1 DUP1 CALLDATALOAD SWAP1 PUSH1 0x20 ADD SWAP1 PUSH5 0x100000000 DUP2 GT ISZERO PUSH3 0x145 JUMPI PUSH1 0x0 DUP1 REVERT JUMPDEST DUP3 ADD DUP4 PUSH1 0x20 DUP3 ADD GT ISZERO PUSH3 0x158 JUMPI PUSH1 0x0 DUP1 REVERT JUMPDEST DUP1 CALLDATALOAD SWAP1 PUSH1 0x20 ADD SWAP2 DUP5 PUSH1 0x1 DUP4 MUL DUP5 ADD GT PUSH5 0x100000000 DUP4 GT OR ISZERO PUSH3 0x17B JUMPI PUSH1 0x0 DUP1 REVERT JUMPDEST SWAP2 SWAP1 DUP1 DUP1 PUSH1 0x1F ADD PUSH1 0x20 DUP1 SWAP2 DIV MUL PUSH1 0x20 ADD PUSH1 0x40 MLOAD SWAP1 DUP2 ADD PUSH1 0x40 MSTORE DUP1 SWAP4 SWAP3 SWAP2 SWAP1 DUP2 DUP2 MSTORE PUSH1 0x20 ADD DUP4 DUP4 DUP1 DUP3 DUP5 CALLDATACOPY PUSH1 0x0 DUP2 DUP5 ADD MSTORE PUSH1 0x1F NOT PUSH1 0x1F DUP3 ADD AND SWAP1 POP DUP1 DUP4 ADD SWAP3 POP POP POP POP POP POP POP SWAP2 SWAP3 SWAP2 SWAP3 SWAP1 DUP1 CALLDATALOAD SWAP1 PUSH1 0x20 ADD SWAP1 SWAP3 SWAP2 SWAP1 DUP1 CALLDATALOAD SWAP1 PUSH1 0x20 ADD SWAP1 SWAP3 SWAP2 SWAP1 POP POP POP PUSH3 0x83F JUMP JUMPDEST STOP JUMPDEST CALLVALUE DUP1 ISZERO PUSH3 0x1F1 JUMPI PUSH1 0x0 DUP1 REVERT JUMPDEST POP PUSH3 0x237 PUSH1 0x4 DUP1 CALLDATASIZE SUB PUSH1 0x20 DUP2 LT ISZERO PUSH3 0x20A JUMPI PUSH1 0x0 DUP1 REVERT JUMPDEST DUP2 ADD SWAP1 DUP1 DUP1 CALLDATALOAD PUSH20 0xFFFFFFFFFFFFFFFFFFFFFFFFFFFFFFFFFFFFFFFF AND SWAP1 PUSH1 0x20 ADD SWAP1 SWAP3 SWAP2 SWAP1 POP POP POP PUSH3 0xDFC JUMP JUMPDEST PUSH1 0x40 MLOAD DUP1 DUP3 ISZERO ISZERO ISZERO ISZERO DUP2 MSTORE PUSH1 0x20 ADD SWAP2 POP POP PUSH1 0x40 MLOAD DUP1 SWAP2 SUB SWAP1 RETURN JUMPDEST CALLVALUE DUP1 ISZERO PUSH3 0x25E JUMPI PUSH1 0x0 DUP1 REVERT JUMPDEST POP PUSH3 0x269 PUSH3 0xE52 JUMP JUMPDEST PUSH1 0x40 MLOAD DUP1 DUP3 DUP2 MSTORE PUSH1 0x20 ADD SWAP2 POP POP PUSH1 0x40 MLOAD DUP1 SWAP2 SUB SWAP1 RETURN JUMPDEST CALLVALUE DUP1 ISZERO PUSH3 0x28C JUMPI PUSH1 0x0 DUP1 REVERT JUMPDEST POP PUSH3 0x2D2 PUSH1 0x4 DUP1 CALLDATASIZE SUB PUSH1 0x20 DUP2 LT ISZERO PUSH3 0x2A5 JUMPI PUSH1 0x0 DUP1 REVERT JUMPDEST DUP2 ADD SWAP1 DUP1 DUP1 CALLDATALOAD PUSH20 0xFFFFFFFFFFFFFFFFFFFFFFFFFFFFFFFFFFFFFFFF AND SWAP1 PUSH1 0x20 ADD SWAP1 SWAP3 SWAP2 SWAP1 POP POP POP PUSH3 0xE65 JUMP JUMPDEST STOP JUMPDEST CALLVALUE DUP1 ISZERO PUSH3 0x2E1 JUMPI PUSH1 0x0 DUP1 REVERT JUMPDEST POP PUSH3 0x311 PUSH1 0x4 DUP1 CALLDATASIZE SUB PUSH1 0x20 DUP2 LT ISZERO PUSH3 0x2FA JUMPI PUSH1 0x0 DUP1 REVERT JUMPDEST DUP2 ADD SWAP1 DUP1 DUP1 CALLDATALOAD SWAP1 PUSH1 0x20 ADD SWAP1 SWAP3 SWAP2 SWAP1 POP POP POP PUSH3 0xF70 JUMP JUMPDEST PUSH1 0x40 MLOAD DUP1 DUP3 PUSH20 0xFFFFFFFFFFFFFFFFFFFFFFFFFFFFFFFFFFFFFFFF AND PUSH20 0xFFFFFFFFFFFFFFFFFFFFFFFFFFFFFFFFFFFFFFFF AND DUP2 MSTORE PUSH1 0x20 ADD SWAP2 POP POP PUSH1 0x40 MLOAD DUP1 SWAP2 SUB SWAP1 RETURN JUMPDEST CALLVALUE DUP1 ISZERO PUSH3 0x360 JUMPI PUSH1 0x0 DUP1 REVERT JUMPDEST POP PUSH3 0x3A6 PUSH1 0x4 DUP1 CALLDATASIZE SUB PUSH1 0x20 DUP2 LT ISZERO PUSH3 0x379 JUMPI PUSH1 0x0 DUP1 REVERT JUMPDEST DUP2 ADD SWAP1 DUP1 DUP1 CALLDATALOAD PUSH20 0xFFFFFFFFFFFFFFFFFFFFFFFFFFFFFFFFFFFFFFFF AND SWAP1 PUSH1 0x20 ADD SWAP1 SWAP3 SWAP2 SWAP1 POP POP POP PUSH3 0xF7D JUMP JUMPDEST STOP JUMPDEST CALLVALUE DUP1 ISZERO PUSH3 0x3B5 JUMPI PUSH1 0x0 DUP1 REVERT JUMPDEST POP PUSH3 0x3EF PUSH1 0x4 DUP1 CALLDATASIZE SUB PUSH1 0x40 DUP2 LT ISZERO PUSH3 0x3CE JUMPI PUSH1 0x0 DUP1 REVERT JUMPDEST DUP2 ADD SWAP1 DUP1 DUP1 CALLDATALOAD SWAP1 PUSH1 0x20 ADD SWAP1 SWAP3 SWAP2 SWAP1 DUP1 CALLDATALOAD SWAP1 PUSH1 0x20 ADD SWAP1 SWAP3 SWAP2 SWAP1 POP POP POP PUSH3 0x10D5 JUMP JUMPDEST PUSH1 0x40 MLOAD DUP1 DUP1 PUSH1 0x20 ADD DUP3 DUP2 SUB DUP3 MSTORE DUP4 DUP2 DUP2 MLOAD DUP2 MSTORE PUSH1 0x20 ADD SWAP2 POP DUP1 MLOAD SWAP1 PUSH1 0x20 ADD SWAP1 PUSH1 0x20 MUL DUP1 DUP4 DUP4 PUSH1 0x0 JUMPDEST DUP4 DUP2 LT ISZERO PUSH3 0x434 JUMPI DUP1 DUP3 ADD MLOAD DUP2 DUP5 ADD MSTORE PUSH1 0x20 DUP2 ADD SWAP1 POP PUSH3 0x417 JUMP JUMPDEST POP POP POP POP SWAP1 POP ADD SWAP3 POP POP POP PUSH1 0x40 MLOAD DUP1 SWAP2 SUB SWAP1 RETURN JUMPDEST CALLVALUE DUP1 ISZERO PUSH3 0x455 JUMPI PUSH1 0x0 DUP1 REVERT JUMPDEST POP PUSH3 0x49B PUSH1 0x4 DUP1 CALLDATASIZE SUB PUSH1 0x20 DUP2 LT ISZERO PUSH3 0x46E JUMPI PUSH1 0x0 DUP1 REVERT JUMPDEST DUP2 ADD SWAP1 DUP1 DUP1 CALLDATALOAD PUSH20 0xFFFFFFFFFFFFFFFFFFFFFFFFFFFFFFFFFFFFFFFF AND SWAP1 PUSH1 0x20 ADD SWAP1 SWAP3 SWAP2 SWAP1 POP POP POP PUSH3 0x117D JUMP JUMPDEST PUSH1 0x40 MLOAD DUP1 DUP3 DUP2 MSTORE PUSH1 0x20 ADD SWAP2 POP POP PUSH1 0x40 MLOAD DUP1 SWAP2 SUB SWAP1 RETURN JUMPDEST CALLVALUE DUP1 ISZERO PUSH3 0x4BE JUMPI PUSH1 0x0 DUP1 REVERT JUMPDEST POP PUSH3 0x4C9 PUSH3 0x11A0 JUMP JUMPDEST PUSH1 0x40 MLOAD DUP1 DUP3 PUSH20 0xFFFFFFFFFFFFFFFFFFFFFFFFFFFFFFFFFFFFFFFF AND PUSH20 0xFFFFFFFFFFFFFFFFFFFFFFFFFFFFFFFFFFFFFFFF AND DUP2 MSTORE PUSH1 0x20 ADD SWAP2 POP POP PUSH1 0x40 MLOAD DUP1 SWAP2 SUB SWAP1 RETURN JUMPDEST CALLVALUE DUP1 ISZERO PUSH3 0x518 JUMPI PUSH1 0x0 DUP1 REVERT JUMPDEST POP PUSH3 0x548 PUSH1 0x4 DUP1 CALLDATASIZE SUB PUSH1 0x20 DUP2 LT ISZERO PUSH3 0x531 JUMPI PUSH1 0x0 DUP1 REVERT JUMPDEST DUP2 ADD SWAP1 DUP1 DUP1 CALLDATALOAD SWAP1 PUSH1 0x20 ADD SWAP1 SWAP3 SWAP2 SWAP1 POP POP POP PUSH3 0x11C6 JUMP JUMPDEST PUSH1 0x40 MLOAD DUP1 DUP3 PUSH20 0xFFFFFFFFFFFFFFFFFFFFFFFFFFFFFFFFFFFFFFFF AND PUSH20 0xFFFFFFFFFFFFFFFFFFFFFFFFFFFFFFFFFFFFFFFF AND DUP2 MSTORE PUSH1 0x20 ADD SWAP2 POP POP PUSH1 0x40 MLOAD DUP1 SWAP2 SUB SWAP1 RETURN JUMPDEST CALLVALUE DUP1 ISZERO PUSH3 0x597 JUMPI PUSH1 0x0 DUP1 REVERT JUMPDEST POP PUSH3 0x5A2 PUSH3 0x1290 JUMP JUMPDEST STOP JUMPDEST CALLVALUE DUP1 ISZERO PUSH3 0x5B1 JUMPI PUSH1 0x0 DUP1 REVERT JUMPDEST POP PUSH3 0x5F7 PUSH1 0x4 DUP1 CALLDATASIZE SUB PUSH1 0x20 DUP2 LT ISZERO PUSH3 0x5CA JUMPI PUSH1 0x0 DUP1 REVERT JUMPDEST DUP2 ADD SWAP1 DUP1 DUP1 CALLDATALOAD PUSH20 0xFFFFFFFFFFFFFFFFFFFFFFFFFFFFFFFFFFFFFFFF AND SWAP1 PUSH1 0x20 ADD SWAP1 SWAP3 SWAP2 SWAP1 POP POP POP PUSH3 0x12EA JUMP JUMPDEST STOP JUMPDEST CALLVALUE DUP1 ISZERO PUSH3 0x606 JUMPI PUSH1 0x0 DUP1 REVERT JUMPDEST POP PUSH3 0x640 PUSH1 0x4 DUP1 CALLDATASIZE SUB PUSH1 0x40 DUP2 LT ISZERO PUSH3 0x61F JUMPI PUSH1 0x0 DUP1 REVERT JUMPDEST DUP2 ADD SWAP1 DUP1 DUP1 CALLDATALOAD SWAP1 PUSH1 0x20 ADD SWAP1 SWAP3 SWAP2 SWAP1 DUP1 CALLDATALOAD SWAP1 PUSH1 0x20 ADD SWAP1 SWAP3 SWAP2 SWAP1 POP POP POP PUSH3 0x13D6 JUMP JUMPDEST PUSH1 0x40 MLOAD DUP1 DUP1 PUSH1 0x20 ADD DUP3 DUP2 SUB DUP3 MSTORE DUP4 DUP2 DUP2 MLOAD DUP2 MSTORE PUSH1 0x20 ADD SWAP2 POP DUP1 MLOAD SWAP1 PUSH1 0x20 ADD SWAP1 PUSH1 0x20 MUL DUP1 DUP4 DUP4 PUSH1 0x0 JUMPDEST DUP4 DUP2 LT ISZERO PUSH3 0x685 JUMPI DUP1 DUP3 ADD MLOAD DUP2 DUP5 ADD MSTORE PUSH1 0x20 DUP2 ADD SWAP1 POP PUSH3 0x668 JUMP JUMPDEST POP POP POP POP SWAP1 POP ADD SWAP3 POP POP POP PUSH1 0x40 MLOAD DUP1 SWAP2 SUB SWAP1 RETURN JUMPDEST CALLVALUE DUP1 ISZERO PUSH3 0x6A6 JUMPI PUSH1 0x0 DUP1 REVERT JUMPDEST POP PUSH3 0x763 PUSH1 0x4 DUP1 CALLDATASIZE SUB PUSH1 0x20 DUP2 LT ISZERO PUSH3 0x6BF JUMPI PUSH1 0x0 DUP1 REVERT JUMPDEST DUP2 ADD SWAP1 DUP1 DUP1 CALLDATALOAD SWAP1 PUSH1 0x20 ADD SWAP1 PUSH5 0x100000000 DUP2 GT ISZERO PUSH3 0x6DD JUMPI PUSH1 0x0 DUP1 REVERT JUMPDEST DUP3 ADD DUP4 PUSH1 0x20 DUP3 ADD GT ISZERO PUSH3 0x6F0 JUMPI PUSH1 0x0 DUP1 REVERT JUMPDEST DUP1 CALLDATALOAD SWAP1 PUSH1 0x20 ADD SWAP2 DUP5 PUSH1 0x20 DUP4 MUL DUP5 ADD GT PUSH5 0x100000000 DUP4 GT OR ISZERO PUSH3 0x713 JUMPI PUSH1 0x0 DUP1 REVERT JUMPDEST SWAP2 SWAP1 DUP1 DUP1 PUSH1 0x20 MUL PUSH1 0x20 ADD PUSH1 0x40 MLOAD SWAP1 DUP2 ADD PUSH1 0x40 MSTORE DUP1 SWAP4 SWAP3 SWAP2 SWAP1 DUP2 DUP2 MSTORE PUSH1 0x20 ADD DUP4 DUP4 PUSH1 0x20 MUL DUP1 DUP3 DUP5 CALLDATACOPY PUSH1 0x0 DUP2 DUP5 ADD MSTORE PUSH1 0x1F NOT PUSH1 0x1F DUP3 ADD AND SWAP1 POP DUP1 DUP4 ADD SWAP3 POP POP POP POP POP POP POP SWAP2 SWAP3 SWAP2 SWAP3 SWAP1 POP POP POP PUSH3 0x147E JUMP JUMPDEST PUSH1 0x40 MLOAD DUP1 DUP1 PUSH1 0x20 ADD DUP3 DUP2 SUB DUP3 MSTORE DUP4 DUP2 DUP2 MLOAD DUP2 MSTORE PUSH1 0x20 ADD SWAP2 POP DUP1 MLOAD SWAP1 PUSH1 0x20 ADD SWAP1 PUSH1 0x20 MUL DUP1 DUP4 DUP4 PUSH1 0x0 JUMPDEST DUP4 DUP2 LT ISZERO PUSH3 0x7A8 JUMPI DUP1 DUP3 ADD MLOAD DUP2 DUP5 ADD MSTORE PUSH1 0x20 DUP2 ADD SWAP1 POP PUSH3 0x78B JUMP JUMPDEST POP POP POP POP SWAP1 POP ADD SWAP3 POP POP POP PUSH1 0x40 MLOAD DUP1 SWAP2 SUB SWAP1 RETURN JUMPDEST CALLVALUE DUP1 ISZERO PUSH3 0x7C9 JUMPI PUSH1 0x0 DUP1 REVERT JUMPDEST POP PUSH3 0x7D4 PUSH3 0x14AC JUMP JUMPDEST PUSH1 0x40 MLOAD DUP1 DUP3 DUP2 MSTORE PUSH1 0x20 ADD SWAP2 POP POP PUSH1 0x40 MLOAD DUP1 SWAP2 SUB SWAP1 RETURN JUMPDEST CALLVALUE DUP1 ISZERO PUSH3 0x7F7 JUMPI PUSH1 0x0 DUP1 REVERT JUMPDEST POP PUSH3 0x83D PUSH1 0x4 DUP1 CALLDATASIZE SUB PUSH1 0x20 DUP2 LT ISZERO PUSH3 0x810 JUMPI PUSH1 0x0 DUP1 REVERT JUMPDEST DUP2 ADD SWAP1 DUP1 DUP1 CALLDATALOAD PUSH20 0xFFFFFFFFFFFFFFFFFFFFFFFFFFFFFFFFFFFFFFFF AND SWAP1 PUSH1 0x20 ADD SWAP1 SWAP3 SWAP2 SWAP1 POP POP POP PUSH3 0x14BF JUMP JUMPDEST STOP JUMPDEST PUSH1 0x0 PUSH20 0xFFFFFFFFFFFFFFFFFFFFFFFFFFFFFFFFFFFFFFFF AND PUSH1 0x9 PUSH1 0x0 SWAP1 SLOAD SWAP1 PUSH2 0x100 EXP SWAP1 DIV PUSH20 0xFFFFFFFFFFFFFFFFFFFFFFFFFFFFFFFFFFFFFFFF AND PUSH20 0xFFFFFFFFFFFFFFFFFFFFFFFFFFFFFFFFFFFFFFFF AND EQ ISZERO PUSH3 0x8E9 JUMPI PUSH1 0x40 MLOAD PUSH32 0x8C379A000000000000000000000000000000000000000000000000000000000 DUP2 MSTORE PUSH1 0x4 ADD DUP1 DUP1 PUSH1 0x20 ADD DUP3 DUP2 SUB DUP3 MSTORE PUSH1 0x5E DUP2 MSTORE PUSH1 0x20 ADD DUP1 PUSH3 0x4DE2 PUSH1 0x5E SWAP2 CODECOPY PUSH1 0x60 ADD SWAP2 POP POP PUSH1 0x40 MLOAD DUP1 SWAP2 SUB SWAP1 REVERT JUMPDEST PUSH1 0x0 ADDRESS PUSH1 0x8 PUSH1 0x0 SWAP1 SLOAD SWAP1 PUSH2 0x100 EXP SWAP1 DIV PUSH20 0xFFFFFFFFFFFFFFFFFFFFFFFFFFFFFFFFFFFFFFFF AND PUSH1 0x9 PUSH1 0x0 SWAP1 SLOAD SWAP1 PUSH2 0x100 EXP SWAP1 DIV PUSH20 0xFFFFFFFFFFFFFFFFFFFFFFFFFFFFFFFFFFFFFFFF AND DUP7 DUP7 DUP7 CALLER PUSH1 0x40 MLOAD PUSH3 0x944 SWAP1 PUSH3 0x1B23 JUMP JUMPDEST DUP1 DUP9 PUSH20 0xFFFFFFFFFFFFFFFFFFFFFFFFFFFFFFFFFFFFFFFF AND PUSH20 0xFFFFFFFFFFFFFFFFFFFFFFFFFFFFFFFFFFFFFFFF AND DUP2 MSTORE PUSH1 0x20 ADD DUP8 PUSH20 0xFFFFFFFFFFFFFFFFFFFFFFFFFFFFFFFFFFFFFFFF AND PUSH20 0xFFFFFFFFFFFFFFFFFFFFFFFFFFFFFFFFFFFFFFFF AND DUP2 MSTORE PUSH1 0x20 ADD DUP7 PUSH20 0xFFFFFFFFFFFFFFFFFFFFFFFFFFFFFFFFFFFFFFFF AND PUSH20 0xFFFFFFFFFFFFFFFFFFFFFFFFFFFFFFFFFFFFFFFF AND DUP2 MSTORE PUSH1 0x20 ADD DUP1 PUSH1 0x20 ADD DUP6 DUP2 MSTORE PUSH1 0x20 ADD DUP5 DUP2 MSTORE PUSH1 0x20 ADD DUP4 PUSH20 0xFFFFFFFFFFFFFFFFFFFFFFFFFFFFFFFFFFFFFFFF AND PUSH20 0xFFFFFFFFFFFFFFFFFFFFFFFFFFFFFFFFFFFFFFFF AND DUP2 MSTORE PUSH1 0x20 ADD DUP3 DUP2 SUB DUP3 MSTORE DUP7 DUP2 DUP2 MLOAD DUP2 MSTORE PUSH1 0x20 ADD SWAP2 POP DUP1 MLOAD SWAP1 PUSH1 0x20 ADD SWAP1 DUP1 DUP4 DUP4 PUSH1 0x0 JUMPDEST DUP4 DUP2 LT ISZERO PUSH3 0xA57 JUMPI DUP1 DUP3 ADD MLOAD DUP2 DUP5 ADD MSTORE PUSH1 0x20 DUP2 ADD SWAP1 POP PUSH3 0xA3A JUMP JUMPDEST POP POP POP POP SWAP1 POP SWAP1 DUP2 ADD SWAP1 PUSH1 0x1F AND DUP1 ISZERO PUSH3 0xA85 JUMPI DUP1 DUP3 SUB DUP1 MLOAD PUSH1 0x1 DUP4 PUSH1 0x20 SUB PUSH2 0x100 EXP SUB NOT AND DUP2 MSTORE PUSH1 0x20 ADD SWAP2 POP JUMPDEST POP SWAP9 POP POP POP POP POP POP POP POP POP PUSH1 0x40 MLOAD DUP1 SWAP2 SUB SWAP1 PUSH1 0x0 CREATE DUP1 ISZERO DUP1 ISZERO PUSH3 0xAAD JUMPI RETURNDATASIZE PUSH1 0x0 DUP1 RETURNDATACOPY RETURNDATASIZE PUSH1 0x0 REVERT JUMPDEST POP SWAP1 POP PUSH1 0x0 DUP2 SWAP1 POP DUP1 PUSH20 0xFFFFFFFFFFFFFFFFFFFFFFFFFFFFFFFFFFFFFFFF AND PUSH2 0x8FC SELFBALANCE SWAP1 DUP2 ISZERO MUL SWAP1 PUSH1 0x40 MLOAD PUSH1 0x0 PUSH1 0x40 MLOAD DUP1 DUP4 SUB DUP2 DUP6 DUP9 DUP9 CALL SWAP4 POP POP POP POP ISZERO DUP1 ISZERO PUSH3 0xAFC JUMPI RETURNDATASIZE PUSH1 0x0 DUP1 RETURNDATACOPY RETURNDATASIZE PUSH1 0x0 REVERT JUMPDEST POP PUSH1 0x0 PUSH3 0xB0A DUP4 PUSH3 0x117D JUMP JUMPDEST SWAP1 POP PUSH3 0xB22 DUP2 PUSH1 0x0 PUSH3 0x15CB SWAP1 SWAP2 SWAP1 PUSH4 0xFFFFFFFF AND JUMP JUMPDEST DUP3 PUSH1 0x4 PUSH1 0x0 DUP4 DUP2 MSTORE PUSH1 0x20 ADD SWAP1 DUP2 MSTORE PUSH1 0x20 ADD PUSH1 0x0 KECCAK256 PUSH1 0x0 PUSH2 0x100 EXP DUP2 SLOAD DUP2 PUSH20 0xFFFFFFFFFFFFFFFFFFFFFFFFFFFFFFFFFFFFFFFF MUL NOT AND SWAP1 DUP4 PUSH20 0xFFFFFFFFFFFFFFFFFFFFFFFFFFFFFFFFFFFFFFFF AND MUL OR SWAP1 SSTORE POP PUSH1 0x0 PUSH1 0x8 PUSH1 0x0 SWAP1 SLOAD SWAP1 PUSH2 0x100 EXP SWAP1 DIV PUSH20 0xFFFFFFFFFFFFFFFFFFFFFFFFFFFFFFFFFFFFFFFF AND SWAP1 POP PUSH1 0x0 DUP2 PUSH20 0xFFFFFFFFFFFFFFFFFFFFFFFFFFFFFFFFFFFFFFFF AND PUSH4 0x9F96DAB0 CALLER PUSH1 0x40 MLOAD DUP3 PUSH4 0xFFFFFFFF AND PUSH1 0xE0 SHL DUP2 MSTORE PUSH1 0x4 ADD DUP1 DUP3 PUSH20 0xFFFFFFFFFFFFFFFFFFFFFFFFFFFFFFFFFFFFFFFF AND PUSH20 0xFFFFFFFFFFFFFFFFFFFFFFFFFFFFFFFFFFFFFFFF AND DUP2 MSTORE PUSH1 0x20 ADD SWAP2 POP POP PUSH1 0x20 PUSH1 0x40 MLOAD DUP1 DUP4 SUB DUP2 DUP7 DUP1 EXTCODESIZE ISZERO DUP1 ISZERO PUSH3 0xC1B JUMPI PUSH1 0x0 DUP1 REVERT JUMPDEST POP GAS STATICCALL ISZERO DUP1 ISZERO PUSH3 0xC30 JUMPI RETURNDATASIZE PUSH1 0x0 DUP1 RETURNDATACOPY RETURNDATASIZE PUSH1 0x0 REVERT JUMPDEST POP POP POP POP PUSH1 0x40 MLOAD RETURNDATASIZE PUSH1 0x20 DUP2 LT ISZERO PUSH3 0xC47 JUMPI PUSH1 0x0 DUP1 REVERT JUMPDEST DUP2 ADD SWAP1 DUP1 DUP1 MLOAD SWAP1 PUSH1 0x20 ADD SWAP1 SWAP3 SWAP2 SWAP1 POP POP POP SWAP1 POP DUP1 PUSH20 0xFFFFFFFFFFFFFFFFFFFFFFFFFFFFFFFFFFFFFFFF AND PUSH4 0xF18DF9E7 DUP6 PUSH1 0x40 MLOAD DUP3 PUSH4 0xFFFFFFFF AND PUSH1 0xE0 SHL DUP2 MSTORE PUSH1 0x4 ADD DUP1 DUP3 PUSH20 0xFFFFFFFFFFFFFFFFFFFFFFFFFFFFFFFFFFFFFFFF AND PUSH20 0xFFFFFFFFFFFFFFFFFFFFFFFFFFFFFFFFFFFFFFFF AND DUP2 MSTORE PUSH1 0x20 ADD SWAP2 POP POP PUSH1 0x0 PUSH1 0x40 MLOAD DUP1 DUP4 SUB DUP2 PUSH1 0x0 DUP8 DUP1 EXTCODESIZE ISZERO DUP1 ISZERO PUSH3 0xCDA JUMPI PUSH1 0x0 DUP1 REVERT JUMPDEST POP GAS CALL ISZERO DUP1 ISZERO PUSH3 0xCEF JUMPI RETURNDATASIZE PUSH1 0x0 DUP1 RETURNDATACOPY RETURNDATASIZE PUSH1 0x0 REVERT JUMPDEST POP POP POP POP PUSH1 0x1 PUSH1 0x6 PUSH1 0x0 DUP8 PUSH20 0xFFFFFFFFFFFFFFFFFFFFFFFFFFFFFFFFFFFFFFFF AND PUSH20 0xFFFFFFFFFFFFFFFFFFFFFFFFFFFFFFFFFFFFFFFF AND DUP2 MSTORE PUSH1 0x20 ADD SWAP1 DUP2 MSTORE PUSH1 0x20 ADD PUSH1 0x0 KECCAK256 PUSH1 0x0 PUSH2 0x100 EXP DUP2 SLOAD DUP2 PUSH1 0xFF MUL NOT AND SWAP1 DUP4 ISZERO ISZERO MUL OR SWAP1 SSTORE POP PUSH32 0x3DE526A908F518E7EA42B44D581B69406F6A241DCFA2890D7830E3272AD039D7 CALLER DUP7 DUP10 DUP10 PUSH1 0x40 MLOAD DUP1 DUP6 PUSH20 0xFFFFFFFFFFFFFFFFFFFFFFFFFFFFFFFFFFFFFFFF AND PUSH20 0xFFFFFFFFFFFFFFFFFFFFFFFFFFFFFFFFFFFFFFFF AND DUP2 MSTORE PUSH1 0x20 ADD DUP5 PUSH20 0xFFFFFFFFFFFFFFFFFFFFFFFFFFFFFFFFFFFFFFFF AND PUSH20 0xFFFFFFFFFFFFFFFFFFFFFFFFFFFFFFFFFFFFFFFF AND DUP2 MSTORE PUSH1 0x20 ADD DUP4 DUP2 MSTORE PUSH1 0x20 ADD DUP3 DUP2 MSTORE PUSH1 0x20 ADD SWAP5 POP POP POP POP POP PUSH1 0x40 MLOAD DUP1 SWAP2 SUB SWAP1 LOG1 POP POP POP POP POP POP POP POP JUMP JUMPDEST PUSH1 0x0 PUSH1 0x6 PUSH1 0x0 DUP4 PUSH20 0xFFFFFFFFFFFFFFFFFFFFFFFFFFFFFFFFFFFFFFFF AND PUSH20 0xFFFFFFFFFFFFFFFFFFFFFFFFFFFFFFFFFFFFFFFF AND DUP2 MSTORE PUSH1 0x20 ADD SWAP1 DUP2 MSTORE PUSH1 0x20 ADD PUSH1 0x0 KECCAK256 PUSH1 0x0 SWAP1 SLOAD SWAP1 PUSH2 0x100 EXP SWAP1 DIV PUSH1 0xFF AND SWAP1 POP SWAP2 SWAP1 POP JUMP JUMPDEST PUSH1 0x0 PUSH3 0xE60 PUSH1 0x2 PUSH3 0x16DA JUMP JUMPDEST SWAP1 POP SWAP1 JUMP JUMPDEST PUSH1 0xA PUSH1 0x0 CALLER PUSH20 0xFFFFFFFFFFFFFFFFFFFFFFFFFFFFFFFFFFFFFFFF AND PUSH20 0xFFFFFFFFFFFFFFFFFFFFFFFFFFFFFFFFFFFFFFFF AND DUP2 MSTORE PUSH1 0x20 ADD SWAP1 DUP2 MSTORE PUSH1 0x20 ADD PUSH1 0x0 KECCAK256 PUSH1 0x0 SWAP1 SLOAD SWAP1 PUSH2 0x100 EXP SWAP1 DIV PUSH1 0xFF AND DUP1 PUSH3 0xF0B JUMPI POP PUSH1 0x7 PUSH1 0x0 SWAP1 SLOAD SWAP1 PUSH2 0x100 EXP SWAP1 DIV PUSH20 0xFFFFFFFFFFFFFFFFFFFFFFFFFFFFFFFFFFFFFFFF AND PUSH20 0xFFFFFFFFFFFFFFFFFFFFFFFFFFFFFFFFFFFFFFFF AND CALLER PUSH20 0xFFFFFFFFFFFFFFFFFFFFFFFFFFFFFFFFFFFFFFFF AND EQ JUMPDEST PUSH3 0xF62 JUMPI PUSH1 0x40 MLOAD PUSH32 0x8C379A000000000000000000000000000000000000000000000000000000000 DUP2 MSTORE PUSH1 0x4 ADD DUP1 DUP1 PUSH1 0x20 ADD DUP3 DUP2 SUB DUP3 MSTORE PUSH1 0x29 DUP2 MSTORE PUSH1 0x20 ADD DUP1 PUSH3 0x4EAA PUSH1 0x29 SWAP2 CODECOPY PUSH1 0x40 ADD SWAP2 POP POP PUSH1 0x40 MLOAD DUP1 SWAP2 SUB SWAP1 REVERT JUMPDEST PUSH3 0xF6D DUP2 PUSH3 0x16EB JUMP JUMPDEST POP JUMP JUMPDEST PUSH1 0x0 DUP2 PUSH1 0x0 SHR SWAP1 POP SWAP2 SWAP1 POP JUMP JUMPDEST PUSH1 0xA PUSH1 0x0 CALLER PUSH20 0xFFFFFFFFFFFFFFFFFFFFFFFFFFFFFFFFFFFFFFFF AND PUSH20 0xFFFFFFFFFFFFFFFFFFFFFFFFFFFFFFFFFFFFFFFF AND DUP2 MSTORE PUSH1 0x20 ADD SWAP1 DUP2 MSTORE PUSH1 0x20 ADD PUSH1 0x0 KECCAK256 PUSH1 0x0 SWAP1 SLOAD SWAP1 PUSH2 0x100 EXP SWAP1 DIV PUSH1 0xFF AND DUP1 PUSH3 0x1023 JUMPI POP PUSH1 0x7 PUSH1 0x0 SWAP1 SLOAD SWAP1 PUSH2 0x100 EXP SWAP1 DIV PUSH20 0xFFFFFFFFFFFFFFFFFFFFFFFFFFFFFFFFFFFFFFFF AND PUSH20 0xFFFFFFFFFFFFFFFFFFFFFFFFFFFFFFFFFFFFFFFF AND CALLER PUSH20 0xFFFFFFFFFFFFFFFFFFFFFFFFFFFFFFFFFFFFFFFF AND EQ JUMPDEST PUSH3 0x107A JUMPI PUSH1 0x40 MLOAD PUSH32 0x8C379A000000000000000000000000000000000000000000000000000000000 DUP2 MSTORE PUSH1 0x4 ADD DUP1 DUP1 PUSH1 0x20 ADD DUP3 DUP2 SUB DUP3 MSTORE PUSH1 0x29 DUP2 MSTORE PUSH1 0x20 ADD DUP1 PUSH3 0x4EAA PUSH1 0x29 SWAP2 CODECOPY PUSH1 0x40 ADD SWAP2 POP POP PUSH1 0x40 MLOAD DUP1 SWAP2 SUB SWAP1 REVERT JUMPDEST PUSH1 0x1 PUSH1 0xA PUSH1 0x0 DUP4 PUSH20 0xFFFFFFFFFFFFFFFFFFFFFFFFFFFFFFFFFFFFFFFF AND PUSH20 0xFFFFFFFFFFFFFFFFFFFFFFFFFFFFFFFFFFFFFFFF AND DUP2 MSTORE PUSH1 0x20 ADD SWAP1 DUP2 MSTORE PUSH1 0x20 ADD PUSH1 0x0 KECCAK256 PUSH1 0x0 PUSH2 0x100 EXP DUP2 SLOAD DUP2 PUSH1 0xFF MUL NOT AND SWAP1 DUP4 ISZERO ISZERO MUL OR SWAP1 SSTORE POP POP JUMP JUMPDEST PUSH1 0x60 PUSH1 0x0 DUP4 DUP4 SUB SWAP1 POP PUSH1 0x60 DUP2 PUSH1 0x40 MLOAD SWAP1 DUP1 DUP3 MSTORE DUP1 PUSH1 0x20 MUL PUSH1 0x20 ADD DUP3 ADD PUSH1 0x40 MSTORE DUP1 ISZERO PUSH3 0x1110 JUMPI DUP2 PUSH1 0x20 ADD PUSH1 0x20 DUP3 MUL DUP1 CODESIZE DUP4 CODECOPY DUP1 DUP3 ADD SWAP2 POP POP SWAP1 POP JUMPDEST POP SWAP1 POP PUSH1 0x0 DUP1 SWAP1 POP JUMPDEST DUP3 DUP2 LT ISZERO PUSH3 0x114C JUMPI DUP1 DUP7 ADD DUP3 DUP3 DUP2 MLOAD DUP2 LT PUSH3 0x1132 JUMPI INVALID JUMPDEST PUSH1 0x20 MUL PUSH1 0x20 ADD ADD DUP2 DUP2 MSTORE POP POP DUP1 DUP1 PUSH1 0x1 ADD SWAP2 POP POP PUSH3 0x1119 JUMP JUMPDEST POP PUSH1 0x60 PUSH3 0x1165 DUP3 PUSH1 0x2 PUSH3 0x17E9 SWAP1 SWAP2 SWAP1 PUSH4 0xFFFFFFFF AND JUMP JUMPDEST SWAP1 POP PUSH3 0x1172 DUP2 PUSH3 0x1897 JUMP JUMPDEST SWAP4 POP POP POP POP SWAP3 SWAP2 POP POP JUMP JUMPDEST PUSH1 0x0 DUP2 PUSH20 0xFFFFFFFFFFFFFFFFFFFFFFFFFFFFFFFFFFFFFFFF AND PUSH1 0x0 SHL SWAP1 POP SWAP2 SWAP1 POP JUMP JUMPDEST PUSH1 0x7 PUSH1 0x0 SWAP1 SLOAD SWAP1 PUSH2 0x100 EXP SWAP1 DIV PUSH20 0xFFFFFFFFFFFFFFFFFFFFFFFFFFFFFFFFFFFFFFFF AND DUP2 JUMP JUMPDEST PUSH1 0x0 DUP1 PUSH3 0x11DF DUP4 PUSH1 0x0 PUSH3 0x198C SWAP1 SWAP2 SWAP1 PUSH4 0xFFFFFFFF AND JUMP JUMPDEST SWAP1 POP PUSH3 0x11F7 DUP2 PUSH1 0x0 PUSH3 0x19B1 SWAP1 SWAP2 SWAP1 PUSH4 0xFFFFFFFF AND JUMP JUMPDEST PUSH3 0x124E JUMPI PUSH1 0x40 MLOAD PUSH32 0x8C379A000000000000000000000000000000000000000000000000000000000 DUP2 MSTORE PUSH1 0x4 ADD DUP1 DUP1 PUSH1 0x20 ADD DUP3 DUP2 SUB DUP3 MSTORE PUSH1 0x25 DUP2 MSTORE PUSH1 0x20 ADD DUP1 PUSH3 0x4ED3 PUSH1 0x25 SWAP2 CODECOPY PUSH1 0x40 ADD SWAP2 POP POP PUSH1 0x40 MLOAD DUP1 SWAP2 SUB SWAP1 REVERT JUMPDEST PUSH1 0x0 PUSH1 0x4 PUSH1 0x0 DUP4 DUP2 MSTORE PUSH1 0x20 ADD SWAP1 DUP2 MSTORE PUSH1 0x20 ADD PUSH1 0x0 KECCAK256 PUSH1 0x0 SWAP1 SLOAD SWAP1 PUSH2 0x100 EXP SWAP1 DIV PUSH20 0xFFFFFFFFFFFFFFFFFFFFFFFFFFFFFFFFFFFFFFFF AND SWAP1 POP DUP1 SWAP3 POP POP POP SWAP2 SWAP1 POP JUMP JUMPDEST PUSH1 0x0 PUSH1 0xA PUSH1 0x0 CALLER PUSH20 0xFFFFFFFFFFFFFFFFFFFFFFFFFFFFFFFFFFFFFFFF AND PUSH20 0xFFFFFFFFFFFFFFFFFFFFFFFFFFFFFFFFFFFFFFFF AND DUP2 MSTORE PUSH1 0x20 ADD SWAP1 DUP2 MSTORE PUSH1 0x20 ADD PUSH1 0x0 KECCAK256 PUSH1 0x0 PUSH2 0x100 EXP DUP2 SLOAD DUP2 PUSH1 0xFF MUL NOT AND SWAP1 DUP4 ISZERO ISZERO MUL OR SWAP1 SSTORE POP JUMP JUMPDEST PUSH1 0x7 PUSH1 0x0 SWAP1 SLOAD SWAP1 PUSH2 0x100 EXP SWAP1 DIV PUSH20 0xFFFFFFFFFFFFFFFFFFFFFFFFFFFFFFFFFFFFFFFF AND PUSH20 0xFFFFFFFFFFFFFFFFFFFFFFFFFFFFFFFFFFFFFFFF AND CALLER PUSH20 0xFFFFFFFFFFFFFFFFFFFFFFFFFFFFFFFFFFFFFFFF AND EQ PUSH3 0x1392 JUMPI PUSH1 0x40 MLOAD PUSH32 0x8C379A000000000000000000000000000000000000000000000000000000000 DUP2 MSTORE PUSH1 0x4 ADD DUP1 DUP1 PUSH1 0x20 ADD DUP3 DUP2 SUB DUP3 MSTORE PUSH1 0x42 DUP2 MSTORE PUSH1 0x20 ADD DUP1 PUSH3 0x4DA0 PUSH1 0x42 SWAP2 CODECOPY PUSH1 0x60 ADD SWAP2 POP POP PUSH1 0x40 MLOAD DUP1 SWAP2 SUB SWAP1 REVERT JUMPDEST DUP1 PUSH1 0x9 PUSH1 0x0 PUSH2 0x100 EXP DUP2 SLOAD DUP2 PUSH20 0xFFFFFFFFFFFFFFFFFFFFFFFFFFFFFFFFFFFFFFFF MUL NOT AND SWAP1 DUP4 PUSH20 0xFFFFFFFFFFFFFFFFFFFFFFFFFFFFFFFFFFFFFFFF AND MUL OR SWAP1 SSTORE POP POP JUMP JUMPDEST PUSH1 0x60 PUSH1 0x0 DUP4 DUP4 SUB SWAP1 POP PUSH1 0x60 DUP2 PUSH1 0x40 MLOAD SWAP1 DUP1 DUP3 MSTORE DUP1 PUSH1 0x20 MUL PUSH1 0x20 ADD DUP3 ADD PUSH1 0x40 MSTORE DUP1 ISZERO PUSH3 0x1411 JUMPI DUP2 PUSH1 0x20 ADD PUSH1 0x20 DUP3 MUL DUP1 CODESIZE DUP4 CODECOPY DUP1 DUP3 ADD SWAP2 POP POP SWAP1 POP JUMPDEST POP SWAP1 POP PUSH1 0x0 DUP1 SWAP1 POP JUMPDEST DUP3 DUP2 LT ISZERO PUSH3 0x144D JUMPI DUP1 DUP7 ADD DUP3 DUP3 DUP2 MLOAD DUP2 LT PUSH3 0x1433 JUMPI INVALID JUMPDEST PUSH1 0x20 MUL PUSH1 0x20 ADD ADD DUP2 DUP2 MSTORE POP POP DUP1 DUP1 PUSH1 0x1 ADD SWAP2 POP POP PUSH3 0x141A JUMP JUMPDEST POP PUSH1 0x60 PUSH3 0x1466 DUP3 PUSH1 0x0 PUSH3 0x17E9 SWAP1 SWAP2 SWAP1 PUSH4 0xFFFFFFFF AND JUMP JUMPDEST SWAP1 POP PUSH3 0x1473 DUP2 PUSH3 0x1897 JUMP JUMPDEST SWAP4 POP POP POP POP SWAP3 SWAP2 POP POP JUMP JUMPDEST PUSH1 0x60 DUP1 PUSH3 0x1497 DUP4 PUSH1 0x0 PUSH3 0x17E9 SWAP1 SWAP2 SWAP1 PUSH4 0xFFFFFFFF AND JUMP JUMPDEST SWAP1 POP PUSH3 0x14A4 DUP2 PUSH3 0x1897 JUMP JUMPDEST SWAP2 POP POP SWAP2 SWAP1 POP JUMP JUMPDEST PUSH1 0x0 PUSH3 0x14BA PUSH1 0x0 PUSH3 0x16DA JUMP JUMPDEST SWAP1 POP SWAP1 JUMP JUMPDEST DUP1 PUSH20 0xFFFFFFFFFFFFFFFFFFFFFFFFFFFFFFFFFFFFFFFF AND CALLER PUSH20 0xFFFFFFFFFFFFFFFFFFFFFFFFFFFFFFFFFFFFFFFF AND EQ PUSH3 0x1545 JUMPI PUSH1 0x40 MLOAD PUSH32 0x8C379A000000000000000000000000000000000000000000000000000000000 DUP2 MSTORE PUSH1 0x4 ADD DUP1 DUP1 PUSH1 0x20 ADD DUP3 DUP2 SUB DUP3 MSTORE PUSH1 0x39 DUP2 MSTORE PUSH1 0x20 ADD DUP1 PUSH3 0x4EF8 PUSH1 0x39 SWAP2 CODECOPY PUSH1 0x40 ADD SWAP2 POP POP PUSH1 0x40 MLOAD DUP1 SWAP2 SUB SWAP1 REVERT JUMPDEST PUSH1 0x0 PUSH3 0x1552 DUP3 PUSH3 0x117D JUMP JUMPDEST SWAP1 POP PUSH3 0x155F DUP3 PUSH3 0x16EB JUMP JUMPDEST PUSH3 0x1575 DUP2 PUSH1 0x2 PUSH3 0x15CB SWAP1 SWAP2 SWAP1 PUSH4 0xFFFFFFFF AND JUMP JUMPDEST DUP2 PUSH1 0x5 PUSH1 0x0 DUP4 DUP2 MSTORE PUSH1 0x20 ADD SWAP1 DUP2 MSTORE PUSH1 0x20 ADD PUSH1 0x0 KECCAK256 PUSH1 0x0 PUSH2 0x100 EXP DUP2 SLOAD DUP2 PUSH20 0xFFFFFFFFFFFFFFFFFFFFFFFFFFFFFFFFFFFFFFFF MUL NOT AND SWAP1 DUP4 PUSH20 0xFFFFFFFFFFFFFFFFFFFFFFFFFFFFFFFFFFFFFFFF AND MUL OR SWAP1 SSTORE POP POP POP JUMP JUMPDEST PUSH1 0x0 DUP1 SHL DUP2 EQ ISZERO PUSH3 0x1629 JUMPI PUSH1 0x40 MLOAD PUSH32 0x8C379A000000000000000000000000000000000000000000000000000000000 DUP2 MSTORE PUSH1 0x4 ADD DUP1 DUP1 PUSH1 0x20 ADD DUP3 DUP2 SUB DUP3 MSTORE PUSH1 0x28 DUP2 MSTORE PUSH1 0x20 ADD DUP1 PUSH3 0x4D78 PUSH1 0x28 SWAP2 CODECOPY PUSH1 0x40 ADD SWAP2 POP POP PUSH1 0x40 MLOAD DUP1 SWAP2 SUB SWAP1 REVERT JUMPDEST PUSH3 0x1635 DUP3 DUP3 PUSH3 0x19B1 JUMP JUMPDEST ISZERO PUSH3 0x168D JUMPI PUSH1 0x40 MLOAD PUSH32 0x8C379A000000000000000000000000000000000000000000000000000000000 DUP2 MSTORE PUSH1 0x4 ADD DUP1 DUP1 PUSH1 0x20 ADD DUP3 DUP2 SUB DUP3 MSTORE PUSH1 0x35 DUP2 MSTORE PUSH1 0x20 ADD DUP1 PUSH3 0x4E75 PUSH1 0x35 SWAP2 CODECOPY PUSH1 0x40 ADD SWAP2 POP POP PUSH1 0x40 MLOAD DUP1 SWAP2 SUB SWAP1 REVERT JUMPDEST PUSH1 0x1 DUP3 PUSH1 0x1 ADD DUP3 SWAP1 DUP1 PUSH1 0x1 DUP2 SLOAD ADD DUP1 DUP3 SSTORE DUP1 SWAP2 POP POP SWAP1 PUSH1 0x1 DUP3 SUB SWAP1 PUSH1 0x0 MSTORE PUSH1 0x20 PUSH1 0x0 KECCAK256 ADD PUSH1 0x0 SWAP1 SWAP2 SWAP3 SWAP1 SWAP2 SWAP1 SWAP2 POP SSTORE SUB DUP3 PUSH1 0x0 ADD PUSH1 0x0 DUP4 DUP2 MSTORE PUSH1 0x20 ADD SWAP1 DUP2 MSTORE PUSH1 0x20 ADD PUSH1 0x0 KECCAK256 DUP2 SWAP1 SSTORE POP POP POP JUMP JUMPDEST PUSH1 0x0 DUP2 PUSH1 0x1 ADD DUP1 SLOAD SWAP1 POP SWAP1 POP SWAP2 SWAP1 POP JUMP JUMPDEST PUSH1 0x0 PUSH3 0x16F8 DUP3 PUSH3 0x117D JUMP JUMPDEST SWAP1 POP PUSH3 0x1710 DUP2 PUSH1 0x0 PUSH3 0x1A08 SWAP1 SWAP2 SWAP1 PUSH4 0xFFFFFFFF AND JUMP JUMPDEST PUSH1 0x4 PUSH1 0x0 DUP3 DUP2 MSTORE PUSH1 0x20 ADD SWAP1 DUP2 MSTORE PUSH1 0x20 ADD PUSH1 0x0 KECCAK256 PUSH1 0x0 PUSH2 0x100 EXP DUP2 SLOAD SWAP1 PUSH20 0xFFFFFFFFFFFFFFFFFFFFFFFFFFFFFFFFFFFFFFFF MUL NOT AND SWAP1 SSTORE PUSH32 0xA47CFC8CDF313693DB1A69BB82559CC1A32D10F6D85A649A1BADDF5C1E0AC22C CALLER DUP4 DUP4 PUSH1 0x40 MLOAD DUP1 DUP5 PUSH20 0xFFFFFFFFFFFFFFFFFFFFFFFFFFFFFFFFFFFFFFFF AND PUSH20 0xFFFFFFFFFFFFFFFFFFFFFFFFFFFFFFFFFFFFFFFF AND DUP2 MSTORE PUSH1 0x20 ADD DUP4 PUSH20 0xFFFFFFFFFFFFFFFFFFFFFFFFFFFFFFFFFFFFFFFF AND PUSH20 0xFFFFFFFFFFFFFFFFFFFFFFFFFFFFFFFFFFFFFFFF AND DUP2 MSTORE PUSH1 0x20 ADD DUP3 DUP2 MSTORE PUSH1 0x20 ADD SWAP4 POP POP POP POP PUSH1 0x40 MLOAD DUP1 SWAP2 SUB SWAP1 LOG1 POP POP JUMP JUMPDEST PUSH1 0x60 DUP1 DUP3 MLOAD PUSH1 0x40 MLOAD SWAP1 DUP1 DUP3 MSTORE DUP1 PUSH1 0x20 MUL PUSH1 0x20 ADD DUP3 ADD PUSH1 0x40 MSTORE DUP1 ISZERO PUSH3 0x181D JUMPI DUP2 PUSH1 0x20 ADD PUSH1 0x20 DUP3 MUL DUP1 CODESIZE DUP4 CODECOPY DUP1 DUP3 ADD SWAP2 POP POP SWAP1 POP JUMPDEST POP SWAP1 POP PUSH1 0x0 DUP1 SWAP1 POP JUMPDEST DUP4 MLOAD DUP2 LT ISZERO PUSH3 0x188C JUMPI PUSH1 0x0 DUP5 DUP3 DUP2 MLOAD DUP2 LT PUSH3 0x183F JUMPI INVALID JUMPDEST PUSH1 0x20 MUL PUSH1 0x20 ADD ADD MLOAD SWAP1 POP DUP6 PUSH1 0x1 ADD DUP2 DUP2 SLOAD DUP2 LT PUSH3 0x1859 JUMPI INVALID JUMPDEST SWAP1 PUSH1 0x0 MSTORE PUSH1 0x20 PUSH1 0x0 KECCAK256 ADD SLOAD DUP4 DUP4 DUP2 MLOAD DUP2 LT PUSH3 0x1871 JUMPI INVALID JUMPDEST PUSH1 0x20 MUL PUSH1 0x20 ADD ADD DUP2 DUP2 MSTORE POP POP POP DUP1 DUP1 PUSH1 0x1 ADD SWAP2 POP POP PUSH3 0x1826 JUMP JUMPDEST POP DUP1 SWAP2 POP POP SWAP3 SWAP2 POP POP JUMP JUMPDEST PUSH1 0x60 PUSH1 0x0 DUP3 MLOAD SWAP1 POP PUSH1 0x60 DUP2 PUSH1 0x40 MLOAD SWAP1 DUP1 DUP3 MSTORE DUP1 PUSH1 0x20 MUL PUSH1 0x20 ADD DUP3 ADD PUSH1 0x40 MSTORE DUP1 ISZERO PUSH3 0x18D1 JUMPI DUP2 PUSH1 0x20 ADD PUSH1 0x20 DUP3 MUL DUP1 CODESIZE DUP4 CODECOPY DUP1 DUP3 ADD SWAP2 POP POP SWAP1 POP JUMPDEST POP SWAP1 POP PUSH1 0x0 DUP1 SWAP1 POP JUMPDEST DUP5 MLOAD DUP2 LT ISZERO PUSH3 0x1981 JUMPI PUSH1 0x4 PUSH1 0x0 DUP7 DUP4 DUP2 MLOAD DUP2 LT PUSH3 0x18F5 JUMPI INVALID JUMPDEST PUSH1 0x20 MUL PUSH1 0x20 ADD ADD MLOAD DUP2 MSTORE PUSH1 0x20 ADD SWAP1 DUP2 MSTORE PUSH1 0x20 ADD PUSH1 0x0 KECCAK256 PUSH1 0x0 SWAP1 SLOAD SWAP1 PUSH2 0x100 EXP SWAP1 DIV PUSH20 0xFFFFFFFFFFFFFFFFFFFFFFFFFFFFFFFFFFFFFFFF AND DUP3 DUP3 DUP2 MLOAD DUP2 LT PUSH3 0x1939 JUMPI INVALID JUMPDEST PUSH1 0x20 MUL PUSH1 0x20 ADD ADD SWAP1 PUSH20 0xFFFFFFFFFFFFFFFFFFFFFFFFFFFFFFFFFFFFFFFF AND SWAP1 DUP2 PUSH20 0xFFFFFFFFFFFFFFFFFFFFFFFFFFFFFFFFFFFFFFFF AND DUP2 MSTORE POP POP DUP1 DUP1 PUSH1 0x1 ADD SWAP2 POP POP PUSH3 0x18DA JUMP JUMPDEST POP DUP1 SWAP3 POP POP POP SWAP2 SWAP1 POP JUMP JUMPDEST PUSH1 0x0 DUP3 PUSH1 0x1 ADD DUP3 DUP2 SLOAD DUP2 LT PUSH3 0x199E JUMPI INVALID JUMPDEST SWAP1 PUSH1 0x0 MSTORE PUSH1 0x20 PUSH1 0x0 KECCAK256 ADD SLOAD SWAP1 POP SWAP3 SWAP2 POP POP JUMP JUMPDEST PUSH1 0x0 DUP1 DUP4 PUSH1 0x1 ADD DUP1 SLOAD SWAP1 POP EQ ISZERO PUSH3 0x19CD JUMPI PUSH1 0x0 SWAP1 POP PUSH3 0x1A02 JUMP JUMPDEST DUP2 DUP4 PUSH1 0x1 ADD DUP5 PUSH1 0x0 ADD PUSH1 0x0 DUP6 DUP2 MSTORE PUSH1 0x20 ADD SWAP1 DUP2 MSTORE PUSH1 0x20 ADD PUSH1 0x0 KECCAK256 SLOAD DUP2 SLOAD DUP2 LT PUSH3 0x19F3 JUMPI INVALID JUMPDEST SWAP1 PUSH1 0x0 MSTORE PUSH1 0x20 PUSH1 0x0 KECCAK256 ADD SLOAD EQ SWAP1 POP JUMPDEST SWAP3 SWAP2 POP POP JUMP JUMPDEST PUSH3 0x1A14 DUP3 DUP3 PUSH3 0x19B1 JUMP JUMPDEST PUSH3 0x1A6B JUMPI PUSH1 0x40 MLOAD PUSH32 0x8C379A000000000000000000000000000000000000000000000000000000000 DUP2 MSTORE PUSH1 0x4 ADD DUP1 DUP1 PUSH1 0x20 ADD DUP3 DUP2 SUB DUP3 MSTORE PUSH1 0x35 DUP2 MSTORE PUSH1 0x20 ADD DUP1 PUSH3 0x4E40 PUSH1 0x35 SWAP2 CODECOPY PUSH1 0x40 ADD SWAP2 POP POP PUSH1 0x40 MLOAD DUP1 SWAP2 SUB SWAP1 REVERT JUMPDEST PUSH1 0x0 DUP3 PUSH1 0x1 ADD PUSH1 0x1 PUSH3 0x1A7E DUP6 PUSH3 0x16DA JUMP JUMPDEST SUB DUP2 SLOAD DUP2 LT PUSH3 0x1A8A JUMPI INVALID JUMPDEST SWAP1 PUSH1 0x0 MSTORE PUSH1 0x20 PUSH1 0x0 KECCAK256 ADD SLOAD SWAP1 POP PUSH1 0x0 DUP4 PUSH1 0x0 ADD PUSH1 0x0 DUP5 DUP2 MSTORE PUSH1 0x20 ADD SWAP1 DUP2 MSTORE PUSH1 0x20 ADD PUSH1 0x0 KECCAK256 SLOAD SWAP1 POP DUP1 DUP5 PUSH1 0x0 ADD PUSH1 0x0 DUP5 DUP2 MSTORE PUSH1 0x20 ADD SWAP1 DUP2 MSTORE PUSH1 0x20 ADD PUSH1 0x0 KECCAK256 DUP2 SWAP1 SSTORE POP DUP2 DUP5 PUSH1 0x1 ADD DUP3 DUP2 SLOAD DUP2 LT PUSH3 0x1ADC JUMPI INVALID JUMPDEST SWAP1 PUSH1 0x0 MSTORE PUSH1 0x20 PUSH1 0x0 KECCAK256 ADD DUP2 SWAP1 SSTORE POP DUP4 PUSH1 0x0 ADD PUSH1 0x0 DUP5 DUP2 MSTORE PUSH1 0x20 ADD SWAP1 DUP2 MSTORE PUSH1 0x20 ADD PUSH1 0x0 KECCAK256 PUSH1 0x0 SWAP1 SSTORE DUP4 PUSH1 0x1 ADD DUP1 SLOAD DUP1 SWAP2 SWAP1 PUSH1 0x1 SWAP1 SUB PUSH3 0x1B1C SWAP2 SWAP1 PUSH3 0x1B31 JUMP JUMPDEST POP POP POP POP POP JUMP JUMPDEST PUSH2 0x31EF DUP1 PUSH3 0x1B89 DUP4 CODECOPY ADD SWAP1 JUMP JUMPDEST DUP2 SLOAD DUP2 DUP4 SSTORE DUP2 DUP2 GT ISZERO PUSH3 0x1B5B JUMPI DUP2 DUP4 PUSH1 0x0 MSTORE PUSH1 0x20 PUSH1 0x0 KECCAK256 SWAP2 DUP3 ADD SWAP2 ADD PUSH3 0x1B5A SWAP2 SWAP1 PUSH3 0x1B60 JUMP JUMPDEST JUMPDEST POP POP POP JUMP JUMPDEST PUSH3 0x1B85 SWAP2 SWAP1 JUMPDEST DUP1 DUP3 GT ISZERO PUSH3 0x1B81 JUMPI PUSH1 0x0 DUP2 PUSH1 0x0 SWAP1 SSTORE POP PUSH1 0x1 ADD PUSH3 0x1B67 JUMP JUMPDEST POP SWAP1 JUMP JUMPDEST SWAP1 JUMP INVALID PUSH1 0x80 PUSH1 0x40 MSTORE CALLVALUE DUP1 ISZERO PUSH3 0x11 JUMPI PUSH1 0x0 DUP1 REVERT JUMPDEST POP PUSH1 0x40 MLOAD PUSH3 0x31EF CODESIZE SUB DUP1 PUSH3 0x31EF DUP4 CODECOPY DUP2 DUP2 ADD PUSH1 0x40 MSTORE PUSH1 0xE0 DUP2 LT ISZERO PUSH3 0x37 JUMPI PUSH1 0x0 DUP1 REVERT JUMPDEST DUP2 ADD SWAP1 DUP1 DUP1 MLOAD SWAP1 PUSH1 0x20 ADD SWAP1 SWAP3 SWAP2 SWAP1 DUP1 MLOAD SWAP1 PUSH1 0x20 ADD SWAP1 SWAP3 SWAP2 SWAP1 DUP1 MLOAD SWAP1 PUSH1 0x20 ADD SWAP1 SWAP3 SWAP2 SWAP1 DUP1 MLOAD PUSH1 0x40 MLOAD SWAP4 SWAP3 SWAP2 SWAP1 DUP5 PUSH5 0x100000000 DUP3 GT ISZERO PUSH3 0x76 JUMPI PUSH1 0x0 DUP1 REVERT JUMPDEST DUP4 DUP3 ADD SWAP2 POP PUSH1 0x20 DUP3 ADD DUP6 DUP2 GT ISZERO PUSH3 0x8D JUMPI PUSH1 0x0 DUP1 REVERT JUMPDEST DUP3 MLOAD DUP7 PUSH1 0x1 DUP3 MUL DUP4 ADD GT PUSH5 0x100000000 DUP3 GT OR ISZERO PUSH3 0xAB JUMPI PUSH1 0x0 DUP1 REVERT JUMPDEST DUP1 DUP4 MSTORE PUSH1 0x20 DUP4 ADD SWAP3 POP POP POP SWAP1 DUP1 MLOAD SWAP1 PUSH1 0x20 ADD SWAP1 DUP1 DUP4 DUP4 PUSH1 0x0 JUMPDEST DUP4 DUP2 LT ISZERO PUSH3 0xE1 JUMPI DUP1 DUP3 ADD MLOAD DUP2 DUP5 ADD MSTORE PUSH1 0x20 DUP2 ADD SWAP1 POP PUSH3 0xC4 JUMP JUMPDEST POP POP POP POP SWAP1 POP SWAP1 DUP2 ADD SWAP1 PUSH1 0x1F AND DUP1 ISZERO PUSH3 0x10F JUMPI DUP1 DUP3 SUB DUP1 MLOAD PUSH1 0x1 DUP4 PUSH1 0x20 SUB PUSH2 0x100 EXP SUB NOT AND DUP2 MSTORE PUSH1 0x20 ADD SWAP2 POP JUMPDEST POP PUSH1 0x40 MSTORE PUSH1 0x20 ADD DUP1 MLOAD SWAP1 PUSH1 0x20 ADD SWAP1 SWAP3 SWAP2 SWAP1 DUP1 MLOAD SWAP1 PUSH1 0x20 ADD SWAP1 SWAP3 SWAP2 SWAP1 DUP1 MLOAD SWAP1 PUSH1 0x20 ADD SWAP1 SWAP3 SWAP2 SWAP1 POP POP POP DUP7 PUSH1 0x2 PUSH1 0x0 PUSH2 0x100 EXP DUP2 SLOAD DUP2 PUSH20 0xFFFFFFFFFFFFFFFFFFFFFFFFFFFFFFFFFFFFFFFF MUL NOT AND SWAP1 DUP4 PUSH20 0xFFFFFFFFFFFFFFFFFFFFFFFFFFFFFFFFFFFFFFFF AND MUL OR SWAP1 SSTORE POP DUP6 PUSH1 0x0 DUP1 PUSH2 0x100 EXP DUP2 SLOAD DUP2 PUSH20 0xFFFFFFFFFFFFFFFFFFFFFFFFFFFFFFFFFFFFFFFF MUL NOT AND SWAP1 DUP4 PUSH20 0xFFFFFFFFFFFFFFFFFFFFFFFFFFFFFFFFFFFFFFFF AND MUL OR SWAP1 SSTORE POP DUP5 PUSH1 0x1 PUSH1 0x0 PUSH2 0x100 EXP DUP2 SLOAD DUP2 PUSH20 0xFFFFFFFFFFFFFFFFFFFFFFFFFFFFFFFFFFFFFFFF MUL NOT AND SWAP1 DUP4 PUSH20 0xFFFFFFFFFFFFFFFFFFFFFFFFFFFFFFFFFFFFFFFF AND MUL OR SWAP1 SSTORE POP DUP4 PUSH1 0x3 SWAP1 DUP1 MLOAD SWAP1 PUSH1 0x20 ADD SWAP1 PUSH3 0x211 SWAP3 SWAP2 SWAP1 PUSH3 0x514 JUMP JUMPDEST POP DUP3 PUSH1 0x5 DUP2 SWAP1 SSTORE POP DUP1 PUSH1 0x4 PUSH1 0x0 PUSH2 0x100 EXP DUP2 SLOAD DUP2 PUSH20 0xFFFFFFFFFFFFFFFFFFFFFFFFFFFFFFFFFFFFFFFF MUL NOT AND SWAP1 DUP4 PUSH20 0xFFFFFFFFFFFFFFFFFFFFFFFFFFFFFFFFFFFFFFFF AND MUL OR SWAP1 SSTORE POP PUSH1 0x0 PUSH1 0x16 DUP2 SWAP1 SSTORE POP PUSH1 0x1 DUP3 MUL TIMESTAMP ADD PUSH1 0x6 DUP2 SWAP1 SSTORE POP PUSH1 0x0 PUSH1 0xE DUP2 SWAP1 SSTORE POP PUSH3 0x2A2 PUSH1 0x40 MLOAD DUP1 PUSH1 0x60 ADD PUSH1 0x40 MSTORE DUP1 PUSH1 0x3E DUP2 MSTORE PUSH1 0x20 ADD PUSH3 0x31B1 PUSH1 0x3E SWAP2 CODECOPY PUSH1 0x0 PUSH3 0x2AF PUSH1 0x20 SHL PUSH1 0x20 SHR JUMP JUMPDEST POP POP POP POP POP POP POP PUSH3 0x68A JUMP JUMPDEST PUSH1 0x6 SLOAD TIMESTAMP LT PUSH3 0x30B JUMPI PUSH1 0x40 MLOAD PUSH32 0x8C379A000000000000000000000000000000000000000000000000000000000 DUP2 MSTORE PUSH1 0x4 ADD DUP1 DUP1 PUSH1 0x20 ADD DUP3 DUP2 SUB DUP3 MSTORE PUSH1 0x2B DUP2 MSTORE PUSH1 0x20 ADD DUP1 PUSH3 0x3186 PUSH1 0x2B SWAP2 CODECOPY PUSH1 0x40 ADD SWAP2 POP POP PUSH1 0x40 MLOAD DUP1 SWAP2 SUB SWAP1 REVERT JUMPDEST PUSH1 0x0 PUSH1 0x13 PUSH1 0x0 CALLER PUSH20 0xFFFFFFFFFFFFFFFFFFFFFFFFFFFFFFFFFFFFFFFF AND PUSH20 0xFFFFFFFFFFFFFFFFFFFFFFFFFFFFFFFFFFFFFFFF AND DUP2 MSTORE PUSH1 0x20 ADD SWAP1 DUP2 MSTORE PUSH1 0x20 ADD PUSH1 0x0 KECCAK256 SLOAD EQ PUSH3 0x3A5 JUMPI PUSH1 0x40 MLOAD PUSH32 0x8C379A000000000000000000000000000000000000000000000000000000000 DUP2 MSTORE PUSH1 0x4 ADD DUP1 DUP1 PUSH1 0x20 ADD DUP3 DUP2 SUB DUP3 MSTORE PUSH1 0x25 DUP2 MSTORE PUSH1 0x20 ADD DUP1 PUSH3 0x3161 PUSH1 0x25 SWAP2 CODECOPY PUSH1 0x40 ADD SWAP2 POP POP PUSH1 0x40 MLOAD DUP1 SWAP2 SUB SWAP1 REVERT JUMPDEST PUSH3 0x3AF PUSH3 0x59B JUMP JUMPDEST PUSH1 0x40 MLOAD DUP1 PUSH1 0x80 ADD PUSH1 0x40 MSTORE DUP1 DUP5 DUP2 MSTORE PUSH1 0x20 ADD DUP4 ISZERO ISZERO DUP2 MSTORE PUSH1 0x20 ADD CALLER PUSH20 0xFFFFFFFFFFFFFFFFFFFFFFFFFFFFFFFFFFFFFFFF AND DUP2 MSTORE PUSH1 0x20 ADD PUSH1 0x0 DUP2 MSTORE POP SWAP1 POP PUSH1 0x7 DUP2 SWAP1 DUP1 PUSH1 0x1 DUP2 SLOAD ADD DUP1 DUP3 SSTORE DUP1 SWAP2 POP POP SWAP1 PUSH1 0x1 DUP3 SUB SWAP1 PUSH1 0x0 MSTORE PUSH1 0x20 PUSH1 0x0 KECCAK256 SWAP1 PUSH1 0x3 MUL ADD PUSH1 0x0 SWAP1 SWAP2 SWAP3 SWAP1 SWAP2 SWAP1 SWAP2 POP PUSH1 0x0 DUP3 ADD MLOAD DUP2 PUSH1 0x0 ADD SWAP1 DUP1 MLOAD SWAP1 PUSH1 0x20 ADD SWAP1 PUSH3 0x437 SWAP3 SWAP2 SWAP1 PUSH3 0x5DB JUMP JUMPDEST POP PUSH1 0x20 DUP3 ADD MLOAD DUP2 PUSH1 0x1 ADD PUSH1 0x0 PUSH2 0x100 EXP DUP2 SLOAD DUP2 PUSH1 0xFF MUL NOT AND SWAP1 DUP4 ISZERO ISZERO MUL OR SWAP1 SSTORE POP PUSH1 0x40 DUP3 ADD MLOAD DUP2 PUSH1 0x1 ADD PUSH1 0x1 PUSH2 0x100 EXP DUP2 SLOAD DUP2 PUSH20 0xFFFFFFFFFFFFFFFFFFFFFFFFFFFFFFFFFFFFFFFF MUL NOT AND SWAP1 DUP4 PUSH20 0xFFFFFFFFFFFFFFFFFFFFFFFFFFFFFFFFFFFFFFFF AND MUL OR SWAP1 SSTORE POP PUSH1 0x60 DUP3 ADD MLOAD DUP2 PUSH1 0x2 ADD SSTORE POP POP POP PUSH1 0x1 PUSH3 0x4BE PUSH3 0x507 PUSH1 0x20 SHL PUSH1 0x20 SHR JUMP JUMPDEST SUB PUSH1 0x13 PUSH1 0x0 CALLER PUSH20 0xFFFFFFFFFFFFFFFFFFFFFFFFFFFFFFFFFFFFFFFF AND PUSH20 0xFFFFFFFFFFFFFFFFFFFFFFFFFFFFFFFFFFFFFFFF AND DUP2 MSTORE PUSH1 0x20 ADD SWAP1 DUP2 MSTORE PUSH1 0x20 ADD PUSH1 0x0 KECCAK256 DUP2 SWAP1 SSTORE POP POP POP POP JUMP JUMPDEST PUSH1 0x0 PUSH1 0x7 DUP1 SLOAD SWAP1 POP SWAP1 POP SWAP1 JUMP JUMPDEST DUP3 DUP1 SLOAD PUSH1 0x1 DUP2 PUSH1 0x1 AND ISZERO PUSH2 0x100 MUL SUB AND PUSH1 0x2 SWAP1 DIV SWAP1 PUSH1 0x0 MSTORE PUSH1 0x20 PUSH1 0x0 KECCAK256 SWAP1 PUSH1 0x1F ADD PUSH1 0x20 SWAP1 DIV DUP2 ADD SWAP3 DUP3 PUSH1 0x1F LT PUSH3 0x557 JUMPI DUP1 MLOAD PUSH1 0xFF NOT AND DUP4 DUP1 ADD OR DUP6 SSTORE PUSH3 0x588 JUMP JUMPDEST DUP3 DUP1 ADD PUSH1 0x1 ADD DUP6 SSTORE DUP3 ISZERO PUSH3 0x588 JUMPI SWAP2 DUP3 ADD JUMPDEST DUP3 DUP2 GT ISZERO PUSH3 0x587 JUMPI DUP3 MLOAD DUP3 SSTORE SWAP2 PUSH1 0x20 ADD SWAP2 SWAP1 PUSH1 0x1 ADD SWAP1 PUSH3 0x56A JUMP JUMPDEST JUMPDEST POP SWAP1 POP PUSH3 0x597 SWAP2 SWAP1 PUSH3 0x662 JUMP JUMPDEST POP SWAP1 JUMP JUMPDEST PUSH1 0x40 MLOAD DUP1 PUSH1 0x80 ADD PUSH1 0x40 MSTORE DUP1 PUSH1 0x60 DUP2 MSTORE PUSH1 0x20 ADD PUSH1 0x0 ISZERO ISZERO DUP2 MSTORE PUSH1 0x20 ADD PUSH1 0x0 PUSH20 0xFFFFFFFFFFFFFFFFFFFFFFFFFFFFFFFFFFFFFFFF AND DUP2 MSTORE PUSH1 0x20 ADD PUSH1 0x0 DUP2 MSTORE POP SWAP1 JUMP JUMPDEST DUP3 DUP1 SLOAD PUSH1 0x1 DUP2 PUSH1 0x1 AND ISZERO PUSH2 0x100 MUL SUB AND PUSH1 0x2 SWAP1 DIV SWAP1 PUSH1 0x0 MSTORE PUSH1 0x20 PUSH1 0x0 KECCAK256 SWAP1 PUSH1 0x1F ADD PUSH1 0x20 SWAP1 DIV DUP2 ADD SWAP3 DUP3 PUSH1 0x1F LT PUSH3 0x61E JUMPI DUP1 MLOAD PUSH1 0xFF NOT AND DUP4 DUP1 ADD OR DUP6 SSTORE PUSH3 0x64F JUMP JUMPDEST DUP3 DUP1 ADD PUSH1 0x1 ADD DUP6 SSTORE DUP3 ISZERO PUSH3 0x64F JUMPI SWAP2 DUP3 ADD JUMPDEST DUP3 DUP2 GT ISZERO PUSH3 0x64E JUMPI DUP3 MLOAD DUP3 SSTORE SWAP2 PUSH1 0x20 ADD SWAP2 SWAP1 PUSH1 0x1 ADD SWAP1 PUSH3 0x631 JUMP JUMPDEST JUMPDEST POP SWAP1 POP PUSH3 0x65E SWAP2 SWAP1 PUSH3 0x662 JUMP JUMPDEST POP SWAP1 JUMP JUMPDEST PUSH3 0x687 SWAP2 SWAP1 JUMPDEST DUP1 DUP3 GT ISZERO PUSH3 0x683 JUMPI PUSH1 0x0 DUP2 PUSH1 0x0 SWAP1 SSTORE POP PUSH1 0x1 ADD PUSH3 0x669 JUMP JUMPDEST POP SWAP1 JUMP JUMPDEST SWAP1 JUMP JUMPDEST PUSH2 0x2AC7 DUP1 PUSH3 0x69A PUSH1 0x0 CODECOPY PUSH1 0x0 RETURN INVALID PUSH1 0x80 PUSH1 0x40 MSTORE PUSH1 0x4 CALLDATASIZE LT PUSH2 0x20F JUMPI PUSH1 0x0 CALLDATALOAD PUSH1 0xE0 SHR DUP1 PUSH4 0x9380B1CF GT PUSH2 0x118 JUMPI DUP1 PUSH4 0xE478ABAB GT PUSH2 0xA0 JUMPI DUP1 PUSH4 0xF9588ED9 GT PUSH2 0x6F JUMPI DUP1 PUSH4 0xF9588ED9 EQ PUSH2 0xBE0 JUMPI DUP1 PUSH4 0xFA391C64 EQ PUSH2 0xC0B JUMPI DUP1 PUSH4 0xFBBA5CB9 EQ PUSH2 0xC3A JUMPI DUP1 PUSH4 0xFBBF93A0 EQ PUSH2 0xC65 JUMPI DUP1 PUSH4 0xFDA9198B EQ PUSH2 0xD0E JUMPI PUSH2 0x20F JUMP JUMPDEST DUP1 PUSH4 0xE478ABAB EQ PUSH2 0xA2D JUMPI DUP1 PUSH4 0xE5D00035 EQ PUSH2 0xA5C JUMPI DUP1 PUSH4 0xE72B0148 EQ PUSH2 0xAD7 JUMPI DUP1 PUSH4 0xF7CA7C72 EQ PUSH2 0xB02 JUMPI PUSH2 0x20F JUMP JUMPDEST DUP1 PUSH4 0xB6E54BDF GT PUSH2 0xE7 JUMPI DUP1 PUSH4 0xB6E54BDF EQ PUSH2 0x8DE JUMPI DUP1 PUSH4 0xC234D789 EQ PUSH2 0x909 JUMPI DUP1 PUSH4 0xC884EF83 EQ PUSH2 0x934 JUMPI DUP1 PUSH4 0xCA94FB2B EQ PUSH2 0x99D JUMPI DUP1 PUSH4 0xD04AE69D EQ PUSH2 0xA02 JUMPI PUSH2 0x20F JUMP JUMPDEST DUP1 PUSH4 0x9380B1CF EQ PUSH2 0x7DB JUMPI DUP1 PUSH4 0xAEC2CCAE EQ PUSH2 0x7F2 JUMPI DUP1 PUSH4 0xB384ABEF EQ PUSH2 0x857 JUMPI DUP1 PUSH4 0xB3B9AC1D EQ PUSH2 0x88F JUMPI PUSH2 0x20F JUMP JUMPDEST DUP1 PUSH4 0x3197CBB6 GT PUSH2 0x19B JUMPI DUP1 PUSH4 0x6DC7A627 GT PUSH2 0x16A JUMPI DUP1 PUSH4 0x6DC7A627 EQ PUSH2 0x697 JUMPI DUP1 PUSH4 0x6E3EBC2E EQ PUSH2 0x6C6 JUMPI DUP1 PUSH4 0x74986BFC EQ PUSH2 0x6F1 JUMPI DUP1 PUSH4 0x85730FA1 EQ PUSH2 0x720 JUMPI DUP1 PUSH4 0x8A4D5A67 EQ PUSH2 0x74B JUMPI PUSH2 0x20F JUMP JUMPDEST DUP1 PUSH4 0x3197CBB6 EQ PUSH2 0x5C5 JUMPI DUP1 PUSH4 0x3FF894AD EQ PUSH2 0x5F0 JUMPI DUP1 PUSH4 0x44FE9432 EQ PUSH2 0x61B JUMPI DUP1 PUSH4 0x4E71D92D EQ PUSH2 0x680 JUMPI PUSH2 0x20F JUMP JUMPDEST DUP1 PUSH4 0xA68F631 GT PUSH2 0x1E2 JUMPI DUP1 PUSH4 0xA68F631 EQ PUSH2 0x41C JUMPI DUP1 PUSH4 0x159E7064 EQ PUSH2 0x515 JUMPI DUP1 PUSH4 0x1C7CD6AC EQ PUSH2 0x544 JUMPI DUP1 PUSH4 0x2B925B25 EQ PUSH2 0x56F JUMPI DUP1 PUSH4 0x2EC32E6D EQ PUSH2 0x59A JUMPI PUSH2 0x20F JUMP JUMPDEST DUP1 PUSH4 0x2D05D3F EQ PUSH2 0x211 JUMPI DUP1 PUSH4 0x715EF00 EQ PUSH2 0x268 JUMPI DUP1 PUSH4 0x9C7CAF1 EQ PUSH2 0x33C JUMPI DUP1 PUSH4 0x9F74DB7 EQ PUSH2 0x3A1 JUMPI JUMPDEST STOP JUMPDEST CALLVALUE DUP1 ISZERO PUSH2 0x21D JUMPI PUSH1 0x0 DUP1 REVERT JUMPDEST POP PUSH2 0x226 PUSH2 0xD69 JUMP JUMPDEST PUSH1 0x40 MLOAD DUP1 DUP3 PUSH20 0xFFFFFFFFFFFFFFFFFFFFFFFFFFFFFFFFFFFFFFFF AND PUSH20 0xFFFFFFFFFFFFFFFFFFFFFFFFFFFFFFFFFFFFFFFF AND DUP2 MSTORE PUSH1 0x20 ADD SWAP2 POP POP PUSH1 0x40 MLOAD DUP1 SWAP2 SUB SWAP1 RETURN JUMPDEST CALLVALUE DUP1 ISZERO PUSH2 0x274 JUMPI PUSH1 0x0 DUP1 REVERT JUMPDEST POP PUSH2 0x33A PUSH1 0x4 DUP1 CALLDATASIZE SUB PUSH1 0x40 DUP2 LT ISZERO PUSH2 0x28B JUMPI PUSH1 0x0 DUP1 REVERT JUMPDEST DUP2 ADD SWAP1 DUP1 DUP1 CALLDATALOAD SWAP1 PUSH1 0x20 ADD SWAP1 PUSH5 0x100000000 DUP2 GT ISZERO PUSH2 0x2A8 JUMPI PUSH1 0x0 DUP1 REVERT JUMPDEST DUP3 ADD DUP4 PUSH1 0x20 DUP3 ADD GT ISZERO PUSH2 0x2BA JUMPI PUSH1 0x0 DUP1 REVERT JUMPDEST DUP1 CALLDATALOAD SWAP1 PUSH1 0x20 ADD SWAP2 DUP5 PUSH1 0x1 DUP4 MUL DUP5 ADD GT PUSH5 0x100000000 DUP4 GT OR ISZERO PUSH2 0x2DC JUMPI PUSH1 0x0 DUP1 REVERT JUMPDEST SWAP2 SWAP1 DUP1 DUP1 PUSH1 0x1F ADD PUSH1 0x20 DUP1 SWAP2 DIV MUL PUSH1 0x20 ADD PUSH1 0x40 MLOAD SWAP1 DUP2 ADD PUSH1 0x40 MSTORE DUP1 SWAP4 SWAP3 SWAP2 SWAP1 DUP2 DUP2 MSTORE PUSH1 0x20 ADD DUP4 DUP4 DUP1 DUP3 DUP5 CALLDATACOPY PUSH1 0x0 DUP2 DUP5 ADD MSTORE PUSH1 0x1F NOT PUSH1 0x1F DUP3 ADD AND SWAP1 POP DUP1 DUP4 ADD SWAP3 POP POP POP POP POP POP POP SWAP2 SWAP3 SWAP2 SWAP3 SWAP1 DUP1 CALLDATALOAD ISZERO ISZERO SWAP1 PUSH1 0x20 ADD SWAP1 SWAP3 SWAP2 SWAP1 POP POP POP PUSH2 0xD8F JUMP JUMPDEST STOP JUMPDEST CALLVALUE DUP1 ISZERO PUSH2 0x348 JUMPI PUSH1 0x0 DUP1 REVERT JUMPDEST POP PUSH2 0x38B PUSH1 0x4 DUP1 CALLDATASIZE SUB PUSH1 0x20 DUP2 LT ISZERO PUSH2 0x35F JUMPI PUSH1 0x0 DUP1 REVERT JUMPDEST DUP2 ADD SWAP1 DUP1 DUP1 CALLDATALOAD PUSH20 0xFFFFFFFFFFFFFFFFFFFFFFFFFFFFFFFFFFFFFFFF AND SWAP1 PUSH1 0x20 ADD SWAP1 SWAP3 SWAP2 SWAP1 POP POP POP PUSH2 0xFD7 JUMP JUMPDEST PUSH1 0x40 MLOAD DUP1 DUP3 DUP2 MSTORE PUSH1 0x20 ADD SWAP2 POP POP PUSH1 0x40 MLOAD DUP1 SWAP2 SUB SWAP1 RETURN JUMPDEST CALLVALUE DUP1 ISZERO PUSH2 0x3AD JUMPI PUSH1 0x0 DUP1 REVERT JUMPDEST POP PUSH2 0x3DA PUSH1 0x4 DUP1 CALLDATASIZE SUB PUSH1 0x20 DUP2 LT ISZERO PUSH2 0x3C4 JUMPI PUSH1 0x0 DUP1 REVERT JUMPDEST DUP2 ADD SWAP1 DUP1 DUP1 CALLDATALOAD SWAP1 PUSH1 0x20 ADD SWAP1 SWAP3 SWAP2 SWAP1 POP POP POP PUSH2 0xFEF JUMP JUMPDEST PUSH1 0x40 MLOAD DUP1 DUP3 PUSH20 0xFFFFFFFFFFFFFFFFFFFFFFFFFFFFFFFFFFFFFFFF AND PUSH20 0xFFFFFFFFFFFFFFFFFFFFFFFFFFFFFFFFFFFFFFFF AND DUP2 MSTORE PUSH1 0x20 ADD SWAP2 POP POP PUSH1 0x40 MLOAD DUP1 SWAP2 SUB SWAP1 RETURN JUMPDEST CALLVALUE DUP1 ISZERO PUSH2 0x428 JUMPI PUSH1 0x0 DUP1 REVERT JUMPDEST POP PUSH2 0x455 PUSH1 0x4 DUP1 CALLDATASIZE SUB PUSH1 0x20 DUP2 LT ISZERO PUSH2 0x43F JUMPI PUSH1 0x0 DUP1 REVERT JUMPDEST DUP2 ADD SWAP1 DUP1 DUP1 CALLDATALOAD SWAP1 PUSH1 0x20 ADD SWAP1 SWAP3 SWAP2 SWAP1 POP POP POP PUSH2 0x102B JUMP JUMPDEST PUSH1 0x40 MLOAD DUP1 DUP1 PUSH1 0x20 ADD DUP6 ISZERO ISZERO ISZERO ISZERO DUP2 MSTORE PUSH1 0x20 ADD DUP5 PUSH20 0xFFFFFFFFFFFFFFFFFFFFFFFFFFFFFFFFFFFFFFFF AND PUSH20 0xFFFFFFFFFFFFFFFFFFFFFFFFFFFFFFFFFFFFFFFF AND DUP2 MSTORE PUSH1 0x20 ADD DUP4 DUP2 MSTORE PUSH1 0x20 ADD DUP3 DUP2 SUB DUP3 MSTORE DUP7 DUP2 DUP2 MLOAD DUP2 MSTORE PUSH1 0x20 ADD SWAP2 POP DUP1 MLOAD SWAP1 PUSH1 0x20 ADD SWAP1 DUP1 DUP4 DUP4 PUSH1 0x0 JUMPDEST DUP4 DUP2 LT ISZERO PUSH2 0x4D7 JUMPI DUP1 DUP3 ADD MLOAD DUP2 DUP5 ADD MSTORE PUSH1 0x20 DUP2 ADD SWAP1 POP PUSH2 0x4BC JUMP JUMPDEST POP POP POP POP SWAP1 POP SWAP1 DUP2 ADD SWAP1 PUSH1 0x1F AND DUP1 ISZERO PUSH2 0x504 JUMPI DUP1 DUP3 SUB DUP1 MLOAD PUSH1 0x1 DUP4 PUSH1 0x20 SUB PUSH2 0x100 EXP SUB NOT AND DUP2 MSTORE PUSH1 0x20 ADD SWAP2 POP JUMPDEST POP SWAP6 POP POP POP POP POP POP PUSH1 0x40 MLOAD DUP1 SWAP2 SUB SWAP1 RETURN JUMPDEST CALLVALUE DUP1 ISZERO PUSH2 0x521 JUMPI PUSH1 0x0 DUP1 REVERT JUMPDEST POP PUSH2 0x52A PUSH2 0x112D JUMP JUMPDEST PUSH1 0x40 MLOAD DUP1 DUP3 ISZERO ISZERO ISZERO ISZERO DUP2 MSTORE PUSH1 0x20 ADD SWAP2 POP POP PUSH1 0x40 MLOAD DUP1 SWAP2 SUB SWAP1 RETURN JUMPDEST CALLVALUE DUP1 ISZERO PUSH2 0x550 JUMPI PUSH1 0x0 DUP1 REVERT JUMPDEST POP PUSH2 0x559 PUSH2 0x1292 JUMP JUMPDEST PUSH1 0x40 MLOAD DUP1 DUP3 DUP2 MSTORE PUSH1 0x20 ADD SWAP2 POP POP PUSH1 0x40 MLOAD DUP1 SWAP2 SUB SWAP1 RETURN JUMPDEST CALLVALUE DUP1 ISZERO PUSH2 0x57B JUMPI PUSH1 0x0 DUP1 REVERT JUMPDEST POP PUSH2 0x584 PUSH2 0x1298 JUMP JUMPDEST PUSH1 0x40 MLOAD DUP1 DUP3 DUP2 MSTORE PUSH1 0x20 ADD SWAP2 POP POP PUSH1 0x40 MLOAD DUP1 SWAP2 SUB SWAP1 RETURN JUMPDEST CALLVALUE DUP1 ISZERO PUSH2 0x5A6 JUMPI PUSH1 0x0 DUP1 REVERT JUMPDEST POP PUSH2 0x5AF PUSH2 0x129E JUMP JUMPDEST PUSH1 0x40 MLOAD DUP1 DUP3 DUP2 MSTORE PUSH1 0x20 ADD SWAP2 POP POP PUSH1 0x40 MLOAD DUP1 SWAP2 SUB SWAP1 RETURN JUMPDEST CALLVALUE DUP1 ISZERO PUSH2 0x5D1 JUMPI PUSH1 0x0 DUP1 REVERT JUMPDEST POP PUSH2 0x5DA PUSH2 0x12AB JUMP JUMPDEST PUSH1 0x40 MLOAD DUP1 DUP3 DUP2 MSTORE PUSH1 0x20 ADD SWAP2 POP POP PUSH1 0x40 MLOAD DUP1 SWAP2 SUB SWAP1 RETURN JUMPDEST CALLVALUE DUP1 ISZERO PUSH2 0x5FC JUMPI PUSH1 0x0 DUP1 REVERT JUMPDEST POP PUSH2 0x605 PUSH2 0x12B1 JUMP JUMPDEST PUSH1 0x40 MLOAD DUP1 DUP3 DUP2 MSTORE PUSH1 0x20 ADD SWAP2 POP POP PUSH1 0x40 MLOAD DUP1 SWAP2 SUB SWAP1 RETURN JUMPDEST CALLVALUE DUP1 ISZERO PUSH2 0x627 JUMPI PUSH1 0x0 DUP1 REVERT JUMPDEST POP PUSH2 0x66A PUSH1 0x4 DUP1 CALLDATASIZE SUB PUSH1 0x20 DUP2 LT ISZERO PUSH2 0x63E JUMPI PUSH1 0x0 DUP1 REVERT JUMPDEST DUP2 ADD SWAP1 DUP1 DUP1 CALLDATALOAD PUSH20 0xFFFFFFFFFFFFFFFFFFFFFFFFFFFFFFFFFFFFFFFF AND SWAP1 PUSH1 0x20 ADD SWAP1 SWAP3 SWAP2 SWAP1 POP POP POP PUSH2 0x12B7 JUMP JUMPDEST PUSH1 0x40 MLOAD DUP1 DUP3 DUP2 MSTORE PUSH1 0x20 ADD SWAP2 POP POP PUSH1 0x40 MLOAD DUP1 SWAP2 SUB SWAP1 RETURN JUMPDEST CALLVALUE DUP1 ISZERO PUSH2 0x68C JUMPI PUSH1 0x0 DUP1 REVERT JUMPDEST POP PUSH2 0x695 PUSH2 0x12CF JUMP JUMPDEST STOP JUMPDEST CALLVALUE DUP1 ISZERO PUSH2 0x6A3 JUMPI PUSH1 0x0 DUP1 REVERT JUMPDEST POP PUSH2 0x6AC PUSH2 0x16CB JUMP JUMPDEST PUSH1 0x40 MLOAD DUP1 DUP3 ISZERO ISZERO ISZERO ISZERO DUP2 MSTORE PUSH1 0x20 ADD SWAP2 POP POP PUSH1 0x40 MLOAD DUP1 SWAP2 SUB SWAP1 RETURN JUMPDEST CALLVALUE DUP1 ISZERO PUSH2 0x6D2 JUMPI PUSH1 0x0 DUP1 REVERT JUMPDEST POP PUSH2 0x6DB PUSH2 0x177E JUMP JUMPDEST PUSH1 0x40 MLOAD DUP1 DUP3 DUP2 MSTORE PUSH1 0x20 ADD SWAP2 POP POP PUSH1 0x40 MLOAD DUP1 SWAP2 SUB SWAP1 RETURN JUMPDEST CALLVALUE DUP1 ISZERO PUSH2 0x6FD JUMPI PUSH1 0x0 DUP1 REVERT JUMPDEST POP PUSH2 0x706 PUSH2 0x178B JUMP JUMPDEST PUSH1 0x40 MLOAD DUP1 DUP3 ISZERO ISZERO ISZERO ISZERO DUP2 MSTORE PUSH1 0x20 ADD SWAP2 POP POP PUSH1 0x40 MLOAD DUP1 SWAP2 SUB SWAP1 RETURN JUMPDEST CALLVALUE DUP1 ISZERO PUSH2 0x72C JUMPI PUSH1 0x0 DUP1 REVERT JUMPDEST POP PUSH2 0x735 PUSH2 0x1794 JUMP JUMPDEST PUSH1 0x40 MLOAD DUP1 DUP3 DUP2 MSTORE PUSH1 0x20 ADD SWAP2 POP POP PUSH1 0x40 MLOAD DUP1 SWAP2 SUB SWAP1 RETURN JUMPDEST CALLVALUE DUP1 ISZERO PUSH2 0x757 JUMPI PUSH1 0x0 DUP1 REVERT JUMPDEST POP PUSH2 0x760 PUSH2 0x179A JUMP JUMPDEST PUSH1 0x40 MLOAD DUP1 DUP1 PUSH1 0x20 ADD DUP3 DUP2 SUB DUP3 MSTORE DUP4 DUP2 DUP2 MLOAD DUP2 MSTORE PUSH1 0x20 ADD SWAP2 POP DUP1 MLOAD SWAP1 PUSH1 0x20 ADD SWAP1 DUP1 DUP4 DUP4 PUSH1 0x0 JUMPDEST DUP4 DUP2 LT ISZERO PUSH2 0x7A0 JUMPI DUP1 DUP3 ADD MLOAD DUP2 DUP5 ADD MSTORE PUSH1 0x20 DUP2 ADD SWAP1 POP PUSH2 0x785 JUMP JUMPDEST POP POP POP POP SWAP1 POP SWAP1 DUP2 ADD SWAP1 PUSH1 0x1F AND DUP1 ISZERO PUSH2 0x7CD JUMPI DUP1 DUP3 SUB DUP1 MLOAD PUSH1 0x1 DUP4 PUSH1 0x20 SUB PUSH2 0x100 EXP SUB NOT AND DUP2 MSTORE PUSH1 0x20 ADD SWAP2 POP JUMPDEST POP SWAP3 POP POP POP PUSH1 0x40 MLOAD DUP1 SWAP2 SUB SWAP1 RETURN JUMPDEST CALLVALUE DUP1 ISZERO PUSH2 0x7E7 JUMPI PUSH1 0x0 DUP1 REVERT JUMPDEST POP PUSH2 0x7F0 PUSH2 0x1838 JUMP JUMPDEST STOP JUMPDEST CALLVALUE DUP1 ISZERO PUSH2 0x7FE JUMPI PUSH1 0x0 DUP1 REVERT JUMPDEST POP PUSH2 0x841 PUSH1 0x4 DUP1 CALLDATASIZE SUB PUSH1 0x20 DUP2 LT ISZERO PUSH2 0x815 JUMPI PUSH1 0x0 DUP1 REVERT JUMPDEST DUP2 ADD SWAP1 DUP1 DUP1 CALLDATALOAD PUSH20 0xFFFFFFFFFFFFFFFFFFFFFFFFFFFFFFFFFFFFFFFF AND SWAP1 PUSH1 0x20 ADD SWAP1 SWAP3 SWAP2 SWAP1 POP POP POP PUSH2 0x1A4A JUMP JUMPDEST PUSH1 0x40 MLOAD DUP1 DUP3 DUP2 MSTORE PUSH1 0x20 ADD SWAP2 POP POP PUSH1 0x40 MLOAD DUP1 SWAP2 SUB SWAP1 RETURN JUMPDEST PUSH2 0x88D PUSH1 0x4 DUP1 CALLDATASIZE SUB PUSH1 0x40 DUP2 LT ISZERO PUSH2 0x86D JUMPI PUSH1 0x0 DUP1 REVERT JUMPDEST DUP2 ADD SWAP1 DUP1 DUP1 CALLDATALOAD SWAP1 PUSH1 0x20 ADD SWAP1 SWAP3 SWAP2 SWAP1 DUP1 CALLDATALOAD SWAP1 PUSH1 0x20 ADD SWAP1 SWAP3 SWAP2 SWAP1 POP POP POP PUSH2 0x1A62 JUMP JUMPDEST STOP JUMPDEST CALLVALUE DUP1 ISZERO PUSH2 0x89B JUMPI PUSH1 0x0 DUP1 REVERT JUMPDEST POP PUSH2 0x8C8 PUSH1 0x4 DUP1 CALLDATASIZE SUB PUSH1 0x20 DUP2 LT ISZERO PUSH2 0x8B2 JUMPI PUSH1 0x0 DUP1 REVERT JUMPDEST DUP2 ADD SWAP1 DUP1 DUP1 CALLDATALOAD SWAP1 PUSH1 0x20 ADD SWAP1 SWAP3 SWAP2 SWAP1 POP POP POP PUSH2 0x1F13 JUMP JUMPDEST PUSH1 0x40 MLOAD DUP1 DUP3 DUP2 MSTORE PUSH1 0x20 ADD SWAP2 POP POP PUSH1 0x40 MLOAD DUP1 SWAP2 SUB SWAP1 RETURN JUMPDEST CALLVALUE DUP1 ISZERO PUSH2 0x8EA JUMPI PUSH1 0x0 DUP1 REVERT JUMPDEST POP PUSH2 0x8F3 PUSH2 0x1F4D JUMP JUMPDEST PUSH1 0x40 MLOAD DUP1 DUP3 DUP2 MSTORE PUSH1 0x20 ADD SWAP2 POP POP PUSH1 0x40 MLOAD DUP1 SWAP2 SUB SWAP1 RETURN JUMPDEST CALLVALUE DUP1 ISZERO PUSH2 0x915 JUMPI PUSH1 0x0 DUP1 REVERT JUMPDEST POP PUSH2 0x91E PUSH2 0x1F53 JUMP JUMPDEST PUSH1 0x40 MLOAD DUP1 DUP3 DUP2 MSTORE PUSH1 0x20 ADD SWAP2 POP POP PUSH1 0x40 MLOAD DUP1 SWAP2 SUB SWAP1 RETURN JUMPDEST CALLVALUE DUP1 ISZERO PUSH2 0x940 JUMPI PUSH1 0x0 DUP1 REVERT JUMPDEST POP PUSH2 0x983 PUSH1 0x4 DUP1 CALLDATASIZE SUB PUSH1 0x20 DUP2 LT ISZERO PUSH2 0x957 JUMPI PUSH1 0x0 DUP1 REVERT JUMPDEST DUP2 ADD SWAP1 DUP1 DUP1 CALLDATALOAD PUSH20 0xFFFFFFFFFFFFFFFFFFFFFFFFFFFFFFFFFFFFFFFF AND SWAP1 PUSH1 0x20 ADD SWAP1 SWAP3 SWAP2 SWAP1 POP POP POP PUSH2 0x1F60 JUMP JUMPDEST PUSH1 0x40 MLOAD DUP1 DUP3 ISZERO ISZERO ISZERO ISZERO DUP2 MSTORE PUSH1 0x20 ADD SWAP2 POP POP PUSH1 0x40 MLOAD DUP1 SWAP2 SUB SWAP1 RETURN JUMPDEST CALLVALUE DUP1 ISZERO PUSH2 0x9A9 JUMPI PUSH1 0x0 DUP1 REVERT JUMPDEST POP PUSH2 0x9EC PUSH1 0x4 DUP1 CALLDATASIZE SUB PUSH1 0x20 DUP2 LT ISZERO PUSH2 0x9C0 JUMPI PUSH1 0x0 DUP1 REVERT JUMPDEST DUP2 ADD SWAP1 DUP1 DUP1 CALLDATALOAD PUSH20 0xFFFFFFFFFFFFFFFFFFFFFFFFFFFFFFFFFFFFFFFF AND SWAP1 PUSH1 0x20 ADD SWAP1 SWAP3 SWAP2 SWAP1 POP POP POP PUSH2 0x1F80 JUMP JUMPDEST PUSH1 0x40 MLOAD DUP1 DUP3 DUP2 MSTORE PUSH1 0x20 ADD SWAP2 POP POP PUSH1 0x40 MLOAD DUP1 SWAP2 SUB SWAP1 RETURN JUMPDEST CALLVALUE DUP1 ISZERO PUSH2 0xA0E JUMPI PUSH1 0x0 DUP1 REVERT JUMPDEST POP PUSH2 0xA17 PUSH2 0x1F98 JUMP JUMPDEST PUSH1 0x40 MLOAD DUP1 DUP3 DUP2 MSTORE PUSH1 0x20 ADD SWAP2 POP POP PUSH1 0x40 MLOAD DUP1 SWAP2 SUB SWAP1 RETURN JUMPDEST CALLVALUE DUP1 ISZERO PUSH2 0xA39 JUMPI PUSH1 0x0 DUP1 REVERT JUMPDEST POP PUSH2 0xA42 PUSH2 0x1F9E JUMP JUMPDEST PUSH1 0x40 MLOAD DUP1 DUP3 ISZERO ISZERO ISZERO ISZERO DUP2 MSTORE PUSH1 0x20 ADD SWAP2 POP POP PUSH1 0x40 MLOAD DUP1 SWAP2 SUB SWAP1 RETURN JUMPDEST CALLVALUE DUP1 ISZERO PUSH2 0xA68 JUMPI PUSH1 0x0 DUP1 REVERT JUMPDEST POP PUSH2 0xA95 PUSH1 0x4 DUP1 CALLDATASIZE SUB PUSH1 0x20 DUP2 LT ISZERO PUSH2 0xA7F JUMPI PUSH1 0x0 DUP1 REVERT JUMPDEST DUP2 ADD SWAP1 DUP1 DUP1 CALLDATALOAD SWAP1 PUSH1 0x20 ADD SWAP1 SWAP3 SWAP2 SWAP1 POP POP POP PUSH2 0x2058 JUMP JUMPDEST PUSH1 0x40 MLOAD DUP1 DUP3 PUSH20 0xFFFFFFFFFFFFFFFFFFFFFFFFFFFFFFFFFFFFFFFF AND PUSH20 0xFFFFFFFFFFFFFFFFFFFFFFFFFFFFFFFFFFFFFFFF AND DUP2 MSTORE PUSH1 0x20 ADD SWAP2 POP POP PUSH1 0x40 MLOAD DUP1 SWAP2 SUB SWAP1 RETURN JUMPDEST CALLVALUE DUP1 ISZERO PUSH2 0xAE3 JUMPI PUSH1 0x0 DUP1 REVERT JUMPDEST POP PUSH2 0xAEC PUSH2 0x2094 JUMP JUMPDEST PUSH1 0x40 MLOAD DUP1 DUP3 DUP2 MSTORE PUSH1 0x20 ADD SWAP2 POP POP PUSH1 0x40 MLOAD DUP1 SWAP2 SUB SWAP1 RETURN JUMPDEST CALLVALUE DUP1 ISZERO PUSH2 0xB0E JUMPI PUSH1 0x0 DUP1 REVERT JUMPDEST POP PUSH2 0xBDE PUSH1 0x4 DUP1 CALLDATASIZE SUB PUSH1 0x60 DUP2 LT ISZERO PUSH2 0xB25 JUMPI PUSH1 0x0 DUP1 REVERT JUMPDEST DUP2 ADD SWAP1 DUP1 DUP1 CALLDATALOAD SWAP1 PUSH1 0x20 ADD SWAP1 SWAP3 SWAP2 SWAP1 DUP1 CALLDATALOAD SWAP1 PUSH1 0x20 ADD SWAP1 PUSH5 0x100000000 DUP2 GT ISZERO PUSH2 0xB4C JUMPI PUSH1 0x0 DUP1 REVERT JUMPDEST DUP3 ADD DUP4 PUSH1 0x20 DUP3 ADD GT ISZERO PUSH2 0xB5E JUMPI PUSH1 0x0 DUP1 REVERT JUMPDEST DUP1 CALLDATALOAD SWAP1 PUSH1 0x20 ADD SWAP2 DUP5 PUSH1 0x1 DUP4 MUL DUP5 ADD GT PUSH5 0x100000000 DUP4 GT OR ISZERO PUSH2 0xB80 JUMPI PUSH1 0x0 DUP1 REVERT JUMPDEST SWAP2 SWAP1 DUP1 DUP1 PUSH1 0x1F ADD PUSH1 0x20 DUP1 SWAP2 DIV MUL PUSH1 0x20 ADD PUSH1 0x40 MLOAD SWAP1 DUP2 ADD PUSH1 0x40 MSTORE DUP1 SWAP4 SWAP3 SWAP2 SWAP1 DUP2 DUP2 MSTORE PUSH1 0x20 ADD DUP4 DUP4 DUP1 DUP3 DUP5 CALLDATACOPY PUSH1 0x0 DUP2 DUP5 ADD MSTORE PUSH1 0x1F NOT PUSH1 0x1F DUP3 ADD AND SWAP1 POP DUP1 DUP4 ADD SWAP3 POP POP POP POP POP POP POP SWAP2 SWAP3 SWAP2 SWAP3 SWAP1 DUP1 CALLDATALOAD ISZERO ISZERO SWAP1 PUSH1 0x20 ADD SWAP1 SWAP3 SWAP2 SWAP1 POP POP POP PUSH2 0x209A JUMP JUMPDEST STOP JUMPDEST CALLVALUE DUP1 ISZERO PUSH2 0xBEC JUMPI PUSH1 0x0 DUP1 REVERT JUMPDEST POP PUSH2 0xBF5 PUSH2 0x2253 JUMP JUMPDEST PUSH1 0x40 MLOAD DUP1 DUP3 DUP2 MSTORE PUSH1 0x20 ADD SWAP2 POP POP PUSH1 0x40 MLOAD DUP1 SWAP2 SUB SWAP1 RETURN JUMPDEST CALLVALUE DUP1 ISZERO PUSH2 0xC17 JUMPI PUSH1 0x0 DUP1 REVERT JUMPDEST POP PUSH2 0xC20 PUSH2 0x225B JUMP JUMPDEST PUSH1 0x40 MLOAD DUP1 DUP3 ISZERO ISZERO ISZERO ISZERO DUP2 MSTORE PUSH1 0x20 ADD SWAP2 POP POP PUSH1 0x40 MLOAD DUP1 SWAP2 SUB SWAP1 RETURN JUMPDEST CALLVALUE DUP1 ISZERO PUSH2 0xC46 JUMPI PUSH1 0x0 DUP1 REVERT JUMPDEST POP PUSH2 0xC4F PUSH2 0x226E JUMP JUMPDEST PUSH1 0x40 MLOAD DUP1 DUP3 DUP2 MSTORE PUSH1 0x20 ADD SWAP2 POP POP PUSH1 0x40 MLOAD DUP1 SWAP2 SUB SWAP1 RETURN JUMPDEST CALLVALUE DUP1 ISZERO PUSH2 0xC71 JUMPI PUSH1 0x0 DUP1 REVERT JUMPDEST POP PUSH2 0xC7A PUSH2 0x2274 JUMP JUMPDEST PUSH1 0x40 MLOAD DUP1 DUP13 PUSH20 0xFFFFFFFFFFFFFFFFFFFFFFFFFFFFFFFFFFFFFFFF AND PUSH20 0xFFFFFFFFFFFFFFFFFFFFFFFFFFFFFFFFFFFFFFFF AND DUP2 MSTORE PUSH1 0x20 ADD DUP12 DUP2 MSTORE PUSH1 0x20 ADD DUP11 DUP2 MSTORE PUSH1 0x20 ADD DUP10 ISZERO ISZERO ISZERO ISZERO DUP2 MSTORE PUSH1 0x20 ADD DUP9 ISZERO ISZERO ISZERO ISZERO DUP2 MSTORE PUSH1 0x20 ADD DUP8 ISZERO ISZERO ISZERO ISZERO DUP2 MSTORE PUSH1 0x20 ADD DUP7 DUP2 MSTORE PUSH1 0x20 ADD DUP6 DUP2 MSTORE PUSH1 0x20 ADD DUP5 DUP2 MSTORE PUSH1 0x20 ADD DUP4 DUP2 MSTORE PUSH1 0x20 ADD DUP3 DUP2 MSTORE PUSH1 0x20 ADD SWAP12 POP POP POP POP POP POP POP POP POP POP POP POP PUSH1 0x40 MLOAD DUP1 SWAP2 SUB SWAP1 RETURN JUMPDEST CALLVALUE DUP1 ISZERO PUSH2 0xD1A JUMPI PUSH1 0x0 DUP1 REVERT JUMPDEST POP PUSH2 0xD53 PUSH1 0x4 DUP1 CALLDATASIZE SUB PUSH1 0x40 DUP2 LT ISZERO PUSH2 0xD31 JUMPI PUSH1 0x0 DUP1 REVERT JUMPDEST DUP2 ADD SWAP1 DUP1 DUP1 CALLDATALOAD SWAP1 PUSH1 0x20 ADD SWAP1 SWAP3 SWAP2 SWAP1 DUP1 CALLDATALOAD ISZERO ISZERO SWAP1 PUSH1 0x20 ADD SWAP1 SWAP3 SWAP2 SWAP1 POP POP POP PUSH2 0x234D JUMP JUMPDEST PUSH1 0x40 MLOAD DUP1 DUP3 DUP2 MSTORE PUSH1 0x20 ADD SWAP2 POP POP PUSH1 0x40 MLOAD DUP1 SWAP2 SUB SWAP1 RETURN JUMPDEST PUSH1 0x4 PUSH1 0x0 SWAP1 SLOAD SWAP1 PUSH2 0x100 EXP SWAP1 DIV PUSH20 0xFFFFFFFFFFFFFFFFFFFFFFFFFFFFFFFFFFFFFFFF AND DUP2 JUMP JUMPDEST PUSH1 0x6 SLOAD TIMESTAMP LT PUSH2 0xDE9 JUMPI PUSH1 0x40 MLOAD PUSH32 0x8C379A000000000000000000000000000000000000000000000000000000000 DUP2 MSTORE PUSH1 0x4 ADD DUP1 DUP1 PUSH1 0x20 ADD DUP3 DUP2 SUB DUP3 MSTORE PUSH1 0x2B DUP2 MSTORE PUSH1 0x20 ADD DUP1 PUSH2 0x2983 PUSH1 0x2B SWAP2 CODECOPY PUSH1 0x40 ADD SWAP2 POP POP PUSH1 0x40 MLOAD DUP1 SWAP2 SUB SWAP1 REVERT JUMPDEST PUSH1 0x0 PUSH1 0x13 PUSH1 0x0 CALLER PUSH20 0xFFFFFFFFFFFFFFFFFFFFFFFFFFFFFFFFFFFFFFFF AND PUSH20 0xFFFFFFFFFFFFFFFFFFFFFFFFFFFFFFFFFFFFFFFF AND DUP2 MSTORE PUSH1 0x20 ADD SWAP1 DUP2 MSTORE PUSH1 0x20 ADD PUSH1 0x0 KECCAK256 SLOAD EQ PUSH2 0xE81 JUMPI PUSH1 0x40 MLOAD PUSH32 0x8C379A000000000000000000000000000000000000000000000000000000000 DUP2 MSTORE PUSH1 0x4 ADD DUP1 DUP1 PUSH1 0x20 ADD DUP3 DUP2 SUB DUP3 MSTORE PUSH1 0x25 DUP2 MSTORE PUSH1 0x20 ADD DUP1 PUSH2 0x2924 PUSH1 0x25 SWAP2 CODECOPY PUSH1 0x40 ADD SWAP2 POP POP PUSH1 0x40 MLOAD DUP1 SWAP2 SUB SWAP1 REVERT JUMPDEST PUSH2 0xE89 PUSH2 0x262A JUMP JUMPDEST PUSH1 0x40 MLOAD DUP1 PUSH1 0x80 ADD PUSH1 0x40 MSTORE DUP1 DUP5 DUP2 MSTORE PUSH1 0x20 ADD DUP4 ISZERO ISZERO DUP2 MSTORE PUSH1 0x20 ADD CALLER PUSH20 0xFFFFFFFFFFFFFFFFFFFFFFFFFFFFFFFFFFFFFFFF AND DUP2 MSTORE PUSH1 0x20 ADD PUSH1 0x0 DUP2 MSTORE POP SWAP1 POP PUSH1 0x7 DUP2 SWAP1 DUP1 PUSH1 0x1 DUP2 SLOAD ADD DUP1 DUP3 SSTORE DUP1 SWAP2 POP POP SWAP1 PUSH1 0x1 DUP3 SUB SWAP1 PUSH1 0x0 MSTORE PUSH1 0x20 PUSH1 0x0 KECCAK256 SWAP1 PUSH1 0x3 MUL ADD PUSH1 0x0 SWAP1 SWAP2 SWAP3 SWAP1 SWAP2 SWAP1 SWAP2 POP PUSH1 0x0 DUP3 ADD MLOAD DUP2 PUSH1 0x0 ADD SWAP1 DUP1 MLOAD SWAP1 PUSH1 0x20 ADD SWAP1 PUSH2 0xF0F SWAP3 SWAP2 SWAP1 PUSH2 0x266A JUMP JUMPDEST POP PUSH1 0x20 DUP3 ADD MLOAD DUP2 PUSH1 0x1 ADD PUSH1 0x0 PUSH2 0x100 EXP DUP2 SLOAD DUP2 PUSH1 0xFF MUL NOT AND SWAP1 DUP4 ISZERO ISZERO MUL OR SWAP1 SSTORE POP PUSH1 0x40 DUP3 ADD MLOAD DUP2 PUSH1 0x1 ADD PUSH1 0x1 PUSH2 0x100 EXP DUP2 SLOAD DUP2 PUSH20 0xFFFFFFFFFFFFFFFFFFFFFFFFFFFFFFFFFFFFFFFF MUL NOT AND SWAP1 DUP4 PUSH20 0xFFFFFFFFFFFFFFFFFFFFFFFFFFFFFFFFFFFFFFFF AND MUL OR SWAP1 SSTORE POP PUSH1 0x60 DUP3 ADD MLOAD DUP2 PUSH1 0x2 ADD SSTORE POP POP POP PUSH1 0x1 PUSH2 0xF8E PUSH2 0x1F53 JUMP JUMPDEST SUB PUSH1 0x13 PUSH1 0x0 CALLER PUSH20 0xFFFFFFFFFFFFFFFFFFFFFFFFFFFFFFFFFFFFFFFF AND PUSH20 0xFFFFFFFFFFFFFFFFFFFFFFFFFFFFFFFFFFFFFFFF AND DUP2 MSTORE PUSH1 0x20 ADD SWAP1 DUP2 MSTORE PUSH1 0x20 ADD PUSH1 0x0 KECCAK256 DUP2 SWAP1 SSTORE POP POP POP POP JUMP JUMPDEST PUSH1 0xB PUSH1 0x20 MSTORE DUP1 PUSH1 0x0 MSTORE PUSH1 0x40 PUSH1 0x0 KECCAK256 PUSH1 0x0 SWAP2 POP SWAP1 POP SLOAD DUP2 JUMP JUMPDEST PUSH1 0xA DUP2 DUP2 SLOAD DUP2 LT PUSH2 0xFFC JUMPI INVALID JUMPDEST SWAP1 PUSH1 0x0 MSTORE PUSH1 0x20 PUSH1 0x0 KECCAK256 ADD PUSH1 0x0 SWAP2 POP SLOAD SWAP1 PUSH2 0x100 EXP SWAP1 DIV PUSH20 0xFFFFFFFFFFFFFFFFFFFFFFFFFFFFFFFFFFFFFFFF AND DUP2 JUMP JUMPDEST PUSH1 0x7 DUP2 DUP2 SLOAD DUP2 LT PUSH2 0x1038 JUMPI INVALID JUMPDEST SWAP1 PUSH1 0x0 MSTORE PUSH1 0x20 PUSH1 0x0 KECCAK256 SWAP1 PUSH1 0x3 MUL ADD PUSH1 0x0 SWAP2 POP SWAP1 POP DUP1 PUSH1 0x0 ADD DUP1 SLOAD PUSH1 0x1 DUP2 PUSH1 0x1 AND ISZERO PUSH2 0x100 MUL SUB AND PUSH1 0x2 SWAP1 DIV DUP1 PUSH1 0x1F ADD PUSH1 0x20 DUP1 SWAP2 DIV MUL PUSH1 0x20 ADD PUSH1 0x40 MLOAD SWAP1 DUP2 ADD PUSH1 0x40 MSTORE DUP1 SWAP3 SWAP2 SWAP1 DUP2 DUP2 MSTORE PUSH1 0x20 ADD DUP3 DUP1 SLOAD PUSH1 0x1 DUP2 PUSH1 0x1 AND ISZERO PUSH2 0x100 MUL SUB AND PUSH1 0x2 SWAP1 DIV DUP1 ISZERO PUSH2 0x10E4 JUMPI DUP1 PUSH1 0x1F LT PUSH2 0x10B9 JUMPI PUSH2 0x100 DUP1 DUP4 SLOAD DIV MUL DUP4 MSTORE SWAP2 PUSH1 0x20 ADD SWAP2 PUSH2 0x10E4 JUMP JUMPDEST DUP3 ADD SWAP2 SWAP1 PUSH1 0x0 MSTORE PUSH1 0x20 PUSH1 0x0 KECCAK256 SWAP1 JUMPDEST DUP2 SLOAD DUP2 MSTORE SWAP1 PUSH1 0x1 ADD SWAP1 PUSH1 0x20 ADD DUP1 DUP4 GT PUSH2 0x10C7 JUMPI DUP3 SWAP1 SUB PUSH1 0x1F AND DUP3 ADD SWAP2 JUMPDEST POP POP POP POP POP SWAP1 DUP1 PUSH1 0x1 ADD PUSH1 0x0 SWAP1 SLOAD SWAP1 PUSH2 0x100 EXP SWAP1 DIV PUSH1 0xFF AND SWAP1 DUP1 PUSH1 0x1 ADD PUSH1 0x1 SWAP1 SLOAD SWAP1 PUSH2 0x100 EXP SWAP1 DIV PUSH20 0xFFFFFFFFFFFFFFFFFFFFFFFFFFFFFFFFFFFFFFFF AND SWAP1 DUP1 PUSH1 0x2 ADD SLOAD SWAP1 POP DUP5 JUMP JUMPDEST PUSH1 0x0 DUP1 PUSH1 0x1 PUSH1 0x0 SWAP1 SLOAD SWAP1 PUSH2 0x100 EXP SWAP1 DIV PUSH20 0xFFFFFFFFFFFFFFFFFFFFFFFFFFFFFFFFFFFFFFFF AND SWAP1 POP PUSH1 0x0 PUSH1 0x8 PUSH1 0x0 CALLER PUSH20 0xFFFFFFFFFFFFFFFFFFFFFFFFFFFFFFFFFFFFFFFF AND PUSH20 0xFFFFFFFFFFFFFFFFFFFFFFFFFFFFFFFFFFFFFFFF AND DUP2 MSTORE PUSH1 0x20 ADD SWAP1 DUP2 MSTORE PUSH1 0x20 ADD PUSH1 0x0 KECCAK256 SLOAD EQ DUP1 ISZERO PUSH2 0x128C JUMPI POP DUP1 PUSH20 0xFFFFFFFFFFFFFFFFFFFFFFFFFFFFFFFFFFFFFFFF AND PUSH4 0x902701B7 CALLER ADDRESS PUSH1 0x40 MLOAD DUP4 PUSH4 0xFFFFFFFF AND PUSH1 0xE0 SHL DUP2 MSTORE PUSH1 0x4 ADD DUP1 DUP4 PUSH20 0xFFFFFFFFFFFFFFFFFFFFFFFFFFFFFFFFFFFFFFFF AND PUSH20 0xFFFFFFFFFFFFFFFFFFFFFFFFFFFFFFFFFFFFFFFF AND DUP2 MSTORE PUSH1 0x20 ADD DUP3 PUSH20 0xFFFFFFFFFFFFFFFFFFFFFFFFFFFFFFFFFFFFFFFF AND PUSH20 0xFFFFFFFFFFFFFFFFFFFFFFFFFFFFFFFFFFFFFFFF AND DUP2 MSTORE PUSH1 0x20 ADD SWAP3 POP POP POP PUSH1 0x20 PUSH1 0x40 MLOAD DUP1 DUP4 SUB DUP2 DUP7 DUP1 EXTCODESIZE ISZERO DUP1 ISZERO PUSH2 0x1250 JUMPI PUSH1 0x0 DUP1 REVERT JUMPDEST POP GAS STATICCALL ISZERO DUP1 ISZERO PUSH2 0x1264 JUMPI RETURNDATASIZE PUSH1 0x0 DUP1 RETURNDATACOPY RETURNDATASIZE PUSH1 0x0 REVERT JUMPDEST POP POP POP POP PUSH1 0x40 MLOAD RETURNDATASIZE PUSH1 0x20 DUP2 LT ISZERO PUSH2 0x127A JUMPI PUSH1 0x0 DUP1 REVERT JUMPDEST DUP2 ADD SWAP1 DUP1 DUP1 MLOAD SWAP1 PUSH1 0x20 ADD SWAP1 SWAP3 SWAP2 SWAP1 POP POP POP JUMPDEST SWAP2 POP POP SWAP1 JUMP JUMPDEST PUSH1 0x10 SLOAD DUP2 JUMP JUMPDEST PUSH1 0x5 SLOAD DUP2 JUMP JUMPDEST PUSH1 0x0 PUSH1 0x9 DUP1 SLOAD SWAP1 POP SWAP1 POP SWAP1 JUMP JUMPDEST PUSH1 0x6 SLOAD DUP2 JUMP JUMPDEST PUSH1 0xD SLOAD DUP2 JUMP JUMPDEST PUSH1 0x13 PUSH1 0x20 MSTORE DUP1 PUSH1 0x0 MSTORE PUSH1 0x40 PUSH1 0x0 KECCAK256 PUSH1 0x0 SWAP2 POP SWAP1 POP SLOAD DUP2 JUMP JUMPDEST PUSH2 0x12D7 PUSH2 0x16CB JUMP JUMPDEST PUSH2 0x132C JUMPI PUSH1 0x40 MLOAD PUSH32 0x8C379A000000000000000000000000000000000000000000000000000000000 DUP2 MSTORE PUSH1 0x4 ADD DUP1 DUP1 PUSH1 0x20 ADD DUP3 DUP2 SUB DUP3 MSTORE PUSH1 0x3D DUP2 MSTORE PUSH1 0x20 ADD DUP1 PUSH2 0x29AE PUSH1 0x3D SWAP2 CODECOPY PUSH1 0x40 ADD SWAP2 POP POP PUSH1 0x40 MLOAD DUP1 SWAP2 SUB SWAP1 REVERT JUMPDEST PUSH1 0x0 PUSH1 0x8 PUSH1 0x0 CALLER PUSH20 0xFFFFFFFFFFFFFFFFFFFFFFFFFFFFFFFFFFFFFFFF AND PUSH20 0xFFFFFFFFFFFFFFFFFFFFFFFFFFFFFFFFFFFFFFFF AND DUP2 MSTORE PUSH1 0x20 ADD SWAP1 DUP2 MSTORE PUSH1 0x20 ADD PUSH1 0x0 KECCAK256 SLOAD SWAP1 POP PUSH1 0x0 PUSH1 0x7 DUP3 DUP2 SLOAD DUP2 LT PUSH2 0x137F JUMPI INVALID JUMPDEST SWAP1 PUSH1 0x0 MSTORE PUSH1 0x20 PUSH1 0x0 KECCAK256 SWAP1 PUSH1 0x3 MUL ADD SWAP1 POP PUSH1 0x0 PUSH1 0x16 SLOAD EQ ISZERO PUSH2 0x13A3 JUMPI PUSH2 0x13A2 PUSH2 0x23CE JUMP JUMPDEST JUMPDEST PUSH2 0x13AB PUSH2 0x1F9E JUMP JUMPDEST ISZERO PUSH2 0x14DF JUMPI CALLER PUSH20 0xFFFFFFFFFFFFFFFFFFFFFFFFFFFFFFFFFFFFFFFF AND PUSH2 0x8FC ADDRESS PUSH20 0xFFFFFFFFFFFFFFFFFFFFFFFFFFFFFFFFFFFFFFFF AND PUSH4 0xFDA9198B PUSH1 0xB PUSH1 0x0 CALLER PUSH20 0xFFFFFFFFFFFFFFFFFFFFFFFFFFFFFFFFFFFFFFFF AND PUSH20 0xFFFFFFFFFFFFFFFFFFFFFFFFFFFFFFFFFFFFFFFF AND DUP2 MSTORE PUSH1 0x20 ADD SWAP1 DUP2 MSTORE PUSH1 0x20 ADD PUSH1 0x0 KECCAK256 SLOAD DUP6 PUSH1 0x1 ADD PUSH1 0x0 SWAP1 SLOAD SWAP1 PUSH2 0x100 EXP SWAP1 DIV PUSH1 0xFF AND PUSH1 0x40 MLOAD DUP4 PUSH4 0xFFFFFFFF AND PUSH1 0xE0 SHL DUP2 MSTORE PUSH1 0x4 ADD DUP1 DUP4 DUP2 MSTORE PUSH1 0x20 ADD DUP3 ISZERO ISZERO ISZERO ISZERO DUP2 MSTORE PUSH1 0x20 ADD SWAP3 POP POP POP PUSH1 0x20 PUSH1 0x40 MLOAD DUP1 DUP4 SUB DUP2 DUP7 DUP1 EXTCODESIZE ISZERO DUP1 ISZERO PUSH2 0x1477 JUMPI PUSH1 0x0 DUP1 REVERT JUMPDEST POP GAS STATICCALL ISZERO DUP1 ISZERO PUSH2 0x148B JUMPI RETURNDATASIZE PUSH1 0x0 DUP1 RETURNDATACOPY RETURNDATASIZE PUSH1 0x0 REVERT JUMPDEST POP POP POP POP PUSH1 0x40 MLOAD RETURNDATASIZE PUSH1 0x20 DUP2 LT ISZERO PUSH2 0x14A1 JUMPI PUSH1 0x0 DUP1 REVERT JUMPDEST DUP2 ADD SWAP1 DUP1 DUP1 MLOAD SWAP1 PUSH1 0x20 ADD SWAP1 SWAP3 SWAP2 SWAP1 POP POP POP SWAP1 DUP2 ISZERO MUL SWAP1 PUSH1 0x40 MLOAD PUSH1 0x0 PUSH1 0x40 MLOAD DUP1 DUP4 SUB DUP2 DUP6 DUP9 DUP9 CALL SWAP4 POP POP POP POP ISZERO DUP1 ISZERO PUSH2 0x14DD JUMPI RETURNDATASIZE PUSH1 0x0 DUP1 RETURNDATACOPY RETURNDATASIZE PUSH1 0x0 REVERT JUMPDEST POP JUMPDEST PUSH1 0x0 DUP1 PUSH1 0x0 SWAP1 SLOAD SWAP1 PUSH2 0x100 EXP SWAP1 DIV PUSH20 0xFFFFFFFFFFFFFFFFFFFFFFFFFFFFFFFFFFFFFFFF AND SWAP1 POP DUP1 PUSH20 0xFFFFFFFFFFFFFFFFFFFFFFFFFFFFFFFFFFFFFFFF AND PUSH4 0x5F2AB567 ADDRESS PUSH20 0xFFFFFFFFFFFFFFFFFFFFFFFFFFFFFFFFFFFFFFFF AND PUSH4 0xB3B9AC1D PUSH1 0xF PUSH1 0x0 CALLER PUSH20 0xFFFFFFFFFFFFFFFFFFFFFFFFFFFFFFFFFFFFFFFF AND PUSH20 0xFFFFFFFFFFFFFFFFFFFFFFFFFFFFFFFFFFFFFFFF AND DUP2 MSTORE PUSH1 0x20 ADD SWAP1 DUP2 MSTORE PUSH1 0x20 ADD PUSH1 0x0 KECCAK256 SLOAD PUSH1 0x40 MLOAD DUP3 PUSH4 0xFFFFFFFF AND PUSH1 0xE0 SHL DUP2 MSTORE PUSH1 0x4 ADD DUP1 DUP3 DUP2 MSTORE PUSH1 0x20 ADD SWAP2 POP POP PUSH1 0x20 PUSH1 0x40 MLOAD DUP1 DUP4 SUB DUP2 DUP7 DUP1 EXTCODESIZE ISZERO DUP1 ISZERO PUSH2 0x15B1 JUMPI PUSH1 0x0 DUP1 REVERT JUMPDEST POP GAS STATICCALL ISZERO DUP1 ISZERO PUSH2 0x15C5 JUMPI RETURNDATASIZE PUSH1 0x0 DUP1 RETURNDATACOPY RETURNDATASIZE PUSH1 0x0 REVERT JUMPDEST POP POP POP POP PUSH1 0x40 MLOAD RETURNDATASIZE PUSH1 0x20 DUP2 LT ISZERO PUSH2 0x15DB JUMPI PUSH1 0x0 DUP1 REVERT JUMPDEST DUP2 ADD SWAP1 DUP1 DUP1 MLOAD SWAP1 PUSH1 0x20 ADD SWAP1 SWAP3 SWAP2 SWAP1 POP POP POP CALLER PUSH1 0x40 MLOAD DUP4 PUSH4 0xFFFFFFFF AND PUSH1 0xE0 SHL DUP2 MSTORE PUSH1 0x4 ADD DUP1 DUP4 DUP2 MSTORE PUSH1 0x20 ADD DUP3 PUSH20 0xFFFFFFFFFFFFFFFFFFFFFFFFFFFFFFFFFFFFFFFF AND PUSH20 0xFFFFFFFFFFFFFFFFFFFFFFFFFFFFFFFFFFFFFFFF AND DUP2 MSTORE PUSH1 0x20 ADD SWAP3 POP POP POP PUSH1 0x0 PUSH1 0x40 MLOAD DUP1 DUP4 SUB DUP2 PUSH1 0x0 DUP8 DUP1 EXTCODESIZE ISZERO DUP1 ISZERO PUSH2 0x1656 JUMPI PUSH1 0x0 DUP1 REVERT JUMPDEST POP GAS CALL ISZERO DUP1 ISZERO PUSH2 0x166A JUMPI RETURNDATASIZE PUSH1 0x0 DUP1 RETURNDATACOPY RETURNDATASIZE PUSH1 0x0 REVERT JUMPDEST POP POP POP POP PUSH1 0x1 PUSH1 0x14 PUSH1 0x0 CALLER PUSH20 0xFFFFFFFFFFFFFFFFFFFFFFFFFFFFFFFFFFFFFFFF AND PUSH20 0xFFFFFFFFFFFFFFFFFFFFFFFFFFFFFFFFFFFFFFFF AND DUP2 MSTORE PUSH1 0x20 ADD SWAP1 DUP2 MSTORE PUSH1 0x20 ADD PUSH1 0x0 KECCAK256 PUSH1 0x0 PUSH2 0x100 EXP DUP2 SLOAD DUP2 PUSH1 0xFF MUL NOT AND SWAP1 DUP4 ISZERO ISZERO MUL OR SWAP1 SSTORE POP POP POP POP JUMP JUMPDEST PUSH1 0x0 DUP1 PUSH1 0x8 PUSH1 0x0 CALLER PUSH20 0xFFFFFFFFFFFFFFFFFFFFFFFFFFFFFFFFFFFFFFFF AND PUSH20 0xFFFFFFFFFFFFFFFFFFFFFFFFFFFFFFFFFFFFFFFF AND DUP2 MSTORE PUSH1 0x20 ADD SWAP1 DUP2 MSTORE PUSH1 0x20 ADD PUSH1 0x0 KECCAK256 SLOAD SWAP1 POP PUSH1 0x6 SLOAD TIMESTAMP GT DUP1 ISZERO PUSH2 0x1722 JUMPI POP PUSH1 0x0 DUP2 EQ ISZERO JUMPDEST DUP1 ISZERO PUSH2 0x1778 JUMPI POP PUSH1 0x14 PUSH1 0x0 CALLER PUSH20 0xFFFFFFFFFFFFFFFFFFFFFFFFFFFFFFFFFFFFFFFF AND PUSH20 0xFFFFFFFFFFFFFFFFFFFFFFFFFFFFFFFFFFFFFFFF AND DUP2 MSTORE PUSH1 0x20 ADD SWAP1 DUP2 MSTORE PUSH1 0x20 ADD PUSH1 0x0 KECCAK256 PUSH1 0x0 SWAP1 SLOAD SWAP1 PUSH2 0x100 EXP SWAP1 DIV PUSH1 0xFF AND ISZERO JUMPDEST SWAP2 POP POP SWAP1 JUMP JUMPDEST PUSH1 0x0 PUSH1 0xA DUP1 SLOAD SWAP1 POP SWAP1 POP SWAP1 JUMP JUMPDEST PUSH1 0x0 PUSH1 0x1 SWAP1 POP SWAP1 JUMP JUMPDEST PUSH1 0xC SLOAD DUP2 JUMP JUMPDEST PUSH1 0x3 DUP1 SLOAD PUSH1 0x1 DUP2 PUSH1 0x1 AND ISZERO PUSH2 0x100 MUL SUB AND PUSH1 0x2 SWAP1 DIV DUP1 PUSH1 0x1F ADD PUSH1 0x20 DUP1 SWAP2 DIV MUL PUSH1 0x20 ADD PUSH1 0x40 MLOAD SWAP1 DUP2 ADD PUSH1 0x40 MSTORE DUP1 SWAP3 SWAP2 SWAP1 DUP2 DUP2 MSTORE PUSH1 0x20 ADD DUP3 DUP1 SLOAD PUSH1 0x1 DUP2 PUSH1 0x1 AND ISZERO PUSH2 0x100 MUL SUB AND PUSH1 0x2 SWAP1 DIV DUP1 ISZERO PUSH2 0x1830 JUMPI DUP1 PUSH1 0x1F LT PUSH2 0x1805 JUMPI PUSH2 0x100 DUP1 DUP4 SLOAD DIV MUL DUP4 MSTORE SWAP2 PUSH1 0x20 ADD SWAP2 PUSH2 0x1830 JUMP JUMPDEST DUP3 ADD SWAP2 SWAP1 PUSH1 0x0 MSTORE PUSH1 0x20 PUSH1 0x0 KECCAK256 SWAP1 JUMPDEST DUP2 SLOAD DUP2 MSTORE SWAP1 PUSH1 0x1 ADD SWAP1 PUSH1 0x20 ADD DUP1 DUP4 GT PUSH2 0x1813 JUMPI DUP3 SWAP1 SUB PUSH1 0x1F AND DUP3 ADD SWAP2 JUMPDEST POP POP POP POP POP DUP2 JUMP JUMPDEST PUSH1 0x4 PUSH1 0x0 SWAP1 SLOAD SWAP1 PUSH2 0x100 EXP SWAP1 DIV PUSH20 0xFFFFFFFFFFFFFFFFFFFFFFFFFFFFFFFFFFFFFFFF AND PUSH20 0xFFFFFFFFFFFFFFFFFFFFFFFFFFFFFFFFFFFFFFFF AND CALLER PUSH20 0xFFFFFFFFFFFFFFFFFFFFFFFFFFFFFFFFFFFFFFFF AND EQ PUSH2 0x18DE JUMPI PUSH1 0x40 MLOAD PUSH32 0x8C379A000000000000000000000000000000000000000000000000000000000 DUP2 MSTORE PUSH1 0x4 ADD DUP1 DUP1 PUSH1 0x20 ADD DUP3 DUP2 SUB DUP3 MSTORE PUSH1 0x3A DUP2 MSTORE PUSH1 0x20 ADD DUP1 PUSH2 0x2949 PUSH1 0x3A SWAP2 CODECOPY PUSH1 0x40 ADD SWAP2 POP POP PUSH1 0x40 MLOAD DUP1 SWAP2 SUB SWAP1 REVERT JUMPDEST PUSH1 0x0 PUSH2 0x18E8 PUSH2 0x177E JUMP JUMPDEST PUSH2 0x18F0 PUSH2 0x129E JUMP JUMPDEST ADD EQ PUSH2 0x1947 JUMPI PUSH1 0x40 MLOAD PUSH32 0x8C379A000000000000000000000000000000000000000000000000000000000 DUP2 MSTORE PUSH1 0x4 ADD DUP1 DUP1 PUSH1 0x20 ADD DUP3 DUP2 SUB DUP3 MSTORE PUSH1 0x3D DUP2 MSTORE PUSH1 0x20 ADD DUP1 PUSH2 0x2882 PUSH1 0x3D SWAP2 CODECOPY PUSH1 0x40 ADD SWAP2 POP POP PUSH1 0x40 MLOAD DUP1 SWAP2 SUB SWAP1 REVERT JUMPDEST PUSH1 0x6 SLOAD TIMESTAMP GT PUSH2 0x19A1 JUMPI PUSH1 0x40 MLOAD PUSH32 0x8C379A000000000000000000000000000000000000000000000000000000000 DUP2 MSTORE PUSH1 0x4 ADD DUP1 DUP1 PUSH1 0x20 ADD DUP3 DUP2 SUB DUP3 MSTORE PUSH1 0x36 DUP2 MSTORE PUSH1 0x20 ADD DUP1 PUSH2 0x2790 PUSH1 0x36 SWAP2 CODECOPY PUSH1 0x40 ADD SWAP2 POP POP PUSH1 0x40 MLOAD DUP1 SWAP2 SUB SWAP1 REVERT JUMPDEST CALLER PUSH20 0xFFFFFFFFFFFFFFFFFFFFFFFFFFFFFFFFFFFFFFFF AND PUSH2 0x8FC SELFBALANCE SWAP1 DUP2 ISZERO MUL SWAP1 PUSH1 0x40 MLOAD PUSH1 0x0 PUSH1 0x40 MLOAD DUP1 DUP4 SUB DUP2 DUP6 DUP9 DUP9 CALL SWAP4 POP POP POP POP ISZERO DUP1 ISZERO PUSH2 0x19E7 JUMPI RETURNDATASIZE PUSH1 0x0 DUP1 RETURNDATACOPY RETURNDATASIZE PUSH1 0x0 REVERT JUMPDEST POP PUSH2 0x19F0 PUSH2 0x254E JUMP JUMPDEST PUSH1 0x1 PUSH1 0x14 PUSH1 0x0 CALLER PUSH20 0xFFFFFFFFFFFFFFFFFFFFFFFFFFFFFFFFFFFFFFFF AND PUSH20 0xFFFFFFFFFFFFFFFFFFFFFFFFFFFFFFFFFFFFFFFF AND DUP2 MSTORE PUSH1 0x20 ADD SWAP1 DUP2 MSTORE PUSH1 0x20 ADD PUSH1 0x0 KECCAK256 PUSH1 0x0 PUSH2 0x100 EXP DUP2 SLOAD DUP2 PUSH1 0xFF MUL NOT AND SWAP1 DUP4 ISZERO ISZERO MUL OR SWAP1 SSTORE POP JUMP JUMPDEST PUSH1 0x8 PUSH1 0x20 MSTORE DUP1 PUSH1 0x0 MSTORE PUSH1 0x40 PUSH1 0x0 KECCAK256 PUSH1 0x0 SWAP2 POP SWAP1 POP SLOAD DUP2 JUMP JUMPDEST PUSH1 0x6 SLOAD TIMESTAMP LT PUSH2 0x1ABC JUMPI PUSH1 0x40 MLOAD PUSH32 0x8C379A000000000000000000000000000000000000000000000000000000000 DUP2 MSTORE PUSH1 0x4 ADD DUP1 DUP1 PUSH1 0x20 ADD DUP3 DUP2 SUB DUP3 MSTORE PUSH1 0x2B DUP2 MSTORE PUSH1 0x20 ADD DUP1 PUSH2 0x2983 PUSH1 0x2B SWAP2 CODECOPY PUSH1 0x40 ADD SWAP2 POP POP PUSH1 0x40 MLOAD DUP1 SWAP2 SUB SWAP1 REVERT JUMPDEST PUSH1 0x0 DUP3 EQ ISZERO PUSH2 0x1B16 JUMPI PUSH1 0x40 MLOAD PUSH32 0x8C379A000000000000000000000000000000000000000000000000000000000 DUP2 MSTORE PUSH1 0x4 ADD DUP1 DUP1 PUSH1 0x20 ADD DUP3 DUP2 SUB DUP3 MSTORE PUSH1 0x3B DUP2 MSTORE PUSH1 0x20 ADD DUP1 PUSH2 0x29EB PUSH1 0x3B SWAP2 CODECOPY PUSH1 0x40 ADD SWAP2 POP POP PUSH1 0x40 MLOAD DUP1 SWAP2 SUB SWAP1 REVERT JUMPDEST PUSH1 0x5 SLOAD CALLVALUE LT ISZERO PUSH2 0x1B71 JUMPI PUSH1 0x40 MLOAD PUSH32 0x8C379A000000000000000000000000000000000000000000000000000000000 DUP2 MSTORE PUSH1 0x4 ADD DUP1 DUP1 PUSH1 0x20 ADD DUP3 DUP2 SUB DUP3 MSTORE PUSH1 0x46 DUP2 MSTORE PUSH1 0x20 ADD DUP1 PUSH2 0x27FD PUSH1 0x46 SWAP2 CODECOPY PUSH1 0x60 ADD SWAP2 POP POP PUSH1 0x40 MLOAD DUP1 SWAP2 SUB SWAP1 REVERT JUMPDEST PUSH2 0x1B79 PUSH2 0x112D JUMP JUMPDEST PUSH2 0x1BCE JUMPI PUSH1 0x40 MLOAD PUSH32 0x8C379A000000000000000000000000000000000000000000000000000000000 DUP2 MSTORE PUSH1 0x4 ADD DUP1 DUP1 PUSH1 0x20 ADD DUP3 DUP2 SUB DUP3 MSTORE PUSH1 0x4B DUP2 MSTORE PUSH1 0x20 ADD DUP1 PUSH2 0x2A48 PUSH1 0x4B SWAP2 CODECOPY PUSH1 0x60 ADD SWAP2 POP POP PUSH1 0x40 MLOAD DUP1 SWAP2 SUB SWAP1 REVERT JUMPDEST PUSH1 0x0 DUP1 SWAP1 SLOAD SWAP1 PUSH2 0x100 EXP SWAP1 DIV PUSH20 0xFFFFFFFFFFFFFFFFFFFFFFFFFFFFFFFFFFFFFFFF AND PUSH20 0xFFFFFFFFFFFFFFFFFFFFFFFFFFFFFFFFFFFFFFFF AND PUSH4 0x37C10389 ADDRESS DUP4 CALLER PUSH1 0x40 MLOAD DUP5 PUSH4 0xFFFFFFFF AND PUSH1 0xE0 SHL DUP2 MSTORE PUSH1 0x4 ADD DUP1 DUP5 PUSH20 0xFFFFFFFFFFFFFFFFFFFFFFFFFFFFFFFFFFFFFFFF AND PUSH20 0xFFFFFFFFFFFFFFFFFFFFFFFFFFFFFFFFFFFFFFFF AND DUP2 MSTORE PUSH1 0x20 ADD DUP4 DUP2 MSTORE PUSH1 0x20 ADD DUP3 PUSH20 0xFFFFFFFFFFFFFFFFFFFFFFFFFFFFFFFFFFFFFFFF AND PUSH20 0xFFFFFFFFFFFFFFFFFFFFFFFFFFFFFFFFFFFFFFFF AND DUP2 MSTORE PUSH1 0x20 ADD SWAP4 POP POP POP POP PUSH1 0x0 PUSH1 0x40 MLOAD DUP1 DUP4 SUB DUP2 PUSH1 0x0 DUP8 DUP1 EXTCODESIZE ISZERO DUP1 ISZERO PUSH2 0x1CAA JUMPI PUSH1 0x0 DUP1 REVERT JUMPDEST POP GAS CALL ISZERO DUP1 ISZERO PUSH2 0x1CBE JUMPI RETURNDATASIZE PUSH1 0x0 DUP1 RETURNDATACOPY RETURNDATASIZE PUSH1 0x0 REVERT JUMPDEST POP POP POP POP DUP2 PUSH1 0x8 PUSH1 0x0 CALLER PUSH20 0xFFFFFFFFFFFFFFFFFFFFFFFFFFFFFFFFFFFFFFFF AND PUSH20 0xFFFFFFFFFFFFFFFFFFFFFFFFFFFFFFFFFFFFFFFF AND DUP2 MSTORE PUSH1 0x20 ADD SWAP1 DUP2 MSTORE PUSH1 0x20 ADD PUSH1 0x0 KECCAK256 DUP2 SWAP1 SSTORE POP CALLVALUE PUSH1 0xB PUSH1 0x0 CALLER PUSH20 0xFFFFFFFFFFFFFFFFFFFFFFFFFFFFFFFFFFFFFFFF AND PUSH20 0xFFFFFFFFFFFFFFFFFFFFFFFFFFFFFFFFFFFFFFFF AND DUP2 MSTORE PUSH1 0x20 ADD SWAP1 DUP2 MSTORE PUSH1 0x20 ADD PUSH1 0x0 KECCAK256 DUP2 SWAP1 SSTORE POP DUP1 PUSH1 0xF PUSH1 0x0 CALLER PUSH20 0xFFFFFFFFFFFFFFFFFFFFFFFFFFFFFFFFFFFFFFFF AND PUSH20 0xFFFFFFFFFFFFFFFFFFFFFFFFFFFFFFFFFFFFFFFF AND DUP2 MSTORE PUSH1 0x20 ADD SWAP1 DUP2 MSTORE PUSH1 0x20 ADD PUSH1 0x0 KECCAK256 DUP2 SWAP1 SSTORE POP DUP1 PUSH1 0x12 PUSH1 0x0 DUP3 DUP3 SLOAD ADD SWAP3 POP POP DUP2 SWAP1 SSTORE POP PUSH1 0x7 DUP3 DUP2 SLOAD DUP2 LT PUSH2 0x1DAB JUMPI INVALID JUMPDEST SWAP1 PUSH1 0x0 MSTORE PUSH1 0x20 PUSH1 0x0 KECCAK256 SWAP1 PUSH1 0x3 MUL ADD PUSH1 0x2 ADD PUSH1 0x0 DUP2 SLOAD DUP1 SWAP3 SWAP2 SWAP1 PUSH1 0x1 ADD SWAP2 SWAP1 POP SSTORE POP PUSH1 0x7 DUP3 DUP2 SLOAD DUP2 LT PUSH2 0x1DD9 JUMPI INVALID JUMPDEST SWAP1 PUSH1 0x0 MSTORE PUSH1 0x20 PUSH1 0x0 KECCAK256 SWAP1 PUSH1 0x3 MUL ADD PUSH1 0x1 ADD PUSH1 0x0 SWAP1 SLOAD SWAP1 PUSH2 0x100 EXP SWAP1 DIV PUSH1 0xFF AND ISZERO PUSH2 0x1E88 JUMPI PUSH1 0x9 CALLER SWAP1 DUP1 PUSH1 0x1 DUP2 SLOAD ADD DUP1 DUP3 SSTORE DUP1 SWAP2 POP POP SWAP1 PUSH1 0x1 DUP3 SUB SWAP1 PUSH1 0x0 MSTORE PUSH1 0x20 PUSH1 0x0 KECCAK256 ADD PUSH1 0x0 SWAP1 SWAP2 SWAP3 SWAP1 SWAP2 SWAP1 SWAP2 PUSH2 0x100 EXP DUP2 SLOAD DUP2 PUSH20 0xFFFFFFFFFFFFFFFFFFFFFFFFFFFFFFFFFFFFFFFF MUL NOT AND SWAP1 DUP4 PUSH20 0xFFFFFFFFFFFFFFFFFFFFFFFFFFFFFFFFFFFFFFFF AND MUL OR SWAP1 SSTORE POP POP DUP1 PUSH1 0x10 PUSH1 0x0 DUP3 DUP3 SLOAD ADD SWAP3 POP POP DUP2 SWAP1 SSTORE POP CALLVALUE PUSH1 0xC PUSH1 0x0 DUP3 DUP3 SLOAD ADD SWAP3 POP POP DUP2 SWAP1 SSTORE POP PUSH2 0x1F0F JUMP JUMPDEST PUSH1 0xA CALLER SWAP1 DUP1 PUSH1 0x1 DUP2 SLOAD ADD DUP1 DUP3 SSTORE DUP1 SWAP2 POP POP SWAP1 PUSH1 0x1 DUP3 SUB SWAP1 PUSH1 0x0 MSTORE PUSH1 0x20 PUSH1 0x0 KECCAK256 ADD PUSH1 0x0 SWAP1 SWAP2 SWAP3 SWAP1 SWAP2 SWAP1 SWAP2 PUSH2 0x100 EXP DUP2 SLOAD DUP2 PUSH20 0xFFFFFFFFFFFFFFFFFFFFFFFFFFFFFFFFFFFFFFFF MUL NOT AND SWAP1 DUP4 PUSH20 0xFFFFFFFFFFFFFFFFFFFFFFFFFFFFFFFFFFFFFFFF AND MUL OR SWAP1 SSTORE POP POP DUP1 PUSH1 0x11 PUSH1 0x0 DUP3 DUP3 SLOAD ADD SWAP3 POP POP DUP2 SWAP1 SSTORE POP CALLVALUE PUSH1 0xD PUSH1 0x0 DUP3 DUP3 SLOAD ADD SWAP3 POP POP DUP2 SWAP1 SSTORE POP JUMPDEST POP POP JUMP JUMPDEST PUSH1 0x0 PUSH2 0x1F1D PUSH2 0x1F9E JUMP JUMPDEST ISZERO PUSH2 0x1F37 JUMPI PUSH1 0xA PUSH1 0xB DUP4 MUL DUP2 PUSH2 0x1F2F JUMPI INVALID JUMPDEST DIV SWAP1 POP PUSH2 0x1F48 JUMP JUMPDEST PUSH1 0xA PUSH1 0x8 DUP4 MUL DUP2 PUSH2 0x1F44 JUMPI INVALID JUMPDEST DIV SWAP1 POP JUMPDEST SWAP2 SWAP1 POP JUMP JUMPDEST PUSH1 0x16 SLOAD DUP2 JUMP JUMPDEST PUSH1 0x0 PUSH1 0x7 DUP1 SLOAD SWAP1 POP SWAP1 POP SWAP1 JUMP JUMPDEST PUSH1 0x14 PUSH1 0x20 MSTORE DUP1 PUSH1 0x0 MSTORE PUSH1 0x40 PUSH1 0x0 KECCAK256 PUSH1 0x0 SWAP2 POP SLOAD SWAP1 PUSH2 0x100 EXP SWAP1 DIV PUSH1 0xFF AND DUP2 JUMP JUMPDEST PUSH1 0xF PUSH1 0x20 MSTORE DUP1 PUSH1 0x0 MSTORE PUSH1 0x40 PUSH1 0x0 KECCAK256 PUSH1 0x0 SWAP2 POP SWAP1 POP SLOAD DUP2 JUMP JUMPDEST PUSH1 0x11 SLOAD DUP2 JUMP JUMPDEST PUSH1 0x0 DUP1 PUSH1 0x7 PUSH1 0x8 PUSH1 0x0 CALLER PUSH20 0xFFFFFFFFFFFFFFFFFFFFFFFFFFFFFFFFFFFFFFFF AND PUSH20 0xFFFFFFFFFFFFFFFFFFFFFFFFFFFFFFFFFFFFFFFF AND DUP2 MSTORE PUSH1 0x20 ADD SWAP1 DUP2 MSTORE PUSH1 0x20 ADD PUSH1 0x0 KECCAK256 SLOAD DUP2 SLOAD DUP2 LT PUSH2 0x1FED JUMPI INVALID JUMPDEST SWAP1 PUSH1 0x0 MSTORE PUSH1 0x20 PUSH1 0x0 KECCAK256 SWAP1 PUSH1 0x3 MUL ADD SWAP1 POP PUSH1 0x1 PUSH1 0x16 SLOAD EQ DUP1 ISZERO PUSH2 0x201D JUMPI POP DUP1 PUSH1 0x1 ADD PUSH1 0x0 SWAP1 SLOAD SWAP1 PUSH2 0x100 EXP SWAP1 DIV PUSH1 0xFF AND JUMPDEST DUP1 PUSH2 0x2045 JUMPI POP PUSH1 0x2 PUSH1 0x16 SLOAD EQ DUP1 ISZERO PUSH2 0x2044 JUMPI POP DUP1 PUSH1 0x1 ADD PUSH1 0x0 SWAP1 SLOAD SWAP1 PUSH2 0x100 EXP SWAP1 DIV PUSH1 0xFF AND ISZERO JUMPDEST JUMPDEST DUP1 PUSH2 0x2052 JUMPI POP PUSH1 0x3 PUSH1 0x16 SLOAD EQ JUMPDEST SWAP2 POP POP SWAP1 JUMP JUMPDEST PUSH1 0x9 DUP2 DUP2 SLOAD DUP2 LT PUSH2 0x2065 JUMPI INVALID JUMPDEST SWAP1 PUSH1 0x0 MSTORE PUSH1 0x20 PUSH1 0x0 KECCAK256 ADD PUSH1 0x0 SWAP2 POP SLOAD SWAP1 PUSH2 0x100 EXP SWAP1 DIV PUSH20 0xFFFFFFFFFFFFFFFFFFFFFFFFFFFFFFFFFFFFFFFF AND DUP2 JUMP JUMPDEST PUSH1 0x12 SLOAD DUP2 JUMP JUMPDEST PUSH1 0x6 SLOAD TIMESTAMP LT PUSH2 0x20F4 JUMPI PUSH1 0x40 MLOAD PUSH32 0x8C379A000000000000000000000000000000000000000000000000000000000 DUP2 MSTORE PUSH1 0x4 ADD DUP1 DUP1 PUSH1 0x20 ADD DUP3 DUP2 SUB DUP3 MSTORE PUSH1 0x2B DUP2 MSTORE PUSH1 0x20 ADD DUP1 PUSH2 0x2983 PUSH1 0x2B SWAP2 CODECOPY PUSH1 0x40 ADD SWAP2 POP POP PUSH1 0x40 MLOAD DUP1 SWAP2 SUB SWAP1 REVERT JUMPDEST PUSH1 0x0 PUSH1 0x7 DUP5 DUP2 SLOAD DUP2 LT PUSH2 0x2103 JUMPI INVALID JUMPDEST SWAP1 PUSH1 0x0 MSTORE PUSH1 0x20 PUSH1 0x0 KECCAK256 SWAP1 PUSH1 0x3 MUL ADD SWAP1 POP CALLER PUSH20 0xFFFFFFFFFFFFFFFFFFFFFFFFFFFFFFFFFFFFFFFF AND DUP2 PUSH1 0x1 ADD PUSH1 0x1 SWAP1 SLOAD SWAP1 PUSH2 0x100 EXP SWAP1 DIV PUSH20 0xFFFFFFFFFFFFFFFFFFFFFFFFFFFFFFFFFFFFFFFF AND PUSH20 0xFFFFFFFFFFFFFFFFFFFFFFFFFFFFFFFFFFFFFFFF AND EQ PUSH2 0x21BB JUMPI PUSH1 0x40 MLOAD PUSH32 0x8C379A000000000000000000000000000000000000000000000000000000000 DUP2 MSTORE PUSH1 0x4 ADD DUP1 DUP1 PUSH1 0x20 ADD DUP3 DUP2 SUB DUP3 MSTORE PUSH1 0x3F DUP2 MSTORE PUSH1 0x20 ADD DUP1 PUSH2 0x2843 PUSH1 0x3F SWAP2 CODECOPY PUSH1 0x40 ADD SWAP2 POP POP PUSH1 0x40 MLOAD DUP1 SWAP2 SUB SWAP1 REVERT JUMPDEST PUSH1 0x0 DUP2 PUSH1 0x2 ADD SLOAD EQ PUSH2 0x2218 JUMPI PUSH1 0x40 MLOAD PUSH32 0x8C379A000000000000000000000000000000000000000000000000000000000 DUP2 MSTORE PUSH1 0x4 ADD DUP1 DUP1 PUSH1 0x20 ADD DUP3 DUP2 SUB DUP3 MSTORE PUSH1 0x37 DUP2 MSTORE PUSH1 0x20 ADD DUP1 PUSH2 0x27C6 PUSH1 0x37 SWAP2 CODECOPY PUSH1 0x40 ADD SWAP2 POP POP PUSH1 0x40 MLOAD DUP1 SWAP2 SUB SWAP1 REVERT JUMPDEST DUP3 DUP2 PUSH1 0x0 ADD SWAP1 DUP1 MLOAD SWAP1 PUSH1 0x20 ADD SWAP1 PUSH2 0x2230 SWAP3 SWAP2 SWAP1 PUSH2 0x26EA JUMP JUMPDEST POP DUP2 DUP2 PUSH1 0x1 ADD PUSH1 0x0 PUSH2 0x100 EXP DUP2 SLOAD DUP2 PUSH1 0xFF MUL NOT AND SWAP1 DUP4 ISZERO ISZERO MUL OR SWAP1 SSTORE POP POP POP POP POP JUMP JUMPDEST PUSH1 0x0 SELFBALANCE SWAP1 POP SWAP1 JUMP JUMPDEST PUSH1 0x15 PUSH1 0x0 SWAP1 SLOAD SWAP1 PUSH2 0x100 EXP SWAP1 DIV PUSH1 0xFF AND DUP2 JUMP JUMPDEST PUSH1 0xE SLOAD DUP2 JUMP JUMPDEST PUSH1 0x0 DUP1 PUSH1 0x0 DUP1 PUSH1 0x0 DUP1 PUSH1 0x0 DUP1 PUSH1 0x0 DUP1 PUSH1 0x0 PUSH1 0x4 PUSH1 0x0 SWAP1 SLOAD SWAP1 PUSH2 0x100 EXP SWAP1 DIV PUSH20 0xFFFFFFFFFFFFFFFFFFFFFFFFFFFFFFFFFFFFFFFF AND PUSH1 0x5 SLOAD PUSH1 0x6 SLOAD PUSH1 0x15 PUSH1 0x0 SWAP1 SLOAD SWAP1 PUSH2 0x100 EXP SWAP1 DIV PUSH1 0xFF AND PUSH2 0x22C6 PUSH2 0x16CB JUMP JUMPDEST PUSH1 0x14 PUSH1 0x0 CALLER PUSH20 0xFFFFFFFFFFFFFFFFFFFFFFFFFFFFFFFFFFFFFFFF AND PUSH20 0xFFFFFFFFFFFFFFFFFFFFFFFFFFFFFFFFFFFFFFFF AND DUP2 MSTORE PUSH1 0x20 ADD SWAP1 DUP2 MSTORE PUSH1 0x20 ADD PUSH1 0x0 KECCAK256 PUSH1 0x0 SWAP1 SLOAD SWAP1 PUSH2 0x100 EXP SWAP1 DIV PUSH1 0xFF AND SELFBALANCE PUSH2 0x231C PUSH2 0x129E JUMP JUMPDEST PUSH2 0x2324 PUSH2 0x177E JUMP JUMPDEST PUSH1 0x10 SLOAD PUSH1 0x11 SLOAD SWAP11 POP SWAP11 POP SWAP11 POP SWAP11 POP SWAP11 POP SWAP11 POP SWAP11 POP SWAP11 POP SWAP11 POP SWAP11 POP SWAP11 POP SWAP1 SWAP2 SWAP3 SWAP4 SWAP5 SWAP6 SWAP7 SWAP8 SWAP9 SWAP10 SWAP11 JUMP JUMPDEST PUSH1 0x0 DUP1 DUP3 ISZERO PUSH2 0x2360 JUMPI PUSH1 0xC SLOAD SWAP1 POP PUSH2 0x2366 JUMP JUMPDEST PUSH1 0xD SLOAD SWAP1 POP JUMPDEST PUSH1 0x0 DUP2 GT PUSH2 0x2378 JUMPI PUSH1 0x0 SWAP2 POP POP PUSH2 0x23C8 JUMP JUMPDEST PUSH1 0x15 PUSH1 0x0 SWAP1 SLOAD SWAP1 PUSH2 0x100 EXP SWAP1 DIV PUSH1 0xFF AND ISZERO PUSH2 0x23B8 JUMPI PUSH1 0x3 PUSH1 0x16 SLOAD EQ ISZERO PUSH2 0x23A2 JUMPI PUSH1 0xD SLOAD PUSH1 0xC SLOAD ADD SWAP1 POP JUMPDEST DUP1 DUP5 PUSH1 0xE SLOAD MUL DUP2 PUSH2 0x23AF JUMPI INVALID JUMPDEST DIV SWAP2 POP POP PUSH2 0x23C8 JUMP JUMPDEST DUP1 DUP5 SELFBALANCE MUL DUP2 PUSH2 0x23C3 JUMPI INVALID JUMPDEST DIV SWAP2 POP POP JUMPDEST SWAP3 SWAP2 POP POP JUMP JUMPDEST PUSH1 0x0 PUSH1 0x16 SLOAD EQ PUSH2 0x2429 JUMPI PUSH1 0x40 MLOAD PUSH32 0x8C379A000000000000000000000000000000000000000000000000000000000 DUP2 MSTORE PUSH1 0x4 ADD DUP1 DUP1 PUSH1 0x20 ADD DUP3 DUP2 SUB DUP3 MSTORE PUSH1 0x22 DUP2 MSTORE PUSH1 0x20 ADD DUP1 PUSH2 0x2A26 PUSH1 0x22 SWAP2 CODECOPY PUSH1 0x40 ADD SWAP2 POP POP PUSH1 0x40 MLOAD DUP1 SWAP2 SUB SWAP1 REVERT JUMPDEST PUSH1 0x0 ISZERO ISZERO PUSH1 0x15 PUSH1 0x0 SWAP1 SLOAD SWAP1 PUSH2 0x100 EXP SWAP1 DIV PUSH1 0xFF AND ISZERO ISZERO EQ PUSH2 0x2495 JUMPI PUSH1 0x40 MLOAD PUSH32 0x8C379A000000000000000000000000000000000000000000000000000000000 DUP2 MSTORE PUSH1 0x4 ADD DUP1 DUP1 PUSH1 0x20 ADD DUP3 DUP2 SUB DUP3 MSTORE PUSH1 0x25 DUP2 MSTORE PUSH1 0x20 ADD DUP1 PUSH2 0x28BF PUSH1 0x25 SWAP2 CODECOPY PUSH1 0x40 ADD SWAP2 POP POP PUSH1 0x40 MLOAD DUP1 SWAP2 SUB SWAP1 REVERT JUMPDEST PUSH1 0x6 SLOAD TIMESTAMP GT PUSH2 0x24EF JUMPI PUSH1 0x40 MLOAD PUSH32 0x8C379A000000000000000000000000000000000000000000000000000000000 DUP2 MSTORE PUSH1 0x4 ADD DUP1 DUP1 PUSH1 0x20 ADD DUP3 DUP2 SUB DUP3 MSTORE PUSH1 0x40 DUP2 MSTORE PUSH1 0x20 ADD DUP1 PUSH2 0x28E4 PUSH1 0x40 SWAP2 CODECOPY PUSH1 0x40 ADD SWAP2 POP POP PUSH1 0x40 MLOAD DUP1 SWAP2 SUB SWAP1 REVERT JUMPDEST PUSH1 0x0 PUSH2 0x24F9 PUSH2 0x129E JUMP JUMPDEST SWAP1 POP PUSH1 0x0 PUSH2 0x2505 PUSH2 0x177E JUMP JUMPDEST SWAP1 POP DUP1 DUP3 GT ISZERO PUSH2 0x251C JUMPI PUSH1 0x1 PUSH1 0x16 DUP2 SWAP1 SSTORE POP PUSH2 0x253B JUMP JUMPDEST DUP1 DUP3 LT ISZERO PUSH2 0x2531 JUMPI PUSH1 0x2 PUSH1 0x16 DUP2 SWAP1 SSTORE POP PUSH2 0x253A JUMP JUMPDEST PUSH1 0x3 PUSH1 0x16 DUP2 SWAP1 SSTORE POP JUMPDEST JUMPDEST SELFBALANCE PUSH1 0xE DUP2 SWAP1 SSTORE POP PUSH2 0x254A PUSH2 0x254E JUMP JUMPDEST POP POP JUMP JUMPDEST PUSH1 0x1 PUSH1 0x15 PUSH1 0x0 PUSH2 0x100 EXP DUP2 SLOAD DUP2 PUSH1 0xFF MUL NOT AND SWAP1 DUP4 ISZERO ISZERO MUL OR SWAP1 SSTORE POP PUSH1 0x0 PUSH1 0x2 PUSH1 0x0 SWAP1 SLOAD SWAP1 PUSH2 0x100 EXP SWAP1 DIV PUSH20 0xFFFFFFFFFFFFFFFFFFFFFFFFFFFFFFFFFFFFFFFF AND SWAP1 POP DUP1 PUSH20 0xFFFFFFFFFFFFFFFFFFFFFFFFFFFFFFFFFFFFFFFF AND PUSH4 0xE25DB2A4 ADDRESS PUSH1 0x40 MLOAD DUP3 PUSH4 0xFFFFFFFF AND PUSH1 0xE0 SHL DUP2 MSTORE PUSH1 0x4 ADD DUP1 DUP3 PUSH20 0xFFFFFFFFFFFFFFFFFFFFFFFFFFFFFFFFFFFFFFFF AND PUSH20 0xFFFFFFFFFFFFFFFFFFFFFFFFFFFFFFFFFFFFFFFF AND DUP2 MSTORE PUSH1 0x20 ADD SWAP2 POP POP PUSH1 0x0 PUSH1 0x40 MLOAD DUP1 DUP4 SUB DUP2 PUSH1 0x0 DUP8 DUP1 EXTCODESIZE ISZERO DUP1 ISZERO PUSH2 0x260F JUMPI PUSH1 0x0 DUP1 REVERT JUMPDEST POP GAS CALL ISZERO DUP1 ISZERO PUSH2 0x2623 JUMPI RETURNDATASIZE PUSH1 0x0 DUP1 RETURNDATACOPY RETURNDATASIZE PUSH1 0x0 REVERT JUMPDEST POP POP POP POP POP JUMP JUMPDEST PUSH1 0x40 MLOAD DUP1 PUSH1 0x80 ADD PUSH1 0x40 MSTORE DUP1 PUSH1 0x60 DUP2 MSTORE PUSH1 0x20 ADD PUSH1 0x0 ISZERO ISZERO DUP2 MSTORE PUSH1 0x20 ADD PUSH1 0x0 PUSH20 0xFFFFFFFFFFFFFFFFFFFFFFFFFFFFFFFFFFFFFFFF AND DUP2 MSTORE PUSH1 0x20 ADD PUSH1 0x0 DUP2 MSTORE POP SWAP1 JUMP JUMPDEST DUP3 DUP1 SLOAD PUSH1 0x1 DUP2 PUSH1 0x1 AND ISZERO PUSH2 0x100 MUL SUB AND PUSH1 0x2 SWAP1 DIV SWAP1 PUSH1 0x0 MSTORE PUSH1 0x20 PUSH1 0x0 KECCAK256 SWAP1 PUSH1 0x1F ADD PUSH1 0x20 SWAP1 DIV DUP2 ADD SWAP3 DUP3 PUSH1 0x1F LT PUSH2 0x26AB JUMPI DUP1 MLOAD PUSH1 0xFF NOT AND DUP4 DUP1 ADD OR DUP6 SSTORE PUSH2 0x26D9 JUMP JUMPDEST DUP3 DUP1 ADD PUSH1 0x1 ADD DUP6 SSTORE DUP3 ISZERO PUSH2 0x26D9 JUMPI SWAP2 DUP3 ADD JUMPDEST DUP3 DUP2 GT ISZERO PUSH2 0x26D8 JUMPI DUP3 MLOAD DUP3 SSTORE SWAP2 PUSH1 0x20 ADD SWAP2 SWAP1 PUSH1 0x1 ADD SWAP1 PUSH2 0x26BD JUMP JUMPDEST JUMPDEST POP SWAP1 POP PUSH2 0x26E6 SWAP2 SWAP1 PUSH2 0x276A JUMP JUMPDEST POP SWAP1 JUMP JUMPDEST DUP3 DUP1 SLOAD PUSH1 0x1 DUP2 PUSH1 0x1 AND ISZERO PUSH2 0x100 MUL SUB AND PUSH1 0x2 SWAP1 DIV SWAP1 PUSH1 0x0 MSTORE PUSH1 0x20 PUSH1 0x0 KECCAK256 SWAP1 PUSH1 0x1F ADD PUSH1 0x20 SWAP1 DIV DUP2 ADD SWAP3 DUP3 PUSH1 0x1F LT PUSH2 0x272B JUMPI DUP1 MLOAD PUSH1 0xFF NOT AND DUP4 DUP1 ADD OR DUP6 SSTORE PUSH2 0x2759 JUMP JUMPDEST DUP3 DUP1 ADD PUSH1 0x1 ADD DUP6 SSTORE DUP3 ISZERO PUSH2 0x2759 JUMPI SWAP2 DUP3 ADD JUMPDEST DUP3 DUP2 GT ISZERO PUSH2 0x2758 JUMPI DUP3 MLOAD DUP3 SSTORE SWAP2 PUSH1 0x20 ADD SWAP2 SWAP1 PUSH1 0x1 ADD SWAP1 PUSH2 0x273D JUMP JUMPDEST JUMPDEST POP SWAP1 POP PUSH2 0x2766 SWAP2 SWAP1 PUSH2 0x276A JUMP JUMPDEST POP SWAP1 JUMP JUMPDEST PUSH2 0x278C SWAP2 SWAP1 JUMPDEST DUP1 DUP3 GT ISZERO PUSH2 0x2788 JUMPI PUSH1 0x0 DUP2 PUSH1 0x0 SWAP1 SSTORE POP PUSH1 0x1 ADD PUSH2 0x2770 JUMP JUMPDEST POP SWAP1 JUMP JUMPDEST SWAP1 JUMP INVALID MSIZE PUSH16 0x752063616E206F6E6C7920636C61696D KECCAK256 PUSH26 0x6F75722072657761726473206166746572207468652074696D65 KECCAK256 PUSH17 0x6572696F642E417267756D656E74206861 PUSH20 0x20616C7265616479206265656E20766F74656420 PUSH16 0x6E2E2043616E6E6F74206265206D6F64 PUSH10 0x666965642E596F75206D PUSH22 0x737420696E76657374206174206C6561737420746865 KECCAK256 PUSH14 0x696E696D756D20616D6F756E7420 PUSH2 0x7320 PUSH5 0x6563696465 PUSH5 0x2062792074 PUSH9 0x652063726561746F72 0x2E MSIZE PUSH16 0x75206D75737420626520746865206372 PUSH6 0x61746F72206F PUSH7 0x20746869732061 PUSH19 0x67756D656E7420746F206D6F64696679206974 PUSH20 0x20636F6E74656E7473546865206D6F6E65792067 PUSH16 0x657320746F207468652070656F706C65 KECCAK256 PUSH24 0x686F2070617274696369706174656420696E207468652070 PUSH19 0x6F636573732E546F70696320697320616C7265 PUSH2 0x6479 KECCAK256 PUSH14 0x61726B656420617320636F6D706C PUSH6 0x7465642E4D61 PUSH11 0x6F726974792063616E206F PUSH15 0x6C792062652063616C63756C617465 PUSH5 0x2061667465 PUSH19 0x207468652074696D6520706572696F64206861 PUSH20 0x20656E6465642E596F75206861766520616C7265 PUSH2 0x6479 KECCAK256 PUSH4 0x72656174 PUSH6 0x6420616E2061 PUSH19 0x67756D656E742E596F75206D75737420626520 PUSH21 0x68652063726561746F72206F66207468697320546F PUSH17 0x696320696E206F7264657220746F20646F KECCAK256 PUSH21 0x6869732E54686520706572696F6420666F72207468 PUSH6 0x20546F706963 KECCAK256 PUSH9 0x617320616C72656164 PUSH26 0x20656E6465642E596F7520646964206E6F7420766F7465206475 PUSH19 0x696E672074686520706572696F64206F722074 PUSH9 0x6520706572696F6420 PUSH10 0x73206E6F74206F766572 0x2E MSIZE PUSH16 0x752063616E6E6F7420766F746520666F PUSH19 0x2074686520617267756D656E742067656E6572 PUSH2 0x7465 PUSH5 0x2062792074 PUSH9 0x6520636F6E74726163 PUSH21 0x2E4D616A6F726974792068617320616C7265616479 KECCAK256 PUSH3 0x65656E KECCAK256 PUSH5 0x6563696465 PUSH5 0x2E596F7520 PUSH5 0x6F6E277420 PUSH9 0x617665207468697320 PUSH21 0x6F706963206F6E20796F757220617661696C61626C PUSH6 0x206C69737420 PUSH16 0x7220796F75206861766520616C726561 PUSH5 0x7920766F74 PUSH6 0x642EA265627A PUSH27 0x72315820094695BA5D4DFD0CCBE1BDA83854FA9C868F957ECB9E6C DUP7 NOT SWAP1 POP XOR XOR PUSH23 0x630E64736F6C63430005100032596F7520686176652061 PUSH13 0x72656164792063726561746564 KECCAK256 PUSH2 0x6E20 PUSH2 0x7267 PUSH22 0x6D656E742E54686520706572696F6420666F72207468 PUSH6 0x20546F706963 KECCAK256 PUSH9 0x617320616C72656164 PUSH26 0x20656E6465642E596F752068617665206E6F742063686F73656E KECCAK256 PUSH26 0x65742077686574686572207468652073746174656D656E742069 PUSH20 0x2074727565206F722066616C7365556E6F726465 PUSH19 0x65644B65795365742831303029202D204B6579 KECCAK256 PUSH4 0x616E6E6F PUSH21 0x20626520307830596F75206D757374206265207468 PUSH6 0x206372656174 PUSH16 0x72206F66207468697320546F70696320 CHAINID PUSH2 0x6374 PUSH16 0x727920696E206F7264657220746F2064 PUSH16 0x20746869732E4120546F706963204173 PUSH20 0x69676E657220636F6E7472616374206164647265 PUSH20 0x73206D7573742062652061737369676E65642062 PUSH6 0x666F72652062 PUSH6 0x696E67206162 PUSH13 0x6520746F206372656174652061 PUSH15 0x79206E657720746F706963732E556E PUSH16 0x7264657265644B657953657428313032 0x29 KECCAK256 0x2D KECCAK256 0x4B PUSH6 0x7920646F6573 KECCAK256 PUSH15 0x6F7420657869737420696E20746865 KECCAK256 PUSH20 0x65742E556E6F7264657265644B65795365742831 ADDRESS BALANCE 0x29 KECCAK256 0x2D KECCAK256 0x4B PUSH6 0x7920616C7265 PUSH2 0x6479 KECCAK256 PUSH6 0x786973747320 PUSH10 0x6E20746865207365742E MSIZE PUSH16 0x75206D75737420626520616E2061646D PUSH10 0x6E20696E206F72646572 KECCAK256 PUSH21 0x6F20646F20746869732E43616E2774206765742061 KECCAK256 PUSH21 0x6F706963207468617420646F65736E277420657869 PUSH20 0x742E4F6E6C792074686520746F70696320636F6E PUSH21 0x7261637420697473656C662063616E20636F6D706C PUSH6 0x746520746865 KECCAK256 PUSH4 0x6F6E7472 PUSH2 0x6374 0x2E LOG2 PUSH6 0x627A7A723158 KECCAK256 PUSH19 0x26ABED7B8E8B8AC640807AD84D1E3E65A4D01D DUP11 0xEE 0xCE PUSH3 0xA1F077 DUP6 SHL 0xED 0xD1 SWAP9 PUSH5 0x736F6C6343 STOP SDIV LT STOP ORIGIN "},"gasEstimates":{"creation":{"codeDepositCost":"4065000","executionCost":"infinite","totalCost":"infinite"},"external":{"addAdmin(address)":"infinite","addressToBytes32(address)":"407","adminRemoveDeployedTopic(address)":"infinite","bytes32ToAddress(bytes32)":"341","checkIfValidTopicAddress(address)":"1290","createTopic(string,uint256,uint256)":"infinite","getCompletedTopicsBetweenIndices(uint256,uint256)":"infinite","getDeployedTopic(uint256)":"infinite","getNumberOfCompletedContracts()":"1138","getNumberOfDeployedContracts()":"1136","getTopicsAtIndices(uint256[])":"infinite","getTopicsBetweenIndices(uint256,uint256)":"infinite","markTopicAsCompleted(address)":"infinite","owner()":"1076","removeAdmin()":"21167","updateTopicAssignerAddress(address)":"infinite"},"internal":{"convertKeyListToTopicList(bytes32[] memory)":"infinite","removeDeployedTopic(address)":"infinite"}},"methodIdentifiers":{"addAdmin(address)":"70480275","addressToBytes32(address)":"82c947b7","adminRemoveDeployedTopic(address)":"5159467b","bytes32ToAddress(bytes32)":"5ced058e","checkIfValidTopicAddress(address)":"33cfe2ce","createTopic(string,uint256,uint256)":"0a5e47bb","getCompletedTopicsBetweenIndices(uint256,uint256)":"73cd5cce","getDeployedTopic(uint256)":"8fdb9d72","getNumberOfCompletedContracts()":"405b21f7","getNumberOfDeployedContracts()":"dfb09700","getTopicsAtIndices(uint256[])":"dc983f08","getTopicsBetweenIndices(uint256,uint256)":"9d378fe9","markTopicAsCompleted(address)":"e25db2a4","owner()":"8da5cb5b","removeAdmin()":"9a202d47","updateTopicAssignerAddress(address)":"9c6472c0"}},"storageLayout":{"storage":[{"astId":2828,"contract":"TopicFactory.sol:TopicFactory","label":"topicSet","offset":0,"slot":"0","type":"t_struct(Set)9_storage"},{"astId":2830,"contract":"TopicFactory.sol:TopicFactory","label":"completedTopicSet","offset":0,"slot":"2","type":"t_struct(Set)9_storage"},{"astId":2834,"contract":"TopicFactory.sol:TopicFactory","label":"deployedTopics","offset":0,"slot":"4","type":"t_mapping(t_bytes32,t_address)"},{"astId":2838,"contract":"TopicFactory.sol:TopicFactory","label":"completedTopics","offset":0,"slot":"5","type":"t_mapping(t_bytes32,t_address)"},{"astId":2842,"contract":"TopicFactory.sol:TopicFactory","label":"isValidTopic","offset":0,"slot":"6","type":"t_mapping(t_address,t_bool)"},{"astId":2844,"contract":"TopicFactory.sol:TopicFactory","label":"owner","offset":0,"slot":"7","type":"t_address"},{"astId":2846,"contract":"TopicFactory.sol:TopicFactory","label":"reputationFactoryAddress","offset":0,"slot":"8","type":"t_address"},{"astId":2848,"contract":"TopicFactory.sol:TopicFactory","label":"topicAssignerAddress","offset":0,"slot":"9","type":"t_address"},{"astId":2852,"contract":"TopicFactory.sol:TopicFactory","label":"isAdmin","offset":0,"slot":"10","type":"t_mapping(t_address,t_bool)"}],"types":{"t_address":{"encoding":"inplace","label":"address","numberOfBytes":"20"},"t_array(t_bytes32)dyn_storage":{"base":"t_bytes32","encoding":"dynamic_array","label":"bytes32[]","numberOfBytes":"32"},"t_bool":{"encoding":"inplace","label":"bool","numberOfBytes":"1"},"t_bytes32":{"encoding":"inplace","label":"bytes32","numberOfBytes":"32"},"t_mapping(t_address,t_bool)":{"encoding":"mapping","key":"t_address","label":"mapping(address => bool)","numberOfBytes":"32","value":"t_bool"},"t_mapping(t_bytes32,t_address)":{"encoding":"mapping","key":"t_bytes32","label":"mapping(bytes32 => address)","numberOfBytes":"32","value":"t_address"},"t_mapping(t_bytes32,t_uint256)":{"encoding":"mapping","key":"t_bytes32","label":"mapping(bytes32 => uint256)","numberOfBytes":"32","value":"t_uint256"},"t_struct(Set)9_storage":{"encoding":"inplace","label":"struct HitchensUnorderedKeySetLib.Set","members":[{"astId":5,"contract":"TopicFactory.sol:TopicFactory","label":"keyPointers","offset":0,"slot":"0","type":"t_mapping(t_bytes32,t_uint256)"},{"astId":8,"contract":"TopicFactory.sol:TopicFactory","label":"keyList","offset":0,"slot":"1","type":"t_array(t_bytes32)dyn_storage"}],"numberOfBytes":"64"},"t_uint256":{"encoding":"inplace","label":"uint256","numberOfBytes":"32"}}},"userdoc":{"methods":{}}}