{"abi":[{"inputs":[{"internalType":"string","name":"topicContent","type":"string"},{"internalType":"uint256","name":"minInvestment","type":"uint256"},{"internalType":"uint256","name":"hoursAvailable","type":"uint256"},{"internalType":"address","name":"sender","type":"address"}],"payable":false,"stateMutability":"nonpayable","type":"constructor"},{"payable":true,"stateMutability":"payable","type":"fallback"},{"constant":true,"inputs":[{"internalType":"uint256","name":"","type":"uint256"}],"name":"arguments","outputs":[{"internalType":"string","name":"content","type":"string"},{"internalType":"bool","name":"isTrue","type":"bool"},{"internalType":"address","name":"creator","type":"address"},{"internalType":"uint256","name":"voteCount","type":"uint256"}],"payable":false,"stateMutability":"view","type":"function"},{"constant":false,"inputs":[],"name":"calculateMajority","outputs":[],"payable":false,"stateMutability":"nonpayable","type":"function"},{"constant":false,"inputs":[],"name":"claim","outputs":[],"payable":false,"stateMutability":"nonpayable","type":"function"},{"constant":true,"inputs":[],"name":"content","outputs":[{"internalType":"string","name":"","type":"string"}],"payable":false,"stateMutability":"view","type":"function"},{"constant":false,"inputs":[{"internalType":"string","name":"argumentContent","type":"string"},{"internalType":"bool","name":"belief","type":"bool"}],"name":"createArgument","outputs":[],"payable":false,"stateMutability":"nonpayable","type":"function"},{"constant":true,"inputs":[{"internalType":"address","name":"","type":"address"}],"name":"createdArgument","outputs":[{"internalType":"uint256","name":"","type":"uint256"}],"payable":false,"stateMutability":"view","type":"function"},{"constant":true,"inputs":[],"name":"creator","outputs":[{"internalType":"address","name":"","type":"address"}],"payable":false,"stateMutability":"view","type":"function"},{"constant":false,"inputs":[],"name":"creatorClaim","outputs":[],"payable":false,"stateMutability":"nonpayable","type":"function"},{"constant":true,"inputs":[],"name":"endTime","outputs":[{"internalType":"uint256","name":"","type":"uint256"}],"payable":false,"stateMutability":"view","type":"function"},{"constant":true,"inputs":[],"name":"getArgumentCount","outputs":[{"internalType":"uint256","name":"","type":"uint256"}],"payable":false,"stateMutability":"view","type":"function"},{"constant":true,"inputs":[],"name":"getDetails","outputs":[{"internalType":"address","name":"","type":"address"},{"internalType":"bool","name":"","type":"bool"},{"internalType":"uint256","name":"","type":"uint256"},{"internalType":"uint256","name":"","type":"uint256"},{"internalType":"bool","name":"","type":"bool"}],"payable":false,"stateMutability":"view","type":"function"},{"constant":true,"inputs":[],"name":"getLieCount","outputs":[{"internalType":"uint256","name":"","type":"uint256"}],"payable":false,"stateMutability":"view","type":"function"},{"constant":true,"inputs":[],"name":"getTruthCount","outputs":[{"internalType":"uint256","name":"","type":"uint256"}],"payable":false,"stateMutability":"view","type":"function"},{"constant":true,"inputs":[],"name":"isCompleted","outputs":[{"internalType":"bool","name":"","type":"bool"}],"payable":false,"stateMutability":"view","type":"function"},{"constant":true,"inputs":[],"name":"isPublic","outputs":[{"internalType":"bool","name":"","type":"bool"}],"payable":false,"stateMutability":"view","type":"function"},{"constant":true,"inputs":[{"internalType":"uint256","name":"","type":"uint256"}],"name":"lieVoters","outputs":[{"internalType":"address payable","name":"","type":"address"}],"payable":false,"stateMutability":"view","type":"function"},{"constant":true,"inputs":[],"name":"majority","outputs":[{"internalType":"uint256","name":"","type":"uint256"}],"payable":false,"stateMutability":"view","type":"function"},{"constant":false,"inputs":[],"name":"makePublic","outputs":[],"payable":false,"stateMutability":"nonpayable","type":"function"},{"constant":true,"inputs":[],"name":"minimumInvestment","outputs":[{"internalType":"uint256","name":"","type":"uint256"}],"payable":false,"stateMutability":"view","type":"function"},{"constant":false,"inputs":[{"internalType":"uint256","name":"argumentIndex","type":"uint256"},{"internalType":"string","name":"newContent","type":"string"}],"name":"modifyArgument","outputs":[],"payable":false,"stateMutability":"nonpayable","type":"function"},{"constant":true,"inputs":[],"name":"payPerIndividual","outputs":[{"internalType":"uint256","name":"","type":"uint256"}],"payable":false,"stateMutability":"view","type":"function"},{"constant":true,"inputs":[{"internalType":"uint256","name":"","type":"uint256"}],"name":"truthVoters","outputs":[{"internalType":"address payable","name":"","type":"address"}],"payable":false,"stateMutability":"view","type":"function"},{"constant":false,"inputs":[{"internalType":"uint256","name":"argumentIndex","type":"uint256"}],"name":"vote","outputs":[],"payable":true,"stateMutability":"payable","type":"function"},{"constant":true,"inputs":[{"internalType":"address","name":"","type":"address"}],"name":"voted","outputs":[{"internalType":"uint256","name":"","type":"uint256"}],"payable":false,"stateMutability":"view","type":"function"}],"devdoc":{"methods":{}},"evm":{"assembly":"    /* \"Topic.sol\":28:8265  contract Topic {\r... */\n  mstore(0x40, 0x80)\n    /* \"Topic.sol\":1348:1867  constructor(string memory topicContent, uint minInvestment, uint hoursAvailable, address sender) public {\r... */\n  callvalue\n    /* \"--CODEGEN--\":8:17   */\n  dup1\n    /* \"--CODEGEN--\":5:7   */\n  iszero\n  tag_1\n  jumpi\n    /* \"--CODEGEN--\":30:31   */\n  0x00\n    /* \"--CODEGEN--\":27:28   */\n  dup1\n    /* \"--CODEGEN--\":20:32   */\n  revert\n    /* \"--CODEGEN--\":5:7   */\ntag_1:\n    /* \"Topic.sol\":1348:1867  constructor(string memory topicContent, uint minInvestment, uint hoursAvailable, address sender) public {\r... */\n  pop\n  mload(0x40)\n  sub(codesize, bytecodeSize)\n  dup1\n  bytecodeSize\n  dup4\n  codecopy\n  dup2\n  dup2\n  add\n  0x40\n  mstore\n    /* \"--CODEGEN--\":13:16   */\n  0x80\n    /* \"--CODEGEN--\":8:11   */\n  dup2\n    /* \"--CODEGEN--\":5:17   */\n  lt\n    /* \"--CODEGEN--\":2:4   */\n  iszero\n  tag_2\n  jumpi\n    /* \"--CODEGEN--\":30:31   */\n  0x00\n    /* \"--CODEGEN--\":27:28   */\n  dup1\n    /* \"--CODEGEN--\":20:32   */\n  revert\n    /* \"--CODEGEN--\":2:4   */\ntag_2:\n    /* \"Topic.sol\":1348:1867  constructor(string memory topicContent, uint minInvestment, uint hoursAvailable, address sender) public {\r... */\n  dup2\n  add\n  swap1\n  dup1\n  dup1\n  mload\n  mload(0x40)\n  swap4\n  swap3\n  swap2\n  swap1\n  dup5\n    /* \"--CODEGEN--\":19:30   */\n  0x0100000000\n    /* \"--CODEGEN--\":14:17   */\n  dup3\n    /* \"--CODEGEN--\":11:31   */\n  gt\n    /* \"--CODEGEN--\":8:10   */\n  iszero\n  tag_3\n  jumpi\n    /* \"--CODEGEN--\":44:45   */\n  0x00\n    /* \"--CODEGEN--\":41:42   */\n  dup1\n    /* \"--CODEGEN--\":34:46   */\n  revert\n    /* \"--CODEGEN--\":8:10   */\ntag_3:\n    /* \"--CODEGEN--\":71:82   */\n  dup4\n    /* \"--CODEGEN--\":66:69   */\n  dup3\n    /* \"--CODEGEN--\":62:83   */\n  add\n    /* \"--CODEGEN--\":55:83   */\n  swap2\n  pop\n    /* \"--CODEGEN--\":123:127   */\n  0x20\n    /* \"--CODEGEN--\":118:121   */\n  dup3\n    /* \"--CODEGEN--\":114:128   */\n  add\n    /* \"--CODEGEN--\":159:168   */\n  dup6\n    /* \"--CODEGEN--\":141:157   */\n  dup2\n    /* \"--CODEGEN--\":138:169   */\n  gt\n    /* \"--CODEGEN--\":135:137   */\n  iszero\n  tag_4\n  jumpi\n    /* \"--CODEGEN--\":182:183   */\n  0x00\n    /* \"--CODEGEN--\":179:180   */\n  dup1\n    /* \"--CODEGEN--\":172:184   */\n  revert\n    /* \"--CODEGEN--\":135:137   */\ntag_4:\n    /* \"--CODEGEN--\":219:222   */\n  dup3\n    /* \"--CODEGEN--\":213:223   */\n  mload\n    /* \"--CODEGEN--\":330:339   */\n  dup7\n    /* \"--CODEGEN--\":325:326   */\n  0x01\n    /* \"--CODEGEN--\":311:323   */\n  dup3\n    /* \"--CODEGEN--\":307:327   */\n  mul\n    /* \"--CODEGEN--\":289:305   */\n  dup4\n    /* \"--CODEGEN--\":285:328   */\n  add\n    /* \"--CODEGEN--\":282:340   */\n  gt\n    /* \"--CODEGEN--\":261:272   */\n  0x0100000000\n    /* \"--CODEGEN--\":247:259   */\n  dup3\n    /* \"--CODEGEN--\":244:273   */\n  gt\n    /* \"--CODEGEN--\":233:348   */\n  or\n    /* \"--CODEGEN--\":230:232   */\n  iszero\n  tag_5\n  jumpi\n    /* \"--CODEGEN--\":361:362   */\n  0x00\n    /* \"--CODEGEN--\":358:359   */\n  dup1\n    /* \"--CODEGEN--\":351:363   */\n  revert\n    /* \"--CODEGEN--\":230:232   */\ntag_5:\n    /* \"--CODEGEN--\":384:396   */\n  dup1\n    /* \"--CODEGEN--\":379:382   */\n  dup4\n    /* \"--CODEGEN--\":372:397   */\n  mstore\n    /* \"--CODEGEN--\":420:424   */\n  0x20\n    /* \"--CODEGEN--\":415:418   */\n  dup4\n    /* \"--CODEGEN--\":411:425   */\n  add\n    /* \"--CODEGEN--\":404:425   */\n  swap3\n  pop\n    /* \"--CODEGEN--\":0:432   */\n  pop\n  pop\n    /* \"Topic.sol\":1348:1867  constructor(string memory topicContent, uint minInvestment, uint hoursAvailable, address sender) public {\r... */\n  swap1\n  dup1\n  mload\n  swap1\n  0x20\n  add\n  swap1\n  dup1\n  dup4\n  dup4\n    /* \"--CODEGEN--\":23:24   */\n  0x00\n    /* \"--CODEGEN--\":8:108   */\ntag_6:\n    /* \"--CODEGEN--\":33:36   */\n  dup4\n    /* \"--CODEGEN--\":30:31   */\n  dup2\n    /* \"--CODEGEN--\":27:37   */\n  lt\n    /* \"--CODEGEN--\":8:108   */\n  iszero\n  tag_8\n  jumpi\n    /* \"--CODEGEN--\":99:100   */\n  dup1\n    /* \"--CODEGEN--\":94:97   */\n  dup3\n    /* \"--CODEGEN--\":90:101   */\n  add\n    /* \"--CODEGEN--\":84:102   */\n  mload\n    /* \"--CODEGEN--\":80:81   */\n  dup2\n    /* \"--CODEGEN--\":75:78   */\n  dup5\n    /* \"--CODEGEN--\":71:82   */\n  add\n    /* \"--CODEGEN--\":64:103   */\n  mstore\n    /* \"--CODEGEN--\":52:54   */\n  0x20\n    /* \"--CODEGEN--\":49:50   */\n  dup2\n    /* \"--CODEGEN--\":45:55   */\n  add\n    /* \"--CODEGEN--\":40:55   */\n  swap1\n  pop\n    /* \"--CODEGEN--\":8:108   */\n  jump(tag_6)\ntag_8:\n    /* \"--CODEGEN--\":12:26   */\n  pop\n    /* \"Topic.sol\":1348:1867  constructor(string memory topicContent, uint minInvestment, uint hoursAvailable, address sender) public {\r... */\n  pop\n  pop\n  pop\n  swap1\n  pop\n  swap1\n  dup2\n  add\n  swap1\n  0x1f\n  and\n  dup1\n  iszero\n  tag_9\n  jumpi\n  dup1\n  dup3\n  sub\n  dup1\n  mload\n  0x01\n  dup4\n  0x20\n  sub\n  0x0100\n  exp\n  sub\n  not\n  and\n  dup2\n  mstore\n  0x20\n  add\n  swap2\n  pop\ntag_9:\n  pop\n  0x40\n  mstore\n  0x20\n  add\n  dup1\n  mload\n  swap1\n  0x20\n  add\n  swap1\n  swap3\n  swap2\n  swap1\n  dup1\n  mload\n  swap1\n  0x20\n  add\n  swap1\n  swap3\n  swap2\n  swap1\n  dup1\n  mload\n  swap1\n  0x20\n  add\n  swap1\n  swap3\n  swap2\n  swap1\n  pop\n  pop\n  pop\n    /* \"Topic.sol\":1473:1485  topicContent */\n  dup4\n    /* \"Topic.sol\":1463:1470  content */\n  0x00\n    /* \"Topic.sol\":1463:1485  content = topicContent */\n  swap1\n  dup1\n  mload\n  swap1\n  0x20\n  add\n  swap1\n  tag_12\n  swap3\n  swap2\n  swap1\n  tag_13\n  jump\t// in\ntag_12:\n  pop\n    /* \"Topic.sol\":1516:1529  minInvestment */\n  dup3\n    /* \"Topic.sol\":1496:1513  minimumInvestment */\n  0x02\n    /* \"Topic.sol\":1496:1529  minimumInvestment = minInvestment */\n  dup2\n  swap1\n  sstore\n  pop\n    /* \"Topic.sol\":1550:1556  sender */\n  dup1\n    /* \"Topic.sol\":1540:1547  creator */\n  0x01\n  0x00\n    /* \"Topic.sol\":1540:1556  creator = sender */\n  0x0100\n  exp\n  dup2\n  sload\n  dup2\n  0xffffffffffffffffffffffffffffffffffffffff\n  mul\n  not\n  and\n  swap1\n  dup4\n  0xffffffffffffffffffffffffffffffffffffffff\n  and\n  mul\n  or\n  swap1\n  sstore\n  pop\n    /* \"Topic.sol\":1578:1583  false */\n  0x00\n    /* \"Topic.sol\":1567:1575  isPublic */\n  0x01\n  0x14\n    /* \"Topic.sol\":1567:1583  isPublic = false */\n  0x0100\n  exp\n  dup2\n  sload\n  dup2\n  0xff\n  mul\n  not\n  and\n  swap1\n  dup4\n  iszero\n  iszero\n  mul\n  or\n  swap1\n  sstore\n  pop\n    /* \"Topic.sol\":1605:1606  0 */\n  0x00\n    /* \"Topic.sol\":1594:1602  majority */\n  0x0a\n    /* \"Topic.sol\":1594:1606  majority = 0 */\n  dup2\n  swap1\n  sstore\n  pop\n    /* \"Topic.sol\":1636:1637  0 */\n  0x00\n    /* \"Topic.sol\":1617:1633  payPerIndividual */\n  0x0b\n    /* \"Topic.sol\":1617:1637  payPerIndividual = 0 */\n  dup2\n  swap1\n  sstore\n  pop\n    /* \"Topic.sol\":1694:1703  1 seconds */\n  0x01\n    /* \"Topic.sol\":1676:1690  hoursAvailable */\n  dup3\n    /* \"Topic.sol\":1676:1703  hoursAvailable  * 1 seconds */\n  mul\n    /* \"Topic.sol\":1658:1673  block.timestamp */\n  timestamp\n    /* \"Topic.sol\":1658:1703  block.timestamp + hoursAvailable  * 1 seconds */\n  add\n    /* \"Topic.sol\":1648:1655  endTime */\n  0x03\n    /* \"Topic.sol\":1648:1703  endTime = block.timestamp + hoursAvailable  * 1 seconds */\n  dup2\n  swap1\n  sstore\n  pop\n    /* \"Topic.sol\":1772:1859  createArgument('You have not chosen yet whether the statement is true or false', false) */\n  tag_14\n  mload(0x40)\n  dup1\n  0x60\n  add\n  0x40\n  mstore\n  dup1\n  0x3e\n  dup2\n  mstore\n  0x20\n  add\n  data_aa34df7392f94c823c9355455ea589580c646b3576ea8448d1271c2c6cadfb70\n  0x3e\n  swap2\n  codecopy\n    /* \"Topic.sol\":1853:1858  false */\n  0x00\n    /* \"Topic.sol\":1772:1786  createArgument */\n  shl(0x20, tag_15)\n    /* \"Topic.sol\":1772:1859  createArgument('You have not chosen yet whether the statement is true or false', false) */\n  0x20\n  shr\n  jump\t// in\ntag_14:\n    /* \"Topic.sol\":1348:1867  constructor(string memory topicContent, uint minInvestment, uint hoursAvailable, address sender) public {\r... */\n  pop\n  pop\n  pop\n  pop\n    /* \"Topic.sol\":28:8265  contract Topic {\r... */\n  jump(tag_16)\n    /* \"Topic.sol\":2917:3543  function createArgument(string memory argumentContent, bool belief) public _mustBeWithinTimeFrame {\r... */\ntag_15:\n    /* \"Topic.sol\":1227:1234  endTime */\n  sload(0x03)\n    /* \"Topic.sol\":1209:1224  block.timestamp */\n  timestamp\n    /* \"Topic.sol\":1209:1234  block.timestamp < endTime */\n  lt\n    /* \"Topic.sol\":1201:1282  require(block.timestamp < endTime, 'The period for the Topic has already ended.') */\n  tag_18\n  jumpi\n  mload(0x40)\n  0x08c379a000000000000000000000000000000000000000000000000000000000\n  dup2\n  mstore\n  0x04\n  add\n  dup1\n  dup1\n  0x20\n  add\n  dup3\n  dup2\n  sub\n  dup3\n  mstore\n  0x2b\n  dup2\n  mstore\n  0x20\n  add\n  dup1\n  data_9f7f122b70f117f8950311c325d9279ba88d6a0d2b593ed4f11b7663b9f48d07\n  0x2b\n  swap2\n  codecopy\n  0x40\n  add\n  swap2\n  pop\n  pop\n  mload(0x40)\n  dup1\n  swap2\n  sub\n  swap1\n  revert\ntag_18:\n    /* \"Topic.sol\":3196:3197  0 */\n  0x00\n    /* \"Topic.sol\":3165:3180  createdArgument */\n  0x06\n    /* \"Topic.sol\":3165:3192  createdArgument[msg.sender] */\n  0x00\n    /* \"Topic.sol\":3181:3191  msg.sender */\n  caller\n    /* \"Topic.sol\":3165:3192  createdArgument[msg.sender] */\n  0xffffffffffffffffffffffffffffffffffffffff\n  and\n  0xffffffffffffffffffffffffffffffffffffffff\n  and\n  dup2\n  mstore\n  0x20\n  add\n  swap1\n  dup2\n  mstore\n  0x20\n  add\n  0x00\n  keccak256\n  sload\n    /* \"Topic.sol\":3165:3197  createdArgument[msg.sender] == 0 */\n  eq\n    /* \"Topic.sol\":3157:3239  require(createdArgument[msg.sender] == 0, 'You have already created an argument.') */\n  tag_20\n  jumpi\n  mload(0x40)\n  0x08c379a000000000000000000000000000000000000000000000000000000000\n  dup2\n  mstore\n  0x04\n  add\n  dup1\n  dup1\n  0x20\n  add\n  dup3\n  dup2\n  sub\n  dup3\n  mstore\n  0x25\n  dup2\n  mstore\n  0x20\n  add\n  dup1\n  data_8912f675a50e382e9fd7b592cf1cd9595235c43ce4309904b1bd35e2a18fc4ee\n  0x25\n  swap2\n  codecopy\n  0x40\n  add\n  swap2\n  pop\n  pop\n  mload(0x40)\n  dup1\n  swap2\n  sub\n  swap1\n  revert\ntag_20:\n    /* \"Topic.sol\":3252:3279  Argument memory newArgument */\n  tag_21\n  tag_22\n  jump\t// in\ntag_21:\n    /* \"Topic.sol\":3282:3432  Argument({\r... */\n  mload(0x40)\n  dup1\n  0x80\n  add\n  0x40\n  mstore\n  dup1\n    /* \"Topic.sol\":3315:3330  argumentContent */\n  dup5\n    /* \"Topic.sol\":3282:3432  Argument({\r... */\n  dup2\n  mstore\n  0x20\n  add\n    /* \"Topic.sol\":3353:3359  belief */\n  dup4\n    /* \"Topic.sol\":3282:3432  Argument({\r... */\n  iszero\n  iszero\n  dup2\n  mstore\n  0x20\n  add\n    /* \"Topic.sol\":3383:3393  msg.sender */\n  caller\n    /* \"Topic.sol\":3282:3432  Argument({\r... */\n  0xffffffffffffffffffffffffffffffffffffffff\n  and\n  dup2\n  mstore\n  0x20\n  add\n    /* \"Topic.sol\":3419:3420  0 */\n  0x00\n    /* \"Topic.sol\":3282:3432  Argument({\r... */\n  dup2\n  mstore\n  pop\n    /* \"Topic.sol\":3252:3432  Argument memory newArgument = Argument({\r... */\n  swap1\n  pop\n    /* \"Topic.sol\":3443:3452  arguments */\n  0x04\n    /* \"Topic.sol\":3458:3469  newArgument */\n  dup2\n    /* \"Topic.sol\":3443:3470  arguments.push(newArgument) */\n  swap1\n  dup1\n    /* \"--CODEGEN--\":39:40   */\n  0x01\n    /* \"--CODEGEN--\":33:36   */\n  dup2\n    /* \"--CODEGEN--\":27:37   */\n  sload\n    /* \"--CODEGEN--\":23:41   */\n  add\n    /* \"--CODEGEN--\":57:67   */\n  dup1\n    /* \"--CODEGEN--\":52:55   */\n  dup3\n    /* \"--CODEGEN--\":45:68   */\n  sstore\n    /* \"--CODEGEN--\":79:89   */\n  dup1\n    /* \"--CODEGEN--\":72:89   */\n  swap2\n  pop\n    /* \"--CODEGEN--\":0:93   */\n  pop\n    /* \"Topic.sol\":3443:3470  arguments.push(newArgument) */\n  swap1\n  0x01\n  dup3\n  sub\n  swap1\n  0x00\n  mstore\n  keccak256(0x00, 0x20)\n  swap1\n  0x03\n  mul\n  add\n  0x00\n  swap1\n  swap2\n  swap3\n  swap1\n  swap2\n  swap1\n  swap2\n  pop\n  0x00\n  dup3\n  add\n  mload\n  dup2\n  0x00\n  add\n  swap1\n  dup1\n  mload\n  swap1\n  0x20\n  add\n  swap1\n  tag_24\n  swap3\n  swap2\n  swap1\n  tag_25\n  jump\t// in\ntag_24:\n  pop\n  0x20\n  dup3\n  add\n  mload\n  dup2\n  0x01\n  add\n  exp(0x0100, 0x00)\n  dup2\n  sload\n  dup2\n  0xff\n  mul\n  not\n  and\n  swap1\n  dup4\n  iszero\n  iszero\n  mul\n  or\n  swap1\n  sstore\n  pop\n  0x40\n  dup3\n  add\n  mload\n  dup2\n  0x01\n  add\n  exp(0x0100, 0x01)\n  dup2\n  sload\n  dup2\n  0xffffffffffffffffffffffffffffffffffffffff\n  mul\n  not\n  and\n  swap1\n  dup4\n  0xffffffffffffffffffffffffffffffffffffffff\n  and\n  mul\n  or\n  swap1\n  sstore\n  pop\n  0x60\n  dup3\n  add\n  mload\n  dup2\n  0x02\n  add\n  sstore\n  pop\n  pop\n  pop\n    /* \"Topic.sol\":3532:3533  1 */\n  0x01\n    /* \"Topic.sol\":3511:3529  getArgumentCount() */\n  tag_26\n    /* \"Topic.sol\":3511:3527  getArgumentCount */\n  shl(0x20, tag_27)\n    /* \"Topic.sol\":3511:3529  getArgumentCount() */\n  0x20\n  shr\n  jump\t// in\ntag_26:\n    /* \"Topic.sol\":3511:3533  getArgumentCount() - 1 */\n  sub\n    /* \"Topic.sol\":3481:3496  createdArgument */\n  0x06\n    /* \"Topic.sol\":3481:3508  createdArgument[msg.sender] */\n  0x00\n    /* \"Topic.sol\":3497:3507  msg.sender */\n  caller\n    /* \"Topic.sol\":3481:3508  createdArgument[msg.sender] */\n  0xffffffffffffffffffffffffffffffffffffffff\n  and\n  0xffffffffffffffffffffffffffffffffffffffff\n  and\n  dup2\n  mstore\n  0x20\n  add\n  swap1\n  dup2\n  mstore\n  0x20\n  add\n  0x00\n  keccak256\n    /* \"Topic.sol\":3481:3533  createdArgument[msg.sender] = getArgumentCount() - 1 */\n  dup2\n  swap1\n  sstore\n  pop\n    /* \"Topic.sol\":1293:1294  _ */\n  pop\n    /* \"Topic.sol\":2917:3543  function createArgument(string memory argumentContent, bool belief) public _mustBeWithinTimeFrame {\r... */\n  pop\n  pop\n  jump\t// out\n    /* \"Topic.sol\":3886:3983  function getArgumentCount() public view returns (uint) {\r... */\ntag_27:\n    /* \"Topic.sol\":3935:3939  uint */\n  0x00\n    /* \"Topic.sol\":3959:3968  arguments */\n  0x04\n    /* \"Topic.sol\":3959:3975  arguments.length */\n  dup1\n  sload\n  swap1\n  pop\n    /* \"Topic.sol\":3952:3975  return arguments.length */\n  swap1\n  pop\n    /* \"Topic.sol\":3886:3983  function getArgumentCount() public view returns (uint) {\r... */\n  swap1\n  jump\t// out\n    /* \"Topic.sol\":28:8265  contract Topic {\r... */\ntag_13:\n  dup3\n  dup1\n  sload\n  0x01\n  dup2\n  0x01\n  and\n  iszero\n  0x0100\n  mul\n  sub\n  and\n  0x02\n  swap1\n  div\n  swap1\n  0x00\n  mstore\n  keccak256(0x00, 0x20)\n  swap1\n  0x1f\n  add\n  0x20\n  swap1\n  div\n  dup2\n  add\n  swap3\n  dup3\n  0x1f\n  lt\n  tag_30\n  jumpi\n  dup1\n  mload\n  not(0xff)\n  and\n  dup4\n  dup1\n  add\n  or\n  dup6\n  sstore\n  jump(tag_29)\ntag_30:\n  dup3\n  dup1\n  add\n  0x01\n  add\n  dup6\n  sstore\n  dup3\n  iszero\n  tag_29\n  jumpi\n  swap2\n  dup3\n  add\ntag_31:\n  dup3\n  dup2\n  gt\n  iszero\n  tag_32\n  jumpi\n  dup3\n  mload\n  dup3\n  sstore\n  swap2\n  0x20\n  add\n  swap2\n  swap1\n  0x01\n  add\n  swap1\n  jump(tag_31)\ntag_32:\ntag_29:\n  pop\n  swap1\n  pop\n  tag_33\n  swap2\n  swap1\n  tag_34\n  jump\t// in\ntag_33:\n  pop\n  swap1\n  jump\t// out\ntag_22:\n  mload(0x40)\n  dup1\n  0x80\n  add\n  0x40\n  mstore\n  dup1\n  0x60\n  dup2\n  mstore\n  0x20\n  add\n  iszero(iszero(0x00))\n  dup2\n  mstore\n  0x20\n  add\n  and(0xffffffffffffffffffffffffffffffffffffffff, 0x00)\n  dup2\n  mstore\n  0x20\n  add\n  0x00\n  dup2\n  mstore\n  pop\n  swap1\n  jump\t// out\ntag_25:\n  dup3\n  dup1\n  sload\n  0x01\n  dup2\n  0x01\n  and\n  iszero\n  0x0100\n  mul\n  sub\n  and\n  0x02\n  swap1\n  div\n  swap1\n  0x00\n  mstore\n  keccak256(0x00, 0x20)\n  swap1\n  0x1f\n  add\n  0x20\n  swap1\n  div\n  dup2\n  add\n  swap3\n  dup3\n  0x1f\n  lt\n  tag_36\n  jumpi\n  dup1\n  mload\n  not(0xff)\n  and\n  dup4\n  dup1\n  add\n  or\n  dup6\n  sstore\n  jump(tag_35)\ntag_36:\n  dup3\n  dup1\n  add\n  0x01\n  add\n  dup6\n  sstore\n  dup3\n  iszero\n  tag_35\n  jumpi\n  swap2\n  dup3\n  add\ntag_37:\n  dup3\n  dup2\n  gt\n  iszero\n  tag_38\n  jumpi\n  dup3\n  mload\n  dup3\n  sstore\n  swap2\n  0x20\n  add\n  swap2\n  swap1\n  0x01\n  add\n  swap1\n  jump(tag_37)\ntag_38:\ntag_35:\n  pop\n  swap1\n  pop\n  tag_39\n  swap2\n  swap1\n  tag_34\n  jump\t// in\ntag_39:\n  pop\n  swap1\n  jump\t// out\ntag_34:\n  tag_40\n  swap2\n  swap1\ntag_41:\n  dup1\n  dup3\n  gt\n  iszero\n  tag_42\n  jumpi\n  0x00\n  dup2\n  0x00\n  swap1\n  sstore\n  pop\n  0x01\n  add\n  jump(tag_41)\ntag_42:\n  pop\n  swap1\n  jump\ntag_40:\n  swap1\n  jump\t// out\ntag_16:\n  dataSize(sub_0)\n  dup1\n  dataOffset(sub_0)\n  0x00\n  codecopy\n  0x00\n  return\nstop\ndata_8912f675a50e382e9fd7b592cf1cd9595235c43ce4309904b1bd35e2a18fc4ee 596f75206861766520616c7265616479206372656174656420616e20617267756d656e742e\ndata_9f7f122b70f117f8950311c325d9279ba88d6a0d2b593ed4f11b7663b9f48d07 54686520706572696f6420666f722074686520546f7069632068617320616c726561647920656e6465642e\ndata_aa34df7392f94c823c9355455ea589580c646b3576ea8448d1271c2c6cadfb70 596f752068617665206e6f742063686f73656e207965742077686574686572207468652073746174656d656e742069732074727565206f722066616c7365\n\nsub_0: assembly {\n        /* \"Topic.sol\":28:8265  contract Topic {\r... */\n      mstore(0x40, 0x80)\n      jumpi(tag_1, lt(calldatasize, 0x04))\n      shr(0xe0, calldataload(0x00))\n      dup1\n      0x9380b1cf\n      gt\n      tag_26\n      jumpi\n      dup1\n      0xdc9a1535\n      gt\n      tag_27\n      jumpi\n      dup1\n      0xdc9a1535\n      eq\n      tag_20\n      jumpi\n      dup1\n      0xe5d00035\n      eq\n      tag_21\n      jumpi\n      dup1\n      0xf22bb5f6\n      eq\n      tag_22\n      jumpi\n      dup1\n      0xfa391c64\n      eq\n      tag_23\n      jumpi\n      dup1\n      0xfbbf93a0\n      eq\n      tag_24\n      jumpi\n      dup1\n      0xfc018c05\n      eq\n      tag_25\n      jumpi\n      jump(tag_1)\n    tag_27:\n      dup1\n      0x9380b1cf\n      eq\n      tag_14\n      jumpi\n      dup1\n      0xaec2ccae\n      eq\n      tag_15\n      jumpi\n      dup1\n      0xb4fdf113\n      eq\n      tag_16\n      jumpi\n      dup1\n      0xb6b9e90a\n      eq\n      tag_17\n      jumpi\n      dup1\n      0xb6e54bdf\n      eq\n      tag_18\n      jumpi\n      dup1\n      0xc234d789\n      eq\n      tag_19\n      jumpi\n      jump(tag_1)\n    tag_26:\n      dup1\n      0x2ec32e6d\n      gt\n      tag_28\n      jumpi\n      dup1\n      0x2ec32e6d\n      eq\n      tag_8\n      jumpi\n      dup1\n      0x3197cbb6\n      eq\n      tag_9\n      jumpi\n      dup1\n      0x44fe9432\n      eq\n      tag_10\n      jumpi\n      dup1\n      0x4e71d92d\n      eq\n      tag_11\n      jumpi\n      dup1\n      0x6e3ebc2e\n      eq\n      tag_12\n      jumpi\n      dup1\n      0x8a4d5a67\n      eq\n      tag_13\n      jumpi\n      jump(tag_1)\n    tag_28:\n      dup1\n      0x0121b93f\n      eq\n      tag_2\n      jumpi\n      dup1\n      0x02d05d3f\n      eq\n      tag_3\n      jumpi\n      dup1\n      0x0715ef00\n      eq\n      tag_4\n      jumpi\n      dup1\n      0x09f74db7\n      eq\n      tag_5\n      jumpi\n      dup1\n      0x0a68f631\n      eq\n      tag_6\n      jumpi\n      dup1\n      0x2b925b25\n      eq\n      tag_7\n      jumpi\n    tag_1:\n      stop\n        /* \"Topic.sol\":2036:2705  function vote(uint argumentIndex) public payable _mustBeWithinTimeFrame _publicOnly {\r... */\n    tag_2:\n      tag_31\n      0x04\n      dup1\n      calldatasize\n      sub\n        /* \"--CODEGEN--\":13:15   */\n      0x20\n        /* \"--CODEGEN--\":8:11   */\n      dup2\n        /* \"--CODEGEN--\":5:16   */\n      lt\n        /* \"--CODEGEN--\":2:4   */\n      iszero\n      tag_32\n      jumpi\n        /* \"--CODEGEN--\":29:30   */\n      0x00\n        /* \"--CODEGEN--\":26:27   */\n      dup1\n        /* \"--CODEGEN--\":19:31   */\n      revert\n        /* \"--CODEGEN--\":2:4   */\n    tag_32:\n        /* \"Topic.sol\":2036:2705  function vote(uint argumentIndex) public payable _mustBeWithinTimeFrame _publicOnly {\r... */\n      dup2\n      add\n      swap1\n      dup1\n      dup1\n      calldataload\n      swap1\n      0x20\n      add\n      swap1\n      swap3\n      swap2\n      swap1\n      pop\n      pop\n      pop\n      tag_33\n      jump\t// in\n    tag_31:\n      stop\n        /* \"Topic.sol\":301:323  address public creator */\n    tag_3:\n      callvalue\n        /* \"--CODEGEN--\":8:17   */\n      dup1\n        /* \"--CODEGEN--\":5:7   */\n      iszero\n      tag_34\n      jumpi\n        /* \"--CODEGEN--\":30:31   */\n      0x00\n        /* \"--CODEGEN--\":27:28   */\n      dup1\n        /* \"--CODEGEN--\":20:32   */\n      revert\n        /* \"--CODEGEN--\":5:7   */\n    tag_34:\n        /* \"Topic.sol\":301:323  address public creator */\n      pop\n      tag_35\n      tag_36\n      jump\t// in\n    tag_35:\n      mload(0x40)\n      dup1\n      dup3\n      0xffffffffffffffffffffffffffffffffffffffff\n      and\n      0xffffffffffffffffffffffffffffffffffffffff\n      and\n      dup2\n      mstore\n      0x20\n      add\n      swap2\n      pop\n      pop\n      mload(0x40)\n      dup1\n      swap2\n      sub\n      swap1\n      return\n        /* \"Topic.sol\":2917:3543  function createArgument(string memory argumentContent, bool belief) public _mustBeWithinTimeFrame {\r... */\n    tag_4:\n      callvalue\n        /* \"--CODEGEN--\":8:17   */\n      dup1\n        /* \"--CODEGEN--\":5:7   */\n      iszero\n      tag_37\n      jumpi\n        /* \"--CODEGEN--\":30:31   */\n      0x00\n        /* \"--CODEGEN--\":27:28   */\n      dup1\n        /* \"--CODEGEN--\":20:32   */\n      revert\n        /* \"--CODEGEN--\":5:7   */\n    tag_37:\n        /* \"Topic.sol\":2917:3543  function createArgument(string memory argumentContent, bool belief) public _mustBeWithinTimeFrame {\r... */\n      pop\n      tag_38\n      0x04\n      dup1\n      calldatasize\n      sub\n        /* \"--CODEGEN--\":13:15   */\n      0x40\n        /* \"--CODEGEN--\":8:11   */\n      dup2\n        /* \"--CODEGEN--\":5:16   */\n      lt\n        /* \"--CODEGEN--\":2:4   */\n      iszero\n      tag_39\n      jumpi\n        /* \"--CODEGEN--\":29:30   */\n      0x00\n        /* \"--CODEGEN--\":26:27   */\n      dup1\n        /* \"--CODEGEN--\":19:31   */\n      revert\n        /* \"--CODEGEN--\":2:4   */\n    tag_39:\n        /* \"Topic.sol\":2917:3543  function createArgument(string memory argumentContent, bool belief) public _mustBeWithinTimeFrame {\r... */\n      dup2\n      add\n      swap1\n      dup1\n      dup1\n      calldataload\n      swap1\n      0x20\n      add\n      swap1\n        /* \"--CODEGEN--\":21:32   */\n      0x0100000000\n        /* \"--CODEGEN--\":8:19   */\n      dup2\n        /* \"--CODEGEN--\":5:33   */\n      gt\n        /* \"--CODEGEN--\":2:4   */\n      iszero\n      tag_40\n      jumpi\n        /* \"--CODEGEN--\":46:47   */\n      0x00\n        /* \"--CODEGEN--\":43:44   */\n      dup1\n        /* \"--CODEGEN--\":36:48   */\n      revert\n        /* \"--CODEGEN--\":2:4   */\n    tag_40:\n        /* \"Topic.sol\":2917:3543  function createArgument(string memory argumentContent, bool belief) public _mustBeWithinTimeFrame {\r... */\n      dup3\n      add\n        /* \"--CODEGEN--\":35:44   */\n      dup4\n        /* \"--CODEGEN--\":28:32   */\n      0x20\n        /* \"--CODEGEN--\":12:26   */\n      dup3\n        /* \"--CODEGEN--\":8:33   */\n      add\n        /* \"--CODEGEN--\":5:45   */\n      gt\n        /* \"--CODEGEN--\":2:4   */\n      iszero\n      tag_41\n      jumpi\n        /* \"--CODEGEN--\":58:59   */\n      0x00\n        /* \"--CODEGEN--\":55:56   */\n      dup1\n        /* \"--CODEGEN--\":48:60   */\n      revert\n        /* \"--CODEGEN--\":2:4   */\n    tag_41:\n        /* \"Topic.sol\":2917:3543  function createArgument(string memory argumentContent, bool belief) public _mustBeWithinTimeFrame {\r... */\n      dup1\n      calldataload\n      swap1\n      0x20\n      add\n      swap2\n        /* \"--CODEGEN--\":100:109   */\n      dup5\n        /* \"--CODEGEN--\":95:96   */\n      0x01\n        /* \"--CODEGEN--\":81:93   */\n      dup4\n        /* \"--CODEGEN--\":77:97   */\n      mul\n        /* \"--CODEGEN--\":67:75   */\n      dup5\n        /* \"--CODEGEN--\":63:98   */\n      add\n        /* \"--CODEGEN--\":60:110   */\n      gt\n        /* \"--CODEGEN--\":39:50   */\n      0x0100000000\n        /* \"--CODEGEN--\":25:37   */\n      dup4\n        /* \"--CODEGEN--\":22:51   */\n      gt\n        /* \"--CODEGEN--\":11:118   */\n      or\n        /* \"--CODEGEN--\":8:10   */\n      iszero\n      tag_42\n      jumpi\n        /* \"--CODEGEN--\":131:132   */\n      0x00\n        /* \"--CODEGEN--\":128:129   */\n      dup1\n        /* \"--CODEGEN--\":121:133   */\n      revert\n        /* \"--CODEGEN--\":8:10   */\n    tag_42:\n        /* \"Topic.sol\":2917:3543  function createArgument(string memory argumentContent, bool belief) public _mustBeWithinTimeFrame {\r... */\n      swap2\n      swap1\n      dup1\n      dup1\n      0x1f\n      add\n      0x20\n      dup1\n      swap2\n      div\n      mul\n      0x20\n      add\n      mload(0x40)\n      swap1\n      dup2\n      add\n      0x40\n      mstore\n      dup1\n      swap4\n      swap3\n      swap2\n      swap1\n      dup2\n      dup2\n      mstore\n      0x20\n      add\n      dup4\n      dup4\n        /* \"--CODEGEN--\":30:33   */\n      dup1\n        /* \"--CODEGEN--\":22:28   */\n      dup3\n        /* \"--CODEGEN--\":14:20   */\n      dup5\n        /* \"--CODEGEN--\":1:34   */\n      calldatacopy\n        /* \"--CODEGEN--\":99:100   */\n      0x00\n        /* \"--CODEGEN--\":93:96   */\n      dup2\n        /* \"--CODEGEN--\":85:91   */\n      dup5\n        /* \"--CODEGEN--\":81:97   */\n      add\n        /* \"--CODEGEN--\":74:101   */\n      mstore\n        /* \"--CODEGEN--\":137:141   */\n      0x1f\n        /* \"--CODEGEN--\":133:142   */\n      not\n        /* \"--CODEGEN--\":126:130   */\n      0x1f\n        /* \"--CODEGEN--\":121:124   */\n      dup3\n        /* \"--CODEGEN--\":117:131   */\n      add\n        /* \"--CODEGEN--\":113:143   */\n      and\n        /* \"--CODEGEN--\":106:143   */\n      swap1\n      pop\n        /* \"--CODEGEN--\":169:172   */\n      dup1\n        /* \"--CODEGEN--\":161:167   */\n      dup4\n        /* \"--CODEGEN--\":157:173   */\n      add\n        /* \"--CODEGEN--\":147:173   */\n      swap3\n      pop\n        /* \"Topic.sol\":2917:3543  function createArgument(string memory argumentContent, bool belief) public _mustBeWithinTimeFrame {\r... */\n      pop\n      pop\n      pop\n      pop\n      pop\n      pop\n      swap2\n      swap3\n      swap2\n      swap3\n      swap1\n      dup1\n      calldataload\n      iszero\n      iszero\n      swap1\n      0x20\n      add\n      swap1\n      swap3\n      swap2\n      swap1\n      pop\n      pop\n      pop\n      tag_43\n      jump\t// in\n    tag_38:\n      stop\n        /* \"Topic.sol\":612:646  address payable[] public lieVoters */\n    tag_5:\n      callvalue\n        /* \"--CODEGEN--\":8:17   */\n      dup1\n        /* \"--CODEGEN--\":5:7   */\n      iszero\n      tag_44\n      jumpi\n        /* \"--CODEGEN--\":30:31   */\n      0x00\n        /* \"--CODEGEN--\":27:28   */\n      dup1\n        /* \"--CODEGEN--\":20:32   */\n      revert\n        /* \"--CODEGEN--\":5:7   */\n    tag_44:\n        /* \"Topic.sol\":612:646  address payable[] public lieVoters */\n      pop\n      tag_45\n      0x04\n      dup1\n      calldatasize\n      sub\n        /* \"--CODEGEN--\":13:15   */\n      0x20\n        /* \"--CODEGEN--\":8:11   */\n      dup2\n        /* \"--CODEGEN--\":5:16   */\n      lt\n        /* \"--CODEGEN--\":2:4   */\n      iszero\n      tag_46\n      jumpi\n        /* \"--CODEGEN--\":29:30   */\n      0x00\n        /* \"--CODEGEN--\":26:27   */\n      dup1\n        /* \"--CODEGEN--\":19:31   */\n      revert\n        /* \"--CODEGEN--\":2:4   */\n    tag_46:\n        /* \"Topic.sol\":612:646  address payable[] public lieVoters */\n      dup2\n      add\n      swap1\n      dup1\n      dup1\n      calldataload\n      swap1\n      0x20\n      add\n      swap1\n      swap3\n      swap2\n      swap1\n      pop\n      pop\n      pop\n      tag_47\n      jump\t// in\n    tag_45:\n      mload(0x40)\n      dup1\n      dup3\n      0xffffffffffffffffffffffffffffffffffffffff\n      and\n      0xffffffffffffffffffffffffffffffffffffffff\n      and\n      dup2\n      mstore\n      0x20\n      add\n      swap2\n      pop\n      pop\n      mload(0x40)\n      dup1\n      swap2\n      sub\n      swap1\n      return\n        /* \"Topic.sol\":419:446  Argument[] public arguments */\n    tag_6:\n      callvalue\n        /* \"--CODEGEN--\":8:17   */\n      dup1\n        /* \"--CODEGEN--\":5:7   */\n      iszero\n      tag_48\n      jumpi\n        /* \"--CODEGEN--\":30:31   */\n      0x00\n        /* \"--CODEGEN--\":27:28   */\n      dup1\n        /* \"--CODEGEN--\":20:32   */\n      revert\n        /* \"--CODEGEN--\":5:7   */\n    tag_48:\n        /* \"Topic.sol\":419:446  Argument[] public arguments */\n      pop\n      tag_49\n      0x04\n      dup1\n      calldatasize\n      sub\n        /* \"--CODEGEN--\":13:15   */\n      0x20\n        /* \"--CODEGEN--\":8:11   */\n      dup2\n        /* \"--CODEGEN--\":5:16   */\n      lt\n        /* \"--CODEGEN--\":2:4   */\n      iszero\n      tag_50\n      jumpi\n        /* \"--CODEGEN--\":29:30   */\n      0x00\n        /* \"--CODEGEN--\":26:27   */\n      dup1\n        /* \"--CODEGEN--\":19:31   */\n      revert\n        /* \"--CODEGEN--\":2:4   */\n    tag_50:\n        /* \"Topic.sol\":419:446  Argument[] public arguments */\n      dup2\n      add\n      swap1\n      dup1\n      dup1\n      calldataload\n      swap1\n      0x20\n      add\n      swap1\n      swap3\n      swap2\n      swap1\n      pop\n      pop\n      pop\n      tag_51\n      jump\t// in\n    tag_49:\n      mload(0x40)\n      dup1\n      dup1\n      0x20\n      add\n      dup6\n      iszero\n      iszero\n      iszero\n      iszero\n      dup2\n      mstore\n      0x20\n      add\n      dup5\n      0xffffffffffffffffffffffffffffffffffffffff\n      and\n      0xffffffffffffffffffffffffffffffffffffffff\n      and\n      dup2\n      mstore\n      0x20\n      add\n      dup4\n      dup2\n      mstore\n      0x20\n      add\n      dup3\n      dup2\n      sub\n      dup3\n      mstore\n      dup7\n      dup2\n      dup2\n      mload\n      dup2\n      mstore\n      0x20\n      add\n      swap2\n      pop\n      dup1\n      mload\n      swap1\n      0x20\n      add\n      swap1\n      dup1\n      dup4\n      dup4\n        /* \"--CODEGEN--\":23:24   */\n      0x00\n        /* \"--CODEGEN--\":8:108   */\n    tag_52:\n        /* \"--CODEGEN--\":33:36   */\n      dup4\n        /* \"--CODEGEN--\":30:31   */\n      dup2\n        /* \"--CODEGEN--\":27:37   */\n      lt\n        /* \"--CODEGEN--\":8:108   */\n      iszero\n      tag_54\n      jumpi\n        /* \"--CODEGEN--\":99:100   */\n      dup1\n        /* \"--CODEGEN--\":94:97   */\n      dup3\n        /* \"--CODEGEN--\":90:101   */\n      add\n        /* \"--CODEGEN--\":84:102   */\n      mload\n        /* \"--CODEGEN--\":80:81   */\n      dup2\n        /* \"--CODEGEN--\":75:78   */\n      dup5\n        /* \"--CODEGEN--\":71:82   */\n      add\n        /* \"--CODEGEN--\":64:103   */\n      mstore\n        /* \"--CODEGEN--\":52:54   */\n      0x20\n        /* \"--CODEGEN--\":49:50   */\n      dup2\n        /* \"--CODEGEN--\":45:55   */\n      add\n        /* \"--CODEGEN--\":40:55   */\n      swap1\n      pop\n        /* \"--CODEGEN--\":8:108   */\n      jump(tag_52)\n    tag_54:\n        /* \"--CODEGEN--\":12:26   */\n      pop\n        /* \"Topic.sol\":419:446  Argument[] public arguments */\n      pop\n      pop\n      pop\n      swap1\n      pop\n      swap1\n      dup2\n      add\n      swap1\n      0x1f\n      and\n      dup1\n      iszero\n      tag_55\n      jumpi\n      dup1\n      dup3\n      sub\n      dup1\n      mload\n      0x01\n      dup4\n      0x20\n      sub\n      0x0100\n      exp\n      sub\n      not\n      and\n      dup2\n      mstore\n      0x20\n      add\n      swap2\n      pop\n    tag_55:\n      pop\n      swap6\n      pop\n      pop\n      pop\n      pop\n      pop\n      pop\n      mload(0x40)\n      dup1\n      swap2\n      sub\n      swap1\n      return\n        /* \"Topic.sol\":357:386  uint public minimumInvestment */\n    tag_7:\n      callvalue\n        /* \"--CODEGEN--\":8:17   */\n      dup1\n        /* \"--CODEGEN--\":5:7   */\n      iszero\n      tag_56\n      jumpi\n        /* \"--CODEGEN--\":30:31   */\n      0x00\n        /* \"--CODEGEN--\":27:28   */\n      dup1\n        /* \"--CODEGEN--\":20:32   */\n      revert\n        /* \"--CODEGEN--\":5:7   */\n    tag_56:\n        /* \"Topic.sol\":357:386  uint public minimumInvestment */\n      pop\n      tag_57\n      tag_58\n      jump\t// in\n    tag_57:\n      mload(0x40)\n      dup1\n      dup3\n      dup2\n      mstore\n      0x20\n      add\n      swap2\n      pop\n      pop\n      mload(0x40)\n      dup1\n      swap2\n      sub\n      swap1\n      return\n        /* \"Topic.sol\":2713:2809  function getTruthCount() public view returns (uint) {\r... */\n    tag_8:\n      callvalue\n        /* \"--CODEGEN--\":8:17   */\n      dup1\n        /* \"--CODEGEN--\":5:7   */\n      iszero\n      tag_59\n      jumpi\n        /* \"--CODEGEN--\":30:31   */\n      0x00\n        /* \"--CODEGEN--\":27:28   */\n      dup1\n        /* \"--CODEGEN--\":20:32   */\n      revert\n        /* \"--CODEGEN--\":5:7   */\n    tag_59:\n        /* \"Topic.sol\":2713:2809  function getTruthCount() public view returns (uint) {\r... */\n      pop\n      tag_60\n      tag_61\n      jump\t// in\n    tag_60:\n      mload(0x40)\n      dup1\n      dup3\n      dup2\n      mstore\n      0x20\n      add\n      swap2\n      pop\n      pop\n      mload(0x40)\n      dup1\n      swap2\n      sub\n      swap1\n      return\n        /* \"Topic.sol\":393:412  uint public endTime */\n    tag_9:\n      callvalue\n        /* \"--CODEGEN--\":8:17   */\n      dup1\n        /* \"--CODEGEN--\":5:7   */\n      iszero\n      tag_62\n      jumpi\n        /* \"--CODEGEN--\":30:31   */\n      0x00\n        /* \"--CODEGEN--\":27:28   */\n      dup1\n        /* \"--CODEGEN--\":20:32   */\n      revert\n        /* \"--CODEGEN--\":5:7   */\n    tag_62:\n        /* \"Topic.sol\":393:412  uint public endTime */\n      pop\n      tag_63\n      tag_64\n      jump\t// in\n    tag_63:\n      mload(0x40)\n      dup1\n      dup3\n      dup2\n      mstore\n      0x20\n      add\n      swap2\n      pop\n      pop\n      mload(0x40)\n      dup1\n      swap2\n      sub\n      swap1\n      return\n        /* \"Topic.sol\":499:546  mapping(address => uint) public createdArgument */\n    tag_10:\n      callvalue\n        /* \"--CODEGEN--\":8:17   */\n      dup1\n        /* \"--CODEGEN--\":5:7   */\n      iszero\n      tag_65\n      jumpi\n        /* \"--CODEGEN--\":30:31   */\n      0x00\n        /* \"--CODEGEN--\":27:28   */\n      dup1\n        /* \"--CODEGEN--\":20:32   */\n      revert\n        /* \"--CODEGEN--\":5:7   */\n    tag_65:\n        /* \"Topic.sol\":499:546  mapping(address => uint) public createdArgument */\n      pop\n      tag_66\n      0x04\n      dup1\n      calldatasize\n      sub\n        /* \"--CODEGEN--\":13:15   */\n      0x20\n        /* \"--CODEGEN--\":8:11   */\n      dup2\n        /* \"--CODEGEN--\":5:16   */\n      lt\n        /* \"--CODEGEN--\":2:4   */\n      iszero\n      tag_67\n      jumpi\n        /* \"--CODEGEN--\":29:30   */\n      0x00\n        /* \"--CODEGEN--\":26:27   */\n      dup1\n        /* \"--CODEGEN--\":19:31   */\n      revert\n        /* \"--CODEGEN--\":2:4   */\n    tag_67:\n        /* \"Topic.sol\":499:546  mapping(address => uint) public createdArgument */\n      dup2\n      add\n      swap1\n      dup1\n      dup1\n      calldataload\n      0xffffffffffffffffffffffffffffffffffffffff\n      and\n      swap1\n      0x20\n      add\n      swap1\n      swap3\n      swap2\n      swap1\n      pop\n      pop\n      pop\n      tag_68\n      jump\t// in\n    tag_66:\n      mload(0x40)\n      dup1\n      dup3\n      dup2\n      mstore\n      0x20\n      add\n      swap2\n      pop\n      pop\n      mload(0x40)\n      dup1\n      swap2\n      sub\n      swap1\n      return\n        /* \"Topic.sol\":5007:5613  function claim() public {\r... */\n    tag_11:\n      callvalue\n        /* \"--CODEGEN--\":8:17   */\n      dup1\n        /* \"--CODEGEN--\":5:7   */\n      iszero\n      tag_69\n      jumpi\n        /* \"--CODEGEN--\":30:31   */\n      0x00\n        /* \"--CODEGEN--\":27:28   */\n      dup1\n        /* \"--CODEGEN--\":20:32   */\n      revert\n        /* \"--CODEGEN--\":5:7   */\n    tag_69:\n        /* \"Topic.sol\":5007:5613  function claim() public {\r... */\n      pop\n      tag_70\n      tag_71\n      jump\t// in\n    tag_70:\n      stop\n        /* \"Topic.sol\":2817:2909  function getLieCount() public view returns (uint) {\r... */\n    tag_12:\n      callvalue\n        /* \"--CODEGEN--\":8:17   */\n      dup1\n        /* \"--CODEGEN--\":5:7   */\n      iszero\n      tag_72\n      jumpi\n        /* \"--CODEGEN--\":30:31   */\n      0x00\n        /* \"--CODEGEN--\":27:28   */\n      dup1\n        /* \"--CODEGEN--\":20:32   */\n      revert\n        /* \"--CODEGEN--\":5:7   */\n    tag_72:\n        /* \"Topic.sol\":2817:2909  function getLieCount() public view returns (uint) {\r... */\n      pop\n      tag_73\n      tag_74\n      jump\t// in\n    tag_73:\n      mload(0x40)\n      dup1\n      dup3\n      dup2\n      mstore\n      0x20\n      add\n      swap2\n      pop\n      pop\n      mload(0x40)\n      dup1\n      swap2\n      sub\n      swap1\n      return\n        /* \"Topic.sol\":273:294  string public content */\n    tag_13:\n      callvalue\n        /* \"--CODEGEN--\":8:17   */\n      dup1\n        /* \"--CODEGEN--\":5:7   */\n      iszero\n      tag_75\n      jumpi\n        /* \"--CODEGEN--\":30:31   */\n      0x00\n        /* \"--CODEGEN--\":27:28   */\n      dup1\n        /* \"--CODEGEN--\":20:32   */\n      revert\n        /* \"--CODEGEN--\":5:7   */\n    tag_75:\n        /* \"Topic.sol\":273:294  string public content */\n      pop\n      tag_76\n      tag_77\n      jump\t// in\n    tag_76:\n      mload(0x40)\n      dup1\n      dup1\n      0x20\n      add\n      dup3\n      dup2\n      sub\n      dup3\n      mstore\n      dup4\n      dup2\n      dup2\n      mload\n      dup2\n      mstore\n      0x20\n      add\n      swap2\n      pop\n      dup1\n      mload\n      swap1\n      0x20\n      add\n      swap1\n      dup1\n      dup4\n      dup4\n        /* \"--CODEGEN--\":23:24   */\n      0x00\n        /* \"--CODEGEN--\":8:108   */\n    tag_78:\n        /* \"--CODEGEN--\":33:36   */\n      dup4\n        /* \"--CODEGEN--\":30:31   */\n      dup2\n        /* \"--CODEGEN--\":27:37   */\n      lt\n        /* \"--CODEGEN--\":8:108   */\n      iszero\n      tag_80\n      jumpi\n        /* \"--CODEGEN--\":99:100   */\n      dup1\n        /* \"--CODEGEN--\":94:97   */\n      dup3\n        /* \"--CODEGEN--\":90:101   */\n      add\n        /* \"--CODEGEN--\":84:102   */\n      mload\n        /* \"--CODEGEN--\":80:81   */\n      dup2\n        /* \"--CODEGEN--\":75:78   */\n      dup5\n        /* \"--CODEGEN--\":71:82   */\n      add\n        /* \"--CODEGEN--\":64:103   */\n      mstore\n        /* \"--CODEGEN--\":52:54   */\n      0x20\n        /* \"--CODEGEN--\":49:50   */\n      dup2\n        /* \"--CODEGEN--\":45:55   */\n      add\n        /* \"--CODEGEN--\":40:55   */\n      swap1\n      pop\n        /* \"--CODEGEN--\":8:108   */\n      jump(tag_78)\n    tag_80:\n        /* \"--CODEGEN--\":12:26   */\n      pop\n        /* \"Topic.sol\":273:294  string public content */\n      pop\n      pop\n      pop\n      swap1\n      pop\n      swap1\n      dup2\n      add\n      swap1\n      0x1f\n      and\n      dup1\n      iszero\n      tag_81\n      jumpi\n      dup1\n      dup3\n      sub\n      dup1\n      mload\n      0x01\n      dup4\n      0x20\n      sub\n      0x0100\n      exp\n      sub\n      not\n      and\n      dup2\n      mstore\n      0x20\n      add\n      swap2\n      pop\n    tag_81:\n      pop\n      swap3\n      pop\n      pop\n      pop\n      mload(0x40)\n      dup1\n      swap2\n      sub\n      swap1\n      return\n        /* \"Topic.sol\":5621:5954  function creatorClaim() public _creatorOnly {\r... */\n    tag_14:\n      callvalue\n        /* \"--CODEGEN--\":8:17   */\n      dup1\n        /* \"--CODEGEN--\":5:7   */\n      iszero\n      tag_82\n      jumpi\n        /* \"--CODEGEN--\":30:31   */\n      0x00\n        /* \"--CODEGEN--\":27:28   */\n      dup1\n        /* \"--CODEGEN--\":20:32   */\n      revert\n        /* \"--CODEGEN--\":5:7   */\n    tag_82:\n        /* \"Topic.sol\":5621:5954  function creatorClaim() public _creatorOnly {\r... */\n      pop\n      tag_83\n      tag_84\n      jump\t// in\n    tag_83:\n      stop\n        /* \"Topic.sol\":455:492  mapping(address => uint) public voted */\n    tag_15:\n      callvalue\n        /* \"--CODEGEN--\":8:17   */\n      dup1\n        /* \"--CODEGEN--\":5:7   */\n      iszero\n      tag_85\n      jumpi\n        /* \"--CODEGEN--\":30:31   */\n      0x00\n        /* \"--CODEGEN--\":27:28   */\n      dup1\n        /* \"--CODEGEN--\":20:32   */\n      revert\n        /* \"--CODEGEN--\":5:7   */\n    tag_85:\n        /* \"Topic.sol\":455:492  mapping(address => uint) public voted */\n      pop\n      tag_86\n      0x04\n      dup1\n      calldatasize\n      sub\n        /* \"--CODEGEN--\":13:15   */\n      0x20\n        /* \"--CODEGEN--\":8:11   */\n      dup2\n        /* \"--CODEGEN--\":5:16   */\n      lt\n        /* \"--CODEGEN--\":2:4   */\n      iszero\n      tag_87\n      jumpi\n        /* \"--CODEGEN--\":29:30   */\n      0x00\n        /* \"--CODEGEN--\":26:27   */\n      dup1\n        /* \"--CODEGEN--\":19:31   */\n      revert\n        /* \"--CODEGEN--\":2:4   */\n    tag_87:\n        /* \"Topic.sol\":455:492  mapping(address => uint) public voted */\n      dup2\n      add\n      swap1\n      dup1\n      dup1\n      calldataload\n      0xffffffffffffffffffffffffffffffffffffffff\n      and\n      swap1\n      0x20\n      add\n      swap1\n      swap3\n      swap2\n      swap1\n      pop\n      pop\n      pop\n      tag_88\n      jump\t// in\n    tag_86:\n      mload(0x40)\n      dup1\n      dup3\n      dup2\n      mstore\n      0x20\n      add\n      swap2\n      pop\n      pop\n      mload(0x40)\n      dup1\n      swap2\n      sub\n      swap1\n      return\n        /* \"Topic.sol\":3551:3878  function modifyArgument(uint argumentIndex, string memory newContent) public _mustBeWithinTimeFrame _publicOnly {\r... */\n    tag_16:\n      callvalue\n        /* \"--CODEGEN--\":8:17   */\n      dup1\n        /* \"--CODEGEN--\":5:7   */\n      iszero\n      tag_89\n      jumpi\n        /* \"--CODEGEN--\":30:31   */\n      0x00\n        /* \"--CODEGEN--\":27:28   */\n      dup1\n        /* \"--CODEGEN--\":20:32   */\n      revert\n        /* \"--CODEGEN--\":5:7   */\n    tag_89:\n        /* \"Topic.sol\":3551:3878  function modifyArgument(uint argumentIndex, string memory newContent) public _mustBeWithinTimeFrame _publicOnly {\r... */\n      pop\n      tag_90\n      0x04\n      dup1\n      calldatasize\n      sub\n        /* \"--CODEGEN--\":13:15   */\n      0x40\n        /* \"--CODEGEN--\":8:11   */\n      dup2\n        /* \"--CODEGEN--\":5:16   */\n      lt\n        /* \"--CODEGEN--\":2:4   */\n      iszero\n      tag_91\n      jumpi\n        /* \"--CODEGEN--\":29:30   */\n      0x00\n        /* \"--CODEGEN--\":26:27   */\n      dup1\n        /* \"--CODEGEN--\":19:31   */\n      revert\n        /* \"--CODEGEN--\":2:4   */\n    tag_91:\n        /* \"Topic.sol\":3551:3878  function modifyArgument(uint argumentIndex, string memory newContent) public _mustBeWithinTimeFrame _publicOnly {\r... */\n      dup2\n      add\n      swap1\n      dup1\n      dup1\n      calldataload\n      swap1\n      0x20\n      add\n      swap1\n      swap3\n      swap2\n      swap1\n      dup1\n      calldataload\n      swap1\n      0x20\n      add\n      swap1\n        /* \"--CODEGEN--\":21:32   */\n      0x0100000000\n        /* \"--CODEGEN--\":8:19   */\n      dup2\n        /* \"--CODEGEN--\":5:33   */\n      gt\n        /* \"--CODEGEN--\":2:4   */\n      iszero\n      tag_92\n      jumpi\n        /* \"--CODEGEN--\":46:47   */\n      0x00\n        /* \"--CODEGEN--\":43:44   */\n      dup1\n        /* \"--CODEGEN--\":36:48   */\n      revert\n        /* \"--CODEGEN--\":2:4   */\n    tag_92:\n        /* \"Topic.sol\":3551:3878  function modifyArgument(uint argumentIndex, string memory newContent) public _mustBeWithinTimeFrame _publicOnly {\r... */\n      dup3\n      add\n        /* \"--CODEGEN--\":35:44   */\n      dup4\n        /* \"--CODEGEN--\":28:32   */\n      0x20\n        /* \"--CODEGEN--\":12:26   */\n      dup3\n        /* \"--CODEGEN--\":8:33   */\n      add\n        /* \"--CODEGEN--\":5:45   */\n      gt\n        /* \"--CODEGEN--\":2:4   */\n      iszero\n      tag_93\n      jumpi\n        /* \"--CODEGEN--\":58:59   */\n      0x00\n        /* \"--CODEGEN--\":55:56   */\n      dup1\n        /* \"--CODEGEN--\":48:60   */\n      revert\n        /* \"--CODEGEN--\":2:4   */\n    tag_93:\n        /* \"Topic.sol\":3551:3878  function modifyArgument(uint argumentIndex, string memory newContent) public _mustBeWithinTimeFrame _publicOnly {\r... */\n      dup1\n      calldataload\n      swap1\n      0x20\n      add\n      swap2\n        /* \"--CODEGEN--\":100:109   */\n      dup5\n        /* \"--CODEGEN--\":95:96   */\n      0x01\n        /* \"--CODEGEN--\":81:93   */\n      dup4\n        /* \"--CODEGEN--\":77:97   */\n      mul\n        /* \"--CODEGEN--\":67:75   */\n      dup5\n        /* \"--CODEGEN--\":63:98   */\n      add\n        /* \"--CODEGEN--\":60:110   */\n      gt\n        /* \"--CODEGEN--\":39:50   */\n      0x0100000000\n        /* \"--CODEGEN--\":25:37   */\n      dup4\n        /* \"--CODEGEN--\":22:51   */\n      gt\n        /* \"--CODEGEN--\":11:118   */\n      or\n        /* \"--CODEGEN--\":8:10   */\n      iszero\n      tag_94\n      jumpi\n        /* \"--CODEGEN--\":131:132   */\n      0x00\n        /* \"--CODEGEN--\":128:129   */\n      dup1\n        /* \"--CODEGEN--\":121:133   */\n      revert\n        /* \"--CODEGEN--\":8:10   */\n    tag_94:\n        /* \"Topic.sol\":3551:3878  function modifyArgument(uint argumentIndex, string memory newContent) public _mustBeWithinTimeFrame _publicOnly {\r... */\n      swap2\n      swap1\n      dup1\n      dup1\n      0x1f\n      add\n      0x20\n      dup1\n      swap2\n      div\n      mul\n      0x20\n      add\n      mload(0x40)\n      swap1\n      dup2\n      add\n      0x40\n      mstore\n      dup1\n      swap4\n      swap3\n      swap2\n      swap1\n      dup2\n      dup2\n      mstore\n      0x20\n      add\n      dup4\n      dup4\n        /* \"--CODEGEN--\":30:33   */\n      dup1\n        /* \"--CODEGEN--\":22:28   */\n      dup3\n        /* \"--CODEGEN--\":14:20   */\n      dup5\n        /* \"--CODEGEN--\":1:34   */\n      calldatacopy\n        /* \"--CODEGEN--\":99:100   */\n      0x00\n        /* \"--CODEGEN--\":93:96   */\n      dup2\n        /* \"--CODEGEN--\":85:91   */\n      dup5\n        /* \"--CODEGEN--\":81:97   */\n      add\n        /* \"--CODEGEN--\":74:101   */\n      mstore\n        /* \"--CODEGEN--\":137:141   */\n      0x1f\n        /* \"--CODEGEN--\":133:142   */\n      not\n        /* \"--CODEGEN--\":126:130   */\n      0x1f\n        /* \"--CODEGEN--\":121:124   */\n      dup3\n        /* \"--CODEGEN--\":117:131   */\n      add\n        /* \"--CODEGEN--\":113:143   */\n      and\n        /* \"--CODEGEN--\":106:143   */\n      swap1\n      pop\n        /* \"--CODEGEN--\":169:172   */\n      dup1\n        /* \"--CODEGEN--\":161:167   */\n      dup4\n        /* \"--CODEGEN--\":157:173   */\n      add\n        /* \"--CODEGEN--\":147:173   */\n      swap3\n      pop\n        /* \"Topic.sol\":3551:3878  function modifyArgument(uint argumentIndex, string memory newContent) public _mustBeWithinTimeFrame _publicOnly {\r... */\n      pop\n      pop\n      pop\n      pop\n      pop\n      pop\n      swap2\n      swap3\n      swap2\n      swap3\n      swap1\n      pop\n      pop\n      pop\n      tag_95\n      jump\t// in\n    tag_90:\n      stop\n        /* \"Topic.sol\":729:757  uint public payPerIndividual */\n    tag_17:\n      callvalue\n        /* \"--CODEGEN--\":8:17   */\n      dup1\n        /* \"--CODEGEN--\":5:7   */\n      iszero\n      tag_96\n      jumpi\n        /* \"--CODEGEN--\":30:31   */\n      0x00\n        /* \"--CODEGEN--\":27:28   */\n      dup1\n        /* \"--CODEGEN--\":20:32   */\n      revert\n        /* \"--CODEGEN--\":5:7   */\n    tag_96:\n        /* \"Topic.sol\":729:757  uint public payPerIndividual */\n      pop\n      tag_97\n      tag_98\n      jump\t// in\n    tag_97:\n      mload(0x40)\n      dup1\n      dup3\n      dup2\n      mstore\n      0x20\n      add\n      swap2\n      pop\n      pop\n      mload(0x40)\n      dup1\n      swap2\n      sub\n      swap1\n      return\n        /* \"Topic.sol\":702:722  uint public majority */\n    tag_18:\n      callvalue\n        /* \"--CODEGEN--\":8:17   */\n      dup1\n        /* \"--CODEGEN--\":5:7   */\n      iszero\n      tag_99\n      jumpi\n        /* \"--CODEGEN--\":30:31   */\n      0x00\n        /* \"--CODEGEN--\":27:28   */\n      dup1\n        /* \"--CODEGEN--\":20:32   */\n      revert\n        /* \"--CODEGEN--\":5:7   */\n    tag_99:\n        /* \"Topic.sol\":702:722  uint public majority */\n      pop\n      tag_100\n      tag_101\n      jump\t// in\n    tag_100:\n      mload(0x40)\n      dup1\n      dup3\n      dup2\n      mstore\n      0x20\n      add\n      swap2\n      pop\n      pop\n      mload(0x40)\n      dup1\n      swap2\n      sub\n      swap1\n      return\n        /* \"Topic.sol\":3886:3983  function getArgumentCount() public view returns (uint) {\r... */\n    tag_19:\n      callvalue\n        /* \"--CODEGEN--\":8:17   */\n      dup1\n        /* \"--CODEGEN--\":5:7   */\n      iszero\n      tag_102\n      jumpi\n        /* \"--CODEGEN--\":30:31   */\n      0x00\n        /* \"--CODEGEN--\":27:28   */\n      dup1\n        /* \"--CODEGEN--\":20:32   */\n      revert\n        /* \"--CODEGEN--\":5:7   */\n    tag_102:\n        /* \"Topic.sol\":3886:3983  function getArgumentCount() public view returns (uint) {\r... */\n      pop\n      tag_103\n      tag_104\n      jump\t// in\n    tag_103:\n      mload(0x40)\n      dup1\n      dup3\n      dup2\n      mstore\n      0x20\n      add\n      swap2\n      pop\n      pop\n      mload(0x40)\n      dup1\n      swap2\n      sub\n      swap1\n      return\n        /* \"Topic.sol\":330:350  bool public isPublic */\n    tag_20:\n      callvalue\n        /* \"--CODEGEN--\":8:17   */\n      dup1\n        /* \"--CODEGEN--\":5:7   */\n      iszero\n      tag_105\n      jumpi\n        /* \"--CODEGEN--\":30:31   */\n      0x00\n        /* \"--CODEGEN--\":27:28   */\n      dup1\n        /* \"--CODEGEN--\":20:32   */\n      revert\n        /* \"--CODEGEN--\":5:7   */\n    tag_105:\n        /* \"Topic.sol\":330:350  bool public isPublic */\n      pop\n      tag_106\n      tag_107\n      jump\t// in\n    tag_106:\n      mload(0x40)\n      dup1\n      dup3\n      iszero\n      iszero\n      iszero\n      iszero\n      dup2\n      mstore\n      0x20\n      add\n      swap2\n      pop\n      pop\n      mload(0x40)\n      dup1\n      swap2\n      sub\n      swap1\n      return\n        /* \"Topic.sol\":553:589  address payable[] public truthVoters */\n    tag_21:\n      callvalue\n        /* \"--CODEGEN--\":8:17   */\n      dup1\n        /* \"--CODEGEN--\":5:7   */\n      iszero\n      tag_108\n      jumpi\n        /* \"--CODEGEN--\":30:31   */\n      0x00\n        /* \"--CODEGEN--\":27:28   */\n      dup1\n        /* \"--CODEGEN--\":20:32   */\n      revert\n        /* \"--CODEGEN--\":5:7   */\n    tag_108:\n        /* \"Topic.sol\":553:589  address payable[] public truthVoters */\n      pop\n      tag_109\n      0x04\n      dup1\n      calldatasize\n      sub\n        /* \"--CODEGEN--\":13:15   */\n      0x20\n        /* \"--CODEGEN--\":8:11   */\n      dup2\n        /* \"--CODEGEN--\":5:16   */\n      lt\n        /* \"--CODEGEN--\":2:4   */\n      iszero\n      tag_110\n      jumpi\n        /* \"--CODEGEN--\":29:30   */\n      0x00\n        /* \"--CODEGEN--\":26:27   */\n      dup1\n        /* \"--CODEGEN--\":19:31   */\n      revert\n        /* \"--CODEGEN--\":2:4   */\n    tag_110:\n        /* \"Topic.sol\":553:589  address payable[] public truthVoters */\n      dup2\n      add\n      swap1\n      dup1\n      dup1\n      calldataload\n      swap1\n      0x20\n      add\n      swap1\n      swap3\n      swap2\n      swap1\n      pop\n      pop\n      pop\n      tag_111\n      jump\t// in\n    tag_109:\n      mload(0x40)\n      dup1\n      dup3\n      0xffffffffffffffffffffffffffffffffffffffff\n      and\n      0xffffffffffffffffffffffffffffffffffffffff\n      and\n      dup2\n      mstore\n      0x20\n      add\n      swap2\n      pop\n      pop\n      mload(0x40)\n      dup1\n      swap2\n      sub\n      swap1\n      return\n        /* \"Topic.sol\":4154:4999  function calculateMajority() public {\r... */\n    tag_22:\n      callvalue\n        /* \"--CODEGEN--\":8:17   */\n      dup1\n        /* \"--CODEGEN--\":5:7   */\n      iszero\n      tag_112\n      jumpi\n        /* \"--CODEGEN--\":30:31   */\n      0x00\n        /* \"--CODEGEN--\":27:28   */\n      dup1\n        /* \"--CODEGEN--\":20:32   */\n      revert\n        /* \"--CODEGEN--\":5:7   */\n    tag_112:\n        /* \"Topic.sol\":4154:4999  function calculateMajority() public {\r... */\n      pop\n      tag_113\n      tag_114\n      jump\t// in\n    tag_113:\n      stop\n        /* \"Topic.sol\":672:695  bool public isCompleted */\n    tag_23:\n      callvalue\n        /* \"--CODEGEN--\":8:17   */\n      dup1\n        /* \"--CODEGEN--\":5:7   */\n      iszero\n      tag_115\n      jumpi\n        /* \"--CODEGEN--\":30:31   */\n      0x00\n        /* \"--CODEGEN--\":27:28   */\n      dup1\n        /* \"--CODEGEN--\":20:32   */\n      revert\n        /* \"--CODEGEN--\":5:7   */\n    tag_115:\n        /* \"Topic.sol\":672:695  bool public isCompleted */\n      pop\n      tag_116\n      tag_117\n      jump\t// in\n    tag_116:\n      mload(0x40)\n      dup1\n      dup3\n      iszero\n      iszero\n      iszero\n      iszero\n      dup2\n      mstore\n      0x20\n      add\n      swap2\n      pop\n      pop\n      mload(0x40)\n      dup1\n      swap2\n      sub\n      swap1\n      return\n        /* \"Topic.sol\":5962:6124  function getDetails() public view returns (address, bool, uint, uint, bool) {\r... */\n    tag_24:\n      callvalue\n        /* \"--CODEGEN--\":8:17   */\n      dup1\n        /* \"--CODEGEN--\":5:7   */\n      iszero\n      tag_118\n      jumpi\n        /* \"--CODEGEN--\":30:31   */\n      0x00\n        /* \"--CODEGEN--\":27:28   */\n      dup1\n        /* \"--CODEGEN--\":20:32   */\n      revert\n        /* \"--CODEGEN--\":5:7   */\n    tag_118:\n        /* \"Topic.sol\":5962:6124  function getDetails() public view returns (address, bool, uint, uint, bool) {\r... */\n      pop\n      tag_119\n      tag_120\n      jump\t// in\n    tag_119:\n      mload(0x40)\n      dup1\n      dup7\n      0xffffffffffffffffffffffffffffffffffffffff\n      and\n      0xffffffffffffffffffffffffffffffffffffffff\n      and\n      dup2\n      mstore\n      0x20\n      add\n      dup6\n      iszero\n      iszero\n      iszero\n      iszero\n      dup2\n      mstore\n      0x20\n      add\n      dup5\n      dup2\n      mstore\n      0x20\n      add\n      dup4\n      dup2\n      mstore\n      0x20\n      add\n      dup3\n      iszero\n      iszero\n      iszero\n      iszero\n      dup2\n      mstore\n      0x20\n      add\n      swap6\n      pop\n      pop\n      pop\n      pop\n      pop\n      pop\n      mload(0x40)\n      dup1\n      swap2\n      sub\n      swap1\n      return\n        /* \"Topic.sol\":1875:1974  function makePublic() public _mustBeWithinTimeFrame _creatorOnly {\r... */\n    tag_25:\n      callvalue\n        /* \"--CODEGEN--\":8:17   */\n      dup1\n        /* \"--CODEGEN--\":5:7   */\n      iszero\n      tag_121\n      jumpi\n        /* \"--CODEGEN--\":30:31   */\n      0x00\n        /* \"--CODEGEN--\":27:28   */\n      dup1\n        /* \"--CODEGEN--\":20:32   */\n      revert\n        /* \"--CODEGEN--\":5:7   */\n    tag_121:\n        /* \"Topic.sol\":1875:1974  function makePublic() public _mustBeWithinTimeFrame _creatorOnly {\r... */\n      pop\n      tag_122\n      tag_123\n      jump\t// in\n    tag_122:\n      stop\n        /* \"Topic.sol\":2036:2705  function vote(uint argumentIndex) public payable _mustBeWithinTimeFrame _publicOnly {\r... */\n    tag_33:\n        /* \"Topic.sol\":1227:1234  endTime */\n      sload(0x03)\n        /* \"Topic.sol\":1209:1224  block.timestamp */\n      timestamp\n        /* \"Topic.sol\":1209:1234  block.timestamp < endTime */\n      lt\n        /* \"Topic.sol\":1201:1282  require(block.timestamp < endTime, 'The period for the Topic has already ended.') */\n      tag_125\n      jumpi\n      mload(0x40)\n      0x08c379a000000000000000000000000000000000000000000000000000000000\n      dup2\n      mstore\n      0x04\n      add\n      dup1\n      dup1\n      0x20\n      add\n      dup3\n      dup2\n      sub\n      dup3\n      mstore\n      0x2b\n      dup2\n      mstore\n      0x20\n      add\n      dup1\n      data_9f7f122b70f117f8950311c325d9279ba88d6a0d2b593ed4f11b7663b9f48d07\n      0x2b\n      swap2\n      codecopy\n      0x40\n      add\n      swap2\n      pop\n      pop\n      mload(0x40)\n      dup1\n      swap2\n      sub\n      swap1\n      revert\n    tag_125:\n        /* \"Topic.sol\":975:979  true */\n      0x01\n        /* \"Topic.sol\":963:979  isPublic == true */\n      iszero\n      iszero\n        /* \"Topic.sol\":963:971  isPublic */\n      0x01\n      0x14\n      swap1\n      sload\n      swap1\n      0x0100\n      exp\n      swap1\n      div\n      0xff\n      and\n        /* \"Topic.sol\":963:979  isPublic == true */\n      iszero\n      iszero\n      eq\n        /* \"Topic.sol\":955:1038  require(isPublic == true, 'The Topic has not been made public by the creator yet.') */\n      tag_127\n      jumpi\n      mload(0x40)\n      0x08c379a000000000000000000000000000000000000000000000000000000000\n      dup2\n      mstore\n      0x04\n      add\n      dup1\n      dup1\n      0x20\n      add\n      dup3\n      dup2\n      sub\n      dup3\n      mstore\n      0x36\n      dup2\n      mstore\n      0x20\n      add\n      dup1\n      data_0dcd6f99239ff481bb9978433adc808a27fd8c3813ed2f9969e4eb5b41c999c8\n      0x36\n      swap2\n      codecopy\n      0x40\n      add\n      swap2\n      pop\n      pop\n      mload(0x40)\n      dup1\n      swap2\n      sub\n      swap1\n      revert\n    tag_127:\n        /* \"Topic.sol\":2156:2157  0 */\n      0x00\n        /* \"Topic.sol\":2139:2152  argumentIndex */\n      dup2\n        /* \"Topic.sol\":2139:2157  argumentIndex != 0 */\n      eq\n      iszero\n        /* \"Topic.sol\":2131:2221  require(argumentIndex != 0, 'You cannot vote for the argument generated by the contract.') */\n      tag_129\n      jumpi\n      mload(0x40)\n      0x08c379a000000000000000000000000000000000000000000000000000000000\n      dup2\n      mstore\n      0x04\n      add\n      dup1\n      dup1\n      0x20\n      add\n      dup3\n      dup2\n      sub\n      dup3\n      mstore\n      0x3b\n      dup2\n      mstore\n      0x20\n      add\n      dup1\n      data_a51d6c7e63ccd193933dbe11cb306fe5ec831a64f09f21fc7409bad4b2e4d83d\n      0x3b\n      swap2\n      codecopy\n      0x40\n      add\n      swap2\n      pop\n      pop\n      mload(0x40)\n      dup1\n      swap2\n      sub\n      swap1\n      revert\n    tag_129:\n        /* \"Topic.sol\":2261:2262  0 */\n      0x00\n        /* \"Topic.sol\":2240:2245  voted */\n      0x05\n        /* \"Topic.sol\":2240:2257  voted[msg.sender] */\n      0x00\n        /* \"Topic.sol\":2246:2256  msg.sender */\n      caller\n        /* \"Topic.sol\":2240:2257  voted[msg.sender] */\n      0xffffffffffffffffffffffffffffffffffffffff\n      and\n      0xffffffffffffffffffffffffffffffffffffffff\n      and\n      dup2\n      mstore\n      0x20\n      add\n      swap1\n      dup2\n      mstore\n      0x20\n      add\n      0x00\n      keccak256\n      sload\n        /* \"Topic.sol\":2240:2262  voted[msg.sender] == 0 */\n      eq\n        /* \"Topic.sol\":2232:2320  require(voted[msg.sender] == 0, 'You have already voted. You may not change your vote.') */\n      tag_130\n      jumpi\n      mload(0x40)\n      0x08c379a000000000000000000000000000000000000000000000000000000000\n      dup2\n      mstore\n      0x04\n      add\n      dup1\n      dup1\n      0x20\n      add\n      dup3\n      dup2\n      sub\n      dup3\n      mstore\n      0x35\n      dup2\n      mstore\n      0x20\n      add\n      dup1\n      data_e7eff9e8bfd97a1462a69b9b489e013c0dc4931276c8cdd67607888c761a1d3c\n      0x35\n      swap2\n      codecopy\n      0x40\n      add\n      swap2\n      pop\n      pop\n      mload(0x40)\n      dup1\n      swap2\n      sub\n      swap1\n      revert\n    tag_130:\n        /* \"Topic.sol\":2352:2369  minimumInvestment */\n      sload(0x02)\n        /* \"Topic.sol\":2339:2348  msg.value */\n      callvalue\n        /* \"Topic.sol\":2339:2369  msg.value >= minimumInvestment */\n      lt\n      iszero\n        /* \"Topic.sol\":2331:2443  require(msg.value >= minimumInvestment, 'You must invest at least the minimum amountas decided by the creator.') */\n      tag_131\n      jumpi\n      mload(0x40)\n      0x08c379a000000000000000000000000000000000000000000000000000000000\n      dup2\n      mstore\n      0x04\n      add\n      dup1\n      dup1\n      0x20\n      add\n      dup3\n      dup2\n      sub\n      dup3\n      mstore\n      0x45\n      dup2\n      mstore\n      0x20\n      add\n      dup1\n      data_e4fa0cb8985058f63b9cb51c2253c421abddee7ee3e17fd4cc1399b190f1e5b2\n      0x45\n      swap2\n      codecopy\n      0x60\n      add\n      swap2\n      pop\n      pop\n      mload(0x40)\n      dup1\n      swap2\n      sub\n      swap1\n      revert\n    tag_131:\n        /* \"Topic.sol\":2476:2489  argumentIndex */\n      dup1\n        /* \"Topic.sol\":2456:2461  voted */\n      0x05\n        /* \"Topic.sol\":2456:2473  voted[msg.sender] */\n      0x00\n        /* \"Topic.sol\":2462:2472  msg.sender */\n      caller\n        /* \"Topic.sol\":2456:2473  voted[msg.sender] */\n      0xffffffffffffffffffffffffffffffffffffffff\n      and\n      0xffffffffffffffffffffffffffffffffffffffff\n      and\n      dup2\n      mstore\n      0x20\n      add\n      swap1\n      dup2\n      mstore\n      0x20\n      add\n      0x00\n      keccak256\n        /* \"Topic.sol\":2456:2489  voted[msg.sender] = argumentIndex */\n      dup2\n      swap1\n      sstore\n      pop\n        /* \"Topic.sol\":2500:2509  arguments */\n      0x04\n        /* \"Topic.sol\":2510:2523  argumentIndex */\n      dup2\n        /* \"Topic.sol\":2500:2524  arguments[argumentIndex] */\n      dup2\n      sload\n      dup2\n      lt\n      tag_132\n      jumpi\n      invalid\n    tag_132:\n      swap1\n      0x00\n      mstore\n      keccak256(0x00, 0x20)\n      swap1\n      0x03\n      mul\n      add\n        /* \"Topic.sol\":2500:2534  arguments[argumentIndex].voteCount */\n      0x02\n      add\n      0x00\n        /* \"Topic.sol\":2500:2536  arguments[argumentIndex].voteCount++ */\n      dup2\n      sload\n      dup1\n      swap3\n      swap2\n      swap1\n      0x01\n      add\n      swap2\n      swap1\n      pop\n      sstore\n      pop\n        /* \"Topic.sol\":2551:2560  arguments */\n      0x04\n        /* \"Topic.sol\":2561:2574  argumentIndex */\n      dup2\n        /* \"Topic.sol\":2551:2575  arguments[argumentIndex] */\n      dup2\n      sload\n      dup2\n      lt\n      tag_134\n      jumpi\n      invalid\n    tag_134:\n      swap1\n      0x00\n      mstore\n      keccak256(0x00, 0x20)\n      swap1\n      0x03\n      mul\n      add\n        /* \"Topic.sol\":2551:2582  arguments[argumentIndex].isTrue */\n      0x01\n      add\n      0x00\n      swap1\n      sload\n      swap1\n      0x0100\n      exp\n      swap1\n      div\n      0xff\n      and\n        /* \"Topic.sol\":2547:2698  if (arguments[argumentIndex].isTrue) {\r... */\n      iszero\n      tag_136\n      jumpi\n        /* \"Topic.sol\":2599:2610  truthVoters */\n      0x07\n        /* \"Topic.sol\":2616:2626  msg.sender */\n      caller\n        /* \"Topic.sol\":2599:2627  truthVoters.push(msg.sender) */\n      swap1\n      dup1\n        /* \"--CODEGEN--\":39:40   */\n      0x01\n        /* \"--CODEGEN--\":33:36   */\n      dup2\n        /* \"--CODEGEN--\":27:37   */\n      sload\n        /* \"--CODEGEN--\":23:41   */\n      add\n        /* \"--CODEGEN--\":57:67   */\n      dup1\n        /* \"--CODEGEN--\":52:55   */\n      dup3\n        /* \"--CODEGEN--\":45:68   */\n      sstore\n        /* \"--CODEGEN--\":79:89   */\n      dup1\n        /* \"--CODEGEN--\":72:89   */\n      swap2\n      pop\n        /* \"--CODEGEN--\":0:93   */\n      pop\n        /* \"Topic.sol\":2599:2627  truthVoters.push(msg.sender) */\n      swap1\n      0x01\n      dup3\n      sub\n      swap1\n      0x00\n      mstore\n      keccak256(0x00, 0x20)\n      add\n      0x00\n      swap1\n      swap2\n      swap3\n      swap1\n      swap2\n      swap1\n      swap2\n      0x0100\n      exp\n      dup2\n      sload\n      dup2\n      0xffffffffffffffffffffffffffffffffffffffff\n      mul\n      not\n      and\n      swap1\n      dup4\n      0xffffffffffffffffffffffffffffffffffffffff\n      and\n      mul\n      or\n      swap1\n      sstore\n      pop\n      pop\n        /* \"Topic.sol\":2547:2698  if (arguments[argumentIndex].isTrue) {\r... */\n      jump(tag_138)\n    tag_136:\n        /* \"Topic.sol\":2660:2669  lieVoters */\n      0x08\n        /* \"Topic.sol\":2675:2685  msg.sender */\n      caller\n        /* \"Topic.sol\":2660:2686  lieVoters.push(msg.sender) */\n      swap1\n      dup1\n        /* \"--CODEGEN--\":39:40   */\n      0x01\n        /* \"--CODEGEN--\":33:36   */\n      dup2\n        /* \"--CODEGEN--\":27:37   */\n      sload\n        /* \"--CODEGEN--\":23:41   */\n      add\n        /* \"--CODEGEN--\":57:67   */\n      dup1\n        /* \"--CODEGEN--\":52:55   */\n      dup3\n        /* \"--CODEGEN--\":45:68   */\n      sstore\n        /* \"--CODEGEN--\":79:89   */\n      dup1\n        /* \"--CODEGEN--\":72:89   */\n      swap2\n      pop\n        /* \"--CODEGEN--\":0:93   */\n      pop\n        /* \"Topic.sol\":2660:2686  lieVoters.push(msg.sender) */\n      swap1\n      0x01\n      dup3\n      sub\n      swap1\n      0x00\n      mstore\n      keccak256(0x00, 0x20)\n      add\n      0x00\n      swap1\n      swap2\n      swap3\n      swap1\n      swap2\n      swap1\n      swap2\n      0x0100\n      exp\n      dup2\n      sload\n      dup2\n      0xffffffffffffffffffffffffffffffffffffffff\n      mul\n      not\n      and\n      swap1\n      dup4\n      0xffffffffffffffffffffffffffffffffffffffff\n      and\n      mul\n      or\n      swap1\n      sstore\n      pop\n      pop\n        /* \"Topic.sol\":2547:2698  if (arguments[argumentIndex].isTrue) {\r... */\n    tag_138:\n        /* \"Topic.sol\":2036:2705  function vote(uint argumentIndex) public payable _mustBeWithinTimeFrame _publicOnly {\r... */\n      pop\n      jump\t// out\n        /* \"Topic.sol\":301:323  address public creator */\n    tag_36:\n      0x01\n      0x00\n      swap1\n      sload\n      swap1\n      0x0100\n      exp\n      swap1\n      div\n      0xffffffffffffffffffffffffffffffffffffffff\n      and\n      dup2\n      jump\t// out\n        /* \"Topic.sol\":2917:3543  function createArgument(string memory argumentContent, bool belief) public _mustBeWithinTimeFrame {\r... */\n    tag_43:\n        /* \"Topic.sol\":1227:1234  endTime */\n      sload(0x03)\n        /* \"Topic.sol\":1209:1224  block.timestamp */\n      timestamp\n        /* \"Topic.sol\":1209:1234  block.timestamp < endTime */\n      lt\n        /* \"Topic.sol\":1201:1282  require(block.timestamp < endTime, 'The period for the Topic has already ended.') */\n      tag_141\n      jumpi\n      mload(0x40)\n      0x08c379a000000000000000000000000000000000000000000000000000000000\n      dup2\n      mstore\n      0x04\n      add\n      dup1\n      dup1\n      0x20\n      add\n      dup3\n      dup2\n      sub\n      dup3\n      mstore\n      0x2b\n      dup2\n      mstore\n      0x20\n      add\n      dup1\n      data_9f7f122b70f117f8950311c325d9279ba88d6a0d2b593ed4f11b7663b9f48d07\n      0x2b\n      swap2\n      codecopy\n      0x40\n      add\n      swap2\n      pop\n      pop\n      mload(0x40)\n      dup1\n      swap2\n      sub\n      swap1\n      revert\n    tag_141:\n        /* \"Topic.sol\":3196:3197  0 */\n      0x00\n        /* \"Topic.sol\":3165:3180  createdArgument */\n      0x06\n        /* \"Topic.sol\":3165:3192  createdArgument[msg.sender] */\n      0x00\n        /* \"Topic.sol\":3181:3191  msg.sender */\n      caller\n        /* \"Topic.sol\":3165:3192  createdArgument[msg.sender] */\n      0xffffffffffffffffffffffffffffffffffffffff\n      and\n      0xffffffffffffffffffffffffffffffffffffffff\n      and\n      dup2\n      mstore\n      0x20\n      add\n      swap1\n      dup2\n      mstore\n      0x20\n      add\n      0x00\n      keccak256\n      sload\n        /* \"Topic.sol\":3165:3197  createdArgument[msg.sender] == 0 */\n      eq\n        /* \"Topic.sol\":3157:3239  require(createdArgument[msg.sender] == 0, 'You have already created an argument.') */\n      tag_143\n      jumpi\n      mload(0x40)\n      0x08c379a000000000000000000000000000000000000000000000000000000000\n      dup2\n      mstore\n      0x04\n      add\n      dup1\n      dup1\n      0x20\n      add\n      dup3\n      dup2\n      sub\n      dup3\n      mstore\n      0x25\n      dup2\n      mstore\n      0x20\n      add\n      dup1\n      data_8912f675a50e382e9fd7b592cf1cd9595235c43ce4309904b1bd35e2a18fc4ee\n      0x25\n      swap2\n      codecopy\n      0x40\n      add\n      swap2\n      pop\n      pop\n      mload(0x40)\n      dup1\n      swap2\n      sub\n      swap1\n      revert\n    tag_143:\n        /* \"Topic.sol\":3252:3279  Argument memory newArgument */\n      tag_144\n      tag_145\n      jump\t// in\n    tag_144:\n        /* \"Topic.sol\":3282:3432  Argument({\r... */\n      mload(0x40)\n      dup1\n      0x80\n      add\n      0x40\n      mstore\n      dup1\n        /* \"Topic.sol\":3315:3330  argumentContent */\n      dup5\n        /* \"Topic.sol\":3282:3432  Argument({\r... */\n      dup2\n      mstore\n      0x20\n      add\n        /* \"Topic.sol\":3353:3359  belief */\n      dup4\n        /* \"Topic.sol\":3282:3432  Argument({\r... */\n      iszero\n      iszero\n      dup2\n      mstore\n      0x20\n      add\n        /* \"Topic.sol\":3383:3393  msg.sender */\n      caller\n        /* \"Topic.sol\":3282:3432  Argument({\r... */\n      0xffffffffffffffffffffffffffffffffffffffff\n      and\n      dup2\n      mstore\n      0x20\n      add\n        /* \"Topic.sol\":3419:3420  0 */\n      0x00\n        /* \"Topic.sol\":3282:3432  Argument({\r... */\n      dup2\n      mstore\n      pop\n        /* \"Topic.sol\":3252:3432  Argument memory newArgument = Argument({\r... */\n      swap1\n      pop\n        /* \"Topic.sol\":3443:3452  arguments */\n      0x04\n        /* \"Topic.sol\":3458:3469  newArgument */\n      dup2\n        /* \"Topic.sol\":3443:3470  arguments.push(newArgument) */\n      swap1\n      dup1\n        /* \"--CODEGEN--\":39:40   */\n      0x01\n        /* \"--CODEGEN--\":33:36   */\n      dup2\n        /* \"--CODEGEN--\":27:37   */\n      sload\n        /* \"--CODEGEN--\":23:41   */\n      add\n        /* \"--CODEGEN--\":57:67   */\n      dup1\n        /* \"--CODEGEN--\":52:55   */\n      dup3\n        /* \"--CODEGEN--\":45:68   */\n      sstore\n        /* \"--CODEGEN--\":79:89   */\n      dup1\n        /* \"--CODEGEN--\":72:89   */\n      swap2\n      pop\n        /* \"--CODEGEN--\":0:93   */\n      pop\n        /* \"Topic.sol\":3443:3470  arguments.push(newArgument) */\n      swap1\n      0x01\n      dup3\n      sub\n      swap1\n      0x00\n      mstore\n      keccak256(0x00, 0x20)\n      swap1\n      0x03\n      mul\n      add\n      0x00\n      swap1\n      swap2\n      swap3\n      swap1\n      swap2\n      swap1\n      swap2\n      pop\n      0x00\n      dup3\n      add\n      mload\n      dup2\n      0x00\n      add\n      swap1\n      dup1\n      mload\n      swap1\n      0x20\n      add\n      swap1\n      tag_147\n      swap3\n      swap2\n      swap1\n      tag_148\n      jump\t// in\n    tag_147:\n      pop\n      0x20\n      dup3\n      add\n      mload\n      dup2\n      0x01\n      add\n      exp(0x0100, 0x00)\n      dup2\n      sload\n      dup2\n      0xff\n      mul\n      not\n      and\n      swap1\n      dup4\n      iszero\n      iszero\n      mul\n      or\n      swap1\n      sstore\n      pop\n      0x40\n      dup3\n      add\n      mload\n      dup2\n      0x01\n      add\n      exp(0x0100, 0x01)\n      dup2\n      sload\n      dup2\n      0xffffffffffffffffffffffffffffffffffffffff\n      mul\n      not\n      and\n      swap1\n      dup4\n      0xffffffffffffffffffffffffffffffffffffffff\n      and\n      mul\n      or\n      swap1\n      sstore\n      pop\n      0x60\n      dup3\n      add\n      mload\n      dup2\n      0x02\n      add\n      sstore\n      pop\n      pop\n      pop\n        /* \"Topic.sol\":3532:3533  1 */\n      0x01\n        /* \"Topic.sol\":3511:3529  getArgumentCount() */\n      tag_149\n        /* \"Topic.sol\":3511:3527  getArgumentCount */\n      tag_104\n        /* \"Topic.sol\":3511:3529  getArgumentCount() */\n      jump\t// in\n    tag_149:\n        /* \"Topic.sol\":3511:3533  getArgumentCount() - 1 */\n      sub\n        /* \"Topic.sol\":3481:3496  createdArgument */\n      0x06\n        /* \"Topic.sol\":3481:3508  createdArgument[msg.sender] */\n      0x00\n        /* \"Topic.sol\":3497:3507  msg.sender */\n      caller\n        /* \"Topic.sol\":3481:3508  createdArgument[msg.sender] */\n      0xffffffffffffffffffffffffffffffffffffffff\n      and\n      0xffffffffffffffffffffffffffffffffffffffff\n      and\n      dup2\n      mstore\n      0x20\n      add\n      swap1\n      dup2\n      mstore\n      0x20\n      add\n      0x00\n      keccak256\n        /* \"Topic.sol\":3481:3533  createdArgument[msg.sender] = getArgumentCount() - 1 */\n      dup2\n      swap1\n      sstore\n      pop\n        /* \"Topic.sol\":1293:1294  _ */\n      pop\n        /* \"Topic.sol\":2917:3543  function createArgument(string memory argumentContent, bool belief) public _mustBeWithinTimeFrame {\r... */\n      pop\n      pop\n      jump\t// out\n        /* \"Topic.sol\":612:646  address payable[] public lieVoters */\n    tag_47:\n      0x08\n      dup2\n      dup2\n      sload\n      dup2\n      lt\n      tag_150\n      jumpi\n      invalid\n    tag_150:\n      swap1\n      0x00\n      mstore\n      keccak256(0x00, 0x20)\n      add\n      0x00\n      swap2\n      pop\n      sload\n      swap1\n      0x0100\n      exp\n      swap1\n      div\n      0xffffffffffffffffffffffffffffffffffffffff\n      and\n      dup2\n      jump\t// out\n        /* \"Topic.sol\":419:446  Argument[] public arguments */\n    tag_51:\n      0x04\n      dup2\n      dup2\n      sload\n      dup2\n      lt\n      tag_152\n      jumpi\n      invalid\n    tag_152:\n      swap1\n      0x00\n      mstore\n      keccak256(0x00, 0x20)\n      swap1\n      0x03\n      mul\n      add\n      0x00\n      swap2\n      pop\n      swap1\n      pop\n      dup1\n      0x00\n      add\n      dup1\n      sload\n      0x01\n      dup2\n      0x01\n      and\n      iszero\n      0x0100\n      mul\n      sub\n      and\n      0x02\n      swap1\n      div\n      dup1\n      0x1f\n      add\n      0x20\n      dup1\n      swap2\n      div\n      mul\n      0x20\n      add\n      mload(0x40)\n      swap1\n      dup2\n      add\n      0x40\n      mstore\n      dup1\n      swap3\n      swap2\n      swap1\n      dup2\n      dup2\n      mstore\n      0x20\n      add\n      dup3\n      dup1\n      sload\n      0x01\n      dup2\n      0x01\n      and\n      iszero\n      0x0100\n      mul\n      sub\n      and\n      0x02\n      swap1\n      div\n      dup1\n      iszero\n      tag_154\n      jumpi\n      dup1\n      0x1f\n      lt\n      tag_155\n      jumpi\n      0x0100\n      dup1\n      dup4\n      sload\n      div\n      mul\n      dup4\n      mstore\n      swap2\n      0x20\n      add\n      swap2\n      jump(tag_154)\n    tag_155:\n      dup3\n      add\n      swap2\n      swap1\n      0x00\n      mstore\n      keccak256(0x00, 0x20)\n      swap1\n    tag_156:\n      dup2\n      sload\n      dup2\n      mstore\n      swap1\n      0x01\n      add\n      swap1\n      0x20\n      add\n      dup1\n      dup4\n      gt\n      tag_156\n      jumpi\n      dup3\n      swap1\n      sub\n      0x1f\n      and\n      dup3\n      add\n      swap2\n    tag_154:\n      pop\n      pop\n      pop\n      pop\n      pop\n      swap1\n      dup1\n      0x01\n      add\n      0x00\n      swap1\n      sload\n      swap1\n      0x0100\n      exp\n      swap1\n      div\n      0xff\n      and\n      swap1\n      dup1\n      0x01\n      add\n      0x01\n      swap1\n      sload\n      swap1\n      0x0100\n      exp\n      swap1\n      div\n      0xffffffffffffffffffffffffffffffffffffffff\n      and\n      swap1\n      dup1\n      0x02\n      add\n      sload\n      swap1\n      pop\n      dup5\n      jump\t// out\n        /* \"Topic.sol\":357:386  uint public minimumInvestment */\n    tag_58:\n      sload(0x02)\n      dup2\n      jump\t// out\n        /* \"Topic.sol\":2713:2809  function getTruthCount() public view returns (uint) {\r... */\n    tag_61:\n        /* \"Topic.sol\":2759:2763  uint */\n      0x00\n        /* \"Topic.sol\":2783:2794  truthVoters */\n      0x07\n        /* \"Topic.sol\":2783:2801  truthVoters.length */\n      dup1\n      sload\n      swap1\n      pop\n        /* \"Topic.sol\":2776:2801  return truthVoters.length */\n      swap1\n      pop\n        /* \"Topic.sol\":2713:2809  function getTruthCount() public view returns (uint) {\r... */\n      swap1\n      jump\t// out\n        /* \"Topic.sol\":393:412  uint public endTime */\n    tag_64:\n      sload(0x03)\n      dup2\n      jump\t// out\n        /* \"Topic.sol\":499:546  mapping(address => uint) public createdArgument */\n    tag_68:\n      mstore(0x20, 0x06)\n      dup1\n      0x00\n      mstore\n      keccak256(0x00, 0x40)\n      0x00\n      swap2\n      pop\n      swap1\n      pop\n      sload\n      dup2\n      jump\t// out\n        /* \"Topic.sol\":5007:5613  function claim() public {\r... */\n    tag_71:\n        /* \"Topic.sol\":5068:5075  endTime */\n      sload(0x03)\n        /* \"Topic.sol\":5050:5065  block.timestamp */\n      timestamp\n        /* \"Topic.sol\":5050:5075  block.timestamp > endTime */\n      gt\n        /* \"Topic.sol\":5042:5134  require(block.timestamp > endTime, 'You can only claim your rewards after the time period.') */\n      tag_159\n      jumpi\n      mload(0x40)\n      0x08c379a000000000000000000000000000000000000000000000000000000000\n      dup2\n      mstore\n      0x04\n      add\n      dup1\n      dup1\n      0x20\n      add\n      dup3\n      dup2\n      sub\n      dup3\n      mstore\n      0x36\n      dup2\n      mstore\n      0x20\n      add\n      dup1\n      data_1382083f71a022fa6144748d79496d6f05d3bcf3a0f484b323383c5c8edd8d26\n      0x36\n      swap2\n      codecopy\n      0x40\n      add\n      swap2\n      pop\n      pop\n      mload(0x40)\n      dup1\n      swap2\n      sub\n      swap1\n      revert\n    tag_159:\n        /* \"Topic.sol\":5145:5163  uint argumentIndex */\n      0x00\n        /* \"Topic.sol\":5166:5171  voted */\n      0x05\n        /* \"Topic.sol\":5166:5183  voted[msg.sender] */\n      0x00\n        /* \"Topic.sol\":5172:5182  msg.sender */\n      caller\n        /* \"Topic.sol\":5166:5183  voted[msg.sender] */\n      0xffffffffffffffffffffffffffffffffffffffff\n      and\n      0xffffffffffffffffffffffffffffffffffffffff\n      and\n      dup2\n      mstore\n      0x20\n      add\n      swap1\n      dup2\n      mstore\n      0x20\n      add\n      0x00\n      keccak256\n      sload\n        /* \"Topic.sol\":5145:5183  uint argumentIndex = voted[msg.sender] */\n      swap1\n      pop\n        /* \"Topic.sol\":5219:5220  0 */\n      0x00\n        /* \"Topic.sol\":5202:5215  argumentIndex */\n      dup2\n        /* \"Topic.sol\":5202:5220  argumentIndex != 0 */\n      eq\n      iszero\n        /* \"Topic.sol\":5194:5281  require(argumentIndex != 0, 'You did not vote during the period, so you cannot claim.') */\n      tag_160\n      jumpi\n      mload(0x40)\n      0x08c379a000000000000000000000000000000000000000000000000000000000\n      dup2\n      mstore\n      0x04\n      add\n      dup1\n      dup1\n      0x20\n      add\n      dup3\n      dup2\n      sub\n      dup3\n      mstore\n      0x38\n      dup2\n      mstore\n      0x20\n      add\n      dup1\n      data_0f62f618588d36303d76fa765b4096f4535e8428b36a788090d83035227e6cbf\n      0x38\n      swap2\n      codecopy\n      0x40\n      add\n      swap2\n      pop\n      pop\n      mload(0x40)\n      dup1\n      swap2\n      sub\n      swap1\n      revert\n    tag_160:\n        /* \"Topic.sol\":5292:5312  Argument storage arg */\n      0x00\n        /* \"Topic.sol\":5315:5324  arguments */\n      0x04\n        /* \"Topic.sol\":5325:5338  argumentIndex */\n      dup3\n        /* \"Topic.sol\":5315:5339  arguments[argumentIndex] */\n      dup2\n      sload\n      dup2\n      lt\n      tag_161\n      jumpi\n      invalid\n    tag_161:\n      swap1\n      0x00\n      mstore\n      keccak256(0x00, 0x20)\n      swap1\n      0x03\n      mul\n      add\n        /* \"Topic.sol\":5292:5339  Argument storage arg = arguments[argumentIndex] */\n      swap1\n      pop\n        /* \"Topic.sol\":5393:5394  0 */\n      0x00\n        /* \"Topic.sol\":5381:5389  majority */\n      sload(0x0a)\n        /* \"Topic.sol\":5381:5394  majority == 0 */\n      eq\n        /* \"Topic.sol\":5377:5442  if (majority == 0) {\r... */\n      iszero\n      tag_163\n      jumpi\n        /* \"Topic.sol\":5411:5430  calculateMajority() */\n      tag_164\n        /* \"Topic.sol\":5411:5428  calculateMajority */\n      tag_114\n        /* \"Topic.sol\":5411:5430  calculateMajority() */\n      jump\t// in\n    tag_164:\n        /* \"Topic.sol\":5377:5442  if (majority == 0) {\r... */\n    tag_163:\n        /* \"Topic.sol\":5471:5472  1 */\n      0x01\n        /* \"Topic.sol\":5459:5467  majority */\n      sload(0x0a)\n        /* \"Topic.sol\":5459:5472  majority == 1 */\n      eq\n        /* \"Topic.sol\":5459:5486  majority == 1 && arg.isTrue */\n      dup1\n      iszero\n      tag_165\n      jumpi\n      pop\n        /* \"Topic.sol\":5476:5479  arg */\n      dup1\n        /* \"Topic.sol\":5476:5486  arg.isTrue */\n      0x01\n      add\n      0x00\n      swap1\n      sload\n      swap1\n      0x0100\n      exp\n      swap1\n      div\n      0xff\n      and\n        /* \"Topic.sol\":5459:5486  majority == 1 && arg.isTrue */\n    tag_165:\n        /* \"Topic.sol\":5458:5521  (majority == 1 && arg.isTrue) || (majority == 2 && !arg.isTrue) */\n      dup1\n      tag_166\n      jumpi\n      pop\n        /* \"Topic.sol\":5504:5505  2 */\n      0x02\n        /* \"Topic.sol\":5492:5500  majority */\n      sload(0x0a)\n        /* \"Topic.sol\":5492:5505  majority == 2 */\n      eq\n        /* \"Topic.sol\":5492:5520  majority == 2 && !arg.isTrue */\n      dup1\n      iszero\n      tag_167\n      jumpi\n      pop\n        /* \"Topic.sol\":5510:5513  arg */\n      dup1\n        /* \"Topic.sol\":5510:5520  arg.isTrue */\n      0x01\n      add\n      0x00\n      swap1\n      sload\n      swap1\n      0x0100\n      exp\n      swap1\n      div\n      0xff\n      and\n        /* \"Topic.sol\":5509:5520  !arg.isTrue */\n      iszero\n        /* \"Topic.sol\":5492:5520  majority == 2 && !arg.isTrue */\n    tag_167:\n        /* \"Topic.sol\":5458:5521  (majority == 1 && arg.isTrue) || (majority == 2 && !arg.isTrue) */\n    tag_166:\n        /* \"Topic.sol\":5458:5540  (majority == 1 && arg.isTrue) || (majority == 2 && !arg.isTrue) || (majority == 3) */\n      dup1\n      tag_168\n      jumpi\n      pop\n        /* \"Topic.sol\":5538:5539  3 */\n      0x03\n        /* \"Topic.sol\":5526:5534  majority */\n      sload(0x0a)\n        /* \"Topic.sol\":5526:5539  majority == 3 */\n      eq\n        /* \"Topic.sol\":5458:5540  (majority == 1 && arg.isTrue) || (majority == 2 && !arg.isTrue) || (majority == 3) */\n    tag_168:\n        /* \"Topic.sol\":5454:5606  if ((majority == 1 && arg.isTrue) || (majority == 2 && !arg.isTrue) || (majority == 3)) {\r... */\n      iszero\n      tag_169\n      jumpi\n        /* \"Topic.sol\":5557:5567  msg.sender */\n      caller\n        /* \"Topic.sol\":5557:5576  msg.sender.transfer */\n      0xffffffffffffffffffffffffffffffffffffffff\n      and\n        /* \"Topic.sol\":5557:5594  msg.sender.transfer(payPerIndividual) */\n      0x08fc\n        /* \"Topic.sol\":5577:5593  payPerIndividual */\n      sload(0x0b)\n        /* \"Topic.sol\":5557:5594  msg.sender.transfer(payPerIndividual) */\n      swap1\n      dup2\n      iszero\n      mul\n      swap1\n      mload(0x40)\n      0x00\n      mload(0x40)\n      dup1\n      dup4\n      sub\n      dup2\n      dup6\n      dup9\n      dup9\n      call\n      swap4\n      pop\n      pop\n      pop\n      pop\n      iszero\n        /* \"--CODEGEN--\":8:17   */\n      dup1\n        /* \"--CODEGEN--\":5:7   */\n      iszero\n      tag_170\n      jumpi\n        /* \"--CODEGEN--\":45:61   */\n      returndatasize\n        /* \"--CODEGEN--\":42:43   */\n      0x00\n        /* \"--CODEGEN--\":39:40   */\n      dup1\n        /* \"--CODEGEN--\":24:62   */\n      returndatacopy\n        /* \"--CODEGEN--\":77:93   */\n      returndatasize\n        /* \"--CODEGEN--\":74:75   */\n      0x00\n        /* \"--CODEGEN--\":67:94   */\n      revert\n        /* \"--CODEGEN--\":5:7   */\n    tag_170:\n        /* \"Topic.sol\":5557:5594  msg.sender.transfer(payPerIndividual) */\n      pop\n        /* \"Topic.sol\":5454:5606  if ((majority == 1 && arg.isTrue) || (majority == 2 && !arg.isTrue) || (majority == 3)) {\r... */\n    tag_169:\n        /* \"Topic.sol\":5007:5613  function claim() public {\r... */\n      pop\n      pop\n      jump\t// out\n        /* \"Topic.sol\":2817:2909  function getLieCount() public view returns (uint) {\r... */\n    tag_74:\n        /* \"Topic.sol\":2861:2865  uint */\n      0x00\n        /* \"Topic.sol\":2885:2894  lieVoters */\n      0x08\n        /* \"Topic.sol\":2885:2901  lieVoters.length */\n      dup1\n      sload\n      swap1\n      pop\n        /* \"Topic.sol\":2878:2901  return lieVoters.length */\n      swap1\n      pop\n        /* \"Topic.sol\":2817:2909  function getLieCount() public view returns (uint) {\r... */\n      swap1\n      jump\t// out\n        /* \"Topic.sol\":273:294  string public content */\n    tag_77:\n      0x00\n      dup1\n      sload\n      0x01\n      dup2\n      0x01\n      and\n      iszero\n      0x0100\n      mul\n      sub\n      and\n      0x02\n      swap1\n      div\n      dup1\n      0x1f\n      add\n      0x20\n      dup1\n      swap2\n      div\n      mul\n      0x20\n      add\n      mload(0x40)\n      swap1\n      dup2\n      add\n      0x40\n      mstore\n      dup1\n      swap3\n      swap2\n      swap1\n      dup2\n      dup2\n      mstore\n      0x20\n      add\n      dup3\n      dup1\n      sload\n      0x01\n      dup2\n      0x01\n      and\n      iszero\n      0x0100\n      mul\n      sub\n      and\n      0x02\n      swap1\n      div\n      dup1\n      iszero\n      tag_172\n      jumpi\n      dup1\n      0x1f\n      lt\n      tag_173\n      jumpi\n      0x0100\n      dup1\n      dup4\n      sload\n      div\n      mul\n      dup4\n      mstore\n      swap2\n      0x20\n      add\n      swap2\n      jump(tag_172)\n    tag_173:\n      dup3\n      add\n      swap2\n      swap1\n      0x00\n      mstore\n      keccak256(0x00, 0x20)\n      swap1\n    tag_174:\n      dup2\n      sload\n      dup2\n      mstore\n      swap1\n      0x01\n      add\n      swap1\n      0x20\n      add\n      dup1\n      dup4\n      gt\n      tag_174\n      jumpi\n      dup3\n      swap1\n      sub\n      0x1f\n      and\n      dup3\n      add\n      swap2\n    tag_172:\n      pop\n      pop\n      pop\n      pop\n      pop\n      dup2\n      jump\t// out\n        /* \"Topic.sol\":5621:5954  function creatorClaim() public _creatorOnly {\r... */\n    tag_84:\n        /* \"Topic.sol\":823:830  creator */\n      0x01\n      0x00\n      swap1\n      sload\n      swap1\n      0x0100\n      exp\n      swap1\n      div\n      0xffffffffffffffffffffffffffffffffffffffff\n      and\n        /* \"Topic.sol\":809:830  msg.sender == creator */\n      0xffffffffffffffffffffffffffffffffffffffff\n      and\n        /* \"Topic.sol\":809:819  msg.sender */\n      caller\n        /* \"Topic.sol\":809:830  msg.sender == creator */\n      0xffffffffffffffffffffffffffffffffffffffff\n      and\n      eq\n        /* \"Topic.sol\":801:893  require(msg.sender == creator, 'You must be the creator of this Topic in order to do this.') */\n      tag_176\n      jumpi\n      mload(0x40)\n      0x08c379a000000000000000000000000000000000000000000000000000000000\n      dup2\n      mstore\n      0x04\n      add\n      dup1\n      dup1\n      0x20\n      add\n      dup3\n      dup2\n      sub\n      dup3\n      mstore\n      0x3a\n      dup2\n      mstore\n      0x20\n      add\n      dup1\n      data_8e90808f17bc1108e9ea5a79970bcefb81f12d2e44e112b3ad4b251ae0873244\n      0x3a\n      swap2\n      codecopy\n      0x40\n      add\n      swap2\n      pop\n      pop\n      mload(0x40)\n      dup1\n      swap2\n      sub\n      swap1\n      revert\n    tag_176:\n        /* \"Topic.sol\":5720:5721  0 */\n      0x00\n        /* \"Topic.sol\":5703:5716  getLieCount() */\n      tag_178\n        /* \"Topic.sol\":5703:5714  getLieCount */\n      tag_74\n        /* \"Topic.sol\":5703:5716  getLieCount() */\n      jump\t// in\n    tag_178:\n        /* \"Topic.sol\":5685:5700  getTruthCount() */\n      tag_179\n        /* \"Topic.sol\":5685:5698  getTruthCount */\n      tag_61\n        /* \"Topic.sol\":5685:5700  getTruthCount() */\n      jump\t// in\n    tag_179:\n        /* \"Topic.sol\":5685:5716  getTruthCount() + getLieCount() */\n      add\n        /* \"Topic.sol\":5685:5721  getTruthCount() + getLieCount() == 0 */\n      eq\n        /* \"Topic.sol\":5676:5788  require((getTruthCount() + getLieCount() == 0), 'The money goes to the people who participated in the process.') */\n      tag_180\n      jumpi\n      mload(0x40)\n      0x08c379a000000000000000000000000000000000000000000000000000000000\n      dup2\n      mstore\n      0x04\n      add\n      dup1\n      dup1\n      0x20\n      add\n      dup3\n      dup2\n      sub\n      dup3\n      mstore\n      0x3d\n      dup2\n      mstore\n      0x20\n      add\n      dup1\n      data_487936df645dd8c7181d68f73972966a3a06b5ee3756057942e5a7608d64edfe\n      0x3d\n      swap2\n      codecopy\n      0x40\n      add\n      swap2\n      pop\n      pop\n      mload(0x40)\n      dup1\n      swap2\n      sub\n      swap1\n      revert\n    tag_180:\n        /* \"Topic.sol\":5825:5832  endTime */\n      sload(0x03)\n        /* \"Topic.sol\":5807:5822  block.timestamp */\n      timestamp\n        /* \"Topic.sol\":5807:5832  block.timestamp > endTime */\n      gt\n        /* \"Topic.sol\":5799:5891  require(block.timestamp > endTime, 'You can only claim your rewards after the time period.') */\n      tag_181\n      jumpi\n      mload(0x40)\n      0x08c379a000000000000000000000000000000000000000000000000000000000\n      dup2\n      mstore\n      0x04\n      add\n      dup1\n      dup1\n      0x20\n      add\n      dup3\n      dup2\n      sub\n      dup3\n      mstore\n      0x36\n      dup2\n      mstore\n      0x20\n      add\n      dup1\n      data_1382083f71a022fa6144748d79496d6f05d3bcf3a0f484b323383c5c8edd8d26\n      0x36\n      swap2\n      codecopy\n      0x40\n      add\n      swap2\n      pop\n      pop\n      mload(0x40)\n      dup1\n      swap2\n      sub\n      swap1\n      revert\n    tag_181:\n        /* \"Topic.sol\":5904:5914  msg.sender */\n      caller\n        /* \"Topic.sol\":5904:5923  msg.sender.transfer */\n      0xffffffffffffffffffffffffffffffffffffffff\n      and\n        /* \"Topic.sol\":5904:5946  msg.sender.transfer(address(this).balance) */\n      0x08fc\n        /* \"Topic.sol\":5932:5936  this */\n      address\n        /* \"Topic.sol\":5924:5945  address(this).balance */\n      0xffffffffffffffffffffffffffffffffffffffff\n      and\n      balance\n        /* \"Topic.sol\":5904:5946  msg.sender.transfer(address(this).balance) */\n      swap1\n      dup2\n      iszero\n      mul\n      swap1\n      mload(0x40)\n      0x00\n      mload(0x40)\n      dup1\n      dup4\n      sub\n      dup2\n      dup6\n      dup9\n      dup9\n      call\n      swap4\n      pop\n      pop\n      pop\n      pop\n      iszero\n        /* \"--CODEGEN--\":8:17   */\n      dup1\n        /* \"--CODEGEN--\":5:7   */\n      iszero\n      tag_182\n      jumpi\n        /* \"--CODEGEN--\":45:61   */\n      returndatasize\n        /* \"--CODEGEN--\":42:43   */\n      0x00\n        /* \"--CODEGEN--\":39:40   */\n      dup1\n        /* \"--CODEGEN--\":24:62   */\n      returndatacopy\n        /* \"--CODEGEN--\":77:93   */\n      returndatasize\n        /* \"--CODEGEN--\":74:75   */\n      0x00\n        /* \"--CODEGEN--\":67:94   */\n      revert\n        /* \"--CODEGEN--\":5:7   */\n    tag_182:\n        /* \"Topic.sol\":5904:5946  msg.sender.transfer(address(this).balance) */\n      pop\n        /* \"Topic.sol\":5621:5954  function creatorClaim() public _creatorOnly {\r... */\n      jump\t// out\n        /* \"Topic.sol\":455:492  mapping(address => uint) public voted */\n    tag_88:\n      mstore(0x20, 0x05)\n      dup1\n      0x00\n      mstore\n      keccak256(0x00, 0x40)\n      0x00\n      swap2\n      pop\n      swap1\n      pop\n      sload\n      dup2\n      jump\t// out\n        /* \"Topic.sol\":3551:3878  function modifyArgument(uint argumentIndex, string memory newContent) public _mustBeWithinTimeFrame _publicOnly {\r... */\n    tag_95:\n        /* \"Topic.sol\":1227:1234  endTime */\n      sload(0x03)\n        /* \"Topic.sol\":1209:1224  block.timestamp */\n      timestamp\n        /* \"Topic.sol\":1209:1234  block.timestamp < endTime */\n      lt\n        /* \"Topic.sol\":1201:1282  require(block.timestamp < endTime, 'The period for the Topic has already ended.') */\n      tag_184\n      jumpi\n      mload(0x40)\n      0x08c379a000000000000000000000000000000000000000000000000000000000\n      dup2\n      mstore\n      0x04\n      add\n      dup1\n      dup1\n      0x20\n      add\n      dup3\n      dup2\n      sub\n      dup3\n      mstore\n      0x2b\n      dup2\n      mstore\n      0x20\n      add\n      dup1\n      data_9f7f122b70f117f8950311c325d9279ba88d6a0d2b593ed4f11b7663b9f48d07\n      0x2b\n      swap2\n      codecopy\n      0x40\n      add\n      swap2\n      pop\n      pop\n      mload(0x40)\n      dup1\n      swap2\n      sub\n      swap1\n      revert\n    tag_184:\n        /* \"Topic.sol\":975:979  true */\n      0x01\n        /* \"Topic.sol\":963:979  isPublic == true */\n      iszero\n      iszero\n        /* \"Topic.sol\":963:971  isPublic */\n      0x01\n      0x14\n      swap1\n      sload\n      swap1\n      0x0100\n      exp\n      swap1\n      div\n      0xff\n      and\n        /* \"Topic.sol\":963:979  isPublic == true */\n      iszero\n      iszero\n      eq\n        /* \"Topic.sol\":955:1038  require(isPublic == true, 'The Topic has not been made public by the creator yet.') */\n      tag_186\n      jumpi\n      mload(0x40)\n      0x08c379a000000000000000000000000000000000000000000000000000000000\n      dup2\n      mstore\n      0x04\n      add\n      dup1\n      dup1\n      0x20\n      add\n      dup3\n      dup2\n      sub\n      dup3\n      mstore\n      0x36\n      dup2\n      mstore\n      0x20\n      add\n      dup1\n      data_0dcd6f99239ff481bb9978433adc808a27fd8c3813ed2f9969e4eb5b41c999c8\n      0x36\n      swap2\n      codecopy\n      0x40\n      add\n      swap2\n      pop\n      pop\n      mload(0x40)\n      dup1\n      swap2\n      sub\n      swap1\n      revert\n    tag_186:\n        /* \"Topic.sol\":3674:3694  Argument storage arg */\n      0x00\n        /* \"Topic.sol\":3697:3706  arguments */\n      0x04\n        /* \"Topic.sol\":3707:3720  argumentIndex */\n      dup4\n        /* \"Topic.sol\":3697:3721  arguments[argumentIndex] */\n      dup2\n      sload\n      dup2\n      lt\n      tag_188\n      jumpi\n      invalid\n    tag_188:\n      swap1\n      0x00\n      mstore\n      keccak256(0x00, 0x20)\n      swap1\n      0x03\n      mul\n      add\n        /* \"Topic.sol\":3674:3721  Argument storage arg = arguments[argumentIndex] */\n      swap1\n      pop\n        /* \"Topic.sol\":3755:3765  msg.sender */\n      caller\n        /* \"Topic.sol\":3740:3765  arg.creator == msg.sender */\n      0xffffffffffffffffffffffffffffffffffffffff\n      and\n        /* \"Topic.sol\":3740:3743  arg */\n      dup2\n        /* \"Topic.sol\":3740:3751  arg.creator */\n      0x01\n      add\n      0x01\n      swap1\n      sload\n      swap1\n      0x0100\n      exp\n      swap1\n      div\n      0xffffffffffffffffffffffffffffffffffffffff\n      and\n        /* \"Topic.sol\":3740:3765  arg.creator == msg.sender */\n      0xffffffffffffffffffffffffffffffffffffffff\n      and\n      eq\n        /* \"Topic.sol\":3732:3833  require(arg.creator == msg.sender, 'You must be the creator of this argument to modify its contents') */\n      tag_190\n      jumpi\n      mload(0x40)\n      0x08c379a000000000000000000000000000000000000000000000000000000000\n      dup2\n      mstore\n      0x04\n      add\n      dup1\n      dup1\n      0x20\n      add\n      dup3\n      dup2\n      sub\n      dup3\n      mstore\n      0x3f\n      dup2\n      mstore\n      0x20\n      add\n      dup1\n      data_462972cdfa3949c714200f01cc0119c34f13d2febb0b716c5c847368d043f42b\n      0x3f\n      swap2\n      codecopy\n      0x40\n      add\n      swap2\n      pop\n      pop\n      mload(0x40)\n      dup1\n      swap2\n      sub\n      swap1\n      revert\n    tag_190:\n        /* \"Topic.sol\":3860:3870  newContent */\n      dup2\n        /* \"Topic.sol\":3846:3849  arg */\n      dup2\n        /* \"Topic.sol\":3846:3857  arg.content */\n      0x00\n      add\n        /* \"Topic.sol\":3846:3870  arg.content = newContent */\n      swap1\n      dup1\n      mload\n      swap1\n      0x20\n      add\n      swap1\n      tag_191\n      swap3\n      swap2\n      swap1\n      tag_192\n      jump\t// in\n    tag_191:\n      pop\n        /* \"Topic.sol\":1049:1050  _ */\n      pop\n        /* \"Topic.sol\":3551:3878  function modifyArgument(uint argumentIndex, string memory newContent) public _mustBeWithinTimeFrame _publicOnly {\r... */\n      pop\n      pop\n      jump\t// out\n        /* \"Topic.sol\":729:757  uint public payPerIndividual */\n    tag_98:\n      sload(0x0b)\n      dup2\n      jump\t// out\n        /* \"Topic.sol\":702:722  uint public majority */\n    tag_101:\n      sload(0x0a)\n      dup2\n      jump\t// out\n        /* \"Topic.sol\":3886:3983  function getArgumentCount() public view returns (uint) {\r... */\n    tag_104:\n        /* \"Topic.sol\":3935:3939  uint */\n      0x00\n        /* \"Topic.sol\":3959:3968  arguments */\n      0x04\n        /* \"Topic.sol\":3959:3975  arguments.length */\n      dup1\n      sload\n      swap1\n      pop\n        /* \"Topic.sol\":3952:3975  return arguments.length */\n      swap1\n      pop\n        /* \"Topic.sol\":3886:3983  function getArgumentCount() public view returns (uint) {\r... */\n      swap1\n      jump\t// out\n        /* \"Topic.sol\":330:350  bool public isPublic */\n    tag_107:\n      0x01\n      0x14\n      swap1\n      sload\n      swap1\n      0x0100\n      exp\n      swap1\n      div\n      0xff\n      and\n      dup2\n      jump\t// out\n        /* \"Topic.sol\":553:589  address payable[] public truthVoters */\n    tag_111:\n      0x07\n      dup2\n      dup2\n      sload\n      dup2\n      lt\n      tag_194\n      jumpi\n      invalid\n    tag_194:\n      swap1\n      0x00\n      mstore\n      keccak256(0x00, 0x20)\n      add\n      0x00\n      swap2\n      pop\n      sload\n      swap1\n      0x0100\n      exp\n      swap1\n      div\n      0xffffffffffffffffffffffffffffffffffffffff\n      and\n      dup2\n      jump\t// out\n        /* \"Topic.sol\":4154:4999  function calculateMajority() public {\r... */\n    tag_114:\n        /* \"Topic.sol\":4221:4222  0 */\n      0x00\n        /* \"Topic.sol\":4209:4217  majority */\n      sload(0x0a)\n        /* \"Topic.sol\":4209:4222  majority == 0 */\n      eq\n        /* \"Topic.sol\":4201:4261  require(majority == 0, 'Majority has already been decided.') */\n      tag_197\n      jumpi\n      mload(0x40)\n      0x08c379a000000000000000000000000000000000000000000000000000000000\n      dup2\n      mstore\n      0x04\n      add\n      dup1\n      dup1\n      0x20\n      add\n      dup3\n      dup2\n      sub\n      dup3\n      mstore\n      0x22\n      dup2\n      mstore\n      0x20\n      add\n      dup1\n      data_b923ef61fa2999a084d0e68c9e9898cf18c32317d3ee24c87dceb47dffcde339\n      0x22\n      swap2\n      codecopy\n      0x40\n      add\n      swap2\n      pop\n      pop\n      mload(0x40)\n      dup1\n      swap2\n      sub\n      swap1\n      revert\n    tag_197:\n        /* \"Topic.sol\":4295:4300  false */\n      0x00\n        /* \"Topic.sol\":4280:4300  isCompleted == false */\n      iszero\n      iszero\n        /* \"Topic.sol\":4280:4291  isCompleted */\n      0x09\n      0x00\n      swap1\n      sload\n      swap1\n      0x0100\n      exp\n      swap1\n      div\n      0xff\n      and\n        /* \"Topic.sol\":4280:4300  isCompleted == false */\n      iszero\n      iszero\n      eq\n        /* \"Topic.sol\":4272:4342  require(isCompleted == false, 'Topic is already marked as completed.') */\n      tag_198\n      jumpi\n      mload(0x40)\n      0x08c379a000000000000000000000000000000000000000000000000000000000\n      dup2\n      mstore\n      0x04\n      add\n      dup1\n      dup1\n      0x20\n      add\n      dup3\n      dup2\n      sub\n      dup3\n      mstore\n      0x25\n      dup2\n      mstore\n      0x20\n      add\n      dup1\n      data_69abe80003e6d0795ace8e04b4282120b32e88a03434cef64287876f072cb77e\n      0x25\n      swap2\n      codecopy\n      0x40\n      add\n      swap2\n      pop\n      pop\n      mload(0x40)\n      dup1\n      swap2\n      sub\n      swap1\n      revert\n    tag_198:\n        /* \"Topic.sol\":4379:4386  endTime */\n      sload(0x03)\n        /* \"Topic.sol\":4361:4376  block.timestamp */\n      timestamp\n        /* \"Topic.sol\":4361:4386  block.timestamp > endTime */\n      gt\n        /* \"Topic.sol\":4353:4455  require(block.timestamp > endTime, 'Majority can only be calculated after the time period has ended.') */\n      tag_199\n      jumpi\n      mload(0x40)\n      0x08c379a000000000000000000000000000000000000000000000000000000000\n      dup2\n      mstore\n      0x04\n      add\n      dup1\n      dup1\n      0x20\n      add\n      dup3\n      dup2\n      sub\n      dup3\n      mstore\n      0x40\n      dup2\n      mstore\n      0x20\n      add\n      dup1\n      data_81338d347818a2fed0620a7e85f685926d9e1bdbc7e2764bf0092067d32f7024\n      0x40\n      swap2\n      codecopy\n      0x40\n      add\n      swap2\n      pop\n      pop\n      mload(0x40)\n      dup1\n      swap2\n      sub\n      swap1\n      revert\n    tag_199:\n        /* \"Topic.sol\":4468:4483  uint truthCount */\n      0x00\n        /* \"Topic.sol\":4486:4501  getTruthCount() */\n      tag_200\n        /* \"Topic.sol\":4486:4499  getTruthCount */\n      tag_61\n        /* \"Topic.sol\":4486:4501  getTruthCount() */\n      jump\t// in\n    tag_200:\n        /* \"Topic.sol\":4468:4501  uint truthCount = getTruthCount() */\n      swap1\n      pop\n        /* \"Topic.sol\":4512:4525  uint lieCount */\n      0x00\n        /* \"Topic.sol\":4528:4541  getLieCount() */\n      tag_201\n        /* \"Topic.sol\":4528:4539  getLieCount */\n      tag_74\n        /* \"Topic.sol\":4528:4541  getLieCount() */\n      jump\t// in\n    tag_201:\n        /* \"Topic.sol\":4512:4541  uint lieCount = getLieCount() */\n      swap1\n      pop\n        /* \"Topic.sol\":4552:4568  uint winnerCount */\n      0x00\n        /* \"Topic.sol\":4571:4572  0 */\n      dup1\n        /* \"Topic.sol\":4552:4572  uint winnerCount = 0 */\n      swap1\n      pop\n        /* \"Topic.sol\":4602:4610  lieCount */\n      dup2\n        /* \"Topic.sol\":4589:4599  truthCount */\n      dup4\n        /* \"Topic.sol\":4589:4610  truthCount > lieCount */\n      gt\n        /* \"Topic.sol\":4585:4894  if (truthCount > lieCount) {\r... */\n      iszero\n      tag_202\n      jumpi\n        /* \"Topic.sol\":4638:4639  1 */\n      0x01\n        /* \"Topic.sol\":4627:4635  majority */\n      0x0a\n        /* \"Topic.sol\":4627:4639  majority = 1 */\n      dup2\n      swap1\n      sstore\n      pop\n        /* \"Topic.sol\":4668:4678  truthCount */\n      dup3\n        /* \"Topic.sol\":4654:4678  winnerCount = truthCount */\n      swap1\n      pop\n        /* \"Topic.sol\":4585:4894  if (truthCount > lieCount) {\r... */\n      jump(tag_203)\n    tag_202:\n        /* \"Topic.sol\":4713:4721  lieCount */\n      dup2\n        /* \"Topic.sol\":4700:4710  truthCount */\n      dup4\n        /* \"Topic.sol\":4700:4721  truthCount < lieCount */\n      lt\n        /* \"Topic.sol\":4696:4894  if (truthCount < lieCount) {\r... */\n      iszero\n      tag_204\n      jumpi\n        /* \"Topic.sol\":4749:4750  2 */\n      0x02\n        /* \"Topic.sol\":4738:4746  majority */\n      0x0a\n        /* \"Topic.sol\":4738:4750  majority = 2 */\n      dup2\n      swap1\n      sstore\n      pop\n        /* \"Topic.sol\":4779:4787  lieCount */\n      dup2\n        /* \"Topic.sol\":4765:4787  winnerCount = lieCount */\n      swap1\n      pop\n        /* \"Topic.sol\":4696:4894  if (truthCount < lieCount) {\r... */\n      jump(tag_205)\n    tag_204:\n        /* \"Topic.sol\":4831:4832  3 */\n      0x03\n        /* \"Topic.sol\":4820:4828  majority */\n      0x0a\n        /* \"Topic.sol\":4820:4832  majority = 3 */\n      dup2\n      swap1\n      sstore\n      pop\n        /* \"Topic.sol\":4874:4882  lieCount */\n      dup2\n        /* \"Topic.sol\":4861:4871  truthCount */\n      dup4\n        /* \"Topic.sol\":4861:4882  truthCount + lieCount */\n      add\n        /* \"Topic.sol\":4847:4882  winnerCount = truthCount + lieCount */\n      swap1\n      pop\n        /* \"Topic.sol\":4696:4894  if (truthCount < lieCount) {\r... */\n    tag_205:\n        /* \"Topic.sol\":4585:4894  if (truthCount > lieCount) {\r... */\n    tag_203:\n        /* \"Topic.sol\":4949:4960  winnerCount */\n      dup1\n        /* \"Topic.sol\":4933:4937  this */\n      address\n        /* \"Topic.sol\":4925:4946  address(this).balance */\n      0xffffffffffffffffffffffffffffffffffffffff\n      and\n      balance\n        /* \"Topic.sol\":4925:4960  address(this).balance / winnerCount */\n      dup2\n      tag_206\n      jumpi\n      invalid\n    tag_206:\n      div\n        /* \"Topic.sol\":4906:4922  payPerIndividual */\n      0x0b\n        /* \"Topic.sol\":4906:4960  payPerIndividual = address(this).balance / winnerCount */\n      dup2\n      swap1\n      sstore\n      pop\n        /* \"Topic.sol\":4987:4991  true */\n      0x01\n        /* \"Topic.sol\":4973:4984  isCompleted */\n      0x09\n      0x00\n        /* \"Topic.sol\":4973:4991  isCompleted = true */\n      0x0100\n      exp\n      dup2\n      sload\n      dup2\n      0xff\n      mul\n      not\n      and\n      swap1\n      dup4\n      iszero\n      iszero\n      mul\n      or\n      swap1\n      sstore\n      pop\n        /* \"Topic.sol\":4154:4999  function calculateMajority() public {\r... */\n      pop\n      pop\n      pop\n      jump\t// out\n        /* \"Topic.sol\":672:695  bool public isCompleted */\n    tag_117:\n      0x09\n      0x00\n      swap1\n      sload\n      swap1\n      0x0100\n      exp\n      swap1\n      div\n      0xff\n      and\n      dup2\n      jump\t// out\n        /* \"Topic.sol\":5962:6124  function getDetails() public view returns (address, bool, uint, uint, bool) {\r... */\n    tag_120:\n        /* \"Topic.sol\":6005:6012  address */\n      0x00\n        /* \"Topic.sol\":6014:6018  bool */\n      dup1\n        /* \"Topic.sol\":6020:6024  uint */\n      0x00\n        /* \"Topic.sol\":6026:6030  uint */\n      dup1\n        /* \"Topic.sol\":6032:6036  bool */\n      0x00\n        /* \"Topic.sol\":6057:6064  creator */\n      0x01\n      0x00\n      swap1\n      sload\n      swap1\n      0x0100\n      exp\n      swap1\n      div\n      0xffffffffffffffffffffffffffffffffffffffff\n      and\n        /* \"Topic.sol\":6066:6074  isPublic */\n      0x01\n      0x14\n      swap1\n      sload\n      swap1\n      0x0100\n      exp\n      swap1\n      div\n      0xff\n      and\n        /* \"Topic.sol\":6076:6093  minimumInvestment */\n      sload(0x02)\n        /* \"Topic.sol\":6095:6102  endTime */\n      sload(0x03)\n        /* \"Topic.sol\":6104:6115  isCompleted */\n      0x09\n      0x00\n      swap1\n      sload\n      swap1\n      0x0100\n      exp\n      swap1\n      div\n      0xff\n      and\n        /* \"Topic.sol\":6049:6116  return (creator, isPublic, minimumInvestment, endTime, isCompleted) */\n      swap5\n      pop\n      swap5\n      pop\n      swap5\n      pop\n      swap5\n      pop\n      swap5\n      pop\n        /* \"Topic.sol\":5962:6124  function getDetails() public view returns (address, bool, uint, uint, bool) {\r... */\n      swap1\n      swap2\n      swap3\n      swap4\n      swap5\n      jump\t// out\n        /* \"Topic.sol\":1875:1974  function makePublic() public _mustBeWithinTimeFrame _creatorOnly {\r... */\n    tag_123:\n        /* \"Topic.sol\":1227:1234  endTime */\n      sload(0x03)\n        /* \"Topic.sol\":1209:1224  block.timestamp */\n      timestamp\n        /* \"Topic.sol\":1209:1234  block.timestamp < endTime */\n      lt\n        /* \"Topic.sol\":1201:1282  require(block.timestamp < endTime, 'The period for the Topic has already ended.') */\n      tag_209\n      jumpi\n      mload(0x40)\n      0x08c379a000000000000000000000000000000000000000000000000000000000\n      dup2\n      mstore\n      0x04\n      add\n      dup1\n      dup1\n      0x20\n      add\n      dup3\n      dup2\n      sub\n      dup3\n      mstore\n      0x2b\n      dup2\n      mstore\n      0x20\n      add\n      dup1\n      data_9f7f122b70f117f8950311c325d9279ba88d6a0d2b593ed4f11b7663b9f48d07\n      0x2b\n      swap2\n      codecopy\n      0x40\n      add\n      swap2\n      pop\n      pop\n      mload(0x40)\n      dup1\n      swap2\n      sub\n      swap1\n      revert\n    tag_209:\n        /* \"Topic.sol\":823:830  creator */\n      0x01\n      0x00\n      swap1\n      sload\n      swap1\n      0x0100\n      exp\n      swap1\n      div\n      0xffffffffffffffffffffffffffffffffffffffff\n      and\n        /* \"Topic.sol\":809:830  msg.sender == creator */\n      0xffffffffffffffffffffffffffffffffffffffff\n      and\n        /* \"Topic.sol\":809:819  msg.sender */\n      caller\n        /* \"Topic.sol\":809:830  msg.sender == creator */\n      0xffffffffffffffffffffffffffffffffffffffff\n      and\n      eq\n        /* \"Topic.sol\":801:893  require(msg.sender == creator, 'You must be the creator of this Topic in order to do this.') */\n      tag_211\n      jumpi\n      mload(0x40)\n      0x08c379a000000000000000000000000000000000000000000000000000000000\n      dup2\n      mstore\n      0x04\n      add\n      dup1\n      dup1\n      0x20\n      add\n      dup3\n      dup2\n      sub\n      dup3\n      mstore\n      0x3a\n      dup2\n      mstore\n      0x20\n      add\n      dup1\n      data_8e90808f17bc1108e9ea5a79970bcefb81f12d2e44e112b3ad4b251ae0873244\n      0x3a\n      swap2\n      codecopy\n      0x40\n      add\n      swap2\n      pop\n      pop\n      mload(0x40)\n      dup1\n      swap2\n      sub\n      swap1\n      revert\n    tag_211:\n        /* \"Topic.sol\":1962:1966  true */\n      0x01\n        /* \"Topic.sol\":1951:1959  isPublic */\n      dup1\n      0x14\n        /* \"Topic.sol\":1951:1966  isPublic = true */\n      0x0100\n      exp\n      dup2\n      sload\n      dup2\n      0xff\n      mul\n      not\n      and\n      swap1\n      dup4\n      iszero\n      iszero\n      mul\n      or\n      swap1\n      sstore\n      pop\n        /* \"Topic.sol\":1875:1974  function makePublic() public _mustBeWithinTimeFrame _creatorOnly {\r... */\n      jump\t// out\n        /* \"Topic.sol\":28:8265  contract Topic {\r... */\n    tag_145:\n      mload(0x40)\n      dup1\n      0x80\n      add\n      0x40\n      mstore\n      dup1\n      0x60\n      dup2\n      mstore\n      0x20\n      add\n      iszero(iszero(0x00))\n      dup2\n      mstore\n      0x20\n      add\n      and(0xffffffffffffffffffffffffffffffffffffffff, 0x00)\n      dup2\n      mstore\n      0x20\n      add\n      0x00\n      dup2\n      mstore\n      pop\n      swap1\n      jump\t// out\n    tag_148:\n      dup3\n      dup1\n      sload\n      0x01\n      dup2\n      0x01\n      and\n      iszero\n      0x0100\n      mul\n      sub\n      and\n      0x02\n      swap1\n      div\n      swap1\n      0x00\n      mstore\n      keccak256(0x00, 0x20)\n      swap1\n      0x1f\n      add\n      0x20\n      swap1\n      div\n      dup2\n      add\n      swap3\n      dup3\n      0x1f\n      lt\n      tag_214\n      jumpi\n      dup1\n      mload\n      not(0xff)\n      and\n      dup4\n      dup1\n      add\n      or\n      dup6\n      sstore\n      jump(tag_213)\n    tag_214:\n      dup3\n      dup1\n      add\n      0x01\n      add\n      dup6\n      sstore\n      dup3\n      iszero\n      tag_213\n      jumpi\n      swap2\n      dup3\n      add\n    tag_215:\n      dup3\n      dup2\n      gt\n      iszero\n      tag_216\n      jumpi\n      dup3\n      mload\n      dup3\n      sstore\n      swap2\n      0x20\n      add\n      swap2\n      swap1\n      0x01\n      add\n      swap1\n      jump(tag_215)\n    tag_216:\n    tag_213:\n      pop\n      swap1\n      pop\n      tag_217\n      swap2\n      swap1\n      tag_218\n      jump\t// in\n    tag_217:\n      pop\n      swap1\n      jump\t// out\n    tag_192:\n      dup3\n      dup1\n      sload\n      0x01\n      dup2\n      0x01\n      and\n      iszero\n      0x0100\n      mul\n      sub\n      and\n      0x02\n      swap1\n      div\n      swap1\n      0x00\n      mstore\n      keccak256(0x00, 0x20)\n      swap1\n      0x1f\n      add\n      0x20\n      swap1\n      div\n      dup2\n      add\n      swap3\n      dup3\n      0x1f\n      lt\n      tag_220\n      jumpi\n      dup1\n      mload\n      not(0xff)\n      and\n      dup4\n      dup1\n      add\n      or\n      dup6\n      sstore\n      jump(tag_219)\n    tag_220:\n      dup3\n      dup1\n      add\n      0x01\n      add\n      dup6\n      sstore\n      dup3\n      iszero\n      tag_219\n      jumpi\n      swap2\n      dup3\n      add\n    tag_221:\n      dup3\n      dup2\n      gt\n      iszero\n      tag_222\n      jumpi\n      dup3\n      mload\n      dup3\n      sstore\n      swap2\n      0x20\n      add\n      swap2\n      swap1\n      0x01\n      add\n      swap1\n      jump(tag_221)\n    tag_222:\n    tag_219:\n      pop\n      swap1\n      pop\n      tag_223\n      swap2\n      swap1\n      tag_218\n      jump\t// in\n    tag_223:\n      pop\n      swap1\n      jump\t// out\n    tag_218:\n      tag_224\n      swap2\n      swap1\n    tag_225:\n      dup1\n      dup3\n      gt\n      iszero\n      tag_226\n      jumpi\n      0x00\n      dup2\n      0x00\n      swap1\n      sstore\n      pop\n      0x01\n      add\n      jump(tag_225)\n    tag_226:\n      pop\n      swap1\n      jump\n    tag_224:\n      swap1\n      jump\t// out\n    stop\n    data_0dcd6f99239ff481bb9978433adc808a27fd8c3813ed2f9969e4eb5b41c999c8 54686520546f70696320686173206e6f74206265656e206d616465207075626c6963206279207468652063726561746f72207965742e\n    data_0f62f618588d36303d76fa765b4096f4535e8428b36a788090d83035227e6cbf 596f7520646964206e6f7420766f746520647572696e672074686520706572696f642c20736f20796f752063616e6e6f7420636c61696d2e\n    data_1382083f71a022fa6144748d79496d6f05d3bcf3a0f484b323383c5c8edd8d26 596f752063616e206f6e6c7920636c61696d20796f75722072657761726473206166746572207468652074696d6520706572696f642e\n    data_462972cdfa3949c714200f01cc0119c34f13d2febb0b716c5c847368d043f42b 596f75206d757374206265207468652063726561746f72206f66207468697320617267756d656e7420746f206d6f646966792069747320636f6e74656e7473\n    data_487936df645dd8c7181d68f73972966a3a06b5ee3756057942e5a7608d64edfe 546865206d6f6e657920676f657320746f207468652070656f706c652077686f2070617274696369706174656420696e207468652070726f636573732e\n    data_69abe80003e6d0795ace8e04b4282120b32e88a03434cef64287876f072cb77e 546f70696320697320616c7265616479206d61726b656420617320636f6d706c657465642e\n    data_81338d347818a2fed0620a7e85f685926d9e1bdbc7e2764bf0092067d32f7024 4d616a6f726974792063616e206f6e6c792062652063616c63756c61746564206166746572207468652074696d6520706572696f642068617320656e6465642e\n    data_8912f675a50e382e9fd7b592cf1cd9595235c43ce4309904b1bd35e2a18fc4ee 596f75206861766520616c7265616479206372656174656420616e20617267756d656e742e\n    data_8e90808f17bc1108e9ea5a79970bcefb81f12d2e44e112b3ad4b251ae0873244 596f75206d757374206265207468652063726561746f72206f66207468697320546f70696320696e206f7264657220746f20646f20746869732e\n    data_9f7f122b70f117f8950311c325d9279ba88d6a0d2b593ed4f11b7663b9f48d07 54686520706572696f6420666f722074686520546f7069632068617320616c726561647920656e6465642e\n    data_a51d6c7e63ccd193933dbe11cb306fe5ec831a64f09f21fc7409bad4b2e4d83d 596f752063616e6e6f7420766f746520666f722074686520617267756d656e742067656e6572617465642062792074686520636f6e74726163742e\n    data_b923ef61fa2999a084d0e68c9e9898cf18c32317d3ee24c87dceb47dffcde339 4d616a6f726974792068617320616c7265616479206265656e20646563696465642e\n    data_e4fa0cb8985058f63b9cb51c2253c421abddee7ee3e17fd4cc1399b190f1e5b2 596f75206d75737420696e76657374206174206c6561737420746865206d696e696d756d20616d6f756e7461732064656369646564206279207468652063726561746f722e\n    data_e7eff9e8bfd97a1462a69b9b489e013c0dc4931276c8cdd67607888c761a1d3c 596f75206861766520616c726561647920766f7465642e20596f75206d6179206e6f74206368616e676520796f757220766f74652e\n\n    auxdata: 0xa265627a7a723158209e541d1983b3c62ecf0c89dffb07c7000849444421e4385c7d8df9bd4a8ddcce64736f6c634300050c0032\n}\n","bytecode":{"linkReferences":{},"object":"60806040523480156200001157600080fd5b506040516200253238038062002532833981810160405260808110156200003757600080fd5b81019080805160405193929190846401000000008211156200005857600080fd5b838201915060208201858111156200006f57600080fd5b82518660018202830111640100000000821117156200008d57600080fd5b8083526020830192505050908051906020019080838360005b83811015620000c3578082015181840152602081019050620000a6565b50505050905090810190601f168015620000f15780820380516001836020036101000a031916815260200191505b506040526020018051906020019092919080519060200190929190805190602001909291905050508360009080519060200190620001319291906200044c565b508260028190555080600160006101000a81548173ffffffffffffffffffffffffffffffffffffffff021916908373ffffffffffffffffffffffffffffffffffffffff1602179055506000600160146101000a81548160ff0219169083151502179055506000600a819055506000600b81905550600182024201600381905550620001dd6040518060600160405280603e8152602001620024f4603e91396000620001e760201b60201c565b50505050620005c2565b600354421062000243576040517f08c379a000000000000000000000000000000000000000000000000000000000815260040180806020018281038252602b815260200180620024c9602b913960400191505060405180910390fd5b6000600660003373ffffffffffffffffffffffffffffffffffffffff1673ffffffffffffffffffffffffffffffffffffffff1681526020019081526020016000205414620002dd576040517f08c379a0000000000000000000000000000000000000000000000000000000008152600401808060200182810382526025815260200180620024a46025913960400191505060405180910390fd5b620002e7620004d3565b604051806080016040528084815260200183151581526020013373ffffffffffffffffffffffffffffffffffffffff168152602001600081525090506004819080600181540180825580915050906001820390600052602060002090600302016000909192909190915060008201518160000190805190602001906200036f92919062000513565b5060208201518160010160006101000a81548160ff02191690831515021790555060408201518160010160016101000a81548173ffffffffffffffffffffffffffffffffffffffff021916908373ffffffffffffffffffffffffffffffffffffffff160217905550606082015181600201555050506001620003f66200043f60201b60201c565b03600660003373ffffffffffffffffffffffffffffffffffffffff1673ffffffffffffffffffffffffffffffffffffffff16815260200190815260200160002081905550505050565b6000600480549050905090565b828054600181600116156101000203166002900490600052602060002090601f016020900481019282601f106200048f57805160ff1916838001178555620004c0565b82800160010185558215620004c0579182015b82811115620004bf578251825591602001919060010190620004a2565b5b509050620004cf91906200059a565b5090565b604051806080016040528060608152602001600015158152602001600073ffffffffffffffffffffffffffffffffffffffff168152602001600081525090565b828054600181600116156101000203166002900490600052602060002090601f016020900481019282601f106200055657805160ff191683800117855562000587565b8280016001018555821562000587579182015b828111156200058657825182559160200191906001019062000569565b5b5090506200059691906200059a565b5090565b620005bf91905b80821115620005bb576000816000905550600101620005a1565b5090565b90565b611ed280620005d26000396000f3fe60806040526004361061014b5760003560e01c80639380b1cf116100b6578063dc9a15351161006f578063dc9a1535146107a1578063e5d00035146107d0578063f22bb5f61461084b578063fa391c6414610862578063fbbf93a014610891578063fc018c051461090c5761014b565b80639380b1cf146105d2578063aec2ccae146105e9578063b4fdf1131461064e578063b6b9e90a14610720578063b6e54bdf1461074b578063c234d789146107765761014b565b80632ec32e6d116101085780632ec32e6d146104455780633197cbb61461047057806344fe94321461049b5780634e71d92d146105005780636e3ebc2e146105175780638a4d5a67146105425761014b565b80630121b93f1461014d57806302d05d3f1461017b5780630715ef00146101d257806309f74db7146102a65780630a68f631146103215780632b925b251461041a575b005b6101796004803603602081101561016357600080fd5b8101908080359060200190929190505050610923565b005b34801561018757600080fd5b50610190610cae565b604051808273ffffffffffffffffffffffffffffffffffffffff1673ffffffffffffffffffffffffffffffffffffffff16815260200191505060405180910390f35b3480156101de57600080fd5b506102a4600480360360408110156101f557600080fd5b810190808035906020019064010000000081111561021257600080fd5b82018360208201111561022457600080fd5b8035906020019184600183028401116401000000008311171561024657600080fd5b91908080601f016020809104026020016040519081016040528093929190818152602001838380828437600081840152601f19601f820116905080830192505050505050509192919290803515159060200190929190505050610cd4565b005b3480156102b257600080fd5b506102df600480360360208110156102c957600080fd5b8101908080359060200190929190505050610f1c565b604051808273ffffffffffffffffffffffffffffffffffffffff1673ffffffffffffffffffffffffffffffffffffffff16815260200191505060405180910390f35b34801561032d57600080fd5b5061035a6004803603602081101561034457600080fd5b8101908080359060200190929190505050610f58565b6040518080602001851515151581526020018473ffffffffffffffffffffffffffffffffffffffff1673ffffffffffffffffffffffffffffffffffffffff168152602001838152602001828103825286818151815260200191508051906020019080838360005b838110156103dc5780820151818401526020810190506103c1565b50505050905090810190601f1680156104095780820380516001836020036101000a031916815260200191505b509550505050505060405180910390f35b34801561042657600080fd5b5061042f61105a565b6040518082815260200191505060405180910390f35b34801561045157600080fd5b5061045a611060565b6040518082815260200191505060405180910390f35b34801561047c57600080fd5b5061048561106d565b6040518082815260200191505060405180910390f35b3480156104a757600080fd5b506104ea600480360360208110156104be57600080fd5b81019080803573ffffffffffffffffffffffffffffffffffffffff169060200190929190505050611073565b6040518082815260200191505060405180910390f35b34801561050c57600080fd5b5061051561108b565b005b34801561052357600080fd5b5061052c61125e565b6040518082815260200191505060405180910390f35b34801561054e57600080fd5b5061055761126b565b6040518080602001828103825283818151815260200191508051906020019080838360005b8381101561059757808201518184015260208101905061057c565b50505050905090810190601f1680156105c45780820380516001836020036101000a031916815260200191505b509250505060405180910390f35b3480156105de57600080fd5b506105e7611309565b005b3480156105f557600080fd5b506106386004803603602081101561060c57600080fd5b81019080803573ffffffffffffffffffffffffffffffffffffffff1690602001909291905050506114d2565b6040518082815260200191505060405180910390f35b34801561065a57600080fd5b5061071e6004803603604081101561067157600080fd5b81019080803590602001909291908035906020019064010000000081111561069857600080fd5b8201836020820111156106aa57600080fd5b803590602001918460018302840111640100000000831117156106cc57600080fd5b91908080601f016020809104026020016040519081016040528093929190818152602001838380828437600081840152601f19601f8201169050808301925050505050505091929192905050506114ea565b005b34801561072c57600080fd5b50610735611695565b6040518082815260200191505060405180910390f35b34801561075757600080fd5b5061076061169b565b6040518082815260200191505060405180910390f35b34801561078257600080fd5b5061078b6116a1565b6040518082815260200191505060405180910390f35b3480156107ad57600080fd5b506107b66116ae565b604051808215151515815260200191505060405180910390f35b3480156107dc57600080fd5b50610809600480360360208110156107f357600080fd5b81019080803590602001909291905050506116c1565b604051808273ffffffffffffffffffffffffffffffffffffffff1673ffffffffffffffffffffffffffffffffffffffff16815260200191505060405180910390f35b34801561085757600080fd5b506108606116fd565b005b34801561086e57600080fd5b506108776118c1565b604051808215151515815260200191505060405180910390f35b34801561089d57600080fd5b506108a66118d4565b604051808673ffffffffffffffffffffffffffffffffffffffff1673ffffffffffffffffffffffffffffffffffffffff16815260200185151515158152602001848152602001838152602001821515151581526020019550505050505060405180910390f35b34801561091857600080fd5b50610921611936565b005b600354421061097d576040517f08c379a000000000000000000000000000000000000000000000000000000000815260040180806020018281038252602b815260200180611d9c602b913960400191505060405180910390fd5b60011515600160149054906101000a900460ff161515146109e9576040517f08c379a0000000000000000000000000000000000000000000000000000000008152600401808060200182810382526036815260200180611bb86036913960400191505060405180910390fd5b6000811415610a43576040517f08c379a000000000000000000000000000000000000000000000000000000000815260040180806020018281038252603b815260200180611dc7603b913960400191505060405180910390fd5b6000600560003373ffffffffffffffffffffffffffffffffffffffff1673ffffffffffffffffffffffffffffffffffffffff1681526020019081526020016000205414610adb576040517f08c379a0000000000000000000000000000000000000000000000000000000008152600401808060200182810382526035815260200180611e696035913960400191505060405180910390fd5b600254341015610b36576040517f08c379a0000000000000000000000000000000000000000000000000000000008152600401808060200182810382526045815260200180611e246045913960600191505060405180910390fd5b80600560003373ffffffffffffffffffffffffffffffffffffffff1673ffffffffffffffffffffffffffffffffffffffff1681526020019081526020016000208190555060048181548110610b8757fe5b90600052602060002090600302016002016000815480929190600101919050555060048181548110610bb557fe5b906000526020600020906003020160010160009054906101000a900460ff1615610c445760073390806001815401808255809150509060018203906000526020600020016000909192909190916101000a81548173ffffffffffffffffffffffffffffffffffffffff021916908373ffffffffffffffffffffffffffffffffffffffff16021790555050610cab565b60083390806001815401808255809150509060018203906000526020600020016000909192909190916101000a81548173ffffffffffffffffffffffffffffffffffffffff021916908373ffffffffffffffffffffffffffffffffffffffff160217905550505b50565b600160009054906101000a900473ffffffffffffffffffffffffffffffffffffffff1681565b6003544210610d2e576040517f08c379a000000000000000000000000000000000000000000000000000000000815260040180806020018281038252602b815260200180611d9c602b913960400191505060405180910390fd5b6000600660003373ffffffffffffffffffffffffffffffffffffffff1673ffffffffffffffffffffffffffffffffffffffff1681526020019081526020016000205414610dc6576040517f08c379a0000000000000000000000000000000000000000000000000000000008152600401808060200182810382526025815260200180611d3d6025913960400191505060405180910390fd5b610dce611a52565b604051806080016040528084815260200183151581526020013373ffffffffffffffffffffffffffffffffffffffff16815260200160008152509050600481908060018154018082558091505090600182039060005260206000209060030201600090919290919091506000820151816000019080519060200190610e54929190611a92565b5060208201518160010160006101000a81548160ff02191690831515021790555060408201518160010160016101000a81548173ffffffffffffffffffffffffffffffffffffffff021916908373ffffffffffffffffffffffffffffffffffffffff160217905550606082015181600201555050506001610ed36116a1565b03600660003373ffffffffffffffffffffffffffffffffffffffff1673ffffffffffffffffffffffffffffffffffffffff16815260200190815260200160002081905550505050565b60088181548110610f2957fe5b906000526020600020016000915054906101000a900473ffffffffffffffffffffffffffffffffffffffff1681565b60048181548110610f6557fe5b9060005260206000209060030201600091509050806000018054600181600116156101000203166002900480601f0160208091040260200160405190810160405280929190818152602001828054600181600116156101000203166002900480156110115780601f10610fe657610100808354040283529160200191611011565b820191906000526020600020905b815481529060010190602001808311610ff457829003601f168201915b5050505050908060010160009054906101000a900460ff16908060010160019054906101000a900473ffffffffffffffffffffffffffffffffffffffff16908060020154905084565b60025481565b6000600780549050905090565b60035481565b60066020528060005260406000206000915090505481565b60035442116110e5576040517f08c379a0000000000000000000000000000000000000000000000000000000008152600401808060200182810382526036815260200180611c266036913960400191505060405180910390fd5b6000600560003373ffffffffffffffffffffffffffffffffffffffff1673ffffffffffffffffffffffffffffffffffffffff1681526020019081526020016000205490506000811415611183576040517f08c379a0000000000000000000000000000000000000000000000000000000008152600401808060200182810382526038815260200180611bee6038913960400191505060405180910390fd5b60006004828154811061119257fe5b906000526020600020906003020190506000600a5414156111b6576111b56116fd565b5b6001600a541480156111d657508060010160009054906101000a900460ff165b806111fe57506002600a541480156111fd57508060010160009054906101000a900460ff16155b5b8061120b57506003600a54145b1561125a573373ffffffffffffffffffffffffffffffffffffffff166108fc600b549081150290604051600060405180830381858888f19350505050158015611258573d6000803e3d6000fd5b505b5050565b6000600880549050905090565b60008054600181600116156101000203166002900480601f0160208091040260200160405190810160405280929190818152602001828054600181600116156101000203166002900480156113015780601f106112d657610100808354040283529160200191611301565b820191906000526020600020905b8154815290600101906020018083116112e457829003601f168201915b505050505081565b600160009054906101000a900473ffffffffffffffffffffffffffffffffffffffff1673ffffffffffffffffffffffffffffffffffffffff163373ffffffffffffffffffffffffffffffffffffffff16146113af576040517f08c379a000000000000000000000000000000000000000000000000000000000815260040180806020018281038252603a815260200180611d62603a913960400191505060405180910390fd5b60006113b961125e565b6113c1611060565b0114611418576040517f08c379a000000000000000000000000000000000000000000000000000000000815260040180806020018281038252603d815260200180611c9b603d913960400191505060405180910390fd5b6003544211611472576040517f08c379a0000000000000000000000000000000000000000000000000000000008152600401808060200182810382526036815260200180611c266036913960400191505060405180910390fd5b3373ffffffffffffffffffffffffffffffffffffffff166108fc3073ffffffffffffffffffffffffffffffffffffffff16319081150290604051600060405180830381858888f193505050501580156114cf573d6000803e3d6000fd5b50565b60056020528060005260406000206000915090505481565b6003544210611544576040517f08c379a000000000000000000000000000000000000000000000000000000000815260040180806020018281038252602b815260200180611d9c602b913960400191505060405180910390fd5b60011515600160149054906101000a900460ff161515146115b0576040517f08c379a0000000000000000000000000000000000000000000000000000000008152600401808060200182810382526036815260200180611bb86036913960400191505060405180910390fd5b6000600483815481106115bf57fe5b906000526020600020906003020190503373ffffffffffffffffffffffffffffffffffffffff168160010160019054906101000a900473ffffffffffffffffffffffffffffffffffffffff1673ffffffffffffffffffffffffffffffffffffffff1614611677576040517f08c379a000000000000000000000000000000000000000000000000000000000815260040180806020018281038252603f815260200180611c5c603f913960400191505060405180910390fd5b8181600001908051906020019061168f929190611b12565b50505050565b600b5481565b600a5481565b6000600480549050905090565b600160149054906101000a900460ff1681565b600781815481106116ce57fe5b906000526020600020016000915054906101000a900473ffffffffffffffffffffffffffffffffffffffff1681565b6000600a5414611758576040517f08c379a0000000000000000000000000000000000000000000000000000000008152600401808060200182810382526022815260200180611e026022913960400191505060405180910390fd5b60001515600960009054906101000a900460ff161515146117c4576040517f08c379a0000000000000000000000000000000000000000000000000000000008152600401808060200182810382526025815260200180611cd86025913960400191505060405180910390fd5b600354421161181e576040517f08c379a0000000000000000000000000000000000000000000000000000000008152600401808060200182810382526040815260200180611cfd6040913960400191505060405180910390fd5b6000611828611060565b9050600061183461125e565b9050600080905081831115611853576001600a8190555082905061187a565b8183101561186b576002600a81905550819050611879565b6003600a8190555081830190505b5b803073ffffffffffffffffffffffffffffffffffffffff16318161189a57fe5b04600b819055506001600960006101000a81548160ff021916908315150217905550505050565b600960009054906101000a900460ff1681565b6000806000806000600160009054906101000a900473ffffffffffffffffffffffffffffffffffffffff16600160149054906101000a900460ff16600254600354600960009054906101000a900460ff16945094509450945094509091929394565b6003544210611990576040517f08c379a000000000000000000000000000000000000000000000000000000000815260040180806020018281038252602b815260200180611d9c602b913960400191505060405180910390fd5b600160009054906101000a900473ffffffffffffffffffffffffffffffffffffffff1673ffffffffffffffffffffffffffffffffffffffff163373ffffffffffffffffffffffffffffffffffffffff1614611a36576040517f08c379a000000000000000000000000000000000000000000000000000000000815260040180806020018281038252603a815260200180611d62603a913960400191505060405180910390fd5b60018060146101000a81548160ff021916908315150217905550565b604051806080016040528060608152602001600015158152602001600073ffffffffffffffffffffffffffffffffffffffff168152602001600081525090565b828054600181600116156101000203166002900490600052602060002090601f016020900481019282601f10611ad357805160ff1916838001178555611b01565b82800160010185558215611b01579182015b82811115611b00578251825591602001919060010190611ae5565b5b509050611b0e9190611b92565b5090565b828054600181600116156101000203166002900490600052602060002090601f016020900481019282601f10611b5357805160ff1916838001178555611b81565b82800160010185558215611b81579182015b82811115611b80578251825591602001919060010190611b65565b5b509050611b8e9190611b92565b5090565b611bb491905b80821115611bb0576000816000905550600101611b98565b5090565b9056fe54686520546f70696320686173206e6f74206265656e206d616465207075626c6963206279207468652063726561746f72207965742e596f7520646964206e6f7420766f746520647572696e672074686520706572696f642c20736f20796f752063616e6e6f7420636c61696d2e596f752063616e206f6e6c7920636c61696d20796f75722072657761726473206166746572207468652074696d6520706572696f642e596f75206d757374206265207468652063726561746f72206f66207468697320617267756d656e7420746f206d6f646966792069747320636f6e74656e7473546865206d6f6e657920676f657320746f207468652070656f706c652077686f2070617274696369706174656420696e207468652070726f636573732e546f70696320697320616c7265616479206d61726b656420617320636f6d706c657465642e4d616a6f726974792063616e206f6e6c792062652063616c63756c61746564206166746572207468652074696d6520706572696f642068617320656e6465642e596f75206861766520616c7265616479206372656174656420616e20617267756d656e742e596f75206d757374206265207468652063726561746f72206f66207468697320546f70696320696e206f7264657220746f20646f20746869732e54686520706572696f6420666f722074686520546f7069632068617320616c726561647920656e6465642e596f752063616e6e6f7420766f746520666f722074686520617267756d656e742067656e6572617465642062792074686520636f6e74726163742e4d616a6f726974792068617320616c7265616479206265656e20646563696465642e596f75206d75737420696e76657374206174206c6561737420746865206d696e696d756d20616d6f756e7461732064656369646564206279207468652063726561746f722e596f75206861766520616c726561647920766f7465642e20596f75206d6179206e6f74206368616e676520796f757220766f74652ea265627a7a723158209e541d1983b3c62ecf0c89dffb07c7000849444421e4385c7d8df9bd4a8ddcce64736f6c634300050c0032596f75206861766520616c7265616479206372656174656420616e20617267756d656e742e54686520706572696f6420666f722074686520546f7069632068617320616c726561647920656e6465642e596f752068617665206e6f742063686f73656e207965742077686574686572207468652073746174656d656e742069732074727565206f722066616c7365","opcodes":"PUSH1 0x80 PUSH1 0x40 MSTORE CALLVALUE DUP1 ISZERO PUSH3 0x11 JUMPI PUSH1 0x0 DUP1 REVERT JUMPDEST POP PUSH1 0x40 MLOAD PUSH3 0x2532 CODESIZE SUB DUP1 PUSH3 0x2532 DUP4 CODECOPY DUP2 DUP2 ADD PUSH1 0x40 MSTORE PUSH1 0x80 DUP2 LT ISZERO PUSH3 0x37 JUMPI PUSH1 0x0 DUP1 REVERT JUMPDEST DUP2 ADD SWAP1 DUP1 DUP1 MLOAD PUSH1 0x40 MLOAD SWAP4 SWAP3 SWAP2 SWAP1 DUP5 PUSH5 0x100000000 DUP3 GT ISZERO PUSH3 0x58 JUMPI PUSH1 0x0 DUP1 REVERT JUMPDEST DUP4 DUP3 ADD SWAP2 POP PUSH1 0x20 DUP3 ADD DUP6 DUP2 GT ISZERO PUSH3 0x6F JUMPI PUSH1 0x0 DUP1 REVERT JUMPDEST DUP3 MLOAD DUP7 PUSH1 0x1 DUP3 MUL DUP4 ADD GT PUSH5 0x100000000 DUP3 GT OR ISZERO PUSH3 0x8D JUMPI PUSH1 0x0 DUP1 REVERT JUMPDEST DUP1 DUP4 MSTORE PUSH1 0x20 DUP4 ADD SWAP3 POP POP POP SWAP1 DUP1 MLOAD SWAP1 PUSH1 0x20 ADD SWAP1 DUP1 DUP4 DUP4 PUSH1 0x0 JUMPDEST DUP4 DUP2 LT ISZERO PUSH3 0xC3 JUMPI DUP1 DUP3 ADD MLOAD DUP2 DUP5 ADD MSTORE PUSH1 0x20 DUP2 ADD SWAP1 POP PUSH3 0xA6 JUMP JUMPDEST POP POP POP POP SWAP1 POP SWAP1 DUP2 ADD SWAP1 PUSH1 0x1F AND DUP1 ISZERO PUSH3 0xF1 JUMPI DUP1 DUP3 SUB DUP1 MLOAD PUSH1 0x1 DUP4 PUSH1 0x20 SUB PUSH2 0x100 EXP SUB NOT AND DUP2 MSTORE PUSH1 0x20 ADD SWAP2 POP JUMPDEST POP PUSH1 0x40 MSTORE PUSH1 0x20 ADD DUP1 MLOAD SWAP1 PUSH1 0x20 ADD SWAP1 SWAP3 SWAP2 SWAP1 DUP1 MLOAD SWAP1 PUSH1 0x20 ADD SWAP1 SWAP3 SWAP2 SWAP1 DUP1 MLOAD SWAP1 PUSH1 0x20 ADD SWAP1 SWAP3 SWAP2 SWAP1 POP POP POP DUP4 PUSH1 0x0 SWAP1 DUP1 MLOAD SWAP1 PUSH1 0x20 ADD SWAP1 PUSH3 0x131 SWAP3 SWAP2 SWAP1 PUSH3 0x44C JUMP JUMPDEST POP DUP3 PUSH1 0x2 DUP2 SWAP1 SSTORE POP DUP1 PUSH1 0x1 PUSH1 0x0 PUSH2 0x100 EXP DUP2 SLOAD DUP2 PUSH20 0xFFFFFFFFFFFFFFFFFFFFFFFFFFFFFFFFFFFFFFFF MUL NOT AND SWAP1 DUP4 PUSH20 0xFFFFFFFFFFFFFFFFFFFFFFFFFFFFFFFFFFFFFFFF AND MUL OR SWAP1 SSTORE POP PUSH1 0x0 PUSH1 0x1 PUSH1 0x14 PUSH2 0x100 EXP DUP2 SLOAD DUP2 PUSH1 0xFF MUL NOT AND SWAP1 DUP4 ISZERO ISZERO MUL OR SWAP1 SSTORE POP PUSH1 0x0 PUSH1 0xA DUP2 SWAP1 SSTORE POP PUSH1 0x0 PUSH1 0xB DUP2 SWAP1 SSTORE POP PUSH1 0x1 DUP3 MUL TIMESTAMP ADD PUSH1 0x3 DUP2 SWAP1 SSTORE POP PUSH3 0x1DD PUSH1 0x40 MLOAD DUP1 PUSH1 0x60 ADD PUSH1 0x40 MSTORE DUP1 PUSH1 0x3E DUP2 MSTORE PUSH1 0x20 ADD PUSH3 0x24F4 PUSH1 0x3E SWAP2 CODECOPY PUSH1 0x0 PUSH3 0x1E7 PUSH1 0x20 SHL PUSH1 0x20 SHR JUMP JUMPDEST POP POP POP POP PUSH3 0x5C2 JUMP JUMPDEST PUSH1 0x3 SLOAD TIMESTAMP LT PUSH3 0x243 JUMPI PUSH1 0x40 MLOAD PUSH32 0x8C379A000000000000000000000000000000000000000000000000000000000 DUP2 MSTORE PUSH1 0x4 ADD DUP1 DUP1 PUSH1 0x20 ADD DUP3 DUP2 SUB DUP3 MSTORE PUSH1 0x2B DUP2 MSTORE PUSH1 0x20 ADD DUP1 PUSH3 0x24C9 PUSH1 0x2B SWAP2 CODECOPY PUSH1 0x40 ADD SWAP2 POP POP PUSH1 0x40 MLOAD DUP1 SWAP2 SUB SWAP1 REVERT JUMPDEST PUSH1 0x0 PUSH1 0x6 PUSH1 0x0 CALLER PUSH20 0xFFFFFFFFFFFFFFFFFFFFFFFFFFFFFFFFFFFFFFFF AND PUSH20 0xFFFFFFFFFFFFFFFFFFFFFFFFFFFFFFFFFFFFFFFF AND DUP2 MSTORE PUSH1 0x20 ADD SWAP1 DUP2 MSTORE PUSH1 0x20 ADD PUSH1 0x0 KECCAK256 SLOAD EQ PUSH3 0x2DD JUMPI PUSH1 0x40 MLOAD PUSH32 0x8C379A000000000000000000000000000000000000000000000000000000000 DUP2 MSTORE PUSH1 0x4 ADD DUP1 DUP1 PUSH1 0x20 ADD DUP3 DUP2 SUB DUP3 MSTORE PUSH1 0x25 DUP2 MSTORE PUSH1 0x20 ADD DUP1 PUSH3 0x24A4 PUSH1 0x25 SWAP2 CODECOPY PUSH1 0x40 ADD SWAP2 POP POP PUSH1 0x40 MLOAD DUP1 SWAP2 SUB SWAP1 REVERT JUMPDEST PUSH3 0x2E7 PUSH3 0x4D3 JUMP JUMPDEST PUSH1 0x40 MLOAD DUP1 PUSH1 0x80 ADD PUSH1 0x40 MSTORE DUP1 DUP5 DUP2 MSTORE PUSH1 0x20 ADD DUP4 ISZERO ISZERO DUP2 MSTORE PUSH1 0x20 ADD CALLER PUSH20 0xFFFFFFFFFFFFFFFFFFFFFFFFFFFFFFFFFFFFFFFF AND DUP2 MSTORE PUSH1 0x20 ADD PUSH1 0x0 DUP2 MSTORE POP SWAP1 POP PUSH1 0x4 DUP2 SWAP1 DUP1 PUSH1 0x1 DUP2 SLOAD ADD DUP1 DUP3 SSTORE DUP1 SWAP2 POP POP SWAP1 PUSH1 0x1 DUP3 SUB SWAP1 PUSH1 0x0 MSTORE PUSH1 0x20 PUSH1 0x0 KECCAK256 SWAP1 PUSH1 0x3 MUL ADD PUSH1 0x0 SWAP1 SWAP2 SWAP3 SWAP1 SWAP2 SWAP1 SWAP2 POP PUSH1 0x0 DUP3 ADD MLOAD DUP2 PUSH1 0x0 ADD SWAP1 DUP1 MLOAD SWAP1 PUSH1 0x20 ADD SWAP1 PUSH3 0x36F SWAP3 SWAP2 SWAP1 PUSH3 0x513 JUMP JUMPDEST POP PUSH1 0x20 DUP3 ADD MLOAD DUP2 PUSH1 0x1 ADD PUSH1 0x0 PUSH2 0x100 EXP DUP2 SLOAD DUP2 PUSH1 0xFF MUL NOT AND SWAP1 DUP4 ISZERO ISZERO MUL OR SWAP1 SSTORE POP PUSH1 0x40 DUP3 ADD MLOAD DUP2 PUSH1 0x1 ADD PUSH1 0x1 PUSH2 0x100 EXP DUP2 SLOAD DUP2 PUSH20 0xFFFFFFFFFFFFFFFFFFFFFFFFFFFFFFFFFFFFFFFF MUL NOT AND SWAP1 DUP4 PUSH20 0xFFFFFFFFFFFFFFFFFFFFFFFFFFFFFFFFFFFFFFFF AND MUL OR SWAP1 SSTORE POP PUSH1 0x60 DUP3 ADD MLOAD DUP2 PUSH1 0x2 ADD SSTORE POP POP POP PUSH1 0x1 PUSH3 0x3F6 PUSH3 0x43F PUSH1 0x20 SHL PUSH1 0x20 SHR JUMP JUMPDEST SUB PUSH1 0x6 PUSH1 0x0 CALLER PUSH20 0xFFFFFFFFFFFFFFFFFFFFFFFFFFFFFFFFFFFFFFFF AND PUSH20 0xFFFFFFFFFFFFFFFFFFFFFFFFFFFFFFFFFFFFFFFF AND DUP2 MSTORE PUSH1 0x20 ADD SWAP1 DUP2 MSTORE PUSH1 0x20 ADD PUSH1 0x0 KECCAK256 DUP2 SWAP1 SSTORE POP POP POP POP JUMP JUMPDEST PUSH1 0x0 PUSH1 0x4 DUP1 SLOAD SWAP1 POP SWAP1 POP SWAP1 JUMP JUMPDEST DUP3 DUP1 SLOAD PUSH1 0x1 DUP2 PUSH1 0x1 AND ISZERO PUSH2 0x100 MUL SUB AND PUSH1 0x2 SWAP1 DIV SWAP1 PUSH1 0x0 MSTORE PUSH1 0x20 PUSH1 0x0 KECCAK256 SWAP1 PUSH1 0x1F ADD PUSH1 0x20 SWAP1 DIV DUP2 ADD SWAP3 DUP3 PUSH1 0x1F LT PUSH3 0x48F JUMPI DUP1 MLOAD PUSH1 0xFF NOT AND DUP4 DUP1 ADD OR DUP6 SSTORE PUSH3 0x4C0 JUMP JUMPDEST DUP3 DUP1 ADD PUSH1 0x1 ADD DUP6 SSTORE DUP3 ISZERO PUSH3 0x4C0 JUMPI SWAP2 DUP3 ADD JUMPDEST DUP3 DUP2 GT ISZERO PUSH3 0x4BF JUMPI DUP3 MLOAD DUP3 SSTORE SWAP2 PUSH1 0x20 ADD SWAP2 SWAP1 PUSH1 0x1 ADD SWAP1 PUSH3 0x4A2 JUMP JUMPDEST JUMPDEST POP SWAP1 POP PUSH3 0x4CF SWAP2 SWAP1 PUSH3 0x59A JUMP JUMPDEST POP SWAP1 JUMP JUMPDEST PUSH1 0x40 MLOAD DUP1 PUSH1 0x80 ADD PUSH1 0x40 MSTORE DUP1 PUSH1 0x60 DUP2 MSTORE PUSH1 0x20 ADD PUSH1 0x0 ISZERO ISZERO DUP2 MSTORE PUSH1 0x20 ADD PUSH1 0x0 PUSH20 0xFFFFFFFFFFFFFFFFFFFFFFFFFFFFFFFFFFFFFFFF AND DUP2 MSTORE PUSH1 0x20 ADD PUSH1 0x0 DUP2 MSTORE POP SWAP1 JUMP JUMPDEST DUP3 DUP1 SLOAD PUSH1 0x1 DUP2 PUSH1 0x1 AND ISZERO PUSH2 0x100 MUL SUB AND PUSH1 0x2 SWAP1 DIV SWAP1 PUSH1 0x0 MSTORE PUSH1 0x20 PUSH1 0x0 KECCAK256 SWAP1 PUSH1 0x1F ADD PUSH1 0x20 SWAP1 DIV DUP2 ADD SWAP3 DUP3 PUSH1 0x1F LT PUSH3 0x556 JUMPI DUP1 MLOAD PUSH1 0xFF NOT AND DUP4 DUP1 ADD OR DUP6 SSTORE PUSH3 0x587 JUMP JUMPDEST DUP3 DUP1 ADD PUSH1 0x1 ADD DUP6 SSTORE DUP3 ISZERO PUSH3 0x587 JUMPI SWAP2 DUP3 ADD JUMPDEST DUP3 DUP2 GT ISZERO PUSH3 0x586 JUMPI DUP3 MLOAD DUP3 SSTORE SWAP2 PUSH1 0x20 ADD SWAP2 SWAP1 PUSH1 0x1 ADD SWAP1 PUSH3 0x569 JUMP JUMPDEST JUMPDEST POP SWAP1 POP PUSH3 0x596 SWAP2 SWAP1 PUSH3 0x59A JUMP JUMPDEST POP SWAP1 JUMP JUMPDEST PUSH3 0x5BF SWAP2 SWAP1 JUMPDEST DUP1 DUP3 GT ISZERO PUSH3 0x5BB JUMPI PUSH1 0x0 DUP2 PUSH1 0x0 SWAP1 SSTORE POP PUSH1 0x1 ADD PUSH3 0x5A1 JUMP JUMPDEST POP SWAP1 JUMP JUMPDEST SWAP1 JUMP JUMPDEST PUSH2 0x1ED2 DUP1 PUSH3 0x5D2 PUSH1 0x0 CODECOPY PUSH1 0x0 RETURN INVALID PUSH1 0x80 PUSH1 0x40 MSTORE PUSH1 0x4 CALLDATASIZE LT PUSH2 0x14B JUMPI PUSH1 0x0 CALLDATALOAD PUSH1 0xE0 SHR DUP1 PUSH4 0x9380B1CF GT PUSH2 0xB6 JUMPI DUP1 PUSH4 0xDC9A1535 GT PUSH2 0x6F JUMPI DUP1 PUSH4 0xDC9A1535 EQ PUSH2 0x7A1 JUMPI DUP1 PUSH4 0xE5D00035 EQ PUSH2 0x7D0 JUMPI DUP1 PUSH4 0xF22BB5F6 EQ PUSH2 0x84B JUMPI DUP1 PUSH4 0xFA391C64 EQ PUSH2 0x862 JUMPI DUP1 PUSH4 0xFBBF93A0 EQ PUSH2 0x891 JUMPI DUP1 PUSH4 0xFC018C05 EQ PUSH2 0x90C JUMPI PUSH2 0x14B JUMP JUMPDEST DUP1 PUSH4 0x9380B1CF EQ PUSH2 0x5D2 JUMPI DUP1 PUSH4 0xAEC2CCAE EQ PUSH2 0x5E9 JUMPI DUP1 PUSH4 0xB4FDF113 EQ PUSH2 0x64E JUMPI DUP1 PUSH4 0xB6B9E90A EQ PUSH2 0x720 JUMPI DUP1 PUSH4 0xB6E54BDF EQ PUSH2 0x74B JUMPI DUP1 PUSH4 0xC234D789 EQ PUSH2 0x776 JUMPI PUSH2 0x14B JUMP JUMPDEST DUP1 PUSH4 0x2EC32E6D GT PUSH2 0x108 JUMPI DUP1 PUSH4 0x2EC32E6D EQ PUSH2 0x445 JUMPI DUP1 PUSH4 0x3197CBB6 EQ PUSH2 0x470 JUMPI DUP1 PUSH4 0x44FE9432 EQ PUSH2 0x49B JUMPI DUP1 PUSH4 0x4E71D92D EQ PUSH2 0x500 JUMPI DUP1 PUSH4 0x6E3EBC2E EQ PUSH2 0x517 JUMPI DUP1 PUSH4 0x8A4D5A67 EQ PUSH2 0x542 JUMPI PUSH2 0x14B JUMP JUMPDEST DUP1 PUSH4 0x121B93F EQ PUSH2 0x14D JUMPI DUP1 PUSH4 0x2D05D3F EQ PUSH2 0x17B JUMPI DUP1 PUSH4 0x715EF00 EQ PUSH2 0x1D2 JUMPI DUP1 PUSH4 0x9F74DB7 EQ PUSH2 0x2A6 JUMPI DUP1 PUSH4 0xA68F631 EQ PUSH2 0x321 JUMPI DUP1 PUSH4 0x2B925B25 EQ PUSH2 0x41A JUMPI JUMPDEST STOP JUMPDEST PUSH2 0x179 PUSH1 0x4 DUP1 CALLDATASIZE SUB PUSH1 0x20 DUP2 LT ISZERO PUSH2 0x163 JUMPI PUSH1 0x0 DUP1 REVERT JUMPDEST DUP2 ADD SWAP1 DUP1 DUP1 CALLDATALOAD SWAP1 PUSH1 0x20 ADD SWAP1 SWAP3 SWAP2 SWAP1 POP POP POP PUSH2 0x923 JUMP JUMPDEST STOP JUMPDEST CALLVALUE DUP1 ISZERO PUSH2 0x187 JUMPI PUSH1 0x0 DUP1 REVERT JUMPDEST POP PUSH2 0x190 PUSH2 0xCAE JUMP JUMPDEST PUSH1 0x40 MLOAD DUP1 DUP3 PUSH20 0xFFFFFFFFFFFFFFFFFFFFFFFFFFFFFFFFFFFFFFFF AND PUSH20 0xFFFFFFFFFFFFFFFFFFFFFFFFFFFFFFFFFFFFFFFF AND DUP2 MSTORE PUSH1 0x20 ADD SWAP2 POP POP PUSH1 0x40 MLOAD DUP1 SWAP2 SUB SWAP1 RETURN JUMPDEST CALLVALUE DUP1 ISZERO PUSH2 0x1DE JUMPI PUSH1 0x0 DUP1 REVERT JUMPDEST POP PUSH2 0x2A4 PUSH1 0x4 DUP1 CALLDATASIZE SUB PUSH1 0x40 DUP2 LT ISZERO PUSH2 0x1F5 JUMPI PUSH1 0x0 DUP1 REVERT JUMPDEST DUP2 ADD SWAP1 DUP1 DUP1 CALLDATALOAD SWAP1 PUSH1 0x20 ADD SWAP1 PUSH5 0x100000000 DUP2 GT ISZERO PUSH2 0x212 JUMPI PUSH1 0x0 DUP1 REVERT JUMPDEST DUP3 ADD DUP4 PUSH1 0x20 DUP3 ADD GT ISZERO PUSH2 0x224 JUMPI PUSH1 0x0 DUP1 REVERT JUMPDEST DUP1 CALLDATALOAD SWAP1 PUSH1 0x20 ADD SWAP2 DUP5 PUSH1 0x1 DUP4 MUL DUP5 ADD GT PUSH5 0x100000000 DUP4 GT OR ISZERO PUSH2 0x246 JUMPI PUSH1 0x0 DUP1 REVERT JUMPDEST SWAP2 SWAP1 DUP1 DUP1 PUSH1 0x1F ADD PUSH1 0x20 DUP1 SWAP2 DIV MUL PUSH1 0x20 ADD PUSH1 0x40 MLOAD SWAP1 DUP2 ADD PUSH1 0x40 MSTORE DUP1 SWAP4 SWAP3 SWAP2 SWAP1 DUP2 DUP2 MSTORE PUSH1 0x20 ADD DUP4 DUP4 DUP1 DUP3 DUP5 CALLDATACOPY PUSH1 0x0 DUP2 DUP5 ADD MSTORE PUSH1 0x1F NOT PUSH1 0x1F DUP3 ADD AND SWAP1 POP DUP1 DUP4 ADD SWAP3 POP POP POP POP POP POP POP SWAP2 SWAP3 SWAP2 SWAP3 SWAP1 DUP1 CALLDATALOAD ISZERO ISZERO SWAP1 PUSH1 0x20 ADD SWAP1 SWAP3 SWAP2 SWAP1 POP POP POP PUSH2 0xCD4 JUMP JUMPDEST STOP JUMPDEST CALLVALUE DUP1 ISZERO PUSH2 0x2B2 JUMPI PUSH1 0x0 DUP1 REVERT JUMPDEST POP PUSH2 0x2DF PUSH1 0x4 DUP1 CALLDATASIZE SUB PUSH1 0x20 DUP2 LT ISZERO PUSH2 0x2C9 JUMPI PUSH1 0x0 DUP1 REVERT JUMPDEST DUP2 ADD SWAP1 DUP1 DUP1 CALLDATALOAD SWAP1 PUSH1 0x20 ADD SWAP1 SWAP3 SWAP2 SWAP1 POP POP POP PUSH2 0xF1C JUMP JUMPDEST PUSH1 0x40 MLOAD DUP1 DUP3 PUSH20 0xFFFFFFFFFFFFFFFFFFFFFFFFFFFFFFFFFFFFFFFF AND PUSH20 0xFFFFFFFFFFFFFFFFFFFFFFFFFFFFFFFFFFFFFFFF AND DUP2 MSTORE PUSH1 0x20 ADD SWAP2 POP POP PUSH1 0x40 MLOAD DUP1 SWAP2 SUB SWAP1 RETURN JUMPDEST CALLVALUE DUP1 ISZERO PUSH2 0x32D JUMPI PUSH1 0x0 DUP1 REVERT JUMPDEST POP PUSH2 0x35A PUSH1 0x4 DUP1 CALLDATASIZE SUB PUSH1 0x20 DUP2 LT ISZERO PUSH2 0x344 JUMPI PUSH1 0x0 DUP1 REVERT JUMPDEST DUP2 ADD SWAP1 DUP1 DUP1 CALLDATALOAD SWAP1 PUSH1 0x20 ADD SWAP1 SWAP3 SWAP2 SWAP1 POP POP POP PUSH2 0xF58 JUMP JUMPDEST PUSH1 0x40 MLOAD DUP1 DUP1 PUSH1 0x20 ADD DUP6 ISZERO ISZERO ISZERO ISZERO DUP2 MSTORE PUSH1 0x20 ADD DUP5 PUSH20 0xFFFFFFFFFFFFFFFFFFFFFFFFFFFFFFFFFFFFFFFF AND PUSH20 0xFFFFFFFFFFFFFFFFFFFFFFFFFFFFFFFFFFFFFFFF AND DUP2 MSTORE PUSH1 0x20 ADD DUP4 DUP2 MSTORE PUSH1 0x20 ADD DUP3 DUP2 SUB DUP3 MSTORE DUP7 DUP2 DUP2 MLOAD DUP2 MSTORE PUSH1 0x20 ADD SWAP2 POP DUP1 MLOAD SWAP1 PUSH1 0x20 ADD SWAP1 DUP1 DUP4 DUP4 PUSH1 0x0 JUMPDEST DUP4 DUP2 LT ISZERO PUSH2 0x3DC JUMPI DUP1 DUP3 ADD MLOAD DUP2 DUP5 ADD MSTORE PUSH1 0x20 DUP2 ADD SWAP1 POP PUSH2 0x3C1 JUMP JUMPDEST POP POP POP POP SWAP1 POP SWAP1 DUP2 ADD SWAP1 PUSH1 0x1F AND DUP1 ISZERO PUSH2 0x409 JUMPI DUP1 DUP3 SUB DUP1 MLOAD PUSH1 0x1 DUP4 PUSH1 0x20 SUB PUSH2 0x100 EXP SUB NOT AND DUP2 MSTORE PUSH1 0x20 ADD SWAP2 POP JUMPDEST POP SWAP6 POP POP POP POP POP POP PUSH1 0x40 MLOAD DUP1 SWAP2 SUB SWAP1 RETURN JUMPDEST CALLVALUE DUP1 ISZERO PUSH2 0x426 JUMPI PUSH1 0x0 DUP1 REVERT JUMPDEST POP PUSH2 0x42F PUSH2 0x105A JUMP JUMPDEST PUSH1 0x40 MLOAD DUP1 DUP3 DUP2 MSTORE PUSH1 0x20 ADD SWAP2 POP POP PUSH1 0x40 MLOAD DUP1 SWAP2 SUB SWAP1 RETURN JUMPDEST CALLVALUE DUP1 ISZERO PUSH2 0x451 JUMPI PUSH1 0x0 DUP1 REVERT JUMPDEST POP PUSH2 0x45A PUSH2 0x1060 JUMP JUMPDEST PUSH1 0x40 MLOAD DUP1 DUP3 DUP2 MSTORE PUSH1 0x20 ADD SWAP2 POP POP PUSH1 0x40 MLOAD DUP1 SWAP2 SUB SWAP1 RETURN JUMPDEST CALLVALUE DUP1 ISZERO PUSH2 0x47C JUMPI PUSH1 0x0 DUP1 REVERT JUMPDEST POP PUSH2 0x485 PUSH2 0x106D JUMP JUMPDEST PUSH1 0x40 MLOAD DUP1 DUP3 DUP2 MSTORE PUSH1 0x20 ADD SWAP2 POP POP PUSH1 0x40 MLOAD DUP1 SWAP2 SUB SWAP1 RETURN JUMPDEST CALLVALUE DUP1 ISZERO PUSH2 0x4A7 JUMPI PUSH1 0x0 DUP1 REVERT JUMPDEST POP PUSH2 0x4EA PUSH1 0x4 DUP1 CALLDATASIZE SUB PUSH1 0x20 DUP2 LT ISZERO PUSH2 0x4BE JUMPI PUSH1 0x0 DUP1 REVERT JUMPDEST DUP2 ADD SWAP1 DUP1 DUP1 CALLDATALOAD PUSH20 0xFFFFFFFFFFFFFFFFFFFFFFFFFFFFFFFFFFFFFFFF AND SWAP1 PUSH1 0x20 ADD SWAP1 SWAP3 SWAP2 SWAP1 POP POP POP PUSH2 0x1073 JUMP JUMPDEST PUSH1 0x40 MLOAD DUP1 DUP3 DUP2 MSTORE PUSH1 0x20 ADD SWAP2 POP POP PUSH1 0x40 MLOAD DUP1 SWAP2 SUB SWAP1 RETURN JUMPDEST CALLVALUE DUP1 ISZERO PUSH2 0x50C JUMPI PUSH1 0x0 DUP1 REVERT JUMPDEST POP PUSH2 0x515 PUSH2 0x108B JUMP JUMPDEST STOP JUMPDEST CALLVALUE DUP1 ISZERO PUSH2 0x523 JUMPI PUSH1 0x0 DUP1 REVERT JUMPDEST POP PUSH2 0x52C PUSH2 0x125E JUMP JUMPDEST PUSH1 0x40 MLOAD DUP1 DUP3 DUP2 MSTORE PUSH1 0x20 ADD SWAP2 POP POP PUSH1 0x40 MLOAD DUP1 SWAP2 SUB SWAP1 RETURN JUMPDEST CALLVALUE DUP1 ISZERO PUSH2 0x54E JUMPI PUSH1 0x0 DUP1 REVERT JUMPDEST POP PUSH2 0x557 PUSH2 0x126B JUMP JUMPDEST PUSH1 0x40 MLOAD DUP1 DUP1 PUSH1 0x20 ADD DUP3 DUP2 SUB DUP3 MSTORE DUP4 DUP2 DUP2 MLOAD DUP2 MSTORE PUSH1 0x20 ADD SWAP2 POP DUP1 MLOAD SWAP1 PUSH1 0x20 ADD SWAP1 DUP1 DUP4 DUP4 PUSH1 0x0 JUMPDEST DUP4 DUP2 LT ISZERO PUSH2 0x597 JUMPI DUP1 DUP3 ADD MLOAD DUP2 DUP5 ADD MSTORE PUSH1 0x20 DUP2 ADD SWAP1 POP PUSH2 0x57C JUMP JUMPDEST POP POP POP POP SWAP1 POP SWAP1 DUP2 ADD SWAP1 PUSH1 0x1F AND DUP1 ISZERO PUSH2 0x5C4 JUMPI DUP1 DUP3 SUB DUP1 MLOAD PUSH1 0x1 DUP4 PUSH1 0x20 SUB PUSH2 0x100 EXP SUB NOT AND DUP2 MSTORE PUSH1 0x20 ADD SWAP2 POP JUMPDEST POP SWAP3 POP POP POP PUSH1 0x40 MLOAD DUP1 SWAP2 SUB SWAP1 RETURN JUMPDEST CALLVALUE DUP1 ISZERO PUSH2 0x5DE JUMPI PUSH1 0x0 DUP1 REVERT JUMPDEST POP PUSH2 0x5E7 PUSH2 0x1309 JUMP JUMPDEST STOP JUMPDEST CALLVALUE DUP1 ISZERO PUSH2 0x5F5 JUMPI PUSH1 0x0 DUP1 REVERT JUMPDEST POP PUSH2 0x638 PUSH1 0x4 DUP1 CALLDATASIZE SUB PUSH1 0x20 DUP2 LT ISZERO PUSH2 0x60C JUMPI PUSH1 0x0 DUP1 REVERT JUMPDEST DUP2 ADD SWAP1 DUP1 DUP1 CALLDATALOAD PUSH20 0xFFFFFFFFFFFFFFFFFFFFFFFFFFFFFFFFFFFFFFFF AND SWAP1 PUSH1 0x20 ADD SWAP1 SWAP3 SWAP2 SWAP1 POP POP POP PUSH2 0x14D2 JUMP JUMPDEST PUSH1 0x40 MLOAD DUP1 DUP3 DUP2 MSTORE PUSH1 0x20 ADD SWAP2 POP POP PUSH1 0x40 MLOAD DUP1 SWAP2 SUB SWAP1 RETURN JUMPDEST CALLVALUE DUP1 ISZERO PUSH2 0x65A JUMPI PUSH1 0x0 DUP1 REVERT JUMPDEST POP PUSH2 0x71E PUSH1 0x4 DUP1 CALLDATASIZE SUB PUSH1 0x40 DUP2 LT ISZERO PUSH2 0x671 JUMPI PUSH1 0x0 DUP1 REVERT JUMPDEST DUP2 ADD SWAP1 DUP1 DUP1 CALLDATALOAD SWAP1 PUSH1 0x20 ADD SWAP1 SWAP3 SWAP2 SWAP1 DUP1 CALLDATALOAD SWAP1 PUSH1 0x20 ADD SWAP1 PUSH5 0x100000000 DUP2 GT ISZERO PUSH2 0x698 JUMPI PUSH1 0x0 DUP1 REVERT JUMPDEST DUP3 ADD DUP4 PUSH1 0x20 DUP3 ADD GT ISZERO PUSH2 0x6AA JUMPI PUSH1 0x0 DUP1 REVERT JUMPDEST DUP1 CALLDATALOAD SWAP1 PUSH1 0x20 ADD SWAP2 DUP5 PUSH1 0x1 DUP4 MUL DUP5 ADD GT PUSH5 0x100000000 DUP4 GT OR ISZERO PUSH2 0x6CC JUMPI PUSH1 0x0 DUP1 REVERT JUMPDEST SWAP2 SWAP1 DUP1 DUP1 PUSH1 0x1F ADD PUSH1 0x20 DUP1 SWAP2 DIV MUL PUSH1 0x20 ADD PUSH1 0x40 MLOAD SWAP1 DUP2 ADD PUSH1 0x40 MSTORE DUP1 SWAP4 SWAP3 SWAP2 SWAP1 DUP2 DUP2 MSTORE PUSH1 0x20 ADD DUP4 DUP4 DUP1 DUP3 DUP5 CALLDATACOPY PUSH1 0x0 DUP2 DUP5 ADD MSTORE PUSH1 0x1F NOT PUSH1 0x1F DUP3 ADD AND SWAP1 POP DUP1 DUP4 ADD SWAP3 POP POP POP POP POP POP POP SWAP2 SWAP3 SWAP2 SWAP3 SWAP1 POP POP POP PUSH2 0x14EA JUMP JUMPDEST STOP JUMPDEST CALLVALUE DUP1 ISZERO PUSH2 0x72C JUMPI PUSH1 0x0 DUP1 REVERT JUMPDEST POP PUSH2 0x735 PUSH2 0x1695 JUMP JUMPDEST PUSH1 0x40 MLOAD DUP1 DUP3 DUP2 MSTORE PUSH1 0x20 ADD SWAP2 POP POP PUSH1 0x40 MLOAD DUP1 SWAP2 SUB SWAP1 RETURN JUMPDEST CALLVALUE DUP1 ISZERO PUSH2 0x757 JUMPI PUSH1 0x0 DUP1 REVERT JUMPDEST POP PUSH2 0x760 PUSH2 0x169B JUMP JUMPDEST PUSH1 0x40 MLOAD DUP1 DUP3 DUP2 MSTORE PUSH1 0x20 ADD SWAP2 POP POP PUSH1 0x40 MLOAD DUP1 SWAP2 SUB SWAP1 RETURN JUMPDEST CALLVALUE DUP1 ISZERO PUSH2 0x782 JUMPI PUSH1 0x0 DUP1 REVERT JUMPDEST POP PUSH2 0x78B PUSH2 0x16A1 JUMP JUMPDEST PUSH1 0x40 MLOAD DUP1 DUP3 DUP2 MSTORE PUSH1 0x20 ADD SWAP2 POP POP PUSH1 0x40 MLOAD DUP1 SWAP2 SUB SWAP1 RETURN JUMPDEST CALLVALUE DUP1 ISZERO PUSH2 0x7AD JUMPI PUSH1 0x0 DUP1 REVERT JUMPDEST POP PUSH2 0x7B6 PUSH2 0x16AE JUMP JUMPDEST PUSH1 0x40 MLOAD DUP1 DUP3 ISZERO ISZERO ISZERO ISZERO DUP2 MSTORE PUSH1 0x20 ADD SWAP2 POP POP PUSH1 0x40 MLOAD DUP1 SWAP2 SUB SWAP1 RETURN JUMPDEST CALLVALUE DUP1 ISZERO PUSH2 0x7DC JUMPI PUSH1 0x0 DUP1 REVERT JUMPDEST POP PUSH2 0x809 PUSH1 0x4 DUP1 CALLDATASIZE SUB PUSH1 0x20 DUP2 LT ISZERO PUSH2 0x7F3 JUMPI PUSH1 0x0 DUP1 REVERT JUMPDEST DUP2 ADD SWAP1 DUP1 DUP1 CALLDATALOAD SWAP1 PUSH1 0x20 ADD SWAP1 SWAP3 SWAP2 SWAP1 POP POP POP PUSH2 0x16C1 JUMP JUMPDEST PUSH1 0x40 MLOAD DUP1 DUP3 PUSH20 0xFFFFFFFFFFFFFFFFFFFFFFFFFFFFFFFFFFFFFFFF AND PUSH20 0xFFFFFFFFFFFFFFFFFFFFFFFFFFFFFFFFFFFFFFFF AND DUP2 MSTORE PUSH1 0x20 ADD SWAP2 POP POP PUSH1 0x40 MLOAD DUP1 SWAP2 SUB SWAP1 RETURN JUMPDEST CALLVALUE DUP1 ISZERO PUSH2 0x857 JUMPI PUSH1 0x0 DUP1 REVERT JUMPDEST POP PUSH2 0x860 PUSH2 0x16FD JUMP JUMPDEST STOP JUMPDEST CALLVALUE DUP1 ISZERO PUSH2 0x86E JUMPI PUSH1 0x0 DUP1 REVERT JUMPDEST POP PUSH2 0x877 PUSH2 0x18C1 JUMP JUMPDEST PUSH1 0x40 MLOAD DUP1 DUP3 ISZERO ISZERO ISZERO ISZERO DUP2 MSTORE PUSH1 0x20 ADD SWAP2 POP POP PUSH1 0x40 MLOAD DUP1 SWAP2 SUB SWAP1 RETURN JUMPDEST CALLVALUE DUP1 ISZERO PUSH2 0x89D JUMPI PUSH1 0x0 DUP1 REVERT JUMPDEST POP PUSH2 0x8A6 PUSH2 0x18D4 JUMP JUMPDEST PUSH1 0x40 MLOAD DUP1 DUP7 PUSH20 0xFFFFFFFFFFFFFFFFFFFFFFFFFFFFFFFFFFFFFFFF AND PUSH20 0xFFFFFFFFFFFFFFFFFFFFFFFFFFFFFFFFFFFFFFFF AND DUP2 MSTORE PUSH1 0x20 ADD DUP6 ISZERO ISZERO ISZERO ISZERO DUP2 MSTORE PUSH1 0x20 ADD DUP5 DUP2 MSTORE PUSH1 0x20 ADD DUP4 DUP2 MSTORE PUSH1 0x20 ADD DUP3 ISZERO ISZERO ISZERO ISZERO DUP2 MSTORE PUSH1 0x20 ADD SWAP6 POP POP POP POP POP POP PUSH1 0x40 MLOAD DUP1 SWAP2 SUB SWAP1 RETURN JUMPDEST CALLVALUE DUP1 ISZERO PUSH2 0x918 JUMPI PUSH1 0x0 DUP1 REVERT JUMPDEST POP PUSH2 0x921 PUSH2 0x1936 JUMP JUMPDEST STOP JUMPDEST PUSH1 0x3 SLOAD TIMESTAMP LT PUSH2 0x97D JUMPI PUSH1 0x40 MLOAD PUSH32 0x8C379A000000000000000000000000000000000000000000000000000000000 DUP2 MSTORE PUSH1 0x4 ADD DUP1 DUP1 PUSH1 0x20 ADD DUP3 DUP2 SUB DUP3 MSTORE PUSH1 0x2B DUP2 MSTORE PUSH1 0x20 ADD DUP1 PUSH2 0x1D9C PUSH1 0x2B SWAP2 CODECOPY PUSH1 0x40 ADD SWAP2 POP POP PUSH1 0x40 MLOAD DUP1 SWAP2 SUB SWAP1 REVERT JUMPDEST PUSH1 0x1 ISZERO ISZERO PUSH1 0x1 PUSH1 0x14 SWAP1 SLOAD SWAP1 PUSH2 0x100 EXP SWAP1 DIV PUSH1 0xFF AND ISZERO ISZERO EQ PUSH2 0x9E9 JUMPI PUSH1 0x40 MLOAD PUSH32 0x8C379A000000000000000000000000000000000000000000000000000000000 DUP2 MSTORE PUSH1 0x4 ADD DUP1 DUP1 PUSH1 0x20 ADD DUP3 DUP2 SUB DUP3 MSTORE PUSH1 0x36 DUP2 MSTORE PUSH1 0x20 ADD DUP1 PUSH2 0x1BB8 PUSH1 0x36 SWAP2 CODECOPY PUSH1 0x40 ADD SWAP2 POP POP PUSH1 0x40 MLOAD DUP1 SWAP2 SUB SWAP1 REVERT JUMPDEST PUSH1 0x0 DUP2 EQ ISZERO PUSH2 0xA43 JUMPI PUSH1 0x40 MLOAD PUSH32 0x8C379A000000000000000000000000000000000000000000000000000000000 DUP2 MSTORE PUSH1 0x4 ADD DUP1 DUP1 PUSH1 0x20 ADD DUP3 DUP2 SUB DUP3 MSTORE PUSH1 0x3B DUP2 MSTORE PUSH1 0x20 ADD DUP1 PUSH2 0x1DC7 PUSH1 0x3B SWAP2 CODECOPY PUSH1 0x40 ADD SWAP2 POP POP PUSH1 0x40 MLOAD DUP1 SWAP2 SUB SWAP1 REVERT JUMPDEST PUSH1 0x0 PUSH1 0x5 PUSH1 0x0 CALLER PUSH20 0xFFFFFFFFFFFFFFFFFFFFFFFFFFFFFFFFFFFFFFFF AND PUSH20 0xFFFFFFFFFFFFFFFFFFFFFFFFFFFFFFFFFFFFFFFF AND DUP2 MSTORE PUSH1 0x20 ADD SWAP1 DUP2 MSTORE PUSH1 0x20 ADD PUSH1 0x0 KECCAK256 SLOAD EQ PUSH2 0xADB JUMPI PUSH1 0x40 MLOAD PUSH32 0x8C379A000000000000000000000000000000000000000000000000000000000 DUP2 MSTORE PUSH1 0x4 ADD DUP1 DUP1 PUSH1 0x20 ADD DUP3 DUP2 SUB DUP3 MSTORE PUSH1 0x35 DUP2 MSTORE PUSH1 0x20 ADD DUP1 PUSH2 0x1E69 PUSH1 0x35 SWAP2 CODECOPY PUSH1 0x40 ADD SWAP2 POP POP PUSH1 0x40 MLOAD DUP1 SWAP2 SUB SWAP1 REVERT JUMPDEST PUSH1 0x2 SLOAD CALLVALUE LT ISZERO PUSH2 0xB36 JUMPI PUSH1 0x40 MLOAD PUSH32 0x8C379A000000000000000000000000000000000000000000000000000000000 DUP2 MSTORE PUSH1 0x4 ADD DUP1 DUP1 PUSH1 0x20 ADD DUP3 DUP2 SUB DUP3 MSTORE PUSH1 0x45 DUP2 MSTORE PUSH1 0x20 ADD DUP1 PUSH2 0x1E24 PUSH1 0x45 SWAP2 CODECOPY PUSH1 0x60 ADD SWAP2 POP POP PUSH1 0x40 MLOAD DUP1 SWAP2 SUB SWAP1 REVERT JUMPDEST DUP1 PUSH1 0x5 PUSH1 0x0 CALLER PUSH20 0xFFFFFFFFFFFFFFFFFFFFFFFFFFFFFFFFFFFFFFFF AND PUSH20 0xFFFFFFFFFFFFFFFFFFFFFFFFFFFFFFFFFFFFFFFF AND DUP2 MSTORE PUSH1 0x20 ADD SWAP1 DUP2 MSTORE PUSH1 0x20 ADD PUSH1 0x0 KECCAK256 DUP2 SWAP1 SSTORE POP PUSH1 0x4 DUP2 DUP2 SLOAD DUP2 LT PUSH2 0xB87 JUMPI INVALID JUMPDEST SWAP1 PUSH1 0x0 MSTORE PUSH1 0x20 PUSH1 0x0 KECCAK256 SWAP1 PUSH1 0x3 MUL ADD PUSH1 0x2 ADD PUSH1 0x0 DUP2 SLOAD DUP1 SWAP3 SWAP2 SWAP1 PUSH1 0x1 ADD SWAP2 SWAP1 POP SSTORE POP PUSH1 0x4 DUP2 DUP2 SLOAD DUP2 LT PUSH2 0xBB5 JUMPI INVALID JUMPDEST SWAP1 PUSH1 0x0 MSTORE PUSH1 0x20 PUSH1 0x0 KECCAK256 SWAP1 PUSH1 0x3 MUL ADD PUSH1 0x1 ADD PUSH1 0x0 SWAP1 SLOAD SWAP1 PUSH2 0x100 EXP SWAP1 DIV PUSH1 0xFF AND ISZERO PUSH2 0xC44 JUMPI PUSH1 0x7 CALLER SWAP1 DUP1 PUSH1 0x1 DUP2 SLOAD ADD DUP1 DUP3 SSTORE DUP1 SWAP2 POP POP SWAP1 PUSH1 0x1 DUP3 SUB SWAP1 PUSH1 0x0 MSTORE PUSH1 0x20 PUSH1 0x0 KECCAK256 ADD PUSH1 0x0 SWAP1 SWAP2 SWAP3 SWAP1 SWAP2 SWAP1 SWAP2 PUSH2 0x100 EXP DUP2 SLOAD DUP2 PUSH20 0xFFFFFFFFFFFFFFFFFFFFFFFFFFFFFFFFFFFFFFFF MUL NOT AND SWAP1 DUP4 PUSH20 0xFFFFFFFFFFFFFFFFFFFFFFFFFFFFFFFFFFFFFFFF AND MUL OR SWAP1 SSTORE POP POP PUSH2 0xCAB JUMP JUMPDEST PUSH1 0x8 CALLER SWAP1 DUP1 PUSH1 0x1 DUP2 SLOAD ADD DUP1 DUP3 SSTORE DUP1 SWAP2 POP POP SWAP1 PUSH1 0x1 DUP3 SUB SWAP1 PUSH1 0x0 MSTORE PUSH1 0x20 PUSH1 0x0 KECCAK256 ADD PUSH1 0x0 SWAP1 SWAP2 SWAP3 SWAP1 SWAP2 SWAP1 SWAP2 PUSH2 0x100 EXP DUP2 SLOAD DUP2 PUSH20 0xFFFFFFFFFFFFFFFFFFFFFFFFFFFFFFFFFFFFFFFF MUL NOT AND SWAP1 DUP4 PUSH20 0xFFFFFFFFFFFFFFFFFFFFFFFFFFFFFFFFFFFFFFFF AND MUL OR SWAP1 SSTORE POP POP JUMPDEST POP JUMP JUMPDEST PUSH1 0x1 PUSH1 0x0 SWAP1 SLOAD SWAP1 PUSH2 0x100 EXP SWAP1 DIV PUSH20 0xFFFFFFFFFFFFFFFFFFFFFFFFFFFFFFFFFFFFFFFF AND DUP2 JUMP JUMPDEST PUSH1 0x3 SLOAD TIMESTAMP LT PUSH2 0xD2E JUMPI PUSH1 0x40 MLOAD PUSH32 0x8C379A000000000000000000000000000000000000000000000000000000000 DUP2 MSTORE PUSH1 0x4 ADD DUP1 DUP1 PUSH1 0x20 ADD DUP3 DUP2 SUB DUP3 MSTORE PUSH1 0x2B DUP2 MSTORE PUSH1 0x20 ADD DUP1 PUSH2 0x1D9C PUSH1 0x2B SWAP2 CODECOPY PUSH1 0x40 ADD SWAP2 POP POP PUSH1 0x40 MLOAD DUP1 SWAP2 SUB SWAP1 REVERT JUMPDEST PUSH1 0x0 PUSH1 0x6 PUSH1 0x0 CALLER PUSH20 0xFFFFFFFFFFFFFFFFFFFFFFFFFFFFFFFFFFFFFFFF AND PUSH20 0xFFFFFFFFFFFFFFFFFFFFFFFFFFFFFFFFFFFFFFFF AND DUP2 MSTORE PUSH1 0x20 ADD SWAP1 DUP2 MSTORE PUSH1 0x20 ADD PUSH1 0x0 KECCAK256 SLOAD EQ PUSH2 0xDC6 JUMPI PUSH1 0x40 MLOAD PUSH32 0x8C379A000000000000000000000000000000000000000000000000000000000 DUP2 MSTORE PUSH1 0x4 ADD DUP1 DUP1 PUSH1 0x20 ADD DUP3 DUP2 SUB DUP3 MSTORE PUSH1 0x25 DUP2 MSTORE PUSH1 0x20 ADD DUP1 PUSH2 0x1D3D PUSH1 0x25 SWAP2 CODECOPY PUSH1 0x40 ADD SWAP2 POP POP PUSH1 0x40 MLOAD DUP1 SWAP2 SUB SWAP1 REVERT JUMPDEST PUSH2 0xDCE PUSH2 0x1A52 JUMP JUMPDEST PUSH1 0x40 MLOAD DUP1 PUSH1 0x80 ADD PUSH1 0x40 MSTORE DUP1 DUP5 DUP2 MSTORE PUSH1 0x20 ADD DUP4 ISZERO ISZERO DUP2 MSTORE PUSH1 0x20 ADD CALLER PUSH20 0xFFFFFFFFFFFFFFFFFFFFFFFFFFFFFFFFFFFFFFFF AND DUP2 MSTORE PUSH1 0x20 ADD PUSH1 0x0 DUP2 MSTORE POP SWAP1 POP PUSH1 0x4 DUP2 SWAP1 DUP1 PUSH1 0x1 DUP2 SLOAD ADD DUP1 DUP3 SSTORE DUP1 SWAP2 POP POP SWAP1 PUSH1 0x1 DUP3 SUB SWAP1 PUSH1 0x0 MSTORE PUSH1 0x20 PUSH1 0x0 KECCAK256 SWAP1 PUSH1 0x3 MUL ADD PUSH1 0x0 SWAP1 SWAP2 SWAP3 SWAP1 SWAP2 SWAP1 SWAP2 POP PUSH1 0x0 DUP3 ADD MLOAD DUP2 PUSH1 0x0 ADD SWAP1 DUP1 MLOAD SWAP1 PUSH1 0x20 ADD SWAP1 PUSH2 0xE54 SWAP3 SWAP2 SWAP1 PUSH2 0x1A92 JUMP JUMPDEST POP PUSH1 0x20 DUP3 ADD MLOAD DUP2 PUSH1 0x1 ADD PUSH1 0x0 PUSH2 0x100 EXP DUP2 SLOAD DUP2 PUSH1 0xFF MUL NOT AND SWAP1 DUP4 ISZERO ISZERO MUL OR SWAP1 SSTORE POP PUSH1 0x40 DUP3 ADD MLOAD DUP2 PUSH1 0x1 ADD PUSH1 0x1 PUSH2 0x100 EXP DUP2 SLOAD DUP2 PUSH20 0xFFFFFFFFFFFFFFFFFFFFFFFFFFFFFFFFFFFFFFFF MUL NOT AND SWAP1 DUP4 PUSH20 0xFFFFFFFFFFFFFFFFFFFFFFFFFFFFFFFFFFFFFFFF AND MUL OR SWAP1 SSTORE POP PUSH1 0x60 DUP3 ADD MLOAD DUP2 PUSH1 0x2 ADD SSTORE POP POP POP PUSH1 0x1 PUSH2 0xED3 PUSH2 0x16A1 JUMP JUMPDEST SUB PUSH1 0x6 PUSH1 0x0 CALLER PUSH20 0xFFFFFFFFFFFFFFFFFFFFFFFFFFFFFFFFFFFFFFFF AND PUSH20 0xFFFFFFFFFFFFFFFFFFFFFFFFFFFFFFFFFFFFFFFF AND DUP2 MSTORE PUSH1 0x20 ADD SWAP1 DUP2 MSTORE PUSH1 0x20 ADD PUSH1 0x0 KECCAK256 DUP2 SWAP1 SSTORE POP POP POP POP JUMP JUMPDEST PUSH1 0x8 DUP2 DUP2 SLOAD DUP2 LT PUSH2 0xF29 JUMPI INVALID JUMPDEST SWAP1 PUSH1 0x0 MSTORE PUSH1 0x20 PUSH1 0x0 KECCAK256 ADD PUSH1 0x0 SWAP2 POP SLOAD SWAP1 PUSH2 0x100 EXP SWAP1 DIV PUSH20 0xFFFFFFFFFFFFFFFFFFFFFFFFFFFFFFFFFFFFFFFF AND DUP2 JUMP JUMPDEST PUSH1 0x4 DUP2 DUP2 SLOAD DUP2 LT PUSH2 0xF65 JUMPI INVALID JUMPDEST SWAP1 PUSH1 0x0 MSTORE PUSH1 0x20 PUSH1 0x0 KECCAK256 SWAP1 PUSH1 0x3 MUL ADD PUSH1 0x0 SWAP2 POP SWAP1 POP DUP1 PUSH1 0x0 ADD DUP1 SLOAD PUSH1 0x1 DUP2 PUSH1 0x1 AND ISZERO PUSH2 0x100 MUL SUB AND PUSH1 0x2 SWAP1 DIV DUP1 PUSH1 0x1F ADD PUSH1 0x20 DUP1 SWAP2 DIV MUL PUSH1 0x20 ADD PUSH1 0x40 MLOAD SWAP1 DUP2 ADD PUSH1 0x40 MSTORE DUP1 SWAP3 SWAP2 SWAP1 DUP2 DUP2 MSTORE PUSH1 0x20 ADD DUP3 DUP1 SLOAD PUSH1 0x1 DUP2 PUSH1 0x1 AND ISZERO PUSH2 0x100 MUL SUB AND PUSH1 0x2 SWAP1 DIV DUP1 ISZERO PUSH2 0x1011 JUMPI DUP1 PUSH1 0x1F LT PUSH2 0xFE6 JUMPI PUSH2 0x100 DUP1 DUP4 SLOAD DIV MUL DUP4 MSTORE SWAP2 PUSH1 0x20 ADD SWAP2 PUSH2 0x1011 JUMP JUMPDEST DUP3 ADD SWAP2 SWAP1 PUSH1 0x0 MSTORE PUSH1 0x20 PUSH1 0x0 KECCAK256 SWAP1 JUMPDEST DUP2 SLOAD DUP2 MSTORE SWAP1 PUSH1 0x1 ADD SWAP1 PUSH1 0x20 ADD DUP1 DUP4 GT PUSH2 0xFF4 JUMPI DUP3 SWAP1 SUB PUSH1 0x1F AND DUP3 ADD SWAP2 JUMPDEST POP POP POP POP POP SWAP1 DUP1 PUSH1 0x1 ADD PUSH1 0x0 SWAP1 SLOAD SWAP1 PUSH2 0x100 EXP SWAP1 DIV PUSH1 0xFF AND SWAP1 DUP1 PUSH1 0x1 ADD PUSH1 0x1 SWAP1 SLOAD SWAP1 PUSH2 0x100 EXP SWAP1 DIV PUSH20 0xFFFFFFFFFFFFFFFFFFFFFFFFFFFFFFFFFFFFFFFF AND SWAP1 DUP1 PUSH1 0x2 ADD SLOAD SWAP1 POP DUP5 JUMP JUMPDEST PUSH1 0x2 SLOAD DUP2 JUMP JUMPDEST PUSH1 0x0 PUSH1 0x7 DUP1 SLOAD SWAP1 POP SWAP1 POP SWAP1 JUMP JUMPDEST PUSH1 0x3 SLOAD DUP2 JUMP JUMPDEST PUSH1 0x6 PUSH1 0x20 MSTORE DUP1 PUSH1 0x0 MSTORE PUSH1 0x40 PUSH1 0x0 KECCAK256 PUSH1 0x0 SWAP2 POP SWAP1 POP SLOAD DUP2 JUMP JUMPDEST PUSH1 0x3 SLOAD TIMESTAMP GT PUSH2 0x10E5 JUMPI PUSH1 0x40 MLOAD PUSH32 0x8C379A000000000000000000000000000000000000000000000000000000000 DUP2 MSTORE PUSH1 0x4 ADD DUP1 DUP1 PUSH1 0x20 ADD DUP3 DUP2 SUB DUP3 MSTORE PUSH1 0x36 DUP2 MSTORE PUSH1 0x20 ADD DUP1 PUSH2 0x1C26 PUSH1 0x36 SWAP2 CODECOPY PUSH1 0x40 ADD SWAP2 POP POP PUSH1 0x40 MLOAD DUP1 SWAP2 SUB SWAP1 REVERT JUMPDEST PUSH1 0x0 PUSH1 0x5 PUSH1 0x0 CALLER PUSH20 0xFFFFFFFFFFFFFFFFFFFFFFFFFFFFFFFFFFFFFFFF AND PUSH20 0xFFFFFFFFFFFFFFFFFFFFFFFFFFFFFFFFFFFFFFFF AND DUP2 MSTORE PUSH1 0x20 ADD SWAP1 DUP2 MSTORE PUSH1 0x20 ADD PUSH1 0x0 KECCAK256 SLOAD SWAP1 POP PUSH1 0x0 DUP2 EQ ISZERO PUSH2 0x1183 JUMPI PUSH1 0x40 MLOAD PUSH32 0x8C379A000000000000000000000000000000000000000000000000000000000 DUP2 MSTORE PUSH1 0x4 ADD DUP1 DUP1 PUSH1 0x20 ADD DUP3 DUP2 SUB DUP3 MSTORE PUSH1 0x38 DUP2 MSTORE PUSH1 0x20 ADD DUP1 PUSH2 0x1BEE PUSH1 0x38 SWAP2 CODECOPY PUSH1 0x40 ADD SWAP2 POP POP PUSH1 0x40 MLOAD DUP1 SWAP2 SUB SWAP1 REVERT JUMPDEST PUSH1 0x0 PUSH1 0x4 DUP3 DUP2 SLOAD DUP2 LT PUSH2 0x1192 JUMPI INVALID JUMPDEST SWAP1 PUSH1 0x0 MSTORE PUSH1 0x20 PUSH1 0x0 KECCAK256 SWAP1 PUSH1 0x3 MUL ADD SWAP1 POP PUSH1 0x0 PUSH1 0xA SLOAD EQ ISZERO PUSH2 0x11B6 JUMPI PUSH2 0x11B5 PUSH2 0x16FD JUMP JUMPDEST JUMPDEST PUSH1 0x1 PUSH1 0xA SLOAD EQ DUP1 ISZERO PUSH2 0x11D6 JUMPI POP DUP1 PUSH1 0x1 ADD PUSH1 0x0 SWAP1 SLOAD SWAP1 PUSH2 0x100 EXP SWAP1 DIV PUSH1 0xFF AND JUMPDEST DUP1 PUSH2 0x11FE JUMPI POP PUSH1 0x2 PUSH1 0xA SLOAD EQ DUP1 ISZERO PUSH2 0x11FD JUMPI POP DUP1 PUSH1 0x1 ADD PUSH1 0x0 SWAP1 SLOAD SWAP1 PUSH2 0x100 EXP SWAP1 DIV PUSH1 0xFF AND ISZERO JUMPDEST JUMPDEST DUP1 PUSH2 0x120B JUMPI POP PUSH1 0x3 PUSH1 0xA SLOAD EQ JUMPDEST ISZERO PUSH2 0x125A JUMPI CALLER PUSH20 0xFFFFFFFFFFFFFFFFFFFFFFFFFFFFFFFFFFFFFFFF AND PUSH2 0x8FC PUSH1 0xB SLOAD SWAP1 DUP2 ISZERO MUL SWAP1 PUSH1 0x40 MLOAD PUSH1 0x0 PUSH1 0x40 MLOAD DUP1 DUP4 SUB DUP2 DUP6 DUP9 DUP9 CALL SWAP4 POP POP POP POP ISZERO DUP1 ISZERO PUSH2 0x1258 JUMPI RETURNDATASIZE PUSH1 0x0 DUP1 RETURNDATACOPY RETURNDATASIZE PUSH1 0x0 REVERT JUMPDEST POP JUMPDEST POP POP JUMP JUMPDEST PUSH1 0x0 PUSH1 0x8 DUP1 SLOAD SWAP1 POP SWAP1 POP SWAP1 JUMP JUMPDEST PUSH1 0x0 DUP1 SLOAD PUSH1 0x1 DUP2 PUSH1 0x1 AND ISZERO PUSH2 0x100 MUL SUB AND PUSH1 0x2 SWAP1 DIV DUP1 PUSH1 0x1F ADD PUSH1 0x20 DUP1 SWAP2 DIV MUL PUSH1 0x20 ADD PUSH1 0x40 MLOAD SWAP1 DUP2 ADD PUSH1 0x40 MSTORE DUP1 SWAP3 SWAP2 SWAP1 DUP2 DUP2 MSTORE PUSH1 0x20 ADD DUP3 DUP1 SLOAD PUSH1 0x1 DUP2 PUSH1 0x1 AND ISZERO PUSH2 0x100 MUL SUB AND PUSH1 0x2 SWAP1 DIV DUP1 ISZERO PUSH2 0x1301 JUMPI DUP1 PUSH1 0x1F LT PUSH2 0x12D6 JUMPI PUSH2 0x100 DUP1 DUP4 SLOAD DIV MUL DUP4 MSTORE SWAP2 PUSH1 0x20 ADD SWAP2 PUSH2 0x1301 JUMP JUMPDEST DUP3 ADD SWAP2 SWAP1 PUSH1 0x0 MSTORE PUSH1 0x20 PUSH1 0x0 KECCAK256 SWAP1 JUMPDEST DUP2 SLOAD DUP2 MSTORE SWAP1 PUSH1 0x1 ADD SWAP1 PUSH1 0x20 ADD DUP1 DUP4 GT PUSH2 0x12E4 JUMPI DUP3 SWAP1 SUB PUSH1 0x1F AND DUP3 ADD SWAP2 JUMPDEST POP POP POP POP POP DUP2 JUMP JUMPDEST PUSH1 0x1 PUSH1 0x0 SWAP1 SLOAD SWAP1 PUSH2 0x100 EXP SWAP1 DIV PUSH20 0xFFFFFFFFFFFFFFFFFFFFFFFFFFFFFFFFFFFFFFFF AND PUSH20 0xFFFFFFFFFFFFFFFFFFFFFFFFFFFFFFFFFFFFFFFF AND CALLER PUSH20 0xFFFFFFFFFFFFFFFFFFFFFFFFFFFFFFFFFFFFFFFF AND EQ PUSH2 0x13AF JUMPI PUSH1 0x40 MLOAD PUSH32 0x8C379A000000000000000000000000000000000000000000000000000000000 DUP2 MSTORE PUSH1 0x4 ADD DUP1 DUP1 PUSH1 0x20 ADD DUP3 DUP2 SUB DUP3 MSTORE PUSH1 0x3A DUP2 MSTORE PUSH1 0x20 ADD DUP1 PUSH2 0x1D62 PUSH1 0x3A SWAP2 CODECOPY PUSH1 0x40 ADD SWAP2 POP POP PUSH1 0x40 MLOAD DUP1 SWAP2 SUB SWAP1 REVERT JUMPDEST PUSH1 0x0 PUSH2 0x13B9 PUSH2 0x125E JUMP JUMPDEST PUSH2 0x13C1 PUSH2 0x1060 JUMP JUMPDEST ADD EQ PUSH2 0x1418 JUMPI PUSH1 0x40 MLOAD PUSH32 0x8C379A000000000000000000000000000000000000000000000000000000000 DUP2 MSTORE PUSH1 0x4 ADD DUP1 DUP1 PUSH1 0x20 ADD DUP3 DUP2 SUB DUP3 MSTORE PUSH1 0x3D DUP2 MSTORE PUSH1 0x20 ADD DUP1 PUSH2 0x1C9B PUSH1 0x3D SWAP2 CODECOPY PUSH1 0x40 ADD SWAP2 POP POP PUSH1 0x40 MLOAD DUP1 SWAP2 SUB SWAP1 REVERT JUMPDEST PUSH1 0x3 SLOAD TIMESTAMP GT PUSH2 0x1472 JUMPI PUSH1 0x40 MLOAD PUSH32 0x8C379A000000000000000000000000000000000000000000000000000000000 DUP2 MSTORE PUSH1 0x4 ADD DUP1 DUP1 PUSH1 0x20 ADD DUP3 DUP2 SUB DUP3 MSTORE PUSH1 0x36 DUP2 MSTORE PUSH1 0x20 ADD DUP1 PUSH2 0x1C26 PUSH1 0x36 SWAP2 CODECOPY PUSH1 0x40 ADD SWAP2 POP POP PUSH1 0x40 MLOAD DUP1 SWAP2 SUB SWAP1 REVERT JUMPDEST CALLER PUSH20 0xFFFFFFFFFFFFFFFFFFFFFFFFFFFFFFFFFFFFFFFF AND PUSH2 0x8FC ADDRESS PUSH20 0xFFFFFFFFFFFFFFFFFFFFFFFFFFFFFFFFFFFFFFFF AND BALANCE SWAP1 DUP2 ISZERO MUL SWAP1 PUSH1 0x40 MLOAD PUSH1 0x0 PUSH1 0x40 MLOAD DUP1 DUP4 SUB DUP2 DUP6 DUP9 DUP9 CALL SWAP4 POP POP POP POP ISZERO DUP1 ISZERO PUSH2 0x14CF JUMPI RETURNDATASIZE PUSH1 0x0 DUP1 RETURNDATACOPY RETURNDATASIZE PUSH1 0x0 REVERT JUMPDEST POP JUMP JUMPDEST PUSH1 0x5 PUSH1 0x20 MSTORE DUP1 PUSH1 0x0 MSTORE PUSH1 0x40 PUSH1 0x0 KECCAK256 PUSH1 0x0 SWAP2 POP SWAP1 POP SLOAD DUP2 JUMP JUMPDEST PUSH1 0x3 SLOAD TIMESTAMP LT PUSH2 0x1544 JUMPI PUSH1 0x40 MLOAD PUSH32 0x8C379A000000000000000000000000000000000000000000000000000000000 DUP2 MSTORE PUSH1 0x4 ADD DUP1 DUP1 PUSH1 0x20 ADD DUP3 DUP2 SUB DUP3 MSTORE PUSH1 0x2B DUP2 MSTORE PUSH1 0x20 ADD DUP1 PUSH2 0x1D9C PUSH1 0x2B SWAP2 CODECOPY PUSH1 0x40 ADD SWAP2 POP POP PUSH1 0x40 MLOAD DUP1 SWAP2 SUB SWAP1 REVERT JUMPDEST PUSH1 0x1 ISZERO ISZERO PUSH1 0x1 PUSH1 0x14 SWAP1 SLOAD SWAP1 PUSH2 0x100 EXP SWAP1 DIV PUSH1 0xFF AND ISZERO ISZERO EQ PUSH2 0x15B0 JUMPI PUSH1 0x40 MLOAD PUSH32 0x8C379A000000000000000000000000000000000000000000000000000000000 DUP2 MSTORE PUSH1 0x4 ADD DUP1 DUP1 PUSH1 0x20 ADD DUP3 DUP2 SUB DUP3 MSTORE PUSH1 0x36 DUP2 MSTORE PUSH1 0x20 ADD DUP1 PUSH2 0x1BB8 PUSH1 0x36 SWAP2 CODECOPY PUSH1 0x40 ADD SWAP2 POP POP PUSH1 0x40 MLOAD DUP1 SWAP2 SUB SWAP1 REVERT JUMPDEST PUSH1 0x0 PUSH1 0x4 DUP4 DUP2 SLOAD DUP2 LT PUSH2 0x15BF JUMPI INVALID JUMPDEST SWAP1 PUSH1 0x0 MSTORE PUSH1 0x20 PUSH1 0x0 KECCAK256 SWAP1 PUSH1 0x3 MUL ADD SWAP1 POP CALLER PUSH20 0xFFFFFFFFFFFFFFFFFFFFFFFFFFFFFFFFFFFFFFFF AND DUP2 PUSH1 0x1 ADD PUSH1 0x1 SWAP1 SLOAD SWAP1 PUSH2 0x100 EXP SWAP1 DIV PUSH20 0xFFFFFFFFFFFFFFFFFFFFFFFFFFFFFFFFFFFFFFFF AND PUSH20 0xFFFFFFFFFFFFFFFFFFFFFFFFFFFFFFFFFFFFFFFF AND EQ PUSH2 0x1677 JUMPI PUSH1 0x40 MLOAD PUSH32 0x8C379A000000000000000000000000000000000000000000000000000000000 DUP2 MSTORE PUSH1 0x4 ADD DUP1 DUP1 PUSH1 0x20 ADD DUP3 DUP2 SUB DUP3 MSTORE PUSH1 0x3F DUP2 MSTORE PUSH1 0x20 ADD DUP1 PUSH2 0x1C5C PUSH1 0x3F SWAP2 CODECOPY PUSH1 0x40 ADD SWAP2 POP POP PUSH1 0x40 MLOAD DUP1 SWAP2 SUB SWAP1 REVERT JUMPDEST DUP2 DUP2 PUSH1 0x0 ADD SWAP1 DUP1 MLOAD SWAP1 PUSH1 0x20 ADD SWAP1 PUSH2 0x168F SWAP3 SWAP2 SWAP1 PUSH2 0x1B12 JUMP JUMPDEST POP POP POP POP JUMP JUMPDEST PUSH1 0xB SLOAD DUP2 JUMP JUMPDEST PUSH1 0xA SLOAD DUP2 JUMP JUMPDEST PUSH1 0x0 PUSH1 0x4 DUP1 SLOAD SWAP1 POP SWAP1 POP SWAP1 JUMP JUMPDEST PUSH1 0x1 PUSH1 0x14 SWAP1 SLOAD SWAP1 PUSH2 0x100 EXP SWAP1 DIV PUSH1 0xFF AND DUP2 JUMP JUMPDEST PUSH1 0x7 DUP2 DUP2 SLOAD DUP2 LT PUSH2 0x16CE JUMPI INVALID JUMPDEST SWAP1 PUSH1 0x0 MSTORE PUSH1 0x20 PUSH1 0x0 KECCAK256 ADD PUSH1 0x0 SWAP2 POP SLOAD SWAP1 PUSH2 0x100 EXP SWAP1 DIV PUSH20 0xFFFFFFFFFFFFFFFFFFFFFFFFFFFFFFFFFFFFFFFF AND DUP2 JUMP JUMPDEST PUSH1 0x0 PUSH1 0xA SLOAD EQ PUSH2 0x1758 JUMPI PUSH1 0x40 MLOAD PUSH32 0x8C379A000000000000000000000000000000000000000000000000000000000 DUP2 MSTORE PUSH1 0x4 ADD DUP1 DUP1 PUSH1 0x20 ADD DUP3 DUP2 SUB DUP3 MSTORE PUSH1 0x22 DUP2 MSTORE PUSH1 0x20 ADD DUP1 PUSH2 0x1E02 PUSH1 0x22 SWAP2 CODECOPY PUSH1 0x40 ADD SWAP2 POP POP PUSH1 0x40 MLOAD DUP1 SWAP2 SUB SWAP1 REVERT JUMPDEST PUSH1 0x0 ISZERO ISZERO PUSH1 0x9 PUSH1 0x0 SWAP1 SLOAD SWAP1 PUSH2 0x100 EXP SWAP1 DIV PUSH1 0xFF AND ISZERO ISZERO EQ PUSH2 0x17C4 JUMPI PUSH1 0x40 MLOAD PUSH32 0x8C379A000000000000000000000000000000000000000000000000000000000 DUP2 MSTORE PUSH1 0x4 ADD DUP1 DUP1 PUSH1 0x20 ADD DUP3 DUP2 SUB DUP3 MSTORE PUSH1 0x25 DUP2 MSTORE PUSH1 0x20 ADD DUP1 PUSH2 0x1CD8 PUSH1 0x25 SWAP2 CODECOPY PUSH1 0x40 ADD SWAP2 POP POP PUSH1 0x40 MLOAD DUP1 SWAP2 SUB SWAP1 REVERT JUMPDEST PUSH1 0x3 SLOAD TIMESTAMP GT PUSH2 0x181E JUMPI PUSH1 0x40 MLOAD PUSH32 0x8C379A000000000000000000000000000000000000000000000000000000000 DUP2 MSTORE PUSH1 0x4 ADD DUP1 DUP1 PUSH1 0x20 ADD DUP3 DUP2 SUB DUP3 MSTORE PUSH1 0x40 DUP2 MSTORE PUSH1 0x20 ADD DUP1 PUSH2 0x1CFD PUSH1 0x40 SWAP2 CODECOPY PUSH1 0x40 ADD SWAP2 POP POP PUSH1 0x40 MLOAD DUP1 SWAP2 SUB SWAP1 REVERT JUMPDEST PUSH1 0x0 PUSH2 0x1828 PUSH2 0x1060 JUMP JUMPDEST SWAP1 POP PUSH1 0x0 PUSH2 0x1834 PUSH2 0x125E JUMP JUMPDEST SWAP1 POP PUSH1 0x0 DUP1 SWAP1 POP DUP2 DUP4 GT ISZERO PUSH2 0x1853 JUMPI PUSH1 0x1 PUSH1 0xA DUP2 SWAP1 SSTORE POP DUP3 SWAP1 POP PUSH2 0x187A JUMP JUMPDEST DUP2 DUP4 LT ISZERO PUSH2 0x186B JUMPI PUSH1 0x2 PUSH1 0xA DUP2 SWAP1 SSTORE POP DUP2 SWAP1 POP PUSH2 0x1879 JUMP JUMPDEST PUSH1 0x3 PUSH1 0xA DUP2 SWAP1 SSTORE POP DUP2 DUP4 ADD SWAP1 POP JUMPDEST JUMPDEST DUP1 ADDRESS PUSH20 0xFFFFFFFFFFFFFFFFFFFFFFFFFFFFFFFFFFFFFFFF AND BALANCE DUP2 PUSH2 0x189A JUMPI INVALID JUMPDEST DIV PUSH1 0xB DUP2 SWAP1 SSTORE POP PUSH1 0x1 PUSH1 0x9 PUSH1 0x0 PUSH2 0x100 EXP DUP2 SLOAD DUP2 PUSH1 0xFF MUL NOT AND SWAP1 DUP4 ISZERO ISZERO MUL OR SWAP1 SSTORE POP POP POP POP JUMP JUMPDEST PUSH1 0x9 PUSH1 0x0 SWAP1 SLOAD SWAP1 PUSH2 0x100 EXP SWAP1 DIV PUSH1 0xFF AND DUP2 JUMP JUMPDEST PUSH1 0x0 DUP1 PUSH1 0x0 DUP1 PUSH1 0x0 PUSH1 0x1 PUSH1 0x0 SWAP1 SLOAD SWAP1 PUSH2 0x100 EXP SWAP1 DIV PUSH20 0xFFFFFFFFFFFFFFFFFFFFFFFFFFFFFFFFFFFFFFFF AND PUSH1 0x1 PUSH1 0x14 SWAP1 SLOAD SWAP1 PUSH2 0x100 EXP SWAP1 DIV PUSH1 0xFF AND PUSH1 0x2 SLOAD PUSH1 0x3 SLOAD PUSH1 0x9 PUSH1 0x0 SWAP1 SLOAD SWAP1 PUSH2 0x100 EXP SWAP1 DIV PUSH1 0xFF AND SWAP5 POP SWAP5 POP SWAP5 POP SWAP5 POP SWAP5 POP SWAP1 SWAP2 SWAP3 SWAP4 SWAP5 JUMP JUMPDEST PUSH1 0x3 SLOAD TIMESTAMP LT PUSH2 0x1990 JUMPI PUSH1 0x40 MLOAD PUSH32 0x8C379A000000000000000000000000000000000000000000000000000000000 DUP2 MSTORE PUSH1 0x4 ADD DUP1 DUP1 PUSH1 0x20 ADD DUP3 DUP2 SUB DUP3 MSTORE PUSH1 0x2B DUP2 MSTORE PUSH1 0x20 ADD DUP1 PUSH2 0x1D9C PUSH1 0x2B SWAP2 CODECOPY PUSH1 0x40 ADD SWAP2 POP POP PUSH1 0x40 MLOAD DUP1 SWAP2 SUB SWAP1 REVERT JUMPDEST PUSH1 0x1 PUSH1 0x0 SWAP1 SLOAD SWAP1 PUSH2 0x100 EXP SWAP1 DIV PUSH20 0xFFFFFFFFFFFFFFFFFFFFFFFFFFFFFFFFFFFFFFFF AND PUSH20 0xFFFFFFFFFFFFFFFFFFFFFFFFFFFFFFFFFFFFFFFF AND CALLER PUSH20 0xFFFFFFFFFFFFFFFFFFFFFFFFFFFFFFFFFFFFFFFF AND EQ PUSH2 0x1A36 JUMPI PUSH1 0x40 MLOAD PUSH32 0x8C379A000000000000000000000000000000000000000000000000000000000 DUP2 MSTORE PUSH1 0x4 ADD DUP1 DUP1 PUSH1 0x20 ADD DUP3 DUP2 SUB DUP3 MSTORE PUSH1 0x3A DUP2 MSTORE PUSH1 0x20 ADD DUP1 PUSH2 0x1D62 PUSH1 0x3A SWAP2 CODECOPY PUSH1 0x40 ADD SWAP2 POP POP PUSH1 0x40 MLOAD DUP1 SWAP2 SUB SWAP1 REVERT JUMPDEST PUSH1 0x1 DUP1 PUSH1 0x14 PUSH2 0x100 EXP DUP2 SLOAD DUP2 PUSH1 0xFF MUL NOT AND SWAP1 DUP4 ISZERO ISZERO MUL OR SWAP1 SSTORE POP JUMP JUMPDEST PUSH1 0x40 MLOAD DUP1 PUSH1 0x80 ADD PUSH1 0x40 MSTORE DUP1 PUSH1 0x60 DUP2 MSTORE PUSH1 0x20 ADD PUSH1 0x0 ISZERO ISZERO DUP2 MSTORE PUSH1 0x20 ADD PUSH1 0x0 PUSH20 0xFFFFFFFFFFFFFFFFFFFFFFFFFFFFFFFFFFFFFFFF AND DUP2 MSTORE PUSH1 0x20 ADD PUSH1 0x0 DUP2 MSTORE POP SWAP1 JUMP JUMPDEST DUP3 DUP1 SLOAD PUSH1 0x1 DUP2 PUSH1 0x1 AND ISZERO PUSH2 0x100 MUL SUB AND PUSH1 0x2 SWAP1 DIV SWAP1 PUSH1 0x0 MSTORE PUSH1 0x20 PUSH1 0x0 KECCAK256 SWAP1 PUSH1 0x1F ADD PUSH1 0x20 SWAP1 DIV DUP2 ADD SWAP3 DUP3 PUSH1 0x1F LT PUSH2 0x1AD3 JUMPI DUP1 MLOAD PUSH1 0xFF NOT AND DUP4 DUP1 ADD OR DUP6 SSTORE PUSH2 0x1B01 JUMP JUMPDEST DUP3 DUP1 ADD PUSH1 0x1 ADD DUP6 SSTORE DUP3 ISZERO PUSH2 0x1B01 JUMPI SWAP2 DUP3 ADD JUMPDEST DUP3 DUP2 GT ISZERO PUSH2 0x1B00 JUMPI DUP3 MLOAD DUP3 SSTORE SWAP2 PUSH1 0x20 ADD SWAP2 SWAP1 PUSH1 0x1 ADD SWAP1 PUSH2 0x1AE5 JUMP JUMPDEST JUMPDEST POP SWAP1 POP PUSH2 0x1B0E SWAP2 SWAP1 PUSH2 0x1B92 JUMP JUMPDEST POP SWAP1 JUMP JUMPDEST DUP3 DUP1 SLOAD PUSH1 0x1 DUP2 PUSH1 0x1 AND ISZERO PUSH2 0x100 MUL SUB AND PUSH1 0x2 SWAP1 DIV SWAP1 PUSH1 0x0 MSTORE PUSH1 0x20 PUSH1 0x0 KECCAK256 SWAP1 PUSH1 0x1F ADD PUSH1 0x20 SWAP1 DIV DUP2 ADD SWAP3 DUP3 PUSH1 0x1F LT PUSH2 0x1B53 JUMPI DUP1 MLOAD PUSH1 0xFF NOT AND DUP4 DUP1 ADD OR DUP6 SSTORE PUSH2 0x1B81 JUMP JUMPDEST DUP3 DUP1 ADD PUSH1 0x1 ADD DUP6 SSTORE DUP3 ISZERO PUSH2 0x1B81 JUMPI SWAP2 DUP3 ADD JUMPDEST DUP3 DUP2 GT ISZERO PUSH2 0x1B80 JUMPI DUP3 MLOAD DUP3 SSTORE SWAP2 PUSH1 0x20 ADD SWAP2 SWAP1 PUSH1 0x1 ADD SWAP1 PUSH2 0x1B65 JUMP JUMPDEST JUMPDEST POP SWAP1 POP PUSH2 0x1B8E SWAP2 SWAP1 PUSH2 0x1B92 JUMP JUMPDEST POP SWAP1 JUMP JUMPDEST PUSH2 0x1BB4 SWAP2 SWAP1 JUMPDEST DUP1 DUP3 GT ISZERO PUSH2 0x1BB0 JUMPI PUSH1 0x0 DUP2 PUSH1 0x0 SWAP1 SSTORE POP PUSH1 0x1 ADD PUSH2 0x1B98 JUMP JUMPDEST POP SWAP1 JUMP JUMPDEST SWAP1 JUMP INVALID SLOAD PUSH9 0x6520546F7069632068 PUSH2 0x7320 PUSH15 0x6F74206265656E206D616465207075 PUSH3 0x6C6963 KECCAK256 PUSH3 0x792074 PUSH9 0x652063726561746F72 KECCAK256 PUSH26 0x65742E596F7520646964206E6F7420766F746520647572696E67 KECCAK256 PUSH21 0x686520706572696F642C20736F20796F752063616E PUSH15 0x6F7420636C61696D2E596F75206361 PUSH15 0x206F6E6C7920636C61696D20796F75 PUSH19 0x20726577617264732061667465722074686520 PUSH21 0x696D6520706572696F642E596F75206D7573742062 PUSH6 0x207468652063 PUSH19 0x6561746F72206F66207468697320617267756D PUSH6 0x6E7420746F20 PUSH14 0x6F646966792069747320636F6E74 PUSH6 0x6E7473546865 KECCAK256 PUSH14 0x6F6E657920676F657320746F2074 PUSH9 0x652070656F706C6520 PUSH24 0x686F2070617274696369706174656420696E207468652070 PUSH19 0x6F636573732E546F70696320697320616C7265 PUSH2 0x6479 KECCAK256 PUSH14 0x61726B656420617320636F6D706C PUSH6 0x7465642E4D61 PUSH11 0x6F726974792063616E206F PUSH15 0x6C792062652063616C63756C617465 PUSH5 0x2061667465 PUSH19 0x207468652074696D6520706572696F64206861 PUSH20 0x20656E6465642E596F75206861766520616C7265 PUSH2 0x6479 KECCAK256 PUSH4 0x72656174 PUSH6 0x6420616E2061 PUSH19 0x67756D656E742E596F75206D75737420626520 PUSH21 0x68652063726561746F72206F66207468697320546F PUSH17 0x696320696E206F7264657220746F20646F KECCAK256 PUSH21 0x6869732E54686520706572696F6420666F72207468 PUSH6 0x20546F706963 KECCAK256 PUSH9 0x617320616C72656164 PUSH26 0x20656E6465642E596F752063616E6E6F7420766F746520666F72 KECCAK256 PUSH21 0x686520617267756D656E742067656E657261746564 KECCAK256 PUSH3 0x792074 PUSH9 0x6520636F6E74726163 PUSH21 0x2E4D616A6F726974792068617320616C7265616479 KECCAK256 PUSH3 0x65656E KECCAK256 PUSH5 0x6563696465 PUSH5 0x2E596F7520 PUSH14 0x75737420696E7665737420617420 PUSH13 0x6561737420746865206D696E69 PUSH14 0x756D20616D6F756E746173206465 PUSH4 0x69646564 KECCAK256 PUSH3 0x792074 PUSH9 0x652063726561746F72 0x2e MSIZE PUSH16 0x75206861766520616C72656164792076 PUSH16 0x7465642E20596F75206D6179206E6F74 KECCAK256 PUSH4 0x68616E67 PUSH6 0x20796F757220 PUSH23 0x6F74652EA265627A7A723158209E541D1983B3C62ECF0C DUP10 0xdf 0xfb SMOD 0xc7 STOP ADDMOD 0x49 DIFFICULTY DIFFICULTY 0x21 0xe4 CODESIZE 0x5c PUSH30 0x8DF9BD4A8DDCCE64736F6C634300050C0032596F75206861766520616C72 PUSH6 0x616479206372 PUSH6 0x617465642061 PUSH15 0x20617267756D656E742E5468652070 PUSH6 0x72696F642066 PUSH16 0x722074686520546F7069632068617320 PUSH2 0x6C72 PUSH6 0x61647920656E PUSH5 0x65642E596F PUSH22 0x2068617665206E6F742063686F73656E207965742077 PUSH9 0x657468657220746865 KECCAK256 PUSH20 0x746174656D656E742069732074727565206F7220 PUSH7 0x616C7365000000 "},"gasEstimates":{"creation":{"codeDepositCost":"1578000","executionCost":"infinite","totalCost":"infinite"},"external":{"":"230","arguments(uint256)":"infinite","calculateMajority()":"infinite","claim()":"infinite","content()":"infinite","createArgument(string,bool)":"infinite","createdArgument(address)":"636","creator()":"499","creatorClaim()":"infinite","endTime()":"450","getArgumentCount()":"554","getDetails()":"1653","getLieCount()":"532","getTruthCount()":"444","isCompleted()":"541","isPublic()":"525","lieVoters(uint256)":"907","majority()":"516","makePublic()":"infinite","minimumInvestment()":"539","modifyArgument(uint256,string)":"infinite","payPerIndividual()":"494","truthVoters(uint256)":"861","vote(uint256)":"infinite","voted(address)":"614"}},"methodIdentifiers":{"arguments(uint256)":"0a68f631","calculateMajority()":"f22bb5f6","claim()":"4e71d92d","content()":"8a4d5a67","createArgument(string,bool)":"0715ef00","createdArgument(address)":"44fe9432","creator()":"02d05d3f","creatorClaim()":"9380b1cf","endTime()":"3197cbb6","getArgumentCount()":"c234d789","getDetails()":"fbbf93a0","getLieCount()":"6e3ebc2e","getTruthCount()":"2ec32e6d","isCompleted()":"fa391c64","isPublic()":"dc9a1535","lieVoters(uint256)":"09f74db7","majority()":"b6e54bdf","makePublic()":"fc018c05","minimumInvestment()":"2b925b25","modifyArgument(uint256,string)":"b4fdf113","payPerIndividual()":"b6b9e90a","truthVoters(uint256)":"e5d00035","vote(uint256)":"0121b93f","voted(address)":"aec2ccae"}},"userdoc":{"methods":{}}}