{"abi":[{"inputs":[{"internalType":"address","name":"_topicFactoryAddress","type":"address"}],"payable":false,"stateMutability":"nonpayable","type":"constructor"},{"anonymous":false,"inputs":[{"indexed":false,"internalType":"string","name":"description","type":"string"}],"name":"LogNewProvableQuery","type":"event"},{"constant":false,"inputs":[{"internalType":"bytes32","name":"_myid","type":"bytes32"},{"internalType":"string","name":"_result","type":"string"}],"name":"__callback","outputs":[],"payable":false,"stateMutability":"nonpayable","type":"function"},{"constant":false,"inputs":[{"internalType":"bytes32","name":"_queryId","type":"bytes32"},{"internalType":"string","name":"_result","type":"string"},{"internalType":"bytes","name":"_proof","type":"bytes"}],"name":"__callback","outputs":[],"payable":false,"stateMutability":"nonpayable","type":"function"},{"constant":true,"inputs":[{"internalType":"address","name":"","type":"address"}],"name":"assignedVisibleTopics","outputs":[{"internalType":"uint256","name":"","type":"uint256"}],"payable":false,"stateMutability":"view","type":"function"},{"constant":false,"inputs":[{"internalType":"uint256","name":"numTopics","type":"uint256"}],"name":"changeNumVisibleTopics","outputs":[],"payable":false,"stateMutability":"nonpayable","type":"function"},{"constant":true,"inputs":[{"internalType":"address","name":"sender","type":"address"}],"name":"getRandomTopics","outputs":[{"internalType":"address[]","name":"","type":"address[]"}],"payable":false,"stateMutability":"view","type":"function"},{"constant":true,"inputs":[{"internalType":"address","name":"sender","type":"address"},{"internalType":"address","name":"topicAddress","type":"address"}],"name":"hasTopic","outputs":[{"internalType":"bool","name":"","type":"bool"}],"payable":false,"stateMutability":"view","type":"function"},{"constant":true,"inputs":[],"name":"owner","outputs":[{"internalType":"address","name":"","type":"address"}],"payable":false,"stateMutability":"view","type":"function"},{"constant":true,"inputs":[{"internalType":"bytes32","name":"","type":"bytes32"}],"name":"queryToUserAddress","outputs":[{"internalType":"address","name":"","type":"address"}],"payable":false,"stateMutability":"view","type":"function"},{"constant":false,"inputs":[],"name":"refreshRandomTopics","outputs":[],"payable":true,"stateMutability":"payable","type":"function"},{"constant":true,"inputs":[],"name":"topicFactoryAddress","outputs":[{"internalType":"address","name":"","type":"address"}],"payable":false,"stateMutability":"view","type":"function"}],"devdoc":{"methods":{"__callback(bytes32,string)":{"details":"The following `__callback` functions are just placeholders ideally     meant to be defined in child contract when proofs are used.     The function bodies simply silence compiler warnings."}}},"evm":{"assembly":"    /* \"TopicAssigner.sol\":163:4872  contract TopicAssigner is usingProvable {\r... */\n  mstore(0x40, 0x80)\n    /* \"TopicAssigner.sol\":340:342  25 */\n  0x19\n    /* \"TopicAssigner.sol\":311:342  uint256 NUM_VISIBLE_TOPICS = 25 */\n  0x05\n  sstore\n    /* \"TopicAssigner.sol\":756:941  constructor(address _topicFactoryAddress) public {\r... */\n  callvalue\n    /* \"--CODEGEN--\":8:17   */\n  dup1\n    /* \"--CODEGEN--\":5:7   */\n  iszero\n  tag_1\n  jumpi\n    /* \"--CODEGEN--\":30:31   */\n  0x00\n    /* \"--CODEGEN--\":27:28   */\n  dup1\n    /* \"--CODEGEN--\":20:32   */\n  revert\n    /* \"--CODEGEN--\":5:7   */\ntag_1:\n    /* \"TopicAssigner.sol\":756:941  constructor(address _topicFactoryAddress) public {\r... */\n  pop\n  mload(0x40)\n  sub(codesize, bytecodeSize)\n  dup1\n  bytecodeSize\n  dup4\n  codecopy\n  dup2\n  dup2\n  add\n  0x40\n  mstore\n    /* \"--CODEGEN--\":13:15   */\n  0x20\n    /* \"--CODEGEN--\":8:11   */\n  dup2\n    /* \"--CODEGEN--\":5:16   */\n  lt\n    /* \"--CODEGEN--\":2:4   */\n  iszero\n  tag_2\n  jumpi\n    /* \"--CODEGEN--\":29:30   */\n  0x00\n    /* \"--CODEGEN--\":26:27   */\n  dup1\n    /* \"--CODEGEN--\":19:31   */\n  revert\n    /* \"--CODEGEN--\":2:4   */\ntag_2:\n    /* \"TopicAssigner.sol\":756:941  constructor(address _topicFactoryAddress) public {\r... */\n  dup2\n  add\n  swap1\n  dup1\n  dup1\n  mload\n  swap1\n  0x20\n  add\n  swap1\n  swap3\n  swap2\n  swap1\n  pop\n  pop\n  pop\n    /* \"TopicAssigner.sol\":838:858  _topicFactoryAddress */\n  dup1\n    /* \"TopicAssigner.sol\":816:835  topicFactoryAddress */\n  0x07\n  0x00\n    /* \"TopicAssigner.sol\":816:858  topicFactoryAddress = _topicFactoryAddress */\n  0x0100\n  exp\n  dup2\n  sload\n  dup2\n  0xffffffffffffffffffffffffffffffffffffffff\n  mul\n  not\n  and\n  swap1\n  dup4\n  0xffffffffffffffffffffffffffffffffffffffff\n  and\n  mul\n  or\n  swap1\n  sstore\n  pop\n    /* \"TopicAssigner.sol\":869:904  provable_setProof(proofType_Ledger) */\n  tag_5\n    /* \"provableAPI_0.5.sol\":11548:11552  0x30 */\n  0x30\n    /* \"TopicAssigner.sol\":887:903  proofType_Ledger */\n  0xf8\n  shl\n    /* \"TopicAssigner.sol\":869:886  provable_setProof */\n  shl(0x20, tag_6)\n    /* \"TopicAssigner.sol\":869:904  provable_setProof(proofType_Ledger) */\n  0x20\n  shr\n  jump\t// in\ntag_5:\n    /* \"TopicAssigner.sol\":923:933  msg.sender */\n  caller\n    /* \"TopicAssigner.sol\":915:920  owner */\n  0x06\n  0x00\n    /* \"TopicAssigner.sol\":915:933  owner = msg.sender */\n  0x0100\n  exp\n  dup2\n  sload\n  dup2\n  0xffffffffffffffffffffffffffffffffffffffff\n  mul\n  not\n  and\n  swap1\n  dup4\n  0xffffffffffffffffffffffffffffffffffffffff\n  and\n  mul\n  or\n  swap1\n  sstore\n  pop\n    /* \"TopicAssigner.sol\":756:941  constructor(address _topicFactoryAddress) public {\r... */\n  pop\n    /* \"TopicAssigner.sol\":163:4872  contract TopicAssigner is usingProvable {\r... */\n  jump(tag_7)\n    /* \"provableAPI_0.5.sol\":37928:38046  function provable_setProof(byte _proofP) provableAPI internal {\r... */\ntag_6:\n    /* \"provableAPI_0.5.sol\":12187:12188  0 */\n  0x00\n    /* \"provableAPI_0.5.sol\":12163:12189  address(OAR) == address(0) */\n  0xffffffffffffffffffffffffffffffffffffffff\n  and\n    /* \"provableAPI_0.5.sol\":12171:12174  OAR */\n  0x01\n  0x00\n  swap1\n  sload\n  swap1\n  0x0100\n  exp\n  swap1\n  div\n  0xffffffffffffffffffffffffffffffffffffffff\n  and\n    /* \"provableAPI_0.5.sol\":12163:12189  address(OAR) == address(0) */\n  0xffffffffffffffffffffffffffffffffffffffff\n  and\n  eq\n    /* \"provableAPI_0.5.sol\":12162:12226  (address(OAR) == address(0)) || (getCodeSize(address(OAR)) == 0) */\n  dup1\n  tag_9\n  jumpi\n  pop\n    /* \"provableAPI_0.5.sol\":12224:12225  0 */\n  0x00\n    /* \"provableAPI_0.5.sol\":12195:12220  getCodeSize(address(OAR)) */\n  tag_10\n    /* \"provableAPI_0.5.sol\":12215:12218  OAR */\n  0x01\n  0x00\n  swap1\n  sload\n  swap1\n  0x0100\n  exp\n  swap1\n  div\n  0xffffffffffffffffffffffffffffffffffffffff\n  and\n    /* \"provableAPI_0.5.sol\":12195:12206  getCodeSize */\n  shl(0x20, tag_11)\n    /* \"provableAPI_0.5.sol\":12195:12220  getCodeSize(address(OAR)) */\n  0x20\n  shr\n  jump\t// in\ntag_10:\n    /* \"provableAPI_0.5.sol\":12195:12225  getCodeSize(address(OAR)) == 0 */\n  eq\n    /* \"provableAPI_0.5.sol\":12162:12226  (address(OAR) == address(0)) || (getCodeSize(address(OAR)) == 0) */\ntag_9:\n    /* \"provableAPI_0.5.sol\":12158:12290  if ((address(OAR) == address(0)) || (getCodeSize(address(OAR)) == 0)) {\r... */\n  iszero\n  tag_12\n  jumpi\n    /* \"provableAPI_0.5.sol\":12243:12278  provable_setNetwork(networkID_auto) */\n  tag_13\n    /* \"provableAPI_0.5.sol\":11809:11810  0 */\n  0x00\n    /* \"provableAPI_0.5.sol\":12243:12262  provable_setNetwork */\n  shl(0x20, tag_14)\n    /* \"provableAPI_0.5.sol\":12243:12278  provable_setNetwork(networkID_auto) */\n  0x20\n  shr\n  jump\t// in\ntag_13:\n  pop\n    /* \"provableAPI_0.5.sol\":12158:12290  if ((address(OAR) == address(0)) || (getCodeSize(address(OAR)) == 0)) {\r... */\ntag_12:\n    /* \"provableAPI_0.5.sol\":12325:12328  OAR */\n  0x01\n  0x00\n  swap1\n  sload\n  swap1\n  0x0100\n  exp\n  swap1\n  div\n  0xffffffffffffffffffffffffffffffffffffffff\n  and\n    /* \"provableAPI_0.5.sol\":12325:12339  OAR.getAddress */\n  0xffffffffffffffffffffffffffffffffffffffff\n  and\n  0x38cc4831\n    /* \"provableAPI_0.5.sol\":12325:12341  OAR.getAddress() */\n  mload(0x40)\n  dup2\n  0xffffffff\n  and\n  0xe0\n  shl\n  dup2\n  mstore\n  0x04\n  add\n  0x20\n  mload(0x40)\n  dup1\n  dup4\n  sub\n  dup2\n  0x00\n  dup8\n  dup1\n  extcodesize\n  iszero\n    /* \"--CODEGEN--\":8:17   */\n  dup1\n    /* \"--CODEGEN--\":5:7   */\n  iszero\n  tag_15\n  jumpi\n    /* \"--CODEGEN--\":30:31   */\n  0x00\n    /* \"--CODEGEN--\":27:28   */\n  dup1\n    /* \"--CODEGEN--\":20:32   */\n  revert\n    /* \"--CODEGEN--\":5:7   */\ntag_15:\n    /* \"provableAPI_0.5.sol\":12325:12341  OAR.getAddress() */\n  pop\n  gas\n  call\n  iszero\n    /* \"--CODEGEN--\":8:17   */\n  dup1\n    /* \"--CODEGEN--\":5:7   */\n  iszero\n  tag_16\n  jumpi\n    /* \"--CODEGEN--\":45:61   */\n  returndatasize\n    /* \"--CODEGEN--\":42:43   */\n  0x00\n    /* \"--CODEGEN--\":39:40   */\n  dup1\n    /* \"--CODEGEN--\":24:62   */\n  returndatacopy\n    /* \"--CODEGEN--\":77:93   */\n  returndatasize\n    /* \"--CODEGEN--\":74:75   */\n  0x00\n    /* \"--CODEGEN--\":67:94   */\n  revert\n    /* \"--CODEGEN--\":5:7   */\ntag_16:\n    /* \"provableAPI_0.5.sol\":12325:12341  OAR.getAddress() */\n  pop\n  pop\n  pop\n  pop\n  mload(0x40)\n  returndatasize\n    /* \"--CODEGEN--\":13:15   */\n  0x20\n    /* \"--CODEGEN--\":8:11   */\n  dup2\n    /* \"--CODEGEN--\":5:16   */\n  lt\n    /* \"--CODEGEN--\":2:4   */\n  iszero\n  tag_17\n  jumpi\n    /* \"--CODEGEN--\":29:30   */\n  0x00\n    /* \"--CODEGEN--\":26:27   */\n  dup1\n    /* \"--CODEGEN--\":19:31   */\n  revert\n    /* \"--CODEGEN--\":2:4   */\ntag_17:\n    /* \"provableAPI_0.5.sol\":12325:12341  OAR.getAddress() */\n  dup2\n  add\n  swap1\n  dup1\n  dup1\n  mload\n  swap1\n  0x20\n  add\n  swap1\n  swap3\n  swap2\n  swap1\n  pop\n  pop\n  pop\n    /* \"provableAPI_0.5.sol\":12304:12341  address(provable) != OAR.getAddress() */\n  0xffffffffffffffffffffffffffffffffffffffff\n  and\n    /* \"provableAPI_0.5.sol\":12312:12320  provable */\n  0x00\n  dup1\n  swap1\n  sload\n  swap1\n  0x0100\n  exp\n  swap1\n  div\n  0xffffffffffffffffffffffffffffffffffffffff\n  and\n    /* \"provableAPI_0.5.sol\":12304:12341  address(provable) != OAR.getAddress() */\n  0xffffffffffffffffffffffffffffffffffffffff\n  and\n  eq\n    /* \"provableAPI_0.5.sol\":12300:12408  if (address(provable) != OAR.getAddress()) {\r... */\n  tag_18\n  jumpi\n    /* \"provableAPI_0.5.sol\":12379:12382  OAR */\n  0x01\n  0x00\n  swap1\n  sload\n  swap1\n  0x0100\n  exp\n  swap1\n  div\n  0xffffffffffffffffffffffffffffffffffffffff\n  and\n    /* \"provableAPI_0.5.sol\":12379:12393  OAR.getAddress */\n  0xffffffffffffffffffffffffffffffffffffffff\n  and\n  0x38cc4831\n    /* \"provableAPI_0.5.sol\":12379:12395  OAR.getAddress() */\n  mload(0x40)\n  dup2\n  0xffffffff\n  and\n  0xe0\n  shl\n  dup2\n  mstore\n  0x04\n  add\n  0x20\n  mload(0x40)\n  dup1\n  dup4\n  sub\n  dup2\n  0x00\n  dup8\n  dup1\n  extcodesize\n  iszero\n    /* \"--CODEGEN--\":8:17   */\n  dup1\n    /* \"--CODEGEN--\":5:7   */\n  iszero\n  tag_19\n  jumpi\n    /* \"--CODEGEN--\":30:31   */\n  0x00\n    /* \"--CODEGEN--\":27:28   */\n  dup1\n    /* \"--CODEGEN--\":20:32   */\n  revert\n    /* \"--CODEGEN--\":5:7   */\ntag_19:\n    /* \"provableAPI_0.5.sol\":12379:12395  OAR.getAddress() */\n  pop\n  gas\n  call\n  iszero\n    /* \"--CODEGEN--\":8:17   */\n  dup1\n    /* \"--CODEGEN--\":5:7   */\n  iszero\n  tag_20\n  jumpi\n    /* \"--CODEGEN--\":45:61   */\n  returndatasize\n    /* \"--CODEGEN--\":42:43   */\n  0x00\n    /* \"--CODEGEN--\":39:40   */\n  dup1\n    /* \"--CODEGEN--\":24:62   */\n  returndatacopy\n    /* \"--CODEGEN--\":77:93   */\n  returndatasize\n    /* \"--CODEGEN--\":74:75   */\n  0x00\n    /* \"--CODEGEN--\":67:94   */\n  revert\n    /* \"--CODEGEN--\":5:7   */\ntag_20:\n    /* \"provableAPI_0.5.sol\":12379:12395  OAR.getAddress() */\n  pop\n  pop\n  pop\n  pop\n  mload(0x40)\n  returndatasize\n    /* \"--CODEGEN--\":13:15   */\n  0x20\n    /* \"--CODEGEN--\":8:11   */\n  dup2\n    /* \"--CODEGEN--\":5:16   */\n  lt\n    /* \"--CODEGEN--\":2:4   */\n  iszero\n  tag_21\n  jumpi\n    /* \"--CODEGEN--\":29:30   */\n  0x00\n    /* \"--CODEGEN--\":26:27   */\n  dup1\n    /* \"--CODEGEN--\":19:31   */\n  revert\n    /* \"--CODEGEN--\":2:4   */\ntag_21:\n    /* \"provableAPI_0.5.sol\":12379:12395  OAR.getAddress() */\n  dup2\n  add\n  swap1\n  dup1\n  dup1\n  mload\n  swap1\n  0x20\n  add\n  swap1\n  swap3\n  swap2\n  swap1\n  pop\n  pop\n  pop\n    /* \"provableAPI_0.5.sol\":12358:12366  provable */\n  0x00\n  dup1\n    /* \"provableAPI_0.5.sol\":12358:12396  provable = ProvableI(OAR.getAddress()) */\n  0x0100\n  exp\n  dup2\n  sload\n  dup2\n  0xffffffffffffffffffffffffffffffffffffffff\n  mul\n  not\n  and\n  swap1\n  dup4\n  0xffffffffffffffffffffffffffffffffffffffff\n  and\n  mul\n  or\n  swap1\n  sstore\n  pop\n    /* \"provableAPI_0.5.sol\":12300:12408  if (address(provable) != OAR.getAddress()) {\r... */\ntag_18:\n    /* \"provableAPI_0.5.sol\":38008:38016  provable */\n  0x00\n  dup1\n  swap1\n  sload\n  swap1\n  0x0100\n  exp\n  swap1\n  div\n  0xffffffffffffffffffffffffffffffffffffffff\n  and\n    /* \"provableAPI_0.5.sol\":38008:38029  provable.setProofType */\n  0xffffffffffffffffffffffffffffffffffffffff\n  and\n  0x688dcfd7\n    /* \"provableAPI_0.5.sol\":38030:38037  _proofP */\n  dup3\n    /* \"provableAPI_0.5.sol\":38008:38038  provable.setProofType(_proofP) */\n  mload(0x40)\n  dup3\n  0xffffffff\n  and\n  0xe0\n  shl\n  dup2\n  mstore\n  0x04\n  add\n  dup1\n  dup3\n  not(0xffffffffffffffffffffffffffffffffffffffffffffffffffffffffffffff)\n  and\n  not(0xffffffffffffffffffffffffffffffffffffffffffffffffffffffffffffff)\n  and\n  dup2\n  mstore\n  0x20\n  add\n  swap2\n  pop\n  pop\n  0x00\n  mload(0x40)\n  dup1\n  dup4\n  sub\n  dup2\n  0x00\n  dup8\n  dup1\n  extcodesize\n  iszero\n    /* \"--CODEGEN--\":8:17   */\n  dup1\n    /* \"--CODEGEN--\":5:7   */\n  iszero\n  tag_23\n  jumpi\n    /* \"--CODEGEN--\":30:31   */\n  0x00\n    /* \"--CODEGEN--\":27:28   */\n  dup1\n    /* \"--CODEGEN--\":20:32   */\n  revert\n    /* \"--CODEGEN--\":5:7   */\ntag_23:\n    /* \"provableAPI_0.5.sol\":38008:38038  provable.setProofType(_proofP) */\n  pop\n  gas\n  call\n  iszero\n    /* \"--CODEGEN--\":8:17   */\n  dup1\n    /* \"--CODEGEN--\":5:7   */\n  iszero\n  tag_24\n  jumpi\n    /* \"--CODEGEN--\":45:61   */\n  returndatasize\n    /* \"--CODEGEN--\":42:43   */\n  0x00\n    /* \"--CODEGEN--\":39:40   */\n  dup1\n    /* \"--CODEGEN--\":24:62   */\n  returndatacopy\n    /* \"--CODEGEN--\":77:93   */\n  returndatasize\n    /* \"--CODEGEN--\":74:75   */\n  0x00\n    /* \"--CODEGEN--\":67:94   */\n  revert\n    /* \"--CODEGEN--\":5:7   */\ntag_24:\n    /* \"provableAPI_0.5.sol\":38008:38038  provable.setProofType(_proofP) */\n  pop\n  pop\n  pop\n  pop\n    /* \"provableAPI_0.5.sol\":37928:38046  function provable_setProof(byte _proofP) provableAPI internal {\r... */\n  pop\n  jump\t// out\n    /* \"provableAPI_0.5.sol\":38196:38347  function getCodeSize(address _addr) view internal returns (uint _size) {\r... */\ntag_11:\n    /* \"provableAPI_0.5.sol\":38255:38265  uint _size */\n  0x00\n    /* \"provableAPI_0.5.sol\":38323:38328  _addr */\n  dup2\n    /* \"provableAPI_0.5.sol\":38311:38329  extcodesize(_addr) */\n  extcodesize\n    /* \"provableAPI_0.5.sol\":38302:38329  _size := extcodesize(_addr) */\n  swap1\n  pop\n    /* \"provableAPI_0.5.sol\":38287:38340  {\r... */\n  swap2\n  swap1\n  pop\n  jump\t// out\n    /* \"provableAPI_0.5.sol\":12912:13120  function provable_setNetwork(uint8 _networkID) internal returns (bool _networkSet) {\r... */\ntag_14:\n    /* \"provableAPI_0.5.sol\":12977:12993  bool _networkSet */\n  0x00\n    /* \"provableAPI_0.5.sol\":13091:13112  provable_setNetwork() */\n  tag_27\n    /* \"provableAPI_0.5.sol\":13091:13110  provable_setNetwork */\n  shl(0x20, tag_28)\n    /* \"provableAPI_0.5.sol\":13091:13112  provable_setNetwork() */\n  0x20\n  shr\n  jump\t// in\ntag_27:\n    /* \"provableAPI_0.5.sol\":13084:13112  return provable_setNetwork() */\n  swap1\n  pop\n    /* \"provableAPI_0.5.sol\":12912:13120  function provable_setNetwork(uint8 _networkID) internal returns (bool _networkSet) {\r... */\n  swap2\n  swap1\n  pop\n  jump\t// out\n    /* \"provableAPI_0.5.sol\":13404:15474  function provable_setNetwork() internal returns (bool _networkSet) {\r... */\ntag_28:\n    /* \"provableAPI_0.5.sol\":13453:13469  bool _networkSet */\n  0x00\n    /* \"provableAPI_0.5.sol\":13544:13545  0 */\n  dup1\n    /* \"provableAPI_0.5.sol\":13486:13541  getCodeSize(0x1d3B2638a7cC9f2CB3D298A3DA7a90B67E5506ed) */\n  tag_30\n    /* \"provableAPI_0.5.sol\":13498:13540  0x1d3B2638a7cC9f2CB3D298A3DA7a90B67E5506ed */\n  0x1d3b2638a7cc9f2cb3d298a3da7a90b67e5506ed\n    /* \"provableAPI_0.5.sol\":13486:13497  getCodeSize */\n  shl(0x20, tag_11)\n    /* \"provableAPI_0.5.sol\":13486:13541  getCodeSize(0x1d3B2638a7cC9f2CB3D298A3DA7a90B67E5506ed) */\n  0x20\n  shr\n  jump\t// in\ntag_30:\n    /* \"provableAPI_0.5.sol\":13486:13545  getCodeSize(0x1d3B2638a7cC9f2CB3D298A3DA7a90B67E5506ed) > 0 */\n  gt\n    /* \"provableAPI_0.5.sol\":13482:13732  if (getCodeSize(0x1d3B2638a7cC9f2CB3D298A3DA7a90B67E5506ed) > 0) { //mainnet\r... */\n  iszero\n  tag_31\n  jumpi\n    /* \"provableAPI_0.5.sol\":13598:13640  0x1d3B2638a7cC9f2CB3D298A3DA7a90B67E5506ed */\n  0x1d3b2638a7cc9f2cb3d298a3da7a90b67e5506ed\n    /* \"provableAPI_0.5.sol\":13572:13575  OAR */\n  0x01\n  0x00\n    /* \"provableAPI_0.5.sol\":13572:13641  OAR = OracleAddrResolverI(0x1d3B2638a7cC9f2CB3D298A3DA7a90B67E5506ed) */\n  0x0100\n  exp\n  dup2\n  sload\n  dup2\n  0xffffffffffffffffffffffffffffffffffffffff\n  mul\n  not\n  and\n  swap1\n  dup4\n  0xffffffffffffffffffffffffffffffffffffffff\n  and\n  mul\n  or\n  swap1\n  sstore\n  pop\n    /* \"provableAPI_0.5.sol\":13656:13694  provable_setNetworkName(\"eth_mainnet\") */\n  tag_32\n  mload(0x40)\n  dup1\n  0x40\n  add\n  0x40\n  mstore\n  dup1\n  0x0b\n  dup2\n  mstore\n  0x20\n  add\n  0x6574685f6d61696e6e6574000000000000000000000000000000000000000000\n  dup2\n  mstore\n  pop\n    /* \"provableAPI_0.5.sol\":13656:13679  provable_setNetworkName */\n  shl(0x20, tag_33)\n    /* \"provableAPI_0.5.sol\":13656:13694  provable_setNetworkName(\"eth_mainnet\") */\n  0x20\n  shr\n  jump\t// in\ntag_32:\n    /* \"provableAPI_0.5.sol\":13716:13720  true */\n  0x01\n    /* \"provableAPI_0.5.sol\":13709:13720  return true */\n  swap1\n  pop\n  jump(tag_29)\n    /* \"provableAPI_0.5.sol\":13482:13732  if (getCodeSize(0x1d3B2638a7cC9f2CB3D298A3DA7a90B67E5506ed) > 0) { //mainnet\r... */\ntag_31:\n    /* \"provableAPI_0.5.sol\":13804:13805  0 */\n  0x00\n    /* \"provableAPI_0.5.sol\":13746:13801  getCodeSize(0xc03A2615D5efaf5F49F60B7BB6583eaec212fdf1) */\n  tag_34\n    /* \"provableAPI_0.5.sol\":13758:13800  0xc03A2615D5efaf5F49F60B7BB6583eaec212fdf1 */\n  0xc03a2615d5efaf5f49f60b7bb6583eaec212fdf1\n    /* \"provableAPI_0.5.sol\":13746:13757  getCodeSize */\n  shl(0x20, tag_11)\n    /* \"provableAPI_0.5.sol\":13746:13801  getCodeSize(0xc03A2615D5efaf5F49F60B7BB6583eaec212fdf1) */\n  0x20\n  shr\n  jump\t// in\ntag_34:\n    /* \"provableAPI_0.5.sol\":13746:13805  getCodeSize(0xc03A2615D5efaf5F49F60B7BB6583eaec212fdf1) > 0 */\n  gt\n    /* \"provableAPI_0.5.sol\":13742:14001  if (getCodeSize(0xc03A2615D5efaf5F49F60B7BB6583eaec212fdf1) > 0) { //ropsten testnet\r... */\n  iszero\n  tag_35\n  jumpi\n    /* \"provableAPI_0.5.sol\":13866:13908  0xc03A2615D5efaf5F49F60B7BB6583eaec212fdf1 */\n  0xc03a2615d5efaf5f49f60b7bb6583eaec212fdf1\n    /* \"provableAPI_0.5.sol\":13840:13843  OAR */\n  0x01\n  0x00\n    /* \"provableAPI_0.5.sol\":13840:13909  OAR = OracleAddrResolverI(0xc03A2615D5efaf5F49F60B7BB6583eaec212fdf1) */\n  0x0100\n  exp\n  dup2\n  sload\n  dup2\n  0xffffffffffffffffffffffffffffffffffffffff\n  mul\n  not\n  and\n  swap1\n  dup4\n  0xffffffffffffffffffffffffffffffffffffffff\n  and\n  mul\n  or\n  swap1\n  sstore\n  pop\n    /* \"provableAPI_0.5.sol\":13924:13963  provable_setNetworkName(\"eth_ropsten3\") */\n  tag_36\n  mload(0x40)\n  dup1\n  0x40\n  add\n  0x40\n  mstore\n  dup1\n  0x0c\n  dup2\n  mstore\n  0x20\n  add\n  0x6574685f726f707374656e330000000000000000000000000000000000000000\n  dup2\n  mstore\n  pop\n    /* \"provableAPI_0.5.sol\":13924:13947  provable_setNetworkName */\n  shl(0x20, tag_33)\n    /* \"provableAPI_0.5.sol\":13924:13963  provable_setNetworkName(\"eth_ropsten3\") */\n  0x20\n  shr\n  jump\t// in\ntag_36:\n    /* \"provableAPI_0.5.sol\":13985:13989  true */\n  0x01\n    /* \"provableAPI_0.5.sol\":13978:13989  return true */\n  swap1\n  pop\n  jump(tag_29)\n    /* \"provableAPI_0.5.sol\":13742:14001  if (getCodeSize(0xc03A2615D5efaf5F49F60B7BB6583eaec212fdf1) > 0) { //ropsten testnet\r... */\ntag_35:\n    /* \"provableAPI_0.5.sol\":14073:14074  0 */\n  0x00\n    /* \"provableAPI_0.5.sol\":14015:14070  getCodeSize(0xB7A07BcF2Ba2f2703b24C0691b5278999C59AC7e) */\n  tag_37\n    /* \"provableAPI_0.5.sol\":14027:14069  0xB7A07BcF2Ba2f2703b24C0691b5278999C59AC7e */\n  0xb7a07bcf2ba2f2703b24c0691b5278999c59ac7e\n    /* \"provableAPI_0.5.sol\":14015:14026  getCodeSize */\n  shl(0x20, tag_11)\n    /* \"provableAPI_0.5.sol\":14015:14070  getCodeSize(0xB7A07BcF2Ba2f2703b24C0691b5278999C59AC7e) */\n  0x20\n  shr\n  jump\t// in\ntag_37:\n    /* \"provableAPI_0.5.sol\":14015:14074  getCodeSize(0xB7A07BcF2Ba2f2703b24C0691b5278999C59AC7e) > 0 */\n  gt\n    /* \"provableAPI_0.5.sol\":14011:14265  if (getCodeSize(0xB7A07BcF2Ba2f2703b24C0691b5278999C59AC7e) > 0) { //kovan testnet\r... */\n  iszero\n  tag_38\n  jumpi\n    /* \"provableAPI_0.5.sol\":14133:14175  0xB7A07BcF2Ba2f2703b24C0691b5278999C59AC7e */\n  0xb7a07bcf2ba2f2703b24c0691b5278999c59ac7e\n    /* \"provableAPI_0.5.sol\":14107:14110  OAR */\n  0x01\n  0x00\n    /* \"provableAPI_0.5.sol\":14107:14176  OAR = OracleAddrResolverI(0xB7A07BcF2Ba2f2703b24C0691b5278999C59AC7e) */\n  0x0100\n  exp\n  dup2\n  sload\n  dup2\n  0xffffffffffffffffffffffffffffffffffffffff\n  mul\n  not\n  and\n  swap1\n  dup4\n  0xffffffffffffffffffffffffffffffffffffffff\n  and\n  mul\n  or\n  swap1\n  sstore\n  pop\n    /* \"provableAPI_0.5.sol\":14191:14227  provable_setNetworkName(\"eth_kovan\") */\n  tag_39\n  mload(0x40)\n  dup1\n  0x40\n  add\n  0x40\n  mstore\n  dup1\n  0x09\n  dup2\n  mstore\n  0x20\n  add\n  0x6574685f6b6f76616e0000000000000000000000000000000000000000000000\n  dup2\n  mstore\n  pop\n    /* \"provableAPI_0.5.sol\":14191:14214  provable_setNetworkName */\n  shl(0x20, tag_33)\n    /* \"provableAPI_0.5.sol\":14191:14227  provable_setNetworkName(\"eth_kovan\") */\n  0x20\n  shr\n  jump\t// in\ntag_39:\n    /* \"provableAPI_0.5.sol\":14249:14253  true */\n  0x01\n    /* \"provableAPI_0.5.sol\":14242:14253  return true */\n  swap1\n  pop\n  jump(tag_29)\n    /* \"provableAPI_0.5.sol\":14011:14265  if (getCodeSize(0xB7A07BcF2Ba2f2703b24C0691b5278999C59AC7e) > 0) { //kovan testnet\r... */\ntag_38:\n    /* \"provableAPI_0.5.sol\":14337:14338  0 */\n  0x00\n    /* \"provableAPI_0.5.sol\":14279:14334  getCodeSize(0x146500cfd35B22E4A392Fe0aDc06De1a1368Ed48) */\n  tag_40\n    /* \"provableAPI_0.5.sol\":14291:14333  0x146500cfd35B22E4A392Fe0aDc06De1a1368Ed48 */\n  0x146500cfd35b22e4a392fe0adc06de1a1368ed48\n    /* \"provableAPI_0.5.sol\":14279:14290  getCodeSize */\n  shl(0x20, tag_11)\n    /* \"provableAPI_0.5.sol\":14279:14334  getCodeSize(0x146500cfd35B22E4A392Fe0aDc06De1a1368Ed48) */\n  0x20\n  shr\n  jump\t// in\ntag_40:\n    /* \"provableAPI_0.5.sol\":14279:14338  getCodeSize(0x146500cfd35B22E4A392Fe0aDc06De1a1368Ed48) > 0 */\n  gt\n    /* \"provableAPI_0.5.sol\":14275:14533  if (getCodeSize(0x146500cfd35B22E4A392Fe0aDc06De1a1368Ed48) > 0) { //rinkeby testnet\r... */\n  iszero\n  tag_41\n  jumpi\n    /* \"provableAPI_0.5.sol\":14399:14441  0x146500cfd35B22E4A392Fe0aDc06De1a1368Ed48 */\n  0x146500cfd35b22e4a392fe0adc06de1a1368ed48\n    /* \"provableAPI_0.5.sol\":14373:14376  OAR */\n  0x01\n  0x00\n    /* \"provableAPI_0.5.sol\":14373:14442  OAR = OracleAddrResolverI(0x146500cfd35B22E4A392Fe0aDc06De1a1368Ed48) */\n  0x0100\n  exp\n  dup2\n  sload\n  dup2\n  0xffffffffffffffffffffffffffffffffffffffff\n  mul\n  not\n  and\n  swap1\n  dup4\n  0xffffffffffffffffffffffffffffffffffffffff\n  and\n  mul\n  or\n  swap1\n  sstore\n  pop\n    /* \"provableAPI_0.5.sol\":14457:14495  provable_setNetworkName(\"eth_rinkeby\") */\n  tag_42\n  mload(0x40)\n  dup1\n  0x40\n  add\n  0x40\n  mstore\n  dup1\n  0x0b\n  dup2\n  mstore\n  0x20\n  add\n  0x6574685f72696e6b656279000000000000000000000000000000000000000000\n  dup2\n  mstore\n  pop\n    /* \"provableAPI_0.5.sol\":14457:14480  provable_setNetworkName */\n  shl(0x20, tag_33)\n    /* \"provableAPI_0.5.sol\":14457:14495  provable_setNetworkName(\"eth_rinkeby\") */\n  0x20\n  shr\n  jump\t// in\ntag_42:\n    /* \"provableAPI_0.5.sol\":14517:14521  true */\n  0x01\n    /* \"provableAPI_0.5.sol\":14510:14521  return true */\n  swap1\n  pop\n  jump(tag_29)\n    /* \"provableAPI_0.5.sol\":14275:14533  if (getCodeSize(0x146500cfd35B22E4A392Fe0aDc06De1a1368Ed48) > 0) { //rinkeby testnet\r... */\ntag_41:\n    /* \"provableAPI_0.5.sol\":14605:14606  0 */\n  0x00\n    /* \"provableAPI_0.5.sol\":14547:14602  getCodeSize(0xa2998EFD205FB9D4B4963aFb70778D6354ad3A41) */\n  tag_43\n    /* \"provableAPI_0.5.sol\":14559:14601  0xa2998EFD205FB9D4B4963aFb70778D6354ad3A41 */\n  0xa2998efd205fb9d4b4963afb70778d6354ad3a41\n    /* \"provableAPI_0.5.sol\":14547:14558  getCodeSize */\n  shl(0x20, tag_11)\n    /* \"provableAPI_0.5.sol\":14547:14602  getCodeSize(0xa2998EFD205FB9D4B4963aFb70778D6354ad3A41) */\n  0x20\n  shr\n  jump\t// in\ntag_43:\n    /* \"provableAPI_0.5.sol\":14547:14606  getCodeSize(0xa2998EFD205FB9D4B4963aFb70778D6354ad3A41) > 0 */\n  gt\n    /* \"provableAPI_0.5.sol\":14543:14799  if (getCodeSize(0xa2998EFD205FB9D4B4963aFb70778D6354ad3A41) > 0) { //goerli testnet\r... */\n  iszero\n  tag_44\n  jumpi\n    /* \"provableAPI_0.5.sol\":14666:14708  0xa2998EFD205FB9D4B4963aFb70778D6354ad3A41 */\n  0xa2998efd205fb9d4b4963afb70778d6354ad3a41\n    /* \"provableAPI_0.5.sol\":14640:14643  OAR */\n  0x01\n  0x00\n    /* \"provableAPI_0.5.sol\":14640:14709  OAR = OracleAddrResolverI(0xa2998EFD205FB9D4B4963aFb70778D6354ad3A41) */\n  0x0100\n  exp\n  dup2\n  sload\n  dup2\n  0xffffffffffffffffffffffffffffffffffffffff\n  mul\n  not\n  and\n  swap1\n  dup4\n  0xffffffffffffffffffffffffffffffffffffffff\n  and\n  mul\n  or\n  swap1\n  sstore\n  pop\n    /* \"provableAPI_0.5.sol\":14724:14761  provable_setNetworkName(\"eth_goerli\") */\n  tag_45\n  mload(0x40)\n  dup1\n  0x40\n  add\n  0x40\n  mstore\n  dup1\n  0x0a\n  dup2\n  mstore\n  0x20\n  add\n  0x6574685f676f65726c6900000000000000000000000000000000000000000000\n  dup2\n  mstore\n  pop\n    /* \"provableAPI_0.5.sol\":14724:14747  provable_setNetworkName */\n  shl(0x20, tag_33)\n    /* \"provableAPI_0.5.sol\":14724:14761  provable_setNetworkName(\"eth_goerli\") */\n  0x20\n  shr\n  jump\t// in\ntag_45:\n    /* \"provableAPI_0.5.sol\":14783:14787  true */\n  0x01\n    /* \"provableAPI_0.5.sol\":14776:14787  return true */\n  swap1\n  pop\n  jump(tag_29)\n    /* \"provableAPI_0.5.sol\":14543:14799  if (getCodeSize(0xa2998EFD205FB9D4B4963aFb70778D6354ad3A41) > 0) { //goerli testnet\r... */\ntag_44:\n    /* \"provableAPI_0.5.sol\":14871:14872  0 */\n  0x00\n    /* \"provableAPI_0.5.sol\":14813:14868  getCodeSize(0x6f485C8BF6fc43eA212E93BBF8ce046C7f1cb475) */\n  tag_46\n    /* \"provableAPI_0.5.sol\":14825:14867  0x6f485C8BF6fc43eA212E93BBF8ce046C7f1cb475 */\n  0x6f485c8bf6fc43ea212e93bbf8ce046c7f1cb475\n    /* \"provableAPI_0.5.sol\":14813:14824  getCodeSize */\n  shl(0x20, tag_11)\n    /* \"provableAPI_0.5.sol\":14813:14868  getCodeSize(0x6f485C8BF6fc43eA212E93BBF8ce046C7f1cb475) */\n  0x20\n  shr\n  jump\t// in\ntag_46:\n    /* \"provableAPI_0.5.sol\":14813:14872  getCodeSize(0x6f485C8BF6fc43eA212E93BBF8ce046C7f1cb475) > 0 */\n  gt\n    /* \"provableAPI_0.5.sol\":14809:15014  if (getCodeSize(0x6f485C8BF6fc43eA212E93BBF8ce046C7f1cb475) > 0) { //ethereum-bridge\r... */\n  iszero\n  tag_47\n  jumpi\n    /* \"provableAPI_0.5.sol\":14933:14975  0x6f485C8BF6fc43eA212E93BBF8ce046C7f1cb475 */\n  0x6f485c8bf6fc43ea212e93bbf8ce046c7f1cb475\n    /* \"provableAPI_0.5.sol\":14907:14910  OAR */\n  0x01\n  0x00\n    /* \"provableAPI_0.5.sol\":14907:14976  OAR = OracleAddrResolverI(0x6f485C8BF6fc43eA212E93BBF8ce046C7f1cb475) */\n  0x0100\n  exp\n  dup2\n  sload\n  dup2\n  0xffffffffffffffffffffffffffffffffffffffff\n  mul\n  not\n  and\n  swap1\n  dup4\n  0xffffffffffffffffffffffffffffffffffffffff\n  and\n  mul\n  or\n  swap1\n  sstore\n  pop\n    /* \"provableAPI_0.5.sol\":14998:15002  true */\n  0x01\n    /* \"provableAPI_0.5.sol\":14991:15002  return true */\n  swap1\n  pop\n  jump(tag_29)\n    /* \"provableAPI_0.5.sol\":14809:15014  if (getCodeSize(0x6f485C8BF6fc43eA212E93BBF8ce046C7f1cb475) > 0) { //ethereum-bridge\r... */\ntag_47:\n    /* \"provableAPI_0.5.sol\":15086:15087  0 */\n  0x00\n    /* \"provableAPI_0.5.sol\":15028:15083  getCodeSize(0x20e12A1F859B3FeaE5Fb2A0A32C18F5a65555bBF) */\n  tag_48\n    /* \"provableAPI_0.5.sol\":15040:15082  0x20e12A1F859B3FeaE5Fb2A0A32C18F5a65555bBF */\n  0x20e12a1f859b3feae5fb2a0a32c18f5a65555bbf\n    /* \"provableAPI_0.5.sol\":15028:15039  getCodeSize */\n  shl(0x20, tag_11)\n    /* \"provableAPI_0.5.sol\":15028:15083  getCodeSize(0x20e12A1F859B3FeaE5Fb2A0A32C18F5a65555bBF) */\n  0x20\n  shr\n  jump\t// in\ntag_48:\n    /* \"provableAPI_0.5.sol\":15028:15087  getCodeSize(0x20e12A1F859B3FeaE5Fb2A0A32C18F5a65555bBF) > 0 */\n  gt\n    /* \"provableAPI_0.5.sol\":15024:15228  if (getCodeSize(0x20e12A1F859B3FeaE5Fb2A0A32C18F5a65555bBF) > 0) { //ether.camp ide\r... */\n  iszero\n  tag_49\n  jumpi\n    /* \"provableAPI_0.5.sol\":15147:15189  0x20e12A1F859B3FeaE5Fb2A0A32C18F5a65555bBF */\n  0x20e12a1f859b3feae5fb2a0a32c18f5a65555bbf\n    /* \"provableAPI_0.5.sol\":15121:15124  OAR */\n  0x01\n  0x00\n    /* \"provableAPI_0.5.sol\":15121:15190  OAR = OracleAddrResolverI(0x20e12A1F859B3FeaE5Fb2A0A32C18F5a65555bBF) */\n  0x0100\n  exp\n  dup2\n  sload\n  dup2\n  0xffffffffffffffffffffffffffffffffffffffff\n  mul\n  not\n  and\n  swap1\n  dup4\n  0xffffffffffffffffffffffffffffffffffffffff\n  and\n  mul\n  or\n  swap1\n  sstore\n  pop\n    /* \"provableAPI_0.5.sol\":15212:15216  true */\n  0x01\n    /* \"provableAPI_0.5.sol\":15205:15216  return true */\n  swap1\n  pop\n  jump(tag_29)\n    /* \"provableAPI_0.5.sol\":15024:15228  if (getCodeSize(0x20e12A1F859B3FeaE5Fb2A0A32C18F5a65555bBF) > 0) { //ether.camp ide\r... */\ntag_49:\n    /* \"provableAPI_0.5.sol\":15300:15301  0 */\n  0x00\n    /* \"provableAPI_0.5.sol\":15242:15297  getCodeSize(0x51efaF4c8B3C9AfBD5aB9F4bbC82784Ab6ef8fAA) */\n  tag_50\n    /* \"provableAPI_0.5.sol\":15254:15296  0x51efaF4c8B3C9AfBD5aB9F4bbC82784Ab6ef8fAA */\n  0x51efaf4c8b3c9afbd5ab9f4bbc82784ab6ef8faa\n    /* \"provableAPI_0.5.sol\":15242:15253  getCodeSize */\n  shl(0x20, tag_11)\n    /* \"provableAPI_0.5.sol\":15242:15297  getCodeSize(0x51efaF4c8B3C9AfBD5aB9F4bbC82784Ab6ef8fAA) */\n  0x20\n  shr\n  jump\t// in\ntag_50:\n    /* \"provableAPI_0.5.sol\":15242:15301  getCodeSize(0x51efaF4c8B3C9AfBD5aB9F4bbC82784Ab6ef8fAA) > 0 */\n  gt\n    /* \"provableAPI_0.5.sol\":15238:15444  if (getCodeSize(0x51efaF4c8B3C9AfBD5aB9F4bbC82784Ab6ef8fAA) > 0) { //browser-solidity\r... */\n  iszero\n  tag_51\n  jumpi\n    /* \"provableAPI_0.5.sol\":15363:15405  0x51efaF4c8B3C9AfBD5aB9F4bbC82784Ab6ef8fAA */\n  0x51efaf4c8b3c9afbd5ab9f4bbc82784ab6ef8faa\n    /* \"provableAPI_0.5.sol\":15337:15340  OAR */\n  0x01\n  0x00\n    /* \"provableAPI_0.5.sol\":15337:15406  OAR = OracleAddrResolverI(0x51efaF4c8B3C9AfBD5aB9F4bbC82784Ab6ef8fAA) */\n  0x0100\n  exp\n  dup2\n  sload\n  dup2\n  0xffffffffffffffffffffffffffffffffffffffff\n  mul\n  not\n  and\n  swap1\n  dup4\n  0xffffffffffffffffffffffffffffffffffffffff\n  and\n  mul\n  or\n  swap1\n  sstore\n  pop\n    /* \"provableAPI_0.5.sol\":15428:15432  true */\n  0x01\n    /* \"provableAPI_0.5.sol\":15421:15432  return true */\n  swap1\n  pop\n  jump(tag_29)\n    /* \"provableAPI_0.5.sol\":15238:15444  if (getCodeSize(0x51efaF4c8B3C9AfBD5aB9F4bbC82784Ab6ef8fAA) > 0) { //browser-solidity\r... */\ntag_51:\n    /* \"provableAPI_0.5.sol\":15461:15466  false */\n  0x00\n    /* \"provableAPI_0.5.sol\":15454:15466  return false */\n  swap1\n  pop\n    /* \"provableAPI_0.5.sol\":13404:15474  function provable_setNetwork() internal returns (bool _networkSet) {\r... */\ntag_29:\n  swap1\n  jump\t// out\n    /* \"provableAPI_0.5.sol\":13128:13255  function provable_setNetworkName(string memory _network_name) internal {\r... */\ntag_33:\n    /* \"provableAPI_0.5.sol\":13234:13247  _network_name */\n  dup1\n    /* \"provableAPI_0.5.sol\":13210:13231  provable_network_name */\n  0x02\n    /* \"provableAPI_0.5.sol\":13210:13247  provable_network_name = _network_name */\n  swap1\n  dup1\n  mload\n  swap1\n  0x20\n  add\n  swap1\n  tag_53\n  swap3\n  swap2\n  swap1\n  tag_54\n  jump\t// in\ntag_53:\n  pop\n    /* \"provableAPI_0.5.sol\":13128:13255  function provable_setNetworkName(string memory _network_name) internal {\r... */\n  pop\n  jump\t// out\n    /* \"TopicAssigner.sol\":163:4872  contract TopicAssigner is usingProvable {\r... */\ntag_54:\n  dup3\n  dup1\n  sload\n  0x01\n  dup2\n  0x01\n  and\n  iszero\n  0x0100\n  mul\n  sub\n  and\n  0x02\n  swap1\n  div\n  swap1\n  0x00\n  mstore\n  keccak256(0x00, 0x20)\n  swap1\n  0x1f\n  add\n  0x20\n  swap1\n  div\n  dup2\n  add\n  swap3\n  dup3\n  0x1f\n  lt\n  tag_56\n  jumpi\n  dup1\n  mload\n  not(0xff)\n  and\n  dup4\n  dup1\n  add\n  or\n  dup6\n  sstore\n  jump(tag_55)\ntag_56:\n  dup3\n  dup1\n  add\n  0x01\n  add\n  dup6\n  sstore\n  dup3\n  iszero\n  tag_55\n  jumpi\n  swap2\n  dup3\n  add\ntag_57:\n  dup3\n  dup2\n  gt\n  iszero\n  tag_58\n  jumpi\n  dup3\n  mload\n  dup3\n  sstore\n  swap2\n  0x20\n  add\n  swap2\n  swap1\n  0x01\n  add\n  swap1\n  jump(tag_57)\ntag_58:\ntag_55:\n  pop\n  swap1\n  pop\n  tag_59\n  swap2\n  swap1\n  tag_60\n  jump\t// in\ntag_59:\n  pop\n  swap1\n  jump\t// out\ntag_60:\n  tag_61\n  swap2\n  swap1\ntag_62:\n  dup1\n  dup3\n  gt\n  iszero\n  tag_63\n  jumpi\n  0x00\n  dup2\n  0x00\n  swap1\n  sstore\n  pop\n  0x01\n  add\n  jump(tag_62)\ntag_63:\n  pop\n  swap1\n  jump\ntag_61:\n  swap1\n  jump\t// out\ntag_7:\n  dataSize(sub_0)\n  dup1\n  dataOffset(sub_0)\n  0x00\n  codecopy\n  0x00\n  return\nstop\n\nsub_0: assembly {\n        /* \"TopicAssigner.sol\":163:4872  contract TopicAssigner is usingProvable {\r... */\n      mstore(0x40, 0x80)\n      jumpi(tag_1, lt(calldatasize, 0x04))\n      shr(0xe0, calldataload(0x00))\n      dup1\n      0x902701b7\n      gt\n      tag_12\n      jumpi\n      dup1\n      0x902701b7\n      eq\n      tag_7\n      jumpi\n      dup1\n      0xccb40d8f\n      eq\n      tag_8\n      jumpi\n      dup1\n      0xcf592dea\n      eq\n      tag_9\n      jumpi\n      dup1\n      0xec634e27\n      eq\n      tag_10\n      jumpi\n      dup1\n      0xf0f22eb4\n      eq\n      tag_11\n      jumpi\n      jump(tag_1)\n    tag_12:\n      dup1\n      0x27dc297e\n      eq\n      tag_2\n      jumpi\n      dup1\n      0x38bbfa50\n      eq\n      tag_3\n      jumpi\n      dup1\n      0x3d2e83f0\n      eq\n      tag_4\n      jumpi\n      dup1\n      0x811f287e\n      eq\n      tag_5\n      jumpi\n      dup1\n      0x8da5cb5b\n      eq\n      tag_6\n      jumpi\n    tag_1:\n      0x00\n      dup1\n      revert\n        /* \"provableAPI_0.5.sol\":15718:15842  function __callback(bytes32 _myid, string memory _result) public {\r... */\n    tag_2:\n      callvalue\n        /* \"--CODEGEN--\":8:17   */\n      dup1\n        /* \"--CODEGEN--\":5:7   */\n      iszero\n      tag_13\n      jumpi\n        /* \"--CODEGEN--\":30:31   */\n      0x00\n        /* \"--CODEGEN--\":27:28   */\n      dup1\n        /* \"--CODEGEN--\":20:32   */\n      revert\n        /* \"--CODEGEN--\":5:7   */\n    tag_13:\n        /* \"provableAPI_0.5.sol\":15718:15842  function __callback(bytes32 _myid, string memory _result) public {\r... */\n      pop\n      tag_14\n      0x04\n      dup1\n      calldatasize\n      sub\n        /* \"--CODEGEN--\":13:15   */\n      0x40\n        /* \"--CODEGEN--\":8:11   */\n      dup2\n        /* \"--CODEGEN--\":5:16   */\n      lt\n        /* \"--CODEGEN--\":2:4   */\n      iszero\n      tag_15\n      jumpi\n        /* \"--CODEGEN--\":29:30   */\n      0x00\n        /* \"--CODEGEN--\":26:27   */\n      dup1\n        /* \"--CODEGEN--\":19:31   */\n      revert\n        /* \"--CODEGEN--\":2:4   */\n    tag_15:\n        /* \"provableAPI_0.5.sol\":15718:15842  function __callback(bytes32 _myid, string memory _result) public {\r... */\n      dup2\n      add\n      swap1\n      dup1\n      dup1\n      calldataload\n      swap1\n      0x20\n      add\n      swap1\n      swap3\n      swap2\n      swap1\n      dup1\n      calldataload\n      swap1\n      0x20\n      add\n      swap1\n        /* \"--CODEGEN--\":21:32   */\n      0x0100000000\n        /* \"--CODEGEN--\":8:19   */\n      dup2\n        /* \"--CODEGEN--\":5:33   */\n      gt\n        /* \"--CODEGEN--\":2:4   */\n      iszero\n      tag_16\n      jumpi\n        /* \"--CODEGEN--\":46:47   */\n      0x00\n        /* \"--CODEGEN--\":43:44   */\n      dup1\n        /* \"--CODEGEN--\":36:48   */\n      revert\n        /* \"--CODEGEN--\":2:4   */\n    tag_16:\n        /* \"provableAPI_0.5.sol\":15718:15842  function __callback(bytes32 _myid, string memory _result) public {\r... */\n      dup3\n      add\n        /* \"--CODEGEN--\":35:44   */\n      dup4\n        /* \"--CODEGEN--\":28:32   */\n      0x20\n        /* \"--CODEGEN--\":12:26   */\n      dup3\n        /* \"--CODEGEN--\":8:33   */\n      add\n        /* \"--CODEGEN--\":5:45   */\n      gt\n        /* \"--CODEGEN--\":2:4   */\n      iszero\n      tag_17\n      jumpi\n        /* \"--CODEGEN--\":58:59   */\n      0x00\n        /* \"--CODEGEN--\":55:56   */\n      dup1\n        /* \"--CODEGEN--\":48:60   */\n      revert\n        /* \"--CODEGEN--\":2:4   */\n    tag_17:\n        /* \"provableAPI_0.5.sol\":15718:15842  function __callback(bytes32 _myid, string memory _result) public {\r... */\n      dup1\n      calldataload\n      swap1\n      0x20\n      add\n      swap2\n        /* \"--CODEGEN--\":100:109   */\n      dup5\n        /* \"--CODEGEN--\":95:96   */\n      0x01\n        /* \"--CODEGEN--\":81:93   */\n      dup4\n        /* \"--CODEGEN--\":77:97   */\n      mul\n        /* \"--CODEGEN--\":67:75   */\n      dup5\n        /* \"--CODEGEN--\":63:98   */\n      add\n        /* \"--CODEGEN--\":60:110   */\n      gt\n        /* \"--CODEGEN--\":39:50   */\n      0x0100000000\n        /* \"--CODEGEN--\":25:37   */\n      dup4\n        /* \"--CODEGEN--\":22:51   */\n      gt\n        /* \"--CODEGEN--\":11:118   */\n      or\n        /* \"--CODEGEN--\":8:10   */\n      iszero\n      tag_18\n      jumpi\n        /* \"--CODEGEN--\":131:132   */\n      0x00\n        /* \"--CODEGEN--\":128:129   */\n      dup1\n        /* \"--CODEGEN--\":121:133   */\n      revert\n        /* \"--CODEGEN--\":8:10   */\n    tag_18:\n        /* \"provableAPI_0.5.sol\":15718:15842  function __callback(bytes32 _myid, string memory _result) public {\r... */\n      swap2\n      swap1\n      dup1\n      dup1\n      0x1f\n      add\n      0x20\n      dup1\n      swap2\n      div\n      mul\n      0x20\n      add\n      mload(0x40)\n      swap1\n      dup2\n      add\n      0x40\n      mstore\n      dup1\n      swap4\n      swap3\n      swap2\n      swap1\n      dup2\n      dup2\n      mstore\n      0x20\n      add\n      dup4\n      dup4\n        /* \"--CODEGEN--\":30:33   */\n      dup1\n        /* \"--CODEGEN--\":22:28   */\n      dup3\n        /* \"--CODEGEN--\":14:20   */\n      dup5\n        /* \"--CODEGEN--\":1:34   */\n      calldatacopy\n        /* \"--CODEGEN--\":99:100   */\n      0x00\n        /* \"--CODEGEN--\":93:96   */\n      dup2\n        /* \"--CODEGEN--\":85:91   */\n      dup5\n        /* \"--CODEGEN--\":81:97   */\n      add\n        /* \"--CODEGEN--\":74:101   */\n      mstore\n        /* \"--CODEGEN--\":137:141   */\n      0x1f\n        /* \"--CODEGEN--\":133:142   */\n      not\n        /* \"--CODEGEN--\":126:130   */\n      0x1f\n        /* \"--CODEGEN--\":121:124   */\n      dup3\n        /* \"--CODEGEN--\":117:131   */\n      add\n        /* \"--CODEGEN--\":113:143   */\n      and\n        /* \"--CODEGEN--\":106:143   */\n      swap1\n      pop\n        /* \"--CODEGEN--\":169:172   */\n      dup1\n        /* \"--CODEGEN--\":161:167   */\n      dup4\n        /* \"--CODEGEN--\":157:173   */\n      add\n        /* \"--CODEGEN--\":147:173   */\n      swap3\n      pop\n        /* \"provableAPI_0.5.sol\":15718:15842  function __callback(bytes32 _myid, string memory _result) public {\r... */\n      pop\n      pop\n      pop\n      pop\n      pop\n      pop\n      swap2\n      swap3\n      swap2\n      swap3\n      swap1\n      pop\n      pop\n      pop\n      tag_19\n      jump\t// in\n    tag_14:\n      stop\n        /* \"TopicAssigner.sol\":3452:4869  function __callback(bytes32 _queryId, string memory _result,bytes memory _proof) public {\r... */\n    tag_3:\n      callvalue\n        /* \"--CODEGEN--\":8:17   */\n      dup1\n        /* \"--CODEGEN--\":5:7   */\n      iszero\n      tag_20\n      jumpi\n        /* \"--CODEGEN--\":30:31   */\n      0x00\n        /* \"--CODEGEN--\":27:28   */\n      dup1\n        /* \"--CODEGEN--\":20:32   */\n      revert\n        /* \"--CODEGEN--\":5:7   */\n    tag_20:\n        /* \"TopicAssigner.sol\":3452:4869  function __callback(bytes32 _queryId, string memory _result,bytes memory _proof) public {\r... */\n      pop\n      tag_21\n      0x04\n      dup1\n      calldatasize\n      sub\n        /* \"--CODEGEN--\":13:15   */\n      0x60\n        /* \"--CODEGEN--\":8:11   */\n      dup2\n        /* \"--CODEGEN--\":5:16   */\n      lt\n        /* \"--CODEGEN--\":2:4   */\n      iszero\n      tag_22\n      jumpi\n        /* \"--CODEGEN--\":29:30   */\n      0x00\n        /* \"--CODEGEN--\":26:27   */\n      dup1\n        /* \"--CODEGEN--\":19:31   */\n      revert\n        /* \"--CODEGEN--\":2:4   */\n    tag_22:\n        /* \"TopicAssigner.sol\":3452:4869  function __callback(bytes32 _queryId, string memory _result,bytes memory _proof) public {\r... */\n      dup2\n      add\n      swap1\n      dup1\n      dup1\n      calldataload\n      swap1\n      0x20\n      add\n      swap1\n      swap3\n      swap2\n      swap1\n      dup1\n      calldataload\n      swap1\n      0x20\n      add\n      swap1\n        /* \"--CODEGEN--\":21:32   */\n      0x0100000000\n        /* \"--CODEGEN--\":8:19   */\n      dup2\n        /* \"--CODEGEN--\":5:33   */\n      gt\n        /* \"--CODEGEN--\":2:4   */\n      iszero\n      tag_23\n      jumpi\n        /* \"--CODEGEN--\":46:47   */\n      0x00\n        /* \"--CODEGEN--\":43:44   */\n      dup1\n        /* \"--CODEGEN--\":36:48   */\n      revert\n        /* \"--CODEGEN--\":2:4   */\n    tag_23:\n        /* \"TopicAssigner.sol\":3452:4869  function __callback(bytes32 _queryId, string memory _result,bytes memory _proof) public {\r... */\n      dup3\n      add\n        /* \"--CODEGEN--\":35:44   */\n      dup4\n        /* \"--CODEGEN--\":28:32   */\n      0x20\n        /* \"--CODEGEN--\":12:26   */\n      dup3\n        /* \"--CODEGEN--\":8:33   */\n      add\n        /* \"--CODEGEN--\":5:45   */\n      gt\n        /* \"--CODEGEN--\":2:4   */\n      iszero\n      tag_24\n      jumpi\n        /* \"--CODEGEN--\":58:59   */\n      0x00\n        /* \"--CODEGEN--\":55:56   */\n      dup1\n        /* \"--CODEGEN--\":48:60   */\n      revert\n        /* \"--CODEGEN--\":2:4   */\n    tag_24:\n        /* \"TopicAssigner.sol\":3452:4869  function __callback(bytes32 _queryId, string memory _result,bytes memory _proof) public {\r... */\n      dup1\n      calldataload\n      swap1\n      0x20\n      add\n      swap2\n        /* \"--CODEGEN--\":100:109   */\n      dup5\n        /* \"--CODEGEN--\":95:96   */\n      0x01\n        /* \"--CODEGEN--\":81:93   */\n      dup4\n        /* \"--CODEGEN--\":77:97   */\n      mul\n        /* \"--CODEGEN--\":67:75   */\n      dup5\n        /* \"--CODEGEN--\":63:98   */\n      add\n        /* \"--CODEGEN--\":60:110   */\n      gt\n        /* \"--CODEGEN--\":39:50   */\n      0x0100000000\n        /* \"--CODEGEN--\":25:37   */\n      dup4\n        /* \"--CODEGEN--\":22:51   */\n      gt\n        /* \"--CODEGEN--\":11:118   */\n      or\n        /* \"--CODEGEN--\":8:10   */\n      iszero\n      tag_25\n      jumpi\n        /* \"--CODEGEN--\":131:132   */\n      0x00\n        /* \"--CODEGEN--\":128:129   */\n      dup1\n        /* \"--CODEGEN--\":121:133   */\n      revert\n        /* \"--CODEGEN--\":8:10   */\n    tag_25:\n        /* \"TopicAssigner.sol\":3452:4869  function __callback(bytes32 _queryId, string memory _result,bytes memory _proof) public {\r... */\n      swap2\n      swap1\n      dup1\n      dup1\n      0x1f\n      add\n      0x20\n      dup1\n      swap2\n      div\n      mul\n      0x20\n      add\n      mload(0x40)\n      swap1\n      dup2\n      add\n      0x40\n      mstore\n      dup1\n      swap4\n      swap3\n      swap2\n      swap1\n      dup2\n      dup2\n      mstore\n      0x20\n      add\n      dup4\n      dup4\n        /* \"--CODEGEN--\":30:33   */\n      dup1\n        /* \"--CODEGEN--\":22:28   */\n      dup3\n        /* \"--CODEGEN--\":14:20   */\n      dup5\n        /* \"--CODEGEN--\":1:34   */\n      calldatacopy\n        /* \"--CODEGEN--\":99:100   */\n      0x00\n        /* \"--CODEGEN--\":93:96   */\n      dup2\n        /* \"--CODEGEN--\":85:91   */\n      dup5\n        /* \"--CODEGEN--\":81:97   */\n      add\n        /* \"--CODEGEN--\":74:101   */\n      mstore\n        /* \"--CODEGEN--\":137:141   */\n      0x1f\n        /* \"--CODEGEN--\":133:142   */\n      not\n        /* \"--CODEGEN--\":126:130   */\n      0x1f\n        /* \"--CODEGEN--\":121:124   */\n      dup3\n        /* \"--CODEGEN--\":117:131   */\n      add\n        /* \"--CODEGEN--\":113:143   */\n      and\n        /* \"--CODEGEN--\":106:143   */\n      swap1\n      pop\n        /* \"--CODEGEN--\":169:172   */\n      dup1\n        /* \"--CODEGEN--\":161:167   */\n      dup4\n        /* \"--CODEGEN--\":157:173   */\n      add\n        /* \"--CODEGEN--\":147:173   */\n      swap3\n      pop\n        /* \"TopicAssigner.sol\":3452:4869  function __callback(bytes32 _queryId, string memory _result,bytes memory _proof) public {\r... */\n      pop\n      pop\n      pop\n      pop\n      pop\n      pop\n      swap2\n      swap3\n      swap2\n      swap3\n      swap1\n      dup1\n      calldataload\n      swap1\n      0x20\n      add\n      swap1\n        /* \"--CODEGEN--\":21:32   */\n      0x0100000000\n        /* \"--CODEGEN--\":8:19   */\n      dup2\n        /* \"--CODEGEN--\":5:33   */\n      gt\n        /* \"--CODEGEN--\":2:4   */\n      iszero\n      tag_26\n      jumpi\n        /* \"--CODEGEN--\":46:47   */\n      0x00\n        /* \"--CODEGEN--\":43:44   */\n      dup1\n        /* \"--CODEGEN--\":36:48   */\n      revert\n        /* \"--CODEGEN--\":2:4   */\n    tag_26:\n        /* \"TopicAssigner.sol\":3452:4869  function __callback(bytes32 _queryId, string memory _result,bytes memory _proof) public {\r... */\n      dup3\n      add\n        /* \"--CODEGEN--\":35:44   */\n      dup4\n        /* \"--CODEGEN--\":28:32   */\n      0x20\n        /* \"--CODEGEN--\":12:26   */\n      dup3\n        /* \"--CODEGEN--\":8:33   */\n      add\n        /* \"--CODEGEN--\":5:45   */\n      gt\n        /* \"--CODEGEN--\":2:4   */\n      iszero\n      tag_27\n      jumpi\n        /* \"--CODEGEN--\":58:59   */\n      0x00\n        /* \"--CODEGEN--\":55:56   */\n      dup1\n        /* \"--CODEGEN--\":48:60   */\n      revert\n        /* \"--CODEGEN--\":2:4   */\n    tag_27:\n        /* \"TopicAssigner.sol\":3452:4869  function __callback(bytes32 _queryId, string memory _result,bytes memory _proof) public {\r... */\n      dup1\n      calldataload\n      swap1\n      0x20\n      add\n      swap2\n        /* \"--CODEGEN--\":100:109   */\n      dup5\n        /* \"--CODEGEN--\":95:96   */\n      0x01\n        /* \"--CODEGEN--\":81:93   */\n      dup4\n        /* \"--CODEGEN--\":77:97   */\n      mul\n        /* \"--CODEGEN--\":67:75   */\n      dup5\n        /* \"--CODEGEN--\":63:98   */\n      add\n        /* \"--CODEGEN--\":60:110   */\n      gt\n        /* \"--CODEGEN--\":39:50   */\n      0x0100000000\n        /* \"--CODEGEN--\":25:37   */\n      dup4\n        /* \"--CODEGEN--\":22:51   */\n      gt\n        /* \"--CODEGEN--\":11:118   */\n      or\n        /* \"--CODEGEN--\":8:10   */\n      iszero\n      tag_28\n      jumpi\n        /* \"--CODEGEN--\":131:132   */\n      0x00\n        /* \"--CODEGEN--\":128:129   */\n      dup1\n        /* \"--CODEGEN--\":121:133   */\n      revert\n        /* \"--CODEGEN--\":8:10   */\n    tag_28:\n        /* \"TopicAssigner.sol\":3452:4869  function __callback(bytes32 _queryId, string memory _result,bytes memory _proof) public {\r... */\n      swap2\n      swap1\n      dup1\n      dup1\n      0x1f\n      add\n      0x20\n      dup1\n      swap2\n      div\n      mul\n      0x20\n      add\n      mload(0x40)\n      swap1\n      dup2\n      add\n      0x40\n      mstore\n      dup1\n      swap4\n      swap3\n      swap2\n      swap1\n      dup2\n      dup2\n      mstore\n      0x20\n      add\n      dup4\n      dup4\n        /* \"--CODEGEN--\":30:33   */\n      dup1\n        /* \"--CODEGEN--\":22:28   */\n      dup3\n        /* \"--CODEGEN--\":14:20   */\n      dup5\n        /* \"--CODEGEN--\":1:34   */\n      calldatacopy\n        /* \"--CODEGEN--\":99:100   */\n      0x00\n        /* \"--CODEGEN--\":93:96   */\n      dup2\n        /* \"--CODEGEN--\":85:91   */\n      dup5\n        /* \"--CODEGEN--\":81:97   */\n      add\n        /* \"--CODEGEN--\":74:101   */\n      mstore\n        /* \"--CODEGEN--\":137:141   */\n      0x1f\n        /* \"--CODEGEN--\":133:142   */\n      not\n        /* \"--CODEGEN--\":126:130   */\n      0x1f\n        /* \"--CODEGEN--\":121:124   */\n      dup3\n        /* \"--CODEGEN--\":117:131   */\n      add\n        /* \"--CODEGEN--\":113:143   */\n      and\n        /* \"--CODEGEN--\":106:143   */\n      swap1\n      pop\n        /* \"--CODEGEN--\":169:172   */\n      dup1\n        /* \"--CODEGEN--\":161:167   */\n      dup4\n        /* \"--CODEGEN--\":157:173   */\n      add\n        /* \"--CODEGEN--\":147:173   */\n      swap3\n      pop\n        /* \"TopicAssigner.sol\":3452:4869  function __callback(bytes32 _queryId, string memory _result,bytes memory _proof) public {\r... */\n      pop\n      pop\n      pop\n      pop\n      pop\n      pop\n      swap2\n      swap3\n      swap2\n      swap3\n      swap1\n      pop\n      pop\n      pop\n      tag_29\n      jump\t// in\n    tag_21:\n      stop\n        /* \"TopicAssigner.sol\":421:474  mapping(bytes32 => address) public queryToUserAddress */\n    tag_4:\n      callvalue\n        /* \"--CODEGEN--\":8:17   */\n      dup1\n        /* \"--CODEGEN--\":5:7   */\n      iszero\n      tag_30\n      jumpi\n        /* \"--CODEGEN--\":30:31   */\n      0x00\n        /* \"--CODEGEN--\":27:28   */\n      dup1\n        /* \"--CODEGEN--\":20:32   */\n      revert\n        /* \"--CODEGEN--\":5:7   */\n    tag_30:\n        /* \"TopicAssigner.sol\":421:474  mapping(bytes32 => address) public queryToUserAddress */\n      pop\n      tag_31\n      0x04\n      dup1\n      calldatasize\n      sub\n        /* \"--CODEGEN--\":13:15   */\n      0x20\n        /* \"--CODEGEN--\":8:11   */\n      dup2\n        /* \"--CODEGEN--\":5:16   */\n      lt\n        /* \"--CODEGEN--\":2:4   */\n      iszero\n      tag_32\n      jumpi\n        /* \"--CODEGEN--\":29:30   */\n      0x00\n        /* \"--CODEGEN--\":26:27   */\n      dup1\n        /* \"--CODEGEN--\":19:31   */\n      revert\n        /* \"--CODEGEN--\":2:4   */\n    tag_32:\n        /* \"TopicAssigner.sol\":421:474  mapping(bytes32 => address) public queryToUserAddress */\n      dup2\n      add\n      swap1\n      dup1\n      dup1\n      calldataload\n      swap1\n      0x20\n      add\n      swap1\n      swap3\n      swap2\n      swap1\n      pop\n      pop\n      pop\n      tag_33\n      jump\t// in\n    tag_31:\n      mload(0x40)\n      dup1\n      dup3\n      0xffffffffffffffffffffffffffffffffffffffff\n      and\n      0xffffffffffffffffffffffffffffffffffffffff\n      and\n      dup2\n      mstore\n      0x20\n      add\n      swap2\n      pop\n      pop\n      mload(0x40)\n      dup1\n      swap2\n      sub\n      swap1\n      return\n        /* \"TopicAssigner.sol\":1076:2087  function getRandomTopics(address sender) public view returns (address[] memory) {\r... */\n    tag_5:\n      callvalue\n        /* \"--CODEGEN--\":8:17   */\n      dup1\n        /* \"--CODEGEN--\":5:7   */\n      iszero\n      tag_34\n      jumpi\n        /* \"--CODEGEN--\":30:31   */\n      0x00\n        /* \"--CODEGEN--\":27:28   */\n      dup1\n        /* \"--CODEGEN--\":20:32   */\n      revert\n        /* \"--CODEGEN--\":5:7   */\n    tag_34:\n        /* \"TopicAssigner.sol\":1076:2087  function getRandomTopics(address sender) public view returns (address[] memory) {\r... */\n      pop\n      tag_35\n      0x04\n      dup1\n      calldatasize\n      sub\n        /* \"--CODEGEN--\":13:15   */\n      0x20\n        /* \"--CODEGEN--\":8:11   */\n      dup2\n        /* \"--CODEGEN--\":5:16   */\n      lt\n        /* \"--CODEGEN--\":2:4   */\n      iszero\n      tag_36\n      jumpi\n        /* \"--CODEGEN--\":29:30   */\n      0x00\n        /* \"--CODEGEN--\":26:27   */\n      dup1\n        /* \"--CODEGEN--\":19:31   */\n      revert\n        /* \"--CODEGEN--\":2:4   */\n    tag_36:\n        /* \"TopicAssigner.sol\":1076:2087  function getRandomTopics(address sender) public view returns (address[] memory) {\r... */\n      dup2\n      add\n      swap1\n      dup1\n      dup1\n      calldataload\n      0xffffffffffffffffffffffffffffffffffffffff\n      and\n      swap1\n      0x20\n      add\n      swap1\n      swap3\n      swap2\n      swap1\n      pop\n      pop\n      pop\n      tag_37\n      jump\t// in\n    tag_35:\n      mload(0x40)\n      dup1\n      dup1\n      0x20\n      add\n      dup3\n      dup2\n      sub\n      dup3\n      mstore\n      dup4\n      dup2\n      dup2\n      mload\n      dup2\n      mstore\n      0x20\n      add\n      swap2\n      pop\n      dup1\n      mload\n      swap1\n      0x20\n      add\n      swap1\n      0x20\n      mul\n      dup1\n      dup4\n      dup4\n        /* \"--CODEGEN--\":23:24   */\n      0x00\n        /* \"--CODEGEN--\":8:108   */\n    tag_38:\n        /* \"--CODEGEN--\":33:36   */\n      dup4\n        /* \"--CODEGEN--\":30:31   */\n      dup2\n        /* \"--CODEGEN--\":27:37   */\n      lt\n        /* \"--CODEGEN--\":8:108   */\n      iszero\n      tag_40\n      jumpi\n        /* \"--CODEGEN--\":99:100   */\n      dup1\n        /* \"--CODEGEN--\":94:97   */\n      dup3\n        /* \"--CODEGEN--\":90:101   */\n      add\n        /* \"--CODEGEN--\":84:102   */\n      mload\n        /* \"--CODEGEN--\":80:81   */\n      dup2\n        /* \"--CODEGEN--\":75:78   */\n      dup5\n        /* \"--CODEGEN--\":71:82   */\n      add\n        /* \"--CODEGEN--\":64:103   */\n      mstore\n        /* \"--CODEGEN--\":52:54   */\n      0x20\n        /* \"--CODEGEN--\":49:50   */\n      dup2\n        /* \"--CODEGEN--\":45:55   */\n      add\n        /* \"--CODEGEN--\":40:55   */\n      swap1\n      pop\n        /* \"--CODEGEN--\":8:108   */\n      jump(tag_38)\n    tag_40:\n        /* \"--CODEGEN--\":12:26   */\n      pop\n        /* \"TopicAssigner.sol\":1076:2087  function getRandomTopics(address sender) public view returns (address[] memory) {\r... */\n      pop\n      pop\n      pop\n      swap1\n      pop\n      add\n      swap3\n      pop\n      pop\n      pop\n      mload(0x40)\n      dup1\n      swap2\n      sub\n      swap1\n      return\n        /* \"TopicAssigner.sol\":351:371  address public owner */\n    tag_6:\n      callvalue\n        /* \"--CODEGEN--\":8:17   */\n      dup1\n        /* \"--CODEGEN--\":5:7   */\n      iszero\n      tag_41\n      jumpi\n        /* \"--CODEGEN--\":30:31   */\n      0x00\n        /* \"--CODEGEN--\":27:28   */\n      dup1\n        /* \"--CODEGEN--\":20:32   */\n      revert\n        /* \"--CODEGEN--\":5:7   */\n    tag_41:\n        /* \"TopicAssigner.sol\":351:371  address public owner */\n      pop\n      tag_42\n      tag_43\n      jump\t// in\n    tag_42:\n      mload(0x40)\n      dup1\n      dup3\n      0xffffffffffffffffffffffffffffffffffffffff\n      and\n      0xffffffffffffffffffffffffffffffffffffffff\n      and\n      dup2\n      mstore\n      0x20\n      add\n      swap2\n      pop\n      pop\n      mload(0x40)\n      dup1\n      swap2\n      sub\n      swap1\n      return\n        /* \"TopicAssigner.sol\":2099:2451  function hasTopic(address sender, address topicAddress) public view returns (bool) {\r... */\n    tag_7:\n      callvalue\n        /* \"--CODEGEN--\":8:17   */\n      dup1\n        /* \"--CODEGEN--\":5:7   */\n      iszero\n      tag_44\n      jumpi\n        /* \"--CODEGEN--\":30:31   */\n      0x00\n        /* \"--CODEGEN--\":27:28   */\n      dup1\n        /* \"--CODEGEN--\":20:32   */\n      revert\n        /* \"--CODEGEN--\":5:7   */\n    tag_44:\n        /* \"TopicAssigner.sol\":2099:2451  function hasTopic(address sender, address topicAddress) public view returns (bool) {\r... */\n      pop\n      tag_45\n      0x04\n      dup1\n      calldatasize\n      sub\n        /* \"--CODEGEN--\":13:15   */\n      0x40\n        /* \"--CODEGEN--\":8:11   */\n      dup2\n        /* \"--CODEGEN--\":5:16   */\n      lt\n        /* \"--CODEGEN--\":2:4   */\n      iszero\n      tag_46\n      jumpi\n        /* \"--CODEGEN--\":29:30   */\n      0x00\n        /* \"--CODEGEN--\":26:27   */\n      dup1\n        /* \"--CODEGEN--\":19:31   */\n      revert\n        /* \"--CODEGEN--\":2:4   */\n    tag_46:\n        /* \"TopicAssigner.sol\":2099:2451  function hasTopic(address sender, address topicAddress) public view returns (bool) {\r... */\n      dup2\n      add\n      swap1\n      dup1\n      dup1\n      calldataload\n      0xffffffffffffffffffffffffffffffffffffffff\n      and\n      swap1\n      0x20\n      add\n      swap1\n      swap3\n      swap2\n      swap1\n      dup1\n      calldataload\n      0xffffffffffffffffffffffffffffffffffffffff\n      and\n      swap1\n      0x20\n      add\n      swap1\n      swap3\n      swap2\n      swap1\n      pop\n      pop\n      pop\n      tag_47\n      jump\t// in\n    tag_45:\n      mload(0x40)\n      dup1\n      dup3\n      iszero\n      iszero\n      iszero\n      iszero\n      dup2\n      mstore\n      0x20\n      add\n      swap2\n      pop\n      pop\n      mload(0x40)\n      dup1\n      swap2\n      sub\n      swap1\n      return\n        /* \"TopicAssigner.sol\":481:534  mapping(address => uint) public assignedVisibleTopics */\n    tag_8:\n      callvalue\n        /* \"--CODEGEN--\":8:17   */\n      dup1\n        /* \"--CODEGEN--\":5:7   */\n      iszero\n      tag_48\n      jumpi\n        /* \"--CODEGEN--\":30:31   */\n      0x00\n        /* \"--CODEGEN--\":27:28   */\n      dup1\n        /* \"--CODEGEN--\":20:32   */\n      revert\n        /* \"--CODEGEN--\":5:7   */\n    tag_48:\n        /* \"TopicAssigner.sol\":481:534  mapping(address => uint) public assignedVisibleTopics */\n      pop\n      tag_49\n      0x04\n      dup1\n      calldatasize\n      sub\n        /* \"--CODEGEN--\":13:15   */\n      0x20\n        /* \"--CODEGEN--\":8:11   */\n      dup2\n        /* \"--CODEGEN--\":5:16   */\n      lt\n        /* \"--CODEGEN--\":2:4   */\n      iszero\n      tag_50\n      jumpi\n        /* \"--CODEGEN--\":29:30   */\n      0x00\n        /* \"--CODEGEN--\":26:27   */\n      dup1\n        /* \"--CODEGEN--\":19:31   */\n      revert\n        /* \"--CODEGEN--\":2:4   */\n    tag_50:\n        /* \"TopicAssigner.sol\":481:534  mapping(address => uint) public assignedVisibleTopics */\n      dup2\n      add\n      swap1\n      dup1\n      dup1\n      calldataload\n      0xffffffffffffffffffffffffffffffffffffffff\n      and\n      swap1\n      0x20\n      add\n      swap1\n      swap3\n      swap2\n      swap1\n      pop\n      pop\n      pop\n      tag_51\n      jump\t// in\n    tag_49:\n      mload(0x40)\n      dup1\n      dup3\n      dup2\n      mstore\n      0x20\n      add\n      swap2\n      pop\n      pop\n      mload(0x40)\n      dup1\n      swap2\n      sub\n      swap1\n      return\n        /* \"TopicAssigner.sol\":378:412  address public topicFactoryAddress */\n    tag_9:\n      callvalue\n        /* \"--CODEGEN--\":8:17   */\n      dup1\n        /* \"--CODEGEN--\":5:7   */\n      iszero\n      tag_52\n      jumpi\n        /* \"--CODEGEN--\":30:31   */\n      0x00\n        /* \"--CODEGEN--\":27:28   */\n      dup1\n        /* \"--CODEGEN--\":20:32   */\n      revert\n        /* \"--CODEGEN--\":5:7   */\n    tag_52:\n        /* \"TopicAssigner.sol\":378:412  address public topicFactoryAddress */\n      pop\n      tag_53\n      tag_54\n      jump\t// in\n    tag_53:\n      mload(0x40)\n      dup1\n      dup3\n      0xffffffffffffffffffffffffffffffffffffffff\n      and\n      0xffffffffffffffffffffffffffffffffffffffff\n      and\n      dup2\n      mstore\n      0x20\n      add\n      swap2\n      pop\n      pop\n      mload(0x40)\n      dup1\n      swap2\n      sub\n      swap1\n      return\n        /* \"TopicAssigner.sol\":953:1068  function changeNumVisibleTopics(uint numTopics) public _ownerOnly {\r... */\n    tag_10:\n      callvalue\n        /* \"--CODEGEN--\":8:17   */\n      dup1\n        /* \"--CODEGEN--\":5:7   */\n      iszero\n      tag_55\n      jumpi\n        /* \"--CODEGEN--\":30:31   */\n      0x00\n        /* \"--CODEGEN--\":27:28   */\n      dup1\n        /* \"--CODEGEN--\":20:32   */\n      revert\n        /* \"--CODEGEN--\":5:7   */\n    tag_55:\n        /* \"TopicAssigner.sol\":953:1068  function changeNumVisibleTopics(uint numTopics) public _ownerOnly {\r... */\n      pop\n      tag_56\n      0x04\n      dup1\n      calldatasize\n      sub\n        /* \"--CODEGEN--\":13:15   */\n      0x20\n        /* \"--CODEGEN--\":8:11   */\n      dup2\n        /* \"--CODEGEN--\":5:16   */\n      lt\n        /* \"--CODEGEN--\":2:4   */\n      iszero\n      tag_57\n      jumpi\n        /* \"--CODEGEN--\":29:30   */\n      0x00\n        /* \"--CODEGEN--\":26:27   */\n      dup1\n        /* \"--CODEGEN--\":19:31   */\n      revert\n        /* \"--CODEGEN--\":2:4   */\n    tag_57:\n        /* \"TopicAssigner.sol\":953:1068  function changeNumVisibleTopics(uint numTopics) public _ownerOnly {\r... */\n      dup2\n      add\n      swap1\n      dup1\n      dup1\n      calldataload\n      swap1\n      0x20\n      add\n      swap1\n      swap3\n      swap2\n      swap1\n      pop\n      pop\n      pop\n      tag_58\n      jump\t// in\n    tag_56:\n      stop\n        /* \"TopicAssigner.sol\":2527:3397  function refreshRandomTopics() public payable {\r... */\n    tag_11:\n      tag_59\n      tag_60\n      jump\t// in\n    tag_59:\n      stop\n        /* \"provableAPI_0.5.sol\":15718:15842  function __callback(bytes32 _myid, string memory _result) public {\r... */\n    tag_19:\n        /* \"provableAPI_0.5.sol\":15794:15834  __callback(_myid, _result, new bytes(0)) */\n      tag_62\n        /* \"provableAPI_0.5.sol\":15805:15810  _myid */\n      dup3\n        /* \"provableAPI_0.5.sol\":15812:15819  _result */\n      dup3\n        /* \"provableAPI_0.5.sol\":15831:15832  0 */\n      0x00\n        /* \"provableAPI_0.5.sol\":15821:15833  new bytes(0) */\n      mload(0x40)\n      swap1\n      dup1\n      dup3\n      mstore\n      dup1\n      0x1f\n      add\n      not(0x1f)\n      and\n      0x20\n      add\n      dup3\n      add\n      0x40\n      mstore\n      dup1\n      iszero\n      tag_63\n      jumpi\n      dup2\n      0x20\n      add\n        /* \"--CODEGEN--\":29:30   */\n      0x01\n        /* \"--CODEGEN--\":21:27   */\n      dup3\n        /* \"--CODEGEN--\":17:31   */\n      mul\n        /* \"--CODEGEN--\":116:120   */\n      dup1\n        /* \"--CODEGEN--\":104:114   */\n      codesize\n        /* \"--CODEGEN--\":96:102   */\n      dup4\n        /* \"--CODEGEN--\":87:121   */\n      codecopy\n        /* \"--CODEGEN--\":147:151   */\n      dup1\n        /* \"--CODEGEN--\":139:145   */\n      dup3\n        /* \"--CODEGEN--\":135:152   */\n      add\n        /* \"--CODEGEN--\":125:152   */\n      swap2\n      pop\n        /* \"--CODEGEN--\":0:156   */\n      pop\n        /* \"provableAPI_0.5.sol\":15821:15833  new bytes(0) */\n      swap1\n      pop\n    tag_63:\n      pop\n        /* \"provableAPI_0.5.sol\":15794:15804  __callback */\n      tag_29\n        /* \"provableAPI_0.5.sol\":15794:15834  __callback(_myid, _result, new bytes(0)) */\n      jump\t// in\n    tag_62:\n        /* \"provableAPI_0.5.sol\":15718:15842  function __callback(bytes32 _myid, string memory _result) public {\r... */\n      pop\n      pop\n      jump\t// out\n        /* \"TopicAssigner.sol\":3452:4869  function __callback(bytes32 _queryId, string memory _result,bytes memory _proof) public {\r... */\n    tag_29:\n        /* \"TopicAssigner.sol\":3573:3593  provable_cbAddress() */\n      tag_65\n        /* \"TopicAssigner.sol\":3573:3591  provable_cbAddress */\n      tag_66\n        /* \"TopicAssigner.sol\":3573:3593  provable_cbAddress() */\n      jump\t// in\n    tag_65:\n        /* \"TopicAssigner.sol\":3559:3593  msg.sender == provable_cbAddress() */\n      0xffffffffffffffffffffffffffffffffffffffff\n      and\n        /* \"TopicAssigner.sol\":3559:3569  msg.sender */\n      caller\n        /* \"TopicAssigner.sol\":3559:3593  msg.sender == provable_cbAddress() */\n      0xffffffffffffffffffffffffffffffffffffffff\n      and\n      eq\n        /* \"TopicAssigner.sol\":3551:3594  require(msg.sender == provable_cbAddress()) */\n      tag_67\n      jumpi\n      0x00\n      dup1\n      revert\n    tag_67:\n        /* \"TopicAssigner.sol\":3680:3681  0 */\n      0x00\n        /* \"TopicAssigner.sol\":3611:3677  provable_randomDS_proofVerify__returnCode(_queryId,_result,_proof) */\n      tag_68\n        /* \"TopicAssigner.sol\":3653:3661  _queryId */\n      dup5\n        /* \"TopicAssigner.sol\":3662:3669  _result */\n      dup5\n        /* \"TopicAssigner.sol\":3670:3676  _proof */\n      dup5\n        /* \"TopicAssigner.sol\":3611:3652  provable_randomDS_proofVerify__returnCode */\n      tag_69\n        /* \"TopicAssigner.sol\":3611:3677  provable_randomDS_proofVerify__returnCode(_queryId,_result,_proof) */\n      jump\t// in\n    tag_68:\n        /* \"TopicAssigner.sol\":3611:3681  provable_randomDS_proofVerify__returnCode(_queryId,_result,_proof) !=0 */\n      0xff\n      and\n      eq\n        /* \"TopicAssigner.sol\":3607:4862  if (provable_randomDS_proofVerify__returnCode(_queryId,_result,_proof) !=0) { // The proof verification has failed! Handle this case however you see fit.\r... */\n      tag_70\n      jumpi\n        /* \"TopicAssigner.sol\":3774:3782  revert() */\n      0x00\n      dup1\n      revert\n        /* \"TopicAssigner.sol\":3607:4862  if (provable_randomDS_proofVerify__returnCode(_queryId,_result,_proof) !=0) { // The proof verification has failed! Handle this case however you see fit.\r... */\n    tag_70:\n        /* \"TopicAssigner.sol\":4369:4381  uint256 hash */\n      0x00\n        /* \"TopicAssigner.sol\":4419:4426  _result */\n      dup3\n        /* \"TopicAssigner.sol\":4402:4427  abi.encodePacked(_result) */\n      add(0x20, mload(0x40))\n      dup1\n      dup3\n      dup1\n      mload\n      swap1\n      0x20\n      add\n      swap1\n      dup1\n      dup4\n      dup4\n        /* \"--CODEGEN--\":36:189   */\n    tag_72:\n        /* \"--CODEGEN--\":66:68   */\n      0x20\n        /* \"--CODEGEN--\":61:64   */\n      dup4\n        /* \"--CODEGEN--\":58:69   */\n      lt\n        /* \"--CODEGEN--\":36:189   */\n      tag_74\n      jumpi\n        /* \"--CODEGEN--\":182:185   */\n      dup1\n        /* \"--CODEGEN--\":176:186   */\n      mload\n        /* \"--CODEGEN--\":171:174   */\n      dup3\n        /* \"--CODEGEN--\":164:187   */\n      mstore\n        /* \"--CODEGEN--\":98:100   */\n      0x20\n        /* \"--CODEGEN--\":93:96   */\n      dup3\n        /* \"--CODEGEN--\":89:101   */\n      add\n        /* \"--CODEGEN--\":82:101   */\n      swap2\n      pop\n        /* \"--CODEGEN--\":123:125   */\n      0x20\n        /* \"--CODEGEN--\":118:121   */\n      dup2\n        /* \"--CODEGEN--\":114:126   */\n      add\n        /* \"--CODEGEN--\":107:126   */\n      swap1\n      pop\n        /* \"--CODEGEN--\":148:150   */\n      0x20\n        /* \"--CODEGEN--\":143:146   */\n      dup4\n        /* \"--CODEGEN--\":139:151   */\n      sub\n        /* \"--CODEGEN--\":132:151   */\n      swap3\n      pop\n        /* \"--CODEGEN--\":36:189   */\n      jump(tag_72)\n    tag_74:\n        /* \"--CODEGEN--\":274:275   */\n      0x01\n        /* \"--CODEGEN--\":267:270   */\n      dup4\n        /* \"--CODEGEN--\":263:265   */\n      0x20\n        /* \"--CODEGEN--\":259:271   */\n      sub\n        /* \"--CODEGEN--\":254:257   */\n      0x0100\n        /* \"--CODEGEN--\":250:272   */\n      exp\n        /* \"--CODEGEN--\":246:276   */\n      sub\n        /* \"--CODEGEN--\":315:319   */\n      dup1\n        /* \"--CODEGEN--\":311:320   */\n      not\n        /* \"--CODEGEN--\":305:308   */\n      dup3\n        /* \"--CODEGEN--\":299:309   */\n      mload\n        /* \"--CODEGEN--\":295:321   */\n      and\n        /* \"--CODEGEN--\":356:360   */\n      dup2\n        /* \"--CODEGEN--\":350:353   */\n      dup5\n        /* \"--CODEGEN--\":344:354   */\n      mload\n        /* \"--CODEGEN--\":340:361   */\n      and\n        /* \"--CODEGEN--\":389:396   */\n      dup1\n        /* \"--CODEGEN--\":380:387   */\n      dup3\n        /* \"--CODEGEN--\":377:397   */\n      or\n        /* \"--CODEGEN--\":372:375   */\n      dup6\n        /* \"--CODEGEN--\":365:398   */\n      mstore\n        /* \"--CODEGEN--\":3:402   */\n      pop\n      pop\n      pop\n        /* \"TopicAssigner.sol\":4402:4427  abi.encodePacked(_result) */\n      pop\n      pop\n      pop\n      swap1\n      pop\n      add\n      swap2\n      pop\n      pop\n      mload(0x40)\n        /* \"--CODEGEN--\":49:53   */\n      0x20\n        /* \"--CODEGEN--\":39:46   */\n      dup2\n        /* \"--CODEGEN--\":30:37   */\n      dup4\n        /* \"--CODEGEN--\":26:47   */\n      sub\n        /* \"--CODEGEN--\":22:54   */\n      sub\n        /* \"--CODEGEN--\":13:20   */\n      dup2\n        /* \"--CODEGEN--\":6:55   */\n      mstore\n        /* \"TopicAssigner.sol\":4402:4427  abi.encodePacked(_result) */\n      swap1\n      0x40\n      mstore\n        /* \"TopicAssigner.sol\":4392:4428  keccak256(abi.encodePacked(_result)) */\n      dup1\n      mload\n      swap1\n      0x20\n      add\n      keccak256\n        /* \"TopicAssigner.sol\":4384:4429  uint256(keccak256(abi.encodePacked(_result))) */\n      0x00\n      shr\n        /* \"TopicAssigner.sol\":4369:4429  uint256 hash = uint256(keccak256(abi.encodePacked(_result))) */\n      swap1\n      pop\n        /* \"TopicAssigner.sol\":4498:4502  hash */\n      dup1\n        /* \"TopicAssigner.sol\":4444:4465  assignedVisibleTopics */\n      0x09\n        /* \"TopicAssigner.sol\":4444:4495  assignedVisibleTopics[queryToUserAddress[_queryId]] */\n      0x00\n        /* \"TopicAssigner.sol\":4466:4484  queryToUserAddress */\n      0x08\n        /* \"TopicAssigner.sol\":4466:4494  queryToUserAddress[_queryId] */\n      0x00\n        /* \"TopicAssigner.sol\":4485:4493  _queryId */\n      dup9\n        /* \"TopicAssigner.sol\":4466:4494  queryToUserAddress[_queryId] */\n      dup2\n      mstore\n      0x20\n      add\n      swap1\n      dup2\n      mstore\n      0x20\n      add\n      0x00\n      keccak256\n      0x00\n      swap1\n      sload\n      swap1\n      0x0100\n      exp\n      swap1\n      div\n      0xffffffffffffffffffffffffffffffffffffffff\n      and\n        /* \"TopicAssigner.sol\":4444:4495  assignedVisibleTopics[queryToUserAddress[_queryId]] */\n      0xffffffffffffffffffffffffffffffffffffffff\n      and\n      0xffffffffffffffffffffffffffffffffffffffff\n      and\n      dup2\n      mstore\n      0x20\n      add\n      swap1\n      dup2\n      mstore\n      0x20\n      add\n      0x00\n      keccak256\n        /* \"TopicAssigner.sol\":4444:4502  assignedVisibleTopics[queryToUserAddress[_queryId]] = hash */\n      dup2\n      swap1\n      sstore\n      pop\n        /* \"TopicAssigner.sol\":4822:4840  queryToUserAddress */\n      0x08\n        /* \"TopicAssigner.sol\":4822:4850  queryToUserAddress[_queryId] */\n      0x00\n        /* \"TopicAssigner.sol\":4841:4849  _queryId */\n      dup6\n        /* \"TopicAssigner.sol\":4822:4850  queryToUserAddress[_queryId] */\n      dup2\n      mstore\n      0x20\n      add\n      swap1\n      dup2\n      mstore\n      0x20\n      add\n      0x00\n      keccak256\n      0x00\n        /* \"TopicAssigner.sol\":4815:4850  delete queryToUserAddress[_queryId] */\n      0x0100\n      exp\n      dup2\n      sload\n      swap1\n      0xffffffffffffffffffffffffffffffffffffffff\n      mul\n      not\n      and\n      swap1\n      sstore\n        /* \"TopicAssigner.sol\":3607:4862  if (provable_randomDS_proofVerify__returnCode(_queryId,_result,_proof) !=0) { // The proof verification has failed! Handle this case however you see fit.\r... */\n      pop\n        /* \"TopicAssigner.sol\":3452:4869  function __callback(bytes32 _queryId, string memory _result,bytes memory _proof) public {\r... */\n      pop\n      pop\n      pop\n      jump\t// out\n        /* \"TopicAssigner.sol\":421:474  mapping(bytes32 => address) public queryToUserAddress */\n    tag_33:\n      mstore(0x20, 0x08)\n      dup1\n      0x00\n      mstore\n      keccak256(0x00, 0x40)\n      0x00\n      swap2\n      pop\n      sload\n      swap1\n      0x0100\n      exp\n      swap1\n      div\n      0xffffffffffffffffffffffffffffffffffffffff\n      and\n      dup2\n      jump\t// out\n        /* \"TopicAssigner.sol\":1076:2087  function getRandomTopics(address sender) public view returns (address[] memory) {\r... */\n    tag_37:\n        /* \"TopicAssigner.sol\":1138:1154  address[] memory */\n      0x60\n        /* \"TopicAssigner.sol\":1167:1192  TopicFactory topicFactory */\n      0x00\n        /* \"TopicAssigner.sol\":1208:1227  topicFactoryAddress */\n      0x07\n      0x00\n      swap1\n      sload\n      swap1\n      0x0100\n      exp\n      swap1\n      div\n      0xffffffffffffffffffffffffffffffffffffffff\n      and\n        /* \"TopicAssigner.sol\":1167:1228  TopicFactory topicFactory = TopicFactory(topicFactoryAddress) */\n      swap1\n      pop\n        /* \"TopicAssigner.sol\":1239:1254  uint256 ceiling */\n      0x00\n        /* \"TopicAssigner.sol\":1257:1269  topicFactory */\n      dup2\n        /* \"TopicAssigner.sol\":1257:1298  topicFactory.getNumberOfDeployedContracts */\n      0xffffffffffffffffffffffffffffffffffffffff\n      and\n      0xdfb09700\n        /* \"TopicAssigner.sol\":1257:1300  topicFactory.getNumberOfDeployedContracts() */\n      mload(0x40)\n      dup2\n      0xffffffff\n      and\n      0xe0\n      shl\n      dup2\n      mstore\n      0x04\n      add\n      0x20\n      mload(0x40)\n      dup1\n      dup4\n      sub\n      dup2\n      dup7\n      dup1\n      extcodesize\n      iszero\n        /* \"--CODEGEN--\":8:17   */\n      dup1\n        /* \"--CODEGEN--\":5:7   */\n      iszero\n      tag_76\n      jumpi\n        /* \"--CODEGEN--\":30:31   */\n      0x00\n        /* \"--CODEGEN--\":27:28   */\n      dup1\n        /* \"--CODEGEN--\":20:32   */\n      revert\n        /* \"--CODEGEN--\":5:7   */\n    tag_76:\n        /* \"TopicAssigner.sol\":1257:1300  topicFactory.getNumberOfDeployedContracts() */\n      pop\n      gas\n      staticcall\n      iszero\n        /* \"--CODEGEN--\":8:17   */\n      dup1\n        /* \"--CODEGEN--\":5:7   */\n      iszero\n      tag_77\n      jumpi\n        /* \"--CODEGEN--\":45:61   */\n      returndatasize\n        /* \"--CODEGEN--\":42:43   */\n      0x00\n        /* \"--CODEGEN--\":39:40   */\n      dup1\n        /* \"--CODEGEN--\":24:62   */\n      returndatacopy\n        /* \"--CODEGEN--\":77:93   */\n      returndatasize\n        /* \"--CODEGEN--\":74:75   */\n      0x00\n        /* \"--CODEGEN--\":67:94   */\n      revert\n        /* \"--CODEGEN--\":5:7   */\n    tag_77:\n        /* \"TopicAssigner.sol\":1257:1300  topicFactory.getNumberOfDeployedContracts() */\n      pop\n      pop\n      pop\n      pop\n      mload(0x40)\n      returndatasize\n        /* \"--CODEGEN--\":13:15   */\n      0x20\n        /* \"--CODEGEN--\":8:11   */\n      dup2\n        /* \"--CODEGEN--\":5:16   */\n      lt\n        /* \"--CODEGEN--\":2:4   */\n      iszero\n      tag_78\n      jumpi\n        /* \"--CODEGEN--\":29:30   */\n      0x00\n        /* \"--CODEGEN--\":26:27   */\n      dup1\n        /* \"--CODEGEN--\":19:31   */\n      revert\n        /* \"--CODEGEN--\":2:4   */\n    tag_78:\n        /* \"TopicAssigner.sol\":1257:1300  topicFactory.getNumberOfDeployedContracts() */\n      dup2\n      add\n      swap1\n      dup1\n      dup1\n      mload\n      swap1\n      0x20\n      add\n      swap1\n      swap3\n      swap2\n      swap1\n      pop\n      pop\n      pop\n        /* \"TopicAssigner.sol\":1239:1300  uint256 ceiling = topicFactory.getNumberOfDeployedContracts() */\n      swap1\n      pop\n        /* \"TopicAssigner.sol\":1343:1344  0 */\n      0x00\n        /* \"TopicAssigner.sol\":1333:1340  ceiling */\n      dup2\n        /* \"TopicAssigner.sol\":1333:1344  ceiling > 0 */\n      gt\n        /* \"TopicAssigner.sol\":1311:1446  require(\r... */\n      tag_79\n      jumpi\n      mload(0x40)\n      0x08c379a000000000000000000000000000000000000000000000000000000000\n      dup2\n      mstore\n      0x04\n      add\n      dup1\n      dup1\n      0x20\n      add\n      dup3\n      dup2\n      sub\n      dup3\n      mstore\n      0x4a\n      dup2\n      mstore\n      0x20\n      add\n      dup1\n      data_55fd9c0637736a94fec8b47f89e6c4183af62b5fc442dff7a0558e59c8d9eaea\n      0x4a\n      swap2\n      codecopy\n      0x60\n      add\n      swap2\n      pop\n      pop\n      mload(0x40)\n      dup1\n      swap2\n      sub\n      swap1\n      revert\n    tag_79:\n        /* \"TopicAssigner.sol\":1459:1474  uint randomSeed */\n      0x00\n        /* \"TopicAssigner.sol\":1477:1498  assignedVisibleTopics */\n      0x09\n        /* \"TopicAssigner.sol\":1477:1506  assignedVisibleTopics[sender] */\n      0x00\n        /* \"TopicAssigner.sol\":1499:1505  sender */\n      dup7\n        /* \"TopicAssigner.sol\":1477:1506  assignedVisibleTopics[sender] */\n      0xffffffffffffffffffffffffffffffffffffffff\n      and\n      0xffffffffffffffffffffffffffffffffffffffff\n      and\n      dup2\n      mstore\n      0x20\n      add\n      swap1\n      dup2\n      mstore\n      0x20\n      add\n      0x00\n      keccak256\n      sload\n        /* \"TopicAssigner.sol\":1459:1506  uint randomSeed = assignedVisibleTopics[sender] */\n      swap1\n      pop\n        /* \"TopicAssigner.sol\":1650:1651  0 */\n      0x00\n        /* \"TopicAssigner.sol\":1636:1646  randomSeed */\n      dup2\n        /* \"TopicAssigner.sol\":1636:1651  randomSeed == 0 */\n      eq\n        /* \"TopicAssigner.sol\":1632:2078  if (randomSeed == 0) {\r... */\n      iszero\n      tag_80\n      jumpi\n        /* \"TopicAssigner.sol\":1689:1690  0 */\n      0x00\n        /* \"TopicAssigner.sol\":1675:1691  new address[](0) */\n      mload(0x40)\n      swap1\n      dup1\n      dup3\n      mstore\n      dup1\n      0x20\n      mul\n      0x20\n      add\n      dup3\n      add\n      0x40\n      mstore\n      dup1\n      iszero\n      tag_81\n      jumpi\n      dup2\n      0x20\n      add\n        /* \"--CODEGEN--\":29:31   */\n      0x20\n        /* \"--CODEGEN--\":21:27   */\n      dup3\n        /* \"--CODEGEN--\":17:32   */\n      mul\n        /* \"--CODEGEN--\":117:121   */\n      dup1\n        /* \"--CODEGEN--\":105:115   */\n      codesize\n        /* \"--CODEGEN--\":97:103   */\n      dup4\n        /* \"--CODEGEN--\":88:122   */\n      codecopy\n        /* \"--CODEGEN--\":148:152   */\n      dup1\n        /* \"--CODEGEN--\":140:146   */\n      dup3\n        /* \"--CODEGEN--\":136:153   */\n      add\n        /* \"--CODEGEN--\":126:153   */\n      swap2\n      pop\n        /* \"--CODEGEN--\":0:157   */\n      pop\n        /* \"TopicAssigner.sol\":1675:1691  new address[](0) */\n      swap1\n      pop\n    tag_81:\n      pop\n        /* \"TopicAssigner.sol\":1668:1691  return new address[](0) */\n      swap4\n      pop\n      pop\n      pop\n      pop\n      jump(tag_75)\n        /* \"TopicAssigner.sol\":1632:2078  if (randomSeed == 0) {\r... */\n    tag_80:\n        /* \"TopicAssigner.sol\":1724:1748  uint256[] memory indices */\n      0x60\n        /* \"TopicAssigner.sol\":1765:1783  NUM_VISIBLE_TOPICS */\n      sload(0x05)\n        /* \"TopicAssigner.sol\":1751:1784  new uint256[](NUM_VISIBLE_TOPICS) */\n      mload(0x40)\n      swap1\n      dup1\n      dup3\n      mstore\n      dup1\n      0x20\n      mul\n      0x20\n      add\n      dup3\n      add\n      0x40\n      mstore\n      dup1\n      iszero\n      tag_83\n      jumpi\n      dup2\n      0x20\n      add\n        /* \"--CODEGEN--\":29:31   */\n      0x20\n        /* \"--CODEGEN--\":21:27   */\n      dup3\n        /* \"--CODEGEN--\":17:32   */\n      mul\n        /* \"--CODEGEN--\":117:121   */\n      dup1\n        /* \"--CODEGEN--\":105:115   */\n      codesize\n        /* \"--CODEGEN--\":97:103   */\n      dup4\n        /* \"--CODEGEN--\":88:122   */\n      codecopy\n        /* \"--CODEGEN--\":148:152   */\n      dup1\n        /* \"--CODEGEN--\":140:146   */\n      dup3\n        /* \"--CODEGEN--\":136:153   */\n      add\n        /* \"--CODEGEN--\":126:153   */\n      swap2\n      pop\n        /* \"--CODEGEN--\":0:157   */\n      pop\n        /* \"TopicAssigner.sol\":1751:1784  new uint256[](NUM_VISIBLE_TOPICS) */\n      swap1\n      pop\n    tag_83:\n      pop\n        /* \"TopicAssigner.sol\":1724:1784  uint256[] memory indices = new uint256[](NUM_VISIBLE_TOPICS) */\n      swap1\n      pop\n        /* \"TopicAssigner.sol\":1810:1817  uint8 i */\n      0x00\n        /* \"TopicAssigner.sol\":1820:1821  0 */\n      dup1\n        /* \"TopicAssigner.sol\":1810:1821  uint8 i = 0 */\n      swap1\n      pop\n        /* \"TopicAssigner.sol\":1805:1999  for (uint8 i = 0; i < NUM_VISIBLE_TOPICS; i++) {\r... */\n    tag_84:\n        /* \"TopicAssigner.sol\":1827:1845  NUM_VISIBLE_TOPICS */\n      sload(0x05)\n        /* \"TopicAssigner.sol\":1823:1824  i */\n      dup2\n        /* \"TopicAssigner.sol\":1823:1845  i < NUM_VISIBLE_TOPICS */\n      0xff\n      and\n      lt\n        /* \"TopicAssigner.sol\":1805:1999  for (uint8 i = 0; i < NUM_VISIBLE_TOPICS; i++) {\r... */\n      iszero\n      tag_85\n      jumpi\n        /* \"TopicAssigner.sol\":1916:1926  randomSeed */\n      dup3\n        /* \"TopicAssigner.sol\":1899:1927  abi.encodePacked(randomSeed) */\n      add(0x20, mload(0x40))\n      dup1\n      dup3\n      dup2\n      mstore\n      0x20\n      add\n      swap2\n      pop\n      pop\n      mload(0x40)\n        /* \"--CODEGEN--\":49:53   */\n      0x20\n        /* \"--CODEGEN--\":39:46   */\n      dup2\n        /* \"--CODEGEN--\":30:37   */\n      dup4\n        /* \"--CODEGEN--\":26:47   */\n      sub\n        /* \"--CODEGEN--\":22:54   */\n      sub\n        /* \"--CODEGEN--\":13:20   */\n      dup2\n        /* \"--CODEGEN--\":6:55   */\n      mstore\n        /* \"TopicAssigner.sol\":1899:1927  abi.encodePacked(randomSeed) */\n      swap1\n      0x40\n      mstore\n        /* \"TopicAssigner.sol\":1889:1928  keccak256(abi.encodePacked(randomSeed)) */\n      dup1\n      mload\n      swap1\n      0x20\n      add\n      keccak256\n        /* \"TopicAssigner.sol\":1884:1929  uint(keccak256(abi.encodePacked(randomSeed))) */\n      0x00\n      shr\n        /* \"TopicAssigner.sol\":1871:1929  randomSeed = uint(keccak256(abi.encodePacked(randomSeed))) */\n      swap3\n      pop\n        /* \"TopicAssigner.sol\":1975:1982  ceiling */\n      dup4\n        /* \"TopicAssigner.sol\":1962:1972  randomSeed */\n      dup4\n        /* \"TopicAssigner.sol\":1962:1982  randomSeed % ceiling */\n      dup2\n      tag_87\n      jumpi\n      invalid\n    tag_87:\n      mod\n        /* \"TopicAssigner.sol\":1948:1955  indices */\n      dup3\n        /* \"TopicAssigner.sol\":1956:1957  i */\n      dup3\n        /* \"TopicAssigner.sol\":1948:1958  indices[i] */\n      0xff\n      and\n      dup2\n      mload\n      dup2\n      lt\n      tag_88\n      jumpi\n      invalid\n    tag_88:\n      0x20\n      mul\n      0x20\n      add\n      add\n        /* \"TopicAssigner.sol\":1948:1983  indices[i] = (randomSeed % ceiling) */\n      dup2\n      dup2\n      mstore\n      pop\n      pop\n        /* \"TopicAssigner.sol\":1847:1850  i++ */\n      dup1\n      dup1\n      0x01\n      add\n      swap2\n      pop\n      pop\n        /* \"TopicAssigner.sol\":1805:1999  for (uint8 i = 0; i < NUM_VISIBLE_TOPICS; i++) {\r... */\n      jump(tag_84)\n    tag_85:\n      pop\n        /* \"TopicAssigner.sol\":2026:2038  topicFactory */\n      dup4\n        /* \"TopicAssigner.sol\":2026:2057  topicFactory.getTopicsAtIndices */\n      0xffffffffffffffffffffffffffffffffffffffff\n      and\n      0xdc983f08\n        /* \"TopicAssigner.sol\":2058:2065  indices */\n      dup3\n        /* \"TopicAssigner.sol\":2026:2066  topicFactory.getTopicsAtIndices(indices) */\n      mload(0x40)\n      dup3\n      0xffffffff\n      and\n      0xe0\n      shl\n      dup2\n      mstore\n      0x04\n      add\n      dup1\n      dup1\n      0x20\n      add\n      dup3\n      dup2\n      sub\n      dup3\n      mstore\n      dup4\n      dup2\n      dup2\n      mload\n      dup2\n      mstore\n      0x20\n      add\n      swap2\n      pop\n      dup1\n      mload\n      swap1\n      0x20\n      add\n      swap1\n      0x20\n      mul\n      dup1\n      dup4\n      dup4\n        /* \"--CODEGEN--\":23:24   */\n      0x00\n        /* \"--CODEGEN--\":8:108   */\n    tag_89:\n        /* \"--CODEGEN--\":33:36   */\n      dup4\n        /* \"--CODEGEN--\":30:31   */\n      dup2\n        /* \"--CODEGEN--\":27:37   */\n      lt\n        /* \"--CODEGEN--\":8:108   */\n      iszero\n      tag_91\n      jumpi\n        /* \"--CODEGEN--\":99:100   */\n      dup1\n        /* \"--CODEGEN--\":94:97   */\n      dup3\n        /* \"--CODEGEN--\":90:101   */\n      add\n        /* \"--CODEGEN--\":84:102   */\n      mload\n        /* \"--CODEGEN--\":80:81   */\n      dup2\n        /* \"--CODEGEN--\":75:78   */\n      dup5\n        /* \"--CODEGEN--\":71:82   */\n      add\n        /* \"--CODEGEN--\":64:103   */\n      mstore\n        /* \"--CODEGEN--\":52:54   */\n      0x20\n        /* \"--CODEGEN--\":49:50   */\n      dup2\n        /* \"--CODEGEN--\":45:55   */\n      add\n        /* \"--CODEGEN--\":40:55   */\n      swap1\n      pop\n        /* \"--CODEGEN--\":8:108   */\n      jump(tag_89)\n    tag_91:\n        /* \"--CODEGEN--\":12:26   */\n      pop\n        /* \"TopicAssigner.sol\":2026:2066  topicFactory.getTopicsAtIndices(indices) */\n      pop\n      pop\n      pop\n      swap1\n      pop\n      add\n      swap3\n      pop\n      pop\n      pop\n      0x00\n      mload(0x40)\n      dup1\n      dup4\n      sub\n      dup2\n      dup7\n      dup1\n      extcodesize\n      iszero\n        /* \"--CODEGEN--\":8:17   */\n      dup1\n        /* \"--CODEGEN--\":5:7   */\n      iszero\n      tag_92\n      jumpi\n        /* \"--CODEGEN--\":30:31   */\n      0x00\n        /* \"--CODEGEN--\":27:28   */\n      dup1\n        /* \"--CODEGEN--\":20:32   */\n      revert\n        /* \"--CODEGEN--\":5:7   */\n    tag_92:\n        /* \"TopicAssigner.sol\":2026:2066  topicFactory.getTopicsAtIndices(indices) */\n      pop\n      gas\n      staticcall\n      iszero\n        /* \"--CODEGEN--\":8:17   */\n      dup1\n        /* \"--CODEGEN--\":5:7   */\n      iszero\n      tag_93\n      jumpi\n        /* \"--CODEGEN--\":45:61   */\n      returndatasize\n        /* \"--CODEGEN--\":42:43   */\n      0x00\n        /* \"--CODEGEN--\":39:40   */\n      dup1\n        /* \"--CODEGEN--\":24:62   */\n      returndatacopy\n        /* \"--CODEGEN--\":77:93   */\n      returndatasize\n        /* \"--CODEGEN--\":74:75   */\n      0x00\n        /* \"--CODEGEN--\":67:94   */\n      revert\n        /* \"--CODEGEN--\":5:7   */\n    tag_93:\n        /* \"TopicAssigner.sol\":2026:2066  topicFactory.getTopicsAtIndices(indices) */\n      pop\n      pop\n      pop\n      pop\n      mload(0x40)\n        /* \"--CODEGEN--\":39:55   */\n      returndatasize\n        /* \"--CODEGEN--\":36:37   */\n      0x00\n        /* \"--CODEGEN--\":17:34   */\n      dup3\n        /* \"--CODEGEN--\":2:56   */\n      returndatacopy\n        /* \"TopicAssigner.sol\":2026:2066  topicFactory.getTopicsAtIndices(indices) */\n      returndatasize\n        /* \"--CODEGEN--\":101:105   */\n      0x1f\n        /* \"--CODEGEN--\":97:106   */\n      not\n        /* \"--CODEGEN--\":90:94   */\n      0x1f\n        /* \"--CODEGEN--\":84:88   */\n      dup3\n        /* \"--CODEGEN--\":80:95   */\n      add\n        /* \"--CODEGEN--\":76:107   */\n      and\n        /* \"--CODEGEN--\":69:74   */\n      dup3\n        /* \"--CODEGEN--\":65:108   */\n      add\n        /* \"--CODEGEN--\":126:132   */\n      dup1\n        /* \"--CODEGEN--\":120:124   */\n      0x40\n        /* \"--CODEGEN--\":113:133   */\n      mstore\n        /* \"--CODEGEN--\":0:138   */\n      pop\n        /* \"--CODEGEN--\":13:15   */\n      0x20\n        /* \"--CODEGEN--\":8:11   */\n      dup2\n        /* \"--CODEGEN--\":5:16   */\n      lt\n        /* \"--CODEGEN--\":2:4   */\n      iszero\n      tag_94\n      jumpi\n        /* \"--CODEGEN--\":29:30   */\n      0x00\n        /* \"--CODEGEN--\":26:27   */\n      dup1\n        /* \"--CODEGEN--\":19:31   */\n      revert\n        /* \"--CODEGEN--\":2:4   */\n    tag_94:\n        /* \"TopicAssigner.sol\":2026:2066  topicFactory.getTopicsAtIndices(indices) */\n      dup2\n      add\n      swap1\n      dup1\n      dup1\n      mload\n      mload(0x40)\n      swap4\n      swap3\n      swap2\n      swap1\n      dup5\n        /* \"--CODEGEN--\":19:30   */\n      0x0100000000\n        /* \"--CODEGEN--\":14:17   */\n      dup3\n        /* \"--CODEGEN--\":11:31   */\n      gt\n        /* \"--CODEGEN--\":8:10   */\n      iszero\n      tag_95\n      jumpi\n        /* \"--CODEGEN--\":44:45   */\n      0x00\n        /* \"--CODEGEN--\":41:42   */\n      dup1\n        /* \"--CODEGEN--\":34:46   */\n      revert\n        /* \"--CODEGEN--\":8:10   */\n    tag_95:\n        /* \"--CODEGEN--\":71:82   */\n      dup4\n        /* \"--CODEGEN--\":66:69   */\n      dup3\n        /* \"--CODEGEN--\":62:83   */\n      add\n        /* \"--CODEGEN--\":55:83   */\n      swap2\n      pop\n        /* \"--CODEGEN--\":123:127   */\n      0x20\n        /* \"--CODEGEN--\":118:121   */\n      dup3\n        /* \"--CODEGEN--\":114:128   */\n      add\n        /* \"--CODEGEN--\":159:168   */\n      dup6\n        /* \"--CODEGEN--\":141:157   */\n      dup2\n        /* \"--CODEGEN--\":138:169   */\n      gt\n        /* \"--CODEGEN--\":135:137   */\n      iszero\n      tag_96\n      jumpi\n        /* \"--CODEGEN--\":182:183   */\n      0x00\n        /* \"--CODEGEN--\":179:180   */\n      dup1\n        /* \"--CODEGEN--\":172:184   */\n      revert\n        /* \"--CODEGEN--\":135:137   */\n    tag_96:\n        /* \"--CODEGEN--\":219:222   */\n      dup3\n        /* \"--CODEGEN--\":213:223   */\n      mload\n        /* \"--CODEGEN--\":331:340   */\n      dup7\n        /* \"--CODEGEN--\":325:327   */\n      0x20\n        /* \"--CODEGEN--\":311:323   */\n      dup3\n        /* \"--CODEGEN--\":307:328   */\n      mul\n        /* \"--CODEGEN--\":289:305   */\n      dup4\n        /* \"--CODEGEN--\":285:329   */\n      add\n        /* \"--CODEGEN--\":282:341   */\n      gt\n        /* \"--CODEGEN--\":261:272   */\n      0x0100000000\n        /* \"--CODEGEN--\":247:259   */\n      dup3\n        /* \"--CODEGEN--\":244:273   */\n      gt\n        /* \"--CODEGEN--\":233:349   */\n      or\n        /* \"--CODEGEN--\":230:232   */\n      iszero\n      tag_97\n      jumpi\n        /* \"--CODEGEN--\":362:363   */\n      0x00\n        /* \"--CODEGEN--\":359:360   */\n      dup1\n        /* \"--CODEGEN--\":352:364   */\n      revert\n        /* \"--CODEGEN--\":230:232   */\n    tag_97:\n        /* \"--CODEGEN--\":385:397   */\n      dup1\n        /* \"--CODEGEN--\":380:383   */\n      dup4\n        /* \"--CODEGEN--\":373:398   */\n      mstore\n        /* \"--CODEGEN--\":421:425   */\n      0x20\n        /* \"--CODEGEN--\":416:419   */\n      dup4\n        /* \"--CODEGEN--\":412:426   */\n      add\n        /* \"--CODEGEN--\":405:426   */\n      swap3\n      pop\n        /* \"--CODEGEN--\":0:433   */\n      pop\n      pop\n        /* \"TopicAssigner.sol\":2026:2066  topicFactory.getTopicsAtIndices(indices) */\n      swap1\n      dup1\n      mload\n      swap1\n      0x20\n      add\n      swap1\n      0x20\n      mul\n      dup1\n      dup4\n      dup4\n        /* \"--CODEGEN--\":23:24   */\n      0x00\n        /* \"--CODEGEN--\":8:108   */\n    tag_98:\n        /* \"--CODEGEN--\":33:36   */\n      dup4\n        /* \"--CODEGEN--\":30:31   */\n      dup2\n        /* \"--CODEGEN--\":27:37   */\n      lt\n        /* \"--CODEGEN--\":8:108   */\n      iszero\n      tag_100\n      jumpi\n        /* \"--CODEGEN--\":99:100   */\n      dup1\n        /* \"--CODEGEN--\":94:97   */\n      dup3\n        /* \"--CODEGEN--\":90:101   */\n      add\n        /* \"--CODEGEN--\":84:102   */\n      mload\n        /* \"--CODEGEN--\":80:81   */\n      dup2\n        /* \"--CODEGEN--\":75:78   */\n      dup5\n        /* \"--CODEGEN--\":71:82   */\n      add\n        /* \"--CODEGEN--\":64:103   */\n      mstore\n        /* \"--CODEGEN--\":52:54   */\n      0x20\n        /* \"--CODEGEN--\":49:50   */\n      dup2\n        /* \"--CODEGEN--\":45:55   */\n      add\n        /* \"--CODEGEN--\":40:55   */\n      swap1\n      pop\n        /* \"--CODEGEN--\":8:108   */\n      jump(tag_98)\n    tag_100:\n        /* \"--CODEGEN--\":12:26   */\n      pop\n        /* \"TopicAssigner.sol\":2026:2066  topicFactory.getTopicsAtIndices(indices) */\n      pop\n      pop\n      pop\n      swap1\n      pop\n      add\n      0x40\n      mstore\n      pop\n      pop\n      pop\n        /* \"TopicAssigner.sol\":2019:2066  return topicFactory.getTopicsAtIndices(indices) */\n      swap5\n      pop\n      pop\n      pop\n      pop\n      pop\n        /* \"TopicAssigner.sol\":1076:2087  function getRandomTopics(address sender) public view returns (address[] memory) {\r... */\n    tag_75:\n      swap2\n      swap1\n      pop\n      jump\t// out\n        /* \"TopicAssigner.sol\":351:371  address public owner */\n    tag_43:\n      0x06\n      0x00\n      swap1\n      sload\n      swap1\n      0x0100\n      exp\n      swap1\n      div\n      0xffffffffffffffffffffffffffffffffffffffff\n      and\n      dup2\n      jump\t// out\n        /* \"TopicAssigner.sol\":2099:2451  function hasTopic(address sender, address topicAddress) public view returns (bool) {\r... */\n    tag_47:\n        /* \"TopicAssigner.sol\":2176:2180  bool */\n      0x00\n        /* \"TopicAssigner.sol\":2193:2225  address[] memory availableTopics */\n      0x60\n        /* \"TopicAssigner.sol\":2228:2251  getRandomTopics(sender) */\n      tag_102\n        /* \"TopicAssigner.sol\":2244:2250  sender */\n      dup5\n        /* \"TopicAssigner.sol\":2228:2243  getRandomTopics */\n      tag_37\n        /* \"TopicAssigner.sol\":2228:2251  getRandomTopics(sender) */\n      jump\t// in\n    tag_102:\n        /* \"TopicAssigner.sol\":2193:2251  address[] memory availableTopics = getRandomTopics(sender) */\n      swap1\n      pop\n        /* \"TopicAssigner.sol\":2267:2274  uint8 i */\n      0x00\n        /* \"TopicAssigner.sol\":2277:2278  0 */\n      dup1\n        /* \"TopicAssigner.sol\":2267:2278  uint8 i = 0 */\n      swap1\n      pop\n        /* \"TopicAssigner.sol\":2262:2421  for (uint8 i = 0; i < NUM_VISIBLE_TOPICS; i++) {\r... */\n    tag_103:\n        /* \"TopicAssigner.sol\":2284:2302  NUM_VISIBLE_TOPICS */\n      sload(0x05)\n        /* \"TopicAssigner.sol\":2280:2281  i */\n      dup2\n        /* \"TopicAssigner.sol\":2280:2302  i < NUM_VISIBLE_TOPICS */\n      0xff\n      and\n      lt\n        /* \"TopicAssigner.sol\":2262:2421  for (uint8 i = 0; i < NUM_VISIBLE_TOPICS; i++) {\r... */\n      iszero\n      tag_104\n      jumpi\n        /* \"TopicAssigner.sol\":2350:2362  topicAddress */\n      dup4\n        /* \"TopicAssigner.sol\":2328:2362  availableTopics[i] == topicAddress */\n      0xffffffffffffffffffffffffffffffffffffffff\n      and\n        /* \"TopicAssigner.sol\":2328:2343  availableTopics */\n      dup3\n        /* \"TopicAssigner.sol\":2344:2345  i */\n      dup3\n        /* \"TopicAssigner.sol\":2328:2346  availableTopics[i] */\n      0xff\n      and\n      dup2\n      mload\n      dup2\n      lt\n      tag_106\n      jumpi\n      invalid\n    tag_106:\n      0x20\n      mul\n      0x20\n      add\n      add\n      mload\n        /* \"TopicAssigner.sol\":2328:2362  availableTopics[i] == topicAddress */\n      0xffffffffffffffffffffffffffffffffffffffff\n      and\n      eq\n        /* \"TopicAssigner.sol\":2324:2410  if (availableTopics[i] == topicAddress) {\r... */\n      iszero\n      tag_107\n      jumpi\n        /* \"TopicAssigner.sol\":2390:2394  true */\n      0x01\n        /* \"TopicAssigner.sol\":2383:2394  return true */\n      swap3\n      pop\n      pop\n      pop\n      jump(tag_101)\n        /* \"TopicAssigner.sol\":2324:2410  if (availableTopics[i] == topicAddress) {\r... */\n    tag_107:\n        /* \"TopicAssigner.sol\":2304:2307  i++ */\n      dup1\n      dup1\n      0x01\n      add\n      swap2\n      pop\n      pop\n        /* \"TopicAssigner.sol\":2262:2421  for (uint8 i = 0; i < NUM_VISIBLE_TOPICS; i++) {\r... */\n      jump(tag_103)\n    tag_104:\n      pop\n        /* \"TopicAssigner.sol\":2438:2443  false */\n      0x00\n        /* \"TopicAssigner.sol\":2431:2443  return false */\n      swap2\n      pop\n      pop\n        /* \"TopicAssigner.sol\":2099:2451  function hasTopic(address sender, address topicAddress) public view returns (bool) {\r... */\n    tag_101:\n      swap3\n      swap2\n      pop\n      pop\n      jump\t// out\n        /* \"TopicAssigner.sol\":481:534  mapping(address => uint) public assignedVisibleTopics */\n    tag_51:\n      mstore(0x20, 0x09)\n      dup1\n      0x00\n      mstore\n      keccak256(0x00, 0x40)\n      0x00\n      swap2\n      pop\n      swap1\n      pop\n      sload\n      dup2\n      jump\t// out\n        /* \"TopicAssigner.sol\":378:412  address public topicFactoryAddress */\n    tag_54:\n      0x07\n      0x00\n      swap1\n      sload\n      swap1\n      0x0100\n      exp\n      swap1\n      div\n      0xffffffffffffffffffffffffffffffffffffffff\n      and\n      dup2\n      jump\t// out\n        /* \"TopicAssigner.sol\":953:1068  function changeNumVisibleTopics(uint numTopics) public _ownerOnly {\r... */\n    tag_58:\n        /* \"TopicAssigner.sol\":656:661  owner */\n      0x06\n      0x00\n      swap1\n      sload\n      swap1\n      0x0100\n      exp\n      swap1\n      div\n      0xffffffffffffffffffffffffffffffffffffffff\n      and\n        /* \"TopicAssigner.sol\":642:661  msg.sender == owner */\n      0xffffffffffffffffffffffffffffffffffffffff\n      and\n        /* \"TopicAssigner.sol\":642:652  msg.sender */\n      caller\n        /* \"TopicAssigner.sol\":642:661  msg.sender == owner */\n      0xffffffffffffffffffffffffffffffffffffffff\n      and\n      eq\n        /* \"TopicAssigner.sol\":634:724  require(msg.sender == owner, 'You must be the creator of this Topic in order to do this.') */\n      tag_109\n      jumpi\n      mload(0x40)\n      0x08c379a000000000000000000000000000000000000000000000000000000000\n      dup2\n      mstore\n      0x04\n      add\n      dup1\n      dup1\n      0x20\n      add\n      dup3\n      dup2\n      sub\n      dup3\n      mstore\n      0x3a\n      dup2\n      mstore\n      0x20\n      add\n      dup1\n      data_8e90808f17bc1108e9ea5a79970bcefb81f12d2e44e112b3ad4b251ae0873244\n      0x3a\n      swap2\n      codecopy\n      0x40\n      add\n      swap2\n      pop\n      pop\n      mload(0x40)\n      dup1\n      swap2\n      sub\n      swap1\n      revert\n    tag_109:\n        /* \"TopicAssigner.sol\":1051:1060  numTopics */\n      dup1\n        /* \"TopicAssigner.sol\":1030:1048  NUM_VISIBLE_TOPICS */\n      0x05\n        /* \"TopicAssigner.sol\":1030:1060  NUM_VISIBLE_TOPICS = numTopics */\n      dup2\n      swap1\n      sstore\n      pop\n        /* \"TopicAssigner.sol\":953:1068  function changeNumVisibleTopics(uint numTopics) public _ownerOnly {\r... */\n      pop\n      jump\t// out\n        /* \"TopicAssigner.sol\":2527:3397  function refreshRandomTopics() public payable {\r... */\n    tag_60:\n        /* \"TopicAssigner.sol\":2969:2998  uint256 QUERY_EXECUTION_DELAY */\n      0x00\n        /* \"TopicAssigner.sol\":3001:3002  0 */\n      dup1\n        /* \"TopicAssigner.sol\":2969:3002  uint256 QUERY_EXECUTION_DELAY = 0 */\n      swap1\n      pop\n        /* \"TopicAssigner.sol\":3013:3037  uint256 GAS_FOR_CALLBACK */\n      0x00\n        /* \"TopicAssigner.sol\":3040:3046  200000 */\n      0x030d40\n        /* \"TopicAssigner.sol\":3013:3046  uint256 GAS_FOR_CALLBACK = 200000 */\n      swap1\n      pop\n        /* \"TopicAssigner.sol\":3057:3072  bytes32 queryId */\n      0x00\n        /* \"TopicAssigner.sol\":3075:3219  provable_newRandomDSQuery(\r... */\n      tag_112\n        /* \"TopicAssigner.sol\":3115:3136  QUERY_EXECUTION_DELAY */\n      dup4\n        /* \"TopicAssigner.sol\":303:304  8 */\n      0x08\n        /* \"TopicAssigner.sol\":3192:3208  GAS_FOR_CALLBACK */\n      dup5\n        /* \"TopicAssigner.sol\":3075:3100  provable_newRandomDSQuery */\n      tag_113\n        /* \"TopicAssigner.sol\":3075:3219  provable_newRandomDSQuery(\r... */\n      jump\t// in\n    tag_112:\n        /* \"TopicAssigner.sol\":3057:3219  bytes32 queryId = provable_newRandomDSQuery(\r... */\n      swap1\n      pop\n        /* \"TopicAssigner.sol\":3262:3272  msg.sender */\n      caller\n        /* \"TopicAssigner.sol\":3232:3250  queryToUserAddress */\n      0x08\n        /* \"TopicAssigner.sol\":3232:3259  queryToUserAddress[queryId] */\n      0x00\n        /* \"TopicAssigner.sol\":3251:3258  queryId */\n      dup4\n        /* \"TopicAssigner.sol\":3232:3259  queryToUserAddress[queryId] */\n      dup2\n      mstore\n      0x20\n      add\n      swap1\n      dup2\n      mstore\n      0x20\n      add\n      0x00\n      keccak256\n      0x00\n        /* \"TopicAssigner.sol\":3232:3272  queryToUserAddress[queryId] = msg.sender */\n      0x0100\n      exp\n      dup2\n      sload\n      dup2\n      0xffffffffffffffffffffffffffffffffffffffff\n      mul\n      not\n      and\n      swap1\n      dup4\n      0xffffffffffffffffffffffffffffffffffffffff\n      and\n      mul\n      or\n      swap1\n      sstore\n      pop\n        /* \"TopicAssigner.sol\":3288:3389  LogNewProvableQuery(\r... */\n      0xc4dc360d0a9c0677a3379ae0a3d81e887f761e65fdf3d7e00859d1bcd3c47389\n      mload(0x40)\n      dup1\n      dup1\n      0x20\n      add\n      dup3\n      dup2\n      sub\n      dup3\n      mstore\n      0x36\n      dup2\n      mstore\n      0x20\n      add\n      dup1\n      data_c6f2f0f13c6598abf8ee9fb17c87715e017f2ad977035fd635642d8acb7e90c5\n      0x36\n      swap2\n      codecopy\n      0x40\n      add\n      swap2\n      pop\n      pop\n      mload(0x40)\n      dup1\n      swap2\n      sub\n      swap1\n      log1\n        /* \"TopicAssigner.sol\":2527:3397  function refreshRandomTopics() public payable {\r... */\n      pop\n      pop\n      pop\n      jump\t// out\n        /* \"provableAPI_0.5.sol\":38056:38188  function provable_cbAddress() provableAPI internal returns (address _callbackAddress) {\r... */\n    tag_66:\n        /* \"provableAPI_0.5.sol\":38116:38140  address _callbackAddress */\n      0x00\n        /* \"provableAPI_0.5.sol\":12187:12188  0 */\n      dup1\n        /* \"provableAPI_0.5.sol\":12163:12189  address(OAR) == address(0) */\n      0xffffffffffffffffffffffffffffffffffffffff\n      and\n        /* \"provableAPI_0.5.sol\":12171:12174  OAR */\n      0x01\n      0x00\n      swap1\n      sload\n      swap1\n      0x0100\n      exp\n      swap1\n      div\n      0xffffffffffffffffffffffffffffffffffffffff\n      and\n        /* \"provableAPI_0.5.sol\":12163:12189  address(OAR) == address(0) */\n      0xffffffffffffffffffffffffffffffffffffffff\n      and\n      eq\n        /* \"provableAPI_0.5.sol\":12162:12226  (address(OAR) == address(0)) || (getCodeSize(address(OAR)) == 0) */\n      dup1\n      tag_115\n      jumpi\n      pop\n        /* \"provableAPI_0.5.sol\":12224:12225  0 */\n      0x00\n        /* \"provableAPI_0.5.sol\":12195:12220  getCodeSize(address(OAR)) */\n      tag_116\n        /* \"provableAPI_0.5.sol\":12215:12218  OAR */\n      0x01\n      0x00\n      swap1\n      sload\n      swap1\n      0x0100\n      exp\n      swap1\n      div\n      0xffffffffffffffffffffffffffffffffffffffff\n      and\n        /* \"provableAPI_0.5.sol\":12195:12206  getCodeSize */\n      tag_117\n        /* \"provableAPI_0.5.sol\":12195:12220  getCodeSize(address(OAR)) */\n      jump\t// in\n    tag_116:\n        /* \"provableAPI_0.5.sol\":12195:12225  getCodeSize(address(OAR)) == 0 */\n      eq\n        /* \"provableAPI_0.5.sol\":12162:12226  (address(OAR) == address(0)) || (getCodeSize(address(OAR)) == 0) */\n    tag_115:\n        /* \"provableAPI_0.5.sol\":12158:12290  if ((address(OAR) == address(0)) || (getCodeSize(address(OAR)) == 0)) {\r... */\n      iszero\n      tag_118\n      jumpi\n        /* \"provableAPI_0.5.sol\":12243:12278  provable_setNetwork(networkID_auto) */\n      tag_119\n        /* \"provableAPI_0.5.sol\":11809:11810  0 */\n      0x00\n        /* \"provableAPI_0.5.sol\":12243:12262  provable_setNetwork */\n      tag_120\n        /* \"provableAPI_0.5.sol\":12243:12278  provable_setNetwork(networkID_auto) */\n      jump\t// in\n    tag_119:\n      pop\n        /* \"provableAPI_0.5.sol\":12158:12290  if ((address(OAR) == address(0)) || (getCodeSize(address(OAR)) == 0)) {\r... */\n    tag_118:\n        /* \"provableAPI_0.5.sol\":12325:12328  OAR */\n      0x01\n      0x00\n      swap1\n      sload\n      swap1\n      0x0100\n      exp\n      swap1\n      div\n      0xffffffffffffffffffffffffffffffffffffffff\n      and\n        /* \"provableAPI_0.5.sol\":12325:12339  OAR.getAddress */\n      0xffffffffffffffffffffffffffffffffffffffff\n      and\n      0x38cc4831\n        /* \"provableAPI_0.5.sol\":12325:12341  OAR.getAddress() */\n      mload(0x40)\n      dup2\n      0xffffffff\n      and\n      0xe0\n      shl\n      dup2\n      mstore\n      0x04\n      add\n      0x20\n      mload(0x40)\n      dup1\n      dup4\n      sub\n      dup2\n      0x00\n      dup8\n      dup1\n      extcodesize\n      iszero\n        /* \"--CODEGEN--\":8:17   */\n      dup1\n        /* \"--CODEGEN--\":5:7   */\n      iszero\n      tag_121\n      jumpi\n        /* \"--CODEGEN--\":30:31   */\n      0x00\n        /* \"--CODEGEN--\":27:28   */\n      dup1\n        /* \"--CODEGEN--\":20:32   */\n      revert\n        /* \"--CODEGEN--\":5:7   */\n    tag_121:\n        /* \"provableAPI_0.5.sol\":12325:12341  OAR.getAddress() */\n      pop\n      gas\n      call\n      iszero\n        /* \"--CODEGEN--\":8:17   */\n      dup1\n        /* \"--CODEGEN--\":5:7   */\n      iszero\n      tag_122\n      jumpi\n        /* \"--CODEGEN--\":45:61   */\n      returndatasize\n        /* \"--CODEGEN--\":42:43   */\n      0x00\n        /* \"--CODEGEN--\":39:40   */\n      dup1\n        /* \"--CODEGEN--\":24:62   */\n      returndatacopy\n        /* \"--CODEGEN--\":77:93   */\n      returndatasize\n        /* \"--CODEGEN--\":74:75   */\n      0x00\n        /* \"--CODEGEN--\":67:94   */\n      revert\n        /* \"--CODEGEN--\":5:7   */\n    tag_122:\n        /* \"provableAPI_0.5.sol\":12325:12341  OAR.getAddress() */\n      pop\n      pop\n      pop\n      pop\n      mload(0x40)\n      returndatasize\n        /* \"--CODEGEN--\":13:15   */\n      0x20\n        /* \"--CODEGEN--\":8:11   */\n      dup2\n        /* \"--CODEGEN--\":5:16   */\n      lt\n        /* \"--CODEGEN--\":2:4   */\n      iszero\n      tag_123\n      jumpi\n        /* \"--CODEGEN--\":29:30   */\n      0x00\n        /* \"--CODEGEN--\":26:27   */\n      dup1\n        /* \"--CODEGEN--\":19:31   */\n      revert\n        /* \"--CODEGEN--\":2:4   */\n    tag_123:\n        /* \"provableAPI_0.5.sol\":12325:12341  OAR.getAddress() */\n      dup2\n      add\n      swap1\n      dup1\n      dup1\n      mload\n      swap1\n      0x20\n      add\n      swap1\n      swap3\n      swap2\n      swap1\n      pop\n      pop\n      pop\n        /* \"provableAPI_0.5.sol\":12304:12341  address(provable) != OAR.getAddress() */\n      0xffffffffffffffffffffffffffffffffffffffff\n      and\n        /* \"provableAPI_0.5.sol\":12312:12320  provable */\n      0x00\n      dup1\n      swap1\n      sload\n      swap1\n      0x0100\n      exp\n      swap1\n      div\n      0xffffffffffffffffffffffffffffffffffffffff\n      and\n        /* \"provableAPI_0.5.sol\":12304:12341  address(provable) != OAR.getAddress() */\n      0xffffffffffffffffffffffffffffffffffffffff\n      and\n      eq\n        /* \"provableAPI_0.5.sol\":12300:12408  if (address(provable) != OAR.getAddress()) {\r... */\n      tag_124\n      jumpi\n        /* \"provableAPI_0.5.sol\":12379:12382  OAR */\n      0x01\n      0x00\n      swap1\n      sload\n      swap1\n      0x0100\n      exp\n      swap1\n      div\n      0xffffffffffffffffffffffffffffffffffffffff\n      and\n        /* \"provableAPI_0.5.sol\":12379:12393  OAR.getAddress */\n      0xffffffffffffffffffffffffffffffffffffffff\n      and\n      0x38cc4831\n        /* \"provableAPI_0.5.sol\":12379:12395  OAR.getAddress() */\n      mload(0x40)\n      dup2\n      0xffffffff\n      and\n      0xe0\n      shl\n      dup2\n      mstore\n      0x04\n      add\n      0x20\n      mload(0x40)\n      dup1\n      dup4\n      sub\n      dup2\n      0x00\n      dup8\n      dup1\n      extcodesize\n      iszero\n        /* \"--CODEGEN--\":8:17   */\n      dup1\n        /* \"--CODEGEN--\":5:7   */\n      iszero\n      tag_125\n      jumpi\n        /* \"--CODEGEN--\":30:31   */\n      0x00\n        /* \"--CODEGEN--\":27:28   */\n      dup1\n        /* \"--CODEGEN--\":20:32   */\n      revert\n        /* \"--CODEGEN--\":5:7   */\n    tag_125:\n        /* \"provableAPI_0.5.sol\":12379:12395  OAR.getAddress() */\n      pop\n      gas\n      call\n      iszero\n        /* \"--CODEGEN--\":8:17   */\n      dup1\n        /* \"--CODEGEN--\":5:7   */\n      iszero\n      tag_126\n      jumpi\n        /* \"--CODEGEN--\":45:61   */\n      returndatasize\n        /* \"--CODEGEN--\":42:43   */\n      0x00\n        /* \"--CODEGEN--\":39:40   */\n      dup1\n        /* \"--CODEGEN--\":24:62   */\n      returndatacopy\n        /* \"--CODEGEN--\":77:93   */\n      returndatasize\n        /* \"--CODEGEN--\":74:75   */\n      0x00\n        /* \"--CODEGEN--\":67:94   */\n      revert\n        /* \"--CODEGEN--\":5:7   */\n    tag_126:\n        /* \"provableAPI_0.5.sol\":12379:12395  OAR.getAddress() */\n      pop\n      pop\n      pop\n      pop\n      mload(0x40)\n      returndatasize\n        /* \"--CODEGEN--\":13:15   */\n      0x20\n        /* \"--CODEGEN--\":8:11   */\n      dup2\n        /* \"--CODEGEN--\":5:16   */\n      lt\n        /* \"--CODEGEN--\":2:4   */\n      iszero\n      tag_127\n      jumpi\n        /* \"--CODEGEN--\":29:30   */\n      0x00\n        /* \"--CODEGEN--\":26:27   */\n      dup1\n        /* \"--CODEGEN--\":19:31   */\n      revert\n        /* \"--CODEGEN--\":2:4   */\n    tag_127:\n        /* \"provableAPI_0.5.sol\":12379:12395  OAR.getAddress() */\n      dup2\n      add\n      swap1\n      dup1\n      dup1\n      mload\n      swap1\n      0x20\n      add\n      swap1\n      swap3\n      swap2\n      swap1\n      pop\n      pop\n      pop\n        /* \"provableAPI_0.5.sol\":12358:12366  provable */\n      0x00\n      dup1\n        /* \"provableAPI_0.5.sol\":12358:12396  provable = ProvableI(OAR.getAddress()) */\n      0x0100\n      exp\n      dup2\n      sload\n      dup2\n      0xffffffffffffffffffffffffffffffffffffffff\n      mul\n      not\n      and\n      swap1\n      dup4\n      0xffffffffffffffffffffffffffffffffffffffff\n      and\n      mul\n      or\n      swap1\n      sstore\n      pop\n        /* \"provableAPI_0.5.sol\":12300:12408  if (address(provable) != OAR.getAddress()) {\r... */\n    tag_124:\n        /* \"provableAPI_0.5.sol\":38160:38168  provable */\n      0x00\n      dup1\n      swap1\n      sload\n      swap1\n      0x0100\n      exp\n      swap1\n      div\n      0xffffffffffffffffffffffffffffffffffffffff\n      and\n        /* \"provableAPI_0.5.sol\":38160:38178  provable.cbAddress */\n      0xffffffffffffffffffffffffffffffffffffffff\n      and\n      0xc281d19e\n        /* \"provableAPI_0.5.sol\":38160:38180  provable.cbAddress() */\n      mload(0x40)\n      dup2\n      0xffffffff\n      and\n      0xe0\n      shl\n      dup2\n      mstore\n      0x04\n      add\n      0x20\n      mload(0x40)\n      dup1\n      dup4\n      sub\n      dup2\n      dup7\n      dup1\n      extcodesize\n      iszero\n        /* \"--CODEGEN--\":8:17   */\n      dup1\n        /* \"--CODEGEN--\":5:7   */\n      iszero\n      tag_129\n      jumpi\n        /* \"--CODEGEN--\":30:31   */\n      0x00\n        /* \"--CODEGEN--\":27:28   */\n      dup1\n        /* \"--CODEGEN--\":20:32   */\n      revert\n        /* \"--CODEGEN--\":5:7   */\n    tag_129:\n        /* \"provableAPI_0.5.sol\":38160:38180  provable.cbAddress() */\n      pop\n      gas\n      staticcall\n      iszero\n        /* \"--CODEGEN--\":8:17   */\n      dup1\n        /* \"--CODEGEN--\":5:7   */\n      iszero\n      tag_130\n      jumpi\n        /* \"--CODEGEN--\":45:61   */\n      returndatasize\n        /* \"--CODEGEN--\":42:43   */\n      0x00\n        /* \"--CODEGEN--\":39:40   */\n      dup1\n        /* \"--CODEGEN--\":24:62   */\n      returndatacopy\n        /* \"--CODEGEN--\":77:93   */\n      returndatasize\n        /* \"--CODEGEN--\":74:75   */\n      0x00\n        /* \"--CODEGEN--\":67:94   */\n      revert\n        /* \"--CODEGEN--\":5:7   */\n    tag_130:\n        /* \"provableAPI_0.5.sol\":38160:38180  provable.cbAddress() */\n      pop\n      pop\n      pop\n      pop\n      mload(0x40)\n      returndatasize\n        /* \"--CODEGEN--\":13:15   */\n      0x20\n        /* \"--CODEGEN--\":8:11   */\n      dup2\n        /* \"--CODEGEN--\":5:16   */\n      lt\n        /* \"--CODEGEN--\":2:4   */\n      iszero\n      tag_131\n      jumpi\n        /* \"--CODEGEN--\":29:30   */\n      0x00\n        /* \"--CODEGEN--\":26:27   */\n      dup1\n        /* \"--CODEGEN--\":19:31   */\n      revert\n        /* \"--CODEGEN--\":2:4   */\n    tag_131:\n        /* \"provableAPI_0.5.sol\":38160:38180  provable.cbAddress() */\n      dup2\n      add\n      swap1\n      dup1\n      dup1\n      mload\n      swap1\n      0x20\n      add\n      swap1\n      swap3\n      swap2\n      swap1\n      pop\n      pop\n      pop\n        /* \"provableAPI_0.5.sol\":38153:38180  return provable.cbAddress() */\n      swap1\n      pop\n        /* \"provableAPI_0.5.sol\":38056:38188  function provable_cbAddress() provableAPI internal returns (address _callbackAddress) {\r... */\n      swap1\n      jump\t// out\n        /* \"provableAPI_0.5.sol\":51645:52234  function provable_randomDS_proofVerify__returnCode(bytes32 _queryId, string memory _result, bytes memory _proof) internal returns (uint8 _returnCode) {\r... */\n    tag_69:\n        /* \"provableAPI_0.5.sol\":51776:51793  uint8 _returnCode */\n      0x00\n        /* \"provableAPI_0.5.sol\":51905:51921  _proof[0] != \"L\" */\n      0x4c00000000000000000000000000000000000000000000000000000000000000\n        /* \"provableAPI_0.5.sol\":51905:51911  _proof */\n      dup3\n        /* \"provableAPI_0.5.sol\":51912:51913  0 */\n      0x00\n        /* \"provableAPI_0.5.sol\":51905:51914  _proof[0] */\n      dup2\n      mload\n      dup2\n      lt\n      tag_133\n      jumpi\n      invalid\n    tag_133:\n      0x20\n      add\n      add\n      mload\n      0xf8\n      shr\n      0xf8\n      shl\n        /* \"provableAPI_0.5.sol\":51905:51921  _proof[0] != \"L\" */\n      not(0xffffffffffffffffffffffffffffffffffffffffffffffffffffffffffffff)\n      and\n      eq\n      iszero\n        /* \"provableAPI_0.5.sol\":51904:51944  (_proof[0] != \"L\") || (_proof[1] != \"P\") */\n      dup1\n      tag_134\n      jumpi\n      pop\n        /* \"provableAPI_0.5.sol\":51927:51943  _proof[1] != \"P\" */\n      0x5000000000000000000000000000000000000000000000000000000000000000\n        /* \"provableAPI_0.5.sol\":51927:51933  _proof */\n      dup3\n        /* \"provableAPI_0.5.sol\":51934:51935  1 */\n      0x01\n        /* \"provableAPI_0.5.sol\":51927:51936  _proof[1] */\n      dup2\n      mload\n      dup2\n      lt\n      tag_135\n      jumpi\n      invalid\n    tag_135:\n      0x20\n      add\n      add\n      mload\n      0xf8\n      shr\n      0xf8\n      shl\n        /* \"provableAPI_0.5.sol\":51927:51943  _proof[1] != \"P\" */\n      not(0xffffffffffffffffffffffffffffffffffffffffffffffffffffffffffffff)\n      and\n      eq\n      iszero\n        /* \"provableAPI_0.5.sol\":51904:51944  (_proof[0] != \"L\") || (_proof[1] != \"P\") */\n    tag_134:\n        /* \"provableAPI_0.5.sol\":51904:51978  (_proof[0] != \"L\") || (_proof[1] != \"P\") || (uint8(_proof[2]) != uint8(1)) */\n      dup1\n      tag_136\n      jumpi\n      pop\n        /* \"provableAPI_0.5.sol\":51975:51976  1 */\n      0x01\n        /* \"provableAPI_0.5.sol\":51949:51977  uint8(_proof[2]) != uint8(1) */\n      0xff\n      and\n        /* \"provableAPI_0.5.sol\":51955:51961  _proof */\n      dup3\n        /* \"provableAPI_0.5.sol\":51962:51963  2 */\n      0x02\n        /* \"provableAPI_0.5.sol\":51955:51964  _proof[2] */\n      dup2\n      mload\n      dup2\n      lt\n      tag_137\n      jumpi\n      invalid\n    tag_137:\n      0x20\n      add\n      add\n      mload\n      0xf8\n      shr\n      0xf8\n      shl\n        /* \"provableAPI_0.5.sol\":51949:51965  uint8(_proof[2]) */\n      0xf8\n      shr\n        /* \"provableAPI_0.5.sol\":51949:51977  uint8(_proof[2]) != uint8(1) */\n      0xff\n      and\n      eq\n      iszero\n        /* \"provableAPI_0.5.sol\":51904:51978  (_proof[0] != \"L\") || (_proof[1] != \"P\") || (uint8(_proof[2]) != uint8(1)) */\n    tag_136:\n        /* \"provableAPI_0.5.sol\":51900:52015  if ((_proof[0] != \"L\") || (_proof[1] != \"P\") || (uint8(_proof[2]) != uint8(1))) {\r... */\n      iszero\n      tag_138\n      jumpi\n        /* \"provableAPI_0.5.sol\":52002:52003  1 */\n      0x01\n        /* \"provableAPI_0.5.sol\":51995:52003  return 1 */\n      swap1\n      pop\n      jump(tag_132)\n        /* \"provableAPI_0.5.sol\":51900:52015  if ((_proof[0] != \"L\") || (_proof[1] != \"P\") || (uint8(_proof[2]) != uint8(1))) {\r... */\n    tag_138:\n        /* \"provableAPI_0.5.sol\":52025:52043  bool proofVerified */\n      0x00\n        /* \"provableAPI_0.5.sol\":52046:52142  provable_randomDS_proofVerify__main(_proof, _queryId, bytes(_result), provable_getNetworkName()) */\n      tag_139\n        /* \"provableAPI_0.5.sol\":52082:52088  _proof */\n      dup4\n        /* \"provableAPI_0.5.sol\":52090:52098  _queryId */\n      dup7\n        /* \"provableAPI_0.5.sol\":52106:52113  _result */\n      dup7\n        /* \"provableAPI_0.5.sol\":52116:52141  provable_getNetworkName() */\n      tag_140\n        /* \"provableAPI_0.5.sol\":52116:52139  provable_getNetworkName */\n      tag_141\n        /* \"provableAPI_0.5.sol\":52116:52141  provable_getNetworkName() */\n      jump\t// in\n    tag_140:\n        /* \"provableAPI_0.5.sol\":52046:52081  provable_randomDS_proofVerify__main */\n      tag_142\n        /* \"provableAPI_0.5.sol\":52046:52142  provable_randomDS_proofVerify__main(_proof, _queryId, bytes(_result), provable_getNetworkName()) */\n      jump\t// in\n    tag_139:\n        /* \"provableAPI_0.5.sol\":52025:52142  bool proofVerified = provable_randomDS_proofVerify__main(_proof, _queryId, bytes(_result), provable_getNetworkName()) */\n      swap1\n      pop\n        /* \"provableAPI_0.5.sol\":52158:52171  proofVerified */\n      dup1\n        /* \"provableAPI_0.5.sol\":52153:52208  if (!proofVerified) {\r... */\n      tag_143\n      jumpi\n        /* \"provableAPI_0.5.sol\":52195:52196  2 */\n      0x02\n        /* \"provableAPI_0.5.sol\":52188:52196  return 2 */\n      swap2\n      pop\n      pop\n      jump(tag_132)\n        /* \"provableAPI_0.5.sol\":52153:52208  if (!proofVerified) {\r... */\n    tag_143:\n        /* \"provableAPI_0.5.sol\":52225:52226  0 */\n      0x00\n        /* \"provableAPI_0.5.sol\":52218:52226  return 0 */\n      swap2\n      pop\n      pop\n        /* \"provableAPI_0.5.sol\":51645:52234  function provable_randomDS_proofVerify__returnCode(bytes32 _queryId, string memory _result, bytes memory _proof) internal returns (uint8 _returnCode) {\r... */\n    tag_132:\n      swap4\n      swap3\n      pop\n      pop\n      pop\n      jump\t// out\n        /* \"provableAPI_0.5.sol\":46129:48812  function provable_newRandomDSQuery(uint _delay, uint _nbytes, uint _customGasLimit) internal returns (bytes32 _queryId) {\r... */\n    tag_113:\n        /* \"provableAPI_0.5.sol\":46231:46247  bytes32 _queryId */\n      0x00\n        /* \"provableAPI_0.5.sol\":46279:46280  0 */\n      dup1\n        /* \"provableAPI_0.5.sol\":46269:46276  _nbytes */\n      dup4\n        /* \"provableAPI_0.5.sol\":46269:46280  _nbytes > 0 */\n      gt\n        /* \"provableAPI_0.5.sol\":46268:46300  (_nbytes > 0) && (_nbytes <= 32) */\n      dup1\n      iszero\n      tag_145\n      jumpi\n      pop\n        /* \"provableAPI_0.5.sol\":46297:46299  32 */\n      0x20\n        /* \"provableAPI_0.5.sol\":46286:46293  _nbytes */\n      dup4\n        /* \"provableAPI_0.5.sol\":46286:46299  _nbytes <= 32 */\n      gt\n      iszero\n        /* \"provableAPI_0.5.sol\":46268:46300  (_nbytes > 0) && (_nbytes <= 32) */\n    tag_145:\n        /* \"provableAPI_0.5.sol\":46260:46301  require((_nbytes > 0) && (_nbytes <= 32)) */\n      tag_146\n      jumpi\n      0x00\n      dup1\n      revert\n    tag_146:\n        /* \"provableAPI_0.5.sol\":46322:46324  10 */\n      0x0a\n        /* \"provableAPI_0.5.sol\":46312:46324  _delay *= 10 */\n      dup5\n      mul\n      swap4\n      pop\n        /* \"provableAPI_0.5.sol\":46381:46400  bytes memory nbytes */\n      0x60\n        /* \"provableAPI_0.5.sol\":46413:46414  1 */\n      0x01\n        /* \"provableAPI_0.5.sol\":46403:46415  new bytes(1) */\n      mload(0x40)\n      swap1\n      dup1\n      dup3\n      mstore\n      dup1\n      0x1f\n      add\n      not(0x1f)\n      and\n      0x20\n      add\n      dup3\n      add\n      0x40\n      mstore\n      dup1\n      iszero\n      tag_147\n      jumpi\n      dup2\n      0x20\n      add\n        /* \"--CODEGEN--\":29:30   */\n      0x01\n        /* \"--CODEGEN--\":21:27   */\n      dup3\n        /* \"--CODEGEN--\":17:31   */\n      mul\n        /* \"--CODEGEN--\":116:120   */\n      dup1\n        /* \"--CODEGEN--\":104:114   */\n      codesize\n        /* \"--CODEGEN--\":96:102   */\n      dup4\n        /* \"--CODEGEN--\":87:121   */\n      codecopy\n        /* \"--CODEGEN--\":147:151   */\n      dup1\n        /* \"--CODEGEN--\":139:145   */\n      dup3\n        /* \"--CODEGEN--\":135:152   */\n      add\n        /* \"--CODEGEN--\":125:152   */\n      swap2\n      pop\n        /* \"--CODEGEN--\":0:156   */\n      pop\n        /* \"provableAPI_0.5.sol\":46403:46415  new bytes(1) */\n      swap1\n      pop\n    tag_147:\n      pop\n        /* \"provableAPI_0.5.sol\":46381:46415  bytes memory nbytes = new bytes(1) */\n      swap1\n      pop\n        /* \"provableAPI_0.5.sol\":46449:46456  _nbytes */\n      dup4\n        /* \"provableAPI_0.5.sol\":46438:46458  byte(uint8(_nbytes)) */\n      0xf8\n      shl\n        /* \"provableAPI_0.5.sol\":46426:46432  nbytes */\n      dup2\n        /* \"provableAPI_0.5.sol\":46433:46434  0 */\n      0x00\n        /* \"provableAPI_0.5.sol\":46426:46435  nbytes[0] */\n      dup2\n      mload\n      dup2\n      lt\n      tag_148\n      jumpi\n      invalid\n    tag_148:\n      0x20\n      add\n      add\n        /* \"provableAPI_0.5.sol\":46426:46458  nbytes[0] = byte(uint8(_nbytes)) */\n      swap1\n      not(0xffffffffffffffffffffffffffffffffffffffffffffffffffffffffffffff)\n      and\n      swap1\n      dup2\n      0x00\n      byte\n      swap1\n      mstore8\n      pop\n        /* \"provableAPI_0.5.sol\":46469:46488  bytes memory unonce */\n      0x60\n        /* \"provableAPI_0.5.sol\":46501:46503  32 */\n      0x20\n        /* \"provableAPI_0.5.sol\":46491:46504  new bytes(32) */\n      mload(0x40)\n      swap1\n      dup1\n      dup3\n      mstore\n      dup1\n      0x1f\n      add\n      not(0x1f)\n      and\n      0x20\n      add\n      dup3\n      add\n      0x40\n      mstore\n      dup1\n      iszero\n      tag_149\n      jumpi\n      dup2\n      0x20\n      add\n        /* \"--CODEGEN--\":29:30   */\n      0x01\n        /* \"--CODEGEN--\":21:27   */\n      dup3\n        /* \"--CODEGEN--\":17:31   */\n      mul\n        /* \"--CODEGEN--\":116:120   */\n      dup1\n        /* \"--CODEGEN--\":104:114   */\n      codesize\n        /* \"--CODEGEN--\":96:102   */\n      dup4\n        /* \"--CODEGEN--\":87:121   */\n      codecopy\n        /* \"--CODEGEN--\":147:151   */\n      dup1\n        /* \"--CODEGEN--\":139:145   */\n      dup3\n        /* \"--CODEGEN--\":135:152   */\n      add\n        /* \"--CODEGEN--\":125:152   */\n      swap2\n      pop\n        /* \"--CODEGEN--\":0:156   */\n      pop\n        /* \"provableAPI_0.5.sol\":46491:46504  new bytes(32) */\n      swap1\n      pop\n    tag_149:\n      pop\n        /* \"provableAPI_0.5.sol\":46469:46504  bytes memory unonce = new bytes(32) */\n      swap1\n      pop\n        /* \"provableAPI_0.5.sol\":46515:46542  bytes memory sessionKeyHash */\n      0x60\n        /* \"provableAPI_0.5.sol\":46555:46557  32 */\n      0x20\n        /* \"provableAPI_0.5.sol\":46545:46558  new bytes(32) */\n      mload(0x40)\n      swap1\n      dup1\n      dup3\n      mstore\n      dup1\n      0x1f\n      add\n      not(0x1f)\n      and\n      0x20\n      add\n      dup3\n      add\n      0x40\n      mstore\n      dup1\n      iszero\n      tag_150\n      jumpi\n      dup2\n      0x20\n      add\n        /* \"--CODEGEN--\":29:30   */\n      0x01\n        /* \"--CODEGEN--\":21:27   */\n      dup3\n        /* \"--CODEGEN--\":17:31   */\n      mul\n        /* \"--CODEGEN--\":116:120   */\n      dup1\n        /* \"--CODEGEN--\":104:114   */\n      codesize\n        /* \"--CODEGEN--\":96:102   */\n      dup4\n        /* \"--CODEGEN--\":87:121   */\n      codecopy\n        /* \"--CODEGEN--\":147:151   */\n      dup1\n        /* \"--CODEGEN--\":139:145   */\n      dup3\n        /* \"--CODEGEN--\":135:152   */\n      add\n        /* \"--CODEGEN--\":125:152   */\n      swap2\n      pop\n        /* \"--CODEGEN--\":0:156   */\n      pop\n        /* \"provableAPI_0.5.sol\":46545:46558  new bytes(32) */\n      swap1\n      pop\n    tag_150:\n      pop\n        /* \"provableAPI_0.5.sol\":46515:46558  bytes memory sessionKeyHash = new bytes(32) */\n      swap1\n      pop\n        /* \"provableAPI_0.5.sol\":46569:46599  bytes32 sessionKeyHash_bytes32 */\n      0x00\n        /* \"provableAPI_0.5.sol\":46602:46642  provable_randomDS_getSessionPubKeyHash() */\n      tag_151\n        /* \"provableAPI_0.5.sol\":46602:46640  provable_randomDS_getSessionPubKeyHash */\n      tag_152\n        /* \"provableAPI_0.5.sol\":46602:46642  provable_randomDS_getSessionPubKeyHash() */\n      jump\t// in\n    tag_151:\n        /* \"provableAPI_0.5.sol\":46569:46642  bytes32 sessionKeyHash_bytes32 = provable_randomDS_getSessionPubKeyHash() */\n      swap1\n      pop\n        /* \"provableAPI_0.5.sol\":46692:46696  0x20 */\n      0x20\n        /* \"provableAPI_0.5.sol\":46684:46690  unonce */\n      dup4\n        /* \"provableAPI_0.5.sol\":46677:46697  mstore(unonce, 0x20) */\n      mstore\n        /* \"provableAPI_0.5.sol\":47045:47054  timestamp */\n      timestamp\n        /* \"provableAPI_0.5.sol\":47035:47043  coinbase */\n      coinbase\n        /* \"provableAPI_0.5.sol\":47031:47055  xor(coinbase, timestamp) */\n      xor\n        /* \"provableAPI_0.5.sol\":47026:47027  1 */\n      0x01\n        /* \"provableAPI_0.5.sol\":47018:47024  number */\n      number\n        /* \"provableAPI_0.5.sol\":47014:47028  sub(number, 1) */\n      sub\n        /* \"provableAPI_0.5.sol\":47004:47029  blockhash(sub(number, 1)) */\n      blockhash\n        /* \"provableAPI_0.5.sol\":47000:47056  xor(blockhash(sub(number, 1)), xor(coinbase, timestamp)) */\n      xor\n        /* \"provableAPI_0.5.sol\":46993:46997  0x20 */\n      0x20\n        /* \"provableAPI_0.5.sol\":46985:46991  unonce */\n      dup5\n        /* \"provableAPI_0.5.sol\":46981:46998  add(unonce, 0x20) */\n      add\n        /* \"provableAPI_0.5.sol\":46974:47057  mstore(add(unonce, 0x20), xor(blockhash(sub(number, 1)), xor(coinbase, timestamp))) */\n      mstore\n        /* \"provableAPI_0.5.sol\":47094:47098  0x20 */\n      0x20\n        /* \"provableAPI_0.5.sol\":47078:47092  sessionKeyHash */\n      dup3\n        /* \"provableAPI_0.5.sol\":47071:47099  mstore(sessionKeyHash, 0x20) */\n      mstore\n        /* \"provableAPI_0.5.sol\":47147:47169  sessionKeyHash_bytes32 */\n      dup1\n        /* \"provableAPI_0.5.sol\":47140:47144  0x20 */\n      0x20\n        /* \"provableAPI_0.5.sol\":47124:47138  sessionKeyHash */\n      dup4\n        /* \"provableAPI_0.5.sol\":47120:47145  add(sessionKeyHash, 0x20) */\n      add\n        /* \"provableAPI_0.5.sol\":47113:47170  mstore(add(sessionKeyHash, 0x20), sessionKeyHash_bytes32) */\n      mstore\n        /* \"provableAPI_0.5.sol\":47191:47209  bytes memory delay */\n      0x60\n        /* \"provableAPI_0.5.sol\":47222:47224  32 */\n      0x20\n        /* \"provableAPI_0.5.sol\":47212:47225  new bytes(32) */\n      mload(0x40)\n      swap1\n      dup1\n      dup3\n      mstore\n      dup1\n      0x1f\n      add\n      not(0x1f)\n      and\n      0x20\n      add\n      dup3\n      add\n      0x40\n      mstore\n      dup1\n      iszero\n      tag_153\n      jumpi\n      dup2\n      0x20\n      add\n        /* \"--CODEGEN--\":29:30   */\n      0x01\n        /* \"--CODEGEN--\":21:27   */\n      dup3\n        /* \"--CODEGEN--\":17:31   */\n      mul\n        /* \"--CODEGEN--\":116:120   */\n      dup1\n        /* \"--CODEGEN--\":104:114   */\n      codesize\n        /* \"--CODEGEN--\":96:102   */\n      dup4\n        /* \"--CODEGEN--\":87:121   */\n      codecopy\n        /* \"--CODEGEN--\":147:151   */\n      dup1\n        /* \"--CODEGEN--\":139:145   */\n      dup3\n        /* \"--CODEGEN--\":135:152   */\n      add\n        /* \"--CODEGEN--\":125:152   */\n      swap2\n      pop\n        /* \"--CODEGEN--\":0:156   */\n      pop\n        /* \"provableAPI_0.5.sol\":47212:47225  new bytes(32) */\n      swap1\n      pop\n    tag_153:\n      pop\n        /* \"provableAPI_0.5.sol\":47191:47225  bytes memory delay = new bytes(32) */\n      swap1\n      pop\n        /* \"provableAPI_0.5.sol\":47285:47291  _delay */\n      dup9\n        /* \"provableAPI_0.5.sol\":47278:47282  0x20 */\n      0x20\n        /* \"provableAPI_0.5.sol\":47271:47276  delay */\n      dup3\n        /* \"provableAPI_0.5.sol\":47267:47283  add(delay, 0x20) */\n      add\n        /* \"provableAPI_0.5.sol\":47260:47292  mstore(add(delay, 0x20), _delay) */\n      mstore\n        /* \"provableAPI_0.5.sol\":47313:47338  bytes memory delay_bytes8 */\n      0x60\n        /* \"provableAPI_0.5.sol\":47351:47352  8 */\n      0x08\n        /* \"provableAPI_0.5.sol\":47341:47353  new bytes(8) */\n      mload(0x40)\n      swap1\n      dup1\n      dup3\n      mstore\n      dup1\n      0x1f\n      add\n      not(0x1f)\n      and\n      0x20\n      add\n      dup3\n      add\n      0x40\n      mstore\n      dup1\n      iszero\n      tag_154\n      jumpi\n      dup2\n      0x20\n      add\n        /* \"--CODEGEN--\":29:30   */\n      0x01\n        /* \"--CODEGEN--\":21:27   */\n      dup3\n        /* \"--CODEGEN--\":17:31   */\n      mul\n        /* \"--CODEGEN--\":116:120   */\n      dup1\n        /* \"--CODEGEN--\":104:114   */\n      codesize\n        /* \"--CODEGEN--\":96:102   */\n      dup4\n        /* \"--CODEGEN--\":87:121   */\n      codecopy\n        /* \"--CODEGEN--\":147:151   */\n      dup1\n        /* \"--CODEGEN--\":139:145   */\n      dup3\n        /* \"--CODEGEN--\":135:152   */\n      add\n        /* \"--CODEGEN--\":125:152   */\n      swap2\n      pop\n        /* \"--CODEGEN--\":0:156   */\n      pop\n        /* \"provableAPI_0.5.sol\":47341:47353  new bytes(8) */\n      swap1\n      pop\n    tag_154:\n      pop\n        /* \"provableAPI_0.5.sol\":47313:47353  bytes memory delay_bytes8 = new bytes(8) */\n      swap1\n      pop\n        /* \"provableAPI_0.5.sol\":47364:47404  copyBytes(delay, 24, 8, delay_bytes8, 0) */\n      tag_155\n        /* \"provableAPI_0.5.sol\":47374:47379  delay */\n      dup3\n        /* \"provableAPI_0.5.sol\":47381:47383  24 */\n      0x18\n        /* \"provableAPI_0.5.sol\":47385:47386  8 */\n      0x08\n        /* \"provableAPI_0.5.sol\":47388:47400  delay_bytes8 */\n      dup5\n        /* \"provableAPI_0.5.sol\":47402:47403  0 */\n      0x00\n        /* \"provableAPI_0.5.sol\":47364:47373  copyBytes */\n      tag_156\n        /* \"provableAPI_0.5.sol\":47364:47404  copyBytes(delay, 24, 8, delay_bytes8, 0) */\n      jump\t// in\n    tag_155:\n      pop\n        /* \"provableAPI_0.5.sol\":47415:47435  bytes[4] memory args */\n      tag_157\n      tag_158\n      jump\t// in\n    tag_157:\n        /* \"provableAPI_0.5.sol\":47415:47477  bytes[4] memory args = [unonce, nbytes, sessionKeyHash, delay] */\n      mload(0x40)\n      dup1\n      0x80\n      add\n      0x40\n      mstore\n      dup1\n        /* \"provableAPI_0.5.sol\":47439:47445  unonce */\n      dup8\n        /* \"provableAPI_0.5.sol\":47415:47477  bytes[4] memory args = [unonce, nbytes, sessionKeyHash, delay] */\n      dup2\n      mstore\n      0x20\n      add\n        /* \"provableAPI_0.5.sol\":47447:47453  nbytes */\n      dup9\n        /* \"provableAPI_0.5.sol\":47415:47477  bytes[4] memory args = [unonce, nbytes, sessionKeyHash, delay] */\n      dup2\n      mstore\n      0x20\n      add\n        /* \"provableAPI_0.5.sol\":47455:47469  sessionKeyHash */\n      dup7\n        /* \"provableAPI_0.5.sol\":47415:47477  bytes[4] memory args = [unonce, nbytes, sessionKeyHash, delay] */\n      dup2\n      mstore\n      0x20\n      add\n        /* \"provableAPI_0.5.sol\":47471:47476  delay */\n      dup5\n        /* \"provableAPI_0.5.sol\":47415:47477  bytes[4] memory args = [unonce, nbytes, sessionKeyHash, delay] */\n      dup2\n      mstore\n      pop\n      swap1\n      pop\n        /* \"provableAPI_0.5.sol\":47488:47503  bytes32 queryId */\n      0x00\n        /* \"provableAPI_0.5.sol\":47506:47553  provable_query(\"random\", args, _customGasLimit) */\n      tag_159\n      mload(0x40)\n      dup1\n      0x40\n      add\n      0x40\n      mstore\n      dup1\n      0x06\n      dup2\n      mstore\n      0x20\n      add\n      0x72616e646f6d0000000000000000000000000000000000000000000000000000\n      dup2\n      mstore\n      pop\n        /* \"provableAPI_0.5.sol\":47531:47535  args */\n      dup4\n        /* \"provableAPI_0.5.sol\":47537:47552  _customGasLimit */\n      dup13\n        /* \"provableAPI_0.5.sol\":47506:47520  provable_query */\n      tag_160\n        /* \"provableAPI_0.5.sol\":47506:47553  provable_query(\"random\", args, _customGasLimit) */\n      jump\t// in\n    tag_159:\n        /* \"provableAPI_0.5.sol\":47488:47553  bytes32 queryId = provable_query(\"random\", args, _customGasLimit) */\n      swap1\n      pop\n        /* \"provableAPI_0.5.sol\":47564:47594  bytes memory delay_bytes8_left */\n      0x60\n        /* \"provableAPI_0.5.sol\":47607:47608  8 */\n      0x08\n        /* \"provableAPI_0.5.sol\":47597:47609  new bytes(8) */\n      mload(0x40)\n      swap1\n      dup1\n      dup3\n      mstore\n      dup1\n      0x1f\n      add\n      not(0x1f)\n      and\n      0x20\n      add\n      dup3\n      add\n      0x40\n      mstore\n      dup1\n      iszero\n      tag_161\n      jumpi\n      dup2\n      0x20\n      add\n        /* \"--CODEGEN--\":29:30   */\n      0x01\n        /* \"--CODEGEN--\":21:27   */\n      dup3\n        /* \"--CODEGEN--\":17:31   */\n      mul\n        /* \"--CODEGEN--\":116:120   */\n      dup1\n        /* \"--CODEGEN--\":104:114   */\n      codesize\n        /* \"--CODEGEN--\":96:102   */\n      dup4\n        /* \"--CODEGEN--\":87:121   */\n      codecopy\n        /* \"--CODEGEN--\":147:151   */\n      dup1\n        /* \"--CODEGEN--\":139:145   */\n      dup3\n        /* \"--CODEGEN--\":135:152   */\n      add\n        /* \"--CODEGEN--\":125:152   */\n      swap2\n      pop\n        /* \"--CODEGEN--\":0:156   */\n      pop\n        /* \"provableAPI_0.5.sol\":47597:47609  new bytes(8) */\n      swap1\n      pop\n    tag_161:\n      pop\n        /* \"provableAPI_0.5.sol\":47564:47609  bytes memory delay_bytes8_left = new bytes(8) */\n      swap1\n      pop\n        /* \"provableAPI_0.5.sol\":47677:47681  0x20 */\n      0x20\n        /* \"provableAPI_0.5.sol\":47663:47675  delay_bytes8 */\n      dup5\n        /* \"provableAPI_0.5.sol\":47659:47682  add(delay_bytes8, 0x20) */\n      add\n        /* \"provableAPI_0.5.sol\":47653:47683  mload(add(delay_bytes8, 0x20)) */\n      mload\n        /* \"provableAPI_0.5.sol\":47742:47807  0x100000000000000000000000000000000000000000000000000000000000000 */\n      0x0100000000000000000000000000000000000000000000000000000000000000\n        /* \"provableAPI_0.5.sol\":47739:47740  x */\n      dup2\n        /* \"provableAPI_0.5.sol\":47735:47808  div(x, 0x100000000000000000000000000000000000000000000000000000000000000) */\n      div\n        /* \"provableAPI_0.5.sol\":47728:47732  0x27 */\n      0x27\n        /* \"provableAPI_0.5.sol\":47709:47726  delay_bytes8_left */\n      dup4\n        /* \"provableAPI_0.5.sol\":47705:47733  add(delay_bytes8_left, 0x27) */\n      add\n        /* \"provableAPI_0.5.sol\":47697:47809  mstore8(add(delay_bytes8_left, 0x27), div(x, 0x100000000000000000000000000000000000000000000000000000000000000)) */\n      mstore8\n        /* \"provableAPI_0.5.sol\":47868:47931  0x1000000000000000000000000000000000000000000000000000000000000 */\n      0x01000000000000000000000000000000000000000000000000000000000000\n        /* \"provableAPI_0.5.sol\":47865:47866  x */\n      dup2\n        /* \"provableAPI_0.5.sol\":47861:47932  div(x, 0x1000000000000000000000000000000000000000000000000000000000000) */\n      div\n        /* \"provableAPI_0.5.sol\":47854:47858  0x26 */\n      0x26\n        /* \"provableAPI_0.5.sol\":47835:47852  delay_bytes8_left */\n      dup4\n        /* \"provableAPI_0.5.sol\":47831:47859  add(delay_bytes8_left, 0x26) */\n      add\n        /* \"provableAPI_0.5.sol\":47823:47933  mstore8(add(delay_bytes8_left, 0x26), div(x, 0x1000000000000000000000000000000000000000000000000000000000000)) */\n      mstore8\n        /* \"provableAPI_0.5.sol\":47992:48053  0x10000000000000000000000000000000000000000000000000000000000 */\n      0x010000000000000000000000000000000000000000000000000000000000\n        /* \"provableAPI_0.5.sol\":47989:47990  x */\n      dup2\n        /* \"provableAPI_0.5.sol\":47985:48054  div(x, 0x10000000000000000000000000000000000000000000000000000000000) */\n      div\n        /* \"provableAPI_0.5.sol\":47978:47982  0x25 */\n      0x25\n        /* \"provableAPI_0.5.sol\":47959:47976  delay_bytes8_left */\n      dup4\n        /* \"provableAPI_0.5.sol\":47955:47983  add(delay_bytes8_left, 0x25) */\n      add\n        /* \"provableAPI_0.5.sol\":47947:48055  mstore8(add(delay_bytes8_left, 0x25), div(x, 0x10000000000000000000000000000000000000000000000000000000000)) */\n      mstore8\n        /* \"provableAPI_0.5.sol\":48114:48173  0x100000000000000000000000000000000000000000000000000000000 */\n      0x0100000000000000000000000000000000000000000000000000000000\n        /* \"provableAPI_0.5.sol\":48111:48112  x */\n      dup2\n        /* \"provableAPI_0.5.sol\":48107:48174  div(x, 0x100000000000000000000000000000000000000000000000000000000) */\n      div\n        /* \"provableAPI_0.5.sol\":48100:48104  0x24 */\n      0x24\n        /* \"provableAPI_0.5.sol\":48081:48098  delay_bytes8_left */\n      dup4\n        /* \"provableAPI_0.5.sol\":48077:48105  add(delay_bytes8_left, 0x24) */\n      add\n        /* \"provableAPI_0.5.sol\":48069:48175  mstore8(add(delay_bytes8_left, 0x24), div(x, 0x100000000000000000000000000000000000000000000000000000000)) */\n      mstore8\n        /* \"provableAPI_0.5.sol\":48234:48291  0x1000000000000000000000000000000000000000000000000000000 */\n      0x01000000000000000000000000000000000000000000000000000000\n        /* \"provableAPI_0.5.sol\":48231:48232  x */\n      dup2\n        /* \"provableAPI_0.5.sol\":48227:48292  div(x, 0x1000000000000000000000000000000000000000000000000000000) */\n      div\n        /* \"provableAPI_0.5.sol\":48220:48224  0x23 */\n      0x23\n        /* \"provableAPI_0.5.sol\":48201:48218  delay_bytes8_left */\n      dup4\n        /* \"provableAPI_0.5.sol\":48197:48225  add(delay_bytes8_left, 0x23) */\n      add\n        /* \"provableAPI_0.5.sol\":48189:48293  mstore8(add(delay_bytes8_left, 0x23), div(x, 0x1000000000000000000000000000000000000000000000000000000)) */\n      mstore8\n        /* \"provableAPI_0.5.sol\":48352:48407  0x10000000000000000000000000000000000000000000000000000 */\n      0x010000000000000000000000000000000000000000000000000000\n        /* \"provableAPI_0.5.sol\":48349:48350  x */\n      dup2\n        /* \"provableAPI_0.5.sol\":48345:48408  div(x, 0x10000000000000000000000000000000000000000000000000000) */\n      div\n        /* \"provableAPI_0.5.sol\":48338:48342  0x22 */\n      0x22\n        /* \"provableAPI_0.5.sol\":48319:48336  delay_bytes8_left */\n      dup4\n        /* \"provableAPI_0.5.sol\":48315:48343  add(delay_bytes8_left, 0x22) */\n      add\n        /* \"provableAPI_0.5.sol\":48307:48409  mstore8(add(delay_bytes8_left, 0x22), div(x, 0x10000000000000000000000000000000000000000000000000000)) */\n      mstore8\n        /* \"provableAPI_0.5.sol\":48468:48521  0x100000000000000000000000000000000000000000000000000 */\n      0x0100000000000000000000000000000000000000000000000000\n        /* \"provableAPI_0.5.sol\":48465:48466  x */\n      dup2\n        /* \"provableAPI_0.5.sol\":48461:48522  div(x, 0x100000000000000000000000000000000000000000000000000) */\n      div\n        /* \"provableAPI_0.5.sol\":48454:48458  0x21 */\n      0x21\n        /* \"provableAPI_0.5.sol\":48435:48452  delay_bytes8_left */\n      dup4\n        /* \"provableAPI_0.5.sol\":48431:48459  add(delay_bytes8_left, 0x21) */\n      add\n        /* \"provableAPI_0.5.sol\":48423:48523  mstore8(add(delay_bytes8_left, 0x21), div(x, 0x100000000000000000000000000000000000000000000000000)) */\n      mstore8\n        /* \"provableAPI_0.5.sol\":48582:48633  0x1000000000000000000000000000000000000000000000000 */\n      0x01000000000000000000000000000000000000000000000000\n        /* \"provableAPI_0.5.sol\":48579:48580  x */\n      dup2\n        /* \"provableAPI_0.5.sol\":48575:48634  div(x, 0x1000000000000000000000000000000000000000000000000) */\n      div\n        /* \"provableAPI_0.5.sol\":48568:48572  0x20 */\n      0x20\n        /* \"provableAPI_0.5.sol\":48549:48566  delay_bytes8_left */\n      dup4\n        /* \"provableAPI_0.5.sol\":48545:48573  add(delay_bytes8_left, 0x20) */\n      add\n        /* \"provableAPI_0.5.sol\":48537:48635  mstore8(add(delay_bytes8_left, 0x20), div(x, 0x1000000000000000000000000000000000000000000000000)) */\n      mstore8\n        /* \"provableAPI_0.5.sol\":47629:48646  {\r... */\n      pop\n        /* \"provableAPI_0.5.sol\":48656:48779  provable_randomDS_setCommitment(queryId, keccak256(abi.encodePacked(delay_bytes8_left, args[1], sha256(args[0]), args[2]))) */\n      tag_162\n        /* \"provableAPI_0.5.sol\":48688:48695  queryId */\n      dup3\n        /* \"provableAPI_0.5.sol\":48724:48741  delay_bytes8_left */\n      dup3\n        /* \"provableAPI_0.5.sol\":48743:48747  args */\n      dup6\n        /* \"provableAPI_0.5.sol\":48748:48749  1 */\n      0x01\n        /* \"provableAPI_0.5.sol\":48743:48750  args[1] */\n      0x04\n      dup2\n      lt\n      tag_163\n      jumpi\n      invalid\n    tag_163:\n      0x20\n      mul\n      add\n      mload\n        /* \"provableAPI_0.5.sol\":48752:48767  sha256(args[0]) */\n      0x02\n        /* \"provableAPI_0.5.sol\":48759:48763  args */\n      dup8\n        /* \"provableAPI_0.5.sol\":48764:48765  0 */\n      0x00\n        /* \"provableAPI_0.5.sol\":48759:48766  args[0] */\n      0x04\n      dup2\n      lt\n      tag_164\n      jumpi\n      invalid\n    tag_164:\n      0x20\n      mul\n      add\n      mload\n        /* \"provableAPI_0.5.sol\":48752:48767  sha256(args[0]) */\n      mload(0x40)\n      dup1\n      dup3\n      dup1\n      mload\n      swap1\n      0x20\n      add\n      swap1\n      dup1\n      dup4\n      dup4\n        /* \"--CODEGEN--\":36:189   */\n    tag_165:\n        /* \"--CODEGEN--\":66:68   */\n      0x20\n        /* \"--CODEGEN--\":61:64   */\n      dup4\n        /* \"--CODEGEN--\":58:69   */\n      lt\n        /* \"--CODEGEN--\":36:189   */\n      tag_167\n      jumpi\n        /* \"--CODEGEN--\":182:185   */\n      dup1\n        /* \"--CODEGEN--\":176:186   */\n      mload\n        /* \"--CODEGEN--\":171:174   */\n      dup3\n        /* \"--CODEGEN--\":164:187   */\n      mstore\n        /* \"--CODEGEN--\":98:100   */\n      0x20\n        /* \"--CODEGEN--\":93:96   */\n      dup3\n        /* \"--CODEGEN--\":89:101   */\n      add\n        /* \"--CODEGEN--\":82:101   */\n      swap2\n      pop\n        /* \"--CODEGEN--\":123:125   */\n      0x20\n        /* \"--CODEGEN--\":118:121   */\n      dup2\n        /* \"--CODEGEN--\":114:126   */\n      add\n        /* \"--CODEGEN--\":107:126   */\n      swap1\n      pop\n        /* \"--CODEGEN--\":148:150   */\n      0x20\n        /* \"--CODEGEN--\":143:146   */\n      dup4\n        /* \"--CODEGEN--\":139:151   */\n      sub\n        /* \"--CODEGEN--\":132:151   */\n      swap3\n      pop\n        /* \"--CODEGEN--\":36:189   */\n      jump(tag_165)\n    tag_167:\n        /* \"--CODEGEN--\":274:275   */\n      0x01\n        /* \"--CODEGEN--\":267:270   */\n      dup4\n        /* \"--CODEGEN--\":263:265   */\n      0x20\n        /* \"--CODEGEN--\":259:271   */\n      sub\n        /* \"--CODEGEN--\":254:257   */\n      0x0100\n        /* \"--CODEGEN--\":250:272   */\n      exp\n        /* \"--CODEGEN--\":246:276   */\n      sub\n        /* \"--CODEGEN--\":315:319   */\n      dup1\n        /* \"--CODEGEN--\":311:320   */\n      not\n        /* \"--CODEGEN--\":305:308   */\n      dup3\n        /* \"--CODEGEN--\":299:309   */\n      mload\n        /* \"--CODEGEN--\":295:321   */\n      and\n        /* \"--CODEGEN--\":356:360   */\n      dup2\n        /* \"--CODEGEN--\":350:353   */\n      dup5\n        /* \"--CODEGEN--\":344:354   */\n      mload\n        /* \"--CODEGEN--\":340:361   */\n      and\n        /* \"--CODEGEN--\":389:396   */\n      dup1\n        /* \"--CODEGEN--\":380:387   */\n      dup3\n        /* \"--CODEGEN--\":377:397   */\n      or\n        /* \"--CODEGEN--\":372:375   */\n      dup6\n        /* \"--CODEGEN--\":365:398   */\n      mstore\n        /* \"--CODEGEN--\":3:402   */\n      pop\n      pop\n      pop\n        /* \"provableAPI_0.5.sol\":48752:48767  sha256(args[0]) */\n      pop\n      pop\n      pop\n      swap1\n      pop\n      add\n      swap2\n      pop\n      pop\n      0x20\n      mload(0x40)\n      dup1\n      dup4\n      sub\n      dup2\n      dup6\n      gas\n      staticcall\n      iszero\n        /* \"--CODEGEN--\":8:17   */\n      dup1\n        /* \"--CODEGEN--\":5:7   */\n      iszero\n      tag_168\n      jumpi\n        /* \"--CODEGEN--\":45:61   */\n      returndatasize\n        /* \"--CODEGEN--\":42:43   */\n      0x00\n        /* \"--CODEGEN--\":39:40   */\n      dup1\n        /* \"--CODEGEN--\":24:62   */\n      returndatacopy\n        /* \"--CODEGEN--\":77:93   */\n      returndatasize\n        /* \"--CODEGEN--\":74:75   */\n      0x00\n        /* \"--CODEGEN--\":67:94   */\n      revert\n        /* \"--CODEGEN--\":5:7   */\n    tag_168:\n        /* \"provableAPI_0.5.sol\":48752:48767  sha256(args[0]) */\n      pop\n      pop\n      pop\n      mload(0x40)\n      returndatasize\n        /* \"--CODEGEN--\":13:15   */\n      0x20\n        /* \"--CODEGEN--\":8:11   */\n      dup2\n        /* \"--CODEGEN--\":5:16   */\n      lt\n        /* \"--CODEGEN--\":2:4   */\n      iszero\n      tag_169\n      jumpi\n        /* \"--CODEGEN--\":29:30   */\n      0x00\n        /* \"--CODEGEN--\":26:27   */\n      dup1\n        /* \"--CODEGEN--\":19:31   */\n      revert\n        /* \"--CODEGEN--\":2:4   */\n    tag_169:\n        /* \"provableAPI_0.5.sol\":48752:48767  sha256(args[0]) */\n      dup2\n      add\n      swap1\n      dup1\n      dup1\n      mload\n      swap1\n      0x20\n      add\n      swap1\n      swap3\n      swap2\n      swap1\n      pop\n      pop\n      pop\n        /* \"provableAPI_0.5.sol\":48769:48773  args */\n      dup8\n        /* \"provableAPI_0.5.sol\":48774:48775  2 */\n      0x02\n        /* \"provableAPI_0.5.sol\":48769:48776  args[2] */\n      0x04\n      dup2\n      lt\n      tag_170\n      jumpi\n      invalid\n    tag_170:\n      0x20\n      mul\n      add\n      mload\n        /* \"provableAPI_0.5.sol\":48707:48777  abi.encodePacked(delay_bytes8_left, args[1], sha256(args[0]), args[2]) */\n      add(0x20, mload(0x40))\n      dup1\n      dup6\n      dup1\n      mload\n      swap1\n      0x20\n      add\n      swap1\n      dup1\n      dup4\n      dup4\n        /* \"--CODEGEN--\":36:189   */\n    tag_171:\n        /* \"--CODEGEN--\":66:68   */\n      0x20\n        /* \"--CODEGEN--\":61:64   */\n      dup4\n        /* \"--CODEGEN--\":58:69   */\n      lt\n        /* \"--CODEGEN--\":36:189   */\n      tag_173\n      jumpi\n        /* \"--CODEGEN--\":182:185   */\n      dup1\n        /* \"--CODEGEN--\":176:186   */\n      mload\n        /* \"--CODEGEN--\":171:174   */\n      dup3\n        /* \"--CODEGEN--\":164:187   */\n      mstore\n        /* \"--CODEGEN--\":98:100   */\n      0x20\n        /* \"--CODEGEN--\":93:96   */\n      dup3\n        /* \"--CODEGEN--\":89:101   */\n      add\n        /* \"--CODEGEN--\":82:101   */\n      swap2\n      pop\n        /* \"--CODEGEN--\":123:125   */\n      0x20\n        /* \"--CODEGEN--\":118:121   */\n      dup2\n        /* \"--CODEGEN--\":114:126   */\n      add\n        /* \"--CODEGEN--\":107:126   */\n      swap1\n      pop\n        /* \"--CODEGEN--\":148:150   */\n      0x20\n        /* \"--CODEGEN--\":143:146   */\n      dup4\n        /* \"--CODEGEN--\":139:151   */\n      sub\n        /* \"--CODEGEN--\":132:151   */\n      swap3\n      pop\n        /* \"--CODEGEN--\":36:189   */\n      jump(tag_171)\n    tag_173:\n        /* \"--CODEGEN--\":274:275   */\n      0x01\n        /* \"--CODEGEN--\":267:270   */\n      dup4\n        /* \"--CODEGEN--\":263:265   */\n      0x20\n        /* \"--CODEGEN--\":259:271   */\n      sub\n        /* \"--CODEGEN--\":254:257   */\n      0x0100\n        /* \"--CODEGEN--\":250:272   */\n      exp\n        /* \"--CODEGEN--\":246:276   */\n      sub\n        /* \"--CODEGEN--\":315:319   */\n      dup1\n        /* \"--CODEGEN--\":311:320   */\n      not\n        /* \"--CODEGEN--\":305:308   */\n      dup3\n        /* \"--CODEGEN--\":299:309   */\n      mload\n        /* \"--CODEGEN--\":295:321   */\n      and\n        /* \"--CODEGEN--\":356:360   */\n      dup2\n        /* \"--CODEGEN--\":350:353   */\n      dup5\n        /* \"--CODEGEN--\":344:354   */\n      mload\n        /* \"--CODEGEN--\":340:361   */\n      and\n        /* \"--CODEGEN--\":389:396   */\n      dup1\n        /* \"--CODEGEN--\":380:387   */\n      dup3\n        /* \"--CODEGEN--\":377:397   */\n      or\n        /* \"--CODEGEN--\":372:375   */\n      dup6\n        /* \"--CODEGEN--\":365:398   */\n      mstore\n        /* \"--CODEGEN--\":3:402   */\n      pop\n      pop\n      pop\n        /* \"provableAPI_0.5.sol\":48707:48777  abi.encodePacked(delay_bytes8_left, args[1], sha256(args[0]), args[2]) */\n      pop\n      pop\n      pop\n      swap1\n      pop\n      add\n      dup5\n      dup1\n      mload\n      swap1\n      0x20\n      add\n      swap1\n      dup1\n      dup4\n      dup4\n        /* \"--CODEGEN--\":36:189   */\n    tag_174:\n        /* \"--CODEGEN--\":66:68   */\n      0x20\n        /* \"--CODEGEN--\":61:64   */\n      dup4\n        /* \"--CODEGEN--\":58:69   */\n      lt\n        /* \"--CODEGEN--\":36:189   */\n      tag_176\n      jumpi\n        /* \"--CODEGEN--\":182:185   */\n      dup1\n        /* \"--CODEGEN--\":176:186   */\n      mload\n        /* \"--CODEGEN--\":171:174   */\n      dup3\n        /* \"--CODEGEN--\":164:187   */\n      mstore\n        /* \"--CODEGEN--\":98:100   */\n      0x20\n        /* \"--CODEGEN--\":93:96   */\n      dup3\n        /* \"--CODEGEN--\":89:101   */\n      add\n        /* \"--CODEGEN--\":82:101   */\n      swap2\n      pop\n        /* \"--CODEGEN--\":123:125   */\n      0x20\n        /* \"--CODEGEN--\":118:121   */\n      dup2\n        /* \"--CODEGEN--\":114:126   */\n      add\n        /* \"--CODEGEN--\":107:126   */\n      swap1\n      pop\n        /* \"--CODEGEN--\":148:150   */\n      0x20\n        /* \"--CODEGEN--\":143:146   */\n      dup4\n        /* \"--CODEGEN--\":139:151   */\n      sub\n        /* \"--CODEGEN--\":132:151   */\n      swap3\n      pop\n        /* \"--CODEGEN--\":36:189   */\n      jump(tag_174)\n    tag_176:\n        /* \"--CODEGEN--\":274:275   */\n      0x01\n        /* \"--CODEGEN--\":267:270   */\n      dup4\n        /* \"--CODEGEN--\":263:265   */\n      0x20\n        /* \"--CODEGEN--\":259:271   */\n      sub\n        /* \"--CODEGEN--\":254:257   */\n      0x0100\n        /* \"--CODEGEN--\":250:272   */\n      exp\n        /* \"--CODEGEN--\":246:276   */\n      sub\n        /* \"--CODEGEN--\":315:319   */\n      dup1\n        /* \"--CODEGEN--\":311:320   */\n      not\n        /* \"--CODEGEN--\":305:308   */\n      dup3\n        /* \"--CODEGEN--\":299:309   */\n      mload\n        /* \"--CODEGEN--\":295:321   */\n      and\n        /* \"--CODEGEN--\":356:360   */\n      dup2\n        /* \"--CODEGEN--\":350:353   */\n      dup5\n        /* \"--CODEGEN--\":344:354   */\n      mload\n        /* \"--CODEGEN--\":340:361   */\n      and\n        /* \"--CODEGEN--\":389:396   */\n      dup1\n        /* \"--CODEGEN--\":380:387   */\n      dup3\n        /* \"--CODEGEN--\":377:397   */\n      or\n        /* \"--CODEGEN--\":372:375   */\n      dup6\n        /* \"--CODEGEN--\":365:398   */\n      mstore\n        /* \"--CODEGEN--\":3:402   */\n      pop\n      pop\n      pop\n        /* \"provableAPI_0.5.sol\":48707:48777  abi.encodePacked(delay_bytes8_left, args[1], sha256(args[0]), args[2]) */\n      pop\n      pop\n      pop\n      swap1\n      pop\n      add\n      dup4\n      dup2\n      mstore\n      0x20\n      add\n      dup3\n      dup1\n      mload\n      swap1\n      0x20\n      add\n      swap1\n      dup1\n      dup4\n      dup4\n        /* \"--CODEGEN--\":36:189   */\n    tag_177:\n        /* \"--CODEGEN--\":66:68   */\n      0x20\n        /* \"--CODEGEN--\":61:64   */\n      dup4\n        /* \"--CODEGEN--\":58:69   */\n      lt\n        /* \"--CODEGEN--\":36:189   */\n      tag_179\n      jumpi\n        /* \"--CODEGEN--\":182:185   */\n      dup1\n        /* \"--CODEGEN--\":176:186   */\n      mload\n        /* \"--CODEGEN--\":171:174   */\n      dup3\n        /* \"--CODEGEN--\":164:187   */\n      mstore\n        /* \"--CODEGEN--\":98:100   */\n      0x20\n        /* \"--CODEGEN--\":93:96   */\n      dup3\n        /* \"--CODEGEN--\":89:101   */\n      add\n        /* \"--CODEGEN--\":82:101   */\n      swap2\n      pop\n        /* \"--CODEGEN--\":123:125   */\n      0x20\n        /* \"--CODEGEN--\":118:121   */\n      dup2\n        /* \"--CODEGEN--\":114:126   */\n      add\n        /* \"--CODEGEN--\":107:126   */\n      swap1\n      pop\n        /* \"--CODEGEN--\":148:150   */\n      0x20\n        /* \"--CODEGEN--\":143:146   */\n      dup4\n        /* \"--CODEGEN--\":139:151   */\n      sub\n        /* \"--CODEGEN--\":132:151   */\n      swap3\n      pop\n        /* \"--CODEGEN--\":36:189   */\n      jump(tag_177)\n    tag_179:\n        /* \"--CODEGEN--\":274:275   */\n      0x01\n        /* \"--CODEGEN--\":267:270   */\n      dup4\n        /* \"--CODEGEN--\":263:265   */\n      0x20\n        /* \"--CODEGEN--\":259:271   */\n      sub\n        /* \"--CODEGEN--\":254:257   */\n      0x0100\n        /* \"--CODEGEN--\":250:272   */\n      exp\n        /* \"--CODEGEN--\":246:276   */\n      sub\n        /* \"--CODEGEN--\":315:319   */\n      dup1\n        /* \"--CODEGEN--\":311:320   */\n      not\n        /* \"--CODEGEN--\":305:308   */\n      dup3\n        /* \"--CODEGEN--\":299:309   */\n      mload\n        /* \"--CODEGEN--\":295:321   */\n      and\n        /* \"--CODEGEN--\":356:360   */\n      dup2\n        /* \"--CODEGEN--\":350:353   */\n      dup5\n        /* \"--CODEGEN--\":344:354   */\n      mload\n        /* \"--CODEGEN--\":340:361   */\n      and\n        /* \"--CODEGEN--\":389:396   */\n      dup1\n        /* \"--CODEGEN--\":380:387   */\n      dup3\n        /* \"--CODEGEN--\":377:397   */\n      or\n        /* \"--CODEGEN--\":372:375   */\n      dup6\n        /* \"--CODEGEN--\":365:398   */\n      mstore\n        /* \"--CODEGEN--\":3:402   */\n      pop\n      pop\n      pop\n        /* \"provableAPI_0.5.sol\":48707:48777  abi.encodePacked(delay_bytes8_left, args[1], sha256(args[0]), args[2]) */\n      pop\n      pop\n      pop\n      swap1\n      pop\n      add\n      swap5\n      pop\n      pop\n      pop\n      pop\n      pop\n      mload(0x40)\n        /* \"--CODEGEN--\":49:53   */\n      0x20\n        /* \"--CODEGEN--\":39:46   */\n      dup2\n        /* \"--CODEGEN--\":30:37   */\n      dup4\n        /* \"--CODEGEN--\":26:47   */\n      sub\n        /* \"--CODEGEN--\":22:54   */\n      sub\n        /* \"--CODEGEN--\":13:20   */\n      dup2\n        /* \"--CODEGEN--\":6:55   */\n      mstore\n        /* \"provableAPI_0.5.sol\":48707:48777  abi.encodePacked(delay_bytes8_left, args[1], sha256(args[0]), args[2]) */\n      swap1\n      0x40\n      mstore\n        /* \"provableAPI_0.5.sol\":48697:48778  keccak256(abi.encodePacked(delay_bytes8_left, args[1], sha256(args[0]), args[2])) */\n      dup1\n      mload\n      swap1\n      0x20\n      add\n      keccak256\n        /* \"provableAPI_0.5.sol\":48656:48687  provable_randomDS_setCommitment */\n      tag_180\n        /* \"provableAPI_0.5.sol\":48656:48779  provable_randomDS_setCommitment(queryId, keccak256(abi.encodePacked(delay_bytes8_left, args[1], sha256(args[0]), args[2]))) */\n      jump\t// in\n    tag_162:\n        /* \"provableAPI_0.5.sol\":48797:48804  queryId */\n      dup2\n        /* \"provableAPI_0.5.sol\":48790:48804  return queryId */\n      swap10\n      pop\n      pop\n      pop\n      pop\n      pop\n      pop\n      pop\n      pop\n      pop\n      pop\n        /* \"provableAPI_0.5.sol\":46129:48812  function provable_newRandomDSQuery(uint _delay, uint _nbytes, uint _customGasLimit) internal returns (bytes32 _queryId) {\r... */\n      swap4\n      swap3\n      pop\n      pop\n      pop\n      jump\t// out\n        /* \"provableAPI_0.5.sol\":38196:38347  function getCodeSize(address _addr) view internal returns (uint _size) {\r... */\n    tag_117:\n        /* \"provableAPI_0.5.sol\":38255:38265  uint _size */\n      0x00\n        /* \"provableAPI_0.5.sol\":38323:38328  _addr */\n      dup2\n        /* \"provableAPI_0.5.sol\":38311:38329  extcodesize(_addr) */\n      extcodesize\n        /* \"provableAPI_0.5.sol\":38302:38329  _size := extcodesize(_addr) */\n      swap1\n      pop\n        /* \"provableAPI_0.5.sol\":38287:38340  {\r... */\n      swap2\n      swap1\n      pop\n      jump\t// out\n        /* \"provableAPI_0.5.sol\":12912:13120  function provable_setNetwork(uint8 _networkID) internal returns (bool _networkSet) {\r... */\n    tag_120:\n        /* \"provableAPI_0.5.sol\":12977:12993  bool _networkSet */\n      0x00\n        /* \"provableAPI_0.5.sol\":13091:13112  provable_setNetwork() */\n      tag_183\n        /* \"provableAPI_0.5.sol\":13091:13110  provable_setNetwork */\n      tag_184\n        /* \"provableAPI_0.5.sol\":13091:13112  provable_setNetwork() */\n      jump\t// in\n    tag_183:\n        /* \"provableAPI_0.5.sol\":13084:13112  return provable_setNetwork() */\n      swap1\n      pop\n        /* \"provableAPI_0.5.sol\":12912:13120  function provable_setNetwork(uint8 _networkID) internal returns (bool _networkSet) {\r... */\n      swap2\n      swap1\n      pop\n      jump\t// out\n        /* \"provableAPI_0.5.sol\":13263:13396  function provable_getNetworkName() internal view returns (string memory _networkName) {\r... */\n    tag_141:\n        /* \"provableAPI_0.5.sol\":13321:13347  string memory _networkName */\n      0x60\n        /* \"provableAPI_0.5.sol\":13367:13388  provable_network_name */\n      0x02\n        /* \"provableAPI_0.5.sol\":13360:13388  return provable_network_name */\n      dup1\n      sload\n      0x01\n      dup2\n      0x01\n      and\n      iszero\n      0x0100\n      mul\n      sub\n      and\n      0x02\n      swap1\n      div\n      dup1\n      0x1f\n      add\n      0x20\n      dup1\n      swap2\n      div\n      mul\n      0x20\n      add\n      mload(0x40)\n      swap1\n      dup2\n      add\n      0x40\n      mstore\n      dup1\n      swap3\n      swap2\n      swap1\n      dup2\n      dup2\n      mstore\n      0x20\n      add\n      dup3\n      dup1\n      sload\n      0x01\n      dup2\n      0x01\n      and\n      iszero\n      0x0100\n      mul\n      sub\n      and\n      0x02\n      swap1\n      div\n      dup1\n      iszero\n      tag_186\n      jumpi\n      dup1\n      0x1f\n      lt\n      tag_187\n      jumpi\n      0x0100\n      dup1\n      dup4\n      sload\n      div\n      mul\n      dup4\n      mstore\n      swap2\n      0x20\n      add\n      swap2\n      jump(tag_186)\n    tag_187:\n      dup3\n      add\n      swap2\n      swap1\n      0x00\n      mstore\n      keccak256(0x00, 0x20)\n      swap1\n    tag_188:\n      dup2\n      sload\n      dup2\n      mstore\n      swap1\n      0x01\n      add\n      swap1\n      0x20\n      add\n      dup1\n      dup4\n      gt\n      tag_188\n      jumpi\n      dup3\n      swap1\n      sub\n      0x1f\n      and\n      dup3\n      add\n      swap2\n    tag_186:\n      pop\n      pop\n      pop\n      pop\n      pop\n      swap1\n      pop\n        /* \"provableAPI_0.5.sol\":13263:13396  function provable_getNetworkName() internal view returns (string memory _networkName) {\r... */\n      swap1\n      jump\t// out\n        /* \"provableAPI_0.5.sol\":52653:55444  function provable_randomDS_proofVerify__main(bytes memory _proof, bytes32 _queryId, bytes memory _result, string memory _contextName) internal returns (bool _proofVerified) {\r... */\n    tag_142:\n        /* \"provableAPI_0.5.sol\":52805:52824  bool _proofVerified */\n      0x00\n        /* \"provableAPI_0.5.sol\":52950:52972  uint ledgerProofLength */\n      dup1\n        /* \"provableAPI_0.5.sol\":53024:53026  32 */\n      0x20\n        /* \"provableAPI_0.5.sol\":53019:53020  2 */\n      0x02\n        /* \"provableAPI_0.5.sol\":52996:53002  _proof */\n      dup8\n        /* \"provableAPI_0.5.sol\":53003:53013  3 + 65 + 1 */\n      0x45\n        /* \"provableAPI_0.5.sol\":52996:53014  _proof[3 + 65 + 1] */\n      dup2\n      mload\n      dup2\n      lt\n      tag_190\n      jumpi\n      invalid\n    tag_190:\n      0x20\n      add\n      add\n      mload\n      0xf8\n      shr\n      0xf8\n      shl\n        /* \"provableAPI_0.5.sol\":52990:53015  uint8(_proof[3 + 65 + 1]) */\n      0xf8\n      shr\n        /* \"provableAPI_0.5.sol\":52985:53016  uint(uint8(_proof[3 + 65 + 1])) */\n      0xff\n      and\n        /* \"provableAPI_0.5.sol\":52985:53020  uint(uint8(_proof[3 + 65 + 1])) + 2 */\n      add\n        /* \"provableAPI_0.5.sol\":52975:52981  3 + 65 */\n      0x44\n        /* \"provableAPI_0.5.sol\":52975:53021  3 + 65 + (uint(uint8(_proof[3 + 65 + 1])) + 2) */\n      add\n        /* \"provableAPI_0.5.sol\":52975:53026  3 + 65 + (uint(uint8(_proof[3 + 65 + 1])) + 2) + 32 */\n      add\n        /* \"provableAPI_0.5.sol\":52950:53026  uint ledgerProofLength = 3 + 65 + (uint(uint8(_proof[3 + 65 + 1])) + 2) + 32 */\n      swap1\n      pop\n        /* \"provableAPI_0.5.sol\":53037:53057  bytes memory keyhash */\n      0x60\n        /* \"provableAPI_0.5.sol\":53070:53072  32 */\n      0x20\n        /* \"provableAPI_0.5.sol\":53060:53073  new bytes(32) */\n      mload(0x40)\n      swap1\n      dup1\n      dup3\n      mstore\n      dup1\n      0x1f\n      add\n      not(0x1f)\n      and\n      0x20\n      add\n      dup3\n      add\n      0x40\n      mstore\n      dup1\n      iszero\n      tag_191\n      jumpi\n      dup2\n      0x20\n      add\n        /* \"--CODEGEN--\":29:30   */\n      0x01\n        /* \"--CODEGEN--\":21:27   */\n      dup3\n        /* \"--CODEGEN--\":17:31   */\n      mul\n        /* \"--CODEGEN--\":116:120   */\n      dup1\n        /* \"--CODEGEN--\":104:114   */\n      codesize\n        /* \"--CODEGEN--\":96:102   */\n      dup4\n        /* \"--CODEGEN--\":87:121   */\n      codecopy\n        /* \"--CODEGEN--\":147:151   */\n      dup1\n        /* \"--CODEGEN--\":139:145   */\n      dup3\n        /* \"--CODEGEN--\":135:152   */\n      add\n        /* \"--CODEGEN--\":125:152   */\n      swap2\n      pop\n        /* \"--CODEGEN--\":0:156   */\n      pop\n        /* \"provableAPI_0.5.sol\":53060:53073  new bytes(32) */\n      swap1\n      pop\n    tag_191:\n      pop\n        /* \"provableAPI_0.5.sol\":53037:53073  bytes memory keyhash = new bytes(32) */\n      swap1\n      pop\n        /* \"provableAPI_0.5.sol\":53084:53136  copyBytes(_proof, ledgerProofLength, 32, keyhash, 0) */\n      tag_192\n        /* \"provableAPI_0.5.sol\":53094:53100  _proof */\n      dup8\n        /* \"provableAPI_0.5.sol\":53102:53119  ledgerProofLength */\n      dup4\n        /* \"provableAPI_0.5.sol\":53121:53123  32 */\n      0x20\n        /* \"provableAPI_0.5.sol\":53125:53132  keyhash */\n      dup5\n        /* \"provableAPI_0.5.sol\":53134:53135  0 */\n      0x00\n        /* \"provableAPI_0.5.sol\":53084:53093  copyBytes */\n      tag_156\n        /* \"provableAPI_0.5.sol\":53084:53136  copyBytes(_proof, ledgerProofLength, 32, keyhash, 0) */\n      jump\t// in\n    tag_192:\n      pop\n        /* \"provableAPI_0.5.sol\":53202:53250  sha256(abi.encodePacked(_contextName, _queryId)) */\n      0x02\n        /* \"provableAPI_0.5.sol\":53226:53238  _contextName */\n      dup5\n        /* \"provableAPI_0.5.sol\":53240:53248  _queryId */\n      dup8\n        /* \"provableAPI_0.5.sol\":53209:53249  abi.encodePacked(_contextName, _queryId) */\n      add(0x20, mload(0x40))\n      dup1\n      dup4\n      dup1\n      mload\n      swap1\n      0x20\n      add\n      swap1\n      dup1\n      dup4\n      dup4\n        /* \"--CODEGEN--\":36:189   */\n    tag_193:\n        /* \"--CODEGEN--\":66:68   */\n      0x20\n        /* \"--CODEGEN--\":61:64   */\n      dup4\n        /* \"--CODEGEN--\":58:69   */\n      lt\n        /* \"--CODEGEN--\":36:189   */\n      tag_195\n      jumpi\n        /* \"--CODEGEN--\":182:185   */\n      dup1\n        /* \"--CODEGEN--\":176:186   */\n      mload\n        /* \"--CODEGEN--\":171:174   */\n      dup3\n        /* \"--CODEGEN--\":164:187   */\n      mstore\n        /* \"--CODEGEN--\":98:100   */\n      0x20\n        /* \"--CODEGEN--\":93:96   */\n      dup3\n        /* \"--CODEGEN--\":89:101   */\n      add\n        /* \"--CODEGEN--\":82:101   */\n      swap2\n      pop\n        /* \"--CODEGEN--\":123:125   */\n      0x20\n        /* \"--CODEGEN--\":118:121   */\n      dup2\n        /* \"--CODEGEN--\":114:126   */\n      add\n        /* \"--CODEGEN--\":107:126   */\n      swap1\n      pop\n        /* \"--CODEGEN--\":148:150   */\n      0x20\n        /* \"--CODEGEN--\":143:146   */\n      dup4\n        /* \"--CODEGEN--\":139:151   */\n      sub\n        /* \"--CODEGEN--\":132:151   */\n      swap3\n      pop\n        /* \"--CODEGEN--\":36:189   */\n      jump(tag_193)\n    tag_195:\n        /* \"--CODEGEN--\":274:275   */\n      0x01\n        /* \"--CODEGEN--\":267:270   */\n      dup4\n        /* \"--CODEGEN--\":263:265   */\n      0x20\n        /* \"--CODEGEN--\":259:271   */\n      sub\n        /* \"--CODEGEN--\":254:257   */\n      0x0100\n        /* \"--CODEGEN--\":250:272   */\n      exp\n        /* \"--CODEGEN--\":246:276   */\n      sub\n        /* \"--CODEGEN--\":315:319   */\n      dup1\n        /* \"--CODEGEN--\":311:320   */\n      not\n        /* \"--CODEGEN--\":305:308   */\n      dup3\n        /* \"--CODEGEN--\":299:309   */\n      mload\n        /* \"--CODEGEN--\":295:321   */\n      and\n        /* \"--CODEGEN--\":356:360   */\n      dup2\n        /* \"--CODEGEN--\":350:353   */\n      dup5\n        /* \"--CODEGEN--\":344:354   */\n      mload\n        /* \"--CODEGEN--\":340:361   */\n      and\n        /* \"--CODEGEN--\":389:396   */\n      dup1\n        /* \"--CODEGEN--\":380:387   */\n      dup3\n        /* \"--CODEGEN--\":377:397   */\n      or\n        /* \"--CODEGEN--\":372:375   */\n      dup6\n        /* \"--CODEGEN--\":365:398   */\n      mstore\n        /* \"--CODEGEN--\":3:402   */\n      pop\n      pop\n      pop\n        /* \"provableAPI_0.5.sol\":53209:53249  abi.encodePacked(_contextName, _queryId) */\n      pop\n      pop\n      pop\n      swap1\n      pop\n      add\n      dup3\n      dup2\n      mstore\n      0x20\n      add\n      swap3\n      pop\n      pop\n      pop\n      mload(0x40)\n        /* \"--CODEGEN--\":49:53   */\n      0x20\n        /* \"--CODEGEN--\":39:46   */\n      dup2\n        /* \"--CODEGEN--\":30:37   */\n      dup4\n        /* \"--CODEGEN--\":26:47   */\n      sub\n        /* \"--CODEGEN--\":22:54   */\n      sub\n        /* \"--CODEGEN--\":13:20   */\n      dup2\n        /* \"--CODEGEN--\":6:55   */\n      mstore\n        /* \"provableAPI_0.5.sol\":53209:53249  abi.encodePacked(_contextName, _queryId) */\n      swap1\n      0x40\n      mstore\n        /* \"provableAPI_0.5.sol\":53202:53250  sha256(abi.encodePacked(_contextName, _queryId)) */\n      mload(0x40)\n      dup1\n      dup3\n      dup1\n      mload\n      swap1\n      0x20\n      add\n      swap1\n      dup1\n      dup4\n      dup4\n        /* \"--CODEGEN--\":36:189   */\n    tag_196:\n        /* \"--CODEGEN--\":66:68   */\n      0x20\n        /* \"--CODEGEN--\":61:64   */\n      dup4\n        /* \"--CODEGEN--\":58:69   */\n      lt\n        /* \"--CODEGEN--\":36:189   */\n      tag_198\n      jumpi\n        /* \"--CODEGEN--\":182:185   */\n      dup1\n        /* \"--CODEGEN--\":176:186   */\n      mload\n        /* \"--CODEGEN--\":171:174   */\n      dup3\n        /* \"--CODEGEN--\":164:187   */\n      mstore\n        /* \"--CODEGEN--\":98:100   */\n      0x20\n        /* \"--CODEGEN--\":93:96   */\n      dup3\n        /* \"--CODEGEN--\":89:101   */\n      add\n        /* \"--CODEGEN--\":82:101   */\n      swap2\n      pop\n        /* \"--CODEGEN--\":123:125   */\n      0x20\n        /* \"--CODEGEN--\":118:121   */\n      dup2\n        /* \"--CODEGEN--\":114:126   */\n      add\n        /* \"--CODEGEN--\":107:126   */\n      swap1\n      pop\n        /* \"--CODEGEN--\":148:150   */\n      0x20\n        /* \"--CODEGEN--\":143:146   */\n      dup4\n        /* \"--CODEGEN--\":139:151   */\n      sub\n        /* \"--CODEGEN--\":132:151   */\n      swap3\n      pop\n        /* \"--CODEGEN--\":36:189   */\n      jump(tag_196)\n    tag_198:\n        /* \"--CODEGEN--\":274:275   */\n      0x01\n        /* \"--CODEGEN--\":267:270   */\n      dup4\n        /* \"--CODEGEN--\":263:265   */\n      0x20\n        /* \"--CODEGEN--\":259:271   */\n      sub\n        /* \"--CODEGEN--\":254:257   */\n      0x0100\n        /* \"--CODEGEN--\":250:272   */\n      exp\n        /* \"--CODEGEN--\":246:276   */\n      sub\n        /* \"--CODEGEN--\":315:319   */\n      dup1\n        /* \"--CODEGEN--\":311:320   */\n      not\n        /* \"--CODEGEN--\":305:308   */\n      dup3\n        /* \"--CODEGEN--\":299:309   */\n      mload\n        /* \"--CODEGEN--\":295:321   */\n      and\n        /* \"--CODEGEN--\":356:360   */\n      dup2\n        /* \"--CODEGEN--\":350:353   */\n      dup5\n        /* \"--CODEGEN--\":344:354   */\n      mload\n        /* \"--CODEGEN--\":340:361   */\n      and\n        /* \"--CODEGEN--\":389:396   */\n      dup1\n        /* \"--CODEGEN--\":380:387   */\n      dup3\n        /* \"--CODEGEN--\":377:397   */\n      or\n        /* \"--CODEGEN--\":372:375   */\n      dup6\n        /* \"--CODEGEN--\":365:398   */\n      mstore\n        /* \"--CODEGEN--\":3:402   */\n      pop\n      pop\n      pop\n        /* \"provableAPI_0.5.sol\":53202:53250  sha256(abi.encodePacked(_contextName, _queryId)) */\n      pop\n      pop\n      pop\n      swap1\n      pop\n      add\n      swap2\n      pop\n      pop\n      0x20\n      mload(0x40)\n      dup1\n      dup4\n      sub\n      dup2\n      dup6\n      gas\n      staticcall\n      iszero\n        /* \"--CODEGEN--\":8:17   */\n      dup1\n        /* \"--CODEGEN--\":5:7   */\n      iszero\n      tag_199\n      jumpi\n        /* \"--CODEGEN--\":45:61   */\n      returndatasize\n        /* \"--CODEGEN--\":42:43   */\n      0x00\n        /* \"--CODEGEN--\":39:40   */\n      dup1\n        /* \"--CODEGEN--\":24:62   */\n      returndatacopy\n        /* \"--CODEGEN--\":77:93   */\n      returndatasize\n        /* \"--CODEGEN--\":74:75   */\n      0x00\n        /* \"--CODEGEN--\":67:94   */\n      revert\n        /* \"--CODEGEN--\":5:7   */\n    tag_199:\n        /* \"provableAPI_0.5.sol\":53202:53250  sha256(abi.encodePacked(_contextName, _queryId)) */\n      pop\n      pop\n      pop\n      mload(0x40)\n      returndatasize\n        /* \"--CODEGEN--\":13:15   */\n      0x20\n        /* \"--CODEGEN--\":8:11   */\n      dup2\n        /* \"--CODEGEN--\":5:16   */\n      lt\n        /* \"--CODEGEN--\":2:4   */\n      iszero\n      tag_200\n      jumpi\n        /* \"--CODEGEN--\":29:30   */\n      0x00\n        /* \"--CODEGEN--\":26:27   */\n      dup1\n        /* \"--CODEGEN--\":19:31   */\n      revert\n        /* \"--CODEGEN--\":2:4   */\n    tag_200:\n        /* \"provableAPI_0.5.sol\":53202:53250  sha256(abi.encodePacked(_contextName, _queryId)) */\n      dup2\n      add\n      swap1\n      dup1\n      dup1\n      mload\n      swap1\n      0x20\n      add\n      swap1\n      swap3\n      swap2\n      swap1\n      pop\n      pop\n      pop\n        /* \"provableAPI_0.5.sol\":53185:53251  abi.encodePacked(sha256(abi.encodePacked(_contextName, _queryId))) */\n      add(0x20, mload(0x40))\n      dup1\n      dup3\n      dup2\n      mstore\n      0x20\n      add\n      swap2\n      pop\n      pop\n      mload(0x40)\n        /* \"--CODEGEN--\":49:53   */\n      0x20\n        /* \"--CODEGEN--\":39:46   */\n      dup2\n        /* \"--CODEGEN--\":30:37   */\n      dup4\n        /* \"--CODEGEN--\":26:47   */\n      sub\n        /* \"--CODEGEN--\":22:54   */\n      sub\n        /* \"--CODEGEN--\":13:20   */\n      dup2\n        /* \"--CODEGEN--\":6:55   */\n      mstore\n        /* \"provableAPI_0.5.sol\":53185:53251  abi.encodePacked(sha256(abi.encodePacked(_contextName, _queryId))) */\n      swap1\n      0x40\n      mstore\n        /* \"provableAPI_0.5.sol\":53175:53252  keccak256(abi.encodePacked(sha256(abi.encodePacked(_contextName, _queryId)))) */\n      dup1\n      mload\n      swap1\n      0x20\n      add\n      keccak256\n        /* \"provableAPI_0.5.sol\":53163:53170  keyhash */\n      dup2\n        /* \"provableAPI_0.5.sol\":53153:53171  keccak256(keyhash) */\n      dup1\n      mload\n      swap1\n      0x20\n      add\n      keccak256\n        /* \"provableAPI_0.5.sol\":53153:53252  keccak256(keyhash) == keccak256(abi.encodePacked(sha256(abi.encodePacked(_contextName, _queryId)))) */\n      eq\n        /* \"provableAPI_0.5.sol\":53147:53294  if (!(keccak256(keyhash) == keccak256(abi.encodePacked(sha256(abi.encodePacked(_contextName, _queryId)))))) {\r... */\n      tag_201\n      jumpi\n        /* \"provableAPI_0.5.sol\":53277:53282  false */\n      0x00\n        /* \"provableAPI_0.5.sol\":53270:53282  return false */\n      swap3\n      pop\n      pop\n      pop\n      jump(tag_189)\n        /* \"provableAPI_0.5.sol\":53147:53294  if (!(keccak256(keyhash) == keccak256(abi.encodePacked(sha256(abi.encodePacked(_contextName, _queryId)))))) {\r... */\n    tag_201:\n        /* \"provableAPI_0.5.sol\":53304:53321  bytes memory sig1 */\n      0x60\n        /* \"provableAPI_0.5.sol\":53399:53400  2 */\n      0x02\n        /* \"provableAPI_0.5.sol\":53345:53351  _proof */\n      dup9\n        /* \"provableAPI_0.5.sol\":53392:53393  1 */\n      0x01\n        /* \"provableAPI_0.5.sol\":53373:53388  32 + 8 + 1 + 32 */\n      0x49\n        /* \"provableAPI_0.5.sol\":53352:53369  ledgerProofLength */\n      dup7\n        /* \"provableAPI_0.5.sol\":53352:53389  ledgerProofLength + (32 + 8 + 1 + 32) */\n      add\n        /* \"provableAPI_0.5.sol\":53352:53393  ledgerProofLength + (32 + 8 + 1 + 32) + 1 */\n      add\n        /* \"provableAPI_0.5.sol\":53345:53394  _proof[ledgerProofLength + (32 + 8 + 1 + 32) + 1] */\n      dup2\n      mload\n      dup2\n      lt\n      tag_202\n      jumpi\n      invalid\n    tag_202:\n      0x20\n      add\n      add\n      mload\n      0xf8\n      shr\n      0xf8\n      shl\n        /* \"provableAPI_0.5.sol\":53339:53395  uint8(_proof[ledgerProofLength + (32 + 8 + 1 + 32) + 1]) */\n      0xf8\n      shr\n        /* \"provableAPI_0.5.sol\":53334:53396  uint(uint8(_proof[ledgerProofLength + (32 + 8 + 1 + 32) + 1])) */\n      0xff\n      and\n        /* \"provableAPI_0.5.sol\":53334:53400  uint(uint8(_proof[ledgerProofLength + (32 + 8 + 1 + 32) + 1])) + 2 */\n      add\n        /* \"provableAPI_0.5.sol\":53324:53401  new bytes(uint(uint8(_proof[ledgerProofLength + (32 + 8 + 1 + 32) + 1])) + 2) */\n      mload(0x40)\n      swap1\n      dup1\n      dup3\n      mstore\n      dup1\n      0x1f\n      add\n      not(0x1f)\n      and\n      0x20\n      add\n      dup3\n      add\n      0x40\n      mstore\n      dup1\n      iszero\n      tag_203\n      jumpi\n      dup2\n      0x20\n      add\n        /* \"--CODEGEN--\":29:30   */\n      0x01\n        /* \"--CODEGEN--\":21:27   */\n      dup3\n        /* \"--CODEGEN--\":17:31   */\n      mul\n        /* \"--CODEGEN--\":116:120   */\n      dup1\n        /* \"--CODEGEN--\":104:114   */\n      codesize\n        /* \"--CODEGEN--\":96:102   */\n      dup4\n        /* \"--CODEGEN--\":87:121   */\n      codecopy\n        /* \"--CODEGEN--\":147:151   */\n      dup1\n        /* \"--CODEGEN--\":139:145   */\n      dup3\n        /* \"--CODEGEN--\":135:152   */\n      add\n        /* \"--CODEGEN--\":125:152   */\n      swap2\n      pop\n        /* \"--CODEGEN--\":0:156   */\n      pop\n        /* \"provableAPI_0.5.sol\":53324:53401  new bytes(uint(uint8(_proof[ledgerProofLength + (32 + 8 + 1 + 32) + 1])) + 2) */\n      swap1\n      pop\n    tag_203:\n      pop\n        /* \"provableAPI_0.5.sol\":53304:53401  bytes memory sig1 = new bytes(uint(uint8(_proof[ledgerProofLength + (32 + 8 + 1 + 32) + 1])) + 2) */\n      swap1\n      pop\n        /* \"provableAPI_0.5.sol\":53412:53490  copyBytes(_proof, ledgerProofLength + (32 + 8 + 1 + 32), sig1.length, sig1, 0) */\n      tag_204\n        /* \"provableAPI_0.5.sol\":53422:53428  _proof */\n      dup9\n        /* \"provableAPI_0.5.sol\":53451:53466  32 + 8 + 1 + 32 */\n      0x49\n        /* \"provableAPI_0.5.sol\":53430:53447  ledgerProofLength */\n      dup6\n        /* \"provableAPI_0.5.sol\":53430:53467  ledgerProofLength + (32 + 8 + 1 + 32) */\n      add\n        /* \"provableAPI_0.5.sol\":53469:53473  sig1 */\n      dup4\n        /* \"provableAPI_0.5.sol\":53469:53480  sig1.length */\n      mload\n        /* \"provableAPI_0.5.sol\":53482:53486  sig1 */\n      dup5\n        /* \"provableAPI_0.5.sol\":53488:53489  0 */\n      0x00\n        /* \"provableAPI_0.5.sol\":53412:53421  copyBytes */\n      tag_156\n        /* \"provableAPI_0.5.sol\":53412:53490  copyBytes(_proof, ledgerProofLength + (32 + 8 + 1 + 32), sig1.length, sig1, 0) */\n      jump\t// in\n    tag_204:\n      pop\n        /* \"provableAPI_0.5.sol\":53660:53750  matchBytes32Prefix(sha256(sig1), _result, uint(uint8(_proof[ledgerProofLength + 32 + 8]))) */\n      tag_205\n        /* \"provableAPI_0.5.sol\":53679:53691  sha256(sig1) */\n      0x02\n        /* \"provableAPI_0.5.sol\":53686:53690  sig1 */\n      dup3\n        /* \"provableAPI_0.5.sol\":53679:53691  sha256(sig1) */\n      mload(0x40)\n      dup1\n      dup3\n      dup1\n      mload\n      swap1\n      0x20\n      add\n      swap1\n      dup1\n      dup4\n      dup4\n        /* \"--CODEGEN--\":36:189   */\n    tag_206:\n        /* \"--CODEGEN--\":66:68   */\n      0x20\n        /* \"--CODEGEN--\":61:64   */\n      dup4\n        /* \"--CODEGEN--\":58:69   */\n      lt\n        /* \"--CODEGEN--\":36:189   */\n      tag_208\n      jumpi\n        /* \"--CODEGEN--\":182:185   */\n      dup1\n        /* \"--CODEGEN--\":176:186   */\n      mload\n        /* \"--CODEGEN--\":171:174   */\n      dup3\n        /* \"--CODEGEN--\":164:187   */\n      mstore\n        /* \"--CODEGEN--\":98:100   */\n      0x20\n        /* \"--CODEGEN--\":93:96   */\n      dup3\n        /* \"--CODEGEN--\":89:101   */\n      add\n        /* \"--CODEGEN--\":82:101   */\n      swap2\n      pop\n        /* \"--CODEGEN--\":123:125   */\n      0x20\n        /* \"--CODEGEN--\":118:121   */\n      dup2\n        /* \"--CODEGEN--\":114:126   */\n      add\n        /* \"--CODEGEN--\":107:126   */\n      swap1\n      pop\n        /* \"--CODEGEN--\":148:150   */\n      0x20\n        /* \"--CODEGEN--\":143:146   */\n      dup4\n        /* \"--CODEGEN--\":139:151   */\n      sub\n        /* \"--CODEGEN--\":132:151   */\n      swap3\n      pop\n        /* \"--CODEGEN--\":36:189   */\n      jump(tag_206)\n    tag_208:\n        /* \"--CODEGEN--\":274:275   */\n      0x01\n        /* \"--CODEGEN--\":267:270   */\n      dup4\n        /* \"--CODEGEN--\":263:265   */\n      0x20\n        /* \"--CODEGEN--\":259:271   */\n      sub\n        /* \"--CODEGEN--\":254:257   */\n      0x0100\n        /* \"--CODEGEN--\":250:272   */\n      exp\n        /* \"--CODEGEN--\":246:276   */\n      sub\n        /* \"--CODEGEN--\":315:319   */\n      dup1\n        /* \"--CODEGEN--\":311:320   */\n      not\n        /* \"--CODEGEN--\":305:308   */\n      dup3\n        /* \"--CODEGEN--\":299:309   */\n      mload\n        /* \"--CODEGEN--\":295:321   */\n      and\n        /* \"--CODEGEN--\":356:360   */\n      dup2\n        /* \"--CODEGEN--\":350:353   */\n      dup5\n        /* \"--CODEGEN--\":344:354   */\n      mload\n        /* \"--CODEGEN--\":340:361   */\n      and\n        /* \"--CODEGEN--\":389:396   */\n      dup1\n        /* \"--CODEGEN--\":380:387   */\n      dup3\n        /* \"--CODEGEN--\":377:397   */\n      or\n        /* \"--CODEGEN--\":372:375   */\n      dup6\n        /* \"--CODEGEN--\":365:398   */\n      mstore\n        /* \"--CODEGEN--\":3:402   */\n      pop\n      pop\n      pop\n        /* \"provableAPI_0.5.sol\":53679:53691  sha256(sig1) */\n      pop\n      pop\n      pop\n      swap1\n      pop\n      add\n      swap2\n      pop\n      pop\n      0x20\n      mload(0x40)\n      dup1\n      dup4\n      sub\n      dup2\n      dup6\n      gas\n      staticcall\n      iszero\n        /* \"--CODEGEN--\":8:17   */\n      dup1\n        /* \"--CODEGEN--\":5:7   */\n      iszero\n      tag_209\n      jumpi\n        /* \"--CODEGEN--\":45:61   */\n      returndatasize\n        /* \"--CODEGEN--\":42:43   */\n      0x00\n        /* \"--CODEGEN--\":39:40   */\n      dup1\n        /* \"--CODEGEN--\":24:62   */\n      returndatacopy\n        /* \"--CODEGEN--\":77:93   */\n      returndatasize\n        /* \"--CODEGEN--\":74:75   */\n      0x00\n        /* \"--CODEGEN--\":67:94   */\n      revert\n        /* \"--CODEGEN--\":5:7   */\n    tag_209:\n        /* \"provableAPI_0.5.sol\":53679:53691  sha256(sig1) */\n      pop\n      pop\n      pop\n      mload(0x40)\n      returndatasize\n        /* \"--CODEGEN--\":13:15   */\n      0x20\n        /* \"--CODEGEN--\":8:11   */\n      dup2\n        /* \"--CODEGEN--\":5:16   */\n      lt\n        /* \"--CODEGEN--\":2:4   */\n      iszero\n      tag_210\n      jumpi\n        /* \"--CODEGEN--\":29:30   */\n      0x00\n        /* \"--CODEGEN--\":26:27   */\n      dup1\n        /* \"--CODEGEN--\":19:31   */\n      revert\n        /* \"--CODEGEN--\":2:4   */\n    tag_210:\n        /* \"provableAPI_0.5.sol\":53679:53691  sha256(sig1) */\n      dup2\n      add\n      swap1\n      dup1\n      dup1\n      mload\n      swap1\n      0x20\n      add\n      swap1\n      swap3\n      swap2\n      swap1\n      pop\n      pop\n      pop\n        /* \"provableAPI_0.5.sol\":53693:53700  _result */\n      dup8\n        /* \"provableAPI_0.5.sol\":53713:53719  _proof */\n      dup11\n        /* \"provableAPI_0.5.sol\":53745:53746  8 */\n      0x08\n        /* \"provableAPI_0.5.sol\":53740:53742  32 */\n      0x20\n        /* \"provableAPI_0.5.sol\":53720:53737  ledgerProofLength */\n      dup9\n        /* \"provableAPI_0.5.sol\":53720:53742  ledgerProofLength + 32 */\n      add\n        /* \"provableAPI_0.5.sol\":53720:53746  ledgerProofLength + 32 + 8 */\n      add\n        /* \"provableAPI_0.5.sol\":53713:53747  _proof[ledgerProofLength + 32 + 8] */\n      dup2\n      mload\n      dup2\n      lt\n      tag_211\n      jumpi\n      invalid\n    tag_211:\n      0x20\n      add\n      add\n      mload\n      0xf8\n      shr\n      0xf8\n      shl\n        /* \"provableAPI_0.5.sol\":53707:53748  uint8(_proof[ledgerProofLength + 32 + 8]) */\n      0xf8\n      shr\n        /* \"provableAPI_0.5.sol\":53702:53749  uint(uint8(_proof[ledgerProofLength + 32 + 8])) */\n      0xff\n      and\n        /* \"provableAPI_0.5.sol\":53660:53678  matchBytes32Prefix */\n      tag_212\n        /* \"provableAPI_0.5.sol\":53660:53750  matchBytes32Prefix(sha256(sig1), _result, uint(uint8(_proof[ledgerProofLength + 32 + 8]))) */\n      jump\t// in\n    tag_205:\n        /* \"provableAPI_0.5.sol\":53655:53791  if (!matchBytes32Prefix(sha256(sig1), _result, uint(uint8(_proof[ledgerProofLength + 32 + 8])))) {\r... */\n      tag_213\n      jumpi\n        /* \"provableAPI_0.5.sol\":53774:53779  false */\n      0x00\n        /* \"provableAPI_0.5.sol\":53767:53779  return false */\n      swap4\n      pop\n      pop\n      pop\n      pop\n      jump(tag_189)\n        /* \"provableAPI_0.5.sol\":53655:53791  if (!matchBytes32Prefix(sha256(sig1), _result, uint(uint8(_proof[ledgerProofLength + 32 + 8])))) {\r... */\n    tag_213:\n        /* \"provableAPI_0.5.sol\":54040:54069  bytes memory commitmentSlice1 */\n      0x60\n        /* \"provableAPI_0.5.sol\":54082:54092  8 + 1 + 32 */\n      0x29\n        /* \"provableAPI_0.5.sol\":54072:54093  new bytes(8 + 1 + 32) */\n      mload(0x40)\n      swap1\n      dup1\n      dup3\n      mstore\n      dup1\n      0x1f\n      add\n      not(0x1f)\n      and\n      0x20\n      add\n      dup3\n      add\n      0x40\n      mstore\n      dup1\n      iszero\n      tag_214\n      jumpi\n      dup2\n      0x20\n      add\n        /* \"--CODEGEN--\":29:30   */\n      0x01\n        /* \"--CODEGEN--\":21:27   */\n      dup3\n        /* \"--CODEGEN--\":17:31   */\n      mul\n        /* \"--CODEGEN--\":116:120   */\n      dup1\n        /* \"--CODEGEN--\":104:114   */\n      codesize\n        /* \"--CODEGEN--\":96:102   */\n      dup4\n        /* \"--CODEGEN--\":87:121   */\n      codecopy\n        /* \"--CODEGEN--\":147:151   */\n      dup1\n        /* \"--CODEGEN--\":139:145   */\n      dup3\n        /* \"--CODEGEN--\":135:152   */\n      add\n        /* \"--CODEGEN--\":125:152   */\n      swap2\n      pop\n        /* \"--CODEGEN--\":0:156   */\n      pop\n        /* \"provableAPI_0.5.sol\":54072:54093  new bytes(8 + 1 + 32) */\n      swap1\n      pop\n    tag_214:\n      pop\n        /* \"provableAPI_0.5.sol\":54040:54093  bytes memory commitmentSlice1 = new bytes(8 + 1 + 32) */\n      swap1\n      pop\n        /* \"provableAPI_0.5.sol\":54104:54178  copyBytes(_proof, ledgerProofLength + 32, 8 + 1 + 32, commitmentSlice1, 0) */\n      tag_215\n        /* \"provableAPI_0.5.sol\":54114:54120  _proof */\n      dup10\n        /* \"provableAPI_0.5.sol\":54142:54144  32 */\n      0x20\n        /* \"provableAPI_0.5.sol\":54122:54139  ledgerProofLength */\n      dup7\n        /* \"provableAPI_0.5.sol\":54122:54144  ledgerProofLength + 32 */\n      add\n        /* \"provableAPI_0.5.sol\":54146:54156  8 + 1 + 32 */\n      0x29\n        /* \"provableAPI_0.5.sol\":54158:54174  commitmentSlice1 */\n      dup5\n        /* \"provableAPI_0.5.sol\":54176:54177  0 */\n      0x00\n        /* \"provableAPI_0.5.sol\":54104:54113  copyBytes */\n      tag_156\n        /* \"provableAPI_0.5.sol\":54104:54178  copyBytes(_proof, ledgerProofLength + 32, 8 + 1 + 32, commitmentSlice1, 0) */\n      jump\t// in\n    tag_215:\n      pop\n        /* \"provableAPI_0.5.sol\":54189:54215  bytes memory sessionPubkey */\n      0x60\n        /* \"provableAPI_0.5.sol\":54228:54230  64 */\n      0x40\n        /* \"provableAPI_0.5.sol\":54218:54231  new bytes(64) */\n      dup1\n      mload\n      swap1\n      dup1\n      dup3\n      mstore\n      dup1\n      0x1f\n      add\n      not(0x1f)\n      and\n      0x20\n      add\n      dup3\n      add\n      0x40\n      mstore\n      dup1\n      iszero\n      tag_216\n      jumpi\n      dup2\n      0x20\n      add\n        /* \"--CODEGEN--\":29:30   */\n      0x01\n        /* \"--CODEGEN--\":21:27   */\n      dup3\n        /* \"--CODEGEN--\":17:31   */\n      mul\n        /* \"--CODEGEN--\":116:120   */\n      dup1\n        /* \"--CODEGEN--\":104:114   */\n      codesize\n        /* \"--CODEGEN--\":96:102   */\n      dup4\n        /* \"--CODEGEN--\":87:121   */\n      codecopy\n        /* \"--CODEGEN--\":147:151   */\n      dup1\n        /* \"--CODEGEN--\":139:145   */\n      dup3\n        /* \"--CODEGEN--\":135:152   */\n      add\n        /* \"--CODEGEN--\":125:152   */\n      swap2\n      pop\n        /* \"--CODEGEN--\":0:156   */\n      pop\n        /* \"provableAPI_0.5.sol\":54218:54231  new bytes(64) */\n      swap1\n      pop\n    tag_216:\n      pop\n        /* \"provableAPI_0.5.sol\":54189:54231  bytes memory sessionPubkey = new bytes(64) */\n      swap1\n      pop\n        /* \"provableAPI_0.5.sol\":54242:54257  uint sig2offset */\n      0x00\n        /* \"provableAPI_0.5.sol\":54314:54316  65 */\n      0x41\n        /* \"provableAPI_0.5.sol\":54300:54304  sig1 */\n      dup5\n        /* \"provableAPI_0.5.sol\":54300:54311  sig1.length */\n      mload\n        /* \"provableAPI_0.5.sol\":54286:54296  8 + 1 + 32 */\n      0x29\n        /* \"provableAPI_0.5.sol\":54280:54282  32 */\n      0x20\n        /* \"provableAPI_0.5.sol\":54260:54277  ledgerProofLength */\n      dup10\n        /* \"provableAPI_0.5.sol\":54260:54282  ledgerProofLength + 32 */\n      add\n        /* \"provableAPI_0.5.sol\":54260:54297  ledgerProofLength + 32 + (8 + 1 + 32) */\n      add\n        /* \"provableAPI_0.5.sol\":54260:54311  ledgerProofLength + 32 + (8 + 1 + 32) + sig1.length */\n      add\n        /* \"provableAPI_0.5.sol\":54260:54316  ledgerProofLength + 32 + (8 + 1 + 32) + sig1.length + 65 */\n      add\n        /* \"provableAPI_0.5.sol\":54242:54316  uint sig2offset = ledgerProofLength + 32 + (8 + 1 + 32) + sig1.length + 65 */\n      swap1\n      pop\n        /* \"provableAPI_0.5.sol\":54327:54383  copyBytes(_proof, sig2offset - 64, 64, sessionPubkey, 0) */\n      tag_217\n        /* \"provableAPI_0.5.sol\":54337:54343  _proof */\n      dup12\n        /* \"provableAPI_0.5.sol\":54358:54360  64 */\n      0x40\n        /* \"provableAPI_0.5.sol\":54345:54355  sig2offset */\n      dup4\n        /* \"provableAPI_0.5.sol\":54345:54360  sig2offset - 64 */\n      sub\n        /* \"provableAPI_0.5.sol\":54362:54364  64 */\n      0x40\n        /* \"provableAPI_0.5.sol\":54366:54379  sessionPubkey */\n      dup6\n        /* \"provableAPI_0.5.sol\":54381:54382  0 */\n      0x00\n        /* \"provableAPI_0.5.sol\":54327:54336  copyBytes */\n      tag_156\n        /* \"provableAPI_0.5.sol\":54327:54383  copyBytes(_proof, sig2offset - 64, 64, sessionPubkey, 0) */\n      jump\t// in\n    tag_217:\n      pop\n        /* \"provableAPI_0.5.sol\":54394:54419  bytes32 sessionPubkeyHash */\n      0x00\n        /* \"provableAPI_0.5.sol\":54422:54443  sha256(sessionPubkey) */\n      0x02\n        /* \"provableAPI_0.5.sol\":54429:54442  sessionPubkey */\n      dup4\n        /* \"provableAPI_0.5.sol\":54422:54443  sha256(sessionPubkey) */\n      mload(0x40)\n      dup1\n      dup3\n      dup1\n      mload\n      swap1\n      0x20\n      add\n      swap1\n      dup1\n      dup4\n      dup4\n        /* \"--CODEGEN--\":36:189   */\n    tag_218:\n        /* \"--CODEGEN--\":66:68   */\n      0x20\n        /* \"--CODEGEN--\":61:64   */\n      dup4\n        /* \"--CODEGEN--\":58:69   */\n      lt\n        /* \"--CODEGEN--\":36:189   */\n      tag_220\n      jumpi\n        /* \"--CODEGEN--\":182:185   */\n      dup1\n        /* \"--CODEGEN--\":176:186   */\n      mload\n        /* \"--CODEGEN--\":171:174   */\n      dup3\n        /* \"--CODEGEN--\":164:187   */\n      mstore\n        /* \"--CODEGEN--\":98:100   */\n      0x20\n        /* \"--CODEGEN--\":93:96   */\n      dup3\n        /* \"--CODEGEN--\":89:101   */\n      add\n        /* \"--CODEGEN--\":82:101   */\n      swap2\n      pop\n        /* \"--CODEGEN--\":123:125   */\n      0x20\n        /* \"--CODEGEN--\":118:121   */\n      dup2\n        /* \"--CODEGEN--\":114:126   */\n      add\n        /* \"--CODEGEN--\":107:126   */\n      swap1\n      pop\n        /* \"--CODEGEN--\":148:150   */\n      0x20\n        /* \"--CODEGEN--\":143:146   */\n      dup4\n        /* \"--CODEGEN--\":139:151   */\n      sub\n        /* \"--CODEGEN--\":132:151   */\n      swap3\n      pop\n        /* \"--CODEGEN--\":36:189   */\n      jump(tag_218)\n    tag_220:\n        /* \"--CODEGEN--\":274:275   */\n      0x01\n        /* \"--CODEGEN--\":267:270   */\n      dup4\n        /* \"--CODEGEN--\":263:265   */\n      0x20\n        /* \"--CODEGEN--\":259:271   */\n      sub\n        /* \"--CODEGEN--\":254:257   */\n      0x0100\n        /* \"--CODEGEN--\":250:272   */\n      exp\n        /* \"--CODEGEN--\":246:276   */\n      sub\n        /* \"--CODEGEN--\":315:319   */\n      dup1\n        /* \"--CODEGEN--\":311:320   */\n      not\n        /* \"--CODEGEN--\":305:308   */\n      dup3\n        /* \"--CODEGEN--\":299:309   */\n      mload\n        /* \"--CODEGEN--\":295:321   */\n      and\n        /* \"--CODEGEN--\":356:360   */\n      dup2\n        /* \"--CODEGEN--\":350:353   */\n      dup5\n        /* \"--CODEGEN--\":344:354   */\n      mload\n        /* \"--CODEGEN--\":340:361   */\n      and\n        /* \"--CODEGEN--\":389:396   */\n      dup1\n        /* \"--CODEGEN--\":380:387   */\n      dup3\n        /* \"--CODEGEN--\":377:397   */\n      or\n        /* \"--CODEGEN--\":372:375   */\n      dup6\n        /* \"--CODEGEN--\":365:398   */\n      mstore\n        /* \"--CODEGEN--\":3:402   */\n      pop\n      pop\n      pop\n        /* \"provableAPI_0.5.sol\":54422:54443  sha256(sessionPubkey) */\n      pop\n      pop\n      pop\n      swap1\n      pop\n      add\n      swap2\n      pop\n      pop\n      0x20\n      mload(0x40)\n      dup1\n      dup4\n      sub\n      dup2\n      dup6\n      gas\n      staticcall\n      iszero\n        /* \"--CODEGEN--\":8:17   */\n      dup1\n        /* \"--CODEGEN--\":5:7   */\n      iszero\n      tag_221\n      jumpi\n        /* \"--CODEGEN--\":45:61   */\n      returndatasize\n        /* \"--CODEGEN--\":42:43   */\n      0x00\n        /* \"--CODEGEN--\":39:40   */\n      dup1\n        /* \"--CODEGEN--\":24:62   */\n      returndatacopy\n        /* \"--CODEGEN--\":77:93   */\n      returndatasize\n        /* \"--CODEGEN--\":74:75   */\n      0x00\n        /* \"--CODEGEN--\":67:94   */\n      revert\n        /* \"--CODEGEN--\":5:7   */\n    tag_221:\n        /* \"provableAPI_0.5.sol\":54422:54443  sha256(sessionPubkey) */\n      pop\n      pop\n      pop\n      mload(0x40)\n      returndatasize\n        /* \"--CODEGEN--\":13:15   */\n      0x20\n        /* \"--CODEGEN--\":8:11   */\n      dup2\n        /* \"--CODEGEN--\":5:16   */\n      lt\n        /* \"--CODEGEN--\":2:4   */\n      iszero\n      tag_222\n      jumpi\n        /* \"--CODEGEN--\":29:30   */\n      0x00\n        /* \"--CODEGEN--\":26:27   */\n      dup1\n        /* \"--CODEGEN--\":19:31   */\n      revert\n        /* \"--CODEGEN--\":2:4   */\n    tag_222:\n        /* \"provableAPI_0.5.sol\":54422:54443  sha256(sessionPubkey) */\n      dup2\n      add\n      swap1\n      dup1\n      dup1\n      mload\n      swap1\n      0x20\n      add\n      swap1\n      swap3\n      swap2\n      swap1\n      pop\n      pop\n      pop\n        /* \"provableAPI_0.5.sol\":54394:54443  bytes32 sessionPubkeyHash = sha256(sessionPubkey) */\n      swap1\n      pop\n        /* \"provableAPI_0.5.sol\":54521:54537  commitmentSlice1 */\n      dup4\n        /* \"provableAPI_0.5.sol\":54539:54556  sessionPubkeyHash */\n      dup2\n        /* \"provableAPI_0.5.sol\":54504:54557  abi.encodePacked(commitmentSlice1, sessionPubkeyHash) */\n      add(0x20, mload(0x40))\n      dup1\n      dup4\n      dup1\n      mload\n      swap1\n      0x20\n      add\n      swap1\n      dup1\n      dup4\n      dup4\n        /* \"--CODEGEN--\":36:189   */\n    tag_223:\n        /* \"--CODEGEN--\":66:68   */\n      0x20\n        /* \"--CODEGEN--\":61:64   */\n      dup4\n        /* \"--CODEGEN--\":58:69   */\n      lt\n        /* \"--CODEGEN--\":36:189   */\n      tag_225\n      jumpi\n        /* \"--CODEGEN--\":182:185   */\n      dup1\n        /* \"--CODEGEN--\":176:186   */\n      mload\n        /* \"--CODEGEN--\":171:174   */\n      dup3\n        /* \"--CODEGEN--\":164:187   */\n      mstore\n        /* \"--CODEGEN--\":98:100   */\n      0x20\n        /* \"--CODEGEN--\":93:96   */\n      dup3\n        /* \"--CODEGEN--\":89:101   */\n      add\n        /* \"--CODEGEN--\":82:101   */\n      swap2\n      pop\n        /* \"--CODEGEN--\":123:125   */\n      0x20\n        /* \"--CODEGEN--\":118:121   */\n      dup2\n        /* \"--CODEGEN--\":114:126   */\n      add\n        /* \"--CODEGEN--\":107:126   */\n      swap1\n      pop\n        /* \"--CODEGEN--\":148:150   */\n      0x20\n        /* \"--CODEGEN--\":143:146   */\n      dup4\n        /* \"--CODEGEN--\":139:151   */\n      sub\n        /* \"--CODEGEN--\":132:151   */\n      swap3\n      pop\n        /* \"--CODEGEN--\":36:189   */\n      jump(tag_223)\n    tag_225:\n        /* \"--CODEGEN--\":274:275   */\n      0x01\n        /* \"--CODEGEN--\":267:270   */\n      dup4\n        /* \"--CODEGEN--\":263:265   */\n      0x20\n        /* \"--CODEGEN--\":259:271   */\n      sub\n        /* \"--CODEGEN--\":254:257   */\n      0x0100\n        /* \"--CODEGEN--\":250:272   */\n      exp\n        /* \"--CODEGEN--\":246:276   */\n      sub\n        /* \"--CODEGEN--\":315:319   */\n      dup1\n        /* \"--CODEGEN--\":311:320   */\n      not\n        /* \"--CODEGEN--\":305:308   */\n      dup3\n        /* \"--CODEGEN--\":299:309   */\n      mload\n        /* \"--CODEGEN--\":295:321   */\n      and\n        /* \"--CODEGEN--\":356:360   */\n      dup2\n        /* \"--CODEGEN--\":350:353   */\n      dup5\n        /* \"--CODEGEN--\":344:354   */\n      mload\n        /* \"--CODEGEN--\":340:361   */\n      and\n        /* \"--CODEGEN--\":389:396   */\n      dup1\n        /* \"--CODEGEN--\":380:387   */\n      dup3\n        /* \"--CODEGEN--\":377:397   */\n      or\n        /* \"--CODEGEN--\":372:375   */\n      dup6\n        /* \"--CODEGEN--\":365:398   */\n      mstore\n        /* \"--CODEGEN--\":3:402   */\n      pop\n      pop\n      pop\n        /* \"provableAPI_0.5.sol\":54504:54557  abi.encodePacked(commitmentSlice1, sessionPubkeyHash) */\n      pop\n      pop\n      pop\n      swap1\n      pop\n      add\n      dup3\n      dup2\n      mstore\n      0x20\n      add\n      swap3\n      pop\n      pop\n      pop\n      mload(0x40)\n        /* \"--CODEGEN--\":49:53   */\n      0x20\n        /* \"--CODEGEN--\":39:46   */\n      dup2\n        /* \"--CODEGEN--\":30:37   */\n      dup4\n        /* \"--CODEGEN--\":26:47   */\n      sub\n        /* \"--CODEGEN--\":22:54   */\n      sub\n        /* \"--CODEGEN--\":13:20   */\n      dup2\n        /* \"--CODEGEN--\":6:55   */\n      mstore\n        /* \"provableAPI_0.5.sol\":54504:54557  abi.encodePacked(commitmentSlice1, sessionPubkeyHash) */\n      swap1\n      0x40\n      mstore\n        /* \"provableAPI_0.5.sol\":54494:54558  keccak256(abi.encodePacked(commitmentSlice1, sessionPubkeyHash)) */\n      dup1\n      mload\n      swap1\n      0x20\n      add\n      keccak256\n        /* \"provableAPI_0.5.sol\":54458:54480  provable_randomDS_args */\n      0x03\n        /* \"provableAPI_0.5.sol\":54458:54490  provable_randomDS_args[_queryId] */\n      0x00\n        /* \"provableAPI_0.5.sol\":54481:54489  _queryId */\n      dup14\n        /* \"provableAPI_0.5.sol\":54458:54490  provable_randomDS_args[_queryId] */\n      dup2\n      mstore\n      0x20\n      add\n      swap1\n      dup2\n      mstore\n      0x20\n      add\n      0x00\n      keccak256\n      sload\n        /* \"provableAPI_0.5.sol\":54458:54558  provable_randomDS_args[_queryId] == keccak256(abi.encodePacked(commitmentSlice1, sessionPubkeyHash)) */\n      eq\n        /* \"provableAPI_0.5.sol\":54454:54686  if (provable_randomDS_args[_queryId] == keccak256(abi.encodePacked(commitmentSlice1, sessionPubkeyHash))) { //unonce, nbytes and sessionKeyHash match\r... */\n      iszero\n      tag_226\n      jumpi\n        /* \"provableAPI_0.5.sol\":54624:54646  provable_randomDS_args */\n      0x03\n        /* \"provableAPI_0.5.sol\":54624:54656  provable_randomDS_args[_queryId] */\n      0x00\n        /* \"provableAPI_0.5.sol\":54647:54655  _queryId */\n      dup13\n        /* \"provableAPI_0.5.sol\":54624:54656  provable_randomDS_args[_queryId] */\n      dup2\n      mstore\n      0x20\n      add\n      swap1\n      dup2\n      mstore\n      0x20\n      add\n      0x00\n      keccak256\n        /* \"provableAPI_0.5.sol\":54617:54656  delete provable_randomDS_args[_queryId] */\n      0x00\n      swap1\n      sstore\n        /* \"provableAPI_0.5.sol\":54454:54686  if (provable_randomDS_args[_queryId] == keccak256(abi.encodePacked(commitmentSlice1, sessionPubkeyHash))) { //unonce, nbytes and sessionKeyHash match\r... */\n      jump(tag_227)\n    tag_226:\n        /* \"provableAPI_0.5.sol\":54681:54686  false */\n      0x00\n        /* \"provableAPI_0.5.sol\":54674:54686  return false */\n      swap8\n      pop\n      pop\n      pop\n      pop\n      pop\n      pop\n      pop\n      pop\n      jump(tag_189)\n        /* \"provableAPI_0.5.sol\":54454:54686  if (provable_randomDS_args[_queryId] == keccak256(abi.encodePacked(commitmentSlice1, sessionPubkeyHash))) { //unonce, nbytes and sessionKeyHash match\r... */\n    tag_227:\n        /* \"provableAPI_0.5.sol\":54810:54830  bytes memory tosign1 */\n      0x60\n        /* \"provableAPI_0.5.sol\":54843:54858  32 + 8 + 1 + 32 */\n      0x49\n        /* \"provableAPI_0.5.sol\":54833:54859  new bytes(32 + 8 + 1 + 32) */\n      mload(0x40)\n      swap1\n      dup1\n      dup3\n      mstore\n      dup1\n      0x1f\n      add\n      not(0x1f)\n      and\n      0x20\n      add\n      dup3\n      add\n      0x40\n      mstore\n      dup1\n      iszero\n      tag_228\n      jumpi\n      dup2\n      0x20\n      add\n        /* \"--CODEGEN--\":29:30   */\n      0x01\n        /* \"--CODEGEN--\":21:27   */\n      dup3\n        /* \"--CODEGEN--\":17:31   */\n      mul\n        /* \"--CODEGEN--\":116:120   */\n      dup1\n        /* \"--CODEGEN--\":104:114   */\n      codesize\n        /* \"--CODEGEN--\":96:102   */\n      dup4\n        /* \"--CODEGEN--\":87:121   */\n      codecopy\n        /* \"--CODEGEN--\":147:151   */\n      dup1\n        /* \"--CODEGEN--\":139:145   */\n      dup3\n        /* \"--CODEGEN--\":135:152   */\n      add\n        /* \"--CODEGEN--\":125:152   */\n      swap2\n      pop\n        /* \"--CODEGEN--\":0:156   */\n      pop\n        /* \"provableAPI_0.5.sol\":54833:54859  new bytes(32 + 8 + 1 + 32) */\n      swap1\n      pop\n    tag_228:\n      pop\n        /* \"provableAPI_0.5.sol\":54810:54859  bytes memory tosign1 = new bytes(32 + 8 + 1 + 32) */\n      swap1\n      pop\n        /* \"provableAPI_0.5.sol\":54870:54935  copyBytes(_proof, ledgerProofLength, 32 + 8 + 1 + 32, tosign1, 0) */\n      tag_229\n        /* \"provableAPI_0.5.sol\":54880:54886  _proof */\n      dup14\n        /* \"provableAPI_0.5.sol\":54888:54905  ledgerProofLength */\n      dup10\n        /* \"provableAPI_0.5.sol\":54907:54922  32 + 8 + 1 + 32 */\n      0x49\n        /* \"provableAPI_0.5.sol\":54924:54931  tosign1 */\n      dup5\n        /* \"provableAPI_0.5.sol\":54933:54934  0 */\n      0x00\n        /* \"provableAPI_0.5.sol\":54870:54879  copyBytes */\n      tag_156\n        /* \"provableAPI_0.5.sol\":54870:54935  copyBytes(_proof, ledgerProofLength, 32 + 8 + 1 + 32, tosign1, 0) */\n      jump\t// in\n    tag_229:\n      pop\n        /* \"provableAPI_0.5.sol\":54951:54998  verifySig(sha256(tosign1), sig1, sessionPubkey) */\n      tag_230\n        /* \"provableAPI_0.5.sol\":54961:54976  sha256(tosign1) */\n      0x02\n        /* \"provableAPI_0.5.sol\":54968:54975  tosign1 */\n      dup3\n        /* \"provableAPI_0.5.sol\":54961:54976  sha256(tosign1) */\n      mload(0x40)\n      dup1\n      dup3\n      dup1\n      mload\n      swap1\n      0x20\n      add\n      swap1\n      dup1\n      dup4\n      dup4\n        /* \"--CODEGEN--\":36:189   */\n    tag_231:\n        /* \"--CODEGEN--\":66:68   */\n      0x20\n        /* \"--CODEGEN--\":61:64   */\n      dup4\n        /* \"--CODEGEN--\":58:69   */\n      lt\n        /* \"--CODEGEN--\":36:189   */\n      tag_233\n      jumpi\n        /* \"--CODEGEN--\":182:185   */\n      dup1\n        /* \"--CODEGEN--\":176:186   */\n      mload\n        /* \"--CODEGEN--\":171:174   */\n      dup3\n        /* \"--CODEGEN--\":164:187   */\n      mstore\n        /* \"--CODEGEN--\":98:100   */\n      0x20\n        /* \"--CODEGEN--\":93:96   */\n      dup3\n        /* \"--CODEGEN--\":89:101   */\n      add\n        /* \"--CODEGEN--\":82:101   */\n      swap2\n      pop\n        /* \"--CODEGEN--\":123:125   */\n      0x20\n        /* \"--CODEGEN--\":118:121   */\n      dup2\n        /* \"--CODEGEN--\":114:126   */\n      add\n        /* \"--CODEGEN--\":107:126   */\n      swap1\n      pop\n        /* \"--CODEGEN--\":148:150   */\n      0x20\n        /* \"--CODEGEN--\":143:146   */\n      dup4\n        /* \"--CODEGEN--\":139:151   */\n      sub\n        /* \"--CODEGEN--\":132:151   */\n      swap3\n      pop\n        /* \"--CODEGEN--\":36:189   */\n      jump(tag_231)\n    tag_233:\n        /* \"--CODEGEN--\":274:275   */\n      0x01\n        /* \"--CODEGEN--\":267:270   */\n      dup4\n        /* \"--CODEGEN--\":263:265   */\n      0x20\n        /* \"--CODEGEN--\":259:271   */\n      sub\n        /* \"--CODEGEN--\":254:257   */\n      0x0100\n        /* \"--CODEGEN--\":250:272   */\n      exp\n        /* \"--CODEGEN--\":246:276   */\n      sub\n        /* \"--CODEGEN--\":315:319   */\n      dup1\n        /* \"--CODEGEN--\":311:320   */\n      not\n        /* \"--CODEGEN--\":305:308   */\n      dup3\n        /* \"--CODEGEN--\":299:309   */\n      mload\n        /* \"--CODEGEN--\":295:321   */\n      and\n        /* \"--CODEGEN--\":356:360   */\n      dup2\n        /* \"--CODEGEN--\":350:353   */\n      dup5\n        /* \"--CODEGEN--\":344:354   */\n      mload\n        /* \"--CODEGEN--\":340:361   */\n      and\n        /* \"--CODEGEN--\":389:396   */\n      dup1\n        /* \"--CODEGEN--\":380:387   */\n      dup3\n        /* \"--CODEGEN--\":377:397   */\n      or\n        /* \"--CODEGEN--\":372:375   */\n      dup6\n        /* \"--CODEGEN--\":365:398   */\n      mstore\n        /* \"--CODEGEN--\":3:402   */\n      pop\n      pop\n      pop\n        /* \"provableAPI_0.5.sol\":54961:54976  sha256(tosign1) */\n      pop\n      pop\n      pop\n      swap1\n      pop\n      add\n      swap2\n      pop\n      pop\n      0x20\n      mload(0x40)\n      dup1\n      dup4\n      sub\n      dup2\n      dup6\n      gas\n      staticcall\n      iszero\n        /* \"--CODEGEN--\":8:17   */\n      dup1\n        /* \"--CODEGEN--\":5:7   */\n      iszero\n      tag_234\n      jumpi\n        /* \"--CODEGEN--\":45:61   */\n      returndatasize\n        /* \"--CODEGEN--\":42:43   */\n      0x00\n        /* \"--CODEGEN--\":39:40   */\n      dup1\n        /* \"--CODEGEN--\":24:62   */\n      returndatacopy\n        /* \"--CODEGEN--\":77:93   */\n      returndatasize\n        /* \"--CODEGEN--\":74:75   */\n      0x00\n        /* \"--CODEGEN--\":67:94   */\n      revert\n        /* \"--CODEGEN--\":5:7   */\n    tag_234:\n        /* \"provableAPI_0.5.sol\":54961:54976  sha256(tosign1) */\n      pop\n      pop\n      pop\n      mload(0x40)\n      returndatasize\n        /* \"--CODEGEN--\":13:15   */\n      0x20\n        /* \"--CODEGEN--\":8:11   */\n      dup2\n        /* \"--CODEGEN--\":5:16   */\n      lt\n        /* \"--CODEGEN--\":2:4   */\n      iszero\n      tag_235\n      jumpi\n        /* \"--CODEGEN--\":29:30   */\n      0x00\n        /* \"--CODEGEN--\":26:27   */\n      dup1\n        /* \"--CODEGEN--\":19:31   */\n      revert\n        /* \"--CODEGEN--\":2:4   */\n    tag_235:\n        /* \"provableAPI_0.5.sol\":54961:54976  sha256(tosign1) */\n      dup2\n      add\n      swap1\n      dup1\n      dup1\n      mload\n      swap1\n      0x20\n      add\n      swap1\n      swap3\n      swap2\n      swap1\n      pop\n      pop\n      pop\n        /* \"provableAPI_0.5.sol\":54978:54982  sig1 */\n      dup8\n        /* \"provableAPI_0.5.sol\":54984:54997  sessionPubkey */\n      dup7\n        /* \"provableAPI_0.5.sol\":54951:54960  verifySig */\n      tag_236\n        /* \"provableAPI_0.5.sol\":54951:54998  verifySig(sha256(tosign1), sig1, sessionPubkey) */\n      jump\t// in\n    tag_230:\n        /* \"provableAPI_0.5.sol\":54946:55039  if (!verifySig(sha256(tosign1), sig1, sessionPubkey)) {\r... */\n      tag_237\n      jumpi\n        /* \"provableAPI_0.5.sol\":55022:55027  false */\n      0x00\n        /* \"provableAPI_0.5.sol\":55015:55027  return false */\n      swap9\n      pop\n      pop\n      pop\n      pop\n      pop\n      pop\n      pop\n      pop\n      pop\n      jump(tag_189)\n        /* \"provableAPI_0.5.sol\":54946:55039  if (!verifySig(sha256(tosign1), sig1, sessionPubkey)) {\r... */\n    tag_237:\n        /* \"provableAPI_0.5.sol\":55138:55179  provable_randomDS_sessionKeysHashVerified */\n      0x04\n        /* \"provableAPI_0.5.sol\":55138:55198  provable_randomDS_sessionKeysHashVerified[sessionPubkeyHash] */\n      0x00\n        /* \"provableAPI_0.5.sol\":55180:55197  sessionPubkeyHash */\n      dup4\n        /* \"provableAPI_0.5.sol\":55138:55198  provable_randomDS_sessionKeysHashVerified[sessionPubkeyHash] */\n      dup2\n      mstore\n      0x20\n      add\n      swap1\n      dup2\n      mstore\n      0x20\n      add\n      0x00\n      keccak256\n      0x00\n      swap1\n      sload\n      swap1\n      0x0100\n      exp\n      swap1\n      div\n      0xff\n      and\n        /* \"provableAPI_0.5.sol\":55133:55359  if (!provable_randomDS_sessionKeysHashVerified[sessionPubkeyHash]) {\r... */\n      tag_238\n      jumpi\n        /* \"provableAPI_0.5.sol\":55278:55347  provable_randomDS_proofVerify__sessionKeyValidity(_proof, sig2offset) */\n      tag_239\n        /* \"provableAPI_0.5.sol\":55328:55334  _proof */\n      dup14\n        /* \"provableAPI_0.5.sol\":55336:55346  sig2offset */\n      dup5\n        /* \"provableAPI_0.5.sol\":55278:55327  provable_randomDS_proofVerify__sessionKeyValidity */\n      tag_240\n        /* \"provableAPI_0.5.sol\":55278:55347  provable_randomDS_proofVerify__sessionKeyValidity(_proof, sig2offset) */\n      jump\t// in\n    tag_239:\n        /* \"provableAPI_0.5.sol\":55215:55256  provable_randomDS_sessionKeysHashVerified */\n      0x04\n        /* \"provableAPI_0.5.sol\":55215:55275  provable_randomDS_sessionKeysHashVerified[sessionPubkeyHash] */\n      0x00\n        /* \"provableAPI_0.5.sol\":55257:55274  sessionPubkeyHash */\n      dup5\n        /* \"provableAPI_0.5.sol\":55215:55275  provable_randomDS_sessionKeysHashVerified[sessionPubkeyHash] */\n      dup2\n      mstore\n      0x20\n      add\n      swap1\n      dup2\n      mstore\n      0x20\n      add\n      0x00\n      keccak256\n      0x00\n        /* \"provableAPI_0.5.sol\":55215:55347  provable_randomDS_sessionKeysHashVerified[sessionPubkeyHash] = provable_randomDS_proofVerify__sessionKeyValidity(_proof, sig2offset) */\n      0x0100\n      exp\n      dup2\n      sload\n      dup2\n      0xff\n      mul\n      not\n      and\n      swap1\n      dup4\n      iszero\n      iszero\n      mul\n      or\n      swap1\n      sstore\n      pop\n        /* \"provableAPI_0.5.sol\":55133:55359  if (!provable_randomDS_sessionKeysHashVerified[sessionPubkeyHash]) {\r... */\n    tag_238:\n        /* \"provableAPI_0.5.sol\":55376:55417  provable_randomDS_sessionKeysHashVerified */\n      0x04\n        /* \"provableAPI_0.5.sol\":55376:55436  provable_randomDS_sessionKeysHashVerified[sessionPubkeyHash] */\n      0x00\n        /* \"provableAPI_0.5.sol\":55418:55435  sessionPubkeyHash */\n      dup4\n        /* \"provableAPI_0.5.sol\":55376:55436  provable_randomDS_sessionKeysHashVerified[sessionPubkeyHash] */\n      dup2\n      mstore\n      0x20\n      add\n      swap1\n      dup2\n      mstore\n      0x20\n      add\n      0x00\n      keccak256\n      0x00\n      swap1\n      sload\n      swap1\n      0x0100\n      exp\n      swap1\n      div\n      0xff\n      and\n        /* \"provableAPI_0.5.sol\":55369:55436  return provable_randomDS_sessionKeysHashVerified[sessionPubkeyHash] */\n      swap9\n      pop\n      pop\n      pop\n      pop\n      pop\n      pop\n      pop\n      pop\n      pop\n        /* \"provableAPI_0.5.sol\":52653:55444  function provable_randomDS_proofVerify__main(bytes memory _proof, bytes32 _queryId, bytes memory _result, string memory _contextName) internal returns (bool _proofVerified) {\r... */\n    tag_189:\n      swap5\n      swap4\n      pop\n      pop\n      pop\n      pop\n      jump\t// out\n        /* \"provableAPI_0.5.sol\":38499:38670  function provable_randomDS_getSessionPubKeyHash() provableAPI internal returns (bytes32 _sessionKeyHash) {\r... */\n    tag_152:\n        /* \"provableAPI_0.5.sol\":38579:38602  bytes32 _sessionKeyHash */\n      0x00\n        /* \"provableAPI_0.5.sol\":12187:12188  0 */\n      dup1\n        /* \"provableAPI_0.5.sol\":12163:12189  address(OAR) == address(0) */\n      0xffffffffffffffffffffffffffffffffffffffff\n      and\n        /* \"provableAPI_0.5.sol\":12171:12174  OAR */\n      0x01\n      0x00\n      swap1\n      sload\n      swap1\n      0x0100\n      exp\n      swap1\n      div\n      0xffffffffffffffffffffffffffffffffffffffff\n      and\n        /* \"provableAPI_0.5.sol\":12163:12189  address(OAR) == address(0) */\n      0xffffffffffffffffffffffffffffffffffffffff\n      and\n      eq\n        /* \"provableAPI_0.5.sol\":12162:12226  (address(OAR) == address(0)) || (getCodeSize(address(OAR)) == 0) */\n      dup1\n      tag_242\n      jumpi\n      pop\n        /* \"provableAPI_0.5.sol\":12224:12225  0 */\n      0x00\n        /* \"provableAPI_0.5.sol\":12195:12220  getCodeSize(address(OAR)) */\n      tag_243\n        /* \"provableAPI_0.5.sol\":12215:12218  OAR */\n      0x01\n      0x00\n      swap1\n      sload\n      swap1\n      0x0100\n      exp\n      swap1\n      div\n      0xffffffffffffffffffffffffffffffffffffffff\n      and\n        /* \"provableAPI_0.5.sol\":12195:12206  getCodeSize */\n      tag_117\n        /* \"provableAPI_0.5.sol\":12195:12220  getCodeSize(address(OAR)) */\n      jump\t// in\n    tag_243:\n        /* \"provableAPI_0.5.sol\":12195:12225  getCodeSize(address(OAR)) == 0 */\n      eq\n        /* \"provableAPI_0.5.sol\":12162:12226  (address(OAR) == address(0)) || (getCodeSize(address(OAR)) == 0) */\n    tag_242:\n        /* \"provableAPI_0.5.sol\":12158:12290  if ((address(OAR) == address(0)) || (getCodeSize(address(OAR)) == 0)) {\r... */\n      iszero\n      tag_244\n      jumpi\n        /* \"provableAPI_0.5.sol\":12243:12278  provable_setNetwork(networkID_auto) */\n      tag_245\n        /* \"provableAPI_0.5.sol\":11809:11810  0 */\n      0x00\n        /* \"provableAPI_0.5.sol\":12243:12262  provable_setNetwork */\n      tag_120\n        /* \"provableAPI_0.5.sol\":12243:12278  provable_setNetwork(networkID_auto) */\n      jump\t// in\n    tag_245:\n      pop\n        /* \"provableAPI_0.5.sol\":12158:12290  if ((address(OAR) == address(0)) || (getCodeSize(address(OAR)) == 0)) {\r... */\n    tag_244:\n        /* \"provableAPI_0.5.sol\":12325:12328  OAR */\n      0x01\n      0x00\n      swap1\n      sload\n      swap1\n      0x0100\n      exp\n      swap1\n      div\n      0xffffffffffffffffffffffffffffffffffffffff\n      and\n        /* \"provableAPI_0.5.sol\":12325:12339  OAR.getAddress */\n      0xffffffffffffffffffffffffffffffffffffffff\n      and\n      0x38cc4831\n        /* \"provableAPI_0.5.sol\":12325:12341  OAR.getAddress() */\n      mload(0x40)\n      dup2\n      0xffffffff\n      and\n      0xe0\n      shl\n      dup2\n      mstore\n      0x04\n      add\n      0x20\n      mload(0x40)\n      dup1\n      dup4\n      sub\n      dup2\n      0x00\n      dup8\n      dup1\n      extcodesize\n      iszero\n        /* \"--CODEGEN--\":8:17   */\n      dup1\n        /* \"--CODEGEN--\":5:7   */\n      iszero\n      tag_246\n      jumpi\n        /* \"--CODEGEN--\":30:31   */\n      0x00\n        /* \"--CODEGEN--\":27:28   */\n      dup1\n        /* \"--CODEGEN--\":20:32   */\n      revert\n        /* \"--CODEGEN--\":5:7   */\n    tag_246:\n        /* \"provableAPI_0.5.sol\":12325:12341  OAR.getAddress() */\n      pop\n      gas\n      call\n      iszero\n        /* \"--CODEGEN--\":8:17   */\n      dup1\n        /* \"--CODEGEN--\":5:7   */\n      iszero\n      tag_247\n      jumpi\n        /* \"--CODEGEN--\":45:61   */\n      returndatasize\n        /* \"--CODEGEN--\":42:43   */\n      0x00\n        /* \"--CODEGEN--\":39:40   */\n      dup1\n        /* \"--CODEGEN--\":24:62   */\n      returndatacopy\n        /* \"--CODEGEN--\":77:93   */\n      returndatasize\n        /* \"--CODEGEN--\":74:75   */\n      0x00\n        /* \"--CODEGEN--\":67:94   */\n      revert\n        /* \"--CODEGEN--\":5:7   */\n    tag_247:\n        /* \"provableAPI_0.5.sol\":12325:12341  OAR.getAddress() */\n      pop\n      pop\n      pop\n      pop\n      mload(0x40)\n      returndatasize\n        /* \"--CODEGEN--\":13:15   */\n      0x20\n        /* \"--CODEGEN--\":8:11   */\n      dup2\n        /* \"--CODEGEN--\":5:16   */\n      lt\n        /* \"--CODEGEN--\":2:4   */\n      iszero\n      tag_248\n      jumpi\n        /* \"--CODEGEN--\":29:30   */\n      0x00\n        /* \"--CODEGEN--\":26:27   */\n      dup1\n        /* \"--CODEGEN--\":19:31   */\n      revert\n        /* \"--CODEGEN--\":2:4   */\n    tag_248:\n        /* \"provableAPI_0.5.sol\":12325:12341  OAR.getAddress() */\n      dup2\n      add\n      swap1\n      dup1\n      dup1\n      mload\n      swap1\n      0x20\n      add\n      swap1\n      swap3\n      swap2\n      swap1\n      pop\n      pop\n      pop\n        /* \"provableAPI_0.5.sol\":12304:12341  address(provable) != OAR.getAddress() */\n      0xffffffffffffffffffffffffffffffffffffffff\n      and\n        /* \"provableAPI_0.5.sol\":12312:12320  provable */\n      0x00\n      dup1\n      swap1\n      sload\n      swap1\n      0x0100\n      exp\n      swap1\n      div\n      0xffffffffffffffffffffffffffffffffffffffff\n      and\n        /* \"provableAPI_0.5.sol\":12304:12341  address(provable) != OAR.getAddress() */\n      0xffffffffffffffffffffffffffffffffffffffff\n      and\n      eq\n        /* \"provableAPI_0.5.sol\":12300:12408  if (address(provable) != OAR.getAddress()) {\r... */\n      tag_249\n      jumpi\n        /* \"provableAPI_0.5.sol\":12379:12382  OAR */\n      0x01\n      0x00\n      swap1\n      sload\n      swap1\n      0x0100\n      exp\n      swap1\n      div\n      0xffffffffffffffffffffffffffffffffffffffff\n      and\n        /* \"provableAPI_0.5.sol\":12379:12393  OAR.getAddress */\n      0xffffffffffffffffffffffffffffffffffffffff\n      and\n      0x38cc4831\n        /* \"provableAPI_0.5.sol\":12379:12395  OAR.getAddress() */\n      mload(0x40)\n      dup2\n      0xffffffff\n      and\n      0xe0\n      shl\n      dup2\n      mstore\n      0x04\n      add\n      0x20\n      mload(0x40)\n      dup1\n      dup4\n      sub\n      dup2\n      0x00\n      dup8\n      dup1\n      extcodesize\n      iszero\n        /* \"--CODEGEN--\":8:17   */\n      dup1\n        /* \"--CODEGEN--\":5:7   */\n      iszero\n      tag_250\n      jumpi\n        /* \"--CODEGEN--\":30:31   */\n      0x00\n        /* \"--CODEGEN--\":27:28   */\n      dup1\n        /* \"--CODEGEN--\":20:32   */\n      revert\n        /* \"--CODEGEN--\":5:7   */\n    tag_250:\n        /* \"provableAPI_0.5.sol\":12379:12395  OAR.getAddress() */\n      pop\n      gas\n      call\n      iszero\n        /* \"--CODEGEN--\":8:17   */\n      dup1\n        /* \"--CODEGEN--\":5:7   */\n      iszero\n      tag_251\n      jumpi\n        /* \"--CODEGEN--\":45:61   */\n      returndatasize\n        /* \"--CODEGEN--\":42:43   */\n      0x00\n        /* \"--CODEGEN--\":39:40   */\n      dup1\n        /* \"--CODEGEN--\":24:62   */\n      returndatacopy\n        /* \"--CODEGEN--\":77:93   */\n      returndatasize\n        /* \"--CODEGEN--\":74:75   */\n      0x00\n        /* \"--CODEGEN--\":67:94   */\n      revert\n        /* \"--CODEGEN--\":5:7   */\n    tag_251:\n        /* \"provableAPI_0.5.sol\":12379:12395  OAR.getAddress() */\n      pop\n      pop\n      pop\n      pop\n      mload(0x40)\n      returndatasize\n        /* \"--CODEGEN--\":13:15   */\n      0x20\n        /* \"--CODEGEN--\":8:11   */\n      dup2\n        /* \"--CODEGEN--\":5:16   */\n      lt\n        /* \"--CODEGEN--\":2:4   */\n      iszero\n      tag_252\n      jumpi\n        /* \"--CODEGEN--\":29:30   */\n      0x00\n        /* \"--CODEGEN--\":26:27   */\n      dup1\n        /* \"--CODEGEN--\":19:31   */\n      revert\n        /* \"--CODEGEN--\":2:4   */\n    tag_252:\n        /* \"provableAPI_0.5.sol\":12379:12395  OAR.getAddress() */\n      dup2\n      add\n      swap1\n      dup1\n      dup1\n      mload\n      swap1\n      0x20\n      add\n      swap1\n      swap3\n      swap2\n      swap1\n      pop\n      pop\n      pop\n        /* \"provableAPI_0.5.sol\":12358:12366  provable */\n      0x00\n      dup1\n        /* \"provableAPI_0.5.sol\":12358:12396  provable = ProvableI(OAR.getAddress()) */\n      0x0100\n      exp\n      dup2\n      sload\n      dup2\n      0xffffffffffffffffffffffffffffffffffffffff\n      mul\n      not\n      and\n      swap1\n      dup4\n      0xffffffffffffffffffffffffffffffffffffffff\n      and\n      mul\n      or\n      swap1\n      sstore\n      pop\n        /* \"provableAPI_0.5.sol\":12300:12408  if (address(provable) != OAR.getAddress()) {\r... */\n    tag_249:\n        /* \"provableAPI_0.5.sol\":38622:38630  provable */\n      0x00\n      dup1\n      swap1\n      sload\n      swap1\n      0x0100\n      exp\n      swap1\n      div\n      0xffffffffffffffffffffffffffffffffffffffff\n      and\n        /* \"provableAPI_0.5.sol\":38622:38660  provable.randomDS_getSessionPubKeyHash */\n      0xffffffffffffffffffffffffffffffffffffffff\n      and\n      0xabaa5f3e\n        /* \"provableAPI_0.5.sol\":38622:38662  provable.randomDS_getSessionPubKeyHash() */\n      mload(0x40)\n      dup2\n      0xffffffff\n      and\n      0xe0\n      shl\n      dup2\n      mstore\n      0x04\n      add\n      0x20\n      mload(0x40)\n      dup1\n      dup4\n      sub\n      dup2\n      dup7\n      dup1\n      extcodesize\n      iszero\n        /* \"--CODEGEN--\":8:17   */\n      dup1\n        /* \"--CODEGEN--\":5:7   */\n      iszero\n      tag_254\n      jumpi\n        /* \"--CODEGEN--\":30:31   */\n      0x00\n        /* \"--CODEGEN--\":27:28   */\n      dup1\n        /* \"--CODEGEN--\":20:32   */\n      revert\n        /* \"--CODEGEN--\":5:7   */\n    tag_254:\n        /* \"provableAPI_0.5.sol\":38622:38662  provable.randomDS_getSessionPubKeyHash() */\n      pop\n      gas\n      staticcall\n      iszero\n        /* \"--CODEGEN--\":8:17   */\n      dup1\n        /* \"--CODEGEN--\":5:7   */\n      iszero\n      tag_255\n      jumpi\n        /* \"--CODEGEN--\":45:61   */\n      returndatasize\n        /* \"--CODEGEN--\":42:43   */\n      0x00\n        /* \"--CODEGEN--\":39:40   */\n      dup1\n        /* \"--CODEGEN--\":24:62   */\n      returndatacopy\n        /* \"--CODEGEN--\":77:93   */\n      returndatasize\n        /* \"--CODEGEN--\":74:75   */\n      0x00\n        /* \"--CODEGEN--\":67:94   */\n      revert\n        /* \"--CODEGEN--\":5:7   */\n    tag_255:\n        /* \"provableAPI_0.5.sol\":38622:38662  provable.randomDS_getSessionPubKeyHash() */\n      pop\n      pop\n      pop\n      pop\n      mload(0x40)\n      returndatasize\n        /* \"--CODEGEN--\":13:15   */\n      0x20\n        /* \"--CODEGEN--\":8:11   */\n      dup2\n        /* \"--CODEGEN--\":5:16   */\n      lt\n        /* \"--CODEGEN--\":2:4   */\n      iszero\n      tag_256\n      jumpi\n        /* \"--CODEGEN--\":29:30   */\n      0x00\n        /* \"--CODEGEN--\":26:27   */\n      dup1\n        /* \"--CODEGEN--\":19:31   */\n      revert\n        /* \"--CODEGEN--\":2:4   */\n    tag_256:\n        /* \"provableAPI_0.5.sol\":38622:38662  provable.randomDS_getSessionPubKeyHash() */\n      dup2\n      add\n      swap1\n      dup1\n      dup1\n      mload\n      swap1\n      0x20\n      add\n      swap1\n      swap3\n      swap2\n      swap1\n      pop\n      pop\n      pop\n        /* \"provableAPI_0.5.sol\":38615:38662  return provable.randomDS_getSessionPubKeyHash() */\n      swap1\n      pop\n        /* \"provableAPI_0.5.sol\":38499:38670  function provable_randomDS_getSessionPubKeyHash() provableAPI internal returns (bytes32 _sessionKeyHash) {\r... */\n      swap1\n      jump\t// out\n        /* \"provableAPI_0.5.sol\":55583:56290  function copyBytes(bytes memory _from, uint _fromOffset, uint _length, bytes memory _to, uint _toOffset) internal pure returns (bytes memory _copiedBytes) {\r... */\n    tag_156:\n        /* \"provableAPI_0.5.sol\":55711:55736  bytes memory _copiedBytes */\n      0x60\n        /* \"provableAPI_0.5.sol\":55749:55763  uint minLength */\n      0x00\n        /* \"provableAPI_0.5.sol\":55776:55785  _toOffset */\n      dup3\n        /* \"provableAPI_0.5.sol\":55766:55773  _length */\n      dup6\n        /* \"provableAPI_0.5.sol\":55766:55785  _length + _toOffset */\n      add\n        /* \"provableAPI_0.5.sol\":55749:55785  uint minLength = _length + _toOffset */\n      swap1\n      pop\n        /* \"provableAPI_0.5.sol\":55818:55827  minLength */\n      dup1\n        /* \"provableAPI_0.5.sol\":55804:55807  _to */\n      dup5\n        /* \"provableAPI_0.5.sol\":55804:55814  _to.length */\n      mload\n        /* \"provableAPI_0.5.sol\":55804:55827  _to.length >= minLength */\n      lt\n      iszero\n        /* \"provableAPI_0.5.sol\":55796:55828  require(_to.length >= minLength) */\n      tag_258\n      jumpi\n      0x00\n      dup1\n      revert\n    tag_258:\n        /* \"provableAPI_0.5.sol\":55884:55890  uint i */\n      0x00\n        /* \"provableAPI_0.5.sol\":55898:55909  _fromOffset */\n      dup7\n        /* \"provableAPI_0.5.sol\":55893:55895  32 */\n      0x20\n        /* \"provableAPI_0.5.sol\":55893:55909  32 + _fromOffset */\n      add\n        /* \"provableAPI_0.5.sol\":55884:55909  uint i = 32 + _fromOffset */\n      swap1\n      pop\n        /* \"provableAPI_0.5.sol\":56001:56007  uint j */\n      0x00\n        /* \"provableAPI_0.5.sol\":56015:56024  _toOffset */\n      dup5\n        /* \"provableAPI_0.5.sol\":56010:56012  32 */\n      0x20\n        /* \"provableAPI_0.5.sol\":56010:56024  32 + _toOffset */\n      add\n        /* \"provableAPI_0.5.sol\":56001:56024  uint j = 32 + _toOffset */\n      swap1\n      pop\n        /* \"provableAPI_0.5.sol\":56035:56262  while (i < (32 + _fromOffset + _length)) {\r... */\n    tag_259:\n        /* \"provableAPI_0.5.sol\":56066:56073  _length */\n      dup7\n        /* \"provableAPI_0.5.sol\":56052:56063  _fromOffset */\n      dup9\n        /* \"provableAPI_0.5.sol\":56047:56049  32 */\n      0x20\n        /* \"provableAPI_0.5.sol\":56047:56063  32 + _fromOffset */\n      add\n        /* \"provableAPI_0.5.sol\":56047:56073  32 + _fromOffset + _length */\n      add\n        /* \"provableAPI_0.5.sol\":56042:56043  i */\n      dup3\n        /* \"provableAPI_0.5.sol\":56042:56074  i < (32 + _fromOffset + _length) */\n      lt\n        /* \"provableAPI_0.5.sol\":56035:56262  while (i < (32 + _fromOffset + _length)) {\r... */\n      iszero\n      tag_260\n      jumpi\n        /* \"provableAPI_0.5.sol\":56147:56148  i */\n      dup2\n        /* \"provableAPI_0.5.sol\":56140:56145  _from */\n      dup10\n        /* \"provableAPI_0.5.sol\":56136:56149  add(_from, i) */\n      add\n        /* \"provableAPI_0.5.sol\":56130:56150  mload(add(_from, i)) */\n      mload\n        /* \"provableAPI_0.5.sol\":56188:56191  tmp */\n      dup1\n        /* \"provableAPI_0.5.sol\":56184:56185  j */\n      dup3\n        /* \"provableAPI_0.5.sol\":56179:56182  _to */\n      dup9\n        /* \"provableAPI_0.5.sol\":56175:56186  add(_to, j) */\n      add\n        /* \"provableAPI_0.5.sol\":56168:56192  mstore(add(_to, j), tmp) */\n      mstore\n        /* \"provableAPI_0.5.sol\":56100:56207  {\r... */\n      pop\n        /* \"provableAPI_0.5.sol\":56226:56228  32 */\n      0x20\n        /* \"provableAPI_0.5.sol\":56221:56228  i += 32 */\n      dup3\n      add\n      swap2\n      pop\n        /* \"provableAPI_0.5.sol\":56248:56250  32 */\n      0x20\n        /* \"provableAPI_0.5.sol\":56243:56250  j += 32 */\n      dup2\n      add\n      swap1\n      pop\n        /* \"provableAPI_0.5.sol\":56035:56262  while (i < (32 + _fromOffset + _length)) {\r... */\n      jump(tag_259)\n    tag_260:\n        /* \"provableAPI_0.5.sol\":56279:56282  _to */\n      dup6\n        /* \"provableAPI_0.5.sol\":56272:56282  return _to */\n      swap4\n      pop\n      pop\n      pop\n      pop\n        /* \"provableAPI_0.5.sol\":55583:56290  function copyBytes(bytes memory _from, uint _fromOffset, uint _length, bytes memory _to, uint _toOffset) internal pure returns (bytes memory _copiedBytes) {\r... */\n      swap6\n      swap5\n      pop\n      pop\n      pop\n      pop\n      pop\n      jump\t// out\n        /* \"provableAPI_0.5.sol\":35836:36220  function provable_query(string memory _datasource, bytes[4] memory _args, uint _gasLimit) provableAPI internal returns (bytes32 _id) {\r... */\n    tag_160:\n        /* \"provableAPI_0.5.sol\":35956:35967  bytes32 _id */\n      0x00\n        /* \"provableAPI_0.5.sol\":12187:12188  0 */\n      dup1\n        /* \"provableAPI_0.5.sol\":12163:12189  address(OAR) == address(0) */\n      0xffffffffffffffffffffffffffffffffffffffff\n      and\n        /* \"provableAPI_0.5.sol\":12171:12174  OAR */\n      0x01\n      0x00\n      swap1\n      sload\n      swap1\n      0x0100\n      exp\n      swap1\n      div\n      0xffffffffffffffffffffffffffffffffffffffff\n      and\n        /* \"provableAPI_0.5.sol\":12163:12189  address(OAR) == address(0) */\n      0xffffffffffffffffffffffffffffffffffffffff\n      and\n      eq\n        /* \"provableAPI_0.5.sol\":12162:12226  (address(OAR) == address(0)) || (getCodeSize(address(OAR)) == 0) */\n      dup1\n      tag_262\n      jumpi\n      pop\n        /* \"provableAPI_0.5.sol\":12224:12225  0 */\n      0x00\n        /* \"provableAPI_0.5.sol\":12195:12220  getCodeSize(address(OAR)) */\n      tag_263\n        /* \"provableAPI_0.5.sol\":12215:12218  OAR */\n      0x01\n      0x00\n      swap1\n      sload\n      swap1\n      0x0100\n      exp\n      swap1\n      div\n      0xffffffffffffffffffffffffffffffffffffffff\n      and\n        /* \"provableAPI_0.5.sol\":12195:12206  getCodeSize */\n      tag_117\n        /* \"provableAPI_0.5.sol\":12195:12220  getCodeSize(address(OAR)) */\n      jump\t// in\n    tag_263:\n        /* \"provableAPI_0.5.sol\":12195:12225  getCodeSize(address(OAR)) == 0 */\n      eq\n        /* \"provableAPI_0.5.sol\":12162:12226  (address(OAR) == address(0)) || (getCodeSize(address(OAR)) == 0) */\n    tag_262:\n        /* \"provableAPI_0.5.sol\":12158:12290  if ((address(OAR) == address(0)) || (getCodeSize(address(OAR)) == 0)) {\r... */\n      iszero\n      tag_264\n      jumpi\n        /* \"provableAPI_0.5.sol\":12243:12278  provable_setNetwork(networkID_auto) */\n      tag_265\n        /* \"provableAPI_0.5.sol\":11809:11810  0 */\n      0x00\n        /* \"provableAPI_0.5.sol\":12243:12262  provable_setNetwork */\n      tag_120\n        /* \"provableAPI_0.5.sol\":12243:12278  provable_setNetwork(networkID_auto) */\n      jump\t// in\n    tag_265:\n      pop\n        /* \"provableAPI_0.5.sol\":12158:12290  if ((address(OAR) == address(0)) || (getCodeSize(address(OAR)) == 0)) {\r... */\n    tag_264:\n        /* \"provableAPI_0.5.sol\":12325:12328  OAR */\n      0x01\n      0x00\n      swap1\n      sload\n      swap1\n      0x0100\n      exp\n      swap1\n      div\n      0xffffffffffffffffffffffffffffffffffffffff\n      and\n        /* \"provableAPI_0.5.sol\":12325:12339  OAR.getAddress */\n      0xffffffffffffffffffffffffffffffffffffffff\n      and\n      0x38cc4831\n        /* \"provableAPI_0.5.sol\":12325:12341  OAR.getAddress() */\n      mload(0x40)\n      dup2\n      0xffffffff\n      and\n      0xe0\n      shl\n      dup2\n      mstore\n      0x04\n      add\n      0x20\n      mload(0x40)\n      dup1\n      dup4\n      sub\n      dup2\n      0x00\n      dup8\n      dup1\n      extcodesize\n      iszero\n        /* \"--CODEGEN--\":8:17   */\n      dup1\n        /* \"--CODEGEN--\":5:7   */\n      iszero\n      tag_266\n      jumpi\n        /* \"--CODEGEN--\":30:31   */\n      0x00\n        /* \"--CODEGEN--\":27:28   */\n      dup1\n        /* \"--CODEGEN--\":20:32   */\n      revert\n        /* \"--CODEGEN--\":5:7   */\n    tag_266:\n        /* \"provableAPI_0.5.sol\":12325:12341  OAR.getAddress() */\n      pop\n      gas\n      call\n      iszero\n        /* \"--CODEGEN--\":8:17   */\n      dup1\n        /* \"--CODEGEN--\":5:7   */\n      iszero\n      tag_267\n      jumpi\n        /* \"--CODEGEN--\":45:61   */\n      returndatasize\n        /* \"--CODEGEN--\":42:43   */\n      0x00\n        /* \"--CODEGEN--\":39:40   */\n      dup1\n        /* \"--CODEGEN--\":24:62   */\n      returndatacopy\n        /* \"--CODEGEN--\":77:93   */\n      returndatasize\n        /* \"--CODEGEN--\":74:75   */\n      0x00\n        /* \"--CODEGEN--\":67:94   */\n      revert\n        /* \"--CODEGEN--\":5:7   */\n    tag_267:\n        /* \"provableAPI_0.5.sol\":12325:12341  OAR.getAddress() */\n      pop\n      pop\n      pop\n      pop\n      mload(0x40)\n      returndatasize\n        /* \"--CODEGEN--\":13:15   */\n      0x20\n        /* \"--CODEGEN--\":8:11   */\n      dup2\n        /* \"--CODEGEN--\":5:16   */\n      lt\n        /* \"--CODEGEN--\":2:4   */\n      iszero\n      tag_268\n      jumpi\n        /* \"--CODEGEN--\":29:30   */\n      0x00\n        /* \"--CODEGEN--\":26:27   */\n      dup1\n        /* \"--CODEGEN--\":19:31   */\n      revert\n        /* \"--CODEGEN--\":2:4   */\n    tag_268:\n        /* \"provableAPI_0.5.sol\":12325:12341  OAR.getAddress() */\n      dup2\n      add\n      swap1\n      dup1\n      dup1\n      mload\n      swap1\n      0x20\n      add\n      swap1\n      swap3\n      swap2\n      swap1\n      pop\n      pop\n      pop\n        /* \"provableAPI_0.5.sol\":12304:12341  address(provable) != OAR.getAddress() */\n      0xffffffffffffffffffffffffffffffffffffffff\n      and\n        /* \"provableAPI_0.5.sol\":12312:12320  provable */\n      0x00\n      dup1\n      swap1\n      sload\n      swap1\n      0x0100\n      exp\n      swap1\n      div\n      0xffffffffffffffffffffffffffffffffffffffff\n      and\n        /* \"provableAPI_0.5.sol\":12304:12341  address(provable) != OAR.getAddress() */\n      0xffffffffffffffffffffffffffffffffffffffff\n      and\n      eq\n        /* \"provableAPI_0.5.sol\":12300:12408  if (address(provable) != OAR.getAddress()) {\r... */\n      tag_269\n      jumpi\n        /* \"provableAPI_0.5.sol\":12379:12382  OAR */\n      0x01\n      0x00\n      swap1\n      sload\n      swap1\n      0x0100\n      exp\n      swap1\n      div\n      0xffffffffffffffffffffffffffffffffffffffff\n      and\n        /* \"provableAPI_0.5.sol\":12379:12393  OAR.getAddress */\n      0xffffffffffffffffffffffffffffffffffffffff\n      and\n      0x38cc4831\n        /* \"provableAPI_0.5.sol\":12379:12395  OAR.getAddress() */\n      mload(0x40)\n      dup2\n      0xffffffff\n      and\n      0xe0\n      shl\n      dup2\n      mstore\n      0x04\n      add\n      0x20\n      mload(0x40)\n      dup1\n      dup4\n      sub\n      dup2\n      0x00\n      dup8\n      dup1\n      extcodesize\n      iszero\n        /* \"--CODEGEN--\":8:17   */\n      dup1\n        /* \"--CODEGEN--\":5:7   */\n      iszero\n      tag_270\n      jumpi\n        /* \"--CODEGEN--\":30:31   */\n      0x00\n        /* \"--CODEGEN--\":27:28   */\n      dup1\n        /* \"--CODEGEN--\":20:32   */\n      revert\n        /* \"--CODEGEN--\":5:7   */\n    tag_270:\n        /* \"provableAPI_0.5.sol\":12379:12395  OAR.getAddress() */\n      pop\n      gas\n      call\n      iszero\n        /* \"--CODEGEN--\":8:17   */\n      dup1\n        /* \"--CODEGEN--\":5:7   */\n      iszero\n      tag_271\n      jumpi\n        /* \"--CODEGEN--\":45:61   */\n      returndatasize\n        /* \"--CODEGEN--\":42:43   */\n      0x00\n        /* \"--CODEGEN--\":39:40   */\n      dup1\n        /* \"--CODEGEN--\":24:62   */\n      returndatacopy\n        /* \"--CODEGEN--\":77:93   */\n      returndatasize\n        /* \"--CODEGEN--\":74:75   */\n      0x00\n        /* \"--CODEGEN--\":67:94   */\n      revert\n        /* \"--CODEGEN--\":5:7   */\n    tag_271:\n        /* \"provableAPI_0.5.sol\":12379:12395  OAR.getAddress() */\n      pop\n      pop\n      pop\n      pop\n      mload(0x40)\n      returndatasize\n        /* \"--CODEGEN--\":13:15   */\n      0x20\n        /* \"--CODEGEN--\":8:11   */\n      dup2\n        /* \"--CODEGEN--\":5:16   */\n      lt\n        /* \"--CODEGEN--\":2:4   */\n      iszero\n      tag_272\n      jumpi\n        /* \"--CODEGEN--\":29:30   */\n      0x00\n        /* \"--CODEGEN--\":26:27   */\n      dup1\n        /* \"--CODEGEN--\":19:31   */\n      revert\n        /* \"--CODEGEN--\":2:4   */\n    tag_272:\n        /* \"provableAPI_0.5.sol\":12379:12395  OAR.getAddress() */\n      dup2\n      add\n      swap1\n      dup1\n      dup1\n      mload\n      swap1\n      0x20\n      add\n      swap1\n      swap3\n      swap2\n      swap1\n      pop\n      pop\n      pop\n        /* \"provableAPI_0.5.sol\":12358:12366  provable */\n      0x00\n      dup1\n        /* \"provableAPI_0.5.sol\":12358:12396  provable = ProvableI(OAR.getAddress()) */\n      0x0100\n      exp\n      dup2\n      sload\n      dup2\n      0xffffffffffffffffffffffffffffffffffffffff\n      mul\n      not\n      and\n      swap1\n      dup4\n      0xffffffffffffffffffffffffffffffffffffffff\n      and\n      mul\n      or\n      swap1\n      sstore\n      pop\n        /* \"provableAPI_0.5.sol\":12300:12408  if (address(provable) != OAR.getAddress()) {\r... */\n    tag_269:\n        /* \"provableAPI_0.5.sol\":35980:36002  bytes[] memory dynargs */\n      0x60\n        /* \"provableAPI_0.5.sol\":36017:36018  4 */\n      0x04\n        /* \"provableAPI_0.5.sol\":36005:36019  new bytes[](4) */\n      mload(0x40)\n      swap1\n      dup1\n      dup3\n      mstore\n      dup1\n      0x20\n      mul\n      0x20\n      add\n      dup3\n      add\n      0x40\n      mstore\n      dup1\n      iszero\n      tag_274\n      jumpi\n      dup2\n      0x20\n      add\n    tag_275:\n      0x60\n      dup2\n      mstore\n      0x20\n      add\n      swap1\n      0x01\n      swap1\n      sub\n      swap1\n      dup2\n      tag_275\n      jumpi\n      swap1\n      pop\n    tag_274:\n      pop\n        /* \"provableAPI_0.5.sol\":35980:36019  bytes[] memory dynargs = new bytes[](4) */\n      swap1\n      pop\n        /* \"provableAPI_0.5.sol\":36043:36048  _args */\n      dup4\n        /* \"provableAPI_0.5.sol\":36049:36050  0 */\n      0x00\n        /* \"provableAPI_0.5.sol\":36043:36051  _args[0] */\n      0x04\n      dup2\n      lt\n      tag_276\n      jumpi\n      invalid\n    tag_276:\n      0x20\n      mul\n      add\n      mload\n        /* \"provableAPI_0.5.sol\":36030:36037  dynargs */\n      dup2\n        /* \"provableAPI_0.5.sol\":36038:36039  0 */\n      0x00\n        /* \"provableAPI_0.5.sol\":36030:36040  dynargs[0] */\n      dup2\n      mload\n      dup2\n      lt\n      tag_277\n      jumpi\n      invalid\n    tag_277:\n      0x20\n      mul\n      0x20\n      add\n      add\n        /* \"provableAPI_0.5.sol\":36030:36051  dynargs[0] = _args[0] */\n      dup2\n      swap1\n      mstore\n      pop\n        /* \"provableAPI_0.5.sol\":36075:36080  _args */\n      dup4\n        /* \"provableAPI_0.5.sol\":36081:36082  1 */\n      0x01\n        /* \"provableAPI_0.5.sol\":36075:36083  _args[1] */\n      0x04\n      dup2\n      lt\n      tag_278\n      jumpi\n      invalid\n    tag_278:\n      0x20\n      mul\n      add\n      mload\n        /* \"provableAPI_0.5.sol\":36062:36069  dynargs */\n      dup2\n        /* \"provableAPI_0.5.sol\":36070:36071  1 */\n      0x01\n        /* \"provableAPI_0.5.sol\":36062:36072  dynargs[1] */\n      dup2\n      mload\n      dup2\n      lt\n      tag_279\n      jumpi\n      invalid\n    tag_279:\n      0x20\n      mul\n      0x20\n      add\n      add\n        /* \"provableAPI_0.5.sol\":36062:36083  dynargs[1] = _args[1] */\n      dup2\n      swap1\n      mstore\n      pop\n        /* \"provableAPI_0.5.sol\":36107:36112  _args */\n      dup4\n        /* \"provableAPI_0.5.sol\":36113:36114  2 */\n      0x02\n        /* \"provableAPI_0.5.sol\":36107:36115  _args[2] */\n      0x04\n      dup2\n      lt\n      tag_280\n      jumpi\n      invalid\n    tag_280:\n      0x20\n      mul\n      add\n      mload\n        /* \"provableAPI_0.5.sol\":36094:36101  dynargs */\n      dup2\n        /* \"provableAPI_0.5.sol\":36102:36103  2 */\n      0x02\n        /* \"provableAPI_0.5.sol\":36094:36104  dynargs[2] */\n      dup2\n      mload\n      dup2\n      lt\n      tag_281\n      jumpi\n      invalid\n    tag_281:\n      0x20\n      mul\n      0x20\n      add\n      add\n        /* \"provableAPI_0.5.sol\":36094:36115  dynargs[2] = _args[2] */\n      dup2\n      swap1\n      mstore\n      pop\n        /* \"provableAPI_0.5.sol\":36139:36144  _args */\n      dup4\n        /* \"provableAPI_0.5.sol\":36145:36146  3 */\n      0x03\n        /* \"provableAPI_0.5.sol\":36139:36147  _args[3] */\n      0x04\n      dup2\n      lt\n      tag_282\n      jumpi\n      invalid\n    tag_282:\n      0x20\n      mul\n      add\n      mload\n        /* \"provableAPI_0.5.sol\":36126:36133  dynargs */\n      dup2\n        /* \"provableAPI_0.5.sol\":36134:36135  3 */\n      0x03\n        /* \"provableAPI_0.5.sol\":36126:36136  dynargs[3] */\n      dup2\n      mload\n      dup2\n      lt\n      tag_283\n      jumpi\n      invalid\n    tag_283:\n      0x20\n      mul\n      0x20\n      add\n      add\n        /* \"provableAPI_0.5.sol\":36126:36147  dynargs[3] = _args[3] */\n      dup2\n      swap1\n      mstore\n      pop\n        /* \"provableAPI_0.5.sol\":36165:36212  provable_query(_datasource, dynargs, _gasLimit) */\n      tag_284\n        /* \"provableAPI_0.5.sol\":36180:36191  _datasource */\n      dup6\n        /* \"provableAPI_0.5.sol\":36193:36200  dynargs */\n      dup3\n        /* \"provableAPI_0.5.sol\":36202:36211  _gasLimit */\n      dup6\n        /* \"provableAPI_0.5.sol\":36165:36179  provable_query */\n      tag_285\n        /* \"provableAPI_0.5.sol\":36165:36212  provable_query(_datasource, dynargs, _gasLimit) */\n      jump\t// in\n    tag_284:\n        /* \"provableAPI_0.5.sol\":36158:36212  return provable_query(_datasource, dynargs, _gasLimit) */\n      swap2\n      pop\n      pop\n        /* \"provableAPI_0.5.sol\":35836:36220  function provable_query(string memory _datasource, bytes[4] memory _args, uint _gasLimit) provableAPI internal returns (bytes32 _id) {\r... */\n      swap4\n      swap3\n      pop\n      pop\n      pop\n      jump\t// out\n        /* \"provableAPI_0.5.sol\":48820:48974  function provable_randomDS_setCommitment(bytes32 _queryId, bytes32 _commitment) internal {\r... */\n    tag_180:\n        /* \"provableAPI_0.5.sol\":48955:48966  _commitment */\n      dup1\n        /* \"provableAPI_0.5.sol\":48920:48942  provable_randomDS_args */\n      0x03\n        /* \"provableAPI_0.5.sol\":48920:48952  provable_randomDS_args[_queryId] */\n      0x00\n        /* \"provableAPI_0.5.sol\":48943:48951  _queryId */\n      dup5\n        /* \"provableAPI_0.5.sol\":48920:48952  provable_randomDS_args[_queryId] */\n      dup2\n      mstore\n      0x20\n      add\n      swap1\n      dup2\n      mstore\n      0x20\n      add\n      0x00\n      keccak256\n        /* \"provableAPI_0.5.sol\":48920:48966  provable_randomDS_args[_queryId] = _commitment */\n      dup2\n      swap1\n      sstore\n      pop\n        /* \"provableAPI_0.5.sol\":48820:48974  function provable_randomDS_setCommitment(bytes32 _queryId, bytes32 _commitment) internal {\r... */\n      pop\n      pop\n      jump\t// out\n        /* \"provableAPI_0.5.sol\":13404:15474  function provable_setNetwork() internal returns (bool _networkSet) {\r... */\n    tag_184:\n        /* \"provableAPI_0.5.sol\":13453:13469  bool _networkSet */\n      0x00\n        /* \"provableAPI_0.5.sol\":13544:13545  0 */\n      dup1\n        /* \"provableAPI_0.5.sol\":13486:13541  getCodeSize(0x1d3B2638a7cC9f2CB3D298A3DA7a90B67E5506ed) */\n      tag_288\n        /* \"provableAPI_0.5.sol\":13498:13540  0x1d3B2638a7cC9f2CB3D298A3DA7a90B67E5506ed */\n      0x1d3b2638a7cc9f2cb3d298a3da7a90b67e5506ed\n        /* \"provableAPI_0.5.sol\":13486:13497  getCodeSize */\n      tag_117\n        /* \"provableAPI_0.5.sol\":13486:13541  getCodeSize(0x1d3B2638a7cC9f2CB3D298A3DA7a90B67E5506ed) */\n      jump\t// in\n    tag_288:\n        /* \"provableAPI_0.5.sol\":13486:13545  getCodeSize(0x1d3B2638a7cC9f2CB3D298A3DA7a90B67E5506ed) > 0 */\n      gt\n        /* \"provableAPI_0.5.sol\":13482:13732  if (getCodeSize(0x1d3B2638a7cC9f2CB3D298A3DA7a90B67E5506ed) > 0) { //mainnet\r... */\n      iszero\n      tag_289\n      jumpi\n        /* \"provableAPI_0.5.sol\":13598:13640  0x1d3B2638a7cC9f2CB3D298A3DA7a90B67E5506ed */\n      0x1d3b2638a7cc9f2cb3d298a3da7a90b67e5506ed\n        /* \"provableAPI_0.5.sol\":13572:13575  OAR */\n      0x01\n      0x00\n        /* \"provableAPI_0.5.sol\":13572:13641  OAR = OracleAddrResolverI(0x1d3B2638a7cC9f2CB3D298A3DA7a90B67E5506ed) */\n      0x0100\n      exp\n      dup2\n      sload\n      dup2\n      0xffffffffffffffffffffffffffffffffffffffff\n      mul\n      not\n      and\n      swap1\n      dup4\n      0xffffffffffffffffffffffffffffffffffffffff\n      and\n      mul\n      or\n      swap1\n      sstore\n      pop\n        /* \"provableAPI_0.5.sol\":13656:13694  provable_setNetworkName(\"eth_mainnet\") */\n      tag_290\n      mload(0x40)\n      dup1\n      0x40\n      add\n      0x40\n      mstore\n      dup1\n      0x0b\n      dup2\n      mstore\n      0x20\n      add\n      0x6574685f6d61696e6e6574000000000000000000000000000000000000000000\n      dup2\n      mstore\n      pop\n        /* \"provableAPI_0.5.sol\":13656:13679  provable_setNetworkName */\n      tag_291\n        /* \"provableAPI_0.5.sol\":13656:13694  provable_setNetworkName(\"eth_mainnet\") */\n      jump\t// in\n    tag_290:\n        /* \"provableAPI_0.5.sol\":13716:13720  true */\n      0x01\n        /* \"provableAPI_0.5.sol\":13709:13720  return true */\n      swap1\n      pop\n      jump(tag_287)\n        /* \"provableAPI_0.5.sol\":13482:13732  if (getCodeSize(0x1d3B2638a7cC9f2CB3D298A3DA7a90B67E5506ed) > 0) { //mainnet\r... */\n    tag_289:\n        /* \"provableAPI_0.5.sol\":13804:13805  0 */\n      0x00\n        /* \"provableAPI_0.5.sol\":13746:13801  getCodeSize(0xc03A2615D5efaf5F49F60B7BB6583eaec212fdf1) */\n      tag_292\n        /* \"provableAPI_0.5.sol\":13758:13800  0xc03A2615D5efaf5F49F60B7BB6583eaec212fdf1 */\n      0xc03a2615d5efaf5f49f60b7bb6583eaec212fdf1\n        /* \"provableAPI_0.5.sol\":13746:13757  getCodeSize */\n      tag_117\n        /* \"provableAPI_0.5.sol\":13746:13801  getCodeSize(0xc03A2615D5efaf5F49F60B7BB6583eaec212fdf1) */\n      jump\t// in\n    tag_292:\n        /* \"provableAPI_0.5.sol\":13746:13805  getCodeSize(0xc03A2615D5efaf5F49F60B7BB6583eaec212fdf1) > 0 */\n      gt\n        /* \"provableAPI_0.5.sol\":13742:14001  if (getCodeSize(0xc03A2615D5efaf5F49F60B7BB6583eaec212fdf1) > 0) { //ropsten testnet\r... */\n      iszero\n      tag_293\n      jumpi\n        /* \"provableAPI_0.5.sol\":13866:13908  0xc03A2615D5efaf5F49F60B7BB6583eaec212fdf1 */\n      0xc03a2615d5efaf5f49f60b7bb6583eaec212fdf1\n        /* \"provableAPI_0.5.sol\":13840:13843  OAR */\n      0x01\n      0x00\n        /* \"provableAPI_0.5.sol\":13840:13909  OAR = OracleAddrResolverI(0xc03A2615D5efaf5F49F60B7BB6583eaec212fdf1) */\n      0x0100\n      exp\n      dup2\n      sload\n      dup2\n      0xffffffffffffffffffffffffffffffffffffffff\n      mul\n      not\n      and\n      swap1\n      dup4\n      0xffffffffffffffffffffffffffffffffffffffff\n      and\n      mul\n      or\n      swap1\n      sstore\n      pop\n        /* \"provableAPI_0.5.sol\":13924:13963  provable_setNetworkName(\"eth_ropsten3\") */\n      tag_294\n      mload(0x40)\n      dup1\n      0x40\n      add\n      0x40\n      mstore\n      dup1\n      0x0c\n      dup2\n      mstore\n      0x20\n      add\n      0x6574685f726f707374656e330000000000000000000000000000000000000000\n      dup2\n      mstore\n      pop\n        /* \"provableAPI_0.5.sol\":13924:13947  provable_setNetworkName */\n      tag_291\n        /* \"provableAPI_0.5.sol\":13924:13963  provable_setNetworkName(\"eth_ropsten3\") */\n      jump\t// in\n    tag_294:\n        /* \"provableAPI_0.5.sol\":13985:13989  true */\n      0x01\n        /* \"provableAPI_0.5.sol\":13978:13989  return true */\n      swap1\n      pop\n      jump(tag_287)\n        /* \"provableAPI_0.5.sol\":13742:14001  if (getCodeSize(0xc03A2615D5efaf5F49F60B7BB6583eaec212fdf1) > 0) { //ropsten testnet\r... */\n    tag_293:\n        /* \"provableAPI_0.5.sol\":14073:14074  0 */\n      0x00\n        /* \"provableAPI_0.5.sol\":14015:14070  getCodeSize(0xB7A07BcF2Ba2f2703b24C0691b5278999C59AC7e) */\n      tag_295\n        /* \"provableAPI_0.5.sol\":14027:14069  0xB7A07BcF2Ba2f2703b24C0691b5278999C59AC7e */\n      0xb7a07bcf2ba2f2703b24c0691b5278999c59ac7e\n        /* \"provableAPI_0.5.sol\":14015:14026  getCodeSize */\n      tag_117\n        /* \"provableAPI_0.5.sol\":14015:14070  getCodeSize(0xB7A07BcF2Ba2f2703b24C0691b5278999C59AC7e) */\n      jump\t// in\n    tag_295:\n        /* \"provableAPI_0.5.sol\":14015:14074  getCodeSize(0xB7A07BcF2Ba2f2703b24C0691b5278999C59AC7e) > 0 */\n      gt\n        /* \"provableAPI_0.5.sol\":14011:14265  if (getCodeSize(0xB7A07BcF2Ba2f2703b24C0691b5278999C59AC7e) > 0) { //kovan testnet\r... */\n      iszero\n      tag_296\n      jumpi\n        /* \"provableAPI_0.5.sol\":14133:14175  0xB7A07BcF2Ba2f2703b24C0691b5278999C59AC7e */\n      0xb7a07bcf2ba2f2703b24c0691b5278999c59ac7e\n        /* \"provableAPI_0.5.sol\":14107:14110  OAR */\n      0x01\n      0x00\n        /* \"provableAPI_0.5.sol\":14107:14176  OAR = OracleAddrResolverI(0xB7A07BcF2Ba2f2703b24C0691b5278999C59AC7e) */\n      0x0100\n      exp\n      dup2\n      sload\n      dup2\n      0xffffffffffffffffffffffffffffffffffffffff\n      mul\n      not\n      and\n      swap1\n      dup4\n      0xffffffffffffffffffffffffffffffffffffffff\n      and\n      mul\n      or\n      swap1\n      sstore\n      pop\n        /* \"provableAPI_0.5.sol\":14191:14227  provable_setNetworkName(\"eth_kovan\") */\n      tag_297\n      mload(0x40)\n      dup1\n      0x40\n      add\n      0x40\n      mstore\n      dup1\n      0x09\n      dup2\n      mstore\n      0x20\n      add\n      0x6574685f6b6f76616e0000000000000000000000000000000000000000000000\n      dup2\n      mstore\n      pop\n        /* \"provableAPI_0.5.sol\":14191:14214  provable_setNetworkName */\n      tag_291\n        /* \"provableAPI_0.5.sol\":14191:14227  provable_setNetworkName(\"eth_kovan\") */\n      jump\t// in\n    tag_297:\n        /* \"provableAPI_0.5.sol\":14249:14253  true */\n      0x01\n        /* \"provableAPI_0.5.sol\":14242:14253  return true */\n      swap1\n      pop\n      jump(tag_287)\n        /* \"provableAPI_0.5.sol\":14011:14265  if (getCodeSize(0xB7A07BcF2Ba2f2703b24C0691b5278999C59AC7e) > 0) { //kovan testnet\r... */\n    tag_296:\n        /* \"provableAPI_0.5.sol\":14337:14338  0 */\n      0x00\n        /* \"provableAPI_0.5.sol\":14279:14334  getCodeSize(0x146500cfd35B22E4A392Fe0aDc06De1a1368Ed48) */\n      tag_298\n        /* \"provableAPI_0.5.sol\":14291:14333  0x146500cfd35B22E4A392Fe0aDc06De1a1368Ed48 */\n      0x146500cfd35b22e4a392fe0adc06de1a1368ed48\n        /* \"provableAPI_0.5.sol\":14279:14290  getCodeSize */\n      tag_117\n        /* \"provableAPI_0.5.sol\":14279:14334  getCodeSize(0x146500cfd35B22E4A392Fe0aDc06De1a1368Ed48) */\n      jump\t// in\n    tag_298:\n        /* \"provableAPI_0.5.sol\":14279:14338  getCodeSize(0x146500cfd35B22E4A392Fe0aDc06De1a1368Ed48) > 0 */\n      gt\n        /* \"provableAPI_0.5.sol\":14275:14533  if (getCodeSize(0x146500cfd35B22E4A392Fe0aDc06De1a1368Ed48) > 0) { //rinkeby testnet\r... */\n      iszero\n      tag_299\n      jumpi\n        /* \"provableAPI_0.5.sol\":14399:14441  0x146500cfd35B22E4A392Fe0aDc06De1a1368Ed48 */\n      0x146500cfd35b22e4a392fe0adc06de1a1368ed48\n        /* \"provableAPI_0.5.sol\":14373:14376  OAR */\n      0x01\n      0x00\n        /* \"provableAPI_0.5.sol\":14373:14442  OAR = OracleAddrResolverI(0x146500cfd35B22E4A392Fe0aDc06De1a1368Ed48) */\n      0x0100\n      exp\n      dup2\n      sload\n      dup2\n      0xffffffffffffffffffffffffffffffffffffffff\n      mul\n      not\n      and\n      swap1\n      dup4\n      0xffffffffffffffffffffffffffffffffffffffff\n      and\n      mul\n      or\n      swap1\n      sstore\n      pop\n        /* \"provableAPI_0.5.sol\":14457:14495  provable_setNetworkName(\"eth_rinkeby\") */\n      tag_300\n      mload(0x40)\n      dup1\n      0x40\n      add\n      0x40\n      mstore\n      dup1\n      0x0b\n      dup2\n      mstore\n      0x20\n      add\n      0x6574685f72696e6b656279000000000000000000000000000000000000000000\n      dup2\n      mstore\n      pop\n        /* \"provableAPI_0.5.sol\":14457:14480  provable_setNetworkName */\n      tag_291\n        /* \"provableAPI_0.5.sol\":14457:14495  provable_setNetworkName(\"eth_rinkeby\") */\n      jump\t// in\n    tag_300:\n        /* \"provableAPI_0.5.sol\":14517:14521  true */\n      0x01\n        /* \"provableAPI_0.5.sol\":14510:14521  return true */\n      swap1\n      pop\n      jump(tag_287)\n        /* \"provableAPI_0.5.sol\":14275:14533  if (getCodeSize(0x146500cfd35B22E4A392Fe0aDc06De1a1368Ed48) > 0) { //rinkeby testnet\r... */\n    tag_299:\n        /* \"provableAPI_0.5.sol\":14605:14606  0 */\n      0x00\n        /* \"provableAPI_0.5.sol\":14547:14602  getCodeSize(0xa2998EFD205FB9D4B4963aFb70778D6354ad3A41) */\n      tag_301\n        /* \"provableAPI_0.5.sol\":14559:14601  0xa2998EFD205FB9D4B4963aFb70778D6354ad3A41 */\n      0xa2998efd205fb9d4b4963afb70778d6354ad3a41\n        /* \"provableAPI_0.5.sol\":14547:14558  getCodeSize */\n      tag_117\n        /* \"provableAPI_0.5.sol\":14547:14602  getCodeSize(0xa2998EFD205FB9D4B4963aFb70778D6354ad3A41) */\n      jump\t// in\n    tag_301:\n        /* \"provableAPI_0.5.sol\":14547:14606  getCodeSize(0xa2998EFD205FB9D4B4963aFb70778D6354ad3A41) > 0 */\n      gt\n        /* \"provableAPI_0.5.sol\":14543:14799  if (getCodeSize(0xa2998EFD205FB9D4B4963aFb70778D6354ad3A41) > 0) { //goerli testnet\r... */\n      iszero\n      tag_302\n      jumpi\n        /* \"provableAPI_0.5.sol\":14666:14708  0xa2998EFD205FB9D4B4963aFb70778D6354ad3A41 */\n      0xa2998efd205fb9d4b4963afb70778d6354ad3a41\n        /* \"provableAPI_0.5.sol\":14640:14643  OAR */\n      0x01\n      0x00\n        /* \"provableAPI_0.5.sol\":14640:14709  OAR = OracleAddrResolverI(0xa2998EFD205FB9D4B4963aFb70778D6354ad3A41) */\n      0x0100\n      exp\n      dup2\n      sload\n      dup2\n      0xffffffffffffffffffffffffffffffffffffffff\n      mul\n      not\n      and\n      swap1\n      dup4\n      0xffffffffffffffffffffffffffffffffffffffff\n      and\n      mul\n      or\n      swap1\n      sstore\n      pop\n        /* \"provableAPI_0.5.sol\":14724:14761  provable_setNetworkName(\"eth_goerli\") */\n      tag_303\n      mload(0x40)\n      dup1\n      0x40\n      add\n      0x40\n      mstore\n      dup1\n      0x0a\n      dup2\n      mstore\n      0x20\n      add\n      0x6574685f676f65726c6900000000000000000000000000000000000000000000\n      dup2\n      mstore\n      pop\n        /* \"provableAPI_0.5.sol\":14724:14747  provable_setNetworkName */\n      tag_291\n        /* \"provableAPI_0.5.sol\":14724:14761  provable_setNetworkName(\"eth_goerli\") */\n      jump\t// in\n    tag_303:\n        /* \"provableAPI_0.5.sol\":14783:14787  true */\n      0x01\n        /* \"provableAPI_0.5.sol\":14776:14787  return true */\n      swap1\n      pop\n      jump(tag_287)\n        /* \"provableAPI_0.5.sol\":14543:14799  if (getCodeSize(0xa2998EFD205FB9D4B4963aFb70778D6354ad3A41) > 0) { //goerli testnet\r... */\n    tag_302:\n        /* \"provableAPI_0.5.sol\":14871:14872  0 */\n      0x00\n        /* \"provableAPI_0.5.sol\":14813:14868  getCodeSize(0x6f485C8BF6fc43eA212E93BBF8ce046C7f1cb475) */\n      tag_304\n        /* \"provableAPI_0.5.sol\":14825:14867  0x6f485C8BF6fc43eA212E93BBF8ce046C7f1cb475 */\n      0x6f485c8bf6fc43ea212e93bbf8ce046c7f1cb475\n        /* \"provableAPI_0.5.sol\":14813:14824  getCodeSize */\n      tag_117\n        /* \"provableAPI_0.5.sol\":14813:14868  getCodeSize(0x6f485C8BF6fc43eA212E93BBF8ce046C7f1cb475) */\n      jump\t// in\n    tag_304:\n        /* \"provableAPI_0.5.sol\":14813:14872  getCodeSize(0x6f485C8BF6fc43eA212E93BBF8ce046C7f1cb475) > 0 */\n      gt\n        /* \"provableAPI_0.5.sol\":14809:15014  if (getCodeSize(0x6f485C8BF6fc43eA212E93BBF8ce046C7f1cb475) > 0) { //ethereum-bridge\r... */\n      iszero\n      tag_305\n      jumpi\n        /* \"provableAPI_0.5.sol\":14933:14975  0x6f485C8BF6fc43eA212E93BBF8ce046C7f1cb475 */\n      0x6f485c8bf6fc43ea212e93bbf8ce046c7f1cb475\n        /* \"provableAPI_0.5.sol\":14907:14910  OAR */\n      0x01\n      0x00\n        /* \"provableAPI_0.5.sol\":14907:14976  OAR = OracleAddrResolverI(0x6f485C8BF6fc43eA212E93BBF8ce046C7f1cb475) */\n      0x0100\n      exp\n      dup2\n      sload\n      dup2\n      0xffffffffffffffffffffffffffffffffffffffff\n      mul\n      not\n      and\n      swap1\n      dup4\n      0xffffffffffffffffffffffffffffffffffffffff\n      and\n      mul\n      or\n      swap1\n      sstore\n      pop\n        /* \"provableAPI_0.5.sol\":14998:15002  true */\n      0x01\n        /* \"provableAPI_0.5.sol\":14991:15002  return true */\n      swap1\n      pop\n      jump(tag_287)\n        /* \"provableAPI_0.5.sol\":14809:15014  if (getCodeSize(0x6f485C8BF6fc43eA212E93BBF8ce046C7f1cb475) > 0) { //ethereum-bridge\r... */\n    tag_305:\n        /* \"provableAPI_0.5.sol\":15086:15087  0 */\n      0x00\n        /* \"provableAPI_0.5.sol\":15028:15083  getCodeSize(0x20e12A1F859B3FeaE5Fb2A0A32C18F5a65555bBF) */\n      tag_306\n        /* \"provableAPI_0.5.sol\":15040:15082  0x20e12A1F859B3FeaE5Fb2A0A32C18F5a65555bBF */\n      0x20e12a1f859b3feae5fb2a0a32c18f5a65555bbf\n        /* \"provableAPI_0.5.sol\":15028:15039  getCodeSize */\n      tag_117\n        /* \"provableAPI_0.5.sol\":15028:15083  getCodeSize(0x20e12A1F859B3FeaE5Fb2A0A32C18F5a65555bBF) */\n      jump\t// in\n    tag_306:\n        /* \"provableAPI_0.5.sol\":15028:15087  getCodeSize(0x20e12A1F859B3FeaE5Fb2A0A32C18F5a65555bBF) > 0 */\n      gt\n        /* \"provableAPI_0.5.sol\":15024:15228  if (getCodeSize(0x20e12A1F859B3FeaE5Fb2A0A32C18F5a65555bBF) > 0) { //ether.camp ide\r... */\n      iszero\n      tag_307\n      jumpi\n        /* \"provableAPI_0.5.sol\":15147:15189  0x20e12A1F859B3FeaE5Fb2A0A32C18F5a65555bBF */\n      0x20e12a1f859b3feae5fb2a0a32c18f5a65555bbf\n        /* \"provableAPI_0.5.sol\":15121:15124  OAR */\n      0x01\n      0x00\n        /* \"provableAPI_0.5.sol\":15121:15190  OAR = OracleAddrResolverI(0x20e12A1F859B3FeaE5Fb2A0A32C18F5a65555bBF) */\n      0x0100\n      exp\n      dup2\n      sload\n      dup2\n      0xffffffffffffffffffffffffffffffffffffffff\n      mul\n      not\n      and\n      swap1\n      dup4\n      0xffffffffffffffffffffffffffffffffffffffff\n      and\n      mul\n      or\n      swap1\n      sstore\n      pop\n        /* \"provableAPI_0.5.sol\":15212:15216  true */\n      0x01\n        /* \"provableAPI_0.5.sol\":15205:15216  return true */\n      swap1\n      pop\n      jump(tag_287)\n        /* \"provableAPI_0.5.sol\":15024:15228  if (getCodeSize(0x20e12A1F859B3FeaE5Fb2A0A32C18F5a65555bBF) > 0) { //ether.camp ide\r... */\n    tag_307:\n        /* \"provableAPI_0.5.sol\":15300:15301  0 */\n      0x00\n        /* \"provableAPI_0.5.sol\":15242:15297  getCodeSize(0x51efaF4c8B3C9AfBD5aB9F4bbC82784Ab6ef8fAA) */\n      tag_308\n        /* \"provableAPI_0.5.sol\":15254:15296  0x51efaF4c8B3C9AfBD5aB9F4bbC82784Ab6ef8fAA */\n      0x51efaf4c8b3c9afbd5ab9f4bbc82784ab6ef8faa\n        /* \"provableAPI_0.5.sol\":15242:15253  getCodeSize */\n      tag_117\n        /* \"provableAPI_0.5.sol\":15242:15297  getCodeSize(0x51efaF4c8B3C9AfBD5aB9F4bbC82784Ab6ef8fAA) */\n      jump\t// in\n    tag_308:\n        /* \"provableAPI_0.5.sol\":15242:15301  getCodeSize(0x51efaF4c8B3C9AfBD5aB9F4bbC82784Ab6ef8fAA) > 0 */\n      gt\n        /* \"provableAPI_0.5.sol\":15238:15444  if (getCodeSize(0x51efaF4c8B3C9AfBD5aB9F4bbC82784Ab6ef8fAA) > 0) { //browser-solidity\r... */\n      iszero\n      tag_309\n      jumpi\n        /* \"provableAPI_0.5.sol\":15363:15405  0x51efaF4c8B3C9AfBD5aB9F4bbC82784Ab6ef8fAA */\n      0x51efaf4c8b3c9afbd5ab9f4bbc82784ab6ef8faa\n        /* \"provableAPI_0.5.sol\":15337:15340  OAR */\n      0x01\n      0x00\n        /* \"provableAPI_0.5.sol\":15337:15406  OAR = OracleAddrResolverI(0x51efaF4c8B3C9AfBD5aB9F4bbC82784Ab6ef8fAA) */\n      0x0100\n      exp\n      dup2\n      sload\n      dup2\n      0xffffffffffffffffffffffffffffffffffffffff\n      mul\n      not\n      and\n      swap1\n      dup4\n      0xffffffffffffffffffffffffffffffffffffffff\n      and\n      mul\n      or\n      swap1\n      sstore\n      pop\n        /* \"provableAPI_0.5.sol\":15428:15432  true */\n      0x01\n        /* \"provableAPI_0.5.sol\":15421:15432  return true */\n      swap1\n      pop\n      jump(tag_287)\n        /* \"provableAPI_0.5.sol\":15238:15444  if (getCodeSize(0x51efaF4c8B3C9AfBD5aB9F4bbC82784Ab6ef8fAA) > 0) { //browser-solidity\r... */\n    tag_309:\n        /* \"provableAPI_0.5.sol\":15461:15466  false */\n      0x00\n        /* \"provableAPI_0.5.sol\":15454:15466  return false */\n      swap1\n      pop\n        /* \"provableAPI_0.5.sol\":13404:15474  function provable_setNetwork() internal returns (bool _networkSet) {\r... */\n    tag_287:\n      swap1\n      jump\t// out\n        /* \"provableAPI_0.5.sol\":52242:52645  function matchBytes32Prefix(bytes32 _content, bytes memory _prefix, uint _nRandomBytes) internal pure returns (bool _matchesPrefix) {\r... */\n    tag_212:\n        /* \"provableAPI_0.5.sol\":52353:52372  bool _matchesPrefix */\n      0x00\n        /* \"provableAPI_0.5.sol\":52385:52396  bool match_ */\n      dup1\n        /* \"provableAPI_0.5.sol\":52399:52403  true */\n      0x01\n        /* \"provableAPI_0.5.sol\":52385:52403  bool match_ = true */\n      swap1\n      pop\n        /* \"provableAPI_0.5.sol\":52440:52453  _nRandomBytes */\n      dup3\n        /* \"provableAPI_0.5.sol\":52422:52429  _prefix */\n      dup5\n        /* \"provableAPI_0.5.sol\":52422:52436  _prefix.length */\n      mload\n        /* \"provableAPI_0.5.sol\":52422:52453  _prefix.length == _nRandomBytes */\n      eq\n        /* \"provableAPI_0.5.sol\":52414:52454  require(_prefix.length == _nRandomBytes) */\n      tag_311\n      jumpi\n      0x00\n      dup1\n      revert\n    tag_311:\n        /* \"provableAPI_0.5.sol\":52470:52479  uint256 i */\n      0x00\n        /* \"provableAPI_0.5.sol\":52482:52483  0 */\n      dup1\n        /* \"provableAPI_0.5.sol\":52470:52483  uint256 i = 0 */\n      swap1\n      pop\n        /* \"provableAPI_0.5.sol\":52465:52614  for (uint256 i = 0; i< _nRandomBytes; i++) {\r... */\n    tag_312:\n        /* \"provableAPI_0.5.sol\":52488:52501  _nRandomBytes */\n      dup4\n        /* \"provableAPI_0.5.sol\":52485:52486  i */\n      dup2\n        /* \"provableAPI_0.5.sol\":52485:52501  i< _nRandomBytes */\n      lt\n        /* \"provableAPI_0.5.sol\":52465:52614  for (uint256 i = 0; i< _nRandomBytes; i++) {\r... */\n      iszero\n      tag_313\n      jumpi\n        /* \"provableAPI_0.5.sol\":52542:52549  _prefix */\n      dup5\n        /* \"provableAPI_0.5.sol\":52550:52551  i */\n      dup2\n        /* \"provableAPI_0.5.sol\":52542:52552  _prefix[i] */\n      dup2\n      mload\n      dup2\n      lt\n      tag_315\n      jumpi\n      invalid\n    tag_315:\n      0x20\n      add\n      add\n      mload\n      0xf8\n      shr\n      0xf8\n      shl\n        /* \"provableAPI_0.5.sol\":52527:52552  _content[i] != _prefix[i] */\n      not(0xffffffffffffffffffffffffffffffffffffffffffffffffffffffffffffff)\n      and\n        /* \"provableAPI_0.5.sol\":52527:52535  _content */\n      dup7\n        /* \"provableAPI_0.5.sol\":52536:52537  i */\n      dup3\n        /* \"provableAPI_0.5.sol\":52527:52538  _content[i] */\n      0x20\n      dup2\n      lt\n      tag_316\n      jumpi\n      invalid\n    tag_316:\n      byte\n      0xf8\n      shl\n        /* \"provableAPI_0.5.sol\":52527:52552  _content[i] != _prefix[i] */\n      not(0xffffffffffffffffffffffffffffffffffffffffffffffffffffffffffffff)\n      and\n      eq\n        /* \"provableAPI_0.5.sol\":52523:52603  if (_content[i] != _prefix[i]) {\r... */\n      tag_317\n      jumpi\n        /* \"provableAPI_0.5.sol\":52582:52587  false */\n      0x00\n        /* \"provableAPI_0.5.sol\":52573:52587  match_ = false */\n      swap2\n      pop\n        /* \"provableAPI_0.5.sol\":52523:52603  if (_content[i] != _prefix[i]) {\r... */\n    tag_317:\n        /* \"provableAPI_0.5.sol\":52503:52506  i++ */\n      dup1\n      dup1\n      0x01\n      add\n      swap2\n      pop\n      pop\n        /* \"provableAPI_0.5.sol\":52465:52614  for (uint256 i = 0; i< _nRandomBytes; i++) {\r... */\n      jump(tag_312)\n    tag_313:\n      pop\n        /* \"provableAPI_0.5.sol\":52631:52637  match_ */\n      dup1\n        /* \"provableAPI_0.5.sol\":52624:52637  return match_ */\n      swap2\n      pop\n      pop\n        /* \"provableAPI_0.5.sol\":52242:52645  function matchBytes32Prefix(bytes32 _content, bytes memory _prefix, uint _nRandomBytes) internal pure returns (bool _matchesPrefix) {\r... */\n      swap4\n      swap3\n      pop\n      pop\n      pop\n      jump\t// out\n        /* \"provableAPI_0.5.sol\":48982:50007  function verifySig(bytes32 _tosignh, bytes memory _dersig, bytes memory _pubkey) internal returns (bool _sigVerified) {\r... */\n    tag_236:\n        /* \"provableAPI_0.5.sol\":49081:49098  bool _sigVerified */\n      0x00\n        /* \"provableAPI_0.5.sol\":49111:49121  bool sigok */\n      dup1\n        /* \"provableAPI_0.5.sol\":49132:49146  address signer */\n      0x00\n        /* \"provableAPI_0.5.sol\":49157:49169  bytes32 sigr */\n      dup1\n        /* \"provableAPI_0.5.sol\":49180:49192  bytes32 sigs */\n      0x00\n        /* \"provableAPI_0.5.sol\":49203:49221  bytes memory sigr_ */\n      0x60\n        /* \"provableAPI_0.5.sol\":49234:49236  32 */\n      0x20\n        /* \"provableAPI_0.5.sol\":49224:49237  new bytes(32) */\n      mload(0x40)\n      swap1\n      dup1\n      dup3\n      mstore\n      dup1\n      0x1f\n      add\n      not(0x1f)\n      and\n      0x20\n      add\n      dup3\n      add\n      0x40\n      mstore\n      dup1\n      iszero\n      tag_319\n      jumpi\n      dup2\n      0x20\n      add\n        /* \"--CODEGEN--\":29:30   */\n      0x01\n        /* \"--CODEGEN--\":21:27   */\n      dup3\n        /* \"--CODEGEN--\":17:31   */\n      mul\n        /* \"--CODEGEN--\":116:120   */\n      dup1\n        /* \"--CODEGEN--\":104:114   */\n      codesize\n        /* \"--CODEGEN--\":96:102   */\n      dup4\n        /* \"--CODEGEN--\":87:121   */\n      codecopy\n        /* \"--CODEGEN--\":147:151   */\n      dup1\n        /* \"--CODEGEN--\":139:145   */\n      dup3\n        /* \"--CODEGEN--\":135:152   */\n      add\n        /* \"--CODEGEN--\":125:152   */\n      swap2\n      pop\n        /* \"--CODEGEN--\":0:156   */\n      pop\n        /* \"provableAPI_0.5.sol\":49224:49237  new bytes(32) */\n      swap1\n      pop\n    tag_319:\n      pop\n        /* \"provableAPI_0.5.sol\":49203:49237  bytes memory sigr_ = new bytes(32) */\n      swap1\n      pop\n        /* \"provableAPI_0.5.sol\":49248:49259  uint offset */\n      0x00\n        /* \"provableAPI_0.5.sol\":49293:49297  0x20 */\n      0x20\n        /* \"provableAPI_0.5.sol\":49278:49285  _dersig */\n      dup10\n        /* \"provableAPI_0.5.sol\":49286:49287  3 */\n      0x03\n        /* \"provableAPI_0.5.sol\":49278:49288  _dersig[3] */\n      dup2\n      mload\n      dup2\n      lt\n      tag_320\n      jumpi\n      invalid\n    tag_320:\n      0x20\n      add\n      add\n      mload\n      0xf8\n      shr\n      0xf8\n      shl\n        /* \"provableAPI_0.5.sol\":49272:49289  uint8(_dersig[3]) */\n      0xf8\n      shr\n        /* \"provableAPI_0.5.sol\":49267:49290  uint(uint8(_dersig[3])) */\n      0xff\n      and\n        /* \"provableAPI_0.5.sol\":49267:49297  uint(uint8(_dersig[3])) - 0x20 */\n      sub\n        /* \"provableAPI_0.5.sol\":49262:49263  4 */\n      0x04\n        /* \"provableAPI_0.5.sol\":49262:49298  4 + (uint(uint8(_dersig[3])) - 0x20) */\n      add\n        /* \"provableAPI_0.5.sol\":49248:49298  uint offset = 4 + (uint(uint8(_dersig[3])) - 0x20) */\n      swap1\n      pop\n        /* \"provableAPI_0.5.sol\":49317:49357  copyBytes(_dersig, offset, 32, sigr_, 0) */\n      tag_321\n        /* \"provableAPI_0.5.sol\":49327:49334  _dersig */\n      dup10\n        /* \"provableAPI_0.5.sol\":49336:49342  offset */\n      dup3\n        /* \"provableAPI_0.5.sol\":49344:49346  32 */\n      0x20\n        /* \"provableAPI_0.5.sol\":49348:49353  sigr_ */\n      dup6\n        /* \"provableAPI_0.5.sol\":49355:49356  0 */\n      0x00\n        /* \"provableAPI_0.5.sol\":49317:49326  copyBytes */\n      tag_156\n        /* \"provableAPI_0.5.sol\":49317:49357  copyBytes(_dersig, offset, 32, sigr_, 0) */\n      jump\t// in\n    tag_321:\n        /* \"provableAPI_0.5.sol\":49309:49357  sigr_ = copyBytes(_dersig, offset, 32, sigr_, 0) */\n      swap2\n      pop\n        /* \"provableAPI_0.5.sol\":49368:49386  bytes memory sigs_ */\n      0x60\n        /* \"provableAPI_0.5.sol\":49399:49401  32 */\n      0x20\n        /* \"provableAPI_0.5.sol\":49389:49402  new bytes(32) */\n      mload(0x40)\n      swap1\n      dup1\n      dup3\n      mstore\n      dup1\n      0x1f\n      add\n      not(0x1f)\n      and\n      0x20\n      add\n      dup3\n      add\n      0x40\n      mstore\n      dup1\n      iszero\n      tag_322\n      jumpi\n      dup2\n      0x20\n      add\n        /* \"--CODEGEN--\":29:30   */\n      0x01\n        /* \"--CODEGEN--\":21:27   */\n      dup3\n        /* \"--CODEGEN--\":17:31   */\n      mul\n        /* \"--CODEGEN--\":116:120   */\n      dup1\n        /* \"--CODEGEN--\":104:114   */\n      codesize\n        /* \"--CODEGEN--\":96:102   */\n      dup4\n        /* \"--CODEGEN--\":87:121   */\n      codecopy\n        /* \"--CODEGEN--\":147:151   */\n      dup1\n        /* \"--CODEGEN--\":139:145   */\n      dup3\n        /* \"--CODEGEN--\":135:152   */\n      add\n        /* \"--CODEGEN--\":125:152   */\n      swap2\n      pop\n        /* \"--CODEGEN--\":0:156   */\n      pop\n        /* \"provableAPI_0.5.sol\":49389:49402  new bytes(32) */\n      swap1\n      pop\n    tag_322:\n      pop\n        /* \"provableAPI_0.5.sol\":49368:49402  bytes memory sigs_ = new bytes(32) */\n      swap1\n      pop\n        /* \"provableAPI_0.5.sol\":49423:49429  32 + 2 */\n      0x22\n        /* \"provableAPI_0.5.sol\":49413:49429  offset += 32 + 2 */\n      dup3\n      add\n      swap2\n      pop\n        /* \"provableAPI_0.5.sol\":49448:49532  copyBytes(_dersig, offset + (uint(uint8(_dersig[offset - 1])) - 0x20), 32, sigs_, 0) */\n      tag_323\n        /* \"provableAPI_0.5.sol\":49458:49465  _dersig */\n      dup11\n        /* \"provableAPI_0.5.sol\":49512:49516  0x20 */\n      0x20\n        /* \"provableAPI_0.5.sol\":49488:49495  _dersig */\n      dup13\n        /* \"provableAPI_0.5.sol\":49505:49506  1 */\n      0x01\n        /* \"provableAPI_0.5.sol\":49496:49502  offset */\n      dup7\n        /* \"provableAPI_0.5.sol\":49496:49506  offset - 1 */\n      sub\n        /* \"provableAPI_0.5.sol\":49488:49507  _dersig[offset - 1] */\n      dup2\n      mload\n      dup2\n      lt\n      tag_324\n      jumpi\n      invalid\n    tag_324:\n      0x20\n      add\n      add\n      mload\n      0xf8\n      shr\n      0xf8\n      shl\n        /* \"provableAPI_0.5.sol\":49482:49508  uint8(_dersig[offset - 1]) */\n      0xf8\n      shr\n        /* \"provableAPI_0.5.sol\":49477:49509  uint(uint8(_dersig[offset - 1])) */\n      0xff\n      and\n        /* \"provableAPI_0.5.sol\":49477:49516  uint(uint8(_dersig[offset - 1])) - 0x20 */\n      sub\n        /* \"provableAPI_0.5.sol\":49467:49473  offset */\n      dup5\n        /* \"provableAPI_0.5.sol\":49467:49517  offset + (uint(uint8(_dersig[offset - 1])) - 0x20) */\n      add\n        /* \"provableAPI_0.5.sol\":49519:49521  32 */\n      0x20\n        /* \"provableAPI_0.5.sol\":49523:49528  sigs_ */\n      dup5\n        /* \"provableAPI_0.5.sol\":49530:49531  0 */\n      0x00\n        /* \"provableAPI_0.5.sol\":49448:49457  copyBytes */\n      tag_156\n        /* \"provableAPI_0.5.sol\":49448:49532  copyBytes(_dersig, offset + (uint(uint8(_dersig[offset - 1])) - 0x20), 32, sigs_, 0) */\n      jump\t// in\n    tag_323:\n        /* \"provableAPI_0.5.sol\":49440:49532  sigs_ = copyBytes(_dersig, offset + (uint(uint8(_dersig[offset - 1])) - 0x20), 32, sigs_, 0) */\n      swap1\n      pop\n        /* \"provableAPI_0.5.sol\":49592:49594  32 */\n      0x20\n        /* \"provableAPI_0.5.sol\":49585:49590  sigr_ */\n      dup4\n        /* \"provableAPI_0.5.sol\":49581:49595  add(sigr_, 32) */\n      add\n        /* \"provableAPI_0.5.sol\":49575:49596  mload(add(sigr_, 32)) */\n      mload\n        /* \"provableAPI_0.5.sol\":49567:49596  sigr := mload(add(sigr_, 32)) */\n      swap5\n      pop\n        /* \"provableAPI_0.5.sol\":49635:49637  32 */\n      0x20\n        /* \"provableAPI_0.5.sol\":49628:49633  sigs_ */\n      dup2\n        /* \"provableAPI_0.5.sol\":49624:49638  add(sigs_, 32) */\n      add\n        /* \"provableAPI_0.5.sol\":49618:49639  mload(add(sigs_, 32)) */\n      mload\n        /* \"provableAPI_0.5.sol\":49610:49639  sigs := mload(add(sigs_, 32)) */\n      swap4\n      pop\n        /* \"provableAPI_0.5.sol\":49678:49719  safer_ecrecover(_tosignh, 27, sigr, sigs) */\n      tag_325\n        /* \"provableAPI_0.5.sol\":49694:49702  _tosignh */\n      dup12\n        /* \"provableAPI_0.5.sol\":49704:49706  27 */\n      0x1b\n        /* \"provableAPI_0.5.sol\":49708:49712  sigr */\n      dup8\n        /* \"provableAPI_0.5.sol\":49714:49718  sigs */\n      dup8\n        /* \"provableAPI_0.5.sol\":49678:49693  safer_ecrecover */\n      tag_326\n        /* \"provableAPI_0.5.sol\":49678:49719  safer_ecrecover(_tosignh, 27, sigr, sigs) */\n      jump\t// in\n    tag_325:\n        /* \"provableAPI_0.5.sol\":49660:49719  (sigok, signer) = safer_ecrecover(_tosignh, 27, sigr, sigs) */\n      dup1\n      swap8\n      pop\n      dup2\n      swap9\n      pop\n      pop\n      pop\n        /* \"provableAPI_0.5.sol\":49783:49789  signer */\n      dup6\n        /* \"provableAPI_0.5.sol\":49734:49789  address(uint160(uint256(keccak256(_pubkey)))) == signer */\n      0xffffffffffffffffffffffffffffffffffffffff\n      and\n        /* \"provableAPI_0.5.sol\":49768:49775  _pubkey */\n      dup10\n        /* \"provableAPI_0.5.sol\":49758:49776  keccak256(_pubkey) */\n      dup1\n      mload\n      swap1\n      0x20\n      add\n      keccak256\n        /* \"provableAPI_0.5.sol\":49750:49777  uint256(keccak256(_pubkey)) */\n      0x00\n      shr\n        /* \"provableAPI_0.5.sol\":49734:49789  address(uint160(uint256(keccak256(_pubkey)))) == signer */\n      0xffffffffffffffffffffffffffffffffffffffff\n      and\n      eq\n        /* \"provableAPI_0.5.sol\":49730:50000  if (address(uint160(uint256(keccak256(_pubkey)))) == signer) {\r... */\n      iszero\n      tag_327\n      jumpi\n        /* \"provableAPI_0.5.sol\":49813:49817  true */\n      0x01\n        /* \"provableAPI_0.5.sol\":49806:49817  return true */\n      swap8\n      pop\n      pop\n      pop\n      pop\n      pop\n      pop\n      pop\n      pop\n      jump(tag_318)\n        /* \"provableAPI_0.5.sol\":49730:50000  if (address(uint160(uint256(keccak256(_pubkey)))) == signer) {\r... */\n    tag_327:\n        /* \"provableAPI_0.5.sol\":49868:49909  safer_ecrecover(_tosignh, 28, sigr, sigs) */\n      tag_329\n        /* \"provableAPI_0.5.sol\":49884:49892  _tosignh */\n      dup12\n        /* \"provableAPI_0.5.sol\":49894:49896  28 */\n      0x1c\n        /* \"provableAPI_0.5.sol\":49898:49902  sigr */\n      dup8\n        /* \"provableAPI_0.5.sol\":49904:49908  sigs */\n      dup8\n        /* \"provableAPI_0.5.sol\":49868:49883  safer_ecrecover */\n      tag_326\n        /* \"provableAPI_0.5.sol\":49868:49909  safer_ecrecover(_tosignh, 28, sigr, sigs) */\n      jump\t// in\n    tag_329:\n        /* \"provableAPI_0.5.sol\":49850:49909  (sigok, signer) = safer_ecrecover(_tosignh, 28, sigr, sigs) */\n      dup1\n      swap8\n      pop\n      dup2\n      swap9\n      pop\n      pop\n      pop\n        /* \"provableAPI_0.5.sol\":49981:49987  signer */\n      dup6\n        /* \"provableAPI_0.5.sol\":49932:49987  address(uint160(uint256(keccak256(_pubkey)))) == signer */\n      0xffffffffffffffffffffffffffffffffffffffff\n      and\n        /* \"provableAPI_0.5.sol\":49966:49973  _pubkey */\n      dup10\n        /* \"provableAPI_0.5.sol\":49956:49974  keccak256(_pubkey) */\n      dup1\n      mload\n      swap1\n      0x20\n      add\n      keccak256\n        /* \"provableAPI_0.5.sol\":49948:49975  uint256(keccak256(_pubkey)) */\n      0x00\n      shr\n        /* \"provableAPI_0.5.sol\":49932:49987  address(uint160(uint256(keccak256(_pubkey)))) == signer */\n      0xffffffffffffffffffffffffffffffffffffffff\n      and\n      eq\n        /* \"provableAPI_0.5.sol\":49924:49988  return (address(uint160(uint256(keccak256(_pubkey)))) == signer) */\n      swap8\n      pop\n      pop\n      pop\n      pop\n      pop\n      pop\n      pop\n      pop\n        /* \"provableAPI_0.5.sol\":48982:50007  function verifySig(bytes32 _tosignh, bytes memory _dersig, bytes memory _pubkey) internal returns (bool _sigVerified) {\r... */\n    tag_318:\n      swap4\n      swap3\n      pop\n      pop\n      pop\n      jump\t// out\n        /* \"provableAPI_0.5.sol\":50015:51637  function provable_randomDS_proofVerify__sessionKeyValidity(bytes memory _proof, uint _sig2offset) internal returns (bool _proofVerified) {\r... */\n    tag_240:\n        /* \"provableAPI_0.5.sol\":50131:50150  bool _proofVerified */\n      0x00\n        /* \"provableAPI_0.5.sol\":50163:50173  bool sigok */\n      dup1\n        /* \"provableAPI_0.5.sol\":50326:50343  bytes memory sig2 */\n      0x60\n        /* \"provableAPI_0.5.sol\":50395:50396  2 */\n      0x02\n        /* \"provableAPI_0.5.sol\":50367:50373  _proof */\n      dup6\n        /* \"provableAPI_0.5.sol\":50388:50389  1 */\n      0x01\n        /* \"provableAPI_0.5.sol\":50374:50385  _sig2offset */\n      dup7\n        /* \"provableAPI_0.5.sol\":50374:50389  _sig2offset + 1 */\n      add\n        /* \"provableAPI_0.5.sol\":50367:50390  _proof[_sig2offset + 1] */\n      dup2\n      mload\n      dup2\n      lt\n      tag_331\n      jumpi\n      invalid\n    tag_331:\n      0x20\n      add\n      add\n      mload\n      0xf8\n      shr\n      0xf8\n      shl\n        /* \"provableAPI_0.5.sol\":50361:50391  uint8(_proof[_sig2offset + 1]) */\n      0xf8\n      shr\n        /* \"provableAPI_0.5.sol\":50356:50392  uint(uint8(_proof[_sig2offset + 1])) */\n      0xff\n      and\n        /* \"provableAPI_0.5.sol\":50356:50396  uint(uint8(_proof[_sig2offset + 1])) + 2 */\n      add\n        /* \"provableAPI_0.5.sol\":50346:50397  new bytes(uint(uint8(_proof[_sig2offset + 1])) + 2) */\n      mload(0x40)\n      swap1\n      dup1\n      dup3\n      mstore\n      dup1\n      0x1f\n      add\n      not(0x1f)\n      and\n      0x20\n      add\n      dup3\n      add\n      0x40\n      mstore\n      dup1\n      iszero\n      tag_332\n      jumpi\n      dup2\n      0x20\n      add\n        /* \"--CODEGEN--\":29:30   */\n      0x01\n        /* \"--CODEGEN--\":21:27   */\n      dup3\n        /* \"--CODEGEN--\":17:31   */\n      mul\n        /* \"--CODEGEN--\":116:120   */\n      dup1\n        /* \"--CODEGEN--\":104:114   */\n      codesize\n        /* \"--CODEGEN--\":96:102   */\n      dup4\n        /* \"--CODEGEN--\":87:121   */\n      codecopy\n        /* \"--CODEGEN--\":147:151   */\n      dup1\n        /* \"--CODEGEN--\":139:145   */\n      dup3\n        /* \"--CODEGEN--\":135:152   */\n      add\n        /* \"--CODEGEN--\":125:152   */\n      swap2\n      pop\n        /* \"--CODEGEN--\":0:156   */\n      pop\n        /* \"provableAPI_0.5.sol\":50346:50397  new bytes(uint(uint8(_proof[_sig2offset + 1])) + 2) */\n      swap1\n      pop\n    tag_332:\n      pop\n        /* \"provableAPI_0.5.sol\":50326:50397  bytes memory sig2 = new bytes(uint(uint8(_proof[_sig2offset + 1])) + 2) */\n      swap1\n      pop\n        /* \"provableAPI_0.5.sol\":50408:50460  copyBytes(_proof, _sig2offset, sig2.length, sig2, 0) */\n      tag_333\n        /* \"provableAPI_0.5.sol\":50418:50424  _proof */\n      dup6\n        /* \"provableAPI_0.5.sol\":50426:50437  _sig2offset */\n      dup6\n        /* \"provableAPI_0.5.sol\":50439:50443  sig2 */\n      dup4\n        /* \"provableAPI_0.5.sol\":50439:50450  sig2.length */\n      mload\n        /* \"provableAPI_0.5.sol\":50452:50456  sig2 */\n      dup5\n        /* \"provableAPI_0.5.sol\":50458:50459  0 */\n      0x00\n        /* \"provableAPI_0.5.sol\":50408:50417  copyBytes */\n      tag_156\n        /* \"provableAPI_0.5.sol\":50408:50460  copyBytes(_proof, _sig2offset, sig2.length, sig2, 0) */\n      jump\t// in\n    tag_333:\n      pop\n        /* \"provableAPI_0.5.sol\":50471:50498  bytes memory appkey1_pubkey */\n      0x60\n        /* \"provableAPI_0.5.sol\":50511:50513  64 */\n      0x40\n        /* \"provableAPI_0.5.sol\":50501:50514  new bytes(64) */\n      dup1\n      mload\n      swap1\n      dup1\n      dup3\n      mstore\n      dup1\n      0x1f\n      add\n      not(0x1f)\n      and\n      0x20\n      add\n      dup3\n      add\n      0x40\n      mstore\n      dup1\n      iszero\n      tag_334\n      jumpi\n      dup2\n      0x20\n      add\n        /* \"--CODEGEN--\":29:30   */\n      0x01\n        /* \"--CODEGEN--\":21:27   */\n      dup3\n        /* \"--CODEGEN--\":17:31   */\n      mul\n        /* \"--CODEGEN--\":116:120   */\n      dup1\n        /* \"--CODEGEN--\":104:114   */\n      codesize\n        /* \"--CODEGEN--\":96:102   */\n      dup4\n        /* \"--CODEGEN--\":87:121   */\n      codecopy\n        /* \"--CODEGEN--\":147:151   */\n      dup1\n        /* \"--CODEGEN--\":139:145   */\n      dup3\n        /* \"--CODEGEN--\":135:152   */\n      add\n        /* \"--CODEGEN--\":125:152   */\n      swap2\n      pop\n        /* \"--CODEGEN--\":0:156   */\n      pop\n        /* \"provableAPI_0.5.sol\":50501:50514  new bytes(64) */\n      swap1\n      pop\n    tag_334:\n      pop\n        /* \"provableAPI_0.5.sol\":50471:50514  bytes memory appkey1_pubkey = new bytes(64) */\n      swap1\n      pop\n        /* \"provableAPI_0.5.sol\":50525:50572  copyBytes(_proof, 3 + 1, 64, appkey1_pubkey, 0) */\n      tag_335\n        /* \"provableAPI_0.5.sol\":50535:50541  _proof */\n      dup7\n        /* \"provableAPI_0.5.sol\":50543:50548  3 + 1 */\n      0x04\n        /* \"provableAPI_0.5.sol\":50550:50552  64 */\n      0x40\n        /* \"provableAPI_0.5.sol\":50554:50568  appkey1_pubkey */\n      dup5\n        /* \"provableAPI_0.5.sol\":50570:50571  0 */\n      0x00\n        /* \"provableAPI_0.5.sol\":50525:50534  copyBytes */\n      tag_156\n        /* \"provableAPI_0.5.sol\":50525:50572  copyBytes(_proof, 3 + 1, 64, appkey1_pubkey, 0) */\n      jump\t// in\n    tag_335:\n      pop\n        /* \"provableAPI_0.5.sol\":50583:50603  bytes memory tosign2 */\n      0x60\n        /* \"provableAPI_0.5.sol\":50616:50627  1 + 65 + 32 */\n      0x62\n        /* \"provableAPI_0.5.sol\":50606:50628  new bytes(1 + 65 + 32) */\n      mload(0x40)\n      swap1\n      dup1\n      dup3\n      mstore\n      dup1\n      0x1f\n      add\n      not(0x1f)\n      and\n      0x20\n      add\n      dup3\n      add\n      0x40\n      mstore\n      dup1\n      iszero\n      tag_336\n      jumpi\n      dup2\n      0x20\n      add\n        /* \"--CODEGEN--\":29:30   */\n      0x01\n        /* \"--CODEGEN--\":21:27   */\n      dup3\n        /* \"--CODEGEN--\":17:31   */\n      mul\n        /* \"--CODEGEN--\":116:120   */\n      dup1\n        /* \"--CODEGEN--\":104:114   */\n      codesize\n        /* \"--CODEGEN--\":96:102   */\n      dup4\n        /* \"--CODEGEN--\":87:121   */\n      codecopy\n        /* \"--CODEGEN--\":147:151   */\n      dup1\n        /* \"--CODEGEN--\":139:145   */\n      dup3\n        /* \"--CODEGEN--\":135:152   */\n      add\n        /* \"--CODEGEN--\":125:152   */\n      swap2\n      pop\n        /* \"--CODEGEN--\":0:156   */\n      pop\n        /* \"provableAPI_0.5.sol\":50606:50628  new bytes(1 + 65 + 32) */\n      swap1\n      pop\n    tag_336:\n      pop\n        /* \"provableAPI_0.5.sol\":50583:50628  bytes memory tosign2 = new bytes(1 + 65 + 32) */\n      swap1\n      pop\n        /* \"provableAPI_0.5.sol\":50663:50664  1 */\n      0x01\n        /* \"provableAPI_0.5.sol\":50652:50666  byte(uint8(1)) */\n      0xf8\n      shl\n        /* \"provableAPI_0.5.sol\":50639:50646  tosign2 */\n      dup2\n        /* \"provableAPI_0.5.sol\":50647:50648  0 */\n      0x00\n        /* \"provableAPI_0.5.sol\":50639:50649  tosign2[0] */\n      dup2\n      mload\n      dup2\n      lt\n      tag_337\n      jumpi\n      invalid\n    tag_337:\n      0x20\n      add\n      add\n        /* \"provableAPI_0.5.sol\":50639:50666  tosign2[0] = byte(uint8(1)) */\n      swap1\n      not(0xffffffffffffffffffffffffffffffffffffffffffffffffffffffffffffff)\n      and\n      swap1\n      dup2\n      0x00\n      byte\n      swap1\n      mstore8\n      pop\n        /* \"provableAPI_0.5.sol\":50684:50735  copyBytes(_proof, _sig2offset - 65, 65, tosign2, 1) */\n      tag_338\n        /* \"provableAPI_0.5.sol\":50694:50700  _proof */\n      dup8\n        /* \"provableAPI_0.5.sol\":50716:50718  65 */\n      0x41\n        /* \"provableAPI_0.5.sol\":50702:50713  _sig2offset */\n      dup9\n        /* \"provableAPI_0.5.sol\":50702:50718  _sig2offset - 65 */\n      sub\n        /* \"provableAPI_0.5.sol\":50720:50722  65 */\n      0x41\n        /* \"provableAPI_0.5.sol\":50724:50731  tosign2 */\n      dup5\n        /* \"provableAPI_0.5.sol\":50733:50734  1 */\n      0x01\n        /* \"provableAPI_0.5.sol\":50684:50693  copyBytes */\n      tag_156\n        /* \"provableAPI_0.5.sol\":50684:50735  copyBytes(_proof, _sig2offset - 65, 65, tosign2, 1) */\n      jump\t// in\n    tag_338:\n      pop\n        /* \"provableAPI_0.5.sol\":50746:50767  bytes memory CODEHASH */\n      0x60\n        /* \"provableAPI_0.5.sol\":50746:50839  bytes memory CODEHASH = hex\"fd94fa71bc0ba10d39d464d0d8f465efeef0a2764e3887fcc9df41ded20f505c\" */\n      mload(0x40)\n      dup1\n      0x40\n      add\n      0x40\n      mstore\n      dup1\n      0x20\n      dup2\n      mstore\n      0x20\n      add\n      0xfd94fa71bc0ba10d39d464d0d8f465efeef0a2764e3887fcc9df41ded20f505c\n      dup2\n      mstore\n      pop\n      swap1\n      pop\n        /* \"provableAPI_0.5.sol\":50850:50893  copyBytes(CODEHASH, 0, 32, tosign2, 1 + 65) */\n      tag_339\n        /* \"provableAPI_0.5.sol\":50860:50868  CODEHASH */\n      dup2\n        /* \"provableAPI_0.5.sol\":50870:50871  0 */\n      0x00\n        /* \"provableAPI_0.5.sol\":50873:50875  32 */\n      0x20\n        /* \"provableAPI_0.5.sol\":50877:50884  tosign2 */\n      dup6\n        /* \"provableAPI_0.5.sol\":50886:50892  1 + 65 */\n      0x42\n        /* \"provableAPI_0.5.sol\":50850:50859  copyBytes */\n      tag_156\n        /* \"provableAPI_0.5.sol\":50850:50893  copyBytes(CODEHASH, 0, 32, tosign2, 1 + 65) */\n      jump\t// in\n    tag_339:\n      pop\n        /* \"provableAPI_0.5.sol\":50912:50960  verifySig(sha256(tosign2), sig2, appkey1_pubkey) */\n      tag_340\n        /* \"provableAPI_0.5.sol\":50922:50937  sha256(tosign2) */\n      0x02\n        /* \"provableAPI_0.5.sol\":50929:50936  tosign2 */\n      dup4\n        /* \"provableAPI_0.5.sol\":50922:50937  sha256(tosign2) */\n      mload(0x40)\n      dup1\n      dup3\n      dup1\n      mload\n      swap1\n      0x20\n      add\n      swap1\n      dup1\n      dup4\n      dup4\n        /* \"--CODEGEN--\":36:189   */\n    tag_341:\n        /* \"--CODEGEN--\":66:68   */\n      0x20\n        /* \"--CODEGEN--\":61:64   */\n      dup4\n        /* \"--CODEGEN--\":58:69   */\n      lt\n        /* \"--CODEGEN--\":36:189   */\n      tag_343\n      jumpi\n        /* \"--CODEGEN--\":182:185   */\n      dup1\n        /* \"--CODEGEN--\":176:186   */\n      mload\n        /* \"--CODEGEN--\":171:174   */\n      dup3\n        /* \"--CODEGEN--\":164:187   */\n      mstore\n        /* \"--CODEGEN--\":98:100   */\n      0x20\n        /* \"--CODEGEN--\":93:96   */\n      dup3\n        /* \"--CODEGEN--\":89:101   */\n      add\n        /* \"--CODEGEN--\":82:101   */\n      swap2\n      pop\n        /* \"--CODEGEN--\":123:125   */\n      0x20\n        /* \"--CODEGEN--\":118:121   */\n      dup2\n        /* \"--CODEGEN--\":114:126   */\n      add\n        /* \"--CODEGEN--\":107:126   */\n      swap1\n      pop\n        /* \"--CODEGEN--\":148:150   */\n      0x20\n        /* \"--CODEGEN--\":143:146   */\n      dup4\n        /* \"--CODEGEN--\":139:151   */\n      sub\n        /* \"--CODEGEN--\":132:151   */\n      swap3\n      pop\n        /* \"--CODEGEN--\":36:189   */\n      jump(tag_341)\n    tag_343:\n        /* \"--CODEGEN--\":274:275   */\n      0x01\n        /* \"--CODEGEN--\":267:270   */\n      dup4\n        /* \"--CODEGEN--\":263:265   */\n      0x20\n        /* \"--CODEGEN--\":259:271   */\n      sub\n        /* \"--CODEGEN--\":254:257   */\n      0x0100\n        /* \"--CODEGEN--\":250:272   */\n      exp\n        /* \"--CODEGEN--\":246:276   */\n      sub\n        /* \"--CODEGEN--\":315:319   */\n      dup1\n        /* \"--CODEGEN--\":311:320   */\n      not\n        /* \"--CODEGEN--\":305:308   */\n      dup3\n        /* \"--CODEGEN--\":299:309   */\n      mload\n        /* \"--CODEGEN--\":295:321   */\n      and\n        /* \"--CODEGEN--\":356:360   */\n      dup2\n        /* \"--CODEGEN--\":350:353   */\n      dup5\n        /* \"--CODEGEN--\":344:354   */\n      mload\n        /* \"--CODEGEN--\":340:361   */\n      and\n        /* \"--CODEGEN--\":389:396   */\n      dup1\n        /* \"--CODEGEN--\":380:387   */\n      dup3\n        /* \"--CODEGEN--\":377:397   */\n      or\n        /* \"--CODEGEN--\":372:375   */\n      dup6\n        /* \"--CODEGEN--\":365:398   */\n      mstore\n        /* \"--CODEGEN--\":3:402   */\n      pop\n      pop\n      pop\n        /* \"provableAPI_0.5.sol\":50922:50937  sha256(tosign2) */\n      pop\n      pop\n      pop\n      swap1\n      pop\n      add\n      swap2\n      pop\n      pop\n      0x20\n      mload(0x40)\n      dup1\n      dup4\n      sub\n      dup2\n      dup6\n      gas\n      staticcall\n      iszero\n        /* \"--CODEGEN--\":8:17   */\n      dup1\n        /* \"--CODEGEN--\":5:7   */\n      iszero\n      tag_344\n      jumpi\n        /* \"--CODEGEN--\":45:61   */\n      returndatasize\n        /* \"--CODEGEN--\":42:43   */\n      0x00\n        /* \"--CODEGEN--\":39:40   */\n      dup1\n        /* \"--CODEGEN--\":24:62   */\n      returndatacopy\n        /* \"--CODEGEN--\":77:93   */\n      returndatasize\n        /* \"--CODEGEN--\":74:75   */\n      0x00\n        /* \"--CODEGEN--\":67:94   */\n      revert\n        /* \"--CODEGEN--\":5:7   */\n    tag_344:\n        /* \"provableAPI_0.5.sol\":50922:50937  sha256(tosign2) */\n      pop\n      pop\n      pop\n      mload(0x40)\n      returndatasize\n        /* \"--CODEGEN--\":13:15   */\n      0x20\n        /* \"--CODEGEN--\":8:11   */\n      dup2\n        /* \"--CODEGEN--\":5:16   */\n      lt\n        /* \"--CODEGEN--\":2:4   */\n      iszero\n      tag_345\n      jumpi\n        /* \"--CODEGEN--\":29:30   */\n      0x00\n        /* \"--CODEGEN--\":26:27   */\n      dup1\n        /* \"--CODEGEN--\":19:31   */\n      revert\n        /* \"--CODEGEN--\":2:4   */\n    tag_345:\n        /* \"provableAPI_0.5.sol\":50922:50937  sha256(tosign2) */\n      dup2\n      add\n      swap1\n      dup1\n      dup1\n      mload\n      swap1\n      0x20\n      add\n      swap1\n      swap3\n      swap2\n      swap1\n      pop\n      pop\n      pop\n        /* \"provableAPI_0.5.sol\":50939:50943  sig2 */\n      dup6\n        /* \"provableAPI_0.5.sol\":50945:50959  appkey1_pubkey */\n      dup6\n        /* \"provableAPI_0.5.sol\":50912:50921  verifySig */\n      tag_236\n        /* \"provableAPI_0.5.sol\":50912:50960  verifySig(sha256(tosign2), sig2, appkey1_pubkey) */\n      jump\t// in\n    tag_340:\n        /* \"provableAPI_0.5.sol\":50904:50960  sigok = verifySig(sha256(tosign2), sig2, appkey1_pubkey) */\n      swap5\n      pop\n        /* \"provableAPI_0.5.sol\":50976:50981  sigok */\n      dup5\n        /* \"provableAPI_0.5.sol\":50971:51022  if (!sigok) {\r... */\n      tag_346\n      jumpi\n        /* \"provableAPI_0.5.sol\":51005:51010  false */\n      0x00\n        /* \"provableAPI_0.5.sol\":50998:51010  return false */\n      swap6\n      pop\n      pop\n      pop\n      pop\n      pop\n      pop\n      jump(tag_330)\n        /* \"provableAPI_0.5.sol\":50971:51022  if (!sigok) {\r... */\n    tag_346:\n        /* \"provableAPI_0.5.sol\":51125:51147  bytes memory LEDGERKEY */\n      0x60\n        /* \"provableAPI_0.5.sol\":51125:51283  bytes memory LEDGERKEY = hex\"7fb956469c5c9b89840d55b43537e66a98dd4811ea0a27224272c2e5622911e8537a2f8e86a46baec82864e98dd01e9ccc2f8bc5dfc9cbe5a91a290498dd96e4\" */\n      mload(0x40)\n      dup1\n      0x60\n      add\n      0x40\n      mstore\n      dup1\n      0x40\n      dup2\n      mstore\n      0x20\n      add\n      data_ba19e3b9bd008025c15e06a4b42e5cc3caa9fecf5d46466cc829b89a551aad6f\n      0x40\n      swap2\n      codecopy\n      swap1\n      pop\n        /* \"provableAPI_0.5.sol\":51294:51314  bytes memory tosign3 */\n      0x60\n        /* \"provableAPI_0.5.sol\":51327:51333  1 + 65 */\n      0x42\n        /* \"provableAPI_0.5.sol\":51317:51334  new bytes(1 + 65) */\n      mload(0x40)\n      swap1\n      dup1\n      dup3\n      mstore\n      dup1\n      0x1f\n      add\n      not(0x1f)\n      and\n      0x20\n      add\n      dup3\n      add\n      0x40\n      mstore\n      dup1\n      iszero\n      tag_347\n      jumpi\n      dup2\n      0x20\n      add\n        /* \"--CODEGEN--\":29:30   */\n      0x01\n        /* \"--CODEGEN--\":21:27   */\n      dup3\n        /* \"--CODEGEN--\":17:31   */\n      mul\n        /* \"--CODEGEN--\":116:120   */\n      dup1\n        /* \"--CODEGEN--\":104:114   */\n      codesize\n        /* \"--CODEGEN--\":96:102   */\n      dup4\n        /* \"--CODEGEN--\":87:121   */\n      codecopy\n        /* \"--CODEGEN--\":147:151   */\n      dup1\n        /* \"--CODEGEN--\":139:145   */\n      dup3\n        /* \"--CODEGEN--\":135:152   */\n      add\n        /* \"--CODEGEN--\":125:152   */\n      swap2\n      pop\n        /* \"--CODEGEN--\":0:156   */\n      pop\n        /* \"provableAPI_0.5.sol\":51317:51334  new bytes(1 + 65) */\n      swap1\n      pop\n    tag_347:\n      pop\n        /* \"provableAPI_0.5.sol\":51294:51334  bytes memory tosign3 = new bytes(1 + 65) */\n      swap1\n      pop\n        /* \"provableAPI_0.5.sol\":51358:51362  0xFE */\n      0xfe\n        /* \"provableAPI_0.5.sol\":51345:51362  tosign3[0] = 0xFE */\n      0xf8\n      shl\n        /* \"provableAPI_0.5.sol\":51345:51352  tosign3 */\n      dup2\n        /* \"provableAPI_0.5.sol\":51353:51354  0 */\n      0x00\n        /* \"provableAPI_0.5.sol\":51345:51355  tosign3[0] */\n      dup2\n      mload\n      dup2\n      lt\n      tag_348\n      jumpi\n      invalid\n    tag_348:\n      0x20\n      add\n      add\n        /* \"provableAPI_0.5.sol\":51345:51362  tosign3[0] = 0xFE */\n      swap1\n      not(0xffffffffffffffffffffffffffffffffffffffffffffffffffffffffffffff)\n      and\n      swap1\n      dup2\n      0x00\n      byte\n      swap1\n      mstore8\n      pop\n        /* \"provableAPI_0.5.sol\":51373:51409  copyBytes(_proof, 3, 65, tosign3, 1) */\n      tag_349\n        /* \"provableAPI_0.5.sol\":51383:51389  _proof */\n      dup11\n        /* \"provableAPI_0.5.sol\":51391:51392  3 */\n      0x03\n        /* \"provableAPI_0.5.sol\":51394:51396  65 */\n      0x41\n        /* \"provableAPI_0.5.sol\":51398:51405  tosign3 */\n      dup5\n        /* \"provableAPI_0.5.sol\":51407:51408  1 */\n      0x01\n        /* \"provableAPI_0.5.sol\":51373:51382  copyBytes */\n      tag_156\n        /* \"provableAPI_0.5.sol\":51373:51409  copyBytes(_proof, 3, 65, tosign3, 1) */\n      jump\t// in\n    tag_349:\n      pop\n        /* \"provableAPI_0.5.sol\":51420:51437  bytes memory sig3 */\n      0x60\n        /* \"provableAPI_0.5.sol\":51484:51485  2 */\n      0x02\n        /* \"provableAPI_0.5.sol\":51461:51467  _proof */\n      dup12\n        /* \"provableAPI_0.5.sol\":51468:51478  3 + 65 + 1 */\n      0x45\n        /* \"provableAPI_0.5.sol\":51461:51479  _proof[3 + 65 + 1] */\n      dup2\n      mload\n      dup2\n      lt\n      tag_350\n      jumpi\n      invalid\n    tag_350:\n      0x20\n      add\n      add\n      mload\n      0xf8\n      shr\n      0xf8\n      shl\n        /* \"provableAPI_0.5.sol\":51455:51480  uint8(_proof[3 + 65 + 1]) */\n      0xf8\n      shr\n        /* \"provableAPI_0.5.sol\":51450:51481  uint(uint8(_proof[3 + 65 + 1])) */\n      0xff\n      and\n        /* \"provableAPI_0.5.sol\":51450:51485  uint(uint8(_proof[3 + 65 + 1])) + 2 */\n      add\n        /* \"provableAPI_0.5.sol\":51440:51486  new bytes(uint(uint8(_proof[3 + 65 + 1])) + 2) */\n      mload(0x40)\n      swap1\n      dup1\n      dup3\n      mstore\n      dup1\n      0x1f\n      add\n      not(0x1f)\n      and\n      0x20\n      add\n      dup3\n      add\n      0x40\n      mstore\n      dup1\n      iszero\n      tag_351\n      jumpi\n      dup2\n      0x20\n      add\n        /* \"--CODEGEN--\":29:30   */\n      0x01\n        /* \"--CODEGEN--\":21:27   */\n      dup3\n        /* \"--CODEGEN--\":17:31   */\n      mul\n        /* \"--CODEGEN--\":116:120   */\n      dup1\n        /* \"--CODEGEN--\":104:114   */\n      codesize\n        /* \"--CODEGEN--\":96:102   */\n      dup4\n        /* \"--CODEGEN--\":87:121   */\n      codecopy\n        /* \"--CODEGEN--\":147:151   */\n      dup1\n        /* \"--CODEGEN--\":139:145   */\n      dup3\n        /* \"--CODEGEN--\":135:152   */\n      add\n        /* \"--CODEGEN--\":125:152   */\n      swap2\n      pop\n        /* \"--CODEGEN--\":0:156   */\n      pop\n        /* \"provableAPI_0.5.sol\":51440:51486  new bytes(uint(uint8(_proof[3 + 65 + 1])) + 2) */\n      swap1\n      pop\n    tag_351:\n      pop\n        /* \"provableAPI_0.5.sol\":51420:51486  bytes memory sig3 = new bytes(uint(uint8(_proof[3 + 65 + 1])) + 2) */\n      swap1\n      pop\n        /* \"provableAPI_0.5.sol\":51497:51544  copyBytes(_proof, 3 + 65, sig3.length, sig3, 0) */\n      tag_352\n        /* \"provableAPI_0.5.sol\":51507:51513  _proof */\n      dup12\n        /* \"provableAPI_0.5.sol\":51515:51521  3 + 65 */\n      0x44\n        /* \"provableAPI_0.5.sol\":51523:51527  sig3 */\n      dup4\n        /* \"provableAPI_0.5.sol\":51523:51534  sig3.length */\n      mload\n        /* \"provableAPI_0.5.sol\":51536:51540  sig3 */\n      dup5\n        /* \"provableAPI_0.5.sol\":51542:51543  0 */\n      0x00\n        /* \"provableAPI_0.5.sol\":51497:51506  copyBytes */\n      tag_156\n        /* \"provableAPI_0.5.sol\":51497:51544  copyBytes(_proof, 3 + 65, sig3.length, sig3, 0) */\n      jump\t// in\n    tag_352:\n      pop\n        /* \"provableAPI_0.5.sol\":51563:51606  verifySig(sha256(tosign3), sig3, LEDGERKEY) */\n      tag_353\n        /* \"provableAPI_0.5.sol\":51573:51588  sha256(tosign3) */\n      0x02\n        /* \"provableAPI_0.5.sol\":51580:51587  tosign3 */\n      dup4\n        /* \"provableAPI_0.5.sol\":51573:51588  sha256(tosign3) */\n      mload(0x40)\n      dup1\n      dup3\n      dup1\n      mload\n      swap1\n      0x20\n      add\n      swap1\n      dup1\n      dup4\n      dup4\n        /* \"--CODEGEN--\":36:189   */\n    tag_354:\n        /* \"--CODEGEN--\":66:68   */\n      0x20\n        /* \"--CODEGEN--\":61:64   */\n      dup4\n        /* \"--CODEGEN--\":58:69   */\n      lt\n        /* \"--CODEGEN--\":36:189   */\n      tag_356\n      jumpi\n        /* \"--CODEGEN--\":182:185   */\n      dup1\n        /* \"--CODEGEN--\":176:186   */\n      mload\n        /* \"--CODEGEN--\":171:174   */\n      dup3\n        /* \"--CODEGEN--\":164:187   */\n      mstore\n        /* \"--CODEGEN--\":98:100   */\n      0x20\n        /* \"--CODEGEN--\":93:96   */\n      dup3\n        /* \"--CODEGEN--\":89:101   */\n      add\n        /* \"--CODEGEN--\":82:101   */\n      swap2\n      pop\n        /* \"--CODEGEN--\":123:125   */\n      0x20\n        /* \"--CODEGEN--\":118:121   */\n      dup2\n        /* \"--CODEGEN--\":114:126   */\n      add\n        /* \"--CODEGEN--\":107:126   */\n      swap1\n      pop\n        /* \"--CODEGEN--\":148:150   */\n      0x20\n        /* \"--CODEGEN--\":143:146   */\n      dup4\n        /* \"--CODEGEN--\":139:151   */\n      sub\n        /* \"--CODEGEN--\":132:151   */\n      swap3\n      pop\n        /* \"--CODEGEN--\":36:189   */\n      jump(tag_354)\n    tag_356:\n        /* \"--CODEGEN--\":274:275   */\n      0x01\n        /* \"--CODEGEN--\":267:270   */\n      dup4\n        /* \"--CODEGEN--\":263:265   */\n      0x20\n        /* \"--CODEGEN--\":259:271   */\n      sub\n        /* \"--CODEGEN--\":254:257   */\n      0x0100\n        /* \"--CODEGEN--\":250:272   */\n      exp\n        /* \"--CODEGEN--\":246:276   */\n      sub\n        /* \"--CODEGEN--\":315:319   */\n      dup1\n        /* \"--CODEGEN--\":311:320   */\n      not\n        /* \"--CODEGEN--\":305:308   */\n      dup3\n        /* \"--CODEGEN--\":299:309   */\n      mload\n        /* \"--CODEGEN--\":295:321   */\n      and\n        /* \"--CODEGEN--\":356:360   */\n      dup2\n        /* \"--CODEGEN--\":350:353   */\n      dup5\n        /* \"--CODEGEN--\":344:354   */\n      mload\n        /* \"--CODEGEN--\":340:361   */\n      and\n        /* \"--CODEGEN--\":389:396   */\n      dup1\n        /* \"--CODEGEN--\":380:387   */\n      dup3\n        /* \"--CODEGEN--\":377:397   */\n      or\n        /* \"--CODEGEN--\":372:375   */\n      dup6\n        /* \"--CODEGEN--\":365:398   */\n      mstore\n        /* \"--CODEGEN--\":3:402   */\n      pop\n      pop\n      pop\n        /* \"provableAPI_0.5.sol\":51573:51588  sha256(tosign3) */\n      pop\n      pop\n      pop\n      swap1\n      pop\n      add\n      swap2\n      pop\n      pop\n      0x20\n      mload(0x40)\n      dup1\n      dup4\n      sub\n      dup2\n      dup6\n      gas\n      staticcall\n      iszero\n        /* \"--CODEGEN--\":8:17   */\n      dup1\n        /* \"--CODEGEN--\":5:7   */\n      iszero\n      tag_357\n      jumpi\n        /* \"--CODEGEN--\":45:61   */\n      returndatasize\n        /* \"--CODEGEN--\":42:43   */\n      0x00\n        /* \"--CODEGEN--\":39:40   */\n      dup1\n        /* \"--CODEGEN--\":24:62   */\n      returndatacopy\n        /* \"--CODEGEN--\":77:93   */\n      returndatasize\n        /* \"--CODEGEN--\":74:75   */\n      0x00\n        /* \"--CODEGEN--\":67:94   */\n      revert\n        /* \"--CODEGEN--\":5:7   */\n    tag_357:\n        /* \"provableAPI_0.5.sol\":51573:51588  sha256(tosign3) */\n      pop\n      pop\n      pop\n      mload(0x40)\n      returndatasize\n        /* \"--CODEGEN--\":13:15   */\n      0x20\n        /* \"--CODEGEN--\":8:11   */\n      dup2\n        /* \"--CODEGEN--\":5:16   */\n      lt\n        /* \"--CODEGEN--\":2:4   */\n      iszero\n      tag_358\n      jumpi\n        /* \"--CODEGEN--\":29:30   */\n      0x00\n        /* \"--CODEGEN--\":26:27   */\n      dup1\n        /* \"--CODEGEN--\":19:31   */\n      revert\n        /* \"--CODEGEN--\":2:4   */\n    tag_358:\n        /* \"provableAPI_0.5.sol\":51573:51588  sha256(tosign3) */\n      dup2\n      add\n      swap1\n      dup1\n      dup1\n      mload\n      swap1\n      0x20\n      add\n      swap1\n      swap3\n      swap2\n      swap1\n      pop\n      pop\n      pop\n        /* \"provableAPI_0.5.sol\":51590:51594  sig3 */\n      dup3\n        /* \"provableAPI_0.5.sol\":51596:51605  LEDGERKEY */\n      dup6\n        /* \"provableAPI_0.5.sol\":51563:51572  verifySig */\n      tag_236\n        /* \"provableAPI_0.5.sol\":51563:51606  verifySig(sha256(tosign3), sig3, LEDGERKEY) */\n      jump\t// in\n    tag_353:\n        /* \"provableAPI_0.5.sol\":51555:51606  sigok = verifySig(sha256(tosign3), sig3, LEDGERKEY) */\n      swap8\n      pop\n        /* \"provableAPI_0.5.sol\":51624:51629  sigok */\n      dup8\n        /* \"provableAPI_0.5.sol\":51617:51629  return sigok */\n      swap9\n      pop\n      pop\n      pop\n      pop\n      pop\n      pop\n      pop\n      pop\n      pop\n        /* \"provableAPI_0.5.sol\":50015:51637  function provable_randomDS_proofVerify__sessionKeyValidity(bytes memory _proof, uint _sig2offset) internal returns (bool _proofVerified) {\r... */\n    tag_330:\n      swap3\n      swap2\n      pop\n      pop\n      jump\t// out\n        /* \"provableAPI_0.5.sol\":30239:30700  function provable_query(string memory _datasource, bytes[] memory _argN, uint _gasLimit) provableAPI internal returns (bytes32 _id) {\r... */\n    tag_285:\n        /* \"provableAPI_0.5.sol\":30358:30369  bytes32 _id */\n      0x00\n        /* \"provableAPI_0.5.sol\":12187:12188  0 */\n      dup1\n        /* \"provableAPI_0.5.sol\":12163:12189  address(OAR) == address(0) */\n      0xffffffffffffffffffffffffffffffffffffffff\n      and\n        /* \"provableAPI_0.5.sol\":12171:12174  OAR */\n      0x01\n      0x00\n      swap1\n      sload\n      swap1\n      0x0100\n      exp\n      swap1\n      div\n      0xffffffffffffffffffffffffffffffffffffffff\n      and\n        /* \"provableAPI_0.5.sol\":12163:12189  address(OAR) == address(0) */\n      0xffffffffffffffffffffffffffffffffffffffff\n      and\n      eq\n        /* \"provableAPI_0.5.sol\":12162:12226  (address(OAR) == address(0)) || (getCodeSize(address(OAR)) == 0) */\n      dup1\n      tag_360\n      jumpi\n      pop\n        /* \"provableAPI_0.5.sol\":12224:12225  0 */\n      0x00\n        /* \"provableAPI_0.5.sol\":12195:12220  getCodeSize(address(OAR)) */\n      tag_361\n        /* \"provableAPI_0.5.sol\":12215:12218  OAR */\n      0x01\n      0x00\n      swap1\n      sload\n      swap1\n      0x0100\n      exp\n      swap1\n      div\n      0xffffffffffffffffffffffffffffffffffffffff\n      and\n        /* \"provableAPI_0.5.sol\":12195:12206  getCodeSize */\n      tag_117\n        /* \"provableAPI_0.5.sol\":12195:12220  getCodeSize(address(OAR)) */\n      jump\t// in\n    tag_361:\n        /* \"provableAPI_0.5.sol\":12195:12225  getCodeSize(address(OAR)) == 0 */\n      eq\n        /* \"provableAPI_0.5.sol\":12162:12226  (address(OAR) == address(0)) || (getCodeSize(address(OAR)) == 0) */\n    tag_360:\n        /* \"provableAPI_0.5.sol\":12158:12290  if ((address(OAR) == address(0)) || (getCodeSize(address(OAR)) == 0)) {\r... */\n      iszero\n      tag_362\n      jumpi\n        /* \"provableAPI_0.5.sol\":12243:12278  provable_setNetwork(networkID_auto) */\n      tag_363\n        /* \"provableAPI_0.5.sol\":11809:11810  0 */\n      0x00\n        /* \"provableAPI_0.5.sol\":12243:12262  provable_setNetwork */\n      tag_120\n        /* \"provableAPI_0.5.sol\":12243:12278  provable_setNetwork(networkID_auto) */\n      jump\t// in\n    tag_363:\n      pop\n        /* \"provableAPI_0.5.sol\":12158:12290  if ((address(OAR) == address(0)) || (getCodeSize(address(OAR)) == 0)) {\r... */\n    tag_362:\n        /* \"provableAPI_0.5.sol\":12325:12328  OAR */\n      0x01\n      0x00\n      swap1\n      sload\n      swap1\n      0x0100\n      exp\n      swap1\n      div\n      0xffffffffffffffffffffffffffffffffffffffff\n      and\n        /* \"provableAPI_0.5.sol\":12325:12339  OAR.getAddress */\n      0xffffffffffffffffffffffffffffffffffffffff\n      and\n      0x38cc4831\n        /* \"provableAPI_0.5.sol\":12325:12341  OAR.getAddress() */\n      mload(0x40)\n      dup2\n      0xffffffff\n      and\n      0xe0\n      shl\n      dup2\n      mstore\n      0x04\n      add\n      0x20\n      mload(0x40)\n      dup1\n      dup4\n      sub\n      dup2\n      0x00\n      dup8\n      dup1\n      extcodesize\n      iszero\n        /* \"--CODEGEN--\":8:17   */\n      dup1\n        /* \"--CODEGEN--\":5:7   */\n      iszero\n      tag_364\n      jumpi\n        /* \"--CODEGEN--\":30:31   */\n      0x00\n        /* \"--CODEGEN--\":27:28   */\n      dup1\n        /* \"--CODEGEN--\":20:32   */\n      revert\n        /* \"--CODEGEN--\":5:7   */\n    tag_364:\n        /* \"provableAPI_0.5.sol\":12325:12341  OAR.getAddress() */\n      pop\n      gas\n      call\n      iszero\n        /* \"--CODEGEN--\":8:17   */\n      dup1\n        /* \"--CODEGEN--\":5:7   */\n      iszero\n      tag_365\n      jumpi\n        /* \"--CODEGEN--\":45:61   */\n      returndatasize\n        /* \"--CODEGEN--\":42:43   */\n      0x00\n        /* \"--CODEGEN--\":39:40   */\n      dup1\n        /* \"--CODEGEN--\":24:62   */\n      returndatacopy\n        /* \"--CODEGEN--\":77:93   */\n      returndatasize\n        /* \"--CODEGEN--\":74:75   */\n      0x00\n        /* \"--CODEGEN--\":67:94   */\n      revert\n        /* \"--CODEGEN--\":5:7   */\n    tag_365:\n        /* \"provableAPI_0.5.sol\":12325:12341  OAR.getAddress() */\n      pop\n      pop\n      pop\n      pop\n      mload(0x40)\n      returndatasize\n        /* \"--CODEGEN--\":13:15   */\n      0x20\n        /* \"--CODEGEN--\":8:11   */\n      dup2\n        /* \"--CODEGEN--\":5:16   */\n      lt\n        /* \"--CODEGEN--\":2:4   */\n      iszero\n      tag_366\n      jumpi\n        /* \"--CODEGEN--\":29:30   */\n      0x00\n        /* \"--CODEGEN--\":26:27   */\n      dup1\n        /* \"--CODEGEN--\":19:31   */\n      revert\n        /* \"--CODEGEN--\":2:4   */\n    tag_366:\n        /* \"provableAPI_0.5.sol\":12325:12341  OAR.getAddress() */\n      dup2\n      add\n      swap1\n      dup1\n      dup1\n      mload\n      swap1\n      0x20\n      add\n      swap1\n      swap3\n      swap2\n      swap1\n      pop\n      pop\n      pop\n        /* \"provableAPI_0.5.sol\":12304:12341  address(provable) != OAR.getAddress() */\n      0xffffffffffffffffffffffffffffffffffffffff\n      and\n        /* \"provableAPI_0.5.sol\":12312:12320  provable */\n      0x00\n      dup1\n      swap1\n      sload\n      swap1\n      0x0100\n      exp\n      swap1\n      div\n      0xffffffffffffffffffffffffffffffffffffffff\n      and\n        /* \"provableAPI_0.5.sol\":12304:12341  address(provable) != OAR.getAddress() */\n      0xffffffffffffffffffffffffffffffffffffffff\n      and\n      eq\n        /* \"provableAPI_0.5.sol\":12300:12408  if (address(provable) != OAR.getAddress()) {\r... */\n      tag_367\n      jumpi\n        /* \"provableAPI_0.5.sol\":12379:12382  OAR */\n      0x01\n      0x00\n      swap1\n      sload\n      swap1\n      0x0100\n      exp\n      swap1\n      div\n      0xffffffffffffffffffffffffffffffffffffffff\n      and\n        /* \"provableAPI_0.5.sol\":12379:12393  OAR.getAddress */\n      0xffffffffffffffffffffffffffffffffffffffff\n      and\n      0x38cc4831\n        /* \"provableAPI_0.5.sol\":12379:12395  OAR.getAddress() */\n      mload(0x40)\n      dup2\n      0xffffffff\n      and\n      0xe0\n      shl\n      dup2\n      mstore\n      0x04\n      add\n      0x20\n      mload(0x40)\n      dup1\n      dup4\n      sub\n      dup2\n      0x00\n      dup8\n      dup1\n      extcodesize\n      iszero\n        /* \"--CODEGEN--\":8:17   */\n      dup1\n        /* \"--CODEGEN--\":5:7   */\n      iszero\n      tag_368\n      jumpi\n        /* \"--CODEGEN--\":30:31   */\n      0x00\n        /* \"--CODEGEN--\":27:28   */\n      dup1\n        /* \"--CODEGEN--\":20:32   */\n      revert\n        /* \"--CODEGEN--\":5:7   */\n    tag_368:\n        /* \"provableAPI_0.5.sol\":12379:12395  OAR.getAddress() */\n      pop\n      gas\n      call\n      iszero\n        /* \"--CODEGEN--\":8:17   */\n      dup1\n        /* \"--CODEGEN--\":5:7   */\n      iszero\n      tag_369\n      jumpi\n        /* \"--CODEGEN--\":45:61   */\n      returndatasize\n        /* \"--CODEGEN--\":42:43   */\n      0x00\n        /* \"--CODEGEN--\":39:40   */\n      dup1\n        /* \"--CODEGEN--\":24:62   */\n      returndatacopy\n        /* \"--CODEGEN--\":77:93   */\n      returndatasize\n        /* \"--CODEGEN--\":74:75   */\n      0x00\n        /* \"--CODEGEN--\":67:94   */\n      revert\n        /* \"--CODEGEN--\":5:7   */\n    tag_369:\n        /* \"provableAPI_0.5.sol\":12379:12395  OAR.getAddress() */\n      pop\n      pop\n      pop\n      pop\n      mload(0x40)\n      returndatasize\n        /* \"--CODEGEN--\":13:15   */\n      0x20\n        /* \"--CODEGEN--\":8:11   */\n      dup2\n        /* \"--CODEGEN--\":5:16   */\n      lt\n        /* \"--CODEGEN--\":2:4   */\n      iszero\n      tag_370\n      jumpi\n        /* \"--CODEGEN--\":29:30   */\n      0x00\n        /* \"--CODEGEN--\":26:27   */\n      dup1\n        /* \"--CODEGEN--\":19:31   */\n      revert\n        /* \"--CODEGEN--\":2:4   */\n    tag_370:\n        /* \"provableAPI_0.5.sol\":12379:12395  OAR.getAddress() */\n      dup2\n      add\n      swap1\n      dup1\n      dup1\n      mload\n      swap1\n      0x20\n      add\n      swap1\n      swap3\n      swap2\n      swap1\n      pop\n      pop\n      pop\n        /* \"provableAPI_0.5.sol\":12358:12366  provable */\n      0x00\n      dup1\n        /* \"provableAPI_0.5.sol\":12358:12396  provable = ProvableI(OAR.getAddress()) */\n      0x0100\n      exp\n      dup2\n      sload\n      dup2\n      0xffffffffffffffffffffffffffffffffffffffff\n      mul\n      not\n      and\n      swap1\n      dup4\n      0xffffffffffffffffffffffffffffffffffffffff\n      and\n      mul\n      or\n      swap1\n      sstore\n      pop\n        /* \"provableAPI_0.5.sol\":12300:12408  if (address(provable) != OAR.getAddress()) {\r... */\n    tag_367:\n        /* \"provableAPI_0.5.sol\":30382:30392  uint price */\n      0x00\n        /* \"provableAPI_0.5.sol\":30395:30403  provable */\n      dup1\n      0x00\n      swap1\n      sload\n      swap1\n      0x0100\n      exp\n      swap1\n      div\n      0xffffffffffffffffffffffffffffffffffffffff\n      and\n        /* \"provableAPI_0.5.sol\":30395:30412  provable.getPrice */\n      0xffffffffffffffffffffffffffffffffffffffff\n      and\n      0x2ef3accc\n        /* \"provableAPI_0.5.sol\":30413:30424  _datasource */\n      dup7\n        /* \"provableAPI_0.5.sol\":30426:30435  _gasLimit */\n      dup6\n        /* \"provableAPI_0.5.sol\":30395:30436  provable.getPrice(_datasource, _gasLimit) */\n      mload(0x40)\n      dup4\n      0xffffffff\n      and\n      0xe0\n      shl\n      dup2\n      mstore\n      0x04\n      add\n      dup1\n      dup1\n      0x20\n      add\n      dup4\n      dup2\n      mstore\n      0x20\n      add\n      dup3\n      dup2\n      sub\n      dup3\n      mstore\n      dup5\n      dup2\n      dup2\n      mload\n      dup2\n      mstore\n      0x20\n      add\n      swap2\n      pop\n      dup1\n      mload\n      swap1\n      0x20\n      add\n      swap1\n      dup1\n      dup4\n      dup4\n        /* \"--CODEGEN--\":23:24   */\n      0x00\n        /* \"--CODEGEN--\":8:108   */\n    tag_372:\n        /* \"--CODEGEN--\":33:36   */\n      dup4\n        /* \"--CODEGEN--\":30:31   */\n      dup2\n        /* \"--CODEGEN--\":27:37   */\n      lt\n        /* \"--CODEGEN--\":8:108   */\n      iszero\n      tag_374\n      jumpi\n        /* \"--CODEGEN--\":99:100   */\n      dup1\n        /* \"--CODEGEN--\":94:97   */\n      dup3\n        /* \"--CODEGEN--\":90:101   */\n      add\n        /* \"--CODEGEN--\":84:102   */\n      mload\n        /* \"--CODEGEN--\":80:81   */\n      dup2\n        /* \"--CODEGEN--\":75:78   */\n      dup5\n        /* \"--CODEGEN--\":71:82   */\n      add\n        /* \"--CODEGEN--\":64:103   */\n      mstore\n        /* \"--CODEGEN--\":52:54   */\n      0x20\n        /* \"--CODEGEN--\":49:50   */\n      dup2\n        /* \"--CODEGEN--\":45:55   */\n      add\n        /* \"--CODEGEN--\":40:55   */\n      swap1\n      pop\n        /* \"--CODEGEN--\":8:108   */\n      jump(tag_372)\n    tag_374:\n        /* \"--CODEGEN--\":12:26   */\n      pop\n        /* \"provableAPI_0.5.sol\":30395:30436  provable.getPrice(_datasource, _gasLimit) */\n      pop\n      pop\n      pop\n      swap1\n      pop\n      swap1\n      dup2\n      add\n      swap1\n      0x1f\n      and\n      dup1\n      iszero\n      tag_375\n      jumpi\n      dup1\n      dup3\n      sub\n      dup1\n      mload\n      0x01\n      dup4\n      0x20\n      sub\n      0x0100\n      exp\n      sub\n      not\n      and\n      dup2\n      mstore\n      0x20\n      add\n      swap2\n      pop\n    tag_375:\n      pop\n      swap4\n      pop\n      pop\n      pop\n      pop\n      0x20\n      mload(0x40)\n      dup1\n      dup4\n      sub\n      dup2\n      0x00\n      dup8\n      dup1\n      extcodesize\n      iszero\n        /* \"--CODEGEN--\":8:17   */\n      dup1\n        /* \"--CODEGEN--\":5:7   */\n      iszero\n      tag_376\n      jumpi\n        /* \"--CODEGEN--\":30:31   */\n      0x00\n        /* \"--CODEGEN--\":27:28   */\n      dup1\n        /* \"--CODEGEN--\":20:32   */\n      revert\n        /* \"--CODEGEN--\":5:7   */\n    tag_376:\n        /* \"provableAPI_0.5.sol\":30395:30436  provable.getPrice(_datasource, _gasLimit) */\n      pop\n      gas\n      call\n      iszero\n        /* \"--CODEGEN--\":8:17   */\n      dup1\n        /* \"--CODEGEN--\":5:7   */\n      iszero\n      tag_377\n      jumpi\n        /* \"--CODEGEN--\":45:61   */\n      returndatasize\n        /* \"--CODEGEN--\":42:43   */\n      0x00\n        /* \"--CODEGEN--\":39:40   */\n      dup1\n        /* \"--CODEGEN--\":24:62   */\n      returndatacopy\n        /* \"--CODEGEN--\":77:93   */\n      returndatasize\n        /* \"--CODEGEN--\":74:75   */\n      0x00\n        /* \"--CODEGEN--\":67:94   */\n      revert\n        /* \"--CODEGEN--\":5:7   */\n    tag_377:\n        /* \"provableAPI_0.5.sol\":30395:30436  provable.getPrice(_datasource, _gasLimit) */\n      pop\n      pop\n      pop\n      pop\n      mload(0x40)\n      returndatasize\n        /* \"--CODEGEN--\":13:15   */\n      0x20\n        /* \"--CODEGEN--\":8:11   */\n      dup2\n        /* \"--CODEGEN--\":5:16   */\n      lt\n        /* \"--CODEGEN--\":2:4   */\n      iszero\n      tag_378\n      jumpi\n        /* \"--CODEGEN--\":29:30   */\n      0x00\n        /* \"--CODEGEN--\":26:27   */\n      dup1\n        /* \"--CODEGEN--\":19:31   */\n      revert\n        /* \"--CODEGEN--\":2:4   */\n    tag_378:\n        /* \"provableAPI_0.5.sol\":30395:30436  provable.getPrice(_datasource, _gasLimit) */\n      dup2\n      add\n      swap1\n      dup1\n      dup1\n      mload\n      swap1\n      0x20\n      add\n      swap1\n      swap3\n      swap2\n      swap1\n      pop\n      pop\n      pop\n        /* \"provableAPI_0.5.sol\":30382:30436  uint price = provable.getPrice(_datasource, _gasLimit) */\n      swap1\n      pop\n        /* \"provableAPI_0.5.sol\":30483:30492  _gasLimit */\n      dup3\n        /* \"provableAPI_0.5.sol\":30469:30480  tx.gasprice */\n      gasprice\n        /* \"provableAPI_0.5.sol\":30469:30492  tx.gasprice * _gasLimit */\n      mul\n        /* \"provableAPI_0.5.sol\":30459:30466  1 ether */\n      0x0de0b6b3a7640000\n        /* \"provableAPI_0.5.sol\":30459:30492  1 ether + tx.gasprice * _gasLimit */\n      add\n        /* \"provableAPI_0.5.sol\":30451:30456  price */\n      dup2\n        /* \"provableAPI_0.5.sol\":30451:30492  price > 1 ether + tx.gasprice * _gasLimit */\n      gt\n        /* \"provableAPI_0.5.sol\":30447:30556  if (price > 1 ether + tx.gasprice * _gasLimit) {\r... */\n      iszero\n      tag_379\n      jumpi\n        /* \"provableAPI_0.5.sol\":30516:30517  0 */\n      0x00\n        /* \"provableAPI_0.5.sol\":30509:30517  return 0 */\n      dup1\n      shl\n      swap2\n      pop\n      pop\n      jump(tag_371)\n        /* \"provableAPI_0.5.sol\":30447:30556  if (price > 1 ether + tx.gasprice * _gasLimit) {\r... */\n    tag_379:\n        /* \"provableAPI_0.5.sol\":30566:30583  bytes memory args */\n      0x60\n        /* \"provableAPI_0.5.sol\":30586:30600  ba2cbor(_argN) */\n      tag_380\n        /* \"provableAPI_0.5.sol\":30594:30599  _argN */\n      dup6\n        /* \"provableAPI_0.5.sol\":30586:30593  ba2cbor */\n      tag_381\n        /* \"provableAPI_0.5.sol\":30586:30600  ba2cbor(_argN) */\n      jump\t// in\n    tag_380:\n        /* \"provableAPI_0.5.sol\":30566:30600  bytes memory args = ba2cbor(_argN) */\n      swap1\n      pop\n        /* \"provableAPI_0.5.sol\":30618:30626  provable */\n      0x00\n      dup1\n      swap1\n      sload\n      swap1\n      0x0100\n      exp\n      swap1\n      div\n      0xffffffffffffffffffffffffffffffffffffffff\n      and\n        /* \"provableAPI_0.5.sol\":30618:30646  provable.queryN_withGasLimit */\n      0xffffffffffffffffffffffffffffffffffffffff\n      and\n      0xc55c1cb6\n        /* \"provableAPI_0.5.sol\":30653:30658  price */\n      dup4\n        /* \"provableAPI_0.5.sol\":30660:30661  0 */\n      0x00\n        /* \"provableAPI_0.5.sol\":30663:30674  _datasource */\n      dup10\n        /* \"provableAPI_0.5.sol\":30676:30680  args */\n      dup6\n        /* \"provableAPI_0.5.sol\":30682:30691  _gasLimit */\n      dup10\n        /* \"provableAPI_0.5.sol\":30618:30692  provable.queryN_withGasLimit.value(price)(0, _datasource, args, _gasLimit) */\n      mload(0x40)\n      dup7\n      0xffffffff\n      and\n      0xe0\n      shl\n      dup2\n      mstore\n      0x04\n      add\n      dup1\n      dup6\n      dup2\n      mstore\n      0x20\n      add\n      dup1\n      0x20\n      add\n      dup1\n      0x20\n      add\n      dup5\n      dup2\n      mstore\n      0x20\n      add\n      dup4\n      dup2\n      sub\n      dup4\n      mstore\n      dup7\n      dup2\n      dup2\n      mload\n      dup2\n      mstore\n      0x20\n      add\n      swap2\n      pop\n      dup1\n      mload\n      swap1\n      0x20\n      add\n      swap1\n      dup1\n      dup4\n      dup4\n        /* \"--CODEGEN--\":23:24   */\n      0x00\n        /* \"--CODEGEN--\":8:108   */\n    tag_382:\n        /* \"--CODEGEN--\":33:36   */\n      dup4\n        /* \"--CODEGEN--\":30:31   */\n      dup2\n        /* \"--CODEGEN--\":27:37   */\n      lt\n        /* \"--CODEGEN--\":8:108   */\n      iszero\n      tag_384\n      jumpi\n        /* \"--CODEGEN--\":99:100   */\n      dup1\n        /* \"--CODEGEN--\":94:97   */\n      dup3\n        /* \"--CODEGEN--\":90:101   */\n      add\n        /* \"--CODEGEN--\":84:102   */\n      mload\n        /* \"--CODEGEN--\":80:81   */\n      dup2\n        /* \"--CODEGEN--\":75:78   */\n      dup5\n        /* \"--CODEGEN--\":71:82   */\n      add\n        /* \"--CODEGEN--\":64:103   */\n      mstore\n        /* \"--CODEGEN--\":52:54   */\n      0x20\n        /* \"--CODEGEN--\":49:50   */\n      dup2\n        /* \"--CODEGEN--\":45:55   */\n      add\n        /* \"--CODEGEN--\":40:55   */\n      swap1\n      pop\n        /* \"--CODEGEN--\":8:108   */\n      jump(tag_382)\n    tag_384:\n        /* \"--CODEGEN--\":12:26   */\n      pop\n        /* \"provableAPI_0.5.sol\":30618:30692  provable.queryN_withGasLimit.value(price)(0, _datasource, args, _gasLimit) */\n      pop\n      pop\n      pop\n      swap1\n      pop\n      swap1\n      dup2\n      add\n      swap1\n      0x1f\n      and\n      dup1\n      iszero\n      tag_385\n      jumpi\n      dup1\n      dup3\n      sub\n      dup1\n      mload\n      0x01\n      dup4\n      0x20\n      sub\n      0x0100\n      exp\n      sub\n      not\n      and\n      dup2\n      mstore\n      0x20\n      add\n      swap2\n      pop\n    tag_385:\n      pop\n      dup4\n      dup2\n      sub\n      dup3\n      mstore\n      dup6\n      dup2\n      dup2\n      mload\n      dup2\n      mstore\n      0x20\n      add\n      swap2\n      pop\n      dup1\n      mload\n      swap1\n      0x20\n      add\n      swap1\n      dup1\n      dup4\n      dup4\n        /* \"--CODEGEN--\":23:24   */\n      0x00\n        /* \"--CODEGEN--\":8:108   */\n    tag_386:\n        /* \"--CODEGEN--\":33:36   */\n      dup4\n        /* \"--CODEGEN--\":30:31   */\n      dup2\n        /* \"--CODEGEN--\":27:37   */\n      lt\n        /* \"--CODEGEN--\":8:108   */\n      iszero\n      tag_388\n      jumpi\n        /* \"--CODEGEN--\":99:100   */\n      dup1\n        /* \"--CODEGEN--\":94:97   */\n      dup3\n        /* \"--CODEGEN--\":90:101   */\n      add\n        /* \"--CODEGEN--\":84:102   */\n      mload\n        /* \"--CODEGEN--\":80:81   */\n      dup2\n        /* \"--CODEGEN--\":75:78   */\n      dup5\n        /* \"--CODEGEN--\":71:82   */\n      add\n        /* \"--CODEGEN--\":64:103   */\n      mstore\n        /* \"--CODEGEN--\":52:54   */\n      0x20\n        /* \"--CODEGEN--\":49:50   */\n      dup2\n        /* \"--CODEGEN--\":45:55   */\n      add\n        /* \"--CODEGEN--\":40:55   */\n      swap1\n      pop\n        /* \"--CODEGEN--\":8:108   */\n      jump(tag_386)\n    tag_388:\n        /* \"--CODEGEN--\":12:26   */\n      pop\n        /* \"provableAPI_0.5.sol\":30618:30692  provable.queryN_withGasLimit.value(price)(0, _datasource, args, _gasLimit) */\n      pop\n      pop\n      pop\n      swap1\n      pop\n      swap1\n      dup2\n      add\n      swap1\n      0x1f\n      and\n      dup1\n      iszero\n      tag_389\n      jumpi\n      dup1\n      dup3\n      sub\n      dup1\n      mload\n      0x01\n      dup4\n      0x20\n      sub\n      0x0100\n      exp\n      sub\n      not\n      and\n      dup2\n      mstore\n      0x20\n      add\n      swap2\n      pop\n    tag_389:\n      pop\n      swap7\n      pop\n      pop\n      pop\n      pop\n      pop\n      pop\n      pop\n      0x20\n      mload(0x40)\n      dup1\n      dup4\n      sub\n      dup2\n      dup6\n      dup9\n      dup1\n      extcodesize\n      iszero\n        /* \"--CODEGEN--\":8:17   */\n      dup1\n        /* \"--CODEGEN--\":5:7   */\n      iszero\n      tag_390\n      jumpi\n        /* \"--CODEGEN--\":30:31   */\n      0x00\n        /* \"--CODEGEN--\":27:28   */\n      dup1\n        /* \"--CODEGEN--\":20:32   */\n      revert\n        /* \"--CODEGEN--\":5:7   */\n    tag_390:\n        /* \"provableAPI_0.5.sol\":30618:30692  provable.queryN_withGasLimit.value(price)(0, _datasource, args, _gasLimit) */\n      pop\n      gas\n      call\n      iszero\n        /* \"--CODEGEN--\":8:17   */\n      dup1\n        /* \"--CODEGEN--\":5:7   */\n      iszero\n      tag_391\n      jumpi\n        /* \"--CODEGEN--\":45:61   */\n      returndatasize\n        /* \"--CODEGEN--\":42:43   */\n      0x00\n        /* \"--CODEGEN--\":39:40   */\n      dup1\n        /* \"--CODEGEN--\":24:62   */\n      returndatacopy\n        /* \"--CODEGEN--\":77:93   */\n      returndatasize\n        /* \"--CODEGEN--\":74:75   */\n      0x00\n        /* \"--CODEGEN--\":67:94   */\n      revert\n        /* \"--CODEGEN--\":5:7   */\n    tag_391:\n        /* \"provableAPI_0.5.sol\":30618:30692  provable.queryN_withGasLimit.value(price)(0, _datasource, args, _gasLimit) */\n      pop\n      pop\n      pop\n      pop\n      pop\n      mload(0x40)\n      returndatasize\n        /* \"--CODEGEN--\":13:15   */\n      0x20\n        /* \"--CODEGEN--\":8:11   */\n      dup2\n        /* \"--CODEGEN--\":5:16   */\n      lt\n        /* \"--CODEGEN--\":2:4   */\n      iszero\n      tag_392\n      jumpi\n        /* \"--CODEGEN--\":29:30   */\n      0x00\n        /* \"--CODEGEN--\":26:27   */\n      dup1\n        /* \"--CODEGEN--\":19:31   */\n      revert\n        /* \"--CODEGEN--\":2:4   */\n    tag_392:\n        /* \"provableAPI_0.5.sol\":30618:30692  provable.queryN_withGasLimit.value(price)(0, _datasource, args, _gasLimit) */\n      dup2\n      add\n      swap1\n      dup1\n      dup1\n      mload\n      swap1\n      0x20\n      add\n      swap1\n      swap3\n      swap2\n      swap1\n      pop\n      pop\n      pop\n        /* \"provableAPI_0.5.sol\":30611:30692  return provable.queryN_withGasLimit.value(price)(0, _datasource, args, _gasLimit) */\n      swap3\n      pop\n      pop\n      pop\n        /* \"provableAPI_0.5.sol\":12418:12419  _ */\n    tag_371:\n        /* \"provableAPI_0.5.sol\":30239:30700  function provable_query(string memory _datasource, bytes[] memory _argN, uint _gasLimit) provableAPI internal returns (bytes32 _id) {\r... */\n      swap4\n      swap3\n      pop\n      pop\n      pop\n      jump\t// out\n        /* \"provableAPI_0.5.sol\":13128:13255  function provable_setNetworkName(string memory _network_name) internal {\r... */\n    tag_291:\n        /* \"provableAPI_0.5.sol\":13234:13247  _network_name */\n      dup1\n        /* \"provableAPI_0.5.sol\":13210:13231  provable_network_name */\n      0x02\n        /* \"provableAPI_0.5.sol\":13210:13247  provable_network_name = _network_name */\n      swap1\n      dup1\n      mload\n      swap1\n      0x20\n      add\n      swap1\n      tag_394\n      swap3\n      swap2\n      swap1\n      tag_395\n      jump\t// in\n    tag_394:\n      pop\n        /* \"provableAPI_0.5.sol\":13128:13255  function provable_setNetworkName(string memory _network_name) internal {\r... */\n      pop\n      jump\t// out\n        /* \"provableAPI_0.5.sol\":56502:57505  function safer_ecrecover(bytes32 _hash, uint8 _v, bytes32 _r, bytes32 _s) internal returns (bool _success, address _recoveredAddress) {\r... */\n    tag_326:\n        /* \"provableAPI_0.5.sol\":56594:56607  bool _success */\n      0x00\n        /* \"provableAPI_0.5.sol\":56609:56634  address _recoveredAddress */\n      dup1\n        /* \"provableAPI_0.5.sol\":57049:57057  bool ret */\n      0x00\n        /* \"provableAPI_0.5.sol\":57068:57080  address addr */\n      dup1\n        /* \"provableAPI_0.5.sol\":57133:57137  0x40 */\n      0x40\n        /* \"provableAPI_0.5.sol\":57127:57138  mload(0x40) */\n      mload\n        /* \"provableAPI_0.5.sol\":57165:57170  _hash */\n      dup9\n        /* \"provableAPI_0.5.sol\":57159:57163  size */\n      dup2\n        /* \"provableAPI_0.5.sol\":57152:57171  mstore(size, _hash) */\n      mstore\n        /* \"provableAPI_0.5.sol\":57207:57209  _v */\n      dup8\n        /* \"provableAPI_0.5.sol\":57202:57204  32 */\n      0x20\n        /* \"provableAPI_0.5.sol\":57196:57200  size */\n      dup3\n        /* \"provableAPI_0.5.sol\":57192:57205  add(size, 32) */\n      add\n        /* \"provableAPI_0.5.sol\":57185:57210  mstore(add(size, 32), _v) */\n      mstore\n        /* \"provableAPI_0.5.sol\":57246:57248  _r */\n      dup7\n        /* \"provableAPI_0.5.sol\":57241:57243  64 */\n      0x40\n        /* \"provableAPI_0.5.sol\":57235:57239  size */\n      dup3\n        /* \"provableAPI_0.5.sol\":57231:57244  add(size, 64) */\n      add\n        /* \"provableAPI_0.5.sol\":57224:57249  mstore(add(size, 64), _r) */\n      mstore\n        /* \"provableAPI_0.5.sol\":57285:57287  _s */\n      dup6\n        /* \"provableAPI_0.5.sol\":57280:57282  96 */\n      0x60\n        /* \"provableAPI_0.5.sol\":57274:57278  size */\n      dup3\n        /* \"provableAPI_0.5.sol\":57270:57283  add(size, 96) */\n      add\n        /* \"provableAPI_0.5.sol\":57263:57288  mstore(add(size, 96), _s) */\n      mstore\n        /* \"provableAPI_0.5.sol\":57343:57345  32 */\n      0x20\n        /* \"provableAPI_0.5.sol\":57337:57341  size */\n      dup2\n        /* \"provableAPI_0.5.sol\":57332:57335  128 */\n      0x80\n        /* \"provableAPI_0.5.sol\":57326:57330  size */\n      dup4\n        /* \"provableAPI_0.5.sol\":57323:57324  0 */\n      0x00\n        /* \"provableAPI_0.5.sol\":57320:57321  1 */\n      0x01\n        /* \"provableAPI_0.5.sol\":57314:57318  3000 */\n      0x0bb8\n        /* \"provableAPI_0.5.sol\":57309:57346  call(3000, 1, 0, size, 128, size, 32) */\n      call\n        /* \"provableAPI_0.5.sol\":57302:57346  ret := call(3000, 1, 0, size, 128, size, 32) */\n      swap3\n      pop\n        /* \"provableAPI_0.5.sol\":57453:57457  size */\n      dup1\n        /* \"provableAPI_0.5.sol\":57447:57458  mload(size) */\n      mload\n        /* \"provableAPI_0.5.sol\":57439:57458  addr := mload(size) */\n      swap2\n      pop\n        /* \"provableAPI_0.5.sol\":57100:57469  {\r... */\n      pop\n        /* \"provableAPI_0.5.sol\":57487:57490  ret */\n      dup2\n        /* \"provableAPI_0.5.sol\":57492:57496  addr */\n      dup2\n        /* \"provableAPI_0.5.sol\":57479:57497  return (ret, addr) */\n      swap4\n      pop\n      swap4\n      pop\n      pop\n      pop\n        /* \"provableAPI_0.5.sol\":56502:57505  function safer_ecrecover(bytes32 _hash, uint8 _v, bytes32 _r, bytes32 _s) internal returns (bool _success, address _recoveredAddress) {\r... */\n      swap5\n      pop\n      swap5\n      swap3\n      pop\n      pop\n      pop\n      jump\t// out\n        /* \"provableAPI_0.5.sol\":45746:46121  function ba2cbor(bytes[] memory _arr) internal pure returns (bytes memory _cborEncoding) {\r... */\n    tag_381:\n        /* \"provableAPI_0.5.sol\":45807:45833  bytes memory _cborEncoding */\n      0x60\n        /* \"provableAPI_0.5.sol\":45846:45865  safeMemoryCleaner() */\n      tag_398\n        /* \"provableAPI_0.5.sol\":45846:45863  safeMemoryCleaner */\n      tag_399\n        /* \"provableAPI_0.5.sol\":45846:45865  safeMemoryCleaner() */\n      jump\t// in\n    tag_398:\n        /* \"provableAPI_0.5.sol\":45876:45900  Buffer.buffer memory buf */\n      tag_400\n      tag_401\n      jump\t// in\n    tag_400:\n        /* \"provableAPI_0.5.sol\":45911:45933  Buffer.init(buf, 1024) */\n      tag_402\n        /* \"provableAPI_0.5.sol\":45923:45926  buf */\n      dup2\n        /* \"provableAPI_0.5.sol\":45928:45932  1024 */\n      0x0400\n        /* \"provableAPI_0.5.sol\":45911:45922  Buffer.init */\n      tag_403\n        /* \"provableAPI_0.5.sol\":45911:45933  Buffer.init(buf, 1024) */\n      jump\t// in\n    tag_402:\n        /* \"provableAPI_0.5.sol\":45944:45960  buf.startArray() */\n      tag_404\n        /* \"provableAPI_0.5.sol\":45944:45947  buf */\n      dup2\n        /* \"provableAPI_0.5.sol\":45944:45958  buf.startArray */\n      tag_405\n        /* \"provableAPI_0.5.sol\":45944:45960  buf.startArray() */\n      jump\t// in\n    tag_404:\n        /* \"provableAPI_0.5.sol\":45976:45982  uint i */\n      0x00\n        /* \"provableAPI_0.5.sol\":45985:45986  0 */\n      dup1\n        /* \"provableAPI_0.5.sol\":45976:45986  uint i = 0 */\n      swap1\n      pop\n        /* \"provableAPI_0.5.sol\":45971:46061  for (uint i = 0; i < _arr.length; i++) {\r... */\n    tag_406:\n        /* \"provableAPI_0.5.sol\":45992:45996  _arr */\n      dup4\n        /* \"provableAPI_0.5.sol\":45992:46003  _arr.length */\n      mload\n        /* \"provableAPI_0.5.sol\":45988:45989  i */\n      dup2\n        /* \"provableAPI_0.5.sol\":45988:46003  i < _arr.length */\n      lt\n        /* \"provableAPI_0.5.sol\":45971:46061  for (uint i = 0; i < _arr.length; i++) {\r... */\n      iszero\n      tag_407\n      jumpi\n        /* \"provableAPI_0.5.sol\":46025:46049  buf.encodeBytes(_arr[i]) */\n      tag_409\n        /* \"provableAPI_0.5.sol\":46041:46045  _arr */\n      dup5\n        /* \"provableAPI_0.5.sol\":46046:46047  i */\n      dup3\n        /* \"provableAPI_0.5.sol\":46041:46048  _arr[i] */\n      dup2\n      mload\n      dup2\n      lt\n      tag_410\n      jumpi\n      invalid\n    tag_410:\n      0x20\n      mul\n      0x20\n      add\n      add\n      mload\n        /* \"provableAPI_0.5.sol\":46025:46028  buf */\n      dup4\n        /* \"provableAPI_0.5.sol\":46025:46040  buf.encodeBytes */\n      tag_411\n      swap1\n        /* \"provableAPI_0.5.sol\":46025:46049  buf.encodeBytes(_arr[i]) */\n      swap2\n      swap1\n      0xffffffff\n      and\n      jump\t// in\n    tag_409:\n        /* \"provableAPI_0.5.sol\":46005:46008  i++ */\n      dup1\n      dup1\n      0x01\n      add\n      swap2\n      pop\n      pop\n        /* \"provableAPI_0.5.sol\":45971:46061  for (uint i = 0; i < _arr.length; i++) {\r... */\n      jump(tag_406)\n    tag_407:\n      pop\n        /* \"provableAPI_0.5.sol\":46071:46088  buf.endSequence() */\n      tag_412\n        /* \"provableAPI_0.5.sol\":46071:46074  buf */\n      dup2\n        /* \"provableAPI_0.5.sol\":46071:46086  buf.endSequence */\n      tag_413\n        /* \"provableAPI_0.5.sol\":46071:46088  buf.endSequence() */\n      jump\t// in\n    tag_412:\n        /* \"provableAPI_0.5.sol\":46106:46109  buf */\n      dup1\n        /* \"provableAPI_0.5.sol\":46106:46113  buf.buf */\n      0x00\n      add\n      mload\n        /* \"provableAPI_0.5.sol\":46099:46113  return buf.buf */\n      swap2\n      pop\n      pop\n        /* \"provableAPI_0.5.sol\":45746:46121  function ba2cbor(bytes[] memory _arr) internal pure returns (bytes memory _cborEncoding) {\r... */\n      swap2\n      swap1\n      pop\n      jump\t// out\n        /* \"provableAPI_0.5.sol\":59237:59412  function safeMemoryCleaner() internal pure {\r... */\n    tag_399:\n        /* \"provableAPI_0.5.sol\":59333:59337  0x40 */\n      0x40\n        /* \"provableAPI_0.5.sol\":59327:59338  mload(0x40) */\n      mload\n        /* \"provableAPI_0.5.sol\":59388:59392  fmem */\n      dup1\n        /* \"provableAPI_0.5.sol\":59381:59386  msize */\n      msize\n        /* \"provableAPI_0.5.sol\":59377:59393  sub(msize, fmem) */\n      sub\n        /* \"provableAPI_0.5.sol\":59367:59375  codesize */\n      codesize\n        /* \"provableAPI_0.5.sol\":59361:59365  fmem */\n      dup3\n        /* \"provableAPI_0.5.sol\":59352:59394  codecopy(fmem, codesize, sub(msize, fmem)) */\n      codecopy\n        /* \"provableAPI_0.5.sol\":59300:59405  {\r... */\n      pop\n      jump\t// out\n        /* \"provableAPI_0.5.sol\":4367:4813  function init(buffer memory _buf, uint _capacity) internal pure {\r... */\n    tag_403:\n        /* \"provableAPI_0.5.sol\":4442:4455  uint capacity */\n      0x00\n        /* \"provableAPI_0.5.sol\":4458:4467  _capacity */\n      dup2\n        /* \"provableAPI_0.5.sol\":4442:4467  uint capacity = _capacity */\n      swap1\n      pop\n        /* \"provableAPI_0.5.sol\":4499:4500  0 */\n      0x00\n        /* \"provableAPI_0.5.sol\":4493:4495  32 */\n      0x20\n        /* \"provableAPI_0.5.sol\":4482:4490  capacity */\n      dup3\n        /* \"provableAPI_0.5.sol\":4482:4495  capacity % 32 */\n      dup2\n      tag_416\n      jumpi\n      invalid\n    tag_416:\n      mod\n        /* \"provableAPI_0.5.sol\":4482:4500  capacity % 32 != 0 */\n      eq\n        /* \"provableAPI_0.5.sol\":4478:4561  if (capacity % 32 != 0) {\r... */\n      tag_417\n      jumpi\n        /* \"provableAPI_0.5.sol\":4546:4548  32 */\n      0x20\n        /* \"provableAPI_0.5.sol\":4535:4543  capacity */\n      dup2\n        /* \"provableAPI_0.5.sol\":4535:4548  capacity % 32 */\n      dup2\n      tag_418\n      jumpi\n      invalid\n    tag_418:\n      mod\n        /* \"provableAPI_0.5.sol\":4529:4531  32 */\n      0x20\n        /* \"provableAPI_0.5.sol\":4529:4549  32 - (capacity % 32) */\n      sub\n        /* \"provableAPI_0.5.sol\":4517:4549  capacity += 32 - (capacity % 32) */\n      dup2\n      add\n      swap1\n      pop\n        /* \"provableAPI_0.5.sol\":4478:4561  if (capacity % 32 != 0) {\r... */\n    tag_417:\n        /* \"provableAPI_0.5.sol\":4587:4595  capacity */\n      dup1\n        /* \"provableAPI_0.5.sol\":4571:4575  _buf */\n      dup4\n        /* \"provableAPI_0.5.sol\":4571:4584  _buf.capacity */\n      0x20\n      add\n        /* \"provableAPI_0.5.sol\":4571:4595  _buf.capacity = capacity */\n      dup2\n      dup2\n      mstore\n      pop\n      pop\n        /* \"provableAPI_0.5.sol\":4685:4689  0x40 */\n      0x40\n        /* \"provableAPI_0.5.sol\":4679:4690  mload(0x40) */\n      mload\n        /* \"provableAPI_0.5.sol\":4717:4720  ptr */\n      dup1\n        /* \"provableAPI_0.5.sol\":4711:4715  _buf */\n      dup5\n        /* \"provableAPI_0.5.sol\":4704:4721  mstore(_buf, ptr) */\n      mstore\n        /* \"provableAPI_0.5.sol\":4747:4748  0 */\n      0x00\n        /* \"provableAPI_0.5.sol\":4742:4745  ptr */\n      dup2\n        /* \"provableAPI_0.5.sol\":4735:4749  mstore(ptr, 0) */\n      mstore\n        /* \"provableAPI_0.5.sol\":4785:4793  capacity */\n      dup2\n        /* \"provableAPI_0.5.sol\":4780:4783  ptr */\n      dup2\n        /* \"provableAPI_0.5.sol\":4776:4794  add(ptr, capacity) */\n      add\n        /* \"provableAPI_0.5.sol\":4770:4774  0x40 */\n      0x40\n        /* \"provableAPI_0.5.sol\":4763:4795  mstore(0x40, add(ptr, capacity)) */\n      mstore\n        /* \"provableAPI_0.5.sol\":4653:4806  {\r... */\n      pop\n      pop\n      pop\n      pop\n      jump\t// out\n        /* \"provableAPI_0.5.sol\":10765:10895  function startArray(Buffer.buffer memory _buf) internal pure {\r... */\n    tag_405:\n        /* \"provableAPI_0.5.sol\":10837:10887  encodeIndefiniteLengthType(_buf, MAJOR_TYPE_ARRAY) */\n      tag_420\n        /* \"provableAPI_0.5.sol\":10864:10868  _buf */\n      dup2\n        /* \"provableAPI_0.5.sol\":8872:8873  4 */\n      0x04\n        /* \"provableAPI_0.5.sol\":10837:10863  encodeIndefiniteLengthType */\n      tag_421\n        /* \"provableAPI_0.5.sol\":10837:10887  encodeIndefiniteLengthType(_buf, MAJOR_TYPE_ARRAY) */\n      jump\t// in\n    tag_420:\n        /* \"provableAPI_0.5.sol\":10765:10895  function startArray(Buffer.buffer memory _buf) internal pure {\r... */\n      pop\n      jump\t// out\n        /* \"provableAPI_0.5.sol\":10370:10551  function encodeBytes(Buffer.buffer memory _buf, bytes memory _value) internal pure {\r... */\n    tag_411:\n        /* \"provableAPI_0.5.sol\":10464:10513  encodeType(_buf, MAJOR_TYPE_BYTES, _value.length) */\n      tag_423\n        /* \"provableAPI_0.5.sol\":10475:10479  _buf */\n      dup3\n        /* \"provableAPI_0.5.sol\":8822:8823  2 */\n      0x02\n        /* \"provableAPI_0.5.sol\":10499:10505  _value */\n      dup4\n        /* \"provableAPI_0.5.sol\":10499:10512  _value.length */\n      mload\n        /* \"provableAPI_0.5.sol\":10464:10474  encodeType */\n      tag_424\n        /* \"provableAPI_0.5.sol\":10464:10513  encodeType(_buf, MAJOR_TYPE_BYTES, _value.length) */\n      jump\t// in\n    tag_423:\n        /* \"provableAPI_0.5.sol\":10524:10543  _buf.append(_value) */\n      tag_425\n        /* \"provableAPI_0.5.sol\":10536:10542  _value */\n      dup2\n        /* \"provableAPI_0.5.sol\":10524:10528  _buf */\n      dup4\n        /* \"provableAPI_0.5.sol\":10524:10535  _buf.append */\n      tag_426\n      swap1\n        /* \"provableAPI_0.5.sol\":10524:10543  _buf.append(_value) */\n      swap2\n      swap1\n      0xffffffff\n      and\n      jump\t// in\n    tag_425:\n      pop\n        /* \"provableAPI_0.5.sol\":10370:10551  function encodeBytes(Buffer.buffer memory _buf, bytes memory _value) internal pure {\r... */\n      pop\n      pop\n      jump\t// out\n        /* \"provableAPI_0.5.sol\":11037:11175  function endSequence(Buffer.buffer memory _buf) internal pure {\r... */\n    tag_413:\n        /* \"provableAPI_0.5.sol\":11110:11167  encodeIndefiniteLengthType(_buf, MAJOR_TYPE_CONTENT_FREE) */\n      tag_428\n        /* \"provableAPI_0.5.sol\":11137:11141  _buf */\n      dup2\n        /* \"provableAPI_0.5.sol\":9037:9038  7 */\n      0x07\n        /* \"provableAPI_0.5.sol\":11110:11136  encodeIndefiniteLengthType */\n      tag_421\n        /* \"provableAPI_0.5.sol\":11110:11167  encodeIndefiniteLengthType(_buf, MAJOR_TYPE_CONTENT_FREE) */\n      jump\t// in\n    tag_428:\n        /* \"provableAPI_0.5.sol\":11037:11175  function endSequence(Buffer.buffer memory _buf) internal pure {\r... */\n      pop\n      jump\t// out\n        /* \"provableAPI_0.5.sol\":9793:9940  function encodeIndefiniteLengthType(Buffer.buffer memory _buf, uint8 _major) private pure {\r... */\n    tag_421:\n        /* \"provableAPI_0.5.sol\":9894:9932  _buf.append(uint8((_major << 5) | 31)) */\n      tag_430\n        /* \"provableAPI_0.5.sol\":9928:9930  31 */\n      0x1f\n        /* \"provableAPI_0.5.sol\":9923:9924  5 */\n      0x05\n        /* \"provableAPI_0.5.sol\":9913:9919  _major */\n      dup4\n        /* \"provableAPI_0.5.sol\":9913:9924  _major << 5 */\n      0xff\n      and\n      swap1\n      shl\n        /* \"provableAPI_0.5.sol\":9912:9930  (_major << 5) | 31 */\n      or\n        /* \"provableAPI_0.5.sol\":9894:9898  _buf */\n      dup4\n        /* \"provableAPI_0.5.sol\":9894:9905  _buf.append */\n      tag_431\n      swap1\n        /* \"provableAPI_0.5.sol\":9894:9932  _buf.append(uint8((_major << 5) | 31)) */\n      swap2\n      swap1\n      0xffffffff\n      and\n      jump\t// in\n    tag_430:\n        /* \"provableAPI_0.5.sol\":9793:9940  function encodeIndefiniteLengthType(Buffer.buffer memory _buf, uint8 _major) private pure {\r... */\n      pop\n      pop\n      jump\t// out\n        /* \"provableAPI_0.5.sol\":9047:9785  function encodeType(Buffer.buffer memory _buf, uint8 _major, uint _value) private pure {\r... */\n    tag_424:\n        /* \"provableAPI_0.5.sol\":9159:9161  23 */\n      0x17\n        /* \"provableAPI_0.5.sol\":9149:9155  _value */\n      dup2\n        /* \"provableAPI_0.5.sol\":9149:9161  _value <= 23 */\n      gt\n        /* \"provableAPI_0.5.sol\":9145:9778  if (_value <= 23) {\r... */\n      tag_433\n      jumpi\n        /* \"provableAPI_0.5.sol\":9178:9220  _buf.append(uint8((_major << 5) | _value)) */\n      tag_434\n        /* \"provableAPI_0.5.sol\":9212:9218  _value */\n      dup2\n        /* \"provableAPI_0.5.sol\":9207:9208  5 */\n      0x05\n        /* \"provableAPI_0.5.sol\":9197:9203  _major */\n      dup5\n        /* \"provableAPI_0.5.sol\":9197:9208  _major << 5 */\n      0xff\n      and\n      swap1\n      shl\n        /* \"provableAPI_0.5.sol\":9196:9218  (_major << 5) | _value */\n      0xff\n      and\n      or\n        /* \"provableAPI_0.5.sol\":9178:9182  _buf */\n      dup5\n        /* \"provableAPI_0.5.sol\":9178:9189  _buf.append */\n      tag_431\n      swap1\n        /* \"provableAPI_0.5.sol\":9178:9220  _buf.append(uint8((_major << 5) | _value)) */\n      swap2\n      swap1\n      0xffffffff\n      and\n      jump\t// in\n    tag_434:\n        /* \"provableAPI_0.5.sol\":9145:9778  if (_value <= 23) {\r... */\n      jump(tag_435)\n    tag_433:\n        /* \"provableAPI_0.5.sol\":9252:9256  0xFF */\n      0xff\n        /* \"provableAPI_0.5.sol\":9242:9248  _value */\n      dup2\n        /* \"provableAPI_0.5.sol\":9242:9256  _value <= 0xFF */\n      gt\n        /* \"provableAPI_0.5.sol\":9238:9778  if (_value <= 0xFF) {\r... */\n      tag_436\n      jumpi\n        /* \"provableAPI_0.5.sol\":9273:9311  _buf.append(uint8((_major << 5) | 24)) */\n      tag_437\n        /* \"provableAPI_0.5.sol\":9307:9309  24 */\n      0x18\n        /* \"provableAPI_0.5.sol\":9302:9303  5 */\n      0x05\n        /* \"provableAPI_0.5.sol\":9292:9298  _major */\n      dup5\n        /* \"provableAPI_0.5.sol\":9292:9303  _major << 5 */\n      0xff\n      and\n      swap1\n      shl\n        /* \"provableAPI_0.5.sol\":9291:9309  (_major << 5) | 24 */\n      or\n        /* \"provableAPI_0.5.sol\":9273:9277  _buf */\n      dup5\n        /* \"provableAPI_0.5.sol\":9273:9284  _buf.append */\n      tag_431\n      swap1\n        /* \"provableAPI_0.5.sol\":9273:9311  _buf.append(uint8((_major << 5) | 24)) */\n      swap2\n      swap1\n      0xffffffff\n      and\n      jump\t// in\n    tag_437:\n        /* \"provableAPI_0.5.sol\":9326:9351  _buf.appendInt(_value, 1) */\n      tag_438\n        /* \"provableAPI_0.5.sol\":9341:9347  _value */\n      dup2\n        /* \"provableAPI_0.5.sol\":9349:9350  1 */\n      0x01\n        /* \"provableAPI_0.5.sol\":9326:9330  _buf */\n      dup6\n        /* \"provableAPI_0.5.sol\":9326:9340  _buf.appendInt */\n      tag_439\n      swap1\n        /* \"provableAPI_0.5.sol\":9326:9351  _buf.appendInt(_value, 1) */\n      swap3\n      swap2\n      swap1\n      0xffffffff\n      and\n      jump\t// in\n    tag_438:\n      pop\n        /* \"provableAPI_0.5.sol\":9238:9778  if (_value <= 0xFF) {\r... */\n      jump(tag_440)\n    tag_436:\n        /* \"provableAPI_0.5.sol\":9383:9389  0xFFFF */\n      0xffff\n        /* \"provableAPI_0.5.sol\":9373:9379  _value */\n      dup2\n        /* \"provableAPI_0.5.sol\":9373:9389  _value <= 0xFFFF */\n      gt\n        /* \"provableAPI_0.5.sol\":9369:9778  if (_value <= 0xFFFF) {\r... */\n      tag_441\n      jumpi\n        /* \"provableAPI_0.5.sol\":9406:9444  _buf.append(uint8((_major << 5) | 25)) */\n      tag_442\n        /* \"provableAPI_0.5.sol\":9440:9442  25 */\n      0x19\n        /* \"provableAPI_0.5.sol\":9435:9436  5 */\n      0x05\n        /* \"provableAPI_0.5.sol\":9425:9431  _major */\n      dup5\n        /* \"provableAPI_0.5.sol\":9425:9436  _major << 5 */\n      0xff\n      and\n      swap1\n      shl\n        /* \"provableAPI_0.5.sol\":9424:9442  (_major << 5) | 25 */\n      or\n        /* \"provableAPI_0.5.sol\":9406:9410  _buf */\n      dup5\n        /* \"provableAPI_0.5.sol\":9406:9417  _buf.append */\n      tag_431\n      swap1\n        /* \"provableAPI_0.5.sol\":9406:9444  _buf.append(uint8((_major << 5) | 25)) */\n      swap2\n      swap1\n      0xffffffff\n      and\n      jump\t// in\n    tag_442:\n        /* \"provableAPI_0.5.sol\":9459:9484  _buf.appendInt(_value, 2) */\n      tag_443\n        /* \"provableAPI_0.5.sol\":9474:9480  _value */\n      dup2\n        /* \"provableAPI_0.5.sol\":9482:9483  2 */\n      0x02\n        /* \"provableAPI_0.5.sol\":9459:9463  _buf */\n      dup6\n        /* \"provableAPI_0.5.sol\":9459:9473  _buf.appendInt */\n      tag_439\n      swap1\n        /* \"provableAPI_0.5.sol\":9459:9484  _buf.appendInt(_value, 2) */\n      swap3\n      swap2\n      swap1\n      0xffffffff\n      and\n      jump\t// in\n    tag_443:\n      pop\n        /* \"provableAPI_0.5.sol\":9369:9778  if (_value <= 0xFFFF) {\r... */\n      jump(tag_444)\n    tag_441:\n        /* \"provableAPI_0.5.sol\":9516:9526  0xFFFFFFFF */\n      0xffffffff\n        /* \"provableAPI_0.5.sol\":9506:9512  _value */\n      dup2\n        /* \"provableAPI_0.5.sol\":9506:9526  _value <= 0xFFFFFFFF */\n      gt\n        /* \"provableAPI_0.5.sol\":9502:9778  if (_value <= 0xFFFFFFFF) {\r... */\n      tag_445\n      jumpi\n        /* \"provableAPI_0.5.sol\":9543:9581  _buf.append(uint8((_major << 5) | 26)) */\n      tag_446\n        /* \"provableAPI_0.5.sol\":9577:9579  26 */\n      0x1a\n        /* \"provableAPI_0.5.sol\":9572:9573  5 */\n      0x05\n        /* \"provableAPI_0.5.sol\":9562:9568  _major */\n      dup5\n        /* \"provableAPI_0.5.sol\":9562:9573  _major << 5 */\n      0xff\n      and\n      swap1\n      shl\n        /* \"provableAPI_0.5.sol\":9561:9579  (_major << 5) | 26 */\n      or\n        /* \"provableAPI_0.5.sol\":9543:9547  _buf */\n      dup5\n        /* \"provableAPI_0.5.sol\":9543:9554  _buf.append */\n      tag_431\n      swap1\n        /* \"provableAPI_0.5.sol\":9543:9581  _buf.append(uint8((_major << 5) | 26)) */\n      swap2\n      swap1\n      0xffffffff\n      and\n      jump\t// in\n    tag_446:\n        /* \"provableAPI_0.5.sol\":9596:9621  _buf.appendInt(_value, 4) */\n      tag_447\n        /* \"provableAPI_0.5.sol\":9611:9617  _value */\n      dup2\n        /* \"provableAPI_0.5.sol\":9619:9620  4 */\n      0x04\n        /* \"provableAPI_0.5.sol\":9596:9600  _buf */\n      dup6\n        /* \"provableAPI_0.5.sol\":9596:9610  _buf.appendInt */\n      tag_439\n      swap1\n        /* \"provableAPI_0.5.sol\":9596:9621  _buf.appendInt(_value, 4) */\n      swap3\n      swap2\n      swap1\n      0xffffffff\n      and\n      jump\t// in\n    tag_447:\n      pop\n        /* \"provableAPI_0.5.sol\":9502:9778  if (_value <= 0xFFFFFFFF) {\r... */\n      jump(tag_448)\n    tag_445:\n        /* \"provableAPI_0.5.sol\":9653:9671  0xFFFFFFFFFFFFFFFF */\n      0xffffffffffffffff\n        /* \"provableAPI_0.5.sol\":9643:9649  _value */\n      dup2\n        /* \"provableAPI_0.5.sol\":9643:9671  _value <= 0xFFFFFFFFFFFFFFFF */\n      gt\n        /* \"provableAPI_0.5.sol\":9639:9778  if (_value <= 0xFFFFFFFFFFFFFFFF) {\r... */\n      tag_449\n      jumpi\n        /* \"provableAPI_0.5.sol\":9688:9726  _buf.append(uint8((_major << 5) | 27)) */\n      tag_450\n        /* \"provableAPI_0.5.sol\":9722:9724  27 */\n      0x1b\n        /* \"provableAPI_0.5.sol\":9717:9718  5 */\n      0x05\n        /* \"provableAPI_0.5.sol\":9707:9713  _major */\n      dup5\n        /* \"provableAPI_0.5.sol\":9707:9718  _major << 5 */\n      0xff\n      and\n      swap1\n      shl\n        /* \"provableAPI_0.5.sol\":9706:9724  (_major << 5) | 27 */\n      or\n        /* \"provableAPI_0.5.sol\":9688:9692  _buf */\n      dup5\n        /* \"provableAPI_0.5.sol\":9688:9699  _buf.append */\n      tag_431\n      swap1\n        /* \"provableAPI_0.5.sol\":9688:9726  _buf.append(uint8((_major << 5) | 27)) */\n      swap2\n      swap1\n      0xffffffff\n      and\n      jump\t// in\n    tag_450:\n        /* \"provableAPI_0.5.sol\":9741:9766  _buf.appendInt(_value, 8) */\n      tag_451\n        /* \"provableAPI_0.5.sol\":9756:9762  _value */\n      dup2\n        /* \"provableAPI_0.5.sol\":9764:9765  8 */\n      0x08\n        /* \"provableAPI_0.5.sol\":9741:9745  _buf */\n      dup6\n        /* \"provableAPI_0.5.sol\":9741:9755  _buf.appendInt */\n      tag_439\n      swap1\n        /* \"provableAPI_0.5.sol\":9741:9766  _buf.appendInt(_value, 8) */\n      swap3\n      swap2\n      swap1\n      0xffffffff\n      and\n      jump\t// in\n    tag_451:\n      pop\n        /* \"provableAPI_0.5.sol\":9639:9778  if (_value <= 0xFFFFFFFFFFFFFFFF) {\r... */\n    tag_449:\n        /* \"provableAPI_0.5.sol\":9502:9778  if (_value <= 0xFFFFFFFF) {\r... */\n    tag_448:\n        /* \"provableAPI_0.5.sol\":9369:9778  if (_value <= 0xFFFF) {\r... */\n    tag_444:\n        /* \"provableAPI_0.5.sol\":9238:9778  if (_value <= 0xFF) {\r... */\n    tag_440:\n        /* \"provableAPI_0.5.sol\":9145:9778  if (_value <= 23) {\r... */\n    tag_435:\n        /* \"provableAPI_0.5.sol\":9047:9785  function encodeType(Buffer.buffer memory _buf, uint8 _major, uint _value) private pure {\r... */\n      pop\n      pop\n      pop\n      jump\t// out\n        /* \"provableAPI_0.5.sol\":5453:6694  function append(buffer memory _buf, bytes memory _data) internal pure returns (buffer memory _buffer) {\r... */\n    tag_426:\n        /* \"provableAPI_0.5.sol\":5532:5553  buffer memory _buffer */\n      tag_452\n      tag_401\n      jump\t// in\n    tag_452:\n        /* \"provableAPI_0.5.sol\":5603:5607  _buf */\n      dup3\n        /* \"provableAPI_0.5.sol\":5603:5616  _buf.capacity */\n      0x20\n      add\n      mload\n        /* \"provableAPI_0.5.sol\":5585:5589  _buf */\n      dup4\n        /* \"provableAPI_0.5.sol\":5585:5593  _buf.buf */\n      0x00\n      add\n      mload\n        /* \"provableAPI_0.5.sol\":5585:5600  _buf.buf.length */\n      mload\n        /* \"provableAPI_0.5.sol\":5570:5575  _data */\n      dup4\n        /* \"provableAPI_0.5.sol\":5570:5582  _data.length */\n      mload\n        /* \"provableAPI_0.5.sol\":5570:5600  _data.length + _buf.buf.length */\n      add\n        /* \"provableAPI_0.5.sol\":5570:5616  _data.length + _buf.buf.length > _buf.capacity */\n      gt\n        /* \"provableAPI_0.5.sol\":5566:5695  if (_data.length + _buf.buf.length > _buf.capacity) {\r... */\n      iszero\n      tag_454\n      jumpi\n        /* \"provableAPI_0.5.sol\":5633:5683  resize(_buf, max(_buf.capacity, _data.length) * 2) */\n      tag_455\n        /* \"provableAPI_0.5.sol\":5640:5644  _buf */\n      dup4\n        /* \"provableAPI_0.5.sol\":5681:5682  2 */\n      0x02\n        /* \"provableAPI_0.5.sol\":5646:5678  max(_buf.capacity, _data.length) */\n      tag_456\n        /* \"provableAPI_0.5.sol\":5650:5654  _buf */\n      dup7\n        /* \"provableAPI_0.5.sol\":5650:5663  _buf.capacity */\n      0x20\n      add\n      mload\n        /* \"provableAPI_0.5.sol\":5665:5670  _data */\n      dup7\n        /* \"provableAPI_0.5.sol\":5665:5677  _data.length */\n      mload\n        /* \"provableAPI_0.5.sol\":5646:5649  max */\n      tag_457\n        /* \"provableAPI_0.5.sol\":5646:5678  max(_buf.capacity, _data.length) */\n      jump\t// in\n    tag_456:\n        /* \"provableAPI_0.5.sol\":5646:5682  max(_buf.capacity, _data.length) * 2 */\n      mul\n        /* \"provableAPI_0.5.sol\":5633:5639  resize */\n      tag_458\n        /* \"provableAPI_0.5.sol\":5633:5683  resize(_buf, max(_buf.capacity, _data.length) * 2) */\n      jump\t// in\n    tag_455:\n        /* \"provableAPI_0.5.sol\":5566:5695  if (_data.length + _buf.buf.length > _buf.capacity) {\r... */\n    tag_454:\n        /* \"provableAPI_0.5.sol\":5705:5714  uint dest */\n      0x00\n        /* \"provableAPI_0.5.sol\":5725:5733  uint src */\n      dup1\n        /* \"provableAPI_0.5.sol\":5744:5752  uint len */\n      0x00\n        /* \"provableAPI_0.5.sol\":5755:5760  _data */\n      dup5\n        /* \"provableAPI_0.5.sol\":5755:5767  _data.length */\n      mload\n        /* \"provableAPI_0.5.sol\":5744:5767  uint len = _data.length */\n      swap1\n      pop\n        /* \"provableAPI_0.5.sol\":5822:5826  _buf */\n      dup6\n        /* \"provableAPI_0.5.sol\":5816:5827  mload(_buf) */\n      mload\n        /* \"provableAPI_0.5.sol\":5898:5904  bufptr */\n      dup1\n        /* \"provableAPI_0.5.sol\":5892:5905  mload(bufptr) */\n      mload\n        /* \"provableAPI_0.5.sol\":5986:5988  32 */\n      0x20\n        /* \"provableAPI_0.5.sol\":5977:5983  buflen */\n      dup2\n        /* \"provableAPI_0.5.sol\":5969:5975  bufptr */\n      dup4\n        /* \"provableAPI_0.5.sol\":5965:5984  add(bufptr, buflen) */\n      add\n        /* \"provableAPI_0.5.sol\":5961:5989  add(add(bufptr, buflen), 32) */\n      add\n        /* \"provableAPI_0.5.sol\":5953:5989  dest := add(add(bufptr, buflen), 32) */\n      swap5\n      pop\n        /* \"provableAPI_0.5.sol\":6110:6115  _data */\n      dup7\n        /* \"provableAPI_0.5.sol\":6104:6116  mload(_data) */\n      mload\n        /* \"provableAPI_0.5.sol\":6096:6102  buflen */\n      dup2\n        /* \"provableAPI_0.5.sol\":6092:6117  add(buflen, mload(_data)) */\n      add\n        /* \"provableAPI_0.5.sol\":6084:6090  bufptr */\n      dup3\n        /* \"provableAPI_0.5.sol\":6077:6118  mstore(bufptr, add(buflen, mload(_data))) */\n      mstore\n        /* \"provableAPI_0.5.sol\":6174:6176  32 */\n      0x20\n        /* \"provableAPI_0.5.sol\":6167:6172  _data */\n      dup8\n        /* \"provableAPI_0.5.sol\":6163:6177  add(_data, 32) */\n      add\n        /* \"provableAPI_0.5.sol\":6156:6177  src := add(_data, 32) */\n      swap4\n      pop\n        /* \"provableAPI_0.5.sol\":5787:6188  {\r... */\n      pop\n      pop\n        /* \"provableAPI_0.5.sol\":6198:6410  for(; len >= 32; len -= 32) { // Copy word-length chunks while possible\r... */\n    tag_459:\n        /* \"provableAPI_0.5.sol\":6211:6213  32 */\n      0x20\n        /* \"provableAPI_0.5.sol\":6204:6207  len */\n      dup2\n        /* \"provableAPI_0.5.sol\":6204:6213  len >= 32 */\n      lt\n        /* \"provableAPI_0.5.sol\":6198:6410  for(; len >= 32; len -= 32) { // Copy word-length chunks while possible\r... */\n      tag_460\n      jumpi\n        /* \"provableAPI_0.5.sol\":6330:6333  src */\n      dup2\n        /* \"provableAPI_0.5.sol\":6324:6334  mload(src) */\n      mload\n        /* \"provableAPI_0.5.sol\":6318:6322  dest */\n      dup4\n        /* \"provableAPI_0.5.sol\":6311:6335  mstore(dest, mload(src)) */\n      mstore\n        /* \"provableAPI_0.5.sol\":6372:6374  32 */\n      0x20\n        /* \"provableAPI_0.5.sol\":6364:6374  dest += 32 */\n      dup4\n      add\n      swap3\n      pop\n        /* \"provableAPI_0.5.sol\":6396:6398  32 */\n      0x20\n        /* \"provableAPI_0.5.sol\":6389:6398  src += 32 */\n      dup3\n      add\n      swap2\n      pop\n        /* \"provableAPI_0.5.sol\":6222:6224  32 */\n      0x20\n        /* \"provableAPI_0.5.sol\":6215:6224  len -= 32 */\n      dup2\n      sub\n      swap1\n      pop\n        /* \"provableAPI_0.5.sol\":6198:6410  for(; len >= 32; len -= 32) { // Copy word-length chunks while possible\r... */\n      jump(tag_459)\n    tag_460:\n        /* \"provableAPI_0.5.sol\":6420:6429  uint mask */\n      0x00\n        /* \"provableAPI_0.5.sol\":6452:6453  1 */\n      0x01\n        /* \"provableAPI_0.5.sol\":6445:6448  len */\n      dup3\n        /* \"provableAPI_0.5.sol\":6440:6442  32 */\n      0x20\n        /* \"provableAPI_0.5.sol\":6440:6448  32 - len */\n      sub\n        /* \"provableAPI_0.5.sol\":6432:6435  256 */\n      0x0100\n        /* \"provableAPI_0.5.sol\":6432:6449  256 ** (32 - len) */\n      exp\n        /* \"provableAPI_0.5.sol\":6432:6453  256 ** (32 - len) - 1 */\n      sub\n        /* \"provableAPI_0.5.sol\":6420:6453  uint mask = 256 ** (32 - len) - 1 */\n      swap1\n      pop\n        /* \"provableAPI_0.5.sol\":6547:6551  mask */\n      dup1\n        /* \"provableAPI_0.5.sol\":6543:6552  not(mask) */\n      not\n        /* \"provableAPI_0.5.sol\":6537:6540  src */\n      dup4\n        /* \"provableAPI_0.5.sol\":6531:6541  mload(src) */\n      mload\n        /* \"provableAPI_0.5.sol\":6527:6553  and(mload(src), not(mask)) */\n      and\n        /* \"provableAPI_0.5.sol\":6600:6604  mask */\n      dup2\n        /* \"provableAPI_0.5.sol\":6593:6597  dest */\n      dup6\n        /* \"provableAPI_0.5.sol\":6587:6598  mload(dest) */\n      mload\n        /* \"provableAPI_0.5.sol\":6583:6605  and(mload(dest), mask) */\n      and\n        /* \"provableAPI_0.5.sol\":6645:6652  srcpart */\n      dup2\n        /* \"provableAPI_0.5.sol\":6635:6643  destpart */\n      dup2\n        /* \"provableAPI_0.5.sol\":6632:6653  or(destpart, srcpart) */\n      or\n        /* \"provableAPI_0.5.sol\":6626:6630  dest */\n      dup7\n        /* \"provableAPI_0.5.sol\":6619:6654  mstore(dest, or(destpart, srcpart)) */\n      mstore\n        /* \"provableAPI_0.5.sol\":6497:6665  {\r... */\n      pop\n      pop\n        /* \"provableAPI_0.5.sol\":6682:6686  _buf */\n      dup7\n        /* \"provableAPI_0.5.sol\":6675:6686  return _buf */\n      swap5\n      pop\n      pop\n      pop\n      pop\n      pop\n        /* \"provableAPI_0.5.sol\":5453:6694  function append(buffer memory _buf, bytes memory _data) internal pure returns (buffer memory _buffer) {\r... */\n      swap3\n      swap2\n      pop\n      pop\n      jump\t// out\n        /* \"provableAPI_0.5.sol\":6988:7574  function append(buffer memory _buf, uint8 _data) internal pure {\r... */\n    tag_431:\n        /* \"provableAPI_0.5.sol\":7088:7092  _buf */\n      dup2\n        /* \"provableAPI_0.5.sol\":7088:7101  _buf.capacity */\n      0x20\n      add\n      mload\n        /* \"provableAPI_0.5.sol\":7084:7085  1 */\n      0x01\n        /* \"provableAPI_0.5.sol\":7066:7070  _buf */\n      dup4\n        /* \"provableAPI_0.5.sol\":7066:7074  _buf.buf */\n      0x00\n      add\n      mload\n        /* \"provableAPI_0.5.sol\":7066:7081  _buf.buf.length */\n      mload\n        /* \"provableAPI_0.5.sol\":7066:7085  _buf.buf.length + 1 */\n      add\n        /* \"provableAPI_0.5.sol\":7066:7101  _buf.buf.length + 1 > _buf.capacity */\n      gt\n        /* \"provableAPI_0.5.sol\":7062:7161  if (_buf.buf.length + 1 > _buf.capacity) {\r... */\n      iszero\n      tag_463\n      jumpi\n        /* \"provableAPI_0.5.sol\":7118:7149  resize(_buf, _buf.capacity * 2) */\n      tag_464\n        /* \"provableAPI_0.5.sol\":7125:7129  _buf */\n      dup3\n        /* \"provableAPI_0.5.sol\":7147:7148  2 */\n      0x02\n        /* \"provableAPI_0.5.sol\":7131:7135  _buf */\n      dup5\n        /* \"provableAPI_0.5.sol\":7131:7144  _buf.capacity */\n      0x20\n      add\n      mload\n        /* \"provableAPI_0.5.sol\":7131:7148  _buf.capacity * 2 */\n      mul\n        /* \"provableAPI_0.5.sol\":7118:7124  resize */\n      tag_458\n        /* \"provableAPI_0.5.sol\":7118:7149  resize(_buf, _buf.capacity * 2) */\n      jump\t// in\n    tag_464:\n        /* \"provableAPI_0.5.sol\":7062:7161  if (_buf.buf.length + 1 > _buf.capacity) {\r... */\n    tag_463:\n        /* \"provableAPI_0.5.sol\":7215:7219  _buf */\n      dup2\n        /* \"provableAPI_0.5.sol\":7209:7220  mload(_buf) */\n      mload\n        /* \"provableAPI_0.5.sol\":7291:7297  bufptr */\n      dup1\n        /* \"provableAPI_0.5.sol\":7285:7298  mload(bufptr) */\n      mload\n        /* \"provableAPI_0.5.sol\":7383:7385  32 */\n      0x20\n        /* \"provableAPI_0.5.sol\":7374:7380  buflen */\n      dup2\n        /* \"provableAPI_0.5.sol\":7366:7372  bufptr */\n      dup4\n        /* \"provableAPI_0.5.sol\":7362:7381  add(bufptr, buflen) */\n      add\n        /* \"provableAPI_0.5.sol\":7358:7386  add(add(bufptr, buflen), 32) */\n      add\n        /* \"provableAPI_0.5.sol\":7482:7487  _data */\n      dup4\n        /* \"provableAPI_0.5.sol\":7476:7480  dest */\n      dup2\n        /* \"provableAPI_0.5.sol\":7468:7488  mstore8(dest, _data) */\n      mstore8\n        /* \"provableAPI_0.5.sol\":7529:7530  1 */\n      0x01\n        /* \"provableAPI_0.5.sol\":7521:7527  buflen */\n      dup3\n        /* \"provableAPI_0.5.sol\":7517:7531  add(buflen, 1) */\n      add\n        /* \"provableAPI_0.5.sol\":7509:7515  bufptr */\n      dup4\n        /* \"provableAPI_0.5.sol\":7502:7532  mstore(bufptr, add(buflen, 1)) */\n      mstore\n        /* \"provableAPI_0.5.sol\":7180:7567  {\r... */\n      pop\n      pop\n      pop\n      pop\n      pop\n      jump\t// out\n        /* \"provableAPI_0.5.sol\":7868:8616  function appendInt(buffer memory _buf, uint _data, uint _len) internal pure returns (buffer memory _buffer) {\r... */\n    tag_439:\n        /* \"provableAPI_0.5.sol\":7953:7974  buffer memory _buffer */\n      tag_465\n      tag_401\n      jump\t// in\n    tag_465:\n        /* \"provableAPI_0.5.sol\":8016:8020  _buf */\n      dup4\n        /* \"provableAPI_0.5.sol\":8016:8029  _buf.capacity */\n      0x20\n      add\n      mload\n        /* \"provableAPI_0.5.sol\":7998:8002  _buf */\n      dup5\n        /* \"provableAPI_0.5.sol\":7998:8006  _buf.buf */\n      0x00\n      add\n      mload\n        /* \"provableAPI_0.5.sol\":7998:8013  _buf.buf.length */\n      mload\n        /* \"provableAPI_0.5.sol\":7991:7995  _len */\n      dup4\n        /* \"provableAPI_0.5.sol\":7991:8013  _len + _buf.buf.length */\n      add\n        /* \"provableAPI_0.5.sol\":7991:8029  _len + _buf.buf.length > _buf.capacity */\n      gt\n        /* \"provableAPI_0.5.sol\":7987:8100  if (_len + _buf.buf.length > _buf.capacity) {\r... */\n      iszero\n      tag_467\n      jumpi\n        /* \"provableAPI_0.5.sol\":8046:8088  resize(_buf, max(_buf.capacity, _len) * 2) */\n      tag_468\n        /* \"provableAPI_0.5.sol\":8053:8057  _buf */\n      dup5\n        /* \"provableAPI_0.5.sol\":8086:8087  2 */\n      0x02\n        /* \"provableAPI_0.5.sol\":8059:8083  max(_buf.capacity, _len) */\n      tag_469\n        /* \"provableAPI_0.5.sol\":8063:8067  _buf */\n      dup8\n        /* \"provableAPI_0.5.sol\":8063:8076  _buf.capacity */\n      0x20\n      add\n      mload\n        /* \"provableAPI_0.5.sol\":8078:8082  _len */\n      dup7\n        /* \"provableAPI_0.5.sol\":8059:8062  max */\n      tag_457\n        /* \"provableAPI_0.5.sol\":8059:8083  max(_buf.capacity, _len) */\n      jump\t// in\n    tag_469:\n        /* \"provableAPI_0.5.sol\":8059:8087  max(_buf.capacity, _len) * 2 */\n      mul\n        /* \"provableAPI_0.5.sol\":8046:8052  resize */\n      tag_458\n        /* \"provableAPI_0.5.sol\":8046:8088  resize(_buf, max(_buf.capacity, _len) * 2) */\n      jump\t// in\n    tag_468:\n        /* \"provableAPI_0.5.sol\":7987:8100  if (_len + _buf.buf.length > _buf.capacity) {\r... */\n    tag_467:\n        /* \"provableAPI_0.5.sol\":8110:8119  uint mask */\n      0x00\n        /* \"provableAPI_0.5.sol\":8136:8137  1 */\n      0x01\n        /* \"provableAPI_0.5.sol\":8129:8133  _len */\n      dup4\n        /* \"provableAPI_0.5.sol\":8122:8125  256 */\n      0x0100\n        /* \"provableAPI_0.5.sol\":8122:8133  256 ** _len */\n      exp\n        /* \"provableAPI_0.5.sol\":8122:8137  256 ** _len - 1 */\n      sub\n        /* \"provableAPI_0.5.sol\":8110:8137  uint mask = 256 ** _len - 1 */\n      swap1\n      pop\n        /* \"provableAPI_0.5.sol\":8192:8196  _buf */\n      dup5\n        /* \"provableAPI_0.5.sol\":8186:8197  mload(_buf) */\n      mload\n        /* \"provableAPI_0.5.sol\":8268:8274  bufptr */\n      dup1\n        /* \"provableAPI_0.5.sol\":8262:8275  mload(bufptr) */\n      mload\n        /* \"provableAPI_0.5.sol\":8360:8364  _len */\n      dup5\n        /* \"provableAPI_0.5.sol\":8351:8357  buflen */\n      dup2\n        /* \"provableAPI_0.5.sol\":8343:8349  bufptr */\n      dup4\n        /* \"provableAPI_0.5.sol\":8339:8358  add(bufptr, buflen) */\n      add\n        /* \"provableAPI_0.5.sol\":8335:8365  add(add(bufptr, buflen), _len) */\n      add\n        /* \"provableAPI_0.5.sol\":8498:8503  _data */\n      dup7\n        /* \"provableAPI_0.5.sol\":8490:8494  mask */\n      dup5\n        /* \"provableAPI_0.5.sol\":8486:8495  not(mask) */\n      not\n        /* \"provableAPI_0.5.sol\":8479:8483  dest */\n      dup3\n        /* \"provableAPI_0.5.sol\":8473:8484  mload(dest) */\n      mload\n        /* \"provableAPI_0.5.sol\":8469:8496  and(mload(dest), not(mask)) */\n      and\n        /* \"provableAPI_0.5.sol\":8466:8504  or(and(mload(dest), not(mask)), _data) */\n      or\n        /* \"provableAPI_0.5.sol\":8460:8464  dest */\n      dup2\n        /* \"provableAPI_0.5.sol\":8453:8505  mstore(dest, or(and(mload(dest), not(mask)), _data)) */\n      mstore\n        /* \"provableAPI_0.5.sol\":8546:8550  _len */\n      dup6\n        /* \"provableAPI_0.5.sol\":8538:8544  buflen */\n      dup3\n        /* \"provableAPI_0.5.sol\":8534:8551  add(buflen, _len) */\n      add\n        /* \"provableAPI_0.5.sol\":8526:8532  bufptr */\n      dup4\n        /* \"provableAPI_0.5.sol\":8519:8552  mstore(bufptr, add(buflen, _len)) */\n      mstore\n        /* \"provableAPI_0.5.sol\":8157:8587  {\r... */\n      pop\n      pop\n      pop\n        /* \"provableAPI_0.5.sol\":8604:8608  _buf */\n      dup5\n        /* \"provableAPI_0.5.sol\":8597:8608  return _buf */\n      swap2\n      pop\n      pop\n        /* \"provableAPI_0.5.sol\":7868:8616  function appendInt(buffer memory _buf, uint _data, uint _len) internal pure returns (buffer memory _buffer) {\r... */\n      swap4\n      swap3\n      pop\n      pop\n      pop\n      jump\t// out\n        /* \"provableAPI_0.5.sol\":5006:5157  function max(uint _a, uint _b) private pure returns (uint _max) {\r... */\n    tag_457:\n        /* \"provableAPI_0.5.sol\":5059:5068  uint _max */\n      0x00\n        /* \"provableAPI_0.5.sol\":5090:5092  _b */\n      dup2\n        /* \"provableAPI_0.5.sol\":5085:5087  _a */\n      dup4\n        /* \"provableAPI_0.5.sol\":5085:5092  _a > _b */\n      gt\n        /* \"provableAPI_0.5.sol\":5081:5130  if (_a > _b) {\r... */\n      iszero\n      tag_471\n      jumpi\n        /* \"provableAPI_0.5.sol\":5116:5118  _a */\n      dup3\n        /* \"provableAPI_0.5.sol\":5109:5118  return _a */\n      swap1\n      pop\n      jump(tag_470)\n        /* \"provableAPI_0.5.sol\":5081:5130  if (_a > _b) {\r... */\n    tag_471:\n        /* \"provableAPI_0.5.sol\":5147:5149  _b */\n      dup2\n        /* \"provableAPI_0.5.sol\":5140:5149  return _b */\n      swap1\n      pop\n        /* \"provableAPI_0.5.sol\":5006:5157  function max(uint _a, uint _b) private pure returns (uint _max) {\r... */\n    tag_470:\n      swap3\n      swap2\n      pop\n      pop\n      jump\t// out\n        /* \"provableAPI_0.5.sol\":4821:4998  function resize(buffer memory _buf, uint _capacity) private pure {\r... */\n    tag_458:\n        /* \"provableAPI_0.5.sol\":4897:4916  bytes memory oldbuf */\n      0x60\n        /* \"provableAPI_0.5.sol\":4919:4923  _buf */\n      dup3\n        /* \"provableAPI_0.5.sol\":4919:4927  _buf.buf */\n      0x00\n      add\n      mload\n        /* \"provableAPI_0.5.sol\":4897:4927  bytes memory oldbuf = _buf.buf */\n      swap1\n      pop\n        /* \"provableAPI_0.5.sol\":4938:4959  init(_buf, _capacity) */\n      tag_473\n        /* \"provableAPI_0.5.sol\":4943:4947  _buf */\n      dup4\n        /* \"provableAPI_0.5.sol\":4949:4958  _capacity */\n      dup4\n        /* \"provableAPI_0.5.sol\":4938:4942  init */\n      tag_403\n        /* \"provableAPI_0.5.sol\":4938:4959  init(_buf, _capacity) */\n      jump\t// in\n    tag_473:\n        /* \"provableAPI_0.5.sol\":4970:4990  append(_buf, oldbuf) */\n      tag_474\n        /* \"provableAPI_0.5.sol\":4977:4981  _buf */\n      dup4\n        /* \"provableAPI_0.5.sol\":4983:4989  oldbuf */\n      dup3\n        /* \"provableAPI_0.5.sol\":4970:4976  append */\n      tag_426\n        /* \"provableAPI_0.5.sol\":4970:4990  append(_buf, oldbuf) */\n      jump\t// in\n    tag_474:\n      pop\n        /* \"provableAPI_0.5.sol\":4821:4998  function resize(buffer memory _buf, uint _capacity) private pure {\r... */\n      pop\n      pop\n      pop\n      jump\t// out\n        /* \"TopicAssigner.sol\":163:4872  contract TopicAssigner is usingProvable {\r... */\n    tag_158:\n      mload(0x40)\n      dup1\n      0x80\n      add\n      0x40\n      mstore\n      dup1\n      0x04\n      swap1\n    tag_475:\n      0x60\n      dup2\n      mstore\n      0x20\n      add\n      swap1\n      0x01\n      swap1\n      sub\n      swap1\n      dup2\n      tag_475\n      jumpi\n      swap1\n      pop\n      pop\n      swap1\n      jump\t// out\n    tag_395:\n      dup3\n      dup1\n      sload\n      0x01\n      dup2\n      0x01\n      and\n      iszero\n      0x0100\n      mul\n      sub\n      and\n      0x02\n      swap1\n      div\n      swap1\n      0x00\n      mstore\n      keccak256(0x00, 0x20)\n      swap1\n      0x1f\n      add\n      0x20\n      swap1\n      div\n      dup2\n      add\n      swap3\n      dup3\n      0x1f\n      lt\n      tag_477\n      jumpi\n      dup1\n      mload\n      not(0xff)\n      and\n      dup4\n      dup1\n      add\n      or\n      dup6\n      sstore\n      jump(tag_476)\n    tag_477:\n      dup3\n      dup1\n      add\n      0x01\n      add\n      dup6\n      sstore\n      dup3\n      iszero\n      tag_476\n      jumpi\n      swap2\n      dup3\n      add\n    tag_478:\n      dup3\n      dup2\n      gt\n      iszero\n      tag_479\n      jumpi\n      dup3\n      mload\n      dup3\n      sstore\n      swap2\n      0x20\n      add\n      swap2\n      swap1\n      0x01\n      add\n      swap1\n      jump(tag_478)\n    tag_479:\n    tag_476:\n      pop\n      swap1\n      pop\n      tag_480\n      swap2\n      swap1\n      tag_481\n      jump\t// in\n    tag_480:\n      pop\n      swap1\n      jump\t// out\n    tag_401:\n      mload(0x40)\n      dup1\n      0x40\n      add\n      0x40\n      mstore\n      dup1\n      0x60\n      dup2\n      mstore\n      0x20\n      add\n      0x00\n      dup2\n      mstore\n      pop\n      swap1\n      jump\t// out\n    tag_481:\n      tag_482\n      swap2\n      swap1\n    tag_483:\n      dup1\n      dup3\n      gt\n      iszero\n      tag_484\n      jumpi\n      0x00\n      dup2\n      0x00\n      swap1\n      sstore\n      pop\n      0x01\n      add\n      jump(tag_483)\n    tag_484:\n      pop\n      swap1\n      jump\n    tag_482:\n      swap1\n      jump\t// out\n    stop\n    data_55fd9c0637736a94fec8b47f89e6c4183af62b5fc442dff7a0558e59c8d9eaea 4e6f20746f70696320636f6e74726163747320617265206465706c6f7965642e20556e61626c6520746f20706572666f726d2072616e646f6d20746f7069632061737369676e6d656e74\n    data_8e90808f17bc1108e9ea5a79970bcefb81f12d2e44e112b3ad4b251ae0873244 596f75206d757374206265207468652063726561746f72206f66207468697320546f70696320696e206f7264657220746f20646f20746869732e\n    data_ba19e3b9bd008025c15e06a4b42e5cc3caa9fecf5d46466cc829b89a551aad6f 7fb956469c5c9b89840d55b43537e66a98dd4811ea0a27224272c2e5622911e8537a2f8e86a46baec82864e98dd01e9ccc2f8bc5dfc9cbe5a91a290498dd96e4\n    data_c6f2f0f13c6598abf8ee9fb17c87715e017f2ad977035fd635642d8acb7e90c5 50726f7661626c65207175657279207761732073656e742c207374616e64696e6720627920666f722074686520616e737765722e2e2e\n\n    auxdata: 0xa265627a7a72315820d88e0738b915b19cadcf9f7751cd05a359ddd94bdaaad326a1af8babf687e20f64736f6c63430005100032\n}\n","bytecode":{"linkReferences":{},"object":"608060405260196005553480156200001657600080fd5b506040516200490938038062004909833981810160405260208110156200003c57600080fd5b810190808051906020019092919050505080600760006101000a81548173ffffffffffffffffffffffffffffffffffffffff021916908373ffffffffffffffffffffffffffffffffffffffff160217905550620000a3603060f81b620000eb60201b60201c565b33600660006101000a81548173ffffffffffffffffffffffffffffffffffffffff021916908373ffffffffffffffffffffffffffffffffffffffff1602179055505062000b0c565b600073ffffffffffffffffffffffffffffffffffffffff16600160009054906101000a900473ffffffffffffffffffffffffffffffffffffffff1673ffffffffffffffffffffffffffffffffffffffff1614806200017b5750600062000179600160009054906101000a900473ffffffffffffffffffffffffffffffffffffffff166200044e60201b60201c565b145b1562000195576200019360006200045960201b60201c565b505b600160009054906101000a900473ffffffffffffffffffffffffffffffffffffffff1673ffffffffffffffffffffffffffffffffffffffff166338cc48316040518163ffffffff1660e01b8152600401602060405180830381600087803b1580156200020057600080fd5b505af115801562000215573d6000803e3d6000fd5b505050506040513d60208110156200022c57600080fd5b810190808051906020019092919050505073ffffffffffffffffffffffffffffffffffffffff166000809054906101000a900473ffffffffffffffffffffffffffffffffffffffff1673ffffffffffffffffffffffffffffffffffffffff16146200037957600160009054906101000a900473ffffffffffffffffffffffffffffffffffffffff1673ffffffffffffffffffffffffffffffffffffffff166338cc48316040518163ffffffff1660e01b8152600401602060405180830381600087803b158015620002fc57600080fd5b505af115801562000311573d6000803e3d6000fd5b505050506040513d60208110156200032857600080fd5b81019080805190602001909291905050506000806101000a81548173ffffffffffffffffffffffffffffffffffffffff021916908373ffffffffffffffffffffffffffffffffffffffff1602179055505b6000809054906101000a900473ffffffffffffffffffffffffffffffffffffffff1673ffffffffffffffffffffffffffffffffffffffff1663688dcfd7826040518263ffffffff1660e01b815260040180827effffffffffffffffffffffffffffffffffffffffffffffffffffffffffffff19167effffffffffffffffffffffffffffffffffffffffffffffffffffffffffffff19168152602001915050600060405180830381600087803b1580156200043257600080fd5b505af115801562000447573d6000803e3d6000fd5b5050505050565b6000813b9050919050565b60006200046b6200047260201b60201c565b9050919050565b6000806200049a731d3b2638a7cc9f2cb3d298a3da7a90b67e5506ed6200044e60201b60201c565b11156200054657731d3b2638a7cc9f2cb3d298a3da7a90b67e5506ed600160006101000a81548173ffffffffffffffffffffffffffffffffffffffff021916908373ffffffffffffffffffffffffffffffffffffffff1602179055506200053c6040518060400160405280600b81526020017f6574685f6d61696e6e657400000000000000000000000000000000000000000081525062000a4160201b60201c565b6001905062000a3e565b60006200056d73c03a2615d5efaf5f49f60b7bb6583eaec212fdf16200044e60201b60201c565b1115620006195773c03a2615d5efaf5f49f60b7bb6583eaec212fdf1600160006101000a81548173ffffffffffffffffffffffffffffffffffffffff021916908373ffffffffffffffffffffffffffffffffffffffff1602179055506200060f6040518060400160405280600c81526020017f6574685f726f707374656e33000000000000000000000000000000000000000081525062000a4160201b60201c565b6001905062000a3e565b60006200064073b7a07bcf2ba2f2703b24c0691b5278999c59ac7e6200044e60201b60201c565b1115620006ec5773b7a07bcf2ba2f2703b24c0691b5278999c59ac7e600160006101000a81548173ffffffffffffffffffffffffffffffffffffffff021916908373ffffffffffffffffffffffffffffffffffffffff160217905550620006e26040518060400160405280600981526020017f6574685f6b6f76616e000000000000000000000000000000000000000000000081525062000a4160201b60201c565b6001905062000a3e565b60006200071373146500cfd35b22e4a392fe0adc06de1a1368ed486200044e60201b60201c565b1115620007bf5773146500cfd35b22e4a392fe0adc06de1a1368ed48600160006101000a81548173ffffffffffffffffffffffffffffffffffffffff021916908373ffffffffffffffffffffffffffffffffffffffff160217905550620007b56040518060400160405280600b81526020017f6574685f72696e6b65627900000000000000000000000000000000000000000081525062000a4160201b60201c565b6001905062000a3e565b6000620007e673a2998efd205fb9d4b4963afb70778d6354ad3a416200044e60201b60201c565b1115620008925773a2998efd205fb9d4b4963afb70778d6354ad3a41600160006101000a81548173ffffffffffffffffffffffffffffffffffffffff021916908373ffffffffffffffffffffffffffffffffffffffff160217905550620008886040518060400160405280600a81526020017f6574685f676f65726c690000000000000000000000000000000000000000000081525062000a4160201b60201c565b6001905062000a3e565b6000620008b9736f485c8bf6fc43ea212e93bbf8ce046c7f1cb4756200044e60201b60201c565b11156200091f57736f485c8bf6fc43ea212e93bbf8ce046c7f1cb475600160006101000a81548173ffffffffffffffffffffffffffffffffffffffff021916908373ffffffffffffffffffffffffffffffffffffffff1602179055506001905062000a3e565b6000620009467320e12a1f859b3feae5fb2a0a32c18f5a65555bbf6200044e60201b60201c565b1115620009ac577320e12a1f859b3feae5fb2a0a32c18f5a65555bbf600160006101000a81548173ffffffffffffffffffffffffffffffffffffffff021916908373ffffffffffffffffffffffffffffffffffffffff1602179055506001905062000a3e565b6000620009d37351efaf4c8b3c9afbd5ab9f4bbc82784ab6ef8faa6200044e60201b60201c565b111562000a39577351efaf4c8b3c9afbd5ab9f4bbc82784ab6ef8faa600160006101000a81548173ffffffffffffffffffffffffffffffffffffffff021916908373ffffffffffffffffffffffffffffffffffffffff1602179055506001905062000a3e565b600090505b90565b806002908051906020019062000a5992919062000a5d565b5050565b828054600181600116156101000203166002900490600052602060002090601f016020900481019282601f1062000aa057805160ff191683800117855562000ad1565b8280016001018555821562000ad1579182015b8281111562000ad057825182559160200191906001019062000ab3565b5b50905062000ae0919062000ae4565b5090565b62000b0991905b8082111562000b0557600081600090555060010162000aeb565b5090565b90565b613ded8062000b1c6000396000f3fe6080604052600436106100915760003560e01c8063902701b711610059578063902701b714610449578063ccb40d8f146104d2578063cf592dea14610537578063ec634e271461058e578063f0f22eb4146105c957610091565b806327dc297e1461009657806338bbfa50146101685780633d2e83f0146102d1578063811f287e1461034c5780638da5cb5b146103f2575b600080fd5b3480156100a257600080fd5b50610166600480360360408110156100b957600080fd5b8101908080359060200190929190803590602001906401000000008111156100e057600080fd5b8201836020820111156100f257600080fd5b8035906020019184600183028401116401000000008311171561011457600080fd5b91908080601f016020809104026020016040519081016040528093929190818152602001838380828437600081840152601f19601f8201169050808301925050505050505091929192905050506105d3565b005b34801561017457600080fd5b506102cf6004803603606081101561018b57600080fd5b8101908080359060200190929190803590602001906401000000008111156101b257600080fd5b8201836020820111156101c457600080fd5b803590602001918460018302840111640100000000831117156101e657600080fd5b91908080601f016020809104026020016040519081016040528093929190818152602001838380828437600081840152601f19601f8201169050808301925050505050505091929192908035906020019064010000000081111561024957600080fd5b82018360208201111561025b57600080fd5b8035906020019184600183028401116401000000008311171561027d57600080fd5b91908080601f016020809104026020016040519081016040528093929190818152602001838380828437600081840152601f19601f820116905080830192505050505050509192919290505050610616565b005b3480156102dd57600080fd5b5061030a600480360360208110156102f457600080fd5b810190808035906020019092919050505061079b565b604051808273ffffffffffffffffffffffffffffffffffffffff1673ffffffffffffffffffffffffffffffffffffffff16815260200191505060405180910390f35b34801561035857600080fd5b5061039b6004803603602081101561036f57600080fd5b81019080803573ffffffffffffffffffffffffffffffffffffffff1690602001909291905050506107ce565b6040518080602001828103825283818151815260200191508051906020019060200280838360005b838110156103de5780820151818401526020810190506103c3565b505050509050019250505060405180910390f35b3480156103fe57600080fd5b50610407610b78565b604051808273ffffffffffffffffffffffffffffffffffffffff1673ffffffffffffffffffffffffffffffffffffffff16815260200191505060405180910390f35b34801561045557600080fd5b506104b86004803603604081101561046c57600080fd5b81019080803573ffffffffffffffffffffffffffffffffffffffff169060200190929190803573ffffffffffffffffffffffffffffffffffffffff169060200190929190505050610b9e565b604051808215151515815260200191505060405180910390f35b3480156104de57600080fd5b50610521600480360360208110156104f557600080fd5b81019080803573ffffffffffffffffffffffffffffffffffffffff169060200190929190505050610c2f565b6040518082815260200191505060405180910390f35b34801561054357600080fd5b5061054c610c47565b604051808273ffffffffffffffffffffffffffffffffffffffff1673ffffffffffffffffffffffffffffffffffffffff16815260200191505060405180910390f35b34801561059a57600080fd5b506105c7600480360360208110156105b157600080fd5b8101908080359060200190929190505050610c6d565b005b6105d1610d1d565b005b610612828260006040519080825280601f01601f19166020018201604052801561060c5781602001600182028038833980820191505090505b50610616565b5050565b61061e610ddc565b73ffffffffffffffffffffffffffffffffffffffff163373ffffffffffffffffffffffffffffffffffffffff161461065557600080fd5b60006106628484846110f9565b60ff161461066f57600080fd5b6000826040516020018082805190602001908083835b602083106106a85780518252602082019150602081019050602083039250610685565b6001836020036101000a0380198251168184511680821785525050505050509050019150506040516020818303038152906040528051906020012060001c905080600960006008600088815260200190815260200160002060009054906101000a900473ffffffffffffffffffffffffffffffffffffffff1673ffffffffffffffffffffffffffffffffffffffff1673ffffffffffffffffffffffffffffffffffffffff168152602001908152602001600020819055506008600085815260200190815260200160002060006101000a81549073ffffffffffffffffffffffffffffffffffffffff021916905550505050565b60086020528060005260406000206000915054906101000a900473ffffffffffffffffffffffffffffffffffffffff1681565b60606000600760009054906101000a900473ffffffffffffffffffffffffffffffffffffffff16905060008173ffffffffffffffffffffffffffffffffffffffff1663dfb097006040518163ffffffff1660e01b815260040160206040518083038186803b15801561083f57600080fd5b505afa158015610853573d6000803e3d6000fd5b505050506040513d602081101561086957600080fd5b81019080805190602001909291905050509050600081116108d5576040517f08c379a000000000000000000000000000000000000000000000000000000000815260040180806020018281038252604a815260200180613cbf604a913960600191505060405180910390fd5b6000600960008673ffffffffffffffffffffffffffffffffffffffff1673ffffffffffffffffffffffffffffffffffffffff168152602001908152602001600020549050600081141561095d5760006040519080825280602002602001820160405280156109525781602001602082028038833980820191505090505b509350505050610b73565b60606005546040519080825280602002602001820160405280156109905781602001602082028038833980820191505090505b50905060008090505b6005548160ff161015610a045782604051602001808281526020019150506040516020818303038152906040528051906020012060001c92508383816109db57fe5b06828260ff16815181106109eb57fe5b6020026020010181815250508080600101915050610999565b508373ffffffffffffffffffffffffffffffffffffffff1663dc983f08826040518263ffffffff1660e01b81526004018080602001828103825283818151815260200191508051906020019060200280838360005b83811015610a74578082015181840152602081019050610a59565b505050509050019250505060006040518083038186803b158015610a9757600080fd5b505afa158015610aab573d6000803e3d6000fd5b505050506040513d6000823e3d601f19601f820116820180604052506020811015610ad557600080fd5b8101908080516040519392919084640100000000821115610af557600080fd5b83820191506020820185811115610b0b57600080fd5b8251866020820283011164010000000082111715610b2857600080fd5b8083526020830192505050908051906020019060200280838360005b83811015610b5f578082015181840152602081019050610b44565b505050509050016040525050509450505050505b919050565b600660009054906101000a900473ffffffffffffffffffffffffffffffffffffffff1681565b60006060610bab846107ce565b905060008090505b6005548160ff161015610c22578373ffffffffffffffffffffffffffffffffffffffff16828260ff1681518110610be657fe5b602002602001015173ffffffffffffffffffffffffffffffffffffffff161415610c1557600192505050610c29565b8080600101915050610bb3565b5060009150505b92915050565b60096020528060005260406000206000915090505481565b600760009054906101000a900473ffffffffffffffffffffffffffffffffffffffff1681565b600660009054906101000a900473ffffffffffffffffffffffffffffffffffffffff1673ffffffffffffffffffffffffffffffffffffffff163373ffffffffffffffffffffffffffffffffffffffff1614610d13576040517f08c379a000000000000000000000000000000000000000000000000000000000815260040180806020018281038252603a815260200180613d09603a913960400191505060405180910390fd5b8060058190555050565b6000809050600062030d4090506000610d3883600884611229565b9050336008600083815260200190815260200160002060006101000a81548173ffffffffffffffffffffffffffffffffffffffff021916908373ffffffffffffffffffffffffffffffffffffffff1602179055507fc4dc360d0a9c0677a3379ae0a3d81e887f761e65fdf3d7e00859d1bcd3c47389604051808060200182810382526036815260200180613d836036913960400191505060405180910390a1505050565b60008073ffffffffffffffffffffffffffffffffffffffff16600160009054906101000a900473ffffffffffffffffffffffffffffffffffffffff1673ffffffffffffffffffffffffffffffffffffffff161480610e6457506000610e62600160009054906101000a900473ffffffffffffffffffffffffffffffffffffffff166117c4565b145b15610e7557610e7360006117cf565b505b600160009054906101000a900473ffffffffffffffffffffffffffffffffffffffff1673ffffffffffffffffffffffffffffffffffffffff166338cc48316040518163ffffffff1660e01b8152600401602060405180830381600087803b158015610edf57600080fd5b505af1158015610ef3573d6000803e3d6000fd5b505050506040513d6020811015610f0957600080fd5b810190808051906020019092919050505073ffffffffffffffffffffffffffffffffffffffff166000809054906101000a900473ffffffffffffffffffffffffffffffffffffffff1673ffffffffffffffffffffffffffffffffffffffff161461105257600160009054906101000a900473ffffffffffffffffffffffffffffffffffffffff1673ffffffffffffffffffffffffffffffffffffffff166338cc48316040518163ffffffff1660e01b8152600401602060405180830381600087803b158015610fd757600080fd5b505af1158015610feb573d6000803e3d6000fd5b505050506040513d602081101561100157600080fd5b81019080805190602001909291905050506000806101000a81548173ffffffffffffffffffffffffffffffffffffffff021916908373ffffffffffffffffffffffffffffffffffffffff1602179055505b6000809054906101000a900473ffffffffffffffffffffffffffffffffffffffff1673ffffffffffffffffffffffffffffffffffffffff1663c281d19e6040518163ffffffff1660e01b815260040160206040518083038186803b1580156110b957600080fd5b505afa1580156110cd573d6000803e3d6000fd5b505050506040513d60208110156110e357600080fd5b8101908080519060200190929190505050905090565b60007f4c000000000000000000000000000000000000000000000000000000000000008260008151811061112957fe5b602001015160f81c60f81b7effffffffffffffffffffffffffffffffffffffffffffffffffffffffffffff19161415806111bc57507f50000000000000000000000000000000000000000000000000000000000000008260018151811061118c57fe5b602001015160f81c60f81b7effffffffffffffffffffffffffffffffffffffffffffffffffffffffffffff191614155b806111e85750600160ff16826002815181106111d457fe5b602001015160f81c60f81b60f81c60ff1614155b156111f65760019050611222565b600061120b8386866112066117e0565b611882565b90508061121c576002915050611222565b60009150505b9392505050565b6000808311801561123b575060208311155b61124457600080fd5b600a84029350606060016040519080825280601f01601f1916602001820160405280156112805781602001600182028038833980820191505090505b5090508360f81b8160008151811061129457fe5b60200101907effffffffffffffffffffffffffffffffffffffffffffffffffffffffffffff1916908160001a905350606060206040519080825280601f01601f1916602001820160405280156112f95781602001600182028038833980820191505090505b509050606060206040519080825280601f01601f1916602001820160405280156113325781602001600182028038833980820191505090505b509050600061133f611f2d565b905060208352424118600143034018602084015260208252806020830152606060206040519080825280601f01601f1916602001820160405280156113935781602001600182028038833980820191505090505b509050886020820152606060086040519080825280601f01601f1916602001820160405280156113d25781602001600182028038833980820191505090505b5090506113e5826018600884600061224a565b506113ee613bd8565b604051806080016040528087815260200188815260200186815260200184815250905060006114536040518060400160405280600681526020017f72616e646f6d0000000000000000000000000000000000000000000000000000815250838c6122a9565b9050606060086040519080825280601f01601f19166020018201604052801561148b5781602001600182028038833980820191505090505b50905060208401517f0100000000000000000000000000000000000000000000000000000000000000810460278301537e01000000000000000000000000000000000000000000000000000000000000810460268301537d010000000000000000000000000000000000000000000000000000000000810460258301537c0100000000000000000000000000000000000000000000000000000000810460248301537b01000000000000000000000000000000000000000000000000000000810460238301537a0100000000000000000000000000000000000000000000000000008104602283015379010000000000000000000000000000000000000000000000000081046021830153780100000000000000000000000000000000000000000000000081046020830153506117b18282856001600481106115ca57fe5b60200201516002876000600481106115de57fe5b60200201516040518082805190602001908083835b6020831061161657805182526020820191506020810190506020830392506115f3565b6001836020036101000a038019825116818451168082178552505050505050905001915050602060405180830381855afa158015611658573d6000803e3d6000fd5b5050506040513d602081101561166d57600080fd5b81019080805190602001909291905050508760026004811061168b57fe5b60200201516040516020018085805190602001908083835b602083106116c657805182526020820191506020810190506020830392506116a3565b6001836020036101000a03801982511681845116808217855250505050505090500184805190602001908083835b6020831061171757805182526020820191506020810190506020830392506116f4565b6001836020036101000a03801982511681845116808217855250505050505090500183815260200182805190602001908083835b6020831061176e578051825260208201915060208101905060208303925061174b565b6001836020036101000a03801982511681845116808217855250505050505090500194505050505060405160208183030381529060405280519060200120612616565b8199505050505050505050509392505050565b6000813b9050919050565b60006117d9612632565b9050919050565b606060028054600181600116156101000203166002900480601f0160208091040260200160405190810160405280929190818152602001828054600181600116156101000203166002900480156118785780601f1061184d57610100808354040283529160200191611878565b820191906000526020600020905b81548152906001019060200180831161185b57829003601f168201915b5050505050905090565b600080602060028760458151811061189657fe5b602001015160f81c60f81b60f81c60ff1601604401019050606060206040519080825280601f01601f1916602001820160405280156118e45781602001600182028038833980820191505090505b5090506118f68783602084600061224a565b50600284876040516020018083805190602001908083835b60208310611931578051825260208201915060208101905060208303925061190e565b6001836020036101000a038019825116818451168082178552505050505050905001828152602001925050506040516020818303038152906040526040518082805190602001908083835b6020831061199f578051825260208201915060208101905060208303925061197c565b6001836020036101000a038019825116818451168082178552505050505050905001915050602060405180830381855afa1580156119e1573d6000803e3d6000fd5b5050506040513d60208110156119f657600080fd5b81019080805190602001909291905050506040516020018082815260200191505060405160208183030381529060405280519060200120818051906020012014611a4557600092505050611f25565b60606002886001604986010181518110611a5b57fe5b602001015160f81c60f81b60f81c60ff16016040519080825280601f01601f191660200182016040528015611a9f5781602001600182028038833980820191505090505b509050611ab48860498501835184600061224a565b50611b7f6002826040518082805190602001908083835b60208310611aee5780518252602082019150602081019050602083039250611acb565b6001836020036101000a038019825116818451168082178552505050505050905001915050602060405180830381855afa158015611b30573d6000803e3d6000fd5b5050506040513d6020811015611b4557600080fd5b8101908080519060200190929190505050878a6008602088010181518110611b6957fe5b602001015160f81c60f81b60f81c60ff16612b89565b611b8f5760009350505050611f25565b606060296040519080825280601f01601f191660200182016040528015611bc55781602001600182028038833980820191505090505b509050611bda8960208601602984600061224a565b506060604080519080825280601f01601f191660200182016040528015611c105781602001600182028038833980820191505090505b5090506000604184516029602089010101019050611c368b60408303604085600061224a565b5060006002836040518082805190602001908083835b60208310611c6f5780518252602082019150602081019050602083039250611c4c565b6001836020036101000a038019825116818451168082178552505050505050905001915050602060405180830381855afa158015611cb1573d6000803e3d6000fd5b5050506040513d6020811015611cc657600080fd5b8101908080519060200190929190505050905083816040516020018083805190602001908083835b60208310611d115780518252602082019150602081019050602083039250611cee565b6001836020036101000a0380198251168184511680821785525050505050509050018281526020019250505060405160208183030381529060405280519060200120600360008d8152602001908152602001600020541415611d8957600360008c815260200190815260200160002060009055611d99565b6000975050505050505050611f25565b606060496040519080825280601f01601f191660200182016040528015611dcf5781602001600182028038833980820191505090505b509050611de18d89604984600061224a565b50611e8a6002826040518082805190602001908083835b60208310611e1b5780518252602082019150602081019050602083039250611df8565b6001836020036101000a038019825116818451168082178552505050505050905001915050602060405180830381855afa158015611e5d573d6000803e3d6000fd5b5050506040513d6020811015611e7257600080fd5b81019080805190602001909291905050508786612c39565b611e9f57600098505050505050505050611f25565b6004600083815260200190815260200160002060009054906101000a900460ff16611ef957611ece8d84612df7565b6004600084815260200190815260200160002060006101000a81548160ff0219169083151502179055505b6004600083815260200190815260200160002060009054906101000a900460ff16985050505050505050505b949350505050565b60008073ffffffffffffffffffffffffffffffffffffffff16600160009054906101000a900473ffffffffffffffffffffffffffffffffffffffff1673ffffffffffffffffffffffffffffffffffffffff161480611fb557506000611fb3600160009054906101000a900473ffffffffffffffffffffffffffffffffffffffff166117c4565b145b15611fc657611fc460006117cf565b505b600160009054906101000a900473ffffffffffffffffffffffffffffffffffffffff1673ffffffffffffffffffffffffffffffffffffffff166338cc48316040518163ffffffff1660e01b8152600401602060405180830381600087803b15801561203057600080fd5b505af1158015612044573d6000803e3d6000fd5b505050506040513d602081101561205a57600080fd5b810190808051906020019092919050505073ffffffffffffffffffffffffffffffffffffffff166000809054906101000a900473ffffffffffffffffffffffffffffffffffffffff1673ffffffffffffffffffffffffffffffffffffffff16146121a357600160009054906101000a900473ffffffffffffffffffffffffffffffffffffffff1673ffffffffffffffffffffffffffffffffffffffff166338cc48316040518163ffffffff1660e01b8152600401602060405180830381600087803b15801561212857600080fd5b505af115801561213c573d6000803e3d6000fd5b505050506040513d602081101561215257600080fd5b81019080805190602001909291905050506000806101000a81548173ffffffffffffffffffffffffffffffffffffffff021916908373ffffffffffffffffffffffffffffffffffffffff1602179055505b6000809054906101000a900473ffffffffffffffffffffffffffffffffffffffff1673ffffffffffffffffffffffffffffffffffffffff1663abaa5f3e6040518163ffffffff1660e01b815260040160206040518083038186803b15801561220a57600080fd5b505afa15801561221e573d6000803e3d6000fd5b505050506040513d602081101561223457600080fd5b8101908080519060200190929190505050905090565b606060008285019050808451101561226157600080fd5b600086602001905060008460200190505b86886020010182101561229a5781890151808288015250602082019150602081019050612272565b85935050505095945050505050565b60008073ffffffffffffffffffffffffffffffffffffffff16600160009054906101000a900473ffffffffffffffffffffffffffffffffffffffff1673ffffffffffffffffffffffffffffffffffffffff1614806123315750600061232f600160009054906101000a900473ffffffffffffffffffffffffffffffffffffffff166117c4565b145b156123425761234060006117cf565b505b600160009054906101000a900473ffffffffffffffffffffffffffffffffffffffff1673ffffffffffffffffffffffffffffffffffffffff166338cc48316040518163ffffffff1660e01b8152600401602060405180830381600087803b1580156123ac57600080fd5b505af11580156123c0573d6000803e3d6000fd5b505050506040513d60208110156123d657600080fd5b810190808051906020019092919050505073ffffffffffffffffffffffffffffffffffffffff166000809054906101000a900473ffffffffffffffffffffffffffffffffffffffff1673ffffffffffffffffffffffffffffffffffffffff161461251f57600160009054906101000a900473ffffffffffffffffffffffffffffffffffffffff1673ffffffffffffffffffffffffffffffffffffffff166338cc48316040518163ffffffff1660e01b8152600401602060405180830381600087803b1580156124a457600080fd5b505af11580156124b8573d6000803e3d6000fd5b505050506040513d60208110156124ce57600080fd5b81019080805190602001909291905050506000806101000a81548173ffffffffffffffffffffffffffffffffffffffff021916908373ffffffffffffffffffffffffffffffffffffffff1602179055505b6060600460405190808252806020026020018201604052801561255657816020015b60608152602001906001900390816125415790505b5090508360006004811061256657fe5b60200201518160008151811061257857fe5b60200260200101819052508360016004811061259057fe5b6020020151816001815181106125a257fe5b6020026020010181905250836002600481106125ba57fe5b6020020151816002815181106125cc57fe5b6020026020010181905250836003600481106125e457fe5b6020020151816003815181106125f657fe5b602002602001018190525061260c85828561320f565b9150509392505050565b8060036000848152602001908152602001600020819055505050565b600080612652731d3b2638a7cc9f2cb3d298a3da7a90b67e5506ed6117c4565b11156126f457731d3b2638a7cc9f2cb3d298a3da7a90b67e5506ed600160006101000a81548173ffffffffffffffffffffffffffffffffffffffff021916908373ffffffffffffffffffffffffffffffffffffffff1602179055506126eb6040518060400160405280600b81526020017f6574685f6d61696e6e6574000000000000000000000000000000000000000000815250613771565b60019050612b86565b600061271373c03a2615d5efaf5f49f60b7bb6583eaec212fdf16117c4565b11156127b55773c03a2615d5efaf5f49f60b7bb6583eaec212fdf1600160006101000a81548173ffffffffffffffffffffffffffffffffffffffff021916908373ffffffffffffffffffffffffffffffffffffffff1602179055506127ac6040518060400160405280600c81526020017f6574685f726f707374656e330000000000000000000000000000000000000000815250613771565b60019050612b86565b60006127d473b7a07bcf2ba2f2703b24c0691b5278999c59ac7e6117c4565b11156128765773b7a07bcf2ba2f2703b24c0691b5278999c59ac7e600160006101000a81548173ffffffffffffffffffffffffffffffffffffffff021916908373ffffffffffffffffffffffffffffffffffffffff16021790555061286d6040518060400160405280600981526020017f6574685f6b6f76616e0000000000000000000000000000000000000000000000815250613771565b60019050612b86565b600061289573146500cfd35b22e4a392fe0adc06de1a1368ed486117c4565b11156129375773146500cfd35b22e4a392fe0adc06de1a1368ed48600160006101000a81548173ffffffffffffffffffffffffffffffffffffffff021916908373ffffffffffffffffffffffffffffffffffffffff16021790555061292e6040518060400160405280600b81526020017f6574685f72696e6b656279000000000000000000000000000000000000000000815250613771565b60019050612b86565b600061295673a2998efd205fb9d4b4963afb70778d6354ad3a416117c4565b11156129f85773a2998efd205fb9d4b4963afb70778d6354ad3a41600160006101000a81548173ffffffffffffffffffffffffffffffffffffffff021916908373ffffffffffffffffffffffffffffffffffffffff1602179055506129ef6040518060400160405280600a81526020017f6574685f676f65726c6900000000000000000000000000000000000000000000815250613771565b60019050612b86565b6000612a17736f485c8bf6fc43ea212e93bbf8ce046c7f1cb4756117c4565b1115612a7b57736f485c8bf6fc43ea212e93bbf8ce046c7f1cb475600160006101000a81548173ffffffffffffffffffffffffffffffffffffffff021916908373ffffffffffffffffffffffffffffffffffffffff16021790555060019050612b86565b6000612a9a7320e12a1f859b3feae5fb2a0a32c18f5a65555bbf6117c4565b1115612afe577320e12a1f859b3feae5fb2a0a32c18f5a65555bbf600160006101000a81548173ffffffffffffffffffffffffffffffffffffffff021916908373ffffffffffffffffffffffffffffffffffffffff16021790555060019050612b86565b6000612b1d7351efaf4c8b3c9afbd5ab9f4bbc82784ab6ef8faa6117c4565b1115612b81577351efaf4c8b3c9afbd5ab9f4bbc82784ab6ef8faa600160006101000a81548173ffffffffffffffffffffffffffffffffffffffff021916908373ffffffffffffffffffffffffffffffffffffffff16021790555060019050612b86565b600090505b90565b6000806001905082845114612b9d57600080fd5b60008090505b83811015612c2d57848181518110612bb757fe5b602001015160f81c60f81b7effffffffffffffffffffffffffffffffffffffffffffffffffffffffffffff1916868260208110612bf057fe5b1a60f81b7effffffffffffffffffffffffffffffffffffffffffffffffffffffffffffff191614612c2057600091505b8080600101915050612ba3565b50809150509392505050565b6000806000806000606060206040519080825280601f01601f191660200182016040528015612c775781602001600182028038833980820191505090505b5090506000602089600381518110612c8b57fe5b602001015160f81c60f81b60f81c60ff16036004019050612cb18982602085600061224a565b9150606060206040519080825280601f01601f191660200182016040528015612ce95781602001600182028038833980820191505090505b509050602282019150612d258a60208c6001860381518110612d0757fe5b602001015160f81c60f81b60f81c60ff16038401602084600061224a565b90506020830151945060208101519350612d428b601b878761378b565b80975081985050508573ffffffffffffffffffffffffffffffffffffffff16898051906020012060001c73ffffffffffffffffffffffffffffffffffffffff161415612d98576001975050505050505050612df0565b612da58b601c878761378b565b80975081985050508573ffffffffffffffffffffffffffffffffffffffff16898051906020012060001c73ffffffffffffffffffffffffffffffffffffffff16149750505050505050505b9392505050565b60008060606002856001860181518110612e0d57fe5b602001015160f81c60f81b60f81c60ff16016040519080825280601f01601f191660200182016040528015612e515781602001600182028038833980820191505090505b509050612e638585835184600061224a565b506060604080519080825280601f01601f191660200182016040528015612e995781602001600182028038833980820191505090505b509050612eac866004604084600061224a565b50606060626040519080825280601f01601f191660200182016040528015612ee35781602001600182028038833980820191505090505b509050600160f81b81600081518110612ef857fe5b60200101907effffffffffffffffffffffffffffffffffffffffffffffffffffffffffffff1916908160001a905350612f398760418803604184600161224a565b5060606040518060400160405280602081526020017ffd94fa71bc0ba10d39d464d0d8f465efeef0a2764e3887fcc9df41ded20f505c8152509050612f84816000602085604261224a565b5061302d6002836040518082805190602001908083835b60208310612fbe5780518252602082019150602081019050602083039250612f9b565b6001836020036101000a038019825116818451168082178552505050505050905001915050602060405180830381855afa158015613000573d6000803e3d6000fd5b5050506040513d602081101561301557600080fd5b81019080805190602001909291905050508585612c39565b94508461304257600095505050505050613209565b6060604051806060016040528060408152602001613d43604091399050606060426040519080825280601f01601f1916602001820160405280156130955781602001600182028038833980820191505090505b50905060fe60f81b816000815181106130aa57fe5b60200101907effffffffffffffffffffffffffffffffffffffffffffffffffffffffffffff1916908160001a9053506130e98a6003604184600161224a565b50606060028b6045815181106130fb57fe5b602001015160f81c60f81b60f81c60ff16016040519080825280601f01601f19166020018201604052801561313f5781602001600182028038833980820191505090505b5090506131528b6044835184600061224a565b506131fb6002836040518082805190602001908083835b6020831061318c5780518252602082019150602081019050602083039250613169565b6001836020036101000a038019825116818451168082178552505050505050905001915050602060405180830381855afa1580156131ce573d6000803e3d6000fd5b5050506040513d60208110156131e357600080fd5b81019080805190602001909291905050508285612c39565b975087985050505050505050505b92915050565b60008073ffffffffffffffffffffffffffffffffffffffff16600160009054906101000a900473ffffffffffffffffffffffffffffffffffffffff1673ffffffffffffffffffffffffffffffffffffffff16148061329757506000613295600160009054906101000a900473ffffffffffffffffffffffffffffffffffffffff166117c4565b145b156132a8576132a660006117cf565b505b600160009054906101000a900473ffffffffffffffffffffffffffffffffffffffff1673ffffffffffffffffffffffffffffffffffffffff166338cc48316040518163ffffffff1660e01b8152600401602060405180830381600087803b15801561331257600080fd5b505af1158015613326573d6000803e3d6000fd5b505050506040513d602081101561333c57600080fd5b810190808051906020019092919050505073ffffffffffffffffffffffffffffffffffffffff166000809054906101000a900473ffffffffffffffffffffffffffffffffffffffff1673ffffffffffffffffffffffffffffffffffffffff161461348557600160009054906101000a900473ffffffffffffffffffffffffffffffffffffffff1673ffffffffffffffffffffffffffffffffffffffff166338cc48316040518163ffffffff1660e01b8152600401602060405180830381600087803b15801561340a57600080fd5b505af115801561341e573d6000803e3d6000fd5b505050506040513d602081101561343457600080fd5b81019080805190602001909291905050506000806101000a81548173ffffffffffffffffffffffffffffffffffffffff021916908373ffffffffffffffffffffffffffffffffffffffff1602179055505b60008060009054906101000a900473ffffffffffffffffffffffffffffffffffffffff1673ffffffffffffffffffffffffffffffffffffffff16632ef3accc86856040518363ffffffff1660e01b81526004018080602001838152602001828103825284818151815260200191508051906020019080838360005b8381101561351b578082015181840152602081019050613500565b50505050905090810190601f1680156135485780820380516001836020036101000a031916815260200191505b509350505050602060405180830381600087803b15801561356857600080fd5b505af115801561357c573d6000803e3d6000fd5b505050506040513d602081101561359257600080fd5b81019080805190602001909291905050509050823a02670de0b6b3a7640000018111156135c5576000801b91505061376a565b60606135d0856137cf565b90506000809054906101000a900473ffffffffffffffffffffffffffffffffffffffff1673ffffffffffffffffffffffffffffffffffffffff1663c55c1cb68360008985896040518663ffffffff1660e01b8152600401808581526020018060200180602001848152602001838103835286818151815260200191508051906020019080838360005b83811015613674578082015181840152602081019050613659565b50505050905090810190601f1680156136a15780820380516001836020036101000a031916815260200191505b50838103825285818151815260200191508051906020019080838360005b838110156136da5780820151818401526020810190506136bf565b50505050905090810190601f1680156137075780820380516001836020036101000a031916815260200191505b5096505050505050506020604051808303818588803b15801561372957600080fd5b505af115801561373d573d6000803e3d6000fd5b50505050506040513d602081101561375457600080fd5b8101908080519060200190929190505050925050505b9392505050565b8060029080519060200190613787929190613bff565b5050565b60008060008060405188815287602082015286604082015285606082015260208160808360006001610bb8f192508051915050818193509350505094509492505050565b60606137d961384f565b6137e1613c7f565b6137ed8161040061385b565b6137f6816138a5565b60008090505b83518110156138385761382b84828151811061381457fe5b6020026020010151836138b390919063ffffffff16565b80806001019150506137fc565b50613842816138d8565b8060000151915050919050565b60405180590338823950565b600081905060006020828161386c57fe5b0614613885576020818161387c57fe5b06602003810190505b808360200181815250506040518084526000815281810160405250505050565b6138b08160046138e6565b50565b6138c08260028351613907565b6138d38183613a4790919063ffffffff16565b505050565b6138e38160076138e6565b50565b613903601f60058360ff16901b1783613af290919063ffffffff16565b5050565b601781116139335761392e8160058460ff16901b60ff161784613af290919063ffffffff16565b613a42565b60ff811161397457613958601860058460ff16901b1784613af290919063ffffffff16565b61396e81600185613b329092919063ffffffff16565b50613a41565b61ffff81116139b65761399a601960058460ff16901b1784613af290919063ffffffff16565b6139b081600285613b329092919063ffffffff16565b50613a40565b63ffffffff81116139fa576139de601a60058460ff16901b1784613af290919063ffffffff16565b6139f481600485613b329092919063ffffffff16565b50613a3f565b67ffffffffffffffff8111613a3e57613a26601b60058460ff16901b1784613af290919063ffffffff16565b613a3c81600885613b329092919063ffffffff16565b505b5b5b5b5b505050565b613a4f613c7f565b82602001518360000151518351011115613a7f57613a7e836002613a7886602001518651613b99565b02613bb5565b5b60008060008451905085518051602081830101945086518101825260208701935050505b60208110613ac65781518352602083019250602082019150602081039050613aa3565b60006001826020036101000a039050801983511681855116818117865250508694505050505092915050565b81602001516001836000015151011115613b1857613b17826002846020015102613bb5565b5b815180516020818301018381536001820183525050505050565b613b3a613c7f565b836020015184600001515183011115613b6857613b67846002613b61876020015186613b99565b02613bb5565b5b60006001836101000a0390508451805184818301018684198251161781528582018352505050849150509392505050565b600081831115613bab57829050613baf565b8190505b92915050565b606082600001519050613bc8838361385b565b613bd28382613a47565b50505050565b60405180608001604052806004905b6060815260200190600190039081613be75790505090565b828054600181600116156101000203166002900490600052602060002090601f016020900481019282601f10613c4057805160ff1916838001178555613c6e565b82800160010185558215613c6e579182015b82811115613c6d578251825591602001919060010190613c52565b5b509050613c7b9190613c99565b5090565b604051806040016040528060608152602001600081525090565b613cbb91905b80821115613cb7576000816000905550600101613c9f565b5090565b9056fe4e6f20746f70696320636f6e74726163747320617265206465706c6f7965642e20556e61626c6520746f20706572666f726d2072616e646f6d20746f7069632061737369676e6d656e74596f75206d757374206265207468652063726561746f72206f66207468697320546f70696320696e206f7264657220746f20646f20746869732e7fb956469c5c9b89840d55b43537e66a98dd4811ea0a27224272c2e5622911e8537a2f8e86a46baec82864e98dd01e9ccc2f8bc5dfc9cbe5a91a290498dd96e450726f7661626c65207175657279207761732073656e742c207374616e64696e6720627920666f722074686520616e737765722e2e2ea265627a7a72315820d88e0738b915b19cadcf9f7751cd05a359ddd94bdaaad326a1af8babf687e20f64736f6c63430005100032","opcodes":"PUSH1 0x80 PUSH1 0x40 MSTORE PUSH1 0x19 PUSH1 0x5 SSTORE CALLVALUE DUP1 ISZERO PUSH3 0x16 JUMPI PUSH1 0x0 DUP1 REVERT JUMPDEST POP PUSH1 0x40 MLOAD PUSH3 0x4909 CODESIZE SUB DUP1 PUSH3 0x4909 DUP4 CODECOPY DUP2 DUP2 ADD PUSH1 0x40 MSTORE PUSH1 0x20 DUP2 LT ISZERO PUSH3 0x3C JUMPI PUSH1 0x0 DUP1 REVERT JUMPDEST DUP2 ADD SWAP1 DUP1 DUP1 MLOAD SWAP1 PUSH1 0x20 ADD SWAP1 SWAP3 SWAP2 SWAP1 POP POP POP DUP1 PUSH1 0x7 PUSH1 0x0 PUSH2 0x100 EXP DUP2 SLOAD DUP2 PUSH20 0xFFFFFFFFFFFFFFFFFFFFFFFFFFFFFFFFFFFFFFFF MUL NOT AND SWAP1 DUP4 PUSH20 0xFFFFFFFFFFFFFFFFFFFFFFFFFFFFFFFFFFFFFFFF AND MUL OR SWAP1 SSTORE POP PUSH3 0xA3 PUSH1 0x30 PUSH1 0xF8 SHL PUSH3 0xEB PUSH1 0x20 SHL PUSH1 0x20 SHR JUMP JUMPDEST CALLER PUSH1 0x6 PUSH1 0x0 PUSH2 0x100 EXP DUP2 SLOAD DUP2 PUSH20 0xFFFFFFFFFFFFFFFFFFFFFFFFFFFFFFFFFFFFFFFF MUL NOT AND SWAP1 DUP4 PUSH20 0xFFFFFFFFFFFFFFFFFFFFFFFFFFFFFFFFFFFFFFFF AND MUL OR SWAP1 SSTORE POP POP PUSH3 0xB0C JUMP JUMPDEST PUSH1 0x0 PUSH20 0xFFFFFFFFFFFFFFFFFFFFFFFFFFFFFFFFFFFFFFFF AND PUSH1 0x1 PUSH1 0x0 SWAP1 SLOAD SWAP1 PUSH2 0x100 EXP SWAP1 DIV PUSH20 0xFFFFFFFFFFFFFFFFFFFFFFFFFFFFFFFFFFFFFFFF AND PUSH20 0xFFFFFFFFFFFFFFFFFFFFFFFFFFFFFFFFFFFFFFFF AND EQ DUP1 PUSH3 0x17B JUMPI POP PUSH1 0x0 PUSH3 0x179 PUSH1 0x1 PUSH1 0x0 SWAP1 SLOAD SWAP1 PUSH2 0x100 EXP SWAP1 DIV PUSH20 0xFFFFFFFFFFFFFFFFFFFFFFFFFFFFFFFFFFFFFFFF AND PUSH3 0x44E PUSH1 0x20 SHL PUSH1 0x20 SHR JUMP JUMPDEST EQ JUMPDEST ISZERO PUSH3 0x195 JUMPI PUSH3 0x193 PUSH1 0x0 PUSH3 0x459 PUSH1 0x20 SHL PUSH1 0x20 SHR JUMP JUMPDEST POP JUMPDEST PUSH1 0x1 PUSH1 0x0 SWAP1 SLOAD SWAP1 PUSH2 0x100 EXP SWAP1 DIV PUSH20 0xFFFFFFFFFFFFFFFFFFFFFFFFFFFFFFFFFFFFFFFF AND PUSH20 0xFFFFFFFFFFFFFFFFFFFFFFFFFFFFFFFFFFFFFFFF AND PUSH4 0x38CC4831 PUSH1 0x40 MLOAD DUP2 PUSH4 0xFFFFFFFF AND PUSH1 0xE0 SHL DUP2 MSTORE PUSH1 0x4 ADD PUSH1 0x20 PUSH1 0x40 MLOAD DUP1 DUP4 SUB DUP2 PUSH1 0x0 DUP8 DUP1 EXTCODESIZE ISZERO DUP1 ISZERO PUSH3 0x200 JUMPI PUSH1 0x0 DUP1 REVERT JUMPDEST POP GAS CALL ISZERO DUP1 ISZERO PUSH3 0x215 JUMPI RETURNDATASIZE PUSH1 0x0 DUP1 RETURNDATACOPY RETURNDATASIZE PUSH1 0x0 REVERT JUMPDEST POP POP POP POP PUSH1 0x40 MLOAD RETURNDATASIZE PUSH1 0x20 DUP2 LT ISZERO PUSH3 0x22C JUMPI PUSH1 0x0 DUP1 REVERT JUMPDEST DUP2 ADD SWAP1 DUP1 DUP1 MLOAD SWAP1 PUSH1 0x20 ADD SWAP1 SWAP3 SWAP2 SWAP1 POP POP POP PUSH20 0xFFFFFFFFFFFFFFFFFFFFFFFFFFFFFFFFFFFFFFFF AND PUSH1 0x0 DUP1 SWAP1 SLOAD SWAP1 PUSH2 0x100 EXP SWAP1 DIV PUSH20 0xFFFFFFFFFFFFFFFFFFFFFFFFFFFFFFFFFFFFFFFF AND PUSH20 0xFFFFFFFFFFFFFFFFFFFFFFFFFFFFFFFFFFFFFFFF AND EQ PUSH3 0x379 JUMPI PUSH1 0x1 PUSH1 0x0 SWAP1 SLOAD SWAP1 PUSH2 0x100 EXP SWAP1 DIV PUSH20 0xFFFFFFFFFFFFFFFFFFFFFFFFFFFFFFFFFFFFFFFF AND PUSH20 0xFFFFFFFFFFFFFFFFFFFFFFFFFFFFFFFFFFFFFFFF AND PUSH4 0x38CC4831 PUSH1 0x40 MLOAD DUP2 PUSH4 0xFFFFFFFF AND PUSH1 0xE0 SHL DUP2 MSTORE PUSH1 0x4 ADD PUSH1 0x20 PUSH1 0x40 MLOAD DUP1 DUP4 SUB DUP2 PUSH1 0x0 DUP8 DUP1 EXTCODESIZE ISZERO DUP1 ISZERO PUSH3 0x2FC JUMPI PUSH1 0x0 DUP1 REVERT JUMPDEST POP GAS CALL ISZERO DUP1 ISZERO PUSH3 0x311 JUMPI RETURNDATASIZE PUSH1 0x0 DUP1 RETURNDATACOPY RETURNDATASIZE PUSH1 0x0 REVERT JUMPDEST POP POP POP POP PUSH1 0x40 MLOAD RETURNDATASIZE PUSH1 0x20 DUP2 LT ISZERO PUSH3 0x328 JUMPI PUSH1 0x0 DUP1 REVERT JUMPDEST DUP2 ADD SWAP1 DUP1 DUP1 MLOAD SWAP1 PUSH1 0x20 ADD SWAP1 SWAP3 SWAP2 SWAP1 POP POP POP PUSH1 0x0 DUP1 PUSH2 0x100 EXP DUP2 SLOAD DUP2 PUSH20 0xFFFFFFFFFFFFFFFFFFFFFFFFFFFFFFFFFFFFFFFF MUL NOT AND SWAP1 DUP4 PUSH20 0xFFFFFFFFFFFFFFFFFFFFFFFFFFFFFFFFFFFFFFFF AND MUL OR SWAP1 SSTORE POP JUMPDEST PUSH1 0x0 DUP1 SWAP1 SLOAD SWAP1 PUSH2 0x100 EXP SWAP1 DIV PUSH20 0xFFFFFFFFFFFFFFFFFFFFFFFFFFFFFFFFFFFFFFFF AND PUSH20 0xFFFFFFFFFFFFFFFFFFFFFFFFFFFFFFFFFFFFFFFF AND PUSH4 0x688DCFD7 DUP3 PUSH1 0x40 MLOAD DUP3 PUSH4 0xFFFFFFFF AND PUSH1 0xE0 SHL DUP2 MSTORE PUSH1 0x4 ADD DUP1 DUP3 PUSH31 0xFFFFFFFFFFFFFFFFFFFFFFFFFFFFFFFFFFFFFFFFFFFFFFFFFFFFFFFFFFFFFF NOT AND PUSH31 0xFFFFFFFFFFFFFFFFFFFFFFFFFFFFFFFFFFFFFFFFFFFFFFFFFFFFFFFFFFFFFF NOT AND DUP2 MSTORE PUSH1 0x20 ADD SWAP2 POP POP PUSH1 0x0 PUSH1 0x40 MLOAD DUP1 DUP4 SUB DUP2 PUSH1 0x0 DUP8 DUP1 EXTCODESIZE ISZERO DUP1 ISZERO PUSH3 0x432 JUMPI PUSH1 0x0 DUP1 REVERT JUMPDEST POP GAS CALL ISZERO DUP1 ISZERO PUSH3 0x447 JUMPI RETURNDATASIZE PUSH1 0x0 DUP1 RETURNDATACOPY RETURNDATASIZE PUSH1 0x0 REVERT JUMPDEST POP POP POP POP POP JUMP JUMPDEST PUSH1 0x0 DUP2 EXTCODESIZE SWAP1 POP SWAP2 SWAP1 POP JUMP JUMPDEST PUSH1 0x0 PUSH3 0x46B PUSH3 0x472 PUSH1 0x20 SHL PUSH1 0x20 SHR JUMP JUMPDEST SWAP1 POP SWAP2 SWAP1 POP JUMP JUMPDEST PUSH1 0x0 DUP1 PUSH3 0x49A PUSH20 0x1D3B2638A7CC9F2CB3D298A3DA7A90B67E5506ED PUSH3 0x44E PUSH1 0x20 SHL PUSH1 0x20 SHR JUMP JUMPDEST GT ISZERO PUSH3 0x546 JUMPI PUSH20 0x1D3B2638A7CC9F2CB3D298A3DA7A90B67E5506ED PUSH1 0x1 PUSH1 0x0 PUSH2 0x100 EXP DUP2 SLOAD DUP2 PUSH20 0xFFFFFFFFFFFFFFFFFFFFFFFFFFFFFFFFFFFFFFFF MUL NOT AND SWAP1 DUP4 PUSH20 0xFFFFFFFFFFFFFFFFFFFFFFFFFFFFFFFFFFFFFFFF AND MUL OR SWAP1 SSTORE POP PUSH3 0x53C PUSH1 0x40 MLOAD DUP1 PUSH1 0x40 ADD PUSH1 0x40 MSTORE DUP1 PUSH1 0xB DUP2 MSTORE PUSH1 0x20 ADD PUSH32 0x6574685F6D61696E6E6574000000000000000000000000000000000000000000 DUP2 MSTORE POP PUSH3 0xA41 PUSH1 0x20 SHL PUSH1 0x20 SHR JUMP JUMPDEST PUSH1 0x1 SWAP1 POP PUSH3 0xA3E JUMP JUMPDEST PUSH1 0x0 PUSH3 0x56D PUSH20 0xC03A2615D5EFAF5F49F60B7BB6583EAEC212FDF1 PUSH3 0x44E PUSH1 0x20 SHL PUSH1 0x20 SHR JUMP JUMPDEST GT ISZERO PUSH3 0x619 JUMPI PUSH20 0xC03A2615D5EFAF5F49F60B7BB6583EAEC212FDF1 PUSH1 0x1 PUSH1 0x0 PUSH2 0x100 EXP DUP2 SLOAD DUP2 PUSH20 0xFFFFFFFFFFFFFFFFFFFFFFFFFFFFFFFFFFFFFFFF MUL NOT AND SWAP1 DUP4 PUSH20 0xFFFFFFFFFFFFFFFFFFFFFFFFFFFFFFFFFFFFFFFF AND MUL OR SWAP1 SSTORE POP PUSH3 0x60F PUSH1 0x40 MLOAD DUP1 PUSH1 0x40 ADD PUSH1 0x40 MSTORE DUP1 PUSH1 0xC DUP2 MSTORE PUSH1 0x20 ADD PUSH32 0x6574685F726F707374656E330000000000000000000000000000000000000000 DUP2 MSTORE POP PUSH3 0xA41 PUSH1 0x20 SHL PUSH1 0x20 SHR JUMP JUMPDEST PUSH1 0x1 SWAP1 POP PUSH3 0xA3E JUMP JUMPDEST PUSH1 0x0 PUSH3 0x640 PUSH20 0xB7A07BCF2BA2F2703B24C0691B5278999C59AC7E PUSH3 0x44E PUSH1 0x20 SHL PUSH1 0x20 SHR JUMP JUMPDEST GT ISZERO PUSH3 0x6EC JUMPI PUSH20 0xB7A07BCF2BA2F2703B24C0691B5278999C59AC7E PUSH1 0x1 PUSH1 0x0 PUSH2 0x100 EXP DUP2 SLOAD DUP2 PUSH20 0xFFFFFFFFFFFFFFFFFFFFFFFFFFFFFFFFFFFFFFFF MUL NOT AND SWAP1 DUP4 PUSH20 0xFFFFFFFFFFFFFFFFFFFFFFFFFFFFFFFFFFFFFFFF AND MUL OR SWAP1 SSTORE POP PUSH3 0x6E2 PUSH1 0x40 MLOAD DUP1 PUSH1 0x40 ADD PUSH1 0x40 MSTORE DUP1 PUSH1 0x9 DUP2 MSTORE PUSH1 0x20 ADD PUSH32 0x6574685F6B6F76616E0000000000000000000000000000000000000000000000 DUP2 MSTORE POP PUSH3 0xA41 PUSH1 0x20 SHL PUSH1 0x20 SHR JUMP JUMPDEST PUSH1 0x1 SWAP1 POP PUSH3 0xA3E JUMP JUMPDEST PUSH1 0x0 PUSH3 0x713 PUSH20 0x146500CFD35B22E4A392FE0ADC06DE1A1368ED48 PUSH3 0x44E PUSH1 0x20 SHL PUSH1 0x20 SHR JUMP JUMPDEST GT ISZERO PUSH3 0x7BF JUMPI PUSH20 0x146500CFD35B22E4A392FE0ADC06DE1A1368ED48 PUSH1 0x1 PUSH1 0x0 PUSH2 0x100 EXP DUP2 SLOAD DUP2 PUSH20 0xFFFFFFFFFFFFFFFFFFFFFFFFFFFFFFFFFFFFFFFF MUL NOT AND SWAP1 DUP4 PUSH20 0xFFFFFFFFFFFFFFFFFFFFFFFFFFFFFFFFFFFFFFFF AND MUL OR SWAP1 SSTORE POP PUSH3 0x7B5 PUSH1 0x40 MLOAD DUP1 PUSH1 0x40 ADD PUSH1 0x40 MSTORE DUP1 PUSH1 0xB DUP2 MSTORE PUSH1 0x20 ADD PUSH32 0x6574685F72696E6B656279000000000000000000000000000000000000000000 DUP2 MSTORE POP PUSH3 0xA41 PUSH1 0x20 SHL PUSH1 0x20 SHR JUMP JUMPDEST PUSH1 0x1 SWAP1 POP PUSH3 0xA3E JUMP JUMPDEST PUSH1 0x0 PUSH3 0x7E6 PUSH20 0xA2998EFD205FB9D4B4963AFB70778D6354AD3A41 PUSH3 0x44E PUSH1 0x20 SHL PUSH1 0x20 SHR JUMP JUMPDEST GT ISZERO PUSH3 0x892 JUMPI PUSH20 0xA2998EFD205FB9D4B4963AFB70778D6354AD3A41 PUSH1 0x1 PUSH1 0x0 PUSH2 0x100 EXP DUP2 SLOAD DUP2 PUSH20 0xFFFFFFFFFFFFFFFFFFFFFFFFFFFFFFFFFFFFFFFF MUL NOT AND SWAP1 DUP4 PUSH20 0xFFFFFFFFFFFFFFFFFFFFFFFFFFFFFFFFFFFFFFFF AND MUL OR SWAP1 SSTORE POP PUSH3 0x888 PUSH1 0x40 MLOAD DUP1 PUSH1 0x40 ADD PUSH1 0x40 MSTORE DUP1 PUSH1 0xA DUP2 MSTORE PUSH1 0x20 ADD PUSH32 0x6574685F676F65726C6900000000000000000000000000000000000000000000 DUP2 MSTORE POP PUSH3 0xA41 PUSH1 0x20 SHL PUSH1 0x20 SHR JUMP JUMPDEST PUSH1 0x1 SWAP1 POP PUSH3 0xA3E JUMP JUMPDEST PUSH1 0x0 PUSH3 0x8B9 PUSH20 0x6F485C8BF6FC43EA212E93BBF8CE046C7F1CB475 PUSH3 0x44E PUSH1 0x20 SHL PUSH1 0x20 SHR JUMP JUMPDEST GT ISZERO PUSH3 0x91F JUMPI PUSH20 0x6F485C8BF6FC43EA212E93BBF8CE046C7F1CB475 PUSH1 0x1 PUSH1 0x0 PUSH2 0x100 EXP DUP2 SLOAD DUP2 PUSH20 0xFFFFFFFFFFFFFFFFFFFFFFFFFFFFFFFFFFFFFFFF MUL NOT AND SWAP1 DUP4 PUSH20 0xFFFFFFFFFFFFFFFFFFFFFFFFFFFFFFFFFFFFFFFF AND MUL OR SWAP1 SSTORE POP PUSH1 0x1 SWAP1 POP PUSH3 0xA3E JUMP JUMPDEST PUSH1 0x0 PUSH3 0x946 PUSH20 0x20E12A1F859B3FEAE5FB2A0A32C18F5A65555BBF PUSH3 0x44E PUSH1 0x20 SHL PUSH1 0x20 SHR JUMP JUMPDEST GT ISZERO PUSH3 0x9AC JUMPI PUSH20 0x20E12A1F859B3FEAE5FB2A0A32C18F5A65555BBF PUSH1 0x1 PUSH1 0x0 PUSH2 0x100 EXP DUP2 SLOAD DUP2 PUSH20 0xFFFFFFFFFFFFFFFFFFFFFFFFFFFFFFFFFFFFFFFF MUL NOT AND SWAP1 DUP4 PUSH20 0xFFFFFFFFFFFFFFFFFFFFFFFFFFFFFFFFFFFFFFFF AND MUL OR SWAP1 SSTORE POP PUSH1 0x1 SWAP1 POP PUSH3 0xA3E JUMP JUMPDEST PUSH1 0x0 PUSH3 0x9D3 PUSH20 0x51EFAF4C8B3C9AFBD5AB9F4BBC82784AB6EF8FAA PUSH3 0x44E PUSH1 0x20 SHL PUSH1 0x20 SHR JUMP JUMPDEST GT ISZERO PUSH3 0xA39 JUMPI PUSH20 0x51EFAF4C8B3C9AFBD5AB9F4BBC82784AB6EF8FAA PUSH1 0x1 PUSH1 0x0 PUSH2 0x100 EXP DUP2 SLOAD DUP2 PUSH20 0xFFFFFFFFFFFFFFFFFFFFFFFFFFFFFFFFFFFFFFFF MUL NOT AND SWAP1 DUP4 PUSH20 0xFFFFFFFFFFFFFFFFFFFFFFFFFFFFFFFFFFFFFFFF AND MUL OR SWAP1 SSTORE POP PUSH1 0x1 SWAP1 POP PUSH3 0xA3E JUMP JUMPDEST PUSH1 0x0 SWAP1 POP JUMPDEST SWAP1 JUMP JUMPDEST DUP1 PUSH1 0x2 SWAP1 DUP1 MLOAD SWAP1 PUSH1 0x20 ADD SWAP1 PUSH3 0xA59 SWAP3 SWAP2 SWAP1 PUSH3 0xA5D JUMP JUMPDEST POP POP JUMP JUMPDEST DUP3 DUP1 SLOAD PUSH1 0x1 DUP2 PUSH1 0x1 AND ISZERO PUSH2 0x100 MUL SUB AND PUSH1 0x2 SWAP1 DIV SWAP1 PUSH1 0x0 MSTORE PUSH1 0x20 PUSH1 0x0 KECCAK256 SWAP1 PUSH1 0x1F ADD PUSH1 0x20 SWAP1 DIV DUP2 ADD SWAP3 DUP3 PUSH1 0x1F LT PUSH3 0xAA0 JUMPI DUP1 MLOAD PUSH1 0xFF NOT AND DUP4 DUP1 ADD OR DUP6 SSTORE PUSH3 0xAD1 JUMP JUMPDEST DUP3 DUP1 ADD PUSH1 0x1 ADD DUP6 SSTORE DUP3 ISZERO PUSH3 0xAD1 JUMPI SWAP2 DUP3 ADD JUMPDEST DUP3 DUP2 GT ISZERO PUSH3 0xAD0 JUMPI DUP3 MLOAD DUP3 SSTORE SWAP2 PUSH1 0x20 ADD SWAP2 SWAP1 PUSH1 0x1 ADD SWAP1 PUSH3 0xAB3 JUMP JUMPDEST JUMPDEST POP SWAP1 POP PUSH3 0xAE0 SWAP2 SWAP1 PUSH3 0xAE4 JUMP JUMPDEST POP SWAP1 JUMP JUMPDEST PUSH3 0xB09 SWAP2 SWAP1 JUMPDEST DUP1 DUP3 GT ISZERO PUSH3 0xB05 JUMPI PUSH1 0x0 DUP2 PUSH1 0x0 SWAP1 SSTORE POP PUSH1 0x1 ADD PUSH3 0xAEB JUMP JUMPDEST POP SWAP1 JUMP JUMPDEST SWAP1 JUMP JUMPDEST PUSH2 0x3DED DUP1 PUSH3 0xB1C PUSH1 0x0 CODECOPY PUSH1 0x0 RETURN INVALID PUSH1 0x80 PUSH1 0x40 MSTORE PUSH1 0x4 CALLDATASIZE LT PUSH2 0x91 JUMPI PUSH1 0x0 CALLDATALOAD PUSH1 0xE0 SHR DUP1 PUSH4 0x902701B7 GT PUSH2 0x59 JUMPI DUP1 PUSH4 0x902701B7 EQ PUSH2 0x449 JUMPI DUP1 PUSH4 0xCCB40D8F EQ PUSH2 0x4D2 JUMPI DUP1 PUSH4 0xCF592DEA EQ PUSH2 0x537 JUMPI DUP1 PUSH4 0xEC634E27 EQ PUSH2 0x58E JUMPI DUP1 PUSH4 0xF0F22EB4 EQ PUSH2 0x5C9 JUMPI PUSH2 0x91 JUMP JUMPDEST DUP1 PUSH4 0x27DC297E EQ PUSH2 0x96 JUMPI DUP1 PUSH4 0x38BBFA50 EQ PUSH2 0x168 JUMPI DUP1 PUSH4 0x3D2E83F0 EQ PUSH2 0x2D1 JUMPI DUP1 PUSH4 0x811F287E EQ PUSH2 0x34C JUMPI DUP1 PUSH4 0x8DA5CB5B EQ PUSH2 0x3F2 JUMPI JUMPDEST PUSH1 0x0 DUP1 REVERT JUMPDEST CALLVALUE DUP1 ISZERO PUSH2 0xA2 JUMPI PUSH1 0x0 DUP1 REVERT JUMPDEST POP PUSH2 0x166 PUSH1 0x4 DUP1 CALLDATASIZE SUB PUSH1 0x40 DUP2 LT ISZERO PUSH2 0xB9 JUMPI PUSH1 0x0 DUP1 REVERT JUMPDEST DUP2 ADD SWAP1 DUP1 DUP1 CALLDATALOAD SWAP1 PUSH1 0x20 ADD SWAP1 SWAP3 SWAP2 SWAP1 DUP1 CALLDATALOAD SWAP1 PUSH1 0x20 ADD SWAP1 PUSH5 0x100000000 DUP2 GT ISZERO PUSH2 0xE0 JUMPI PUSH1 0x0 DUP1 REVERT JUMPDEST DUP3 ADD DUP4 PUSH1 0x20 DUP3 ADD GT ISZERO PUSH2 0xF2 JUMPI PUSH1 0x0 DUP1 REVERT JUMPDEST DUP1 CALLDATALOAD SWAP1 PUSH1 0x20 ADD SWAP2 DUP5 PUSH1 0x1 DUP4 MUL DUP5 ADD GT PUSH5 0x100000000 DUP4 GT OR ISZERO PUSH2 0x114 JUMPI PUSH1 0x0 DUP1 REVERT JUMPDEST SWAP2 SWAP1 DUP1 DUP1 PUSH1 0x1F ADD PUSH1 0x20 DUP1 SWAP2 DIV MUL PUSH1 0x20 ADD PUSH1 0x40 MLOAD SWAP1 DUP2 ADD PUSH1 0x40 MSTORE DUP1 SWAP4 SWAP3 SWAP2 SWAP1 DUP2 DUP2 MSTORE PUSH1 0x20 ADD DUP4 DUP4 DUP1 DUP3 DUP5 CALLDATACOPY PUSH1 0x0 DUP2 DUP5 ADD MSTORE PUSH1 0x1F NOT PUSH1 0x1F DUP3 ADD AND SWAP1 POP DUP1 DUP4 ADD SWAP3 POP POP POP POP POP POP POP SWAP2 SWAP3 SWAP2 SWAP3 SWAP1 POP POP POP PUSH2 0x5D3 JUMP JUMPDEST STOP JUMPDEST CALLVALUE DUP1 ISZERO PUSH2 0x174 JUMPI PUSH1 0x0 DUP1 REVERT JUMPDEST POP PUSH2 0x2CF PUSH1 0x4 DUP1 CALLDATASIZE SUB PUSH1 0x60 DUP2 LT ISZERO PUSH2 0x18B JUMPI PUSH1 0x0 DUP1 REVERT JUMPDEST DUP2 ADD SWAP1 DUP1 DUP1 CALLDATALOAD SWAP1 PUSH1 0x20 ADD SWAP1 SWAP3 SWAP2 SWAP1 DUP1 CALLDATALOAD SWAP1 PUSH1 0x20 ADD SWAP1 PUSH5 0x100000000 DUP2 GT ISZERO PUSH2 0x1B2 JUMPI PUSH1 0x0 DUP1 REVERT JUMPDEST DUP3 ADD DUP4 PUSH1 0x20 DUP3 ADD GT ISZERO PUSH2 0x1C4 JUMPI PUSH1 0x0 DUP1 REVERT JUMPDEST DUP1 CALLDATALOAD SWAP1 PUSH1 0x20 ADD SWAP2 DUP5 PUSH1 0x1 DUP4 MUL DUP5 ADD GT PUSH5 0x100000000 DUP4 GT OR ISZERO PUSH2 0x1E6 JUMPI PUSH1 0x0 DUP1 REVERT JUMPDEST SWAP2 SWAP1 DUP1 DUP1 PUSH1 0x1F ADD PUSH1 0x20 DUP1 SWAP2 DIV MUL PUSH1 0x20 ADD PUSH1 0x40 MLOAD SWAP1 DUP2 ADD PUSH1 0x40 MSTORE DUP1 SWAP4 SWAP3 SWAP2 SWAP1 DUP2 DUP2 MSTORE PUSH1 0x20 ADD DUP4 DUP4 DUP1 DUP3 DUP5 CALLDATACOPY PUSH1 0x0 DUP2 DUP5 ADD MSTORE PUSH1 0x1F NOT PUSH1 0x1F DUP3 ADD AND SWAP1 POP DUP1 DUP4 ADD SWAP3 POP POP POP POP POP POP POP SWAP2 SWAP3 SWAP2 SWAP3 SWAP1 DUP1 CALLDATALOAD SWAP1 PUSH1 0x20 ADD SWAP1 PUSH5 0x100000000 DUP2 GT ISZERO PUSH2 0x249 JUMPI PUSH1 0x0 DUP1 REVERT JUMPDEST DUP3 ADD DUP4 PUSH1 0x20 DUP3 ADD GT ISZERO PUSH2 0x25B JUMPI PUSH1 0x0 DUP1 REVERT JUMPDEST DUP1 CALLDATALOAD SWAP1 PUSH1 0x20 ADD SWAP2 DUP5 PUSH1 0x1 DUP4 MUL DUP5 ADD GT PUSH5 0x100000000 DUP4 GT OR ISZERO PUSH2 0x27D JUMPI PUSH1 0x0 DUP1 REVERT JUMPDEST SWAP2 SWAP1 DUP1 DUP1 PUSH1 0x1F ADD PUSH1 0x20 DUP1 SWAP2 DIV MUL PUSH1 0x20 ADD PUSH1 0x40 MLOAD SWAP1 DUP2 ADD PUSH1 0x40 MSTORE DUP1 SWAP4 SWAP3 SWAP2 SWAP1 DUP2 DUP2 MSTORE PUSH1 0x20 ADD DUP4 DUP4 DUP1 DUP3 DUP5 CALLDATACOPY PUSH1 0x0 DUP2 DUP5 ADD MSTORE PUSH1 0x1F NOT PUSH1 0x1F DUP3 ADD AND SWAP1 POP DUP1 DUP4 ADD SWAP3 POP POP POP POP POP POP POP SWAP2 SWAP3 SWAP2 SWAP3 SWAP1 POP POP POP PUSH2 0x616 JUMP JUMPDEST STOP JUMPDEST CALLVALUE DUP1 ISZERO PUSH2 0x2DD JUMPI PUSH1 0x0 DUP1 REVERT JUMPDEST POP PUSH2 0x30A PUSH1 0x4 DUP1 CALLDATASIZE SUB PUSH1 0x20 DUP2 LT ISZERO PUSH2 0x2F4 JUMPI PUSH1 0x0 DUP1 REVERT JUMPDEST DUP2 ADD SWAP1 DUP1 DUP1 CALLDATALOAD SWAP1 PUSH1 0x20 ADD SWAP1 SWAP3 SWAP2 SWAP1 POP POP POP PUSH2 0x79B JUMP JUMPDEST PUSH1 0x40 MLOAD DUP1 DUP3 PUSH20 0xFFFFFFFFFFFFFFFFFFFFFFFFFFFFFFFFFFFFFFFF AND PUSH20 0xFFFFFFFFFFFFFFFFFFFFFFFFFFFFFFFFFFFFFFFF AND DUP2 MSTORE PUSH1 0x20 ADD SWAP2 POP POP PUSH1 0x40 MLOAD DUP1 SWAP2 SUB SWAP1 RETURN JUMPDEST CALLVALUE DUP1 ISZERO PUSH2 0x358 JUMPI PUSH1 0x0 DUP1 REVERT JUMPDEST POP PUSH2 0x39B PUSH1 0x4 DUP1 CALLDATASIZE SUB PUSH1 0x20 DUP2 LT ISZERO PUSH2 0x36F JUMPI PUSH1 0x0 DUP1 REVERT JUMPDEST DUP2 ADD SWAP1 DUP1 DUP1 CALLDATALOAD PUSH20 0xFFFFFFFFFFFFFFFFFFFFFFFFFFFFFFFFFFFFFFFF AND SWAP1 PUSH1 0x20 ADD SWAP1 SWAP3 SWAP2 SWAP1 POP POP POP PUSH2 0x7CE JUMP JUMPDEST PUSH1 0x40 MLOAD DUP1 DUP1 PUSH1 0x20 ADD DUP3 DUP2 SUB DUP3 MSTORE DUP4 DUP2 DUP2 MLOAD DUP2 MSTORE PUSH1 0x20 ADD SWAP2 POP DUP1 MLOAD SWAP1 PUSH1 0x20 ADD SWAP1 PUSH1 0x20 MUL DUP1 DUP4 DUP4 PUSH1 0x0 JUMPDEST DUP4 DUP2 LT ISZERO PUSH2 0x3DE JUMPI DUP1 DUP3 ADD MLOAD DUP2 DUP5 ADD MSTORE PUSH1 0x20 DUP2 ADD SWAP1 POP PUSH2 0x3C3 JUMP JUMPDEST POP POP POP POP SWAP1 POP ADD SWAP3 POP POP POP PUSH1 0x40 MLOAD DUP1 SWAP2 SUB SWAP1 RETURN JUMPDEST CALLVALUE DUP1 ISZERO PUSH2 0x3FE JUMPI PUSH1 0x0 DUP1 REVERT JUMPDEST POP PUSH2 0x407 PUSH2 0xB78 JUMP JUMPDEST PUSH1 0x40 MLOAD DUP1 DUP3 PUSH20 0xFFFFFFFFFFFFFFFFFFFFFFFFFFFFFFFFFFFFFFFF AND PUSH20 0xFFFFFFFFFFFFFFFFFFFFFFFFFFFFFFFFFFFFFFFF AND DUP2 MSTORE PUSH1 0x20 ADD SWAP2 POP POP PUSH1 0x40 MLOAD DUP1 SWAP2 SUB SWAP1 RETURN JUMPDEST CALLVALUE DUP1 ISZERO PUSH2 0x455 JUMPI PUSH1 0x0 DUP1 REVERT JUMPDEST POP PUSH2 0x4B8 PUSH1 0x4 DUP1 CALLDATASIZE SUB PUSH1 0x40 DUP2 LT ISZERO PUSH2 0x46C JUMPI PUSH1 0x0 DUP1 REVERT JUMPDEST DUP2 ADD SWAP1 DUP1 DUP1 CALLDATALOAD PUSH20 0xFFFFFFFFFFFFFFFFFFFFFFFFFFFFFFFFFFFFFFFF AND SWAP1 PUSH1 0x20 ADD SWAP1 SWAP3 SWAP2 SWAP1 DUP1 CALLDATALOAD PUSH20 0xFFFFFFFFFFFFFFFFFFFFFFFFFFFFFFFFFFFFFFFF AND SWAP1 PUSH1 0x20 ADD SWAP1 SWAP3 SWAP2 SWAP1 POP POP POP PUSH2 0xB9E JUMP JUMPDEST PUSH1 0x40 MLOAD DUP1 DUP3 ISZERO ISZERO ISZERO ISZERO DUP2 MSTORE PUSH1 0x20 ADD SWAP2 POP POP PUSH1 0x40 MLOAD DUP1 SWAP2 SUB SWAP1 RETURN JUMPDEST CALLVALUE DUP1 ISZERO PUSH2 0x4DE JUMPI PUSH1 0x0 DUP1 REVERT JUMPDEST POP PUSH2 0x521 PUSH1 0x4 DUP1 CALLDATASIZE SUB PUSH1 0x20 DUP2 LT ISZERO PUSH2 0x4F5 JUMPI PUSH1 0x0 DUP1 REVERT JUMPDEST DUP2 ADD SWAP1 DUP1 DUP1 CALLDATALOAD PUSH20 0xFFFFFFFFFFFFFFFFFFFFFFFFFFFFFFFFFFFFFFFF AND SWAP1 PUSH1 0x20 ADD SWAP1 SWAP3 SWAP2 SWAP1 POP POP POP PUSH2 0xC2F JUMP JUMPDEST PUSH1 0x40 MLOAD DUP1 DUP3 DUP2 MSTORE PUSH1 0x20 ADD SWAP2 POP POP PUSH1 0x40 MLOAD DUP1 SWAP2 SUB SWAP1 RETURN JUMPDEST CALLVALUE DUP1 ISZERO PUSH2 0x543 JUMPI PUSH1 0x0 DUP1 REVERT JUMPDEST POP PUSH2 0x54C PUSH2 0xC47 JUMP JUMPDEST PUSH1 0x40 MLOAD DUP1 DUP3 PUSH20 0xFFFFFFFFFFFFFFFFFFFFFFFFFFFFFFFFFFFFFFFF AND PUSH20 0xFFFFFFFFFFFFFFFFFFFFFFFFFFFFFFFFFFFFFFFF AND DUP2 MSTORE PUSH1 0x20 ADD SWAP2 POP POP PUSH1 0x40 MLOAD DUP1 SWAP2 SUB SWAP1 RETURN JUMPDEST CALLVALUE DUP1 ISZERO PUSH2 0x59A JUMPI PUSH1 0x0 DUP1 REVERT JUMPDEST POP PUSH2 0x5C7 PUSH1 0x4 DUP1 CALLDATASIZE SUB PUSH1 0x20 DUP2 LT ISZERO PUSH2 0x5B1 JUMPI PUSH1 0x0 DUP1 REVERT JUMPDEST DUP2 ADD SWAP1 DUP1 DUP1 CALLDATALOAD SWAP1 PUSH1 0x20 ADD SWAP1 SWAP3 SWAP2 SWAP1 POP POP POP PUSH2 0xC6D JUMP JUMPDEST STOP JUMPDEST PUSH2 0x5D1 PUSH2 0xD1D JUMP JUMPDEST STOP JUMPDEST PUSH2 0x612 DUP3 DUP3 PUSH1 0x0 PUSH1 0x40 MLOAD SWAP1 DUP1 DUP3 MSTORE DUP1 PUSH1 0x1F ADD PUSH1 0x1F NOT AND PUSH1 0x20 ADD DUP3 ADD PUSH1 0x40 MSTORE DUP1 ISZERO PUSH2 0x60C JUMPI DUP2 PUSH1 0x20 ADD PUSH1 0x1 DUP3 MUL DUP1 CODESIZE DUP4 CODECOPY DUP1 DUP3 ADD SWAP2 POP POP SWAP1 POP JUMPDEST POP PUSH2 0x616 JUMP JUMPDEST POP POP JUMP JUMPDEST PUSH2 0x61E PUSH2 0xDDC JUMP JUMPDEST PUSH20 0xFFFFFFFFFFFFFFFFFFFFFFFFFFFFFFFFFFFFFFFF AND CALLER PUSH20 0xFFFFFFFFFFFFFFFFFFFFFFFFFFFFFFFFFFFFFFFF AND EQ PUSH2 0x655 JUMPI PUSH1 0x0 DUP1 REVERT JUMPDEST PUSH1 0x0 PUSH2 0x662 DUP5 DUP5 DUP5 PUSH2 0x10F9 JUMP JUMPDEST PUSH1 0xFF AND EQ PUSH2 0x66F JUMPI PUSH1 0x0 DUP1 REVERT JUMPDEST PUSH1 0x0 DUP3 PUSH1 0x40 MLOAD PUSH1 0x20 ADD DUP1 DUP3 DUP1 MLOAD SWAP1 PUSH1 0x20 ADD SWAP1 DUP1 DUP4 DUP4 JUMPDEST PUSH1 0x20 DUP4 LT PUSH2 0x6A8 JUMPI DUP1 MLOAD DUP3 MSTORE PUSH1 0x20 DUP3 ADD SWAP2 POP PUSH1 0x20 DUP2 ADD SWAP1 POP PUSH1 0x20 DUP4 SUB SWAP3 POP PUSH2 0x685 JUMP JUMPDEST PUSH1 0x1 DUP4 PUSH1 0x20 SUB PUSH2 0x100 EXP SUB DUP1 NOT DUP3 MLOAD AND DUP2 DUP5 MLOAD AND DUP1 DUP3 OR DUP6 MSTORE POP POP POP POP POP POP SWAP1 POP ADD SWAP2 POP POP PUSH1 0x40 MLOAD PUSH1 0x20 DUP2 DUP4 SUB SUB DUP2 MSTORE SWAP1 PUSH1 0x40 MSTORE DUP1 MLOAD SWAP1 PUSH1 0x20 ADD KECCAK256 PUSH1 0x0 SHR SWAP1 POP DUP1 PUSH1 0x9 PUSH1 0x0 PUSH1 0x8 PUSH1 0x0 DUP9 DUP2 MSTORE PUSH1 0x20 ADD SWAP1 DUP2 MSTORE PUSH1 0x20 ADD PUSH1 0x0 KECCAK256 PUSH1 0x0 SWAP1 SLOAD SWAP1 PUSH2 0x100 EXP SWAP1 DIV PUSH20 0xFFFFFFFFFFFFFFFFFFFFFFFFFFFFFFFFFFFFFFFF AND PUSH20 0xFFFFFFFFFFFFFFFFFFFFFFFFFFFFFFFFFFFFFFFF AND PUSH20 0xFFFFFFFFFFFFFFFFFFFFFFFFFFFFFFFFFFFFFFFF AND DUP2 MSTORE PUSH1 0x20 ADD SWAP1 DUP2 MSTORE PUSH1 0x20 ADD PUSH1 0x0 KECCAK256 DUP2 SWAP1 SSTORE POP PUSH1 0x8 PUSH1 0x0 DUP6 DUP2 MSTORE PUSH1 0x20 ADD SWAP1 DUP2 MSTORE PUSH1 0x20 ADD PUSH1 0x0 KECCAK256 PUSH1 0x0 PUSH2 0x100 EXP DUP2 SLOAD SWAP1 PUSH20 0xFFFFFFFFFFFFFFFFFFFFFFFFFFFFFFFFFFFFFFFF MUL NOT AND SWAP1 SSTORE POP POP POP POP JUMP JUMPDEST PUSH1 0x8 PUSH1 0x20 MSTORE DUP1 PUSH1 0x0 MSTORE PUSH1 0x40 PUSH1 0x0 KECCAK256 PUSH1 0x0 SWAP2 POP SLOAD SWAP1 PUSH2 0x100 EXP SWAP1 DIV PUSH20 0xFFFFFFFFFFFFFFFFFFFFFFFFFFFFFFFFFFFFFFFF AND DUP2 JUMP JUMPDEST PUSH1 0x60 PUSH1 0x0 PUSH1 0x7 PUSH1 0x0 SWAP1 SLOAD SWAP1 PUSH2 0x100 EXP SWAP1 DIV PUSH20 0xFFFFFFFFFFFFFFFFFFFFFFFFFFFFFFFFFFFFFFFF AND SWAP1 POP PUSH1 0x0 DUP2 PUSH20 0xFFFFFFFFFFFFFFFFFFFFFFFFFFFFFFFFFFFFFFFF AND PUSH4 0xDFB09700 PUSH1 0x40 MLOAD DUP2 PUSH4 0xFFFFFFFF AND PUSH1 0xE0 SHL DUP2 MSTORE PUSH1 0x4 ADD PUSH1 0x20 PUSH1 0x40 MLOAD DUP1 DUP4 SUB DUP2 DUP7 DUP1 EXTCODESIZE ISZERO DUP1 ISZERO PUSH2 0x83F JUMPI PUSH1 0x0 DUP1 REVERT JUMPDEST POP GAS STATICCALL ISZERO DUP1 ISZERO PUSH2 0x853 JUMPI RETURNDATASIZE PUSH1 0x0 DUP1 RETURNDATACOPY RETURNDATASIZE PUSH1 0x0 REVERT JUMPDEST POP POP POP POP PUSH1 0x40 MLOAD RETURNDATASIZE PUSH1 0x20 DUP2 LT ISZERO PUSH2 0x869 JUMPI PUSH1 0x0 DUP1 REVERT JUMPDEST DUP2 ADD SWAP1 DUP1 DUP1 MLOAD SWAP1 PUSH1 0x20 ADD SWAP1 SWAP3 SWAP2 SWAP1 POP POP POP SWAP1 POP PUSH1 0x0 DUP2 GT PUSH2 0x8D5 JUMPI PUSH1 0x40 MLOAD PUSH32 0x8C379A000000000000000000000000000000000000000000000000000000000 DUP2 MSTORE PUSH1 0x4 ADD DUP1 DUP1 PUSH1 0x20 ADD DUP3 DUP2 SUB DUP3 MSTORE PUSH1 0x4A DUP2 MSTORE PUSH1 0x20 ADD DUP1 PUSH2 0x3CBF PUSH1 0x4A SWAP2 CODECOPY PUSH1 0x60 ADD SWAP2 POP POP PUSH1 0x40 MLOAD DUP1 SWAP2 SUB SWAP1 REVERT JUMPDEST PUSH1 0x0 PUSH1 0x9 PUSH1 0x0 DUP7 PUSH20 0xFFFFFFFFFFFFFFFFFFFFFFFFFFFFFFFFFFFFFFFF AND PUSH20 0xFFFFFFFFFFFFFFFFFFFFFFFFFFFFFFFFFFFFFFFF AND DUP2 MSTORE PUSH1 0x20 ADD SWAP1 DUP2 MSTORE PUSH1 0x20 ADD PUSH1 0x0 KECCAK256 SLOAD SWAP1 POP PUSH1 0x0 DUP2 EQ ISZERO PUSH2 0x95D JUMPI PUSH1 0x0 PUSH1 0x40 MLOAD SWAP1 DUP1 DUP3 MSTORE DUP1 PUSH1 0x20 MUL PUSH1 0x20 ADD DUP3 ADD PUSH1 0x40 MSTORE DUP1 ISZERO PUSH2 0x952 JUMPI DUP2 PUSH1 0x20 ADD PUSH1 0x20 DUP3 MUL DUP1 CODESIZE DUP4 CODECOPY DUP1 DUP3 ADD SWAP2 POP POP SWAP1 POP JUMPDEST POP SWAP4 POP POP POP POP PUSH2 0xB73 JUMP JUMPDEST PUSH1 0x60 PUSH1 0x5 SLOAD PUSH1 0x40 MLOAD SWAP1 DUP1 DUP3 MSTORE DUP1 PUSH1 0x20 MUL PUSH1 0x20 ADD DUP3 ADD PUSH1 0x40 MSTORE DUP1 ISZERO PUSH2 0x990 JUMPI DUP2 PUSH1 0x20 ADD PUSH1 0x20 DUP3 MUL DUP1 CODESIZE DUP4 CODECOPY DUP1 DUP3 ADD SWAP2 POP POP SWAP1 POP JUMPDEST POP SWAP1 POP PUSH1 0x0 DUP1 SWAP1 POP JUMPDEST PUSH1 0x5 SLOAD DUP2 PUSH1 0xFF AND LT ISZERO PUSH2 0xA04 JUMPI DUP3 PUSH1 0x40 MLOAD PUSH1 0x20 ADD DUP1 DUP3 DUP2 MSTORE PUSH1 0x20 ADD SWAP2 POP POP PUSH1 0x40 MLOAD PUSH1 0x20 DUP2 DUP4 SUB SUB DUP2 MSTORE SWAP1 PUSH1 0x40 MSTORE DUP1 MLOAD SWAP1 PUSH1 0x20 ADD KECCAK256 PUSH1 0x0 SHR SWAP3 POP DUP4 DUP4 DUP2 PUSH2 0x9DB JUMPI INVALID JUMPDEST MOD DUP3 DUP3 PUSH1 0xFF AND DUP2 MLOAD DUP2 LT PUSH2 0x9EB JUMPI INVALID JUMPDEST PUSH1 0x20 MUL PUSH1 0x20 ADD ADD DUP2 DUP2 MSTORE POP POP DUP1 DUP1 PUSH1 0x1 ADD SWAP2 POP POP PUSH2 0x999 JUMP JUMPDEST POP DUP4 PUSH20 0xFFFFFFFFFFFFFFFFFFFFFFFFFFFFFFFFFFFFFFFF AND PUSH4 0xDC983F08 DUP3 PUSH1 0x40 MLOAD DUP3 PUSH4 0xFFFFFFFF AND PUSH1 0xE0 SHL DUP2 MSTORE PUSH1 0x4 ADD DUP1 DUP1 PUSH1 0x20 ADD DUP3 DUP2 SUB DUP3 MSTORE DUP4 DUP2 DUP2 MLOAD DUP2 MSTORE PUSH1 0x20 ADD SWAP2 POP DUP1 MLOAD SWAP1 PUSH1 0x20 ADD SWAP1 PUSH1 0x20 MUL DUP1 DUP4 DUP4 PUSH1 0x0 JUMPDEST DUP4 DUP2 LT ISZERO PUSH2 0xA74 JUMPI DUP1 DUP3 ADD MLOAD DUP2 DUP5 ADD MSTORE PUSH1 0x20 DUP2 ADD SWAP1 POP PUSH2 0xA59 JUMP JUMPDEST POP POP POP POP SWAP1 POP ADD SWAP3 POP POP POP PUSH1 0x0 PUSH1 0x40 MLOAD DUP1 DUP4 SUB DUP2 DUP7 DUP1 EXTCODESIZE ISZERO DUP1 ISZERO PUSH2 0xA97 JUMPI PUSH1 0x0 DUP1 REVERT JUMPDEST POP GAS STATICCALL ISZERO DUP1 ISZERO PUSH2 0xAAB JUMPI RETURNDATASIZE PUSH1 0x0 DUP1 RETURNDATACOPY RETURNDATASIZE PUSH1 0x0 REVERT JUMPDEST POP POP POP POP PUSH1 0x40 MLOAD RETURNDATASIZE PUSH1 0x0 DUP3 RETURNDATACOPY RETURNDATASIZE PUSH1 0x1F NOT PUSH1 0x1F DUP3 ADD AND DUP3 ADD DUP1 PUSH1 0x40 MSTORE POP PUSH1 0x20 DUP2 LT ISZERO PUSH2 0xAD5 JUMPI PUSH1 0x0 DUP1 REVERT JUMPDEST DUP2 ADD SWAP1 DUP1 DUP1 MLOAD PUSH1 0x40 MLOAD SWAP4 SWAP3 SWAP2 SWAP1 DUP5 PUSH5 0x100000000 DUP3 GT ISZERO PUSH2 0xAF5 JUMPI PUSH1 0x0 DUP1 REVERT JUMPDEST DUP4 DUP3 ADD SWAP2 POP PUSH1 0x20 DUP3 ADD DUP6 DUP2 GT ISZERO PUSH2 0xB0B JUMPI PUSH1 0x0 DUP1 REVERT JUMPDEST DUP3 MLOAD DUP7 PUSH1 0x20 DUP3 MUL DUP4 ADD GT PUSH5 0x100000000 DUP3 GT OR ISZERO PUSH2 0xB28 JUMPI PUSH1 0x0 DUP1 REVERT JUMPDEST DUP1 DUP4 MSTORE PUSH1 0x20 DUP4 ADD SWAP3 POP POP POP SWAP1 DUP1 MLOAD SWAP1 PUSH1 0x20 ADD SWAP1 PUSH1 0x20 MUL DUP1 DUP4 DUP4 PUSH1 0x0 JUMPDEST DUP4 DUP2 LT ISZERO PUSH2 0xB5F JUMPI DUP1 DUP3 ADD MLOAD DUP2 DUP5 ADD MSTORE PUSH1 0x20 DUP2 ADD SWAP1 POP PUSH2 0xB44 JUMP JUMPDEST POP POP POP POP SWAP1 POP ADD PUSH1 0x40 MSTORE POP POP POP SWAP5 POP POP POP POP POP JUMPDEST SWAP2 SWAP1 POP JUMP JUMPDEST PUSH1 0x6 PUSH1 0x0 SWAP1 SLOAD SWAP1 PUSH2 0x100 EXP SWAP1 DIV PUSH20 0xFFFFFFFFFFFFFFFFFFFFFFFFFFFFFFFFFFFFFFFF AND DUP2 JUMP JUMPDEST PUSH1 0x0 PUSH1 0x60 PUSH2 0xBAB DUP5 PUSH2 0x7CE JUMP JUMPDEST SWAP1 POP PUSH1 0x0 DUP1 SWAP1 POP JUMPDEST PUSH1 0x5 SLOAD DUP2 PUSH1 0xFF AND LT ISZERO PUSH2 0xC22 JUMPI DUP4 PUSH20 0xFFFFFFFFFFFFFFFFFFFFFFFFFFFFFFFFFFFFFFFF AND DUP3 DUP3 PUSH1 0xFF AND DUP2 MLOAD DUP2 LT PUSH2 0xBE6 JUMPI INVALID JUMPDEST PUSH1 0x20 MUL PUSH1 0x20 ADD ADD MLOAD PUSH20 0xFFFFFFFFFFFFFFFFFFFFFFFFFFFFFFFFFFFFFFFF AND EQ ISZERO PUSH2 0xC15 JUMPI PUSH1 0x1 SWAP3 POP POP POP PUSH2 0xC29 JUMP JUMPDEST DUP1 DUP1 PUSH1 0x1 ADD SWAP2 POP POP PUSH2 0xBB3 JUMP JUMPDEST POP PUSH1 0x0 SWAP2 POP POP JUMPDEST SWAP3 SWAP2 POP POP JUMP JUMPDEST PUSH1 0x9 PUSH1 0x20 MSTORE DUP1 PUSH1 0x0 MSTORE PUSH1 0x40 PUSH1 0x0 KECCAK256 PUSH1 0x0 SWAP2 POP SWAP1 POP SLOAD DUP2 JUMP JUMPDEST PUSH1 0x7 PUSH1 0x0 SWAP1 SLOAD SWAP1 PUSH2 0x100 EXP SWAP1 DIV PUSH20 0xFFFFFFFFFFFFFFFFFFFFFFFFFFFFFFFFFFFFFFFF AND DUP2 JUMP JUMPDEST PUSH1 0x6 PUSH1 0x0 SWAP1 SLOAD SWAP1 PUSH2 0x100 EXP SWAP1 DIV PUSH20 0xFFFFFFFFFFFFFFFFFFFFFFFFFFFFFFFFFFFFFFFF AND PUSH20 0xFFFFFFFFFFFFFFFFFFFFFFFFFFFFFFFFFFFFFFFF AND CALLER PUSH20 0xFFFFFFFFFFFFFFFFFFFFFFFFFFFFFFFFFFFFFFFF AND EQ PUSH2 0xD13 JUMPI PUSH1 0x40 MLOAD PUSH32 0x8C379A000000000000000000000000000000000000000000000000000000000 DUP2 MSTORE PUSH1 0x4 ADD DUP1 DUP1 PUSH1 0x20 ADD DUP3 DUP2 SUB DUP3 MSTORE PUSH1 0x3A DUP2 MSTORE PUSH1 0x20 ADD DUP1 PUSH2 0x3D09 PUSH1 0x3A SWAP2 CODECOPY PUSH1 0x40 ADD SWAP2 POP POP PUSH1 0x40 MLOAD DUP1 SWAP2 SUB SWAP1 REVERT JUMPDEST DUP1 PUSH1 0x5 DUP2 SWAP1 SSTORE POP POP JUMP JUMPDEST PUSH1 0x0 DUP1 SWAP1 POP PUSH1 0x0 PUSH3 0x30D40 SWAP1 POP PUSH1 0x0 PUSH2 0xD38 DUP4 PUSH1 0x8 DUP5 PUSH2 0x1229 JUMP JUMPDEST SWAP1 POP CALLER PUSH1 0x8 PUSH1 0x0 DUP4 DUP2 MSTORE PUSH1 0x20 ADD SWAP1 DUP2 MSTORE PUSH1 0x20 ADD PUSH1 0x0 KECCAK256 PUSH1 0x0 PUSH2 0x100 EXP DUP2 SLOAD DUP2 PUSH20 0xFFFFFFFFFFFFFFFFFFFFFFFFFFFFFFFFFFFFFFFF MUL NOT AND SWAP1 DUP4 PUSH20 0xFFFFFFFFFFFFFFFFFFFFFFFFFFFFFFFFFFFFFFFF AND MUL OR SWAP1 SSTORE POP PUSH32 0xC4DC360D0A9C0677A3379AE0A3D81E887F761E65FDF3D7E00859D1BCD3C47389 PUSH1 0x40 MLOAD DUP1 DUP1 PUSH1 0x20 ADD DUP3 DUP2 SUB DUP3 MSTORE PUSH1 0x36 DUP2 MSTORE PUSH1 0x20 ADD DUP1 PUSH2 0x3D83 PUSH1 0x36 SWAP2 CODECOPY PUSH1 0x40 ADD SWAP2 POP POP PUSH1 0x40 MLOAD DUP1 SWAP2 SUB SWAP1 LOG1 POP POP POP JUMP JUMPDEST PUSH1 0x0 DUP1 PUSH20 0xFFFFFFFFFFFFFFFFFFFFFFFFFFFFFFFFFFFFFFFF AND PUSH1 0x1 PUSH1 0x0 SWAP1 SLOAD SWAP1 PUSH2 0x100 EXP SWAP1 DIV PUSH20 0xFFFFFFFFFFFFFFFFFFFFFFFFFFFFFFFFFFFFFFFF AND PUSH20 0xFFFFFFFFFFFFFFFFFFFFFFFFFFFFFFFFFFFFFFFF AND EQ DUP1 PUSH2 0xE64 JUMPI POP PUSH1 0x0 PUSH2 0xE62 PUSH1 0x1 PUSH1 0x0 SWAP1 SLOAD SWAP1 PUSH2 0x100 EXP SWAP1 DIV PUSH20 0xFFFFFFFFFFFFFFFFFFFFFFFFFFFFFFFFFFFFFFFF AND PUSH2 0x17C4 JUMP JUMPDEST EQ JUMPDEST ISZERO PUSH2 0xE75 JUMPI PUSH2 0xE73 PUSH1 0x0 PUSH2 0x17CF JUMP JUMPDEST POP JUMPDEST PUSH1 0x1 PUSH1 0x0 SWAP1 SLOAD SWAP1 PUSH2 0x100 EXP SWAP1 DIV PUSH20 0xFFFFFFFFFFFFFFFFFFFFFFFFFFFFFFFFFFFFFFFF AND PUSH20 0xFFFFFFFFFFFFFFFFFFFFFFFFFFFFFFFFFFFFFFFF AND PUSH4 0x38CC4831 PUSH1 0x40 MLOAD DUP2 PUSH4 0xFFFFFFFF AND PUSH1 0xE0 SHL DUP2 MSTORE PUSH1 0x4 ADD PUSH1 0x20 PUSH1 0x40 MLOAD DUP1 DUP4 SUB DUP2 PUSH1 0x0 DUP8 DUP1 EXTCODESIZE ISZERO DUP1 ISZERO PUSH2 0xEDF JUMPI PUSH1 0x0 DUP1 REVERT JUMPDEST POP GAS CALL ISZERO DUP1 ISZERO PUSH2 0xEF3 JUMPI RETURNDATASIZE PUSH1 0x0 DUP1 RETURNDATACOPY RETURNDATASIZE PUSH1 0x0 REVERT JUMPDEST POP POP POP POP PUSH1 0x40 MLOAD RETURNDATASIZE PUSH1 0x20 DUP2 LT ISZERO PUSH2 0xF09 JUMPI PUSH1 0x0 DUP1 REVERT JUMPDEST DUP2 ADD SWAP1 DUP1 DUP1 MLOAD SWAP1 PUSH1 0x20 ADD SWAP1 SWAP3 SWAP2 SWAP1 POP POP POP PUSH20 0xFFFFFFFFFFFFFFFFFFFFFFFFFFFFFFFFFFFFFFFF AND PUSH1 0x0 DUP1 SWAP1 SLOAD SWAP1 PUSH2 0x100 EXP SWAP1 DIV PUSH20 0xFFFFFFFFFFFFFFFFFFFFFFFFFFFFFFFFFFFFFFFF AND PUSH20 0xFFFFFFFFFFFFFFFFFFFFFFFFFFFFFFFFFFFFFFFF AND EQ PUSH2 0x1052 JUMPI PUSH1 0x1 PUSH1 0x0 SWAP1 SLOAD SWAP1 PUSH2 0x100 EXP SWAP1 DIV PUSH20 0xFFFFFFFFFFFFFFFFFFFFFFFFFFFFFFFFFFFFFFFF AND PUSH20 0xFFFFFFFFFFFFFFFFFFFFFFFFFFFFFFFFFFFFFFFF AND PUSH4 0x38CC4831 PUSH1 0x40 MLOAD DUP2 PUSH4 0xFFFFFFFF AND PUSH1 0xE0 SHL DUP2 MSTORE PUSH1 0x4 ADD PUSH1 0x20 PUSH1 0x40 MLOAD DUP1 DUP4 SUB DUP2 PUSH1 0x0 DUP8 DUP1 EXTCODESIZE ISZERO DUP1 ISZERO PUSH2 0xFD7 JUMPI PUSH1 0x0 DUP1 REVERT JUMPDEST POP GAS CALL ISZERO DUP1 ISZERO PUSH2 0xFEB JUMPI RETURNDATASIZE PUSH1 0x0 DUP1 RETURNDATACOPY RETURNDATASIZE PUSH1 0x0 REVERT JUMPDEST POP POP POP POP PUSH1 0x40 MLOAD RETURNDATASIZE PUSH1 0x20 DUP2 LT ISZERO PUSH2 0x1001 JUMPI PUSH1 0x0 DUP1 REVERT JUMPDEST DUP2 ADD SWAP1 DUP1 DUP1 MLOAD SWAP1 PUSH1 0x20 ADD SWAP1 SWAP3 SWAP2 SWAP1 POP POP POP PUSH1 0x0 DUP1 PUSH2 0x100 EXP DUP2 SLOAD DUP2 PUSH20 0xFFFFFFFFFFFFFFFFFFFFFFFFFFFFFFFFFFFFFFFF MUL NOT AND SWAP1 DUP4 PUSH20 0xFFFFFFFFFFFFFFFFFFFFFFFFFFFFFFFFFFFFFFFF AND MUL OR SWAP1 SSTORE POP JUMPDEST PUSH1 0x0 DUP1 SWAP1 SLOAD SWAP1 PUSH2 0x100 EXP SWAP1 DIV PUSH20 0xFFFFFFFFFFFFFFFFFFFFFFFFFFFFFFFFFFFFFFFF AND PUSH20 0xFFFFFFFFFFFFFFFFFFFFFFFFFFFFFFFFFFFFFFFF AND PUSH4 0xC281D19E PUSH1 0x40 MLOAD DUP2 PUSH4 0xFFFFFFFF AND PUSH1 0xE0 SHL DUP2 MSTORE PUSH1 0x4 ADD PUSH1 0x20 PUSH1 0x40 MLOAD DUP1 DUP4 SUB DUP2 DUP7 DUP1 EXTCODESIZE ISZERO DUP1 ISZERO PUSH2 0x10B9 JUMPI PUSH1 0x0 DUP1 REVERT JUMPDEST POP GAS STATICCALL ISZERO DUP1 ISZERO PUSH2 0x10CD JUMPI RETURNDATASIZE PUSH1 0x0 DUP1 RETURNDATACOPY RETURNDATASIZE PUSH1 0x0 REVERT JUMPDEST POP POP POP POP PUSH1 0x40 MLOAD RETURNDATASIZE PUSH1 0x20 DUP2 LT ISZERO PUSH2 0x10E3 JUMPI PUSH1 0x0 DUP1 REVERT JUMPDEST DUP2 ADD SWAP1 DUP1 DUP1 MLOAD SWAP1 PUSH1 0x20 ADD SWAP1 SWAP3 SWAP2 SWAP1 POP POP POP SWAP1 POP SWAP1 JUMP JUMPDEST PUSH1 0x0 PUSH32 0x4C00000000000000000000000000000000000000000000000000000000000000 DUP3 PUSH1 0x0 DUP2 MLOAD DUP2 LT PUSH2 0x1129 JUMPI INVALID JUMPDEST PUSH1 0x20 ADD ADD MLOAD PUSH1 0xF8 SHR PUSH1 0xF8 SHL PUSH31 0xFFFFFFFFFFFFFFFFFFFFFFFFFFFFFFFFFFFFFFFFFFFFFFFFFFFFFFFFFFFFFF NOT AND EQ ISZERO DUP1 PUSH2 0x11BC JUMPI POP PUSH32 0x5000000000000000000000000000000000000000000000000000000000000000 DUP3 PUSH1 0x1 DUP2 MLOAD DUP2 LT PUSH2 0x118C JUMPI INVALID JUMPDEST PUSH1 0x20 ADD ADD MLOAD PUSH1 0xF8 SHR PUSH1 0xF8 SHL PUSH31 0xFFFFFFFFFFFFFFFFFFFFFFFFFFFFFFFFFFFFFFFFFFFFFFFFFFFFFFFFFFFFFF NOT AND EQ ISZERO JUMPDEST DUP1 PUSH2 0x11E8 JUMPI POP PUSH1 0x1 PUSH1 0xFF AND DUP3 PUSH1 0x2 DUP2 MLOAD DUP2 LT PUSH2 0x11D4 JUMPI INVALID JUMPDEST PUSH1 0x20 ADD ADD MLOAD PUSH1 0xF8 SHR PUSH1 0xF8 SHL PUSH1 0xF8 SHR PUSH1 0xFF AND EQ ISZERO JUMPDEST ISZERO PUSH2 0x11F6 JUMPI PUSH1 0x1 SWAP1 POP PUSH2 0x1222 JUMP JUMPDEST PUSH1 0x0 PUSH2 0x120B DUP4 DUP7 DUP7 PUSH2 0x1206 PUSH2 0x17E0 JUMP JUMPDEST PUSH2 0x1882 JUMP JUMPDEST SWAP1 POP DUP1 PUSH2 0x121C JUMPI PUSH1 0x2 SWAP2 POP POP PUSH2 0x1222 JUMP JUMPDEST PUSH1 0x0 SWAP2 POP POP JUMPDEST SWAP4 SWAP3 POP POP POP JUMP JUMPDEST PUSH1 0x0 DUP1 DUP4 GT DUP1 ISZERO PUSH2 0x123B JUMPI POP PUSH1 0x20 DUP4 GT ISZERO JUMPDEST PUSH2 0x1244 JUMPI PUSH1 0x0 DUP1 REVERT JUMPDEST PUSH1 0xA DUP5 MUL SWAP4 POP PUSH1 0x60 PUSH1 0x1 PUSH1 0x40 MLOAD SWAP1 DUP1 DUP3 MSTORE DUP1 PUSH1 0x1F ADD PUSH1 0x1F NOT AND PUSH1 0x20 ADD DUP3 ADD PUSH1 0x40 MSTORE DUP1 ISZERO PUSH2 0x1280 JUMPI DUP2 PUSH1 0x20 ADD PUSH1 0x1 DUP3 MUL DUP1 CODESIZE DUP4 CODECOPY DUP1 DUP3 ADD SWAP2 POP POP SWAP1 POP JUMPDEST POP SWAP1 POP DUP4 PUSH1 0xF8 SHL DUP2 PUSH1 0x0 DUP2 MLOAD DUP2 LT PUSH2 0x1294 JUMPI INVALID JUMPDEST PUSH1 0x20 ADD ADD SWAP1 PUSH31 0xFFFFFFFFFFFFFFFFFFFFFFFFFFFFFFFFFFFFFFFFFFFFFFFFFFFFFFFFFFFFFF NOT AND SWAP1 DUP2 PUSH1 0x0 BYTE SWAP1 MSTORE8 POP PUSH1 0x60 PUSH1 0x20 PUSH1 0x40 MLOAD SWAP1 DUP1 DUP3 MSTORE DUP1 PUSH1 0x1F ADD PUSH1 0x1F NOT AND PUSH1 0x20 ADD DUP3 ADD PUSH1 0x40 MSTORE DUP1 ISZERO PUSH2 0x12F9 JUMPI DUP2 PUSH1 0x20 ADD PUSH1 0x1 DUP3 MUL DUP1 CODESIZE DUP4 CODECOPY DUP1 DUP3 ADD SWAP2 POP POP SWAP1 POP JUMPDEST POP SWAP1 POP PUSH1 0x60 PUSH1 0x20 PUSH1 0x40 MLOAD SWAP1 DUP1 DUP3 MSTORE DUP1 PUSH1 0x1F ADD PUSH1 0x1F NOT AND PUSH1 0x20 ADD DUP3 ADD PUSH1 0x40 MSTORE DUP1 ISZERO PUSH2 0x1332 JUMPI DUP2 PUSH1 0x20 ADD PUSH1 0x1 DUP3 MUL DUP1 CODESIZE DUP4 CODECOPY DUP1 DUP3 ADD SWAP2 POP POP SWAP1 POP JUMPDEST POP SWAP1 POP PUSH1 0x0 PUSH2 0x133F PUSH2 0x1F2D JUMP JUMPDEST SWAP1 POP PUSH1 0x20 DUP4 MSTORE TIMESTAMP COINBASE XOR PUSH1 0x1 NUMBER SUB BLOCKHASH XOR PUSH1 0x20 DUP5 ADD MSTORE PUSH1 0x20 DUP3 MSTORE DUP1 PUSH1 0x20 DUP4 ADD MSTORE PUSH1 0x60 PUSH1 0x20 PUSH1 0x40 MLOAD SWAP1 DUP1 DUP3 MSTORE DUP1 PUSH1 0x1F ADD PUSH1 0x1F NOT AND PUSH1 0x20 ADD DUP3 ADD PUSH1 0x40 MSTORE DUP1 ISZERO PUSH2 0x1393 JUMPI DUP2 PUSH1 0x20 ADD PUSH1 0x1 DUP3 MUL DUP1 CODESIZE DUP4 CODECOPY DUP1 DUP3 ADD SWAP2 POP POP SWAP1 POP JUMPDEST POP SWAP1 POP DUP9 PUSH1 0x20 DUP3 ADD MSTORE PUSH1 0x60 PUSH1 0x8 PUSH1 0x40 MLOAD SWAP1 DUP1 DUP3 MSTORE DUP1 PUSH1 0x1F ADD PUSH1 0x1F NOT AND PUSH1 0x20 ADD DUP3 ADD PUSH1 0x40 MSTORE DUP1 ISZERO PUSH2 0x13D2 JUMPI DUP2 PUSH1 0x20 ADD PUSH1 0x1 DUP3 MUL DUP1 CODESIZE DUP4 CODECOPY DUP1 DUP3 ADD SWAP2 POP POP SWAP1 POP JUMPDEST POP SWAP1 POP PUSH2 0x13E5 DUP3 PUSH1 0x18 PUSH1 0x8 DUP5 PUSH1 0x0 PUSH2 0x224A JUMP JUMPDEST POP PUSH2 0x13EE PUSH2 0x3BD8 JUMP JUMPDEST PUSH1 0x40 MLOAD DUP1 PUSH1 0x80 ADD PUSH1 0x40 MSTORE DUP1 DUP8 DUP2 MSTORE PUSH1 0x20 ADD DUP9 DUP2 MSTORE PUSH1 0x20 ADD DUP7 DUP2 MSTORE PUSH1 0x20 ADD DUP5 DUP2 MSTORE POP SWAP1 POP PUSH1 0x0 PUSH2 0x1453 PUSH1 0x40 MLOAD DUP1 PUSH1 0x40 ADD PUSH1 0x40 MSTORE DUP1 PUSH1 0x6 DUP2 MSTORE PUSH1 0x20 ADD PUSH32 0x72616E646F6D0000000000000000000000000000000000000000000000000000 DUP2 MSTORE POP DUP4 DUP13 PUSH2 0x22A9 JUMP JUMPDEST SWAP1 POP PUSH1 0x60 PUSH1 0x8 PUSH1 0x40 MLOAD SWAP1 DUP1 DUP3 MSTORE DUP1 PUSH1 0x1F ADD PUSH1 0x1F NOT AND PUSH1 0x20 ADD DUP3 ADD PUSH1 0x40 MSTORE DUP1 ISZERO PUSH2 0x148B JUMPI DUP2 PUSH1 0x20 ADD PUSH1 0x1 DUP3 MUL DUP1 CODESIZE DUP4 CODECOPY DUP1 DUP3 ADD SWAP2 POP POP SWAP1 POP JUMPDEST POP SWAP1 POP PUSH1 0x20 DUP5 ADD MLOAD PUSH32 0x100000000000000000000000000000000000000000000000000000000000000 DUP2 DIV PUSH1 0x27 DUP4 ADD MSTORE8 PUSH31 0x1000000000000000000000000000000000000000000000000000000000000 DUP2 DIV PUSH1 0x26 DUP4 ADD MSTORE8 PUSH30 0x10000000000000000000000000000000000000000000000000000000000 DUP2 DIV PUSH1 0x25 DUP4 ADD MSTORE8 PUSH29 0x100000000000000000000000000000000000000000000000000000000 DUP2 DIV PUSH1 0x24 DUP4 ADD MSTORE8 PUSH28 0x1000000000000000000000000000000000000000000000000000000 DUP2 DIV PUSH1 0x23 DUP4 ADD MSTORE8 PUSH27 0x10000000000000000000000000000000000000000000000000000 DUP2 DIV PUSH1 0x22 DUP4 ADD MSTORE8 PUSH26 0x100000000000000000000000000000000000000000000000000 DUP2 DIV PUSH1 0x21 DUP4 ADD MSTORE8 PUSH25 0x1000000000000000000000000000000000000000000000000 DUP2 DIV PUSH1 0x20 DUP4 ADD MSTORE8 POP PUSH2 0x17B1 DUP3 DUP3 DUP6 PUSH1 0x1 PUSH1 0x4 DUP2 LT PUSH2 0x15CA JUMPI INVALID JUMPDEST PUSH1 0x20 MUL ADD MLOAD PUSH1 0x2 DUP8 PUSH1 0x0 PUSH1 0x4 DUP2 LT PUSH2 0x15DE JUMPI INVALID JUMPDEST PUSH1 0x20 MUL ADD MLOAD PUSH1 0x40 MLOAD DUP1 DUP3 DUP1 MLOAD SWAP1 PUSH1 0x20 ADD SWAP1 DUP1 DUP4 DUP4 JUMPDEST PUSH1 0x20 DUP4 LT PUSH2 0x1616 JUMPI DUP1 MLOAD DUP3 MSTORE PUSH1 0x20 DUP3 ADD SWAP2 POP PUSH1 0x20 DUP2 ADD SWAP1 POP PUSH1 0x20 DUP4 SUB SWAP3 POP PUSH2 0x15F3 JUMP JUMPDEST PUSH1 0x1 DUP4 PUSH1 0x20 SUB PUSH2 0x100 EXP SUB DUP1 NOT DUP3 MLOAD AND DUP2 DUP5 MLOAD AND DUP1 DUP3 OR DUP6 MSTORE POP POP POP POP POP POP SWAP1 POP ADD SWAP2 POP POP PUSH1 0x20 PUSH1 0x40 MLOAD DUP1 DUP4 SUB DUP2 DUP6 GAS STATICCALL ISZERO DUP1 ISZERO PUSH2 0x1658 JUMPI RETURNDATASIZE PUSH1 0x0 DUP1 RETURNDATACOPY RETURNDATASIZE PUSH1 0x0 REVERT JUMPDEST POP POP POP PUSH1 0x40 MLOAD RETURNDATASIZE PUSH1 0x20 DUP2 LT ISZERO PUSH2 0x166D JUMPI PUSH1 0x0 DUP1 REVERT JUMPDEST DUP2 ADD SWAP1 DUP1 DUP1 MLOAD SWAP1 PUSH1 0x20 ADD SWAP1 SWAP3 SWAP2 SWAP1 POP POP POP DUP8 PUSH1 0x2 PUSH1 0x4 DUP2 LT PUSH2 0x168B JUMPI INVALID JUMPDEST PUSH1 0x20 MUL ADD MLOAD PUSH1 0x40 MLOAD PUSH1 0x20 ADD DUP1 DUP6 DUP1 MLOAD SWAP1 PUSH1 0x20 ADD SWAP1 DUP1 DUP4 DUP4 JUMPDEST PUSH1 0x20 DUP4 LT PUSH2 0x16C6 JUMPI DUP1 MLOAD DUP3 MSTORE PUSH1 0x20 DUP3 ADD SWAP2 POP PUSH1 0x20 DUP2 ADD SWAP1 POP PUSH1 0x20 DUP4 SUB SWAP3 POP PUSH2 0x16A3 JUMP JUMPDEST PUSH1 0x1 DUP4 PUSH1 0x20 SUB PUSH2 0x100 EXP SUB DUP1 NOT DUP3 MLOAD AND DUP2 DUP5 MLOAD AND DUP1 DUP3 OR DUP6 MSTORE POP POP POP POP POP POP SWAP1 POP ADD DUP5 DUP1 MLOAD SWAP1 PUSH1 0x20 ADD SWAP1 DUP1 DUP4 DUP4 JUMPDEST PUSH1 0x20 DUP4 LT PUSH2 0x1717 JUMPI DUP1 MLOAD DUP3 MSTORE PUSH1 0x20 DUP3 ADD SWAP2 POP PUSH1 0x20 DUP2 ADD SWAP1 POP PUSH1 0x20 DUP4 SUB SWAP3 POP PUSH2 0x16F4 JUMP JUMPDEST PUSH1 0x1 DUP4 PUSH1 0x20 SUB PUSH2 0x100 EXP SUB DUP1 NOT DUP3 MLOAD AND DUP2 DUP5 MLOAD AND DUP1 DUP3 OR DUP6 MSTORE POP POP POP POP POP POP SWAP1 POP ADD DUP4 DUP2 MSTORE PUSH1 0x20 ADD DUP3 DUP1 MLOAD SWAP1 PUSH1 0x20 ADD SWAP1 DUP1 DUP4 DUP4 JUMPDEST PUSH1 0x20 DUP4 LT PUSH2 0x176E JUMPI DUP1 MLOAD DUP3 MSTORE PUSH1 0x20 DUP3 ADD SWAP2 POP PUSH1 0x20 DUP2 ADD SWAP1 POP PUSH1 0x20 DUP4 SUB SWAP3 POP PUSH2 0x174B JUMP JUMPDEST PUSH1 0x1 DUP4 PUSH1 0x20 SUB PUSH2 0x100 EXP SUB DUP1 NOT DUP3 MLOAD AND DUP2 DUP5 MLOAD AND DUP1 DUP3 OR DUP6 MSTORE POP POP POP POP POP POP SWAP1 POP ADD SWAP5 POP POP POP POP POP PUSH1 0x40 MLOAD PUSH1 0x20 DUP2 DUP4 SUB SUB DUP2 MSTORE SWAP1 PUSH1 0x40 MSTORE DUP1 MLOAD SWAP1 PUSH1 0x20 ADD KECCAK256 PUSH2 0x2616 JUMP JUMPDEST DUP2 SWAP10 POP POP POP POP POP POP POP POP POP POP SWAP4 SWAP3 POP POP POP JUMP JUMPDEST PUSH1 0x0 DUP2 EXTCODESIZE SWAP1 POP SWAP2 SWAP1 POP JUMP JUMPDEST PUSH1 0x0 PUSH2 0x17D9 PUSH2 0x2632 JUMP JUMPDEST SWAP1 POP SWAP2 SWAP1 POP JUMP JUMPDEST PUSH1 0x60 PUSH1 0x2 DUP1 SLOAD PUSH1 0x1 DUP2 PUSH1 0x1 AND ISZERO PUSH2 0x100 MUL SUB AND PUSH1 0x2 SWAP1 DIV DUP1 PUSH1 0x1F ADD PUSH1 0x20 DUP1 SWAP2 DIV MUL PUSH1 0x20 ADD PUSH1 0x40 MLOAD SWAP1 DUP2 ADD PUSH1 0x40 MSTORE DUP1 SWAP3 SWAP2 SWAP1 DUP2 DUP2 MSTORE PUSH1 0x20 ADD DUP3 DUP1 SLOAD PUSH1 0x1 DUP2 PUSH1 0x1 AND ISZERO PUSH2 0x100 MUL SUB AND PUSH1 0x2 SWAP1 DIV DUP1 ISZERO PUSH2 0x1878 JUMPI DUP1 PUSH1 0x1F LT PUSH2 0x184D JUMPI PUSH2 0x100 DUP1 DUP4 SLOAD DIV MUL DUP4 MSTORE SWAP2 PUSH1 0x20 ADD SWAP2 PUSH2 0x1878 JUMP JUMPDEST DUP3 ADD SWAP2 SWAP1 PUSH1 0x0 MSTORE PUSH1 0x20 PUSH1 0x0 KECCAK256 SWAP1 JUMPDEST DUP2 SLOAD DUP2 MSTORE SWAP1 PUSH1 0x1 ADD SWAP1 PUSH1 0x20 ADD DUP1 DUP4 GT PUSH2 0x185B JUMPI DUP3 SWAP1 SUB PUSH1 0x1F AND DUP3 ADD SWAP2 JUMPDEST POP POP POP POP POP SWAP1 POP SWAP1 JUMP JUMPDEST PUSH1 0x0 DUP1 PUSH1 0x20 PUSH1 0x2 DUP8 PUSH1 0x45 DUP2 MLOAD DUP2 LT PUSH2 0x1896 JUMPI INVALID JUMPDEST PUSH1 0x20 ADD ADD MLOAD PUSH1 0xF8 SHR PUSH1 0xF8 SHL PUSH1 0xF8 SHR PUSH1 0xFF AND ADD PUSH1 0x44 ADD ADD SWAP1 POP PUSH1 0x60 PUSH1 0x20 PUSH1 0x40 MLOAD SWAP1 DUP1 DUP3 MSTORE DUP1 PUSH1 0x1F ADD PUSH1 0x1F NOT AND PUSH1 0x20 ADD DUP3 ADD PUSH1 0x40 MSTORE DUP1 ISZERO PUSH2 0x18E4 JUMPI DUP2 PUSH1 0x20 ADD PUSH1 0x1 DUP3 MUL DUP1 CODESIZE DUP4 CODECOPY DUP1 DUP3 ADD SWAP2 POP POP SWAP1 POP JUMPDEST POP SWAP1 POP PUSH2 0x18F6 DUP8 DUP4 PUSH1 0x20 DUP5 PUSH1 0x0 PUSH2 0x224A JUMP JUMPDEST POP PUSH1 0x2 DUP5 DUP8 PUSH1 0x40 MLOAD PUSH1 0x20 ADD DUP1 DUP4 DUP1 MLOAD SWAP1 PUSH1 0x20 ADD SWAP1 DUP1 DUP4 DUP4 JUMPDEST PUSH1 0x20 DUP4 LT PUSH2 0x1931 JUMPI DUP1 MLOAD DUP3 MSTORE PUSH1 0x20 DUP3 ADD SWAP2 POP PUSH1 0x20 DUP2 ADD SWAP1 POP PUSH1 0x20 DUP4 SUB SWAP3 POP PUSH2 0x190E JUMP JUMPDEST PUSH1 0x1 DUP4 PUSH1 0x20 SUB PUSH2 0x100 EXP SUB DUP1 NOT DUP3 MLOAD AND DUP2 DUP5 MLOAD AND DUP1 DUP3 OR DUP6 MSTORE POP POP POP POP POP POP SWAP1 POP ADD DUP3 DUP2 MSTORE PUSH1 0x20 ADD SWAP3 POP POP POP PUSH1 0x40 MLOAD PUSH1 0x20 DUP2 DUP4 SUB SUB DUP2 MSTORE SWAP1 PUSH1 0x40 MSTORE PUSH1 0x40 MLOAD DUP1 DUP3 DUP1 MLOAD SWAP1 PUSH1 0x20 ADD SWAP1 DUP1 DUP4 DUP4 JUMPDEST PUSH1 0x20 DUP4 LT PUSH2 0x199F JUMPI DUP1 MLOAD DUP3 MSTORE PUSH1 0x20 DUP3 ADD SWAP2 POP PUSH1 0x20 DUP2 ADD SWAP1 POP PUSH1 0x20 DUP4 SUB SWAP3 POP PUSH2 0x197C JUMP JUMPDEST PUSH1 0x1 DUP4 PUSH1 0x20 SUB PUSH2 0x100 EXP SUB DUP1 NOT DUP3 MLOAD AND DUP2 DUP5 MLOAD AND DUP1 DUP3 OR DUP6 MSTORE POP POP POP POP POP POP SWAP1 POP ADD SWAP2 POP POP PUSH1 0x20 PUSH1 0x40 MLOAD DUP1 DUP4 SUB DUP2 DUP6 GAS STATICCALL ISZERO DUP1 ISZERO PUSH2 0x19E1 JUMPI RETURNDATASIZE PUSH1 0x0 DUP1 RETURNDATACOPY RETURNDATASIZE PUSH1 0x0 REVERT JUMPDEST POP POP POP PUSH1 0x40 MLOAD RETURNDATASIZE PUSH1 0x20 DUP2 LT ISZERO PUSH2 0x19F6 JUMPI PUSH1 0x0 DUP1 REVERT JUMPDEST DUP2 ADD SWAP1 DUP1 DUP1 MLOAD SWAP1 PUSH1 0x20 ADD SWAP1 SWAP3 SWAP2 SWAP1 POP POP POP PUSH1 0x40 MLOAD PUSH1 0x20 ADD DUP1 DUP3 DUP2 MSTORE PUSH1 0x20 ADD SWAP2 POP POP PUSH1 0x40 MLOAD PUSH1 0x20 DUP2 DUP4 SUB SUB DUP2 MSTORE SWAP1 PUSH1 0x40 MSTORE DUP1 MLOAD SWAP1 PUSH1 0x20 ADD KECCAK256 DUP2 DUP1 MLOAD SWAP1 PUSH1 0x20 ADD KECCAK256 EQ PUSH2 0x1A45 JUMPI PUSH1 0x0 SWAP3 POP POP POP PUSH2 0x1F25 JUMP JUMPDEST PUSH1 0x60 PUSH1 0x2 DUP9 PUSH1 0x1 PUSH1 0x49 DUP7 ADD ADD DUP2 MLOAD DUP2 LT PUSH2 0x1A5B JUMPI INVALID JUMPDEST PUSH1 0x20 ADD ADD MLOAD PUSH1 0xF8 SHR PUSH1 0xF8 SHL PUSH1 0xF8 SHR PUSH1 0xFF AND ADD PUSH1 0x40 MLOAD SWAP1 DUP1 DUP3 MSTORE DUP1 PUSH1 0x1F ADD PUSH1 0x1F NOT AND PUSH1 0x20 ADD DUP3 ADD PUSH1 0x40 MSTORE DUP1 ISZERO PUSH2 0x1A9F JUMPI DUP2 PUSH1 0x20 ADD PUSH1 0x1 DUP3 MUL DUP1 CODESIZE DUP4 CODECOPY DUP1 DUP3 ADD SWAP2 POP POP SWAP1 POP JUMPDEST POP SWAP1 POP PUSH2 0x1AB4 DUP9 PUSH1 0x49 DUP6 ADD DUP4 MLOAD DUP5 PUSH1 0x0 PUSH2 0x224A JUMP JUMPDEST POP PUSH2 0x1B7F PUSH1 0x2 DUP3 PUSH1 0x40 MLOAD DUP1 DUP3 DUP1 MLOAD SWAP1 PUSH1 0x20 ADD SWAP1 DUP1 DUP4 DUP4 JUMPDEST PUSH1 0x20 DUP4 LT PUSH2 0x1AEE JUMPI DUP1 MLOAD DUP3 MSTORE PUSH1 0x20 DUP3 ADD SWAP2 POP PUSH1 0x20 DUP2 ADD SWAP1 POP PUSH1 0x20 DUP4 SUB SWAP3 POP PUSH2 0x1ACB JUMP JUMPDEST PUSH1 0x1 DUP4 PUSH1 0x20 SUB PUSH2 0x100 EXP SUB DUP1 NOT DUP3 MLOAD AND DUP2 DUP5 MLOAD AND DUP1 DUP3 OR DUP6 MSTORE POP POP POP POP POP POP SWAP1 POP ADD SWAP2 POP POP PUSH1 0x20 PUSH1 0x40 MLOAD DUP1 DUP4 SUB DUP2 DUP6 GAS STATICCALL ISZERO DUP1 ISZERO PUSH2 0x1B30 JUMPI RETURNDATASIZE PUSH1 0x0 DUP1 RETURNDATACOPY RETURNDATASIZE PUSH1 0x0 REVERT JUMPDEST POP POP POP PUSH1 0x40 MLOAD RETURNDATASIZE PUSH1 0x20 DUP2 LT ISZERO PUSH2 0x1B45 JUMPI PUSH1 0x0 DUP1 REVERT JUMPDEST DUP2 ADD SWAP1 DUP1 DUP1 MLOAD SWAP1 PUSH1 0x20 ADD SWAP1 SWAP3 SWAP2 SWAP1 POP POP POP DUP8 DUP11 PUSH1 0x8 PUSH1 0x20 DUP9 ADD ADD DUP2 MLOAD DUP2 LT PUSH2 0x1B69 JUMPI INVALID JUMPDEST PUSH1 0x20 ADD ADD MLOAD PUSH1 0xF8 SHR PUSH1 0xF8 SHL PUSH1 0xF8 SHR PUSH1 0xFF AND PUSH2 0x2B89 JUMP JUMPDEST PUSH2 0x1B8F JUMPI PUSH1 0x0 SWAP4 POP POP POP POP PUSH2 0x1F25 JUMP JUMPDEST PUSH1 0x60 PUSH1 0x29 PUSH1 0x40 MLOAD SWAP1 DUP1 DUP3 MSTORE DUP1 PUSH1 0x1F ADD PUSH1 0x1F NOT AND PUSH1 0x20 ADD DUP3 ADD PUSH1 0x40 MSTORE DUP1 ISZERO PUSH2 0x1BC5 JUMPI DUP2 PUSH1 0x20 ADD PUSH1 0x1 DUP3 MUL DUP1 CODESIZE DUP4 CODECOPY DUP1 DUP3 ADD SWAP2 POP POP SWAP1 POP JUMPDEST POP SWAP1 POP PUSH2 0x1BDA DUP10 PUSH1 0x20 DUP7 ADD PUSH1 0x29 DUP5 PUSH1 0x0 PUSH2 0x224A JUMP JUMPDEST POP PUSH1 0x60 PUSH1 0x40 DUP1 MLOAD SWAP1 DUP1 DUP3 MSTORE DUP1 PUSH1 0x1F ADD PUSH1 0x1F NOT AND PUSH1 0x20 ADD DUP3 ADD PUSH1 0x40 MSTORE DUP1 ISZERO PUSH2 0x1C10 JUMPI DUP2 PUSH1 0x20 ADD PUSH1 0x1 DUP3 MUL DUP1 CODESIZE DUP4 CODECOPY DUP1 DUP3 ADD SWAP2 POP POP SWAP1 POP JUMPDEST POP SWAP1 POP PUSH1 0x0 PUSH1 0x41 DUP5 MLOAD PUSH1 0x29 PUSH1 0x20 DUP10 ADD ADD ADD ADD SWAP1 POP PUSH2 0x1C36 DUP12 PUSH1 0x40 DUP4 SUB PUSH1 0x40 DUP6 PUSH1 0x0 PUSH2 0x224A JUMP JUMPDEST POP PUSH1 0x0 PUSH1 0x2 DUP4 PUSH1 0x40 MLOAD DUP1 DUP3 DUP1 MLOAD SWAP1 PUSH1 0x20 ADD SWAP1 DUP1 DUP4 DUP4 JUMPDEST PUSH1 0x20 DUP4 LT PUSH2 0x1C6F JUMPI DUP1 MLOAD DUP3 MSTORE PUSH1 0x20 DUP3 ADD SWAP2 POP PUSH1 0x20 DUP2 ADD SWAP1 POP PUSH1 0x20 DUP4 SUB SWAP3 POP PUSH2 0x1C4C JUMP JUMPDEST PUSH1 0x1 DUP4 PUSH1 0x20 SUB PUSH2 0x100 EXP SUB DUP1 NOT DUP3 MLOAD AND DUP2 DUP5 MLOAD AND DUP1 DUP3 OR DUP6 MSTORE POP POP POP POP POP POP SWAP1 POP ADD SWAP2 POP POP PUSH1 0x20 PUSH1 0x40 MLOAD DUP1 DUP4 SUB DUP2 DUP6 GAS STATICCALL ISZERO DUP1 ISZERO PUSH2 0x1CB1 JUMPI RETURNDATASIZE PUSH1 0x0 DUP1 RETURNDATACOPY RETURNDATASIZE PUSH1 0x0 REVERT JUMPDEST POP POP POP PUSH1 0x40 MLOAD RETURNDATASIZE PUSH1 0x20 DUP2 LT ISZERO PUSH2 0x1CC6 JUMPI PUSH1 0x0 DUP1 REVERT JUMPDEST DUP2 ADD SWAP1 DUP1 DUP1 MLOAD SWAP1 PUSH1 0x20 ADD SWAP1 SWAP3 SWAP2 SWAP1 POP POP POP SWAP1 POP DUP4 DUP2 PUSH1 0x40 MLOAD PUSH1 0x20 ADD DUP1 DUP4 DUP1 MLOAD SWAP1 PUSH1 0x20 ADD SWAP1 DUP1 DUP4 DUP4 JUMPDEST PUSH1 0x20 DUP4 LT PUSH2 0x1D11 JUMPI DUP1 MLOAD DUP3 MSTORE PUSH1 0x20 DUP3 ADD SWAP2 POP PUSH1 0x20 DUP2 ADD SWAP1 POP PUSH1 0x20 DUP4 SUB SWAP3 POP PUSH2 0x1CEE JUMP JUMPDEST PUSH1 0x1 DUP4 PUSH1 0x20 SUB PUSH2 0x100 EXP SUB DUP1 NOT DUP3 MLOAD AND DUP2 DUP5 MLOAD AND DUP1 DUP3 OR DUP6 MSTORE POP POP POP POP POP POP SWAP1 POP ADD DUP3 DUP2 MSTORE PUSH1 0x20 ADD SWAP3 POP POP POP PUSH1 0x40 MLOAD PUSH1 0x20 DUP2 DUP4 SUB SUB DUP2 MSTORE SWAP1 PUSH1 0x40 MSTORE DUP1 MLOAD SWAP1 PUSH1 0x20 ADD KECCAK256 PUSH1 0x3 PUSH1 0x0 DUP14 DUP2 MSTORE PUSH1 0x20 ADD SWAP1 DUP2 MSTORE PUSH1 0x20 ADD PUSH1 0x0 KECCAK256 SLOAD EQ ISZERO PUSH2 0x1D89 JUMPI PUSH1 0x3 PUSH1 0x0 DUP13 DUP2 MSTORE PUSH1 0x20 ADD SWAP1 DUP2 MSTORE PUSH1 0x20 ADD PUSH1 0x0 KECCAK256 PUSH1 0x0 SWAP1 SSTORE PUSH2 0x1D99 JUMP JUMPDEST PUSH1 0x0 SWAP8 POP POP POP POP POP POP POP POP PUSH2 0x1F25 JUMP JUMPDEST PUSH1 0x60 PUSH1 0x49 PUSH1 0x40 MLOAD SWAP1 DUP1 DUP3 MSTORE DUP1 PUSH1 0x1F ADD PUSH1 0x1F NOT AND PUSH1 0x20 ADD DUP3 ADD PUSH1 0x40 MSTORE DUP1 ISZERO PUSH2 0x1DCF JUMPI DUP2 PUSH1 0x20 ADD PUSH1 0x1 DUP3 MUL DUP1 CODESIZE DUP4 CODECOPY DUP1 DUP3 ADD SWAP2 POP POP SWAP1 POP JUMPDEST POP SWAP1 POP PUSH2 0x1DE1 DUP14 DUP10 PUSH1 0x49 DUP5 PUSH1 0x0 PUSH2 0x224A JUMP JUMPDEST POP PUSH2 0x1E8A PUSH1 0x2 DUP3 PUSH1 0x40 MLOAD DUP1 DUP3 DUP1 MLOAD SWAP1 PUSH1 0x20 ADD SWAP1 DUP1 DUP4 DUP4 JUMPDEST PUSH1 0x20 DUP4 LT PUSH2 0x1E1B JUMPI DUP1 MLOAD DUP3 MSTORE PUSH1 0x20 DUP3 ADD SWAP2 POP PUSH1 0x20 DUP2 ADD SWAP1 POP PUSH1 0x20 DUP4 SUB SWAP3 POP PUSH2 0x1DF8 JUMP JUMPDEST PUSH1 0x1 DUP4 PUSH1 0x20 SUB PUSH2 0x100 EXP SUB DUP1 NOT DUP3 MLOAD AND DUP2 DUP5 MLOAD AND DUP1 DUP3 OR DUP6 MSTORE POP POP POP POP POP POP SWAP1 POP ADD SWAP2 POP POP PUSH1 0x20 PUSH1 0x40 MLOAD DUP1 DUP4 SUB DUP2 DUP6 GAS STATICCALL ISZERO DUP1 ISZERO PUSH2 0x1E5D JUMPI RETURNDATASIZE PUSH1 0x0 DUP1 RETURNDATACOPY RETURNDATASIZE PUSH1 0x0 REVERT JUMPDEST POP POP POP PUSH1 0x40 MLOAD RETURNDATASIZE PUSH1 0x20 DUP2 LT ISZERO PUSH2 0x1E72 JUMPI PUSH1 0x0 DUP1 REVERT JUMPDEST DUP2 ADD SWAP1 DUP1 DUP1 MLOAD SWAP1 PUSH1 0x20 ADD SWAP1 SWAP3 SWAP2 SWAP1 POP POP POP DUP8 DUP7 PUSH2 0x2C39 JUMP JUMPDEST PUSH2 0x1E9F JUMPI PUSH1 0x0 SWAP9 POP POP POP POP POP POP POP POP POP PUSH2 0x1F25 JUMP JUMPDEST PUSH1 0x4 PUSH1 0x0 DUP4 DUP2 MSTORE PUSH1 0x20 ADD SWAP1 DUP2 MSTORE PUSH1 0x20 ADD PUSH1 0x0 KECCAK256 PUSH1 0x0 SWAP1 SLOAD SWAP1 PUSH2 0x100 EXP SWAP1 DIV PUSH1 0xFF AND PUSH2 0x1EF9 JUMPI PUSH2 0x1ECE DUP14 DUP5 PUSH2 0x2DF7 JUMP JUMPDEST PUSH1 0x4 PUSH1 0x0 DUP5 DUP2 MSTORE PUSH1 0x20 ADD SWAP1 DUP2 MSTORE PUSH1 0x20 ADD PUSH1 0x0 KECCAK256 PUSH1 0x0 PUSH2 0x100 EXP DUP2 SLOAD DUP2 PUSH1 0xFF MUL NOT AND SWAP1 DUP4 ISZERO ISZERO MUL OR SWAP1 SSTORE POP JUMPDEST PUSH1 0x4 PUSH1 0x0 DUP4 DUP2 MSTORE PUSH1 0x20 ADD SWAP1 DUP2 MSTORE PUSH1 0x20 ADD PUSH1 0x0 KECCAK256 PUSH1 0x0 SWAP1 SLOAD SWAP1 PUSH2 0x100 EXP SWAP1 DIV PUSH1 0xFF AND SWAP9 POP POP POP POP POP POP POP POP POP JUMPDEST SWAP5 SWAP4 POP POP POP POP JUMP JUMPDEST PUSH1 0x0 DUP1 PUSH20 0xFFFFFFFFFFFFFFFFFFFFFFFFFFFFFFFFFFFFFFFF AND PUSH1 0x1 PUSH1 0x0 SWAP1 SLOAD SWAP1 PUSH2 0x100 EXP SWAP1 DIV PUSH20 0xFFFFFFFFFFFFFFFFFFFFFFFFFFFFFFFFFFFFFFFF AND PUSH20 0xFFFFFFFFFFFFFFFFFFFFFFFFFFFFFFFFFFFFFFFF AND EQ DUP1 PUSH2 0x1FB5 JUMPI POP PUSH1 0x0 PUSH2 0x1FB3 PUSH1 0x1 PUSH1 0x0 SWAP1 SLOAD SWAP1 PUSH2 0x100 EXP SWAP1 DIV PUSH20 0xFFFFFFFFFFFFFFFFFFFFFFFFFFFFFFFFFFFFFFFF AND PUSH2 0x17C4 JUMP JUMPDEST EQ JUMPDEST ISZERO PUSH2 0x1FC6 JUMPI PUSH2 0x1FC4 PUSH1 0x0 PUSH2 0x17CF JUMP JUMPDEST POP JUMPDEST PUSH1 0x1 PUSH1 0x0 SWAP1 SLOAD SWAP1 PUSH2 0x100 EXP SWAP1 DIV PUSH20 0xFFFFFFFFFFFFFFFFFFFFFFFFFFFFFFFFFFFFFFFF AND PUSH20 0xFFFFFFFFFFFFFFFFFFFFFFFFFFFFFFFFFFFFFFFF AND PUSH4 0x38CC4831 PUSH1 0x40 MLOAD DUP2 PUSH4 0xFFFFFFFF AND PUSH1 0xE0 SHL DUP2 MSTORE PUSH1 0x4 ADD PUSH1 0x20 PUSH1 0x40 MLOAD DUP1 DUP4 SUB DUP2 PUSH1 0x0 DUP8 DUP1 EXTCODESIZE ISZERO DUP1 ISZERO PUSH2 0x2030 JUMPI PUSH1 0x0 DUP1 REVERT JUMPDEST POP GAS CALL ISZERO DUP1 ISZERO PUSH2 0x2044 JUMPI RETURNDATASIZE PUSH1 0x0 DUP1 RETURNDATACOPY RETURNDATASIZE PUSH1 0x0 REVERT JUMPDEST POP POP POP POP PUSH1 0x40 MLOAD RETURNDATASIZE PUSH1 0x20 DUP2 LT ISZERO PUSH2 0x205A JUMPI PUSH1 0x0 DUP1 REVERT JUMPDEST DUP2 ADD SWAP1 DUP1 DUP1 MLOAD SWAP1 PUSH1 0x20 ADD SWAP1 SWAP3 SWAP2 SWAP1 POP POP POP PUSH20 0xFFFFFFFFFFFFFFFFFFFFFFFFFFFFFFFFFFFFFFFF AND PUSH1 0x0 DUP1 SWAP1 SLOAD SWAP1 PUSH2 0x100 EXP SWAP1 DIV PUSH20 0xFFFFFFFFFFFFFFFFFFFFFFFFFFFFFFFFFFFFFFFF AND PUSH20 0xFFFFFFFFFFFFFFFFFFFFFFFFFFFFFFFFFFFFFFFF AND EQ PUSH2 0x21A3 JUMPI PUSH1 0x1 PUSH1 0x0 SWAP1 SLOAD SWAP1 PUSH2 0x100 EXP SWAP1 DIV PUSH20 0xFFFFFFFFFFFFFFFFFFFFFFFFFFFFFFFFFFFFFFFF AND PUSH20 0xFFFFFFFFFFFFFFFFFFFFFFFFFFFFFFFFFFFFFFFF AND PUSH4 0x38CC4831 PUSH1 0x40 MLOAD DUP2 PUSH4 0xFFFFFFFF AND PUSH1 0xE0 SHL DUP2 MSTORE PUSH1 0x4 ADD PUSH1 0x20 PUSH1 0x40 MLOAD DUP1 DUP4 SUB DUP2 PUSH1 0x0 DUP8 DUP1 EXTCODESIZE ISZERO DUP1 ISZERO PUSH2 0x2128 JUMPI PUSH1 0x0 DUP1 REVERT JUMPDEST POP GAS CALL ISZERO DUP1 ISZERO PUSH2 0x213C JUMPI RETURNDATASIZE PUSH1 0x0 DUP1 RETURNDATACOPY RETURNDATASIZE PUSH1 0x0 REVERT JUMPDEST POP POP POP POP PUSH1 0x40 MLOAD RETURNDATASIZE PUSH1 0x20 DUP2 LT ISZERO PUSH2 0x2152 JUMPI PUSH1 0x0 DUP1 REVERT JUMPDEST DUP2 ADD SWAP1 DUP1 DUP1 MLOAD SWAP1 PUSH1 0x20 ADD SWAP1 SWAP3 SWAP2 SWAP1 POP POP POP PUSH1 0x0 DUP1 PUSH2 0x100 EXP DUP2 SLOAD DUP2 PUSH20 0xFFFFFFFFFFFFFFFFFFFFFFFFFFFFFFFFFFFFFFFF MUL NOT AND SWAP1 DUP4 PUSH20 0xFFFFFFFFFFFFFFFFFFFFFFFFFFFFFFFFFFFFFFFF AND MUL OR SWAP1 SSTORE POP JUMPDEST PUSH1 0x0 DUP1 SWAP1 SLOAD SWAP1 PUSH2 0x100 EXP SWAP1 DIV PUSH20 0xFFFFFFFFFFFFFFFFFFFFFFFFFFFFFFFFFFFFFFFF AND PUSH20 0xFFFFFFFFFFFFFFFFFFFFFFFFFFFFFFFFFFFFFFFF AND PUSH4 0xABAA5F3E PUSH1 0x40 MLOAD DUP2 PUSH4 0xFFFFFFFF AND PUSH1 0xE0 SHL DUP2 MSTORE PUSH1 0x4 ADD PUSH1 0x20 PUSH1 0x40 MLOAD DUP1 DUP4 SUB DUP2 DUP7 DUP1 EXTCODESIZE ISZERO DUP1 ISZERO PUSH2 0x220A JUMPI PUSH1 0x0 DUP1 REVERT JUMPDEST POP GAS STATICCALL ISZERO DUP1 ISZERO PUSH2 0x221E JUMPI RETURNDATASIZE PUSH1 0x0 DUP1 RETURNDATACOPY RETURNDATASIZE PUSH1 0x0 REVERT JUMPDEST POP POP POP POP PUSH1 0x40 MLOAD RETURNDATASIZE PUSH1 0x20 DUP2 LT ISZERO PUSH2 0x2234 JUMPI PUSH1 0x0 DUP1 REVERT JUMPDEST DUP2 ADD SWAP1 DUP1 DUP1 MLOAD SWAP1 PUSH1 0x20 ADD SWAP1 SWAP3 SWAP2 SWAP1 POP POP POP SWAP1 POP SWAP1 JUMP JUMPDEST PUSH1 0x60 PUSH1 0x0 DUP3 DUP6 ADD SWAP1 POP DUP1 DUP5 MLOAD LT ISZERO PUSH2 0x2261 JUMPI PUSH1 0x0 DUP1 REVERT JUMPDEST PUSH1 0x0 DUP7 PUSH1 0x20 ADD SWAP1 POP PUSH1 0x0 DUP5 PUSH1 0x20 ADD SWAP1 POP JUMPDEST DUP7 DUP9 PUSH1 0x20 ADD ADD DUP3 LT ISZERO PUSH2 0x229A JUMPI DUP2 DUP10 ADD MLOAD DUP1 DUP3 DUP9 ADD MSTORE POP PUSH1 0x20 DUP3 ADD SWAP2 POP PUSH1 0x20 DUP2 ADD SWAP1 POP PUSH2 0x2272 JUMP JUMPDEST DUP6 SWAP4 POP POP POP POP SWAP6 SWAP5 POP POP POP POP POP JUMP JUMPDEST PUSH1 0x0 DUP1 PUSH20 0xFFFFFFFFFFFFFFFFFFFFFFFFFFFFFFFFFFFFFFFF AND PUSH1 0x1 PUSH1 0x0 SWAP1 SLOAD SWAP1 PUSH2 0x100 EXP SWAP1 DIV PUSH20 0xFFFFFFFFFFFFFFFFFFFFFFFFFFFFFFFFFFFFFFFF AND PUSH20 0xFFFFFFFFFFFFFFFFFFFFFFFFFFFFFFFFFFFFFFFF AND EQ DUP1 PUSH2 0x2331 JUMPI POP PUSH1 0x0 PUSH2 0x232F PUSH1 0x1 PUSH1 0x0 SWAP1 SLOAD SWAP1 PUSH2 0x100 EXP SWAP1 DIV PUSH20 0xFFFFFFFFFFFFFFFFFFFFFFFFFFFFFFFFFFFFFFFF AND PUSH2 0x17C4 JUMP JUMPDEST EQ JUMPDEST ISZERO PUSH2 0x2342 JUMPI PUSH2 0x2340 PUSH1 0x0 PUSH2 0x17CF JUMP JUMPDEST POP JUMPDEST PUSH1 0x1 PUSH1 0x0 SWAP1 SLOAD SWAP1 PUSH2 0x100 EXP SWAP1 DIV PUSH20 0xFFFFFFFFFFFFFFFFFFFFFFFFFFFFFFFFFFFFFFFF AND PUSH20 0xFFFFFFFFFFFFFFFFFFFFFFFFFFFFFFFFFFFFFFFF AND PUSH4 0x38CC4831 PUSH1 0x40 MLOAD DUP2 PUSH4 0xFFFFFFFF AND PUSH1 0xE0 SHL DUP2 MSTORE PUSH1 0x4 ADD PUSH1 0x20 PUSH1 0x40 MLOAD DUP1 DUP4 SUB DUP2 PUSH1 0x0 DUP8 DUP1 EXTCODESIZE ISZERO DUP1 ISZERO PUSH2 0x23AC JUMPI PUSH1 0x0 DUP1 REVERT JUMPDEST POP GAS CALL ISZERO DUP1 ISZERO PUSH2 0x23C0 JUMPI RETURNDATASIZE PUSH1 0x0 DUP1 RETURNDATACOPY RETURNDATASIZE PUSH1 0x0 REVERT JUMPDEST POP POP POP POP PUSH1 0x40 MLOAD RETURNDATASIZE PUSH1 0x20 DUP2 LT ISZERO PUSH2 0x23D6 JUMPI PUSH1 0x0 DUP1 REVERT JUMPDEST DUP2 ADD SWAP1 DUP1 DUP1 MLOAD SWAP1 PUSH1 0x20 ADD SWAP1 SWAP3 SWAP2 SWAP1 POP POP POP PUSH20 0xFFFFFFFFFFFFFFFFFFFFFFFFFFFFFFFFFFFFFFFF AND PUSH1 0x0 DUP1 SWAP1 SLOAD SWAP1 PUSH2 0x100 EXP SWAP1 DIV PUSH20 0xFFFFFFFFFFFFFFFFFFFFFFFFFFFFFFFFFFFFFFFF AND PUSH20 0xFFFFFFFFFFFFFFFFFFFFFFFFFFFFFFFFFFFFFFFF AND EQ PUSH2 0x251F JUMPI PUSH1 0x1 PUSH1 0x0 SWAP1 SLOAD SWAP1 PUSH2 0x100 EXP SWAP1 DIV PUSH20 0xFFFFFFFFFFFFFFFFFFFFFFFFFFFFFFFFFFFFFFFF AND PUSH20 0xFFFFFFFFFFFFFFFFFFFFFFFFFFFFFFFFFFFFFFFF AND PUSH4 0x38CC4831 PUSH1 0x40 MLOAD DUP2 PUSH4 0xFFFFFFFF AND PUSH1 0xE0 SHL DUP2 MSTORE PUSH1 0x4 ADD PUSH1 0x20 PUSH1 0x40 MLOAD DUP1 DUP4 SUB DUP2 PUSH1 0x0 DUP8 DUP1 EXTCODESIZE ISZERO DUP1 ISZERO PUSH2 0x24A4 JUMPI PUSH1 0x0 DUP1 REVERT JUMPDEST POP GAS CALL ISZERO DUP1 ISZERO PUSH2 0x24B8 JUMPI RETURNDATASIZE PUSH1 0x0 DUP1 RETURNDATACOPY RETURNDATASIZE PUSH1 0x0 REVERT JUMPDEST POP POP POP POP PUSH1 0x40 MLOAD RETURNDATASIZE PUSH1 0x20 DUP2 LT ISZERO PUSH2 0x24CE JUMPI PUSH1 0x0 DUP1 REVERT JUMPDEST DUP2 ADD SWAP1 DUP1 DUP1 MLOAD SWAP1 PUSH1 0x20 ADD SWAP1 SWAP3 SWAP2 SWAP1 POP POP POP PUSH1 0x0 DUP1 PUSH2 0x100 EXP DUP2 SLOAD DUP2 PUSH20 0xFFFFFFFFFFFFFFFFFFFFFFFFFFFFFFFFFFFFFFFF MUL NOT AND SWAP1 DUP4 PUSH20 0xFFFFFFFFFFFFFFFFFFFFFFFFFFFFFFFFFFFFFFFF AND MUL OR SWAP1 SSTORE POP JUMPDEST PUSH1 0x60 PUSH1 0x4 PUSH1 0x40 MLOAD SWAP1 DUP1 DUP3 MSTORE DUP1 PUSH1 0x20 MUL PUSH1 0x20 ADD DUP3 ADD PUSH1 0x40 MSTORE DUP1 ISZERO PUSH2 0x2556 JUMPI DUP2 PUSH1 0x20 ADD JUMPDEST PUSH1 0x60 DUP2 MSTORE PUSH1 0x20 ADD SWAP1 PUSH1 0x1 SWAP1 SUB SWAP1 DUP2 PUSH2 0x2541 JUMPI SWAP1 POP JUMPDEST POP SWAP1 POP DUP4 PUSH1 0x0 PUSH1 0x4 DUP2 LT PUSH2 0x2566 JUMPI INVALID JUMPDEST PUSH1 0x20 MUL ADD MLOAD DUP2 PUSH1 0x0 DUP2 MLOAD DUP2 LT PUSH2 0x2578 JUMPI INVALID JUMPDEST PUSH1 0x20 MUL PUSH1 0x20 ADD ADD DUP2 SWAP1 MSTORE POP DUP4 PUSH1 0x1 PUSH1 0x4 DUP2 LT PUSH2 0x2590 JUMPI INVALID JUMPDEST PUSH1 0x20 MUL ADD MLOAD DUP2 PUSH1 0x1 DUP2 MLOAD DUP2 LT PUSH2 0x25A2 JUMPI INVALID JUMPDEST PUSH1 0x20 MUL PUSH1 0x20 ADD ADD DUP2 SWAP1 MSTORE POP DUP4 PUSH1 0x2 PUSH1 0x4 DUP2 LT PUSH2 0x25BA JUMPI INVALID JUMPDEST PUSH1 0x20 MUL ADD MLOAD DUP2 PUSH1 0x2 DUP2 MLOAD DUP2 LT PUSH2 0x25CC JUMPI INVALID JUMPDEST PUSH1 0x20 MUL PUSH1 0x20 ADD ADD DUP2 SWAP1 MSTORE POP DUP4 PUSH1 0x3 PUSH1 0x4 DUP2 LT PUSH2 0x25E4 JUMPI INVALID JUMPDEST PUSH1 0x20 MUL ADD MLOAD DUP2 PUSH1 0x3 DUP2 MLOAD DUP2 LT PUSH2 0x25F6 JUMPI INVALID JUMPDEST PUSH1 0x20 MUL PUSH1 0x20 ADD ADD DUP2 SWAP1 MSTORE POP PUSH2 0x260C DUP6 DUP3 DUP6 PUSH2 0x320F JUMP JUMPDEST SWAP2 POP POP SWAP4 SWAP3 POP POP POP JUMP JUMPDEST DUP1 PUSH1 0x3 PUSH1 0x0 DUP5 DUP2 MSTORE PUSH1 0x20 ADD SWAP1 DUP2 MSTORE PUSH1 0x20 ADD PUSH1 0x0 KECCAK256 DUP2 SWAP1 SSTORE POP POP POP JUMP JUMPDEST PUSH1 0x0 DUP1 PUSH2 0x2652 PUSH20 0x1D3B2638A7CC9F2CB3D298A3DA7A90B67E5506ED PUSH2 0x17C4 JUMP JUMPDEST GT ISZERO PUSH2 0x26F4 JUMPI PUSH20 0x1D3B2638A7CC9F2CB3D298A3DA7A90B67E5506ED PUSH1 0x1 PUSH1 0x0 PUSH2 0x100 EXP DUP2 SLOAD DUP2 PUSH20 0xFFFFFFFFFFFFFFFFFFFFFFFFFFFFFFFFFFFFFFFF MUL NOT AND SWAP1 DUP4 PUSH20 0xFFFFFFFFFFFFFFFFFFFFFFFFFFFFFFFFFFFFFFFF AND MUL OR SWAP1 SSTORE POP PUSH2 0x26EB PUSH1 0x40 MLOAD DUP1 PUSH1 0x40 ADD PUSH1 0x40 MSTORE DUP1 PUSH1 0xB DUP2 MSTORE PUSH1 0x20 ADD PUSH32 0x6574685F6D61696E6E6574000000000000000000000000000000000000000000 DUP2 MSTORE POP PUSH2 0x3771 JUMP JUMPDEST PUSH1 0x1 SWAP1 POP PUSH2 0x2B86 JUMP JUMPDEST PUSH1 0x0 PUSH2 0x2713 PUSH20 0xC03A2615D5EFAF5F49F60B7BB6583EAEC212FDF1 PUSH2 0x17C4 JUMP JUMPDEST GT ISZERO PUSH2 0x27B5 JUMPI PUSH20 0xC03A2615D5EFAF5F49F60B7BB6583EAEC212FDF1 PUSH1 0x1 PUSH1 0x0 PUSH2 0x100 EXP DUP2 SLOAD DUP2 PUSH20 0xFFFFFFFFFFFFFFFFFFFFFFFFFFFFFFFFFFFFFFFF MUL NOT AND SWAP1 DUP4 PUSH20 0xFFFFFFFFFFFFFFFFFFFFFFFFFFFFFFFFFFFFFFFF AND MUL OR SWAP1 SSTORE POP PUSH2 0x27AC PUSH1 0x40 MLOAD DUP1 PUSH1 0x40 ADD PUSH1 0x40 MSTORE DUP1 PUSH1 0xC DUP2 MSTORE PUSH1 0x20 ADD PUSH32 0x6574685F726F707374656E330000000000000000000000000000000000000000 DUP2 MSTORE POP PUSH2 0x3771 JUMP JUMPDEST PUSH1 0x1 SWAP1 POP PUSH2 0x2B86 JUMP JUMPDEST PUSH1 0x0 PUSH2 0x27D4 PUSH20 0xB7A07BCF2BA2F2703B24C0691B5278999C59AC7E PUSH2 0x17C4 JUMP JUMPDEST GT ISZERO PUSH2 0x2876 JUMPI PUSH20 0xB7A07BCF2BA2F2703B24C0691B5278999C59AC7E PUSH1 0x1 PUSH1 0x0 PUSH2 0x100 EXP DUP2 SLOAD DUP2 PUSH20 0xFFFFFFFFFFFFFFFFFFFFFFFFFFFFFFFFFFFFFFFF MUL NOT AND SWAP1 DUP4 PUSH20 0xFFFFFFFFFFFFFFFFFFFFFFFFFFFFFFFFFFFFFFFF AND MUL OR SWAP1 SSTORE POP PUSH2 0x286D PUSH1 0x40 MLOAD DUP1 PUSH1 0x40 ADD PUSH1 0x40 MSTORE DUP1 PUSH1 0x9 DUP2 MSTORE PUSH1 0x20 ADD PUSH32 0x6574685F6B6F76616E0000000000000000000000000000000000000000000000 DUP2 MSTORE POP PUSH2 0x3771 JUMP JUMPDEST PUSH1 0x1 SWAP1 POP PUSH2 0x2B86 JUMP JUMPDEST PUSH1 0x0 PUSH2 0x2895 PUSH20 0x146500CFD35B22E4A392FE0ADC06DE1A1368ED48 PUSH2 0x17C4 JUMP JUMPDEST GT ISZERO PUSH2 0x2937 JUMPI PUSH20 0x146500CFD35B22E4A392FE0ADC06DE1A1368ED48 PUSH1 0x1 PUSH1 0x0 PUSH2 0x100 EXP DUP2 SLOAD DUP2 PUSH20 0xFFFFFFFFFFFFFFFFFFFFFFFFFFFFFFFFFFFFFFFF MUL NOT AND SWAP1 DUP4 PUSH20 0xFFFFFFFFFFFFFFFFFFFFFFFFFFFFFFFFFFFFFFFF AND MUL OR SWAP1 SSTORE POP PUSH2 0x292E PUSH1 0x40 MLOAD DUP1 PUSH1 0x40 ADD PUSH1 0x40 MSTORE DUP1 PUSH1 0xB DUP2 MSTORE PUSH1 0x20 ADD PUSH32 0x6574685F72696E6B656279000000000000000000000000000000000000000000 DUP2 MSTORE POP PUSH2 0x3771 JUMP JUMPDEST PUSH1 0x1 SWAP1 POP PUSH2 0x2B86 JUMP JUMPDEST PUSH1 0x0 PUSH2 0x2956 PUSH20 0xA2998EFD205FB9D4B4963AFB70778D6354AD3A41 PUSH2 0x17C4 JUMP JUMPDEST GT ISZERO PUSH2 0x29F8 JUMPI PUSH20 0xA2998EFD205FB9D4B4963AFB70778D6354AD3A41 PUSH1 0x1 PUSH1 0x0 PUSH2 0x100 EXP DUP2 SLOAD DUP2 PUSH20 0xFFFFFFFFFFFFFFFFFFFFFFFFFFFFFFFFFFFFFFFF MUL NOT AND SWAP1 DUP4 PUSH20 0xFFFFFFFFFFFFFFFFFFFFFFFFFFFFFFFFFFFFFFFF AND MUL OR SWAP1 SSTORE POP PUSH2 0x29EF PUSH1 0x40 MLOAD DUP1 PUSH1 0x40 ADD PUSH1 0x40 MSTORE DUP1 PUSH1 0xA DUP2 MSTORE PUSH1 0x20 ADD PUSH32 0x6574685F676F65726C6900000000000000000000000000000000000000000000 DUP2 MSTORE POP PUSH2 0x3771 JUMP JUMPDEST PUSH1 0x1 SWAP1 POP PUSH2 0x2B86 JUMP JUMPDEST PUSH1 0x0 PUSH2 0x2A17 PUSH20 0x6F485C8BF6FC43EA212E93BBF8CE046C7F1CB475 PUSH2 0x17C4 JUMP JUMPDEST GT ISZERO PUSH2 0x2A7B JUMPI PUSH20 0x6F485C8BF6FC43EA212E93BBF8CE046C7F1CB475 PUSH1 0x1 PUSH1 0x0 PUSH2 0x100 EXP DUP2 SLOAD DUP2 PUSH20 0xFFFFFFFFFFFFFFFFFFFFFFFFFFFFFFFFFFFFFFFF MUL NOT AND SWAP1 DUP4 PUSH20 0xFFFFFFFFFFFFFFFFFFFFFFFFFFFFFFFFFFFFFFFF AND MUL OR SWAP1 SSTORE POP PUSH1 0x1 SWAP1 POP PUSH2 0x2B86 JUMP JUMPDEST PUSH1 0x0 PUSH2 0x2A9A PUSH20 0x20E12A1F859B3FEAE5FB2A0A32C18F5A65555BBF PUSH2 0x17C4 JUMP JUMPDEST GT ISZERO PUSH2 0x2AFE JUMPI PUSH20 0x20E12A1F859B3FEAE5FB2A0A32C18F5A65555BBF PUSH1 0x1 PUSH1 0x0 PUSH2 0x100 EXP DUP2 SLOAD DUP2 PUSH20 0xFFFFFFFFFFFFFFFFFFFFFFFFFFFFFFFFFFFFFFFF MUL NOT AND SWAP1 DUP4 PUSH20 0xFFFFFFFFFFFFFFFFFFFFFFFFFFFFFFFFFFFFFFFF AND MUL OR SWAP1 SSTORE POP PUSH1 0x1 SWAP1 POP PUSH2 0x2B86 JUMP JUMPDEST PUSH1 0x0 PUSH2 0x2B1D PUSH20 0x51EFAF4C8B3C9AFBD5AB9F4BBC82784AB6EF8FAA PUSH2 0x17C4 JUMP JUMPDEST GT ISZERO PUSH2 0x2B81 JUMPI PUSH20 0x51EFAF4C8B3C9AFBD5AB9F4BBC82784AB6EF8FAA PUSH1 0x1 PUSH1 0x0 PUSH2 0x100 EXP DUP2 SLOAD DUP2 PUSH20 0xFFFFFFFFFFFFFFFFFFFFFFFFFFFFFFFFFFFFFFFF MUL NOT AND SWAP1 DUP4 PUSH20 0xFFFFFFFFFFFFFFFFFFFFFFFFFFFFFFFFFFFFFFFF AND MUL OR SWAP1 SSTORE POP PUSH1 0x1 SWAP1 POP PUSH2 0x2B86 JUMP JUMPDEST PUSH1 0x0 SWAP1 POP JUMPDEST SWAP1 JUMP JUMPDEST PUSH1 0x0 DUP1 PUSH1 0x1 SWAP1 POP DUP3 DUP5 MLOAD EQ PUSH2 0x2B9D JUMPI PUSH1 0x0 DUP1 REVERT JUMPDEST PUSH1 0x0 DUP1 SWAP1 POP JUMPDEST DUP4 DUP2 LT ISZERO PUSH2 0x2C2D JUMPI DUP5 DUP2 DUP2 MLOAD DUP2 LT PUSH2 0x2BB7 JUMPI INVALID JUMPDEST PUSH1 0x20 ADD ADD MLOAD PUSH1 0xF8 SHR PUSH1 0xF8 SHL PUSH31 0xFFFFFFFFFFFFFFFFFFFFFFFFFFFFFFFFFFFFFFFFFFFFFFFFFFFFFFFFFFFFFF NOT AND DUP7 DUP3 PUSH1 0x20 DUP2 LT PUSH2 0x2BF0 JUMPI INVALID JUMPDEST BYTE PUSH1 0xF8 SHL PUSH31 0xFFFFFFFFFFFFFFFFFFFFFFFFFFFFFFFFFFFFFFFFFFFFFFFFFFFFFFFFFFFFFF NOT AND EQ PUSH2 0x2C20 JUMPI PUSH1 0x0 SWAP2 POP JUMPDEST DUP1 DUP1 PUSH1 0x1 ADD SWAP2 POP POP PUSH2 0x2BA3 JUMP JUMPDEST POP DUP1 SWAP2 POP POP SWAP4 SWAP3 POP POP POP JUMP JUMPDEST PUSH1 0x0 DUP1 PUSH1 0x0 DUP1 PUSH1 0x0 PUSH1 0x60 PUSH1 0x20 PUSH1 0x40 MLOAD SWAP1 DUP1 DUP3 MSTORE DUP1 PUSH1 0x1F ADD PUSH1 0x1F NOT AND PUSH1 0x20 ADD DUP3 ADD PUSH1 0x40 MSTORE DUP1 ISZERO PUSH2 0x2C77 JUMPI DUP2 PUSH1 0x20 ADD PUSH1 0x1 DUP3 MUL DUP1 CODESIZE DUP4 CODECOPY DUP1 DUP3 ADD SWAP2 POP POP SWAP1 POP JUMPDEST POP SWAP1 POP PUSH1 0x0 PUSH1 0x20 DUP10 PUSH1 0x3 DUP2 MLOAD DUP2 LT PUSH2 0x2C8B JUMPI INVALID JUMPDEST PUSH1 0x20 ADD ADD MLOAD PUSH1 0xF8 SHR PUSH1 0xF8 SHL PUSH1 0xF8 SHR PUSH1 0xFF AND SUB PUSH1 0x4 ADD SWAP1 POP PUSH2 0x2CB1 DUP10 DUP3 PUSH1 0x20 DUP6 PUSH1 0x0 PUSH2 0x224A JUMP JUMPDEST SWAP2 POP PUSH1 0x60 PUSH1 0x20 PUSH1 0x40 MLOAD SWAP1 DUP1 DUP3 MSTORE DUP1 PUSH1 0x1F ADD PUSH1 0x1F NOT AND PUSH1 0x20 ADD DUP3 ADD PUSH1 0x40 MSTORE DUP1 ISZERO PUSH2 0x2CE9 JUMPI DUP2 PUSH1 0x20 ADD PUSH1 0x1 DUP3 MUL DUP1 CODESIZE DUP4 CODECOPY DUP1 DUP3 ADD SWAP2 POP POP SWAP1 POP JUMPDEST POP SWAP1 POP PUSH1 0x22 DUP3 ADD SWAP2 POP PUSH2 0x2D25 DUP11 PUSH1 0x20 DUP13 PUSH1 0x1 DUP7 SUB DUP2 MLOAD DUP2 LT PUSH2 0x2D07 JUMPI INVALID JUMPDEST PUSH1 0x20 ADD ADD MLOAD PUSH1 0xF8 SHR PUSH1 0xF8 SHL PUSH1 0xF8 SHR PUSH1 0xFF AND SUB DUP5 ADD PUSH1 0x20 DUP5 PUSH1 0x0 PUSH2 0x224A JUMP JUMPDEST SWAP1 POP PUSH1 0x20 DUP4 ADD MLOAD SWAP5 POP PUSH1 0x20 DUP2 ADD MLOAD SWAP4 POP PUSH2 0x2D42 DUP12 PUSH1 0x1B DUP8 DUP8 PUSH2 0x378B JUMP JUMPDEST DUP1 SWAP8 POP DUP2 SWAP9 POP POP POP DUP6 PUSH20 0xFFFFFFFFFFFFFFFFFFFFFFFFFFFFFFFFFFFFFFFF AND DUP10 DUP1 MLOAD SWAP1 PUSH1 0x20 ADD KECCAK256 PUSH1 0x0 SHR PUSH20 0xFFFFFFFFFFFFFFFFFFFFFFFFFFFFFFFFFFFFFFFF AND EQ ISZERO PUSH2 0x2D98 JUMPI PUSH1 0x1 SWAP8 POP POP POP POP POP POP POP POP PUSH2 0x2DF0 JUMP JUMPDEST PUSH2 0x2DA5 DUP12 PUSH1 0x1C DUP8 DUP8 PUSH2 0x378B JUMP JUMPDEST DUP1 SWAP8 POP DUP2 SWAP9 POP POP POP DUP6 PUSH20 0xFFFFFFFFFFFFFFFFFFFFFFFFFFFFFFFFFFFFFFFF AND DUP10 DUP1 MLOAD SWAP1 PUSH1 0x20 ADD KECCAK256 PUSH1 0x0 SHR PUSH20 0xFFFFFFFFFFFFFFFFFFFFFFFFFFFFFFFFFFFFFFFF AND EQ SWAP8 POP POP POP POP POP POP POP POP JUMPDEST SWAP4 SWAP3 POP POP POP JUMP JUMPDEST PUSH1 0x0 DUP1 PUSH1 0x60 PUSH1 0x2 DUP6 PUSH1 0x1 DUP7 ADD DUP2 MLOAD DUP2 LT PUSH2 0x2E0D JUMPI INVALID JUMPDEST PUSH1 0x20 ADD ADD MLOAD PUSH1 0xF8 SHR PUSH1 0xF8 SHL PUSH1 0xF8 SHR PUSH1 0xFF AND ADD PUSH1 0x40 MLOAD SWAP1 DUP1 DUP3 MSTORE DUP1 PUSH1 0x1F ADD PUSH1 0x1F NOT AND PUSH1 0x20 ADD DUP3 ADD PUSH1 0x40 MSTORE DUP1 ISZERO PUSH2 0x2E51 JUMPI DUP2 PUSH1 0x20 ADD PUSH1 0x1 DUP3 MUL DUP1 CODESIZE DUP4 CODECOPY DUP1 DUP3 ADD SWAP2 POP POP SWAP1 POP JUMPDEST POP SWAP1 POP PUSH2 0x2E63 DUP6 DUP6 DUP4 MLOAD DUP5 PUSH1 0x0 PUSH2 0x224A JUMP JUMPDEST POP PUSH1 0x60 PUSH1 0x40 DUP1 MLOAD SWAP1 DUP1 DUP3 MSTORE DUP1 PUSH1 0x1F ADD PUSH1 0x1F NOT AND PUSH1 0x20 ADD DUP3 ADD PUSH1 0x40 MSTORE DUP1 ISZERO PUSH2 0x2E99 JUMPI DUP2 PUSH1 0x20 ADD PUSH1 0x1 DUP3 MUL DUP1 CODESIZE DUP4 CODECOPY DUP1 DUP3 ADD SWAP2 POP POP SWAP1 POP JUMPDEST POP SWAP1 POP PUSH2 0x2EAC DUP7 PUSH1 0x4 PUSH1 0x40 DUP5 PUSH1 0x0 PUSH2 0x224A JUMP JUMPDEST POP PUSH1 0x60 PUSH1 0x62 PUSH1 0x40 MLOAD SWAP1 DUP1 DUP3 MSTORE DUP1 PUSH1 0x1F ADD PUSH1 0x1F NOT AND PUSH1 0x20 ADD DUP3 ADD PUSH1 0x40 MSTORE DUP1 ISZERO PUSH2 0x2EE3 JUMPI DUP2 PUSH1 0x20 ADD PUSH1 0x1 DUP3 MUL DUP1 CODESIZE DUP4 CODECOPY DUP1 DUP3 ADD SWAP2 POP POP SWAP1 POP JUMPDEST POP SWAP1 POP PUSH1 0x1 PUSH1 0xF8 SHL DUP2 PUSH1 0x0 DUP2 MLOAD DUP2 LT PUSH2 0x2EF8 JUMPI INVALID JUMPDEST PUSH1 0x20 ADD ADD SWAP1 PUSH31 0xFFFFFFFFFFFFFFFFFFFFFFFFFFFFFFFFFFFFFFFFFFFFFFFFFFFFFFFFFFFFFF NOT AND SWAP1 DUP2 PUSH1 0x0 BYTE SWAP1 MSTORE8 POP PUSH2 0x2F39 DUP8 PUSH1 0x41 DUP9 SUB PUSH1 0x41 DUP5 PUSH1 0x1 PUSH2 0x224A JUMP JUMPDEST POP PUSH1 0x60 PUSH1 0x40 MLOAD DUP1 PUSH1 0x40 ADD PUSH1 0x40 MSTORE DUP1 PUSH1 0x20 DUP2 MSTORE PUSH1 0x20 ADD PUSH32 0xFD94FA71BC0BA10D39D464D0D8F465EFEEF0A2764E3887FCC9DF41DED20F505C DUP2 MSTORE POP SWAP1 POP PUSH2 0x2F84 DUP2 PUSH1 0x0 PUSH1 0x20 DUP6 PUSH1 0x42 PUSH2 0x224A JUMP JUMPDEST POP PUSH2 0x302D PUSH1 0x2 DUP4 PUSH1 0x40 MLOAD DUP1 DUP3 DUP1 MLOAD SWAP1 PUSH1 0x20 ADD SWAP1 DUP1 DUP4 DUP4 JUMPDEST PUSH1 0x20 DUP4 LT PUSH2 0x2FBE JUMPI DUP1 MLOAD DUP3 MSTORE PUSH1 0x20 DUP3 ADD SWAP2 POP PUSH1 0x20 DUP2 ADD SWAP1 POP PUSH1 0x20 DUP4 SUB SWAP3 POP PUSH2 0x2F9B JUMP JUMPDEST PUSH1 0x1 DUP4 PUSH1 0x20 SUB PUSH2 0x100 EXP SUB DUP1 NOT DUP3 MLOAD AND DUP2 DUP5 MLOAD AND DUP1 DUP3 OR DUP6 MSTORE POP POP POP POP POP POP SWAP1 POP ADD SWAP2 POP POP PUSH1 0x20 PUSH1 0x40 MLOAD DUP1 DUP4 SUB DUP2 DUP6 GAS STATICCALL ISZERO DUP1 ISZERO PUSH2 0x3000 JUMPI RETURNDATASIZE PUSH1 0x0 DUP1 RETURNDATACOPY RETURNDATASIZE PUSH1 0x0 REVERT JUMPDEST POP POP POP PUSH1 0x40 MLOAD RETURNDATASIZE PUSH1 0x20 DUP2 LT ISZERO PUSH2 0x3015 JUMPI PUSH1 0x0 DUP1 REVERT JUMPDEST DUP2 ADD SWAP1 DUP1 DUP1 MLOAD SWAP1 PUSH1 0x20 ADD SWAP1 SWAP3 SWAP2 SWAP1 POP POP POP DUP6 DUP6 PUSH2 0x2C39 JUMP JUMPDEST SWAP5 POP DUP5 PUSH2 0x3042 JUMPI PUSH1 0x0 SWAP6 POP POP POP POP POP POP PUSH2 0x3209 JUMP JUMPDEST PUSH1 0x60 PUSH1 0x40 MLOAD DUP1 PUSH1 0x60 ADD PUSH1 0x40 MSTORE DUP1 PUSH1 0x40 DUP2 MSTORE PUSH1 0x20 ADD PUSH2 0x3D43 PUSH1 0x40 SWAP2 CODECOPY SWAP1 POP PUSH1 0x60 PUSH1 0x42 PUSH1 0x40 MLOAD SWAP1 DUP1 DUP3 MSTORE DUP1 PUSH1 0x1F ADD PUSH1 0x1F NOT AND PUSH1 0x20 ADD DUP3 ADD PUSH1 0x40 MSTORE DUP1 ISZERO PUSH2 0x3095 JUMPI DUP2 PUSH1 0x20 ADD PUSH1 0x1 DUP3 MUL DUP1 CODESIZE DUP4 CODECOPY DUP1 DUP3 ADD SWAP2 POP POP SWAP1 POP JUMPDEST POP SWAP1 POP PUSH1 0xFE PUSH1 0xF8 SHL DUP2 PUSH1 0x0 DUP2 MLOAD DUP2 LT PUSH2 0x30AA JUMPI INVALID JUMPDEST PUSH1 0x20 ADD ADD SWAP1 PUSH31 0xFFFFFFFFFFFFFFFFFFFFFFFFFFFFFFFFFFFFFFFFFFFFFFFFFFFFFFFFFFFFFF NOT AND SWAP1 DUP2 PUSH1 0x0 BYTE SWAP1 MSTORE8 POP PUSH2 0x30E9 DUP11 PUSH1 0x3 PUSH1 0x41 DUP5 PUSH1 0x1 PUSH2 0x224A JUMP JUMPDEST POP PUSH1 0x60 PUSH1 0x2 DUP12 PUSH1 0x45 DUP2 MLOAD DUP2 LT PUSH2 0x30FB JUMPI INVALID JUMPDEST PUSH1 0x20 ADD ADD MLOAD PUSH1 0xF8 SHR PUSH1 0xF8 SHL PUSH1 0xF8 SHR PUSH1 0xFF AND ADD PUSH1 0x40 MLOAD SWAP1 DUP1 DUP3 MSTORE DUP1 PUSH1 0x1F ADD PUSH1 0x1F NOT AND PUSH1 0x20 ADD DUP3 ADD PUSH1 0x40 MSTORE DUP1 ISZERO PUSH2 0x313F JUMPI DUP2 PUSH1 0x20 ADD PUSH1 0x1 DUP3 MUL DUP1 CODESIZE DUP4 CODECOPY DUP1 DUP3 ADD SWAP2 POP POP SWAP1 POP JUMPDEST POP SWAP1 POP PUSH2 0x3152 DUP12 PUSH1 0x44 DUP4 MLOAD DUP5 PUSH1 0x0 PUSH2 0x224A JUMP JUMPDEST POP PUSH2 0x31FB PUSH1 0x2 DUP4 PUSH1 0x40 MLOAD DUP1 DUP3 DUP1 MLOAD SWAP1 PUSH1 0x20 ADD SWAP1 DUP1 DUP4 DUP4 JUMPDEST PUSH1 0x20 DUP4 LT PUSH2 0x318C JUMPI DUP1 MLOAD DUP3 MSTORE PUSH1 0x20 DUP3 ADD SWAP2 POP PUSH1 0x20 DUP2 ADD SWAP1 POP PUSH1 0x20 DUP4 SUB SWAP3 POP PUSH2 0x3169 JUMP JUMPDEST PUSH1 0x1 DUP4 PUSH1 0x20 SUB PUSH2 0x100 EXP SUB DUP1 NOT DUP3 MLOAD AND DUP2 DUP5 MLOAD AND DUP1 DUP3 OR DUP6 MSTORE POP POP POP POP POP POP SWAP1 POP ADD SWAP2 POP POP PUSH1 0x20 PUSH1 0x40 MLOAD DUP1 DUP4 SUB DUP2 DUP6 GAS STATICCALL ISZERO DUP1 ISZERO PUSH2 0x31CE JUMPI RETURNDATASIZE PUSH1 0x0 DUP1 RETURNDATACOPY RETURNDATASIZE PUSH1 0x0 REVERT JUMPDEST POP POP POP PUSH1 0x40 MLOAD RETURNDATASIZE PUSH1 0x20 DUP2 LT ISZERO PUSH2 0x31E3 JUMPI PUSH1 0x0 DUP1 REVERT JUMPDEST DUP2 ADD SWAP1 DUP1 DUP1 MLOAD SWAP1 PUSH1 0x20 ADD SWAP1 SWAP3 SWAP2 SWAP1 POP POP POP DUP3 DUP6 PUSH2 0x2C39 JUMP JUMPDEST SWAP8 POP DUP8 SWAP9 POP POP POP POP POP POP POP POP POP JUMPDEST SWAP3 SWAP2 POP POP JUMP JUMPDEST PUSH1 0x0 DUP1 PUSH20 0xFFFFFFFFFFFFFFFFFFFFFFFFFFFFFFFFFFFFFFFF AND PUSH1 0x1 PUSH1 0x0 SWAP1 SLOAD SWAP1 PUSH2 0x100 EXP SWAP1 DIV PUSH20 0xFFFFFFFFFFFFFFFFFFFFFFFFFFFFFFFFFFFFFFFF AND PUSH20 0xFFFFFFFFFFFFFFFFFFFFFFFFFFFFFFFFFFFFFFFF AND EQ DUP1 PUSH2 0x3297 JUMPI POP PUSH1 0x0 PUSH2 0x3295 PUSH1 0x1 PUSH1 0x0 SWAP1 SLOAD SWAP1 PUSH2 0x100 EXP SWAP1 DIV PUSH20 0xFFFFFFFFFFFFFFFFFFFFFFFFFFFFFFFFFFFFFFFF AND PUSH2 0x17C4 JUMP JUMPDEST EQ JUMPDEST ISZERO PUSH2 0x32A8 JUMPI PUSH2 0x32A6 PUSH1 0x0 PUSH2 0x17CF JUMP JUMPDEST POP JUMPDEST PUSH1 0x1 PUSH1 0x0 SWAP1 SLOAD SWAP1 PUSH2 0x100 EXP SWAP1 DIV PUSH20 0xFFFFFFFFFFFFFFFFFFFFFFFFFFFFFFFFFFFFFFFF AND PUSH20 0xFFFFFFFFFFFFFFFFFFFFFFFFFFFFFFFFFFFFFFFF AND PUSH4 0x38CC4831 PUSH1 0x40 MLOAD DUP2 PUSH4 0xFFFFFFFF AND PUSH1 0xE0 SHL DUP2 MSTORE PUSH1 0x4 ADD PUSH1 0x20 PUSH1 0x40 MLOAD DUP1 DUP4 SUB DUP2 PUSH1 0x0 DUP8 DUP1 EXTCODESIZE ISZERO DUP1 ISZERO PUSH2 0x3312 JUMPI PUSH1 0x0 DUP1 REVERT JUMPDEST POP GAS CALL ISZERO DUP1 ISZERO PUSH2 0x3326 JUMPI RETURNDATASIZE PUSH1 0x0 DUP1 RETURNDATACOPY RETURNDATASIZE PUSH1 0x0 REVERT JUMPDEST POP POP POP POP PUSH1 0x40 MLOAD RETURNDATASIZE PUSH1 0x20 DUP2 LT ISZERO PUSH2 0x333C JUMPI PUSH1 0x0 DUP1 REVERT JUMPDEST DUP2 ADD SWAP1 DUP1 DUP1 MLOAD SWAP1 PUSH1 0x20 ADD SWAP1 SWAP3 SWAP2 SWAP1 POP POP POP PUSH20 0xFFFFFFFFFFFFFFFFFFFFFFFFFFFFFFFFFFFFFFFF AND PUSH1 0x0 DUP1 SWAP1 SLOAD SWAP1 PUSH2 0x100 EXP SWAP1 DIV PUSH20 0xFFFFFFFFFFFFFFFFFFFFFFFFFFFFFFFFFFFFFFFF AND PUSH20 0xFFFFFFFFFFFFFFFFFFFFFFFFFFFFFFFFFFFFFFFF AND EQ PUSH2 0x3485 JUMPI PUSH1 0x1 PUSH1 0x0 SWAP1 SLOAD SWAP1 PUSH2 0x100 EXP SWAP1 DIV PUSH20 0xFFFFFFFFFFFFFFFFFFFFFFFFFFFFFFFFFFFFFFFF AND PUSH20 0xFFFFFFFFFFFFFFFFFFFFFFFFFFFFFFFFFFFFFFFF AND PUSH4 0x38CC4831 PUSH1 0x40 MLOAD DUP2 PUSH4 0xFFFFFFFF AND PUSH1 0xE0 SHL DUP2 MSTORE PUSH1 0x4 ADD PUSH1 0x20 PUSH1 0x40 MLOAD DUP1 DUP4 SUB DUP2 PUSH1 0x0 DUP8 DUP1 EXTCODESIZE ISZERO DUP1 ISZERO PUSH2 0x340A JUMPI PUSH1 0x0 DUP1 REVERT JUMPDEST POP GAS CALL ISZERO DUP1 ISZERO PUSH2 0x341E JUMPI RETURNDATASIZE PUSH1 0x0 DUP1 RETURNDATACOPY RETURNDATASIZE PUSH1 0x0 REVERT JUMPDEST POP POP POP POP PUSH1 0x40 MLOAD RETURNDATASIZE PUSH1 0x20 DUP2 LT ISZERO PUSH2 0x3434 JUMPI PUSH1 0x0 DUP1 REVERT JUMPDEST DUP2 ADD SWAP1 DUP1 DUP1 MLOAD SWAP1 PUSH1 0x20 ADD SWAP1 SWAP3 SWAP2 SWAP1 POP POP POP PUSH1 0x0 DUP1 PUSH2 0x100 EXP DUP2 SLOAD DUP2 PUSH20 0xFFFFFFFFFFFFFFFFFFFFFFFFFFFFFFFFFFFFFFFF MUL NOT AND SWAP1 DUP4 PUSH20 0xFFFFFFFFFFFFFFFFFFFFFFFFFFFFFFFFFFFFFFFF AND MUL OR SWAP1 SSTORE POP JUMPDEST PUSH1 0x0 DUP1 PUSH1 0x0 SWAP1 SLOAD SWAP1 PUSH2 0x100 EXP SWAP1 DIV PUSH20 0xFFFFFFFFFFFFFFFFFFFFFFFFFFFFFFFFFFFFFFFF AND PUSH20 0xFFFFFFFFFFFFFFFFFFFFFFFFFFFFFFFFFFFFFFFF AND PUSH4 0x2EF3ACCC DUP7 DUP6 PUSH1 0x40 MLOAD DUP4 PUSH4 0xFFFFFFFF AND PUSH1 0xE0 SHL DUP2 MSTORE PUSH1 0x4 ADD DUP1 DUP1 PUSH1 0x20 ADD DUP4 DUP2 MSTORE PUSH1 0x20 ADD DUP3 DUP2 SUB DUP3 MSTORE DUP5 DUP2 DUP2 MLOAD DUP2 MSTORE PUSH1 0x20 ADD SWAP2 POP DUP1 MLOAD SWAP1 PUSH1 0x20 ADD SWAP1 DUP1 DUP4 DUP4 PUSH1 0x0 JUMPDEST DUP4 DUP2 LT ISZERO PUSH2 0x351B JUMPI DUP1 DUP3 ADD MLOAD DUP2 DUP5 ADD MSTORE PUSH1 0x20 DUP2 ADD SWAP1 POP PUSH2 0x3500 JUMP JUMPDEST POP POP POP POP SWAP1 POP SWAP1 DUP2 ADD SWAP1 PUSH1 0x1F AND DUP1 ISZERO PUSH2 0x3548 JUMPI DUP1 DUP3 SUB DUP1 MLOAD PUSH1 0x1 DUP4 PUSH1 0x20 SUB PUSH2 0x100 EXP SUB NOT AND DUP2 MSTORE PUSH1 0x20 ADD SWAP2 POP JUMPDEST POP SWAP4 POP POP POP POP PUSH1 0x20 PUSH1 0x40 MLOAD DUP1 DUP4 SUB DUP2 PUSH1 0x0 DUP8 DUP1 EXTCODESIZE ISZERO DUP1 ISZERO PUSH2 0x3568 JUMPI PUSH1 0x0 DUP1 REVERT JUMPDEST POP GAS CALL ISZERO DUP1 ISZERO PUSH2 0x357C JUMPI RETURNDATASIZE PUSH1 0x0 DUP1 RETURNDATACOPY RETURNDATASIZE PUSH1 0x0 REVERT JUMPDEST POP POP POP POP PUSH1 0x40 MLOAD RETURNDATASIZE PUSH1 0x20 DUP2 LT ISZERO PUSH2 0x3592 JUMPI PUSH1 0x0 DUP1 REVERT JUMPDEST DUP2 ADD SWAP1 DUP1 DUP1 MLOAD SWAP1 PUSH1 0x20 ADD SWAP1 SWAP3 SWAP2 SWAP1 POP POP POP SWAP1 POP DUP3 GASPRICE MUL PUSH8 0xDE0B6B3A7640000 ADD DUP2 GT ISZERO PUSH2 0x35C5 JUMPI PUSH1 0x0 DUP1 SHL SWAP2 POP POP PUSH2 0x376A JUMP JUMPDEST PUSH1 0x60 PUSH2 0x35D0 DUP6 PUSH2 0x37CF JUMP JUMPDEST SWAP1 POP PUSH1 0x0 DUP1 SWAP1 SLOAD SWAP1 PUSH2 0x100 EXP SWAP1 DIV PUSH20 0xFFFFFFFFFFFFFFFFFFFFFFFFFFFFFFFFFFFFFFFF AND PUSH20 0xFFFFFFFFFFFFFFFFFFFFFFFFFFFFFFFFFFFFFFFF AND PUSH4 0xC55C1CB6 DUP4 PUSH1 0x0 DUP10 DUP6 DUP10 PUSH1 0x40 MLOAD DUP7 PUSH4 0xFFFFFFFF AND PUSH1 0xE0 SHL DUP2 MSTORE PUSH1 0x4 ADD DUP1 DUP6 DUP2 MSTORE PUSH1 0x20 ADD DUP1 PUSH1 0x20 ADD DUP1 PUSH1 0x20 ADD DUP5 DUP2 MSTORE PUSH1 0x20 ADD DUP4 DUP2 SUB DUP4 MSTORE DUP7 DUP2 DUP2 MLOAD DUP2 MSTORE PUSH1 0x20 ADD SWAP2 POP DUP1 MLOAD SWAP1 PUSH1 0x20 ADD SWAP1 DUP1 DUP4 DUP4 PUSH1 0x0 JUMPDEST DUP4 DUP2 LT ISZERO PUSH2 0x3674 JUMPI DUP1 DUP3 ADD MLOAD DUP2 DUP5 ADD MSTORE PUSH1 0x20 DUP2 ADD SWAP1 POP PUSH2 0x3659 JUMP JUMPDEST POP POP POP POP SWAP1 POP SWAP1 DUP2 ADD SWAP1 PUSH1 0x1F AND DUP1 ISZERO PUSH2 0x36A1 JUMPI DUP1 DUP3 SUB DUP1 MLOAD PUSH1 0x1 DUP4 PUSH1 0x20 SUB PUSH2 0x100 EXP SUB NOT AND DUP2 MSTORE PUSH1 0x20 ADD SWAP2 POP JUMPDEST POP DUP4 DUP2 SUB DUP3 MSTORE DUP6 DUP2 DUP2 MLOAD DUP2 MSTORE PUSH1 0x20 ADD SWAP2 POP DUP1 MLOAD SWAP1 PUSH1 0x20 ADD SWAP1 DUP1 DUP4 DUP4 PUSH1 0x0 JUMPDEST DUP4 DUP2 LT ISZERO PUSH2 0x36DA JUMPI DUP1 DUP3 ADD MLOAD DUP2 DUP5 ADD MSTORE PUSH1 0x20 DUP2 ADD SWAP1 POP PUSH2 0x36BF JUMP JUMPDEST POP POP POP POP SWAP1 POP SWAP1 DUP2 ADD SWAP1 PUSH1 0x1F AND DUP1 ISZERO PUSH2 0x3707 JUMPI DUP1 DUP3 SUB DUP1 MLOAD PUSH1 0x1 DUP4 PUSH1 0x20 SUB PUSH2 0x100 EXP SUB NOT AND DUP2 MSTORE PUSH1 0x20 ADD SWAP2 POP JUMPDEST POP SWAP7 POP POP POP POP POP POP POP PUSH1 0x20 PUSH1 0x40 MLOAD DUP1 DUP4 SUB DUP2 DUP6 DUP9 DUP1 EXTCODESIZE ISZERO DUP1 ISZERO PUSH2 0x3729 JUMPI PUSH1 0x0 DUP1 REVERT JUMPDEST POP GAS CALL ISZERO DUP1 ISZERO PUSH2 0x373D JUMPI RETURNDATASIZE PUSH1 0x0 DUP1 RETURNDATACOPY RETURNDATASIZE PUSH1 0x0 REVERT JUMPDEST POP POP POP POP POP PUSH1 0x40 MLOAD RETURNDATASIZE PUSH1 0x20 DUP2 LT ISZERO PUSH2 0x3754 JUMPI PUSH1 0x0 DUP1 REVERT JUMPDEST DUP2 ADD SWAP1 DUP1 DUP1 MLOAD SWAP1 PUSH1 0x20 ADD SWAP1 SWAP3 SWAP2 SWAP1 POP POP POP SWAP3 POP POP POP JUMPDEST SWAP4 SWAP3 POP POP POP JUMP JUMPDEST DUP1 PUSH1 0x2 SWAP1 DUP1 MLOAD SWAP1 PUSH1 0x20 ADD SWAP1 PUSH2 0x3787 SWAP3 SWAP2 SWAP1 PUSH2 0x3BFF JUMP JUMPDEST POP POP JUMP JUMPDEST PUSH1 0x0 DUP1 PUSH1 0x0 DUP1 PUSH1 0x40 MLOAD DUP9 DUP2 MSTORE DUP8 PUSH1 0x20 DUP3 ADD MSTORE DUP7 PUSH1 0x40 DUP3 ADD MSTORE DUP6 PUSH1 0x60 DUP3 ADD MSTORE PUSH1 0x20 DUP2 PUSH1 0x80 DUP4 PUSH1 0x0 PUSH1 0x1 PUSH2 0xBB8 CALL SWAP3 POP DUP1 MLOAD SWAP2 POP POP DUP2 DUP2 SWAP4 POP SWAP4 POP POP POP SWAP5 POP SWAP5 SWAP3 POP POP POP JUMP JUMPDEST PUSH1 0x60 PUSH2 0x37D9 PUSH2 0x384F JUMP JUMPDEST PUSH2 0x37E1 PUSH2 0x3C7F JUMP JUMPDEST PUSH2 0x37ED DUP2 PUSH2 0x400 PUSH2 0x385B JUMP JUMPDEST PUSH2 0x37F6 DUP2 PUSH2 0x38A5 JUMP JUMPDEST PUSH1 0x0 DUP1 SWAP1 POP JUMPDEST DUP4 MLOAD DUP2 LT ISZERO PUSH2 0x3838 JUMPI PUSH2 0x382B DUP5 DUP3 DUP2 MLOAD DUP2 LT PUSH2 0x3814 JUMPI INVALID JUMPDEST PUSH1 0x20 MUL PUSH1 0x20 ADD ADD MLOAD DUP4 PUSH2 0x38B3 SWAP1 SWAP2 SWAP1 PUSH4 0xFFFFFFFF AND JUMP JUMPDEST DUP1 DUP1 PUSH1 0x1 ADD SWAP2 POP POP PUSH2 0x37FC JUMP JUMPDEST POP PUSH2 0x3842 DUP2 PUSH2 0x38D8 JUMP JUMPDEST DUP1 PUSH1 0x0 ADD MLOAD SWAP2 POP POP SWAP2 SWAP1 POP JUMP JUMPDEST PUSH1 0x40 MLOAD DUP1 MSIZE SUB CODESIZE DUP3 CODECOPY POP JUMP JUMPDEST PUSH1 0x0 DUP2 SWAP1 POP PUSH1 0x0 PUSH1 0x20 DUP3 DUP2 PUSH2 0x386C JUMPI INVALID JUMPDEST MOD EQ PUSH2 0x3885 JUMPI PUSH1 0x20 DUP2 DUP2 PUSH2 0x387C JUMPI INVALID JUMPDEST MOD PUSH1 0x20 SUB DUP2 ADD SWAP1 POP JUMPDEST DUP1 DUP4 PUSH1 0x20 ADD DUP2 DUP2 MSTORE POP POP PUSH1 0x40 MLOAD DUP1 DUP5 MSTORE PUSH1 0x0 DUP2 MSTORE DUP2 DUP2 ADD PUSH1 0x40 MSTORE POP POP POP POP JUMP JUMPDEST PUSH2 0x38B0 DUP2 PUSH1 0x4 PUSH2 0x38E6 JUMP JUMPDEST POP JUMP JUMPDEST PUSH2 0x38C0 DUP3 PUSH1 0x2 DUP4 MLOAD PUSH2 0x3907 JUMP JUMPDEST PUSH2 0x38D3 DUP2 DUP4 PUSH2 0x3A47 SWAP1 SWAP2 SWAP1 PUSH4 0xFFFFFFFF AND JUMP JUMPDEST POP POP POP JUMP JUMPDEST PUSH2 0x38E3 DUP2 PUSH1 0x7 PUSH2 0x38E6 JUMP JUMPDEST POP JUMP JUMPDEST PUSH2 0x3903 PUSH1 0x1F PUSH1 0x5 DUP4 PUSH1 0xFF AND SWAP1 SHL OR DUP4 PUSH2 0x3AF2 SWAP1 SWAP2 SWAP1 PUSH4 0xFFFFFFFF AND JUMP JUMPDEST POP POP JUMP JUMPDEST PUSH1 0x17 DUP2 GT PUSH2 0x3933 JUMPI PUSH2 0x392E DUP2 PUSH1 0x5 DUP5 PUSH1 0xFF AND SWAP1 SHL PUSH1 0xFF AND OR DUP5 PUSH2 0x3AF2 SWAP1 SWAP2 SWAP1 PUSH4 0xFFFFFFFF AND JUMP JUMPDEST PUSH2 0x3A42 JUMP JUMPDEST PUSH1 0xFF DUP2 GT PUSH2 0x3974 JUMPI PUSH2 0x3958 PUSH1 0x18 PUSH1 0x5 DUP5 PUSH1 0xFF AND SWAP1 SHL OR DUP5 PUSH2 0x3AF2 SWAP1 SWAP2 SWAP1 PUSH4 0xFFFFFFFF AND JUMP JUMPDEST PUSH2 0x396E DUP2 PUSH1 0x1 DUP6 PUSH2 0x3B32 SWAP1 SWAP3 SWAP2 SWAP1 PUSH4 0xFFFFFFFF AND JUMP JUMPDEST POP PUSH2 0x3A41 JUMP JUMPDEST PUSH2 0xFFFF DUP2 GT PUSH2 0x39B6 JUMPI PUSH2 0x399A PUSH1 0x19 PUSH1 0x5 DUP5 PUSH1 0xFF AND SWAP1 SHL OR DUP5 PUSH2 0x3AF2 SWAP1 SWAP2 SWAP1 PUSH4 0xFFFFFFFF AND JUMP JUMPDEST PUSH2 0x39B0 DUP2 PUSH1 0x2 DUP6 PUSH2 0x3B32 SWAP1 SWAP3 SWAP2 SWAP1 PUSH4 0xFFFFFFFF AND JUMP JUMPDEST POP PUSH2 0x3A40 JUMP JUMPDEST PUSH4 0xFFFFFFFF DUP2 GT PUSH2 0x39FA JUMPI PUSH2 0x39DE PUSH1 0x1A PUSH1 0x5 DUP5 PUSH1 0xFF AND SWAP1 SHL OR DUP5 PUSH2 0x3AF2 SWAP1 SWAP2 SWAP1 PUSH4 0xFFFFFFFF AND JUMP JUMPDEST PUSH2 0x39F4 DUP2 PUSH1 0x4 DUP6 PUSH2 0x3B32 SWAP1 SWAP3 SWAP2 SWAP1 PUSH4 0xFFFFFFFF AND JUMP JUMPDEST POP PUSH2 0x3A3F JUMP JUMPDEST PUSH8 0xFFFFFFFFFFFFFFFF DUP2 GT PUSH2 0x3A3E JUMPI PUSH2 0x3A26 PUSH1 0x1B PUSH1 0x5 DUP5 PUSH1 0xFF AND SWAP1 SHL OR DUP5 PUSH2 0x3AF2 SWAP1 SWAP2 SWAP1 PUSH4 0xFFFFFFFF AND JUMP JUMPDEST PUSH2 0x3A3C DUP2 PUSH1 0x8 DUP6 PUSH2 0x3B32 SWAP1 SWAP3 SWAP2 SWAP1 PUSH4 0xFFFFFFFF AND JUMP JUMPDEST POP JUMPDEST JUMPDEST JUMPDEST JUMPDEST JUMPDEST POP POP POP JUMP JUMPDEST PUSH2 0x3A4F PUSH2 0x3C7F JUMP JUMPDEST DUP3 PUSH1 0x20 ADD MLOAD DUP4 PUSH1 0x0 ADD MLOAD MLOAD DUP4 MLOAD ADD GT ISZERO PUSH2 0x3A7F JUMPI PUSH2 0x3A7E DUP4 PUSH1 0x2 PUSH2 0x3A78 DUP7 PUSH1 0x20 ADD MLOAD DUP7 MLOAD PUSH2 0x3B99 JUMP JUMPDEST MUL PUSH2 0x3BB5 JUMP JUMPDEST JUMPDEST PUSH1 0x0 DUP1 PUSH1 0x0 DUP5 MLOAD SWAP1 POP DUP6 MLOAD DUP1 MLOAD PUSH1 0x20 DUP2 DUP4 ADD ADD SWAP5 POP DUP7 MLOAD DUP2 ADD DUP3 MSTORE PUSH1 0x20 DUP8 ADD SWAP4 POP POP POP JUMPDEST PUSH1 0x20 DUP2 LT PUSH2 0x3AC6 JUMPI DUP2 MLOAD DUP4 MSTORE PUSH1 0x20 DUP4 ADD SWAP3 POP PUSH1 0x20 DUP3 ADD SWAP2 POP PUSH1 0x20 DUP2 SUB SWAP1 POP PUSH2 0x3AA3 JUMP JUMPDEST PUSH1 0x0 PUSH1 0x1 DUP3 PUSH1 0x20 SUB PUSH2 0x100 EXP SUB SWAP1 POP DUP1 NOT DUP4 MLOAD AND DUP2 DUP6 MLOAD AND DUP2 DUP2 OR DUP7 MSTORE POP POP DUP7 SWAP5 POP POP POP POP POP SWAP3 SWAP2 POP POP JUMP JUMPDEST DUP2 PUSH1 0x20 ADD MLOAD PUSH1 0x1 DUP4 PUSH1 0x0 ADD MLOAD MLOAD ADD GT ISZERO PUSH2 0x3B18 JUMPI PUSH2 0x3B17 DUP3 PUSH1 0x2 DUP5 PUSH1 0x20 ADD MLOAD MUL PUSH2 0x3BB5 JUMP JUMPDEST JUMPDEST DUP2 MLOAD DUP1 MLOAD PUSH1 0x20 DUP2 DUP4 ADD ADD DUP4 DUP2 MSTORE8 PUSH1 0x1 DUP3 ADD DUP4 MSTORE POP POP POP POP POP JUMP JUMPDEST PUSH2 0x3B3A PUSH2 0x3C7F JUMP JUMPDEST DUP4 PUSH1 0x20 ADD MLOAD DUP5 PUSH1 0x0 ADD MLOAD MLOAD DUP4 ADD GT ISZERO PUSH2 0x3B68 JUMPI PUSH2 0x3B67 DUP5 PUSH1 0x2 PUSH2 0x3B61 DUP8 PUSH1 0x20 ADD MLOAD DUP7 PUSH2 0x3B99 JUMP JUMPDEST MUL PUSH2 0x3BB5 JUMP JUMPDEST JUMPDEST PUSH1 0x0 PUSH1 0x1 DUP4 PUSH2 0x100 EXP SUB SWAP1 POP DUP5 MLOAD DUP1 MLOAD DUP5 DUP2 DUP4 ADD ADD DUP7 DUP5 NOT DUP3 MLOAD AND OR DUP2 MSTORE DUP6 DUP3 ADD DUP4 MSTORE POP POP POP DUP5 SWAP2 POP POP SWAP4 SWAP3 POP POP POP JUMP JUMPDEST PUSH1 0x0 DUP2 DUP4 GT ISZERO PUSH2 0x3BAB JUMPI DUP3 SWAP1 POP PUSH2 0x3BAF JUMP JUMPDEST DUP2 SWAP1 POP JUMPDEST SWAP3 SWAP2 POP POP JUMP JUMPDEST PUSH1 0x60 DUP3 PUSH1 0x0 ADD MLOAD SWAP1 POP PUSH2 0x3BC8 DUP4 DUP4 PUSH2 0x385B JUMP JUMPDEST PUSH2 0x3BD2 DUP4 DUP3 PUSH2 0x3A47 JUMP JUMPDEST POP POP POP POP JUMP JUMPDEST PUSH1 0x40 MLOAD DUP1 PUSH1 0x80 ADD PUSH1 0x40 MSTORE DUP1 PUSH1 0x4 SWAP1 JUMPDEST PUSH1 0x60 DUP2 MSTORE PUSH1 0x20 ADD SWAP1 PUSH1 0x1 SWAP1 SUB SWAP1 DUP2 PUSH2 0x3BE7 JUMPI SWAP1 POP POP SWAP1 JUMP JUMPDEST DUP3 DUP1 SLOAD PUSH1 0x1 DUP2 PUSH1 0x1 AND ISZERO PUSH2 0x100 MUL SUB AND PUSH1 0x2 SWAP1 DIV SWAP1 PUSH1 0x0 MSTORE PUSH1 0x20 PUSH1 0x0 KECCAK256 SWAP1 PUSH1 0x1F ADD PUSH1 0x20 SWAP1 DIV DUP2 ADD SWAP3 DUP3 PUSH1 0x1F LT PUSH2 0x3C40 JUMPI DUP1 MLOAD PUSH1 0xFF NOT AND DUP4 DUP1 ADD OR DUP6 SSTORE PUSH2 0x3C6E JUMP JUMPDEST DUP3 DUP1 ADD PUSH1 0x1 ADD DUP6 SSTORE DUP3 ISZERO PUSH2 0x3C6E JUMPI SWAP2 DUP3 ADD JUMPDEST DUP3 DUP2 GT ISZERO PUSH2 0x3C6D JUMPI DUP3 MLOAD DUP3 SSTORE SWAP2 PUSH1 0x20 ADD SWAP2 SWAP1 PUSH1 0x1 ADD SWAP1 PUSH2 0x3C52 JUMP JUMPDEST JUMPDEST POP SWAP1 POP PUSH2 0x3C7B SWAP2 SWAP1 PUSH2 0x3C99 JUMP JUMPDEST POP SWAP1 JUMP JUMPDEST PUSH1 0x40 MLOAD DUP1 PUSH1 0x40 ADD PUSH1 0x40 MSTORE DUP1 PUSH1 0x60 DUP2 MSTORE PUSH1 0x20 ADD PUSH1 0x0 DUP2 MSTORE POP SWAP1 JUMP JUMPDEST PUSH2 0x3CBB SWAP2 SWAP1 JUMPDEST DUP1 DUP3 GT ISZERO PUSH2 0x3CB7 JUMPI PUSH1 0x0 DUP2 PUSH1 0x0 SWAP1 SSTORE POP PUSH1 0x1 ADD PUSH2 0x3C9F JUMP JUMPDEST POP SWAP1 JUMP JUMPDEST SWAP1 JUMP INVALID 0x4E PUSH16 0x20746F70696320636F6E747261637473 KECCAK256 PUSH2 0x7265 KECCAK256 PUSH5 0x65706C6F79 PUSH6 0x642E20556E61 PUSH3 0x6C6520 PUSH21 0x6F20706572666F726D2072616E646F6D20746F7069 PUSH4 0x20617373 PUSH10 0x676E6D656E74596F7520 PUSH14 0x7573742062652074686520637265 PUSH2 0x746F PUSH19 0x206F66207468697320546F70696320696E206F PUSH19 0x64657220746F20646F20746869732E7FB95646 SWAP13 0x5C SWAP12 DUP10 DUP5 0xD SSTORE 0xB4 CALLDATALOAD CALLDATACOPY 0xE6 PUSH11 0x98DD4811EA0A27224272C2 0xE5 PUSH3 0x2911E8 MSTORE8 PUSH27 0x2F8E86A46BAEC82864E98DD01E9CCC2F8BC5DFC9CBE5A91A290498 0xDD SWAP7 0xE4 POP PUSH19 0x6F7661626C6520717565727920776173207365 PUSH15 0x742C207374616E64696E6720627920 PUSH7 0x6F722074686520 PUSH2 0x6E73 PUSH24 0x65722E2E2EA265627A7A72315820D88E0738B915B19CADCF SWAP16 PUSH24 0x51CD05A359DDD94BDAAAD326A1AF8BABF687E20F64736F6C PUSH4 0x43000510 STOP ORIGIN "},"gasEstimates":{"creation":{"codeDepositCost":"3170600","executionCost":"infinite","totalCost":"infinite"},"external":{"__callback(bytes32,string)":"infinite","__callback(bytes32,string,bytes)":"infinite","assignedVisibleTopics(address)":"1191","changeNumVisibleTopics(uint256)":"infinite","getRandomTopics(address)":"infinite","hasTopic(address,address)":"infinite","owner()":"1142","queryToUserAddress(bytes32)":"1245","refreshRandomTopics()":"infinite","topicFactoryAddress()":"1097"}},"methodIdentifiers":{"__callback(bytes32,string)":"27dc297e","__callback(bytes32,string,bytes)":"38bbfa50","assignedVisibleTopics(address)":"ccb40d8f","changeNumVisibleTopics(uint256)":"ec634e27","getRandomTopics(address)":"811f287e","hasTopic(address,address)":"902701b7","owner()":"8da5cb5b","queryToUserAddress(bytes32)":"3d2e83f0","refreshRandomTopics()":"f0f22eb4","topicFactoryAddress()":"cf592dea"}},"storageLayout":{"storage":[{"astId":3002,"contract":"TopicAssigner.sol:TopicAssigner","label":"provable","offset":0,"slot":"0","type":"t_contract(ProvableI)2460"},{"astId":3004,"contract":"TopicAssigner.sol:TopicAssigner","label":"OAR","offset":0,"slot":"1","type":"t_contract(OracleAddrResolverI)2466"},{"astId":3049,"contract":"TopicAssigner.sol:TopicAssigner","label":"provable_network_name","offset":0,"slot":"2","type":"t_string_storage"},{"astId":3068,"contract":"TopicAssigner.sol:TopicAssigner","label":"provable_randomDS_args","offset":0,"slot":"3","type":"t_mapping(t_bytes32,t_bytes32)"},{"astId":3072,"contract":"TopicAssigner.sol:TopicAssigner","label":"provable_randomDS_sessionKeysHashVerified","offset":0,"slot":"4","type":"t_mapping(t_bytes32,t_bool)"},{"astId":1526,"contract":"TopicAssigner.sol:TopicAssigner","label":"NUM_VISIBLE_TOPICS","offset":0,"slot":"5","type":"t_uint256"},{"astId":1528,"contract":"TopicAssigner.sol:TopicAssigner","label":"owner","offset":0,"slot":"6","type":"t_address"},{"astId":1530,"contract":"TopicAssigner.sol:TopicAssigner","label":"topicFactoryAddress","offset":0,"slot":"7","type":"t_address"},{"astId":1534,"contract":"TopicAssigner.sol:TopicAssigner","label":"queryToUserAddress","offset":0,"slot":"8","type":"t_mapping(t_bytes32,t_address)"},{"astId":1538,"contract":"TopicAssigner.sol:TopicAssigner","label":"assignedVisibleTopics","offset":0,"slot":"9","type":"t_mapping(t_address,t_uint256)"}],"types":{"t_address":{"encoding":"inplace","label":"address","numberOfBytes":"20"},"t_bool":{"encoding":"inplace","label":"bool","numberOfBytes":"1"},"t_bytes32":{"encoding":"inplace","label":"bytes32","numberOfBytes":"32"},"t_contract(OracleAddrResolverI)2466":{"encoding":"inplace","label":"contract OracleAddrResolverI","numberOfBytes":"20"},"t_contract(ProvableI)2460":{"encoding":"inplace","label":"contract ProvableI","numberOfBytes":"20"},"t_mapping(t_address,t_uint256)":{"encoding":"mapping","key":"t_address","label":"mapping(address => uint256)","numberOfBytes":"32","value":"t_uint256"},"t_mapping(t_bytes32,t_address)":{"encoding":"mapping","key":"t_bytes32","label":"mapping(bytes32 => address)","numberOfBytes":"32","value":"t_address"},"t_mapping(t_bytes32,t_bool)":{"encoding":"mapping","key":"t_bytes32","label":"mapping(bytes32 => bool)","numberOfBytes":"32","value":"t_bool"},"t_mapping(t_bytes32,t_bytes32)":{"encoding":"mapping","key":"t_bytes32","label":"mapping(bytes32 => bytes32)","numberOfBytes":"32","value":"t_bytes32"},"t_string_storage":{"encoding":"bytes","label":"string","numberOfBytes":"32"},"t_uint256":{"encoding":"inplace","label":"uint256","numberOfBytes":"32"}}},"userdoc":{"methods":{}}}