{"abi":[{"inputs":[{"internalType":"address","name":"_topicFactoryAddress","type":"address"},{"internalType":"address","name":"repFactoryAddress","type":"address"},{"internalType":"address","name":"_topicAssignerAddress","type":"address"},{"internalType":"string","name":"topicContent","type":"string"},{"internalType":"uint256","name":"minInvestment","type":"uint256"},{"internalType":"uint256","name":"secondsAvailable","type":"uint256"},{"internalType":"address","name":"sender","type":"address"}],"payable":false,"stateMutability":"nonpayable","type":"constructor"},{"payable":true,"stateMutability":"payable","type":"fallback"},{"constant":true,"inputs":[{"internalType":"uint256","name":"","type":"uint256"}],"name":"arguments","outputs":[{"internalType":"string","name":"content","type":"string"},{"internalType":"bool","name":"isTrue","type":"bool"},{"internalType":"address","name":"creator","type":"address"},{"internalType":"uint256","name":"voteCount","type":"uint256"}],"payable":false,"stateMutability":"view","type":"function"},{"constant":true,"inputs":[{"internalType":"uint256","name":"initialMonetaryInvestment","type":"uint256"},{"internalType":"bool","name":"onTruthSide","type":"bool"}],"name":"calculateMonetaryGain","outputs":[{"internalType":"uint256","name":"","type":"uint256"}],"payable":false,"stateMutability":"view","type":"function"},{"constant":true,"inputs":[{"internalType":"uint256","name":"initialReputation","type":"uint256"},{"internalType":"address","name":"sender","type":"address"}],"name":"calculateReputationGain","outputs":[{"internalType":"uint256","name":"","type":"uint256"}],"payable":false,"stateMutability":"view","type":"function"},{"constant":true,"inputs":[],"name":"canClaim","outputs":[{"internalType":"bool","name":"","type":"bool"}],"payable":false,"stateMutability":"view","type":"function"},{"constant":true,"inputs":[],"name":"canVote","outputs":[{"internalType":"bool","name":"","type":"bool"}],"payable":false,"stateMutability":"view","type":"function"},{"constant":false,"inputs":[],"name":"claim","outputs":[],"payable":false,"stateMutability":"nonpayable","type":"function"},{"constant":true,"inputs":[{"internalType":"address","name":"","type":"address"}],"name":"claimed","outputs":[{"internalType":"bool","name":"","type":"bool"}],"payable":false,"stateMutability":"view","type":"function"},{"constant":true,"inputs":[],"name":"content","outputs":[{"internalType":"string","name":"","type":"string"}],"payable":false,"stateMutability":"view","type":"function"},{"constant":false,"inputs":[{"internalType":"string","name":"argumentContent","type":"string"},{"internalType":"bool","name":"belief","type":"bool"}],"name":"createArgument","outputs":[],"payable":false,"stateMutability":"nonpayable","type":"function"},{"constant":true,"inputs":[{"internalType":"address","name":"","type":"address"}],"name":"createdArgument","outputs":[{"internalType":"uint256","name":"","type":"uint256"}],"payable":false,"stateMutability":"view","type":"function"},{"constant":true,"inputs":[],"name":"creator","outputs":[{"internalType":"address","name":"","type":"address"}],"payable":false,"stateMutability":"view","type":"function"},{"constant":false,"inputs":[],"name":"creatorClaim","outputs":[],"payable":false,"stateMutability":"nonpayable","type":"function"},{"constant":true,"inputs":[],"name":"endTime","outputs":[{"internalType":"uint256","name":"","type":"uint256"}],"payable":false,"stateMutability":"view","type":"function"},{"constant":true,"inputs":[],"name":"finalMonetaryTotal","outputs":[{"internalType":"uint256","name":"","type":"uint256"}],"payable":false,"stateMutability":"view","type":"function"},{"constant":true,"inputs":[],"name":"getArgumentCount","outputs":[{"internalType":"uint256","name":"","type":"uint256"}],"payable":false,"stateMutability":"view","type":"function"},{"constant":true,"inputs":[],"name":"getDetails","outputs":[{"internalType":"address","name":"","type":"address"},{"internalType":"uint256","name":"","type":"uint256"},{"internalType":"uint256","name":"","type":"uint256"},{"internalType":"bool","name":"","type":"bool"},{"internalType":"bool","name":"","type":"bool"},{"internalType":"bool","name":"","type":"bool"},{"internalType":"uint256","name":"","type":"uint256"},{"internalType":"uint256","name":"","type":"uint256"},{"internalType":"uint256","name":"","type":"uint256"},{"internalType":"uint256","name":"","type":"uint256"},{"internalType":"uint256","name":"","type":"uint256"}],"payable":false,"stateMutability":"view","type":"function"},{"constant":true,"inputs":[],"name":"getLieCount","outputs":[{"internalType":"uint256","name":"","type":"uint256"}],"payable":false,"stateMutability":"view","type":"function"},{"constant":true,"inputs":[],"name":"getMoneyPool","outputs":[{"internalType":"uint256","name":"","type":"uint256"}],"payable":false,"stateMutability":"view","type":"function"},{"constant":true,"inputs":[],"name":"getTruthCount","outputs":[{"internalType":"uint256","name":"","type":"uint256"}],"payable":false,"stateMutability":"view","type":"function"},{"constant":true,"inputs":[{"internalType":"address","name":"sender","type":"address"}],"name":"inMajority","outputs":[{"internalType":"bool","name":"","type":"bool"}],"payable":false,"stateMutability":"view","type":"function"},{"constant":true,"inputs":[],"name":"isCompleted","outputs":[{"internalType":"bool","name":"","type":"bool"}],"payable":false,"stateMutability":"view","type":"function"},{"constant":true,"inputs":[],"name":"isTopic","outputs":[{"internalType":"bool","name":"","type":"bool"}],"payable":false,"stateMutability":"pure","type":"function"},{"constant":true,"inputs":[],"name":"lieMonetaryInvestment","outputs":[{"internalType":"uint256","name":"","type":"uint256"}],"payable":false,"stateMutability":"view","type":"function"},{"constant":true,"inputs":[],"name":"lieReputation","outputs":[{"internalType":"uint256","name":"","type":"uint256"}],"payable":false,"stateMutability":"view","type":"function"},{"constant":true,"inputs":[{"internalType":"uint256","name":"","type":"uint256"}],"name":"lieVoters","outputs":[{"internalType":"address payable","name":"","type":"address"}],"payable":false,"stateMutability":"view","type":"function"},{"constant":true,"inputs":[],"name":"majority","outputs":[{"internalType":"uint256","name":"","type":"uint256"}],"payable":false,"stateMutability":"view","type":"function"},{"constant":true,"inputs":[],"name":"minimumInvestment","outputs":[{"internalType":"uint256","name":"","type":"uint256"}],"payable":false,"stateMutability":"view","type":"function"},{"constant":false,"inputs":[{"internalType":"uint256","name":"argumentIndex","type":"uint256"},{"internalType":"string","name":"newContent","type":"string"},{"internalType":"bool","name":"belief","type":"bool"}],"name":"modifyArgument","outputs":[],"payable":false,"stateMutability":"nonpayable","type":"function"},{"constant":true,"inputs":[{"internalType":"address","name":"","type":"address"}],"name":"monetaryInvestment","outputs":[{"internalType":"uint256","name":"","type":"uint256"}],"payable":false,"stateMutability":"view","type":"function"},{"constant":true,"inputs":[{"internalType":"address","name":"","type":"address"}],"name":"reputationInvestment","outputs":[{"internalType":"uint256","name":"","type":"uint256"}],"payable":false,"stateMutability":"view","type":"function"},{"constant":true,"inputs":[],"name":"totalReputationInvestment","outputs":[{"internalType":"uint256","name":"","type":"uint256"}],"payable":false,"stateMutability":"view","type":"function"},{"constant":true,"inputs":[],"name":"truthMonetaryInvestment","outputs":[{"internalType":"uint256","name":"","type":"uint256"}],"payable":false,"stateMutability":"view","type":"function"},{"constant":true,"inputs":[],"name":"truthReputation","outputs":[{"internalType":"uint256","name":"","type":"uint256"}],"payable":false,"stateMutability":"view","type":"function"},{"constant":true,"inputs":[{"internalType":"uint256","name":"","type":"uint256"}],"name":"truthVoters","outputs":[{"internalType":"address payable","name":"","type":"address"}],"payable":false,"stateMutability":"view","type":"function"},{"constant":false,"inputs":[{"internalType":"uint256","name":"argumentIndex","type":"uint256"},{"internalType":"uint256","name":"reputationCost","type":"uint256"}],"name":"vote","outputs":[],"payable":true,"stateMutability":"payable","type":"function"},{"constant":true,"inputs":[{"internalType":"address","name":"","type":"address"}],"name":"voted","outputs":[{"internalType":"uint256","name":"","type":"uint256"}],"payable":false,"stateMutability":"view","type":"function"}],"devdoc":{"methods":{}},"evm":{"assembly":"    /* \"Topic.sol\":96:12355  contract Topic {\r... */\n  mstore(0x40, 0x80)\n    /* \"Topic.sol\":1911:2662  constructor(address _topicFactoryAddress, address repFactoryAddress, address _topicAssignerAddress, string memory topicContent, uint minInvestment, uint secondsAvailable, address sender) public {\r... */\n  callvalue\n    /* \"--CODEGEN--\":8:17   */\n  dup1\n    /* \"--CODEGEN--\":5:7   */\n  iszero\n  tag_1\n  jumpi\n    /* \"--CODEGEN--\":30:31   */\n  0x00\n    /* \"--CODEGEN--\":27:28   */\n  dup1\n    /* \"--CODEGEN--\":20:32   */\n  revert\n    /* \"--CODEGEN--\":5:7   */\ntag_1:\n    /* \"Topic.sol\":1911:2662  constructor(address _topicFactoryAddress, address repFactoryAddress, address _topicAssignerAddress, string memory topicContent, uint minInvestment, uint secondsAvailable, address sender) public {\r... */\n  pop\n  mload(0x40)\n  sub(codesize, bytecodeSize)\n  dup1\n  bytecodeSize\n  dup4\n  codecopy\n  dup2\n  dup2\n  add\n  0x40\n  mstore\n    /* \"--CODEGEN--\":13:16   */\n  0xe0\n    /* \"--CODEGEN--\":8:11   */\n  dup2\n    /* \"--CODEGEN--\":5:17   */\n  lt\n    /* \"--CODEGEN--\":2:4   */\n  iszero\n  tag_2\n  jumpi\n    /* \"--CODEGEN--\":30:31   */\n  0x00\n    /* \"--CODEGEN--\":27:28   */\n  dup1\n    /* \"--CODEGEN--\":20:32   */\n  revert\n    /* \"--CODEGEN--\":2:4   */\ntag_2:\n    /* \"Topic.sol\":1911:2662  constructor(address _topicFactoryAddress, address repFactoryAddress, address _topicAssignerAddress, string memory topicContent, uint minInvestment, uint secondsAvailable, address sender) public {\r... */\n  dup2\n  add\n  swap1\n  dup1\n  dup1\n  mload\n  swap1\n  0x20\n  add\n  swap1\n  swap3\n  swap2\n  swap1\n  dup1\n  mload\n  swap1\n  0x20\n  add\n  swap1\n  swap3\n  swap2\n  swap1\n  dup1\n  mload\n  swap1\n  0x20\n  add\n  swap1\n  swap3\n  swap2\n  swap1\n  dup1\n  mload\n  mload(0x40)\n  swap4\n  swap3\n  swap2\n  swap1\n  dup5\n    /* \"--CODEGEN--\":19:30   */\n  0x0100000000\n    /* \"--CODEGEN--\":14:17   */\n  dup3\n    /* \"--CODEGEN--\":11:31   */\n  gt\n    /* \"--CODEGEN--\":8:10   */\n  iszero\n  tag_3\n  jumpi\n    /* \"--CODEGEN--\":44:45   */\n  0x00\n    /* \"--CODEGEN--\":41:42   */\n  dup1\n    /* \"--CODEGEN--\":34:46   */\n  revert\n    /* \"--CODEGEN--\":8:10   */\ntag_3:\n    /* \"--CODEGEN--\":71:82   */\n  dup4\n    /* \"--CODEGEN--\":66:69   */\n  dup3\n    /* \"--CODEGEN--\":62:83   */\n  add\n    /* \"--CODEGEN--\":55:83   */\n  swap2\n  pop\n    /* \"--CODEGEN--\":123:127   */\n  0x20\n    /* \"--CODEGEN--\":118:121   */\n  dup3\n    /* \"--CODEGEN--\":114:128   */\n  add\n    /* \"--CODEGEN--\":159:168   */\n  dup6\n    /* \"--CODEGEN--\":141:157   */\n  dup2\n    /* \"--CODEGEN--\":138:169   */\n  gt\n    /* \"--CODEGEN--\":135:137   */\n  iszero\n  tag_4\n  jumpi\n    /* \"--CODEGEN--\":182:183   */\n  0x00\n    /* \"--CODEGEN--\":179:180   */\n  dup1\n    /* \"--CODEGEN--\":172:184   */\n  revert\n    /* \"--CODEGEN--\":135:137   */\ntag_4:\n    /* \"--CODEGEN--\":219:222   */\n  dup3\n    /* \"--CODEGEN--\":213:223   */\n  mload\n    /* \"--CODEGEN--\":330:339   */\n  dup7\n    /* \"--CODEGEN--\":325:326   */\n  0x01\n    /* \"--CODEGEN--\":311:323   */\n  dup3\n    /* \"--CODEGEN--\":307:327   */\n  mul\n    /* \"--CODEGEN--\":289:305   */\n  dup4\n    /* \"--CODEGEN--\":285:328   */\n  add\n    /* \"--CODEGEN--\":282:340   */\n  gt\n    /* \"--CODEGEN--\":261:272   */\n  0x0100000000\n    /* \"--CODEGEN--\":247:259   */\n  dup3\n    /* \"--CODEGEN--\":244:273   */\n  gt\n    /* \"--CODEGEN--\":233:348   */\n  or\n    /* \"--CODEGEN--\":230:232   */\n  iszero\n  tag_5\n  jumpi\n    /* \"--CODEGEN--\":361:362   */\n  0x00\n    /* \"--CODEGEN--\":358:359   */\n  dup1\n    /* \"--CODEGEN--\":351:363   */\n  revert\n    /* \"--CODEGEN--\":230:232   */\ntag_5:\n    /* \"--CODEGEN--\":384:396   */\n  dup1\n    /* \"--CODEGEN--\":379:382   */\n  dup4\n    /* \"--CODEGEN--\":372:397   */\n  mstore\n    /* \"--CODEGEN--\":420:424   */\n  0x20\n    /* \"--CODEGEN--\":415:418   */\n  dup4\n    /* \"--CODEGEN--\":411:425   */\n  add\n    /* \"--CODEGEN--\":404:425   */\n  swap3\n  pop\n    /* \"--CODEGEN--\":0:432   */\n  pop\n  pop\n    /* \"Topic.sol\":1911:2662  constructor(address _topicFactoryAddress, address repFactoryAddress, address _topicAssignerAddress, string memory topicContent, uint minInvestment, uint secondsAvailable, address sender) public {\r... */\n  swap1\n  dup1\n  mload\n  swap1\n  0x20\n  add\n  swap1\n  dup1\n  dup4\n  dup4\n    /* \"--CODEGEN--\":23:24   */\n  0x00\n    /* \"--CODEGEN--\":8:108   */\ntag_6:\n    /* \"--CODEGEN--\":33:36   */\n  dup4\n    /* \"--CODEGEN--\":30:31   */\n  dup2\n    /* \"--CODEGEN--\":27:37   */\n  lt\n    /* \"--CODEGEN--\":8:108   */\n  iszero\n  tag_8\n  jumpi\n    /* \"--CODEGEN--\":99:100   */\n  dup1\n    /* \"--CODEGEN--\":94:97   */\n  dup3\n    /* \"--CODEGEN--\":90:101   */\n  add\n    /* \"--CODEGEN--\":84:102   */\n  mload\n    /* \"--CODEGEN--\":80:81   */\n  dup2\n    /* \"--CODEGEN--\":75:78   */\n  dup5\n    /* \"--CODEGEN--\":71:82   */\n  add\n    /* \"--CODEGEN--\":64:103   */\n  mstore\n    /* \"--CODEGEN--\":52:54   */\n  0x20\n    /* \"--CODEGEN--\":49:50   */\n  dup2\n    /* \"--CODEGEN--\":45:55   */\n  add\n    /* \"--CODEGEN--\":40:55   */\n  swap1\n  pop\n    /* \"--CODEGEN--\":8:108   */\n  jump(tag_6)\ntag_8:\n    /* \"--CODEGEN--\":12:26   */\n  pop\n    /* \"Topic.sol\":1911:2662  constructor(address _topicFactoryAddress, address repFactoryAddress, address _topicAssignerAddress, string memory topicContent, uint minInvestment, uint secondsAvailable, address sender) public {\r... */\n  pop\n  pop\n  pop\n  swap1\n  pop\n  swap1\n  dup2\n  add\n  swap1\n  0x1f\n  and\n  dup1\n  iszero\n  tag_9\n  jumpi\n  dup1\n  dup3\n  sub\n  dup1\n  mload\n  0x01\n  dup4\n  0x20\n  sub\n  0x0100\n  exp\n  sub\n  not\n  and\n  dup2\n  mstore\n  0x20\n  add\n  swap2\n  pop\ntag_9:\n  pop\n  0x40\n  mstore\n  0x20\n  add\n  dup1\n  mload\n  swap1\n  0x20\n  add\n  swap1\n  swap3\n  swap2\n  swap1\n  dup1\n  mload\n  swap1\n  0x20\n  add\n  swap1\n  swap3\n  swap2\n  swap1\n  dup1\n  mload\n  swap1\n  0x20\n  add\n  swap1\n  swap3\n  swap2\n  swap1\n  pop\n  pop\n  pop\n    /* \"Topic.sol\":2138:2158  _topicFactoryAddress */\n  dup7\n    /* \"Topic.sol\":2116:2135  topicFactoryAddress */\n  0x02\n  0x00\n    /* \"Topic.sol\":2116:2158  topicFactoryAddress = _topicFactoryAddress */\n  0x0100\n  exp\n  dup2\n  sload\n  dup2\n  0xffffffffffffffffffffffffffffffffffffffff\n  mul\n  not\n  and\n  swap1\n  dup4\n  0xffffffffffffffffffffffffffffffffffffffff\n  and\n  mul\n  or\n  swap1\n  sstore\n  pop\n    /* \"Topic.sol\":2196:2213  repFactoryAddress */\n  dup6\n    /* \"Topic.sol\":2169:2193  reputationFactoryAddress */\n  0x00\n  dup1\n    /* \"Topic.sol\":2169:2213  reputationFactoryAddress = repFactoryAddress */\n  0x0100\n  exp\n  dup2\n  sload\n  dup2\n  0xffffffffffffffffffffffffffffffffffffffff\n  mul\n  not\n  and\n  swap1\n  dup4\n  0xffffffffffffffffffffffffffffffffffffffff\n  and\n  mul\n  or\n  swap1\n  sstore\n  pop\n    /* \"Topic.sol\":2247:2268  _topicAssignerAddress */\n  dup5\n    /* \"Topic.sol\":2224:2244  topicAssignerAddress */\n  0x01\n  0x00\n    /* \"Topic.sol\":2224:2268  topicAssignerAddress = _topicAssignerAddress */\n  0x0100\n  exp\n  dup2\n  sload\n  dup2\n  0xffffffffffffffffffffffffffffffffffffffff\n  mul\n  not\n  and\n  swap1\n  dup4\n  0xffffffffffffffffffffffffffffffffffffffff\n  and\n  mul\n  or\n  swap1\n  sstore\n  pop\n    /* \"Topic.sol\":2289:2301  topicContent */\n  dup4\n    /* \"Topic.sol\":2279:2286  content */\n  0x03\n    /* \"Topic.sol\":2279:2301  content = topicContent */\n  swap1\n  dup1\n  mload\n  swap1\n  0x20\n  add\n  swap1\n  tag_12\n  swap3\n  swap2\n  swap1\n  tag_13\n  jump\t// in\ntag_12:\n  pop\n    /* \"Topic.sol\":2332:2345  minInvestment */\n  dup3\n    /* \"Topic.sol\":2312:2329  minimumInvestment */\n  0x05\n    /* \"Topic.sol\":2312:2345  minimumInvestment = minInvestment */\n  dup2\n  swap1\n  sstore\n  pop\n    /* \"Topic.sol\":2366:2372  sender */\n  dup1\n    /* \"Topic.sol\":2356:2363  creator */\n  0x04\n  0x00\n    /* \"Topic.sol\":2356:2372  creator = sender */\n  0x0100\n  exp\n  dup2\n  sload\n  dup2\n  0xffffffffffffffffffffffffffffffffffffffff\n  mul\n  not\n  and\n  swap1\n  dup4\n  0xffffffffffffffffffffffffffffffffffffffff\n  and\n  mul\n  or\n  swap1\n  sstore\n  pop\n    /* \"Topic.sol\":2394:2395  0 */\n  0x00\n    /* \"Topic.sol\":2383:2391  majority */\n  0x16\n    /* \"Topic.sol\":2383:2395  majority = 0 */\n  dup2\n  swap1\n  sstore\n  pop\n    /* \"Topic.sol\":2454:2463  1 seconds */\n  0x01\n    /* \"Topic.sol\":2434:2450  secondsAvailable */\n  dup3\n    /* \"Topic.sol\":2434:2463  secondsAvailable  * 1 seconds */\n  mul\n    /* \"Topic.sol\":2416:2431  block.timestamp */\n  timestamp\n    /* \"Topic.sol\":2416:2463  block.timestamp + secondsAvailable  * 1 seconds */\n  add\n    /* \"Topic.sol\":2406:2413  endTime */\n  0x06\n    /* \"Topic.sol\":2406:2463  endTime = block.timestamp + secondsAvailable  * 1 seconds */\n  dup2\n  swap1\n  sstore\n  pop\n    /* \"Topic.sol\":2497:2498  0 */\n  0x00\n    /* \"Topic.sol\":2476:2494  finalMonetaryTotal */\n  0x0e\n    /* \"Topic.sol\":2476:2498  finalMonetaryTotal = 0 */\n  dup2\n  swap1\n  sstore\n  pop\n    /* \"Topic.sol\":2567:2654  createArgument('You have not chosen yet whether the statement is true or false', false) */\n  tag_14\n  mload(0x40)\n  dup1\n  0x60\n  add\n  0x40\n  mstore\n  dup1\n  0x3e\n  dup2\n  mstore\n  0x20\n  add\n  data_aa34df7392f94c823c9355455ea589580c646b3576ea8448d1271c2c6cadfb70\n  0x3e\n  swap2\n  codecopy\n    /* \"Topic.sol\":2648:2653  false */\n  0x00\n    /* \"Topic.sol\":2567:2581  createArgument */\n  shl(0x20, tag_15)\n    /* \"Topic.sol\":2567:2654  createArgument('You have not chosen yet whether the statement is true or false', false) */\n  0x20\n  shr\n  jump\t// in\ntag_14:\n    /* \"Topic.sol\":1911:2662  constructor(address _topicFactoryAddress, address repFactoryAddress, address _topicAssignerAddress, string memory topicContent, uint minInvestment, uint secondsAvailable, address sender) public {\r... */\n  pop\n  pop\n  pop\n  pop\n  pop\n  pop\n  pop\n    /* \"Topic.sol\":96:12355  contract Topic {\r... */\n  jump(tag_16)\n    /* \"Topic.sol\":4731:5226  function createArgument(string memory argumentContent, bool belief) public _mustBeWithinTimeFrame {\r... */\ntag_15:\n    /* \"Topic.sol\":1790:1797  endTime */\n  sload(0x06)\n    /* \"Topic.sol\":1772:1787  block.timestamp */\n  timestamp\n    /* \"Topic.sol\":1772:1797  block.timestamp < endTime */\n  lt\n    /* \"Topic.sol\":1764:1845  require(block.timestamp < endTime, 'The period for the Topic has already ended.') */\n  tag_18\n  jumpi\n  mload(0x40)\n  0x08c379a000000000000000000000000000000000000000000000000000000000\n  dup2\n  mstore\n  0x04\n  add\n  dup1\n  dup1\n  0x20\n  add\n  dup3\n  dup2\n  sub\n  dup3\n  mstore\n  0x2b\n  dup2\n  mstore\n  0x20\n  add\n  dup1\n  data_9f7f122b70f117f8950311c325d9279ba88d6a0d2b593ed4f11b7663b9f48d07\n  0x2b\n  swap2\n  codecopy\n  0x40\n  add\n  swap2\n  pop\n  pop\n  mload(0x40)\n  dup1\n  swap2\n  sub\n  swap1\n  revert\ntag_18:\n    /* \"Topic.sol\":4879:4880  0 */\n  0x00\n    /* \"Topic.sol\":4848:4863  createdArgument */\n  0x13\n    /* \"Topic.sol\":4848:4875  createdArgument[msg.sender] */\n  0x00\n    /* \"Topic.sol\":4864:4874  msg.sender */\n  caller\n    /* \"Topic.sol\":4848:4875  createdArgument[msg.sender] */\n  0xffffffffffffffffffffffffffffffffffffffff\n  and\n  0xffffffffffffffffffffffffffffffffffffffff\n  and\n  dup2\n  mstore\n  0x20\n  add\n  swap1\n  dup2\n  mstore\n  0x20\n  add\n  0x00\n  keccak256\n  sload\n    /* \"Topic.sol\":4848:4880  createdArgument[msg.sender] == 0 */\n  eq\n    /* \"Topic.sol\":4840:4922  require(createdArgument[msg.sender] == 0, 'You have already created an argument.') */\n  tag_20\n  jumpi\n  mload(0x40)\n  0x08c379a000000000000000000000000000000000000000000000000000000000\n  dup2\n  mstore\n  0x04\n  add\n  dup1\n  dup1\n  0x20\n  add\n  dup3\n  dup2\n  sub\n  dup3\n  mstore\n  0x25\n  dup2\n  mstore\n  0x20\n  add\n  dup1\n  data_8912f675a50e382e9fd7b592cf1cd9595235c43ce4309904b1bd35e2a18fc4ee\n  0x25\n  swap2\n  codecopy\n  0x40\n  add\n  swap2\n  pop\n  pop\n  mload(0x40)\n  dup1\n  swap2\n  sub\n  swap1\n  revert\ntag_20:\n    /* \"Topic.sol\":4935:4962  Argument memory newArgument */\n  tag_21\n  tag_22\n  jump\t// in\ntag_21:\n    /* \"Topic.sol\":4965:5115  Argument({\r... */\n  mload(0x40)\n  dup1\n  0x80\n  add\n  0x40\n  mstore\n  dup1\n    /* \"Topic.sol\":4998:5013  argumentContent */\n  dup5\n    /* \"Topic.sol\":4965:5115  Argument({\r... */\n  dup2\n  mstore\n  0x20\n  add\n    /* \"Topic.sol\":5036:5042  belief */\n  dup4\n    /* \"Topic.sol\":4965:5115  Argument({\r... */\n  iszero\n  iszero\n  dup2\n  mstore\n  0x20\n  add\n    /* \"Topic.sol\":5066:5076  msg.sender */\n  caller\n    /* \"Topic.sol\":4965:5115  Argument({\r... */\n  0xffffffffffffffffffffffffffffffffffffffff\n  and\n  dup2\n  mstore\n  0x20\n  add\n    /* \"Topic.sol\":5102:5103  0 */\n  0x00\n    /* \"Topic.sol\":4965:5115  Argument({\r... */\n  dup2\n  mstore\n  pop\n    /* \"Topic.sol\":4935:5115  Argument memory newArgument = Argument({\r... */\n  swap1\n  pop\n    /* \"Topic.sol\":5126:5135  arguments */\n  0x07\n    /* \"Topic.sol\":5141:5152  newArgument */\n  dup2\n    /* \"Topic.sol\":5126:5153  arguments.push(newArgument) */\n  swap1\n  dup1\n    /* \"--CODEGEN--\":39:40   */\n  0x01\n    /* \"--CODEGEN--\":33:36   */\n  dup2\n    /* \"--CODEGEN--\":27:37   */\n  sload\n    /* \"--CODEGEN--\":23:41   */\n  add\n    /* \"--CODEGEN--\":57:67   */\n  dup1\n    /* \"--CODEGEN--\":52:55   */\n  dup3\n    /* \"--CODEGEN--\":45:68   */\n  sstore\n    /* \"--CODEGEN--\":79:89   */\n  dup1\n    /* \"--CODEGEN--\":72:89   */\n  swap2\n  pop\n    /* \"--CODEGEN--\":0:93   */\n  pop\n    /* \"Topic.sol\":5126:5153  arguments.push(newArgument) */\n  swap1\n  0x01\n  dup3\n  sub\n  swap1\n  0x00\n  mstore\n  keccak256(0x00, 0x20)\n  swap1\n  0x03\n  mul\n  add\n  0x00\n  swap1\n  swap2\n  swap3\n  swap1\n  swap2\n  swap1\n  swap2\n  pop\n  0x00\n  dup3\n  add\n  mload\n  dup2\n  0x00\n  add\n  swap1\n  dup1\n  mload\n  swap1\n  0x20\n  add\n  swap1\n  tag_24\n  swap3\n  swap2\n  swap1\n  tag_25\n  jump\t// in\ntag_24:\n  pop\n  0x20\n  dup3\n  add\n  mload\n  dup2\n  0x01\n  add\n  exp(0x0100, 0x00)\n  dup2\n  sload\n  dup2\n  0xff\n  mul\n  not\n  and\n  swap1\n  dup4\n  iszero\n  iszero\n  mul\n  or\n  swap1\n  sstore\n  pop\n  0x40\n  dup3\n  add\n  mload\n  dup2\n  0x01\n  add\n  exp(0x0100, 0x01)\n  dup2\n  sload\n  dup2\n  0xffffffffffffffffffffffffffffffffffffffff\n  mul\n  not\n  and\n  swap1\n  dup4\n  0xffffffffffffffffffffffffffffffffffffffff\n  and\n  mul\n  or\n  swap1\n  sstore\n  pop\n  0x60\n  dup3\n  add\n  mload\n  dup2\n  0x02\n  add\n  sstore\n  pop\n  pop\n  pop\n    /* \"Topic.sol\":5215:5216  1 */\n  0x01\n    /* \"Topic.sol\":5194:5212  getArgumentCount() */\n  tag_26\n    /* \"Topic.sol\":5194:5210  getArgumentCount */\n  shl(0x20, tag_27)\n    /* \"Topic.sol\":5194:5212  getArgumentCount() */\n  0x20\n  shr\n  jump\t// in\ntag_26:\n    /* \"Topic.sol\":5194:5216  getArgumentCount() - 1 */\n  sub\n    /* \"Topic.sol\":5164:5179  createdArgument */\n  0x13\n    /* \"Topic.sol\":5164:5191  createdArgument[msg.sender] */\n  0x00\n    /* \"Topic.sol\":5180:5190  msg.sender */\n  caller\n    /* \"Topic.sol\":5164:5191  createdArgument[msg.sender] */\n  0xffffffffffffffffffffffffffffffffffffffff\n  and\n  0xffffffffffffffffffffffffffffffffffffffff\n  and\n  dup2\n  mstore\n  0x20\n  add\n  swap1\n  dup2\n  mstore\n  0x20\n  add\n  0x00\n  keccak256\n    /* \"Topic.sol\":5164:5216  createdArgument[msg.sender] = getArgumentCount() - 1 */\n  dup2\n  swap1\n  sstore\n  pop\n    /* \"Topic.sol\":1856:1857  _ */\n  pop\n    /* \"Topic.sol\":4731:5226  function createArgument(string memory argumentContent, bool belief) public _mustBeWithinTimeFrame {\r... */\n  pop\n  pop\n  jump\t// out\n    /* \"Topic.sol\":5696:5793  function getArgumentCount() public view returns (uint) {\r... */\ntag_27:\n    /* \"Topic.sol\":5745:5749  uint */\n  0x00\n    /* \"Topic.sol\":5769:5778  arguments */\n  0x07\n    /* \"Topic.sol\":5769:5785  arguments.length */\n  dup1\n  sload\n  swap1\n  pop\n    /* \"Topic.sol\":5762:5785  return arguments.length */\n  swap1\n  pop\n    /* \"Topic.sol\":5696:5793  function getArgumentCount() public view returns (uint) {\r... */\n  swap1\n  jump\t// out\n    /* \"Topic.sol\":96:12355  contract Topic {\r... */\ntag_13:\n  dup3\n  dup1\n  sload\n  0x01\n  dup2\n  0x01\n  and\n  iszero\n  0x0100\n  mul\n  sub\n  and\n  0x02\n  swap1\n  div\n  swap1\n  0x00\n  mstore\n  keccak256(0x00, 0x20)\n  swap1\n  0x1f\n  add\n  0x20\n  swap1\n  div\n  dup2\n  add\n  swap3\n  dup3\n  0x1f\n  lt\n  tag_30\n  jumpi\n  dup1\n  mload\n  not(0xff)\n  and\n  dup4\n  dup1\n  add\n  or\n  dup6\n  sstore\n  jump(tag_29)\ntag_30:\n  dup3\n  dup1\n  add\n  0x01\n  add\n  dup6\n  sstore\n  dup3\n  iszero\n  tag_29\n  jumpi\n  swap2\n  dup3\n  add\ntag_31:\n  dup3\n  dup2\n  gt\n  iszero\n  tag_32\n  jumpi\n  dup3\n  mload\n  dup3\n  sstore\n  swap2\n  0x20\n  add\n  swap2\n  swap1\n  0x01\n  add\n  swap1\n  jump(tag_31)\ntag_32:\ntag_29:\n  pop\n  swap1\n  pop\n  tag_33\n  swap2\n  swap1\n  tag_34\n  jump\t// in\ntag_33:\n  pop\n  swap1\n  jump\t// out\ntag_22:\n  mload(0x40)\n  dup1\n  0x80\n  add\n  0x40\n  mstore\n  dup1\n  0x60\n  dup2\n  mstore\n  0x20\n  add\n  iszero(iszero(0x00))\n  dup2\n  mstore\n  0x20\n  add\n  and(0xffffffffffffffffffffffffffffffffffffffff, 0x00)\n  dup2\n  mstore\n  0x20\n  add\n  0x00\n  dup2\n  mstore\n  pop\n  swap1\n  jump\t// out\ntag_25:\n  dup3\n  dup1\n  sload\n  0x01\n  dup2\n  0x01\n  and\n  iszero\n  0x0100\n  mul\n  sub\n  and\n  0x02\n  swap1\n  div\n  swap1\n  0x00\n  mstore\n  keccak256(0x00, 0x20)\n  swap1\n  0x1f\n  add\n  0x20\n  swap1\n  div\n  dup2\n  add\n  swap3\n  dup3\n  0x1f\n  lt\n  tag_36\n  jumpi\n  dup1\n  mload\n  not(0xff)\n  and\n  dup4\n  dup1\n  add\n  or\n  dup6\n  sstore\n  jump(tag_35)\ntag_36:\n  dup3\n  dup1\n  add\n  0x01\n  add\n  dup6\n  sstore\n  dup3\n  iszero\n  tag_35\n  jumpi\n  swap2\n  dup3\n  add\ntag_37:\n  dup3\n  dup2\n  gt\n  iszero\n  tag_38\n  jumpi\n  dup3\n  mload\n  dup3\n  sstore\n  swap2\n  0x20\n  add\n  swap2\n  swap1\n  0x01\n  add\n  swap1\n  jump(tag_37)\ntag_38:\ntag_35:\n  pop\n  swap1\n  pop\n  tag_39\n  swap2\n  swap1\n  tag_34\n  jump\t// in\ntag_39:\n  pop\n  swap1\n  jump\t// out\ntag_34:\n  tag_40\n  swap2\n  swap1\ntag_41:\n  dup1\n  dup3\n  gt\n  iszero\n  tag_42\n  jumpi\n  0x00\n  dup2\n  0x00\n  swap1\n  sstore\n  pop\n  0x01\n  add\n  jump(tag_41)\ntag_42:\n  pop\n  swap1\n  jump\ntag_40:\n  swap1\n  jump\t// out\ntag_16:\n  dataSize(sub_0)\n  dup1\n  dataOffset(sub_0)\n  0x00\n  codecopy\n  0x00\n  return\nstop\ndata_8912f675a50e382e9fd7b592cf1cd9595235c43ce4309904b1bd35e2a18fc4ee 596f75206861766520616c7265616479206372656174656420616e20617267756d656e742e\ndata_9f7f122b70f117f8950311c325d9279ba88d6a0d2b593ed4f11b7663b9f48d07 54686520706572696f6420666f722074686520546f7069632068617320616c726561647920656e6465642e\ndata_aa34df7392f94c823c9355455ea589580c646b3576ea8448d1271c2c6cadfb70 596f752068617665206e6f742063686f73656e207965742077686574686572207468652073746174656d656e742069732074727565206f722066616c7365\n\nsub_0: assembly {\n        /* \"Topic.sol\":96:12355  contract Topic {\r... */\n      mstore(0x40, 0x80)\n      jumpi(tag_1, lt(calldatasize, 0x04))\n      shr(0xe0, calldataload(0x00))\n      dup1\n      0x8a4d5a67\n      gt\n      tag_38\n      jumpi\n      dup1\n      0xd04ae69d\n      gt\n      tag_39\n      jumpi\n      dup1\n      0xf9588ed9\n      gt\n      tag_40\n      jumpi\n      dup1\n      0xf9588ed9\n      eq\n      tag_33\n      jumpi\n      dup1\n      0xfa391c64\n      eq\n      tag_34\n      jumpi\n      dup1\n      0xfbba5cb9\n      eq\n      tag_35\n      jumpi\n      dup1\n      0xfbbf93a0\n      eq\n      tag_36\n      jumpi\n      dup1\n      0xfda9198b\n      eq\n      tag_37\n      jumpi\n      jump(tag_1)\n    tag_40:\n      dup1\n      0xd04ae69d\n      eq\n      tag_29\n      jumpi\n      dup1\n      0xe5d00035\n      eq\n      tag_30\n      jumpi\n      dup1\n      0xe72b0148\n      eq\n      tag_31\n      jumpi\n      dup1\n      0xf7ca7c72\n      eq\n      tag_32\n      jumpi\n      jump(tag_1)\n    tag_39:\n      dup1\n      0xb6e54bdf\n      gt\n      tag_41\n      jumpi\n      dup1\n      0xb6e54bdf\n      eq\n      tag_24\n      jumpi\n      dup1\n      0xc234d789\n      eq\n      tag_25\n      jumpi\n      dup1\n      0xc50eb984\n      eq\n      tag_26\n      jumpi\n      dup1\n      0xc884ef83\n      eq\n      tag_27\n      jumpi\n      dup1\n      0xca94fb2b\n      eq\n      tag_28\n      jumpi\n      jump(tag_1)\n    tag_41:\n      dup1\n      0x8a4d5a67\n      eq\n      tag_20\n      jumpi\n      dup1\n      0x9380b1cf\n      eq\n      tag_21\n      jumpi\n      dup1\n      0xaec2ccae\n      eq\n      tag_22\n      jumpi\n      dup1\n      0xb384abef\n      eq\n      tag_23\n      jumpi\n      jump(tag_1)\n    tag_38:\n      dup1\n      0x3197cbb6\n      gt\n      tag_42\n      jumpi\n      dup1\n      0x4e71d92d\n      gt\n      tag_43\n      jumpi\n      dup1\n      0x4e71d92d\n      eq\n      tag_15\n      jumpi\n      dup1\n      0x6dc7a627\n      eq\n      tag_16\n      jumpi\n      dup1\n      0x6e3ebc2e\n      eq\n      tag_17\n      jumpi\n      dup1\n      0x74986bfc\n      eq\n      tag_18\n      jumpi\n      dup1\n      0x85730fa1\n      eq\n      tag_19\n      jumpi\n      jump(tag_1)\n    tag_43:\n      dup1\n      0x3197cbb6\n      eq\n      tag_11\n      jumpi\n      dup1\n      0x3e50b331\n      eq\n      tag_12\n      jumpi\n      dup1\n      0x3ff894ad\n      eq\n      tag_13\n      jumpi\n      dup1\n      0x44fe9432\n      eq\n      tag_14\n      jumpi\n      jump(tag_1)\n    tag_42:\n      dup1\n      0x0a68f631\n      gt\n      tag_44\n      jumpi\n      dup1\n      0x0a68f631\n      eq\n      tag_6\n      jumpi\n      dup1\n      0x159e7064\n      eq\n      tag_7\n      jumpi\n      dup1\n      0x1c7cd6ac\n      eq\n      tag_8\n      jumpi\n      dup1\n      0x2b925b25\n      eq\n      tag_9\n      jumpi\n      dup1\n      0x2ec32e6d\n      eq\n      tag_10\n      jumpi\n      jump(tag_1)\n    tag_44:\n      dup1\n      0x02d05d3f\n      eq\n      tag_2\n      jumpi\n      dup1\n      0x0715ef00\n      eq\n      tag_3\n      jumpi\n      dup1\n      0x09c7caf1\n      eq\n      tag_4\n      jumpi\n      dup1\n      0x09f74db7\n      eq\n      tag_5\n      jumpi\n    tag_1:\n      stop\n        /* \"Topic.sol\":479:501  address public creator */\n    tag_2:\n      callvalue\n        /* \"--CODEGEN--\":8:17   */\n      dup1\n        /* \"--CODEGEN--\":5:7   */\n      iszero\n      tag_47\n      jumpi\n        /* \"--CODEGEN--\":30:31   */\n      0x00\n        /* \"--CODEGEN--\":27:28   */\n      dup1\n        /* \"--CODEGEN--\":20:32   */\n      revert\n        /* \"--CODEGEN--\":5:7   */\n    tag_47:\n        /* \"Topic.sol\":479:501  address public creator */\n      pop\n      tag_48\n      tag_49\n      jump\t// in\n    tag_48:\n      mload(0x40)\n      dup1\n      dup3\n      0xffffffffffffffffffffffffffffffffffffffff\n      and\n      0xffffffffffffffffffffffffffffffffffffffff\n      and\n      dup2\n      mstore\n      0x20\n      add\n      swap2\n      pop\n      pop\n      mload(0x40)\n      dup1\n      swap2\n      sub\n      swap1\n      return\n        /* \"Topic.sol\":4731:5226  function createArgument(string memory argumentContent, bool belief) public _mustBeWithinTimeFrame {\r... */\n    tag_3:\n      callvalue\n        /* \"--CODEGEN--\":8:17   */\n      dup1\n        /* \"--CODEGEN--\":5:7   */\n      iszero\n      tag_50\n      jumpi\n        /* \"--CODEGEN--\":30:31   */\n      0x00\n        /* \"--CODEGEN--\":27:28   */\n      dup1\n        /* \"--CODEGEN--\":20:32   */\n      revert\n        /* \"--CODEGEN--\":5:7   */\n    tag_50:\n        /* \"Topic.sol\":4731:5226  function createArgument(string memory argumentContent, bool belief) public _mustBeWithinTimeFrame {\r... */\n      pop\n      tag_51\n      0x04\n      dup1\n      calldatasize\n      sub\n        /* \"--CODEGEN--\":13:15   */\n      0x40\n        /* \"--CODEGEN--\":8:11   */\n      dup2\n        /* \"--CODEGEN--\":5:16   */\n      lt\n        /* \"--CODEGEN--\":2:4   */\n      iszero\n      tag_52\n      jumpi\n        /* \"--CODEGEN--\":29:30   */\n      0x00\n        /* \"--CODEGEN--\":26:27   */\n      dup1\n        /* \"--CODEGEN--\":19:31   */\n      revert\n        /* \"--CODEGEN--\":2:4   */\n    tag_52:\n        /* \"Topic.sol\":4731:5226  function createArgument(string memory argumentContent, bool belief) public _mustBeWithinTimeFrame {\r... */\n      dup2\n      add\n      swap1\n      dup1\n      dup1\n      calldataload\n      swap1\n      0x20\n      add\n      swap1\n        /* \"--CODEGEN--\":21:32   */\n      0x0100000000\n        /* \"--CODEGEN--\":8:19   */\n      dup2\n        /* \"--CODEGEN--\":5:33   */\n      gt\n        /* \"--CODEGEN--\":2:4   */\n      iszero\n      tag_53\n      jumpi\n        /* \"--CODEGEN--\":46:47   */\n      0x00\n        /* \"--CODEGEN--\":43:44   */\n      dup1\n        /* \"--CODEGEN--\":36:48   */\n      revert\n        /* \"--CODEGEN--\":2:4   */\n    tag_53:\n        /* \"Topic.sol\":4731:5226  function createArgument(string memory argumentContent, bool belief) public _mustBeWithinTimeFrame {\r... */\n      dup3\n      add\n        /* \"--CODEGEN--\":35:44   */\n      dup4\n        /* \"--CODEGEN--\":28:32   */\n      0x20\n        /* \"--CODEGEN--\":12:26   */\n      dup3\n        /* \"--CODEGEN--\":8:33   */\n      add\n        /* \"--CODEGEN--\":5:45   */\n      gt\n        /* \"--CODEGEN--\":2:4   */\n      iszero\n      tag_54\n      jumpi\n        /* \"--CODEGEN--\":58:59   */\n      0x00\n        /* \"--CODEGEN--\":55:56   */\n      dup1\n        /* \"--CODEGEN--\":48:60   */\n      revert\n        /* \"--CODEGEN--\":2:4   */\n    tag_54:\n        /* \"Topic.sol\":4731:5226  function createArgument(string memory argumentContent, bool belief) public _mustBeWithinTimeFrame {\r... */\n      dup1\n      calldataload\n      swap1\n      0x20\n      add\n      swap2\n        /* \"--CODEGEN--\":100:109   */\n      dup5\n        /* \"--CODEGEN--\":95:96   */\n      0x01\n        /* \"--CODEGEN--\":81:93   */\n      dup4\n        /* \"--CODEGEN--\":77:97   */\n      mul\n        /* \"--CODEGEN--\":67:75   */\n      dup5\n        /* \"--CODEGEN--\":63:98   */\n      add\n        /* \"--CODEGEN--\":60:110   */\n      gt\n        /* \"--CODEGEN--\":39:50   */\n      0x0100000000\n        /* \"--CODEGEN--\":25:37   */\n      dup4\n        /* \"--CODEGEN--\":22:51   */\n      gt\n        /* \"--CODEGEN--\":11:118   */\n      or\n        /* \"--CODEGEN--\":8:10   */\n      iszero\n      tag_55\n      jumpi\n        /* \"--CODEGEN--\":131:132   */\n      0x00\n        /* \"--CODEGEN--\":128:129   */\n      dup1\n        /* \"--CODEGEN--\":121:133   */\n      revert\n        /* \"--CODEGEN--\":8:10   */\n    tag_55:\n        /* \"Topic.sol\":4731:5226  function createArgument(string memory argumentContent, bool belief) public _mustBeWithinTimeFrame {\r... */\n      swap2\n      swap1\n      dup1\n      dup1\n      0x1f\n      add\n      0x20\n      dup1\n      swap2\n      div\n      mul\n      0x20\n      add\n      mload(0x40)\n      swap1\n      dup2\n      add\n      0x40\n      mstore\n      dup1\n      swap4\n      swap3\n      swap2\n      swap1\n      dup2\n      dup2\n      mstore\n      0x20\n      add\n      dup4\n      dup4\n        /* \"--CODEGEN--\":30:33   */\n      dup1\n        /* \"--CODEGEN--\":22:28   */\n      dup3\n        /* \"--CODEGEN--\":14:20   */\n      dup5\n        /* \"--CODEGEN--\":1:34   */\n      calldatacopy\n        /* \"--CODEGEN--\":99:100   */\n      0x00\n        /* \"--CODEGEN--\":93:96   */\n      dup2\n        /* \"--CODEGEN--\":85:91   */\n      dup5\n        /* \"--CODEGEN--\":81:97   */\n      add\n        /* \"--CODEGEN--\":74:101   */\n      mstore\n        /* \"--CODEGEN--\":137:141   */\n      0x1f\n        /* \"--CODEGEN--\":133:142   */\n      not\n        /* \"--CODEGEN--\":126:130   */\n      0x1f\n        /* \"--CODEGEN--\":121:124   */\n      dup3\n        /* \"--CODEGEN--\":117:131   */\n      add\n        /* \"--CODEGEN--\":113:143   */\n      and\n        /* \"--CODEGEN--\":106:143   */\n      swap1\n      pop\n        /* \"--CODEGEN--\":169:172   */\n      dup1\n        /* \"--CODEGEN--\":161:167   */\n      dup4\n        /* \"--CODEGEN--\":157:173   */\n      add\n        /* \"--CODEGEN--\":147:173   */\n      swap3\n      pop\n        /* \"Topic.sol\":4731:5226  function createArgument(string memory argumentContent, bool belief) public _mustBeWithinTimeFrame {\r... */\n      pop\n      pop\n      pop\n      pop\n      pop\n      pop\n      swap2\n      swap3\n      swap2\n      swap3\n      swap1\n      dup1\n      calldataload\n      iszero\n      iszero\n      swap1\n      0x20\n      add\n      swap1\n      swap3\n      swap2\n      swap1\n      pop\n      pop\n      pop\n      tag_56\n      jump\t// in\n    tag_51:\n      stop\n        /* \"Topic.sol\":852:902  mapping(address => uint) public monetaryInvestment */\n    tag_4:\n      callvalue\n        /* \"--CODEGEN--\":8:17   */\n      dup1\n        /* \"--CODEGEN--\":5:7   */\n      iszero\n      tag_57\n      jumpi\n        /* \"--CODEGEN--\":30:31   */\n      0x00\n        /* \"--CODEGEN--\":27:28   */\n      dup1\n        /* \"--CODEGEN--\":20:32   */\n      revert\n        /* \"--CODEGEN--\":5:7   */\n    tag_57:\n        /* \"Topic.sol\":852:902  mapping(address => uint) public monetaryInvestment */\n      pop\n      tag_58\n      0x04\n      dup1\n      calldatasize\n      sub\n        /* \"--CODEGEN--\":13:15   */\n      0x20\n        /* \"--CODEGEN--\":8:11   */\n      dup2\n        /* \"--CODEGEN--\":5:16   */\n      lt\n        /* \"--CODEGEN--\":2:4   */\n      iszero\n      tag_59\n      jumpi\n        /* \"--CODEGEN--\":29:30   */\n      0x00\n        /* \"--CODEGEN--\":26:27   */\n      dup1\n        /* \"--CODEGEN--\":19:31   */\n      revert\n        /* \"--CODEGEN--\":2:4   */\n    tag_59:\n        /* \"Topic.sol\":852:902  mapping(address => uint) public monetaryInvestment */\n      dup2\n      add\n      swap1\n      dup1\n      dup1\n      calldataload\n      0xffffffffffffffffffffffffffffffffffffffff\n      and\n      swap1\n      0x20\n      add\n      swap1\n      swap3\n      swap2\n      swap1\n      pop\n      pop\n      pop\n      tag_60\n      jump\t// in\n    tag_58:\n      mload(0x40)\n      dup1\n      dup3\n      dup2\n      mstore\n      0x20\n      add\n      swap2\n      pop\n      pop\n      mload(0x40)\n      dup1\n      swap2\n      sub\n      swap1\n      return\n        /* \"Topic.sol\":756:790  address payable[] public lieVoters */\n    tag_5:\n      callvalue\n        /* \"--CODEGEN--\":8:17   */\n      dup1\n        /* \"--CODEGEN--\":5:7   */\n      iszero\n      tag_61\n      jumpi\n        /* \"--CODEGEN--\":30:31   */\n      0x00\n        /* \"--CODEGEN--\":27:28   */\n      dup1\n        /* \"--CODEGEN--\":20:32   */\n      revert\n        /* \"--CODEGEN--\":5:7   */\n    tag_61:\n        /* \"Topic.sol\":756:790  address payable[] public lieVoters */\n      pop\n      tag_62\n      0x04\n      dup1\n      calldatasize\n      sub\n        /* \"--CODEGEN--\":13:15   */\n      0x20\n        /* \"--CODEGEN--\":8:11   */\n      dup2\n        /* \"--CODEGEN--\":5:16   */\n      lt\n        /* \"--CODEGEN--\":2:4   */\n      iszero\n      tag_63\n      jumpi\n        /* \"--CODEGEN--\":29:30   */\n      0x00\n        /* \"--CODEGEN--\":26:27   */\n      dup1\n        /* \"--CODEGEN--\":19:31   */\n      revert\n        /* \"--CODEGEN--\":2:4   */\n    tag_63:\n        /* \"Topic.sol\":756:790  address payable[] public lieVoters */\n      dup2\n      add\n      swap1\n      dup1\n      dup1\n      calldataload\n      swap1\n      0x20\n      add\n      swap1\n      swap3\n      swap2\n      swap1\n      pop\n      pop\n      pop\n      tag_64\n      jump\t// in\n    tag_62:\n      mload(0x40)\n      dup1\n      dup3\n      0xffffffffffffffffffffffffffffffffffffffff\n      and\n      0xffffffffffffffffffffffffffffffffffffffff\n      and\n      dup2\n      mstore\n      0x20\n      add\n      swap2\n      pop\n      pop\n      mload(0x40)\n      dup1\n      swap2\n      sub\n      swap1\n      return\n        /* \"Topic.sol\":570:597  Argument[] public arguments */\n    tag_6:\n      callvalue\n        /* \"--CODEGEN--\":8:17   */\n      dup1\n        /* \"--CODEGEN--\":5:7   */\n      iszero\n      tag_65\n      jumpi\n        /* \"--CODEGEN--\":30:31   */\n      0x00\n        /* \"--CODEGEN--\":27:28   */\n      dup1\n        /* \"--CODEGEN--\":20:32   */\n      revert\n        /* \"--CODEGEN--\":5:7   */\n    tag_65:\n        /* \"Topic.sol\":570:597  Argument[] public arguments */\n      pop\n      tag_66\n      0x04\n      dup1\n      calldatasize\n      sub\n        /* \"--CODEGEN--\":13:15   */\n      0x20\n        /* \"--CODEGEN--\":8:11   */\n      dup2\n        /* \"--CODEGEN--\":5:16   */\n      lt\n        /* \"--CODEGEN--\":2:4   */\n      iszero\n      tag_67\n      jumpi\n        /* \"--CODEGEN--\":29:30   */\n      0x00\n        /* \"--CODEGEN--\":26:27   */\n      dup1\n        /* \"--CODEGEN--\":19:31   */\n      revert\n        /* \"--CODEGEN--\":2:4   */\n    tag_67:\n        /* \"Topic.sol\":570:597  Argument[] public arguments */\n      dup2\n      add\n      swap1\n      dup1\n      dup1\n      calldataload\n      swap1\n      0x20\n      add\n      swap1\n      swap3\n      swap2\n      swap1\n      pop\n      pop\n      pop\n      tag_68\n      jump\t// in\n    tag_66:\n      mload(0x40)\n      dup1\n      dup1\n      0x20\n      add\n      dup6\n      iszero\n      iszero\n      iszero\n      iszero\n      dup2\n      mstore\n      0x20\n      add\n      dup5\n      0xffffffffffffffffffffffffffffffffffffffff\n      and\n      0xffffffffffffffffffffffffffffffffffffffff\n      and\n      dup2\n      mstore\n      0x20\n      add\n      dup4\n      dup2\n      mstore\n      0x20\n      add\n      dup3\n      dup2\n      sub\n      dup3\n      mstore\n      dup7\n      dup2\n      dup2\n      mload\n      dup2\n      mstore\n      0x20\n      add\n      swap2\n      pop\n      dup1\n      mload\n      swap1\n      0x20\n      add\n      swap1\n      dup1\n      dup4\n      dup4\n        /* \"--CODEGEN--\":23:24   */\n      0x00\n        /* \"--CODEGEN--\":8:108   */\n    tag_69:\n        /* \"--CODEGEN--\":33:36   */\n      dup4\n        /* \"--CODEGEN--\":30:31   */\n      dup2\n        /* \"--CODEGEN--\":27:37   */\n      lt\n        /* \"--CODEGEN--\":8:108   */\n      iszero\n      tag_71\n      jumpi\n        /* \"--CODEGEN--\":99:100   */\n      dup1\n        /* \"--CODEGEN--\":94:97   */\n      dup3\n        /* \"--CODEGEN--\":90:101   */\n      add\n        /* \"--CODEGEN--\":84:102   */\n      mload\n        /* \"--CODEGEN--\":80:81   */\n      dup2\n        /* \"--CODEGEN--\":75:78   */\n      dup5\n        /* \"--CODEGEN--\":71:82   */\n      add\n        /* \"--CODEGEN--\":64:103   */\n      mstore\n        /* \"--CODEGEN--\":52:54   */\n      0x20\n        /* \"--CODEGEN--\":49:50   */\n      dup2\n        /* \"--CODEGEN--\":45:55   */\n      add\n        /* \"--CODEGEN--\":40:55   */\n      swap1\n      pop\n        /* \"--CODEGEN--\":8:108   */\n      jump(tag_69)\n    tag_71:\n        /* \"--CODEGEN--\":12:26   */\n      pop\n        /* \"Topic.sol\":570:597  Argument[] public arguments */\n      pop\n      pop\n      pop\n      swap1\n      pop\n      swap1\n      dup2\n      add\n      swap1\n      0x1f\n      and\n      dup1\n      iszero\n      tag_72\n      jumpi\n      dup1\n      dup3\n      sub\n      dup1\n      mload\n      0x01\n      dup4\n      0x20\n      sub\n      0x0100\n      exp\n      sub\n      not\n      and\n      dup2\n      mstore\n      0x20\n      add\n      swap2\n      pop\n    tag_72:\n      pop\n      swap6\n      pop\n      pop\n      pop\n      pop\n      pop\n      pop\n      mload(0x40)\n      dup1\n      swap2\n      sub\n      swap1\n      return\n        /* \"Topic.sol\":2754:2978  function canVote() public view returns (bool) {\r... */\n    tag_7:\n      callvalue\n        /* \"--CODEGEN--\":8:17   */\n      dup1\n        /* \"--CODEGEN--\":5:7   */\n      iszero\n      tag_73\n      jumpi\n        /* \"--CODEGEN--\":30:31   */\n      0x00\n        /* \"--CODEGEN--\":27:28   */\n      dup1\n        /* \"--CODEGEN--\":20:32   */\n      revert\n        /* \"--CODEGEN--\":5:7   */\n    tag_73:\n        /* \"Topic.sol\":2754:2978  function canVote() public view returns (bool) {\r... */\n      pop\n      tag_74\n      tag_75\n      jump\t// in\n    tag_74:\n      mload(0x40)\n      dup1\n      dup3\n      iszero\n      iszero\n      iszero\n      iszero\n      dup2\n      mstore\n      0x20\n      add\n      swap2\n      pop\n      pop\n      mload(0x40)\n      dup1\n      swap2\n      sub\n      swap1\n      return\n        /* \"Topic.sol\":1190:1217  uint public truthReputation */\n    tag_8:\n      callvalue\n        /* \"--CODEGEN--\":8:17   */\n      dup1\n        /* \"--CODEGEN--\":5:7   */\n      iszero\n      tag_76\n      jumpi\n        /* \"--CODEGEN--\":30:31   */\n      0x00\n        /* \"--CODEGEN--\":27:28   */\n      dup1\n        /* \"--CODEGEN--\":20:32   */\n      revert\n        /* \"--CODEGEN--\":5:7   */\n    tag_76:\n        /* \"Topic.sol\":1190:1217  uint public truthReputation */\n      pop\n      tag_77\n      tag_78\n      jump\t// in\n    tag_77:\n      mload(0x40)\n      dup1\n      dup3\n      dup2\n      mstore\n      0x20\n      add\n      swap2\n      pop\n      pop\n      mload(0x40)\n      dup1\n      swap2\n      sub\n      swap1\n      return\n        /* \"Topic.sol\":508:537  uint public minimumInvestment */\n    tag_9:\n      callvalue\n        /* \"--CODEGEN--\":8:17   */\n      dup1\n        /* \"--CODEGEN--\":5:7   */\n      iszero\n      tag_79\n      jumpi\n        /* \"--CODEGEN--\":30:31   */\n      0x00\n        /* \"--CODEGEN--\":27:28   */\n      dup1\n        /* \"--CODEGEN--\":20:32   */\n      revert\n        /* \"--CODEGEN--\":5:7   */\n    tag_79:\n        /* \"Topic.sol\":508:537  uint public minimumInvestment */\n      pop\n      tag_80\n      tag_81\n      jump\t// in\n    tag_80:\n      mload(0x40)\n      dup1\n      dup3\n      dup2\n      mstore\n      0x20\n      add\n      swap2\n      pop\n      pop\n      mload(0x40)\n      dup1\n      swap2\n      sub\n      swap1\n      return\n        /* \"Topic.sol\":4527:4623  function getTruthCount() public view returns (uint) {\r... */\n    tag_10:\n      callvalue\n        /* \"--CODEGEN--\":8:17   */\n      dup1\n        /* \"--CODEGEN--\":5:7   */\n      iszero\n      tag_82\n      jumpi\n        /* \"--CODEGEN--\":30:31   */\n      0x00\n        /* \"--CODEGEN--\":27:28   */\n      dup1\n        /* \"--CODEGEN--\":20:32   */\n      revert\n        /* \"--CODEGEN--\":5:7   */\n    tag_82:\n        /* \"Topic.sol\":4527:4623  function getTruthCount() public view returns (uint) {\r... */\n      pop\n      tag_83\n      tag_84\n      jump\t// in\n    tag_83:\n      mload(0x40)\n      dup1\n      dup3\n      dup2\n      mstore\n      0x20\n      add\n      swap2\n      pop\n      pop\n      mload(0x40)\n      dup1\n      swap2\n      sub\n      swap1\n      return\n        /* \"Topic.sol\":544:563  uint public endTime */\n    tag_11:\n      callvalue\n        /* \"--CODEGEN--\":8:17   */\n      dup1\n        /* \"--CODEGEN--\":5:7   */\n      iszero\n      tag_85\n      jumpi\n        /* \"--CODEGEN--\":30:31   */\n      0x00\n        /* \"--CODEGEN--\":27:28   */\n      dup1\n        /* \"--CODEGEN--\":20:32   */\n      revert\n        /* \"--CODEGEN--\":5:7   */\n    tag_85:\n        /* \"Topic.sol\":544:563  uint public endTime */\n      pop\n      tag_86\n      tag_87\n      jump\t// in\n    tag_86:\n      mload(0x40)\n      dup1\n      dup3\n      dup2\n      mstore\n      0x20\n      add\n      swap2\n      pop\n      pop\n      mload(0x40)\n      dup1\n      swap2\n      sub\n      swap1\n      return\n        /* \"Topic.sol\":9832:10061  function inMajority(address sender) public view returns (bool) {\r... */\n    tag_12:\n      callvalue\n        /* \"--CODEGEN--\":8:17   */\n      dup1\n        /* \"--CODEGEN--\":5:7   */\n      iszero\n      tag_88\n      jumpi\n        /* \"--CODEGEN--\":30:31   */\n      0x00\n        /* \"--CODEGEN--\":27:28   */\n      dup1\n        /* \"--CODEGEN--\":20:32   */\n      revert\n        /* \"--CODEGEN--\":5:7   */\n    tag_88:\n        /* \"Topic.sol\":9832:10061  function inMajority(address sender) public view returns (bool) {\r... */\n      pop\n      tag_89\n      0x04\n      dup1\n      calldatasize\n      sub\n        /* \"--CODEGEN--\":13:15   */\n      0x20\n        /* \"--CODEGEN--\":8:11   */\n      dup2\n        /* \"--CODEGEN--\":5:16   */\n      lt\n        /* \"--CODEGEN--\":2:4   */\n      iszero\n      tag_90\n      jumpi\n        /* \"--CODEGEN--\":29:30   */\n      0x00\n        /* \"--CODEGEN--\":26:27   */\n      dup1\n        /* \"--CODEGEN--\":19:31   */\n      revert\n        /* \"--CODEGEN--\":2:4   */\n    tag_90:\n        /* \"Topic.sol\":9832:10061  function inMajority(address sender) public view returns (bool) {\r... */\n      dup2\n      add\n      swap1\n      dup1\n      dup1\n      calldataload\n      0xffffffffffffffffffffffffffffffffffffffff\n      and\n      swap1\n      0x20\n      add\n      swap1\n      swap3\n      swap2\n      swap1\n      pop\n      pop\n      pop\n      tag_91\n      jump\t// in\n    tag_89:\n      mload(0x40)\n      dup1\n      dup3\n      iszero\n      iszero\n      iszero\n      iszero\n      dup2\n      mstore\n      0x20\n      add\n      swap2\n      pop\n      pop\n      mload(0x40)\n      dup1\n      swap2\n      sub\n      swap1\n      return\n        /* \"Topic.sol\":977:1010  uint public lieMonetaryInvestment */\n    tag_13:\n      callvalue\n        /* \"--CODEGEN--\":8:17   */\n      dup1\n        /* \"--CODEGEN--\":5:7   */\n      iszero\n      tag_92\n      jumpi\n        /* \"--CODEGEN--\":30:31   */\n      0x00\n        /* \"--CODEGEN--\":27:28   */\n      dup1\n        /* \"--CODEGEN--\":20:32   */\n      revert\n        /* \"--CODEGEN--\":5:7   */\n    tag_92:\n        /* \"Topic.sol\":977:1010  uint public lieMonetaryInvestment */\n      pop\n      tag_93\n      tag_94\n      jump\t// in\n    tag_93:\n      mload(0x40)\n      dup1\n      dup3\n      dup2\n      mstore\n      0x20\n      add\n      swap2\n      pop\n      pop\n      mload(0x40)\n      dup1\n      swap2\n      sub\n      swap1\n      return\n        /* \"Topic.sol\":1302:1349  mapping(address => uint) public createdArgument */\n    tag_14:\n      callvalue\n        /* \"--CODEGEN--\":8:17   */\n      dup1\n        /* \"--CODEGEN--\":5:7   */\n      iszero\n      tag_95\n      jumpi\n        /* \"--CODEGEN--\":30:31   */\n      0x00\n        /* \"--CODEGEN--\":27:28   */\n      dup1\n        /* \"--CODEGEN--\":20:32   */\n      revert\n        /* \"--CODEGEN--\":5:7   */\n    tag_95:\n        /* \"Topic.sol\":1302:1349  mapping(address => uint) public createdArgument */\n      pop\n      tag_96\n      0x04\n      dup1\n      calldatasize\n      sub\n        /* \"--CODEGEN--\":13:15   */\n      0x20\n        /* \"--CODEGEN--\":8:11   */\n      dup2\n        /* \"--CODEGEN--\":5:16   */\n      lt\n        /* \"--CODEGEN--\":2:4   */\n      iszero\n      tag_97\n      jumpi\n        /* \"--CODEGEN--\":29:30   */\n      0x00\n        /* \"--CODEGEN--\":26:27   */\n      dup1\n        /* \"--CODEGEN--\":19:31   */\n      revert\n        /* \"--CODEGEN--\":2:4   */\n    tag_97:\n        /* \"Topic.sol\":1302:1349  mapping(address => uint) public createdArgument */\n      dup2\n      add\n      swap1\n      dup1\n      dup1\n      calldataload\n      0xffffffffffffffffffffffffffffffffffffffff\n      and\n      swap1\n      0x20\n      add\n      swap1\n      swap3\n      swap2\n      swap1\n      pop\n      pop\n      pop\n      tag_98\n      jump\t// in\n    tag_96:\n      mload(0x40)\n      dup1\n      dup3\n      dup2\n      mstore\n      0x20\n      add\n      swap2\n      pop\n      pop\n      mload(0x40)\n      dup1\n      swap2\n      sub\n      swap1\n      return\n        /* \"Topic.sol\":7125:7866  function claim() public {\r... */\n    tag_15:\n      callvalue\n        /* \"--CODEGEN--\":8:17   */\n      dup1\n        /* \"--CODEGEN--\":5:7   */\n      iszero\n      tag_99\n      jumpi\n        /* \"--CODEGEN--\":30:31   */\n      0x00\n        /* \"--CODEGEN--\":27:28   */\n      dup1\n        /* \"--CODEGEN--\":20:32   */\n      revert\n        /* \"--CODEGEN--\":5:7   */\n    tag_99:\n        /* \"Topic.sol\":7125:7866  function claim() public {\r... */\n      pop\n      tag_100\n      tag_101\n      jump\t// in\n    tag_100:\n      stop\n        /* \"Topic.sol\":6924:7117  function canClaim() public view returns (bool) {\r... */\n    tag_16:\n      callvalue\n        /* \"--CODEGEN--\":8:17   */\n      dup1\n        /* \"--CODEGEN--\":5:7   */\n      iszero\n      tag_102\n      jumpi\n        /* \"--CODEGEN--\":30:31   */\n      0x00\n        /* \"--CODEGEN--\":27:28   */\n      dup1\n        /* \"--CODEGEN--\":20:32   */\n      revert\n        /* \"--CODEGEN--\":5:7   */\n    tag_102:\n        /* \"Topic.sol\":6924:7117  function canClaim() public view returns (bool) {\r... */\n      pop\n      tag_103\n      tag_104\n      jump\t// in\n    tag_103:\n      mload(0x40)\n      dup1\n      dup3\n      iszero\n      iszero\n      iszero\n      iszero\n      dup2\n      mstore\n      0x20\n      add\n      swap2\n      pop\n      pop\n      mload(0x40)\n      dup1\n      swap2\n      sub\n      swap1\n      return\n        /* \"Topic.sol\":4631:4723  function getLieCount() public view returns (uint) {\r... */\n    tag_17:\n      callvalue\n        /* \"--CODEGEN--\":8:17   */\n      dup1\n        /* \"--CODEGEN--\":5:7   */\n      iszero\n      tag_105\n      jumpi\n        /* \"--CODEGEN--\":30:31   */\n      0x00\n        /* \"--CODEGEN--\":27:28   */\n      dup1\n        /* \"--CODEGEN--\":20:32   */\n      revert\n        /* \"--CODEGEN--\":5:7   */\n    tag_105:\n        /* \"Topic.sol\":4631:4723  function getLieCount() public view returns (uint) {\r... */\n      pop\n      tag_106\n      tag_107\n      jump\t// in\n    tag_106:\n      mload(0x40)\n      dup1\n      dup3\n      dup2\n      mstore\n      0x20\n      add\n      swap2\n      pop\n      pop\n      mload(0x40)\n      dup1\n      swap2\n      sub\n      swap1\n      return\n        /* \"Topic.sol\":2670:2746  function isTopic() public pure returns (bool) {\r... */\n    tag_18:\n      callvalue\n        /* \"--CODEGEN--\":8:17   */\n      dup1\n        /* \"--CODEGEN--\":5:7   */\n      iszero\n      tag_108\n      jumpi\n        /* \"--CODEGEN--\":30:31   */\n      0x00\n        /* \"--CODEGEN--\":27:28   */\n      dup1\n        /* \"--CODEGEN--\":20:32   */\n      revert\n        /* \"--CODEGEN--\":5:7   */\n    tag_108:\n        /* \"Topic.sol\":2670:2746  function isTopic() public pure returns (bool) {\r... */\n      pop\n      tag_109\n      tag_110\n      jump\t// in\n    tag_109:\n      mload(0x40)\n      dup1\n      dup3\n      iszero\n      iszero\n      iszero\n      iszero\n      dup2\n      mstore\n      0x20\n      add\n      swap2\n      pop\n      pop\n      mload(0x40)\n      dup1\n      swap2\n      sub\n      swap1\n      return\n        /* \"Topic.sol\":935:970  uint public truthMonetaryInvestment */\n    tag_19:\n      callvalue\n        /* \"--CODEGEN--\":8:17   */\n      dup1\n        /* \"--CODEGEN--\":5:7   */\n      iszero\n      tag_111\n      jumpi\n        /* \"--CODEGEN--\":30:31   */\n      0x00\n        /* \"--CODEGEN--\":27:28   */\n      dup1\n        /* \"--CODEGEN--\":20:32   */\n      revert\n        /* \"--CODEGEN--\":5:7   */\n    tag_111:\n        /* \"Topic.sol\":935:970  uint public truthMonetaryInvestment */\n      pop\n      tag_112\n      tag_113\n      jump\t// in\n    tag_112:\n      mload(0x40)\n      dup1\n      dup3\n      dup2\n      mstore\n      0x20\n      add\n      swap2\n      pop\n      pop\n      mload(0x40)\n      dup1\n      swap2\n      sub\n      swap1\n      return\n        /* \"Topic.sol\":451:472  string public content */\n    tag_20:\n      callvalue\n        /* \"--CODEGEN--\":8:17   */\n      dup1\n        /* \"--CODEGEN--\":5:7   */\n      iszero\n      tag_114\n      jumpi\n        /* \"--CODEGEN--\":30:31   */\n      0x00\n        /* \"--CODEGEN--\":27:28   */\n      dup1\n        /* \"--CODEGEN--\":20:32   */\n      revert\n        /* \"--CODEGEN--\":5:7   */\n    tag_114:\n        /* \"Topic.sol\":451:472  string public content */\n      pop\n      tag_115\n      tag_116\n      jump\t// in\n    tag_115:\n      mload(0x40)\n      dup1\n      dup1\n      0x20\n      add\n      dup3\n      dup2\n      sub\n      dup3\n      mstore\n      dup4\n      dup2\n      dup2\n      mload\n      dup2\n      mstore\n      0x20\n      add\n      swap2\n      pop\n      dup1\n      mload\n      swap1\n      0x20\n      add\n      swap1\n      dup1\n      dup4\n      dup4\n        /* \"--CODEGEN--\":23:24   */\n      0x00\n        /* \"--CODEGEN--\":8:108   */\n    tag_117:\n        /* \"--CODEGEN--\":33:36   */\n      dup4\n        /* \"--CODEGEN--\":30:31   */\n      dup2\n        /* \"--CODEGEN--\":27:37   */\n      lt\n        /* \"--CODEGEN--\":8:108   */\n      iszero\n      tag_119\n      jumpi\n        /* \"--CODEGEN--\":99:100   */\n      dup1\n        /* \"--CODEGEN--\":94:97   */\n      dup3\n        /* \"--CODEGEN--\":90:101   */\n      add\n        /* \"--CODEGEN--\":84:102   */\n      mload\n        /* \"--CODEGEN--\":80:81   */\n      dup2\n        /* \"--CODEGEN--\":75:78   */\n      dup5\n        /* \"--CODEGEN--\":71:82   */\n      add\n        /* \"--CODEGEN--\":64:103   */\n      mstore\n        /* \"--CODEGEN--\":52:54   */\n      0x20\n        /* \"--CODEGEN--\":49:50   */\n      dup2\n        /* \"--CODEGEN--\":45:55   */\n      add\n        /* \"--CODEGEN--\":40:55   */\n      swap1\n      pop\n        /* \"--CODEGEN--\":8:108   */\n      jump(tag_117)\n    tag_119:\n        /* \"--CODEGEN--\":12:26   */\n      pop\n        /* \"Topic.sol\":451:472  string public content */\n      pop\n      pop\n      pop\n      swap1\n      pop\n      swap1\n      dup2\n      add\n      swap1\n      0x1f\n      and\n      dup1\n      iszero\n      tag_120\n      jumpi\n      dup1\n      dup3\n      sub\n      dup1\n      mload\n      0x01\n      dup4\n      0x20\n      sub\n      0x0100\n      exp\n      sub\n      not\n      and\n      dup2\n      mstore\n      0x20\n      add\n      swap2\n      pop\n    tag_120:\n      pop\n      swap3\n      pop\n      pop\n      pop\n      mload(0x40)\n      dup1\n      swap2\n      sub\n      swap1\n      return\n        /* \"Topic.sol\":7874:8272  function creatorClaim() public _creatorOnly {\r... */\n    tag_21:\n      callvalue\n        /* \"--CODEGEN--\":8:17   */\n      dup1\n        /* \"--CODEGEN--\":5:7   */\n      iszero\n      tag_121\n      jumpi\n        /* \"--CODEGEN--\":30:31   */\n      0x00\n        /* \"--CODEGEN--\":27:28   */\n      dup1\n        /* \"--CODEGEN--\":20:32   */\n      revert\n        /* \"--CODEGEN--\":5:7   */\n    tag_121:\n        /* \"Topic.sol\":7874:8272  function creatorClaim() public _creatorOnly {\r... */\n      pop\n      tag_122\n      tag_123\n      jump\t// in\n    tag_122:\n      stop\n        /* \"Topic.sol\":627:664  mapping(address => uint) public voted */\n    tag_22:\n      callvalue\n        /* \"--CODEGEN--\":8:17   */\n      dup1\n        /* \"--CODEGEN--\":5:7   */\n      iszero\n      tag_124\n      jumpi\n        /* \"--CODEGEN--\":30:31   */\n      0x00\n        /* \"--CODEGEN--\":27:28   */\n      dup1\n        /* \"--CODEGEN--\":20:32   */\n      revert\n        /* \"--CODEGEN--\":5:7   */\n    tag_124:\n        /* \"Topic.sol\":627:664  mapping(address => uint) public voted */\n      pop\n      tag_125\n      0x04\n      dup1\n      calldatasize\n      sub\n        /* \"--CODEGEN--\":13:15   */\n      0x20\n        /* \"--CODEGEN--\":8:11   */\n      dup2\n        /* \"--CODEGEN--\":5:16   */\n      lt\n        /* \"--CODEGEN--\":2:4   */\n      iszero\n      tag_126\n      jumpi\n        /* \"--CODEGEN--\":29:30   */\n      0x00\n        /* \"--CODEGEN--\":26:27   */\n      dup1\n        /* \"--CODEGEN--\":19:31   */\n      revert\n        /* \"--CODEGEN--\":2:4   */\n    tag_126:\n        /* \"Topic.sol\":627:664  mapping(address => uint) public voted */\n      dup2\n      add\n      swap1\n      dup1\n      dup1\n      calldataload\n      0xffffffffffffffffffffffffffffffffffffffff\n      and\n      swap1\n      0x20\n      add\n      swap1\n      swap3\n      swap2\n      swap1\n      pop\n      pop\n      pop\n      tag_127\n      jump\t// in\n    tag_125:\n      mload(0x40)\n      dup1\n      dup3\n      dup2\n      mstore\n      0x20\n      add\n      swap2\n      pop\n      pop\n      mload(0x40)\n      dup1\n      swap2\n      sub\n      swap1\n      return\n        /* \"Topic.sol\":3040:4519  function vote(uint argumentIndex, uint reputationCost) public payable _mustBeWithinTimeFrame {\r... */\n    tag_23:\n      tag_128\n      0x04\n      dup1\n      calldatasize\n      sub\n        /* \"--CODEGEN--\":13:15   */\n      0x40\n        /* \"--CODEGEN--\":8:11   */\n      dup2\n        /* \"--CODEGEN--\":5:16   */\n      lt\n        /* \"--CODEGEN--\":2:4   */\n      iszero\n      tag_129\n      jumpi\n        /* \"--CODEGEN--\":29:30   */\n      0x00\n        /* \"--CODEGEN--\":26:27   */\n      dup1\n        /* \"--CODEGEN--\":19:31   */\n      revert\n        /* \"--CODEGEN--\":2:4   */\n    tag_129:\n        /* \"Topic.sol\":3040:4519  function vote(uint argumentIndex, uint reputationCost) public payable _mustBeWithinTimeFrame {\r... */\n      dup2\n      add\n      swap1\n      dup1\n      dup1\n      calldataload\n      swap1\n      0x20\n      add\n      swap1\n      swap3\n      swap2\n      swap1\n      dup1\n      calldataload\n      swap1\n      0x20\n      add\n      swap1\n      swap3\n      swap2\n      swap1\n      pop\n      pop\n      pop\n      tag_130\n      jump\t// in\n    tag_128:\n      stop\n        /* \"Topic.sol\":1535:1555  uint public majority */\n    tag_24:\n      callvalue\n        /* \"--CODEGEN--\":8:17   */\n      dup1\n        /* \"--CODEGEN--\":5:7   */\n      iszero\n      tag_131\n      jumpi\n        /* \"--CODEGEN--\":30:31   */\n      0x00\n        /* \"--CODEGEN--\":27:28   */\n      dup1\n        /* \"--CODEGEN--\":20:32   */\n      revert\n        /* \"--CODEGEN--\":5:7   */\n    tag_131:\n        /* \"Topic.sol\":1535:1555  uint public majority */\n      pop\n      tag_132\n      tag_133\n      jump\t// in\n    tag_132:\n      mload(0x40)\n      dup1\n      dup3\n      dup2\n      mstore\n      0x20\n      add\n      swap2\n      pop\n      pop\n      mload(0x40)\n      dup1\n      swap2\n      sub\n      swap1\n      return\n        /* \"Topic.sol\":5696:5793  function getArgumentCount() public view returns (uint) {\r... */\n    tag_25:\n      callvalue\n        /* \"--CODEGEN--\":8:17   */\n      dup1\n        /* \"--CODEGEN--\":5:7   */\n      iszero\n      tag_134\n      jumpi\n        /* \"--CODEGEN--\":30:31   */\n      0x00\n        /* \"--CODEGEN--\":27:28   */\n      dup1\n        /* \"--CODEGEN--\":20:32   */\n      revert\n        /* \"--CODEGEN--\":5:7   */\n    tag_134:\n        /* \"Topic.sol\":5696:5793  function getArgumentCount() public view returns (uint) {\r... */\n      pop\n      tag_135\n      tag_136\n      jump\t// in\n    tag_135:\n      mload(0x40)\n      dup1\n      dup3\n      dup2\n      mstore\n      0x20\n      add\n      swap2\n      pop\n      pop\n      mload(0x40)\n      dup1\n      swap2\n      sub\n      swap1\n      return\n        /* \"Topic.sol\":9237:9508  function calculateReputationGain(uint initialReputation, address sender) public view returns (uint) {\r... */\n    tag_26:\n      callvalue\n        /* \"--CODEGEN--\":8:17   */\n      dup1\n        /* \"--CODEGEN--\":5:7   */\n      iszero\n      tag_137\n      jumpi\n        /* \"--CODEGEN--\":30:31   */\n      0x00\n        /* \"--CODEGEN--\":27:28   */\n      dup1\n        /* \"--CODEGEN--\":20:32   */\n      revert\n        /* \"--CODEGEN--\":5:7   */\n    tag_137:\n        /* \"Topic.sol\":9237:9508  function calculateReputationGain(uint initialReputation, address sender) public view returns (uint) {\r... */\n      pop\n      tag_138\n      0x04\n      dup1\n      calldatasize\n      sub\n        /* \"--CODEGEN--\":13:15   */\n      0x40\n        /* \"--CODEGEN--\":8:11   */\n      dup2\n        /* \"--CODEGEN--\":5:16   */\n      lt\n        /* \"--CODEGEN--\":2:4   */\n      iszero\n      tag_139\n      jumpi\n        /* \"--CODEGEN--\":29:30   */\n      0x00\n        /* \"--CODEGEN--\":26:27   */\n      dup1\n        /* \"--CODEGEN--\":19:31   */\n      revert\n        /* \"--CODEGEN--\":2:4   */\n    tag_139:\n        /* \"Topic.sol\":9237:9508  function calculateReputationGain(uint initialReputation, address sender) public view returns (uint) {\r... */\n      dup2\n      add\n      swap1\n      dup1\n      dup1\n      calldataload\n      swap1\n      0x20\n      add\n      swap1\n      swap3\n      swap2\n      swap1\n      dup1\n      calldataload\n      0xffffffffffffffffffffffffffffffffffffffff\n      and\n      swap1\n      0x20\n      add\n      swap1\n      swap3\n      swap2\n      swap1\n      pop\n      pop\n      pop\n      tag_140\n      jump\t// in\n    tag_138:\n      mload(0x40)\n      dup1\n      dup3\n      dup2\n      mstore\n      0x20\n      add\n      swap2\n      pop\n      pop\n      mload(0x40)\n      dup1\n      swap2\n      sub\n      swap1\n      return\n        /* \"Topic.sol\":1384:1423  mapping(address => bool) public claimed */\n    tag_27:\n      callvalue\n        /* \"--CODEGEN--\":8:17   */\n      dup1\n        /* \"--CODEGEN--\":5:7   */\n      iszero\n      tag_141\n      jumpi\n        /* \"--CODEGEN--\":30:31   */\n      0x00\n        /* \"--CODEGEN--\":27:28   */\n      dup1\n        /* \"--CODEGEN--\":20:32   */\n      revert\n        /* \"--CODEGEN--\":5:7   */\n    tag_141:\n        /* \"Topic.sol\":1384:1423  mapping(address => bool) public claimed */\n      pop\n      tag_142\n      0x04\n      dup1\n      calldatasize\n      sub\n        /* \"--CODEGEN--\":13:15   */\n      0x20\n        /* \"--CODEGEN--\":8:11   */\n      dup2\n        /* \"--CODEGEN--\":5:16   */\n      lt\n        /* \"--CODEGEN--\":2:4   */\n      iszero\n      tag_143\n      jumpi\n        /* \"--CODEGEN--\":29:30   */\n      0x00\n        /* \"--CODEGEN--\":26:27   */\n      dup1\n        /* \"--CODEGEN--\":19:31   */\n      revert\n        /* \"--CODEGEN--\":2:4   */\n    tag_143:\n        /* \"Topic.sol\":1384:1423  mapping(address => bool) public claimed */\n      dup2\n      add\n      swap1\n      dup1\n      dup1\n      calldataload\n      0xffffffffffffffffffffffffffffffffffffffff\n      and\n      swap1\n      0x20\n      add\n      swap1\n      swap3\n      swap2\n      swap1\n      pop\n      pop\n      pop\n      tag_144\n      jump\t// in\n    tag_142:\n      mload(0x40)\n      dup1\n      dup3\n      iszero\n      iszero\n      iszero\n      iszero\n      dup2\n      mstore\n      0x20\n      add\n      swap2\n      pop\n      pop\n      mload(0x40)\n      dup1\n      swap2\n      sub\n      swap1\n      return\n        /* \"Topic.sol\":1098:1150  mapping(address => uint) public reputationInvestment */\n    tag_28:\n      callvalue\n        /* \"--CODEGEN--\":8:17   */\n      dup1\n        /* \"--CODEGEN--\":5:7   */\n      iszero\n      tag_145\n      jumpi\n        /* \"--CODEGEN--\":30:31   */\n      0x00\n        /* \"--CODEGEN--\":27:28   */\n      dup1\n        /* \"--CODEGEN--\":20:32   */\n      revert\n        /* \"--CODEGEN--\":5:7   */\n    tag_145:\n        /* \"Topic.sol\":1098:1150  mapping(address => uint) public reputationInvestment */\n      pop\n      tag_146\n      0x04\n      dup1\n      calldatasize\n      sub\n        /* \"--CODEGEN--\":13:15   */\n      0x20\n        /* \"--CODEGEN--\":8:11   */\n      dup2\n        /* \"--CODEGEN--\":5:16   */\n      lt\n        /* \"--CODEGEN--\":2:4   */\n      iszero\n      tag_147\n      jumpi\n        /* \"--CODEGEN--\":29:30   */\n      0x00\n        /* \"--CODEGEN--\":26:27   */\n      dup1\n        /* \"--CODEGEN--\":19:31   */\n      revert\n        /* \"--CODEGEN--\":2:4   */\n    tag_147:\n        /* \"Topic.sol\":1098:1150  mapping(address => uint) public reputationInvestment */\n      dup2\n      add\n      swap1\n      dup1\n      dup1\n      calldataload\n      0xffffffffffffffffffffffffffffffffffffffff\n      and\n      swap1\n      0x20\n      add\n      swap1\n      swap3\n      swap2\n      swap1\n      pop\n      pop\n      pop\n      tag_148\n      jump\t// in\n    tag_146:\n      mload(0x40)\n      dup1\n      dup3\n      dup2\n      mstore\n      0x20\n      add\n      swap2\n      pop\n      pop\n      mload(0x40)\n      dup1\n      swap2\n      sub\n      swap1\n      return\n        /* \"Topic.sol\":1224:1249  uint public lieReputation */\n    tag_29:\n      callvalue\n        /* \"--CODEGEN--\":8:17   */\n      dup1\n        /* \"--CODEGEN--\":5:7   */\n      iszero\n      tag_149\n      jumpi\n        /* \"--CODEGEN--\":30:31   */\n      0x00\n        /* \"--CODEGEN--\":27:28   */\n      dup1\n        /* \"--CODEGEN--\":20:32   */\n      revert\n        /* \"--CODEGEN--\":5:7   */\n    tag_149:\n        /* \"Topic.sol\":1224:1249  uint public lieReputation */\n      pop\n      tag_150\n      tag_151\n      jump\t// in\n    tag_150:\n      mload(0x40)\n      dup1\n      dup3\n      dup2\n      mstore\n      0x20\n      add\n      swap2\n      pop\n      pop\n      mload(0x40)\n      dup1\n      swap2\n      sub\n      swap1\n      return\n        /* \"Topic.sol\":697:733  address payable[] public truthVoters */\n    tag_30:\n      callvalue\n        /* \"--CODEGEN--\":8:17   */\n      dup1\n        /* \"--CODEGEN--\":5:7   */\n      iszero\n      tag_152\n      jumpi\n        /* \"--CODEGEN--\":30:31   */\n      0x00\n        /* \"--CODEGEN--\":27:28   */\n      dup1\n        /* \"--CODEGEN--\":20:32   */\n      revert\n        /* \"--CODEGEN--\":5:7   */\n    tag_152:\n        /* \"Topic.sol\":697:733  address payable[] public truthVoters */\n      pop\n      tag_153\n      0x04\n      dup1\n      calldatasize\n      sub\n        /* \"--CODEGEN--\":13:15   */\n      0x20\n        /* \"--CODEGEN--\":8:11   */\n      dup2\n        /* \"--CODEGEN--\":5:16   */\n      lt\n        /* \"--CODEGEN--\":2:4   */\n      iszero\n      tag_154\n      jumpi\n        /* \"--CODEGEN--\":29:30   */\n      0x00\n        /* \"--CODEGEN--\":26:27   */\n      dup1\n        /* \"--CODEGEN--\":19:31   */\n      revert\n        /* \"--CODEGEN--\":2:4   */\n    tag_154:\n        /* \"Topic.sol\":697:733  address payable[] public truthVoters */\n      dup2\n      add\n      swap1\n      dup1\n      dup1\n      calldataload\n      swap1\n      0x20\n      add\n      swap1\n      swap3\n      swap2\n      swap1\n      pop\n      pop\n      pop\n      tag_155\n      jump\t// in\n    tag_153:\n      mload(0x40)\n      dup1\n      dup3\n      0xffffffffffffffffffffffffffffffffffffffff\n      and\n      0xffffffffffffffffffffffffffffffffffffffff\n      and\n      dup2\n      mstore\n      0x20\n      add\n      swap2\n      pop\n      pop\n      mload(0x40)\n      dup1\n      swap2\n      sub\n      swap1\n      return\n        /* \"Topic.sol\":1256:1293  uint public totalReputationInvestment */\n    tag_31:\n      callvalue\n        /* \"--CODEGEN--\":8:17   */\n      dup1\n        /* \"--CODEGEN--\":5:7   */\n      iszero\n      tag_156\n      jumpi\n        /* \"--CODEGEN--\":30:31   */\n      0x00\n        /* \"--CODEGEN--\":27:28   */\n      dup1\n        /* \"--CODEGEN--\":20:32   */\n      revert\n        /* \"--CODEGEN--\":5:7   */\n    tag_156:\n        /* \"Topic.sol\":1256:1293  uint public totalReputationInvestment */\n      pop\n      tag_157\n      tag_158\n      jump\t// in\n    tag_157:\n      mload(0x40)\n      dup1\n      dup3\n      dup2\n      mstore\n      0x20\n      add\n      swap2\n      pop\n      pop\n      mload(0x40)\n      dup1\n      swap2\n      sub\n      swap1\n      return\n        /* \"Topic.sol\":5234:5688  function modifyArgument(uint argumentIndex, string memory newContent, bool belief) public _mustBeWithinTimeFrame  {\r... */\n    tag_32:\n      callvalue\n        /* \"--CODEGEN--\":8:17   */\n      dup1\n        /* \"--CODEGEN--\":5:7   */\n      iszero\n      tag_159\n      jumpi\n        /* \"--CODEGEN--\":30:31   */\n      0x00\n        /* \"--CODEGEN--\":27:28   */\n      dup1\n        /* \"--CODEGEN--\":20:32   */\n      revert\n        /* \"--CODEGEN--\":5:7   */\n    tag_159:\n        /* \"Topic.sol\":5234:5688  function modifyArgument(uint argumentIndex, string memory newContent, bool belief) public _mustBeWithinTimeFrame  {\r... */\n      pop\n      tag_160\n      0x04\n      dup1\n      calldatasize\n      sub\n        /* \"--CODEGEN--\":13:15   */\n      0x60\n        /* \"--CODEGEN--\":8:11   */\n      dup2\n        /* \"--CODEGEN--\":5:16   */\n      lt\n        /* \"--CODEGEN--\":2:4   */\n      iszero\n      tag_161\n      jumpi\n        /* \"--CODEGEN--\":29:30   */\n      0x00\n        /* \"--CODEGEN--\":26:27   */\n      dup1\n        /* \"--CODEGEN--\":19:31   */\n      revert\n        /* \"--CODEGEN--\":2:4   */\n    tag_161:\n        /* \"Topic.sol\":5234:5688  function modifyArgument(uint argumentIndex, string memory newContent, bool belief) public _mustBeWithinTimeFrame  {\r... */\n      dup2\n      add\n      swap1\n      dup1\n      dup1\n      calldataload\n      swap1\n      0x20\n      add\n      swap1\n      swap3\n      swap2\n      swap1\n      dup1\n      calldataload\n      swap1\n      0x20\n      add\n      swap1\n        /* \"--CODEGEN--\":21:32   */\n      0x0100000000\n        /* \"--CODEGEN--\":8:19   */\n      dup2\n        /* \"--CODEGEN--\":5:33   */\n      gt\n        /* \"--CODEGEN--\":2:4   */\n      iszero\n      tag_162\n      jumpi\n        /* \"--CODEGEN--\":46:47   */\n      0x00\n        /* \"--CODEGEN--\":43:44   */\n      dup1\n        /* \"--CODEGEN--\":36:48   */\n      revert\n        /* \"--CODEGEN--\":2:4   */\n    tag_162:\n        /* \"Topic.sol\":5234:5688  function modifyArgument(uint argumentIndex, string memory newContent, bool belief) public _mustBeWithinTimeFrame  {\r... */\n      dup3\n      add\n        /* \"--CODEGEN--\":35:44   */\n      dup4\n        /* \"--CODEGEN--\":28:32   */\n      0x20\n        /* \"--CODEGEN--\":12:26   */\n      dup3\n        /* \"--CODEGEN--\":8:33   */\n      add\n        /* \"--CODEGEN--\":5:45   */\n      gt\n        /* \"--CODEGEN--\":2:4   */\n      iszero\n      tag_163\n      jumpi\n        /* \"--CODEGEN--\":58:59   */\n      0x00\n        /* \"--CODEGEN--\":55:56   */\n      dup1\n        /* \"--CODEGEN--\":48:60   */\n      revert\n        /* \"--CODEGEN--\":2:4   */\n    tag_163:\n        /* \"Topic.sol\":5234:5688  function modifyArgument(uint argumentIndex, string memory newContent, bool belief) public _mustBeWithinTimeFrame  {\r... */\n      dup1\n      calldataload\n      swap1\n      0x20\n      add\n      swap2\n        /* \"--CODEGEN--\":100:109   */\n      dup5\n        /* \"--CODEGEN--\":95:96   */\n      0x01\n        /* \"--CODEGEN--\":81:93   */\n      dup4\n        /* \"--CODEGEN--\":77:97   */\n      mul\n        /* \"--CODEGEN--\":67:75   */\n      dup5\n        /* \"--CODEGEN--\":63:98   */\n      add\n        /* \"--CODEGEN--\":60:110   */\n      gt\n        /* \"--CODEGEN--\":39:50   */\n      0x0100000000\n        /* \"--CODEGEN--\":25:37   */\n      dup4\n        /* \"--CODEGEN--\":22:51   */\n      gt\n        /* \"--CODEGEN--\":11:118   */\n      or\n        /* \"--CODEGEN--\":8:10   */\n      iszero\n      tag_164\n      jumpi\n        /* \"--CODEGEN--\":131:132   */\n      0x00\n        /* \"--CODEGEN--\":128:129   */\n      dup1\n        /* \"--CODEGEN--\":121:133   */\n      revert\n        /* \"--CODEGEN--\":8:10   */\n    tag_164:\n        /* \"Topic.sol\":5234:5688  function modifyArgument(uint argumentIndex, string memory newContent, bool belief) public _mustBeWithinTimeFrame  {\r... */\n      swap2\n      swap1\n      dup1\n      dup1\n      0x1f\n      add\n      0x20\n      dup1\n      swap2\n      div\n      mul\n      0x20\n      add\n      mload(0x40)\n      swap1\n      dup2\n      add\n      0x40\n      mstore\n      dup1\n      swap4\n      swap3\n      swap2\n      swap1\n      dup2\n      dup2\n      mstore\n      0x20\n      add\n      dup4\n      dup4\n        /* \"--CODEGEN--\":30:33   */\n      dup1\n        /* \"--CODEGEN--\":22:28   */\n      dup3\n        /* \"--CODEGEN--\":14:20   */\n      dup5\n        /* \"--CODEGEN--\":1:34   */\n      calldatacopy\n        /* \"--CODEGEN--\":99:100   */\n      0x00\n        /* \"--CODEGEN--\":93:96   */\n      dup2\n        /* \"--CODEGEN--\":85:91   */\n      dup5\n        /* \"--CODEGEN--\":81:97   */\n      add\n        /* \"--CODEGEN--\":74:101   */\n      mstore\n        /* \"--CODEGEN--\":137:141   */\n      0x1f\n        /* \"--CODEGEN--\":133:142   */\n      not\n        /* \"--CODEGEN--\":126:130   */\n      0x1f\n        /* \"--CODEGEN--\":121:124   */\n      dup3\n        /* \"--CODEGEN--\":117:131   */\n      add\n        /* \"--CODEGEN--\":113:143   */\n      and\n        /* \"--CODEGEN--\":106:143   */\n      swap1\n      pop\n        /* \"--CODEGEN--\":169:172   */\n      dup1\n        /* \"--CODEGEN--\":161:167   */\n      dup4\n        /* \"--CODEGEN--\":157:173   */\n      add\n        /* \"--CODEGEN--\":147:173   */\n      swap3\n      pop\n        /* \"Topic.sol\":5234:5688  function modifyArgument(uint argumentIndex, string memory newContent, bool belief) public _mustBeWithinTimeFrame  {\r... */\n      pop\n      pop\n      pop\n      pop\n      pop\n      pop\n      swap2\n      swap3\n      swap2\n      swap3\n      swap1\n      dup1\n      calldataload\n      iszero\n      iszero\n      swap1\n      0x20\n      add\n      swap1\n      swap3\n      swap2\n      swap1\n      pop\n      pop\n      pop\n      tag_165\n      jump\t// in\n    tag_160:\n      stop\n        /* \"Topic.sol\":10069:10167  function getMoneyPool() public view returns (uint) {\r... */\n    tag_33:\n      callvalue\n        /* \"--CODEGEN--\":8:17   */\n      dup1\n        /* \"--CODEGEN--\":5:7   */\n      iszero\n      tag_166\n      jumpi\n        /* \"--CODEGEN--\":30:31   */\n      0x00\n        /* \"--CODEGEN--\":27:28   */\n      dup1\n        /* \"--CODEGEN--\":20:32   */\n      revert\n        /* \"--CODEGEN--\":5:7   */\n    tag_166:\n        /* \"Topic.sol\":10069:10167  function getMoneyPool() public view returns (uint) {\r... */\n      pop\n      tag_167\n      tag_168\n      jump\t// in\n    tag_167:\n      mload(0x40)\n      dup1\n      dup3\n      dup2\n      mstore\n      0x20\n      add\n      swap2\n      pop\n      pop\n      mload(0x40)\n      dup1\n      swap2\n      sub\n      swap1\n      return\n        /* \"Topic.sol\":1505:1528  bool public isCompleted */\n    tag_34:\n      callvalue\n        /* \"--CODEGEN--\":8:17   */\n      dup1\n        /* \"--CODEGEN--\":5:7   */\n      iszero\n      tag_169\n      jumpi\n        /* \"--CODEGEN--\":30:31   */\n      0x00\n        /* \"--CODEGEN--\":27:28   */\n      dup1\n        /* \"--CODEGEN--\":20:32   */\n      revert\n        /* \"--CODEGEN--\":5:7   */\n    tag_169:\n        /* \"Topic.sol\":1505:1528  bool public isCompleted */\n      pop\n      tag_170\n      tag_171\n      jump\t// in\n    tag_170:\n      mload(0x40)\n      dup1\n      dup3\n      iszero\n      iszero\n      iszero\n      iszero\n      dup2\n      mstore\n      0x20\n      add\n      swap2\n      pop\n      pop\n      mload(0x40)\n      dup1\n      swap2\n      sub\n      swap1\n      return\n        /* \"Topic.sol\":1017:1047  uint public finalMonetaryTotal */\n    tag_35:\n      callvalue\n        /* \"--CODEGEN--\":8:17   */\n      dup1\n        /* \"--CODEGEN--\":5:7   */\n      iszero\n      tag_172\n      jumpi\n        /* \"--CODEGEN--\":30:31   */\n      0x00\n        /* \"--CODEGEN--\":27:28   */\n      dup1\n        /* \"--CODEGEN--\":20:32   */\n      revert\n        /* \"--CODEGEN--\":5:7   */\n    tag_172:\n        /* \"Topic.sol\":1017:1047  uint public finalMonetaryTotal */\n      pop\n      tag_173\n      tag_174\n      jump\t// in\n    tag_173:\n      mload(0x40)\n      dup1\n      dup3\n      dup2\n      mstore\n      0x20\n      add\n      swap2\n      pop\n      pop\n      mload(0x40)\n      dup1\n      swap2\n      sub\n      swap1\n      return\n        /* \"Topic.sol\":9516:9824  function getDetails() public view returns (address, uint, uint, bool, bool, bool, uint, uint, uint, uint, uint) {\r... */\n    tag_36:\n      callvalue\n        /* \"--CODEGEN--\":8:17   */\n      dup1\n        /* \"--CODEGEN--\":5:7   */\n      iszero\n      tag_175\n      jumpi\n        /* \"--CODEGEN--\":30:31   */\n      0x00\n        /* \"--CODEGEN--\":27:28   */\n      dup1\n        /* \"--CODEGEN--\":20:32   */\n      revert\n        /* \"--CODEGEN--\":5:7   */\n    tag_175:\n        /* \"Topic.sol\":9516:9824  function getDetails() public view returns (address, uint, uint, bool, bool, bool, uint, uint, uint, uint, uint) {\r... */\n      pop\n      tag_176\n      tag_177\n      jump\t// in\n    tag_176:\n      mload(0x40)\n      dup1\n      dup13\n      0xffffffffffffffffffffffffffffffffffffffff\n      and\n      0xffffffffffffffffffffffffffffffffffffffff\n      and\n      dup2\n      mstore\n      0x20\n      add\n      dup12\n      dup2\n      mstore\n      0x20\n      add\n      dup11\n      dup2\n      mstore\n      0x20\n      add\n      dup10\n      iszero\n      iszero\n      iszero\n      iszero\n      dup2\n      mstore\n      0x20\n      add\n      dup9\n      iszero\n      iszero\n      iszero\n      iszero\n      dup2\n      mstore\n      0x20\n      add\n      dup8\n      iszero\n      iszero\n      iszero\n      iszero\n      dup2\n      mstore\n      0x20\n      add\n      dup7\n      dup2\n      mstore\n      0x20\n      add\n      dup6\n      dup2\n      mstore\n      0x20\n      add\n      dup5\n      dup2\n      mstore\n      0x20\n      add\n      dup4\n      dup2\n      mstore\n      0x20\n      add\n      dup3\n      dup2\n      mstore\n      0x20\n      add\n      swap12\n      pop\n      pop\n      pop\n      pop\n      pop\n      pop\n      pop\n      pop\n      pop\n      pop\n      pop\n      pop\n      mload(0x40)\n      dup1\n      swap2\n      sub\n      swap1\n      return\n        /* \"Topic.sol\":8447:9229  function calculateMonetaryGain(uint initialMonetaryInvestment, bool onTruthSide) public view returns (uint) {\r... */\n    tag_37:\n      callvalue\n        /* \"--CODEGEN--\":8:17   */\n      dup1\n        /* \"--CODEGEN--\":5:7   */\n      iszero\n      tag_178\n      jumpi\n        /* \"--CODEGEN--\":30:31   */\n      0x00\n        /* \"--CODEGEN--\":27:28   */\n      dup1\n        /* \"--CODEGEN--\":20:32   */\n      revert\n        /* \"--CODEGEN--\":5:7   */\n    tag_178:\n        /* \"Topic.sol\":8447:9229  function calculateMonetaryGain(uint initialMonetaryInvestment, bool onTruthSide) public view returns (uint) {\r... */\n      pop\n      tag_179\n      0x04\n      dup1\n      calldatasize\n      sub\n        /* \"--CODEGEN--\":13:15   */\n      0x40\n        /* \"--CODEGEN--\":8:11   */\n      dup2\n        /* \"--CODEGEN--\":5:16   */\n      lt\n        /* \"--CODEGEN--\":2:4   */\n      iszero\n      tag_180\n      jumpi\n        /* \"--CODEGEN--\":29:30   */\n      0x00\n        /* \"--CODEGEN--\":26:27   */\n      dup1\n        /* \"--CODEGEN--\":19:31   */\n      revert\n        /* \"--CODEGEN--\":2:4   */\n    tag_180:\n        /* \"Topic.sol\":8447:9229  function calculateMonetaryGain(uint initialMonetaryInvestment, bool onTruthSide) public view returns (uint) {\r... */\n      dup2\n      add\n      swap1\n      dup1\n      dup1\n      calldataload\n      swap1\n      0x20\n      add\n      swap1\n      swap3\n      swap2\n      swap1\n      dup1\n      calldataload\n      iszero\n      iszero\n      swap1\n      0x20\n      add\n      swap1\n      swap3\n      swap2\n      swap1\n      pop\n      pop\n      pop\n      tag_181\n      jump\t// in\n    tag_179:\n      mload(0x40)\n      dup1\n      dup3\n      dup2\n      mstore\n      0x20\n      add\n      swap2\n      pop\n      pop\n      mload(0x40)\n      dup1\n      swap2\n      sub\n      swap1\n      return\n        /* \"Topic.sol\":479:501  address public creator */\n    tag_49:\n      0x04\n      0x00\n      swap1\n      sload\n      swap1\n      0x0100\n      exp\n      swap1\n      div\n      0xffffffffffffffffffffffffffffffffffffffff\n      and\n      dup2\n      jump\t// out\n        /* \"Topic.sol\":4731:5226  function createArgument(string memory argumentContent, bool belief) public _mustBeWithinTimeFrame {\r... */\n    tag_56:\n        /* \"Topic.sol\":1790:1797  endTime */\n      sload(0x06)\n        /* \"Topic.sol\":1772:1787  block.timestamp */\n      timestamp\n        /* \"Topic.sol\":1772:1797  block.timestamp < endTime */\n      lt\n        /* \"Topic.sol\":1764:1845  require(block.timestamp < endTime, 'The period for the Topic has already ended.') */\n      tag_183\n      jumpi\n      mload(0x40)\n      0x08c379a000000000000000000000000000000000000000000000000000000000\n      dup2\n      mstore\n      0x04\n      add\n      dup1\n      dup1\n      0x20\n      add\n      dup3\n      dup2\n      sub\n      dup3\n      mstore\n      0x2b\n      dup2\n      mstore\n      0x20\n      add\n      dup1\n      data_9f7f122b70f117f8950311c325d9279ba88d6a0d2b593ed4f11b7663b9f48d07\n      0x2b\n      swap2\n      codecopy\n      0x40\n      add\n      swap2\n      pop\n      pop\n      mload(0x40)\n      dup1\n      swap2\n      sub\n      swap1\n      revert\n    tag_183:\n        /* \"Topic.sol\":4879:4880  0 */\n      0x00\n        /* \"Topic.sol\":4848:4863  createdArgument */\n      0x13\n        /* \"Topic.sol\":4848:4875  createdArgument[msg.sender] */\n      0x00\n        /* \"Topic.sol\":4864:4874  msg.sender */\n      caller\n        /* \"Topic.sol\":4848:4875  createdArgument[msg.sender] */\n      0xffffffffffffffffffffffffffffffffffffffff\n      and\n      0xffffffffffffffffffffffffffffffffffffffff\n      and\n      dup2\n      mstore\n      0x20\n      add\n      swap1\n      dup2\n      mstore\n      0x20\n      add\n      0x00\n      keccak256\n      sload\n        /* \"Topic.sol\":4848:4880  createdArgument[msg.sender] == 0 */\n      eq\n        /* \"Topic.sol\":4840:4922  require(createdArgument[msg.sender] == 0, 'You have already created an argument.') */\n      tag_185\n      jumpi\n      mload(0x40)\n      0x08c379a000000000000000000000000000000000000000000000000000000000\n      dup2\n      mstore\n      0x04\n      add\n      dup1\n      dup1\n      0x20\n      add\n      dup3\n      dup2\n      sub\n      dup3\n      mstore\n      0x25\n      dup2\n      mstore\n      0x20\n      add\n      dup1\n      data_8912f675a50e382e9fd7b592cf1cd9595235c43ce4309904b1bd35e2a18fc4ee\n      0x25\n      swap2\n      codecopy\n      0x40\n      add\n      swap2\n      pop\n      pop\n      mload(0x40)\n      dup1\n      swap2\n      sub\n      swap1\n      revert\n    tag_185:\n        /* \"Topic.sol\":4935:4962  Argument memory newArgument */\n      tag_186\n      tag_187\n      jump\t// in\n    tag_186:\n        /* \"Topic.sol\":4965:5115  Argument({\r... */\n      mload(0x40)\n      dup1\n      0x80\n      add\n      0x40\n      mstore\n      dup1\n        /* \"Topic.sol\":4998:5013  argumentContent */\n      dup5\n        /* \"Topic.sol\":4965:5115  Argument({\r... */\n      dup2\n      mstore\n      0x20\n      add\n        /* \"Topic.sol\":5036:5042  belief */\n      dup4\n        /* \"Topic.sol\":4965:5115  Argument({\r... */\n      iszero\n      iszero\n      dup2\n      mstore\n      0x20\n      add\n        /* \"Topic.sol\":5066:5076  msg.sender */\n      caller\n        /* \"Topic.sol\":4965:5115  Argument({\r... */\n      0xffffffffffffffffffffffffffffffffffffffff\n      and\n      dup2\n      mstore\n      0x20\n      add\n        /* \"Topic.sol\":5102:5103  0 */\n      0x00\n        /* \"Topic.sol\":4965:5115  Argument({\r... */\n      dup2\n      mstore\n      pop\n        /* \"Topic.sol\":4935:5115  Argument memory newArgument = Argument({\r... */\n      swap1\n      pop\n        /* \"Topic.sol\":5126:5135  arguments */\n      0x07\n        /* \"Topic.sol\":5141:5152  newArgument */\n      dup2\n        /* \"Topic.sol\":5126:5153  arguments.push(newArgument) */\n      swap1\n      dup1\n        /* \"--CODEGEN--\":39:40   */\n      0x01\n        /* \"--CODEGEN--\":33:36   */\n      dup2\n        /* \"--CODEGEN--\":27:37   */\n      sload\n        /* \"--CODEGEN--\":23:41   */\n      add\n        /* \"--CODEGEN--\":57:67   */\n      dup1\n        /* \"--CODEGEN--\":52:55   */\n      dup3\n        /* \"--CODEGEN--\":45:68   */\n      sstore\n        /* \"--CODEGEN--\":79:89   */\n      dup1\n        /* \"--CODEGEN--\":72:89   */\n      swap2\n      pop\n        /* \"--CODEGEN--\":0:93   */\n      pop\n        /* \"Topic.sol\":5126:5153  arguments.push(newArgument) */\n      swap1\n      0x01\n      dup3\n      sub\n      swap1\n      0x00\n      mstore\n      keccak256(0x00, 0x20)\n      swap1\n      0x03\n      mul\n      add\n      0x00\n      swap1\n      swap2\n      swap3\n      swap1\n      swap2\n      swap1\n      swap2\n      pop\n      0x00\n      dup3\n      add\n      mload\n      dup2\n      0x00\n      add\n      swap1\n      dup1\n      mload\n      swap1\n      0x20\n      add\n      swap1\n      tag_189\n      swap3\n      swap2\n      swap1\n      tag_190\n      jump\t// in\n    tag_189:\n      pop\n      0x20\n      dup3\n      add\n      mload\n      dup2\n      0x01\n      add\n      exp(0x0100, 0x00)\n      dup2\n      sload\n      dup2\n      0xff\n      mul\n      not\n      and\n      swap1\n      dup4\n      iszero\n      iszero\n      mul\n      or\n      swap1\n      sstore\n      pop\n      0x40\n      dup3\n      add\n      mload\n      dup2\n      0x01\n      add\n      exp(0x0100, 0x01)\n      dup2\n      sload\n      dup2\n      0xffffffffffffffffffffffffffffffffffffffff\n      mul\n      not\n      and\n      swap1\n      dup4\n      0xffffffffffffffffffffffffffffffffffffffff\n      and\n      mul\n      or\n      swap1\n      sstore\n      pop\n      0x60\n      dup3\n      add\n      mload\n      dup2\n      0x02\n      add\n      sstore\n      pop\n      pop\n      pop\n        /* \"Topic.sol\":5215:5216  1 */\n      0x01\n        /* \"Topic.sol\":5194:5212  getArgumentCount() */\n      tag_191\n        /* \"Topic.sol\":5194:5210  getArgumentCount */\n      tag_136\n        /* \"Topic.sol\":5194:5212  getArgumentCount() */\n      jump\t// in\n    tag_191:\n        /* \"Topic.sol\":5194:5216  getArgumentCount() - 1 */\n      sub\n        /* \"Topic.sol\":5164:5179  createdArgument */\n      0x13\n        /* \"Topic.sol\":5164:5191  createdArgument[msg.sender] */\n      0x00\n        /* \"Topic.sol\":5180:5190  msg.sender */\n      caller\n        /* \"Topic.sol\":5164:5191  createdArgument[msg.sender] */\n      0xffffffffffffffffffffffffffffffffffffffff\n      and\n      0xffffffffffffffffffffffffffffffffffffffff\n      and\n      dup2\n      mstore\n      0x20\n      add\n      swap1\n      dup2\n      mstore\n      0x20\n      add\n      0x00\n      keccak256\n        /* \"Topic.sol\":5164:5216  createdArgument[msg.sender] = getArgumentCount() - 1 */\n      dup2\n      swap1\n      sstore\n      pop\n        /* \"Topic.sol\":1856:1857  _ */\n      pop\n        /* \"Topic.sol\":4731:5226  function createArgument(string memory argumentContent, bool belief) public _mustBeWithinTimeFrame {\r... */\n      pop\n      pop\n      jump\t// out\n        /* \"Topic.sol\":852:902  mapping(address => uint) public monetaryInvestment */\n    tag_60:\n      mstore(0x20, 0x0b)\n      dup1\n      0x00\n      mstore\n      keccak256(0x00, 0x40)\n      0x00\n      swap2\n      pop\n      swap1\n      pop\n      sload\n      dup2\n      jump\t// out\n        /* \"Topic.sol\":756:790  address payable[] public lieVoters */\n    tag_64:\n      0x0a\n      dup2\n      dup2\n      sload\n      dup2\n      lt\n      tag_192\n      jumpi\n      invalid\n    tag_192:\n      swap1\n      0x00\n      mstore\n      keccak256(0x00, 0x20)\n      add\n      0x00\n      swap2\n      pop\n      sload\n      swap1\n      0x0100\n      exp\n      swap1\n      div\n      0xffffffffffffffffffffffffffffffffffffffff\n      and\n      dup2\n      jump\t// out\n        /* \"Topic.sol\":570:597  Argument[] public arguments */\n    tag_68:\n      0x07\n      dup2\n      dup2\n      sload\n      dup2\n      lt\n      tag_194\n      jumpi\n      invalid\n    tag_194:\n      swap1\n      0x00\n      mstore\n      keccak256(0x00, 0x20)\n      swap1\n      0x03\n      mul\n      add\n      0x00\n      swap2\n      pop\n      swap1\n      pop\n      dup1\n      0x00\n      add\n      dup1\n      sload\n      0x01\n      dup2\n      0x01\n      and\n      iszero\n      0x0100\n      mul\n      sub\n      and\n      0x02\n      swap1\n      div\n      dup1\n      0x1f\n      add\n      0x20\n      dup1\n      swap2\n      div\n      mul\n      0x20\n      add\n      mload(0x40)\n      swap1\n      dup2\n      add\n      0x40\n      mstore\n      dup1\n      swap3\n      swap2\n      swap1\n      dup2\n      dup2\n      mstore\n      0x20\n      add\n      dup3\n      dup1\n      sload\n      0x01\n      dup2\n      0x01\n      and\n      iszero\n      0x0100\n      mul\n      sub\n      and\n      0x02\n      swap1\n      div\n      dup1\n      iszero\n      tag_196\n      jumpi\n      dup1\n      0x1f\n      lt\n      tag_197\n      jumpi\n      0x0100\n      dup1\n      dup4\n      sload\n      div\n      mul\n      dup4\n      mstore\n      swap2\n      0x20\n      add\n      swap2\n      jump(tag_196)\n    tag_197:\n      dup3\n      add\n      swap2\n      swap1\n      0x00\n      mstore\n      keccak256(0x00, 0x20)\n      swap1\n    tag_198:\n      dup2\n      sload\n      dup2\n      mstore\n      swap1\n      0x01\n      add\n      swap1\n      0x20\n      add\n      dup1\n      dup4\n      gt\n      tag_198\n      jumpi\n      dup3\n      swap1\n      sub\n      0x1f\n      and\n      dup3\n      add\n      swap2\n    tag_196:\n      pop\n      pop\n      pop\n      pop\n      pop\n      swap1\n      dup1\n      0x01\n      add\n      0x00\n      swap1\n      sload\n      swap1\n      0x0100\n      exp\n      swap1\n      div\n      0xff\n      and\n      swap1\n      dup1\n      0x01\n      add\n      0x01\n      swap1\n      sload\n      swap1\n      0x0100\n      exp\n      swap1\n      div\n      0xffffffffffffffffffffffffffffffffffffffff\n      and\n      swap1\n      dup1\n      0x02\n      add\n      sload\n      swap1\n      pop\n      dup5\n      jump\t// out\n        /* \"Topic.sol\":2754:2978  function canVote() public view returns (bool) {\r... */\n    tag_75:\n        /* \"Topic.sol\":2794:2798  bool */\n      0x00\n        /* \"Topic.sol\":2811:2838  TopicAssigner topicAssigner */\n      dup1\n        /* \"Topic.sol\":2855:2875  topicAssignerAddress */\n      0x01\n      0x00\n      swap1\n      sload\n      swap1\n      0x0100\n      exp\n      swap1\n      div\n      0xffffffffffffffffffffffffffffffffffffffff\n      and\n        /* \"Topic.sol\":2811:2876  TopicAssigner topicAssigner = TopicAssigner(topicAssignerAddress) */\n      swap1\n      pop\n        /* \"Topic.sol\":2916:2917  0 */\n      0x00\n        /* \"Topic.sol\":2895:2900  voted */\n      0x08\n        /* \"Topic.sol\":2895:2912  voted[msg.sender] */\n      0x00\n        /* \"Topic.sol\":2901:2911  msg.sender */\n      caller\n        /* \"Topic.sol\":2895:2912  voted[msg.sender] */\n      0xffffffffffffffffffffffffffffffffffffffff\n      and\n      0xffffffffffffffffffffffffffffffffffffffff\n      and\n      dup2\n      mstore\n      0x20\n      add\n      swap1\n      dup2\n      mstore\n      0x20\n      add\n      0x00\n      keccak256\n      sload\n        /* \"Topic.sol\":2895:2917  voted[msg.sender] == 0 */\n      eq\n        /* \"Topic.sol\":2895:2970  voted[msg.sender] == 0 && topicAssigner.hasTopic(msg.sender, address(this)) */\n      dup1\n      iszero\n      tag_200\n      jumpi\n      pop\n        /* \"Topic.sol\":2921:2934  topicAssigner */\n      dup1\n        /* \"Topic.sol\":2921:2943  topicAssigner.hasTopic */\n      0xffffffffffffffffffffffffffffffffffffffff\n      and\n      0x902701b7\n        /* \"Topic.sol\":2944:2954  msg.sender */\n      caller\n        /* \"Topic.sol\":2964:2968  this */\n      address\n        /* \"Topic.sol\":2921:2970  topicAssigner.hasTopic(msg.sender, address(this)) */\n      mload(0x40)\n      dup4\n      0xffffffff\n      and\n      0xe0\n      shl\n      dup2\n      mstore\n      0x04\n      add\n      dup1\n      dup4\n      0xffffffffffffffffffffffffffffffffffffffff\n      and\n      0xffffffffffffffffffffffffffffffffffffffff\n      and\n      dup2\n      mstore\n      0x20\n      add\n      dup3\n      0xffffffffffffffffffffffffffffffffffffffff\n      and\n      0xffffffffffffffffffffffffffffffffffffffff\n      and\n      dup2\n      mstore\n      0x20\n      add\n      swap3\n      pop\n      pop\n      pop\n      0x20\n      mload(0x40)\n      dup1\n      dup4\n      sub\n      dup2\n      dup7\n      dup1\n      extcodesize\n      iszero\n        /* \"--CODEGEN--\":8:17   */\n      dup1\n        /* \"--CODEGEN--\":5:7   */\n      iszero\n      tag_201\n      jumpi\n        /* \"--CODEGEN--\":30:31   */\n      0x00\n        /* \"--CODEGEN--\":27:28   */\n      dup1\n        /* \"--CODEGEN--\":20:32   */\n      revert\n        /* \"--CODEGEN--\":5:7   */\n    tag_201:\n        /* \"Topic.sol\":2921:2970  topicAssigner.hasTopic(msg.sender, address(this)) */\n      pop\n      gas\n      staticcall\n      iszero\n        /* \"--CODEGEN--\":8:17   */\n      dup1\n        /* \"--CODEGEN--\":5:7   */\n      iszero\n      tag_202\n      jumpi\n        /* \"--CODEGEN--\":45:61   */\n      returndatasize\n        /* \"--CODEGEN--\":42:43   */\n      0x00\n        /* \"--CODEGEN--\":39:40   */\n      dup1\n        /* \"--CODEGEN--\":24:62   */\n      returndatacopy\n        /* \"--CODEGEN--\":77:93   */\n      returndatasize\n        /* \"--CODEGEN--\":74:75   */\n      0x00\n        /* \"--CODEGEN--\":67:94   */\n      revert\n        /* \"--CODEGEN--\":5:7   */\n    tag_202:\n        /* \"Topic.sol\":2921:2970  topicAssigner.hasTopic(msg.sender, address(this)) */\n      pop\n      pop\n      pop\n      pop\n      mload(0x40)\n      returndatasize\n        /* \"--CODEGEN--\":13:15   */\n      0x20\n        /* \"--CODEGEN--\":8:11   */\n      dup2\n        /* \"--CODEGEN--\":5:16   */\n      lt\n        /* \"--CODEGEN--\":2:4   */\n      iszero\n      tag_203\n      jumpi\n        /* \"--CODEGEN--\":29:30   */\n      0x00\n        /* \"--CODEGEN--\":26:27   */\n      dup1\n        /* \"--CODEGEN--\":19:31   */\n      revert\n        /* \"--CODEGEN--\":2:4   */\n    tag_203:\n        /* \"Topic.sol\":2921:2970  topicAssigner.hasTopic(msg.sender, address(this)) */\n      dup2\n      add\n      swap1\n      dup1\n      dup1\n      mload\n      swap1\n      0x20\n      add\n      swap1\n      swap3\n      swap2\n      swap1\n      pop\n      pop\n      pop\n        /* \"Topic.sol\":2895:2970  voted[msg.sender] == 0 && topicAssigner.hasTopic(msg.sender, address(this)) */\n    tag_200:\n        /* \"Topic.sol\":2888:2970  return voted[msg.sender] == 0 && topicAssigner.hasTopic(msg.sender, address(this)) */\n      swap2\n      pop\n      pop\n        /* \"Topic.sol\":2754:2978  function canVote() public view returns (bool) {\r... */\n      swap1\n      jump\t// out\n        /* \"Topic.sol\":1190:1217  uint public truthReputation */\n    tag_78:\n      sload(0x10)\n      dup2\n      jump\t// out\n        /* \"Topic.sol\":508:537  uint public minimumInvestment */\n    tag_81:\n      sload(0x05)\n      dup2\n      jump\t// out\n        /* \"Topic.sol\":4527:4623  function getTruthCount() public view returns (uint) {\r... */\n    tag_84:\n        /* \"Topic.sol\":4573:4577  uint */\n      0x00\n        /* \"Topic.sol\":4597:4608  truthVoters */\n      0x09\n        /* \"Topic.sol\":4597:4615  truthVoters.length */\n      dup1\n      sload\n      swap1\n      pop\n        /* \"Topic.sol\":4590:4615  return truthVoters.length */\n      swap1\n      pop\n        /* \"Topic.sol\":4527:4623  function getTruthCount() public view returns (uint) {\r... */\n      swap1\n      jump\t// out\n        /* \"Topic.sol\":544:563  uint public endTime */\n    tag_87:\n      sload(0x06)\n      dup2\n      jump\t// out\n        /* \"Topic.sol\":9832:10061  function inMajority(address sender) public view returns (bool) {\r... */\n    tag_91:\n        /* \"Topic.sol\":9889:9893  bool */\n      0x00\n        /* \"Topic.sol\":9906:9926  Argument storage arg */\n      dup1\n        /* \"Topic.sol\":9929:9938  arguments */\n      0x07\n        /* \"Topic.sol\":9939:9944  voted */\n      0x08\n        /* \"Topic.sol\":9939:9952  voted[sender] */\n      0x00\n        /* \"Topic.sol\":9945:9951  sender */\n      dup6\n        /* \"Topic.sol\":9939:9952  voted[sender] */\n      0xffffffffffffffffffffffffffffffffffffffff\n      and\n      0xffffffffffffffffffffffffffffffffffffffff\n      and\n      dup2\n      mstore\n      0x20\n      add\n      swap1\n      dup2\n      mstore\n      0x20\n      add\n      0x00\n      keccak256\n      sload\n        /* \"Topic.sol\":9929:9953  arguments[voted[sender]] */\n      dup2\n      sload\n      dup2\n      lt\n      tag_206\n      jumpi\n      invalid\n    tag_206:\n      swap1\n      0x00\n      mstore\n      keccak256(0x00, 0x20)\n      swap1\n      0x03\n      mul\n      add\n        /* \"Topic.sol\":9906:9953  Argument storage arg = arguments[voted[sender]] */\n      swap1\n      pop\n        /* \"Topic.sol\":9984:9985  1 */\n      0x01\n        /* \"Topic.sol\":9972:9980  majority */\n      sload(0x16)\n        /* \"Topic.sol\":9972:9985  majority == 1 */\n      eq\n        /* \"Topic.sol\":9972:9999  majority == 1 && arg.isTrue */\n      dup1\n      iszero\n      tag_208\n      jumpi\n      pop\n        /* \"Topic.sol\":9989:9992  arg */\n      dup1\n        /* \"Topic.sol\":9989:9999  arg.isTrue */\n      0x01\n      add\n      0x00\n      swap1\n      sload\n      swap1\n      0x0100\n      exp\n      swap1\n      div\n      0xff\n      and\n        /* \"Topic.sol\":9972:9999  majority == 1 && arg.isTrue */\n    tag_208:\n        /* \"Topic.sol\":9971:10034  (majority == 1 && arg.isTrue) || (majority == 2 && !arg.isTrue) */\n      dup1\n      tag_209\n      jumpi\n      pop\n        /* \"Topic.sol\":10017:10018  2 */\n      0x02\n        /* \"Topic.sol\":10005:10013  majority */\n      sload(0x16)\n        /* \"Topic.sol\":10005:10018  majority == 2 */\n      eq\n        /* \"Topic.sol\":10005:10033  majority == 2 && !arg.isTrue */\n      dup1\n      iszero\n      tag_210\n      jumpi\n      pop\n        /* \"Topic.sol\":10023:10026  arg */\n      dup1\n        /* \"Topic.sol\":10023:10033  arg.isTrue */\n      0x01\n      add\n      0x00\n      swap1\n      sload\n      swap1\n      0x0100\n      exp\n      swap1\n      div\n      0xff\n      and\n        /* \"Topic.sol\":10022:10033  !arg.isTrue */\n      iszero\n        /* \"Topic.sol\":10005:10033  majority == 2 && !arg.isTrue */\n    tag_210:\n        /* \"Topic.sol\":9971:10034  (majority == 1 && arg.isTrue) || (majority == 2 && !arg.isTrue) */\n    tag_209:\n        /* \"Topic.sol\":9971:10053  (majority == 1 && arg.isTrue) || (majority == 2 && !arg.isTrue) || (majority == 3) */\n      dup1\n      tag_211\n      jumpi\n      pop\n        /* \"Topic.sol\":10051:10052  3 */\n      0x03\n        /* \"Topic.sol\":10039:10047  majority */\n      sload(0x16)\n        /* \"Topic.sol\":10039:10052  majority == 3 */\n      eq\n        /* \"Topic.sol\":9971:10053  (majority == 1 && arg.isTrue) || (majority == 2 && !arg.isTrue) || (majority == 3) */\n    tag_211:\n        /* \"Topic.sol\":9964:10053  return (majority == 1 && arg.isTrue) || (majority == 2 && !arg.isTrue) || (majority == 3) */\n      swap2\n      pop\n      pop\n        /* \"Topic.sol\":9832:10061  function inMajority(address sender) public view returns (bool) {\r... */\n      swap2\n      swap1\n      pop\n      jump\t// out\n        /* \"Topic.sol\":977:1010  uint public lieMonetaryInvestment */\n    tag_94:\n      sload(0x0d)\n      dup2\n      jump\t// out\n        /* \"Topic.sol\":1302:1349  mapping(address => uint) public createdArgument */\n    tag_98:\n      mstore(0x20, 0x13)\n      dup1\n      0x00\n      mstore\n      keccak256(0x00, 0x40)\n      0x00\n      swap2\n      pop\n      swap1\n      pop\n      sload\n      dup2\n      jump\t// out\n        /* \"Topic.sol\":7125:7866  function claim() public {\r... */\n    tag_101:\n        /* \"Topic.sol\":7168:7178  canClaim() */\n      tag_213\n        /* \"Topic.sol\":7168:7176  canClaim */\n      tag_104\n        /* \"Topic.sol\":7168:7178  canClaim() */\n      jump\t// in\n    tag_213:\n        /* \"Topic.sol\":7160:7244  require(canClaim(), 'You did not vote during the period or the period is not over.') */\n      tag_214\n      jumpi\n      mload(0x40)\n      0x08c379a000000000000000000000000000000000000000000000000000000000\n      dup2\n      mstore\n      0x04\n      add\n      dup1\n      dup1\n      0x20\n      add\n      dup3\n      dup2\n      sub\n      dup3\n      mstore\n      0x3d\n      dup2\n      mstore\n      0x20\n      add\n      dup1\n      data_a10f947ba0aa3fe256eaedc5073a534f9ad99f6544d43c3b41c41d275abbd6fe\n      0x3d\n      swap2\n      codecopy\n      0x40\n      add\n      swap2\n      pop\n      pop\n      mload(0x40)\n      dup1\n      swap2\n      sub\n      swap1\n      revert\n    tag_214:\n        /* \"Topic.sol\":7255:7273  uint argumentIndex */\n      0x00\n        /* \"Topic.sol\":7276:7281  voted */\n      0x08\n        /* \"Topic.sol\":7276:7293  voted[msg.sender] */\n      0x00\n        /* \"Topic.sol\":7282:7292  msg.sender */\n      caller\n        /* \"Topic.sol\":7276:7293  voted[msg.sender] */\n      0xffffffffffffffffffffffffffffffffffffffff\n      and\n      0xffffffffffffffffffffffffffffffffffffffff\n      and\n      dup2\n      mstore\n      0x20\n      add\n      swap1\n      dup2\n      mstore\n      0x20\n      add\n      0x00\n      keccak256\n      sload\n        /* \"Topic.sol\":7255:7293  uint argumentIndex = voted[msg.sender] */\n      swap1\n      pop\n        /* \"Topic.sol\":7304:7324  Argument storage arg */\n      0x00\n        /* \"Topic.sol\":7327:7336  arguments */\n      0x07\n        /* \"Topic.sol\":7337:7350  argumentIndex */\n      dup3\n        /* \"Topic.sol\":7327:7351  arguments[argumentIndex] */\n      dup2\n      sload\n      dup2\n      lt\n      tag_215\n      jumpi\n      invalid\n    tag_215:\n      swap1\n      0x00\n      mstore\n      keccak256(0x00, 0x20)\n      swap1\n      0x03\n      mul\n      add\n        /* \"Topic.sol\":7304:7351  Argument storage arg = arguments[argumentIndex] */\n      swap1\n      pop\n        /* \"Topic.sol\":7405:7406  0 */\n      0x00\n        /* \"Topic.sol\":7393:7401  majority */\n      sload(0x16)\n        /* \"Topic.sol\":7393:7406  majority == 0 */\n      eq\n        /* \"Topic.sol\":7389:7454  if (majority == 0) {\r... */\n      iszero\n      tag_217\n      jumpi\n        /* \"Topic.sol\":7423:7442  calculateMajority() */\n      tag_218\n        /* \"Topic.sol\":7423:7440  calculateMajority */\n      tag_219\n        /* \"Topic.sol\":7423:7442  calculateMajority() */\n      jump\t// in\n    tag_218:\n        /* \"Topic.sol\":7389:7454  if (majority == 0) {\r... */\n    tag_217:\n        /* \"Topic.sol\":7470:7492  inMajority(msg.sender) */\n      tag_220\n        /* \"Topic.sol\":7481:7491  msg.sender */\n      caller\n        /* \"Topic.sol\":7470:7480  inMajority */\n      tag_91\n        /* \"Topic.sol\":7470:7492  inMajority(msg.sender) */\n      jump\t// in\n    tag_220:\n        /* \"Topic.sol\":7466:7612  if (inMajority(msg.sender)) {\r... */\n      iszero\n      tag_221\n      jumpi\n        /* \"Topic.sol\":7509:7519  msg.sender */\n      caller\n        /* \"Topic.sol\":7509:7528  msg.sender.transfer */\n      0xffffffffffffffffffffffffffffffffffffffff\n      and\n        /* \"Topic.sol\":7509:7600  msg.sender.transfer(this.calculateMonetaryGain(monetaryInvestment[msg.sender], arg.isTrue)) */\n      0x08fc\n        /* \"Topic.sol\":7529:7533  this */\n      address\n        /* \"Topic.sol\":7529:7555  this.calculateMonetaryGain */\n      0xffffffffffffffffffffffffffffffffffffffff\n      and\n      0xfda9198b\n        /* \"Topic.sol\":7556:7574  monetaryInvestment */\n      0x0b\n        /* \"Topic.sol\":7556:7586  monetaryInvestment[msg.sender] */\n      0x00\n        /* \"Topic.sol\":7575:7585  msg.sender */\n      caller\n        /* \"Topic.sol\":7556:7586  monetaryInvestment[msg.sender] */\n      0xffffffffffffffffffffffffffffffffffffffff\n      and\n      0xffffffffffffffffffffffffffffffffffffffff\n      and\n      dup2\n      mstore\n      0x20\n      add\n      swap1\n      dup2\n      mstore\n      0x20\n      add\n      0x00\n      keccak256\n      sload\n        /* \"Topic.sol\":7588:7591  arg */\n      dup6\n        /* \"Topic.sol\":7588:7598  arg.isTrue */\n      0x01\n      add\n      0x00\n      swap1\n      sload\n      swap1\n      0x0100\n      exp\n      swap1\n      div\n      0xff\n      and\n        /* \"Topic.sol\":7529:7599  this.calculateMonetaryGain(monetaryInvestment[msg.sender], arg.isTrue) */\n      mload(0x40)\n      dup4\n      0xffffffff\n      and\n      0xe0\n      shl\n      dup2\n      mstore\n      0x04\n      add\n      dup1\n      dup4\n      dup2\n      mstore\n      0x20\n      add\n      dup3\n      iszero\n      iszero\n      iszero\n      iszero\n      dup2\n      mstore\n      0x20\n      add\n      swap3\n      pop\n      pop\n      pop\n      0x20\n      mload(0x40)\n      dup1\n      dup4\n      sub\n      dup2\n      dup7\n      dup1\n      extcodesize\n      iszero\n        /* \"--CODEGEN--\":8:17   */\n      dup1\n        /* \"--CODEGEN--\":5:7   */\n      iszero\n      tag_222\n      jumpi\n        /* \"--CODEGEN--\":30:31   */\n      0x00\n        /* \"--CODEGEN--\":27:28   */\n      dup1\n        /* \"--CODEGEN--\":20:32   */\n      revert\n        /* \"--CODEGEN--\":5:7   */\n    tag_222:\n        /* \"Topic.sol\":7529:7599  this.calculateMonetaryGain(monetaryInvestment[msg.sender], arg.isTrue) */\n      pop\n      gas\n      staticcall\n      iszero\n        /* \"--CODEGEN--\":8:17   */\n      dup1\n        /* \"--CODEGEN--\":5:7   */\n      iszero\n      tag_223\n      jumpi\n        /* \"--CODEGEN--\":45:61   */\n      returndatasize\n        /* \"--CODEGEN--\":42:43   */\n      0x00\n        /* \"--CODEGEN--\":39:40   */\n      dup1\n        /* \"--CODEGEN--\":24:62   */\n      returndatacopy\n        /* \"--CODEGEN--\":77:93   */\n      returndatasize\n        /* \"--CODEGEN--\":74:75   */\n      0x00\n        /* \"--CODEGEN--\":67:94   */\n      revert\n        /* \"--CODEGEN--\":5:7   */\n    tag_223:\n        /* \"Topic.sol\":7529:7599  this.calculateMonetaryGain(monetaryInvestment[msg.sender], arg.isTrue) */\n      pop\n      pop\n      pop\n      pop\n      mload(0x40)\n      returndatasize\n        /* \"--CODEGEN--\":13:15   */\n      0x20\n        /* \"--CODEGEN--\":8:11   */\n      dup2\n        /* \"--CODEGEN--\":5:16   */\n      lt\n        /* \"--CODEGEN--\":2:4   */\n      iszero\n      tag_224\n      jumpi\n        /* \"--CODEGEN--\":29:30   */\n      0x00\n        /* \"--CODEGEN--\":26:27   */\n      dup1\n        /* \"--CODEGEN--\":19:31   */\n      revert\n        /* \"--CODEGEN--\":2:4   */\n    tag_224:\n        /* \"Topic.sol\":7529:7599  this.calculateMonetaryGain(monetaryInvestment[msg.sender], arg.isTrue) */\n      dup2\n      add\n      swap1\n      dup1\n      dup1\n      mload\n      swap1\n      0x20\n      add\n      swap1\n      swap3\n      swap2\n      swap1\n      pop\n      pop\n      pop\n        /* \"Topic.sol\":7509:7600  msg.sender.transfer(this.calculateMonetaryGain(monetaryInvestment[msg.sender], arg.isTrue)) */\n      swap1\n      dup2\n      iszero\n      mul\n      swap1\n      mload(0x40)\n      0x00\n      mload(0x40)\n      dup1\n      dup4\n      sub\n      dup2\n      dup6\n      dup9\n      dup9\n      call\n      swap4\n      pop\n      pop\n      pop\n      pop\n      iszero\n        /* \"--CODEGEN--\":8:17   */\n      dup1\n        /* \"--CODEGEN--\":5:7   */\n      iszero\n      tag_225\n      jumpi\n        /* \"--CODEGEN--\":45:61   */\n      returndatasize\n        /* \"--CODEGEN--\":42:43   */\n      0x00\n        /* \"--CODEGEN--\":39:40   */\n      dup1\n        /* \"--CODEGEN--\":24:62   */\n      returndatacopy\n        /* \"--CODEGEN--\":77:93   */\n      returndatasize\n        /* \"--CODEGEN--\":74:75   */\n      0x00\n        /* \"--CODEGEN--\":67:94   */\n      revert\n        /* \"--CODEGEN--\":5:7   */\n    tag_225:\n        /* \"Topic.sol\":7509:7600  msg.sender.transfer(this.calculateMonetaryGain(monetaryInvestment[msg.sender], arg.isTrue)) */\n      pop\n        /* \"Topic.sol\":7466:7612  if (inMajority(msg.sender)) {\r... */\n    tag_221:\n        /* \"Topic.sol\":7624:7652  ReputationFactory repFactory */\n      0x00\n        /* \"Topic.sol\":7673:7697  reputationFactoryAddress */\n      dup1\n      0x00\n      swap1\n      sload\n      swap1\n      0x0100\n      exp\n      swap1\n      div\n      0xffffffffffffffffffffffffffffffffffffffff\n      and\n        /* \"Topic.sol\":7624:7698  ReputationFactory repFactory = ReputationFactory(reputationFactoryAddress) */\n      swap1\n      pop\n        /* \"Topic.sol\":7709:7719  repFactory */\n      dup1\n        /* \"Topic.sol\":7709:7733  repFactory.addReputation */\n      0xffffffffffffffffffffffffffffffffffffffff\n      and\n      0x5f2ab567\n        /* \"Topic.sol\":7734:7738  this */\n      address\n        /* \"Topic.sol\":7734:7762  this.calculateReputationGain */\n      0xffffffffffffffffffffffffffffffffffffffff\n      and\n      0xc50eb984\n        /* \"Topic.sol\":7763:7783  reputationInvestment */\n      0x0f\n        /* \"Topic.sol\":7763:7795  reputationInvestment[msg.sender] */\n      0x00\n        /* \"Topic.sol\":7784:7794  msg.sender */\n      caller\n        /* \"Topic.sol\":7763:7795  reputationInvestment[msg.sender] */\n      0xffffffffffffffffffffffffffffffffffffffff\n      and\n      0xffffffffffffffffffffffffffffffffffffffff\n      and\n      dup2\n      mstore\n      0x20\n      add\n      swap1\n      dup2\n      mstore\n      0x20\n      add\n      0x00\n      keccak256\n      sload\n        /* \"Topic.sol\":7797:7807  msg.sender */\n      caller\n        /* \"Topic.sol\":7734:7808  this.calculateReputationGain(reputationInvestment[msg.sender], msg.sender) */\n      mload(0x40)\n      dup4\n      0xffffffff\n      and\n      0xe0\n      shl\n      dup2\n      mstore\n      0x04\n      add\n      dup1\n      dup4\n      dup2\n      mstore\n      0x20\n      add\n      dup3\n      0xffffffffffffffffffffffffffffffffffffffff\n      and\n      0xffffffffffffffffffffffffffffffffffffffff\n      and\n      dup2\n      mstore\n      0x20\n      add\n      swap3\n      pop\n      pop\n      pop\n      0x20\n      mload(0x40)\n      dup1\n      dup4\n      sub\n      dup2\n      dup7\n      dup1\n      extcodesize\n      iszero\n        /* \"--CODEGEN--\":8:17   */\n      dup1\n        /* \"--CODEGEN--\":5:7   */\n      iszero\n      tag_226\n      jumpi\n        /* \"--CODEGEN--\":30:31   */\n      0x00\n        /* \"--CODEGEN--\":27:28   */\n      dup1\n        /* \"--CODEGEN--\":20:32   */\n      revert\n        /* \"--CODEGEN--\":5:7   */\n    tag_226:\n        /* \"Topic.sol\":7734:7808  this.calculateReputationGain(reputationInvestment[msg.sender], msg.sender) */\n      pop\n      gas\n      staticcall\n      iszero\n        /* \"--CODEGEN--\":8:17   */\n      dup1\n        /* \"--CODEGEN--\":5:7   */\n      iszero\n      tag_227\n      jumpi\n        /* \"--CODEGEN--\":45:61   */\n      returndatasize\n        /* \"--CODEGEN--\":42:43   */\n      0x00\n        /* \"--CODEGEN--\":39:40   */\n      dup1\n        /* \"--CODEGEN--\":24:62   */\n      returndatacopy\n        /* \"--CODEGEN--\":77:93   */\n      returndatasize\n        /* \"--CODEGEN--\":74:75   */\n      0x00\n        /* \"--CODEGEN--\":67:94   */\n      revert\n        /* \"--CODEGEN--\":5:7   */\n    tag_227:\n        /* \"Topic.sol\":7734:7808  this.calculateReputationGain(reputationInvestment[msg.sender], msg.sender) */\n      pop\n      pop\n      pop\n      pop\n      mload(0x40)\n      returndatasize\n        /* \"--CODEGEN--\":13:15   */\n      0x20\n        /* \"--CODEGEN--\":8:11   */\n      dup2\n        /* \"--CODEGEN--\":5:16   */\n      lt\n        /* \"--CODEGEN--\":2:4   */\n      iszero\n      tag_228\n      jumpi\n        /* \"--CODEGEN--\":29:30   */\n      0x00\n        /* \"--CODEGEN--\":26:27   */\n      dup1\n        /* \"--CODEGEN--\":19:31   */\n      revert\n        /* \"--CODEGEN--\":2:4   */\n    tag_228:\n        /* \"Topic.sol\":7734:7808  this.calculateReputationGain(reputationInvestment[msg.sender], msg.sender) */\n      dup2\n      add\n      swap1\n      dup1\n      dup1\n      mload\n      swap1\n      0x20\n      add\n      swap1\n      swap3\n      swap2\n      swap1\n      pop\n      pop\n      pop\n        /* \"Topic.sol\":7810:7820  msg.sender */\n      caller\n        /* \"Topic.sol\":7709:7821  repFactory.addReputation(this.calculateReputationGain(reputationInvestment[msg.sender], msg.sender), msg.sender) */\n      mload(0x40)\n      dup4\n      0xffffffff\n      and\n      0xe0\n      shl\n      dup2\n      mstore\n      0x04\n      add\n      dup1\n      dup4\n      dup2\n      mstore\n      0x20\n      add\n      dup3\n      0xffffffffffffffffffffffffffffffffffffffff\n      and\n      0xffffffffffffffffffffffffffffffffffffffff\n      and\n      dup2\n      mstore\n      0x20\n      add\n      swap3\n      pop\n      pop\n      pop\n      0x00\n      mload(0x40)\n      dup1\n      dup4\n      sub\n      dup2\n      0x00\n      dup8\n      dup1\n      extcodesize\n      iszero\n        /* \"--CODEGEN--\":8:17   */\n      dup1\n        /* \"--CODEGEN--\":5:7   */\n      iszero\n      tag_229\n      jumpi\n        /* \"--CODEGEN--\":30:31   */\n      0x00\n        /* \"--CODEGEN--\":27:28   */\n      dup1\n        /* \"--CODEGEN--\":20:32   */\n      revert\n        /* \"--CODEGEN--\":5:7   */\n    tag_229:\n        /* \"Topic.sol\":7709:7821  repFactory.addReputation(this.calculateReputationGain(reputationInvestment[msg.sender], msg.sender), msg.sender) */\n      pop\n      gas\n      call\n      iszero\n        /* \"--CODEGEN--\":8:17   */\n      dup1\n        /* \"--CODEGEN--\":5:7   */\n      iszero\n      tag_230\n      jumpi\n        /* \"--CODEGEN--\":45:61   */\n      returndatasize\n        /* \"--CODEGEN--\":42:43   */\n      0x00\n        /* \"--CODEGEN--\":39:40   */\n      dup1\n        /* \"--CODEGEN--\":24:62   */\n      returndatacopy\n        /* \"--CODEGEN--\":77:93   */\n      returndatasize\n        /* \"--CODEGEN--\":74:75   */\n      0x00\n        /* \"--CODEGEN--\":67:94   */\n      revert\n        /* \"--CODEGEN--\":5:7   */\n    tag_230:\n        /* \"Topic.sol\":7709:7821  repFactory.addReputation(this.calculateReputationGain(reputationInvestment[msg.sender], msg.sender), msg.sender) */\n      pop\n      pop\n      pop\n      pop\n        /* \"Topic.sol\":7854:7858  true */\n      0x01\n        /* \"Topic.sol\":7832:7839  claimed */\n      0x14\n        /* \"Topic.sol\":7832:7851  claimed[msg.sender] */\n      0x00\n        /* \"Topic.sol\":7840:7850  msg.sender */\n      caller\n        /* \"Topic.sol\":7832:7851  claimed[msg.sender] */\n      0xffffffffffffffffffffffffffffffffffffffff\n      and\n      0xffffffffffffffffffffffffffffffffffffffff\n      and\n      dup2\n      mstore\n      0x20\n      add\n      swap1\n      dup2\n      mstore\n      0x20\n      add\n      0x00\n      keccak256\n      0x00\n        /* \"Topic.sol\":7832:7858  claimed[msg.sender] = true */\n      0x0100\n      exp\n      dup2\n      sload\n      dup2\n      0xff\n      mul\n      not\n      and\n      swap1\n      dup4\n      iszero\n      iszero\n      mul\n      or\n      swap1\n      sstore\n      pop\n        /* \"Topic.sol\":7125:7866  function claim() public {\r... */\n      pop\n      pop\n      pop\n      jump\t// out\n        /* \"Topic.sol\":6924:7117  function canClaim() public view returns (bool) {\r... */\n    tag_104:\n        /* \"Topic.sol\":6965:6969  bool */\n      0x00\n        /* \"Topic.sol\":6982:7000  uint argumentIndex */\n      dup1\n        /* \"Topic.sol\":7003:7008  voted */\n      0x08\n        /* \"Topic.sol\":7003:7020  voted[msg.sender] */\n      0x00\n        /* \"Topic.sol\":7009:7019  msg.sender */\n      caller\n        /* \"Topic.sol\":7003:7020  voted[msg.sender] */\n      0xffffffffffffffffffffffffffffffffffffffff\n      and\n      0xffffffffffffffffffffffffffffffffffffffff\n      and\n      dup2\n      mstore\n      0x20\n      add\n      swap1\n      dup2\n      mstore\n      0x20\n      add\n      0x00\n      keccak256\n      sload\n        /* \"Topic.sol\":6982:7020  uint argumentIndex = voted[msg.sender] */\n      swap1\n      pop\n        /* \"Topic.sol\":7056:7063  endTime */\n      sload(0x06)\n        /* \"Topic.sol\":7038:7053  block.timestamp */\n      timestamp\n        /* \"Topic.sol\":7038:7063  block.timestamp > endTime */\n      gt\n        /* \"Topic.sol\":7038:7085  block.timestamp > endTime && argumentIndex != 0 */\n      dup1\n      iszero\n      tag_232\n      jumpi\n      pop\n        /* \"Topic.sol\":7084:7085  0 */\n      0x00\n        /* \"Topic.sol\":7067:7080  argumentIndex */\n      dup2\n        /* \"Topic.sol\":7067:7085  argumentIndex != 0 */\n      eq\n      iszero\n        /* \"Topic.sol\":7038:7085  block.timestamp > endTime && argumentIndex != 0 */\n    tag_232:\n        /* \"Topic.sol\":7038:7109  block.timestamp > endTime && argumentIndex != 0 && !claimed[msg.sender] */\n      dup1\n      iszero\n      tag_233\n      jumpi\n      pop\n        /* \"Topic.sol\":7090:7097  claimed */\n      0x14\n        /* \"Topic.sol\":7090:7109  claimed[msg.sender] */\n      0x00\n        /* \"Topic.sol\":7098:7108  msg.sender */\n      caller\n        /* \"Topic.sol\":7090:7109  claimed[msg.sender] */\n      0xffffffffffffffffffffffffffffffffffffffff\n      and\n      0xffffffffffffffffffffffffffffffffffffffff\n      and\n      dup2\n      mstore\n      0x20\n      add\n      swap1\n      dup2\n      mstore\n      0x20\n      add\n      0x00\n      keccak256\n      0x00\n      swap1\n      sload\n      swap1\n      0x0100\n      exp\n      swap1\n      div\n      0xff\n      and\n        /* \"Topic.sol\":7089:7109  !claimed[msg.sender] */\n      iszero\n        /* \"Topic.sol\":7038:7109  block.timestamp > endTime && argumentIndex != 0 && !claimed[msg.sender] */\n    tag_233:\n        /* \"Topic.sol\":7031:7109  return block.timestamp > endTime && argumentIndex != 0 && !claimed[msg.sender] */\n      swap2\n      pop\n      pop\n        /* \"Topic.sol\":6924:7117  function canClaim() public view returns (bool) {\r... */\n      swap1\n      jump\t// out\n        /* \"Topic.sol\":4631:4723  function getLieCount() public view returns (uint) {\r... */\n    tag_107:\n        /* \"Topic.sol\":4675:4679  uint */\n      0x00\n        /* \"Topic.sol\":4699:4708  lieVoters */\n      0x0a\n        /* \"Topic.sol\":4699:4715  lieVoters.length */\n      dup1\n      sload\n      swap1\n      pop\n        /* \"Topic.sol\":4692:4715  return lieVoters.length */\n      swap1\n      pop\n        /* \"Topic.sol\":4631:4723  function getLieCount() public view returns (uint) {\r... */\n      swap1\n      jump\t// out\n        /* \"Topic.sol\":2670:2746  function isTopic() public pure returns (bool) {\r... */\n    tag_110:\n        /* \"Topic.sol\":2710:2714  bool */\n      0x00\n        /* \"Topic.sol\":2734:2738  true */\n      0x01\n        /* \"Topic.sol\":2727:2738  return true */\n      swap1\n      pop\n        /* \"Topic.sol\":2670:2746  function isTopic() public pure returns (bool) {\r... */\n      swap1\n      jump\t// out\n        /* \"Topic.sol\":935:970  uint public truthMonetaryInvestment */\n    tag_113:\n      sload(0x0c)\n      dup2\n      jump\t// out\n        /* \"Topic.sol\":451:472  string public content */\n    tag_116:\n      0x03\n      dup1\n      sload\n      0x01\n      dup2\n      0x01\n      and\n      iszero\n      0x0100\n      mul\n      sub\n      and\n      0x02\n      swap1\n      div\n      dup1\n      0x1f\n      add\n      0x20\n      dup1\n      swap2\n      div\n      mul\n      0x20\n      add\n      mload(0x40)\n      swap1\n      dup2\n      add\n      0x40\n      mstore\n      dup1\n      swap3\n      swap2\n      swap1\n      dup2\n      dup2\n      mstore\n      0x20\n      add\n      dup3\n      dup1\n      sload\n      0x01\n      dup2\n      0x01\n      and\n      iszero\n      0x0100\n      mul\n      sub\n      and\n      0x02\n      swap1\n      div\n      dup1\n      iszero\n      tag_236\n      jumpi\n      dup1\n      0x1f\n      lt\n      tag_237\n      jumpi\n      0x0100\n      dup1\n      dup4\n      sload\n      div\n      mul\n      dup4\n      mstore\n      swap2\n      0x20\n      add\n      swap2\n      jump(tag_236)\n    tag_237:\n      dup3\n      add\n      swap2\n      swap1\n      0x00\n      mstore\n      keccak256(0x00, 0x20)\n      swap1\n    tag_238:\n      dup2\n      sload\n      dup2\n      mstore\n      swap1\n      0x01\n      add\n      swap1\n      0x20\n      add\n      dup1\n      dup4\n      gt\n      tag_238\n      jumpi\n      dup3\n      swap1\n      sub\n      0x1f\n      and\n      dup3\n      add\n      swap2\n    tag_236:\n      pop\n      pop\n      pop\n      pop\n      pop\n      dup2\n      jump\t// out\n        /* \"Topic.sol\":7874:8272  function creatorClaim() public _creatorOnly {\r... */\n    tag_123:\n        /* \"Topic.sol\":1621:1628  creator */\n      0x04\n      0x00\n      swap1\n      sload\n      swap1\n      0x0100\n      exp\n      swap1\n      div\n      0xffffffffffffffffffffffffffffffffffffffff\n      and\n        /* \"Topic.sol\":1607:1628  msg.sender == creator */\n      0xffffffffffffffffffffffffffffffffffffffff\n      and\n        /* \"Topic.sol\":1607:1617  msg.sender */\n      caller\n        /* \"Topic.sol\":1607:1628  msg.sender == creator */\n      0xffffffffffffffffffffffffffffffffffffffff\n      and\n      eq\n        /* \"Topic.sol\":1599:1691  require(msg.sender == creator, 'You must be the creator of this Topic in order to do this.') */\n      tag_240\n      jumpi\n      mload(0x40)\n      0x08c379a000000000000000000000000000000000000000000000000000000000\n      dup2\n      mstore\n      0x04\n      add\n      dup1\n      dup1\n      0x20\n      add\n      dup3\n      dup2\n      sub\n      dup3\n      mstore\n      0x3a\n      dup2\n      mstore\n      0x20\n      add\n      dup1\n      data_8e90808f17bc1108e9ea5a79970bcefb81f12d2e44e112b3ad4b251ae0873244\n      0x3a\n      swap2\n      codecopy\n      0x40\n      add\n      swap2\n      pop\n      pop\n      mload(0x40)\n      dup1\n      swap2\n      sub\n      swap1\n      revert\n    tag_240:\n        /* \"Topic.sol\":7973:7974  0 */\n      0x00\n        /* \"Topic.sol\":7956:7969  getLieCount() */\n      tag_242\n        /* \"Topic.sol\":7956:7967  getLieCount */\n      tag_107\n        /* \"Topic.sol\":7956:7969  getLieCount() */\n      jump\t// in\n    tag_242:\n        /* \"Topic.sol\":7938:7953  getTruthCount() */\n      tag_243\n        /* \"Topic.sol\":7938:7951  getTruthCount */\n      tag_84\n        /* \"Topic.sol\":7938:7953  getTruthCount() */\n      jump\t// in\n    tag_243:\n        /* \"Topic.sol\":7938:7969  getTruthCount() + getLieCount() */\n      add\n        /* \"Topic.sol\":7938:7974  getTruthCount() + getLieCount() == 0 */\n      eq\n        /* \"Topic.sol\":7929:8041  require((getTruthCount() + getLieCount() == 0), 'The money goes to the people who participated in the process.') */\n      tag_244\n      jumpi\n      mload(0x40)\n      0x08c379a000000000000000000000000000000000000000000000000000000000\n      dup2\n      mstore\n      0x04\n      add\n      dup1\n      dup1\n      0x20\n      add\n      dup3\n      dup2\n      sub\n      dup3\n      mstore\n      0x3d\n      dup2\n      mstore\n      0x20\n      add\n      dup1\n      data_487936df645dd8c7181d68f73972966a3a06b5ee3756057942e5a7608d64edfe\n      0x3d\n      swap2\n      codecopy\n      0x40\n      add\n      swap2\n      pop\n      pop\n      mload(0x40)\n      dup1\n      swap2\n      sub\n      swap1\n      revert\n    tag_244:\n        /* \"Topic.sol\":8078:8085  endTime */\n      sload(0x06)\n        /* \"Topic.sol\":8060:8075  block.timestamp */\n      timestamp\n        /* \"Topic.sol\":8060:8085  block.timestamp > endTime */\n      gt\n        /* \"Topic.sol\":8052:8144  require(block.timestamp > endTime, 'You can only claim your rewards after the time period.') */\n      tag_245\n      jumpi\n      mload(0x40)\n      0x08c379a000000000000000000000000000000000000000000000000000000000\n      dup2\n      mstore\n      0x04\n      add\n      dup1\n      dup1\n      0x20\n      add\n      dup3\n      dup2\n      sub\n      dup3\n      mstore\n      0x36\n      dup2\n      mstore\n      0x20\n      add\n      dup1\n      data_1382083f71a022fa6144748d79496d6f05d3bcf3a0f484b323383c5c8edd8d26\n      0x36\n      swap2\n      codecopy\n      0x40\n      add\n      swap2\n      pop\n      pop\n      mload(0x40)\n      dup1\n      swap2\n      sub\n      swap1\n      revert\n    tag_245:\n        /* \"Topic.sol\":8157:8167  msg.sender */\n      caller\n        /* \"Topic.sol\":8157:8176  msg.sender.transfer */\n      0xffffffffffffffffffffffffffffffffffffffff\n      and\n        /* \"Topic.sol\":8157:8199  msg.sender.transfer(address(this).balance) */\n      0x08fc\n        /* \"Topic.sol\":8177:8198  address(this).balance */\n      selfbalance\n        /* \"Topic.sol\":8157:8199  msg.sender.transfer(address(this).balance) */\n      swap1\n      dup2\n      iszero\n      mul\n      swap1\n      mload(0x40)\n      0x00\n      mload(0x40)\n      dup1\n      dup4\n      sub\n      dup2\n      dup6\n      dup9\n      dup9\n      call\n      swap4\n      pop\n      pop\n      pop\n      pop\n      iszero\n        /* \"--CODEGEN--\":8:17   */\n      dup1\n        /* \"--CODEGEN--\":5:7   */\n      iszero\n      tag_246\n      jumpi\n        /* \"--CODEGEN--\":45:61   */\n      returndatasize\n        /* \"--CODEGEN--\":42:43   */\n      0x00\n        /* \"--CODEGEN--\":39:40   */\n      dup1\n        /* \"--CODEGEN--\":24:62   */\n      returndatacopy\n        /* \"--CODEGEN--\":77:93   */\n      returndatasize\n        /* \"--CODEGEN--\":74:75   */\n      0x00\n        /* \"--CODEGEN--\":67:94   */\n      revert\n        /* \"--CODEGEN--\":5:7   */\n    tag_246:\n        /* \"Topic.sol\":8157:8199  msg.sender.transfer(address(this).balance) */\n      pop\n        /* \"Topic.sol\":8210:8227  markAsCompleted() */\n      tag_247\n        /* \"Topic.sol\":8210:8225  markAsCompleted */\n      tag_248\n        /* \"Topic.sol\":8210:8227  markAsCompleted() */\n      jump\t// in\n    tag_247:\n        /* \"Topic.sol\":8260:8264  true */\n      0x01\n        /* \"Topic.sol\":8238:8245  claimed */\n      0x14\n        /* \"Topic.sol\":8238:8257  claimed[msg.sender] */\n      0x00\n        /* \"Topic.sol\":8246:8256  msg.sender */\n      caller\n        /* \"Topic.sol\":8238:8257  claimed[msg.sender] */\n      0xffffffffffffffffffffffffffffffffffffffff\n      and\n      0xffffffffffffffffffffffffffffffffffffffff\n      and\n      dup2\n      mstore\n      0x20\n      add\n      swap1\n      dup2\n      mstore\n      0x20\n      add\n      0x00\n      keccak256\n      0x00\n        /* \"Topic.sol\":8238:8264  claimed[msg.sender] = true */\n      0x0100\n      exp\n      dup2\n      sload\n      dup2\n      0xff\n      mul\n      not\n      and\n      swap1\n      dup4\n      iszero\n      iszero\n      mul\n      or\n      swap1\n      sstore\n      pop\n        /* \"Topic.sol\":7874:8272  function creatorClaim() public _creatorOnly {\r... */\n      jump\t// out\n        /* \"Topic.sol\":627:664  mapping(address => uint) public voted */\n    tag_127:\n      mstore(0x20, 0x08)\n      dup1\n      0x00\n      mstore\n      keccak256(0x00, 0x40)\n      0x00\n      swap2\n      pop\n      swap1\n      pop\n      sload\n      dup2\n      jump\t// out\n        /* \"Topic.sol\":3040:4519  function vote(uint argumentIndex, uint reputationCost) public payable _mustBeWithinTimeFrame {\r... */\n    tag_130:\n        /* \"Topic.sol\":1790:1797  endTime */\n      sload(0x06)\n        /* \"Topic.sol\":1772:1787  block.timestamp */\n      timestamp\n        /* \"Topic.sol\":1772:1797  block.timestamp < endTime */\n      lt\n        /* \"Topic.sol\":1764:1845  require(block.timestamp < endTime, 'The period for the Topic has already ended.') */\n      tag_250\n      jumpi\n      mload(0x40)\n      0x08c379a000000000000000000000000000000000000000000000000000000000\n      dup2\n      mstore\n      0x04\n      add\n      dup1\n      dup1\n      0x20\n      add\n      dup3\n      dup2\n      sub\n      dup3\n      mstore\n      0x2b\n      dup2\n      mstore\n      0x20\n      add\n      dup1\n      data_9f7f122b70f117f8950311c325d9279ba88d6a0d2b593ed4f11b7663b9f48d07\n      0x2b\n      swap2\n      codecopy\n      0x40\n      add\n      swap2\n      pop\n      pop\n      mload(0x40)\n      dup1\n      swap2\n      sub\n      swap1\n      revert\n    tag_250:\n        /* \"Topic.sol\":3169:3170  0 */\n      0x00\n        /* \"Topic.sol\":3152:3165  argumentIndex */\n      dup3\n        /* \"Topic.sol\":3152:3170  argumentIndex != 0 */\n      eq\n      iszero\n        /* \"Topic.sol\":3144:3234  require(argumentIndex != 0, 'You cannot vote for the argument generated by the contract.') */\n      tag_252\n      jumpi\n      mload(0x40)\n      0x08c379a000000000000000000000000000000000000000000000000000000000\n      dup2\n      mstore\n      0x04\n      add\n      dup1\n      dup1\n      0x20\n      add\n      dup3\n      dup2\n      sub\n      dup3\n      mstore\n      0x3b\n      dup2\n      mstore\n      0x20\n      add\n      dup1\n      data_a51d6c7e63ccd193933dbe11cb306fe5ec831a64f09f21fc7409bad4b2e4d83d\n      0x3b\n      swap2\n      codecopy\n      0x40\n      add\n      swap2\n      pop\n      pop\n      mload(0x40)\n      dup1\n      swap2\n      sub\n      swap1\n      revert\n    tag_252:\n        /* \"Topic.sol\":3266:3283  minimumInvestment */\n      sload(0x05)\n        /* \"Topic.sol\":3253:3262  msg.value */\n      callvalue\n        /* \"Topic.sol\":3253:3283  msg.value >= minimumInvestment */\n      lt\n      iszero\n        /* \"Topic.sol\":3245:3358  require(msg.value >= minimumInvestment, 'You must invest at least the minimum amount as decided by the creator.') */\n      tag_253\n      jumpi\n      mload(0x40)\n      0x08c379a000000000000000000000000000000000000000000000000000000000\n      dup2\n      mstore\n      0x04\n      add\n      dup1\n      dup1\n      0x20\n      add\n      dup3\n      dup2\n      sub\n      dup3\n      mstore\n      0x46\n      dup2\n      mstore\n      0x20\n      add\n      dup1\n      data_34b98d23d562a1a462a2b6766e2d3e1a49232f6fdafbe1eaa8383a3a59d99a34\n      0x46\n      swap2\n      codecopy\n      0x60\n      add\n      swap2\n      pop\n      pop\n      mload(0x40)\n      dup1\n      swap2\n      sub\n      swap1\n      revert\n    tag_253:\n        /* \"Topic.sol\":3377:3386  canVote() */\n      tag_254\n        /* \"Topic.sol\":3377:3384  canVote */\n      tag_75\n        /* \"Topic.sol\":3377:3386  canVote() */\n      jump\t// in\n    tag_254:\n        /* \"Topic.sol\":3369:3466  require(canVote(), \"You don't have this topic on your available list or you have already voted.\") */\n      tag_255\n      jumpi\n      mload(0x40)\n      0x08c379a000000000000000000000000000000000000000000000000000000000\n      dup2\n      mstore\n      0x04\n      add\n      dup1\n      dup1\n      0x20\n      add\n      dup3\n      dup2\n      sub\n      dup3\n      mstore\n      0x4b\n      dup2\n      mstore\n      0x20\n      add\n      dup1\n      data_cce99a9599a6abdd22376ab7035884d1e392d41c83e7fcfff1492424abef7dca\n      0x4b\n      swap2\n      codecopy\n      0x60\n      add\n      swap2\n      pop\n      pop\n      mload(0x40)\n      dup1\n      swap2\n      sub\n      swap1\n      revert\n    tag_255:\n        /* \"Topic.sol\":3529:3544  uint commission */\n      0x00\n        /* \"Topic.sol\":3563:3566  100 */\n      0x64\n        /* \"Topic.sol\":3559:3560  2 */\n      0x02\n        /* \"Topic.sol\":3547:3556  msg.value */\n      callvalue\n        /* \"Topic.sol\":3547:3560  msg.value * 2 */\n      mul\n        /* \"Topic.sol\":3547:3566  msg.value * 2 / 100 */\n      dup2\n      tag_256\n      jumpi\n      invalid\n    tag_256:\n      div\n        /* \"Topic.sol\":3529:3566  uint commission = msg.value * 2 / 100 */\n      swap1\n      pop\n        /* \"Topic.sol\":3578:3602  uint valueAfterCommision */\n      0x00\n        /* \"Topic.sol\":3617:3627  commission */\n      dup2\n        /* \"Topic.sol\":3605:3614  msg.value */\n      callvalue\n        /* \"Topic.sol\":3605:3627  msg.value - commission */\n      sub\n        /* \"Topic.sol\":3578:3627  uint valueAfterCommision = msg.value - commission */\n      swap1\n      pop\n        /* \"Topic.sol\":3638:3668  address payable creatorPayable */\n      0x00\n        /* \"Topic.sol\":3695:3702  creator */\n      0x04\n      0x00\n      swap1\n      sload\n      swap1\n      0x0100\n      exp\n      swap1\n      div\n      0xffffffffffffffffffffffffffffffffffffffff\n      and\n        /* \"Topic.sol\":3638:3705  address payable creatorPayable = address(uint160(address(creator))) */\n      swap1\n      pop\n        /* \"Topic.sol\":3716:3730  creatorPayable */\n      dup1\n        /* \"Topic.sol\":3716:3739  creatorPayable.transfer */\n      0xffffffffffffffffffffffffffffffffffffffff\n      and\n        /* \"Topic.sol\":3716:3751  creatorPayable.transfer(commission) */\n      0x08fc\n        /* \"Topic.sol\":3740:3750  commission */\n      dup5\n        /* \"Topic.sol\":3716:3751  creatorPayable.transfer(commission) */\n      swap1\n      dup2\n      iszero\n      mul\n      swap1\n      mload(0x40)\n      0x00\n      mload(0x40)\n      dup1\n      dup4\n      sub\n      dup2\n      dup6\n      dup9\n      dup9\n      call\n      swap4\n      pop\n      pop\n      pop\n      pop\n      iszero\n        /* \"--CODEGEN--\":8:17   */\n      dup1\n        /* \"--CODEGEN--\":5:7   */\n      iszero\n      tag_257\n      jumpi\n        /* \"--CODEGEN--\":45:61   */\n      returndatasize\n        /* \"--CODEGEN--\":42:43   */\n      0x00\n        /* \"--CODEGEN--\":39:40   */\n      dup1\n        /* \"--CODEGEN--\":24:62   */\n      returndatacopy\n        /* \"--CODEGEN--\":77:93   */\n      returndatasize\n        /* \"--CODEGEN--\":74:75   */\n      0x00\n        /* \"--CODEGEN--\":67:94   */\n      revert\n        /* \"--CODEGEN--\":5:7   */\n    tag_257:\n        /* \"Topic.sol\":3716:3751  creatorPayable.transfer(commission) */\n      pop\n        /* \"Topic.sol\":3782:3806  reputationFactoryAddress */\n      0x00\n      dup1\n      swap1\n      sload\n      swap1\n      0x0100\n      exp\n      swap1\n      div\n      0xffffffffffffffffffffffffffffffffffffffff\n      and\n        /* \"Topic.sol\":3764:3823  ReputationFactory(reputationFactoryAddress).spendReputation */\n      0xffffffffffffffffffffffffffffffffffffffff\n      and\n      0x37c10389\n        /* \"Topic.sol\":3832:3836  this */\n      address\n        /* \"Topic.sol\":3839:3853  reputationCost */\n      dup7\n        /* \"Topic.sol\":3855:3865  msg.sender */\n      caller\n        /* \"Topic.sol\":3764:3866  ReputationFactory(reputationFactoryAddress).spendReputation(address(this), reputationCost, msg.sender) */\n      mload(0x40)\n      dup5\n      0xffffffff\n      and\n      0xe0\n      shl\n      dup2\n      mstore\n      0x04\n      add\n      dup1\n      dup5\n      0xffffffffffffffffffffffffffffffffffffffff\n      and\n      0xffffffffffffffffffffffffffffffffffffffff\n      and\n      dup2\n      mstore\n      0x20\n      add\n      dup4\n      dup2\n      mstore\n      0x20\n      add\n      dup3\n      0xffffffffffffffffffffffffffffffffffffffff\n      and\n      0xffffffffffffffffffffffffffffffffffffffff\n      and\n      dup2\n      mstore\n      0x20\n      add\n      swap4\n      pop\n      pop\n      pop\n      pop\n      0x00\n      mload(0x40)\n      dup1\n      dup4\n      sub\n      dup2\n      0x00\n      dup8\n      dup1\n      extcodesize\n      iszero\n        /* \"--CODEGEN--\":8:17   */\n      dup1\n        /* \"--CODEGEN--\":5:7   */\n      iszero\n      tag_258\n      jumpi\n        /* \"--CODEGEN--\":30:31   */\n      0x00\n        /* \"--CODEGEN--\":27:28   */\n      dup1\n        /* \"--CODEGEN--\":20:32   */\n      revert\n        /* \"--CODEGEN--\":5:7   */\n    tag_258:\n        /* \"Topic.sol\":3764:3866  ReputationFactory(reputationFactoryAddress).spendReputation(address(this), reputationCost, msg.sender) */\n      pop\n      gas\n      call\n      iszero\n        /* \"--CODEGEN--\":8:17   */\n      dup1\n        /* \"--CODEGEN--\":5:7   */\n      iszero\n      tag_259\n      jumpi\n        /* \"--CODEGEN--\":45:61   */\n      returndatasize\n        /* \"--CODEGEN--\":42:43   */\n      0x00\n        /* \"--CODEGEN--\":39:40   */\n      dup1\n        /* \"--CODEGEN--\":24:62   */\n      returndatacopy\n        /* \"--CODEGEN--\":77:93   */\n      returndatasize\n        /* \"--CODEGEN--\":74:75   */\n      0x00\n        /* \"--CODEGEN--\":67:94   */\n      revert\n        /* \"--CODEGEN--\":5:7   */\n    tag_259:\n        /* \"Topic.sol\":3764:3866  ReputationFactory(reputationFactoryAddress).spendReputation(address(this), reputationCost, msg.sender) */\n      pop\n      pop\n      pop\n      pop\n        /* \"Topic.sol\":3897:3910  argumentIndex */\n      dup5\n        /* \"Topic.sol\":3877:3882  voted */\n      0x08\n        /* \"Topic.sol\":3877:3894  voted[msg.sender] */\n      0x00\n        /* \"Topic.sol\":3883:3893  msg.sender */\n      caller\n        /* \"Topic.sol\":3877:3894  voted[msg.sender] */\n      0xffffffffffffffffffffffffffffffffffffffff\n      and\n      0xffffffffffffffffffffffffffffffffffffffff\n      and\n      dup2\n      mstore\n      0x20\n      add\n      swap1\n      dup2\n      mstore\n      0x20\n      add\n      0x00\n      keccak256\n        /* \"Topic.sol\":3877:3910  voted[msg.sender] = argumentIndex */\n      dup2\n      swap1\n      sstore\n      pop\n        /* \"Topic.sol\":3954:3973  valueAfterCommision */\n      dup2\n        /* \"Topic.sol\":3921:3939  monetaryInvestment */\n      0x0b\n        /* \"Topic.sol\":3921:3951  monetaryInvestment[msg.sender] */\n      0x00\n        /* \"Topic.sol\":3940:3950  msg.sender */\n      caller\n        /* \"Topic.sol\":3921:3951  monetaryInvestment[msg.sender] */\n      0xffffffffffffffffffffffffffffffffffffffff\n      and\n      0xffffffffffffffffffffffffffffffffffffffff\n      and\n      dup2\n      mstore\n      0x20\n      add\n      swap1\n      dup2\n      mstore\n      0x20\n      add\n      0x00\n      keccak256\n        /* \"Topic.sol\":3921:3973  monetaryInvestment[msg.sender] = valueAfterCommision */\n      dup2\n      swap1\n      sstore\n      pop\n        /* \"Topic.sol\":4019:4033  reputationCost */\n      dup4\n        /* \"Topic.sol\":3984:4004  reputationInvestment */\n      0x0f\n        /* \"Topic.sol\":3984:4016  reputationInvestment[msg.sender] */\n      0x00\n        /* \"Topic.sol\":4005:4015  msg.sender */\n      caller\n        /* \"Topic.sol\":3984:4016  reputationInvestment[msg.sender] */\n      0xffffffffffffffffffffffffffffffffffffffff\n      and\n      0xffffffffffffffffffffffffffffffffffffffff\n      and\n      dup2\n      mstore\n      0x20\n      add\n      swap1\n      dup2\n      mstore\n      0x20\n      add\n      0x00\n      keccak256\n        /* \"Topic.sol\":3984:4033  reputationInvestment[msg.sender] = reputationCost */\n      dup2\n      swap1\n      sstore\n      pop\n        /* \"Topic.sol\":4073:4087  reputationCost */\n      dup4\n        /* \"Topic.sol\":4044:4069  totalReputationInvestment */\n      0x12\n      0x00\n        /* \"Topic.sol\":4044:4087  totalReputationInvestment += reputationCost */\n      dup3\n      dup3\n      sload\n      add\n      swap3\n      pop\n      pop\n      dup2\n      swap1\n      sstore\n      pop\n        /* \"Topic.sol\":4100:4109  arguments */\n      0x07\n        /* \"Topic.sol\":4110:4123  argumentIndex */\n      dup6\n        /* \"Topic.sol\":4100:4124  arguments[argumentIndex] */\n      dup2\n      sload\n      dup2\n      lt\n      tag_260\n      jumpi\n      invalid\n    tag_260:\n      swap1\n      0x00\n      mstore\n      keccak256(0x00, 0x20)\n      swap1\n      0x03\n      mul\n      add\n        /* \"Topic.sol\":4100:4134  arguments[argumentIndex].voteCount */\n      0x02\n      add\n      0x00\n        /* \"Topic.sol\":4100:4136  arguments[argumentIndex].voteCount++ */\n      dup2\n      sload\n      dup1\n      swap3\n      swap2\n      swap1\n      0x01\n      add\n      swap2\n      swap1\n      pop\n      sstore\n      pop\n        /* \"Topic.sol\":4151:4160  arguments */\n      0x07\n        /* \"Topic.sol\":4161:4174  argumentIndex */\n      dup6\n        /* \"Topic.sol\":4151:4175  arguments[argumentIndex] */\n      dup2\n      sload\n      dup2\n      lt\n      tag_262\n      jumpi\n      invalid\n    tag_262:\n      swap1\n      0x00\n      mstore\n      keccak256(0x00, 0x20)\n      swap1\n      0x03\n      mul\n      add\n        /* \"Topic.sol\":4151:4182  arguments[argumentIndex].isTrue */\n      0x01\n      add\n      0x00\n      swap1\n      sload\n      swap1\n      0x0100\n      exp\n      swap1\n      div\n      0xff\n      and\n        /* \"Topic.sol\":4147:4512  if (arguments[argumentIndex].isTrue) {\r... */\n      iszero\n      tag_264\n      jumpi\n        /* \"Topic.sol\":4199:4210  truthVoters */\n      0x09\n        /* \"Topic.sol\":4216:4226  msg.sender */\n      caller\n        /* \"Topic.sol\":4199:4227  truthVoters.push(msg.sender) */\n      swap1\n      dup1\n        /* \"--CODEGEN--\":39:40   */\n      0x01\n        /* \"--CODEGEN--\":33:36   */\n      dup2\n        /* \"--CODEGEN--\":27:37   */\n      sload\n        /* \"--CODEGEN--\":23:41   */\n      add\n        /* \"--CODEGEN--\":57:67   */\n      dup1\n        /* \"--CODEGEN--\":52:55   */\n      dup3\n        /* \"--CODEGEN--\":45:68   */\n      sstore\n        /* \"--CODEGEN--\":79:89   */\n      dup1\n        /* \"--CODEGEN--\":72:89   */\n      swap2\n      pop\n        /* \"--CODEGEN--\":0:93   */\n      pop\n        /* \"Topic.sol\":4199:4227  truthVoters.push(msg.sender) */\n      swap1\n      0x01\n      dup3\n      sub\n      swap1\n      0x00\n      mstore\n      keccak256(0x00, 0x20)\n      add\n      0x00\n      swap1\n      swap2\n      swap3\n      swap1\n      swap2\n      swap1\n      swap2\n      0x0100\n      exp\n      dup2\n      sload\n      dup2\n      0xffffffffffffffffffffffffffffffffffffffff\n      mul\n      not\n      and\n      swap1\n      dup4\n      0xffffffffffffffffffffffffffffffffffffffff\n      and\n      mul\n      or\n      swap1\n      sstore\n      pop\n      pop\n        /* \"Topic.sol\":4261:4275  reputationCost */\n      dup4\n        /* \"Topic.sol\":4242:4257  truthReputation */\n      0x10\n      0x00\n        /* \"Topic.sol\":4242:4275  truthReputation += reputationCost */\n      dup3\n      dup3\n      sload\n      add\n      swap3\n      pop\n      pop\n      dup2\n      swap1\n      sstore\n      pop\n        /* \"Topic.sol\":4317:4336  valueAfterCommision */\n      dup2\n        /* \"Topic.sol\":4290:4313  truthMonetaryInvestment */\n      0x0c\n      0x00\n        /* \"Topic.sol\":4290:4336  truthMonetaryInvestment += valueAfterCommision */\n      dup3\n      dup3\n      sload\n      add\n      swap3\n      pop\n      pop\n      dup2\n      swap1\n      sstore\n      pop\n        /* \"Topic.sol\":4147:4512  if (arguments[argumentIndex].isTrue) {\r... */\n      jump(tag_266)\n    tag_264:\n        /* \"Topic.sol\":4369:4378  lieVoters */\n      0x0a\n        /* \"Topic.sol\":4384:4394  msg.sender */\n      caller\n        /* \"Topic.sol\":4369:4395  lieVoters.push(msg.sender) */\n      swap1\n      dup1\n        /* \"--CODEGEN--\":39:40   */\n      0x01\n        /* \"--CODEGEN--\":33:36   */\n      dup2\n        /* \"--CODEGEN--\":27:37   */\n      sload\n        /* \"--CODEGEN--\":23:41   */\n      add\n        /* \"--CODEGEN--\":57:67   */\n      dup1\n        /* \"--CODEGEN--\":52:55   */\n      dup3\n        /* \"--CODEGEN--\":45:68   */\n      sstore\n        /* \"--CODEGEN--\":79:89   */\n      dup1\n        /* \"--CODEGEN--\":72:89   */\n      swap2\n      pop\n        /* \"--CODEGEN--\":0:93   */\n      pop\n        /* \"Topic.sol\":4369:4395  lieVoters.push(msg.sender) */\n      swap1\n      0x01\n      dup3\n      sub\n      swap1\n      0x00\n      mstore\n      keccak256(0x00, 0x20)\n      add\n      0x00\n      swap1\n      swap2\n      swap3\n      swap1\n      swap2\n      swap1\n      swap2\n      0x0100\n      exp\n      dup2\n      sload\n      dup2\n      0xffffffffffffffffffffffffffffffffffffffff\n      mul\n      not\n      and\n      swap1\n      dup4\n      0xffffffffffffffffffffffffffffffffffffffff\n      and\n      mul\n      or\n      swap1\n      sstore\n      pop\n      pop\n        /* \"Topic.sol\":4427:4441  reputationCost */\n      dup4\n        /* \"Topic.sol\":4410:4423  lieReputation */\n      0x11\n      0x00\n        /* \"Topic.sol\":4410:4441  lieReputation += reputationCost */\n      dup3\n      dup3\n      sload\n      add\n      swap3\n      pop\n      pop\n      dup2\n      swap1\n      sstore\n      pop\n        /* \"Topic.sol\":4481:4500  valueAfterCommision */\n      dup2\n        /* \"Topic.sol\":4456:4477  lieMonetaryInvestment */\n      0x0d\n      0x00\n        /* \"Topic.sol\":4456:4500  lieMonetaryInvestment += valueAfterCommision */\n      dup3\n      dup3\n      sload\n      add\n      swap3\n      pop\n      pop\n      dup2\n      swap1\n      sstore\n      pop\n        /* \"Topic.sol\":4147:4512  if (arguments[argumentIndex].isTrue) {\r... */\n    tag_266:\n        /* \"Topic.sol\":1856:1857  _ */\n      pop\n      pop\n      pop\n        /* \"Topic.sol\":3040:4519  function vote(uint argumentIndex, uint reputationCost) public payable _mustBeWithinTimeFrame {\r... */\n      pop\n      pop\n      jump\t// out\n        /* \"Topic.sol\":1535:1555  uint public majority */\n    tag_133:\n      sload(0x16)\n      dup2\n      jump\t// out\n        /* \"Topic.sol\":5696:5793  function getArgumentCount() public view returns (uint) {\r... */\n    tag_136:\n        /* \"Topic.sol\":5745:5749  uint */\n      0x00\n        /* \"Topic.sol\":5769:5778  arguments */\n      0x07\n        /* \"Topic.sol\":5769:5785  arguments.length */\n      dup1\n      sload\n      swap1\n      pop\n        /* \"Topic.sol\":5762:5785  return arguments.length */\n      swap1\n      pop\n        /* \"Topic.sol\":5696:5793  function getArgumentCount() public view returns (uint) {\r... */\n      swap1\n      jump\t// out\n        /* \"Topic.sol\":9237:9508  function calculateReputationGain(uint initialReputation, address sender) public view returns (uint) {\r... */\n    tag_140:\n        /* \"Topic.sol\":9331:9335  uint */\n      0x00\n        /* \"Topic.sol\":9352:9370  inMajority(sender) */\n      tag_270\n        /* \"Topic.sol\":9363:9369  sender */\n      dup3\n        /* \"Topic.sol\":9352:9362  inMajority */\n      tag_91\n        /* \"Topic.sol\":9352:9370  inMajority(sender) */\n      jump\t// in\n    tag_270:\n        /* \"Topic.sol\":9348:9501  if (inMajority(sender)) {\r... */\n      iszero\n      tag_271\n      jumpi\n        /* \"Topic.sol\":9419:9421  10 */\n      0x0a\n        /* \"Topic.sol\":9414:9416  11 */\n      0x0b\n        /* \"Topic.sol\":9394:9411  initialReputation */\n      dup5\n        /* \"Topic.sol\":9394:9416  initialReputation * 11 */\n      mul\n        /* \"Topic.sol\":9394:9421  initialReputation * 11 / 10 */\n      dup2\n      tag_272\n      jumpi\n      invalid\n    tag_272:\n      div\n        /* \"Topic.sol\":9387:9421  return initialReputation * 11 / 10 */\n      swap1\n      pop\n      jump(tag_269)\n        /* \"Topic.sol\":9348:9501  if (inMajority(sender)) {\r... */\n    tag_271:\n        /* \"Topic.sol\":9486:9488  10 */\n      0x0a\n        /* \"Topic.sol\":9482:9483  8 */\n      0x08\n        /* \"Topic.sol\":9462:9479  initialReputation */\n      dup5\n        /* \"Topic.sol\":9462:9483  initialReputation * 8 */\n      mul\n        /* \"Topic.sol\":9462:9488  initialReputation * 8 / 10 */\n      dup2\n      tag_274\n      jumpi\n      invalid\n    tag_274:\n      div\n        /* \"Topic.sol\":9455:9488  return initialReputation * 8 / 10 */\n      swap1\n      pop\n        /* \"Topic.sol\":9237:9508  function calculateReputationGain(uint initialReputation, address sender) public view returns (uint) {\r... */\n    tag_269:\n      swap3\n      swap2\n      pop\n      pop\n      jump\t// out\n        /* \"Topic.sol\":1384:1423  mapping(address => bool) public claimed */\n    tag_144:\n      mstore(0x20, 0x14)\n      dup1\n      0x00\n      mstore\n      keccak256(0x00, 0x40)\n      0x00\n      swap2\n      pop\n      sload\n      swap1\n      0x0100\n      exp\n      swap1\n      div\n      0xff\n      and\n      dup2\n      jump\t// out\n        /* \"Topic.sol\":1098:1150  mapping(address => uint) public reputationInvestment */\n    tag_148:\n      mstore(0x20, 0x0f)\n      dup1\n      0x00\n      mstore\n      keccak256(0x00, 0x40)\n      0x00\n      swap2\n      pop\n      swap1\n      pop\n      sload\n      dup2\n      jump\t// out\n        /* \"Topic.sol\":1224:1249  uint public lieReputation */\n    tag_151:\n      sload(0x11)\n      dup2\n      jump\t// out\n        /* \"Topic.sol\":697:733  address payable[] public truthVoters */\n    tag_155:\n      0x09\n      dup2\n      dup2\n      sload\n      dup2\n      lt\n      tag_275\n      jumpi\n      invalid\n    tag_275:\n      swap1\n      0x00\n      mstore\n      keccak256(0x00, 0x20)\n      add\n      0x00\n      swap2\n      pop\n      sload\n      swap1\n      0x0100\n      exp\n      swap1\n      div\n      0xffffffffffffffffffffffffffffffffffffffff\n      and\n      dup2\n      jump\t// out\n        /* \"Topic.sol\":1256:1293  uint public totalReputationInvestment */\n    tag_158:\n      sload(0x12)\n      dup2\n      jump\t// out\n        /* \"Topic.sol\":5234:5688  function modifyArgument(uint argumentIndex, string memory newContent, bool belief) public _mustBeWithinTimeFrame  {\r... */\n    tag_165:\n        /* \"Topic.sol\":1790:1797  endTime */\n      sload(0x06)\n        /* \"Topic.sol\":1772:1787  block.timestamp */\n      timestamp\n        /* \"Topic.sol\":1772:1797  block.timestamp < endTime */\n      lt\n        /* \"Topic.sol\":1764:1845  require(block.timestamp < endTime, 'The period for the Topic has already ended.') */\n      tag_278\n      jumpi\n      mload(0x40)\n      0x08c379a000000000000000000000000000000000000000000000000000000000\n      dup2\n      mstore\n      0x04\n      add\n      dup1\n      dup1\n      0x20\n      add\n      dup3\n      dup2\n      sub\n      dup3\n      mstore\n      0x2b\n      dup2\n      mstore\n      0x20\n      add\n      dup1\n      data_9f7f122b70f117f8950311c325d9279ba88d6a0d2b593ed4f11b7663b9f48d07\n      0x2b\n      swap2\n      codecopy\n      0x40\n      add\n      swap2\n      pop\n      pop\n      mload(0x40)\n      dup1\n      swap2\n      sub\n      swap1\n      revert\n    tag_278:\n        /* \"Topic.sol\":5359:5379  Argument storage arg */\n      0x00\n        /* \"Topic.sol\":5382:5391  arguments */\n      0x07\n        /* \"Topic.sol\":5392:5405  argumentIndex */\n      dup5\n        /* \"Topic.sol\":5382:5406  arguments[argumentIndex] */\n      dup2\n      sload\n      dup2\n      lt\n      tag_280\n      jumpi\n      invalid\n    tag_280:\n      swap1\n      0x00\n      mstore\n      keccak256(0x00, 0x20)\n      swap1\n      0x03\n      mul\n      add\n        /* \"Topic.sol\":5359:5406  Argument storage arg = arguments[argumentIndex] */\n      swap1\n      pop\n        /* \"Topic.sol\":5440:5450  msg.sender */\n      caller\n        /* \"Topic.sol\":5425:5450  arg.creator == msg.sender */\n      0xffffffffffffffffffffffffffffffffffffffff\n      and\n        /* \"Topic.sol\":5425:5428  arg */\n      dup2\n        /* \"Topic.sol\":5425:5436  arg.creator */\n      0x01\n      add\n      0x01\n      swap1\n      sload\n      swap1\n      0x0100\n      exp\n      swap1\n      div\n      0xffffffffffffffffffffffffffffffffffffffff\n      and\n        /* \"Topic.sol\":5425:5450  arg.creator == msg.sender */\n      0xffffffffffffffffffffffffffffffffffffffff\n      and\n      eq\n        /* \"Topic.sol\":5417:5518  require(arg.creator == msg.sender, 'You must be the creator of this argument to modify its contents') */\n      tag_282\n      jumpi\n      mload(0x40)\n      0x08c379a000000000000000000000000000000000000000000000000000000000\n      dup2\n      mstore\n      0x04\n      add\n      dup1\n      dup1\n      0x20\n      add\n      dup3\n      dup2\n      sub\n      dup3\n      mstore\n      0x3f\n      dup2\n      mstore\n      0x20\n      add\n      dup1\n      data_462972cdfa3949c714200f01cc0119c34f13d2febb0b716c5c847368d043f42b\n      0x3f\n      swap2\n      codecopy\n      0x40\n      add\n      swap2\n      pop\n      pop\n      mload(0x40)\n      dup1\n      swap2\n      sub\n      swap1\n      revert\n    tag_282:\n        /* \"Topic.sol\":5554:5555  0 */\n      0x00\n        /* \"Topic.sol\":5537:5540  arg */\n      dup2\n        /* \"Topic.sol\":5537:5550  arg.voteCount */\n      0x02\n      add\n      sload\n        /* \"Topic.sol\":5537:5555  arg.voteCount == 0 */\n      eq\n        /* \"Topic.sol\":5529:5615  require(arg.voteCount == 0, 'Argument has already been voted on. Cannot be modified.') */\n      tag_283\n      jumpi\n      mload(0x40)\n      0x08c379a000000000000000000000000000000000000000000000000000000000\n      dup2\n      mstore\n      0x04\n      add\n      dup1\n      dup1\n      0x20\n      add\n      dup3\n      dup2\n      sub\n      dup3\n      mstore\n      0x37\n      dup2\n      mstore\n      0x20\n      add\n      dup1\n      data_1be1a3b9e30cac1814559605f4ac4b55233032853cb87250e77213ea0088799b\n      0x37\n      swap2\n      codecopy\n      0x40\n      add\n      swap2\n      pop\n      pop\n      mload(0x40)\n      dup1\n      swap2\n      sub\n      swap1\n      revert\n    tag_283:\n        /* \"Topic.sol\":5640:5650  newContent */\n      dup3\n        /* \"Topic.sol\":5626:5629  arg */\n      dup2\n        /* \"Topic.sol\":5626:5637  arg.content */\n      0x00\n      add\n        /* \"Topic.sol\":5626:5650  arg.content = newContent */\n      swap1\n      dup1\n      mload\n      swap1\n      0x20\n      add\n      swap1\n      tag_284\n      swap3\n      swap2\n      swap1\n      tag_285\n      jump\t// in\n    tag_284:\n      pop\n        /* \"Topic.sol\":5674:5680  belief */\n      dup2\n        /* \"Topic.sol\":5661:5664  arg */\n      dup2\n        /* \"Topic.sol\":5661:5671  arg.isTrue */\n      0x01\n      add\n      0x00\n        /* \"Topic.sol\":5661:5680  arg.isTrue = belief */\n      0x0100\n      exp\n      dup2\n      sload\n      dup2\n      0xff\n      mul\n      not\n      and\n      swap1\n      dup4\n      iszero\n      iszero\n      mul\n      or\n      swap1\n      sstore\n      pop\n        /* \"Topic.sol\":1856:1857  _ */\n      pop\n        /* \"Topic.sol\":5234:5688  function modifyArgument(uint argumentIndex, string memory newContent, bool belief) public _mustBeWithinTimeFrame  {\r... */\n      pop\n      pop\n      pop\n      jump\t// out\n        /* \"Topic.sol\":10069:10167  function getMoneyPool() public view returns (uint) {\r... */\n    tag_168:\n        /* \"Topic.sol\":10114:10118  uint */\n      0x00\n        /* \"Topic.sol\":10138:10159  address(this).balance */\n      selfbalance\n        /* \"Topic.sol\":10131:10159  return address(this).balance */\n      swap1\n      pop\n        /* \"Topic.sol\":10069:10167  function getMoneyPool() public view returns (uint) {\r... */\n      swap1\n      jump\t// out\n        /* \"Topic.sol\":1505:1528  bool public isCompleted */\n    tag_171:\n      0x15\n      0x00\n      swap1\n      sload\n      swap1\n      0x0100\n      exp\n      swap1\n      div\n      0xff\n      and\n      dup2\n      jump\t// out\n        /* \"Topic.sol\":1017:1047  uint public finalMonetaryTotal */\n    tag_174:\n      sload(0x0e)\n      dup2\n      jump\t// out\n        /* \"Topic.sol\":9516:9824  function getDetails() public view returns (address, uint, uint, bool, bool, bool, uint, uint, uint, uint, uint) {\r... */\n    tag_177:\n        /* \"Topic.sol\":9559:9566  address */\n      0x00\n        /* \"Topic.sol\":9568:9572  uint */\n      dup1\n        /* \"Topic.sol\":9574:9578  uint */\n      0x00\n        /* \"Topic.sol\":9580:9584  bool */\n      dup1\n        /* \"Topic.sol\":9586:9590  bool */\n      0x00\n        /* \"Topic.sol\":9592:9596  bool */\n      dup1\n        /* \"Topic.sol\":9598:9602  uint */\n      0x00\n        /* \"Topic.sol\":9604:9608  uint */\n      dup1\n        /* \"Topic.sol\":9610:9614  uint */\n      0x00\n        /* \"Topic.sol\":9616:9620  uint */\n      dup1\n        /* \"Topic.sol\":9622:9626  uint */\n      0x00\n        /* \"Topic.sol\":9647:9654  creator */\n      0x04\n      0x00\n      swap1\n      sload\n      swap1\n      0x0100\n      exp\n      swap1\n      div\n      0xffffffffffffffffffffffffffffffffffffffff\n      and\n        /* \"Topic.sol\":9656:9673  minimumInvestment */\n      sload(0x05)\n        /* \"Topic.sol\":9675:9682  endTime */\n      sload(0x06)\n        /* \"Topic.sol\":9684:9695  isCompleted */\n      0x15\n      0x00\n      swap1\n      sload\n      swap1\n      0x0100\n      exp\n      swap1\n      div\n      0xff\n      and\n        /* \"Topic.sol\":9697:9707  canClaim() */\n      tag_288\n        /* \"Topic.sol\":9697:9705  canClaim */\n      tag_104\n        /* \"Topic.sol\":9697:9707  canClaim() */\n      jump\t// in\n    tag_288:\n        /* \"Topic.sol\":9709:9716  claimed */\n      0x14\n        /* \"Topic.sol\":9709:9728  claimed[msg.sender] */\n      0x00\n        /* \"Topic.sol\":9717:9727  msg.sender */\n      caller\n        /* \"Topic.sol\":9709:9728  claimed[msg.sender] */\n      0xffffffffffffffffffffffffffffffffffffffff\n      and\n      0xffffffffffffffffffffffffffffffffffffffff\n      and\n      dup2\n      mstore\n      0x20\n      add\n      swap1\n      dup2\n      mstore\n      0x20\n      add\n      0x00\n      keccak256\n      0x00\n      swap1\n      sload\n      swap1\n      0x0100\n      exp\n      swap1\n      div\n      0xff\n      and\n        /* \"Topic.sol\":9730:9751  address(this).balance */\n      selfbalance\n        /* \"Topic.sol\":9753:9768  getTruthCount() */\n      tag_289\n        /* \"Topic.sol\":9753:9766  getTruthCount */\n      tag_84\n        /* \"Topic.sol\":9753:9768  getTruthCount() */\n      jump\t// in\n    tag_289:\n        /* \"Topic.sol\":9770:9783  getLieCount() */\n      tag_290\n        /* \"Topic.sol\":9770:9781  getLieCount */\n      tag_107\n        /* \"Topic.sol\":9770:9783  getLieCount() */\n      jump\t// in\n    tag_290:\n        /* \"Topic.sol\":9785:9800  truthReputation */\n      sload(0x10)\n        /* \"Topic.sol\":9802:9815  lieReputation */\n      sload(0x11)\n        /* \"Topic.sol\":9639:9816  return (creator, minimumInvestment, endTime, isCompleted, canClaim(), claimed[msg.sender], address(this).balance, getTruthCount(), getLieCount(), truthReputation, lieReputation) */\n      swap11\n      pop\n      swap11\n      pop\n      swap11\n      pop\n      swap11\n      pop\n      swap11\n      pop\n      swap11\n      pop\n      swap11\n      pop\n      swap11\n      pop\n      swap11\n      pop\n      swap11\n      pop\n      swap11\n      pop\n        /* \"Topic.sol\":9516:9824  function getDetails() public view returns (address, uint, uint, bool, bool, bool, uint, uint, uint, uint, uint) {\r... */\n      swap1\n      swap2\n      swap3\n      swap4\n      swap5\n      swap6\n      swap7\n      swap8\n      swap9\n      swap10\n      swap11\n      jump\t// out\n        /* \"Topic.sol\":8447:9229  function calculateMonetaryGain(uint initialMonetaryInvestment, bool onTruthSide) public view returns (uint) {\r... */\n    tag_181:\n        /* \"Topic.sol\":8549:8553  uint */\n      0x00\n        /* \"Topic.sol\":8566:8590  uint tempTotalInvestment */\n      dup1\n        /* \"Topic.sol\":8605:8616  onTruthSide */\n      dup3\n        /* \"Topic.sol\":8601:8766  if (onTruthSide) {\r... */\n      iszero\n      tag_292\n      jumpi\n        /* \"Topic.sol\":8655:8678  truthMonetaryInvestment */\n      sload(0x0c)\n        /* \"Topic.sol\":8633:8678  tempTotalInvestment = truthMonetaryInvestment */\n      swap1\n      pop\n        /* \"Topic.sol\":8601:8766  if (onTruthSide) {\r... */\n      jump(tag_293)\n    tag_292:\n        /* \"Topic.sol\":8733:8754  lieMonetaryInvestment */\n      sload(0x0d)\n        /* \"Topic.sol\":8711:8754  tempTotalInvestment = lieMonetaryInvestment */\n      swap1\n      pop\n        /* \"Topic.sol\":8601:8766  if (onTruthSide) {\r... */\n    tag_293:\n        /* \"Topic.sol\":8805:8806  0 */\n      0x00\n        /* \"Topic.sol\":8782:8801  tempTotalInvestment */\n      dup2\n        /* \"Topic.sol\":8782:8806  tempTotalInvestment <= 0 */\n      gt\n        /* \"Topic.sol\":8778:8843  if (tempTotalInvestment <= 0) {\r... */\n      tag_294\n      jumpi\n        /* \"Topic.sol\":8830:8831  0 */\n      0x00\n        /* \"Topic.sol\":8823:8831  return 0 */\n      swap2\n      pop\n      pop\n      jump(tag_291)\n        /* \"Topic.sol\":8778:8843  if (tempTotalInvestment <= 0) {\r... */\n    tag_294:\n        /* \"Topic.sol\":8859:8870  isCompleted */\n      0x15\n      0x00\n      swap1\n      sload\n      swap1\n      0x0100\n      exp\n      swap1\n      div\n      0xff\n      and\n        /* \"Topic.sol\":8855:9222  if (isCompleted) {\r... */\n      iszero\n      tag_295\n      jumpi\n        /* \"Topic.sol\":8903:8904  3 */\n      0x03\n        /* \"Topic.sol\":8891:8899  majority */\n      sload(0x16)\n        /* \"Topic.sol\":8891:8904  majority == 3 */\n      eq\n        /* \"Topic.sol\":8887:9010  if (majority == 3) {\r... */\n      iszero\n      tag_296\n      jumpi\n        /* \"Topic.sol\":8973:8994  lieMonetaryInvestment */\n      sload(0x0d)\n        /* \"Topic.sol\":8947:8970  truthMonetaryInvestment */\n      sload(0x0c)\n        /* \"Topic.sol\":8947:8994  truthMonetaryInvestment + lieMonetaryInvestment */\n      add\n        /* \"Topic.sol\":8925:8994  tempTotalInvestment = truthMonetaryInvestment + lieMonetaryInvestment */\n      swap1\n      pop\n        /* \"Topic.sol\":8887:9010  if (majority == 3) {\r... */\n    tag_296:\n        /* \"Topic.sol\":9080:9099  tempTotalInvestment */\n      dup1\n        /* \"Topic.sol\":9052:9077  initialMonetaryInvestment */\n      dup5\n        /* \"Topic.sol\":9031:9049  finalMonetaryTotal */\n      sload(0x0e)\n        /* \"Topic.sol\":9031:9077  finalMonetaryTotal * initialMonetaryInvestment */\n      mul\n        /* \"Topic.sol\":9031:9099  finalMonetaryTotal * initialMonetaryInvestment / tempTotalInvestment */\n      dup2\n      tag_297\n      jumpi\n      invalid\n    tag_297:\n      div\n        /* \"Topic.sol\":9024:9099  return finalMonetaryTotal * initialMonetaryInvestment / tempTotalInvestment */\n      swap2\n      pop\n      pop\n      jump(tag_291)\n        /* \"Topic.sol\":8855:9222  if (isCompleted) {\r... */\n    tag_295:\n        /* \"Topic.sol\":9191:9210  tempTotalInvestment */\n      dup1\n        /* \"Topic.sol\":9163:9188  initialMonetaryInvestment */\n      dup5\n        /* \"Topic.sol\":9139:9160  address(this).balance */\n      selfbalance\n        /* \"Topic.sol\":9139:9188  address(this).balance * initialMonetaryInvestment */\n      mul\n        /* \"Topic.sol\":9139:9210  address(this).balance * initialMonetaryInvestment / tempTotalInvestment */\n      dup2\n      tag_299\n      jumpi\n      invalid\n    tag_299:\n      div\n        /* \"Topic.sol\":9132:9210  return address(this).balance * initialMonetaryInvestment / tempTotalInvestment */\n      swap2\n      pop\n      pop\n        /* \"Topic.sol\":8447:9229  function calculateMonetaryGain(uint initialMonetaryInvestment, bool onTruthSide) public view returns (uint) {\r... */\n    tag_291:\n      swap3\n      swap2\n      pop\n      pop\n      jump\t// out\n        /* \"Topic.sol\":5964:6639  function calculateMajority() internal {\r... */\n    tag_219:\n        /* \"Topic.sol\":6033:6034  0 */\n      0x00\n        /* \"Topic.sol\":6021:6029  majority */\n      sload(0x16)\n        /* \"Topic.sol\":6021:6034  majority == 0 */\n      eq\n        /* \"Topic.sol\":6013:6073  require(majority == 0, 'Majority has already been decided.') */\n      tag_301\n      jumpi\n      mload(0x40)\n      0x08c379a000000000000000000000000000000000000000000000000000000000\n      dup2\n      mstore\n      0x04\n      add\n      dup1\n      dup1\n      0x20\n      add\n      dup3\n      dup2\n      sub\n      dup3\n      mstore\n      0x22\n      dup2\n      mstore\n      0x20\n      add\n      dup1\n      data_b923ef61fa2999a084d0e68c9e9898cf18c32317d3ee24c87dceb47dffcde339\n      0x22\n      swap2\n      codecopy\n      0x40\n      add\n      swap2\n      pop\n      pop\n      mload(0x40)\n      dup1\n      swap2\n      sub\n      swap1\n      revert\n    tag_301:\n        /* \"Topic.sol\":6107:6112  false */\n      0x00\n        /* \"Topic.sol\":6092:6112  isCompleted == false */\n      iszero\n      iszero\n        /* \"Topic.sol\":6092:6103  isCompleted */\n      0x15\n      0x00\n      swap1\n      sload\n      swap1\n      0x0100\n      exp\n      swap1\n      div\n      0xff\n      and\n        /* \"Topic.sol\":6092:6112  isCompleted == false */\n      iszero\n      iszero\n      eq\n        /* \"Topic.sol\":6084:6154  require(isCompleted == false, 'Topic is already marked as completed.') */\n      tag_302\n      jumpi\n      mload(0x40)\n      0x08c379a000000000000000000000000000000000000000000000000000000000\n      dup2\n      mstore\n      0x04\n      add\n      dup1\n      dup1\n      0x20\n      add\n      dup3\n      dup2\n      sub\n      dup3\n      mstore\n      0x25\n      dup2\n      mstore\n      0x20\n      add\n      dup1\n      data_69abe80003e6d0795ace8e04b4282120b32e88a03434cef64287876f072cb77e\n      0x25\n      swap2\n      codecopy\n      0x40\n      add\n      swap2\n      pop\n      pop\n      mload(0x40)\n      dup1\n      swap2\n      sub\n      swap1\n      revert\n    tag_302:\n        /* \"Topic.sol\":6191:6198  endTime */\n      sload(0x06)\n        /* \"Topic.sol\":6173:6188  block.timestamp */\n      timestamp\n        /* \"Topic.sol\":6173:6198  block.timestamp > endTime */\n      gt\n        /* \"Topic.sol\":6165:6267  require(block.timestamp > endTime, 'Majority can only be calculated after the time period has ended.') */\n      tag_303\n      jumpi\n      mload(0x40)\n      0x08c379a000000000000000000000000000000000000000000000000000000000\n      dup2\n      mstore\n      0x04\n      add\n      dup1\n      dup1\n      0x20\n      add\n      dup3\n      dup2\n      sub\n      dup3\n      mstore\n      0x40\n      dup2\n      mstore\n      0x20\n      add\n      dup1\n      data_81338d347818a2fed0620a7e85f685926d9e1bdbc7e2764bf0092067d32f7024\n      0x40\n      swap2\n      codecopy\n      0x40\n      add\n      swap2\n      pop\n      pop\n      mload(0x40)\n      dup1\n      swap2\n      sub\n      swap1\n      revert\n    tag_303:\n        /* \"Topic.sol\":6280:6295  uint truthCount */\n      0x00\n        /* \"Topic.sol\":6298:6313  getTruthCount() */\n      tag_304\n        /* \"Topic.sol\":6298:6311  getTruthCount */\n      tag_84\n        /* \"Topic.sol\":6298:6313  getTruthCount() */\n      jump\t// in\n    tag_304:\n        /* \"Topic.sol\":6280:6313  uint truthCount = getTruthCount() */\n      swap1\n      pop\n        /* \"Topic.sol\":6324:6337  uint lieCount */\n      0x00\n        /* \"Topic.sol\":6340:6353  getLieCount() */\n      tag_305\n        /* \"Topic.sol\":6340:6351  getLieCount */\n      tag_107\n        /* \"Topic.sol\":6340:6353  getLieCount() */\n      jump\t// in\n    tag_305:\n        /* \"Topic.sol\":6324:6353  uint lieCount = getLieCount() */\n      swap1\n      pop\n        /* \"Topic.sol\":6383:6391  lieCount */\n      dup1\n        /* \"Topic.sol\":6370:6380  truthCount */\n      dup3\n        /* \"Topic.sol\":6370:6391  truthCount > lieCount */\n      gt\n        /* \"Topic.sol\":6366:6549  if (truthCount > lieCount) {\r... */\n      iszero\n      tag_306\n      jumpi\n        /* \"Topic.sol\":6419:6420  1 */\n      0x01\n        /* \"Topic.sol\":6408:6416  majority */\n      0x16\n        /* \"Topic.sol\":6408:6420  majority = 1 */\n      dup2\n      swap1\n      sstore\n      pop\n        /* \"Topic.sol\":6366:6549  if (truthCount > lieCount) {\r... */\n      jump(tag_307)\n    tag_306:\n        /* \"Topic.sol\":6455:6463  lieCount */\n      dup1\n        /* \"Topic.sol\":6442:6452  truthCount */\n      dup3\n        /* \"Topic.sol\":6442:6463  truthCount < lieCount */\n      lt\n        /* \"Topic.sol\":6438:6549  if (truthCount < lieCount) {\r... */\n      iszero\n      tag_308\n      jumpi\n        /* \"Topic.sol\":6491:6492  2 */\n      0x02\n        /* \"Topic.sol\":6480:6488  majority */\n      0x16\n        /* \"Topic.sol\":6480:6492  majority = 2 */\n      dup2\n      swap1\n      sstore\n      pop\n        /* \"Topic.sol\":6438:6549  if (truthCount < lieCount) {\r... */\n      jump(tag_309)\n    tag_308:\n        /* \"Topic.sol\":6536:6537  3 */\n      0x03\n        /* \"Topic.sol\":6525:6533  majority */\n      0x16\n        /* \"Topic.sol\":6525:6537  majority = 3 */\n      dup2\n      swap1\n      sstore\n      pop\n        /* \"Topic.sol\":6438:6549  if (truthCount < lieCount) {\r... */\n    tag_309:\n        /* \"Topic.sol\":6366:6549  if (truthCount > lieCount) {\r... */\n    tag_307:\n        /* \"Topic.sol\":6582:6603  address(this).balance */\n      selfbalance\n        /* \"Topic.sol\":6561:6579  finalMonetaryTotal */\n      0x0e\n        /* \"Topic.sol\":6561:6603  finalMonetaryTotal = address(this).balance */\n      dup2\n      swap1\n      sstore\n      pop\n        /* \"Topic.sol\":6614:6631  markAsCompleted() */\n      tag_310\n        /* \"Topic.sol\":6614:6629  markAsCompleted */\n      tag_248\n        /* \"Topic.sol\":6614:6631  markAsCompleted() */\n      jump\t// in\n    tag_310:\n        /* \"Topic.sol\":5964:6639  function calculateMajority() internal {\r... */\n      pop\n      pop\n      jump\t// out\n        /* \"Topic.sol\":6651:6916  function markAsCompleted() internal {\r... */\n    tag_248:\n        /* \"Topic.sol\":6712:6716  true */\n      0x01\n        /* \"Topic.sol\":6698:6709  isCompleted */\n      0x15\n      0x00\n        /* \"Topic.sol\":6698:6716  isCompleted = true */\n      0x0100\n      exp\n      dup2\n      sload\n      dup2\n      0xff\n      mul\n      not\n      and\n      swap1\n      dup4\n      iszero\n      iszero\n      mul\n      or\n      swap1\n      sstore\n      pop\n        /* \"Topic.sol\":6788:6813  TopicFactory topicFactory */\n      0x00\n        /* \"Topic.sol\":6829:6848  topicFactoryAddress */\n      0x02\n      0x00\n      swap1\n      sload\n      swap1\n      0x0100\n      exp\n      swap1\n      div\n      0xffffffffffffffffffffffffffffffffffffffff\n      and\n        /* \"Topic.sol\":6788:6849  TopicFactory topicFactory = TopicFactory(topicFactoryAddress) */\n      swap1\n      pop\n        /* \"Topic.sol\":6860:6872  topicFactory */\n      dup1\n        /* \"Topic.sol\":6860:6893  topicFactory.markTopicAsCompleted */\n      0xffffffffffffffffffffffffffffffffffffffff\n      and\n      0xe25db2a4\n        /* \"Topic.sol\":6902:6906  this */\n      address\n        /* \"Topic.sol\":6860:6908  topicFactory.markTopicAsCompleted(address(this)) */\n      mload(0x40)\n      dup3\n      0xffffffff\n      and\n      0xe0\n      shl\n      dup2\n      mstore\n      0x04\n      add\n      dup1\n      dup3\n      0xffffffffffffffffffffffffffffffffffffffff\n      and\n      0xffffffffffffffffffffffffffffffffffffffff\n      and\n      dup2\n      mstore\n      0x20\n      add\n      swap2\n      pop\n      pop\n      0x00\n      mload(0x40)\n      dup1\n      dup4\n      sub\n      dup2\n      0x00\n      dup8\n      dup1\n      extcodesize\n      iszero\n        /* \"--CODEGEN--\":8:17   */\n      dup1\n        /* \"--CODEGEN--\":5:7   */\n      iszero\n      tag_312\n      jumpi\n        /* \"--CODEGEN--\":30:31   */\n      0x00\n        /* \"--CODEGEN--\":27:28   */\n      dup1\n        /* \"--CODEGEN--\":20:32   */\n      revert\n        /* \"--CODEGEN--\":5:7   */\n    tag_312:\n        /* \"Topic.sol\":6860:6908  topicFactory.markTopicAsCompleted(address(this)) */\n      pop\n      gas\n      call\n      iszero\n        /* \"--CODEGEN--\":8:17   */\n      dup1\n        /* \"--CODEGEN--\":5:7   */\n      iszero\n      tag_313\n      jumpi\n        /* \"--CODEGEN--\":45:61   */\n      returndatasize\n        /* \"--CODEGEN--\":42:43   */\n      0x00\n        /* \"--CODEGEN--\":39:40   */\n      dup1\n        /* \"--CODEGEN--\":24:62   */\n      returndatacopy\n        /* \"--CODEGEN--\":77:93   */\n      returndatasize\n        /* \"--CODEGEN--\":74:75   */\n      0x00\n        /* \"--CODEGEN--\":67:94   */\n      revert\n        /* \"--CODEGEN--\":5:7   */\n    tag_313:\n        /* \"Topic.sol\":6860:6908  topicFactory.markTopicAsCompleted(address(this)) */\n      pop\n      pop\n      pop\n      pop\n        /* \"Topic.sol\":6651:6916  function markAsCompleted() internal {\r... */\n      pop\n      jump\t// out\n        /* \"Topic.sol\":96:12355  contract Topic {\r... */\n    tag_187:\n      mload(0x40)\n      dup1\n      0x80\n      add\n      0x40\n      mstore\n      dup1\n      0x60\n      dup2\n      mstore\n      0x20\n      add\n      iszero(iszero(0x00))\n      dup2\n      mstore\n      0x20\n      add\n      and(0xffffffffffffffffffffffffffffffffffffffff, 0x00)\n      dup2\n      mstore\n      0x20\n      add\n      0x00\n      dup2\n      mstore\n      pop\n      swap1\n      jump\t// out\n    tag_190:\n      dup3\n      dup1\n      sload\n      0x01\n      dup2\n      0x01\n      and\n      iszero\n      0x0100\n      mul\n      sub\n      and\n      0x02\n      swap1\n      div\n      swap1\n      0x00\n      mstore\n      keccak256(0x00, 0x20)\n      swap1\n      0x1f\n      add\n      0x20\n      swap1\n      div\n      dup2\n      add\n      swap3\n      dup3\n      0x1f\n      lt\n      tag_315\n      jumpi\n      dup1\n      mload\n      not(0xff)\n      and\n      dup4\n      dup1\n      add\n      or\n      dup6\n      sstore\n      jump(tag_314)\n    tag_315:\n      dup3\n      dup1\n      add\n      0x01\n      add\n      dup6\n      sstore\n      dup3\n      iszero\n      tag_314\n      jumpi\n      swap2\n      dup3\n      add\n    tag_316:\n      dup3\n      dup2\n      gt\n      iszero\n      tag_317\n      jumpi\n      dup3\n      mload\n      dup3\n      sstore\n      swap2\n      0x20\n      add\n      swap2\n      swap1\n      0x01\n      add\n      swap1\n      jump(tag_316)\n    tag_317:\n    tag_314:\n      pop\n      swap1\n      pop\n      tag_318\n      swap2\n      swap1\n      tag_319\n      jump\t// in\n    tag_318:\n      pop\n      swap1\n      jump\t// out\n    tag_285:\n      dup3\n      dup1\n      sload\n      0x01\n      dup2\n      0x01\n      and\n      iszero\n      0x0100\n      mul\n      sub\n      and\n      0x02\n      swap1\n      div\n      swap1\n      0x00\n      mstore\n      keccak256(0x00, 0x20)\n      swap1\n      0x1f\n      add\n      0x20\n      swap1\n      div\n      dup2\n      add\n      swap3\n      dup3\n      0x1f\n      lt\n      tag_321\n      jumpi\n      dup1\n      mload\n      not(0xff)\n      and\n      dup4\n      dup1\n      add\n      or\n      dup6\n      sstore\n      jump(tag_320)\n    tag_321:\n      dup3\n      dup1\n      add\n      0x01\n      add\n      dup6\n      sstore\n      dup3\n      iszero\n      tag_320\n      jumpi\n      swap2\n      dup3\n      add\n    tag_322:\n      dup3\n      dup2\n      gt\n      iszero\n      tag_323\n      jumpi\n      dup3\n      mload\n      dup3\n      sstore\n      swap2\n      0x20\n      add\n      swap2\n      swap1\n      0x01\n      add\n      swap1\n      jump(tag_322)\n    tag_323:\n    tag_320:\n      pop\n      swap1\n      pop\n      tag_324\n      swap2\n      swap1\n      tag_319\n      jump\t// in\n    tag_324:\n      pop\n      swap1\n      jump\t// out\n    tag_319:\n      tag_325\n      swap2\n      swap1\n    tag_326:\n      dup1\n      dup3\n      gt\n      iszero\n      tag_327\n      jumpi\n      0x00\n      dup2\n      0x00\n      swap1\n      sstore\n      pop\n      0x01\n      add\n      jump(tag_326)\n    tag_327:\n      pop\n      swap1\n      jump\n    tag_325:\n      swap1\n      jump\t// out\n    stop\n    data_1382083f71a022fa6144748d79496d6f05d3bcf3a0f484b323383c5c8edd8d26 596f752063616e206f6e6c7920636c61696d20796f75722072657761726473206166746572207468652074696d6520706572696f642e\n    data_1be1a3b9e30cac1814559605f4ac4b55233032853cb87250e77213ea0088799b 417267756d656e742068617320616c7265616479206265656e20766f746564206f6e2e2043616e6e6f74206265206d6f6469666965642e\n    data_34b98d23d562a1a462a2b6766e2d3e1a49232f6fdafbe1eaa8383a3a59d99a34 596f75206d75737420696e76657374206174206c6561737420746865206d696e696d756d20616d6f756e742061732064656369646564206279207468652063726561746f722e\n    data_462972cdfa3949c714200f01cc0119c34f13d2febb0b716c5c847368d043f42b 596f75206d757374206265207468652063726561746f72206f66207468697320617267756d656e7420746f206d6f646966792069747320636f6e74656e7473\n    data_487936df645dd8c7181d68f73972966a3a06b5ee3756057942e5a7608d64edfe 546865206d6f6e657920676f657320746f207468652070656f706c652077686f2070617274696369706174656420696e207468652070726f636573732e\n    data_69abe80003e6d0795ace8e04b4282120b32e88a03434cef64287876f072cb77e 546f70696320697320616c7265616479206d61726b656420617320636f6d706c657465642e\n    data_81338d347818a2fed0620a7e85f685926d9e1bdbc7e2764bf0092067d32f7024 4d616a6f726974792063616e206f6e6c792062652063616c63756c61746564206166746572207468652074696d6520706572696f642068617320656e6465642e\n    data_8912f675a50e382e9fd7b592cf1cd9595235c43ce4309904b1bd35e2a18fc4ee 596f75206861766520616c7265616479206372656174656420616e20617267756d656e742e\n    data_8e90808f17bc1108e9ea5a79970bcefb81f12d2e44e112b3ad4b251ae0873244 596f75206d757374206265207468652063726561746f72206f66207468697320546f70696320696e206f7264657220746f20646f20746869732e\n    data_9f7f122b70f117f8950311c325d9279ba88d6a0d2b593ed4f11b7663b9f48d07 54686520706572696f6420666f722074686520546f7069632068617320616c726561647920656e6465642e\n    data_a10f947ba0aa3fe256eaedc5073a534f9ad99f6544d43c3b41c41d275abbd6fe 596f7520646964206e6f7420766f746520647572696e672074686520706572696f64206f722074686520706572696f64206973206e6f74206f7665722e\n    data_a51d6c7e63ccd193933dbe11cb306fe5ec831a64f09f21fc7409bad4b2e4d83d 596f752063616e6e6f7420766f746520666f722074686520617267756d656e742067656e6572617465642062792074686520636f6e74726163742e\n    data_b923ef61fa2999a084d0e68c9e9898cf18c32317d3ee24c87dceb47dffcde339 4d616a6f726974792068617320616c7265616479206265656e20646563696465642e\n    data_cce99a9599a6abdd22376ab7035884d1e392d41c83e7fcfff1492424abef7dca 596f7520646f6e27742068617665207468697320746f706963206f6e20796f757220617661696c61626c65206c697374206f7220796f75206861766520616c726561647920766f7465642e\n\n    auxdata: 0xa265627a7a72315820822212e7210aded46f6d15d91b4c204b19fd8ef97a0232dd1c97893d81aadcda64736f6c63430005100032\n}\n","bytecode":{"linkReferences":{},"object":"60806040523480156200001157600080fd5b506040516200330c3803806200330c833981810160405260e08110156200003757600080fd5b81019080805190602001909291908051906020019092919080519060200190929190805160405193929190846401000000008211156200007657600080fd5b838201915060208201858111156200008d57600080fd5b8251866001820283011164010000000082111715620000ab57600080fd5b8083526020830192505050908051906020019080838360005b83811015620000e1578082015181840152602081019050620000c4565b50505050905090810190601f1680156200010f5780820380516001836020036101000a031916815260200191505b5060405260200180519060200190929190805190602001909291908051906020019092919050505086600260006101000a81548173ffffffffffffffffffffffffffffffffffffffff021916908373ffffffffffffffffffffffffffffffffffffffff160217905550856000806101000a81548173ffffffffffffffffffffffffffffffffffffffff021916908373ffffffffffffffffffffffffffffffffffffffff16021790555084600160006101000a81548173ffffffffffffffffffffffffffffffffffffffff021916908373ffffffffffffffffffffffffffffffffffffffff16021790555083600390805190602001906200021192919062000514565b508260058190555080600460006101000a81548173ffffffffffffffffffffffffffffffffffffffff021916908373ffffffffffffffffffffffffffffffffffffffff16021790555060006016819055506001820242016006819055506000600e81905550620002a26040518060600160405280603e8152602001620032ce603e91396000620002af60201b60201c565b505050505050506200068a565b60065442106200030b576040517f08c379a000000000000000000000000000000000000000000000000000000000815260040180806020018281038252602b815260200180620032a3602b913960400191505060405180910390fd5b6000601360003373ffffffffffffffffffffffffffffffffffffffff1673ffffffffffffffffffffffffffffffffffffffff1681526020019081526020016000205414620003a5576040517f08c379a00000000000000000000000000000000000000000000000000000000081526004018080602001828103825260258152602001806200327e6025913960400191505060405180910390fd5b620003af6200059b565b604051806080016040528084815260200183151581526020013373ffffffffffffffffffffffffffffffffffffffff1681526020016000815250905060078190806001815401808255809150509060018203906000526020600020906003020160009091929091909150600082015181600001908051906020019062000437929190620005db565b5060208201518160010160006101000a81548160ff02191690831515021790555060408201518160010160016101000a81548173ffffffffffffffffffffffffffffffffffffffff021916908373ffffffffffffffffffffffffffffffffffffffff160217905550606082015181600201555050506001620004be6200050760201b60201c565b03601360003373ffffffffffffffffffffffffffffffffffffffff1673ffffffffffffffffffffffffffffffffffffffff16815260200190815260200160002081905550505050565b6000600780549050905090565b828054600181600116156101000203166002900490600052602060002090601f016020900481019282601f106200055757805160ff191683800117855562000588565b8280016001018555821562000588579182015b82811115620005875782518255916020019190600101906200056a565b5b50905062000597919062000662565b5090565b604051806080016040528060608152602001600015158152602001600073ffffffffffffffffffffffffffffffffffffffff168152602001600081525090565b828054600181600116156101000203166002900490600052602060002090601f016020900481019282601f106200061e57805160ff19168380011785556200064f565b828001600101855582156200064f579182015b828111156200064e57825182559160200191906001019062000631565b5b5090506200065e919062000662565b5090565b6200068791905b808211156200068357600081600090555060010162000669565b5090565b90565b612be4806200069a6000396000f3fe60806040526004361061020f5760003560e01c80638a4d5a6711610118578063d04ae69d116100a0578063f9588ed91161006f578063f9588ed914610c3a578063fa391c6414610c65578063fbba5cb914610c94578063fbbf93a014610cbf578063fda9198b14610d685761020f565b8063d04ae69d14610a8b578063e5d0003514610ab6578063e72b014814610b31578063f7ca7c7214610b5c5761020f565b8063b6e54bdf116100e7578063b6e54bdf146108f8578063c234d78914610923578063c50eb9841461094e578063c884ef83146109bd578063ca94fb2b14610a265761020f565b80638a4d5a67146107b45780639380b1cf14610844578063aec2ccae1461085b578063b384abef146108c05761020f565b80633197cbb61161019b5780634e71d92d1161016a5780634e71d92d146106e95780636dc7a627146107005780636e3ebc2e1461072f57806374986bfc1461075a57806385730fa1146107895761020f565b80633197cbb6146105c55780633e50b331146105f05780633ff894ad1461065957806344fe9432146106845761020f565b80630a68f631116101e25780630a68f6311461041c578063159e7064146105155780631c7cd6ac146105445780632b925b251461056f5780632ec32e6d1461059a5761020f565b806302d05d3f146102115780630715ef001461026857806309c7caf11461033c57806309f74db7146103a1575b005b34801561021d57600080fd5b50610226610dc3565b604051808273ffffffffffffffffffffffffffffffffffffffff1673ffffffffffffffffffffffffffffffffffffffff16815260200191505060405180910390f35b34801561027457600080fd5b5061033a6004803603604081101561028b57600080fd5b81019080803590602001906401000000008111156102a857600080fd5b8201836020820111156102ba57600080fd5b803590602001918460018302840111640100000000831117156102dc57600080fd5b91908080601f016020809104026020016040519081016040528093929190818152602001838380828437600081840152601f19601f820116905080830192505050505050509192919290803515159060200190929190505050610de9565b005b34801561034857600080fd5b5061038b6004803603602081101561035f57600080fd5b81019080803573ffffffffffffffffffffffffffffffffffffffff169060200190929190505050611031565b6040518082815260200191505060405180910390f35b3480156103ad57600080fd5b506103da600480360360208110156103c457600080fd5b8101908080359060200190929190505050611049565b604051808273ffffffffffffffffffffffffffffffffffffffff1673ffffffffffffffffffffffffffffffffffffffff16815260200191505060405180910390f35b34801561042857600080fd5b506104556004803603602081101561043f57600080fd5b8101908080359060200190929190505050611085565b6040518080602001851515151581526020018473ffffffffffffffffffffffffffffffffffffffff1673ffffffffffffffffffffffffffffffffffffffff168152602001838152602001828103825286818151815260200191508051906020019080838360005b838110156104d75780820151818401526020810190506104bc565b50505050905090810190601f1680156105045780820380516001836020036101000a031916815260200191505b509550505050505060405180910390f35b34801561052157600080fd5b5061052a611187565b604051808215151515815260200191505060405180910390f35b34801561055057600080fd5b506105596112ec565b6040518082815260200191505060405180910390f35b34801561057b57600080fd5b506105846112f2565b6040518082815260200191505060405180910390f35b3480156105a657600080fd5b506105af6112f8565b6040518082815260200191505060405180910390f35b3480156105d157600080fd5b506105da611305565b6040518082815260200191505060405180910390f35b3480156105fc57600080fd5b5061063f6004803603602081101561061357600080fd5b81019080803573ffffffffffffffffffffffffffffffffffffffff16906020019092919050505061130b565b604051808215151515815260200191505060405180910390f35b34801561066557600080fd5b5061066e6113c7565b6040518082815260200191505060405180910390f35b34801561069057600080fd5b506106d3600480360360208110156106a757600080fd5b81019080803573ffffffffffffffffffffffffffffffffffffffff1690602001909291905050506113cd565b6040518082815260200191505060405180910390f35b3480156106f557600080fd5b506106fe6113e5565b005b34801561070c57600080fd5b50610715611816565b604051808215151515815260200191505060405180910390f35b34801561073b57600080fd5b506107446118c9565b6040518082815260200191505060405180910390f35b34801561076657600080fd5b5061076f6118d6565b604051808215151515815260200191505060405180910390f35b34801561079557600080fd5b5061079e6118df565b6040518082815260200191505060405180910390f35b3480156107c057600080fd5b506107c96118e5565b6040518080602001828103825283818151815260200191508051906020019080838360005b838110156108095780820151818401526020810190506107ee565b50505050905090810190601f1680156108365780820380516001836020036101000a031916815260200191505b509250505060405180910390f35b34801561085057600080fd5b50610859611983565b005b34801561086757600080fd5b506108aa6004803603602081101561087e57600080fd5b81019080803573ffffffffffffffffffffffffffffffffffffffff169060200190929190505050611b95565b6040518082815260200191505060405180910390f35b6108f6600480360360408110156108d657600080fd5b810190808035906020019092919080359060200190929190505050611bad565b005b34801561090457600080fd5b5061090d6120e8565b6040518082815260200191505060405180910390f35b34801561092f57600080fd5b506109386120ee565b6040518082815260200191505060405180910390f35b34801561095a57600080fd5b506109a76004803603604081101561097157600080fd5b8101908080359060200190929190803573ffffffffffffffffffffffffffffffffffffffff1690602001909291905050506120fb565b6040518082815260200191505060405180910390f35b3480156109c957600080fd5b50610a0c600480360360208110156109e057600080fd5b81019080803573ffffffffffffffffffffffffffffffffffffffff169060200190929190505050612137565b604051808215151515815260200191505060405180910390f35b348015610a3257600080fd5b50610a7560048036036020811015610a4957600080fd5b81019080803573ffffffffffffffffffffffffffffffffffffffff169060200190929190505050612157565b6040518082815260200191505060405180910390f35b348015610a9757600080fd5b50610aa061216f565b6040518082815260200191505060405180910390f35b348015610ac257600080fd5b50610aef60048036036020811015610ad957600080fd5b8101908080359060200190929190505050612175565b604051808273ffffffffffffffffffffffffffffffffffffffff1673ffffffffffffffffffffffffffffffffffffffff16815260200191505060405180910390f35b348015610b3d57600080fd5b50610b466121b1565b6040518082815260200191505060405180910390f35b348015610b6857600080fd5b50610c3860048036036060811015610b7f57600080fd5b810190808035906020019092919080359060200190640100000000811115610ba657600080fd5b820183602082011115610bb857600080fd5b80359060200191846001830284011164010000000083111715610bda57600080fd5b91908080601f016020809104026020016040519081016040528093929190818152602001838380828437600081840152601f19601f8201169050808301925050505050505091929192908035151590602001909291905050506121b7565b005b348015610c4657600080fd5b50610c4f612370565b6040518082815260200191505060405180910390f35b348015610c7157600080fd5b50610c7a612378565b604051808215151515815260200191505060405180910390f35b348015610ca057600080fd5b50610ca961238b565b6040518082815260200191505060405180910390f35b348015610ccb57600080fd5b50610cd4612391565b604051808c73ffffffffffffffffffffffffffffffffffffffff1673ffffffffffffffffffffffffffffffffffffffff1681526020018b81526020018a81526020018915151515815260200188151515158152602001871515151581526020018681526020018581526020018481526020018381526020018281526020019b50505050505050505050505060405180910390f35b348015610d7457600080fd5b50610dad60048036036040811015610d8b57600080fd5b810190808035906020019092919080351515906020019092919050505061246a565b6040518082815260200191505060405180910390f35b600460009054906101000a900473ffffffffffffffffffffffffffffffffffffffff1681565b6006544210610e43576040517f08c379a000000000000000000000000000000000000000000000000000000000815260040180806020018281038252602b815260200180612aa0602b913960400191505060405180910390fd5b6000601360003373ffffffffffffffffffffffffffffffffffffffff1673ffffffffffffffffffffffffffffffffffffffff1681526020019081526020016000205414610edb576040517f08c379a0000000000000000000000000000000000000000000000000000000008152600401808060200182810382526025815260200180612a416025913960400191505060405180910390fd5b610ee3612747565b604051806080016040528084815260200183151581526020013373ffffffffffffffffffffffffffffffffffffffff16815260200160008152509050600781908060018154018082558091505090600182039060005260206000209060030201600090919290919091506000820151816000019080519060200190610f69929190612787565b5060208201518160010160006101000a81548160ff02191690831515021790555060408201518160010160016101000a81548173ffffffffffffffffffffffffffffffffffffffff021916908373ffffffffffffffffffffffffffffffffffffffff160217905550606082015181600201555050506001610fe86120ee565b03601360003373ffffffffffffffffffffffffffffffffffffffff1673ffffffffffffffffffffffffffffffffffffffff16815260200190815260200160002081905550505050565b600b6020528060005260406000206000915090505481565b600a818154811061105657fe5b906000526020600020016000915054906101000a900473ffffffffffffffffffffffffffffffffffffffff1681565b6007818154811061109257fe5b9060005260206000209060030201600091509050806000018054600181600116156101000203166002900480601f01602080910402602001604051908101604052809291908181526020018280546001816001161561010002031660029004801561113e5780601f106111135761010080835404028352916020019161113e565b820191906000526020600020905b81548152906001019060200180831161112157829003601f168201915b5050505050908060010160009054906101000a900460ff16908060010160019054906101000a900473ffffffffffffffffffffffffffffffffffffffff16908060020154905084565b600080600160009054906101000a900473ffffffffffffffffffffffffffffffffffffffff1690506000600860003373ffffffffffffffffffffffffffffffffffffffff1673ffffffffffffffffffffffffffffffffffffffff168152602001908152602001600020541480156112e657508073ffffffffffffffffffffffffffffffffffffffff1663902701b733306040518363ffffffff1660e01b8152600401808373ffffffffffffffffffffffffffffffffffffffff1673ffffffffffffffffffffffffffffffffffffffff1681526020018273ffffffffffffffffffffffffffffffffffffffff1673ffffffffffffffffffffffffffffffffffffffff1681526020019250505060206040518083038186803b1580156112aa57600080fd5b505afa1580156112be573d6000803e3d6000fd5b505050506040513d60208110156112d457600080fd5b81019080805190602001909291905050505b91505090565b60105481565b60055481565b6000600980549050905090565b60065481565b6000806007600860008573ffffffffffffffffffffffffffffffffffffffff1673ffffffffffffffffffffffffffffffffffffffff168152602001908152602001600020548154811061135a57fe5b90600052602060002090600302019050600160165414801561138a57508060010160009054906101000a900460ff165b806113b2575060026016541480156113b157508060010160009054906101000a900460ff16155b5b806113bf57506003601654145b915050919050565b600d5481565b60136020528060005260406000206000915090505481565b6113ed611816565b611442576040517f08c379a000000000000000000000000000000000000000000000000000000000815260040180806020018281038252603d815260200180612acb603d913960400191505060405180910390fd5b6000600860003373ffffffffffffffffffffffffffffffffffffffff1673ffffffffffffffffffffffffffffffffffffffff16815260200190815260200160002054905060006007828154811061149557fe5b90600052602060002090600302019050600060165414156114b9576114b86124eb565b5b6114c23361130b565b156115f6573373ffffffffffffffffffffffffffffffffffffffff166108fc3073ffffffffffffffffffffffffffffffffffffffff1663fda9198b600b60003373ffffffffffffffffffffffffffffffffffffffff1673ffffffffffffffffffffffffffffffffffffffff168152602001908152602001600020548560010160009054906101000a900460ff166040518363ffffffff1660e01b815260040180838152602001821515151581526020019250505060206040518083038186803b15801561158e57600080fd5b505afa1580156115a2573d6000803e3d6000fd5b505050506040513d60208110156115b857600080fd5b81019080805190602001909291905050509081150290604051600060405180830381858888f193505050501580156115f4573d6000803e3d6000fd5b505b60008060009054906101000a900473ffffffffffffffffffffffffffffffffffffffff1690508073ffffffffffffffffffffffffffffffffffffffff16635f2ab5673073ffffffffffffffffffffffffffffffffffffffff1663c50eb984600f60003373ffffffffffffffffffffffffffffffffffffffff1673ffffffffffffffffffffffffffffffffffffffff16815260200190815260200160002054336040518363ffffffff1660e01b8152600401808381526020018273ffffffffffffffffffffffffffffffffffffffff1673ffffffffffffffffffffffffffffffffffffffff1681526020019250505060206040518083038186803b1580156116fc57600080fd5b505afa158015611710573d6000803e3d6000fd5b505050506040513d602081101561172657600080fd5b8101908080519060200190929190505050336040518363ffffffff1660e01b8152600401808381526020018273ffffffffffffffffffffffffffffffffffffffff1673ffffffffffffffffffffffffffffffffffffffff16815260200192505050600060405180830381600087803b1580156117a157600080fd5b505af11580156117b5573d6000803e3d6000fd5b505050506001601460003373ffffffffffffffffffffffffffffffffffffffff1673ffffffffffffffffffffffffffffffffffffffff16815260200190815260200160002060006101000a81548160ff021916908315150217905550505050565b600080600860003373ffffffffffffffffffffffffffffffffffffffff1673ffffffffffffffffffffffffffffffffffffffff1681526020019081526020016000205490506006544211801561186d575060008114155b80156118c35750601460003373ffffffffffffffffffffffffffffffffffffffff1673ffffffffffffffffffffffffffffffffffffffff16815260200190815260200160002060009054906101000a900460ff16155b91505090565b6000600a80549050905090565b60006001905090565b600c5481565b60038054600181600116156101000203166002900480601f01602080910402602001604051908101604052809291908181526020018280546001816001161561010002031660029004801561197b5780601f106119505761010080835404028352916020019161197b565b820191906000526020600020905b81548152906001019060200180831161195e57829003601f168201915b505050505081565b600460009054906101000a900473ffffffffffffffffffffffffffffffffffffffff1673ffffffffffffffffffffffffffffffffffffffff163373ffffffffffffffffffffffffffffffffffffffff1614611a29576040517f08c379a000000000000000000000000000000000000000000000000000000000815260040180806020018281038252603a815260200180612a66603a913960400191505060405180910390fd5b6000611a336118c9565b611a3b6112f8565b0114611a92576040517f08c379a000000000000000000000000000000000000000000000000000000000815260040180806020018281038252603d81526020018061299f603d913960400191505060405180910390fd5b6006544211611aec576040517f08c379a00000000000000000000000000000000000000000000000000000000081526004018080602001828103825260368152602001806128ad6036913960400191505060405180910390fd5b3373ffffffffffffffffffffffffffffffffffffffff166108fc479081150290604051600060405180830381858888f19350505050158015611b32573d6000803e3d6000fd5b50611b3b61266b565b6001601460003373ffffffffffffffffffffffffffffffffffffffff1673ffffffffffffffffffffffffffffffffffffffff16815260200190815260200160002060006101000a81548160ff021916908315150217905550565b60086020528060005260406000206000915090505481565b6006544210611c07576040517f08c379a000000000000000000000000000000000000000000000000000000000815260040180806020018281038252602b815260200180612aa0602b913960400191505060405180910390fd5b6000821415611c61576040517f08c379a000000000000000000000000000000000000000000000000000000000815260040180806020018281038252603b815260200180612b08603b913960400191505060405180910390fd5b600554341015611cbc576040517f08c379a000000000000000000000000000000000000000000000000000000000815260040180806020018281038252604681526020018061291a6046913960600191505060405180910390fd5b611cc4611187565b611d19576040517f08c379a000000000000000000000000000000000000000000000000000000000815260040180806020018281038252604b815260200180612b65604b913960600191505060405180910390fd5b600060646002340281611d2857fe5b049050600081340390506000600460009054906101000a900473ffffffffffffffffffffffffffffffffffffffff1690508073ffffffffffffffffffffffffffffffffffffffff166108fc849081150290604051600060405180830381858888f19350505050158015611d9f573d6000803e3d6000fd5b506000809054906101000a900473ffffffffffffffffffffffffffffffffffffffff1673ffffffffffffffffffffffffffffffffffffffff166337c103893086336040518463ffffffff1660e01b8152600401808473ffffffffffffffffffffffffffffffffffffffff1673ffffffffffffffffffffffffffffffffffffffff1681526020018381526020018273ffffffffffffffffffffffffffffffffffffffff1673ffffffffffffffffffffffffffffffffffffffff1681526020019350505050600060405180830381600087803b158015611e7c57600080fd5b505af1158015611e90573d6000803e3d6000fd5b5050505084600860003373ffffffffffffffffffffffffffffffffffffffff1673ffffffffffffffffffffffffffffffffffffffff1681526020019081526020016000208190555081600b60003373ffffffffffffffffffffffffffffffffffffffff1673ffffffffffffffffffffffffffffffffffffffff1681526020019081526020016000208190555083600f60003373ffffffffffffffffffffffffffffffffffffffff1673ffffffffffffffffffffffffffffffffffffffff168152602001908152602001600020819055508360126000828254019250508190555060078581548110611f7d57fe5b90600052602060002090600302016002016000815480929190600101919050555060078581548110611fab57fe5b906000526020600020906003020160010160009054906101000a900460ff161561205a5760093390806001815401808255809150509060018203906000526020600020016000909192909190916101000a81548173ffffffffffffffffffffffffffffffffffffffff021916908373ffffffffffffffffffffffffffffffffffffffff160217905550508360106000828254019250508190555081600c600082825401925050819055506120e1565b600a3390806001815401808255809150509060018203906000526020600020016000909192909190916101000a81548173ffffffffffffffffffffffffffffffffffffffff021916908373ffffffffffffffffffffffffffffffffffffffff160217905550508360116000828254019250508190555081600d600082825401925050819055505b5050505050565b60165481565b6000600780549050905090565b60006121068261130b565b1561212057600a600b84028161211857fe5b049050612131565b600a600884028161212d57fe5b0490505b92915050565b60146020528060005260406000206000915054906101000a900460ff1681565b600f6020528060005260406000206000915090505481565b60115481565b6009818154811061218257fe5b906000526020600020016000915054906101000a900473ffffffffffffffffffffffffffffffffffffffff1681565b60125481565b6006544210612211576040517f08c379a000000000000000000000000000000000000000000000000000000000815260040180806020018281038252602b815260200180612aa0602b913960400191505060405180910390fd5b60006007848154811061222057fe5b906000526020600020906003020190503373ffffffffffffffffffffffffffffffffffffffff168160010160019054906101000a900473ffffffffffffffffffffffffffffffffffffffff1673ffffffffffffffffffffffffffffffffffffffff16146122d8576040517f08c379a000000000000000000000000000000000000000000000000000000000815260040180806020018281038252603f815260200180612960603f913960400191505060405180910390fd5b6000816002015414612335576040517f08c379a00000000000000000000000000000000000000000000000000000000081526004018080602001828103825260378152602001806128e36037913960400191505060405180910390fd5b8281600001908051906020019061234d929190612807565b50818160010160006101000a81548160ff02191690831515021790555050505050565b600047905090565b601560009054906101000a900460ff1681565b600e5481565b6000806000806000806000806000806000600460009054906101000a900473ffffffffffffffffffffffffffffffffffffffff16600554600654601560009054906101000a900460ff166123e3611816565b601460003373ffffffffffffffffffffffffffffffffffffffff1673ffffffffffffffffffffffffffffffffffffffff16815260200190815260200160002060009054906101000a900460ff16476124396112f8565b6124416118c9565b6010546011549a509a509a509a509a509a509a509a509a509a509a50909192939495969798999a565b600080821561247d57600c549050612483565b600d5490505b600081116124955760009150506124e5565b601560009054906101000a900460ff16156124d557600360165414156124bf57600d54600c540190505b8084600e5402816124cc57fe5b049150506124e5565b80844702816124e057fe5b049150505b92915050565b600060165414612546576040517f08c379a0000000000000000000000000000000000000000000000000000000008152600401808060200182810382526022815260200180612b436022913960400191505060405180910390fd5b60001515601560009054906101000a900460ff161515146125b2576040517f08c379a00000000000000000000000000000000000000000000000000000000081526004018080602001828103825260258152602001806129dc6025913960400191505060405180910390fd5b600654421161260c576040517f08c379a0000000000000000000000000000000000000000000000000000000008152600401808060200182810382526040815260200180612a016040913960400191505060405180910390fd5b60006126166112f8565b905060006126226118c9565b905080821115612639576001601681905550612658565b8082101561264e576002601681905550612657565b60036016819055505b5b47600e8190555061266761266b565b5050565b6001601560006101000a81548160ff0219169083151502179055506000600260009054906101000a900473ffffffffffffffffffffffffffffffffffffffff1690508073ffffffffffffffffffffffffffffffffffffffff1663e25db2a4306040518263ffffffff1660e01b8152600401808273ffffffffffffffffffffffffffffffffffffffff1673ffffffffffffffffffffffffffffffffffffffff168152602001915050600060405180830381600087803b15801561272c57600080fd5b505af1158015612740573d6000803e3d6000fd5b5050505050565b604051806080016040528060608152602001600015158152602001600073ffffffffffffffffffffffffffffffffffffffff168152602001600081525090565b828054600181600116156101000203166002900490600052602060002090601f016020900481019282601f106127c857805160ff19168380011785556127f6565b828001600101855582156127f6579182015b828111156127f55782518255916020019190600101906127da565b5b5090506128039190612887565b5090565b828054600181600116156101000203166002900490600052602060002090601f016020900481019282601f1061284857805160ff1916838001178555612876565b82800160010185558215612876579182015b8281111561287557825182559160200191906001019061285a565b5b5090506128839190612887565b5090565b6128a991905b808211156128a557600081600090555060010161288d565b5090565b9056fe596f752063616e206f6e6c7920636c61696d20796f75722072657761726473206166746572207468652074696d6520706572696f642e417267756d656e742068617320616c7265616479206265656e20766f746564206f6e2e2043616e6e6f74206265206d6f6469666965642e596f75206d75737420696e76657374206174206c6561737420746865206d696e696d756d20616d6f756e742061732064656369646564206279207468652063726561746f722e596f75206d757374206265207468652063726561746f72206f66207468697320617267756d656e7420746f206d6f646966792069747320636f6e74656e7473546865206d6f6e657920676f657320746f207468652070656f706c652077686f2070617274696369706174656420696e207468652070726f636573732e546f70696320697320616c7265616479206d61726b656420617320636f6d706c657465642e4d616a6f726974792063616e206f6e6c792062652063616c63756c61746564206166746572207468652074696d6520706572696f642068617320656e6465642e596f75206861766520616c7265616479206372656174656420616e20617267756d656e742e596f75206d757374206265207468652063726561746f72206f66207468697320546f70696320696e206f7264657220746f20646f20746869732e54686520706572696f6420666f722074686520546f7069632068617320616c726561647920656e6465642e596f7520646964206e6f7420766f746520647572696e672074686520706572696f64206f722074686520706572696f64206973206e6f74206f7665722e596f752063616e6e6f7420766f746520666f722074686520617267756d656e742067656e6572617465642062792074686520636f6e74726163742e4d616a6f726974792068617320616c7265616479206265656e20646563696465642e596f7520646f6e27742068617665207468697320746f706963206f6e20796f757220617661696c61626c65206c697374206f7220796f75206861766520616c726561647920766f7465642ea265627a7a72315820822212e7210aded46f6d15d91b4c204b19fd8ef97a0232dd1c97893d81aadcda64736f6c63430005100032596f75206861766520616c7265616479206372656174656420616e20617267756d656e742e54686520706572696f6420666f722074686520546f7069632068617320616c726561647920656e6465642e596f752068617665206e6f742063686f73656e207965742077686574686572207468652073746174656d656e742069732074727565206f722066616c7365","opcodes":"PUSH1 0x80 PUSH1 0x40 MSTORE CALLVALUE DUP1 ISZERO PUSH3 0x11 JUMPI PUSH1 0x0 DUP1 REVERT JUMPDEST POP PUSH1 0x40 MLOAD PUSH3 0x330C CODESIZE SUB DUP1 PUSH3 0x330C DUP4 CODECOPY DUP2 DUP2 ADD PUSH1 0x40 MSTORE PUSH1 0xE0 DUP2 LT ISZERO PUSH3 0x37 JUMPI PUSH1 0x0 DUP1 REVERT JUMPDEST DUP2 ADD SWAP1 DUP1 DUP1 MLOAD SWAP1 PUSH1 0x20 ADD SWAP1 SWAP3 SWAP2 SWAP1 DUP1 MLOAD SWAP1 PUSH1 0x20 ADD SWAP1 SWAP3 SWAP2 SWAP1 DUP1 MLOAD SWAP1 PUSH1 0x20 ADD SWAP1 SWAP3 SWAP2 SWAP1 DUP1 MLOAD PUSH1 0x40 MLOAD SWAP4 SWAP3 SWAP2 SWAP1 DUP5 PUSH5 0x100000000 DUP3 GT ISZERO PUSH3 0x76 JUMPI PUSH1 0x0 DUP1 REVERT JUMPDEST DUP4 DUP3 ADD SWAP2 POP PUSH1 0x20 DUP3 ADD DUP6 DUP2 GT ISZERO PUSH3 0x8D JUMPI PUSH1 0x0 DUP1 REVERT JUMPDEST DUP3 MLOAD DUP7 PUSH1 0x1 DUP3 MUL DUP4 ADD GT PUSH5 0x100000000 DUP3 GT OR ISZERO PUSH3 0xAB JUMPI PUSH1 0x0 DUP1 REVERT JUMPDEST DUP1 DUP4 MSTORE PUSH1 0x20 DUP4 ADD SWAP3 POP POP POP SWAP1 DUP1 MLOAD SWAP1 PUSH1 0x20 ADD SWAP1 DUP1 DUP4 DUP4 PUSH1 0x0 JUMPDEST DUP4 DUP2 LT ISZERO PUSH3 0xE1 JUMPI DUP1 DUP3 ADD MLOAD DUP2 DUP5 ADD MSTORE PUSH1 0x20 DUP2 ADD SWAP1 POP PUSH3 0xC4 JUMP JUMPDEST POP POP POP POP SWAP1 POP SWAP1 DUP2 ADD SWAP1 PUSH1 0x1F AND DUP1 ISZERO PUSH3 0x10F JUMPI DUP1 DUP3 SUB DUP1 MLOAD PUSH1 0x1 DUP4 PUSH1 0x20 SUB PUSH2 0x100 EXP SUB NOT AND DUP2 MSTORE PUSH1 0x20 ADD SWAP2 POP JUMPDEST POP PUSH1 0x40 MSTORE PUSH1 0x20 ADD DUP1 MLOAD SWAP1 PUSH1 0x20 ADD SWAP1 SWAP3 SWAP2 SWAP1 DUP1 MLOAD SWAP1 PUSH1 0x20 ADD SWAP1 SWAP3 SWAP2 SWAP1 DUP1 MLOAD SWAP1 PUSH1 0x20 ADD SWAP1 SWAP3 SWAP2 SWAP1 POP POP POP DUP7 PUSH1 0x2 PUSH1 0x0 PUSH2 0x100 EXP DUP2 SLOAD DUP2 PUSH20 0xFFFFFFFFFFFFFFFFFFFFFFFFFFFFFFFFFFFFFFFF MUL NOT AND SWAP1 DUP4 PUSH20 0xFFFFFFFFFFFFFFFFFFFFFFFFFFFFFFFFFFFFFFFF AND MUL OR SWAP1 SSTORE POP DUP6 PUSH1 0x0 DUP1 PUSH2 0x100 EXP DUP2 SLOAD DUP2 PUSH20 0xFFFFFFFFFFFFFFFFFFFFFFFFFFFFFFFFFFFFFFFF MUL NOT AND SWAP1 DUP4 PUSH20 0xFFFFFFFFFFFFFFFFFFFFFFFFFFFFFFFFFFFFFFFF AND MUL OR SWAP1 SSTORE POP DUP5 PUSH1 0x1 PUSH1 0x0 PUSH2 0x100 EXP DUP2 SLOAD DUP2 PUSH20 0xFFFFFFFFFFFFFFFFFFFFFFFFFFFFFFFFFFFFFFFF MUL NOT AND SWAP1 DUP4 PUSH20 0xFFFFFFFFFFFFFFFFFFFFFFFFFFFFFFFFFFFFFFFF AND MUL OR SWAP1 SSTORE POP DUP4 PUSH1 0x3 SWAP1 DUP1 MLOAD SWAP1 PUSH1 0x20 ADD SWAP1 PUSH3 0x211 SWAP3 SWAP2 SWAP1 PUSH3 0x514 JUMP JUMPDEST POP DUP3 PUSH1 0x5 DUP2 SWAP1 SSTORE POP DUP1 PUSH1 0x4 PUSH1 0x0 PUSH2 0x100 EXP DUP2 SLOAD DUP2 PUSH20 0xFFFFFFFFFFFFFFFFFFFFFFFFFFFFFFFFFFFFFFFF MUL NOT AND SWAP1 DUP4 PUSH20 0xFFFFFFFFFFFFFFFFFFFFFFFFFFFFFFFFFFFFFFFF AND MUL OR SWAP1 SSTORE POP PUSH1 0x0 PUSH1 0x16 DUP2 SWAP1 SSTORE POP PUSH1 0x1 DUP3 MUL TIMESTAMP ADD PUSH1 0x6 DUP2 SWAP1 SSTORE POP PUSH1 0x0 PUSH1 0xE DUP2 SWAP1 SSTORE POP PUSH3 0x2A2 PUSH1 0x40 MLOAD DUP1 PUSH1 0x60 ADD PUSH1 0x40 MSTORE DUP1 PUSH1 0x3E DUP2 MSTORE PUSH1 0x20 ADD PUSH3 0x32CE PUSH1 0x3E SWAP2 CODECOPY PUSH1 0x0 PUSH3 0x2AF PUSH1 0x20 SHL PUSH1 0x20 SHR JUMP JUMPDEST POP POP POP POP POP POP POP PUSH3 0x68A JUMP JUMPDEST PUSH1 0x6 SLOAD TIMESTAMP LT PUSH3 0x30B JUMPI PUSH1 0x40 MLOAD PUSH32 0x8C379A000000000000000000000000000000000000000000000000000000000 DUP2 MSTORE PUSH1 0x4 ADD DUP1 DUP1 PUSH1 0x20 ADD DUP3 DUP2 SUB DUP3 MSTORE PUSH1 0x2B DUP2 MSTORE PUSH1 0x20 ADD DUP1 PUSH3 0x32A3 PUSH1 0x2B SWAP2 CODECOPY PUSH1 0x40 ADD SWAP2 POP POP PUSH1 0x40 MLOAD DUP1 SWAP2 SUB SWAP1 REVERT JUMPDEST PUSH1 0x0 PUSH1 0x13 PUSH1 0x0 CALLER PUSH20 0xFFFFFFFFFFFFFFFFFFFFFFFFFFFFFFFFFFFFFFFF AND PUSH20 0xFFFFFFFFFFFFFFFFFFFFFFFFFFFFFFFFFFFFFFFF AND DUP2 MSTORE PUSH1 0x20 ADD SWAP1 DUP2 MSTORE PUSH1 0x20 ADD PUSH1 0x0 KECCAK256 SLOAD EQ PUSH3 0x3A5 JUMPI PUSH1 0x40 MLOAD PUSH32 0x8C379A000000000000000000000000000000000000000000000000000000000 DUP2 MSTORE PUSH1 0x4 ADD DUP1 DUP1 PUSH1 0x20 ADD DUP3 DUP2 SUB DUP3 MSTORE PUSH1 0x25 DUP2 MSTORE PUSH1 0x20 ADD DUP1 PUSH3 0x327E PUSH1 0x25 SWAP2 CODECOPY PUSH1 0x40 ADD SWAP2 POP POP PUSH1 0x40 MLOAD DUP1 SWAP2 SUB SWAP1 REVERT JUMPDEST PUSH3 0x3AF PUSH3 0x59B JUMP JUMPDEST PUSH1 0x40 MLOAD DUP1 PUSH1 0x80 ADD PUSH1 0x40 MSTORE DUP1 DUP5 DUP2 MSTORE PUSH1 0x20 ADD DUP4 ISZERO ISZERO DUP2 MSTORE PUSH1 0x20 ADD CALLER PUSH20 0xFFFFFFFFFFFFFFFFFFFFFFFFFFFFFFFFFFFFFFFF AND DUP2 MSTORE PUSH1 0x20 ADD PUSH1 0x0 DUP2 MSTORE POP SWAP1 POP PUSH1 0x7 DUP2 SWAP1 DUP1 PUSH1 0x1 DUP2 SLOAD ADD DUP1 DUP3 SSTORE DUP1 SWAP2 POP POP SWAP1 PUSH1 0x1 DUP3 SUB SWAP1 PUSH1 0x0 MSTORE PUSH1 0x20 PUSH1 0x0 KECCAK256 SWAP1 PUSH1 0x3 MUL ADD PUSH1 0x0 SWAP1 SWAP2 SWAP3 SWAP1 SWAP2 SWAP1 SWAP2 POP PUSH1 0x0 DUP3 ADD MLOAD DUP2 PUSH1 0x0 ADD SWAP1 DUP1 MLOAD SWAP1 PUSH1 0x20 ADD SWAP1 PUSH3 0x437 SWAP3 SWAP2 SWAP1 PUSH3 0x5DB JUMP JUMPDEST POP PUSH1 0x20 DUP3 ADD MLOAD DUP2 PUSH1 0x1 ADD PUSH1 0x0 PUSH2 0x100 EXP DUP2 SLOAD DUP2 PUSH1 0xFF MUL NOT AND SWAP1 DUP4 ISZERO ISZERO MUL OR SWAP1 SSTORE POP PUSH1 0x40 DUP3 ADD MLOAD DUP2 PUSH1 0x1 ADD PUSH1 0x1 PUSH2 0x100 EXP DUP2 SLOAD DUP2 PUSH20 0xFFFFFFFFFFFFFFFFFFFFFFFFFFFFFFFFFFFFFFFF MUL NOT AND SWAP1 DUP4 PUSH20 0xFFFFFFFFFFFFFFFFFFFFFFFFFFFFFFFFFFFFFFFF AND MUL OR SWAP1 SSTORE POP PUSH1 0x60 DUP3 ADD MLOAD DUP2 PUSH1 0x2 ADD SSTORE POP POP POP PUSH1 0x1 PUSH3 0x4BE PUSH3 0x507 PUSH1 0x20 SHL PUSH1 0x20 SHR JUMP JUMPDEST SUB PUSH1 0x13 PUSH1 0x0 CALLER PUSH20 0xFFFFFFFFFFFFFFFFFFFFFFFFFFFFFFFFFFFFFFFF AND PUSH20 0xFFFFFFFFFFFFFFFFFFFFFFFFFFFFFFFFFFFFFFFF AND DUP2 MSTORE PUSH1 0x20 ADD SWAP1 DUP2 MSTORE PUSH1 0x20 ADD PUSH1 0x0 KECCAK256 DUP2 SWAP1 SSTORE POP POP POP POP JUMP JUMPDEST PUSH1 0x0 PUSH1 0x7 DUP1 SLOAD SWAP1 POP SWAP1 POP SWAP1 JUMP JUMPDEST DUP3 DUP1 SLOAD PUSH1 0x1 DUP2 PUSH1 0x1 AND ISZERO PUSH2 0x100 MUL SUB AND PUSH1 0x2 SWAP1 DIV SWAP1 PUSH1 0x0 MSTORE PUSH1 0x20 PUSH1 0x0 KECCAK256 SWAP1 PUSH1 0x1F ADD PUSH1 0x20 SWAP1 DIV DUP2 ADD SWAP3 DUP3 PUSH1 0x1F LT PUSH3 0x557 JUMPI DUP1 MLOAD PUSH1 0xFF NOT AND DUP4 DUP1 ADD OR DUP6 SSTORE PUSH3 0x588 JUMP JUMPDEST DUP3 DUP1 ADD PUSH1 0x1 ADD DUP6 SSTORE DUP3 ISZERO PUSH3 0x588 JUMPI SWAP2 DUP3 ADD JUMPDEST DUP3 DUP2 GT ISZERO PUSH3 0x587 JUMPI DUP3 MLOAD DUP3 SSTORE SWAP2 PUSH1 0x20 ADD SWAP2 SWAP1 PUSH1 0x1 ADD SWAP1 PUSH3 0x56A JUMP JUMPDEST JUMPDEST POP SWAP1 POP PUSH3 0x597 SWAP2 SWAP1 PUSH3 0x662 JUMP JUMPDEST POP SWAP1 JUMP JUMPDEST PUSH1 0x40 MLOAD DUP1 PUSH1 0x80 ADD PUSH1 0x40 MSTORE DUP1 PUSH1 0x60 DUP2 MSTORE PUSH1 0x20 ADD PUSH1 0x0 ISZERO ISZERO DUP2 MSTORE PUSH1 0x20 ADD PUSH1 0x0 PUSH20 0xFFFFFFFFFFFFFFFFFFFFFFFFFFFFFFFFFFFFFFFF AND DUP2 MSTORE PUSH1 0x20 ADD PUSH1 0x0 DUP2 MSTORE POP SWAP1 JUMP JUMPDEST DUP3 DUP1 SLOAD PUSH1 0x1 DUP2 PUSH1 0x1 AND ISZERO PUSH2 0x100 MUL SUB AND PUSH1 0x2 SWAP1 DIV SWAP1 PUSH1 0x0 MSTORE PUSH1 0x20 PUSH1 0x0 KECCAK256 SWAP1 PUSH1 0x1F ADD PUSH1 0x20 SWAP1 DIV DUP2 ADD SWAP3 DUP3 PUSH1 0x1F LT PUSH3 0x61E JUMPI DUP1 MLOAD PUSH1 0xFF NOT AND DUP4 DUP1 ADD OR DUP6 SSTORE PUSH3 0x64F JUMP JUMPDEST DUP3 DUP1 ADD PUSH1 0x1 ADD DUP6 SSTORE DUP3 ISZERO PUSH3 0x64F JUMPI SWAP2 DUP3 ADD JUMPDEST DUP3 DUP2 GT ISZERO PUSH3 0x64E JUMPI DUP3 MLOAD DUP3 SSTORE SWAP2 PUSH1 0x20 ADD SWAP2 SWAP1 PUSH1 0x1 ADD SWAP1 PUSH3 0x631 JUMP JUMPDEST JUMPDEST POP SWAP1 POP PUSH3 0x65E SWAP2 SWAP1 PUSH3 0x662 JUMP JUMPDEST POP SWAP1 JUMP JUMPDEST PUSH3 0x687 SWAP2 SWAP1 JUMPDEST DUP1 DUP3 GT ISZERO PUSH3 0x683 JUMPI PUSH1 0x0 DUP2 PUSH1 0x0 SWAP1 SSTORE POP PUSH1 0x1 ADD PUSH3 0x669 JUMP JUMPDEST POP SWAP1 JUMP JUMPDEST SWAP1 JUMP JUMPDEST PUSH2 0x2BE4 DUP1 PUSH3 0x69A PUSH1 0x0 CODECOPY PUSH1 0x0 RETURN INVALID PUSH1 0x80 PUSH1 0x40 MSTORE PUSH1 0x4 CALLDATASIZE LT PUSH2 0x20F JUMPI PUSH1 0x0 CALLDATALOAD PUSH1 0xE0 SHR DUP1 PUSH4 0x8A4D5A67 GT PUSH2 0x118 JUMPI DUP1 PUSH4 0xD04AE69D GT PUSH2 0xA0 JUMPI DUP1 PUSH4 0xF9588ED9 GT PUSH2 0x6F JUMPI DUP1 PUSH4 0xF9588ED9 EQ PUSH2 0xC3A JUMPI DUP1 PUSH4 0xFA391C64 EQ PUSH2 0xC65 JUMPI DUP1 PUSH4 0xFBBA5CB9 EQ PUSH2 0xC94 JUMPI DUP1 PUSH4 0xFBBF93A0 EQ PUSH2 0xCBF JUMPI DUP1 PUSH4 0xFDA9198B EQ PUSH2 0xD68 JUMPI PUSH2 0x20F JUMP JUMPDEST DUP1 PUSH4 0xD04AE69D EQ PUSH2 0xA8B JUMPI DUP1 PUSH4 0xE5D00035 EQ PUSH2 0xAB6 JUMPI DUP1 PUSH4 0xE72B0148 EQ PUSH2 0xB31 JUMPI DUP1 PUSH4 0xF7CA7C72 EQ PUSH2 0xB5C JUMPI PUSH2 0x20F JUMP JUMPDEST DUP1 PUSH4 0xB6E54BDF GT PUSH2 0xE7 JUMPI DUP1 PUSH4 0xB6E54BDF EQ PUSH2 0x8F8 JUMPI DUP1 PUSH4 0xC234D789 EQ PUSH2 0x923 JUMPI DUP1 PUSH4 0xC50EB984 EQ PUSH2 0x94E JUMPI DUP1 PUSH4 0xC884EF83 EQ PUSH2 0x9BD JUMPI DUP1 PUSH4 0xCA94FB2B EQ PUSH2 0xA26 JUMPI PUSH2 0x20F JUMP JUMPDEST DUP1 PUSH4 0x8A4D5A67 EQ PUSH2 0x7B4 JUMPI DUP1 PUSH4 0x9380B1CF EQ PUSH2 0x844 JUMPI DUP1 PUSH4 0xAEC2CCAE EQ PUSH2 0x85B JUMPI DUP1 PUSH4 0xB384ABEF EQ PUSH2 0x8C0 JUMPI PUSH2 0x20F JUMP JUMPDEST DUP1 PUSH4 0x3197CBB6 GT PUSH2 0x19B JUMPI DUP1 PUSH4 0x4E71D92D GT PUSH2 0x16A JUMPI DUP1 PUSH4 0x4E71D92D EQ PUSH2 0x6E9 JUMPI DUP1 PUSH4 0x6DC7A627 EQ PUSH2 0x700 JUMPI DUP1 PUSH4 0x6E3EBC2E EQ PUSH2 0x72F JUMPI DUP1 PUSH4 0x74986BFC EQ PUSH2 0x75A JUMPI DUP1 PUSH4 0x85730FA1 EQ PUSH2 0x789 JUMPI PUSH2 0x20F JUMP JUMPDEST DUP1 PUSH4 0x3197CBB6 EQ PUSH2 0x5C5 JUMPI DUP1 PUSH4 0x3E50B331 EQ PUSH2 0x5F0 JUMPI DUP1 PUSH4 0x3FF894AD EQ PUSH2 0x659 JUMPI DUP1 PUSH4 0x44FE9432 EQ PUSH2 0x684 JUMPI PUSH2 0x20F JUMP JUMPDEST DUP1 PUSH4 0xA68F631 GT PUSH2 0x1E2 JUMPI DUP1 PUSH4 0xA68F631 EQ PUSH2 0x41C JUMPI DUP1 PUSH4 0x159E7064 EQ PUSH2 0x515 JUMPI DUP1 PUSH4 0x1C7CD6AC EQ PUSH2 0x544 JUMPI DUP1 PUSH4 0x2B925B25 EQ PUSH2 0x56F JUMPI DUP1 PUSH4 0x2EC32E6D EQ PUSH2 0x59A JUMPI PUSH2 0x20F JUMP JUMPDEST DUP1 PUSH4 0x2D05D3F EQ PUSH2 0x211 JUMPI DUP1 PUSH4 0x715EF00 EQ PUSH2 0x268 JUMPI DUP1 PUSH4 0x9C7CAF1 EQ PUSH2 0x33C JUMPI DUP1 PUSH4 0x9F74DB7 EQ PUSH2 0x3A1 JUMPI JUMPDEST STOP JUMPDEST CALLVALUE DUP1 ISZERO PUSH2 0x21D JUMPI PUSH1 0x0 DUP1 REVERT JUMPDEST POP PUSH2 0x226 PUSH2 0xDC3 JUMP JUMPDEST PUSH1 0x40 MLOAD DUP1 DUP3 PUSH20 0xFFFFFFFFFFFFFFFFFFFFFFFFFFFFFFFFFFFFFFFF AND PUSH20 0xFFFFFFFFFFFFFFFFFFFFFFFFFFFFFFFFFFFFFFFF AND DUP2 MSTORE PUSH1 0x20 ADD SWAP2 POP POP PUSH1 0x40 MLOAD DUP1 SWAP2 SUB SWAP1 RETURN JUMPDEST CALLVALUE DUP1 ISZERO PUSH2 0x274 JUMPI PUSH1 0x0 DUP1 REVERT JUMPDEST POP PUSH2 0x33A PUSH1 0x4 DUP1 CALLDATASIZE SUB PUSH1 0x40 DUP2 LT ISZERO PUSH2 0x28B JUMPI PUSH1 0x0 DUP1 REVERT JUMPDEST DUP2 ADD SWAP1 DUP1 DUP1 CALLDATALOAD SWAP1 PUSH1 0x20 ADD SWAP1 PUSH5 0x100000000 DUP2 GT ISZERO PUSH2 0x2A8 JUMPI PUSH1 0x0 DUP1 REVERT JUMPDEST DUP3 ADD DUP4 PUSH1 0x20 DUP3 ADD GT ISZERO PUSH2 0x2BA JUMPI PUSH1 0x0 DUP1 REVERT JUMPDEST DUP1 CALLDATALOAD SWAP1 PUSH1 0x20 ADD SWAP2 DUP5 PUSH1 0x1 DUP4 MUL DUP5 ADD GT PUSH5 0x100000000 DUP4 GT OR ISZERO PUSH2 0x2DC JUMPI PUSH1 0x0 DUP1 REVERT JUMPDEST SWAP2 SWAP1 DUP1 DUP1 PUSH1 0x1F ADD PUSH1 0x20 DUP1 SWAP2 DIV MUL PUSH1 0x20 ADD PUSH1 0x40 MLOAD SWAP1 DUP2 ADD PUSH1 0x40 MSTORE DUP1 SWAP4 SWAP3 SWAP2 SWAP1 DUP2 DUP2 MSTORE PUSH1 0x20 ADD DUP4 DUP4 DUP1 DUP3 DUP5 CALLDATACOPY PUSH1 0x0 DUP2 DUP5 ADD MSTORE PUSH1 0x1F NOT PUSH1 0x1F DUP3 ADD AND SWAP1 POP DUP1 DUP4 ADD SWAP3 POP POP POP POP POP POP POP SWAP2 SWAP3 SWAP2 SWAP3 SWAP1 DUP1 CALLDATALOAD ISZERO ISZERO SWAP1 PUSH1 0x20 ADD SWAP1 SWAP3 SWAP2 SWAP1 POP POP POP PUSH2 0xDE9 JUMP JUMPDEST STOP JUMPDEST CALLVALUE DUP1 ISZERO PUSH2 0x348 JUMPI PUSH1 0x0 DUP1 REVERT JUMPDEST POP PUSH2 0x38B PUSH1 0x4 DUP1 CALLDATASIZE SUB PUSH1 0x20 DUP2 LT ISZERO PUSH2 0x35F JUMPI PUSH1 0x0 DUP1 REVERT JUMPDEST DUP2 ADD SWAP1 DUP1 DUP1 CALLDATALOAD PUSH20 0xFFFFFFFFFFFFFFFFFFFFFFFFFFFFFFFFFFFFFFFF AND SWAP1 PUSH1 0x20 ADD SWAP1 SWAP3 SWAP2 SWAP1 POP POP POP PUSH2 0x1031 JUMP JUMPDEST PUSH1 0x40 MLOAD DUP1 DUP3 DUP2 MSTORE PUSH1 0x20 ADD SWAP2 POP POP PUSH1 0x40 MLOAD DUP1 SWAP2 SUB SWAP1 RETURN JUMPDEST CALLVALUE DUP1 ISZERO PUSH2 0x3AD JUMPI PUSH1 0x0 DUP1 REVERT JUMPDEST POP PUSH2 0x3DA PUSH1 0x4 DUP1 CALLDATASIZE SUB PUSH1 0x20 DUP2 LT ISZERO PUSH2 0x3C4 JUMPI PUSH1 0x0 DUP1 REVERT JUMPDEST DUP2 ADD SWAP1 DUP1 DUP1 CALLDATALOAD SWAP1 PUSH1 0x20 ADD SWAP1 SWAP3 SWAP2 SWAP1 POP POP POP PUSH2 0x1049 JUMP JUMPDEST PUSH1 0x40 MLOAD DUP1 DUP3 PUSH20 0xFFFFFFFFFFFFFFFFFFFFFFFFFFFFFFFFFFFFFFFF AND PUSH20 0xFFFFFFFFFFFFFFFFFFFFFFFFFFFFFFFFFFFFFFFF AND DUP2 MSTORE PUSH1 0x20 ADD SWAP2 POP POP PUSH1 0x40 MLOAD DUP1 SWAP2 SUB SWAP1 RETURN JUMPDEST CALLVALUE DUP1 ISZERO PUSH2 0x428 JUMPI PUSH1 0x0 DUP1 REVERT JUMPDEST POP PUSH2 0x455 PUSH1 0x4 DUP1 CALLDATASIZE SUB PUSH1 0x20 DUP2 LT ISZERO PUSH2 0x43F JUMPI PUSH1 0x0 DUP1 REVERT JUMPDEST DUP2 ADD SWAP1 DUP1 DUP1 CALLDATALOAD SWAP1 PUSH1 0x20 ADD SWAP1 SWAP3 SWAP2 SWAP1 POP POP POP PUSH2 0x1085 JUMP JUMPDEST PUSH1 0x40 MLOAD DUP1 DUP1 PUSH1 0x20 ADD DUP6 ISZERO ISZERO ISZERO ISZERO DUP2 MSTORE PUSH1 0x20 ADD DUP5 PUSH20 0xFFFFFFFFFFFFFFFFFFFFFFFFFFFFFFFFFFFFFFFF AND PUSH20 0xFFFFFFFFFFFFFFFFFFFFFFFFFFFFFFFFFFFFFFFF AND DUP2 MSTORE PUSH1 0x20 ADD DUP4 DUP2 MSTORE PUSH1 0x20 ADD DUP3 DUP2 SUB DUP3 MSTORE DUP7 DUP2 DUP2 MLOAD DUP2 MSTORE PUSH1 0x20 ADD SWAP2 POP DUP1 MLOAD SWAP1 PUSH1 0x20 ADD SWAP1 DUP1 DUP4 DUP4 PUSH1 0x0 JUMPDEST DUP4 DUP2 LT ISZERO PUSH2 0x4D7 JUMPI DUP1 DUP3 ADD MLOAD DUP2 DUP5 ADD MSTORE PUSH1 0x20 DUP2 ADD SWAP1 POP PUSH2 0x4BC JUMP JUMPDEST POP POP POP POP SWAP1 POP SWAP1 DUP2 ADD SWAP1 PUSH1 0x1F AND DUP1 ISZERO PUSH2 0x504 JUMPI DUP1 DUP3 SUB DUP1 MLOAD PUSH1 0x1 DUP4 PUSH1 0x20 SUB PUSH2 0x100 EXP SUB NOT AND DUP2 MSTORE PUSH1 0x20 ADD SWAP2 POP JUMPDEST POP SWAP6 POP POP POP POP POP POP PUSH1 0x40 MLOAD DUP1 SWAP2 SUB SWAP1 RETURN JUMPDEST CALLVALUE DUP1 ISZERO PUSH2 0x521 JUMPI PUSH1 0x0 DUP1 REVERT JUMPDEST POP PUSH2 0x52A PUSH2 0x1187 JUMP JUMPDEST PUSH1 0x40 MLOAD DUP1 DUP3 ISZERO ISZERO ISZERO ISZERO DUP2 MSTORE PUSH1 0x20 ADD SWAP2 POP POP PUSH1 0x40 MLOAD DUP1 SWAP2 SUB SWAP1 RETURN JUMPDEST CALLVALUE DUP1 ISZERO PUSH2 0x550 JUMPI PUSH1 0x0 DUP1 REVERT JUMPDEST POP PUSH2 0x559 PUSH2 0x12EC JUMP JUMPDEST PUSH1 0x40 MLOAD DUP1 DUP3 DUP2 MSTORE PUSH1 0x20 ADD SWAP2 POP POP PUSH1 0x40 MLOAD DUP1 SWAP2 SUB SWAP1 RETURN JUMPDEST CALLVALUE DUP1 ISZERO PUSH2 0x57B JUMPI PUSH1 0x0 DUP1 REVERT JUMPDEST POP PUSH2 0x584 PUSH2 0x12F2 JUMP JUMPDEST PUSH1 0x40 MLOAD DUP1 DUP3 DUP2 MSTORE PUSH1 0x20 ADD SWAP2 POP POP PUSH1 0x40 MLOAD DUP1 SWAP2 SUB SWAP1 RETURN JUMPDEST CALLVALUE DUP1 ISZERO PUSH2 0x5A6 JUMPI PUSH1 0x0 DUP1 REVERT JUMPDEST POP PUSH2 0x5AF PUSH2 0x12F8 JUMP JUMPDEST PUSH1 0x40 MLOAD DUP1 DUP3 DUP2 MSTORE PUSH1 0x20 ADD SWAP2 POP POP PUSH1 0x40 MLOAD DUP1 SWAP2 SUB SWAP1 RETURN JUMPDEST CALLVALUE DUP1 ISZERO PUSH2 0x5D1 JUMPI PUSH1 0x0 DUP1 REVERT JUMPDEST POP PUSH2 0x5DA PUSH2 0x1305 JUMP JUMPDEST PUSH1 0x40 MLOAD DUP1 DUP3 DUP2 MSTORE PUSH1 0x20 ADD SWAP2 POP POP PUSH1 0x40 MLOAD DUP1 SWAP2 SUB SWAP1 RETURN JUMPDEST CALLVALUE DUP1 ISZERO PUSH2 0x5FC JUMPI PUSH1 0x0 DUP1 REVERT JUMPDEST POP PUSH2 0x63F PUSH1 0x4 DUP1 CALLDATASIZE SUB PUSH1 0x20 DUP2 LT ISZERO PUSH2 0x613 JUMPI PUSH1 0x0 DUP1 REVERT JUMPDEST DUP2 ADD SWAP1 DUP1 DUP1 CALLDATALOAD PUSH20 0xFFFFFFFFFFFFFFFFFFFFFFFFFFFFFFFFFFFFFFFF AND SWAP1 PUSH1 0x20 ADD SWAP1 SWAP3 SWAP2 SWAP1 POP POP POP PUSH2 0x130B JUMP JUMPDEST PUSH1 0x40 MLOAD DUP1 DUP3 ISZERO ISZERO ISZERO ISZERO DUP2 MSTORE PUSH1 0x20 ADD SWAP2 POP POP PUSH1 0x40 MLOAD DUP1 SWAP2 SUB SWAP1 RETURN JUMPDEST CALLVALUE DUP1 ISZERO PUSH2 0x665 JUMPI PUSH1 0x0 DUP1 REVERT JUMPDEST POP PUSH2 0x66E PUSH2 0x13C7 JUMP JUMPDEST PUSH1 0x40 MLOAD DUP1 DUP3 DUP2 MSTORE PUSH1 0x20 ADD SWAP2 POP POP PUSH1 0x40 MLOAD DUP1 SWAP2 SUB SWAP1 RETURN JUMPDEST CALLVALUE DUP1 ISZERO PUSH2 0x690 JUMPI PUSH1 0x0 DUP1 REVERT JUMPDEST POP PUSH2 0x6D3 PUSH1 0x4 DUP1 CALLDATASIZE SUB PUSH1 0x20 DUP2 LT ISZERO PUSH2 0x6A7 JUMPI PUSH1 0x0 DUP1 REVERT JUMPDEST DUP2 ADD SWAP1 DUP1 DUP1 CALLDATALOAD PUSH20 0xFFFFFFFFFFFFFFFFFFFFFFFFFFFFFFFFFFFFFFFF AND SWAP1 PUSH1 0x20 ADD SWAP1 SWAP3 SWAP2 SWAP1 POP POP POP PUSH2 0x13CD JUMP JUMPDEST PUSH1 0x40 MLOAD DUP1 DUP3 DUP2 MSTORE PUSH1 0x20 ADD SWAP2 POP POP PUSH1 0x40 MLOAD DUP1 SWAP2 SUB SWAP1 RETURN JUMPDEST CALLVALUE DUP1 ISZERO PUSH2 0x6F5 JUMPI PUSH1 0x0 DUP1 REVERT JUMPDEST POP PUSH2 0x6FE PUSH2 0x13E5 JUMP JUMPDEST STOP JUMPDEST CALLVALUE DUP1 ISZERO PUSH2 0x70C JUMPI PUSH1 0x0 DUP1 REVERT JUMPDEST POP PUSH2 0x715 PUSH2 0x1816 JUMP JUMPDEST PUSH1 0x40 MLOAD DUP1 DUP3 ISZERO ISZERO ISZERO ISZERO DUP2 MSTORE PUSH1 0x20 ADD SWAP2 POP POP PUSH1 0x40 MLOAD DUP1 SWAP2 SUB SWAP1 RETURN JUMPDEST CALLVALUE DUP1 ISZERO PUSH2 0x73B JUMPI PUSH1 0x0 DUP1 REVERT JUMPDEST POP PUSH2 0x744 PUSH2 0x18C9 JUMP JUMPDEST PUSH1 0x40 MLOAD DUP1 DUP3 DUP2 MSTORE PUSH1 0x20 ADD SWAP2 POP POP PUSH1 0x40 MLOAD DUP1 SWAP2 SUB SWAP1 RETURN JUMPDEST CALLVALUE DUP1 ISZERO PUSH2 0x766 JUMPI PUSH1 0x0 DUP1 REVERT JUMPDEST POP PUSH2 0x76F PUSH2 0x18D6 JUMP JUMPDEST PUSH1 0x40 MLOAD DUP1 DUP3 ISZERO ISZERO ISZERO ISZERO DUP2 MSTORE PUSH1 0x20 ADD SWAP2 POP POP PUSH1 0x40 MLOAD DUP1 SWAP2 SUB SWAP1 RETURN JUMPDEST CALLVALUE DUP1 ISZERO PUSH2 0x795 JUMPI PUSH1 0x0 DUP1 REVERT JUMPDEST POP PUSH2 0x79E PUSH2 0x18DF JUMP JUMPDEST PUSH1 0x40 MLOAD DUP1 DUP3 DUP2 MSTORE PUSH1 0x20 ADD SWAP2 POP POP PUSH1 0x40 MLOAD DUP1 SWAP2 SUB SWAP1 RETURN JUMPDEST CALLVALUE DUP1 ISZERO PUSH2 0x7C0 JUMPI PUSH1 0x0 DUP1 REVERT JUMPDEST POP PUSH2 0x7C9 PUSH2 0x18E5 JUMP JUMPDEST PUSH1 0x40 MLOAD DUP1 DUP1 PUSH1 0x20 ADD DUP3 DUP2 SUB DUP3 MSTORE DUP4 DUP2 DUP2 MLOAD DUP2 MSTORE PUSH1 0x20 ADD SWAP2 POP DUP1 MLOAD SWAP1 PUSH1 0x20 ADD SWAP1 DUP1 DUP4 DUP4 PUSH1 0x0 JUMPDEST DUP4 DUP2 LT ISZERO PUSH2 0x809 JUMPI DUP1 DUP3 ADD MLOAD DUP2 DUP5 ADD MSTORE PUSH1 0x20 DUP2 ADD SWAP1 POP PUSH2 0x7EE JUMP JUMPDEST POP POP POP POP SWAP1 POP SWAP1 DUP2 ADD SWAP1 PUSH1 0x1F AND DUP1 ISZERO PUSH2 0x836 JUMPI DUP1 DUP3 SUB DUP1 MLOAD PUSH1 0x1 DUP4 PUSH1 0x20 SUB PUSH2 0x100 EXP SUB NOT AND DUP2 MSTORE PUSH1 0x20 ADD SWAP2 POP JUMPDEST POP SWAP3 POP POP POP PUSH1 0x40 MLOAD DUP1 SWAP2 SUB SWAP1 RETURN JUMPDEST CALLVALUE DUP1 ISZERO PUSH2 0x850 JUMPI PUSH1 0x0 DUP1 REVERT JUMPDEST POP PUSH2 0x859 PUSH2 0x1983 JUMP JUMPDEST STOP JUMPDEST CALLVALUE DUP1 ISZERO PUSH2 0x867 JUMPI PUSH1 0x0 DUP1 REVERT JUMPDEST POP PUSH2 0x8AA PUSH1 0x4 DUP1 CALLDATASIZE SUB PUSH1 0x20 DUP2 LT ISZERO PUSH2 0x87E JUMPI PUSH1 0x0 DUP1 REVERT JUMPDEST DUP2 ADD SWAP1 DUP1 DUP1 CALLDATALOAD PUSH20 0xFFFFFFFFFFFFFFFFFFFFFFFFFFFFFFFFFFFFFFFF AND SWAP1 PUSH1 0x20 ADD SWAP1 SWAP3 SWAP2 SWAP1 POP POP POP PUSH2 0x1B95 JUMP JUMPDEST PUSH1 0x40 MLOAD DUP1 DUP3 DUP2 MSTORE PUSH1 0x20 ADD SWAP2 POP POP PUSH1 0x40 MLOAD DUP1 SWAP2 SUB SWAP1 RETURN JUMPDEST PUSH2 0x8F6 PUSH1 0x4 DUP1 CALLDATASIZE SUB PUSH1 0x40 DUP2 LT ISZERO PUSH2 0x8D6 JUMPI PUSH1 0x0 DUP1 REVERT JUMPDEST DUP2 ADD SWAP1 DUP1 DUP1 CALLDATALOAD SWAP1 PUSH1 0x20 ADD SWAP1 SWAP3 SWAP2 SWAP1 DUP1 CALLDATALOAD SWAP1 PUSH1 0x20 ADD SWAP1 SWAP3 SWAP2 SWAP1 POP POP POP PUSH2 0x1BAD JUMP JUMPDEST STOP JUMPDEST CALLVALUE DUP1 ISZERO PUSH2 0x904 JUMPI PUSH1 0x0 DUP1 REVERT JUMPDEST POP PUSH2 0x90D PUSH2 0x20E8 JUMP JUMPDEST PUSH1 0x40 MLOAD DUP1 DUP3 DUP2 MSTORE PUSH1 0x20 ADD SWAP2 POP POP PUSH1 0x40 MLOAD DUP1 SWAP2 SUB SWAP1 RETURN JUMPDEST CALLVALUE DUP1 ISZERO PUSH2 0x92F JUMPI PUSH1 0x0 DUP1 REVERT JUMPDEST POP PUSH2 0x938 PUSH2 0x20EE JUMP JUMPDEST PUSH1 0x40 MLOAD DUP1 DUP3 DUP2 MSTORE PUSH1 0x20 ADD SWAP2 POP POP PUSH1 0x40 MLOAD DUP1 SWAP2 SUB SWAP1 RETURN JUMPDEST CALLVALUE DUP1 ISZERO PUSH2 0x95A JUMPI PUSH1 0x0 DUP1 REVERT JUMPDEST POP PUSH2 0x9A7 PUSH1 0x4 DUP1 CALLDATASIZE SUB PUSH1 0x40 DUP2 LT ISZERO PUSH2 0x971 JUMPI PUSH1 0x0 DUP1 REVERT JUMPDEST DUP2 ADD SWAP1 DUP1 DUP1 CALLDATALOAD SWAP1 PUSH1 0x20 ADD SWAP1 SWAP3 SWAP2 SWAP1 DUP1 CALLDATALOAD PUSH20 0xFFFFFFFFFFFFFFFFFFFFFFFFFFFFFFFFFFFFFFFF AND SWAP1 PUSH1 0x20 ADD SWAP1 SWAP3 SWAP2 SWAP1 POP POP POP PUSH2 0x20FB JUMP JUMPDEST PUSH1 0x40 MLOAD DUP1 DUP3 DUP2 MSTORE PUSH1 0x20 ADD SWAP2 POP POP PUSH1 0x40 MLOAD DUP1 SWAP2 SUB SWAP1 RETURN JUMPDEST CALLVALUE DUP1 ISZERO PUSH2 0x9C9 JUMPI PUSH1 0x0 DUP1 REVERT JUMPDEST POP PUSH2 0xA0C PUSH1 0x4 DUP1 CALLDATASIZE SUB PUSH1 0x20 DUP2 LT ISZERO PUSH2 0x9E0 JUMPI PUSH1 0x0 DUP1 REVERT JUMPDEST DUP2 ADD SWAP1 DUP1 DUP1 CALLDATALOAD PUSH20 0xFFFFFFFFFFFFFFFFFFFFFFFFFFFFFFFFFFFFFFFF AND SWAP1 PUSH1 0x20 ADD SWAP1 SWAP3 SWAP2 SWAP1 POP POP POP PUSH2 0x2137 JUMP JUMPDEST PUSH1 0x40 MLOAD DUP1 DUP3 ISZERO ISZERO ISZERO ISZERO DUP2 MSTORE PUSH1 0x20 ADD SWAP2 POP POP PUSH1 0x40 MLOAD DUP1 SWAP2 SUB SWAP1 RETURN JUMPDEST CALLVALUE DUP1 ISZERO PUSH2 0xA32 JUMPI PUSH1 0x0 DUP1 REVERT JUMPDEST POP PUSH2 0xA75 PUSH1 0x4 DUP1 CALLDATASIZE SUB PUSH1 0x20 DUP2 LT ISZERO PUSH2 0xA49 JUMPI PUSH1 0x0 DUP1 REVERT JUMPDEST DUP2 ADD SWAP1 DUP1 DUP1 CALLDATALOAD PUSH20 0xFFFFFFFFFFFFFFFFFFFFFFFFFFFFFFFFFFFFFFFF AND SWAP1 PUSH1 0x20 ADD SWAP1 SWAP3 SWAP2 SWAP1 POP POP POP PUSH2 0x2157 JUMP JUMPDEST PUSH1 0x40 MLOAD DUP1 DUP3 DUP2 MSTORE PUSH1 0x20 ADD SWAP2 POP POP PUSH1 0x40 MLOAD DUP1 SWAP2 SUB SWAP1 RETURN JUMPDEST CALLVALUE DUP1 ISZERO PUSH2 0xA97 JUMPI PUSH1 0x0 DUP1 REVERT JUMPDEST POP PUSH2 0xAA0 PUSH2 0x216F JUMP JUMPDEST PUSH1 0x40 MLOAD DUP1 DUP3 DUP2 MSTORE PUSH1 0x20 ADD SWAP2 POP POP PUSH1 0x40 MLOAD DUP1 SWAP2 SUB SWAP1 RETURN JUMPDEST CALLVALUE DUP1 ISZERO PUSH2 0xAC2 JUMPI PUSH1 0x0 DUP1 REVERT JUMPDEST POP PUSH2 0xAEF PUSH1 0x4 DUP1 CALLDATASIZE SUB PUSH1 0x20 DUP2 LT ISZERO PUSH2 0xAD9 JUMPI PUSH1 0x0 DUP1 REVERT JUMPDEST DUP2 ADD SWAP1 DUP1 DUP1 CALLDATALOAD SWAP1 PUSH1 0x20 ADD SWAP1 SWAP3 SWAP2 SWAP1 POP POP POP PUSH2 0x2175 JUMP JUMPDEST PUSH1 0x40 MLOAD DUP1 DUP3 PUSH20 0xFFFFFFFFFFFFFFFFFFFFFFFFFFFFFFFFFFFFFFFF AND PUSH20 0xFFFFFFFFFFFFFFFFFFFFFFFFFFFFFFFFFFFFFFFF AND DUP2 MSTORE PUSH1 0x20 ADD SWAP2 POP POP PUSH1 0x40 MLOAD DUP1 SWAP2 SUB SWAP1 RETURN JUMPDEST CALLVALUE DUP1 ISZERO PUSH2 0xB3D JUMPI PUSH1 0x0 DUP1 REVERT JUMPDEST POP PUSH2 0xB46 PUSH2 0x21B1 JUMP JUMPDEST PUSH1 0x40 MLOAD DUP1 DUP3 DUP2 MSTORE PUSH1 0x20 ADD SWAP2 POP POP PUSH1 0x40 MLOAD DUP1 SWAP2 SUB SWAP1 RETURN JUMPDEST CALLVALUE DUP1 ISZERO PUSH2 0xB68 JUMPI PUSH1 0x0 DUP1 REVERT JUMPDEST POP PUSH2 0xC38 PUSH1 0x4 DUP1 CALLDATASIZE SUB PUSH1 0x60 DUP2 LT ISZERO PUSH2 0xB7F JUMPI PUSH1 0x0 DUP1 REVERT JUMPDEST DUP2 ADD SWAP1 DUP1 DUP1 CALLDATALOAD SWAP1 PUSH1 0x20 ADD SWAP1 SWAP3 SWAP2 SWAP1 DUP1 CALLDATALOAD SWAP1 PUSH1 0x20 ADD SWAP1 PUSH5 0x100000000 DUP2 GT ISZERO PUSH2 0xBA6 JUMPI PUSH1 0x0 DUP1 REVERT JUMPDEST DUP3 ADD DUP4 PUSH1 0x20 DUP3 ADD GT ISZERO PUSH2 0xBB8 JUMPI PUSH1 0x0 DUP1 REVERT JUMPDEST DUP1 CALLDATALOAD SWAP1 PUSH1 0x20 ADD SWAP2 DUP5 PUSH1 0x1 DUP4 MUL DUP5 ADD GT PUSH5 0x100000000 DUP4 GT OR ISZERO PUSH2 0xBDA JUMPI PUSH1 0x0 DUP1 REVERT JUMPDEST SWAP2 SWAP1 DUP1 DUP1 PUSH1 0x1F ADD PUSH1 0x20 DUP1 SWAP2 DIV MUL PUSH1 0x20 ADD PUSH1 0x40 MLOAD SWAP1 DUP2 ADD PUSH1 0x40 MSTORE DUP1 SWAP4 SWAP3 SWAP2 SWAP1 DUP2 DUP2 MSTORE PUSH1 0x20 ADD DUP4 DUP4 DUP1 DUP3 DUP5 CALLDATACOPY PUSH1 0x0 DUP2 DUP5 ADD MSTORE PUSH1 0x1F NOT PUSH1 0x1F DUP3 ADD AND SWAP1 POP DUP1 DUP4 ADD SWAP3 POP POP POP POP POP POP POP SWAP2 SWAP3 SWAP2 SWAP3 SWAP1 DUP1 CALLDATALOAD ISZERO ISZERO SWAP1 PUSH1 0x20 ADD SWAP1 SWAP3 SWAP2 SWAP1 POP POP POP PUSH2 0x21B7 JUMP JUMPDEST STOP JUMPDEST CALLVALUE DUP1 ISZERO PUSH2 0xC46 JUMPI PUSH1 0x0 DUP1 REVERT JUMPDEST POP PUSH2 0xC4F PUSH2 0x2370 JUMP JUMPDEST PUSH1 0x40 MLOAD DUP1 DUP3 DUP2 MSTORE PUSH1 0x20 ADD SWAP2 POP POP PUSH1 0x40 MLOAD DUP1 SWAP2 SUB SWAP1 RETURN JUMPDEST CALLVALUE DUP1 ISZERO PUSH2 0xC71 JUMPI PUSH1 0x0 DUP1 REVERT JUMPDEST POP PUSH2 0xC7A PUSH2 0x2378 JUMP JUMPDEST PUSH1 0x40 MLOAD DUP1 DUP3 ISZERO ISZERO ISZERO ISZERO DUP2 MSTORE PUSH1 0x20 ADD SWAP2 POP POP PUSH1 0x40 MLOAD DUP1 SWAP2 SUB SWAP1 RETURN JUMPDEST CALLVALUE DUP1 ISZERO PUSH2 0xCA0 JUMPI PUSH1 0x0 DUP1 REVERT JUMPDEST POP PUSH2 0xCA9 PUSH2 0x238B JUMP JUMPDEST PUSH1 0x40 MLOAD DUP1 DUP3 DUP2 MSTORE PUSH1 0x20 ADD SWAP2 POP POP PUSH1 0x40 MLOAD DUP1 SWAP2 SUB SWAP1 RETURN JUMPDEST CALLVALUE DUP1 ISZERO PUSH2 0xCCB JUMPI PUSH1 0x0 DUP1 REVERT JUMPDEST POP PUSH2 0xCD4 PUSH2 0x2391 JUMP JUMPDEST PUSH1 0x40 MLOAD DUP1 DUP13 PUSH20 0xFFFFFFFFFFFFFFFFFFFFFFFFFFFFFFFFFFFFFFFF AND PUSH20 0xFFFFFFFFFFFFFFFFFFFFFFFFFFFFFFFFFFFFFFFF AND DUP2 MSTORE PUSH1 0x20 ADD DUP12 DUP2 MSTORE PUSH1 0x20 ADD DUP11 DUP2 MSTORE PUSH1 0x20 ADD DUP10 ISZERO ISZERO ISZERO ISZERO DUP2 MSTORE PUSH1 0x20 ADD DUP9 ISZERO ISZERO ISZERO ISZERO DUP2 MSTORE PUSH1 0x20 ADD DUP8 ISZERO ISZERO ISZERO ISZERO DUP2 MSTORE PUSH1 0x20 ADD DUP7 DUP2 MSTORE PUSH1 0x20 ADD DUP6 DUP2 MSTORE PUSH1 0x20 ADD DUP5 DUP2 MSTORE PUSH1 0x20 ADD DUP4 DUP2 MSTORE PUSH1 0x20 ADD DUP3 DUP2 MSTORE PUSH1 0x20 ADD SWAP12 POP POP POP POP POP POP POP POP POP POP POP POP PUSH1 0x40 MLOAD DUP1 SWAP2 SUB SWAP1 RETURN JUMPDEST CALLVALUE DUP1 ISZERO PUSH2 0xD74 JUMPI PUSH1 0x0 DUP1 REVERT JUMPDEST POP PUSH2 0xDAD PUSH1 0x4 DUP1 CALLDATASIZE SUB PUSH1 0x40 DUP2 LT ISZERO PUSH2 0xD8B JUMPI PUSH1 0x0 DUP1 REVERT JUMPDEST DUP2 ADD SWAP1 DUP1 DUP1 CALLDATALOAD SWAP1 PUSH1 0x20 ADD SWAP1 SWAP3 SWAP2 SWAP1 DUP1 CALLDATALOAD ISZERO ISZERO SWAP1 PUSH1 0x20 ADD SWAP1 SWAP3 SWAP2 SWAP1 POP POP POP PUSH2 0x246A JUMP JUMPDEST PUSH1 0x40 MLOAD DUP1 DUP3 DUP2 MSTORE PUSH1 0x20 ADD SWAP2 POP POP PUSH1 0x40 MLOAD DUP1 SWAP2 SUB SWAP1 RETURN JUMPDEST PUSH1 0x4 PUSH1 0x0 SWAP1 SLOAD SWAP1 PUSH2 0x100 EXP SWAP1 DIV PUSH20 0xFFFFFFFFFFFFFFFFFFFFFFFFFFFFFFFFFFFFFFFF AND DUP2 JUMP JUMPDEST PUSH1 0x6 SLOAD TIMESTAMP LT PUSH2 0xE43 JUMPI PUSH1 0x40 MLOAD PUSH32 0x8C379A000000000000000000000000000000000000000000000000000000000 DUP2 MSTORE PUSH1 0x4 ADD DUP1 DUP1 PUSH1 0x20 ADD DUP3 DUP2 SUB DUP3 MSTORE PUSH1 0x2B DUP2 MSTORE PUSH1 0x20 ADD DUP1 PUSH2 0x2AA0 PUSH1 0x2B SWAP2 CODECOPY PUSH1 0x40 ADD SWAP2 POP POP PUSH1 0x40 MLOAD DUP1 SWAP2 SUB SWAP1 REVERT JUMPDEST PUSH1 0x0 PUSH1 0x13 PUSH1 0x0 CALLER PUSH20 0xFFFFFFFFFFFFFFFFFFFFFFFFFFFFFFFFFFFFFFFF AND PUSH20 0xFFFFFFFFFFFFFFFFFFFFFFFFFFFFFFFFFFFFFFFF AND DUP2 MSTORE PUSH1 0x20 ADD SWAP1 DUP2 MSTORE PUSH1 0x20 ADD PUSH1 0x0 KECCAK256 SLOAD EQ PUSH2 0xEDB JUMPI PUSH1 0x40 MLOAD PUSH32 0x8C379A000000000000000000000000000000000000000000000000000000000 DUP2 MSTORE PUSH1 0x4 ADD DUP1 DUP1 PUSH1 0x20 ADD DUP3 DUP2 SUB DUP3 MSTORE PUSH1 0x25 DUP2 MSTORE PUSH1 0x20 ADD DUP1 PUSH2 0x2A41 PUSH1 0x25 SWAP2 CODECOPY PUSH1 0x40 ADD SWAP2 POP POP PUSH1 0x40 MLOAD DUP1 SWAP2 SUB SWAP1 REVERT JUMPDEST PUSH2 0xEE3 PUSH2 0x2747 JUMP JUMPDEST PUSH1 0x40 MLOAD DUP1 PUSH1 0x80 ADD PUSH1 0x40 MSTORE DUP1 DUP5 DUP2 MSTORE PUSH1 0x20 ADD DUP4 ISZERO ISZERO DUP2 MSTORE PUSH1 0x20 ADD CALLER PUSH20 0xFFFFFFFFFFFFFFFFFFFFFFFFFFFFFFFFFFFFFFFF AND DUP2 MSTORE PUSH1 0x20 ADD PUSH1 0x0 DUP2 MSTORE POP SWAP1 POP PUSH1 0x7 DUP2 SWAP1 DUP1 PUSH1 0x1 DUP2 SLOAD ADD DUP1 DUP3 SSTORE DUP1 SWAP2 POP POP SWAP1 PUSH1 0x1 DUP3 SUB SWAP1 PUSH1 0x0 MSTORE PUSH1 0x20 PUSH1 0x0 KECCAK256 SWAP1 PUSH1 0x3 MUL ADD PUSH1 0x0 SWAP1 SWAP2 SWAP3 SWAP1 SWAP2 SWAP1 SWAP2 POP PUSH1 0x0 DUP3 ADD MLOAD DUP2 PUSH1 0x0 ADD SWAP1 DUP1 MLOAD SWAP1 PUSH1 0x20 ADD SWAP1 PUSH2 0xF69 SWAP3 SWAP2 SWAP1 PUSH2 0x2787 JUMP JUMPDEST POP PUSH1 0x20 DUP3 ADD MLOAD DUP2 PUSH1 0x1 ADD PUSH1 0x0 PUSH2 0x100 EXP DUP2 SLOAD DUP2 PUSH1 0xFF MUL NOT AND SWAP1 DUP4 ISZERO ISZERO MUL OR SWAP1 SSTORE POP PUSH1 0x40 DUP3 ADD MLOAD DUP2 PUSH1 0x1 ADD PUSH1 0x1 PUSH2 0x100 EXP DUP2 SLOAD DUP2 PUSH20 0xFFFFFFFFFFFFFFFFFFFFFFFFFFFFFFFFFFFFFFFF MUL NOT AND SWAP1 DUP4 PUSH20 0xFFFFFFFFFFFFFFFFFFFFFFFFFFFFFFFFFFFFFFFF AND MUL OR SWAP1 SSTORE POP PUSH1 0x60 DUP3 ADD MLOAD DUP2 PUSH1 0x2 ADD SSTORE POP POP POP PUSH1 0x1 PUSH2 0xFE8 PUSH2 0x20EE JUMP JUMPDEST SUB PUSH1 0x13 PUSH1 0x0 CALLER PUSH20 0xFFFFFFFFFFFFFFFFFFFFFFFFFFFFFFFFFFFFFFFF AND PUSH20 0xFFFFFFFFFFFFFFFFFFFFFFFFFFFFFFFFFFFFFFFF AND DUP2 MSTORE PUSH1 0x20 ADD SWAP1 DUP2 MSTORE PUSH1 0x20 ADD PUSH1 0x0 KECCAK256 DUP2 SWAP1 SSTORE POP POP POP POP JUMP JUMPDEST PUSH1 0xB PUSH1 0x20 MSTORE DUP1 PUSH1 0x0 MSTORE PUSH1 0x40 PUSH1 0x0 KECCAK256 PUSH1 0x0 SWAP2 POP SWAP1 POP SLOAD DUP2 JUMP JUMPDEST PUSH1 0xA DUP2 DUP2 SLOAD DUP2 LT PUSH2 0x1056 JUMPI INVALID JUMPDEST SWAP1 PUSH1 0x0 MSTORE PUSH1 0x20 PUSH1 0x0 KECCAK256 ADD PUSH1 0x0 SWAP2 POP SLOAD SWAP1 PUSH2 0x100 EXP SWAP1 DIV PUSH20 0xFFFFFFFFFFFFFFFFFFFFFFFFFFFFFFFFFFFFFFFF AND DUP2 JUMP JUMPDEST PUSH1 0x7 DUP2 DUP2 SLOAD DUP2 LT PUSH2 0x1092 JUMPI INVALID JUMPDEST SWAP1 PUSH1 0x0 MSTORE PUSH1 0x20 PUSH1 0x0 KECCAK256 SWAP1 PUSH1 0x3 MUL ADD PUSH1 0x0 SWAP2 POP SWAP1 POP DUP1 PUSH1 0x0 ADD DUP1 SLOAD PUSH1 0x1 DUP2 PUSH1 0x1 AND ISZERO PUSH2 0x100 MUL SUB AND PUSH1 0x2 SWAP1 DIV DUP1 PUSH1 0x1F ADD PUSH1 0x20 DUP1 SWAP2 DIV MUL PUSH1 0x20 ADD PUSH1 0x40 MLOAD SWAP1 DUP2 ADD PUSH1 0x40 MSTORE DUP1 SWAP3 SWAP2 SWAP1 DUP2 DUP2 MSTORE PUSH1 0x20 ADD DUP3 DUP1 SLOAD PUSH1 0x1 DUP2 PUSH1 0x1 AND ISZERO PUSH2 0x100 MUL SUB AND PUSH1 0x2 SWAP1 DIV DUP1 ISZERO PUSH2 0x113E JUMPI DUP1 PUSH1 0x1F LT PUSH2 0x1113 JUMPI PUSH2 0x100 DUP1 DUP4 SLOAD DIV MUL DUP4 MSTORE SWAP2 PUSH1 0x20 ADD SWAP2 PUSH2 0x113E JUMP JUMPDEST DUP3 ADD SWAP2 SWAP1 PUSH1 0x0 MSTORE PUSH1 0x20 PUSH1 0x0 KECCAK256 SWAP1 JUMPDEST DUP2 SLOAD DUP2 MSTORE SWAP1 PUSH1 0x1 ADD SWAP1 PUSH1 0x20 ADD DUP1 DUP4 GT PUSH2 0x1121 JUMPI DUP3 SWAP1 SUB PUSH1 0x1F AND DUP3 ADD SWAP2 JUMPDEST POP POP POP POP POP SWAP1 DUP1 PUSH1 0x1 ADD PUSH1 0x0 SWAP1 SLOAD SWAP1 PUSH2 0x100 EXP SWAP1 DIV PUSH1 0xFF AND SWAP1 DUP1 PUSH1 0x1 ADD PUSH1 0x1 SWAP1 SLOAD SWAP1 PUSH2 0x100 EXP SWAP1 DIV PUSH20 0xFFFFFFFFFFFFFFFFFFFFFFFFFFFFFFFFFFFFFFFF AND SWAP1 DUP1 PUSH1 0x2 ADD SLOAD SWAP1 POP DUP5 JUMP JUMPDEST PUSH1 0x0 DUP1 PUSH1 0x1 PUSH1 0x0 SWAP1 SLOAD SWAP1 PUSH2 0x100 EXP SWAP1 DIV PUSH20 0xFFFFFFFFFFFFFFFFFFFFFFFFFFFFFFFFFFFFFFFF AND SWAP1 POP PUSH1 0x0 PUSH1 0x8 PUSH1 0x0 CALLER PUSH20 0xFFFFFFFFFFFFFFFFFFFFFFFFFFFFFFFFFFFFFFFF AND PUSH20 0xFFFFFFFFFFFFFFFFFFFFFFFFFFFFFFFFFFFFFFFF AND DUP2 MSTORE PUSH1 0x20 ADD SWAP1 DUP2 MSTORE PUSH1 0x20 ADD PUSH1 0x0 KECCAK256 SLOAD EQ DUP1 ISZERO PUSH2 0x12E6 JUMPI POP DUP1 PUSH20 0xFFFFFFFFFFFFFFFFFFFFFFFFFFFFFFFFFFFFFFFF AND PUSH4 0x902701B7 CALLER ADDRESS PUSH1 0x40 MLOAD DUP4 PUSH4 0xFFFFFFFF AND PUSH1 0xE0 SHL DUP2 MSTORE PUSH1 0x4 ADD DUP1 DUP4 PUSH20 0xFFFFFFFFFFFFFFFFFFFFFFFFFFFFFFFFFFFFFFFF AND PUSH20 0xFFFFFFFFFFFFFFFFFFFFFFFFFFFFFFFFFFFFFFFF AND DUP2 MSTORE PUSH1 0x20 ADD DUP3 PUSH20 0xFFFFFFFFFFFFFFFFFFFFFFFFFFFFFFFFFFFFFFFF AND PUSH20 0xFFFFFFFFFFFFFFFFFFFFFFFFFFFFFFFFFFFFFFFF AND DUP2 MSTORE PUSH1 0x20 ADD SWAP3 POP POP POP PUSH1 0x20 PUSH1 0x40 MLOAD DUP1 DUP4 SUB DUP2 DUP7 DUP1 EXTCODESIZE ISZERO DUP1 ISZERO PUSH2 0x12AA JUMPI PUSH1 0x0 DUP1 REVERT JUMPDEST POP GAS STATICCALL ISZERO DUP1 ISZERO PUSH2 0x12BE JUMPI RETURNDATASIZE PUSH1 0x0 DUP1 RETURNDATACOPY RETURNDATASIZE PUSH1 0x0 REVERT JUMPDEST POP POP POP POP PUSH1 0x40 MLOAD RETURNDATASIZE PUSH1 0x20 DUP2 LT ISZERO PUSH2 0x12D4 JUMPI PUSH1 0x0 DUP1 REVERT JUMPDEST DUP2 ADD SWAP1 DUP1 DUP1 MLOAD SWAP1 PUSH1 0x20 ADD SWAP1 SWAP3 SWAP2 SWAP1 POP POP POP JUMPDEST SWAP2 POP POP SWAP1 JUMP JUMPDEST PUSH1 0x10 SLOAD DUP2 JUMP JUMPDEST PUSH1 0x5 SLOAD DUP2 JUMP JUMPDEST PUSH1 0x0 PUSH1 0x9 DUP1 SLOAD SWAP1 POP SWAP1 POP SWAP1 JUMP JUMPDEST PUSH1 0x6 SLOAD DUP2 JUMP JUMPDEST PUSH1 0x0 DUP1 PUSH1 0x7 PUSH1 0x8 PUSH1 0x0 DUP6 PUSH20 0xFFFFFFFFFFFFFFFFFFFFFFFFFFFFFFFFFFFFFFFF AND PUSH20 0xFFFFFFFFFFFFFFFFFFFFFFFFFFFFFFFFFFFFFFFF AND DUP2 MSTORE PUSH1 0x20 ADD SWAP1 DUP2 MSTORE PUSH1 0x20 ADD PUSH1 0x0 KECCAK256 SLOAD DUP2 SLOAD DUP2 LT PUSH2 0x135A JUMPI INVALID JUMPDEST SWAP1 PUSH1 0x0 MSTORE PUSH1 0x20 PUSH1 0x0 KECCAK256 SWAP1 PUSH1 0x3 MUL ADD SWAP1 POP PUSH1 0x1 PUSH1 0x16 SLOAD EQ DUP1 ISZERO PUSH2 0x138A JUMPI POP DUP1 PUSH1 0x1 ADD PUSH1 0x0 SWAP1 SLOAD SWAP1 PUSH2 0x100 EXP SWAP1 DIV PUSH1 0xFF AND JUMPDEST DUP1 PUSH2 0x13B2 JUMPI POP PUSH1 0x2 PUSH1 0x16 SLOAD EQ DUP1 ISZERO PUSH2 0x13B1 JUMPI POP DUP1 PUSH1 0x1 ADD PUSH1 0x0 SWAP1 SLOAD SWAP1 PUSH2 0x100 EXP SWAP1 DIV PUSH1 0xFF AND ISZERO JUMPDEST JUMPDEST DUP1 PUSH2 0x13BF JUMPI POP PUSH1 0x3 PUSH1 0x16 SLOAD EQ JUMPDEST SWAP2 POP POP SWAP2 SWAP1 POP JUMP JUMPDEST PUSH1 0xD SLOAD DUP2 JUMP JUMPDEST PUSH1 0x13 PUSH1 0x20 MSTORE DUP1 PUSH1 0x0 MSTORE PUSH1 0x40 PUSH1 0x0 KECCAK256 PUSH1 0x0 SWAP2 POP SWAP1 POP SLOAD DUP2 JUMP JUMPDEST PUSH2 0x13ED PUSH2 0x1816 JUMP JUMPDEST PUSH2 0x1442 JUMPI PUSH1 0x40 MLOAD PUSH32 0x8C379A000000000000000000000000000000000000000000000000000000000 DUP2 MSTORE PUSH1 0x4 ADD DUP1 DUP1 PUSH1 0x20 ADD DUP3 DUP2 SUB DUP3 MSTORE PUSH1 0x3D DUP2 MSTORE PUSH1 0x20 ADD DUP1 PUSH2 0x2ACB PUSH1 0x3D SWAP2 CODECOPY PUSH1 0x40 ADD SWAP2 POP POP PUSH1 0x40 MLOAD DUP1 SWAP2 SUB SWAP1 REVERT JUMPDEST PUSH1 0x0 PUSH1 0x8 PUSH1 0x0 CALLER PUSH20 0xFFFFFFFFFFFFFFFFFFFFFFFFFFFFFFFFFFFFFFFF AND PUSH20 0xFFFFFFFFFFFFFFFFFFFFFFFFFFFFFFFFFFFFFFFF AND DUP2 MSTORE PUSH1 0x20 ADD SWAP1 DUP2 MSTORE PUSH1 0x20 ADD PUSH1 0x0 KECCAK256 SLOAD SWAP1 POP PUSH1 0x0 PUSH1 0x7 DUP3 DUP2 SLOAD DUP2 LT PUSH2 0x1495 JUMPI INVALID JUMPDEST SWAP1 PUSH1 0x0 MSTORE PUSH1 0x20 PUSH1 0x0 KECCAK256 SWAP1 PUSH1 0x3 MUL ADD SWAP1 POP PUSH1 0x0 PUSH1 0x16 SLOAD EQ ISZERO PUSH2 0x14B9 JUMPI PUSH2 0x14B8 PUSH2 0x24EB JUMP JUMPDEST JUMPDEST PUSH2 0x14C2 CALLER PUSH2 0x130B JUMP JUMPDEST ISZERO PUSH2 0x15F6 JUMPI CALLER PUSH20 0xFFFFFFFFFFFFFFFFFFFFFFFFFFFFFFFFFFFFFFFF AND PUSH2 0x8FC ADDRESS PUSH20 0xFFFFFFFFFFFFFFFFFFFFFFFFFFFFFFFFFFFFFFFF AND PUSH4 0xFDA9198B PUSH1 0xB PUSH1 0x0 CALLER PUSH20 0xFFFFFFFFFFFFFFFFFFFFFFFFFFFFFFFFFFFFFFFF AND PUSH20 0xFFFFFFFFFFFFFFFFFFFFFFFFFFFFFFFFFFFFFFFF AND DUP2 MSTORE PUSH1 0x20 ADD SWAP1 DUP2 MSTORE PUSH1 0x20 ADD PUSH1 0x0 KECCAK256 SLOAD DUP6 PUSH1 0x1 ADD PUSH1 0x0 SWAP1 SLOAD SWAP1 PUSH2 0x100 EXP SWAP1 DIV PUSH1 0xFF AND PUSH1 0x40 MLOAD DUP4 PUSH4 0xFFFFFFFF AND PUSH1 0xE0 SHL DUP2 MSTORE PUSH1 0x4 ADD DUP1 DUP4 DUP2 MSTORE PUSH1 0x20 ADD DUP3 ISZERO ISZERO ISZERO ISZERO DUP2 MSTORE PUSH1 0x20 ADD SWAP3 POP POP POP PUSH1 0x20 PUSH1 0x40 MLOAD DUP1 DUP4 SUB DUP2 DUP7 DUP1 EXTCODESIZE ISZERO DUP1 ISZERO PUSH2 0x158E JUMPI PUSH1 0x0 DUP1 REVERT JUMPDEST POP GAS STATICCALL ISZERO DUP1 ISZERO PUSH2 0x15A2 JUMPI RETURNDATASIZE PUSH1 0x0 DUP1 RETURNDATACOPY RETURNDATASIZE PUSH1 0x0 REVERT JUMPDEST POP POP POP POP PUSH1 0x40 MLOAD RETURNDATASIZE PUSH1 0x20 DUP2 LT ISZERO PUSH2 0x15B8 JUMPI PUSH1 0x0 DUP1 REVERT JUMPDEST DUP2 ADD SWAP1 DUP1 DUP1 MLOAD SWAP1 PUSH1 0x20 ADD SWAP1 SWAP3 SWAP2 SWAP1 POP POP POP SWAP1 DUP2 ISZERO MUL SWAP1 PUSH1 0x40 MLOAD PUSH1 0x0 PUSH1 0x40 MLOAD DUP1 DUP4 SUB DUP2 DUP6 DUP9 DUP9 CALL SWAP4 POP POP POP POP ISZERO DUP1 ISZERO PUSH2 0x15F4 JUMPI RETURNDATASIZE PUSH1 0x0 DUP1 RETURNDATACOPY RETURNDATASIZE PUSH1 0x0 REVERT JUMPDEST POP JUMPDEST PUSH1 0x0 DUP1 PUSH1 0x0 SWAP1 SLOAD SWAP1 PUSH2 0x100 EXP SWAP1 DIV PUSH20 0xFFFFFFFFFFFFFFFFFFFFFFFFFFFFFFFFFFFFFFFF AND SWAP1 POP DUP1 PUSH20 0xFFFFFFFFFFFFFFFFFFFFFFFFFFFFFFFFFFFFFFFF AND PUSH4 0x5F2AB567 ADDRESS PUSH20 0xFFFFFFFFFFFFFFFFFFFFFFFFFFFFFFFFFFFFFFFF AND PUSH4 0xC50EB984 PUSH1 0xF PUSH1 0x0 CALLER PUSH20 0xFFFFFFFFFFFFFFFFFFFFFFFFFFFFFFFFFFFFFFFF AND PUSH20 0xFFFFFFFFFFFFFFFFFFFFFFFFFFFFFFFFFFFFFFFF AND DUP2 MSTORE PUSH1 0x20 ADD SWAP1 DUP2 MSTORE PUSH1 0x20 ADD PUSH1 0x0 KECCAK256 SLOAD CALLER PUSH1 0x40 MLOAD DUP4 PUSH4 0xFFFFFFFF AND PUSH1 0xE0 SHL DUP2 MSTORE PUSH1 0x4 ADD DUP1 DUP4 DUP2 MSTORE PUSH1 0x20 ADD DUP3 PUSH20 0xFFFFFFFFFFFFFFFFFFFFFFFFFFFFFFFFFFFFFFFF AND PUSH20 0xFFFFFFFFFFFFFFFFFFFFFFFFFFFFFFFFFFFFFFFF AND DUP2 MSTORE PUSH1 0x20 ADD SWAP3 POP POP POP PUSH1 0x20 PUSH1 0x40 MLOAD DUP1 DUP4 SUB DUP2 DUP7 DUP1 EXTCODESIZE ISZERO DUP1 ISZERO PUSH2 0x16FC JUMPI PUSH1 0x0 DUP1 REVERT JUMPDEST POP GAS STATICCALL ISZERO DUP1 ISZERO PUSH2 0x1710 JUMPI RETURNDATASIZE PUSH1 0x0 DUP1 RETURNDATACOPY RETURNDATASIZE PUSH1 0x0 REVERT JUMPDEST POP POP POP POP PUSH1 0x40 MLOAD RETURNDATASIZE PUSH1 0x20 DUP2 LT ISZERO PUSH2 0x1726 JUMPI PUSH1 0x0 DUP1 REVERT JUMPDEST DUP2 ADD SWAP1 DUP1 DUP1 MLOAD SWAP1 PUSH1 0x20 ADD SWAP1 SWAP3 SWAP2 SWAP1 POP POP POP CALLER PUSH1 0x40 MLOAD DUP4 PUSH4 0xFFFFFFFF AND PUSH1 0xE0 SHL DUP2 MSTORE PUSH1 0x4 ADD DUP1 DUP4 DUP2 MSTORE PUSH1 0x20 ADD DUP3 PUSH20 0xFFFFFFFFFFFFFFFFFFFFFFFFFFFFFFFFFFFFFFFF AND PUSH20 0xFFFFFFFFFFFFFFFFFFFFFFFFFFFFFFFFFFFFFFFF AND DUP2 MSTORE PUSH1 0x20 ADD SWAP3 POP POP POP PUSH1 0x0 PUSH1 0x40 MLOAD DUP1 DUP4 SUB DUP2 PUSH1 0x0 DUP8 DUP1 EXTCODESIZE ISZERO DUP1 ISZERO PUSH2 0x17A1 JUMPI PUSH1 0x0 DUP1 REVERT JUMPDEST POP GAS CALL ISZERO DUP1 ISZERO PUSH2 0x17B5 JUMPI RETURNDATASIZE PUSH1 0x0 DUP1 RETURNDATACOPY RETURNDATASIZE PUSH1 0x0 REVERT JUMPDEST POP POP POP POP PUSH1 0x1 PUSH1 0x14 PUSH1 0x0 CALLER PUSH20 0xFFFFFFFFFFFFFFFFFFFFFFFFFFFFFFFFFFFFFFFF AND PUSH20 0xFFFFFFFFFFFFFFFFFFFFFFFFFFFFFFFFFFFFFFFF AND DUP2 MSTORE PUSH1 0x20 ADD SWAP1 DUP2 MSTORE PUSH1 0x20 ADD PUSH1 0x0 KECCAK256 PUSH1 0x0 PUSH2 0x100 EXP DUP2 SLOAD DUP2 PUSH1 0xFF MUL NOT AND SWAP1 DUP4 ISZERO ISZERO MUL OR SWAP1 SSTORE POP POP POP POP JUMP JUMPDEST PUSH1 0x0 DUP1 PUSH1 0x8 PUSH1 0x0 CALLER PUSH20 0xFFFFFFFFFFFFFFFFFFFFFFFFFFFFFFFFFFFFFFFF AND PUSH20 0xFFFFFFFFFFFFFFFFFFFFFFFFFFFFFFFFFFFFFFFF AND DUP2 MSTORE PUSH1 0x20 ADD SWAP1 DUP2 MSTORE PUSH1 0x20 ADD PUSH1 0x0 KECCAK256 SLOAD SWAP1 POP PUSH1 0x6 SLOAD TIMESTAMP GT DUP1 ISZERO PUSH2 0x186D JUMPI POP PUSH1 0x0 DUP2 EQ ISZERO JUMPDEST DUP1 ISZERO PUSH2 0x18C3 JUMPI POP PUSH1 0x14 PUSH1 0x0 CALLER PUSH20 0xFFFFFFFFFFFFFFFFFFFFFFFFFFFFFFFFFFFFFFFF AND PUSH20 0xFFFFFFFFFFFFFFFFFFFFFFFFFFFFFFFFFFFFFFFF AND DUP2 MSTORE PUSH1 0x20 ADD SWAP1 DUP2 MSTORE PUSH1 0x20 ADD PUSH1 0x0 KECCAK256 PUSH1 0x0 SWAP1 SLOAD SWAP1 PUSH2 0x100 EXP SWAP1 DIV PUSH1 0xFF AND ISZERO JUMPDEST SWAP2 POP POP SWAP1 JUMP JUMPDEST PUSH1 0x0 PUSH1 0xA DUP1 SLOAD SWAP1 POP SWAP1 POP SWAP1 JUMP JUMPDEST PUSH1 0x0 PUSH1 0x1 SWAP1 POP SWAP1 JUMP JUMPDEST PUSH1 0xC SLOAD DUP2 JUMP JUMPDEST PUSH1 0x3 DUP1 SLOAD PUSH1 0x1 DUP2 PUSH1 0x1 AND ISZERO PUSH2 0x100 MUL SUB AND PUSH1 0x2 SWAP1 DIV DUP1 PUSH1 0x1F ADD PUSH1 0x20 DUP1 SWAP2 DIV MUL PUSH1 0x20 ADD PUSH1 0x40 MLOAD SWAP1 DUP2 ADD PUSH1 0x40 MSTORE DUP1 SWAP3 SWAP2 SWAP1 DUP2 DUP2 MSTORE PUSH1 0x20 ADD DUP3 DUP1 SLOAD PUSH1 0x1 DUP2 PUSH1 0x1 AND ISZERO PUSH2 0x100 MUL SUB AND PUSH1 0x2 SWAP1 DIV DUP1 ISZERO PUSH2 0x197B JUMPI DUP1 PUSH1 0x1F LT PUSH2 0x1950 JUMPI PUSH2 0x100 DUP1 DUP4 SLOAD DIV MUL DUP4 MSTORE SWAP2 PUSH1 0x20 ADD SWAP2 PUSH2 0x197B JUMP JUMPDEST DUP3 ADD SWAP2 SWAP1 PUSH1 0x0 MSTORE PUSH1 0x20 PUSH1 0x0 KECCAK256 SWAP1 JUMPDEST DUP2 SLOAD DUP2 MSTORE SWAP1 PUSH1 0x1 ADD SWAP1 PUSH1 0x20 ADD DUP1 DUP4 GT PUSH2 0x195E JUMPI DUP3 SWAP1 SUB PUSH1 0x1F AND DUP3 ADD SWAP2 JUMPDEST POP POP POP POP POP DUP2 JUMP JUMPDEST PUSH1 0x4 PUSH1 0x0 SWAP1 SLOAD SWAP1 PUSH2 0x100 EXP SWAP1 DIV PUSH20 0xFFFFFFFFFFFFFFFFFFFFFFFFFFFFFFFFFFFFFFFF AND PUSH20 0xFFFFFFFFFFFFFFFFFFFFFFFFFFFFFFFFFFFFFFFF AND CALLER PUSH20 0xFFFFFFFFFFFFFFFFFFFFFFFFFFFFFFFFFFFFFFFF AND EQ PUSH2 0x1A29 JUMPI PUSH1 0x40 MLOAD PUSH32 0x8C379A000000000000000000000000000000000000000000000000000000000 DUP2 MSTORE PUSH1 0x4 ADD DUP1 DUP1 PUSH1 0x20 ADD DUP3 DUP2 SUB DUP3 MSTORE PUSH1 0x3A DUP2 MSTORE PUSH1 0x20 ADD DUP1 PUSH2 0x2A66 PUSH1 0x3A SWAP2 CODECOPY PUSH1 0x40 ADD SWAP2 POP POP PUSH1 0x40 MLOAD DUP1 SWAP2 SUB SWAP1 REVERT JUMPDEST PUSH1 0x0 PUSH2 0x1A33 PUSH2 0x18C9 JUMP JUMPDEST PUSH2 0x1A3B PUSH2 0x12F8 JUMP JUMPDEST ADD EQ PUSH2 0x1A92 JUMPI PUSH1 0x40 MLOAD PUSH32 0x8C379A000000000000000000000000000000000000000000000000000000000 DUP2 MSTORE PUSH1 0x4 ADD DUP1 DUP1 PUSH1 0x20 ADD DUP3 DUP2 SUB DUP3 MSTORE PUSH1 0x3D DUP2 MSTORE PUSH1 0x20 ADD DUP1 PUSH2 0x299F PUSH1 0x3D SWAP2 CODECOPY PUSH1 0x40 ADD SWAP2 POP POP PUSH1 0x40 MLOAD DUP1 SWAP2 SUB SWAP1 REVERT JUMPDEST PUSH1 0x6 SLOAD TIMESTAMP GT PUSH2 0x1AEC JUMPI PUSH1 0x40 MLOAD PUSH32 0x8C379A000000000000000000000000000000000000000000000000000000000 DUP2 MSTORE PUSH1 0x4 ADD DUP1 DUP1 PUSH1 0x20 ADD DUP3 DUP2 SUB DUP3 MSTORE PUSH1 0x36 DUP2 MSTORE PUSH1 0x20 ADD DUP1 PUSH2 0x28AD PUSH1 0x36 SWAP2 CODECOPY PUSH1 0x40 ADD SWAP2 POP POP PUSH1 0x40 MLOAD DUP1 SWAP2 SUB SWAP1 REVERT JUMPDEST CALLER PUSH20 0xFFFFFFFFFFFFFFFFFFFFFFFFFFFFFFFFFFFFFFFF AND PUSH2 0x8FC SELFBALANCE SWAP1 DUP2 ISZERO MUL SWAP1 PUSH1 0x40 MLOAD PUSH1 0x0 PUSH1 0x40 MLOAD DUP1 DUP4 SUB DUP2 DUP6 DUP9 DUP9 CALL SWAP4 POP POP POP POP ISZERO DUP1 ISZERO PUSH2 0x1B32 JUMPI RETURNDATASIZE PUSH1 0x0 DUP1 RETURNDATACOPY RETURNDATASIZE PUSH1 0x0 REVERT JUMPDEST POP PUSH2 0x1B3B PUSH2 0x266B JUMP JUMPDEST PUSH1 0x1 PUSH1 0x14 PUSH1 0x0 CALLER PUSH20 0xFFFFFFFFFFFFFFFFFFFFFFFFFFFFFFFFFFFFFFFF AND PUSH20 0xFFFFFFFFFFFFFFFFFFFFFFFFFFFFFFFFFFFFFFFF AND DUP2 MSTORE PUSH1 0x20 ADD SWAP1 DUP2 MSTORE PUSH1 0x20 ADD PUSH1 0x0 KECCAK256 PUSH1 0x0 PUSH2 0x100 EXP DUP2 SLOAD DUP2 PUSH1 0xFF MUL NOT AND SWAP1 DUP4 ISZERO ISZERO MUL OR SWAP1 SSTORE POP JUMP JUMPDEST PUSH1 0x8 PUSH1 0x20 MSTORE DUP1 PUSH1 0x0 MSTORE PUSH1 0x40 PUSH1 0x0 KECCAK256 PUSH1 0x0 SWAP2 POP SWAP1 POP SLOAD DUP2 JUMP JUMPDEST PUSH1 0x6 SLOAD TIMESTAMP LT PUSH2 0x1C07 JUMPI PUSH1 0x40 MLOAD PUSH32 0x8C379A000000000000000000000000000000000000000000000000000000000 DUP2 MSTORE PUSH1 0x4 ADD DUP1 DUP1 PUSH1 0x20 ADD DUP3 DUP2 SUB DUP3 MSTORE PUSH1 0x2B DUP2 MSTORE PUSH1 0x20 ADD DUP1 PUSH2 0x2AA0 PUSH1 0x2B SWAP2 CODECOPY PUSH1 0x40 ADD SWAP2 POP POP PUSH1 0x40 MLOAD DUP1 SWAP2 SUB SWAP1 REVERT JUMPDEST PUSH1 0x0 DUP3 EQ ISZERO PUSH2 0x1C61 JUMPI PUSH1 0x40 MLOAD PUSH32 0x8C379A000000000000000000000000000000000000000000000000000000000 DUP2 MSTORE PUSH1 0x4 ADD DUP1 DUP1 PUSH1 0x20 ADD DUP3 DUP2 SUB DUP3 MSTORE PUSH1 0x3B DUP2 MSTORE PUSH1 0x20 ADD DUP1 PUSH2 0x2B08 PUSH1 0x3B SWAP2 CODECOPY PUSH1 0x40 ADD SWAP2 POP POP PUSH1 0x40 MLOAD DUP1 SWAP2 SUB SWAP1 REVERT JUMPDEST PUSH1 0x5 SLOAD CALLVALUE LT ISZERO PUSH2 0x1CBC JUMPI PUSH1 0x40 MLOAD PUSH32 0x8C379A000000000000000000000000000000000000000000000000000000000 DUP2 MSTORE PUSH1 0x4 ADD DUP1 DUP1 PUSH1 0x20 ADD DUP3 DUP2 SUB DUP3 MSTORE PUSH1 0x46 DUP2 MSTORE PUSH1 0x20 ADD DUP1 PUSH2 0x291A PUSH1 0x46 SWAP2 CODECOPY PUSH1 0x60 ADD SWAP2 POP POP PUSH1 0x40 MLOAD DUP1 SWAP2 SUB SWAP1 REVERT JUMPDEST PUSH2 0x1CC4 PUSH2 0x1187 JUMP JUMPDEST PUSH2 0x1D19 JUMPI PUSH1 0x40 MLOAD PUSH32 0x8C379A000000000000000000000000000000000000000000000000000000000 DUP2 MSTORE PUSH1 0x4 ADD DUP1 DUP1 PUSH1 0x20 ADD DUP3 DUP2 SUB DUP3 MSTORE PUSH1 0x4B DUP2 MSTORE PUSH1 0x20 ADD DUP1 PUSH2 0x2B65 PUSH1 0x4B SWAP2 CODECOPY PUSH1 0x60 ADD SWAP2 POP POP PUSH1 0x40 MLOAD DUP1 SWAP2 SUB SWAP1 REVERT JUMPDEST PUSH1 0x0 PUSH1 0x64 PUSH1 0x2 CALLVALUE MUL DUP2 PUSH2 0x1D28 JUMPI INVALID JUMPDEST DIV SWAP1 POP PUSH1 0x0 DUP2 CALLVALUE SUB SWAP1 POP PUSH1 0x0 PUSH1 0x4 PUSH1 0x0 SWAP1 SLOAD SWAP1 PUSH2 0x100 EXP SWAP1 DIV PUSH20 0xFFFFFFFFFFFFFFFFFFFFFFFFFFFFFFFFFFFFFFFF AND SWAP1 POP DUP1 PUSH20 0xFFFFFFFFFFFFFFFFFFFFFFFFFFFFFFFFFFFFFFFF AND PUSH2 0x8FC DUP5 SWAP1 DUP2 ISZERO MUL SWAP1 PUSH1 0x40 MLOAD PUSH1 0x0 PUSH1 0x40 MLOAD DUP1 DUP4 SUB DUP2 DUP6 DUP9 DUP9 CALL SWAP4 POP POP POP POP ISZERO DUP1 ISZERO PUSH2 0x1D9F JUMPI RETURNDATASIZE PUSH1 0x0 DUP1 RETURNDATACOPY RETURNDATASIZE PUSH1 0x0 REVERT JUMPDEST POP PUSH1 0x0 DUP1 SWAP1 SLOAD SWAP1 PUSH2 0x100 EXP SWAP1 DIV PUSH20 0xFFFFFFFFFFFFFFFFFFFFFFFFFFFFFFFFFFFFFFFF AND PUSH20 0xFFFFFFFFFFFFFFFFFFFFFFFFFFFFFFFFFFFFFFFF AND PUSH4 0x37C10389 ADDRESS DUP7 CALLER PUSH1 0x40 MLOAD DUP5 PUSH4 0xFFFFFFFF AND PUSH1 0xE0 SHL DUP2 MSTORE PUSH1 0x4 ADD DUP1 DUP5 PUSH20 0xFFFFFFFFFFFFFFFFFFFFFFFFFFFFFFFFFFFFFFFF AND PUSH20 0xFFFFFFFFFFFFFFFFFFFFFFFFFFFFFFFFFFFFFFFF AND DUP2 MSTORE PUSH1 0x20 ADD DUP4 DUP2 MSTORE PUSH1 0x20 ADD DUP3 PUSH20 0xFFFFFFFFFFFFFFFFFFFFFFFFFFFFFFFFFFFFFFFF AND PUSH20 0xFFFFFFFFFFFFFFFFFFFFFFFFFFFFFFFFFFFFFFFF AND DUP2 MSTORE PUSH1 0x20 ADD SWAP4 POP POP POP POP PUSH1 0x0 PUSH1 0x40 MLOAD DUP1 DUP4 SUB DUP2 PUSH1 0x0 DUP8 DUP1 EXTCODESIZE ISZERO DUP1 ISZERO PUSH2 0x1E7C JUMPI PUSH1 0x0 DUP1 REVERT JUMPDEST POP GAS CALL ISZERO DUP1 ISZERO PUSH2 0x1E90 JUMPI RETURNDATASIZE PUSH1 0x0 DUP1 RETURNDATACOPY RETURNDATASIZE PUSH1 0x0 REVERT JUMPDEST POP POP POP POP DUP5 PUSH1 0x8 PUSH1 0x0 CALLER PUSH20 0xFFFFFFFFFFFFFFFFFFFFFFFFFFFFFFFFFFFFFFFF AND PUSH20 0xFFFFFFFFFFFFFFFFFFFFFFFFFFFFFFFFFFFFFFFF AND DUP2 MSTORE PUSH1 0x20 ADD SWAP1 DUP2 MSTORE PUSH1 0x20 ADD PUSH1 0x0 KECCAK256 DUP2 SWAP1 SSTORE POP DUP2 PUSH1 0xB PUSH1 0x0 CALLER PUSH20 0xFFFFFFFFFFFFFFFFFFFFFFFFFFFFFFFFFFFFFFFF AND PUSH20 0xFFFFFFFFFFFFFFFFFFFFFFFFFFFFFFFFFFFFFFFF AND DUP2 MSTORE PUSH1 0x20 ADD SWAP1 DUP2 MSTORE PUSH1 0x20 ADD PUSH1 0x0 KECCAK256 DUP2 SWAP1 SSTORE POP DUP4 PUSH1 0xF PUSH1 0x0 CALLER PUSH20 0xFFFFFFFFFFFFFFFFFFFFFFFFFFFFFFFFFFFFFFFF AND PUSH20 0xFFFFFFFFFFFFFFFFFFFFFFFFFFFFFFFFFFFFFFFF AND DUP2 MSTORE PUSH1 0x20 ADD SWAP1 DUP2 MSTORE PUSH1 0x20 ADD PUSH1 0x0 KECCAK256 DUP2 SWAP1 SSTORE POP DUP4 PUSH1 0x12 PUSH1 0x0 DUP3 DUP3 SLOAD ADD SWAP3 POP POP DUP2 SWAP1 SSTORE POP PUSH1 0x7 DUP6 DUP2 SLOAD DUP2 LT PUSH2 0x1F7D JUMPI INVALID JUMPDEST SWAP1 PUSH1 0x0 MSTORE PUSH1 0x20 PUSH1 0x0 KECCAK256 SWAP1 PUSH1 0x3 MUL ADD PUSH1 0x2 ADD PUSH1 0x0 DUP2 SLOAD DUP1 SWAP3 SWAP2 SWAP1 PUSH1 0x1 ADD SWAP2 SWAP1 POP SSTORE POP PUSH1 0x7 DUP6 DUP2 SLOAD DUP2 LT PUSH2 0x1FAB JUMPI INVALID JUMPDEST SWAP1 PUSH1 0x0 MSTORE PUSH1 0x20 PUSH1 0x0 KECCAK256 SWAP1 PUSH1 0x3 MUL ADD PUSH1 0x1 ADD PUSH1 0x0 SWAP1 SLOAD SWAP1 PUSH2 0x100 EXP SWAP1 DIV PUSH1 0xFF AND ISZERO PUSH2 0x205A JUMPI PUSH1 0x9 CALLER SWAP1 DUP1 PUSH1 0x1 DUP2 SLOAD ADD DUP1 DUP3 SSTORE DUP1 SWAP2 POP POP SWAP1 PUSH1 0x1 DUP3 SUB SWAP1 PUSH1 0x0 MSTORE PUSH1 0x20 PUSH1 0x0 KECCAK256 ADD PUSH1 0x0 SWAP1 SWAP2 SWAP3 SWAP1 SWAP2 SWAP1 SWAP2 PUSH2 0x100 EXP DUP2 SLOAD DUP2 PUSH20 0xFFFFFFFFFFFFFFFFFFFFFFFFFFFFFFFFFFFFFFFF MUL NOT AND SWAP1 DUP4 PUSH20 0xFFFFFFFFFFFFFFFFFFFFFFFFFFFFFFFFFFFFFFFF AND MUL OR SWAP1 SSTORE POP POP DUP4 PUSH1 0x10 PUSH1 0x0 DUP3 DUP3 SLOAD ADD SWAP3 POP POP DUP2 SWAP1 SSTORE POP DUP2 PUSH1 0xC PUSH1 0x0 DUP3 DUP3 SLOAD ADD SWAP3 POP POP DUP2 SWAP1 SSTORE POP PUSH2 0x20E1 JUMP JUMPDEST PUSH1 0xA CALLER SWAP1 DUP1 PUSH1 0x1 DUP2 SLOAD ADD DUP1 DUP3 SSTORE DUP1 SWAP2 POP POP SWAP1 PUSH1 0x1 DUP3 SUB SWAP1 PUSH1 0x0 MSTORE PUSH1 0x20 PUSH1 0x0 KECCAK256 ADD PUSH1 0x0 SWAP1 SWAP2 SWAP3 SWAP1 SWAP2 SWAP1 SWAP2 PUSH2 0x100 EXP DUP2 SLOAD DUP2 PUSH20 0xFFFFFFFFFFFFFFFFFFFFFFFFFFFFFFFFFFFFFFFF MUL NOT AND SWAP1 DUP4 PUSH20 0xFFFFFFFFFFFFFFFFFFFFFFFFFFFFFFFFFFFFFFFF AND MUL OR SWAP1 SSTORE POP POP DUP4 PUSH1 0x11 PUSH1 0x0 DUP3 DUP3 SLOAD ADD SWAP3 POP POP DUP2 SWAP1 SSTORE POP DUP2 PUSH1 0xD PUSH1 0x0 DUP3 DUP3 SLOAD ADD SWAP3 POP POP DUP2 SWAP1 SSTORE POP JUMPDEST POP POP POP POP POP JUMP JUMPDEST PUSH1 0x16 SLOAD DUP2 JUMP JUMPDEST PUSH1 0x0 PUSH1 0x7 DUP1 SLOAD SWAP1 POP SWAP1 POP SWAP1 JUMP JUMPDEST PUSH1 0x0 PUSH2 0x2106 DUP3 PUSH2 0x130B JUMP JUMPDEST ISZERO PUSH2 0x2120 JUMPI PUSH1 0xA PUSH1 0xB DUP5 MUL DUP2 PUSH2 0x2118 JUMPI INVALID JUMPDEST DIV SWAP1 POP PUSH2 0x2131 JUMP JUMPDEST PUSH1 0xA PUSH1 0x8 DUP5 MUL DUP2 PUSH2 0x212D JUMPI INVALID JUMPDEST DIV SWAP1 POP JUMPDEST SWAP3 SWAP2 POP POP JUMP JUMPDEST PUSH1 0x14 PUSH1 0x20 MSTORE DUP1 PUSH1 0x0 MSTORE PUSH1 0x40 PUSH1 0x0 KECCAK256 PUSH1 0x0 SWAP2 POP SLOAD SWAP1 PUSH2 0x100 EXP SWAP1 DIV PUSH1 0xFF AND DUP2 JUMP JUMPDEST PUSH1 0xF PUSH1 0x20 MSTORE DUP1 PUSH1 0x0 MSTORE PUSH1 0x40 PUSH1 0x0 KECCAK256 PUSH1 0x0 SWAP2 POP SWAP1 POP SLOAD DUP2 JUMP JUMPDEST PUSH1 0x11 SLOAD DUP2 JUMP JUMPDEST PUSH1 0x9 DUP2 DUP2 SLOAD DUP2 LT PUSH2 0x2182 JUMPI INVALID JUMPDEST SWAP1 PUSH1 0x0 MSTORE PUSH1 0x20 PUSH1 0x0 KECCAK256 ADD PUSH1 0x0 SWAP2 POP SLOAD SWAP1 PUSH2 0x100 EXP SWAP1 DIV PUSH20 0xFFFFFFFFFFFFFFFFFFFFFFFFFFFFFFFFFFFFFFFF AND DUP2 JUMP JUMPDEST PUSH1 0x12 SLOAD DUP2 JUMP JUMPDEST PUSH1 0x6 SLOAD TIMESTAMP LT PUSH2 0x2211 JUMPI PUSH1 0x40 MLOAD PUSH32 0x8C379A000000000000000000000000000000000000000000000000000000000 DUP2 MSTORE PUSH1 0x4 ADD DUP1 DUP1 PUSH1 0x20 ADD DUP3 DUP2 SUB DUP3 MSTORE PUSH1 0x2B DUP2 MSTORE PUSH1 0x20 ADD DUP1 PUSH2 0x2AA0 PUSH1 0x2B SWAP2 CODECOPY PUSH1 0x40 ADD SWAP2 POP POP PUSH1 0x40 MLOAD DUP1 SWAP2 SUB SWAP1 REVERT JUMPDEST PUSH1 0x0 PUSH1 0x7 DUP5 DUP2 SLOAD DUP2 LT PUSH2 0x2220 JUMPI INVALID JUMPDEST SWAP1 PUSH1 0x0 MSTORE PUSH1 0x20 PUSH1 0x0 KECCAK256 SWAP1 PUSH1 0x3 MUL ADD SWAP1 POP CALLER PUSH20 0xFFFFFFFFFFFFFFFFFFFFFFFFFFFFFFFFFFFFFFFF AND DUP2 PUSH1 0x1 ADD PUSH1 0x1 SWAP1 SLOAD SWAP1 PUSH2 0x100 EXP SWAP1 DIV PUSH20 0xFFFFFFFFFFFFFFFFFFFFFFFFFFFFFFFFFFFFFFFF AND PUSH20 0xFFFFFFFFFFFFFFFFFFFFFFFFFFFFFFFFFFFFFFFF AND EQ PUSH2 0x22D8 JUMPI PUSH1 0x40 MLOAD PUSH32 0x8C379A000000000000000000000000000000000000000000000000000000000 DUP2 MSTORE PUSH1 0x4 ADD DUP1 DUP1 PUSH1 0x20 ADD DUP3 DUP2 SUB DUP3 MSTORE PUSH1 0x3F DUP2 MSTORE PUSH1 0x20 ADD DUP1 PUSH2 0x2960 PUSH1 0x3F SWAP2 CODECOPY PUSH1 0x40 ADD SWAP2 POP POP PUSH1 0x40 MLOAD DUP1 SWAP2 SUB SWAP1 REVERT JUMPDEST PUSH1 0x0 DUP2 PUSH1 0x2 ADD SLOAD EQ PUSH2 0x2335 JUMPI PUSH1 0x40 MLOAD PUSH32 0x8C379A000000000000000000000000000000000000000000000000000000000 DUP2 MSTORE PUSH1 0x4 ADD DUP1 DUP1 PUSH1 0x20 ADD DUP3 DUP2 SUB DUP3 MSTORE PUSH1 0x37 DUP2 MSTORE PUSH1 0x20 ADD DUP1 PUSH2 0x28E3 PUSH1 0x37 SWAP2 CODECOPY PUSH1 0x40 ADD SWAP2 POP POP PUSH1 0x40 MLOAD DUP1 SWAP2 SUB SWAP1 REVERT JUMPDEST DUP3 DUP2 PUSH1 0x0 ADD SWAP1 DUP1 MLOAD SWAP1 PUSH1 0x20 ADD SWAP1 PUSH2 0x234D SWAP3 SWAP2 SWAP1 PUSH2 0x2807 JUMP JUMPDEST POP DUP2 DUP2 PUSH1 0x1 ADD PUSH1 0x0 PUSH2 0x100 EXP DUP2 SLOAD DUP2 PUSH1 0xFF MUL NOT AND SWAP1 DUP4 ISZERO ISZERO MUL OR SWAP1 SSTORE POP POP POP POP POP JUMP JUMPDEST PUSH1 0x0 SELFBALANCE SWAP1 POP SWAP1 JUMP JUMPDEST PUSH1 0x15 PUSH1 0x0 SWAP1 SLOAD SWAP1 PUSH2 0x100 EXP SWAP1 DIV PUSH1 0xFF AND DUP2 JUMP JUMPDEST PUSH1 0xE SLOAD DUP2 JUMP JUMPDEST PUSH1 0x0 DUP1 PUSH1 0x0 DUP1 PUSH1 0x0 DUP1 PUSH1 0x0 DUP1 PUSH1 0x0 DUP1 PUSH1 0x0 PUSH1 0x4 PUSH1 0x0 SWAP1 SLOAD SWAP1 PUSH2 0x100 EXP SWAP1 DIV PUSH20 0xFFFFFFFFFFFFFFFFFFFFFFFFFFFFFFFFFFFFFFFF AND PUSH1 0x5 SLOAD PUSH1 0x6 SLOAD PUSH1 0x15 PUSH1 0x0 SWAP1 SLOAD SWAP1 PUSH2 0x100 EXP SWAP1 DIV PUSH1 0xFF AND PUSH2 0x23E3 PUSH2 0x1816 JUMP JUMPDEST PUSH1 0x14 PUSH1 0x0 CALLER PUSH20 0xFFFFFFFFFFFFFFFFFFFFFFFFFFFFFFFFFFFFFFFF AND PUSH20 0xFFFFFFFFFFFFFFFFFFFFFFFFFFFFFFFFFFFFFFFF AND DUP2 MSTORE PUSH1 0x20 ADD SWAP1 DUP2 MSTORE PUSH1 0x20 ADD PUSH1 0x0 KECCAK256 PUSH1 0x0 SWAP1 SLOAD SWAP1 PUSH2 0x100 EXP SWAP1 DIV PUSH1 0xFF AND SELFBALANCE PUSH2 0x2439 PUSH2 0x12F8 JUMP JUMPDEST PUSH2 0x2441 PUSH2 0x18C9 JUMP JUMPDEST PUSH1 0x10 SLOAD PUSH1 0x11 SLOAD SWAP11 POP SWAP11 POP SWAP11 POP SWAP11 POP SWAP11 POP SWAP11 POP SWAP11 POP SWAP11 POP SWAP11 POP SWAP11 POP SWAP11 POP SWAP1 SWAP2 SWAP3 SWAP4 SWAP5 SWAP6 SWAP7 SWAP8 SWAP9 SWAP10 SWAP11 JUMP JUMPDEST PUSH1 0x0 DUP1 DUP3 ISZERO PUSH2 0x247D JUMPI PUSH1 0xC SLOAD SWAP1 POP PUSH2 0x2483 JUMP JUMPDEST PUSH1 0xD SLOAD SWAP1 POP JUMPDEST PUSH1 0x0 DUP2 GT PUSH2 0x2495 JUMPI PUSH1 0x0 SWAP2 POP POP PUSH2 0x24E5 JUMP JUMPDEST PUSH1 0x15 PUSH1 0x0 SWAP1 SLOAD SWAP1 PUSH2 0x100 EXP SWAP1 DIV PUSH1 0xFF AND ISZERO PUSH2 0x24D5 JUMPI PUSH1 0x3 PUSH1 0x16 SLOAD EQ ISZERO PUSH2 0x24BF JUMPI PUSH1 0xD SLOAD PUSH1 0xC SLOAD ADD SWAP1 POP JUMPDEST DUP1 DUP5 PUSH1 0xE SLOAD MUL DUP2 PUSH2 0x24CC JUMPI INVALID JUMPDEST DIV SWAP2 POP POP PUSH2 0x24E5 JUMP JUMPDEST DUP1 DUP5 SELFBALANCE MUL DUP2 PUSH2 0x24E0 JUMPI INVALID JUMPDEST DIV SWAP2 POP POP JUMPDEST SWAP3 SWAP2 POP POP JUMP JUMPDEST PUSH1 0x0 PUSH1 0x16 SLOAD EQ PUSH2 0x2546 JUMPI PUSH1 0x40 MLOAD PUSH32 0x8C379A000000000000000000000000000000000000000000000000000000000 DUP2 MSTORE PUSH1 0x4 ADD DUP1 DUP1 PUSH1 0x20 ADD DUP3 DUP2 SUB DUP3 MSTORE PUSH1 0x22 DUP2 MSTORE PUSH1 0x20 ADD DUP1 PUSH2 0x2B43 PUSH1 0x22 SWAP2 CODECOPY PUSH1 0x40 ADD SWAP2 POP POP PUSH1 0x40 MLOAD DUP1 SWAP2 SUB SWAP1 REVERT JUMPDEST PUSH1 0x0 ISZERO ISZERO PUSH1 0x15 PUSH1 0x0 SWAP1 SLOAD SWAP1 PUSH2 0x100 EXP SWAP1 DIV PUSH1 0xFF AND ISZERO ISZERO EQ PUSH2 0x25B2 JUMPI PUSH1 0x40 MLOAD PUSH32 0x8C379A000000000000000000000000000000000000000000000000000000000 DUP2 MSTORE PUSH1 0x4 ADD DUP1 DUP1 PUSH1 0x20 ADD DUP3 DUP2 SUB DUP3 MSTORE PUSH1 0x25 DUP2 MSTORE PUSH1 0x20 ADD DUP1 PUSH2 0x29DC PUSH1 0x25 SWAP2 CODECOPY PUSH1 0x40 ADD SWAP2 POP POP PUSH1 0x40 MLOAD DUP1 SWAP2 SUB SWAP1 REVERT JUMPDEST PUSH1 0x6 SLOAD TIMESTAMP GT PUSH2 0x260C JUMPI PUSH1 0x40 MLOAD PUSH32 0x8C379A000000000000000000000000000000000000000000000000000000000 DUP2 MSTORE PUSH1 0x4 ADD DUP1 DUP1 PUSH1 0x20 ADD DUP3 DUP2 SUB DUP3 MSTORE PUSH1 0x40 DUP2 MSTORE PUSH1 0x20 ADD DUP1 PUSH2 0x2A01 PUSH1 0x40 SWAP2 CODECOPY PUSH1 0x40 ADD SWAP2 POP POP PUSH1 0x40 MLOAD DUP1 SWAP2 SUB SWAP1 REVERT JUMPDEST PUSH1 0x0 PUSH2 0x2616 PUSH2 0x12F8 JUMP JUMPDEST SWAP1 POP PUSH1 0x0 PUSH2 0x2622 PUSH2 0x18C9 JUMP JUMPDEST SWAP1 POP DUP1 DUP3 GT ISZERO PUSH2 0x2639 JUMPI PUSH1 0x1 PUSH1 0x16 DUP2 SWAP1 SSTORE POP PUSH2 0x2658 JUMP JUMPDEST DUP1 DUP3 LT ISZERO PUSH2 0x264E JUMPI PUSH1 0x2 PUSH1 0x16 DUP2 SWAP1 SSTORE POP PUSH2 0x2657 JUMP JUMPDEST PUSH1 0x3 PUSH1 0x16 DUP2 SWAP1 SSTORE POP JUMPDEST JUMPDEST SELFBALANCE PUSH1 0xE DUP2 SWAP1 SSTORE POP PUSH2 0x2667 PUSH2 0x266B JUMP JUMPDEST POP POP JUMP JUMPDEST PUSH1 0x1 PUSH1 0x15 PUSH1 0x0 PUSH2 0x100 EXP DUP2 SLOAD DUP2 PUSH1 0xFF MUL NOT AND SWAP1 DUP4 ISZERO ISZERO MUL OR SWAP1 SSTORE POP PUSH1 0x0 PUSH1 0x2 PUSH1 0x0 SWAP1 SLOAD SWAP1 PUSH2 0x100 EXP SWAP1 DIV PUSH20 0xFFFFFFFFFFFFFFFFFFFFFFFFFFFFFFFFFFFFFFFF AND SWAP1 POP DUP1 PUSH20 0xFFFFFFFFFFFFFFFFFFFFFFFFFFFFFFFFFFFFFFFF AND PUSH4 0xE25DB2A4 ADDRESS PUSH1 0x40 MLOAD DUP3 PUSH4 0xFFFFFFFF AND PUSH1 0xE0 SHL DUP2 MSTORE PUSH1 0x4 ADD DUP1 DUP3 PUSH20 0xFFFFFFFFFFFFFFFFFFFFFFFFFFFFFFFFFFFFFFFF AND PUSH20 0xFFFFFFFFFFFFFFFFFFFFFFFFFFFFFFFFFFFFFFFF AND DUP2 MSTORE PUSH1 0x20 ADD SWAP2 POP POP PUSH1 0x0 PUSH1 0x40 MLOAD DUP1 DUP4 SUB DUP2 PUSH1 0x0 DUP8 DUP1 EXTCODESIZE ISZERO DUP1 ISZERO PUSH2 0x272C JUMPI PUSH1 0x0 DUP1 REVERT JUMPDEST POP GAS CALL ISZERO DUP1 ISZERO PUSH2 0x2740 JUMPI RETURNDATASIZE PUSH1 0x0 DUP1 RETURNDATACOPY RETURNDATASIZE PUSH1 0x0 REVERT JUMPDEST POP POP POP POP POP JUMP JUMPDEST PUSH1 0x40 MLOAD DUP1 PUSH1 0x80 ADD PUSH1 0x40 MSTORE DUP1 PUSH1 0x60 DUP2 MSTORE PUSH1 0x20 ADD PUSH1 0x0 ISZERO ISZERO DUP2 MSTORE PUSH1 0x20 ADD PUSH1 0x0 PUSH20 0xFFFFFFFFFFFFFFFFFFFFFFFFFFFFFFFFFFFFFFFF AND DUP2 MSTORE PUSH1 0x20 ADD PUSH1 0x0 DUP2 MSTORE POP SWAP1 JUMP JUMPDEST DUP3 DUP1 SLOAD PUSH1 0x1 DUP2 PUSH1 0x1 AND ISZERO PUSH2 0x100 MUL SUB AND PUSH1 0x2 SWAP1 DIV SWAP1 PUSH1 0x0 MSTORE PUSH1 0x20 PUSH1 0x0 KECCAK256 SWAP1 PUSH1 0x1F ADD PUSH1 0x20 SWAP1 DIV DUP2 ADD SWAP3 DUP3 PUSH1 0x1F LT PUSH2 0x27C8 JUMPI DUP1 MLOAD PUSH1 0xFF NOT AND DUP4 DUP1 ADD OR DUP6 SSTORE PUSH2 0x27F6 JUMP JUMPDEST DUP3 DUP1 ADD PUSH1 0x1 ADD DUP6 SSTORE DUP3 ISZERO PUSH2 0x27F6 JUMPI SWAP2 DUP3 ADD JUMPDEST DUP3 DUP2 GT ISZERO PUSH2 0x27F5 JUMPI DUP3 MLOAD DUP3 SSTORE SWAP2 PUSH1 0x20 ADD SWAP2 SWAP1 PUSH1 0x1 ADD SWAP1 PUSH2 0x27DA JUMP JUMPDEST JUMPDEST POP SWAP1 POP PUSH2 0x2803 SWAP2 SWAP1 PUSH2 0x2887 JUMP JUMPDEST POP SWAP1 JUMP JUMPDEST DUP3 DUP1 SLOAD PUSH1 0x1 DUP2 PUSH1 0x1 AND ISZERO PUSH2 0x100 MUL SUB AND PUSH1 0x2 SWAP1 DIV SWAP1 PUSH1 0x0 MSTORE PUSH1 0x20 PUSH1 0x0 KECCAK256 SWAP1 PUSH1 0x1F ADD PUSH1 0x20 SWAP1 DIV DUP2 ADD SWAP3 DUP3 PUSH1 0x1F LT PUSH2 0x2848 JUMPI DUP1 MLOAD PUSH1 0xFF NOT AND DUP4 DUP1 ADD OR DUP6 SSTORE PUSH2 0x2876 JUMP JUMPDEST DUP3 DUP1 ADD PUSH1 0x1 ADD DUP6 SSTORE DUP3 ISZERO PUSH2 0x2876 JUMPI SWAP2 DUP3 ADD JUMPDEST DUP3 DUP2 GT ISZERO PUSH2 0x2875 JUMPI DUP3 MLOAD DUP3 SSTORE SWAP2 PUSH1 0x20 ADD SWAP2 SWAP1 PUSH1 0x1 ADD SWAP1 PUSH2 0x285A JUMP JUMPDEST JUMPDEST POP SWAP1 POP PUSH2 0x2883 SWAP2 SWAP1 PUSH2 0x2887 JUMP JUMPDEST POP SWAP1 JUMP JUMPDEST PUSH2 0x28A9 SWAP2 SWAP1 JUMPDEST DUP1 DUP3 GT ISZERO PUSH2 0x28A5 JUMPI PUSH1 0x0 DUP2 PUSH1 0x0 SWAP1 SSTORE POP PUSH1 0x1 ADD PUSH2 0x288D JUMP JUMPDEST POP SWAP1 JUMP JUMPDEST SWAP1 JUMP INVALID MSIZE PUSH16 0x752063616E206F6E6C7920636C61696D KECCAK256 PUSH26 0x6F75722072657761726473206166746572207468652074696D65 KECCAK256 PUSH17 0x6572696F642E417267756D656E74206861 PUSH20 0x20616C7265616479206265656E20766F74656420 PUSH16 0x6E2E2043616E6E6F74206265206D6F64 PUSH10 0x666965642E596F75206D PUSH22 0x737420696E76657374206174206C6561737420746865 KECCAK256 PUSH14 0x696E696D756D20616D6F756E7420 PUSH2 0x7320 PUSH5 0x6563696465 PUSH5 0x2062792074 PUSH9 0x652063726561746F72 0x2E MSIZE PUSH16 0x75206D75737420626520746865206372 PUSH6 0x61746F72206F PUSH7 0x20746869732061 PUSH19 0x67756D656E7420746F206D6F64696679206974 PUSH20 0x20636F6E74656E7473546865206D6F6E65792067 PUSH16 0x657320746F207468652070656F706C65 KECCAK256 PUSH24 0x686F2070617274696369706174656420696E207468652070 PUSH19 0x6F636573732E546F70696320697320616C7265 PUSH2 0x6479 KECCAK256 PUSH14 0x61726B656420617320636F6D706C PUSH6 0x7465642E4D61 PUSH11 0x6F726974792063616E206F PUSH15 0x6C792062652063616C63756C617465 PUSH5 0x2061667465 PUSH19 0x207468652074696D6520706572696F64206861 PUSH20 0x20656E6465642E596F75206861766520616C7265 PUSH2 0x6479 KECCAK256 PUSH4 0x72656174 PUSH6 0x6420616E2061 PUSH19 0x67756D656E742E596F75206D75737420626520 PUSH21 0x68652063726561746F72206F66207468697320546F PUSH17 0x696320696E206F7264657220746F20646F KECCAK256 PUSH21 0x6869732E54686520706572696F6420666F72207468 PUSH6 0x20546F706963 KECCAK256 PUSH9 0x617320616C72656164 PUSH26 0x20656E6465642E596F7520646964206E6F7420766F7465206475 PUSH19 0x696E672074686520706572696F64206F722074 PUSH9 0x6520706572696F6420 PUSH10 0x73206E6F74206F766572 0x2E MSIZE PUSH16 0x752063616E6E6F7420766F746520666F PUSH19 0x2074686520617267756D656E742067656E6572 PUSH2 0x7465 PUSH5 0x2062792074 PUSH9 0x6520636F6E74726163 PUSH21 0x2E4D616A6F726974792068617320616C7265616479 KECCAK256 PUSH3 0x65656E KECCAK256 PUSH5 0x6563696465 PUSH5 0x2E596F7520 PUSH5 0x6F6E277420 PUSH9 0x617665207468697320 PUSH21 0x6F706963206F6E20796F757220617661696C61626C PUSH6 0x206C69737420 PUSH16 0x7220796F75206861766520616C726561 PUSH5 0x7920766F74 PUSH6 0x642EA265627A PUSH27 0x72315820822212E7210ADED46F6D15D91B4C204B19FD8EF97A0232 0xDD SHR SWAP8 DUP10 RETURNDATASIZE DUP2 0xAA 0xDC 0xDA PUSH5 0x736F6C6343 STOP SDIV LT STOP ORIGIN MSIZE PUSH16 0x75206861766520616C72656164792063 PUSH19 0x656174656420616E20617267756D656E742E54 PUSH9 0x6520706572696F6420 PUSH7 0x6F722074686520 SLOAD PUSH16 0x7069632068617320616C726561647920 PUSH6 0x6E6465642E59 PUSH16 0x752068617665206E6F742063686F7365 PUSH15 0x207965742077686574686572207468 PUSH6 0x207374617465 PUSH14 0x656E742069732074727565206F72 KECCAK256 PUSH7 0x616C7365000000 "},"gasEstimates":{"creation":{"codeDepositCost":"2247200","executionCost":"infinite","totalCost":"infinite"},"external":{"":"209","arguments(uint256)":"infinite","calculateMonetaryGain(uint256,bool)":"5474","calculateReputationGain(uint256,address)":"6524","canClaim()":"2986","canVote()":"infinite","claim()":"infinite","claimed(address)":"1317","content()":"infinite","createArgument(string,bool)":"infinite","createdArgument(address)":"1281","creator()":"1100","creatorClaim()":"infinite","endTime()":"1051","finalMonetaryTotal()":"1093","getArgumentCount()":"1088","getDetails()":"10925","getLieCount()":"1110","getMoneyPool()":"259","getTruthCount()":"1155","inMajority(address)":"6379","isCompleted()":"1119","isTopic()":"336","lieMonetaryInvestment()":"1095","lieReputation()":"1050","lieVoters(uint256)":"2130","majority()":"1050","minimumInvestment()":"1117","modifyArgument(uint256,string,bool)":"infinite","monetaryInvestment(address)":"1260","reputationInvestment(address)":"1302","totalReputationInvestment()":"1094","truthMonetaryInvestment()":"1138","truthReputation()":"1095","truthVoters(uint256)":"2084","vote(uint256,uint256)":"infinite","voted(address)":"1259"},"internal":{"calculateMajority()":"infinite","markAsCompleted()":"infinite"}},"methodIdentifiers":{"arguments(uint256)":"0a68f631","calculateMonetaryGain(uint256,bool)":"fda9198b","calculateReputationGain(uint256,address)":"c50eb984","canClaim()":"6dc7a627","canVote()":"159e7064","claim()":"4e71d92d","claimed(address)":"c884ef83","content()":"8a4d5a67","createArgument(string,bool)":"0715ef00","createdArgument(address)":"44fe9432","creator()":"02d05d3f","creatorClaim()":"9380b1cf","endTime()":"3197cbb6","finalMonetaryTotal()":"fbba5cb9","getArgumentCount()":"c234d789","getDetails()":"fbbf93a0","getLieCount()":"6e3ebc2e","getMoneyPool()":"f9588ed9","getTruthCount()":"2ec32e6d","inMajority(address)":"3e50b331","isCompleted()":"fa391c64","isTopic()":"74986bfc","lieMonetaryInvestment()":"3ff894ad","lieReputation()":"d04ae69d","lieVoters(uint256)":"09f74db7","majority()":"b6e54bdf","minimumInvestment()":"2b925b25","modifyArgument(uint256,string,bool)":"f7ca7c72","monetaryInvestment(address)":"09c7caf1","reputationInvestment(address)":"ca94fb2b","totalReputationInvestment()":"e72b0148","truthMonetaryInvestment()":"85730fa1","truthReputation()":"1c7cd6ac","truthVoters(uint256)":"e5d00035","vote(uint256,uint256)":"b384abef","voted(address)":"aec2ccae"}},"storageLayout":{"storage":[{"astId":1632,"contract":"Topic.sol:Topic","label":"reputationFactoryAddress","offset":0,"slot":"0","type":"t_address"},{"astId":1634,"contract":"Topic.sol:Topic","label":"topicAssignerAddress","offset":0,"slot":"1","type":"t_address"},{"astId":1636,"contract":"Topic.sol:Topic","label":"topicFactoryAddress","offset":0,"slot":"2","type":"t_address"},{"astId":1647,"contract":"Topic.sol:Topic","label":"content","offset":0,"slot":"3","type":"t_string_storage"},{"astId":1649,"contract":"Topic.sol:Topic","label":"creator","offset":0,"slot":"4","type":"t_address"},{"astId":1651,"contract":"Topic.sol:Topic","label":"minimumInvestment","offset":0,"slot":"5","type":"t_uint256"},{"astId":1653,"contract":"Topic.sol:Topic","label":"endTime","offset":0,"slot":"6","type":"t_uint256"},{"astId":1656,"contract":"Topic.sol:Topic","label":"arguments","offset":0,"slot":"7","type":"t_array(t_struct(Argument)1645_storage)dyn_storage"},{"astId":1660,"contract":"Topic.sol:Topic","label":"voted","offset":0,"slot":"8","type":"t_mapping(t_address,t_uint256)"},{"astId":1663,"contract":"Topic.sol:Topic","label":"truthVoters","offset":0,"slot":"9","type":"t_array(t_address_payable)dyn_storage"},{"astId":1666,"contract":"Topic.sol:Topic","label":"lieVoters","offset":0,"slot":"10","type":"t_array(t_address_payable)dyn_storage"},{"astId":1670,"contract":"Topic.sol:Topic","label":"monetaryInvestment","offset":0,"slot":"11","type":"t_mapping(t_address,t_uint256)"},{"astId":1672,"contract":"Topic.sol:Topic","label":"truthMonetaryInvestment","offset":0,"slot":"12","type":"t_uint256"},{"astId":1674,"contract":"Topic.sol:Topic","label":"lieMonetaryInvestment","offset":0,"slot":"13","type":"t_uint256"},{"astId":1676,"contract":"Topic.sol:Topic","label":"finalMonetaryTotal","offset":0,"slot":"14","type":"t_uint256"},{"astId":1680,"contract":"Topic.sol:Topic","label":"reputationInvestment","offset":0,"slot":"15","type":"t_mapping(t_address,t_uint256)"},{"astId":1682,"contract":"Topic.sol:Topic","label":"truthReputation","offset":0,"slot":"16","type":"t_uint256"},{"astId":1684,"contract":"Topic.sol:Topic","label":"lieReputation","offset":0,"slot":"17","type":"t_uint256"},{"astId":1686,"contract":"Topic.sol:Topic","label":"totalReputationInvestment","offset":0,"slot":"18","type":"t_uint256"},{"astId":1690,"contract":"Topic.sol:Topic","label":"createdArgument","offset":0,"slot":"19","type":"t_mapping(t_address,t_uint256)"},{"astId":1694,"contract":"Topic.sol:Topic","label":"claimed","offset":0,"slot":"20","type":"t_mapping(t_address,t_bool)"},{"astId":1696,"contract":"Topic.sol:Topic","label":"isCompleted","offset":0,"slot":"21","type":"t_bool"},{"astId":1698,"contract":"Topic.sol:Topic","label":"majority","offset":0,"slot":"22","type":"t_uint256"}],"types":{"t_address":{"encoding":"inplace","label":"address","numberOfBytes":"20"},"t_address_payable":{"encoding":"inplace","label":"address payable","numberOfBytes":"20"},"t_array(t_address_payable)dyn_storage":{"base":"t_address_payable","encoding":"dynamic_array","label":"address payable[]","numberOfBytes":"32"},"t_array(t_struct(Argument)1645_storage)dyn_storage":{"base":"t_struct(Argument)1645_storage","encoding":"dynamic_array","label":"struct Topic.Argument[]","numberOfBytes":"32"},"t_bool":{"encoding":"inplace","label":"bool","numberOfBytes":"1"},"t_mapping(t_address,t_bool)":{"encoding":"mapping","key":"t_address","label":"mapping(address => bool)","numberOfBytes":"32","value":"t_bool"},"t_mapping(t_address,t_uint256)":{"encoding":"mapping","key":"t_address","label":"mapping(address => uint256)","numberOfBytes":"32","value":"t_uint256"},"t_string_storage":{"encoding":"bytes","label":"string","numberOfBytes":"32"},"t_struct(Argument)1645_storage":{"encoding":"inplace","label":"struct Topic.Argument","members":[{"astId":1638,"contract":"Topic.sol:Topic","label":"content","offset":0,"slot":"0","type":"t_string_storage"},{"astId":1640,"contract":"Topic.sol:Topic","label":"isTrue","offset":0,"slot":"1","type":"t_bool"},{"astId":1642,"contract":"Topic.sol:Topic","label":"creator","offset":1,"slot":"1","type":"t_address"},{"astId":1644,"contract":"Topic.sol:Topic","label":"voteCount","offset":0,"slot":"2","type":"t_uint256"}],"numberOfBytes":"96"},"t_uint256":{"encoding":"inplace","label":"uint256","numberOfBytes":"32"}}},"userdoc":{"methods":{}}}