{"abi":[{"inputs":[{"internalType":"address","name":"_topicFactoryAddress","type":"address"},{"internalType":"address","name":"repFactoryAddress","type":"address"},{"internalType":"address","name":"_topicAssignerAddress","type":"address"},{"internalType":"string","name":"topicContent","type":"string"},{"internalType":"uint256","name":"minInvestment","type":"uint256"},{"internalType":"uint256","name":"hoursAvailable","type":"uint256"},{"internalType":"address","name":"sender","type":"address"}],"payable":false,"stateMutability":"nonpayable","type":"constructor"},{"payable":true,"stateMutability":"payable","type":"fallback"},{"constant":true,"inputs":[{"internalType":"uint256","name":"","type":"uint256"}],"name":"arguments","outputs":[{"internalType":"string","name":"content","type":"string"},{"internalType":"bool","name":"isTrue","type":"bool"},{"internalType":"address","name":"creator","type":"address"},{"internalType":"uint256","name":"voteCount","type":"uint256"}],"payable":false,"stateMutability":"view","type":"function"},{"constant":true,"inputs":[{"internalType":"uint256","name":"initialMonetaryInvestment","type":"uint256"}],"name":"calculateMonetaryGain","outputs":[{"internalType":"uint256","name":"","type":"uint256"}],"payable":false,"stateMutability":"view","type":"function"},{"constant":true,"inputs":[{"internalType":"uint256","name":"initialReputation","type":"uint256"}],"name":"calculateReputationGain","outputs":[{"internalType":"uint256","name":"","type":"uint256"}],"payable":false,"stateMutability":"pure","type":"function"},{"constant":false,"inputs":[],"name":"claim","outputs":[],"payable":false,"stateMutability":"nonpayable","type":"function"},{"constant":true,"inputs":[],"name":"content","outputs":[{"internalType":"string","name":"","type":"string"}],"payable":false,"stateMutability":"view","type":"function"},{"constant":false,"inputs":[{"internalType":"string","name":"argumentContent","type":"string"},{"internalType":"bool","name":"belief","type":"bool"}],"name":"createArgument","outputs":[],"payable":false,"stateMutability":"nonpayable","type":"function"},{"constant":true,"inputs":[{"internalType":"address","name":"","type":"address"}],"name":"createdArgument","outputs":[{"internalType":"uint256","name":"","type":"uint256"}],"payable":false,"stateMutability":"view","type":"function"},{"constant":true,"inputs":[],"name":"creator","outputs":[{"internalType":"address","name":"","type":"address"}],"payable":false,"stateMutability":"view","type":"function"},{"constant":false,"inputs":[],"name":"creatorClaim","outputs":[],"payable":false,"stateMutability":"nonpayable","type":"function"},{"constant":true,"inputs":[],"name":"endTime","outputs":[{"internalType":"uint256","name":"","type":"uint256"}],"payable":false,"stateMutability":"view","type":"function"},{"constant":true,"inputs":[],"name":"finalMonetaryTotal","outputs":[{"internalType":"uint256","name":"","type":"uint256"}],"payable":false,"stateMutability":"view","type":"function"},{"constant":true,"inputs":[],"name":"getArgumentCount","outputs":[{"internalType":"uint256","name":"","type":"uint256"}],"payable":false,"stateMutability":"view","type":"function"},{"constant":true,"inputs":[],"name":"getDetails","outputs":[{"internalType":"address","name":"","type":"address"},{"internalType":"uint256","name":"","type":"uint256"},{"internalType":"uint256","name":"","type":"uint256"},{"internalType":"bool","name":"","type":"bool"}],"payable":false,"stateMutability":"view","type":"function"},{"constant":true,"inputs":[],"name":"getLieCount","outputs":[{"internalType":"uint256","name":"","type":"uint256"}],"payable":false,"stateMutability":"view","type":"function"},{"constant":true,"inputs":[],"name":"getMoneyPool","outputs":[{"internalType":"uint256","name":"","type":"uint256"}],"payable":false,"stateMutability":"view","type":"function"},{"constant":true,"inputs":[],"name":"getTruthCount","outputs":[{"internalType":"uint256","name":"","type":"uint256"}],"payable":false,"stateMutability":"view","type":"function"},{"constant":true,"inputs":[],"name":"isCompleted","outputs":[{"internalType":"bool","name":"","type":"bool"}],"payable":false,"stateMutability":"view","type":"function"},{"constant":true,"inputs":[],"name":"isTopic","outputs":[{"internalType":"bool","name":"","type":"bool"}],"payable":false,"stateMutability":"pure","type":"function"},{"constant":true,"inputs":[{"internalType":"uint256","name":"","type":"uint256"}],"name":"lieVoters","outputs":[{"internalType":"address payable","name":"","type":"address"}],"payable":false,"stateMutability":"view","type":"function"},{"constant":true,"inputs":[],"name":"majority","outputs":[{"internalType":"uint256","name":"","type":"uint256"}],"payable":false,"stateMutability":"view","type":"function"},{"constant":true,"inputs":[],"name":"minimumInvestment","outputs":[{"internalType":"uint256","name":"","type":"uint256"}],"payable":false,"stateMutability":"view","type":"function"},{"constant":false,"inputs":[{"internalType":"uint256","name":"argumentIndex","type":"uint256"},{"internalType":"string","name":"newContent","type":"string"},{"internalType":"bool","name":"belief","type":"bool"}],"name":"modifyArgument","outputs":[],"payable":false,"stateMutability":"nonpayable","type":"function"},{"constant":true,"inputs":[{"internalType":"address","name":"","type":"address"}],"name":"monetaryInvestment","outputs":[{"internalType":"uint256","name":"","type":"uint256"}],"payable":false,"stateMutability":"view","type":"function"},{"constant":true,"inputs":[{"internalType":"address","name":"","type":"address"}],"name":"reputationInvestment","outputs":[{"internalType":"uint256","name":"","type":"uint256"}],"payable":false,"stateMutability":"view","type":"function"},{"constant":true,"inputs":[],"name":"totalMonetaryInvestment","outputs":[{"internalType":"uint256","name":"","type":"uint256"}],"payable":false,"stateMutability":"view","type":"function"},{"constant":true,"inputs":[],"name":"totalReputationInvestment","outputs":[{"internalType":"uint256","name":"","type":"uint256"}],"payable":false,"stateMutability":"view","type":"function"},{"constant":true,"inputs":[{"internalType":"uint256","name":"","type":"uint256"}],"name":"truthVoters","outputs":[{"internalType":"address payable","name":"","type":"address"}],"payable":false,"stateMutability":"view","type":"function"},{"constant":false,"inputs":[{"internalType":"uint256","name":"argumentIndex","type":"uint256"},{"internalType":"uint256","name":"reputationCost","type":"uint256"}],"name":"vote","outputs":[],"payable":true,"stateMutability":"payable","type":"function"},{"constant":true,"inputs":[{"internalType":"address","name":"","type":"address"}],"name":"voted","outputs":[{"internalType":"uint256","name":"","type":"uint256"}],"payable":false,"stateMutability":"view","type":"function"}],"devdoc":{"methods":{}},"evm":{"assembly":"    /* \"Topic.sol\":96:10423  contract Topic {\r... */\n  mstore(0x40, 0x80)\n    /* \"Topic.sol\":1677:2424  constructor(address _topicFactoryAddress, address repFactoryAddress, address _topicAssignerAddress, string memory topicContent, uint minInvestment, uint hoursAvailable, address sender) public {\r... */\n  callvalue\n    /* \"--CODEGEN--\":8:17   */\n  dup1\n    /* \"--CODEGEN--\":5:7   */\n  iszero\n  tag_1\n  jumpi\n    /* \"--CODEGEN--\":30:31   */\n  0x00\n    /* \"--CODEGEN--\":27:28   */\n  dup1\n    /* \"--CODEGEN--\":20:32   */\n  revert\n    /* \"--CODEGEN--\":5:7   */\ntag_1:\n    /* \"Topic.sol\":1677:2424  constructor(address _topicFactoryAddress, address repFactoryAddress, address _topicAssignerAddress, string memory topicContent, uint minInvestment, uint hoursAvailable, address sender) public {\r... */\n  pop\n  mload(0x40)\n  sub(codesize, bytecodeSize)\n  dup1\n  bytecodeSize\n  dup4\n  codecopy\n  dup2\n  dup2\n  add\n  0x40\n  mstore\n    /* \"--CODEGEN--\":13:16   */\n  0xe0\n    /* \"--CODEGEN--\":8:11   */\n  dup2\n    /* \"--CODEGEN--\":5:17   */\n  lt\n    /* \"--CODEGEN--\":2:4   */\n  iszero\n  tag_2\n  jumpi\n    /* \"--CODEGEN--\":30:31   */\n  0x00\n    /* \"--CODEGEN--\":27:28   */\n  dup1\n    /* \"--CODEGEN--\":20:32   */\n  revert\n    /* \"--CODEGEN--\":2:4   */\ntag_2:\n    /* \"Topic.sol\":1677:2424  constructor(address _topicFactoryAddress, address repFactoryAddress, address _topicAssignerAddress, string memory topicContent, uint minInvestment, uint hoursAvailable, address sender) public {\r... */\n  dup2\n  add\n  swap1\n  dup1\n  dup1\n  mload\n  swap1\n  0x20\n  add\n  swap1\n  swap3\n  swap2\n  swap1\n  dup1\n  mload\n  swap1\n  0x20\n  add\n  swap1\n  swap3\n  swap2\n  swap1\n  dup1\n  mload\n  swap1\n  0x20\n  add\n  swap1\n  swap3\n  swap2\n  swap1\n  dup1\n  mload\n  mload(0x40)\n  swap4\n  swap3\n  swap2\n  swap1\n  dup5\n    /* \"--CODEGEN--\":19:30   */\n  0x0100000000\n    /* \"--CODEGEN--\":14:17   */\n  dup3\n    /* \"--CODEGEN--\":11:31   */\n  gt\n    /* \"--CODEGEN--\":8:10   */\n  iszero\n  tag_3\n  jumpi\n    /* \"--CODEGEN--\":44:45   */\n  0x00\n    /* \"--CODEGEN--\":41:42   */\n  dup1\n    /* \"--CODEGEN--\":34:46   */\n  revert\n    /* \"--CODEGEN--\":8:10   */\ntag_3:\n    /* \"--CODEGEN--\":71:82   */\n  dup4\n    /* \"--CODEGEN--\":66:69   */\n  dup3\n    /* \"--CODEGEN--\":62:83   */\n  add\n    /* \"--CODEGEN--\":55:83   */\n  swap2\n  pop\n    /* \"--CODEGEN--\":123:127   */\n  0x20\n    /* \"--CODEGEN--\":118:121   */\n  dup3\n    /* \"--CODEGEN--\":114:128   */\n  add\n    /* \"--CODEGEN--\":159:168   */\n  dup6\n    /* \"--CODEGEN--\":141:157   */\n  dup2\n    /* \"--CODEGEN--\":138:169   */\n  gt\n    /* \"--CODEGEN--\":135:137   */\n  iszero\n  tag_4\n  jumpi\n    /* \"--CODEGEN--\":182:183   */\n  0x00\n    /* \"--CODEGEN--\":179:180   */\n  dup1\n    /* \"--CODEGEN--\":172:184   */\n  revert\n    /* \"--CODEGEN--\":135:137   */\ntag_4:\n    /* \"--CODEGEN--\":219:222   */\n  dup3\n    /* \"--CODEGEN--\":213:223   */\n  mload\n    /* \"--CODEGEN--\":330:339   */\n  dup7\n    /* \"--CODEGEN--\":325:326   */\n  0x01\n    /* \"--CODEGEN--\":311:323   */\n  dup3\n    /* \"--CODEGEN--\":307:327   */\n  mul\n    /* \"--CODEGEN--\":289:305   */\n  dup4\n    /* \"--CODEGEN--\":285:328   */\n  add\n    /* \"--CODEGEN--\":282:340   */\n  gt\n    /* \"--CODEGEN--\":261:272   */\n  0x0100000000\n    /* \"--CODEGEN--\":247:259   */\n  dup3\n    /* \"--CODEGEN--\":244:273   */\n  gt\n    /* \"--CODEGEN--\":233:348   */\n  or\n    /* \"--CODEGEN--\":230:232   */\n  iszero\n  tag_5\n  jumpi\n    /* \"--CODEGEN--\":361:362   */\n  0x00\n    /* \"--CODEGEN--\":358:359   */\n  dup1\n    /* \"--CODEGEN--\":351:363   */\n  revert\n    /* \"--CODEGEN--\":230:232   */\ntag_5:\n    /* \"--CODEGEN--\":384:396   */\n  dup1\n    /* \"--CODEGEN--\":379:382   */\n  dup4\n    /* \"--CODEGEN--\":372:397   */\n  mstore\n    /* \"--CODEGEN--\":420:424   */\n  0x20\n    /* \"--CODEGEN--\":415:418   */\n  dup4\n    /* \"--CODEGEN--\":411:425   */\n  add\n    /* \"--CODEGEN--\":404:425   */\n  swap3\n  pop\n    /* \"--CODEGEN--\":0:432   */\n  pop\n  pop\n    /* \"Topic.sol\":1677:2424  constructor(address _topicFactoryAddress, address repFactoryAddress, address _topicAssignerAddress, string memory topicContent, uint minInvestment, uint hoursAvailable, address sender) public {\r... */\n  swap1\n  dup1\n  mload\n  swap1\n  0x20\n  add\n  swap1\n  dup1\n  dup4\n  dup4\n    /* \"--CODEGEN--\":23:24   */\n  0x00\n    /* \"--CODEGEN--\":8:108   */\ntag_6:\n    /* \"--CODEGEN--\":33:36   */\n  dup4\n    /* \"--CODEGEN--\":30:31   */\n  dup2\n    /* \"--CODEGEN--\":27:37   */\n  lt\n    /* \"--CODEGEN--\":8:108   */\n  iszero\n  tag_8\n  jumpi\n    /* \"--CODEGEN--\":99:100   */\n  dup1\n    /* \"--CODEGEN--\":94:97   */\n  dup3\n    /* \"--CODEGEN--\":90:101   */\n  add\n    /* \"--CODEGEN--\":84:102   */\n  mload\n    /* \"--CODEGEN--\":80:81   */\n  dup2\n    /* \"--CODEGEN--\":75:78   */\n  dup5\n    /* \"--CODEGEN--\":71:82   */\n  add\n    /* \"--CODEGEN--\":64:103   */\n  mstore\n    /* \"--CODEGEN--\":52:54   */\n  0x20\n    /* \"--CODEGEN--\":49:50   */\n  dup2\n    /* \"--CODEGEN--\":45:55   */\n  add\n    /* \"--CODEGEN--\":40:55   */\n  swap1\n  pop\n    /* \"--CODEGEN--\":8:108   */\n  jump(tag_6)\ntag_8:\n    /* \"--CODEGEN--\":12:26   */\n  pop\n    /* \"Topic.sol\":1677:2424  constructor(address _topicFactoryAddress, address repFactoryAddress, address _topicAssignerAddress, string memory topicContent, uint minInvestment, uint hoursAvailable, address sender) public {\r... */\n  pop\n  pop\n  pop\n  swap1\n  pop\n  swap1\n  dup2\n  add\n  swap1\n  0x1f\n  and\n  dup1\n  iszero\n  tag_9\n  jumpi\n  dup1\n  dup3\n  sub\n  dup1\n  mload\n  0x01\n  dup4\n  0x20\n  sub\n  0x0100\n  exp\n  sub\n  not\n  and\n  dup2\n  mstore\n  0x20\n  add\n  swap2\n  pop\ntag_9:\n  pop\n  0x40\n  mstore\n  0x20\n  add\n  dup1\n  mload\n  swap1\n  0x20\n  add\n  swap1\n  swap3\n  swap2\n  swap1\n  dup1\n  mload\n  swap1\n  0x20\n  add\n  swap1\n  swap3\n  swap2\n  swap1\n  dup1\n  mload\n  swap1\n  0x20\n  add\n  swap1\n  swap3\n  swap2\n  swap1\n  pop\n  pop\n  pop\n    /* \"Topic.sol\":1902:1922  _topicFactoryAddress */\n  dup7\n    /* \"Topic.sol\":1880:1899  topicFactoryAddress */\n  0x02\n  0x00\n    /* \"Topic.sol\":1880:1922  topicFactoryAddress = _topicFactoryAddress */\n  0x0100\n  exp\n  dup2\n  sload\n  dup2\n  0xffffffffffffffffffffffffffffffffffffffff\n  mul\n  not\n  and\n  swap1\n  dup4\n  0xffffffffffffffffffffffffffffffffffffffff\n  and\n  mul\n  or\n  swap1\n  sstore\n  pop\n    /* \"Topic.sol\":1960:1977  repFactoryAddress */\n  dup6\n    /* \"Topic.sol\":1933:1957  reputationFactoryAddress */\n  0x00\n  dup1\n    /* \"Topic.sol\":1933:1977  reputationFactoryAddress = repFactoryAddress */\n  0x0100\n  exp\n  dup2\n  sload\n  dup2\n  0xffffffffffffffffffffffffffffffffffffffff\n  mul\n  not\n  and\n  swap1\n  dup4\n  0xffffffffffffffffffffffffffffffffffffffff\n  and\n  mul\n  or\n  swap1\n  sstore\n  pop\n    /* \"Topic.sol\":2011:2032  _topicAssignerAddress */\n  dup5\n    /* \"Topic.sol\":1988:2008  topicAssignerAddress */\n  0x01\n  0x00\n    /* \"Topic.sol\":1988:2032  topicAssignerAddress = _topicAssignerAddress */\n  0x0100\n  exp\n  dup2\n  sload\n  dup2\n  0xffffffffffffffffffffffffffffffffffffffff\n  mul\n  not\n  and\n  swap1\n  dup4\n  0xffffffffffffffffffffffffffffffffffffffff\n  and\n  mul\n  or\n  swap1\n  sstore\n  pop\n    /* \"Topic.sol\":2053:2065  topicContent */\n  dup4\n    /* \"Topic.sol\":2043:2050  content */\n  0x03\n    /* \"Topic.sol\":2043:2065  content = topicContent */\n  swap1\n  dup1\n  mload\n  swap1\n  0x20\n  add\n  swap1\n  tag_12\n  swap3\n  swap2\n  swap1\n  tag_13\n  jump\t// in\ntag_12:\n  pop\n    /* \"Topic.sol\":2096:2109  minInvestment */\n  dup3\n    /* \"Topic.sol\":2076:2093  minimumInvestment */\n  0x05\n    /* \"Topic.sol\":2076:2109  minimumInvestment = minInvestment */\n  dup2\n  swap1\n  sstore\n  pop\n    /* \"Topic.sol\":2130:2136  sender */\n  dup1\n    /* \"Topic.sol\":2120:2127  creator */\n  0x04\n  0x00\n    /* \"Topic.sol\":2120:2136  creator = sender */\n  0x0100\n  exp\n  dup2\n  sload\n  dup2\n  0xffffffffffffffffffffffffffffffffffffffff\n  mul\n  not\n  and\n  swap1\n  dup4\n  0xffffffffffffffffffffffffffffffffffffffff\n  and\n  mul\n  or\n  swap1\n  sstore\n  pop\n    /* \"Topic.sol\":2158:2159  0 */\n  0x00\n    /* \"Topic.sol\":2147:2155  majority */\n  0x12\n    /* \"Topic.sol\":2147:2159  majority = 0 */\n  dup2\n  swap1\n  sstore\n  pop\n    /* \"Topic.sol\":2216:2225  1 seconds */\n  0x01\n    /* \"Topic.sol\":2198:2212  hoursAvailable */\n  dup3\n    /* \"Topic.sol\":2198:2225  hoursAvailable  * 1 seconds */\n  mul\n    /* \"Topic.sol\":2180:2195  block.timestamp */\n  timestamp\n    /* \"Topic.sol\":2180:2225  block.timestamp + hoursAvailable  * 1 seconds */\n  add\n    /* \"Topic.sol\":2170:2177  endTime */\n  0x06\n    /* \"Topic.sol\":2170:2225  endTime = block.timestamp + hoursAvailable  * 1 seconds */\n  dup2\n  swap1\n  sstore\n  pop\n    /* \"Topic.sol\":2259:2260  0 */\n  0x00\n    /* \"Topic.sol\":2238:2256  finalMonetaryTotal */\n  0x0b\n    /* \"Topic.sol\":2238:2260  finalMonetaryTotal = 0 */\n  dup2\n  swap1\n  sstore\n  pop\n    /* \"Topic.sol\":2329:2416  createArgument('You have not chosen yet whether the statement is true or false', false) */\n  tag_14\n  mload(0x40)\n  dup1\n  0x60\n  add\n  0x40\n  mstore\n  dup1\n  0x3e\n  dup2\n  mstore\n  0x20\n  add\n  data_aa34df7392f94c823c9355455ea589580c646b3576ea8448d1271c2c6cadfb70\n  0x3e\n  swap2\n  codecopy\n    /* \"Topic.sol\":2410:2415  false */\n  0x00\n    /* \"Topic.sol\":2329:2343  createArgument */\n  shl(0x20, tag_15)\n    /* \"Topic.sol\":2329:2416  createArgument('You have not chosen yet whether the statement is true or false', false) */\n  0x20\n  shr\n  jump\t// in\ntag_14:\n    /* \"Topic.sol\":1677:2424  constructor(address _topicFactoryAddress, address repFactoryAddress, address _topicAssignerAddress, string memory topicContent, uint minInvestment, uint hoursAvailable, address sender) public {\r... */\n  pop\n  pop\n  pop\n  pop\n  pop\n  pop\n  pop\n    /* \"Topic.sol\":96:10423  contract Topic {\r... */\n  jump(tag_16)\n    /* \"Topic.sol\":4007:4502  function createArgument(string memory argumentContent, bool belief) public _mustBeWithinTimeFrame {\r... */\ntag_15:\n    /* \"Topic.sol\":1556:1563  endTime */\n  sload(0x06)\n    /* \"Topic.sol\":1538:1553  block.timestamp */\n  timestamp\n    /* \"Topic.sol\":1538:1563  block.timestamp < endTime */\n  lt\n    /* \"Topic.sol\":1530:1611  require(block.timestamp < endTime, 'The period for the Topic has already ended.') */\n  tag_18\n  jumpi\n  mload(0x40)\n  0x08c379a000000000000000000000000000000000000000000000000000000000\n  dup2\n  mstore\n  0x04\n  add\n  dup1\n  dup1\n  0x20\n  add\n  dup3\n  dup2\n  sub\n  dup3\n  mstore\n  0x2b\n  dup2\n  mstore\n  0x20\n  add\n  dup1\n  data_9f7f122b70f117f8950311c325d9279ba88d6a0d2b593ed4f11b7663b9f48d07\n  0x2b\n  swap2\n  codecopy\n  0x40\n  add\n  swap2\n  pop\n  pop\n  mload(0x40)\n  dup1\n  swap2\n  sub\n  swap1\n  revert\ntag_18:\n    /* \"Topic.sol\":4155:4156  0 */\n  0x00\n    /* \"Topic.sol\":4124:4139  createdArgument */\n  0x0e\n    /* \"Topic.sol\":4124:4151  createdArgument[msg.sender] */\n  0x00\n    /* \"Topic.sol\":4140:4150  msg.sender */\n  caller\n    /* \"Topic.sol\":4124:4151  createdArgument[msg.sender] */\n  0xffffffffffffffffffffffffffffffffffffffff\n  and\n  0xffffffffffffffffffffffffffffffffffffffff\n  and\n  dup2\n  mstore\n  0x20\n  add\n  swap1\n  dup2\n  mstore\n  0x20\n  add\n  0x00\n  keccak256\n  sload\n    /* \"Topic.sol\":4124:4156  createdArgument[msg.sender] == 0 */\n  eq\n    /* \"Topic.sol\":4116:4198  require(createdArgument[msg.sender] == 0, 'You have already created an argument.') */\n  tag_20\n  jumpi\n  mload(0x40)\n  0x08c379a000000000000000000000000000000000000000000000000000000000\n  dup2\n  mstore\n  0x04\n  add\n  dup1\n  dup1\n  0x20\n  add\n  dup3\n  dup2\n  sub\n  dup3\n  mstore\n  0x25\n  dup2\n  mstore\n  0x20\n  add\n  dup1\n  data_8912f675a50e382e9fd7b592cf1cd9595235c43ce4309904b1bd35e2a18fc4ee\n  0x25\n  swap2\n  codecopy\n  0x40\n  add\n  swap2\n  pop\n  pop\n  mload(0x40)\n  dup1\n  swap2\n  sub\n  swap1\n  revert\ntag_20:\n    /* \"Topic.sol\":4211:4238  Argument memory newArgument */\n  tag_21\n  tag_22\n  jump\t// in\ntag_21:\n    /* \"Topic.sol\":4241:4391  Argument({\r... */\n  mload(0x40)\n  dup1\n  0x80\n  add\n  0x40\n  mstore\n  dup1\n    /* \"Topic.sol\":4274:4289  argumentContent */\n  dup5\n    /* \"Topic.sol\":4241:4391  Argument({\r... */\n  dup2\n  mstore\n  0x20\n  add\n    /* \"Topic.sol\":4312:4318  belief */\n  dup4\n    /* \"Topic.sol\":4241:4391  Argument({\r... */\n  iszero\n  iszero\n  dup2\n  mstore\n  0x20\n  add\n    /* \"Topic.sol\":4342:4352  msg.sender */\n  caller\n    /* \"Topic.sol\":4241:4391  Argument({\r... */\n  0xffffffffffffffffffffffffffffffffffffffff\n  and\n  dup2\n  mstore\n  0x20\n  add\n    /* \"Topic.sol\":4378:4379  0 */\n  0x00\n    /* \"Topic.sol\":4241:4391  Argument({\r... */\n  dup2\n  mstore\n  pop\n    /* \"Topic.sol\":4211:4391  Argument memory newArgument = Argument({\r... */\n  swap1\n  pop\n    /* \"Topic.sol\":4402:4411  arguments */\n  0x07\n    /* \"Topic.sol\":4417:4428  newArgument */\n  dup2\n    /* \"Topic.sol\":4402:4429  arguments.push(newArgument) */\n  swap1\n  dup1\n    /* \"--CODEGEN--\":39:40   */\n  0x01\n    /* \"--CODEGEN--\":33:36   */\n  dup2\n    /* \"--CODEGEN--\":27:37   */\n  sload\n    /* \"--CODEGEN--\":23:41   */\n  add\n    /* \"--CODEGEN--\":57:67   */\n  dup1\n    /* \"--CODEGEN--\":52:55   */\n  dup3\n    /* \"--CODEGEN--\":45:68   */\n  sstore\n    /* \"--CODEGEN--\":79:89   */\n  dup1\n    /* \"--CODEGEN--\":72:89   */\n  swap2\n  pop\n    /* \"--CODEGEN--\":0:93   */\n  pop\n    /* \"Topic.sol\":4402:4429  arguments.push(newArgument) */\n  swap1\n  0x01\n  dup3\n  sub\n  swap1\n  0x00\n  mstore\n  keccak256(0x00, 0x20)\n  swap1\n  0x03\n  mul\n  add\n  0x00\n  swap1\n  swap2\n  swap3\n  swap1\n  swap2\n  swap1\n  swap2\n  pop\n  0x00\n  dup3\n  add\n  mload\n  dup2\n  0x00\n  add\n  swap1\n  dup1\n  mload\n  swap1\n  0x20\n  add\n  swap1\n  tag_24\n  swap3\n  swap2\n  swap1\n  tag_25\n  jump\t// in\ntag_24:\n  pop\n  0x20\n  dup3\n  add\n  mload\n  dup2\n  0x01\n  add\n  exp(0x0100, 0x00)\n  dup2\n  sload\n  dup2\n  0xff\n  mul\n  not\n  and\n  swap1\n  dup4\n  iszero\n  iszero\n  mul\n  or\n  swap1\n  sstore\n  pop\n  0x40\n  dup3\n  add\n  mload\n  dup2\n  0x01\n  add\n  exp(0x0100, 0x01)\n  dup2\n  sload\n  dup2\n  0xffffffffffffffffffffffffffffffffffffffff\n  mul\n  not\n  and\n  swap1\n  dup4\n  0xffffffffffffffffffffffffffffffffffffffff\n  and\n  mul\n  or\n  swap1\n  sstore\n  pop\n  0x60\n  dup3\n  add\n  mload\n  dup2\n  0x02\n  add\n  sstore\n  pop\n  pop\n  pop\n    /* \"Topic.sol\":4491:4492  1 */\n  0x01\n    /* \"Topic.sol\":4470:4488  getArgumentCount() */\n  tag_26\n    /* \"Topic.sol\":4470:4486  getArgumentCount */\n  shl(0x20, tag_27)\n    /* \"Topic.sol\":4470:4488  getArgumentCount() */\n  0x20\n  shr\n  jump\t// in\ntag_26:\n    /* \"Topic.sol\":4470:4492  getArgumentCount() - 1 */\n  sub\n    /* \"Topic.sol\":4440:4455  createdArgument */\n  0x0e\n    /* \"Topic.sol\":4440:4467  createdArgument[msg.sender] */\n  0x00\n    /* \"Topic.sol\":4456:4466  msg.sender */\n  caller\n    /* \"Topic.sol\":4440:4467  createdArgument[msg.sender] */\n  0xffffffffffffffffffffffffffffffffffffffff\n  and\n  0xffffffffffffffffffffffffffffffffffffffff\n  and\n  dup2\n  mstore\n  0x20\n  add\n  swap1\n  dup2\n  mstore\n  0x20\n  add\n  0x00\n  keccak256\n    /* \"Topic.sol\":4440:4492  createdArgument[msg.sender] = getArgumentCount() - 1 */\n  dup2\n  swap1\n  sstore\n  pop\n    /* \"Topic.sol\":1622:1623  _ */\n  pop\n    /* \"Topic.sol\":4007:4502  function createArgument(string memory argumentContent, bool belief) public _mustBeWithinTimeFrame {\r... */\n  pop\n  pop\n  jump\t// out\n    /* \"Topic.sol\":4972:5069  function getArgumentCount() public view returns (uint) {\r... */\ntag_27:\n    /* \"Topic.sol\":5021:5025  uint */\n  0x00\n    /* \"Topic.sol\":5045:5054  arguments */\n  0x07\n    /* \"Topic.sol\":5045:5061  arguments.length */\n  dup1\n  sload\n  swap1\n  pop\n    /* \"Topic.sol\":5038:5061  return arguments.length */\n  swap1\n  pop\n    /* \"Topic.sol\":4972:5069  function getArgumentCount() public view returns (uint) {\r... */\n  swap1\n  jump\t// out\n    /* \"Topic.sol\":96:10423  contract Topic {\r... */\ntag_13:\n  dup3\n  dup1\n  sload\n  0x01\n  dup2\n  0x01\n  and\n  iszero\n  0x0100\n  mul\n  sub\n  and\n  0x02\n  swap1\n  div\n  swap1\n  0x00\n  mstore\n  keccak256(0x00, 0x20)\n  swap1\n  0x1f\n  add\n  0x20\n  swap1\n  div\n  dup2\n  add\n  swap3\n  dup3\n  0x1f\n  lt\n  tag_30\n  jumpi\n  dup1\n  mload\n  not(0xff)\n  and\n  dup4\n  dup1\n  add\n  or\n  dup6\n  sstore\n  jump(tag_29)\ntag_30:\n  dup3\n  dup1\n  add\n  0x01\n  add\n  dup6\n  sstore\n  dup3\n  iszero\n  tag_29\n  jumpi\n  swap2\n  dup3\n  add\ntag_31:\n  dup3\n  dup2\n  gt\n  iszero\n  tag_32\n  jumpi\n  dup3\n  mload\n  dup3\n  sstore\n  swap2\n  0x20\n  add\n  swap2\n  swap1\n  0x01\n  add\n  swap1\n  jump(tag_31)\ntag_32:\ntag_29:\n  pop\n  swap1\n  pop\n  tag_33\n  swap2\n  swap1\n  tag_34\n  jump\t// in\ntag_33:\n  pop\n  swap1\n  jump\t// out\ntag_22:\n  mload(0x40)\n  dup1\n  0x80\n  add\n  0x40\n  mstore\n  dup1\n  0x60\n  dup2\n  mstore\n  0x20\n  add\n  iszero(iszero(0x00))\n  dup2\n  mstore\n  0x20\n  add\n  and(0xffffffffffffffffffffffffffffffffffffffff, 0x00)\n  dup2\n  mstore\n  0x20\n  add\n  0x00\n  dup2\n  mstore\n  pop\n  swap1\n  jump\t// out\ntag_25:\n  dup3\n  dup1\n  sload\n  0x01\n  dup2\n  0x01\n  and\n  iszero\n  0x0100\n  mul\n  sub\n  and\n  0x02\n  swap1\n  div\n  swap1\n  0x00\n  mstore\n  keccak256(0x00, 0x20)\n  swap1\n  0x1f\n  add\n  0x20\n  swap1\n  div\n  dup2\n  add\n  swap3\n  dup3\n  0x1f\n  lt\n  tag_36\n  jumpi\n  dup1\n  mload\n  not(0xff)\n  and\n  dup4\n  dup1\n  add\n  or\n  dup6\n  sstore\n  jump(tag_35)\ntag_36:\n  dup3\n  dup1\n  add\n  0x01\n  add\n  dup6\n  sstore\n  dup3\n  iszero\n  tag_35\n  jumpi\n  swap2\n  dup3\n  add\ntag_37:\n  dup3\n  dup2\n  gt\n  iszero\n  tag_38\n  jumpi\n  dup3\n  mload\n  dup3\n  sstore\n  swap2\n  0x20\n  add\n  swap2\n  swap1\n  0x01\n  add\n  swap1\n  jump(tag_37)\ntag_38:\ntag_35:\n  pop\n  swap1\n  pop\n  tag_39\n  swap2\n  swap1\n  tag_34\n  jump\t// in\ntag_39:\n  pop\n  swap1\n  jump\t// out\ntag_34:\n  tag_40\n  swap2\n  swap1\ntag_41:\n  dup1\n  dup3\n  gt\n  iszero\n  tag_42\n  jumpi\n  0x00\n  dup2\n  0x00\n  swap1\n  sstore\n  pop\n  0x01\n  add\n  jump(tag_41)\ntag_42:\n  pop\n  swap1\n  jump\ntag_40:\n  swap1\n  jump\t// out\ntag_16:\n  dataSize(sub_0)\n  dup1\n  dataOffset(sub_0)\n  0x00\n  codecopy\n  0x00\n  return\nstop\ndata_8912f675a50e382e9fd7b592cf1cd9595235c43ce4309904b1bd35e2a18fc4ee 596f75206861766520616c7265616479206372656174656420616e20617267756d656e742e\ndata_9f7f122b70f117f8950311c325d9279ba88d6a0d2b593ed4f11b7663b9f48d07 54686520706572696f6420666f722074686520546f7069632068617320616c726561647920656e6465642e\ndata_aa34df7392f94c823c9355455ea589580c646b3576ea8448d1271c2c6cadfb70 596f752068617665206e6f742063686f73656e207965742077686574686572207468652073746174656d656e742069732074727565206f722066616c7365\n\nsub_0: assembly {\n        /* \"Topic.sol\":96:10423  contract Topic {\r... */\n      mstore(0x40, 0x80)\n      jumpi(tag_1, lt(calldatasize, 0x04))\n      shr(0xe0, calldataload(0x00))\n      dup1\n      0x8a4d5a67\n      gt\n      tag_31\n      jumpi\n      dup1\n      0xca94fb2b\n      gt\n      tag_32\n      jumpi\n      dup1\n      0xf9588ed9\n      gt\n      tag_33\n      jumpi\n      dup1\n      0xf9588ed9\n      eq\n      tag_27\n      jumpi\n      dup1\n      0xfa391c64\n      eq\n      tag_28\n      jumpi\n      dup1\n      0xfbba5cb9\n      eq\n      tag_29\n      jumpi\n      dup1\n      0xfbbf93a0\n      eq\n      tag_30\n      jumpi\n      jump(tag_1)\n    tag_33:\n      dup1\n      0xca94fb2b\n      eq\n      tag_23\n      jumpi\n      dup1\n      0xe5d00035\n      eq\n      tag_24\n      jumpi\n      dup1\n      0xe72b0148\n      eq\n      tag_25\n      jumpi\n      dup1\n      0xf7ca7c72\n      eq\n      tag_26\n      jumpi\n      jump(tag_1)\n    tag_32:\n      dup1\n      0xb384abef\n      gt\n      tag_34\n      jumpi\n      dup1\n      0xb384abef\n      eq\n      tag_19\n      jumpi\n      dup1\n      0xb3b9ac1d\n      eq\n      tag_20\n      jumpi\n      dup1\n      0xb6e54bdf\n      eq\n      tag_21\n      jumpi\n      dup1\n      0xc234d789\n      eq\n      tag_22\n      jumpi\n      jump(tag_1)\n    tag_34:\n      dup1\n      0x8a4d5a67\n      eq\n      tag_16\n      jumpi\n      dup1\n      0x9380b1cf\n      eq\n      tag_17\n      jumpi\n      dup1\n      0xaec2ccae\n      eq\n      tag_18\n      jumpi\n      jump(tag_1)\n    tag_31:\n      dup1\n      0x3197cbb6\n      gt\n      tag_35\n      jumpi\n      dup1\n      0x4e71d92d\n      gt\n      tag_36\n      jumpi\n      dup1\n      0x4e71d92d\n      eq\n      tag_12\n      jumpi\n      dup1\n      0x53322842\n      eq\n      tag_13\n      jumpi\n      dup1\n      0x6e3ebc2e\n      eq\n      tag_14\n      jumpi\n      dup1\n      0x74986bfc\n      eq\n      tag_15\n      jumpi\n      jump(tag_1)\n    tag_36:\n      dup1\n      0x3197cbb6\n      eq\n      tag_9\n      jumpi\n      dup1\n      0x44fe9432\n      eq\n      tag_10\n      jumpi\n      dup1\n      0x4dd54033\n      eq\n      tag_11\n      jumpi\n      jump(tag_1)\n    tag_35:\n      dup1\n      0x09f74db7\n      gt\n      tag_37\n      jumpi\n      dup1\n      0x09f74db7\n      eq\n      tag_5\n      jumpi\n      dup1\n      0x0a68f631\n      eq\n      tag_6\n      jumpi\n      dup1\n      0x2b925b25\n      eq\n      tag_7\n      jumpi\n      dup1\n      0x2ec32e6d\n      eq\n      tag_8\n      jumpi\n      jump(tag_1)\n    tag_37:\n      dup1\n      0x02d05d3f\n      eq\n      tag_2\n      jumpi\n      dup1\n      0x0715ef00\n      eq\n      tag_3\n      jumpi\n      dup1\n      0x09c7caf1\n      eq\n      tag_4\n      jumpi\n    tag_1:\n      stop\n        /* \"Topic.sol\":479:501  address public creator */\n    tag_2:\n      callvalue\n        /* \"--CODEGEN--\":8:17   */\n      dup1\n        /* \"--CODEGEN--\":5:7   */\n      iszero\n      tag_40\n      jumpi\n        /* \"--CODEGEN--\":30:31   */\n      0x00\n        /* \"--CODEGEN--\":27:28   */\n      dup1\n        /* \"--CODEGEN--\":20:32   */\n      revert\n        /* \"--CODEGEN--\":5:7   */\n    tag_40:\n        /* \"Topic.sol\":479:501  address public creator */\n      pop\n      tag_41\n      tag_42\n      jump\t// in\n    tag_41:\n      mload(0x40)\n      dup1\n      dup3\n      0xffffffffffffffffffffffffffffffffffffffff\n      and\n      0xffffffffffffffffffffffffffffffffffffffff\n      and\n      dup2\n      mstore\n      0x20\n      add\n      swap2\n      pop\n      pop\n      mload(0x40)\n      dup1\n      swap2\n      sub\n      swap1\n      return\n        /* \"Topic.sol\":4007:4502  function createArgument(string memory argumentContent, bool belief) public _mustBeWithinTimeFrame {\r... */\n    tag_3:\n      callvalue\n        /* \"--CODEGEN--\":8:17   */\n      dup1\n        /* \"--CODEGEN--\":5:7   */\n      iszero\n      tag_43\n      jumpi\n        /* \"--CODEGEN--\":30:31   */\n      0x00\n        /* \"--CODEGEN--\":27:28   */\n      dup1\n        /* \"--CODEGEN--\":20:32   */\n      revert\n        /* \"--CODEGEN--\":5:7   */\n    tag_43:\n        /* \"Topic.sol\":4007:4502  function createArgument(string memory argumentContent, bool belief) public _mustBeWithinTimeFrame {\r... */\n      pop\n      tag_44\n      0x04\n      dup1\n      calldatasize\n      sub\n        /* \"--CODEGEN--\":13:15   */\n      0x40\n        /* \"--CODEGEN--\":8:11   */\n      dup2\n        /* \"--CODEGEN--\":5:16   */\n      lt\n        /* \"--CODEGEN--\":2:4   */\n      iszero\n      tag_45\n      jumpi\n        /* \"--CODEGEN--\":29:30   */\n      0x00\n        /* \"--CODEGEN--\":26:27   */\n      dup1\n        /* \"--CODEGEN--\":19:31   */\n      revert\n        /* \"--CODEGEN--\":2:4   */\n    tag_45:\n        /* \"Topic.sol\":4007:4502  function createArgument(string memory argumentContent, bool belief) public _mustBeWithinTimeFrame {\r... */\n      dup2\n      add\n      swap1\n      dup1\n      dup1\n      calldataload\n      swap1\n      0x20\n      add\n      swap1\n        /* \"--CODEGEN--\":21:32   */\n      0x0100000000\n        /* \"--CODEGEN--\":8:19   */\n      dup2\n        /* \"--CODEGEN--\":5:33   */\n      gt\n        /* \"--CODEGEN--\":2:4   */\n      iszero\n      tag_46\n      jumpi\n        /* \"--CODEGEN--\":46:47   */\n      0x00\n        /* \"--CODEGEN--\":43:44   */\n      dup1\n        /* \"--CODEGEN--\":36:48   */\n      revert\n        /* \"--CODEGEN--\":2:4   */\n    tag_46:\n        /* \"Topic.sol\":4007:4502  function createArgument(string memory argumentContent, bool belief) public _mustBeWithinTimeFrame {\r... */\n      dup3\n      add\n        /* \"--CODEGEN--\":35:44   */\n      dup4\n        /* \"--CODEGEN--\":28:32   */\n      0x20\n        /* \"--CODEGEN--\":12:26   */\n      dup3\n        /* \"--CODEGEN--\":8:33   */\n      add\n        /* \"--CODEGEN--\":5:45   */\n      gt\n        /* \"--CODEGEN--\":2:4   */\n      iszero\n      tag_47\n      jumpi\n        /* \"--CODEGEN--\":58:59   */\n      0x00\n        /* \"--CODEGEN--\":55:56   */\n      dup1\n        /* \"--CODEGEN--\":48:60   */\n      revert\n        /* \"--CODEGEN--\":2:4   */\n    tag_47:\n        /* \"Topic.sol\":4007:4502  function createArgument(string memory argumentContent, bool belief) public _mustBeWithinTimeFrame {\r... */\n      dup1\n      calldataload\n      swap1\n      0x20\n      add\n      swap2\n        /* \"--CODEGEN--\":100:109   */\n      dup5\n        /* \"--CODEGEN--\":95:96   */\n      0x01\n        /* \"--CODEGEN--\":81:93   */\n      dup4\n        /* \"--CODEGEN--\":77:97   */\n      mul\n        /* \"--CODEGEN--\":67:75   */\n      dup5\n        /* \"--CODEGEN--\":63:98   */\n      add\n        /* \"--CODEGEN--\":60:110   */\n      gt\n        /* \"--CODEGEN--\":39:50   */\n      0x0100000000\n        /* \"--CODEGEN--\":25:37   */\n      dup4\n        /* \"--CODEGEN--\":22:51   */\n      gt\n        /* \"--CODEGEN--\":11:118   */\n      or\n        /* \"--CODEGEN--\":8:10   */\n      iszero\n      tag_48\n      jumpi\n        /* \"--CODEGEN--\":131:132   */\n      0x00\n        /* \"--CODEGEN--\":128:129   */\n      dup1\n        /* \"--CODEGEN--\":121:133   */\n      revert\n        /* \"--CODEGEN--\":8:10   */\n    tag_48:\n        /* \"Topic.sol\":4007:4502  function createArgument(string memory argumentContent, bool belief) public _mustBeWithinTimeFrame {\r... */\n      swap2\n      swap1\n      dup1\n      dup1\n      0x1f\n      add\n      0x20\n      dup1\n      swap2\n      div\n      mul\n      0x20\n      add\n      mload(0x40)\n      swap1\n      dup2\n      add\n      0x40\n      mstore\n      dup1\n      swap4\n      swap3\n      swap2\n      swap1\n      dup2\n      dup2\n      mstore\n      0x20\n      add\n      dup4\n      dup4\n        /* \"--CODEGEN--\":30:33   */\n      dup1\n        /* \"--CODEGEN--\":22:28   */\n      dup3\n        /* \"--CODEGEN--\":14:20   */\n      dup5\n        /* \"--CODEGEN--\":1:34   */\n      calldatacopy\n        /* \"--CODEGEN--\":99:100   */\n      0x00\n        /* \"--CODEGEN--\":93:96   */\n      dup2\n        /* \"--CODEGEN--\":85:91   */\n      dup5\n        /* \"--CODEGEN--\":81:97   */\n      add\n        /* \"--CODEGEN--\":74:101   */\n      mstore\n        /* \"--CODEGEN--\":137:141   */\n      0x1f\n        /* \"--CODEGEN--\":133:142   */\n      not\n        /* \"--CODEGEN--\":126:130   */\n      0x1f\n        /* \"--CODEGEN--\":121:124   */\n      dup3\n        /* \"--CODEGEN--\":117:131   */\n      add\n        /* \"--CODEGEN--\":113:143   */\n      and\n        /* \"--CODEGEN--\":106:143   */\n      swap1\n      pop\n        /* \"--CODEGEN--\":169:172   */\n      dup1\n        /* \"--CODEGEN--\":161:167   */\n      dup4\n        /* \"--CODEGEN--\":157:173   */\n      add\n        /* \"--CODEGEN--\":147:173   */\n      swap3\n      pop\n        /* \"Topic.sol\":4007:4502  function createArgument(string memory argumentContent, bool belief) public _mustBeWithinTimeFrame {\r... */\n      pop\n      pop\n      pop\n      pop\n      pop\n      pop\n      swap2\n      swap3\n      swap2\n      swap3\n      swap1\n      dup1\n      calldataload\n      iszero\n      iszero\n      swap1\n      0x20\n      add\n      swap1\n      swap3\n      swap2\n      swap1\n      pop\n      pop\n      pop\n      tag_49\n      jump\t// in\n    tag_44:\n      stop\n        /* \"Topic.sol\":676:726  mapping(address => uint) public monetaryInvestment */\n    tag_4:\n      callvalue\n        /* \"--CODEGEN--\":8:17   */\n      dup1\n        /* \"--CODEGEN--\":5:7   */\n      iszero\n      tag_50\n      jumpi\n        /* \"--CODEGEN--\":30:31   */\n      0x00\n        /* \"--CODEGEN--\":27:28   */\n      dup1\n        /* \"--CODEGEN--\":20:32   */\n      revert\n        /* \"--CODEGEN--\":5:7   */\n    tag_50:\n        /* \"Topic.sol\":676:726  mapping(address => uint) public monetaryInvestment */\n      pop\n      tag_51\n      0x04\n      dup1\n      calldatasize\n      sub\n        /* \"--CODEGEN--\":13:15   */\n      0x20\n        /* \"--CODEGEN--\":8:11   */\n      dup2\n        /* \"--CODEGEN--\":5:16   */\n      lt\n        /* \"--CODEGEN--\":2:4   */\n      iszero\n      tag_52\n      jumpi\n        /* \"--CODEGEN--\":29:30   */\n      0x00\n        /* \"--CODEGEN--\":26:27   */\n      dup1\n        /* \"--CODEGEN--\":19:31   */\n      revert\n        /* \"--CODEGEN--\":2:4   */\n    tag_52:\n        /* \"Topic.sol\":676:726  mapping(address => uint) public monetaryInvestment */\n      dup2\n      add\n      swap1\n      dup1\n      dup1\n      calldataload\n      0xffffffffffffffffffffffffffffffffffffffff\n      and\n      swap1\n      0x20\n      add\n      swap1\n      swap3\n      swap2\n      swap1\n      pop\n      pop\n      pop\n      tag_53\n      jump\t// in\n    tag_51:\n      mload(0x40)\n      dup1\n      dup3\n      dup2\n      mstore\n      0x20\n      add\n      swap2\n      pop\n      pop\n      mload(0x40)\n      dup1\n      swap2\n      sub\n      swap1\n      return\n        /* \"Topic.sol\":1121:1155  address payable[] public lieVoters */\n    tag_5:\n      callvalue\n        /* \"--CODEGEN--\":8:17   */\n      dup1\n        /* \"--CODEGEN--\":5:7   */\n      iszero\n      tag_54\n      jumpi\n        /* \"--CODEGEN--\":30:31   */\n      0x00\n        /* \"--CODEGEN--\":27:28   */\n      dup1\n        /* \"--CODEGEN--\":20:32   */\n      revert\n        /* \"--CODEGEN--\":5:7   */\n    tag_54:\n        /* \"Topic.sol\":1121:1155  address payable[] public lieVoters */\n      pop\n      tag_55\n      0x04\n      dup1\n      calldatasize\n      sub\n        /* \"--CODEGEN--\":13:15   */\n      0x20\n        /* \"--CODEGEN--\":8:11   */\n      dup2\n        /* \"--CODEGEN--\":5:16   */\n      lt\n        /* \"--CODEGEN--\":2:4   */\n      iszero\n      tag_56\n      jumpi\n        /* \"--CODEGEN--\":29:30   */\n      0x00\n        /* \"--CODEGEN--\":26:27   */\n      dup1\n        /* \"--CODEGEN--\":19:31   */\n      revert\n        /* \"--CODEGEN--\":2:4   */\n    tag_56:\n        /* \"Topic.sol\":1121:1155  address payable[] public lieVoters */\n      dup2\n      add\n      swap1\n      dup1\n      dup1\n      calldataload\n      swap1\n      0x20\n      add\n      swap1\n      swap3\n      swap2\n      swap1\n      pop\n      pop\n      pop\n      tag_57\n      jump\t// in\n    tag_55:\n      mload(0x40)\n      dup1\n      dup3\n      0xffffffffffffffffffffffffffffffffffffffff\n      and\n      0xffffffffffffffffffffffffffffffffffffffff\n      and\n      dup2\n      mstore\n      0x20\n      add\n      swap2\n      pop\n      pop\n      mload(0x40)\n      dup1\n      swap2\n      sub\n      swap1\n      return\n        /* \"Topic.sol\":570:597  Argument[] public arguments */\n    tag_6:\n      callvalue\n        /* \"--CODEGEN--\":8:17   */\n      dup1\n        /* \"--CODEGEN--\":5:7   */\n      iszero\n      tag_58\n      jumpi\n        /* \"--CODEGEN--\":30:31   */\n      0x00\n        /* \"--CODEGEN--\":27:28   */\n      dup1\n        /* \"--CODEGEN--\":20:32   */\n      revert\n        /* \"--CODEGEN--\":5:7   */\n    tag_58:\n        /* \"Topic.sol\":570:597  Argument[] public arguments */\n      pop\n      tag_59\n      0x04\n      dup1\n      calldatasize\n      sub\n        /* \"--CODEGEN--\":13:15   */\n      0x20\n        /* \"--CODEGEN--\":8:11   */\n      dup2\n        /* \"--CODEGEN--\":5:16   */\n      lt\n        /* \"--CODEGEN--\":2:4   */\n      iszero\n      tag_60\n      jumpi\n        /* \"--CODEGEN--\":29:30   */\n      0x00\n        /* \"--CODEGEN--\":26:27   */\n      dup1\n        /* \"--CODEGEN--\":19:31   */\n      revert\n        /* \"--CODEGEN--\":2:4   */\n    tag_60:\n        /* \"Topic.sol\":570:597  Argument[] public arguments */\n      dup2\n      add\n      swap1\n      dup1\n      dup1\n      calldataload\n      swap1\n      0x20\n      add\n      swap1\n      swap3\n      swap2\n      swap1\n      pop\n      pop\n      pop\n      tag_61\n      jump\t// in\n    tag_59:\n      mload(0x40)\n      dup1\n      dup1\n      0x20\n      add\n      dup6\n      iszero\n      iszero\n      iszero\n      iszero\n      dup2\n      mstore\n      0x20\n      add\n      dup5\n      0xffffffffffffffffffffffffffffffffffffffff\n      and\n      0xffffffffffffffffffffffffffffffffffffffff\n      and\n      dup2\n      mstore\n      0x20\n      add\n      dup4\n      dup2\n      mstore\n      0x20\n      add\n      dup3\n      dup2\n      sub\n      dup3\n      mstore\n      dup7\n      dup2\n      dup2\n      mload\n      dup2\n      mstore\n      0x20\n      add\n      swap2\n      pop\n      dup1\n      mload\n      swap1\n      0x20\n      add\n      swap1\n      dup1\n      dup4\n      dup4\n        /* \"--CODEGEN--\":23:24   */\n      0x00\n        /* \"--CODEGEN--\":8:108   */\n    tag_62:\n        /* \"--CODEGEN--\":33:36   */\n      dup4\n        /* \"--CODEGEN--\":30:31   */\n      dup2\n        /* \"--CODEGEN--\":27:37   */\n      lt\n        /* \"--CODEGEN--\":8:108   */\n      iszero\n      tag_64\n      jumpi\n        /* \"--CODEGEN--\":99:100   */\n      dup1\n        /* \"--CODEGEN--\":94:97   */\n      dup3\n        /* \"--CODEGEN--\":90:101   */\n      add\n        /* \"--CODEGEN--\":84:102   */\n      mload\n        /* \"--CODEGEN--\":80:81   */\n      dup2\n        /* \"--CODEGEN--\":75:78   */\n      dup5\n        /* \"--CODEGEN--\":71:82   */\n      add\n        /* \"--CODEGEN--\":64:103   */\n      mstore\n        /* \"--CODEGEN--\":52:54   */\n      0x20\n        /* \"--CODEGEN--\":49:50   */\n      dup2\n        /* \"--CODEGEN--\":45:55   */\n      add\n        /* \"--CODEGEN--\":40:55   */\n      swap1\n      pop\n        /* \"--CODEGEN--\":8:108   */\n      jump(tag_62)\n    tag_64:\n        /* \"--CODEGEN--\":12:26   */\n      pop\n        /* \"Topic.sol\":570:597  Argument[] public arguments */\n      pop\n      pop\n      pop\n      swap1\n      pop\n      swap1\n      dup2\n      add\n      swap1\n      0x1f\n      and\n      dup1\n      iszero\n      tag_65\n      jumpi\n      dup1\n      dup3\n      sub\n      dup1\n      mload\n      0x01\n      dup4\n      0x20\n      sub\n      0x0100\n      exp\n      sub\n      not\n      and\n      dup2\n      mstore\n      0x20\n      add\n      swap2\n      pop\n    tag_65:\n      pop\n      swap6\n      pop\n      pop\n      pop\n      pop\n      pop\n      pop\n      mload(0x40)\n      dup1\n      swap2\n      sub\n      swap1\n      return\n        /* \"Topic.sol\":508:537  uint public minimumInvestment */\n    tag_7:\n      callvalue\n        /* \"--CODEGEN--\":8:17   */\n      dup1\n        /* \"--CODEGEN--\":5:7   */\n      iszero\n      tag_66\n      jumpi\n        /* \"--CODEGEN--\":30:31   */\n      0x00\n        /* \"--CODEGEN--\":27:28   */\n      dup1\n        /* \"--CODEGEN--\":20:32   */\n      revert\n        /* \"--CODEGEN--\":5:7   */\n    tag_66:\n        /* \"Topic.sol\":508:537  uint public minimumInvestment */\n      pop\n      tag_67\n      tag_68\n      jump\t// in\n    tag_67:\n      mload(0x40)\n      dup1\n      dup3\n      dup2\n      mstore\n      0x20\n      add\n      swap2\n      pop\n      pop\n      mload(0x40)\n      dup1\n      swap2\n      sub\n      swap1\n      return\n        /* \"Topic.sol\":3803:3899  function getTruthCount() public view returns (uint) {\r... */\n    tag_8:\n      callvalue\n        /* \"--CODEGEN--\":8:17   */\n      dup1\n        /* \"--CODEGEN--\":5:7   */\n      iszero\n      tag_69\n      jumpi\n        /* \"--CODEGEN--\":30:31   */\n      0x00\n        /* \"--CODEGEN--\":27:28   */\n      dup1\n        /* \"--CODEGEN--\":20:32   */\n      revert\n        /* \"--CODEGEN--\":5:7   */\n    tag_69:\n        /* \"Topic.sol\":3803:3899  function getTruthCount() public view returns (uint) {\r... */\n      pop\n      tag_70\n      tag_71\n      jump\t// in\n    tag_70:\n      mload(0x40)\n      dup1\n      dup3\n      dup2\n      mstore\n      0x20\n      add\n      swap2\n      pop\n      pop\n      mload(0x40)\n      dup1\n      swap2\n      sub\n      swap1\n      return\n        /* \"Topic.sol\":544:563  uint public endTime */\n    tag_9:\n      callvalue\n        /* \"--CODEGEN--\":8:17   */\n      dup1\n        /* \"--CODEGEN--\":5:7   */\n      iszero\n      tag_72\n      jumpi\n        /* \"--CODEGEN--\":30:31   */\n      0x00\n        /* \"--CODEGEN--\":27:28   */\n      dup1\n        /* \"--CODEGEN--\":20:32   */\n      revert\n        /* \"--CODEGEN--\":5:7   */\n    tag_72:\n        /* \"Topic.sol\":544:563  uint public endTime */\n      pop\n      tag_73\n      tag_74\n      jump\t// in\n    tag_73:\n      mload(0x40)\n      dup1\n      dup3\n      dup2\n      mstore\n      0x20\n      add\n      swap2\n      pop\n      pop\n      mload(0x40)\n      dup1\n      swap2\n      sub\n      swap1\n      return\n        /* \"Topic.sol\":982:1029  mapping(address => uint) public createdArgument */\n    tag_10:\n      callvalue\n        /* \"--CODEGEN--\":8:17   */\n      dup1\n        /* \"--CODEGEN--\":5:7   */\n      iszero\n      tag_75\n      jumpi\n        /* \"--CODEGEN--\":30:31   */\n      0x00\n        /* \"--CODEGEN--\":27:28   */\n      dup1\n        /* \"--CODEGEN--\":20:32   */\n      revert\n        /* \"--CODEGEN--\":5:7   */\n    tag_75:\n        /* \"Topic.sol\":982:1029  mapping(address => uint) public createdArgument */\n      pop\n      tag_76\n      0x04\n      dup1\n      calldatasize\n      sub\n        /* \"--CODEGEN--\":13:15   */\n      0x20\n        /* \"--CODEGEN--\":8:11   */\n      dup2\n        /* \"--CODEGEN--\":5:16   */\n      lt\n        /* \"--CODEGEN--\":2:4   */\n      iszero\n      tag_77\n      jumpi\n        /* \"--CODEGEN--\":29:30   */\n      0x00\n        /* \"--CODEGEN--\":26:27   */\n      dup1\n        /* \"--CODEGEN--\":19:31   */\n      revert\n        /* \"--CODEGEN--\":2:4   */\n    tag_77:\n        /* \"Topic.sol\":982:1029  mapping(address => uint) public createdArgument */\n      dup2\n      add\n      swap1\n      dup1\n      dup1\n      calldataload\n      0xffffffffffffffffffffffffffffffffffffffff\n      and\n      swap1\n      0x20\n      add\n      swap1\n      swap3\n      swap2\n      swap1\n      pop\n      pop\n      pop\n      tag_78\n      jump\t// in\n    tag_76:\n      mload(0x40)\n      dup1\n      dup3\n      dup2\n      mstore\n      0x20\n      add\n      swap2\n      pop\n      pop\n      mload(0x40)\n      dup1\n      swap2\n      sub\n      swap1\n      return\n        /* \"Topic.sol\":7299:7518  function calculateMonetaryGain(uint initialMonetaryInvestment) public view returns (uint) {\r... */\n    tag_11:\n      callvalue\n        /* \"--CODEGEN--\":8:17   */\n      dup1\n        /* \"--CODEGEN--\":5:7   */\n      iszero\n      tag_79\n      jumpi\n        /* \"--CODEGEN--\":30:31   */\n      0x00\n        /* \"--CODEGEN--\":27:28   */\n      dup1\n        /* \"--CODEGEN--\":20:32   */\n      revert\n        /* \"--CODEGEN--\":5:7   */\n    tag_79:\n        /* \"Topic.sol\":7299:7518  function calculateMonetaryGain(uint initialMonetaryInvestment) public view returns (uint) {\r... */\n      pop\n      tag_80\n      0x04\n      dup1\n      calldatasize\n      sub\n        /* \"--CODEGEN--\":13:15   */\n      0x20\n        /* \"--CODEGEN--\":8:11   */\n      dup2\n        /* \"--CODEGEN--\":5:16   */\n      lt\n        /* \"--CODEGEN--\":2:4   */\n      iszero\n      tag_81\n      jumpi\n        /* \"--CODEGEN--\":29:30   */\n      0x00\n        /* \"--CODEGEN--\":26:27   */\n      dup1\n        /* \"--CODEGEN--\":19:31   */\n      revert\n        /* \"--CODEGEN--\":2:4   */\n    tag_81:\n        /* \"Topic.sol\":7299:7518  function calculateMonetaryGain(uint initialMonetaryInvestment) public view returns (uint) {\r... */\n      dup2\n      add\n      swap1\n      dup1\n      dup1\n      calldataload\n      swap1\n      0x20\n      add\n      swap1\n      swap3\n      swap2\n      swap1\n      pop\n      pop\n      pop\n      tag_82\n      jump\t// in\n    tag_80:\n      mload(0x40)\n      dup1\n      dup3\n      dup2\n      mstore\n      0x20\n      add\n      swap2\n      pop\n      pop\n      mload(0x40)\n      dup1\n      swap2\n      sub\n      swap1\n      return\n        /* \"Topic.sol\":6439:7291  function claim() public {\r... */\n    tag_12:\n      callvalue\n        /* \"--CODEGEN--\":8:17   */\n      dup1\n        /* \"--CODEGEN--\":5:7   */\n      iszero\n      tag_83\n      jumpi\n        /* \"--CODEGEN--\":30:31   */\n      0x00\n        /* \"--CODEGEN--\":27:28   */\n      dup1\n        /* \"--CODEGEN--\":20:32   */\n      revert\n        /* \"--CODEGEN--\":5:7   */\n    tag_83:\n        /* \"Topic.sol\":6439:7291  function claim() public {\r... */\n      pop\n      tag_84\n      tag_85\n      jump\t// in\n    tag_84:\n      stop\n        /* \"Topic.sol\":759:794  uint public totalMonetaryInvestment */\n    tag_13:\n      callvalue\n        /* \"--CODEGEN--\":8:17   */\n      dup1\n        /* \"--CODEGEN--\":5:7   */\n      iszero\n      tag_86\n      jumpi\n        /* \"--CODEGEN--\":30:31   */\n      0x00\n        /* \"--CODEGEN--\":27:28   */\n      dup1\n        /* \"--CODEGEN--\":20:32   */\n      revert\n        /* \"--CODEGEN--\":5:7   */\n    tag_86:\n        /* \"Topic.sol\":759:794  uint public totalMonetaryInvestment */\n      pop\n      tag_87\n      tag_88\n      jump\t// in\n    tag_87:\n      mload(0x40)\n      dup1\n      dup3\n      dup2\n      mstore\n      0x20\n      add\n      swap2\n      pop\n      pop\n      mload(0x40)\n      dup1\n      swap2\n      sub\n      swap1\n      return\n        /* \"Topic.sol\":3907:3999  function getLieCount() public view returns (uint) {\r... */\n    tag_14:\n      callvalue\n        /* \"--CODEGEN--\":8:17   */\n      dup1\n        /* \"--CODEGEN--\":5:7   */\n      iszero\n      tag_89\n      jumpi\n        /* \"--CODEGEN--\":30:31   */\n      0x00\n        /* \"--CODEGEN--\":27:28   */\n      dup1\n        /* \"--CODEGEN--\":20:32   */\n      revert\n        /* \"--CODEGEN--\":5:7   */\n    tag_89:\n        /* \"Topic.sol\":3907:3999  function getLieCount() public view returns (uint) {\r... */\n      pop\n      tag_90\n      tag_91\n      jump\t// in\n    tag_90:\n      mload(0x40)\n      dup1\n      dup3\n      dup2\n      mstore\n      0x20\n      add\n      swap2\n      pop\n      pop\n      mload(0x40)\n      dup1\n      swap2\n      sub\n      swap1\n      return\n        /* \"Topic.sol\":2432:2508  function isTopic() public pure returns (bool) {\r... */\n    tag_15:\n      callvalue\n        /* \"--CODEGEN--\":8:17   */\n      dup1\n        /* \"--CODEGEN--\":5:7   */\n      iszero\n      tag_92\n      jumpi\n        /* \"--CODEGEN--\":30:31   */\n      0x00\n        /* \"--CODEGEN--\":27:28   */\n      dup1\n        /* \"--CODEGEN--\":20:32   */\n      revert\n        /* \"--CODEGEN--\":5:7   */\n    tag_92:\n        /* \"Topic.sol\":2432:2508  function isTopic() public pure returns (bool) {\r... */\n      pop\n      tag_93\n      tag_94\n      jump\t// in\n    tag_93:\n      mload(0x40)\n      dup1\n      dup3\n      iszero\n      iszero\n      iszero\n      iszero\n      dup2\n      mstore\n      0x20\n      add\n      swap2\n      pop\n      pop\n      mload(0x40)\n      dup1\n      swap2\n      sub\n      swap1\n      return\n        /* \"Topic.sol\":451:472  string public content */\n    tag_16:\n      callvalue\n        /* \"--CODEGEN--\":8:17   */\n      dup1\n        /* \"--CODEGEN--\":5:7   */\n      iszero\n      tag_95\n      jumpi\n        /* \"--CODEGEN--\":30:31   */\n      0x00\n        /* \"--CODEGEN--\":27:28   */\n      dup1\n        /* \"--CODEGEN--\":20:32   */\n      revert\n        /* \"--CODEGEN--\":5:7   */\n    tag_95:\n        /* \"Topic.sol\":451:472  string public content */\n      pop\n      tag_96\n      tag_97\n      jump\t// in\n    tag_96:\n      mload(0x40)\n      dup1\n      dup1\n      0x20\n      add\n      dup3\n      dup2\n      sub\n      dup3\n      mstore\n      dup4\n      dup2\n      dup2\n      mload\n      dup2\n      mstore\n      0x20\n      add\n      swap2\n      pop\n      dup1\n      mload\n      swap1\n      0x20\n      add\n      swap1\n      dup1\n      dup4\n      dup4\n        /* \"--CODEGEN--\":23:24   */\n      0x00\n        /* \"--CODEGEN--\":8:108   */\n    tag_98:\n        /* \"--CODEGEN--\":33:36   */\n      dup4\n        /* \"--CODEGEN--\":30:31   */\n      dup2\n        /* \"--CODEGEN--\":27:37   */\n      lt\n        /* \"--CODEGEN--\":8:108   */\n      iszero\n      tag_100\n      jumpi\n        /* \"--CODEGEN--\":99:100   */\n      dup1\n        /* \"--CODEGEN--\":94:97   */\n      dup3\n        /* \"--CODEGEN--\":90:101   */\n      add\n        /* \"--CODEGEN--\":84:102   */\n      mload\n        /* \"--CODEGEN--\":80:81   */\n      dup2\n        /* \"--CODEGEN--\":75:78   */\n      dup5\n        /* \"--CODEGEN--\":71:82   */\n      add\n        /* \"--CODEGEN--\":64:103   */\n      mstore\n        /* \"--CODEGEN--\":52:54   */\n      0x20\n        /* \"--CODEGEN--\":49:50   */\n      dup2\n        /* \"--CODEGEN--\":45:55   */\n      add\n        /* \"--CODEGEN--\":40:55   */\n      swap1\n      pop\n        /* \"--CODEGEN--\":8:108   */\n      jump(tag_98)\n    tag_100:\n        /* \"--CODEGEN--\":12:26   */\n      pop\n        /* \"Topic.sol\":451:472  string public content */\n      pop\n      pop\n      pop\n      swap1\n      pop\n      swap1\n      dup2\n      add\n      swap1\n      0x1f\n      and\n      dup1\n      iszero\n      tag_101\n      jumpi\n      dup1\n      dup3\n      sub\n      dup1\n      mload\n      0x01\n      dup4\n      0x20\n      sub\n      0x0100\n      exp\n      sub\n      not\n      and\n      dup2\n      mstore\n      0x20\n      add\n      swap2\n      pop\n    tag_101:\n      pop\n      swap3\n      pop\n      pop\n      pop\n      mload(0x40)\n      dup1\n      swap2\n      sub\n      swap1\n      return\n        /* \"Topic.sol\":7720:8081  function creatorClaim() public _creatorOnly {\r... */\n    tag_17:\n      callvalue\n        /* \"--CODEGEN--\":8:17   */\n      dup1\n        /* \"--CODEGEN--\":5:7   */\n      iszero\n      tag_102\n      jumpi\n        /* \"--CODEGEN--\":30:31   */\n      0x00\n        /* \"--CODEGEN--\":27:28   */\n      dup1\n        /* \"--CODEGEN--\":20:32   */\n      revert\n        /* \"--CODEGEN--\":5:7   */\n    tag_102:\n        /* \"Topic.sol\":7720:8081  function creatorClaim() public _creatorOnly {\r... */\n      pop\n      tag_103\n      tag_104\n      jump\t// in\n    tag_103:\n      stop\n        /* \"Topic.sol\":606:643  mapping(address => uint) public voted */\n    tag_18:\n      callvalue\n        /* \"--CODEGEN--\":8:17   */\n      dup1\n        /* \"--CODEGEN--\":5:7   */\n      iszero\n      tag_105\n      jumpi\n        /* \"--CODEGEN--\":30:31   */\n      0x00\n        /* \"--CODEGEN--\":27:28   */\n      dup1\n        /* \"--CODEGEN--\":20:32   */\n      revert\n        /* \"--CODEGEN--\":5:7   */\n    tag_105:\n        /* \"Topic.sol\":606:643  mapping(address => uint) public voted */\n      pop\n      tag_106\n      0x04\n      dup1\n      calldatasize\n      sub\n        /* \"--CODEGEN--\":13:15   */\n      0x20\n        /* \"--CODEGEN--\":8:11   */\n      dup2\n        /* \"--CODEGEN--\":5:16   */\n      lt\n        /* \"--CODEGEN--\":2:4   */\n      iszero\n      tag_107\n      jumpi\n        /* \"--CODEGEN--\":29:30   */\n      0x00\n        /* \"--CODEGEN--\":26:27   */\n      dup1\n        /* \"--CODEGEN--\":19:31   */\n      revert\n        /* \"--CODEGEN--\":2:4   */\n    tag_107:\n        /* \"Topic.sol\":606:643  mapping(address => uint) public voted */\n      dup2\n      add\n      swap1\n      dup1\n      dup1\n      calldataload\n      0xffffffffffffffffffffffffffffffffffffffff\n      and\n      swap1\n      0x20\n      add\n      swap1\n      swap3\n      swap2\n      swap1\n      pop\n      pop\n      pop\n      tag_108\n      jump\t// in\n    tag_106:\n      mload(0x40)\n      dup1\n      dup3\n      dup2\n      mstore\n      0x20\n      add\n      swap2\n      pop\n      pop\n      mload(0x40)\n      dup1\n      swap2\n      sub\n      swap1\n      return\n        /* \"Topic.sol\":2570:3795  function vote(uint argumentIndex, uint reputationCost) public payable _mustBeWithinTimeFrame {\r... */\n    tag_19:\n      tag_109\n      0x04\n      dup1\n      calldatasize\n      sub\n        /* \"--CODEGEN--\":13:15   */\n      0x40\n        /* \"--CODEGEN--\":8:11   */\n      dup2\n        /* \"--CODEGEN--\":5:16   */\n      lt\n        /* \"--CODEGEN--\":2:4   */\n      iszero\n      tag_110\n      jumpi\n        /* \"--CODEGEN--\":29:30   */\n      0x00\n        /* \"--CODEGEN--\":26:27   */\n      dup1\n        /* \"--CODEGEN--\":19:31   */\n      revert\n        /* \"--CODEGEN--\":2:4   */\n    tag_110:\n        /* \"Topic.sol\":2570:3795  function vote(uint argumentIndex, uint reputationCost) public payable _mustBeWithinTimeFrame {\r... */\n      dup2\n      add\n      swap1\n      dup1\n      dup1\n      calldataload\n      swap1\n      0x20\n      add\n      swap1\n      swap3\n      swap2\n      swap1\n      dup1\n      calldataload\n      swap1\n      0x20\n      add\n      swap1\n      swap3\n      swap2\n      swap1\n      pop\n      pop\n      pop\n      tag_111\n      jump\t// in\n    tag_109:\n      stop\n        /* \"Topic.sol\":7526:7712  function calculateReputationGain(uint initialReputation) pure public returns (uint) {\r... */\n    tag_20:\n      callvalue\n        /* \"--CODEGEN--\":8:17   */\n      dup1\n        /* \"--CODEGEN--\":5:7   */\n      iszero\n      tag_112\n      jumpi\n        /* \"--CODEGEN--\":30:31   */\n      0x00\n        /* \"--CODEGEN--\":27:28   */\n      dup1\n        /* \"--CODEGEN--\":20:32   */\n      revert\n        /* \"--CODEGEN--\":5:7   */\n    tag_112:\n        /* \"Topic.sol\":7526:7712  function calculateReputationGain(uint initialReputation) pure public returns (uint) {\r... */\n      pop\n      tag_113\n      0x04\n      dup1\n      calldatasize\n      sub\n        /* \"--CODEGEN--\":13:15   */\n      0x20\n        /* \"--CODEGEN--\":8:11   */\n      dup2\n        /* \"--CODEGEN--\":5:16   */\n      lt\n        /* \"--CODEGEN--\":2:4   */\n      iszero\n      tag_114\n      jumpi\n        /* \"--CODEGEN--\":29:30   */\n      0x00\n        /* \"--CODEGEN--\":26:27   */\n      dup1\n        /* \"--CODEGEN--\":19:31   */\n      revert\n        /* \"--CODEGEN--\":2:4   */\n    tag_114:\n        /* \"Topic.sol\":7526:7712  function calculateReputationGain(uint initialReputation) pure public returns (uint) {\r... */\n      dup2\n      add\n      swap1\n      dup1\n      dup1\n      calldataload\n      swap1\n      0x20\n      add\n      swap1\n      swap3\n      swap2\n      swap1\n      pop\n      pop\n      pop\n      tag_115\n      jump\t// in\n    tag_113:\n      mload(0x40)\n      dup1\n      dup3\n      dup2\n      mstore\n      0x20\n      add\n      swap2\n      pop\n      pop\n      mload(0x40)\n      dup1\n      swap2\n      sub\n      swap1\n      return\n        /* \"Topic.sol\":1211:1231  uint public majority */\n    tag_21:\n      callvalue\n        /* \"--CODEGEN--\":8:17   */\n      dup1\n        /* \"--CODEGEN--\":5:7   */\n      iszero\n      tag_116\n      jumpi\n        /* \"--CODEGEN--\":30:31   */\n      0x00\n        /* \"--CODEGEN--\":27:28   */\n      dup1\n        /* \"--CODEGEN--\":20:32   */\n      revert\n        /* \"--CODEGEN--\":5:7   */\n    tag_116:\n        /* \"Topic.sol\":1211:1231  uint public majority */\n      pop\n      tag_117\n      tag_118\n      jump\t// in\n    tag_117:\n      mload(0x40)\n      dup1\n      dup3\n      dup2\n      mstore\n      0x20\n      add\n      swap2\n      pop\n      pop\n      mload(0x40)\n      dup1\n      swap2\n      sub\n      swap1\n      return\n        /* \"Topic.sol\":4972:5069  function getArgumentCount() public view returns (uint) {\r... */\n    tag_22:\n      callvalue\n        /* \"--CODEGEN--\":8:17   */\n      dup1\n        /* \"--CODEGEN--\":5:7   */\n      iszero\n      tag_119\n      jumpi\n        /* \"--CODEGEN--\":30:31   */\n      0x00\n        /* \"--CODEGEN--\":27:28   */\n      dup1\n        /* \"--CODEGEN--\":20:32   */\n      revert\n        /* \"--CODEGEN--\":5:7   */\n    tag_119:\n        /* \"Topic.sol\":4972:5069  function getArgumentCount() public view returns (uint) {\r... */\n      pop\n      tag_120\n      tag_121\n      jump\t// in\n    tag_120:\n      mload(0x40)\n      dup1\n      dup3\n      dup2\n      mstore\n      0x20\n      add\n      swap2\n      pop\n      pop\n      mload(0x40)\n      dup1\n      swap2\n      sub\n      swap1\n      return\n        /* \"Topic.sol\":844:896  mapping(address => uint) public reputationInvestment */\n    tag_23:\n      callvalue\n        /* \"--CODEGEN--\":8:17   */\n      dup1\n        /* \"--CODEGEN--\":5:7   */\n      iszero\n      tag_122\n      jumpi\n        /* \"--CODEGEN--\":30:31   */\n      0x00\n        /* \"--CODEGEN--\":27:28   */\n      dup1\n        /* \"--CODEGEN--\":20:32   */\n      revert\n        /* \"--CODEGEN--\":5:7   */\n    tag_122:\n        /* \"Topic.sol\":844:896  mapping(address => uint) public reputationInvestment */\n      pop\n      tag_123\n      0x04\n      dup1\n      calldatasize\n      sub\n        /* \"--CODEGEN--\":13:15   */\n      0x20\n        /* \"--CODEGEN--\":8:11   */\n      dup2\n        /* \"--CODEGEN--\":5:16   */\n      lt\n        /* \"--CODEGEN--\":2:4   */\n      iszero\n      tag_124\n      jumpi\n        /* \"--CODEGEN--\":29:30   */\n      0x00\n        /* \"--CODEGEN--\":26:27   */\n      dup1\n        /* \"--CODEGEN--\":19:31   */\n      revert\n        /* \"--CODEGEN--\":2:4   */\n    tag_124:\n        /* \"Topic.sol\":844:896  mapping(address => uint) public reputationInvestment */\n      dup2\n      add\n      swap1\n      dup1\n      dup1\n      calldataload\n      0xffffffffffffffffffffffffffffffffffffffff\n      and\n      swap1\n      0x20\n      add\n      swap1\n      swap3\n      swap2\n      swap1\n      pop\n      pop\n      pop\n      tag_125\n      jump\t// in\n    tag_123:\n      mload(0x40)\n      dup1\n      dup3\n      dup2\n      mstore\n      0x20\n      add\n      swap2\n      pop\n      pop\n      mload(0x40)\n      dup1\n      swap2\n      sub\n      swap1\n      return\n        /* \"Topic.sol\":1062:1098  address payable[] public truthVoters */\n    tag_24:\n      callvalue\n        /* \"--CODEGEN--\":8:17   */\n      dup1\n        /* \"--CODEGEN--\":5:7   */\n      iszero\n      tag_126\n      jumpi\n        /* \"--CODEGEN--\":30:31   */\n      0x00\n        /* \"--CODEGEN--\":27:28   */\n      dup1\n        /* \"--CODEGEN--\":20:32   */\n      revert\n        /* \"--CODEGEN--\":5:7   */\n    tag_126:\n        /* \"Topic.sol\":1062:1098  address payable[] public truthVoters */\n      pop\n      tag_127\n      0x04\n      dup1\n      calldatasize\n      sub\n        /* \"--CODEGEN--\":13:15   */\n      0x20\n        /* \"--CODEGEN--\":8:11   */\n      dup2\n        /* \"--CODEGEN--\":5:16   */\n      lt\n        /* \"--CODEGEN--\":2:4   */\n      iszero\n      tag_128\n      jumpi\n        /* \"--CODEGEN--\":29:30   */\n      0x00\n        /* \"--CODEGEN--\":26:27   */\n      dup1\n        /* \"--CODEGEN--\":19:31   */\n      revert\n        /* \"--CODEGEN--\":2:4   */\n    tag_128:\n        /* \"Topic.sol\":1062:1098  address payable[] public truthVoters */\n      dup2\n      add\n      swap1\n      dup1\n      dup1\n      calldataload\n      swap1\n      0x20\n      add\n      swap1\n      swap3\n      swap2\n      swap1\n      pop\n      pop\n      pop\n      tag_129\n      jump\t// in\n    tag_127:\n      mload(0x40)\n      dup1\n      dup3\n      0xffffffffffffffffffffffffffffffffffffffff\n      and\n      0xffffffffffffffffffffffffffffffffffffffff\n      and\n      dup2\n      mstore\n      0x20\n      add\n      swap2\n      pop\n      pop\n      mload(0x40)\n      dup1\n      swap2\n      sub\n      swap1\n      return\n        /* \"Topic.sol\":936:973  uint public totalReputationInvestment */\n    tag_25:\n      callvalue\n        /* \"--CODEGEN--\":8:17   */\n      dup1\n        /* \"--CODEGEN--\":5:7   */\n      iszero\n      tag_130\n      jumpi\n        /* \"--CODEGEN--\":30:31   */\n      0x00\n        /* \"--CODEGEN--\":27:28   */\n      dup1\n        /* \"--CODEGEN--\":20:32   */\n      revert\n        /* \"--CODEGEN--\":5:7   */\n    tag_130:\n        /* \"Topic.sol\":936:973  uint public totalReputationInvestment */\n      pop\n      tag_131\n      tag_132\n      jump\t// in\n    tag_131:\n      mload(0x40)\n      dup1\n      dup3\n      dup2\n      mstore\n      0x20\n      add\n      swap2\n      pop\n      pop\n      mload(0x40)\n      dup1\n      swap2\n      sub\n      swap1\n      return\n        /* \"Topic.sol\":4510:4964  function modifyArgument(uint argumentIndex, string memory newContent, bool belief) public _mustBeWithinTimeFrame  {\r... */\n    tag_26:\n      callvalue\n        /* \"--CODEGEN--\":8:17   */\n      dup1\n        /* \"--CODEGEN--\":5:7   */\n      iszero\n      tag_133\n      jumpi\n        /* \"--CODEGEN--\":30:31   */\n      0x00\n        /* \"--CODEGEN--\":27:28   */\n      dup1\n        /* \"--CODEGEN--\":20:32   */\n      revert\n        /* \"--CODEGEN--\":5:7   */\n    tag_133:\n        /* \"Topic.sol\":4510:4964  function modifyArgument(uint argumentIndex, string memory newContent, bool belief) public _mustBeWithinTimeFrame  {\r... */\n      pop\n      tag_134\n      0x04\n      dup1\n      calldatasize\n      sub\n        /* \"--CODEGEN--\":13:15   */\n      0x60\n        /* \"--CODEGEN--\":8:11   */\n      dup2\n        /* \"--CODEGEN--\":5:16   */\n      lt\n        /* \"--CODEGEN--\":2:4   */\n      iszero\n      tag_135\n      jumpi\n        /* \"--CODEGEN--\":29:30   */\n      0x00\n        /* \"--CODEGEN--\":26:27   */\n      dup1\n        /* \"--CODEGEN--\":19:31   */\n      revert\n        /* \"--CODEGEN--\":2:4   */\n    tag_135:\n        /* \"Topic.sol\":4510:4964  function modifyArgument(uint argumentIndex, string memory newContent, bool belief) public _mustBeWithinTimeFrame  {\r... */\n      dup2\n      add\n      swap1\n      dup1\n      dup1\n      calldataload\n      swap1\n      0x20\n      add\n      swap1\n      swap3\n      swap2\n      swap1\n      dup1\n      calldataload\n      swap1\n      0x20\n      add\n      swap1\n        /* \"--CODEGEN--\":21:32   */\n      0x0100000000\n        /* \"--CODEGEN--\":8:19   */\n      dup2\n        /* \"--CODEGEN--\":5:33   */\n      gt\n        /* \"--CODEGEN--\":2:4   */\n      iszero\n      tag_136\n      jumpi\n        /* \"--CODEGEN--\":46:47   */\n      0x00\n        /* \"--CODEGEN--\":43:44   */\n      dup1\n        /* \"--CODEGEN--\":36:48   */\n      revert\n        /* \"--CODEGEN--\":2:4   */\n    tag_136:\n        /* \"Topic.sol\":4510:4964  function modifyArgument(uint argumentIndex, string memory newContent, bool belief) public _mustBeWithinTimeFrame  {\r... */\n      dup3\n      add\n        /* \"--CODEGEN--\":35:44   */\n      dup4\n        /* \"--CODEGEN--\":28:32   */\n      0x20\n        /* \"--CODEGEN--\":12:26   */\n      dup3\n        /* \"--CODEGEN--\":8:33   */\n      add\n        /* \"--CODEGEN--\":5:45   */\n      gt\n        /* \"--CODEGEN--\":2:4   */\n      iszero\n      tag_137\n      jumpi\n        /* \"--CODEGEN--\":58:59   */\n      0x00\n        /* \"--CODEGEN--\":55:56   */\n      dup1\n        /* \"--CODEGEN--\":48:60   */\n      revert\n        /* \"--CODEGEN--\":2:4   */\n    tag_137:\n        /* \"Topic.sol\":4510:4964  function modifyArgument(uint argumentIndex, string memory newContent, bool belief) public _mustBeWithinTimeFrame  {\r... */\n      dup1\n      calldataload\n      swap1\n      0x20\n      add\n      swap2\n        /* \"--CODEGEN--\":100:109   */\n      dup5\n        /* \"--CODEGEN--\":95:96   */\n      0x01\n        /* \"--CODEGEN--\":81:93   */\n      dup4\n        /* \"--CODEGEN--\":77:97   */\n      mul\n        /* \"--CODEGEN--\":67:75   */\n      dup5\n        /* \"--CODEGEN--\":63:98   */\n      add\n        /* \"--CODEGEN--\":60:110   */\n      gt\n        /* \"--CODEGEN--\":39:50   */\n      0x0100000000\n        /* \"--CODEGEN--\":25:37   */\n      dup4\n        /* \"--CODEGEN--\":22:51   */\n      gt\n        /* \"--CODEGEN--\":11:118   */\n      or\n        /* \"--CODEGEN--\":8:10   */\n      iszero\n      tag_138\n      jumpi\n        /* \"--CODEGEN--\":131:132   */\n      0x00\n        /* \"--CODEGEN--\":128:129   */\n      dup1\n        /* \"--CODEGEN--\":121:133   */\n      revert\n        /* \"--CODEGEN--\":8:10   */\n    tag_138:\n        /* \"Topic.sol\":4510:4964  function modifyArgument(uint argumentIndex, string memory newContent, bool belief) public _mustBeWithinTimeFrame  {\r... */\n      swap2\n      swap1\n      dup1\n      dup1\n      0x1f\n      add\n      0x20\n      dup1\n      swap2\n      div\n      mul\n      0x20\n      add\n      mload(0x40)\n      swap1\n      dup2\n      add\n      0x40\n      mstore\n      dup1\n      swap4\n      swap3\n      swap2\n      swap1\n      dup2\n      dup2\n      mstore\n      0x20\n      add\n      dup4\n      dup4\n        /* \"--CODEGEN--\":30:33   */\n      dup1\n        /* \"--CODEGEN--\":22:28   */\n      dup3\n        /* \"--CODEGEN--\":14:20   */\n      dup5\n        /* \"--CODEGEN--\":1:34   */\n      calldatacopy\n        /* \"--CODEGEN--\":99:100   */\n      0x00\n        /* \"--CODEGEN--\":93:96   */\n      dup2\n        /* \"--CODEGEN--\":85:91   */\n      dup5\n        /* \"--CODEGEN--\":81:97   */\n      add\n        /* \"--CODEGEN--\":74:101   */\n      mstore\n        /* \"--CODEGEN--\":137:141   */\n      0x1f\n        /* \"--CODEGEN--\":133:142   */\n      not\n        /* \"--CODEGEN--\":126:130   */\n      0x1f\n        /* \"--CODEGEN--\":121:124   */\n      dup3\n        /* \"--CODEGEN--\":117:131   */\n      add\n        /* \"--CODEGEN--\":113:143   */\n      and\n        /* \"--CODEGEN--\":106:143   */\n      swap1\n      pop\n        /* \"--CODEGEN--\":169:172   */\n      dup1\n        /* \"--CODEGEN--\":161:167   */\n      dup4\n        /* \"--CODEGEN--\":157:173   */\n      add\n        /* \"--CODEGEN--\":147:173   */\n      swap3\n      pop\n        /* \"Topic.sol\":4510:4964  function modifyArgument(uint argumentIndex, string memory newContent, bool belief) public _mustBeWithinTimeFrame  {\r... */\n      pop\n      pop\n      pop\n      pop\n      pop\n      pop\n      swap2\n      swap3\n      swap2\n      swap3\n      swap1\n      dup1\n      calldataload\n      iszero\n      iszero\n      swap1\n      0x20\n      add\n      swap1\n      swap3\n      swap2\n      swap1\n      pop\n      pop\n      pop\n      tag_139\n      jump\t// in\n    tag_134:\n      stop\n        /* \"Topic.sol\":6056:6154  function getMoneyPool() public view returns (uint) {\r... */\n    tag_27:\n      callvalue\n        /* \"--CODEGEN--\":8:17   */\n      dup1\n        /* \"--CODEGEN--\":5:7   */\n      iszero\n      tag_140\n      jumpi\n        /* \"--CODEGEN--\":30:31   */\n      0x00\n        /* \"--CODEGEN--\":27:28   */\n      dup1\n        /* \"--CODEGEN--\":20:32   */\n      revert\n        /* \"--CODEGEN--\":5:7   */\n    tag_140:\n        /* \"Topic.sol\":6056:6154  function getMoneyPool() public view returns (uint) {\r... */\n      pop\n      tag_141\n      tag_142\n      jump\t// in\n    tag_141:\n      mload(0x40)\n      dup1\n      dup3\n      dup2\n      mstore\n      0x20\n      add\n      swap2\n      pop\n      pop\n      mload(0x40)\n      dup1\n      swap2\n      sub\n      swap1\n      return\n        /* \"Topic.sol\":1181:1204  bool public isCompleted */\n    tag_28:\n      callvalue\n        /* \"--CODEGEN--\":8:17   */\n      dup1\n        /* \"--CODEGEN--\":5:7   */\n      iszero\n      tag_143\n      jumpi\n        /* \"--CODEGEN--\":30:31   */\n      0x00\n        /* \"--CODEGEN--\":27:28   */\n      dup1\n        /* \"--CODEGEN--\":20:32   */\n      revert\n        /* \"--CODEGEN--\":5:7   */\n    tag_143:\n        /* \"Topic.sol\":1181:1204  bool public isCompleted */\n      pop\n      tag_144\n      tag_145\n      jump\t// in\n    tag_144:\n      mload(0x40)\n      dup1\n      dup3\n      iszero\n      iszero\n      iszero\n      iszero\n      dup2\n      mstore\n      0x20\n      add\n      swap2\n      pop\n      pop\n      mload(0x40)\n      dup1\n      swap2\n      sub\n      swap1\n      return\n        /* \"Topic.sol\":801:831  uint public finalMonetaryTotal */\n    tag_29:\n      callvalue\n        /* \"--CODEGEN--\":8:17   */\n      dup1\n        /* \"--CODEGEN--\":5:7   */\n      iszero\n      tag_146\n      jumpi\n        /* \"--CODEGEN--\":30:31   */\n      0x00\n        /* \"--CODEGEN--\":27:28   */\n      dup1\n        /* \"--CODEGEN--\":20:32   */\n      revert\n        /* \"--CODEGEN--\":5:7   */\n    tag_146:\n        /* \"Topic.sol\":801:831  uint public finalMonetaryTotal */\n      pop\n      tag_147\n      tag_148\n      jump\t// in\n    tag_147:\n      mload(0x40)\n      dup1\n      dup3\n      dup2\n      mstore\n      0x20\n      add\n      swap2\n      pop\n      pop\n      mload(0x40)\n      dup1\n      swap2\n      sub\n      swap1\n      return\n        /* \"Topic.sol\":8089:8235  function getDetails() public view returns (address, uint, uint, bool) {\r... */\n    tag_30:\n      callvalue\n        /* \"--CODEGEN--\":8:17   */\n      dup1\n        /* \"--CODEGEN--\":5:7   */\n      iszero\n      tag_149\n      jumpi\n        /* \"--CODEGEN--\":30:31   */\n      0x00\n        /* \"--CODEGEN--\":27:28   */\n      dup1\n        /* \"--CODEGEN--\":20:32   */\n      revert\n        /* \"--CODEGEN--\":5:7   */\n    tag_149:\n        /* \"Topic.sol\":8089:8235  function getDetails() public view returns (address, uint, uint, bool) {\r... */\n      pop\n      tag_150\n      tag_151\n      jump\t// in\n    tag_150:\n      mload(0x40)\n      dup1\n      dup6\n      0xffffffffffffffffffffffffffffffffffffffff\n      and\n      0xffffffffffffffffffffffffffffffffffffffff\n      and\n      dup2\n      mstore\n      0x20\n      add\n      dup5\n      dup2\n      mstore\n      0x20\n      add\n      dup4\n      dup2\n      mstore\n      0x20\n      add\n      dup3\n      iszero\n      iszero\n      iszero\n      iszero\n      dup2\n      mstore\n      0x20\n      add\n      swap5\n      pop\n      pop\n      pop\n      pop\n      pop\n      mload(0x40)\n      dup1\n      swap2\n      sub\n      swap1\n      return\n        /* \"Topic.sol\":479:501  address public creator */\n    tag_42:\n      0x04\n      0x00\n      swap1\n      sload\n      swap1\n      0x0100\n      exp\n      swap1\n      div\n      0xffffffffffffffffffffffffffffffffffffffff\n      and\n      dup2\n      jump\t// out\n        /* \"Topic.sol\":4007:4502  function createArgument(string memory argumentContent, bool belief) public _mustBeWithinTimeFrame {\r... */\n    tag_49:\n        /* \"Topic.sol\":1556:1563  endTime */\n      sload(0x06)\n        /* \"Topic.sol\":1538:1553  block.timestamp */\n      timestamp\n        /* \"Topic.sol\":1538:1563  block.timestamp < endTime */\n      lt\n        /* \"Topic.sol\":1530:1611  require(block.timestamp < endTime, 'The period for the Topic has already ended.') */\n      tag_153\n      jumpi\n      mload(0x40)\n      0x08c379a000000000000000000000000000000000000000000000000000000000\n      dup2\n      mstore\n      0x04\n      add\n      dup1\n      dup1\n      0x20\n      add\n      dup3\n      dup2\n      sub\n      dup3\n      mstore\n      0x2b\n      dup2\n      mstore\n      0x20\n      add\n      dup1\n      data_9f7f122b70f117f8950311c325d9279ba88d6a0d2b593ed4f11b7663b9f48d07\n      0x2b\n      swap2\n      codecopy\n      0x40\n      add\n      swap2\n      pop\n      pop\n      mload(0x40)\n      dup1\n      swap2\n      sub\n      swap1\n      revert\n    tag_153:\n        /* \"Topic.sol\":4155:4156  0 */\n      0x00\n        /* \"Topic.sol\":4124:4139  createdArgument */\n      0x0e\n        /* \"Topic.sol\":4124:4151  createdArgument[msg.sender] */\n      0x00\n        /* \"Topic.sol\":4140:4150  msg.sender */\n      caller\n        /* \"Topic.sol\":4124:4151  createdArgument[msg.sender] */\n      0xffffffffffffffffffffffffffffffffffffffff\n      and\n      0xffffffffffffffffffffffffffffffffffffffff\n      and\n      dup2\n      mstore\n      0x20\n      add\n      swap1\n      dup2\n      mstore\n      0x20\n      add\n      0x00\n      keccak256\n      sload\n        /* \"Topic.sol\":4124:4156  createdArgument[msg.sender] == 0 */\n      eq\n        /* \"Topic.sol\":4116:4198  require(createdArgument[msg.sender] == 0, 'You have already created an argument.') */\n      tag_155\n      jumpi\n      mload(0x40)\n      0x08c379a000000000000000000000000000000000000000000000000000000000\n      dup2\n      mstore\n      0x04\n      add\n      dup1\n      dup1\n      0x20\n      add\n      dup3\n      dup2\n      sub\n      dup3\n      mstore\n      0x25\n      dup2\n      mstore\n      0x20\n      add\n      dup1\n      data_8912f675a50e382e9fd7b592cf1cd9595235c43ce4309904b1bd35e2a18fc4ee\n      0x25\n      swap2\n      codecopy\n      0x40\n      add\n      swap2\n      pop\n      pop\n      mload(0x40)\n      dup1\n      swap2\n      sub\n      swap1\n      revert\n    tag_155:\n        /* \"Topic.sol\":4211:4238  Argument memory newArgument */\n      tag_156\n      tag_157\n      jump\t// in\n    tag_156:\n        /* \"Topic.sol\":4241:4391  Argument({\r... */\n      mload(0x40)\n      dup1\n      0x80\n      add\n      0x40\n      mstore\n      dup1\n        /* \"Topic.sol\":4274:4289  argumentContent */\n      dup5\n        /* \"Topic.sol\":4241:4391  Argument({\r... */\n      dup2\n      mstore\n      0x20\n      add\n        /* \"Topic.sol\":4312:4318  belief */\n      dup4\n        /* \"Topic.sol\":4241:4391  Argument({\r... */\n      iszero\n      iszero\n      dup2\n      mstore\n      0x20\n      add\n        /* \"Topic.sol\":4342:4352  msg.sender */\n      caller\n        /* \"Topic.sol\":4241:4391  Argument({\r... */\n      0xffffffffffffffffffffffffffffffffffffffff\n      and\n      dup2\n      mstore\n      0x20\n      add\n        /* \"Topic.sol\":4378:4379  0 */\n      0x00\n        /* \"Topic.sol\":4241:4391  Argument({\r... */\n      dup2\n      mstore\n      pop\n        /* \"Topic.sol\":4211:4391  Argument memory newArgument = Argument({\r... */\n      swap1\n      pop\n        /* \"Topic.sol\":4402:4411  arguments */\n      0x07\n        /* \"Topic.sol\":4417:4428  newArgument */\n      dup2\n        /* \"Topic.sol\":4402:4429  arguments.push(newArgument) */\n      swap1\n      dup1\n        /* \"--CODEGEN--\":39:40   */\n      0x01\n        /* \"--CODEGEN--\":33:36   */\n      dup2\n        /* \"--CODEGEN--\":27:37   */\n      sload\n        /* \"--CODEGEN--\":23:41   */\n      add\n        /* \"--CODEGEN--\":57:67   */\n      dup1\n        /* \"--CODEGEN--\":52:55   */\n      dup3\n        /* \"--CODEGEN--\":45:68   */\n      sstore\n        /* \"--CODEGEN--\":79:89   */\n      dup1\n        /* \"--CODEGEN--\":72:89   */\n      swap2\n      pop\n        /* \"--CODEGEN--\":0:93   */\n      pop\n        /* \"Topic.sol\":4402:4429  arguments.push(newArgument) */\n      swap1\n      0x01\n      dup3\n      sub\n      swap1\n      0x00\n      mstore\n      keccak256(0x00, 0x20)\n      swap1\n      0x03\n      mul\n      add\n      0x00\n      swap1\n      swap2\n      swap3\n      swap1\n      swap2\n      swap1\n      swap2\n      pop\n      0x00\n      dup3\n      add\n      mload\n      dup2\n      0x00\n      add\n      swap1\n      dup1\n      mload\n      swap1\n      0x20\n      add\n      swap1\n      tag_159\n      swap3\n      swap2\n      swap1\n      tag_160\n      jump\t// in\n    tag_159:\n      pop\n      0x20\n      dup3\n      add\n      mload\n      dup2\n      0x01\n      add\n      exp(0x0100, 0x00)\n      dup2\n      sload\n      dup2\n      0xff\n      mul\n      not\n      and\n      swap1\n      dup4\n      iszero\n      iszero\n      mul\n      or\n      swap1\n      sstore\n      pop\n      0x40\n      dup3\n      add\n      mload\n      dup2\n      0x01\n      add\n      exp(0x0100, 0x01)\n      dup2\n      sload\n      dup2\n      0xffffffffffffffffffffffffffffffffffffffff\n      mul\n      not\n      and\n      swap1\n      dup4\n      0xffffffffffffffffffffffffffffffffffffffff\n      and\n      mul\n      or\n      swap1\n      sstore\n      pop\n      0x60\n      dup3\n      add\n      mload\n      dup2\n      0x02\n      add\n      sstore\n      pop\n      pop\n      pop\n        /* \"Topic.sol\":4491:4492  1 */\n      0x01\n        /* \"Topic.sol\":4470:4488  getArgumentCount() */\n      tag_161\n        /* \"Topic.sol\":4470:4486  getArgumentCount */\n      tag_121\n        /* \"Topic.sol\":4470:4488  getArgumentCount() */\n      jump\t// in\n    tag_161:\n        /* \"Topic.sol\":4470:4492  getArgumentCount() - 1 */\n      sub\n        /* \"Topic.sol\":4440:4455  createdArgument */\n      0x0e\n        /* \"Topic.sol\":4440:4467  createdArgument[msg.sender] */\n      0x00\n        /* \"Topic.sol\":4456:4466  msg.sender */\n      caller\n        /* \"Topic.sol\":4440:4467  createdArgument[msg.sender] */\n      0xffffffffffffffffffffffffffffffffffffffff\n      and\n      0xffffffffffffffffffffffffffffffffffffffff\n      and\n      dup2\n      mstore\n      0x20\n      add\n      swap1\n      dup2\n      mstore\n      0x20\n      add\n      0x00\n      keccak256\n        /* \"Topic.sol\":4440:4492  createdArgument[msg.sender] = getArgumentCount() - 1 */\n      dup2\n      swap1\n      sstore\n      pop\n        /* \"Topic.sol\":1622:1623  _ */\n      pop\n        /* \"Topic.sol\":4007:4502  function createArgument(string memory argumentContent, bool belief) public _mustBeWithinTimeFrame {\r... */\n      pop\n      pop\n      jump\t// out\n        /* \"Topic.sol\":676:726  mapping(address => uint) public monetaryInvestment */\n    tag_53:\n      mstore(0x20, 0x09)\n      dup1\n      0x00\n      mstore\n      keccak256(0x00, 0x40)\n      0x00\n      swap2\n      pop\n      swap1\n      pop\n      sload\n      dup2\n      jump\t// out\n        /* \"Topic.sol\":1121:1155  address payable[] public lieVoters */\n    tag_57:\n      0x10\n      dup2\n      dup2\n      sload\n      dup2\n      lt\n      tag_162\n      jumpi\n      invalid\n    tag_162:\n      swap1\n      0x00\n      mstore\n      keccak256(0x00, 0x20)\n      add\n      0x00\n      swap2\n      pop\n      sload\n      swap1\n      0x0100\n      exp\n      swap1\n      div\n      0xffffffffffffffffffffffffffffffffffffffff\n      and\n      dup2\n      jump\t// out\n        /* \"Topic.sol\":570:597  Argument[] public arguments */\n    tag_61:\n      0x07\n      dup2\n      dup2\n      sload\n      dup2\n      lt\n      tag_164\n      jumpi\n      invalid\n    tag_164:\n      swap1\n      0x00\n      mstore\n      keccak256(0x00, 0x20)\n      swap1\n      0x03\n      mul\n      add\n      0x00\n      swap2\n      pop\n      swap1\n      pop\n      dup1\n      0x00\n      add\n      dup1\n      sload\n      0x01\n      dup2\n      0x01\n      and\n      iszero\n      0x0100\n      mul\n      sub\n      and\n      0x02\n      swap1\n      div\n      dup1\n      0x1f\n      add\n      0x20\n      dup1\n      swap2\n      div\n      mul\n      0x20\n      add\n      mload(0x40)\n      swap1\n      dup2\n      add\n      0x40\n      mstore\n      dup1\n      swap3\n      swap2\n      swap1\n      dup2\n      dup2\n      mstore\n      0x20\n      add\n      dup3\n      dup1\n      sload\n      0x01\n      dup2\n      0x01\n      and\n      iszero\n      0x0100\n      mul\n      sub\n      and\n      0x02\n      swap1\n      div\n      dup1\n      iszero\n      tag_166\n      jumpi\n      dup1\n      0x1f\n      lt\n      tag_167\n      jumpi\n      0x0100\n      dup1\n      dup4\n      sload\n      div\n      mul\n      dup4\n      mstore\n      swap2\n      0x20\n      add\n      swap2\n      jump(tag_166)\n    tag_167:\n      dup3\n      add\n      swap2\n      swap1\n      0x00\n      mstore\n      keccak256(0x00, 0x20)\n      swap1\n    tag_168:\n      dup2\n      sload\n      dup2\n      mstore\n      swap1\n      0x01\n      add\n      swap1\n      0x20\n      add\n      dup1\n      dup4\n      gt\n      tag_168\n      jumpi\n      dup3\n      swap1\n      sub\n      0x1f\n      and\n      dup3\n      add\n      swap2\n    tag_166:\n      pop\n      pop\n      pop\n      pop\n      pop\n      swap1\n      dup1\n      0x01\n      add\n      0x00\n      swap1\n      sload\n      swap1\n      0x0100\n      exp\n      swap1\n      div\n      0xff\n      and\n      swap1\n      dup1\n      0x01\n      add\n      0x01\n      swap1\n      sload\n      swap1\n      0x0100\n      exp\n      swap1\n      div\n      0xffffffffffffffffffffffffffffffffffffffff\n      and\n      swap1\n      dup1\n      0x02\n      add\n      sload\n      swap1\n      pop\n      dup5\n      jump\t// out\n        /* \"Topic.sol\":508:537  uint public minimumInvestment */\n    tag_68:\n      sload(0x05)\n      dup2\n      jump\t// out\n        /* \"Topic.sol\":3803:3899  function getTruthCount() public view returns (uint) {\r... */\n    tag_71:\n        /* \"Topic.sol\":3849:3853  uint */\n      0x00\n        /* \"Topic.sol\":3873:3884  truthVoters */\n      0x0f\n        /* \"Topic.sol\":3873:3891  truthVoters.length */\n      dup1\n      sload\n      swap1\n      pop\n        /* \"Topic.sol\":3866:3891  return truthVoters.length */\n      swap1\n      pop\n        /* \"Topic.sol\":3803:3899  function getTruthCount() public view returns (uint) {\r... */\n      swap1\n      jump\t// out\n        /* \"Topic.sol\":544:563  uint public endTime */\n    tag_74:\n      sload(0x06)\n      dup2\n      jump\t// out\n        /* \"Topic.sol\":982:1029  mapping(address => uint) public createdArgument */\n    tag_78:\n      mstore(0x20, 0x0e)\n      dup1\n      0x00\n      mstore\n      keccak256(0x00, 0x40)\n      0x00\n      swap2\n      pop\n      swap1\n      pop\n      sload\n      dup2\n      jump\t// out\n        /* \"Topic.sol\":7299:7518  function calculateMonetaryGain(uint initialMonetaryInvestment) public view returns (uint) {\r... */\n    tag_82:\n        /* \"Topic.sol\":7383:7387  uint */\n      0x00\n        /* \"Topic.sol\":7400:7411  uint result */\n      dup1\n        /* \"Topic.sol\":7463:7486  totalMonetaryInvestment */\n      sload(0x0a)\n        /* \"Topic.sol\":7435:7460  initialMonetaryInvestment */\n      dup4\n        /* \"Topic.sol\":7414:7432  finalMonetaryTotal */\n      sload(0x0b)\n        /* \"Topic.sol\":7414:7460  finalMonetaryTotal * initialMonetaryInvestment */\n      mul\n        /* \"Topic.sol\":7414:7486  finalMonetaryTotal * initialMonetaryInvestment / totalMonetaryInvestment */\n      dup2\n      tag_171\n      jumpi\n      invalid\n    tag_171:\n      div\n        /* \"Topic.sol\":7400:7486  uint result = finalMonetaryTotal * initialMonetaryInvestment / totalMonetaryInvestment */\n      swap1\n      pop\n        /* \"Topic.sol\":7504:7510  result */\n      dup1\n        /* \"Topic.sol\":7497:7510  return result */\n      swap2\n      pop\n      pop\n        /* \"Topic.sol\":7299:7518  function calculateMonetaryGain(uint initialMonetaryInvestment) public view returns (uint) {\r... */\n      swap2\n      swap1\n      pop\n      jump\t// out\n        /* \"Topic.sol\":6439:7291  function claim() public {\r... */\n    tag_85:\n        /* \"Topic.sol\":6500:6507  endTime */\n      sload(0x06)\n        /* \"Topic.sol\":6482:6497  block.timestamp */\n      timestamp\n        /* \"Topic.sol\":6482:6507  block.timestamp > endTime */\n      gt\n        /* \"Topic.sol\":6474:6566  require(block.timestamp > endTime, 'You can only claim your rewards after the time period.') */\n      tag_173\n      jumpi\n      mload(0x40)\n      0x08c379a000000000000000000000000000000000000000000000000000000000\n      dup2\n      mstore\n      0x04\n      add\n      dup1\n      dup1\n      0x20\n      add\n      dup3\n      dup2\n      sub\n      dup3\n      mstore\n      0x36\n      dup2\n      mstore\n      0x20\n      add\n      dup1\n      data_1382083f71a022fa6144748d79496d6f05d3bcf3a0f484b323383c5c8edd8d26\n      0x36\n      swap2\n      codecopy\n      0x40\n      add\n      swap2\n      pop\n      pop\n      mload(0x40)\n      dup1\n      swap2\n      sub\n      swap1\n      revert\n    tag_173:\n        /* \"Topic.sol\":6577:6595  uint argumentIndex */\n      0x00\n        /* \"Topic.sol\":6598:6603  voted */\n      0x08\n        /* \"Topic.sol\":6598:6615  voted[msg.sender] */\n      0x00\n        /* \"Topic.sol\":6604:6614  msg.sender */\n      caller\n        /* \"Topic.sol\":6598:6615  voted[msg.sender] */\n      0xffffffffffffffffffffffffffffffffffffffff\n      and\n      0xffffffffffffffffffffffffffffffffffffffff\n      and\n      dup2\n      mstore\n      0x20\n      add\n      swap1\n      dup2\n      mstore\n      0x20\n      add\n      0x00\n      keccak256\n      sload\n        /* \"Topic.sol\":6577:6615  uint argumentIndex = voted[msg.sender] */\n      swap1\n      pop\n        /* \"Topic.sol\":6651:6652  0 */\n      0x00\n        /* \"Topic.sol\":6634:6647  argumentIndex */\n      dup2\n        /* \"Topic.sol\":6634:6652  argumentIndex != 0 */\n      eq\n      iszero\n        /* \"Topic.sol\":6626:6713  require(argumentIndex != 0, 'You did not vote during the period, so you cannot claim.') */\n      tag_174\n      jumpi\n      mload(0x40)\n      0x08c379a000000000000000000000000000000000000000000000000000000000\n      dup2\n      mstore\n      0x04\n      add\n      dup1\n      dup1\n      0x20\n      add\n      dup3\n      dup2\n      sub\n      dup3\n      mstore\n      0x38\n      dup2\n      mstore\n      0x20\n      add\n      dup1\n      data_0f62f618588d36303d76fa765b4096f4535e8428b36a788090d83035227e6cbf\n      0x38\n      swap2\n      codecopy\n      0x40\n      add\n      swap2\n      pop\n      pop\n      mload(0x40)\n      dup1\n      swap2\n      sub\n      swap1\n      revert\n    tag_174:\n        /* \"Topic.sol\":6724:6744  Argument storage arg */\n      0x00\n        /* \"Topic.sol\":6747:6756  arguments */\n      0x07\n        /* \"Topic.sol\":6757:6770  argumentIndex */\n      dup3\n        /* \"Topic.sol\":6747:6771  arguments[argumentIndex] */\n      dup2\n      sload\n      dup2\n      lt\n      tag_175\n      jumpi\n      invalid\n    tag_175:\n      swap1\n      0x00\n      mstore\n      keccak256(0x00, 0x20)\n      swap1\n      0x03\n      mul\n      add\n        /* \"Topic.sol\":6724:6771  Argument storage arg = arguments[argumentIndex] */\n      swap1\n      pop\n        /* \"Topic.sol\":6825:6826  0 */\n      0x00\n        /* \"Topic.sol\":6813:6821  majority */\n      sload(0x12)\n        /* \"Topic.sol\":6813:6826  majority == 0 */\n      eq\n        /* \"Topic.sol\":6809:6874  if (majority == 0) {\r... */\n      iszero\n      tag_177\n      jumpi\n        /* \"Topic.sol\":6843:6862  calculateMajority() */\n      tag_178\n        /* \"Topic.sol\":6843:6860  calculateMajority */\n      tag_179\n        /* \"Topic.sol\":6843:6862  calculateMajority() */\n      jump\t// in\n    tag_178:\n        /* \"Topic.sol\":6809:6874  if (majority == 0) {\r... */\n    tag_177:\n        /* \"Topic.sol\":6903:6904  1 */\n      0x01\n        /* \"Topic.sol\":6891:6899  majority */\n      sload(0x12)\n        /* \"Topic.sol\":6891:6904  majority == 1 */\n      eq\n        /* \"Topic.sol\":6891:6918  majority == 1 && arg.isTrue */\n      dup1\n      iszero\n      tag_180\n      jumpi\n      pop\n        /* \"Topic.sol\":6908:6911  arg */\n      dup1\n        /* \"Topic.sol\":6908:6918  arg.isTrue */\n      0x01\n      add\n      0x00\n      swap1\n      sload\n      swap1\n      0x0100\n      exp\n      swap1\n      div\n      0xff\n      and\n        /* \"Topic.sol\":6891:6918  majority == 1 && arg.isTrue */\n    tag_180:\n        /* \"Topic.sol\":6890:6953  (majority == 1 && arg.isTrue) || (majority == 2 && !arg.isTrue) */\n      dup1\n      tag_181\n      jumpi\n      pop\n        /* \"Topic.sol\":6936:6937  2 */\n      0x02\n        /* \"Topic.sol\":6924:6932  majority */\n      sload(0x12)\n        /* \"Topic.sol\":6924:6937  majority == 2 */\n      eq\n        /* \"Topic.sol\":6924:6952  majority == 2 && !arg.isTrue */\n      dup1\n      iszero\n      tag_182\n      jumpi\n      pop\n        /* \"Topic.sol\":6942:6945  arg */\n      dup1\n        /* \"Topic.sol\":6942:6952  arg.isTrue */\n      0x01\n      add\n      0x00\n      swap1\n      sload\n      swap1\n      0x0100\n      exp\n      swap1\n      div\n      0xff\n      and\n        /* \"Topic.sol\":6941:6952  !arg.isTrue */\n      iszero\n        /* \"Topic.sol\":6924:6952  majority == 2 && !arg.isTrue */\n    tag_182:\n        /* \"Topic.sol\":6890:6953  (majority == 1 && arg.isTrue) || (majority == 2 && !arg.isTrue) */\n    tag_181:\n        /* \"Topic.sol\":6890:6972  (majority == 1 && arg.isTrue) || (majority == 2 && !arg.isTrue) || (majority == 3) */\n      dup1\n      tag_183\n      jumpi\n      pop\n        /* \"Topic.sol\":6970:6971  3 */\n      0x03\n        /* \"Topic.sol\":6958:6966  majority */\n      sload(0x12)\n        /* \"Topic.sol\":6958:6971  majority == 3 */\n      eq\n        /* \"Topic.sol\":6890:6972  (majority == 1 && arg.isTrue) || (majority == 2 && !arg.isTrue) || (majority == 3) */\n    tag_183:\n        /* \"Topic.sol\":6886:7284  if ((majority == 1 && arg.isTrue) || (majority == 2 && !arg.isTrue) || (majority == 3)) {\r... */\n      iszero\n      tag_184\n      jumpi\n        /* \"Topic.sol\":6989:6999  msg.sender */\n      caller\n        /* \"Topic.sol\":6989:7008  msg.sender.transfer */\n      0xffffffffffffffffffffffffffffffffffffffff\n      and\n        /* \"Topic.sol\":6989:7068  msg.sender.transfer(this.calculateMonetaryGain(monetaryInvestment[msg.sender])) */\n      0x08fc\n        /* \"Topic.sol\":7009:7013  this */\n      address\n        /* \"Topic.sol\":7009:7035  this.calculateMonetaryGain */\n      0xffffffffffffffffffffffffffffffffffffffff\n      and\n      0x4dd54033\n        /* \"Topic.sol\":7036:7054  monetaryInvestment */\n      0x09\n        /* \"Topic.sol\":7036:7066  monetaryInvestment[msg.sender] */\n      0x00\n        /* \"Topic.sol\":7055:7065  msg.sender */\n      caller\n        /* \"Topic.sol\":7036:7066  monetaryInvestment[msg.sender] */\n      0xffffffffffffffffffffffffffffffffffffffff\n      and\n      0xffffffffffffffffffffffffffffffffffffffff\n      and\n      dup2\n      mstore\n      0x20\n      add\n      swap1\n      dup2\n      mstore\n      0x20\n      add\n      0x00\n      keccak256\n      sload\n        /* \"Topic.sol\":7009:7067  this.calculateMonetaryGain(monetaryInvestment[msg.sender]) */\n      mload(0x40)\n      dup3\n      0xffffffff\n      and\n      0xe0\n      shl\n      dup2\n      mstore\n      0x04\n      add\n      dup1\n      dup3\n      dup2\n      mstore\n      0x20\n      add\n      swap2\n      pop\n      pop\n      0x20\n      mload(0x40)\n      dup1\n      dup4\n      sub\n      dup2\n      dup7\n      dup1\n      extcodesize\n      iszero\n        /* \"--CODEGEN--\":8:17   */\n      dup1\n        /* \"--CODEGEN--\":5:7   */\n      iszero\n      tag_185\n      jumpi\n        /* \"--CODEGEN--\":30:31   */\n      0x00\n        /* \"--CODEGEN--\":27:28   */\n      dup1\n        /* \"--CODEGEN--\":20:32   */\n      revert\n        /* \"--CODEGEN--\":5:7   */\n    tag_185:\n        /* \"Topic.sol\":7009:7067  this.calculateMonetaryGain(monetaryInvestment[msg.sender]) */\n      pop\n      gas\n      staticcall\n      iszero\n        /* \"--CODEGEN--\":8:17   */\n      dup1\n        /* \"--CODEGEN--\":5:7   */\n      iszero\n      tag_186\n      jumpi\n        /* \"--CODEGEN--\":45:61   */\n      returndatasize\n        /* \"--CODEGEN--\":42:43   */\n      0x00\n        /* \"--CODEGEN--\":39:40   */\n      dup1\n        /* \"--CODEGEN--\":24:62   */\n      returndatacopy\n        /* \"--CODEGEN--\":77:93   */\n      returndatasize\n        /* \"--CODEGEN--\":74:75   */\n      0x00\n        /* \"--CODEGEN--\":67:94   */\n      revert\n        /* \"--CODEGEN--\":5:7   */\n    tag_186:\n        /* \"Topic.sol\":7009:7067  this.calculateMonetaryGain(monetaryInvestment[msg.sender]) */\n      pop\n      pop\n      pop\n      pop\n      mload(0x40)\n      returndatasize\n        /* \"--CODEGEN--\":13:15   */\n      0x20\n        /* \"--CODEGEN--\":8:11   */\n      dup2\n        /* \"--CODEGEN--\":5:16   */\n      lt\n        /* \"--CODEGEN--\":2:4   */\n      iszero\n      tag_187\n      jumpi\n        /* \"--CODEGEN--\":29:30   */\n      0x00\n        /* \"--CODEGEN--\":26:27   */\n      dup1\n        /* \"--CODEGEN--\":19:31   */\n      revert\n        /* \"--CODEGEN--\":2:4   */\n    tag_187:\n        /* \"Topic.sol\":7009:7067  this.calculateMonetaryGain(monetaryInvestment[msg.sender]) */\n      dup2\n      add\n      swap1\n      dup1\n      dup1\n      mload\n      swap1\n      0x20\n      add\n      swap1\n      swap3\n      swap2\n      swap1\n      pop\n      pop\n      pop\n        /* \"Topic.sol\":6989:7068  msg.sender.transfer(this.calculateMonetaryGain(monetaryInvestment[msg.sender])) */\n      swap1\n      dup2\n      iszero\n      mul\n      swap1\n      mload(0x40)\n      0x00\n      mload(0x40)\n      dup1\n      dup4\n      sub\n      dup2\n      dup6\n      dup9\n      dup9\n      call\n      swap4\n      pop\n      pop\n      pop\n      pop\n      iszero\n        /* \"--CODEGEN--\":8:17   */\n      dup1\n        /* \"--CODEGEN--\":5:7   */\n      iszero\n      tag_188\n      jumpi\n        /* \"--CODEGEN--\":45:61   */\n      returndatasize\n        /* \"--CODEGEN--\":42:43   */\n      0x00\n        /* \"--CODEGEN--\":39:40   */\n      dup1\n        /* \"--CODEGEN--\":24:62   */\n      returndatacopy\n        /* \"--CODEGEN--\":77:93   */\n      returndatasize\n        /* \"--CODEGEN--\":74:75   */\n      0x00\n        /* \"--CODEGEN--\":67:94   */\n      revert\n        /* \"--CODEGEN--\":5:7   */\n    tag_188:\n        /* \"Topic.sol\":6989:7068  msg.sender.transfer(this.calculateMonetaryGain(monetaryInvestment[msg.sender])) */\n      pop\n        /* \"Topic.sol\":7083:7111  ReputationFactory repFactory */\n      0x00\n        /* \"Topic.sol\":7132:7156  reputationFactoryAddress */\n      dup1\n      0x00\n      swap1\n      sload\n      swap1\n      0x0100\n      exp\n      swap1\n      div\n      0xffffffffffffffffffffffffffffffffffffffff\n      and\n        /* \"Topic.sol\":7083:7157  ReputationFactory repFactory = ReputationFactory(reputationFactoryAddress) */\n      swap1\n      pop\n        /* \"Topic.sol\":7172:7182  repFactory */\n      dup1\n        /* \"Topic.sol\":7172:7196  repFactory.addReputation */\n      0xffffffffffffffffffffffffffffffffffffffff\n      and\n      0x5f2ab567\n        /* \"Topic.sol\":7197:7201  this */\n      address\n        /* \"Topic.sol\":7197:7225  this.calculateReputationGain */\n      0xffffffffffffffffffffffffffffffffffffffff\n      and\n      0xb3b9ac1d\n        /* \"Topic.sol\":7226:7246  reputationInvestment */\n      0x0c\n        /* \"Topic.sol\":7226:7258  reputationInvestment[msg.sender] */\n      0x00\n        /* \"Topic.sol\":7247:7257  msg.sender */\n      caller\n        /* \"Topic.sol\":7226:7258  reputationInvestment[msg.sender] */\n      0xffffffffffffffffffffffffffffffffffffffff\n      and\n      0xffffffffffffffffffffffffffffffffffffffff\n      and\n      dup2\n      mstore\n      0x20\n      add\n      swap1\n      dup2\n      mstore\n      0x20\n      add\n      0x00\n      keccak256\n      sload\n        /* \"Topic.sol\":7197:7259  this.calculateReputationGain(reputationInvestment[msg.sender]) */\n      mload(0x40)\n      dup3\n      0xffffffff\n      and\n      0xe0\n      shl\n      dup2\n      mstore\n      0x04\n      add\n      dup1\n      dup3\n      dup2\n      mstore\n      0x20\n      add\n      swap2\n      pop\n      pop\n      0x20\n      mload(0x40)\n      dup1\n      dup4\n      sub\n      dup2\n      dup7\n      dup1\n      extcodesize\n      iszero\n        /* \"--CODEGEN--\":8:17   */\n      dup1\n        /* \"--CODEGEN--\":5:7   */\n      iszero\n      tag_189\n      jumpi\n        /* \"--CODEGEN--\":30:31   */\n      0x00\n        /* \"--CODEGEN--\":27:28   */\n      dup1\n        /* \"--CODEGEN--\":20:32   */\n      revert\n        /* \"--CODEGEN--\":5:7   */\n    tag_189:\n        /* \"Topic.sol\":7197:7259  this.calculateReputationGain(reputationInvestment[msg.sender]) */\n      pop\n      gas\n      staticcall\n      iszero\n        /* \"--CODEGEN--\":8:17   */\n      dup1\n        /* \"--CODEGEN--\":5:7   */\n      iszero\n      tag_190\n      jumpi\n        /* \"--CODEGEN--\":45:61   */\n      returndatasize\n        /* \"--CODEGEN--\":42:43   */\n      0x00\n        /* \"--CODEGEN--\":39:40   */\n      dup1\n        /* \"--CODEGEN--\":24:62   */\n      returndatacopy\n        /* \"--CODEGEN--\":77:93   */\n      returndatasize\n        /* \"--CODEGEN--\":74:75   */\n      0x00\n        /* \"--CODEGEN--\":67:94   */\n      revert\n        /* \"--CODEGEN--\":5:7   */\n    tag_190:\n        /* \"Topic.sol\":7197:7259  this.calculateReputationGain(reputationInvestment[msg.sender]) */\n      pop\n      pop\n      pop\n      pop\n      mload(0x40)\n      returndatasize\n        /* \"--CODEGEN--\":13:15   */\n      0x20\n        /* \"--CODEGEN--\":8:11   */\n      dup2\n        /* \"--CODEGEN--\":5:16   */\n      lt\n        /* \"--CODEGEN--\":2:4   */\n      iszero\n      tag_191\n      jumpi\n        /* \"--CODEGEN--\":29:30   */\n      0x00\n        /* \"--CODEGEN--\":26:27   */\n      dup1\n        /* \"--CODEGEN--\":19:31   */\n      revert\n        /* \"--CODEGEN--\":2:4   */\n    tag_191:\n        /* \"Topic.sol\":7197:7259  this.calculateReputationGain(reputationInvestment[msg.sender]) */\n      dup2\n      add\n      swap1\n      dup1\n      dup1\n      mload\n      swap1\n      0x20\n      add\n      swap1\n      swap3\n      swap2\n      swap1\n      pop\n      pop\n      pop\n        /* \"Topic.sol\":7261:7271  msg.sender */\n      caller\n        /* \"Topic.sol\":7172:7272  repFactory.addReputation(this.calculateReputationGain(reputationInvestment[msg.sender]), msg.sender) */\n      mload(0x40)\n      dup4\n      0xffffffff\n      and\n      0xe0\n      shl\n      dup2\n      mstore\n      0x04\n      add\n      dup1\n      dup4\n      dup2\n      mstore\n      0x20\n      add\n      dup3\n      0xffffffffffffffffffffffffffffffffffffffff\n      and\n      0xffffffffffffffffffffffffffffffffffffffff\n      and\n      dup2\n      mstore\n      0x20\n      add\n      swap3\n      pop\n      pop\n      pop\n      0x00\n      mload(0x40)\n      dup1\n      dup4\n      sub\n      dup2\n      0x00\n      dup8\n      dup1\n      extcodesize\n      iszero\n        /* \"--CODEGEN--\":8:17   */\n      dup1\n        /* \"--CODEGEN--\":5:7   */\n      iszero\n      tag_192\n      jumpi\n        /* \"--CODEGEN--\":30:31   */\n      0x00\n        /* \"--CODEGEN--\":27:28   */\n      dup1\n        /* \"--CODEGEN--\":20:32   */\n      revert\n        /* \"--CODEGEN--\":5:7   */\n    tag_192:\n        /* \"Topic.sol\":7172:7272  repFactory.addReputation(this.calculateReputationGain(reputationInvestment[msg.sender]), msg.sender) */\n      pop\n      gas\n      call\n      iszero\n        /* \"--CODEGEN--\":8:17   */\n      dup1\n        /* \"--CODEGEN--\":5:7   */\n      iszero\n      tag_193\n      jumpi\n        /* \"--CODEGEN--\":45:61   */\n      returndatasize\n        /* \"--CODEGEN--\":42:43   */\n      0x00\n        /* \"--CODEGEN--\":39:40   */\n      dup1\n        /* \"--CODEGEN--\":24:62   */\n      returndatacopy\n        /* \"--CODEGEN--\":77:93   */\n      returndatasize\n        /* \"--CODEGEN--\":74:75   */\n      0x00\n        /* \"--CODEGEN--\":67:94   */\n      revert\n        /* \"--CODEGEN--\":5:7   */\n    tag_193:\n        /* \"Topic.sol\":7172:7272  repFactory.addReputation(this.calculateReputationGain(reputationInvestment[msg.sender]), msg.sender) */\n      pop\n      pop\n      pop\n      pop\n        /* \"Topic.sol\":6886:7284  if ((majority == 1 && arg.isTrue) || (majority == 2 && !arg.isTrue) || (majority == 3)) {\r... */\n      pop\n    tag_184:\n        /* \"Topic.sol\":6439:7291  function claim() public {\r... */\n      pop\n      pop\n      jump\t// out\n        /* \"Topic.sol\":759:794  uint public totalMonetaryInvestment */\n    tag_88:\n      sload(0x0a)\n      dup2\n      jump\t// out\n        /* \"Topic.sol\":3907:3999  function getLieCount() public view returns (uint) {\r... */\n    tag_91:\n        /* \"Topic.sol\":3951:3955  uint */\n      0x00\n        /* \"Topic.sol\":3975:3984  lieVoters */\n      0x10\n        /* \"Topic.sol\":3975:3991  lieVoters.length */\n      dup1\n      sload\n      swap1\n      pop\n        /* \"Topic.sol\":3968:3991  return lieVoters.length */\n      swap1\n      pop\n        /* \"Topic.sol\":3907:3999  function getLieCount() public view returns (uint) {\r... */\n      swap1\n      jump\t// out\n        /* \"Topic.sol\":2432:2508  function isTopic() public pure returns (bool) {\r... */\n    tag_94:\n        /* \"Topic.sol\":2472:2476  bool */\n      0x00\n        /* \"Topic.sol\":2496:2500  true */\n      0x01\n        /* \"Topic.sol\":2489:2500  return true */\n      swap1\n      pop\n        /* \"Topic.sol\":2432:2508  function isTopic() public pure returns (bool) {\r... */\n      swap1\n      jump\t// out\n        /* \"Topic.sol\":451:472  string public content */\n    tag_97:\n      0x03\n      dup1\n      sload\n      0x01\n      dup2\n      0x01\n      and\n      iszero\n      0x0100\n      mul\n      sub\n      and\n      0x02\n      swap1\n      div\n      dup1\n      0x1f\n      add\n      0x20\n      dup1\n      swap2\n      div\n      mul\n      0x20\n      add\n      mload(0x40)\n      swap1\n      dup2\n      add\n      0x40\n      mstore\n      dup1\n      swap3\n      swap2\n      swap1\n      dup2\n      dup2\n      mstore\n      0x20\n      add\n      dup3\n      dup1\n      sload\n      0x01\n      dup2\n      0x01\n      and\n      iszero\n      0x0100\n      mul\n      sub\n      and\n      0x02\n      swap1\n      div\n      dup1\n      iszero\n      tag_196\n      jumpi\n      dup1\n      0x1f\n      lt\n      tag_197\n      jumpi\n      0x0100\n      dup1\n      dup4\n      sload\n      div\n      mul\n      dup4\n      mstore\n      swap2\n      0x20\n      add\n      swap2\n      jump(tag_196)\n    tag_197:\n      dup3\n      add\n      swap2\n      swap1\n      0x00\n      mstore\n      keccak256(0x00, 0x20)\n      swap1\n    tag_198:\n      dup2\n      sload\n      dup2\n      mstore\n      swap1\n      0x01\n      add\n      swap1\n      0x20\n      add\n      dup1\n      dup4\n      gt\n      tag_198\n      jumpi\n      dup3\n      swap1\n      sub\n      0x1f\n      and\n      dup3\n      add\n      swap2\n    tag_196:\n      pop\n      pop\n      pop\n      pop\n      pop\n      dup2\n      jump\t// out\n        /* \"Topic.sol\":7720:8081  function creatorClaim() public _creatorOnly {\r... */\n    tag_104:\n        /* \"Topic.sol\":1297:1304  creator */\n      0x04\n      0x00\n      swap1\n      sload\n      swap1\n      0x0100\n      exp\n      swap1\n      div\n      0xffffffffffffffffffffffffffffffffffffffff\n      and\n        /* \"Topic.sol\":1283:1304  msg.sender == creator */\n      0xffffffffffffffffffffffffffffffffffffffff\n      and\n        /* \"Topic.sol\":1283:1293  msg.sender */\n      caller\n        /* \"Topic.sol\":1283:1304  msg.sender == creator */\n      0xffffffffffffffffffffffffffffffffffffffff\n      and\n      eq\n        /* \"Topic.sol\":1275:1367  require(msg.sender == creator, 'You must be the creator of this Topic in order to do this.') */\n      tag_200\n      jumpi\n      mload(0x40)\n      0x08c379a000000000000000000000000000000000000000000000000000000000\n      dup2\n      mstore\n      0x04\n      add\n      dup1\n      dup1\n      0x20\n      add\n      dup3\n      dup2\n      sub\n      dup3\n      mstore\n      0x3a\n      dup2\n      mstore\n      0x20\n      add\n      dup1\n      data_8e90808f17bc1108e9ea5a79970bcefb81f12d2e44e112b3ad4b251ae0873244\n      0x3a\n      swap2\n      codecopy\n      0x40\n      add\n      swap2\n      pop\n      pop\n      mload(0x40)\n      dup1\n      swap2\n      sub\n      swap1\n      revert\n    tag_200:\n        /* \"Topic.sol\":7819:7820  0 */\n      0x00\n        /* \"Topic.sol\":7802:7815  getLieCount() */\n      tag_202\n        /* \"Topic.sol\":7802:7813  getLieCount */\n      tag_91\n        /* \"Topic.sol\":7802:7815  getLieCount() */\n      jump\t// in\n    tag_202:\n        /* \"Topic.sol\":7784:7799  getTruthCount() */\n      tag_203\n        /* \"Topic.sol\":7784:7797  getTruthCount */\n      tag_71\n        /* \"Topic.sol\":7784:7799  getTruthCount() */\n      jump\t// in\n    tag_203:\n        /* \"Topic.sol\":7784:7815  getTruthCount() + getLieCount() */\n      add\n        /* \"Topic.sol\":7784:7820  getTruthCount() + getLieCount() == 0 */\n      eq\n        /* \"Topic.sol\":7775:7887  require((getTruthCount() + getLieCount() == 0), 'The money goes to the people who participated in the process.') */\n      tag_204\n      jumpi\n      mload(0x40)\n      0x08c379a000000000000000000000000000000000000000000000000000000000\n      dup2\n      mstore\n      0x04\n      add\n      dup1\n      dup1\n      0x20\n      add\n      dup3\n      dup2\n      sub\n      dup3\n      mstore\n      0x3d\n      dup2\n      mstore\n      0x20\n      add\n      dup1\n      data_487936df645dd8c7181d68f73972966a3a06b5ee3756057942e5a7608d64edfe\n      0x3d\n      swap2\n      codecopy\n      0x40\n      add\n      swap2\n      pop\n      pop\n      mload(0x40)\n      dup1\n      swap2\n      sub\n      swap1\n      revert\n    tag_204:\n        /* \"Topic.sol\":7924:7931  endTime */\n      sload(0x06)\n        /* \"Topic.sol\":7906:7921  block.timestamp */\n      timestamp\n        /* \"Topic.sol\":7906:7931  block.timestamp > endTime */\n      gt\n        /* \"Topic.sol\":7898:7990  require(block.timestamp > endTime, 'You can only claim your rewards after the time period.') */\n      tag_205\n      jumpi\n      mload(0x40)\n      0x08c379a000000000000000000000000000000000000000000000000000000000\n      dup2\n      mstore\n      0x04\n      add\n      dup1\n      dup1\n      0x20\n      add\n      dup3\n      dup2\n      sub\n      dup3\n      mstore\n      0x36\n      dup2\n      mstore\n      0x20\n      add\n      dup1\n      data_1382083f71a022fa6144748d79496d6f05d3bcf3a0f484b323383c5c8edd8d26\n      0x36\n      swap2\n      codecopy\n      0x40\n      add\n      swap2\n      pop\n      pop\n      mload(0x40)\n      dup1\n      swap2\n      sub\n      swap1\n      revert\n    tag_205:\n        /* \"Topic.sol\":8003:8013  msg.sender */\n      caller\n        /* \"Topic.sol\":8003:8022  msg.sender.transfer */\n      0xffffffffffffffffffffffffffffffffffffffff\n      and\n        /* \"Topic.sol\":8003:8045  msg.sender.transfer(address(this).balance) */\n      0x08fc\n        /* \"Topic.sol\":8023:8044  address(this).balance */\n      selfbalance\n        /* \"Topic.sol\":8003:8045  msg.sender.transfer(address(this).balance) */\n      swap1\n      dup2\n      iszero\n      mul\n      swap1\n      mload(0x40)\n      0x00\n      mload(0x40)\n      dup1\n      dup4\n      sub\n      dup2\n      dup6\n      dup9\n      dup9\n      call\n      swap4\n      pop\n      pop\n      pop\n      pop\n      iszero\n        /* \"--CODEGEN--\":8:17   */\n      dup1\n        /* \"--CODEGEN--\":5:7   */\n      iszero\n      tag_206\n      jumpi\n        /* \"--CODEGEN--\":45:61   */\n      returndatasize\n        /* \"--CODEGEN--\":42:43   */\n      0x00\n        /* \"--CODEGEN--\":39:40   */\n      dup1\n        /* \"--CODEGEN--\":24:62   */\n      returndatacopy\n        /* \"--CODEGEN--\":77:93   */\n      returndatasize\n        /* \"--CODEGEN--\":74:75   */\n      0x00\n        /* \"--CODEGEN--\":67:94   */\n      revert\n        /* \"--CODEGEN--\":5:7   */\n    tag_206:\n        /* \"Topic.sol\":8003:8045  msg.sender.transfer(address(this).balance) */\n      pop\n        /* \"Topic.sol\":8056:8073  markAsCompleted() */\n      tag_207\n        /* \"Topic.sol\":8056:8071  markAsCompleted */\n      tag_208\n        /* \"Topic.sol\":8056:8073  markAsCompleted() */\n      jump\t// in\n    tag_207:\n        /* \"Topic.sol\":7720:8081  function creatorClaim() public _creatorOnly {\r... */\n      jump\t// out\n        /* \"Topic.sol\":606:643  mapping(address => uint) public voted */\n    tag_108:\n      mstore(0x20, 0x08)\n      dup1\n      0x00\n      mstore\n      keccak256(0x00, 0x40)\n      0x00\n      swap2\n      pop\n      swap1\n      pop\n      sload\n      dup2\n      jump\t// out\n        /* \"Topic.sol\":2570:3795  function vote(uint argumentIndex, uint reputationCost) public payable _mustBeWithinTimeFrame {\r... */\n    tag_111:\n        /* \"Topic.sol\":1556:1563  endTime */\n      sload(0x06)\n        /* \"Topic.sol\":1538:1553  block.timestamp */\n      timestamp\n        /* \"Topic.sol\":1538:1563  block.timestamp < endTime */\n      lt\n        /* \"Topic.sol\":1530:1611  require(block.timestamp < endTime, 'The period for the Topic has already ended.') */\n      tag_210\n      jumpi\n      mload(0x40)\n      0x08c379a000000000000000000000000000000000000000000000000000000000\n      dup2\n      mstore\n      0x04\n      add\n      dup1\n      dup1\n      0x20\n      add\n      dup3\n      dup2\n      sub\n      dup3\n      mstore\n      0x2b\n      dup2\n      mstore\n      0x20\n      add\n      dup1\n      data_9f7f122b70f117f8950311c325d9279ba88d6a0d2b593ed4f11b7663b9f48d07\n      0x2b\n      swap2\n      codecopy\n      0x40\n      add\n      swap2\n      pop\n      pop\n      mload(0x40)\n      dup1\n      swap2\n      sub\n      swap1\n      revert\n    tag_210:\n        /* \"Topic.sol\":2699:2700  0 */\n      0x00\n        /* \"Topic.sol\":2682:2695  argumentIndex */\n      dup3\n        /* \"Topic.sol\":2682:2700  argumentIndex != 0 */\n      eq\n      iszero\n        /* \"Topic.sol\":2674:2764  require(argumentIndex != 0, 'You cannot vote for the argument generated by the contract.') */\n      tag_212\n      jumpi\n      mload(0x40)\n      0x08c379a000000000000000000000000000000000000000000000000000000000\n      dup2\n      mstore\n      0x04\n      add\n      dup1\n      dup1\n      0x20\n      add\n      dup3\n      dup2\n      sub\n      dup3\n      mstore\n      0x3b\n      dup2\n      mstore\n      0x20\n      add\n      dup1\n      data_a51d6c7e63ccd193933dbe11cb306fe5ec831a64f09f21fc7409bad4b2e4d83d\n      0x3b\n      swap2\n      codecopy\n      0x40\n      add\n      swap2\n      pop\n      pop\n      mload(0x40)\n      dup1\n      swap2\n      sub\n      swap1\n      revert\n    tag_212:\n        /* \"Topic.sol\":2804:2805  0 */\n      0x00\n        /* \"Topic.sol\":2783:2788  voted */\n      0x08\n        /* \"Topic.sol\":2783:2800  voted[msg.sender] */\n      0x00\n        /* \"Topic.sol\":2789:2799  msg.sender */\n      caller\n        /* \"Topic.sol\":2783:2800  voted[msg.sender] */\n      0xffffffffffffffffffffffffffffffffffffffff\n      and\n      0xffffffffffffffffffffffffffffffffffffffff\n      and\n      dup2\n      mstore\n      0x20\n      add\n      swap1\n      dup2\n      mstore\n      0x20\n      add\n      0x00\n      keccak256\n      sload\n        /* \"Topic.sol\":2783:2805  voted[msg.sender] == 0 */\n      eq\n        /* \"Topic.sol\":2775:2863  require(voted[msg.sender] == 0, 'You have already voted. You may not change your vote.') */\n      tag_213\n      jumpi\n      mload(0x40)\n      0x08c379a000000000000000000000000000000000000000000000000000000000\n      dup2\n      mstore\n      0x04\n      add\n      dup1\n      dup1\n      0x20\n      add\n      dup3\n      dup2\n      sub\n      dup3\n      mstore\n      0x35\n      dup2\n      mstore\n      0x20\n      add\n      dup1\n      data_e7eff9e8bfd97a1462a69b9b489e013c0dc4931276c8cdd67607888c761a1d3c\n      0x35\n      swap2\n      codecopy\n      0x40\n      add\n      swap2\n      pop\n      pop\n      mload(0x40)\n      dup1\n      swap2\n      sub\n      swap1\n      revert\n    tag_213:\n        /* \"Topic.sol\":2895:2912  minimumInvestment */\n      sload(0x05)\n        /* \"Topic.sol\":2882:2891  msg.value */\n      callvalue\n        /* \"Topic.sol\":2882:2912  msg.value >= minimumInvestment */\n      lt\n      iszero\n        /* \"Topic.sol\":2874:2987  require(msg.value >= minimumInvestment, 'You must invest at least the minimum amount as decided by the creator.') */\n      tag_214\n      jumpi\n      mload(0x40)\n      0x08c379a000000000000000000000000000000000000000000000000000000000\n      dup2\n      mstore\n      0x04\n      add\n      dup1\n      dup1\n      0x20\n      add\n      dup3\n      dup2\n      sub\n      dup3\n      mstore\n      0x46\n      dup2\n      mstore\n      0x20\n      add\n      dup1\n      data_34b98d23d562a1a462a2b6766e2d3e1a49232f6fdafbe1eaa8383a3a59d99a34\n      0x46\n      swap2\n      codecopy\n      0x60\n      add\n      swap2\n      pop\n      pop\n      mload(0x40)\n      dup1\n      swap2\n      sub\n      swap1\n      revert\n    tag_214:\n        /* \"Topic.sol\":2998:3025  TopicAssigner topicAssigner */\n      0x00\n        /* \"Topic.sol\":3042:3062  topicAssignerAddress */\n      0x01\n      0x00\n      swap1\n      sload\n      swap1\n      0x0100\n      exp\n      swap1\n      div\n      0xffffffffffffffffffffffffffffffffffffffff\n      and\n        /* \"Topic.sol\":2998:3063  TopicAssigner topicAssigner = TopicAssigner(topicAssignerAddress) */\n      swap1\n      pop\n        /* \"Topic.sol\":3083:3096  topicAssigner */\n      dup1\n        /* \"Topic.sol\":3083:3105  topicAssigner.hasTopic */\n      0xffffffffffffffffffffffffffffffffffffffff\n      and\n      0x902701b7\n        /* \"Topic.sol\":3106:3116  msg.sender */\n      caller\n        /* \"Topic.sol\":3126:3130  this */\n      address\n        /* \"Topic.sol\":3083:3132  topicAssigner.hasTopic(msg.sender, address(this)) */\n      mload(0x40)\n      dup4\n      0xffffffff\n      and\n      0xe0\n      shl\n      dup2\n      mstore\n      0x04\n      add\n      dup1\n      dup4\n      0xffffffffffffffffffffffffffffffffffffffff\n      and\n      0xffffffffffffffffffffffffffffffffffffffff\n      and\n      dup2\n      mstore\n      0x20\n      add\n      dup3\n      0xffffffffffffffffffffffffffffffffffffffff\n      and\n      0xffffffffffffffffffffffffffffffffffffffff\n      and\n      dup2\n      mstore\n      0x20\n      add\n      swap3\n      pop\n      pop\n      pop\n      0x20\n      mload(0x40)\n      dup1\n      dup4\n      sub\n      dup2\n      dup7\n      dup1\n      extcodesize\n      iszero\n        /* \"--CODEGEN--\":8:17   */\n      dup1\n        /* \"--CODEGEN--\":5:7   */\n      iszero\n      tag_215\n      jumpi\n        /* \"--CODEGEN--\":30:31   */\n      0x00\n        /* \"--CODEGEN--\":27:28   */\n      dup1\n        /* \"--CODEGEN--\":20:32   */\n      revert\n        /* \"--CODEGEN--\":5:7   */\n    tag_215:\n        /* \"Topic.sol\":3083:3132  topicAssigner.hasTopic(msg.sender, address(this)) */\n      pop\n      gas\n      staticcall\n      iszero\n        /* \"--CODEGEN--\":8:17   */\n      dup1\n        /* \"--CODEGEN--\":5:7   */\n      iszero\n      tag_216\n      jumpi\n        /* \"--CODEGEN--\":45:61   */\n      returndatasize\n        /* \"--CODEGEN--\":42:43   */\n      0x00\n        /* \"--CODEGEN--\":39:40   */\n      dup1\n        /* \"--CODEGEN--\":24:62   */\n      returndatacopy\n        /* \"--CODEGEN--\":77:93   */\n      returndatasize\n        /* \"--CODEGEN--\":74:75   */\n      0x00\n        /* \"--CODEGEN--\":67:94   */\n      revert\n        /* \"--CODEGEN--\":5:7   */\n    tag_216:\n        /* \"Topic.sol\":3083:3132  topicAssigner.hasTopic(msg.sender, address(this)) */\n      pop\n      pop\n      pop\n      pop\n      mload(0x40)\n      returndatasize\n        /* \"--CODEGEN--\":13:15   */\n      0x20\n        /* \"--CODEGEN--\":8:11   */\n      dup2\n        /* \"--CODEGEN--\":5:16   */\n      lt\n        /* \"--CODEGEN--\":2:4   */\n      iszero\n      tag_217\n      jumpi\n        /* \"--CODEGEN--\":29:30   */\n      0x00\n        /* \"--CODEGEN--\":26:27   */\n      dup1\n        /* \"--CODEGEN--\":19:31   */\n      revert\n        /* \"--CODEGEN--\":2:4   */\n    tag_217:\n        /* \"Topic.sol\":3083:3132  topicAssigner.hasTopic(msg.sender, address(this)) */\n      dup2\n      add\n      swap1\n      dup1\n      dup1\n      mload\n      swap1\n      0x20\n      add\n      swap1\n      swap3\n      swap2\n      swap1\n      pop\n      pop\n      pop\n        /* \"Topic.sol\":3075:3186  require(topicAssigner.hasTopic(msg.sender, address(this)), \"You don't have this topic on your available list.\") */\n      tag_218\n      jumpi\n      mload(0x40)\n      0x08c379a000000000000000000000000000000000000000000000000000000000\n      dup2\n      mstore\n      0x04\n      add\n      dup1\n      dup1\n      0x20\n      add\n      dup3\n      dup2\n      sub\n      dup3\n      mstore\n      0x31\n      dup2\n      mstore\n      0x20\n      add\n      dup1\n      data_7f2fbf1567b414ddc89c86dd77666c523e02cd5b22fdeb330a6102a2952a5d5d\n      0x31\n      swap2\n      codecopy\n      0x40\n      add\n      swap2\n      pop\n      pop\n      mload(0x40)\n      dup1\n      swap2\n      sub\n      swap1\n      revert\n    tag_218:\n        /* \"Topic.sol\":3235:3259  reputationFactoryAddress */\n      0x00\n      dup1\n      swap1\n      sload\n      swap1\n      0x0100\n      exp\n      swap1\n      div\n      0xffffffffffffffffffffffffffffffffffffffff\n      and\n        /* \"Topic.sol\":3217:3276  ReputationFactory(reputationFactoryAddress).spendReputation */\n      0xffffffffffffffffffffffffffffffffffffffff\n      and\n      0x37c10389\n        /* \"Topic.sol\":3285:3289  this */\n      address\n        /* \"Topic.sol\":3292:3306  reputationCost */\n      dup5\n        /* \"Topic.sol\":3308:3318  msg.sender */\n      caller\n        /* \"Topic.sol\":3217:3319  ReputationFactory(reputationFactoryAddress).spendReputation(address(this), reputationCost, msg.sender) */\n      mload(0x40)\n      dup5\n      0xffffffff\n      and\n      0xe0\n      shl\n      dup2\n      mstore\n      0x04\n      add\n      dup1\n      dup5\n      0xffffffffffffffffffffffffffffffffffffffff\n      and\n      0xffffffffffffffffffffffffffffffffffffffff\n      and\n      dup2\n      mstore\n      0x20\n      add\n      dup4\n      dup2\n      mstore\n      0x20\n      add\n      dup3\n      0xffffffffffffffffffffffffffffffffffffffff\n      and\n      0xffffffffffffffffffffffffffffffffffffffff\n      and\n      dup2\n      mstore\n      0x20\n      add\n      swap4\n      pop\n      pop\n      pop\n      pop\n      0x00\n      mload(0x40)\n      dup1\n      dup4\n      sub\n      dup2\n      0x00\n      dup8\n      dup1\n      extcodesize\n      iszero\n        /* \"--CODEGEN--\":8:17   */\n      dup1\n        /* \"--CODEGEN--\":5:7   */\n      iszero\n      tag_219\n      jumpi\n        /* \"--CODEGEN--\":30:31   */\n      0x00\n        /* \"--CODEGEN--\":27:28   */\n      dup1\n        /* \"--CODEGEN--\":20:32   */\n      revert\n        /* \"--CODEGEN--\":5:7   */\n    tag_219:\n        /* \"Topic.sol\":3217:3319  ReputationFactory(reputationFactoryAddress).spendReputation(address(this), reputationCost, msg.sender) */\n      pop\n      gas\n      call\n      iszero\n        /* \"--CODEGEN--\":8:17   */\n      dup1\n        /* \"--CODEGEN--\":5:7   */\n      iszero\n      tag_220\n      jumpi\n        /* \"--CODEGEN--\":45:61   */\n      returndatasize\n        /* \"--CODEGEN--\":42:43   */\n      0x00\n        /* \"--CODEGEN--\":39:40   */\n      dup1\n        /* \"--CODEGEN--\":24:62   */\n      returndatacopy\n        /* \"--CODEGEN--\":77:93   */\n      returndatasize\n        /* \"--CODEGEN--\":74:75   */\n      0x00\n        /* \"--CODEGEN--\":67:94   */\n      revert\n        /* \"--CODEGEN--\":5:7   */\n    tag_220:\n        /* \"Topic.sol\":3217:3319  ReputationFactory(reputationFactoryAddress).spendReputation(address(this), reputationCost, msg.sender) */\n      pop\n      pop\n      pop\n      pop\n        /* \"Topic.sol\":3350:3363  argumentIndex */\n      dup3\n        /* \"Topic.sol\":3330:3335  voted */\n      0x08\n        /* \"Topic.sol\":3330:3347  voted[msg.sender] */\n      0x00\n        /* \"Topic.sol\":3336:3346  msg.sender */\n      caller\n        /* \"Topic.sol\":3330:3347  voted[msg.sender] */\n      0xffffffffffffffffffffffffffffffffffffffff\n      and\n      0xffffffffffffffffffffffffffffffffffffffff\n      and\n      dup2\n      mstore\n      0x20\n      add\n      swap1\n      dup2\n      mstore\n      0x20\n      add\n      0x00\n      keccak256\n        /* \"Topic.sol\":3330:3363  voted[msg.sender] = argumentIndex */\n      dup2\n      swap1\n      sstore\n      pop\n        /* \"Topic.sol\":3407:3416  msg.value */\n      callvalue\n        /* \"Topic.sol\":3374:3392  monetaryInvestment */\n      0x09\n        /* \"Topic.sol\":3374:3404  monetaryInvestment[msg.sender] */\n      0x00\n        /* \"Topic.sol\":3393:3403  msg.sender */\n      caller\n        /* \"Topic.sol\":3374:3404  monetaryInvestment[msg.sender] */\n      0xffffffffffffffffffffffffffffffffffffffff\n      and\n      0xffffffffffffffffffffffffffffffffffffffff\n      and\n      dup2\n      mstore\n      0x20\n      add\n      swap1\n      dup2\n      mstore\n      0x20\n      add\n      0x00\n      keccak256\n        /* \"Topic.sol\":3374:3416  monetaryInvestment[msg.sender] = msg.value */\n      dup2\n      swap1\n      sstore\n      pop\n        /* \"Topic.sol\":3454:3463  msg.value */\n      callvalue\n        /* \"Topic.sol\":3427:3450  totalMonetaryInvestment */\n      0x0a\n      0x00\n        /* \"Topic.sol\":3427:3463  totalMonetaryInvestment += msg.value */\n      dup3\n      dup3\n      sload\n      add\n      swap3\n      pop\n      pop\n      dup2\n      swap1\n      sstore\n      pop\n        /* \"Topic.sol\":3509:3523  reputationCost */\n      dup2\n        /* \"Topic.sol\":3474:3494  reputationInvestment */\n      0x0c\n        /* \"Topic.sol\":3474:3506  reputationInvestment[msg.sender] */\n      0x00\n        /* \"Topic.sol\":3495:3505  msg.sender */\n      caller\n        /* \"Topic.sol\":3474:3506  reputationInvestment[msg.sender] */\n      0xffffffffffffffffffffffffffffffffffffffff\n      and\n      0xffffffffffffffffffffffffffffffffffffffff\n      and\n      dup2\n      mstore\n      0x20\n      add\n      swap1\n      dup2\n      mstore\n      0x20\n      add\n      0x00\n      keccak256\n        /* \"Topic.sol\":3474:3523  reputationInvestment[msg.sender] = reputationCost */\n      dup2\n      swap1\n      sstore\n      pop\n        /* \"Topic.sol\":3563:3577  reputationCost */\n      dup2\n        /* \"Topic.sol\":3534:3559  totalReputationInvestment */\n      0x0d\n      0x00\n        /* \"Topic.sol\":3534:3577  totalReputationInvestment += reputationCost */\n      dup3\n      dup3\n      sload\n      add\n      swap3\n      pop\n      pop\n      dup2\n      swap1\n      sstore\n      pop\n        /* \"Topic.sol\":3590:3599  arguments */\n      0x07\n        /* \"Topic.sol\":3600:3613  argumentIndex */\n      dup4\n        /* \"Topic.sol\":3590:3614  arguments[argumentIndex] */\n      dup2\n      sload\n      dup2\n      lt\n      tag_221\n      jumpi\n      invalid\n    tag_221:\n      swap1\n      0x00\n      mstore\n      keccak256(0x00, 0x20)\n      swap1\n      0x03\n      mul\n      add\n        /* \"Topic.sol\":3590:3624  arguments[argumentIndex].voteCount */\n      0x02\n      add\n      0x00\n        /* \"Topic.sol\":3590:3626  arguments[argumentIndex].voteCount++ */\n      dup2\n      sload\n      dup1\n      swap3\n      swap2\n      swap1\n      0x01\n      add\n      swap2\n      swap1\n      pop\n      sstore\n      pop\n        /* \"Topic.sol\":3641:3650  arguments */\n      0x07\n        /* \"Topic.sol\":3651:3664  argumentIndex */\n      dup4\n        /* \"Topic.sol\":3641:3665  arguments[argumentIndex] */\n      dup2\n      sload\n      dup2\n      lt\n      tag_223\n      jumpi\n      invalid\n    tag_223:\n      swap1\n      0x00\n      mstore\n      keccak256(0x00, 0x20)\n      swap1\n      0x03\n      mul\n      add\n        /* \"Topic.sol\":3641:3672  arguments[argumentIndex].isTrue */\n      0x01\n      add\n      0x00\n      swap1\n      sload\n      swap1\n      0x0100\n      exp\n      swap1\n      div\n      0xff\n      and\n        /* \"Topic.sol\":3637:3788  if (arguments[argumentIndex].isTrue) {\r... */\n      iszero\n      tag_225\n      jumpi\n        /* \"Topic.sol\":3689:3700  truthVoters */\n      0x0f\n        /* \"Topic.sol\":3706:3716  msg.sender */\n      caller\n        /* \"Topic.sol\":3689:3717  truthVoters.push(msg.sender) */\n      swap1\n      dup1\n        /* \"--CODEGEN--\":39:40   */\n      0x01\n        /* \"--CODEGEN--\":33:36   */\n      dup2\n        /* \"--CODEGEN--\":27:37   */\n      sload\n        /* \"--CODEGEN--\":23:41   */\n      add\n        /* \"--CODEGEN--\":57:67   */\n      dup1\n        /* \"--CODEGEN--\":52:55   */\n      dup3\n        /* \"--CODEGEN--\":45:68   */\n      sstore\n        /* \"--CODEGEN--\":79:89   */\n      dup1\n        /* \"--CODEGEN--\":72:89   */\n      swap2\n      pop\n        /* \"--CODEGEN--\":0:93   */\n      pop\n        /* \"Topic.sol\":3689:3717  truthVoters.push(msg.sender) */\n      swap1\n      0x01\n      dup3\n      sub\n      swap1\n      0x00\n      mstore\n      keccak256(0x00, 0x20)\n      add\n      0x00\n      swap1\n      swap2\n      swap3\n      swap1\n      swap2\n      swap1\n      swap2\n      0x0100\n      exp\n      dup2\n      sload\n      dup2\n      0xffffffffffffffffffffffffffffffffffffffff\n      mul\n      not\n      and\n      swap1\n      dup4\n      0xffffffffffffffffffffffffffffffffffffffff\n      and\n      mul\n      or\n      swap1\n      sstore\n      pop\n      pop\n        /* \"Topic.sol\":3637:3788  if (arguments[argumentIndex].isTrue) {\r... */\n      jump(tag_227)\n    tag_225:\n        /* \"Topic.sol\":3750:3759  lieVoters */\n      0x10\n        /* \"Topic.sol\":3765:3775  msg.sender */\n      caller\n        /* \"Topic.sol\":3750:3776  lieVoters.push(msg.sender) */\n      swap1\n      dup1\n        /* \"--CODEGEN--\":39:40   */\n      0x01\n        /* \"--CODEGEN--\":33:36   */\n      dup2\n        /* \"--CODEGEN--\":27:37   */\n      sload\n        /* \"--CODEGEN--\":23:41   */\n      add\n        /* \"--CODEGEN--\":57:67   */\n      dup1\n        /* \"--CODEGEN--\":52:55   */\n      dup3\n        /* \"--CODEGEN--\":45:68   */\n      sstore\n        /* \"--CODEGEN--\":79:89   */\n      dup1\n        /* \"--CODEGEN--\":72:89   */\n      swap2\n      pop\n        /* \"--CODEGEN--\":0:93   */\n      pop\n        /* \"Topic.sol\":3750:3776  lieVoters.push(msg.sender) */\n      swap1\n      0x01\n      dup3\n      sub\n      swap1\n      0x00\n      mstore\n      keccak256(0x00, 0x20)\n      add\n      0x00\n      swap1\n      swap2\n      swap3\n      swap1\n      swap2\n      swap1\n      swap2\n      0x0100\n      exp\n      dup2\n      sload\n      dup2\n      0xffffffffffffffffffffffffffffffffffffffff\n      mul\n      not\n      and\n      swap1\n      dup4\n      0xffffffffffffffffffffffffffffffffffffffff\n      and\n      mul\n      or\n      swap1\n      sstore\n      pop\n      pop\n        /* \"Topic.sol\":3637:3788  if (arguments[argumentIndex].isTrue) {\r... */\n    tag_227:\n        /* \"Topic.sol\":1622:1623  _ */\n      pop\n        /* \"Topic.sol\":2570:3795  function vote(uint argumentIndex, uint reputationCost) public payable _mustBeWithinTimeFrame {\r... */\n      pop\n      pop\n      jump\t// out\n        /* \"Topic.sol\":7526:7712  function calculateReputationGain(uint initialReputation) pure public returns (uint) {\r... */\n    tag_115:\n        /* \"Topic.sol\":7604:7608  uint */\n      0x00\n        /* \"Topic.sol\":7621:7635  uint256 result */\n      dup1\n        /* \"Topic.sol\":7663:7665  10 */\n      0x0a\n        /* \"Topic.sol\":7658:7660  11 */\n      0x0b\n        /* \"Topic.sol\":7638:7655  initialReputation */\n      dup5\n        /* \"Topic.sol\":7638:7660  initialReputation * 11 */\n      mul\n        /* \"Topic.sol\":7638:7665  initialReputation * 11 / 10 */\n      dup2\n      tag_230\n      jumpi\n      invalid\n    tag_230:\n      div\n        /* \"Topic.sol\":7621:7665  uint256 result = initialReputation * 11 / 10 */\n      swap1\n      pop\n        /* \"Topic.sol\":7698:7704  result */\n      dup1\n        /* \"Topic.sol\":7691:7704  return result */\n      swap2\n      pop\n      pop\n        /* \"Topic.sol\":7526:7712  function calculateReputationGain(uint initialReputation) pure public returns (uint) {\r... */\n      swap2\n      swap1\n      pop\n      jump\t// out\n        /* \"Topic.sol\":1211:1231  uint public majority */\n    tag_118:\n      sload(0x12)\n      dup2\n      jump\t// out\n        /* \"Topic.sol\":4972:5069  function getArgumentCount() public view returns (uint) {\r... */\n    tag_121:\n        /* \"Topic.sol\":5021:5025  uint */\n      0x00\n        /* \"Topic.sol\":5045:5054  arguments */\n      0x07\n        /* \"Topic.sol\":5045:5061  arguments.length */\n      dup1\n      sload\n      swap1\n      pop\n        /* \"Topic.sol\":5038:5061  return arguments.length */\n      swap1\n      pop\n        /* \"Topic.sol\":4972:5069  function getArgumentCount() public view returns (uint) {\r... */\n      swap1\n      jump\t// out\n        /* \"Topic.sol\":844:896  mapping(address => uint) public reputationInvestment */\n    tag_125:\n      mstore(0x20, 0x0c)\n      dup1\n      0x00\n      mstore\n      keccak256(0x00, 0x40)\n      0x00\n      swap2\n      pop\n      swap1\n      pop\n      sload\n      dup2\n      jump\t// out\n        /* \"Topic.sol\":1062:1098  address payable[] public truthVoters */\n    tag_129:\n      0x0f\n      dup2\n      dup2\n      sload\n      dup2\n      lt\n      tag_232\n      jumpi\n      invalid\n    tag_232:\n      swap1\n      0x00\n      mstore\n      keccak256(0x00, 0x20)\n      add\n      0x00\n      swap2\n      pop\n      sload\n      swap1\n      0x0100\n      exp\n      swap1\n      div\n      0xffffffffffffffffffffffffffffffffffffffff\n      and\n      dup2\n      jump\t// out\n        /* \"Topic.sol\":936:973  uint public totalReputationInvestment */\n    tag_132:\n      sload(0x0d)\n      dup2\n      jump\t// out\n        /* \"Topic.sol\":4510:4964  function modifyArgument(uint argumentIndex, string memory newContent, bool belief) public _mustBeWithinTimeFrame  {\r... */\n    tag_139:\n        /* \"Topic.sol\":1556:1563  endTime */\n      sload(0x06)\n        /* \"Topic.sol\":1538:1553  block.timestamp */\n      timestamp\n        /* \"Topic.sol\":1538:1563  block.timestamp < endTime */\n      lt\n        /* \"Topic.sol\":1530:1611  require(block.timestamp < endTime, 'The period for the Topic has already ended.') */\n      tag_235\n      jumpi\n      mload(0x40)\n      0x08c379a000000000000000000000000000000000000000000000000000000000\n      dup2\n      mstore\n      0x04\n      add\n      dup1\n      dup1\n      0x20\n      add\n      dup3\n      dup2\n      sub\n      dup3\n      mstore\n      0x2b\n      dup2\n      mstore\n      0x20\n      add\n      dup1\n      data_9f7f122b70f117f8950311c325d9279ba88d6a0d2b593ed4f11b7663b9f48d07\n      0x2b\n      swap2\n      codecopy\n      0x40\n      add\n      swap2\n      pop\n      pop\n      mload(0x40)\n      dup1\n      swap2\n      sub\n      swap1\n      revert\n    tag_235:\n        /* \"Topic.sol\":4635:4655  Argument storage arg */\n      0x00\n        /* \"Topic.sol\":4658:4667  arguments */\n      0x07\n        /* \"Topic.sol\":4668:4681  argumentIndex */\n      dup5\n        /* \"Topic.sol\":4658:4682  arguments[argumentIndex] */\n      dup2\n      sload\n      dup2\n      lt\n      tag_237\n      jumpi\n      invalid\n    tag_237:\n      swap1\n      0x00\n      mstore\n      keccak256(0x00, 0x20)\n      swap1\n      0x03\n      mul\n      add\n        /* \"Topic.sol\":4635:4682  Argument storage arg = arguments[argumentIndex] */\n      swap1\n      pop\n        /* \"Topic.sol\":4716:4726  msg.sender */\n      caller\n        /* \"Topic.sol\":4701:4726  arg.creator == msg.sender */\n      0xffffffffffffffffffffffffffffffffffffffff\n      and\n        /* \"Topic.sol\":4701:4704  arg */\n      dup2\n        /* \"Topic.sol\":4701:4712  arg.creator */\n      0x01\n      add\n      0x01\n      swap1\n      sload\n      swap1\n      0x0100\n      exp\n      swap1\n      div\n      0xffffffffffffffffffffffffffffffffffffffff\n      and\n        /* \"Topic.sol\":4701:4726  arg.creator == msg.sender */\n      0xffffffffffffffffffffffffffffffffffffffff\n      and\n      eq\n        /* \"Topic.sol\":4693:4794  require(arg.creator == msg.sender, 'You must be the creator of this argument to modify its contents') */\n      tag_239\n      jumpi\n      mload(0x40)\n      0x08c379a000000000000000000000000000000000000000000000000000000000\n      dup2\n      mstore\n      0x04\n      add\n      dup1\n      dup1\n      0x20\n      add\n      dup3\n      dup2\n      sub\n      dup3\n      mstore\n      0x3f\n      dup2\n      mstore\n      0x20\n      add\n      dup1\n      data_462972cdfa3949c714200f01cc0119c34f13d2febb0b716c5c847368d043f42b\n      0x3f\n      swap2\n      codecopy\n      0x40\n      add\n      swap2\n      pop\n      pop\n      mload(0x40)\n      dup1\n      swap2\n      sub\n      swap1\n      revert\n    tag_239:\n        /* \"Topic.sol\":4830:4831  0 */\n      0x00\n        /* \"Topic.sol\":4813:4816  arg */\n      dup2\n        /* \"Topic.sol\":4813:4826  arg.voteCount */\n      0x02\n      add\n      sload\n        /* \"Topic.sol\":4813:4831  arg.voteCount == 0 */\n      eq\n        /* \"Topic.sol\":4805:4891  require(arg.voteCount == 0, 'Argument has already been voted on. Cannot be modified.') */\n      tag_240\n      jumpi\n      mload(0x40)\n      0x08c379a000000000000000000000000000000000000000000000000000000000\n      dup2\n      mstore\n      0x04\n      add\n      dup1\n      dup1\n      0x20\n      add\n      dup3\n      dup2\n      sub\n      dup3\n      mstore\n      0x37\n      dup2\n      mstore\n      0x20\n      add\n      dup1\n      data_1be1a3b9e30cac1814559605f4ac4b55233032853cb87250e77213ea0088799b\n      0x37\n      swap2\n      codecopy\n      0x40\n      add\n      swap2\n      pop\n      pop\n      mload(0x40)\n      dup1\n      swap2\n      sub\n      swap1\n      revert\n    tag_240:\n        /* \"Topic.sol\":4916:4926  newContent */\n      dup3\n        /* \"Topic.sol\":4902:4905  arg */\n      dup2\n        /* \"Topic.sol\":4902:4913  arg.content */\n      0x00\n      add\n        /* \"Topic.sol\":4902:4926  arg.content = newContent */\n      swap1\n      dup1\n      mload\n      swap1\n      0x20\n      add\n      swap1\n      tag_241\n      swap3\n      swap2\n      swap1\n      tag_242\n      jump\t// in\n    tag_241:\n      pop\n        /* \"Topic.sol\":4950:4956  belief */\n      dup2\n        /* \"Topic.sol\":4937:4940  arg */\n      dup2\n        /* \"Topic.sol\":4937:4947  arg.isTrue */\n      0x01\n      add\n      0x00\n        /* \"Topic.sol\":4937:4956  arg.isTrue = belief */\n      0x0100\n      exp\n      dup2\n      sload\n      dup2\n      0xff\n      mul\n      not\n      and\n      swap1\n      dup4\n      iszero\n      iszero\n      mul\n      or\n      swap1\n      sstore\n      pop\n        /* \"Topic.sol\":1622:1623  _ */\n      pop\n        /* \"Topic.sol\":4510:4964  function modifyArgument(uint argumentIndex, string memory newContent, bool belief) public _mustBeWithinTimeFrame  {\r... */\n      pop\n      pop\n      pop\n      jump\t// out\n        /* \"Topic.sol\":6056:6154  function getMoneyPool() public view returns (uint) {\r... */\n    tag_142:\n        /* \"Topic.sol\":6101:6105  uint */\n      0x00\n        /* \"Topic.sol\":6125:6146  address(this).balance */\n      selfbalance\n        /* \"Topic.sol\":6118:6146  return address(this).balance */\n      swap1\n      pop\n        /* \"Topic.sol\":6056:6154  function getMoneyPool() public view returns (uint) {\r... */\n      swap1\n      jump\t// out\n        /* \"Topic.sol\":1181:1204  bool public isCompleted */\n    tag_145:\n      0x11\n      0x00\n      swap1\n      sload\n      swap1\n      0x0100\n      exp\n      swap1\n      div\n      0xff\n      and\n      dup2\n      jump\t// out\n        /* \"Topic.sol\":801:831  uint public finalMonetaryTotal */\n    tag_148:\n      sload(0x0b)\n      dup2\n      jump\t// out\n        /* \"Topic.sol\":8089:8235  function getDetails() public view returns (address, uint, uint, bool) {\r... */\n    tag_151:\n        /* \"Topic.sol\":8132:8139  address */\n      0x00\n        /* \"Topic.sol\":8141:8145  uint */\n      dup1\n        /* \"Topic.sol\":8147:8151  uint */\n      0x00\n        /* \"Topic.sol\":8153:8157  bool */\n      dup1\n        /* \"Topic.sol\":8178:8185  creator */\n      0x04\n      0x00\n      swap1\n      sload\n      swap1\n      0x0100\n      exp\n      swap1\n      div\n      0xffffffffffffffffffffffffffffffffffffffff\n      and\n        /* \"Topic.sol\":8187:8204  minimumInvestment */\n      sload(0x05)\n        /* \"Topic.sol\":8206:8213  endTime */\n      sload(0x06)\n        /* \"Topic.sol\":8215:8226  isCompleted */\n      0x11\n      0x00\n      swap1\n      sload\n      swap1\n      0x0100\n      exp\n      swap1\n      div\n      0xff\n      and\n        /* \"Topic.sol\":8170:8227  return (creator, minimumInvestment, endTime, isCompleted) */\n      swap4\n      pop\n      swap4\n      pop\n      swap4\n      pop\n      swap4\n      pop\n        /* \"Topic.sol\":8089:8235  function getDetails() public view returns (address, uint, uint, bool) {\r... */\n      swap1\n      swap2\n      swap3\n      swap4\n      jump\t// out\n        /* \"Topic.sol\":5240:6044  function calculateMajority() internal {\r... */\n    tag_179:\n        /* \"Topic.sol\":5309:5310  0 */\n      0x00\n        /* \"Topic.sol\":5297:5305  majority */\n      sload(0x12)\n        /* \"Topic.sol\":5297:5310  majority == 0 */\n      eq\n        /* \"Topic.sol\":5289:5349  require(majority == 0, 'Majority has already been decided.') */\n      tag_246\n      jumpi\n      mload(0x40)\n      0x08c379a000000000000000000000000000000000000000000000000000000000\n      dup2\n      mstore\n      0x04\n      add\n      dup1\n      dup1\n      0x20\n      add\n      dup3\n      dup2\n      sub\n      dup3\n      mstore\n      0x22\n      dup2\n      mstore\n      0x20\n      add\n      dup1\n      data_b923ef61fa2999a084d0e68c9e9898cf18c32317d3ee24c87dceb47dffcde339\n      0x22\n      swap2\n      codecopy\n      0x40\n      add\n      swap2\n      pop\n      pop\n      mload(0x40)\n      dup1\n      swap2\n      sub\n      swap1\n      revert\n    tag_246:\n        /* \"Topic.sol\":5383:5388  false */\n      0x00\n        /* \"Topic.sol\":5368:5388  isCompleted == false */\n      iszero\n      iszero\n        /* \"Topic.sol\":5368:5379  isCompleted */\n      0x11\n      0x00\n      swap1\n      sload\n      swap1\n      0x0100\n      exp\n      swap1\n      div\n      0xff\n      and\n        /* \"Topic.sol\":5368:5388  isCompleted == false */\n      iszero\n      iszero\n      eq\n        /* \"Topic.sol\":5360:5430  require(isCompleted == false, 'Topic is already marked as completed.') */\n      tag_247\n      jumpi\n      mload(0x40)\n      0x08c379a000000000000000000000000000000000000000000000000000000000\n      dup2\n      mstore\n      0x04\n      add\n      dup1\n      dup1\n      0x20\n      add\n      dup3\n      dup2\n      sub\n      dup3\n      mstore\n      0x25\n      dup2\n      mstore\n      0x20\n      add\n      dup1\n      data_69abe80003e6d0795ace8e04b4282120b32e88a03434cef64287876f072cb77e\n      0x25\n      swap2\n      codecopy\n      0x40\n      add\n      swap2\n      pop\n      pop\n      mload(0x40)\n      dup1\n      swap2\n      sub\n      swap1\n      revert\n    tag_247:\n        /* \"Topic.sol\":5467:5474  endTime */\n      sload(0x06)\n        /* \"Topic.sol\":5449:5464  block.timestamp */\n      timestamp\n        /* \"Topic.sol\":5449:5474  block.timestamp > endTime */\n      gt\n        /* \"Topic.sol\":5441:5543  require(block.timestamp > endTime, 'Majority can only be calculated after the time period has ended.') */\n      tag_248\n      jumpi\n      mload(0x40)\n      0x08c379a000000000000000000000000000000000000000000000000000000000\n      dup2\n      mstore\n      0x04\n      add\n      dup1\n      dup1\n      0x20\n      add\n      dup3\n      dup2\n      sub\n      dup3\n      mstore\n      0x40\n      dup2\n      mstore\n      0x20\n      add\n      dup1\n      data_81338d347818a2fed0620a7e85f685926d9e1bdbc7e2764bf0092067d32f7024\n      0x40\n      swap2\n      codecopy\n      0x40\n      add\n      swap2\n      pop\n      pop\n      mload(0x40)\n      dup1\n      swap2\n      sub\n      swap1\n      revert\n    tag_248:\n        /* \"Topic.sol\":5556:5571  uint truthCount */\n      0x00\n        /* \"Topic.sol\":5574:5589  getTruthCount() */\n      tag_249\n        /* \"Topic.sol\":5574:5587  getTruthCount */\n      tag_71\n        /* \"Topic.sol\":5574:5589  getTruthCount() */\n      jump\t// in\n    tag_249:\n        /* \"Topic.sol\":5556:5589  uint truthCount = getTruthCount() */\n      swap1\n      pop\n        /* \"Topic.sol\":5600:5613  uint lieCount */\n      0x00\n        /* \"Topic.sol\":5616:5629  getLieCount() */\n      tag_250\n        /* \"Topic.sol\":5616:5627  getLieCount */\n      tag_91\n        /* \"Topic.sol\":5616:5629  getLieCount() */\n      jump\t// in\n    tag_250:\n        /* \"Topic.sol\":5600:5629  uint lieCount = getLieCount() */\n      swap1\n      pop\n        /* \"Topic.sol\":5640:5656  uint winnerCount */\n      0x00\n        /* \"Topic.sol\":5659:5660  0 */\n      dup1\n        /* \"Topic.sol\":5640:5660  uint winnerCount = 0 */\n      swap1\n      pop\n        /* \"Topic.sol\":5690:5698  lieCount */\n      dup2\n        /* \"Topic.sol\":5677:5687  truthCount */\n      dup4\n        /* \"Topic.sol\":5677:5698  truthCount > lieCount */\n      gt\n        /* \"Topic.sol\":5673:5982  if (truthCount > lieCount) {\r... */\n      iszero\n      tag_251\n      jumpi\n        /* \"Topic.sol\":5726:5727  1 */\n      0x01\n        /* \"Topic.sol\":5715:5723  majority */\n      0x12\n        /* \"Topic.sol\":5715:5727  majority = 1 */\n      dup2\n      swap1\n      sstore\n      pop\n        /* \"Topic.sol\":5756:5766  truthCount */\n      dup3\n        /* \"Topic.sol\":5742:5766  winnerCount = truthCount */\n      swap1\n      pop\n        /* \"Topic.sol\":5673:5982  if (truthCount > lieCount) {\r... */\n      jump(tag_252)\n    tag_251:\n        /* \"Topic.sol\":5801:5809  lieCount */\n      dup2\n        /* \"Topic.sol\":5788:5798  truthCount */\n      dup4\n        /* \"Topic.sol\":5788:5809  truthCount < lieCount */\n      lt\n        /* \"Topic.sol\":5784:5982  if (truthCount < lieCount) {\r... */\n      iszero\n      tag_253\n      jumpi\n        /* \"Topic.sol\":5837:5838  2 */\n      0x02\n        /* \"Topic.sol\":5826:5834  majority */\n      0x12\n        /* \"Topic.sol\":5826:5838  majority = 2 */\n      dup2\n      swap1\n      sstore\n      pop\n        /* \"Topic.sol\":5867:5875  lieCount */\n      dup2\n        /* \"Topic.sol\":5853:5875  winnerCount = lieCount */\n      swap1\n      pop\n        /* \"Topic.sol\":5784:5982  if (truthCount < lieCount) {\r... */\n      jump(tag_254)\n    tag_253:\n        /* \"Topic.sol\":5919:5920  3 */\n      0x03\n        /* \"Topic.sol\":5908:5916  majority */\n      0x12\n        /* \"Topic.sol\":5908:5920  majority = 3 */\n      dup2\n      swap1\n      sstore\n      pop\n        /* \"Topic.sol\":5962:5970  lieCount */\n      dup2\n        /* \"Topic.sol\":5949:5959  truthCount */\n      dup4\n        /* \"Topic.sol\":5949:5970  truthCount + lieCount */\n      add\n        /* \"Topic.sol\":5935:5970  winnerCount = truthCount + lieCount */\n      swap1\n      pop\n        /* \"Topic.sol\":5784:5982  if (truthCount < lieCount) {\r... */\n    tag_254:\n        /* \"Topic.sol\":5673:5982  if (truthCount > lieCount) {\r... */\n    tag_252:\n        /* \"Topic.sol\":6015:6036  address(this).balance */\n      selfbalance\n        /* \"Topic.sol\":5994:6012  finalMonetaryTotal */\n      0x0b\n        /* \"Topic.sol\":5994:6036  finalMonetaryTotal = address(this).balance */\n      dup2\n      swap1\n      sstore\n      pop\n        /* \"Topic.sol\":5240:6044  function calculateMajority() internal {\r... */\n      pop\n      pop\n      pop\n      jump\t// out\n        /* \"Topic.sol\":6166:6431  function markAsCompleted() internal {\r... */\n    tag_208:\n        /* \"Topic.sol\":6227:6231  true */\n      0x01\n        /* \"Topic.sol\":6213:6224  isCompleted */\n      0x11\n      0x00\n        /* \"Topic.sol\":6213:6231  isCompleted = true */\n      0x0100\n      exp\n      dup2\n      sload\n      dup2\n      0xff\n      mul\n      not\n      and\n      swap1\n      dup4\n      iszero\n      iszero\n      mul\n      or\n      swap1\n      sstore\n      pop\n        /* \"Topic.sol\":6303:6328  TopicFactory topicFactory */\n      0x00\n        /* \"Topic.sol\":6344:6363  topicFactoryAddress */\n      0x02\n      0x00\n      swap1\n      sload\n      swap1\n      0x0100\n      exp\n      swap1\n      div\n      0xffffffffffffffffffffffffffffffffffffffff\n      and\n        /* \"Topic.sol\":6303:6364  TopicFactory topicFactory = TopicFactory(topicFactoryAddress) */\n      swap1\n      pop\n        /* \"Topic.sol\":6375:6387  topicFactory */\n      dup1\n        /* \"Topic.sol\":6375:6408  topicFactory.markTopicAsCompleted */\n      0xffffffffffffffffffffffffffffffffffffffff\n      and\n      0xe25db2a4\n        /* \"Topic.sol\":6417:6421  this */\n      address\n        /* \"Topic.sol\":6375:6423  topicFactory.markTopicAsCompleted(address(this)) */\n      mload(0x40)\n      dup3\n      0xffffffff\n      and\n      0xe0\n      shl\n      dup2\n      mstore\n      0x04\n      add\n      dup1\n      dup3\n      0xffffffffffffffffffffffffffffffffffffffff\n      and\n      0xffffffffffffffffffffffffffffffffffffffff\n      and\n      dup2\n      mstore\n      0x20\n      add\n      swap2\n      pop\n      pop\n      0x00\n      mload(0x40)\n      dup1\n      dup4\n      sub\n      dup2\n      0x00\n      dup8\n      dup1\n      extcodesize\n      iszero\n        /* \"--CODEGEN--\":8:17   */\n      dup1\n        /* \"--CODEGEN--\":5:7   */\n      iszero\n      tag_256\n      jumpi\n        /* \"--CODEGEN--\":30:31   */\n      0x00\n        /* \"--CODEGEN--\":27:28   */\n      dup1\n        /* \"--CODEGEN--\":20:32   */\n      revert\n        /* \"--CODEGEN--\":5:7   */\n    tag_256:\n        /* \"Topic.sol\":6375:6423  topicFactory.markTopicAsCompleted(address(this)) */\n      pop\n      gas\n      call\n      iszero\n        /* \"--CODEGEN--\":8:17   */\n      dup1\n        /* \"--CODEGEN--\":5:7   */\n      iszero\n      tag_257\n      jumpi\n        /* \"--CODEGEN--\":45:61   */\n      returndatasize\n        /* \"--CODEGEN--\":42:43   */\n      0x00\n        /* \"--CODEGEN--\":39:40   */\n      dup1\n        /* \"--CODEGEN--\":24:62   */\n      returndatacopy\n        /* \"--CODEGEN--\":77:93   */\n      returndatasize\n        /* \"--CODEGEN--\":74:75   */\n      0x00\n        /* \"--CODEGEN--\":67:94   */\n      revert\n        /* \"--CODEGEN--\":5:7   */\n    tag_257:\n        /* \"Topic.sol\":6375:6423  topicFactory.markTopicAsCompleted(address(this)) */\n      pop\n      pop\n      pop\n      pop\n        /* \"Topic.sol\":6166:6431  function markAsCompleted() internal {\r... */\n      pop\n      jump\t// out\n        /* \"Topic.sol\":96:10423  contract Topic {\r... */\n    tag_157:\n      mload(0x40)\n      dup1\n      0x80\n      add\n      0x40\n      mstore\n      dup1\n      0x60\n      dup2\n      mstore\n      0x20\n      add\n      iszero(iszero(0x00))\n      dup2\n      mstore\n      0x20\n      add\n      and(0xffffffffffffffffffffffffffffffffffffffff, 0x00)\n      dup2\n      mstore\n      0x20\n      add\n      0x00\n      dup2\n      mstore\n      pop\n      swap1\n      jump\t// out\n    tag_160:\n      dup3\n      dup1\n      sload\n      0x01\n      dup2\n      0x01\n      and\n      iszero\n      0x0100\n      mul\n      sub\n      and\n      0x02\n      swap1\n      div\n      swap1\n      0x00\n      mstore\n      keccak256(0x00, 0x20)\n      swap1\n      0x1f\n      add\n      0x20\n      swap1\n      div\n      dup2\n      add\n      swap3\n      dup3\n      0x1f\n      lt\n      tag_259\n      jumpi\n      dup1\n      mload\n      not(0xff)\n      and\n      dup4\n      dup1\n      add\n      or\n      dup6\n      sstore\n      jump(tag_258)\n    tag_259:\n      dup3\n      dup1\n      add\n      0x01\n      add\n      dup6\n      sstore\n      dup3\n      iszero\n      tag_258\n      jumpi\n      swap2\n      dup3\n      add\n    tag_260:\n      dup3\n      dup2\n      gt\n      iszero\n      tag_261\n      jumpi\n      dup3\n      mload\n      dup3\n      sstore\n      swap2\n      0x20\n      add\n      swap2\n      swap1\n      0x01\n      add\n      swap1\n      jump(tag_260)\n    tag_261:\n    tag_258:\n      pop\n      swap1\n      pop\n      tag_262\n      swap2\n      swap1\n      tag_263\n      jump\t// in\n    tag_262:\n      pop\n      swap1\n      jump\t// out\n    tag_242:\n      dup3\n      dup1\n      sload\n      0x01\n      dup2\n      0x01\n      and\n      iszero\n      0x0100\n      mul\n      sub\n      and\n      0x02\n      swap1\n      div\n      swap1\n      0x00\n      mstore\n      keccak256(0x00, 0x20)\n      swap1\n      0x1f\n      add\n      0x20\n      swap1\n      div\n      dup2\n      add\n      swap3\n      dup3\n      0x1f\n      lt\n      tag_265\n      jumpi\n      dup1\n      mload\n      not(0xff)\n      and\n      dup4\n      dup1\n      add\n      or\n      dup6\n      sstore\n      jump(tag_264)\n    tag_265:\n      dup3\n      dup1\n      add\n      0x01\n      add\n      dup6\n      sstore\n      dup3\n      iszero\n      tag_264\n      jumpi\n      swap2\n      dup3\n      add\n    tag_266:\n      dup3\n      dup2\n      gt\n      iszero\n      tag_267\n      jumpi\n      dup3\n      mload\n      dup3\n      sstore\n      swap2\n      0x20\n      add\n      swap2\n      swap1\n      0x01\n      add\n      swap1\n      jump(tag_266)\n    tag_267:\n    tag_264:\n      pop\n      swap1\n      pop\n      tag_268\n      swap2\n      swap1\n      tag_263\n      jump\t// in\n    tag_268:\n      pop\n      swap1\n      jump\t// out\n    tag_263:\n      tag_269\n      swap2\n      swap1\n    tag_270:\n      dup1\n      dup3\n      gt\n      iszero\n      tag_271\n      jumpi\n      0x00\n      dup2\n      0x00\n      swap1\n      sstore\n      pop\n      0x01\n      add\n      jump(tag_270)\n    tag_271:\n      pop\n      swap1\n      jump\n    tag_269:\n      swap1\n      jump\t// out\n    stop\n    data_0f62f618588d36303d76fa765b4096f4535e8428b36a788090d83035227e6cbf 596f7520646964206e6f7420766f746520647572696e672074686520706572696f642c20736f20796f752063616e6e6f7420636c61696d2e\n    data_1382083f71a022fa6144748d79496d6f05d3bcf3a0f484b323383c5c8edd8d26 596f752063616e206f6e6c7920636c61696d20796f75722072657761726473206166746572207468652074696d6520706572696f642e\n    data_1be1a3b9e30cac1814559605f4ac4b55233032853cb87250e77213ea0088799b 417267756d656e742068617320616c7265616479206265656e20766f746564206f6e2e2043616e6e6f74206265206d6f6469666965642e\n    data_34b98d23d562a1a462a2b6766e2d3e1a49232f6fdafbe1eaa8383a3a59d99a34 596f75206d75737420696e76657374206174206c6561737420746865206d696e696d756d20616d6f756e742061732064656369646564206279207468652063726561746f722e\n    data_462972cdfa3949c714200f01cc0119c34f13d2febb0b716c5c847368d043f42b 596f75206d757374206265207468652063726561746f72206f66207468697320617267756d656e7420746f206d6f646966792069747320636f6e74656e7473\n    data_487936df645dd8c7181d68f73972966a3a06b5ee3756057942e5a7608d64edfe 546865206d6f6e657920676f657320746f207468652070656f706c652077686f2070617274696369706174656420696e207468652070726f636573732e\n    data_69abe80003e6d0795ace8e04b4282120b32e88a03434cef64287876f072cb77e 546f70696320697320616c7265616479206d61726b656420617320636f6d706c657465642e\n    data_7f2fbf1567b414ddc89c86dd77666c523e02cd5b22fdeb330a6102a2952a5d5d 596f7520646f6e27742068617665207468697320746f706963206f6e20796f757220617661696c61626c65206c6973742e\n    data_81338d347818a2fed0620a7e85f685926d9e1bdbc7e2764bf0092067d32f7024 4d616a6f726974792063616e206f6e6c792062652063616c63756c61746564206166746572207468652074696d6520706572696f642068617320656e6465642e\n    data_8912f675a50e382e9fd7b592cf1cd9595235c43ce4309904b1bd35e2a18fc4ee 596f75206861766520616c7265616479206372656174656420616e20617267756d656e742e\n    data_8e90808f17bc1108e9ea5a79970bcefb81f12d2e44e112b3ad4b251ae0873244 596f75206d757374206265207468652063726561746f72206f66207468697320546f70696320696e206f7264657220746f20646f20746869732e\n    data_9f7f122b70f117f8950311c325d9279ba88d6a0d2b593ed4f11b7663b9f48d07 54686520706572696f6420666f722074686520546f7069632068617320616c726561647920656e6465642e\n    data_a51d6c7e63ccd193933dbe11cb306fe5ec831a64f09f21fc7409bad4b2e4d83d 596f752063616e6e6f7420766f746520666f722074686520617267756d656e742067656e6572617465642062792074686520636f6e74726163742e\n    data_b923ef61fa2999a084d0e68c9e9898cf18c32317d3ee24c87dceb47dffcde339 4d616a6f726974792068617320616c7265616479206265656e20646563696465642e\n    data_e7eff9e8bfd97a1462a69b9b489e013c0dc4931276c8cdd67607888c761a1d3c 596f75206861766520616c726561647920766f7465642e20596f75206d6179206e6f74206368616e676520796f757220766f74652e\n\n    auxdata: 0xa265627a7a72315820ec70a8754819a13ba4d564c522572fe9926c149ef886d2dbeb34d392f936db9064736f6c63430005100032\n}\n","bytecode":{"linkReferences":{},"object":"60806040523480156200001157600080fd5b5060405162002d3f38038062002d3f833981810160405260e08110156200003757600080fd5b81019080805190602001909291908051906020019092919080519060200190929190805160405193929190846401000000008211156200007657600080fd5b838201915060208201858111156200008d57600080fd5b8251866001820283011164010000000082111715620000ab57600080fd5b8083526020830192505050908051906020019080838360005b83811015620000e1578082015181840152602081019050620000c4565b50505050905090810190601f1680156200010f5780820380516001836020036101000a031916815260200191505b5060405260200180519060200190929190805190602001909291908051906020019092919050505086600260006101000a81548173ffffffffffffffffffffffffffffffffffffffff021916908373ffffffffffffffffffffffffffffffffffffffff160217905550856000806101000a81548173ffffffffffffffffffffffffffffffffffffffff021916908373ffffffffffffffffffffffffffffffffffffffff16021790555084600160006101000a81548173ffffffffffffffffffffffffffffffffffffffff021916908373ffffffffffffffffffffffffffffffffffffffff16021790555083600390805190602001906200021192919062000514565b508260058190555080600460006101000a81548173ffffffffffffffffffffffffffffffffffffffff021916908373ffffffffffffffffffffffffffffffffffffffff16021790555060006012819055506001820242016006819055506000600b81905550620002a26040518060600160405280603e815260200162002d01603e91396000620002af60201b60201c565b505050505050506200068a565b60065442106200030b576040517f08c379a000000000000000000000000000000000000000000000000000000000815260040180806020018281038252602b81526020018062002cd6602b913960400191505060405180910390fd5b6000600e60003373ffffffffffffffffffffffffffffffffffffffff1673ffffffffffffffffffffffffffffffffffffffff1681526020019081526020016000205414620003a5576040517f08c379a000000000000000000000000000000000000000000000000000000000815260040180806020018281038252602581526020018062002cb16025913960400191505060405180910390fd5b620003af6200059b565b604051806080016040528084815260200183151581526020013373ffffffffffffffffffffffffffffffffffffffff1681526020016000815250905060078190806001815401808255809150509060018203906000526020600020906003020160009091929091909150600082015181600001908051906020019062000437929190620005db565b5060208201518160010160006101000a81548160ff02191690831515021790555060408201518160010160016101000a81548173ffffffffffffffffffffffffffffffffffffffff021916908373ffffffffffffffffffffffffffffffffffffffff160217905550606082015181600201555050506001620004be6200050760201b60201c565b03600e60003373ffffffffffffffffffffffffffffffffffffffff1673ffffffffffffffffffffffffffffffffffffffff16815260200190815260200160002081905550505050565b6000600780549050905090565b828054600181600116156101000203166002900490600052602060002090601f016020900481019282601f106200055757805160ff191683800117855562000588565b8280016001018555821562000588579182015b82811115620005875782518255916020019190600101906200056a565b5b50905062000597919062000662565b5090565b604051806080016040528060608152602001600015158152602001600073ffffffffffffffffffffffffffffffffffffffff168152602001600081525090565b828054600181600116156101000203166002900490600052602060002090601f016020900481019282601f106200061e57805160ff19168380011785556200064f565b828001600101855582156200064f579182015b828111156200064e57825182559160200191906001019062000631565b5b5090506200065e919062000662565b5090565b6200068791905b808211156200068357600081600090555060010162000669565b5090565b90565b612617806200069a6000396000f3fe6080604052600436106101c25760003560e01c80638a4d5a67116100f7578063ca94fb2b11610095578063f9588ed911610064578063f9588ed914610a6b578063fa391c6414610a96578063fbba5cb914610ac5578063fbbf93a014610af0576101c2565b8063ca94fb2b14610882578063e5d00035146108e7578063e72b014814610962578063f7ca7c721461098d576101c2565b8063b384abef116100d1578063b384abef146107a5578063b3b9ac1d146107dd578063b6e54bdf1461082c578063c234d78914610857576101c2565b80638a4d5a67146106995780639380b1cf14610729578063aec2ccae14610740576101c2565b80633197cbb6116101645780634e71d92d1161013e5780634e71d92d146105fd57806353322842146106145780636e3ebc2e1461063f57806374986bfc1461066a576101c2565b80633197cbb61461051e57806344fe9432146105495780634dd54033146105ae576101c2565b806309f74db7116101a057806309f74db7146103545780630a68f631146103cf5780632b925b25146104c85780632ec32e6d146104f3576101c2565b806302d05d3f146101c45780630715ef001461021b57806309c7caf1146102ef575b005b3480156101d057600080fd5b506101d9610b60565b604051808273ffffffffffffffffffffffffffffffffffffffff1673ffffffffffffffffffffffffffffffffffffffff16815260200191505060405180910390f35b34801561022757600080fd5b506102ed6004803603604081101561023e57600080fd5b810190808035906020019064010000000081111561025b57600080fd5b82018360208201111561026d57600080fd5b8035906020019184600183028401116401000000008311171561028f57600080fd5b91908080601f016020809104026020016040519081016040528093929190818152602001838380828437600081840152601f19601f820116905080830192505050505050509192919290803515159060200190929190505050610b86565b005b3480156102fb57600080fd5b5061033e6004803603602081101561031257600080fd5b81019080803573ffffffffffffffffffffffffffffffffffffffff169060200190929190505050610dce565b6040518082815260200191505060405180910390f35b34801561036057600080fd5b5061038d6004803603602081101561037757600080fd5b8101908080359060200190929190505050610de6565b604051808273ffffffffffffffffffffffffffffffffffffffff1673ffffffffffffffffffffffffffffffffffffffff16815260200191505060405180910390f35b3480156103db57600080fd5b50610408600480360360208110156103f257600080fd5b8101908080359060200190929190505050610e22565b6040518080602001851515151581526020018473ffffffffffffffffffffffffffffffffffffffff1673ffffffffffffffffffffffffffffffffffffffff168152602001838152602001828103825286818151815260200191508051906020019080838360005b8381101561048a57808201518184015260208101905061046f565b50505050905090810190601f1680156104b75780820380516001836020036101000a031916815260200191505b509550505050505060405180910390f35b3480156104d457600080fd5b506104dd610f24565b6040518082815260200191505060405180910390f35b3480156104ff57600080fd5b50610508610f2a565b6040518082815260200191505060405180910390f35b34801561052a57600080fd5b50610533610f37565b6040518082815260200191505060405180910390f35b34801561055557600080fd5b506105986004803603602081101561056c57600080fd5b81019080803573ffffffffffffffffffffffffffffffffffffffff169060200190929190505050610f3d565b6040518082815260200191505060405180910390f35b3480156105ba57600080fd5b506105e7600480360360208110156105d157600080fd5b8101908080359060200190929190505050610f55565b6040518082815260200191505060405180910390f35b34801561060957600080fd5b50610612610f73565b005b34801561062057600080fd5b5061062961139e565b6040518082815260200191505060405180910390f35b34801561064b57600080fd5b506106546113a4565b6040518082815260200191505060405180910390f35b34801561067657600080fd5b5061067f6113b1565b604051808215151515815260200191505060405180910390f35b3480156106a557600080fd5b506106ae6113ba565b6040518080602001828103825283818151815260200191508051906020019080838360005b838110156106ee5780820151818401526020810190506106d3565b50505050905090810190601f16801561071b5780820380516001836020036101000a031916815260200191505b509250505060405180910390f35b34801561073557600080fd5b5061073e611458565b005b34801561074c57600080fd5b5061078f6004803603602081101561076357600080fd5b81019080803573ffffffffffffffffffffffffffffffffffffffff169060200190929190505050611612565b6040518082815260200191505060405180910390f35b6107db600480360360408110156107bb57600080fd5b81019080803590602001909291908035906020019092919050505061162a565b005b3480156107e957600080fd5b506108166004803603602081101561080057600080fd5b8101908080359060200190929190505050611c4f565b6040518082815260200191505060405180910390f35b34801561083857600080fd5b50610841611c6b565b6040518082815260200191505060405180910390f35b34801561086357600080fd5b5061086c611c71565b6040518082815260200191505060405180910390f35b34801561088e57600080fd5b506108d1600480360360208110156108a557600080fd5b81019080803573ffffffffffffffffffffffffffffffffffffffff169060200190929190505050611c7e565b6040518082815260200191505060405180910390f35b3480156108f357600080fd5b506109206004803603602081101561090a57600080fd5b8101908080359060200190929190505050611c96565b604051808273ffffffffffffffffffffffffffffffffffffffff1673ffffffffffffffffffffffffffffffffffffffff16815260200191505060405180910390f35b34801561096e57600080fd5b50610977611cd2565b6040518082815260200191505060405180910390f35b34801561099957600080fd5b50610a69600480360360608110156109b057600080fd5b8101908080359060200190929190803590602001906401000000008111156109d757600080fd5b8201836020820111156109e957600080fd5b80359060200191846001830284011164010000000083111715610a0b57600080fd5b91908080601f016020809104026020016040519081016040528093929190818152602001838380828437600081840152601f19601f820116905080830192505050505050509192919290803515159060200190929190505050611cd8565b005b348015610a7757600080fd5b50610a80611e91565b6040518082815260200191505060405180910390f35b348015610aa257600080fd5b50610aab611e99565b604051808215151515815260200191505060405180910390f35b348015610ad157600080fd5b50610ada611eac565b6040518082815260200191505060405180910390f35b348015610afc57600080fd5b50610b05611eb2565b604051808573ffffffffffffffffffffffffffffffffffffffff1673ffffffffffffffffffffffffffffffffffffffff1681526020018481526020018381526020018215151515815260200194505050505060405180910390f35b600460009054906101000a900473ffffffffffffffffffffffffffffffffffffffff1681565b6006544210610be0576040517f08c379a000000000000000000000000000000000000000000000000000000000815260040180806020018281038252602b815260200180612526602b913960400191505060405180910390fd5b6000600e60003373ffffffffffffffffffffffffffffffffffffffff1673ffffffffffffffffffffffffffffffffffffffff1681526020019081526020016000205414610c78576040517f08c379a00000000000000000000000000000000000000000000000000000000081526004018080602001828103825260258152602001806124c76025913960400191505060405180910390fd5b610c80612164565b604051806080016040528084815260200183151581526020013373ffffffffffffffffffffffffffffffffffffffff16815260200160008152509050600781908060018154018082558091505090600182039060005260206000209060030201600090919290919091506000820151816000019080519060200190610d069291906121a4565b5060208201518160010160006101000a81548160ff02191690831515021790555060408201518160010160016101000a81548173ffffffffffffffffffffffffffffffffffffffff021916908373ffffffffffffffffffffffffffffffffffffffff160217905550606082015181600201555050506001610d85611c71565b03600e60003373ffffffffffffffffffffffffffffffffffffffff1673ffffffffffffffffffffffffffffffffffffffff16815260200190815260200160002081905550505050565b60096020528060005260406000206000915090505481565b60108181548110610df357fe5b906000526020600020016000915054906101000a900473ffffffffffffffffffffffffffffffffffffffff1681565b60078181548110610e2f57fe5b9060005260206000209060030201600091509050806000018054600181600116156101000203166002900480601f016020809104026020016040519081016040528092919081815260200182805460018160011615610100020316600290048015610edb5780601f10610eb057610100808354040283529160200191610edb565b820191906000526020600020905b815481529060010190602001808311610ebe57829003601f168201915b5050505050908060010160009054906101000a900460ff16908060010160019054906101000a900473ffffffffffffffffffffffffffffffffffffffff16908060020154905084565b60055481565b6000600f80549050905090565b60065481565b600e6020528060005260406000206000915090505481565b600080600a5483600b540281610f6757fe5b04905080915050919050565b6006544211610fcd576040517f08c379a00000000000000000000000000000000000000000000000000000000081526004018080602001828103825260368152602001806123026036913960400191505060405180910390fd5b6000600860003373ffffffffffffffffffffffffffffffffffffffff1673ffffffffffffffffffffffffffffffffffffffff168152602001908152602001600020549050600081141561106b576040517f08c379a00000000000000000000000000000000000000000000000000000000081526004018080602001828103825260388152602001806122ca6038913960400191505060405180910390fd5b60006007828154811061107a57fe5b906000526020600020906003020190506000601254141561109e5761109d611eff565b5b60016012541480156110be57508060010160009054906101000a900460ff165b806110e6575060026012541480156110e557508060010160009054906101000a900460ff16155b5b806110f357506003601254145b1561139a573373ffffffffffffffffffffffffffffffffffffffff166108fc3073ffffffffffffffffffffffffffffffffffffffff16634dd54033600960003373ffffffffffffffffffffffffffffffffffffffff1673ffffffffffffffffffffffffffffffffffffffff168152602001908152602001600020546040518263ffffffff1660e01b81526004018082815260200191505060206040518083038186803b1580156111a257600080fd5b505afa1580156111b6573d6000803e3d6000fd5b505050506040513d60208110156111cc57600080fd5b81019080805190602001909291905050509081150290604051600060405180830381858888f19350505050158015611208573d6000803e3d6000fd5b5060008060009054906101000a900473ffffffffffffffffffffffffffffffffffffffff1690508073ffffffffffffffffffffffffffffffffffffffff16635f2ab5673073ffffffffffffffffffffffffffffffffffffffff1663b3b9ac1d600c60003373ffffffffffffffffffffffffffffffffffffffff1673ffffffffffffffffffffffffffffffffffffffff168152602001908152602001600020546040518263ffffffff1660e01b81526004018082815260200191505060206040518083038186803b1580156112db57600080fd5b505afa1580156112ef573d6000803e3d6000fd5b505050506040513d602081101561130557600080fd5b8101908080519060200190929190505050336040518363ffffffff1660e01b8152600401808381526020018273ffffffffffffffffffffffffffffffffffffffff1673ffffffffffffffffffffffffffffffffffffffff16815260200192505050600060405180830381600087803b15801561138057600080fd5b505af1158015611394573d6000803e3d6000fd5b50505050505b5050565b600a5481565b6000601080549050905090565b60006001905090565b60038054600181600116156101000203166002900480601f0160208091040260200160405190810160405280929190818152602001828054600181600116156101000203166002900480156114505780601f1061142557610100808354040283529160200191611450565b820191906000526020600020905b81548152906001019060200180831161143357829003601f168201915b505050505081565b600460009054906101000a900473ffffffffffffffffffffffffffffffffffffffff1673ffffffffffffffffffffffffffffffffffffffff163373ffffffffffffffffffffffffffffffffffffffff16146114fe576040517f08c379a000000000000000000000000000000000000000000000000000000000815260040180806020018281038252603a8152602001806124ec603a913960400191505060405180910390fd5b60006115086113a4565b611510610f2a565b0114611567576040517f08c379a000000000000000000000000000000000000000000000000000000000815260040180806020018281038252603d8152602001806123f4603d913960400191505060405180910390fd5b60065442116115c1576040517f08c379a00000000000000000000000000000000000000000000000000000000081526004018080602001828103825260368152602001806123026036913960400191505060405180910390fd5b3373ffffffffffffffffffffffffffffffffffffffff166108fc479081150290604051600060405180830381858888f19350505050158015611607573d6000803e3d6000fd5b50611610612088565b565b60086020528060005260406000206000915090505481565b6006544210611684576040517f08c379a000000000000000000000000000000000000000000000000000000000815260040180806020018281038252602b815260200180612526602b913960400191505060405180910390fd5b60008214156116de576040517f08c379a000000000000000000000000000000000000000000000000000000000815260040180806020018281038252603b815260200180612551603b913960400191505060405180910390fd5b6000600860003373ffffffffffffffffffffffffffffffffffffffff1673ffffffffffffffffffffffffffffffffffffffff1681526020019081526020016000205414611776576040517f08c379a00000000000000000000000000000000000000000000000000000000081526004018080602001828103825260358152602001806125ae6035913960400191505060405180910390fd5b6005543410156117d1576040517f08c379a000000000000000000000000000000000000000000000000000000000815260040180806020018281038252604681526020018061236f6046913960600191505060405180910390fd5b6000600160009054906101000a900473ffffffffffffffffffffffffffffffffffffffff1690508073ffffffffffffffffffffffffffffffffffffffff1663902701b733306040518363ffffffff1660e01b8152600401808373ffffffffffffffffffffffffffffffffffffffff1673ffffffffffffffffffffffffffffffffffffffff1681526020018273ffffffffffffffffffffffffffffffffffffffff1673ffffffffffffffffffffffffffffffffffffffff1681526020019250505060206040518083038186803b1580156118a957600080fd5b505afa1580156118bd573d6000803e3d6000fd5b505050506040513d60208110156118d357600080fd5b8101908080519060200190929190505050611939576040517f08c379a00000000000000000000000000000000000000000000000000000000081526004018080602001828103825260318152602001806124566031913960400191505060405180910390fd5b6000809054906101000a900473ffffffffffffffffffffffffffffffffffffffff1673ffffffffffffffffffffffffffffffffffffffff166337c103893084336040518463ffffffff1660e01b8152600401808473ffffffffffffffffffffffffffffffffffffffff1673ffffffffffffffffffffffffffffffffffffffff1681526020018381526020018273ffffffffffffffffffffffffffffffffffffffff1673ffffffffffffffffffffffffffffffffffffffff1681526020019350505050600060405180830381600087803b158015611a1557600080fd5b505af1158015611a29573d6000803e3d6000fd5b5050505082600860003373ffffffffffffffffffffffffffffffffffffffff1673ffffffffffffffffffffffffffffffffffffffff1681526020019081526020016000208190555034600960003373ffffffffffffffffffffffffffffffffffffffff1673ffffffffffffffffffffffffffffffffffffffff1681526020019081526020016000208190555034600a6000828254019250508190555081600c60003373ffffffffffffffffffffffffffffffffffffffff1673ffffffffffffffffffffffffffffffffffffffff1681526020019081526020016000208190555081600d6000828254019250508190555060078381548110611b2657fe5b90600052602060002090600302016002016000815480929190600101919050555060078381548110611b5457fe5b906000526020600020906003020160010160009054906101000a900460ff1615611be357600f3390806001815401808255809150509060018203906000526020600020016000909192909190916101000a81548173ffffffffffffffffffffffffffffffffffffffff021916908373ffffffffffffffffffffffffffffffffffffffff16021790555050611c4a565b60103390806001815401808255809150509060018203906000526020600020016000909192909190916101000a81548173ffffffffffffffffffffffffffffffffffffffff021916908373ffffffffffffffffffffffffffffffffffffffff160217905550505b505050565b600080600a600b840281611c5f57fe5b04905080915050919050565b60125481565b6000600780549050905090565b600c6020528060005260406000206000915090505481565b600f8181548110611ca357fe5b906000526020600020016000915054906101000a900473ffffffffffffffffffffffffffffffffffffffff1681565b600d5481565b6006544210611d32576040517f08c379a000000000000000000000000000000000000000000000000000000000815260040180806020018281038252602b815260200180612526602b913960400191505060405180910390fd5b600060078481548110611d4157fe5b906000526020600020906003020190503373ffffffffffffffffffffffffffffffffffffffff168160010160019054906101000a900473ffffffffffffffffffffffffffffffffffffffff1673ffffffffffffffffffffffffffffffffffffffff1614611df9576040517f08c379a000000000000000000000000000000000000000000000000000000000815260040180806020018281038252603f8152602001806123b5603f913960400191505060405180910390fd5b6000816002015414611e56576040517f08c379a00000000000000000000000000000000000000000000000000000000081526004018080602001828103825260378152602001806123386037913960400191505060405180910390fd5b82816000019080519060200190611e6e929190612224565b50818160010160006101000a81548160ff02191690831515021790555050505050565b600047905090565b601160009054906101000a900460ff1681565b600b5481565b600080600080600460009054906101000a900473ffffffffffffffffffffffffffffffffffffffff16600554600654601160009054906101000a900460ff16935093509350935090919293565b600060125414611f5a576040517f08c379a000000000000000000000000000000000000000000000000000000000815260040180806020018281038252602281526020018061258c6022913960400191505060405180910390fd5b60001515601160009054906101000a900460ff16151514611fc6576040517f08c379a00000000000000000000000000000000000000000000000000000000081526004018080602001828103825260258152602001806124316025913960400191505060405180910390fd5b6006544211612020576040517f08c379a00000000000000000000000000000000000000000000000000000000081526004018080602001828103825260408152602001806124876040913960400191505060405180910390fd5b600061202a610f2a565b905060006120366113a4565b905060008090508183111561205557600160128190555082905061207c565b8183101561206d57600260128190555081905061207b565b600360128190555081830190505b5b47600b81905550505050565b6001601160006101000a81548160ff0219169083151502179055506000600260009054906101000a900473ffffffffffffffffffffffffffffffffffffffff1690508073ffffffffffffffffffffffffffffffffffffffff1663e25db2a4306040518263ffffffff1660e01b8152600401808273ffffffffffffffffffffffffffffffffffffffff1673ffffffffffffffffffffffffffffffffffffffff168152602001915050600060405180830381600087803b15801561214957600080fd5b505af115801561215d573d6000803e3d6000fd5b5050505050565b604051806080016040528060608152602001600015158152602001600073ffffffffffffffffffffffffffffffffffffffff168152602001600081525090565b828054600181600116156101000203166002900490600052602060002090601f016020900481019282601f106121e557805160ff1916838001178555612213565b82800160010185558215612213579182015b828111156122125782518255916020019190600101906121f7565b5b50905061222091906122a4565b5090565b828054600181600116156101000203166002900490600052602060002090601f016020900481019282601f1061226557805160ff1916838001178555612293565b82800160010185558215612293579182015b82811115612292578251825591602001919060010190612277565b5b5090506122a091906122a4565b5090565b6122c691905b808211156122c25760008160009055506001016122aa565b5090565b9056fe596f7520646964206e6f7420766f746520647572696e672074686520706572696f642c20736f20796f752063616e6e6f7420636c61696d2e596f752063616e206f6e6c7920636c61696d20796f75722072657761726473206166746572207468652074696d6520706572696f642e417267756d656e742068617320616c7265616479206265656e20766f746564206f6e2e2043616e6e6f74206265206d6f6469666965642e596f75206d75737420696e76657374206174206c6561737420746865206d696e696d756d20616d6f756e742061732064656369646564206279207468652063726561746f722e596f75206d757374206265207468652063726561746f72206f66207468697320617267756d656e7420746f206d6f646966792069747320636f6e74656e7473546865206d6f6e657920676f657320746f207468652070656f706c652077686f2070617274696369706174656420696e207468652070726f636573732e546f70696320697320616c7265616479206d61726b656420617320636f6d706c657465642e596f7520646f6e27742068617665207468697320746f706963206f6e20796f757220617661696c61626c65206c6973742e4d616a6f726974792063616e206f6e6c792062652063616c63756c61746564206166746572207468652074696d6520706572696f642068617320656e6465642e596f75206861766520616c7265616479206372656174656420616e20617267756d656e742e596f75206d757374206265207468652063726561746f72206f66207468697320546f70696320696e206f7264657220746f20646f20746869732e54686520706572696f6420666f722074686520546f7069632068617320616c726561647920656e6465642e596f752063616e6e6f7420766f746520666f722074686520617267756d656e742067656e6572617465642062792074686520636f6e74726163742e4d616a6f726974792068617320616c7265616479206265656e20646563696465642e596f75206861766520616c726561647920766f7465642e20596f75206d6179206e6f74206368616e676520796f757220766f74652ea265627a7a72315820ec70a8754819a13ba4d564c522572fe9926c149ef886d2dbeb34d392f936db9064736f6c63430005100032596f75206861766520616c7265616479206372656174656420616e20617267756d656e742e54686520706572696f6420666f722074686520546f7069632068617320616c726561647920656e6465642e596f752068617665206e6f742063686f73656e207965742077686574686572207468652073746174656d656e742069732074727565206f722066616c7365","opcodes":"PUSH1 0x80 PUSH1 0x40 MSTORE CALLVALUE DUP1 ISZERO PUSH3 0x11 JUMPI PUSH1 0x0 DUP1 REVERT JUMPDEST POP PUSH1 0x40 MLOAD PUSH3 0x2D3F CODESIZE SUB DUP1 PUSH3 0x2D3F DUP4 CODECOPY DUP2 DUP2 ADD PUSH1 0x40 MSTORE PUSH1 0xE0 DUP2 LT ISZERO PUSH3 0x37 JUMPI PUSH1 0x0 DUP1 REVERT JUMPDEST DUP2 ADD SWAP1 DUP1 DUP1 MLOAD SWAP1 PUSH1 0x20 ADD SWAP1 SWAP3 SWAP2 SWAP1 DUP1 MLOAD SWAP1 PUSH1 0x20 ADD SWAP1 SWAP3 SWAP2 SWAP1 DUP1 MLOAD SWAP1 PUSH1 0x20 ADD SWAP1 SWAP3 SWAP2 SWAP1 DUP1 MLOAD PUSH1 0x40 MLOAD SWAP4 SWAP3 SWAP2 SWAP1 DUP5 PUSH5 0x100000000 DUP3 GT ISZERO PUSH3 0x76 JUMPI PUSH1 0x0 DUP1 REVERT JUMPDEST DUP4 DUP3 ADD SWAP2 POP PUSH1 0x20 DUP3 ADD DUP6 DUP2 GT ISZERO PUSH3 0x8D JUMPI PUSH1 0x0 DUP1 REVERT JUMPDEST DUP3 MLOAD DUP7 PUSH1 0x1 DUP3 MUL DUP4 ADD GT PUSH5 0x100000000 DUP3 GT OR ISZERO PUSH3 0xAB JUMPI PUSH1 0x0 DUP1 REVERT JUMPDEST DUP1 DUP4 MSTORE PUSH1 0x20 DUP4 ADD SWAP3 POP POP POP SWAP1 DUP1 MLOAD SWAP1 PUSH1 0x20 ADD SWAP1 DUP1 DUP4 DUP4 PUSH1 0x0 JUMPDEST DUP4 DUP2 LT ISZERO PUSH3 0xE1 JUMPI DUP1 DUP3 ADD MLOAD DUP2 DUP5 ADD MSTORE PUSH1 0x20 DUP2 ADD SWAP1 POP PUSH3 0xC4 JUMP JUMPDEST POP POP POP POP SWAP1 POP SWAP1 DUP2 ADD SWAP1 PUSH1 0x1F AND DUP1 ISZERO PUSH3 0x10F JUMPI DUP1 DUP3 SUB DUP1 MLOAD PUSH1 0x1 DUP4 PUSH1 0x20 SUB PUSH2 0x100 EXP SUB NOT AND DUP2 MSTORE PUSH1 0x20 ADD SWAP2 POP JUMPDEST POP PUSH1 0x40 MSTORE PUSH1 0x20 ADD DUP1 MLOAD SWAP1 PUSH1 0x20 ADD SWAP1 SWAP3 SWAP2 SWAP1 DUP1 MLOAD SWAP1 PUSH1 0x20 ADD SWAP1 SWAP3 SWAP2 SWAP1 DUP1 MLOAD SWAP1 PUSH1 0x20 ADD SWAP1 SWAP3 SWAP2 SWAP1 POP POP POP DUP7 PUSH1 0x2 PUSH1 0x0 PUSH2 0x100 EXP DUP2 SLOAD DUP2 PUSH20 0xFFFFFFFFFFFFFFFFFFFFFFFFFFFFFFFFFFFFFFFF MUL NOT AND SWAP1 DUP4 PUSH20 0xFFFFFFFFFFFFFFFFFFFFFFFFFFFFFFFFFFFFFFFF AND MUL OR SWAP1 SSTORE POP DUP6 PUSH1 0x0 DUP1 PUSH2 0x100 EXP DUP2 SLOAD DUP2 PUSH20 0xFFFFFFFFFFFFFFFFFFFFFFFFFFFFFFFFFFFFFFFF MUL NOT AND SWAP1 DUP4 PUSH20 0xFFFFFFFFFFFFFFFFFFFFFFFFFFFFFFFFFFFFFFFF AND MUL OR SWAP1 SSTORE POP DUP5 PUSH1 0x1 PUSH1 0x0 PUSH2 0x100 EXP DUP2 SLOAD DUP2 PUSH20 0xFFFFFFFFFFFFFFFFFFFFFFFFFFFFFFFFFFFFFFFF MUL NOT AND SWAP1 DUP4 PUSH20 0xFFFFFFFFFFFFFFFFFFFFFFFFFFFFFFFFFFFFFFFF AND MUL OR SWAP1 SSTORE POP DUP4 PUSH1 0x3 SWAP1 DUP1 MLOAD SWAP1 PUSH1 0x20 ADD SWAP1 PUSH3 0x211 SWAP3 SWAP2 SWAP1 PUSH3 0x514 JUMP JUMPDEST POP DUP3 PUSH1 0x5 DUP2 SWAP1 SSTORE POP DUP1 PUSH1 0x4 PUSH1 0x0 PUSH2 0x100 EXP DUP2 SLOAD DUP2 PUSH20 0xFFFFFFFFFFFFFFFFFFFFFFFFFFFFFFFFFFFFFFFF MUL NOT AND SWAP1 DUP4 PUSH20 0xFFFFFFFFFFFFFFFFFFFFFFFFFFFFFFFFFFFFFFFF AND MUL OR SWAP1 SSTORE POP PUSH1 0x0 PUSH1 0x12 DUP2 SWAP1 SSTORE POP PUSH1 0x1 DUP3 MUL TIMESTAMP ADD PUSH1 0x6 DUP2 SWAP1 SSTORE POP PUSH1 0x0 PUSH1 0xB DUP2 SWAP1 SSTORE POP PUSH3 0x2A2 PUSH1 0x40 MLOAD DUP1 PUSH1 0x60 ADD PUSH1 0x40 MSTORE DUP1 PUSH1 0x3E DUP2 MSTORE PUSH1 0x20 ADD PUSH3 0x2D01 PUSH1 0x3E SWAP2 CODECOPY PUSH1 0x0 PUSH3 0x2AF PUSH1 0x20 SHL PUSH1 0x20 SHR JUMP JUMPDEST POP POP POP POP POP POP POP PUSH3 0x68A JUMP JUMPDEST PUSH1 0x6 SLOAD TIMESTAMP LT PUSH3 0x30B JUMPI PUSH1 0x40 MLOAD PUSH32 0x8C379A000000000000000000000000000000000000000000000000000000000 DUP2 MSTORE PUSH1 0x4 ADD DUP1 DUP1 PUSH1 0x20 ADD DUP3 DUP2 SUB DUP3 MSTORE PUSH1 0x2B DUP2 MSTORE PUSH1 0x20 ADD DUP1 PUSH3 0x2CD6 PUSH1 0x2B SWAP2 CODECOPY PUSH1 0x40 ADD SWAP2 POP POP PUSH1 0x40 MLOAD DUP1 SWAP2 SUB SWAP1 REVERT JUMPDEST PUSH1 0x0 PUSH1 0xE PUSH1 0x0 CALLER PUSH20 0xFFFFFFFFFFFFFFFFFFFFFFFFFFFFFFFFFFFFFFFF AND PUSH20 0xFFFFFFFFFFFFFFFFFFFFFFFFFFFFFFFFFFFFFFFF AND DUP2 MSTORE PUSH1 0x20 ADD SWAP1 DUP2 MSTORE PUSH1 0x20 ADD PUSH1 0x0 KECCAK256 SLOAD EQ PUSH3 0x3A5 JUMPI PUSH1 0x40 MLOAD PUSH32 0x8C379A000000000000000000000000000000000000000000000000000000000 DUP2 MSTORE PUSH1 0x4 ADD DUP1 DUP1 PUSH1 0x20 ADD DUP3 DUP2 SUB DUP3 MSTORE PUSH1 0x25 DUP2 MSTORE PUSH1 0x20 ADD DUP1 PUSH3 0x2CB1 PUSH1 0x25 SWAP2 CODECOPY PUSH1 0x40 ADD SWAP2 POP POP PUSH1 0x40 MLOAD DUP1 SWAP2 SUB SWAP1 REVERT JUMPDEST PUSH3 0x3AF PUSH3 0x59B JUMP JUMPDEST PUSH1 0x40 MLOAD DUP1 PUSH1 0x80 ADD PUSH1 0x40 MSTORE DUP1 DUP5 DUP2 MSTORE PUSH1 0x20 ADD DUP4 ISZERO ISZERO DUP2 MSTORE PUSH1 0x20 ADD CALLER PUSH20 0xFFFFFFFFFFFFFFFFFFFFFFFFFFFFFFFFFFFFFFFF AND DUP2 MSTORE PUSH1 0x20 ADD PUSH1 0x0 DUP2 MSTORE POP SWAP1 POP PUSH1 0x7 DUP2 SWAP1 DUP1 PUSH1 0x1 DUP2 SLOAD ADD DUP1 DUP3 SSTORE DUP1 SWAP2 POP POP SWAP1 PUSH1 0x1 DUP3 SUB SWAP1 PUSH1 0x0 MSTORE PUSH1 0x20 PUSH1 0x0 KECCAK256 SWAP1 PUSH1 0x3 MUL ADD PUSH1 0x0 SWAP1 SWAP2 SWAP3 SWAP1 SWAP2 SWAP1 SWAP2 POP PUSH1 0x0 DUP3 ADD MLOAD DUP2 PUSH1 0x0 ADD SWAP1 DUP1 MLOAD SWAP1 PUSH1 0x20 ADD SWAP1 PUSH3 0x437 SWAP3 SWAP2 SWAP1 PUSH3 0x5DB JUMP JUMPDEST POP PUSH1 0x20 DUP3 ADD MLOAD DUP2 PUSH1 0x1 ADD PUSH1 0x0 PUSH2 0x100 EXP DUP2 SLOAD DUP2 PUSH1 0xFF MUL NOT AND SWAP1 DUP4 ISZERO ISZERO MUL OR SWAP1 SSTORE POP PUSH1 0x40 DUP3 ADD MLOAD DUP2 PUSH1 0x1 ADD PUSH1 0x1 PUSH2 0x100 EXP DUP2 SLOAD DUP2 PUSH20 0xFFFFFFFFFFFFFFFFFFFFFFFFFFFFFFFFFFFFFFFF MUL NOT AND SWAP1 DUP4 PUSH20 0xFFFFFFFFFFFFFFFFFFFFFFFFFFFFFFFFFFFFFFFF AND MUL OR SWAP1 SSTORE POP PUSH1 0x60 DUP3 ADD MLOAD DUP2 PUSH1 0x2 ADD SSTORE POP POP POP PUSH1 0x1 PUSH3 0x4BE PUSH3 0x507 PUSH1 0x20 SHL PUSH1 0x20 SHR JUMP JUMPDEST SUB PUSH1 0xE PUSH1 0x0 CALLER PUSH20 0xFFFFFFFFFFFFFFFFFFFFFFFFFFFFFFFFFFFFFFFF AND PUSH20 0xFFFFFFFFFFFFFFFFFFFFFFFFFFFFFFFFFFFFFFFF AND DUP2 MSTORE PUSH1 0x20 ADD SWAP1 DUP2 MSTORE PUSH1 0x20 ADD PUSH1 0x0 KECCAK256 DUP2 SWAP1 SSTORE POP POP POP POP JUMP JUMPDEST PUSH1 0x0 PUSH1 0x7 DUP1 SLOAD SWAP1 POP SWAP1 POP SWAP1 JUMP JUMPDEST DUP3 DUP1 SLOAD PUSH1 0x1 DUP2 PUSH1 0x1 AND ISZERO PUSH2 0x100 MUL SUB AND PUSH1 0x2 SWAP1 DIV SWAP1 PUSH1 0x0 MSTORE PUSH1 0x20 PUSH1 0x0 KECCAK256 SWAP1 PUSH1 0x1F ADD PUSH1 0x20 SWAP1 DIV DUP2 ADD SWAP3 DUP3 PUSH1 0x1F LT PUSH3 0x557 JUMPI DUP1 MLOAD PUSH1 0xFF NOT AND DUP4 DUP1 ADD OR DUP6 SSTORE PUSH3 0x588 JUMP JUMPDEST DUP3 DUP1 ADD PUSH1 0x1 ADD DUP6 SSTORE DUP3 ISZERO PUSH3 0x588 JUMPI SWAP2 DUP3 ADD JUMPDEST DUP3 DUP2 GT ISZERO PUSH3 0x587 JUMPI DUP3 MLOAD DUP3 SSTORE SWAP2 PUSH1 0x20 ADD SWAP2 SWAP1 PUSH1 0x1 ADD SWAP1 PUSH3 0x56A JUMP JUMPDEST JUMPDEST POP SWAP1 POP PUSH3 0x597 SWAP2 SWAP1 PUSH3 0x662 JUMP JUMPDEST POP SWAP1 JUMP JUMPDEST PUSH1 0x40 MLOAD DUP1 PUSH1 0x80 ADD PUSH1 0x40 MSTORE DUP1 PUSH1 0x60 DUP2 MSTORE PUSH1 0x20 ADD PUSH1 0x0 ISZERO ISZERO DUP2 MSTORE PUSH1 0x20 ADD PUSH1 0x0 PUSH20 0xFFFFFFFFFFFFFFFFFFFFFFFFFFFFFFFFFFFFFFFF AND DUP2 MSTORE PUSH1 0x20 ADD PUSH1 0x0 DUP2 MSTORE POP SWAP1 JUMP JUMPDEST DUP3 DUP1 SLOAD PUSH1 0x1 DUP2 PUSH1 0x1 AND ISZERO PUSH2 0x100 MUL SUB AND PUSH1 0x2 SWAP1 DIV SWAP1 PUSH1 0x0 MSTORE PUSH1 0x20 PUSH1 0x0 KECCAK256 SWAP1 PUSH1 0x1F ADD PUSH1 0x20 SWAP1 DIV DUP2 ADD SWAP3 DUP3 PUSH1 0x1F LT PUSH3 0x61E JUMPI DUP1 MLOAD PUSH1 0xFF NOT AND DUP4 DUP1 ADD OR DUP6 SSTORE PUSH3 0x64F JUMP JUMPDEST DUP3 DUP1 ADD PUSH1 0x1 ADD DUP6 SSTORE DUP3 ISZERO PUSH3 0x64F JUMPI SWAP2 DUP3 ADD JUMPDEST DUP3 DUP2 GT ISZERO PUSH3 0x64E JUMPI DUP3 MLOAD DUP3 SSTORE SWAP2 PUSH1 0x20 ADD SWAP2 SWAP1 PUSH1 0x1 ADD SWAP1 PUSH3 0x631 JUMP JUMPDEST JUMPDEST POP SWAP1 POP PUSH3 0x65E SWAP2 SWAP1 PUSH3 0x662 JUMP JUMPDEST POP SWAP1 JUMP JUMPDEST PUSH3 0x687 SWAP2 SWAP1 JUMPDEST DUP1 DUP3 GT ISZERO PUSH3 0x683 JUMPI PUSH1 0x0 DUP2 PUSH1 0x0 SWAP1 SSTORE POP PUSH1 0x1 ADD PUSH3 0x669 JUMP JUMPDEST POP SWAP1 JUMP JUMPDEST SWAP1 JUMP JUMPDEST PUSH2 0x2617 DUP1 PUSH3 0x69A PUSH1 0x0 CODECOPY PUSH1 0x0 RETURN INVALID PUSH1 0x80 PUSH1 0x40 MSTORE PUSH1 0x4 CALLDATASIZE LT PUSH2 0x1C2 JUMPI PUSH1 0x0 CALLDATALOAD PUSH1 0xE0 SHR DUP1 PUSH4 0x8A4D5A67 GT PUSH2 0xF7 JUMPI DUP1 PUSH4 0xCA94FB2B GT PUSH2 0x95 JUMPI DUP1 PUSH4 0xF9588ED9 GT PUSH2 0x64 JUMPI DUP1 PUSH4 0xF9588ED9 EQ PUSH2 0xA6B JUMPI DUP1 PUSH4 0xFA391C64 EQ PUSH2 0xA96 JUMPI DUP1 PUSH4 0xFBBA5CB9 EQ PUSH2 0xAC5 JUMPI DUP1 PUSH4 0xFBBF93A0 EQ PUSH2 0xAF0 JUMPI PUSH2 0x1C2 JUMP JUMPDEST DUP1 PUSH4 0xCA94FB2B EQ PUSH2 0x882 JUMPI DUP1 PUSH4 0xE5D00035 EQ PUSH2 0x8E7 JUMPI DUP1 PUSH4 0xE72B0148 EQ PUSH2 0x962 JUMPI DUP1 PUSH4 0xF7CA7C72 EQ PUSH2 0x98D JUMPI PUSH2 0x1C2 JUMP JUMPDEST DUP1 PUSH4 0xB384ABEF GT PUSH2 0xD1 JUMPI DUP1 PUSH4 0xB384ABEF EQ PUSH2 0x7A5 JUMPI DUP1 PUSH4 0xB3B9AC1D EQ PUSH2 0x7DD JUMPI DUP1 PUSH4 0xB6E54BDF EQ PUSH2 0x82C JUMPI DUP1 PUSH4 0xC234D789 EQ PUSH2 0x857 JUMPI PUSH2 0x1C2 JUMP JUMPDEST DUP1 PUSH4 0x8A4D5A67 EQ PUSH2 0x699 JUMPI DUP1 PUSH4 0x9380B1CF EQ PUSH2 0x729 JUMPI DUP1 PUSH4 0xAEC2CCAE EQ PUSH2 0x740 JUMPI PUSH2 0x1C2 JUMP JUMPDEST DUP1 PUSH4 0x3197CBB6 GT PUSH2 0x164 JUMPI DUP1 PUSH4 0x4E71D92D GT PUSH2 0x13E JUMPI DUP1 PUSH4 0x4E71D92D EQ PUSH2 0x5FD JUMPI DUP1 PUSH4 0x53322842 EQ PUSH2 0x614 JUMPI DUP1 PUSH4 0x6E3EBC2E EQ PUSH2 0x63F JUMPI DUP1 PUSH4 0x74986BFC EQ PUSH2 0x66A JUMPI PUSH2 0x1C2 JUMP JUMPDEST DUP1 PUSH4 0x3197CBB6 EQ PUSH2 0x51E JUMPI DUP1 PUSH4 0x44FE9432 EQ PUSH2 0x549 JUMPI DUP1 PUSH4 0x4DD54033 EQ PUSH2 0x5AE JUMPI PUSH2 0x1C2 JUMP JUMPDEST DUP1 PUSH4 0x9F74DB7 GT PUSH2 0x1A0 JUMPI DUP1 PUSH4 0x9F74DB7 EQ PUSH2 0x354 JUMPI DUP1 PUSH4 0xA68F631 EQ PUSH2 0x3CF JUMPI DUP1 PUSH4 0x2B925B25 EQ PUSH2 0x4C8 JUMPI DUP1 PUSH4 0x2EC32E6D EQ PUSH2 0x4F3 JUMPI PUSH2 0x1C2 JUMP JUMPDEST DUP1 PUSH4 0x2D05D3F EQ PUSH2 0x1C4 JUMPI DUP1 PUSH4 0x715EF00 EQ PUSH2 0x21B JUMPI DUP1 PUSH4 0x9C7CAF1 EQ PUSH2 0x2EF JUMPI JUMPDEST STOP JUMPDEST CALLVALUE DUP1 ISZERO PUSH2 0x1D0 JUMPI PUSH1 0x0 DUP1 REVERT JUMPDEST POP PUSH2 0x1D9 PUSH2 0xB60 JUMP JUMPDEST PUSH1 0x40 MLOAD DUP1 DUP3 PUSH20 0xFFFFFFFFFFFFFFFFFFFFFFFFFFFFFFFFFFFFFFFF AND PUSH20 0xFFFFFFFFFFFFFFFFFFFFFFFFFFFFFFFFFFFFFFFF AND DUP2 MSTORE PUSH1 0x20 ADD SWAP2 POP POP PUSH1 0x40 MLOAD DUP1 SWAP2 SUB SWAP1 RETURN JUMPDEST CALLVALUE DUP1 ISZERO PUSH2 0x227 JUMPI PUSH1 0x0 DUP1 REVERT JUMPDEST POP PUSH2 0x2ED PUSH1 0x4 DUP1 CALLDATASIZE SUB PUSH1 0x40 DUP2 LT ISZERO PUSH2 0x23E JUMPI PUSH1 0x0 DUP1 REVERT JUMPDEST DUP2 ADD SWAP1 DUP1 DUP1 CALLDATALOAD SWAP1 PUSH1 0x20 ADD SWAP1 PUSH5 0x100000000 DUP2 GT ISZERO PUSH2 0x25B JUMPI PUSH1 0x0 DUP1 REVERT JUMPDEST DUP3 ADD DUP4 PUSH1 0x20 DUP3 ADD GT ISZERO PUSH2 0x26D JUMPI PUSH1 0x0 DUP1 REVERT JUMPDEST DUP1 CALLDATALOAD SWAP1 PUSH1 0x20 ADD SWAP2 DUP5 PUSH1 0x1 DUP4 MUL DUP5 ADD GT PUSH5 0x100000000 DUP4 GT OR ISZERO PUSH2 0x28F JUMPI PUSH1 0x0 DUP1 REVERT JUMPDEST SWAP2 SWAP1 DUP1 DUP1 PUSH1 0x1F ADD PUSH1 0x20 DUP1 SWAP2 DIV MUL PUSH1 0x20 ADD PUSH1 0x40 MLOAD SWAP1 DUP2 ADD PUSH1 0x40 MSTORE DUP1 SWAP4 SWAP3 SWAP2 SWAP1 DUP2 DUP2 MSTORE PUSH1 0x20 ADD DUP4 DUP4 DUP1 DUP3 DUP5 CALLDATACOPY PUSH1 0x0 DUP2 DUP5 ADD MSTORE PUSH1 0x1F NOT PUSH1 0x1F DUP3 ADD AND SWAP1 POP DUP1 DUP4 ADD SWAP3 POP POP POP POP POP POP POP SWAP2 SWAP3 SWAP2 SWAP3 SWAP1 DUP1 CALLDATALOAD ISZERO ISZERO SWAP1 PUSH1 0x20 ADD SWAP1 SWAP3 SWAP2 SWAP1 POP POP POP PUSH2 0xB86 JUMP JUMPDEST STOP JUMPDEST CALLVALUE DUP1 ISZERO PUSH2 0x2FB JUMPI PUSH1 0x0 DUP1 REVERT JUMPDEST POP PUSH2 0x33E PUSH1 0x4 DUP1 CALLDATASIZE SUB PUSH1 0x20 DUP2 LT ISZERO PUSH2 0x312 JUMPI PUSH1 0x0 DUP1 REVERT JUMPDEST DUP2 ADD SWAP1 DUP1 DUP1 CALLDATALOAD PUSH20 0xFFFFFFFFFFFFFFFFFFFFFFFFFFFFFFFFFFFFFFFF AND SWAP1 PUSH1 0x20 ADD SWAP1 SWAP3 SWAP2 SWAP1 POP POP POP PUSH2 0xDCE JUMP JUMPDEST PUSH1 0x40 MLOAD DUP1 DUP3 DUP2 MSTORE PUSH1 0x20 ADD SWAP2 POP POP PUSH1 0x40 MLOAD DUP1 SWAP2 SUB SWAP1 RETURN JUMPDEST CALLVALUE DUP1 ISZERO PUSH2 0x360 JUMPI PUSH1 0x0 DUP1 REVERT JUMPDEST POP PUSH2 0x38D PUSH1 0x4 DUP1 CALLDATASIZE SUB PUSH1 0x20 DUP2 LT ISZERO PUSH2 0x377 JUMPI PUSH1 0x0 DUP1 REVERT JUMPDEST DUP2 ADD SWAP1 DUP1 DUP1 CALLDATALOAD SWAP1 PUSH1 0x20 ADD SWAP1 SWAP3 SWAP2 SWAP1 POP POP POP PUSH2 0xDE6 JUMP JUMPDEST PUSH1 0x40 MLOAD DUP1 DUP3 PUSH20 0xFFFFFFFFFFFFFFFFFFFFFFFFFFFFFFFFFFFFFFFF AND PUSH20 0xFFFFFFFFFFFFFFFFFFFFFFFFFFFFFFFFFFFFFFFF AND DUP2 MSTORE PUSH1 0x20 ADD SWAP2 POP POP PUSH1 0x40 MLOAD DUP1 SWAP2 SUB SWAP1 RETURN JUMPDEST CALLVALUE DUP1 ISZERO PUSH2 0x3DB JUMPI PUSH1 0x0 DUP1 REVERT JUMPDEST POP PUSH2 0x408 PUSH1 0x4 DUP1 CALLDATASIZE SUB PUSH1 0x20 DUP2 LT ISZERO PUSH2 0x3F2 JUMPI PUSH1 0x0 DUP1 REVERT JUMPDEST DUP2 ADD SWAP1 DUP1 DUP1 CALLDATALOAD SWAP1 PUSH1 0x20 ADD SWAP1 SWAP3 SWAP2 SWAP1 POP POP POP PUSH2 0xE22 JUMP JUMPDEST PUSH1 0x40 MLOAD DUP1 DUP1 PUSH1 0x20 ADD DUP6 ISZERO ISZERO ISZERO ISZERO DUP2 MSTORE PUSH1 0x20 ADD DUP5 PUSH20 0xFFFFFFFFFFFFFFFFFFFFFFFFFFFFFFFFFFFFFFFF AND PUSH20 0xFFFFFFFFFFFFFFFFFFFFFFFFFFFFFFFFFFFFFFFF AND DUP2 MSTORE PUSH1 0x20 ADD DUP4 DUP2 MSTORE PUSH1 0x20 ADD DUP3 DUP2 SUB DUP3 MSTORE DUP7 DUP2 DUP2 MLOAD DUP2 MSTORE PUSH1 0x20 ADD SWAP2 POP DUP1 MLOAD SWAP1 PUSH1 0x20 ADD SWAP1 DUP1 DUP4 DUP4 PUSH1 0x0 JUMPDEST DUP4 DUP2 LT ISZERO PUSH2 0x48A JUMPI DUP1 DUP3 ADD MLOAD DUP2 DUP5 ADD MSTORE PUSH1 0x20 DUP2 ADD SWAP1 POP PUSH2 0x46F JUMP JUMPDEST POP POP POP POP SWAP1 POP SWAP1 DUP2 ADD SWAP1 PUSH1 0x1F AND DUP1 ISZERO PUSH2 0x4B7 JUMPI DUP1 DUP3 SUB DUP1 MLOAD PUSH1 0x1 DUP4 PUSH1 0x20 SUB PUSH2 0x100 EXP SUB NOT AND DUP2 MSTORE PUSH1 0x20 ADD SWAP2 POP JUMPDEST POP SWAP6 POP POP POP POP POP POP PUSH1 0x40 MLOAD DUP1 SWAP2 SUB SWAP1 RETURN JUMPDEST CALLVALUE DUP1 ISZERO PUSH2 0x4D4 JUMPI PUSH1 0x0 DUP1 REVERT JUMPDEST POP PUSH2 0x4DD PUSH2 0xF24 JUMP JUMPDEST PUSH1 0x40 MLOAD DUP1 DUP3 DUP2 MSTORE PUSH1 0x20 ADD SWAP2 POP POP PUSH1 0x40 MLOAD DUP1 SWAP2 SUB SWAP1 RETURN JUMPDEST CALLVALUE DUP1 ISZERO PUSH2 0x4FF JUMPI PUSH1 0x0 DUP1 REVERT JUMPDEST POP PUSH2 0x508 PUSH2 0xF2A JUMP JUMPDEST PUSH1 0x40 MLOAD DUP1 DUP3 DUP2 MSTORE PUSH1 0x20 ADD SWAP2 POP POP PUSH1 0x40 MLOAD DUP1 SWAP2 SUB SWAP1 RETURN JUMPDEST CALLVALUE DUP1 ISZERO PUSH2 0x52A JUMPI PUSH1 0x0 DUP1 REVERT JUMPDEST POP PUSH2 0x533 PUSH2 0xF37 JUMP JUMPDEST PUSH1 0x40 MLOAD DUP1 DUP3 DUP2 MSTORE PUSH1 0x20 ADD SWAP2 POP POP PUSH1 0x40 MLOAD DUP1 SWAP2 SUB SWAP1 RETURN JUMPDEST CALLVALUE DUP1 ISZERO PUSH2 0x555 JUMPI PUSH1 0x0 DUP1 REVERT JUMPDEST POP PUSH2 0x598 PUSH1 0x4 DUP1 CALLDATASIZE SUB PUSH1 0x20 DUP2 LT ISZERO PUSH2 0x56C JUMPI PUSH1 0x0 DUP1 REVERT JUMPDEST DUP2 ADD SWAP1 DUP1 DUP1 CALLDATALOAD PUSH20 0xFFFFFFFFFFFFFFFFFFFFFFFFFFFFFFFFFFFFFFFF AND SWAP1 PUSH1 0x20 ADD SWAP1 SWAP3 SWAP2 SWAP1 POP POP POP PUSH2 0xF3D JUMP JUMPDEST PUSH1 0x40 MLOAD DUP1 DUP3 DUP2 MSTORE PUSH1 0x20 ADD SWAP2 POP POP PUSH1 0x40 MLOAD DUP1 SWAP2 SUB SWAP1 RETURN JUMPDEST CALLVALUE DUP1 ISZERO PUSH2 0x5BA JUMPI PUSH1 0x0 DUP1 REVERT JUMPDEST POP PUSH2 0x5E7 PUSH1 0x4 DUP1 CALLDATASIZE SUB PUSH1 0x20 DUP2 LT ISZERO PUSH2 0x5D1 JUMPI PUSH1 0x0 DUP1 REVERT JUMPDEST DUP2 ADD SWAP1 DUP1 DUP1 CALLDATALOAD SWAP1 PUSH1 0x20 ADD SWAP1 SWAP3 SWAP2 SWAP1 POP POP POP PUSH2 0xF55 JUMP JUMPDEST PUSH1 0x40 MLOAD DUP1 DUP3 DUP2 MSTORE PUSH1 0x20 ADD SWAP2 POP POP PUSH1 0x40 MLOAD DUP1 SWAP2 SUB SWAP1 RETURN JUMPDEST CALLVALUE DUP1 ISZERO PUSH2 0x609 JUMPI PUSH1 0x0 DUP1 REVERT JUMPDEST POP PUSH2 0x612 PUSH2 0xF73 JUMP JUMPDEST STOP JUMPDEST CALLVALUE DUP1 ISZERO PUSH2 0x620 JUMPI PUSH1 0x0 DUP1 REVERT JUMPDEST POP PUSH2 0x629 PUSH2 0x139E JUMP JUMPDEST PUSH1 0x40 MLOAD DUP1 DUP3 DUP2 MSTORE PUSH1 0x20 ADD SWAP2 POP POP PUSH1 0x40 MLOAD DUP1 SWAP2 SUB SWAP1 RETURN JUMPDEST CALLVALUE DUP1 ISZERO PUSH2 0x64B JUMPI PUSH1 0x0 DUP1 REVERT JUMPDEST POP PUSH2 0x654 PUSH2 0x13A4 JUMP JUMPDEST PUSH1 0x40 MLOAD DUP1 DUP3 DUP2 MSTORE PUSH1 0x20 ADD SWAP2 POP POP PUSH1 0x40 MLOAD DUP1 SWAP2 SUB SWAP1 RETURN JUMPDEST CALLVALUE DUP1 ISZERO PUSH2 0x676 JUMPI PUSH1 0x0 DUP1 REVERT JUMPDEST POP PUSH2 0x67F PUSH2 0x13B1 JUMP JUMPDEST PUSH1 0x40 MLOAD DUP1 DUP3 ISZERO ISZERO ISZERO ISZERO DUP2 MSTORE PUSH1 0x20 ADD SWAP2 POP POP PUSH1 0x40 MLOAD DUP1 SWAP2 SUB SWAP1 RETURN JUMPDEST CALLVALUE DUP1 ISZERO PUSH2 0x6A5 JUMPI PUSH1 0x0 DUP1 REVERT JUMPDEST POP PUSH2 0x6AE PUSH2 0x13BA JUMP JUMPDEST PUSH1 0x40 MLOAD DUP1 DUP1 PUSH1 0x20 ADD DUP3 DUP2 SUB DUP3 MSTORE DUP4 DUP2 DUP2 MLOAD DUP2 MSTORE PUSH1 0x20 ADD SWAP2 POP DUP1 MLOAD SWAP1 PUSH1 0x20 ADD SWAP1 DUP1 DUP4 DUP4 PUSH1 0x0 JUMPDEST DUP4 DUP2 LT ISZERO PUSH2 0x6EE JUMPI DUP1 DUP3 ADD MLOAD DUP2 DUP5 ADD MSTORE PUSH1 0x20 DUP2 ADD SWAP1 POP PUSH2 0x6D3 JUMP JUMPDEST POP POP POP POP SWAP1 POP SWAP1 DUP2 ADD SWAP1 PUSH1 0x1F AND DUP1 ISZERO PUSH2 0x71B JUMPI DUP1 DUP3 SUB DUP1 MLOAD PUSH1 0x1 DUP4 PUSH1 0x20 SUB PUSH2 0x100 EXP SUB NOT AND DUP2 MSTORE PUSH1 0x20 ADD SWAP2 POP JUMPDEST POP SWAP3 POP POP POP PUSH1 0x40 MLOAD DUP1 SWAP2 SUB SWAP1 RETURN JUMPDEST CALLVALUE DUP1 ISZERO PUSH2 0x735 JUMPI PUSH1 0x0 DUP1 REVERT JUMPDEST POP PUSH2 0x73E PUSH2 0x1458 JUMP JUMPDEST STOP JUMPDEST CALLVALUE DUP1 ISZERO PUSH2 0x74C JUMPI PUSH1 0x0 DUP1 REVERT JUMPDEST POP PUSH2 0x78F PUSH1 0x4 DUP1 CALLDATASIZE SUB PUSH1 0x20 DUP2 LT ISZERO PUSH2 0x763 JUMPI PUSH1 0x0 DUP1 REVERT JUMPDEST DUP2 ADD SWAP1 DUP1 DUP1 CALLDATALOAD PUSH20 0xFFFFFFFFFFFFFFFFFFFFFFFFFFFFFFFFFFFFFFFF AND SWAP1 PUSH1 0x20 ADD SWAP1 SWAP3 SWAP2 SWAP1 POP POP POP PUSH2 0x1612 JUMP JUMPDEST PUSH1 0x40 MLOAD DUP1 DUP3 DUP2 MSTORE PUSH1 0x20 ADD SWAP2 POP POP PUSH1 0x40 MLOAD DUP1 SWAP2 SUB SWAP1 RETURN JUMPDEST PUSH2 0x7DB PUSH1 0x4 DUP1 CALLDATASIZE SUB PUSH1 0x40 DUP2 LT ISZERO PUSH2 0x7BB JUMPI PUSH1 0x0 DUP1 REVERT JUMPDEST DUP2 ADD SWAP1 DUP1 DUP1 CALLDATALOAD SWAP1 PUSH1 0x20 ADD SWAP1 SWAP3 SWAP2 SWAP1 DUP1 CALLDATALOAD SWAP1 PUSH1 0x20 ADD SWAP1 SWAP3 SWAP2 SWAP1 POP POP POP PUSH2 0x162A JUMP JUMPDEST STOP JUMPDEST CALLVALUE DUP1 ISZERO PUSH2 0x7E9 JUMPI PUSH1 0x0 DUP1 REVERT JUMPDEST POP PUSH2 0x816 PUSH1 0x4 DUP1 CALLDATASIZE SUB PUSH1 0x20 DUP2 LT ISZERO PUSH2 0x800 JUMPI PUSH1 0x0 DUP1 REVERT JUMPDEST DUP2 ADD SWAP1 DUP1 DUP1 CALLDATALOAD SWAP1 PUSH1 0x20 ADD SWAP1 SWAP3 SWAP2 SWAP1 POP POP POP PUSH2 0x1C4F JUMP JUMPDEST PUSH1 0x40 MLOAD DUP1 DUP3 DUP2 MSTORE PUSH1 0x20 ADD SWAP2 POP POP PUSH1 0x40 MLOAD DUP1 SWAP2 SUB SWAP1 RETURN JUMPDEST CALLVALUE DUP1 ISZERO PUSH2 0x838 JUMPI PUSH1 0x0 DUP1 REVERT JUMPDEST POP PUSH2 0x841 PUSH2 0x1C6B JUMP JUMPDEST PUSH1 0x40 MLOAD DUP1 DUP3 DUP2 MSTORE PUSH1 0x20 ADD SWAP2 POP POP PUSH1 0x40 MLOAD DUP1 SWAP2 SUB SWAP1 RETURN JUMPDEST CALLVALUE DUP1 ISZERO PUSH2 0x863 JUMPI PUSH1 0x0 DUP1 REVERT JUMPDEST POP PUSH2 0x86C PUSH2 0x1C71 JUMP JUMPDEST PUSH1 0x40 MLOAD DUP1 DUP3 DUP2 MSTORE PUSH1 0x20 ADD SWAP2 POP POP PUSH1 0x40 MLOAD DUP1 SWAP2 SUB SWAP1 RETURN JUMPDEST CALLVALUE DUP1 ISZERO PUSH2 0x88E JUMPI PUSH1 0x0 DUP1 REVERT JUMPDEST POP PUSH2 0x8D1 PUSH1 0x4 DUP1 CALLDATASIZE SUB PUSH1 0x20 DUP2 LT ISZERO PUSH2 0x8A5 JUMPI PUSH1 0x0 DUP1 REVERT JUMPDEST DUP2 ADD SWAP1 DUP1 DUP1 CALLDATALOAD PUSH20 0xFFFFFFFFFFFFFFFFFFFFFFFFFFFFFFFFFFFFFFFF AND SWAP1 PUSH1 0x20 ADD SWAP1 SWAP3 SWAP2 SWAP1 POP POP POP PUSH2 0x1C7E JUMP JUMPDEST PUSH1 0x40 MLOAD DUP1 DUP3 DUP2 MSTORE PUSH1 0x20 ADD SWAP2 POP POP PUSH1 0x40 MLOAD DUP1 SWAP2 SUB SWAP1 RETURN JUMPDEST CALLVALUE DUP1 ISZERO PUSH2 0x8F3 JUMPI PUSH1 0x0 DUP1 REVERT JUMPDEST POP PUSH2 0x920 PUSH1 0x4 DUP1 CALLDATASIZE SUB PUSH1 0x20 DUP2 LT ISZERO PUSH2 0x90A JUMPI PUSH1 0x0 DUP1 REVERT JUMPDEST DUP2 ADD SWAP1 DUP1 DUP1 CALLDATALOAD SWAP1 PUSH1 0x20 ADD SWAP1 SWAP3 SWAP2 SWAP1 POP POP POP PUSH2 0x1C96 JUMP JUMPDEST PUSH1 0x40 MLOAD DUP1 DUP3 PUSH20 0xFFFFFFFFFFFFFFFFFFFFFFFFFFFFFFFFFFFFFFFF AND PUSH20 0xFFFFFFFFFFFFFFFFFFFFFFFFFFFFFFFFFFFFFFFF AND DUP2 MSTORE PUSH1 0x20 ADD SWAP2 POP POP PUSH1 0x40 MLOAD DUP1 SWAP2 SUB SWAP1 RETURN JUMPDEST CALLVALUE DUP1 ISZERO PUSH2 0x96E JUMPI PUSH1 0x0 DUP1 REVERT JUMPDEST POP PUSH2 0x977 PUSH2 0x1CD2 JUMP JUMPDEST PUSH1 0x40 MLOAD DUP1 DUP3 DUP2 MSTORE PUSH1 0x20 ADD SWAP2 POP POP PUSH1 0x40 MLOAD DUP1 SWAP2 SUB SWAP1 RETURN JUMPDEST CALLVALUE DUP1 ISZERO PUSH2 0x999 JUMPI PUSH1 0x0 DUP1 REVERT JUMPDEST POP PUSH2 0xA69 PUSH1 0x4 DUP1 CALLDATASIZE SUB PUSH1 0x60 DUP2 LT ISZERO PUSH2 0x9B0 JUMPI PUSH1 0x0 DUP1 REVERT JUMPDEST DUP2 ADD SWAP1 DUP1 DUP1 CALLDATALOAD SWAP1 PUSH1 0x20 ADD SWAP1 SWAP3 SWAP2 SWAP1 DUP1 CALLDATALOAD SWAP1 PUSH1 0x20 ADD SWAP1 PUSH5 0x100000000 DUP2 GT ISZERO PUSH2 0x9D7 JUMPI PUSH1 0x0 DUP1 REVERT JUMPDEST DUP3 ADD DUP4 PUSH1 0x20 DUP3 ADD GT ISZERO PUSH2 0x9E9 JUMPI PUSH1 0x0 DUP1 REVERT JUMPDEST DUP1 CALLDATALOAD SWAP1 PUSH1 0x20 ADD SWAP2 DUP5 PUSH1 0x1 DUP4 MUL DUP5 ADD GT PUSH5 0x100000000 DUP4 GT OR ISZERO PUSH2 0xA0B JUMPI PUSH1 0x0 DUP1 REVERT JUMPDEST SWAP2 SWAP1 DUP1 DUP1 PUSH1 0x1F ADD PUSH1 0x20 DUP1 SWAP2 DIV MUL PUSH1 0x20 ADD PUSH1 0x40 MLOAD SWAP1 DUP2 ADD PUSH1 0x40 MSTORE DUP1 SWAP4 SWAP3 SWAP2 SWAP1 DUP2 DUP2 MSTORE PUSH1 0x20 ADD DUP4 DUP4 DUP1 DUP3 DUP5 CALLDATACOPY PUSH1 0x0 DUP2 DUP5 ADD MSTORE PUSH1 0x1F NOT PUSH1 0x1F DUP3 ADD AND SWAP1 POP DUP1 DUP4 ADD SWAP3 POP POP POP POP POP POP POP SWAP2 SWAP3 SWAP2 SWAP3 SWAP1 DUP1 CALLDATALOAD ISZERO ISZERO SWAP1 PUSH1 0x20 ADD SWAP1 SWAP3 SWAP2 SWAP1 POP POP POP PUSH2 0x1CD8 JUMP JUMPDEST STOP JUMPDEST CALLVALUE DUP1 ISZERO PUSH2 0xA77 JUMPI PUSH1 0x0 DUP1 REVERT JUMPDEST POP PUSH2 0xA80 PUSH2 0x1E91 JUMP JUMPDEST PUSH1 0x40 MLOAD DUP1 DUP3 DUP2 MSTORE PUSH1 0x20 ADD SWAP2 POP POP PUSH1 0x40 MLOAD DUP1 SWAP2 SUB SWAP1 RETURN JUMPDEST CALLVALUE DUP1 ISZERO PUSH2 0xAA2 JUMPI PUSH1 0x0 DUP1 REVERT JUMPDEST POP PUSH2 0xAAB PUSH2 0x1E99 JUMP JUMPDEST PUSH1 0x40 MLOAD DUP1 DUP3 ISZERO ISZERO ISZERO ISZERO DUP2 MSTORE PUSH1 0x20 ADD SWAP2 POP POP PUSH1 0x40 MLOAD DUP1 SWAP2 SUB SWAP1 RETURN JUMPDEST CALLVALUE DUP1 ISZERO PUSH2 0xAD1 JUMPI PUSH1 0x0 DUP1 REVERT JUMPDEST POP PUSH2 0xADA PUSH2 0x1EAC JUMP JUMPDEST PUSH1 0x40 MLOAD DUP1 DUP3 DUP2 MSTORE PUSH1 0x20 ADD SWAP2 POP POP PUSH1 0x40 MLOAD DUP1 SWAP2 SUB SWAP1 RETURN JUMPDEST CALLVALUE DUP1 ISZERO PUSH2 0xAFC JUMPI PUSH1 0x0 DUP1 REVERT JUMPDEST POP PUSH2 0xB05 PUSH2 0x1EB2 JUMP JUMPDEST PUSH1 0x40 MLOAD DUP1 DUP6 PUSH20 0xFFFFFFFFFFFFFFFFFFFFFFFFFFFFFFFFFFFFFFFF AND PUSH20 0xFFFFFFFFFFFFFFFFFFFFFFFFFFFFFFFFFFFFFFFF AND DUP2 MSTORE PUSH1 0x20 ADD DUP5 DUP2 MSTORE PUSH1 0x20 ADD DUP4 DUP2 MSTORE PUSH1 0x20 ADD DUP3 ISZERO ISZERO ISZERO ISZERO DUP2 MSTORE PUSH1 0x20 ADD SWAP5 POP POP POP POP POP PUSH1 0x40 MLOAD DUP1 SWAP2 SUB SWAP1 RETURN JUMPDEST PUSH1 0x4 PUSH1 0x0 SWAP1 SLOAD SWAP1 PUSH2 0x100 EXP SWAP1 DIV PUSH20 0xFFFFFFFFFFFFFFFFFFFFFFFFFFFFFFFFFFFFFFFF AND DUP2 JUMP JUMPDEST PUSH1 0x6 SLOAD TIMESTAMP LT PUSH2 0xBE0 JUMPI PUSH1 0x40 MLOAD PUSH32 0x8C379A000000000000000000000000000000000000000000000000000000000 DUP2 MSTORE PUSH1 0x4 ADD DUP1 DUP1 PUSH1 0x20 ADD DUP3 DUP2 SUB DUP3 MSTORE PUSH1 0x2B DUP2 MSTORE PUSH1 0x20 ADD DUP1 PUSH2 0x2526 PUSH1 0x2B SWAP2 CODECOPY PUSH1 0x40 ADD SWAP2 POP POP PUSH1 0x40 MLOAD DUP1 SWAP2 SUB SWAP1 REVERT JUMPDEST PUSH1 0x0 PUSH1 0xE PUSH1 0x0 CALLER PUSH20 0xFFFFFFFFFFFFFFFFFFFFFFFFFFFFFFFFFFFFFFFF AND PUSH20 0xFFFFFFFFFFFFFFFFFFFFFFFFFFFFFFFFFFFFFFFF AND DUP2 MSTORE PUSH1 0x20 ADD SWAP1 DUP2 MSTORE PUSH1 0x20 ADD PUSH1 0x0 KECCAK256 SLOAD EQ PUSH2 0xC78 JUMPI PUSH1 0x40 MLOAD PUSH32 0x8C379A000000000000000000000000000000000000000000000000000000000 DUP2 MSTORE PUSH1 0x4 ADD DUP1 DUP1 PUSH1 0x20 ADD DUP3 DUP2 SUB DUP3 MSTORE PUSH1 0x25 DUP2 MSTORE PUSH1 0x20 ADD DUP1 PUSH2 0x24C7 PUSH1 0x25 SWAP2 CODECOPY PUSH1 0x40 ADD SWAP2 POP POP PUSH1 0x40 MLOAD DUP1 SWAP2 SUB SWAP1 REVERT JUMPDEST PUSH2 0xC80 PUSH2 0x2164 JUMP JUMPDEST PUSH1 0x40 MLOAD DUP1 PUSH1 0x80 ADD PUSH1 0x40 MSTORE DUP1 DUP5 DUP2 MSTORE PUSH1 0x20 ADD DUP4 ISZERO ISZERO DUP2 MSTORE PUSH1 0x20 ADD CALLER PUSH20 0xFFFFFFFFFFFFFFFFFFFFFFFFFFFFFFFFFFFFFFFF AND DUP2 MSTORE PUSH1 0x20 ADD PUSH1 0x0 DUP2 MSTORE POP SWAP1 POP PUSH1 0x7 DUP2 SWAP1 DUP1 PUSH1 0x1 DUP2 SLOAD ADD DUP1 DUP3 SSTORE DUP1 SWAP2 POP POP SWAP1 PUSH1 0x1 DUP3 SUB SWAP1 PUSH1 0x0 MSTORE PUSH1 0x20 PUSH1 0x0 KECCAK256 SWAP1 PUSH1 0x3 MUL ADD PUSH1 0x0 SWAP1 SWAP2 SWAP3 SWAP1 SWAP2 SWAP1 SWAP2 POP PUSH1 0x0 DUP3 ADD MLOAD DUP2 PUSH1 0x0 ADD SWAP1 DUP1 MLOAD SWAP1 PUSH1 0x20 ADD SWAP1 PUSH2 0xD06 SWAP3 SWAP2 SWAP1 PUSH2 0x21A4 JUMP JUMPDEST POP PUSH1 0x20 DUP3 ADD MLOAD DUP2 PUSH1 0x1 ADD PUSH1 0x0 PUSH2 0x100 EXP DUP2 SLOAD DUP2 PUSH1 0xFF MUL NOT AND SWAP1 DUP4 ISZERO ISZERO MUL OR SWAP1 SSTORE POP PUSH1 0x40 DUP3 ADD MLOAD DUP2 PUSH1 0x1 ADD PUSH1 0x1 PUSH2 0x100 EXP DUP2 SLOAD DUP2 PUSH20 0xFFFFFFFFFFFFFFFFFFFFFFFFFFFFFFFFFFFFFFFF MUL NOT AND SWAP1 DUP4 PUSH20 0xFFFFFFFFFFFFFFFFFFFFFFFFFFFFFFFFFFFFFFFF AND MUL OR SWAP1 SSTORE POP PUSH1 0x60 DUP3 ADD MLOAD DUP2 PUSH1 0x2 ADD SSTORE POP POP POP PUSH1 0x1 PUSH2 0xD85 PUSH2 0x1C71 JUMP JUMPDEST SUB PUSH1 0xE PUSH1 0x0 CALLER PUSH20 0xFFFFFFFFFFFFFFFFFFFFFFFFFFFFFFFFFFFFFFFF AND PUSH20 0xFFFFFFFFFFFFFFFFFFFFFFFFFFFFFFFFFFFFFFFF AND DUP2 MSTORE PUSH1 0x20 ADD SWAP1 DUP2 MSTORE PUSH1 0x20 ADD PUSH1 0x0 KECCAK256 DUP2 SWAP1 SSTORE POP POP POP POP JUMP JUMPDEST PUSH1 0x9 PUSH1 0x20 MSTORE DUP1 PUSH1 0x0 MSTORE PUSH1 0x40 PUSH1 0x0 KECCAK256 PUSH1 0x0 SWAP2 POP SWAP1 POP SLOAD DUP2 JUMP JUMPDEST PUSH1 0x10 DUP2 DUP2 SLOAD DUP2 LT PUSH2 0xDF3 JUMPI INVALID JUMPDEST SWAP1 PUSH1 0x0 MSTORE PUSH1 0x20 PUSH1 0x0 KECCAK256 ADD PUSH1 0x0 SWAP2 POP SLOAD SWAP1 PUSH2 0x100 EXP SWAP1 DIV PUSH20 0xFFFFFFFFFFFFFFFFFFFFFFFFFFFFFFFFFFFFFFFF AND DUP2 JUMP JUMPDEST PUSH1 0x7 DUP2 DUP2 SLOAD DUP2 LT PUSH2 0xE2F JUMPI INVALID JUMPDEST SWAP1 PUSH1 0x0 MSTORE PUSH1 0x20 PUSH1 0x0 KECCAK256 SWAP1 PUSH1 0x3 MUL ADD PUSH1 0x0 SWAP2 POP SWAP1 POP DUP1 PUSH1 0x0 ADD DUP1 SLOAD PUSH1 0x1 DUP2 PUSH1 0x1 AND ISZERO PUSH2 0x100 MUL SUB AND PUSH1 0x2 SWAP1 DIV DUP1 PUSH1 0x1F ADD PUSH1 0x20 DUP1 SWAP2 DIV MUL PUSH1 0x20 ADD PUSH1 0x40 MLOAD SWAP1 DUP2 ADD PUSH1 0x40 MSTORE DUP1 SWAP3 SWAP2 SWAP1 DUP2 DUP2 MSTORE PUSH1 0x20 ADD DUP3 DUP1 SLOAD PUSH1 0x1 DUP2 PUSH1 0x1 AND ISZERO PUSH2 0x100 MUL SUB AND PUSH1 0x2 SWAP1 DIV DUP1 ISZERO PUSH2 0xEDB JUMPI DUP1 PUSH1 0x1F LT PUSH2 0xEB0 JUMPI PUSH2 0x100 DUP1 DUP4 SLOAD DIV MUL DUP4 MSTORE SWAP2 PUSH1 0x20 ADD SWAP2 PUSH2 0xEDB JUMP JUMPDEST DUP3 ADD SWAP2 SWAP1 PUSH1 0x0 MSTORE PUSH1 0x20 PUSH1 0x0 KECCAK256 SWAP1 JUMPDEST DUP2 SLOAD DUP2 MSTORE SWAP1 PUSH1 0x1 ADD SWAP1 PUSH1 0x20 ADD DUP1 DUP4 GT PUSH2 0xEBE JUMPI DUP3 SWAP1 SUB PUSH1 0x1F AND DUP3 ADD SWAP2 JUMPDEST POP POP POP POP POP SWAP1 DUP1 PUSH1 0x1 ADD PUSH1 0x0 SWAP1 SLOAD SWAP1 PUSH2 0x100 EXP SWAP1 DIV PUSH1 0xFF AND SWAP1 DUP1 PUSH1 0x1 ADD PUSH1 0x1 SWAP1 SLOAD SWAP1 PUSH2 0x100 EXP SWAP1 DIV PUSH20 0xFFFFFFFFFFFFFFFFFFFFFFFFFFFFFFFFFFFFFFFF AND SWAP1 DUP1 PUSH1 0x2 ADD SLOAD SWAP1 POP DUP5 JUMP JUMPDEST PUSH1 0x5 SLOAD DUP2 JUMP JUMPDEST PUSH1 0x0 PUSH1 0xF DUP1 SLOAD SWAP1 POP SWAP1 POP SWAP1 JUMP JUMPDEST PUSH1 0x6 SLOAD DUP2 JUMP JUMPDEST PUSH1 0xE PUSH1 0x20 MSTORE DUP1 PUSH1 0x0 MSTORE PUSH1 0x40 PUSH1 0x0 KECCAK256 PUSH1 0x0 SWAP2 POP SWAP1 POP SLOAD DUP2 JUMP JUMPDEST PUSH1 0x0 DUP1 PUSH1 0xA SLOAD DUP4 PUSH1 0xB SLOAD MUL DUP2 PUSH2 0xF67 JUMPI INVALID JUMPDEST DIV SWAP1 POP DUP1 SWAP2 POP POP SWAP2 SWAP1 POP JUMP JUMPDEST PUSH1 0x6 SLOAD TIMESTAMP GT PUSH2 0xFCD JUMPI PUSH1 0x40 MLOAD PUSH32 0x8C379A000000000000000000000000000000000000000000000000000000000 DUP2 MSTORE PUSH1 0x4 ADD DUP1 DUP1 PUSH1 0x20 ADD DUP3 DUP2 SUB DUP3 MSTORE PUSH1 0x36 DUP2 MSTORE PUSH1 0x20 ADD DUP1 PUSH2 0x2302 PUSH1 0x36 SWAP2 CODECOPY PUSH1 0x40 ADD SWAP2 POP POP PUSH1 0x40 MLOAD DUP1 SWAP2 SUB SWAP1 REVERT JUMPDEST PUSH1 0x0 PUSH1 0x8 PUSH1 0x0 CALLER PUSH20 0xFFFFFFFFFFFFFFFFFFFFFFFFFFFFFFFFFFFFFFFF AND PUSH20 0xFFFFFFFFFFFFFFFFFFFFFFFFFFFFFFFFFFFFFFFF AND DUP2 MSTORE PUSH1 0x20 ADD SWAP1 DUP2 MSTORE PUSH1 0x20 ADD PUSH1 0x0 KECCAK256 SLOAD SWAP1 POP PUSH1 0x0 DUP2 EQ ISZERO PUSH2 0x106B JUMPI PUSH1 0x40 MLOAD PUSH32 0x8C379A000000000000000000000000000000000000000000000000000000000 DUP2 MSTORE PUSH1 0x4 ADD DUP1 DUP1 PUSH1 0x20 ADD DUP3 DUP2 SUB DUP3 MSTORE PUSH1 0x38 DUP2 MSTORE PUSH1 0x20 ADD DUP1 PUSH2 0x22CA PUSH1 0x38 SWAP2 CODECOPY PUSH1 0x40 ADD SWAP2 POP POP PUSH1 0x40 MLOAD DUP1 SWAP2 SUB SWAP1 REVERT JUMPDEST PUSH1 0x0 PUSH1 0x7 DUP3 DUP2 SLOAD DUP2 LT PUSH2 0x107A JUMPI INVALID JUMPDEST SWAP1 PUSH1 0x0 MSTORE PUSH1 0x20 PUSH1 0x0 KECCAK256 SWAP1 PUSH1 0x3 MUL ADD SWAP1 POP PUSH1 0x0 PUSH1 0x12 SLOAD EQ ISZERO PUSH2 0x109E JUMPI PUSH2 0x109D PUSH2 0x1EFF JUMP JUMPDEST JUMPDEST PUSH1 0x1 PUSH1 0x12 SLOAD EQ DUP1 ISZERO PUSH2 0x10BE JUMPI POP DUP1 PUSH1 0x1 ADD PUSH1 0x0 SWAP1 SLOAD SWAP1 PUSH2 0x100 EXP SWAP1 DIV PUSH1 0xFF AND JUMPDEST DUP1 PUSH2 0x10E6 JUMPI POP PUSH1 0x2 PUSH1 0x12 SLOAD EQ DUP1 ISZERO PUSH2 0x10E5 JUMPI POP DUP1 PUSH1 0x1 ADD PUSH1 0x0 SWAP1 SLOAD SWAP1 PUSH2 0x100 EXP SWAP1 DIV PUSH1 0xFF AND ISZERO JUMPDEST JUMPDEST DUP1 PUSH2 0x10F3 JUMPI POP PUSH1 0x3 PUSH1 0x12 SLOAD EQ JUMPDEST ISZERO PUSH2 0x139A JUMPI CALLER PUSH20 0xFFFFFFFFFFFFFFFFFFFFFFFFFFFFFFFFFFFFFFFF AND PUSH2 0x8FC ADDRESS PUSH20 0xFFFFFFFFFFFFFFFFFFFFFFFFFFFFFFFFFFFFFFFF AND PUSH4 0x4DD54033 PUSH1 0x9 PUSH1 0x0 CALLER PUSH20 0xFFFFFFFFFFFFFFFFFFFFFFFFFFFFFFFFFFFFFFFF AND PUSH20 0xFFFFFFFFFFFFFFFFFFFFFFFFFFFFFFFFFFFFFFFF AND DUP2 MSTORE PUSH1 0x20 ADD SWAP1 DUP2 MSTORE PUSH1 0x20 ADD PUSH1 0x0 KECCAK256 SLOAD PUSH1 0x40 MLOAD DUP3 PUSH4 0xFFFFFFFF AND PUSH1 0xE0 SHL DUP2 MSTORE PUSH1 0x4 ADD DUP1 DUP3 DUP2 MSTORE PUSH1 0x20 ADD SWAP2 POP POP PUSH1 0x20 PUSH1 0x40 MLOAD DUP1 DUP4 SUB DUP2 DUP7 DUP1 EXTCODESIZE ISZERO DUP1 ISZERO PUSH2 0x11A2 JUMPI PUSH1 0x0 DUP1 REVERT JUMPDEST POP GAS STATICCALL ISZERO DUP1 ISZERO PUSH2 0x11B6 JUMPI RETURNDATASIZE PUSH1 0x0 DUP1 RETURNDATACOPY RETURNDATASIZE PUSH1 0x0 REVERT JUMPDEST POP POP POP POP PUSH1 0x40 MLOAD RETURNDATASIZE PUSH1 0x20 DUP2 LT ISZERO PUSH2 0x11CC JUMPI PUSH1 0x0 DUP1 REVERT JUMPDEST DUP2 ADD SWAP1 DUP1 DUP1 MLOAD SWAP1 PUSH1 0x20 ADD SWAP1 SWAP3 SWAP2 SWAP1 POP POP POP SWAP1 DUP2 ISZERO MUL SWAP1 PUSH1 0x40 MLOAD PUSH1 0x0 PUSH1 0x40 MLOAD DUP1 DUP4 SUB DUP2 DUP6 DUP9 DUP9 CALL SWAP4 POP POP POP POP ISZERO DUP1 ISZERO PUSH2 0x1208 JUMPI RETURNDATASIZE PUSH1 0x0 DUP1 RETURNDATACOPY RETURNDATASIZE PUSH1 0x0 REVERT JUMPDEST POP PUSH1 0x0 DUP1 PUSH1 0x0 SWAP1 SLOAD SWAP1 PUSH2 0x100 EXP SWAP1 DIV PUSH20 0xFFFFFFFFFFFFFFFFFFFFFFFFFFFFFFFFFFFFFFFF AND SWAP1 POP DUP1 PUSH20 0xFFFFFFFFFFFFFFFFFFFFFFFFFFFFFFFFFFFFFFFF AND PUSH4 0x5F2AB567 ADDRESS PUSH20 0xFFFFFFFFFFFFFFFFFFFFFFFFFFFFFFFFFFFFFFFF AND PUSH4 0xB3B9AC1D PUSH1 0xC PUSH1 0x0 CALLER PUSH20 0xFFFFFFFFFFFFFFFFFFFFFFFFFFFFFFFFFFFFFFFF AND PUSH20 0xFFFFFFFFFFFFFFFFFFFFFFFFFFFFFFFFFFFFFFFF AND DUP2 MSTORE PUSH1 0x20 ADD SWAP1 DUP2 MSTORE PUSH1 0x20 ADD PUSH1 0x0 KECCAK256 SLOAD PUSH1 0x40 MLOAD DUP3 PUSH4 0xFFFFFFFF AND PUSH1 0xE0 SHL DUP2 MSTORE PUSH1 0x4 ADD DUP1 DUP3 DUP2 MSTORE PUSH1 0x20 ADD SWAP2 POP POP PUSH1 0x20 PUSH1 0x40 MLOAD DUP1 DUP4 SUB DUP2 DUP7 DUP1 EXTCODESIZE ISZERO DUP1 ISZERO PUSH2 0x12DB JUMPI PUSH1 0x0 DUP1 REVERT JUMPDEST POP GAS STATICCALL ISZERO DUP1 ISZERO PUSH2 0x12EF JUMPI RETURNDATASIZE PUSH1 0x0 DUP1 RETURNDATACOPY RETURNDATASIZE PUSH1 0x0 REVERT JUMPDEST POP POP POP POP PUSH1 0x40 MLOAD RETURNDATASIZE PUSH1 0x20 DUP2 LT ISZERO PUSH2 0x1305 JUMPI PUSH1 0x0 DUP1 REVERT JUMPDEST DUP2 ADD SWAP1 DUP1 DUP1 MLOAD SWAP1 PUSH1 0x20 ADD SWAP1 SWAP3 SWAP2 SWAP1 POP POP POP CALLER PUSH1 0x40 MLOAD DUP4 PUSH4 0xFFFFFFFF AND PUSH1 0xE0 SHL DUP2 MSTORE PUSH1 0x4 ADD DUP1 DUP4 DUP2 MSTORE PUSH1 0x20 ADD DUP3 PUSH20 0xFFFFFFFFFFFFFFFFFFFFFFFFFFFFFFFFFFFFFFFF AND PUSH20 0xFFFFFFFFFFFFFFFFFFFFFFFFFFFFFFFFFFFFFFFF AND DUP2 MSTORE PUSH1 0x20 ADD SWAP3 POP POP POP PUSH1 0x0 PUSH1 0x40 MLOAD DUP1 DUP4 SUB DUP2 PUSH1 0x0 DUP8 DUP1 EXTCODESIZE ISZERO DUP1 ISZERO PUSH2 0x1380 JUMPI PUSH1 0x0 DUP1 REVERT JUMPDEST POP GAS CALL ISZERO DUP1 ISZERO PUSH2 0x1394 JUMPI RETURNDATASIZE PUSH1 0x0 DUP1 RETURNDATACOPY RETURNDATASIZE PUSH1 0x0 REVERT JUMPDEST POP POP POP POP POP JUMPDEST POP POP JUMP JUMPDEST PUSH1 0xA SLOAD DUP2 JUMP JUMPDEST PUSH1 0x0 PUSH1 0x10 DUP1 SLOAD SWAP1 POP SWAP1 POP SWAP1 JUMP JUMPDEST PUSH1 0x0 PUSH1 0x1 SWAP1 POP SWAP1 JUMP JUMPDEST PUSH1 0x3 DUP1 SLOAD PUSH1 0x1 DUP2 PUSH1 0x1 AND ISZERO PUSH2 0x100 MUL SUB AND PUSH1 0x2 SWAP1 DIV DUP1 PUSH1 0x1F ADD PUSH1 0x20 DUP1 SWAP2 DIV MUL PUSH1 0x20 ADD PUSH1 0x40 MLOAD SWAP1 DUP2 ADD PUSH1 0x40 MSTORE DUP1 SWAP3 SWAP2 SWAP1 DUP2 DUP2 MSTORE PUSH1 0x20 ADD DUP3 DUP1 SLOAD PUSH1 0x1 DUP2 PUSH1 0x1 AND ISZERO PUSH2 0x100 MUL SUB AND PUSH1 0x2 SWAP1 DIV DUP1 ISZERO PUSH2 0x1450 JUMPI DUP1 PUSH1 0x1F LT PUSH2 0x1425 JUMPI PUSH2 0x100 DUP1 DUP4 SLOAD DIV MUL DUP4 MSTORE SWAP2 PUSH1 0x20 ADD SWAP2 PUSH2 0x1450 JUMP JUMPDEST DUP3 ADD SWAP2 SWAP1 PUSH1 0x0 MSTORE PUSH1 0x20 PUSH1 0x0 KECCAK256 SWAP1 JUMPDEST DUP2 SLOAD DUP2 MSTORE SWAP1 PUSH1 0x1 ADD SWAP1 PUSH1 0x20 ADD DUP1 DUP4 GT PUSH2 0x1433 JUMPI DUP3 SWAP1 SUB PUSH1 0x1F AND DUP3 ADD SWAP2 JUMPDEST POP POP POP POP POP DUP2 JUMP JUMPDEST PUSH1 0x4 PUSH1 0x0 SWAP1 SLOAD SWAP1 PUSH2 0x100 EXP SWAP1 DIV PUSH20 0xFFFFFFFFFFFFFFFFFFFFFFFFFFFFFFFFFFFFFFFF AND PUSH20 0xFFFFFFFFFFFFFFFFFFFFFFFFFFFFFFFFFFFFFFFF AND CALLER PUSH20 0xFFFFFFFFFFFFFFFFFFFFFFFFFFFFFFFFFFFFFFFF AND EQ PUSH2 0x14FE JUMPI PUSH1 0x40 MLOAD PUSH32 0x8C379A000000000000000000000000000000000000000000000000000000000 DUP2 MSTORE PUSH1 0x4 ADD DUP1 DUP1 PUSH1 0x20 ADD DUP3 DUP2 SUB DUP3 MSTORE PUSH1 0x3A DUP2 MSTORE PUSH1 0x20 ADD DUP1 PUSH2 0x24EC PUSH1 0x3A SWAP2 CODECOPY PUSH1 0x40 ADD SWAP2 POP POP PUSH1 0x40 MLOAD DUP1 SWAP2 SUB SWAP1 REVERT JUMPDEST PUSH1 0x0 PUSH2 0x1508 PUSH2 0x13A4 JUMP JUMPDEST PUSH2 0x1510 PUSH2 0xF2A JUMP JUMPDEST ADD EQ PUSH2 0x1567 JUMPI PUSH1 0x40 MLOAD PUSH32 0x8C379A000000000000000000000000000000000000000000000000000000000 DUP2 MSTORE PUSH1 0x4 ADD DUP1 DUP1 PUSH1 0x20 ADD DUP3 DUP2 SUB DUP3 MSTORE PUSH1 0x3D DUP2 MSTORE PUSH1 0x20 ADD DUP1 PUSH2 0x23F4 PUSH1 0x3D SWAP2 CODECOPY PUSH1 0x40 ADD SWAP2 POP POP PUSH1 0x40 MLOAD DUP1 SWAP2 SUB SWAP1 REVERT JUMPDEST PUSH1 0x6 SLOAD TIMESTAMP GT PUSH2 0x15C1 JUMPI PUSH1 0x40 MLOAD PUSH32 0x8C379A000000000000000000000000000000000000000000000000000000000 DUP2 MSTORE PUSH1 0x4 ADD DUP1 DUP1 PUSH1 0x20 ADD DUP3 DUP2 SUB DUP3 MSTORE PUSH1 0x36 DUP2 MSTORE PUSH1 0x20 ADD DUP1 PUSH2 0x2302 PUSH1 0x36 SWAP2 CODECOPY PUSH1 0x40 ADD SWAP2 POP POP PUSH1 0x40 MLOAD DUP1 SWAP2 SUB SWAP1 REVERT JUMPDEST CALLER PUSH20 0xFFFFFFFFFFFFFFFFFFFFFFFFFFFFFFFFFFFFFFFF AND PUSH2 0x8FC SELFBALANCE SWAP1 DUP2 ISZERO MUL SWAP1 PUSH1 0x40 MLOAD PUSH1 0x0 PUSH1 0x40 MLOAD DUP1 DUP4 SUB DUP2 DUP6 DUP9 DUP9 CALL SWAP4 POP POP POP POP ISZERO DUP1 ISZERO PUSH2 0x1607 JUMPI RETURNDATASIZE PUSH1 0x0 DUP1 RETURNDATACOPY RETURNDATASIZE PUSH1 0x0 REVERT JUMPDEST POP PUSH2 0x1610 PUSH2 0x2088 JUMP JUMPDEST JUMP JUMPDEST PUSH1 0x8 PUSH1 0x20 MSTORE DUP1 PUSH1 0x0 MSTORE PUSH1 0x40 PUSH1 0x0 KECCAK256 PUSH1 0x0 SWAP2 POP SWAP1 POP SLOAD DUP2 JUMP JUMPDEST PUSH1 0x6 SLOAD TIMESTAMP LT PUSH2 0x1684 JUMPI PUSH1 0x40 MLOAD PUSH32 0x8C379A000000000000000000000000000000000000000000000000000000000 DUP2 MSTORE PUSH1 0x4 ADD DUP1 DUP1 PUSH1 0x20 ADD DUP3 DUP2 SUB DUP3 MSTORE PUSH1 0x2B DUP2 MSTORE PUSH1 0x20 ADD DUP1 PUSH2 0x2526 PUSH1 0x2B SWAP2 CODECOPY PUSH1 0x40 ADD SWAP2 POP POP PUSH1 0x40 MLOAD DUP1 SWAP2 SUB SWAP1 REVERT JUMPDEST PUSH1 0x0 DUP3 EQ ISZERO PUSH2 0x16DE JUMPI PUSH1 0x40 MLOAD PUSH32 0x8C379A000000000000000000000000000000000000000000000000000000000 DUP2 MSTORE PUSH1 0x4 ADD DUP1 DUP1 PUSH1 0x20 ADD DUP3 DUP2 SUB DUP3 MSTORE PUSH1 0x3B DUP2 MSTORE PUSH1 0x20 ADD DUP1 PUSH2 0x2551 PUSH1 0x3B SWAP2 CODECOPY PUSH1 0x40 ADD SWAP2 POP POP PUSH1 0x40 MLOAD DUP1 SWAP2 SUB SWAP1 REVERT JUMPDEST PUSH1 0x0 PUSH1 0x8 PUSH1 0x0 CALLER PUSH20 0xFFFFFFFFFFFFFFFFFFFFFFFFFFFFFFFFFFFFFFFF AND PUSH20 0xFFFFFFFFFFFFFFFFFFFFFFFFFFFFFFFFFFFFFFFF AND DUP2 MSTORE PUSH1 0x20 ADD SWAP1 DUP2 MSTORE PUSH1 0x20 ADD PUSH1 0x0 KECCAK256 SLOAD EQ PUSH2 0x1776 JUMPI PUSH1 0x40 MLOAD PUSH32 0x8C379A000000000000000000000000000000000000000000000000000000000 DUP2 MSTORE PUSH1 0x4 ADD DUP1 DUP1 PUSH1 0x20 ADD DUP3 DUP2 SUB DUP3 MSTORE PUSH1 0x35 DUP2 MSTORE PUSH1 0x20 ADD DUP1 PUSH2 0x25AE PUSH1 0x35 SWAP2 CODECOPY PUSH1 0x40 ADD SWAP2 POP POP PUSH1 0x40 MLOAD DUP1 SWAP2 SUB SWAP1 REVERT JUMPDEST PUSH1 0x5 SLOAD CALLVALUE LT ISZERO PUSH2 0x17D1 JUMPI PUSH1 0x40 MLOAD PUSH32 0x8C379A000000000000000000000000000000000000000000000000000000000 DUP2 MSTORE PUSH1 0x4 ADD DUP1 DUP1 PUSH1 0x20 ADD DUP3 DUP2 SUB DUP3 MSTORE PUSH1 0x46 DUP2 MSTORE PUSH1 0x20 ADD DUP1 PUSH2 0x236F PUSH1 0x46 SWAP2 CODECOPY PUSH1 0x60 ADD SWAP2 POP POP PUSH1 0x40 MLOAD DUP1 SWAP2 SUB SWAP1 REVERT JUMPDEST PUSH1 0x0 PUSH1 0x1 PUSH1 0x0 SWAP1 SLOAD SWAP1 PUSH2 0x100 EXP SWAP1 DIV PUSH20 0xFFFFFFFFFFFFFFFFFFFFFFFFFFFFFFFFFFFFFFFF AND SWAP1 POP DUP1 PUSH20 0xFFFFFFFFFFFFFFFFFFFFFFFFFFFFFFFFFFFFFFFF AND PUSH4 0x902701B7 CALLER ADDRESS PUSH1 0x40 MLOAD DUP4 PUSH4 0xFFFFFFFF AND PUSH1 0xE0 SHL DUP2 MSTORE PUSH1 0x4 ADD DUP1 DUP4 PUSH20 0xFFFFFFFFFFFFFFFFFFFFFFFFFFFFFFFFFFFFFFFF AND PUSH20 0xFFFFFFFFFFFFFFFFFFFFFFFFFFFFFFFFFFFFFFFF AND DUP2 MSTORE PUSH1 0x20 ADD DUP3 PUSH20 0xFFFFFFFFFFFFFFFFFFFFFFFFFFFFFFFFFFFFFFFF AND PUSH20 0xFFFFFFFFFFFFFFFFFFFFFFFFFFFFFFFFFFFFFFFF AND DUP2 MSTORE PUSH1 0x20 ADD SWAP3 POP POP POP PUSH1 0x20 PUSH1 0x40 MLOAD DUP1 DUP4 SUB DUP2 DUP7 DUP1 EXTCODESIZE ISZERO DUP1 ISZERO PUSH2 0x18A9 JUMPI PUSH1 0x0 DUP1 REVERT JUMPDEST POP GAS STATICCALL ISZERO DUP1 ISZERO PUSH2 0x18BD JUMPI RETURNDATASIZE PUSH1 0x0 DUP1 RETURNDATACOPY RETURNDATASIZE PUSH1 0x0 REVERT JUMPDEST POP POP POP POP PUSH1 0x40 MLOAD RETURNDATASIZE PUSH1 0x20 DUP2 LT ISZERO PUSH2 0x18D3 JUMPI PUSH1 0x0 DUP1 REVERT JUMPDEST DUP2 ADD SWAP1 DUP1 DUP1 MLOAD SWAP1 PUSH1 0x20 ADD SWAP1 SWAP3 SWAP2 SWAP1 POP POP POP PUSH2 0x1939 JUMPI PUSH1 0x40 MLOAD PUSH32 0x8C379A000000000000000000000000000000000000000000000000000000000 DUP2 MSTORE PUSH1 0x4 ADD DUP1 DUP1 PUSH1 0x20 ADD DUP3 DUP2 SUB DUP3 MSTORE PUSH1 0x31 DUP2 MSTORE PUSH1 0x20 ADD DUP1 PUSH2 0x2456 PUSH1 0x31 SWAP2 CODECOPY PUSH1 0x40 ADD SWAP2 POP POP PUSH1 0x40 MLOAD DUP1 SWAP2 SUB SWAP1 REVERT JUMPDEST PUSH1 0x0 DUP1 SWAP1 SLOAD SWAP1 PUSH2 0x100 EXP SWAP1 DIV PUSH20 0xFFFFFFFFFFFFFFFFFFFFFFFFFFFFFFFFFFFFFFFF AND PUSH20 0xFFFFFFFFFFFFFFFFFFFFFFFFFFFFFFFFFFFFFFFF AND PUSH4 0x37C10389 ADDRESS DUP5 CALLER PUSH1 0x40 MLOAD DUP5 PUSH4 0xFFFFFFFF AND PUSH1 0xE0 SHL DUP2 MSTORE PUSH1 0x4 ADD DUP1 DUP5 PUSH20 0xFFFFFFFFFFFFFFFFFFFFFFFFFFFFFFFFFFFFFFFF AND PUSH20 0xFFFFFFFFFFFFFFFFFFFFFFFFFFFFFFFFFFFFFFFF AND DUP2 MSTORE PUSH1 0x20 ADD DUP4 DUP2 MSTORE PUSH1 0x20 ADD DUP3 PUSH20 0xFFFFFFFFFFFFFFFFFFFFFFFFFFFFFFFFFFFFFFFF AND PUSH20 0xFFFFFFFFFFFFFFFFFFFFFFFFFFFFFFFFFFFFFFFF AND DUP2 MSTORE PUSH1 0x20 ADD SWAP4 POP POP POP POP PUSH1 0x0 PUSH1 0x40 MLOAD DUP1 DUP4 SUB DUP2 PUSH1 0x0 DUP8 DUP1 EXTCODESIZE ISZERO DUP1 ISZERO PUSH2 0x1A15 JUMPI PUSH1 0x0 DUP1 REVERT JUMPDEST POP GAS CALL ISZERO DUP1 ISZERO PUSH2 0x1A29 JUMPI RETURNDATASIZE PUSH1 0x0 DUP1 RETURNDATACOPY RETURNDATASIZE PUSH1 0x0 REVERT JUMPDEST POP POP POP POP DUP3 PUSH1 0x8 PUSH1 0x0 CALLER PUSH20 0xFFFFFFFFFFFFFFFFFFFFFFFFFFFFFFFFFFFFFFFF AND PUSH20 0xFFFFFFFFFFFFFFFFFFFFFFFFFFFFFFFFFFFFFFFF AND DUP2 MSTORE PUSH1 0x20 ADD SWAP1 DUP2 MSTORE PUSH1 0x20 ADD PUSH1 0x0 KECCAK256 DUP2 SWAP1 SSTORE POP CALLVALUE PUSH1 0x9 PUSH1 0x0 CALLER PUSH20 0xFFFFFFFFFFFFFFFFFFFFFFFFFFFFFFFFFFFFFFFF AND PUSH20 0xFFFFFFFFFFFFFFFFFFFFFFFFFFFFFFFFFFFFFFFF AND DUP2 MSTORE PUSH1 0x20 ADD SWAP1 DUP2 MSTORE PUSH1 0x20 ADD PUSH1 0x0 KECCAK256 DUP2 SWAP1 SSTORE POP CALLVALUE PUSH1 0xA PUSH1 0x0 DUP3 DUP3 SLOAD ADD SWAP3 POP POP DUP2 SWAP1 SSTORE POP DUP2 PUSH1 0xC PUSH1 0x0 CALLER PUSH20 0xFFFFFFFFFFFFFFFFFFFFFFFFFFFFFFFFFFFFFFFF AND PUSH20 0xFFFFFFFFFFFFFFFFFFFFFFFFFFFFFFFFFFFFFFFF AND DUP2 MSTORE PUSH1 0x20 ADD SWAP1 DUP2 MSTORE PUSH1 0x20 ADD PUSH1 0x0 KECCAK256 DUP2 SWAP1 SSTORE POP DUP2 PUSH1 0xD PUSH1 0x0 DUP3 DUP3 SLOAD ADD SWAP3 POP POP DUP2 SWAP1 SSTORE POP PUSH1 0x7 DUP4 DUP2 SLOAD DUP2 LT PUSH2 0x1B26 JUMPI INVALID JUMPDEST SWAP1 PUSH1 0x0 MSTORE PUSH1 0x20 PUSH1 0x0 KECCAK256 SWAP1 PUSH1 0x3 MUL ADD PUSH1 0x2 ADD PUSH1 0x0 DUP2 SLOAD DUP1 SWAP3 SWAP2 SWAP1 PUSH1 0x1 ADD SWAP2 SWAP1 POP SSTORE POP PUSH1 0x7 DUP4 DUP2 SLOAD DUP2 LT PUSH2 0x1B54 JUMPI INVALID JUMPDEST SWAP1 PUSH1 0x0 MSTORE PUSH1 0x20 PUSH1 0x0 KECCAK256 SWAP1 PUSH1 0x3 MUL ADD PUSH1 0x1 ADD PUSH1 0x0 SWAP1 SLOAD SWAP1 PUSH2 0x100 EXP SWAP1 DIV PUSH1 0xFF AND ISZERO PUSH2 0x1BE3 JUMPI PUSH1 0xF CALLER SWAP1 DUP1 PUSH1 0x1 DUP2 SLOAD ADD DUP1 DUP3 SSTORE DUP1 SWAP2 POP POP SWAP1 PUSH1 0x1 DUP3 SUB SWAP1 PUSH1 0x0 MSTORE PUSH1 0x20 PUSH1 0x0 KECCAK256 ADD PUSH1 0x0 SWAP1 SWAP2 SWAP3 SWAP1 SWAP2 SWAP1 SWAP2 PUSH2 0x100 EXP DUP2 SLOAD DUP2 PUSH20 0xFFFFFFFFFFFFFFFFFFFFFFFFFFFFFFFFFFFFFFFF MUL NOT AND SWAP1 DUP4 PUSH20 0xFFFFFFFFFFFFFFFFFFFFFFFFFFFFFFFFFFFFFFFF AND MUL OR SWAP1 SSTORE POP POP PUSH2 0x1C4A JUMP JUMPDEST PUSH1 0x10 CALLER SWAP1 DUP1 PUSH1 0x1 DUP2 SLOAD ADD DUP1 DUP3 SSTORE DUP1 SWAP2 POP POP SWAP1 PUSH1 0x1 DUP3 SUB SWAP1 PUSH1 0x0 MSTORE PUSH1 0x20 PUSH1 0x0 KECCAK256 ADD PUSH1 0x0 SWAP1 SWAP2 SWAP3 SWAP1 SWAP2 SWAP1 SWAP2 PUSH2 0x100 EXP DUP2 SLOAD DUP2 PUSH20 0xFFFFFFFFFFFFFFFFFFFFFFFFFFFFFFFFFFFFFFFF MUL NOT AND SWAP1 DUP4 PUSH20 0xFFFFFFFFFFFFFFFFFFFFFFFFFFFFFFFFFFFFFFFF AND MUL OR SWAP1 SSTORE POP POP JUMPDEST POP POP POP JUMP JUMPDEST PUSH1 0x0 DUP1 PUSH1 0xA PUSH1 0xB DUP5 MUL DUP2 PUSH2 0x1C5F JUMPI INVALID JUMPDEST DIV SWAP1 POP DUP1 SWAP2 POP POP SWAP2 SWAP1 POP JUMP JUMPDEST PUSH1 0x12 SLOAD DUP2 JUMP JUMPDEST PUSH1 0x0 PUSH1 0x7 DUP1 SLOAD SWAP1 POP SWAP1 POP SWAP1 JUMP JUMPDEST PUSH1 0xC PUSH1 0x20 MSTORE DUP1 PUSH1 0x0 MSTORE PUSH1 0x40 PUSH1 0x0 KECCAK256 PUSH1 0x0 SWAP2 POP SWAP1 POP SLOAD DUP2 JUMP JUMPDEST PUSH1 0xF DUP2 DUP2 SLOAD DUP2 LT PUSH2 0x1CA3 JUMPI INVALID JUMPDEST SWAP1 PUSH1 0x0 MSTORE PUSH1 0x20 PUSH1 0x0 KECCAK256 ADD PUSH1 0x0 SWAP2 POP SLOAD SWAP1 PUSH2 0x100 EXP SWAP1 DIV PUSH20 0xFFFFFFFFFFFFFFFFFFFFFFFFFFFFFFFFFFFFFFFF AND DUP2 JUMP JUMPDEST PUSH1 0xD SLOAD DUP2 JUMP JUMPDEST PUSH1 0x6 SLOAD TIMESTAMP LT PUSH2 0x1D32 JUMPI PUSH1 0x40 MLOAD PUSH32 0x8C379A000000000000000000000000000000000000000000000000000000000 DUP2 MSTORE PUSH1 0x4 ADD DUP1 DUP1 PUSH1 0x20 ADD DUP3 DUP2 SUB DUP3 MSTORE PUSH1 0x2B DUP2 MSTORE PUSH1 0x20 ADD DUP1 PUSH2 0x2526 PUSH1 0x2B SWAP2 CODECOPY PUSH1 0x40 ADD SWAP2 POP POP PUSH1 0x40 MLOAD DUP1 SWAP2 SUB SWAP1 REVERT JUMPDEST PUSH1 0x0 PUSH1 0x7 DUP5 DUP2 SLOAD DUP2 LT PUSH2 0x1D41 JUMPI INVALID JUMPDEST SWAP1 PUSH1 0x0 MSTORE PUSH1 0x20 PUSH1 0x0 KECCAK256 SWAP1 PUSH1 0x3 MUL ADD SWAP1 POP CALLER PUSH20 0xFFFFFFFFFFFFFFFFFFFFFFFFFFFFFFFFFFFFFFFF AND DUP2 PUSH1 0x1 ADD PUSH1 0x1 SWAP1 SLOAD SWAP1 PUSH2 0x100 EXP SWAP1 DIV PUSH20 0xFFFFFFFFFFFFFFFFFFFFFFFFFFFFFFFFFFFFFFFF AND PUSH20 0xFFFFFFFFFFFFFFFFFFFFFFFFFFFFFFFFFFFFFFFF AND EQ PUSH2 0x1DF9 JUMPI PUSH1 0x40 MLOAD PUSH32 0x8C379A000000000000000000000000000000000000000000000000000000000 DUP2 MSTORE PUSH1 0x4 ADD DUP1 DUP1 PUSH1 0x20 ADD DUP3 DUP2 SUB DUP3 MSTORE PUSH1 0x3F DUP2 MSTORE PUSH1 0x20 ADD DUP1 PUSH2 0x23B5 PUSH1 0x3F SWAP2 CODECOPY PUSH1 0x40 ADD SWAP2 POP POP PUSH1 0x40 MLOAD DUP1 SWAP2 SUB SWAP1 REVERT JUMPDEST PUSH1 0x0 DUP2 PUSH1 0x2 ADD SLOAD EQ PUSH2 0x1E56 JUMPI PUSH1 0x40 MLOAD PUSH32 0x8C379A000000000000000000000000000000000000000000000000000000000 DUP2 MSTORE PUSH1 0x4 ADD DUP1 DUP1 PUSH1 0x20 ADD DUP3 DUP2 SUB DUP3 MSTORE PUSH1 0x37 DUP2 MSTORE PUSH1 0x20 ADD DUP1 PUSH2 0x2338 PUSH1 0x37 SWAP2 CODECOPY PUSH1 0x40 ADD SWAP2 POP POP PUSH1 0x40 MLOAD DUP1 SWAP2 SUB SWAP1 REVERT JUMPDEST DUP3 DUP2 PUSH1 0x0 ADD SWAP1 DUP1 MLOAD SWAP1 PUSH1 0x20 ADD SWAP1 PUSH2 0x1E6E SWAP3 SWAP2 SWAP1 PUSH2 0x2224 JUMP JUMPDEST POP DUP2 DUP2 PUSH1 0x1 ADD PUSH1 0x0 PUSH2 0x100 EXP DUP2 SLOAD DUP2 PUSH1 0xFF MUL NOT AND SWAP1 DUP4 ISZERO ISZERO MUL OR SWAP1 SSTORE POP POP POP POP POP JUMP JUMPDEST PUSH1 0x0 SELFBALANCE SWAP1 POP SWAP1 JUMP JUMPDEST PUSH1 0x11 PUSH1 0x0 SWAP1 SLOAD SWAP1 PUSH2 0x100 EXP SWAP1 DIV PUSH1 0xFF AND DUP2 JUMP JUMPDEST PUSH1 0xB SLOAD DUP2 JUMP JUMPDEST PUSH1 0x0 DUP1 PUSH1 0x0 DUP1 PUSH1 0x4 PUSH1 0x0 SWAP1 SLOAD SWAP1 PUSH2 0x100 EXP SWAP1 DIV PUSH20 0xFFFFFFFFFFFFFFFFFFFFFFFFFFFFFFFFFFFFFFFF AND PUSH1 0x5 SLOAD PUSH1 0x6 SLOAD PUSH1 0x11 PUSH1 0x0 SWAP1 SLOAD SWAP1 PUSH2 0x100 EXP SWAP1 DIV PUSH1 0xFF AND SWAP4 POP SWAP4 POP SWAP4 POP SWAP4 POP SWAP1 SWAP2 SWAP3 SWAP4 JUMP JUMPDEST PUSH1 0x0 PUSH1 0x12 SLOAD EQ PUSH2 0x1F5A JUMPI PUSH1 0x40 MLOAD PUSH32 0x8C379A000000000000000000000000000000000000000000000000000000000 DUP2 MSTORE PUSH1 0x4 ADD DUP1 DUP1 PUSH1 0x20 ADD DUP3 DUP2 SUB DUP3 MSTORE PUSH1 0x22 DUP2 MSTORE PUSH1 0x20 ADD DUP1 PUSH2 0x258C PUSH1 0x22 SWAP2 CODECOPY PUSH1 0x40 ADD SWAP2 POP POP PUSH1 0x40 MLOAD DUP1 SWAP2 SUB SWAP1 REVERT JUMPDEST PUSH1 0x0 ISZERO ISZERO PUSH1 0x11 PUSH1 0x0 SWAP1 SLOAD SWAP1 PUSH2 0x100 EXP SWAP1 DIV PUSH1 0xFF AND ISZERO ISZERO EQ PUSH2 0x1FC6 JUMPI PUSH1 0x40 MLOAD PUSH32 0x8C379A000000000000000000000000000000000000000000000000000000000 DUP2 MSTORE PUSH1 0x4 ADD DUP1 DUP1 PUSH1 0x20 ADD DUP3 DUP2 SUB DUP3 MSTORE PUSH1 0x25 DUP2 MSTORE PUSH1 0x20 ADD DUP1 PUSH2 0x2431 PUSH1 0x25 SWAP2 CODECOPY PUSH1 0x40 ADD SWAP2 POP POP PUSH1 0x40 MLOAD DUP1 SWAP2 SUB SWAP1 REVERT JUMPDEST PUSH1 0x6 SLOAD TIMESTAMP GT PUSH2 0x2020 JUMPI PUSH1 0x40 MLOAD PUSH32 0x8C379A000000000000000000000000000000000000000000000000000000000 DUP2 MSTORE PUSH1 0x4 ADD DUP1 DUP1 PUSH1 0x20 ADD DUP3 DUP2 SUB DUP3 MSTORE PUSH1 0x40 DUP2 MSTORE PUSH1 0x20 ADD DUP1 PUSH2 0x2487 PUSH1 0x40 SWAP2 CODECOPY PUSH1 0x40 ADD SWAP2 POP POP PUSH1 0x40 MLOAD DUP1 SWAP2 SUB SWAP1 REVERT JUMPDEST PUSH1 0x0 PUSH2 0x202A PUSH2 0xF2A JUMP JUMPDEST SWAP1 POP PUSH1 0x0 PUSH2 0x2036 PUSH2 0x13A4 JUMP JUMPDEST SWAP1 POP PUSH1 0x0 DUP1 SWAP1 POP DUP2 DUP4 GT ISZERO PUSH2 0x2055 JUMPI PUSH1 0x1 PUSH1 0x12 DUP2 SWAP1 SSTORE POP DUP3 SWAP1 POP PUSH2 0x207C JUMP JUMPDEST DUP2 DUP4 LT ISZERO PUSH2 0x206D JUMPI PUSH1 0x2 PUSH1 0x12 DUP2 SWAP1 SSTORE POP DUP2 SWAP1 POP PUSH2 0x207B JUMP JUMPDEST PUSH1 0x3 PUSH1 0x12 DUP2 SWAP1 SSTORE POP DUP2 DUP4 ADD SWAP1 POP JUMPDEST JUMPDEST SELFBALANCE PUSH1 0xB DUP2 SWAP1 SSTORE POP POP POP POP JUMP JUMPDEST PUSH1 0x1 PUSH1 0x11 PUSH1 0x0 PUSH2 0x100 EXP DUP2 SLOAD DUP2 PUSH1 0xFF MUL NOT AND SWAP1 DUP4 ISZERO ISZERO MUL OR SWAP1 SSTORE POP PUSH1 0x0 PUSH1 0x2 PUSH1 0x0 SWAP1 SLOAD SWAP1 PUSH2 0x100 EXP SWAP1 DIV PUSH20 0xFFFFFFFFFFFFFFFFFFFFFFFFFFFFFFFFFFFFFFFF AND SWAP1 POP DUP1 PUSH20 0xFFFFFFFFFFFFFFFFFFFFFFFFFFFFFFFFFFFFFFFF AND PUSH4 0xE25DB2A4 ADDRESS PUSH1 0x40 MLOAD DUP3 PUSH4 0xFFFFFFFF AND PUSH1 0xE0 SHL DUP2 MSTORE PUSH1 0x4 ADD DUP1 DUP3 PUSH20 0xFFFFFFFFFFFFFFFFFFFFFFFFFFFFFFFFFFFFFFFF AND PUSH20 0xFFFFFFFFFFFFFFFFFFFFFFFFFFFFFFFFFFFFFFFF AND DUP2 MSTORE PUSH1 0x20 ADD SWAP2 POP POP PUSH1 0x0 PUSH1 0x40 MLOAD DUP1 DUP4 SUB DUP2 PUSH1 0x0 DUP8 DUP1 EXTCODESIZE ISZERO DUP1 ISZERO PUSH2 0x2149 JUMPI PUSH1 0x0 DUP1 REVERT JUMPDEST POP GAS CALL ISZERO DUP1 ISZERO PUSH2 0x215D JUMPI RETURNDATASIZE PUSH1 0x0 DUP1 RETURNDATACOPY RETURNDATASIZE PUSH1 0x0 REVERT JUMPDEST POP POP POP POP POP JUMP JUMPDEST PUSH1 0x40 MLOAD DUP1 PUSH1 0x80 ADD PUSH1 0x40 MSTORE DUP1 PUSH1 0x60 DUP2 MSTORE PUSH1 0x20 ADD PUSH1 0x0 ISZERO ISZERO DUP2 MSTORE PUSH1 0x20 ADD PUSH1 0x0 PUSH20 0xFFFFFFFFFFFFFFFFFFFFFFFFFFFFFFFFFFFFFFFF AND DUP2 MSTORE PUSH1 0x20 ADD PUSH1 0x0 DUP2 MSTORE POP SWAP1 JUMP JUMPDEST DUP3 DUP1 SLOAD PUSH1 0x1 DUP2 PUSH1 0x1 AND ISZERO PUSH2 0x100 MUL SUB AND PUSH1 0x2 SWAP1 DIV SWAP1 PUSH1 0x0 MSTORE PUSH1 0x20 PUSH1 0x0 KECCAK256 SWAP1 PUSH1 0x1F ADD PUSH1 0x20 SWAP1 DIV DUP2 ADD SWAP3 DUP3 PUSH1 0x1F LT PUSH2 0x21E5 JUMPI DUP1 MLOAD PUSH1 0xFF NOT AND DUP4 DUP1 ADD OR DUP6 SSTORE PUSH2 0x2213 JUMP JUMPDEST DUP3 DUP1 ADD PUSH1 0x1 ADD DUP6 SSTORE DUP3 ISZERO PUSH2 0x2213 JUMPI SWAP2 DUP3 ADD JUMPDEST DUP3 DUP2 GT ISZERO PUSH2 0x2212 JUMPI DUP3 MLOAD DUP3 SSTORE SWAP2 PUSH1 0x20 ADD SWAP2 SWAP1 PUSH1 0x1 ADD SWAP1 PUSH2 0x21F7 JUMP JUMPDEST JUMPDEST POP SWAP1 POP PUSH2 0x2220 SWAP2 SWAP1 PUSH2 0x22A4 JUMP JUMPDEST POP SWAP1 JUMP JUMPDEST DUP3 DUP1 SLOAD PUSH1 0x1 DUP2 PUSH1 0x1 AND ISZERO PUSH2 0x100 MUL SUB AND PUSH1 0x2 SWAP1 DIV SWAP1 PUSH1 0x0 MSTORE PUSH1 0x20 PUSH1 0x0 KECCAK256 SWAP1 PUSH1 0x1F ADD PUSH1 0x20 SWAP1 DIV DUP2 ADD SWAP3 DUP3 PUSH1 0x1F LT PUSH2 0x2265 JUMPI DUP1 MLOAD PUSH1 0xFF NOT AND DUP4 DUP1 ADD OR DUP6 SSTORE PUSH2 0x2293 JUMP JUMPDEST DUP3 DUP1 ADD PUSH1 0x1 ADD DUP6 SSTORE DUP3 ISZERO PUSH2 0x2293 JUMPI SWAP2 DUP3 ADD JUMPDEST DUP3 DUP2 GT ISZERO PUSH2 0x2292 JUMPI DUP3 MLOAD DUP3 SSTORE SWAP2 PUSH1 0x20 ADD SWAP2 SWAP1 PUSH1 0x1 ADD SWAP1 PUSH2 0x2277 JUMP JUMPDEST JUMPDEST POP SWAP1 POP PUSH2 0x22A0 SWAP2 SWAP1 PUSH2 0x22A4 JUMP JUMPDEST POP SWAP1 JUMP JUMPDEST PUSH2 0x22C6 SWAP2 SWAP1 JUMPDEST DUP1 DUP3 GT ISZERO PUSH2 0x22C2 JUMPI PUSH1 0x0 DUP2 PUSH1 0x0 SWAP1 SSTORE POP PUSH1 0x1 ADD PUSH2 0x22AA JUMP JUMPDEST POP SWAP1 JUMP JUMPDEST SWAP1 JUMP INVALID MSIZE PUSH16 0x7520646964206E6F7420766F74652064 PUSH22 0x72696E672074686520706572696F642C20736F20796F PUSH22 0x2063616E6E6F7420636C61696D2E596F752063616E20 PUSH16 0x6E6C7920636C61696D20796F75722072 PUSH6 0x776172647320 PUSH2 0x6674 PUSH6 0x722074686520 PUSH21 0x696D6520706572696F642E417267756D656E742068 PUSH2 0x7320 PUSH2 0x6C72 PUSH6 0x616479206265 PUSH6 0x6E20766F7465 PUSH5 0x206F6E2E20 NUMBER PUSH2 0x6E6E PUSH16 0x74206265206D6F6469666965642E596F PUSH22 0x206D75737420696E76657374206174206C6561737420 PUSH21 0x6865206D696E696D756D20616D6F756E7420617320 PUSH5 0x6563696465 PUSH5 0x2062792074 PUSH9 0x652063726561746F72 0x2E MSIZE PUSH16 0x75206D75737420626520746865206372 PUSH6 0x61746F72206F PUSH7 0x20746869732061 PUSH19 0x67756D656E7420746F206D6F64696679206974 PUSH20 0x20636F6E74656E7473546865206D6F6E65792067 PUSH16 0x657320746F207468652070656F706C65 KECCAK256 PUSH24 0x686F2070617274696369706174656420696E207468652070 PUSH19 0x6F636573732E546F70696320697320616C7265 PUSH2 0x6479 KECCAK256 PUSH14 0x61726B656420617320636F6D706C PUSH6 0x7465642E596F PUSH22 0x20646F6E27742068617665207468697320746F706963 KECCAK256 PUSH16 0x6E20796F757220617661696C61626C65 KECCAK256 PUSH13 0x6973742E4D616A6F7269747920 PUSH4 0x616E206F PUSH15 0x6C792062652063616C63756C617465 PUSH5 0x2061667465 PUSH19 0x207468652074696D6520706572696F64206861 PUSH20 0x20656E6465642E596F75206861766520616C7265 PUSH2 0x6479 KECCAK256 PUSH4 0x72656174 PUSH6 0x6420616E2061 PUSH19 0x67756D656E742E596F75206D75737420626520 PUSH21 0x68652063726561746F72206F66207468697320546F PUSH17 0x696320696E206F7264657220746F20646F KECCAK256 PUSH21 0x6869732E54686520706572696F6420666F72207468 PUSH6 0x20546F706963 KECCAK256 PUSH9 0x617320616C72656164 PUSH26 0x20656E6465642E596F752063616E6E6F7420766F746520666F72 KECCAK256 PUSH21 0x686520617267756D656E742067656E657261746564 KECCAK256 PUSH3 0x792074 PUSH9 0x6520636F6E74726163 PUSH21 0x2E4D616A6F726974792068617320616C7265616479 KECCAK256 PUSH3 0x65656E KECCAK256 PUSH5 0x6563696465 PUSH5 0x2E596F7520 PUSH9 0x61766520616C726561 PUSH5 0x7920766F74 PUSH6 0x642E20596F75 KECCAK256 PUSH14 0x6179206E6F74206368616E676520 PUSH26 0x6F757220766F74652EA265627A7A72315820EC70A8754819A13B LOG4 0xD5 PUSH5 0xC522572FE9 SWAP3 PUSH13 0x149EF886D2DBEB34D392F936DB SWAP1 PUSH5 0x736F6C6343 STOP SDIV LT STOP ORIGIN MSIZE PUSH16 0x75206861766520616C72656164792063 PUSH19 0x656174656420616E20617267756D656E742E54 PUSH9 0x6520706572696F6420 PUSH7 0x6F722074686520 SLOAD PUSH16 0x7069632068617320616C726561647920 PUSH6 0x6E6465642E59 PUSH16 0x752068617665206E6F742063686F7365 PUSH15 0x207965742077686574686572207468 PUSH6 0x207374617465 PUSH14 0x656E742069732074727565206F72 KECCAK256 PUSH7 0x616C7365000000 "},"gasEstimates":{"creation":{"codeDepositCost":"1950200","executionCost":"infinite","totalCost":"infinite"},"external":{"":"187","arguments(uint256)":"infinite","calculateMonetaryGain(uint256)":"2036","calculateReputationGain(uint256)":"413","claim()":"infinite","content()":"infinite","createArgument(string,bool)":"infinite","createdArgument(address)":"1237","creator()":"1100","creatorClaim()":"infinite","endTime()":"1051","finalMonetaryTotal()":"1093","getArgumentCount()":"1132","getDetails()":"3721","getLieCount()":"1110","getMoneyPool()":"259","getTruthCount()":"1133","isCompleted()":"1119","isTopic()":"336","lieVoters(uint256)":"2063","majority()":"1094","minimumInvestment()":"1095","modifyArgument(uint256,string,bool)":"infinite","monetaryInvestment(address)":"1260","reputationInvestment(address)":"1214","totalMonetaryInvestment()":"1072","totalReputationInvestment()":"1094","truthVoters(uint256)":"2084","vote(uint256,uint256)":"infinite","voted(address)":"1259"},"internal":{"calculateMajority()":"infinite","markAsCompleted()":"infinite"}},"methodIdentifiers":{"arguments(uint256)":"0a68f631","calculateMonetaryGain(uint256)":"4dd54033","calculateReputationGain(uint256)":"b3b9ac1d","claim()":"4e71d92d","content()":"8a4d5a67","createArgument(string,bool)":"0715ef00","createdArgument(address)":"44fe9432","creator()":"02d05d3f","creatorClaim()":"9380b1cf","endTime()":"3197cbb6","finalMonetaryTotal()":"fbba5cb9","getArgumentCount()":"c234d789","getDetails()":"fbbf93a0","getLieCount()":"6e3ebc2e","getMoneyPool()":"f9588ed9","getTruthCount()":"2ec32e6d","isCompleted()":"fa391c64","isTopic()":"74986bfc","lieVoters(uint256)":"09f74db7","majority()":"b6e54bdf","minimumInvestment()":"2b925b25","modifyArgument(uint256,string,bool)":"f7ca7c72","monetaryInvestment(address)":"09c7caf1","reputationInvestment(address)":"ca94fb2b","totalMonetaryInvestment()":"53322842","totalReputationInvestment()":"e72b0148","truthVoters(uint256)":"e5d00035","vote(uint256,uint256)":"b384abef","voted(address)":"aec2ccae"}},"storageLayout":{"storage":[{"astId":723,"contract":"Topic.sol:Topic","label":"reputationFactoryAddress","offset":0,"slot":"0","type":"t_address"},{"astId":725,"contract":"Topic.sol:Topic","label":"topicAssignerAddress","offset":0,"slot":"1","type":"t_address"},{"astId":727,"contract":"Topic.sol:Topic","label":"topicFactoryAddress","offset":0,"slot":"2","type":"t_address"},{"astId":738,"contract":"Topic.sol:Topic","label":"content","offset":0,"slot":"3","type":"t_string_storage"},{"astId":740,"contract":"Topic.sol:Topic","label":"creator","offset":0,"slot":"4","type":"t_address"},{"astId":742,"contract":"Topic.sol:Topic","label":"minimumInvestment","offset":0,"slot":"5","type":"t_uint256"},{"astId":744,"contract":"Topic.sol:Topic","label":"endTime","offset":0,"slot":"6","type":"t_uint256"},{"astId":747,"contract":"Topic.sol:Topic","label":"arguments","offset":0,"slot":"7","type":"t_array(t_struct(Argument)736_storage)dyn_storage"},{"astId":751,"contract":"Topic.sol:Topic","label":"voted","offset":0,"slot":"8","type":"t_mapping(t_address,t_uint256)"},{"astId":755,"contract":"Topic.sol:Topic","label":"monetaryInvestment","offset":0,"slot":"9","type":"t_mapping(t_address,t_uint256)"},{"astId":757,"contract":"Topic.sol:Topic","label":"totalMonetaryInvestment","offset":0,"slot":"10","type":"t_uint256"},{"astId":759,"contract":"Topic.sol:Topic","label":"finalMonetaryTotal","offset":0,"slot":"11","type":"t_uint256"},{"astId":763,"contract":"Topic.sol:Topic","label":"reputationInvestment","offset":0,"slot":"12","type":"t_mapping(t_address,t_uint256)"},{"astId":765,"contract":"Topic.sol:Topic","label":"totalReputationInvestment","offset":0,"slot":"13","type":"t_uint256"},{"astId":769,"contract":"Topic.sol:Topic","label":"createdArgument","offset":0,"slot":"14","type":"t_mapping(t_address,t_uint256)"},{"astId":772,"contract":"Topic.sol:Topic","label":"truthVoters","offset":0,"slot":"15","type":"t_array(t_address_payable)dyn_storage"},{"astId":775,"contract":"Topic.sol:Topic","label":"lieVoters","offset":0,"slot":"16","type":"t_array(t_address_payable)dyn_storage"},{"astId":777,"contract":"Topic.sol:Topic","label":"isCompleted","offset":0,"slot":"17","type":"t_bool"},{"astId":779,"contract":"Topic.sol:Topic","label":"majority","offset":0,"slot":"18","type":"t_uint256"}],"types":{"t_address":{"encoding":"inplace","label":"address","numberOfBytes":"20"},"t_address_payable":{"encoding":"inplace","label":"address payable","numberOfBytes":"20"},"t_array(t_address_payable)dyn_storage":{"base":"t_address_payable","encoding":"dynamic_array","label":"address payable[]","numberOfBytes":"32"},"t_array(t_struct(Argument)736_storage)dyn_storage":{"base":"t_struct(Argument)736_storage","encoding":"dynamic_array","label":"struct Topic.Argument[]","numberOfBytes":"32"},"t_bool":{"encoding":"inplace","label":"bool","numberOfBytes":"1"},"t_mapping(t_address,t_uint256)":{"encoding":"mapping","key":"t_address","label":"mapping(address => uint256)","numberOfBytes":"32","value":"t_uint256"},"t_string_storage":{"encoding":"bytes","label":"string","numberOfBytes":"32"},"t_struct(Argument)736_storage":{"encoding":"inplace","label":"struct Topic.Argument","members":[{"astId":729,"contract":"Topic.sol:Topic","label":"content","offset":0,"slot":"0","type":"t_string_storage"},{"astId":731,"contract":"Topic.sol:Topic","label":"isTrue","offset":0,"slot":"1","type":"t_bool"},{"astId":733,"contract":"Topic.sol:Topic","label":"creator","offset":1,"slot":"1","type":"t_address"},{"astId":735,"contract":"Topic.sol:Topic","label":"voteCount","offset":0,"slot":"2","type":"t_uint256"}],"numberOfBytes":"96"},"t_uint256":{"encoding":"inplace","label":"uint256","numberOfBytes":"32"}}},"userdoc":{"methods":{}}}