{"abi":[{"inputs":[],"payable":false,"stateMutability":"nonpayable","type":"constructor"},{"constant":false,"inputs":[{"internalType":"string","name":"topicContent","type":"string"},{"internalType":"uint256","name":"minInvestment","type":"uint256"},{"internalType":"uint256","name":"hoursAvailable","type":"uint256"}],"name":"createTopic","outputs":[],"payable":true,"stateMutability":"payable","type":"function"},{"constant":true,"inputs":[{"internalType":"uint256","name":"","type":"uint256"}],"name":"deployedTopics","outputs":[{"internalType":"address","name":"","type":"address"}],"payable":false,"stateMutability":"view","type":"function"},{"constant":true,"inputs":[{"internalType":"uint256","name":"startIndex","type":"uint256"},{"internalType":"uint256","name":"endIndex","type":"uint256"}],"name":"getContracts","outputs":[{"internalType":"address[]","name":"","type":"address[]"}],"payable":false,"stateMutability":"view","type":"function"},{"constant":true,"inputs":[],"name":"getNumberOfDeployedContracts","outputs":[{"internalType":"uint256","name":"","type":"uint256"}],"payable":false,"stateMutability":"view","type":"function"},{"constant":true,"inputs":[{"internalType":"uint256[]","name":"indices","type":"uint256[]"}],"name":"getTopicsAtIndices","outputs":[{"internalType":"address[]","name":"","type":"address[]"}],"payable":false,"stateMutability":"view","type":"function"},{"constant":true,"inputs":[],"name":"owner","outputs":[{"internalType":"address","name":"","type":"address"}],"payable":false,"stateMutability":"view","type":"function"},{"constant":false,"inputs":[{"internalType":"address","name":"_topicAssignerAddress","type":"address"}],"name":"updateTopicAssignerAddress","outputs":[],"payable":false,"stateMutability":"nonpayable","type":"function"}],"devdoc":{"methods":{}},"evm":{"assembly":"    /* \"TopicFactory.sol\":88:2645  contract TopicFactory {\r... */\n  mstore(0x40, 0x80)\n    /* \"TopicFactory.sol\":391:433  0x2a705700f9DeBcB867fE1e29C564513F1e9E4BDc */\n  0x2a705700f9debcb867fe1e29c564513f1e9e4bdc\n    /* \"TopicFactory.sol\":356:433  address reputationFactoryAddress = 0x2a705700f9DeBcB867fE1e29C564513F1e9E4BDc */\n  0x02\n  exp(0x0100, 0x00)\n  dup2\n  sload\n  dup2\n  0xffffffffffffffffffffffffffffffffffffffff\n  mul\n  not\n  and\n  swap1\n  dup4\n  0xffffffffffffffffffffffffffffffffffffffff\n  and\n  mul\n  or\n  swap1\n  sstore\n  pop\n    /* \"TopicFactory.sol\":644:702  constructor() public {\r... */\n  callvalue\n    /* \"--CODEGEN--\":8:17   */\n  dup1\n    /* \"--CODEGEN--\":5:7   */\n  iszero\n  tag_1\n  jumpi\n    /* \"--CODEGEN--\":30:31   */\n  0x00\n    /* \"--CODEGEN--\":27:28   */\n  dup1\n    /* \"--CODEGEN--\":20:32   */\n  revert\n    /* \"--CODEGEN--\":5:7   */\ntag_1:\n    /* \"TopicFactory.sol\":644:702  constructor() public {\r... */\n  pop\n    /* \"TopicFactory.sol\":684:694  msg.sender */\n  caller\n    /* \"TopicFactory.sol\":676:681  owner */\n  0x00\n  dup1\n    /* \"TopicFactory.sol\":676:694  owner = msg.sender */\n  0x0100\n  exp\n  dup2\n  sload\n  dup2\n  0xffffffffffffffffffffffffffffffffffffffff\n  mul\n  not\n  and\n  swap1\n  dup4\n  0xffffffffffffffffffffffffffffffffffffffff\n  and\n  mul\n  or\n  swap1\n  sstore\n  pop\n    /* \"TopicFactory.sol\":88:2645  contract TopicFactory {\r... */\n  dataSize(sub_0)\n  dup1\n  dataOffset(sub_0)\n  0x00\n  codecopy\n  0x00\n  return\nstop\n\nsub_0: assembly {\n        /* \"TopicFactory.sol\":88:2645  contract TopicFactory {\r... */\n      mstore(0x40, 0x80)\n      jumpi(tag_1, lt(calldatasize, 0x04))\n      shr(0xe0, calldataload(0x00))\n      dup1\n      0x9c6472c0\n      gt\n      tag_9\n      jumpi\n      dup1\n      0x9c6472c0\n      eq\n      tag_5\n      jumpi\n      dup1\n      0xd7f0007a\n      eq\n      tag_6\n      jumpi\n      dup1\n      0xdc983f08\n      eq\n      tag_7\n      jumpi\n      dup1\n      0xdfb09700\n      eq\n      tag_8\n      jumpi\n      jump(tag_1)\n    tag_9:\n      dup1\n      0x012a3bd3\n      eq\n      tag_2\n      jumpi\n      dup1\n      0x0a5e47bb\n      eq\n      tag_3\n      jumpi\n      dup1\n      0x8da5cb5b\n      eq\n      tag_4\n      jumpi\n    tag_1:\n      0x00\n      dup1\n      revert\n        /* \"TopicFactory.sol\":1961:2301  function getContracts(uint startIndex, uint endIndex) public view returns (address[] memory) {\r... */\n    tag_2:\n      callvalue\n        /* \"--CODEGEN--\":8:17   */\n      dup1\n        /* \"--CODEGEN--\":5:7   */\n      iszero\n      tag_10\n      jumpi\n        /* \"--CODEGEN--\":30:31   */\n      0x00\n        /* \"--CODEGEN--\":27:28   */\n      dup1\n        /* \"--CODEGEN--\":20:32   */\n      revert\n        /* \"--CODEGEN--\":5:7   */\n    tag_10:\n        /* \"TopicFactory.sol\":1961:2301  function getContracts(uint startIndex, uint endIndex) public view returns (address[] memory) {\r... */\n      pop\n      tag_11\n      0x04\n      dup1\n      calldatasize\n      sub\n        /* \"--CODEGEN--\":13:15   */\n      0x40\n        /* \"--CODEGEN--\":8:11   */\n      dup2\n        /* \"--CODEGEN--\":5:16   */\n      lt\n        /* \"--CODEGEN--\":2:4   */\n      iszero\n      tag_12\n      jumpi\n        /* \"--CODEGEN--\":29:30   */\n      0x00\n        /* \"--CODEGEN--\":26:27   */\n      dup1\n        /* \"--CODEGEN--\":19:31   */\n      revert\n        /* \"--CODEGEN--\":2:4   */\n    tag_12:\n        /* \"TopicFactory.sol\":1961:2301  function getContracts(uint startIndex, uint endIndex) public view returns (address[] memory) {\r... */\n      dup2\n      add\n      swap1\n      dup1\n      dup1\n      calldataload\n      swap1\n      0x20\n      add\n      swap1\n      swap3\n      swap2\n      swap1\n      dup1\n      calldataload\n      swap1\n      0x20\n      add\n      swap1\n      swap3\n      swap2\n      swap1\n      pop\n      pop\n      pop\n      tag_13\n      jump\t// in\n    tag_11:\n      mload(0x40)\n      dup1\n      dup1\n      0x20\n      add\n      dup3\n      dup2\n      sub\n      dup3\n      mstore\n      dup4\n      dup2\n      dup2\n      mload\n      dup2\n      mstore\n      0x20\n      add\n      swap2\n      pop\n      dup1\n      mload\n      swap1\n      0x20\n      add\n      swap1\n      0x20\n      mul\n      dup1\n      dup4\n      dup4\n        /* \"--CODEGEN--\":23:24   */\n      0x00\n        /* \"--CODEGEN--\":8:108   */\n    tag_14:\n        /* \"--CODEGEN--\":33:36   */\n      dup4\n        /* \"--CODEGEN--\":30:31   */\n      dup2\n        /* \"--CODEGEN--\":27:37   */\n      lt\n        /* \"--CODEGEN--\":8:108   */\n      iszero\n      tag_16\n      jumpi\n        /* \"--CODEGEN--\":99:100   */\n      dup1\n        /* \"--CODEGEN--\":94:97   */\n      dup3\n        /* \"--CODEGEN--\":90:101   */\n      add\n        /* \"--CODEGEN--\":84:102   */\n      mload\n        /* \"--CODEGEN--\":80:81   */\n      dup2\n        /* \"--CODEGEN--\":75:78   */\n      dup5\n        /* \"--CODEGEN--\":71:82   */\n      add\n        /* \"--CODEGEN--\":64:103   */\n      mstore\n        /* \"--CODEGEN--\":52:54   */\n      0x20\n        /* \"--CODEGEN--\":49:50   */\n      dup2\n        /* \"--CODEGEN--\":45:55   */\n      add\n        /* \"--CODEGEN--\":40:55   */\n      swap1\n      pop\n        /* \"--CODEGEN--\":8:108   */\n      jump(tag_14)\n    tag_16:\n        /* \"--CODEGEN--\":12:26   */\n      pop\n        /* \"TopicFactory.sol\":1961:2301  function getContracts(uint startIndex, uint endIndex) public view returns (address[] memory) {\r... */\n      pop\n      pop\n      pop\n      swap1\n      pop\n      add\n      swap3\n      pop\n      pop\n      pop\n      mload(0x40)\n      dup1\n      swap2\n      sub\n      swap1\n      return\n        /* \"TopicFactory.sol\":874:1831  function createTopic(string memory topicContent, uint minInvestment, uint hoursAvailable) payable public {\r... */\n    tag_3:\n      tag_17\n      0x04\n      dup1\n      calldatasize\n      sub\n        /* \"--CODEGEN--\":13:15   */\n      0x60\n        /* \"--CODEGEN--\":8:11   */\n      dup2\n        /* \"--CODEGEN--\":5:16   */\n      lt\n        /* \"--CODEGEN--\":2:4   */\n      iszero\n      tag_18\n      jumpi\n        /* \"--CODEGEN--\":29:30   */\n      0x00\n        /* \"--CODEGEN--\":26:27   */\n      dup1\n        /* \"--CODEGEN--\":19:31   */\n      revert\n        /* \"--CODEGEN--\":2:4   */\n    tag_18:\n        /* \"TopicFactory.sol\":874:1831  function createTopic(string memory topicContent, uint minInvestment, uint hoursAvailable) payable public {\r... */\n      dup2\n      add\n      swap1\n      dup1\n      dup1\n      calldataload\n      swap1\n      0x20\n      add\n      swap1\n        /* \"--CODEGEN--\":21:32   */\n      0x0100000000\n        /* \"--CODEGEN--\":8:19   */\n      dup2\n        /* \"--CODEGEN--\":5:33   */\n      gt\n        /* \"--CODEGEN--\":2:4   */\n      iszero\n      tag_19\n      jumpi\n        /* \"--CODEGEN--\":46:47   */\n      0x00\n        /* \"--CODEGEN--\":43:44   */\n      dup1\n        /* \"--CODEGEN--\":36:48   */\n      revert\n        /* \"--CODEGEN--\":2:4   */\n    tag_19:\n        /* \"TopicFactory.sol\":874:1831  function createTopic(string memory topicContent, uint minInvestment, uint hoursAvailable) payable public {\r... */\n      dup3\n      add\n        /* \"--CODEGEN--\":35:44   */\n      dup4\n        /* \"--CODEGEN--\":28:32   */\n      0x20\n        /* \"--CODEGEN--\":12:26   */\n      dup3\n        /* \"--CODEGEN--\":8:33   */\n      add\n        /* \"--CODEGEN--\":5:45   */\n      gt\n        /* \"--CODEGEN--\":2:4   */\n      iszero\n      tag_20\n      jumpi\n        /* \"--CODEGEN--\":58:59   */\n      0x00\n        /* \"--CODEGEN--\":55:56   */\n      dup1\n        /* \"--CODEGEN--\":48:60   */\n      revert\n        /* \"--CODEGEN--\":2:4   */\n    tag_20:\n        /* \"TopicFactory.sol\":874:1831  function createTopic(string memory topicContent, uint minInvestment, uint hoursAvailable) payable public {\r... */\n      dup1\n      calldataload\n      swap1\n      0x20\n      add\n      swap2\n        /* \"--CODEGEN--\":100:109   */\n      dup5\n        /* \"--CODEGEN--\":95:96   */\n      0x01\n        /* \"--CODEGEN--\":81:93   */\n      dup4\n        /* \"--CODEGEN--\":77:97   */\n      mul\n        /* \"--CODEGEN--\":67:75   */\n      dup5\n        /* \"--CODEGEN--\":63:98   */\n      add\n        /* \"--CODEGEN--\":60:110   */\n      gt\n        /* \"--CODEGEN--\":39:50   */\n      0x0100000000\n        /* \"--CODEGEN--\":25:37   */\n      dup4\n        /* \"--CODEGEN--\":22:51   */\n      gt\n        /* \"--CODEGEN--\":11:118   */\n      or\n        /* \"--CODEGEN--\":8:10   */\n      iszero\n      tag_21\n      jumpi\n        /* \"--CODEGEN--\":131:132   */\n      0x00\n        /* \"--CODEGEN--\":128:129   */\n      dup1\n        /* \"--CODEGEN--\":121:133   */\n      revert\n        /* \"--CODEGEN--\":8:10   */\n    tag_21:\n        /* \"TopicFactory.sol\":874:1831  function createTopic(string memory topicContent, uint minInvestment, uint hoursAvailable) payable public {\r... */\n      swap2\n      swap1\n      dup1\n      dup1\n      0x1f\n      add\n      0x20\n      dup1\n      swap2\n      div\n      mul\n      0x20\n      add\n      mload(0x40)\n      swap1\n      dup2\n      add\n      0x40\n      mstore\n      dup1\n      swap4\n      swap3\n      swap2\n      swap1\n      dup2\n      dup2\n      mstore\n      0x20\n      add\n      dup4\n      dup4\n        /* \"--CODEGEN--\":30:33   */\n      dup1\n        /* \"--CODEGEN--\":22:28   */\n      dup3\n        /* \"--CODEGEN--\":14:20   */\n      dup5\n        /* \"--CODEGEN--\":1:34   */\n      calldatacopy\n        /* \"--CODEGEN--\":99:100   */\n      0x00\n        /* \"--CODEGEN--\":93:96   */\n      dup2\n        /* \"--CODEGEN--\":85:91   */\n      dup5\n        /* \"--CODEGEN--\":81:97   */\n      add\n        /* \"--CODEGEN--\":74:101   */\n      mstore\n        /* \"--CODEGEN--\":137:141   */\n      0x1f\n        /* \"--CODEGEN--\":133:142   */\n      not\n        /* \"--CODEGEN--\":126:130   */\n      0x1f\n        /* \"--CODEGEN--\":121:124   */\n      dup3\n        /* \"--CODEGEN--\":117:131   */\n      add\n        /* \"--CODEGEN--\":113:143   */\n      and\n        /* \"--CODEGEN--\":106:143   */\n      swap1\n      pop\n        /* \"--CODEGEN--\":169:172   */\n      dup1\n        /* \"--CODEGEN--\":161:167   */\n      dup4\n        /* \"--CODEGEN--\":157:173   */\n      add\n        /* \"--CODEGEN--\":147:173   */\n      swap3\n      pop\n        /* \"TopicFactory.sol\":874:1831  function createTopic(string memory topicContent, uint minInvestment, uint hoursAvailable) payable public {\r... */\n      pop\n      pop\n      pop\n      pop\n      pop\n      pop\n      swap2\n      swap3\n      swap2\n      swap3\n      swap1\n      dup1\n      calldataload\n      swap1\n      0x20\n      add\n      swap1\n      swap3\n      swap2\n      swap1\n      dup1\n      calldataload\n      swap1\n      0x20\n      add\n      swap1\n      swap3\n      swap2\n      swap1\n      pop\n      pop\n      pop\n      tag_22\n      jump\t// in\n    tag_17:\n      stop\n        /* \"TopicFactory.sol\":117:137  address public owner */\n    tag_4:\n      callvalue\n        /* \"--CODEGEN--\":8:17   */\n      dup1\n        /* \"--CODEGEN--\":5:7   */\n      iszero\n      tag_23\n      jumpi\n        /* \"--CODEGEN--\":30:31   */\n      0x00\n        /* \"--CODEGEN--\":27:28   */\n      dup1\n        /* \"--CODEGEN--\":20:32   */\n      revert\n        /* \"--CODEGEN--\":5:7   */\n    tag_23:\n        /* \"TopicFactory.sol\":117:137  address public owner */\n      pop\n      tag_24\n      tag_25\n      jump\t// in\n    tag_24:\n      mload(0x40)\n      dup1\n      dup3\n      0xffffffffffffffffffffffffffffffffffffffff\n      and\n      0xffffffffffffffffffffffffffffffffffffffff\n      and\n      dup2\n      mstore\n      0x20\n      add\n      swap2\n      pop\n      pop\n      mload(0x40)\n      dup1\n      swap2\n      sub\n      swap1\n      return\n        /* \"TopicFactory.sol\":714:862  function updateTopicAssignerAddress(address _topicAssignerAddress) public _ownerOnly {\r... */\n    tag_5:\n      callvalue\n        /* \"--CODEGEN--\":8:17   */\n      dup1\n        /* \"--CODEGEN--\":5:7   */\n      iszero\n      tag_26\n      jumpi\n        /* \"--CODEGEN--\":30:31   */\n      0x00\n        /* \"--CODEGEN--\":27:28   */\n      dup1\n        /* \"--CODEGEN--\":20:32   */\n      revert\n        /* \"--CODEGEN--\":5:7   */\n    tag_26:\n        /* \"TopicFactory.sol\":714:862  function updateTopicAssignerAddress(address _topicAssignerAddress) public _ownerOnly {\r... */\n      pop\n      tag_27\n      0x04\n      dup1\n      calldatasize\n      sub\n        /* \"--CODEGEN--\":13:15   */\n      0x20\n        /* \"--CODEGEN--\":8:11   */\n      dup2\n        /* \"--CODEGEN--\":5:16   */\n      lt\n        /* \"--CODEGEN--\":2:4   */\n      iszero\n      tag_28\n      jumpi\n        /* \"--CODEGEN--\":29:30   */\n      0x00\n        /* \"--CODEGEN--\":26:27   */\n      dup1\n        /* \"--CODEGEN--\":19:31   */\n      revert\n        /* \"--CODEGEN--\":2:4   */\n    tag_28:\n        /* \"TopicFactory.sol\":714:862  function updateTopicAssignerAddress(address _topicAssignerAddress) public _ownerOnly {\r... */\n      dup2\n      add\n      swap1\n      dup1\n      dup1\n      calldataload\n      0xffffffffffffffffffffffffffffffffffffffff\n      and\n      swap1\n      0x20\n      add\n      swap1\n      swap3\n      swap2\n      swap1\n      pop\n      pop\n      pop\n      tag_29\n      jump\t// in\n    tag_27:\n      stop\n        /* \"TopicFactory.sol\":144:175  address[] public deployedTopics */\n    tag_6:\n      callvalue\n        /* \"--CODEGEN--\":8:17   */\n      dup1\n        /* \"--CODEGEN--\":5:7   */\n      iszero\n      tag_30\n      jumpi\n        /* \"--CODEGEN--\":30:31   */\n      0x00\n        /* \"--CODEGEN--\":27:28   */\n      dup1\n        /* \"--CODEGEN--\":20:32   */\n      revert\n        /* \"--CODEGEN--\":5:7   */\n    tag_30:\n        /* \"TopicFactory.sol\":144:175  address[] public deployedTopics */\n      pop\n      tag_31\n      0x04\n      dup1\n      calldatasize\n      sub\n        /* \"--CODEGEN--\":13:15   */\n      0x20\n        /* \"--CODEGEN--\":8:11   */\n      dup2\n        /* \"--CODEGEN--\":5:16   */\n      lt\n        /* \"--CODEGEN--\":2:4   */\n      iszero\n      tag_32\n      jumpi\n        /* \"--CODEGEN--\":29:30   */\n      0x00\n        /* \"--CODEGEN--\":26:27   */\n      dup1\n        /* \"--CODEGEN--\":19:31   */\n      revert\n        /* \"--CODEGEN--\":2:4   */\n    tag_32:\n        /* \"TopicFactory.sol\":144:175  address[] public deployedTopics */\n      dup2\n      add\n      swap1\n      dup1\n      dup1\n      calldataload\n      swap1\n      0x20\n      add\n      swap1\n      swap3\n      swap2\n      swap1\n      pop\n      pop\n      pop\n      tag_33\n      jump\t// in\n    tag_31:\n      mload(0x40)\n      dup1\n      dup3\n      0xffffffffffffffffffffffffffffffffffffffff\n      and\n      0xffffffffffffffffffffffffffffffffffffffff\n      and\n      dup2\n      mstore\n      0x20\n      add\n      swap2\n      pop\n      pop\n      mload(0x40)\n      dup1\n      swap2\n      sub\n      swap1\n      return\n        /* \"TopicFactory.sol\":2313:2642  function getTopicsAtIndices(uint[] memory indices) public view returns (address[] memory) {\r... */\n    tag_7:\n      callvalue\n        /* \"--CODEGEN--\":8:17   */\n      dup1\n        /* \"--CODEGEN--\":5:7   */\n      iszero\n      tag_34\n      jumpi\n        /* \"--CODEGEN--\":30:31   */\n      0x00\n        /* \"--CODEGEN--\":27:28   */\n      dup1\n        /* \"--CODEGEN--\":20:32   */\n      revert\n        /* \"--CODEGEN--\":5:7   */\n    tag_34:\n        /* \"TopicFactory.sol\":2313:2642  function getTopicsAtIndices(uint[] memory indices) public view returns (address[] memory) {\r... */\n      pop\n      tag_35\n      0x04\n      dup1\n      calldatasize\n      sub\n        /* \"--CODEGEN--\":13:15   */\n      0x20\n        /* \"--CODEGEN--\":8:11   */\n      dup2\n        /* \"--CODEGEN--\":5:16   */\n      lt\n        /* \"--CODEGEN--\":2:4   */\n      iszero\n      tag_36\n      jumpi\n        /* \"--CODEGEN--\":29:30   */\n      0x00\n        /* \"--CODEGEN--\":26:27   */\n      dup1\n        /* \"--CODEGEN--\":19:31   */\n      revert\n        /* \"--CODEGEN--\":2:4   */\n    tag_36:\n        /* \"TopicFactory.sol\":2313:2642  function getTopicsAtIndices(uint[] memory indices) public view returns (address[] memory) {\r... */\n      dup2\n      add\n      swap1\n      dup1\n      dup1\n      calldataload\n      swap1\n      0x20\n      add\n      swap1\n        /* \"--CODEGEN--\":21:32   */\n      0x0100000000\n        /* \"--CODEGEN--\":8:19   */\n      dup2\n        /* \"--CODEGEN--\":5:33   */\n      gt\n        /* \"--CODEGEN--\":2:4   */\n      iszero\n      tag_37\n      jumpi\n        /* \"--CODEGEN--\":46:47   */\n      0x00\n        /* \"--CODEGEN--\":43:44   */\n      dup1\n        /* \"--CODEGEN--\":36:48   */\n      revert\n        /* \"--CODEGEN--\":2:4   */\n    tag_37:\n        /* \"TopicFactory.sol\":2313:2642  function getTopicsAtIndices(uint[] memory indices) public view returns (address[] memory) {\r... */\n      dup3\n      add\n        /* \"--CODEGEN--\":35:44   */\n      dup4\n        /* \"--CODEGEN--\":28:32   */\n      0x20\n        /* \"--CODEGEN--\":12:26   */\n      dup3\n        /* \"--CODEGEN--\":8:33   */\n      add\n        /* \"--CODEGEN--\":5:45   */\n      gt\n        /* \"--CODEGEN--\":2:4   */\n      iszero\n      tag_38\n      jumpi\n        /* \"--CODEGEN--\":58:59   */\n      0x00\n        /* \"--CODEGEN--\":55:56   */\n      dup1\n        /* \"--CODEGEN--\":48:60   */\n      revert\n        /* \"--CODEGEN--\":2:4   */\n    tag_38:\n        /* \"TopicFactory.sol\":2313:2642  function getTopicsAtIndices(uint[] memory indices) public view returns (address[] memory) {\r... */\n      dup1\n      calldataload\n      swap1\n      0x20\n      add\n      swap2\n        /* \"--CODEGEN--\":101:110   */\n      dup5\n        /* \"--CODEGEN--\":95:97   */\n      0x20\n        /* \"--CODEGEN--\":81:93   */\n      dup4\n        /* \"--CODEGEN--\":77:98   */\n      mul\n        /* \"--CODEGEN--\":67:75   */\n      dup5\n        /* \"--CODEGEN--\":63:99   */\n      add\n        /* \"--CODEGEN--\":60:111   */\n      gt\n        /* \"--CODEGEN--\":39:50   */\n      0x0100000000\n        /* \"--CODEGEN--\":25:37   */\n      dup4\n        /* \"--CODEGEN--\":22:51   */\n      gt\n        /* \"--CODEGEN--\":11:119   */\n      or\n        /* \"--CODEGEN--\":8:10   */\n      iszero\n      tag_39\n      jumpi\n        /* \"--CODEGEN--\":132:133   */\n      0x00\n        /* \"--CODEGEN--\":129:130   */\n      dup1\n        /* \"--CODEGEN--\":122:134   */\n      revert\n        /* \"--CODEGEN--\":8:10   */\n    tag_39:\n        /* \"TopicFactory.sol\":2313:2642  function getTopicsAtIndices(uint[] memory indices) public view returns (address[] memory) {\r... */\n      swap2\n      swap1\n      dup1\n      dup1\n      0x20\n      mul\n      0x20\n      add\n      mload(0x40)\n      swap1\n      dup2\n      add\n      0x40\n      mstore\n      dup1\n      swap4\n      swap3\n      swap2\n      swap1\n      dup2\n      dup2\n      mstore\n      0x20\n      add\n      dup4\n      dup4\n      0x20\n      mul\n        /* \"--CODEGEN--\":30:33   */\n      dup1\n        /* \"--CODEGEN--\":22:28   */\n      dup3\n        /* \"--CODEGEN--\":14:20   */\n      dup5\n        /* \"--CODEGEN--\":1:34   */\n      calldatacopy\n        /* \"--CODEGEN--\":99:100   */\n      0x00\n        /* \"--CODEGEN--\":93:96   */\n      dup2\n        /* \"--CODEGEN--\":85:91   */\n      dup5\n        /* \"--CODEGEN--\":81:97   */\n      add\n        /* \"--CODEGEN--\":74:101   */\n      mstore\n        /* \"--CODEGEN--\":137:141   */\n      0x1f\n        /* \"--CODEGEN--\":133:142   */\n      not\n        /* \"--CODEGEN--\":126:130   */\n      0x1f\n        /* \"--CODEGEN--\":121:124   */\n      dup3\n        /* \"--CODEGEN--\":117:131   */\n      add\n        /* \"--CODEGEN--\":113:143   */\n      and\n        /* \"--CODEGEN--\":106:143   */\n      swap1\n      pop\n        /* \"--CODEGEN--\":169:172   */\n      dup1\n        /* \"--CODEGEN--\":161:167   */\n      dup4\n        /* \"--CODEGEN--\":157:173   */\n      add\n        /* \"--CODEGEN--\":147:173   */\n      swap3\n      pop\n        /* \"TopicFactory.sol\":2313:2642  function getTopicsAtIndices(uint[] memory indices) public view returns (address[] memory) {\r... */\n      pop\n      pop\n      pop\n      pop\n      pop\n      pop\n      swap2\n      swap3\n      swap2\n      swap3\n      swap1\n      pop\n      pop\n      pop\n      tag_40\n      jump\t// in\n    tag_35:\n      mload(0x40)\n      dup1\n      dup1\n      0x20\n      add\n      dup3\n      dup2\n      sub\n      dup3\n      mstore\n      dup4\n      dup2\n      dup2\n      mload\n      dup2\n      mstore\n      0x20\n      add\n      swap2\n      pop\n      dup1\n      mload\n      swap1\n      0x20\n      add\n      swap1\n      0x20\n      mul\n      dup1\n      dup4\n      dup4\n        /* \"--CODEGEN--\":23:24   */\n      0x00\n        /* \"--CODEGEN--\":8:108   */\n    tag_41:\n        /* \"--CODEGEN--\":33:36   */\n      dup4\n        /* \"--CODEGEN--\":30:31   */\n      dup2\n        /* \"--CODEGEN--\":27:37   */\n      lt\n        /* \"--CODEGEN--\":8:108   */\n      iszero\n      tag_43\n      jumpi\n        /* \"--CODEGEN--\":99:100   */\n      dup1\n        /* \"--CODEGEN--\":94:97   */\n      dup3\n        /* \"--CODEGEN--\":90:101   */\n      add\n        /* \"--CODEGEN--\":84:102   */\n      mload\n        /* \"--CODEGEN--\":80:81   */\n      dup2\n        /* \"--CODEGEN--\":75:78   */\n      dup5\n        /* \"--CODEGEN--\":71:82   */\n      add\n        /* \"--CODEGEN--\":64:103   */\n      mstore\n        /* \"--CODEGEN--\":52:54   */\n      0x20\n        /* \"--CODEGEN--\":49:50   */\n      dup2\n        /* \"--CODEGEN--\":45:55   */\n      add\n        /* \"--CODEGEN--\":40:55   */\n      swap1\n      pop\n        /* \"--CODEGEN--\":8:108   */\n      jump(tag_41)\n    tag_43:\n        /* \"--CODEGEN--\":12:26   */\n      pop\n        /* \"TopicFactory.sol\":2313:2642  function getTopicsAtIndices(uint[] memory indices) public view returns (address[] memory) {\r... */\n      pop\n      pop\n      pop\n      swap1\n      pop\n      add\n      swap3\n      pop\n      pop\n      pop\n      mload(0x40)\n      dup1\n      swap2\n      sub\n      swap1\n      return\n        /* \"TopicFactory.sol\":1839:1953  function getNumberOfDeployedContracts() public view returns (uint) {\r... */\n    tag_8:\n      callvalue\n        /* \"--CODEGEN--\":8:17   */\n      dup1\n        /* \"--CODEGEN--\":5:7   */\n      iszero\n      tag_44\n      jumpi\n        /* \"--CODEGEN--\":30:31   */\n      0x00\n        /* \"--CODEGEN--\":27:28   */\n      dup1\n        /* \"--CODEGEN--\":20:32   */\n      revert\n        /* \"--CODEGEN--\":5:7   */\n    tag_44:\n        /* \"TopicFactory.sol\":1839:1953  function getNumberOfDeployedContracts() public view returns (uint) {\r... */\n      pop\n      tag_45\n      tag_46\n      jump\t// in\n    tag_45:\n      mload(0x40)\n      dup1\n      dup3\n      dup2\n      mstore\n      0x20\n      add\n      swap2\n      pop\n      pop\n      mload(0x40)\n      dup1\n      swap2\n      sub\n      swap1\n      return\n        /* \"TopicFactory.sol\":1961:2301  function getContracts(uint startIndex, uint endIndex) public view returns (address[] memory) {\r... */\n    tag_13:\n        /* \"TopicFactory.sol\":2036:2052  address[] memory */\n      0x60\n        /* \"TopicFactory.sol\":2065:2074  uint diff */\n      0x00\n        /* \"TopicFactory.sol\":2088:2098  startIndex */\n      dup4\n        /* \"TopicFactory.sol\":2077:2085  endIndex */\n      dup4\n        /* \"TopicFactory.sol\":2077:2098  endIndex - startIndex */\n      sub\n        /* \"TopicFactory.sol\":2065:2098  uint diff = endIndex - startIndex */\n      swap1\n      pop\n        /* \"TopicFactory.sol\":2109:2132  address[] memory topics */\n      0x60\n        /* \"TopicFactory.sol\":2149:2153  diff */\n      dup2\n        /* \"TopicFactory.sol\":2135:2154  new address[](diff) */\n      mload(0x40)\n      swap1\n      dup1\n      dup3\n      mstore\n      dup1\n      0x20\n      mul\n      0x20\n      add\n      dup3\n      add\n      0x40\n      mstore\n      dup1\n      iszero\n      tag_48\n      jumpi\n      dup2\n      0x20\n      add\n        /* \"--CODEGEN--\":29:31   */\n      0x20\n        /* \"--CODEGEN--\":21:27   */\n      dup3\n        /* \"--CODEGEN--\":17:32   */\n      mul\n        /* \"--CODEGEN--\":117:121   */\n      dup1\n        /* \"--CODEGEN--\":105:115   */\n      codesize\n        /* \"--CODEGEN--\":97:103   */\n      dup4\n        /* \"--CODEGEN--\":88:122   */\n      codecopy\n        /* \"--CODEGEN--\":148:152   */\n      dup1\n        /* \"--CODEGEN--\":140:146   */\n      dup3\n        /* \"--CODEGEN--\":136:153   */\n      add\n        /* \"--CODEGEN--\":126:153   */\n      swap2\n      pop\n        /* \"--CODEGEN--\":0:157   */\n      pop\n        /* \"TopicFactory.sol\":2135:2154  new address[](diff) */\n      swap1\n      pop\n    tag_48:\n      pop\n        /* \"TopicFactory.sol\":2109:2154  address[] memory topics = new address[](diff) */\n      swap1\n      pop\n        /* \"TopicFactory.sol\":2172:2178  uint i */\n      0x00\n        /* \"TopicFactory.sol\":2181:2182  0 */\n      dup1\n        /* \"TopicFactory.sol\":2172:2182  uint i = 0 */\n      swap1\n      pop\n        /* \"TopicFactory.sol\":2167:2270  for (uint i = 0; i < diff; i++) {\r... */\n    tag_49:\n        /* \"TopicFactory.sol\":2188:2192  diff */\n      dup3\n        /* \"TopicFactory.sol\":2184:2185  i */\n      dup2\n        /* \"TopicFactory.sol\":2184:2192  i < diff */\n      lt\n        /* \"TopicFactory.sol\":2167:2270  for (uint i = 0; i < diff; i++) {\r... */\n      iszero\n      tag_50\n      jumpi\n        /* \"TopicFactory.sol\":2227:2241  deployedTopics */\n      0x01\n        /* \"TopicFactory.sol\":2255:2256  i */\n      dup2\n        /* \"TopicFactory.sol\":2242:2252  startIndex */\n      dup8\n        /* \"TopicFactory.sol\":2242:2256  startIndex + i */\n      add\n        /* \"TopicFactory.sol\":2227:2257  deployedTopics[startIndex + i] */\n      dup2\n      sload\n      dup2\n      lt\n      tag_52\n      jumpi\n      invalid\n    tag_52:\n      swap1\n      0x00\n      mstore\n      keccak256(0x00, 0x20)\n      add\n      0x00\n      swap1\n      sload\n      swap1\n      0x0100\n      exp\n      swap1\n      div\n      0xffffffffffffffffffffffffffffffffffffffff\n      and\n        /* \"TopicFactory.sol\":2214:2220  topics */\n      dup3\n        /* \"TopicFactory.sol\":2221:2222  i */\n      dup3\n        /* \"TopicFactory.sol\":2214:2223  topics[i] */\n      dup2\n      mload\n      dup2\n      lt\n      tag_54\n      jumpi\n      invalid\n    tag_54:\n      0x20\n      mul\n      0x20\n      add\n      add\n        /* \"TopicFactory.sol\":2214:2258  topics[i] = (deployedTopics[startIndex + i]) */\n      swap1\n      0xffffffffffffffffffffffffffffffffffffffff\n      and\n      swap1\n      dup2\n      0xffffffffffffffffffffffffffffffffffffffff\n      and\n      dup2\n      mstore\n      pop\n      pop\n        /* \"TopicFactory.sol\":2194:2197  i++ */\n      dup1\n      dup1\n      0x01\n      add\n      swap2\n      pop\n      pop\n        /* \"TopicFactory.sol\":2167:2270  for (uint i = 0; i < diff; i++) {\r... */\n      jump(tag_49)\n    tag_50:\n      pop\n        /* \"TopicFactory.sol\":2287:2293  topics */\n      dup1\n        /* \"TopicFactory.sol\":2280:2293  return topics */\n      swap3\n      pop\n      pop\n      pop\n        /* \"TopicFactory.sol\":1961:2301  function getContracts(uint startIndex, uint endIndex) public view returns (address[] memory) {\r... */\n      swap3\n      swap2\n      pop\n      pop\n      jump\t// out\n        /* \"TopicFactory.sol\":874:1831  function createTopic(string memory topicContent, uint minInvestment, uint hoursAvailable) payable public {\r... */\n    tag_22:\n        /* \"TopicFactory.sol\":1030:1031  0 */\n      0x00\n        /* \"TopicFactory.sol\":998:1032  topicAssignerAddress != address(0) */\n      0xffffffffffffffffffffffffffffffffffffffff\n      and\n        /* \"TopicFactory.sol\":998:1018  topicAssignerAddress */\n      0x03\n      0x00\n      swap1\n      sload\n      swap1\n      0x0100\n      exp\n      swap1\n      div\n      0xffffffffffffffffffffffffffffffffffffffff\n      and\n        /* \"TopicFactory.sol\":998:1032  topicAssignerAddress != address(0) */\n      0xffffffffffffffffffffffffffffffffffffffff\n      and\n      eq\n      iszero\n        /* \"TopicFactory.sol\":990:1131  require(topicAssignerAddress != address(0), \"A Topic Assigner contract address must be assigned before being able to create any new topics.\") */\n      tag_56\n      jumpi\n      mload(0x40)\n      0x08c379a000000000000000000000000000000000000000000000000000000000\n      dup2\n      mstore\n      0x04\n      add\n      dup1\n      dup1\n      0x20\n      add\n      dup3\n      dup2\n      sub\n      dup3\n      mstore\n      0x5e\n      dup2\n      mstore\n      0x20\n      add\n      dup1\n      data_3addc1733ef1a0e4379892d889443257fa7c6127308b38f696d35dc85a617f37\n      0x5e\n      swap2\n      codecopy\n      0x60\n      add\n      swap2\n      pop\n      pop\n      mload(0x40)\n      dup1\n      swap2\n      sub\n      swap1\n      revert\n    tag_56:\n        /* \"TopicFactory.sol\":1142:1156  Topic newTopic */\n      0x00\n        /* \"TopicFactory.sol\":1169:1193  reputationFactoryAddress */\n      0x02\n      0x00\n      swap1\n      sload\n      swap1\n      0x0100\n      exp\n      swap1\n      div\n      0xffffffffffffffffffffffffffffffffffffffff\n      and\n        /* \"TopicFactory.sol\":1195:1215  topicAssignerAddress */\n      0x03\n      0x00\n      swap1\n      sload\n      swap1\n      0x0100\n      exp\n      swap1\n      div\n      0xffffffffffffffffffffffffffffffffffffffff\n      and\n        /* \"TopicFactory.sol\":1217:1229  topicContent */\n      dup6\n        /* \"TopicFactory.sol\":1231:1244  minInvestment */\n      dup6\n        /* \"TopicFactory.sol\":1246:1260  hoursAvailable */\n      dup6\n        /* \"TopicFactory.sol\":1262:1272  msg.sender */\n      caller\n        /* \"TopicFactory.sol\":1159:1273  new Topic(reputationFactoryAddress, topicAssignerAddress, topicContent, minInvestment, hoursAvailable, msg.sender) */\n      mload(0x40)\n      tag_57\n      swap1\n      tag_58\n      jump\t// in\n    tag_57:\n      dup1\n      dup8\n      0xffffffffffffffffffffffffffffffffffffffff\n      and\n      0xffffffffffffffffffffffffffffffffffffffff\n      and\n      dup2\n      mstore\n      0x20\n      add\n      dup7\n      0xffffffffffffffffffffffffffffffffffffffff\n      and\n      0xffffffffffffffffffffffffffffffffffffffff\n      and\n      dup2\n      mstore\n      0x20\n      add\n      dup1\n      0x20\n      add\n      dup6\n      dup2\n      mstore\n      0x20\n      add\n      dup5\n      dup2\n      mstore\n      0x20\n      add\n      dup4\n      0xffffffffffffffffffffffffffffffffffffffff\n      and\n      0xffffffffffffffffffffffffffffffffffffffff\n      and\n      dup2\n      mstore\n      0x20\n      add\n      dup3\n      dup2\n      sub\n      dup3\n      mstore\n      dup7\n      dup2\n      dup2\n      mload\n      dup2\n      mstore\n      0x20\n      add\n      swap2\n      pop\n      dup1\n      mload\n      swap1\n      0x20\n      add\n      swap1\n      dup1\n      dup4\n      dup4\n        /* \"--CODEGEN--\":23:24   */\n      0x00\n        /* \"--CODEGEN--\":8:108   */\n    tag_59:\n        /* \"--CODEGEN--\":33:36   */\n      dup4\n        /* \"--CODEGEN--\":30:31   */\n      dup2\n        /* \"--CODEGEN--\":27:37   */\n      lt\n        /* \"--CODEGEN--\":8:108   */\n      iszero\n      tag_61\n      jumpi\n        /* \"--CODEGEN--\":99:100   */\n      dup1\n        /* \"--CODEGEN--\":94:97   */\n      dup3\n        /* \"--CODEGEN--\":90:101   */\n      add\n        /* \"--CODEGEN--\":84:102   */\n      mload\n        /* \"--CODEGEN--\":80:81   */\n      dup2\n        /* \"--CODEGEN--\":75:78   */\n      dup5\n        /* \"--CODEGEN--\":71:82   */\n      add\n        /* \"--CODEGEN--\":64:103   */\n      mstore\n        /* \"--CODEGEN--\":52:54   */\n      0x20\n        /* \"--CODEGEN--\":49:50   */\n      dup2\n        /* \"--CODEGEN--\":45:55   */\n      add\n        /* \"--CODEGEN--\":40:55   */\n      swap1\n      pop\n        /* \"--CODEGEN--\":8:108   */\n      jump(tag_59)\n    tag_61:\n        /* \"--CODEGEN--\":12:26   */\n      pop\n        /* \"TopicFactory.sol\":1159:1273  new Topic(reputationFactoryAddress, topicAssignerAddress, topicContent, minInvestment, hoursAvailable, msg.sender) */\n      pop\n      pop\n      pop\n      swap1\n      pop\n      swap1\n      dup2\n      add\n      swap1\n      0x1f\n      and\n      dup1\n      iszero\n      tag_62\n      jumpi\n      dup1\n      dup3\n      sub\n      dup1\n      mload\n      0x01\n      dup4\n      0x20\n      sub\n      0x0100\n      exp\n      sub\n      not\n      and\n      dup2\n      mstore\n      0x20\n      add\n      swap2\n      pop\n    tag_62:\n      pop\n      swap8\n      pop\n      pop\n      pop\n      pop\n      pop\n      pop\n      pop\n      pop\n      mload(0x40)\n      dup1\n      swap2\n      sub\n      swap1\n      0x00\n      create\n      dup1\n      iszero\n        /* \"--CODEGEN--\":8:17   */\n      dup1\n        /* \"--CODEGEN--\":5:7   */\n      iszero\n      tag_63\n      jumpi\n        /* \"--CODEGEN--\":45:61   */\n      returndatasize\n        /* \"--CODEGEN--\":42:43   */\n      0x00\n        /* \"--CODEGEN--\":39:40   */\n      dup1\n        /* \"--CODEGEN--\":24:62   */\n      returndatacopy\n        /* \"--CODEGEN--\":77:93   */\n      returndatasize\n        /* \"--CODEGEN--\":74:75   */\n      0x00\n        /* \"--CODEGEN--\":67:94   */\n      revert\n        /* \"--CODEGEN--\":5:7   */\n    tag_63:\n        /* \"TopicFactory.sol\":1159:1273  new Topic(reputationFactoryAddress, topicAssignerAddress, topicContent, minInvestment, hoursAvailable, msg.sender) */\n      pop\n        /* \"TopicFactory.sol\":1142:1273  Topic newTopic = new Topic(reputationFactoryAddress, topicAssignerAddress, topicContent, minInvestment, hoursAvailable, msg.sender) */\n      swap1\n      pop\n        /* \"TopicFactory.sol\":1284:1315  address payable newTopicAddress */\n      0x00\n        /* \"TopicFactory.sol\":1342:1350  newTopic */\n      dup2\n        /* \"TopicFactory.sol\":1284:1353  address payable newTopicAddress = address(uint160(address(newTopic))) */\n      swap1\n      pop\n        /* \"TopicFactory.sol\":1364:1379  newTopicAddress */\n      dup1\n        /* \"TopicFactory.sol\":1364:1388  newTopicAddress.transfer */\n      0xffffffffffffffffffffffffffffffffffffffff\n      and\n        /* \"TopicFactory.sol\":1364:1411  newTopicAddress.transfer(address(this).balance) */\n      0x08fc\n        /* \"TopicFactory.sol\":1389:1410  address(this).balance */\n      selfbalance\n        /* \"TopicFactory.sol\":1364:1411  newTopicAddress.transfer(address(this).balance) */\n      swap1\n      dup2\n      iszero\n      mul\n      swap1\n      mload(0x40)\n      0x00\n      mload(0x40)\n      dup1\n      dup4\n      sub\n      dup2\n      dup6\n      dup9\n      dup9\n      call\n      swap4\n      pop\n      pop\n      pop\n      pop\n      iszero\n        /* \"--CODEGEN--\":8:17   */\n      dup1\n        /* \"--CODEGEN--\":5:7   */\n      iszero\n      tag_64\n      jumpi\n        /* \"--CODEGEN--\":45:61   */\n      returndatasize\n        /* \"--CODEGEN--\":42:43   */\n      0x00\n        /* \"--CODEGEN--\":39:40   */\n      dup1\n        /* \"--CODEGEN--\":24:62   */\n      returndatacopy\n        /* \"--CODEGEN--\":77:93   */\n      returndatasize\n        /* \"--CODEGEN--\":74:75   */\n      0x00\n        /* \"--CODEGEN--\":67:94   */\n      revert\n        /* \"--CODEGEN--\":5:7   */\n    tag_64:\n        /* \"TopicFactory.sol\":1364:1411  newTopicAddress.transfer(address(this).balance) */\n      pop\n        /* \"TopicFactory.sol\":1422:1436  deployedTopics */\n      0x01\n        /* \"TopicFactory.sol\":1450:1458  newTopic */\n      dup3\n        /* \"TopicFactory.sol\":1422:1460  deployedTopics.push(address(newTopic)) */\n      swap1\n      dup1\n        /* \"--CODEGEN--\":39:40   */\n      0x01\n        /* \"--CODEGEN--\":33:36   */\n      dup2\n        /* \"--CODEGEN--\":27:37   */\n      sload\n        /* \"--CODEGEN--\":23:41   */\n      add\n        /* \"--CODEGEN--\":57:67   */\n      dup1\n        /* \"--CODEGEN--\":52:55   */\n      dup3\n        /* \"--CODEGEN--\":45:68   */\n      sstore\n        /* \"--CODEGEN--\":79:89   */\n      dup1\n        /* \"--CODEGEN--\":72:89   */\n      swap2\n      pop\n        /* \"--CODEGEN--\":0:93   */\n      pop\n        /* \"TopicFactory.sol\":1422:1460  deployedTopics.push(address(newTopic)) */\n      swap1\n      0x01\n      dup3\n      sub\n      swap1\n      0x00\n      mstore\n      keccak256(0x00, 0x20)\n      add\n      0x00\n      swap1\n      swap2\n      swap3\n      swap1\n      swap2\n      swap1\n      swap2\n      0x0100\n      exp\n      dup2\n      sload\n      dup2\n      0xffffffffffffffffffffffffffffffffffffffff\n      mul\n      not\n      and\n      swap1\n      dup4\n      0xffffffffffffffffffffffffffffffffffffffff\n      and\n      mul\n      or\n      swap1\n      sstore\n      pop\n      pop\n        /* \"TopicFactory.sol\":1576:1611  ReputationFactory reputationFactory */\n      0x00\n        /* \"TopicFactory.sol\":1632:1656  reputationFactoryAddress */\n      0x02\n      0x00\n      swap1\n      sload\n      swap1\n      0x0100\n      exp\n      swap1\n      div\n      0xffffffffffffffffffffffffffffffffffffffff\n      and\n        /* \"TopicFactory.sol\":1576:1657  ReputationFactory reputationFactory = ReputationFactory(reputationFactoryAddress) */\n      swap1\n      pop\n        /* \"TopicFactory.sol\":1668:1693  address reputationAddress */\n      0x00\n        /* \"TopicFactory.sol\":1696:1713  reputationFactory */\n      dup2\n        /* \"TopicFactory.sol\":1696:1733  reputationFactory.deployedReputations */\n      0xffffffffffffffffffffffffffffffffffffffff\n      and\n      0x9f96dab0\n        /* \"TopicFactory.sol\":1734:1744  msg.sender */\n      caller\n        /* \"TopicFactory.sol\":1696:1745  reputationFactory.deployedReputations(msg.sender) */\n      mload(0x40)\n      dup3\n      0xffffffff\n      and\n      0xe0\n      shl\n      dup2\n      mstore\n      0x04\n      add\n      dup1\n      dup3\n      0xffffffffffffffffffffffffffffffffffffffff\n      and\n      0xffffffffffffffffffffffffffffffffffffffff\n      and\n      dup2\n      mstore\n      0x20\n      add\n      swap2\n      pop\n      pop\n      0x20\n      mload(0x40)\n      dup1\n      dup4\n      sub\n      dup2\n      dup7\n      dup1\n      extcodesize\n      iszero\n        /* \"--CODEGEN--\":8:17   */\n      dup1\n        /* \"--CODEGEN--\":5:7   */\n      iszero\n      tag_66\n      jumpi\n        /* \"--CODEGEN--\":30:31   */\n      0x00\n        /* \"--CODEGEN--\":27:28   */\n      dup1\n        /* \"--CODEGEN--\":20:32   */\n      revert\n        /* \"--CODEGEN--\":5:7   */\n    tag_66:\n        /* \"TopicFactory.sol\":1696:1745  reputationFactory.deployedReputations(msg.sender) */\n      pop\n      gas\n      staticcall\n      iszero\n        /* \"--CODEGEN--\":8:17   */\n      dup1\n        /* \"--CODEGEN--\":5:7   */\n      iszero\n      tag_67\n      jumpi\n        /* \"--CODEGEN--\":45:61   */\n      returndatasize\n        /* \"--CODEGEN--\":42:43   */\n      0x00\n        /* \"--CODEGEN--\":39:40   */\n      dup1\n        /* \"--CODEGEN--\":24:62   */\n      returndatacopy\n        /* \"--CODEGEN--\":77:93   */\n      returndatasize\n        /* \"--CODEGEN--\":74:75   */\n      0x00\n        /* \"--CODEGEN--\":67:94   */\n      revert\n        /* \"--CODEGEN--\":5:7   */\n    tag_67:\n        /* \"TopicFactory.sol\":1696:1745  reputationFactory.deployedReputations(msg.sender) */\n      pop\n      pop\n      pop\n      pop\n      mload(0x40)\n      returndatasize\n        /* \"--CODEGEN--\":13:15   */\n      0x20\n        /* \"--CODEGEN--\":8:11   */\n      dup2\n        /* \"--CODEGEN--\":5:16   */\n      lt\n        /* \"--CODEGEN--\":2:4   */\n      iszero\n      tag_68\n      jumpi\n        /* \"--CODEGEN--\":29:30   */\n      0x00\n        /* \"--CODEGEN--\":26:27   */\n      dup1\n        /* \"--CODEGEN--\":19:31   */\n      revert\n        /* \"--CODEGEN--\":2:4   */\n    tag_68:\n        /* \"TopicFactory.sol\":1696:1745  reputationFactory.deployedReputations(msg.sender) */\n      dup2\n      add\n      swap1\n      dup1\n      dup1\n      mload\n      swap1\n      0x20\n      add\n      swap1\n      swap3\n      swap2\n      swap1\n      pop\n      pop\n      pop\n        /* \"TopicFactory.sol\":1668:1745  address reputationAddress = reputationFactory.deployedReputations(msg.sender) */\n      swap1\n      pop\n        /* \"TopicFactory.sol\":1767:1784  reputationAddress */\n      dup1\n        /* \"TopicFactory.sol\":1756:1794  Reputation(reputationAddress).addTopic */\n      0xffffffffffffffffffffffffffffffffffffffff\n      and\n      0xc881cc60\n        /* \"TopicFactory.sol\":1795:1810  newTopicAddress */\n      dup5\n        /* \"TopicFactory.sol\":1812:1822  msg.sender */\n      caller\n        /* \"TopicFactory.sol\":1756:1823  Reputation(reputationAddress).addTopic(newTopicAddress, msg.sender) */\n      mload(0x40)\n      dup4\n      0xffffffff\n      and\n      0xe0\n      shl\n      dup2\n      mstore\n      0x04\n      add\n      dup1\n      dup4\n      0xffffffffffffffffffffffffffffffffffffffff\n      and\n      0xffffffffffffffffffffffffffffffffffffffff\n      and\n      dup2\n      mstore\n      0x20\n      add\n      dup3\n      0xffffffffffffffffffffffffffffffffffffffff\n      and\n      0xffffffffffffffffffffffffffffffffffffffff\n      and\n      dup2\n      mstore\n      0x20\n      add\n      swap3\n      pop\n      pop\n      pop\n      0x00\n      mload(0x40)\n      dup1\n      dup4\n      sub\n      dup2\n      0x00\n      dup8\n      dup1\n      extcodesize\n      iszero\n        /* \"--CODEGEN--\":8:17   */\n      dup1\n        /* \"--CODEGEN--\":5:7   */\n      iszero\n      tag_69\n      jumpi\n        /* \"--CODEGEN--\":30:31   */\n      0x00\n        /* \"--CODEGEN--\":27:28   */\n      dup1\n        /* \"--CODEGEN--\":20:32   */\n      revert\n        /* \"--CODEGEN--\":5:7   */\n    tag_69:\n        /* \"TopicFactory.sol\":1756:1823  Reputation(reputationAddress).addTopic(newTopicAddress, msg.sender) */\n      pop\n      gas\n      call\n      iszero\n        /* \"--CODEGEN--\":8:17   */\n      dup1\n        /* \"--CODEGEN--\":5:7   */\n      iszero\n      tag_70\n      jumpi\n        /* \"--CODEGEN--\":45:61   */\n      returndatasize\n        /* \"--CODEGEN--\":42:43   */\n      0x00\n        /* \"--CODEGEN--\":39:40   */\n      dup1\n        /* \"--CODEGEN--\":24:62   */\n      returndatacopy\n        /* \"--CODEGEN--\":77:93   */\n      returndatasize\n        /* \"--CODEGEN--\":74:75   */\n      0x00\n        /* \"--CODEGEN--\":67:94   */\n      revert\n        /* \"--CODEGEN--\":5:7   */\n    tag_70:\n        /* \"TopicFactory.sol\":1756:1823  Reputation(reputationAddress).addTopic(newTopicAddress, msg.sender) */\n      pop\n      pop\n      pop\n      pop\n        /* \"TopicFactory.sol\":874:1831  function createTopic(string memory topicContent, uint minInvestment, uint hoursAvailable) payable public {\r... */\n      pop\n      pop\n      pop\n      pop\n      pop\n      pop\n      pop\n      jump\t// out\n        /* \"TopicFactory.sol\":117:137  address public owner */\n    tag_25:\n      0x00\n      dup1\n      swap1\n      sload\n      swap1\n      0x0100\n      exp\n      swap1\n      div\n      0xffffffffffffffffffffffffffffffffffffffff\n      and\n      dup2\n      jump\t// out\n        /* \"TopicFactory.sol\":714:862  function updateTopicAssignerAddress(address _topicAssignerAddress) public _ownerOnly {\r... */\n    tag_29:\n        /* \"TopicFactory.sol\":536:541  owner */\n      0x00\n      dup1\n      swap1\n      sload\n      swap1\n      0x0100\n      exp\n      swap1\n      div\n      0xffffffffffffffffffffffffffffffffffffffff\n      and\n        /* \"TopicFactory.sol\":522:541  msg.sender == owner */\n      0xffffffffffffffffffffffffffffffffffffffff\n      and\n        /* \"TopicFactory.sol\":522:532  msg.sender */\n      caller\n        /* \"TopicFactory.sol\":522:541  msg.sender == owner */\n      0xffffffffffffffffffffffffffffffffffffffff\n      and\n      eq\n        /* \"TopicFactory.sol\":514:612  require(msg.sender == owner, 'You must be the creator of this Topic Factory in order to do this.') */\n      tag_72\n      jumpi\n      mload(0x40)\n      0x08c379a000000000000000000000000000000000000000000000000000000000\n      dup2\n      mstore\n      0x04\n      add\n      dup1\n      dup1\n      0x20\n      add\n      dup3\n      dup2\n      sub\n      dup3\n      mstore\n      0x42\n      dup2\n      mstore\n      0x20\n      add\n      dup1\n      data_0367d8750ab86e28eeeac06254f9df02e49d23539ed9d756e3bfa1b28596c2d1\n      0x42\n      swap2\n      codecopy\n      0x60\n      add\n      swap2\n      pop\n      pop\n      mload(0x40)\n      dup1\n      swap2\n      sub\n      swap1\n      revert\n    tag_72:\n        /* \"TopicFactory.sol\":833:854  _topicAssignerAddress */\n      dup1\n        /* \"TopicFactory.sol\":810:830  topicAssignerAddress */\n      0x03\n      0x00\n        /* \"TopicFactory.sol\":810:854  topicAssignerAddress = _topicAssignerAddress */\n      0x0100\n      exp\n      dup2\n      sload\n      dup2\n      0xffffffffffffffffffffffffffffffffffffffff\n      mul\n      not\n      and\n      swap1\n      dup4\n      0xffffffffffffffffffffffffffffffffffffffff\n      and\n      mul\n      or\n      swap1\n      sstore\n      pop\n        /* \"TopicFactory.sol\":714:862  function updateTopicAssignerAddress(address _topicAssignerAddress) public _ownerOnly {\r... */\n      pop\n      jump\t// out\n        /* \"TopicFactory.sol\":144:175  address[] public deployedTopics */\n    tag_33:\n      0x01\n      dup2\n      dup2\n      sload\n      dup2\n      lt\n      tag_74\n      jumpi\n      invalid\n    tag_74:\n      swap1\n      0x00\n      mstore\n      keccak256(0x00, 0x20)\n      add\n      0x00\n      swap2\n      pop\n      sload\n      swap1\n      0x0100\n      exp\n      swap1\n      div\n      0xffffffffffffffffffffffffffffffffffffffff\n      and\n      dup2\n      jump\t// out\n        /* \"TopicFactory.sol\":2313:2642  function getTopicsAtIndices(uint[] memory indices) public view returns (address[] memory) {\r... */\n    tag_40:\n        /* \"TopicFactory.sol\":2385:2401  address[] memory */\n      0x60\n        /* \"TopicFactory.sol\":2414:2424  uint count */\n      0x00\n        /* \"TopicFactory.sol\":2427:2434  indices */\n      dup3\n        /* \"TopicFactory.sol\":2427:2441  indices.length */\n      mload\n        /* \"TopicFactory.sol\":2414:2441  uint count = indices.length */\n      swap1\n      pop\n        /* \"TopicFactory.sol\":2452:2475  address[] memory topics */\n      0x60\n        /* \"TopicFactory.sol\":2492:2497  count */\n      dup2\n        /* \"TopicFactory.sol\":2478:2498  new address[](count) */\n      mload(0x40)\n      swap1\n      dup1\n      dup3\n      mstore\n      dup1\n      0x20\n      mul\n      0x20\n      add\n      dup3\n      add\n      0x40\n      mstore\n      dup1\n      iszero\n      tag_77\n      jumpi\n      dup2\n      0x20\n      add\n        /* \"--CODEGEN--\":29:31   */\n      0x20\n        /* \"--CODEGEN--\":21:27   */\n      dup3\n        /* \"--CODEGEN--\":17:32   */\n      mul\n        /* \"--CODEGEN--\":117:121   */\n      dup1\n        /* \"--CODEGEN--\":105:115   */\n      codesize\n        /* \"--CODEGEN--\":97:103   */\n      dup4\n        /* \"--CODEGEN--\":88:122   */\n      codecopy\n        /* \"--CODEGEN--\":148:152   */\n      dup1\n        /* \"--CODEGEN--\":140:146   */\n      dup3\n        /* \"--CODEGEN--\":136:153   */\n      add\n        /* \"--CODEGEN--\":126:153   */\n      swap2\n      pop\n        /* \"--CODEGEN--\":0:157   */\n      pop\n        /* \"TopicFactory.sol\":2478:2498  new address[](count) */\n      swap1\n      pop\n    tag_77:\n      pop\n        /* \"TopicFactory.sol\":2452:2498  address[] memory topics = new address[](count) */\n      swap1\n      pop\n        /* \"TopicFactory.sol\":2516:2522  uint i */\n      0x00\n        /* \"TopicFactory.sol\":2525:2526  0 */\n      dup1\n        /* \"TopicFactory.sol\":2516:2526  uint i = 0 */\n      swap1\n      pop\n        /* \"TopicFactory.sol\":2511:2611  for (uint i = 0; i < count; i++) {\r... */\n    tag_78:\n        /* \"TopicFactory.sol\":2532:2537  count */\n      dup3\n        /* \"TopicFactory.sol\":2528:2529  i */\n      dup2\n        /* \"TopicFactory.sol\":2528:2537  i < count */\n      lt\n        /* \"TopicFactory.sol\":2511:2611  for (uint i = 0; i < count; i++) {\r... */\n      iszero\n      tag_79\n      jumpi\n        /* \"TopicFactory.sol\":2572:2586  deployedTopics */\n      0x01\n        /* \"TopicFactory.sol\":2587:2594  indices */\n      dup6\n        /* \"TopicFactory.sol\":2595:2596  i */\n      dup3\n        /* \"TopicFactory.sol\":2587:2597  indices[i] */\n      dup2\n      mload\n      dup2\n      lt\n      tag_81\n      jumpi\n      invalid\n    tag_81:\n      0x20\n      mul\n      0x20\n      add\n      add\n      mload\n        /* \"TopicFactory.sol\":2572:2598  deployedTopics[indices[i]] */\n      dup2\n      sload\n      dup2\n      lt\n      tag_82\n      jumpi\n      invalid\n    tag_82:\n      swap1\n      0x00\n      mstore\n      keccak256(0x00, 0x20)\n      add\n      0x00\n      swap1\n      sload\n      swap1\n      0x0100\n      exp\n      swap1\n      div\n      0xffffffffffffffffffffffffffffffffffffffff\n      and\n        /* \"TopicFactory.sol\":2559:2565  topics */\n      dup3\n        /* \"TopicFactory.sol\":2566:2567  i */\n      dup3\n        /* \"TopicFactory.sol\":2559:2568  topics[i] */\n      dup2\n      mload\n      dup2\n      lt\n      tag_84\n      jumpi\n      invalid\n    tag_84:\n      0x20\n      mul\n      0x20\n      add\n      add\n        /* \"TopicFactory.sol\":2559:2599  topics[i] = (deployedTopics[indices[i]]) */\n      swap1\n      0xffffffffffffffffffffffffffffffffffffffff\n      and\n      swap1\n      dup2\n      0xffffffffffffffffffffffffffffffffffffffff\n      and\n      dup2\n      mstore\n      pop\n      pop\n        /* \"TopicFactory.sol\":2539:2542  i++ */\n      dup1\n      dup1\n      0x01\n      add\n      swap2\n      pop\n      pop\n        /* \"TopicFactory.sol\":2511:2611  for (uint i = 0; i < count; i++) {\r... */\n      jump(tag_78)\n    tag_79:\n      pop\n        /* \"TopicFactory.sol\":2628:2634  topics */\n      dup1\n        /* \"TopicFactory.sol\":2621:2634  return topics */\n      swap3\n      pop\n      pop\n      pop\n        /* \"TopicFactory.sol\":2313:2642  function getTopicsAtIndices(uint[] memory indices) public view returns (address[] memory) {\r... */\n      swap2\n      swap1\n      pop\n      jump\t// out\n        /* \"TopicFactory.sol\":1839:1953  function getNumberOfDeployedContracts() public view returns (uint) {\r... */\n    tag_46:\n        /* \"TopicFactory.sol\":1900:1904  uint */\n      0x00\n        /* \"TopicFactory.sol\":1924:1938  deployedTopics */\n      0x01\n        /* \"TopicFactory.sol\":1924:1945  deployedTopics.length */\n      dup1\n      sload\n      swap1\n      pop\n        /* \"TopicFactory.sol\":1917:1945  return deployedTopics.length */\n      swap1\n      pop\n        /* \"TopicFactory.sol\":1839:1953  function getNumberOfDeployedContracts() public view returns (uint) {\r... */\n      swap1\n      jump\t// out\n        /* \"TopicFactory.sol\":88:2645  contract TopicFactory {\r... */\n    tag_58:\n      dataSize(sub_0)\n      dup1\n      dataOffset(sub_0)\n      dup4\n      codecopy\n      add\n      swap1\n      jump\t// out\n    stop\n    data_0367d8750ab86e28eeeac06254f9df02e49d23539ed9d756e3bfa1b28596c2d1 596f75206d757374206265207468652063726561746f72206f66207468697320546f70696320466163746f727920696e206f7264657220746f20646f20746869732e\n    data_3addc1733ef1a0e4379892d889443257fa7c6127308b38f696d35dc85a617f37 4120546f7069632041737369676e657220636f6e74726163742061646472657373206d7573742062652061737369676e6564206265666f7265206265696e672061626c6520746f2063726561746520616e79206e657720746f706963732e\n\n    sub_0: assembly {\n            /* \"Topic.sol\":96:9879  contract Topic {\r... */\n          mstore(0x40, 0x80)\n            /* \"Topic.sol\":1647:2311  constructor(address repFactoryAddress, address _topicAssignerAddress, string memory topicContent, uint minInvestment, uint hoursAvailable, address sender) public {\r... */\n          callvalue\n            /* \"--CODEGEN--\":8:17   */\n          dup1\n            /* \"--CODEGEN--\":5:7   */\n          iszero\n          tag_1\n          jumpi\n            /* \"--CODEGEN--\":30:31   */\n          0x00\n            /* \"--CODEGEN--\":27:28   */\n          dup1\n            /* \"--CODEGEN--\":20:32   */\n          revert\n            /* \"--CODEGEN--\":5:7   */\n        tag_1:\n            /* \"Topic.sol\":1647:2311  constructor(address repFactoryAddress, address _topicAssignerAddress, string memory topicContent, uint minInvestment, uint hoursAvailable, address sender) public {\r... */\n          pop\n          mload(0x40)\n          sub(codesize, bytecodeSize)\n          dup1\n          bytecodeSize\n          dup4\n          codecopy\n          dup2\n          dup2\n          add\n          0x40\n          mstore\n            /* \"--CODEGEN--\":13:16   */\n          0xc0\n            /* \"--CODEGEN--\":8:11   */\n          dup2\n            /* \"--CODEGEN--\":5:17   */\n          lt\n            /* \"--CODEGEN--\":2:4   */\n          iszero\n          tag_2\n          jumpi\n            /* \"--CODEGEN--\":30:31   */\n          0x00\n            /* \"--CODEGEN--\":27:28   */\n          dup1\n            /* \"--CODEGEN--\":20:32   */\n          revert\n            /* \"--CODEGEN--\":2:4   */\n        tag_2:\n            /* \"Topic.sol\":1647:2311  constructor(address repFactoryAddress, address _topicAssignerAddress, string memory topicContent, uint minInvestment, uint hoursAvailable, address sender) public {\r... */\n          dup2\n          add\n          swap1\n          dup1\n          dup1\n          mload\n          swap1\n          0x20\n          add\n          swap1\n          swap3\n          swap2\n          swap1\n          dup1\n          mload\n          swap1\n          0x20\n          add\n          swap1\n          swap3\n          swap2\n          swap1\n          dup1\n          mload\n          mload(0x40)\n          swap4\n          swap3\n          swap2\n          swap1\n          dup5\n            /* \"--CODEGEN--\":19:30   */\n          0x0100000000\n            /* \"--CODEGEN--\":14:17   */\n          dup3\n            /* \"--CODEGEN--\":11:31   */\n          gt\n            /* \"--CODEGEN--\":8:10   */\n          iszero\n          tag_3\n          jumpi\n            /* \"--CODEGEN--\":44:45   */\n          0x00\n            /* \"--CODEGEN--\":41:42   */\n          dup1\n            /* \"--CODEGEN--\":34:46   */\n          revert\n            /* \"--CODEGEN--\":8:10   */\n        tag_3:\n            /* \"--CODEGEN--\":71:82   */\n          dup4\n            /* \"--CODEGEN--\":66:69   */\n          dup3\n            /* \"--CODEGEN--\":62:83   */\n          add\n            /* \"--CODEGEN--\":55:83   */\n          swap2\n          pop\n            /* \"--CODEGEN--\":123:127   */\n          0x20\n            /* \"--CODEGEN--\":118:121   */\n          dup3\n            /* \"--CODEGEN--\":114:128   */\n          add\n            /* \"--CODEGEN--\":159:168   */\n          dup6\n            /* \"--CODEGEN--\":141:157   */\n          dup2\n            /* \"--CODEGEN--\":138:169   */\n          gt\n            /* \"--CODEGEN--\":135:137   */\n          iszero\n          tag_4\n          jumpi\n            /* \"--CODEGEN--\":182:183   */\n          0x00\n            /* \"--CODEGEN--\":179:180   */\n          dup1\n            /* \"--CODEGEN--\":172:184   */\n          revert\n            /* \"--CODEGEN--\":135:137   */\n        tag_4:\n            /* \"--CODEGEN--\":219:222   */\n          dup3\n            /* \"--CODEGEN--\":213:223   */\n          mload\n            /* \"--CODEGEN--\":330:339   */\n          dup7\n            /* \"--CODEGEN--\":325:326   */\n          0x01\n            /* \"--CODEGEN--\":311:323   */\n          dup3\n            /* \"--CODEGEN--\":307:327   */\n          mul\n            /* \"--CODEGEN--\":289:305   */\n          dup4\n            /* \"--CODEGEN--\":285:328   */\n          add\n            /* \"--CODEGEN--\":282:340   */\n          gt\n            /* \"--CODEGEN--\":261:272   */\n          0x0100000000\n            /* \"--CODEGEN--\":247:259   */\n          dup3\n            /* \"--CODEGEN--\":244:273   */\n          gt\n            /* \"--CODEGEN--\":233:348   */\n          or\n            /* \"--CODEGEN--\":230:232   */\n          iszero\n          tag_5\n          jumpi\n            /* \"--CODEGEN--\":361:362   */\n          0x00\n            /* \"--CODEGEN--\":358:359   */\n          dup1\n            /* \"--CODEGEN--\":351:363   */\n          revert\n            /* \"--CODEGEN--\":230:232   */\n        tag_5:\n            /* \"--CODEGEN--\":384:396   */\n          dup1\n            /* \"--CODEGEN--\":379:382   */\n          dup4\n            /* \"--CODEGEN--\":372:397   */\n          mstore\n            /* \"--CODEGEN--\":420:424   */\n          0x20\n            /* \"--CODEGEN--\":415:418   */\n          dup4\n            /* \"--CODEGEN--\":411:425   */\n          add\n            /* \"--CODEGEN--\":404:425   */\n          swap3\n          pop\n            /* \"--CODEGEN--\":0:432   */\n          pop\n          pop\n            /* \"Topic.sol\":1647:2311  constructor(address repFactoryAddress, address _topicAssignerAddress, string memory topicContent, uint minInvestment, uint hoursAvailable, address sender) public {\r... */\n          swap1\n          dup1\n          mload\n          swap1\n          0x20\n          add\n          swap1\n          dup1\n          dup4\n          dup4\n            /* \"--CODEGEN--\":23:24   */\n          0x00\n            /* \"--CODEGEN--\":8:108   */\n        tag_6:\n            /* \"--CODEGEN--\":33:36   */\n          dup4\n            /* \"--CODEGEN--\":30:31   */\n          dup2\n            /* \"--CODEGEN--\":27:37   */\n          lt\n            /* \"--CODEGEN--\":8:108   */\n          iszero\n          tag_8\n          jumpi\n            /* \"--CODEGEN--\":99:100   */\n          dup1\n            /* \"--CODEGEN--\":94:97   */\n          dup3\n            /* \"--CODEGEN--\":90:101   */\n          add\n            /* \"--CODEGEN--\":84:102   */\n          mload\n            /* \"--CODEGEN--\":80:81   */\n          dup2\n            /* \"--CODEGEN--\":75:78   */\n          dup5\n            /* \"--CODEGEN--\":71:82   */\n          add\n            /* \"--CODEGEN--\":64:103   */\n          mstore\n            /* \"--CODEGEN--\":52:54   */\n          0x20\n            /* \"--CODEGEN--\":49:50   */\n          dup2\n            /* \"--CODEGEN--\":45:55   */\n          add\n            /* \"--CODEGEN--\":40:55   */\n          swap1\n          pop\n            /* \"--CODEGEN--\":8:108   */\n          jump(tag_6)\n        tag_8:\n            /* \"--CODEGEN--\":12:26   */\n          pop\n            /* \"Topic.sol\":1647:2311  constructor(address repFactoryAddress, address _topicAssignerAddress, string memory topicContent, uint minInvestment, uint hoursAvailable, address sender) public {\r... */\n          pop\n          pop\n          pop\n          swap1\n          pop\n          swap1\n          dup2\n          add\n          swap1\n          0x1f\n          and\n          dup1\n          iszero\n          tag_9\n          jumpi\n          dup1\n          dup3\n          sub\n          dup1\n          mload\n          0x01\n          dup4\n          0x20\n          sub\n          0x0100\n          exp\n          sub\n          not\n          and\n          dup2\n          mstore\n          0x20\n          add\n          swap2\n          pop\n        tag_9:\n          pop\n          0x40\n          mstore\n          0x20\n          add\n          dup1\n          mload\n          swap1\n          0x20\n          add\n          swap1\n          swap3\n          swap2\n          swap1\n          dup1\n          mload\n          swap1\n          0x20\n          add\n          swap1\n          swap3\n          swap2\n          swap1\n          dup1\n          mload\n          swap1\n          0x20\n          add\n          swap1\n          swap3\n          swap2\n          swap1\n          pop\n          pop\n          pop\n            /* \"Topic.sol\":1847:1864  repFactoryAddress */\n          dup6\n            /* \"Topic.sol\":1820:1844  reputationFactoryAddress */\n          0x00\n          dup1\n            /* \"Topic.sol\":1820:1864  reputationFactoryAddress = repFactoryAddress */\n          0x0100\n          exp\n          dup2\n          sload\n          dup2\n          0xffffffffffffffffffffffffffffffffffffffff\n          mul\n          not\n          and\n          swap1\n          dup4\n          0xffffffffffffffffffffffffffffffffffffffff\n          and\n          mul\n          or\n          swap1\n          sstore\n          pop\n            /* \"Topic.sol\":1898:1919  _topicAssignerAddress */\n          dup5\n            /* \"Topic.sol\":1875:1895  topicAssignerAddress */\n          0x01\n          0x00\n            /* \"Topic.sol\":1875:1919  topicAssignerAddress = _topicAssignerAddress */\n          0x0100\n          exp\n          dup2\n          sload\n          dup2\n          0xffffffffffffffffffffffffffffffffffffffff\n          mul\n          not\n          and\n          swap1\n          dup4\n          0xffffffffffffffffffffffffffffffffffffffff\n          and\n          mul\n          or\n          swap1\n          sstore\n          pop\n            /* \"Topic.sol\":1940:1952  topicContent */\n          dup4\n            /* \"Topic.sol\":1930:1937  content */\n          0x02\n            /* \"Topic.sol\":1930:1952  content = topicContent */\n          swap1\n          dup1\n          mload\n          swap1\n          0x20\n          add\n          swap1\n          tag_12\n          swap3\n          swap2\n          swap1\n          tag_13\n          jump\t// in\n        tag_12:\n          pop\n            /* \"Topic.sol\":1983:1996  minInvestment */\n          dup3\n            /* \"Topic.sol\":1963:1980  minimumInvestment */\n          0x04\n            /* \"Topic.sol\":1963:1996  minimumInvestment = minInvestment */\n          dup2\n          swap1\n          sstore\n          pop\n            /* \"Topic.sol\":2017:2023  sender */\n          dup1\n            /* \"Topic.sol\":2007:2014  creator */\n          0x03\n          0x00\n            /* \"Topic.sol\":2007:2023  creator = sender */\n          0x0100\n          exp\n          dup2\n          sload\n          dup2\n          0xffffffffffffffffffffffffffffffffffffffff\n          mul\n          not\n          and\n          swap1\n          dup4\n          0xffffffffffffffffffffffffffffffffffffffff\n          and\n          mul\n          or\n          swap1\n          sstore\n          pop\n            /* \"Topic.sol\":2045:2046  0 */\n          0x00\n            /* \"Topic.sol\":2034:2042  majority */\n          0x11\n            /* \"Topic.sol\":2034:2046  majority = 0 */\n          dup2\n          swap1\n          sstore\n          pop\n            /* \"Topic.sol\":2103:2112  1 seconds */\n          0x01\n            /* \"Topic.sol\":2085:2099  hoursAvailable */\n          dup3\n            /* \"Topic.sol\":2085:2112  hoursAvailable  * 1 seconds */\n          mul\n            /* \"Topic.sol\":2067:2082  block.timestamp */\n          timestamp\n            /* \"Topic.sol\":2067:2112  block.timestamp + hoursAvailable  * 1 seconds */\n          add\n            /* \"Topic.sol\":2057:2064  endTime */\n          0x05\n            /* \"Topic.sol\":2057:2112  endTime = block.timestamp + hoursAvailable  * 1 seconds */\n          dup2\n          swap1\n          sstore\n          pop\n            /* \"Topic.sol\":2146:2147  0 */\n          0x00\n            /* \"Topic.sol\":2125:2143  finalMonetaryTotal */\n          0x0a\n            /* \"Topic.sol\":2125:2147  finalMonetaryTotal = 0 */\n          dup2\n          swap1\n          sstore\n          pop\n            /* \"Topic.sol\":2216:2303  createArgument('You have not chosen yet whether the statement is true or false', false) */\n          tag_14\n          mload(0x40)\n          dup1\n          0x60\n          add\n          0x40\n          mstore\n          dup1\n          0x3e\n          dup2\n          mstore\n          0x20\n          add\n          data_aa34df7392f94c823c9355455ea589580c646b3576ea8448d1271c2c6cadfb70\n          0x3e\n          swap2\n          codecopy\n            /* \"Topic.sol\":2297:2302  false */\n          0x00\n            /* \"Topic.sol\":2216:2230  createArgument */\n          shl(0x20, tag_15)\n            /* \"Topic.sol\":2216:2303  createArgument('You have not chosen yet whether the statement is true or false', false) */\n          0x20\n          shr\n          jump\t// in\n        tag_14:\n            /* \"Topic.sol\":1647:2311  constructor(address repFactoryAddress, address _topicAssignerAddress, string memory topicContent, uint minInvestment, uint hoursAvailable, address sender) public {\r... */\n          pop\n          pop\n          pop\n          pop\n          pop\n          pop\n            /* \"Topic.sol\":96:9879  contract Topic {\r... */\n          jump(tag_16)\n            /* \"Topic.sol\":3894:4389  function createArgument(string memory argumentContent, bool belief) public _mustBeWithinTimeFrame {\r... */\n        tag_15:\n            /* \"Topic.sol\":1526:1533  endTime */\n          sload(0x05)\n            /* \"Topic.sol\":1508:1523  block.timestamp */\n          timestamp\n            /* \"Topic.sol\":1508:1533  block.timestamp < endTime */\n          lt\n            /* \"Topic.sol\":1500:1581  require(block.timestamp < endTime, 'The period for the Topic has already ended.') */\n          tag_18\n          jumpi\n          mload(0x40)\n          0x08c379a000000000000000000000000000000000000000000000000000000000\n          dup2\n          mstore\n          0x04\n          add\n          dup1\n          dup1\n          0x20\n          add\n          dup3\n          dup2\n          sub\n          dup3\n          mstore\n          0x2b\n          dup2\n          mstore\n          0x20\n          add\n          dup1\n          data_9f7f122b70f117f8950311c325d9279ba88d6a0d2b593ed4f11b7663b9f48d07\n          0x2b\n          swap2\n          codecopy\n          0x40\n          add\n          swap2\n          pop\n          pop\n          mload(0x40)\n          dup1\n          swap2\n          sub\n          swap1\n          revert\n        tag_18:\n            /* \"Topic.sol\":4042:4043  0 */\n          0x00\n            /* \"Topic.sol\":4011:4026  createdArgument */\n          0x0d\n            /* \"Topic.sol\":4011:4038  createdArgument[msg.sender] */\n          0x00\n            /* \"Topic.sol\":4027:4037  msg.sender */\n          caller\n            /* \"Topic.sol\":4011:4038  createdArgument[msg.sender] */\n          0xffffffffffffffffffffffffffffffffffffffff\n          and\n          0xffffffffffffffffffffffffffffffffffffffff\n          and\n          dup2\n          mstore\n          0x20\n          add\n          swap1\n          dup2\n          mstore\n          0x20\n          add\n          0x00\n          keccak256\n          sload\n            /* \"Topic.sol\":4011:4043  createdArgument[msg.sender] == 0 */\n          eq\n            /* \"Topic.sol\":4003:4085  require(createdArgument[msg.sender] == 0, 'You have already created an argument.') */\n          tag_20\n          jumpi\n          mload(0x40)\n          0x08c379a000000000000000000000000000000000000000000000000000000000\n          dup2\n          mstore\n          0x04\n          add\n          dup1\n          dup1\n          0x20\n          add\n          dup3\n          dup2\n          sub\n          dup3\n          mstore\n          0x25\n          dup2\n          mstore\n          0x20\n          add\n          dup1\n          data_8912f675a50e382e9fd7b592cf1cd9595235c43ce4309904b1bd35e2a18fc4ee\n          0x25\n          swap2\n          codecopy\n          0x40\n          add\n          swap2\n          pop\n          pop\n          mload(0x40)\n          dup1\n          swap2\n          sub\n          swap1\n          revert\n        tag_20:\n            /* \"Topic.sol\":4098:4125  Argument memory newArgument */\n          tag_21\n          tag_22\n          jump\t// in\n        tag_21:\n            /* \"Topic.sol\":4128:4278  Argument({\r... */\n          mload(0x40)\n          dup1\n          0x80\n          add\n          0x40\n          mstore\n          dup1\n            /* \"Topic.sol\":4161:4176  argumentContent */\n          dup5\n            /* \"Topic.sol\":4128:4278  Argument({\r... */\n          dup2\n          mstore\n          0x20\n          add\n            /* \"Topic.sol\":4199:4205  belief */\n          dup4\n            /* \"Topic.sol\":4128:4278  Argument({\r... */\n          iszero\n          iszero\n          dup2\n          mstore\n          0x20\n          add\n            /* \"Topic.sol\":4229:4239  msg.sender */\n          caller\n            /* \"Topic.sol\":4128:4278  Argument({\r... */\n          0xffffffffffffffffffffffffffffffffffffffff\n          and\n          dup2\n          mstore\n          0x20\n          add\n            /* \"Topic.sol\":4265:4266  0 */\n          0x00\n            /* \"Topic.sol\":4128:4278  Argument({\r... */\n          dup2\n          mstore\n          pop\n            /* \"Topic.sol\":4098:4278  Argument memory newArgument = Argument({\r... */\n          swap1\n          pop\n            /* \"Topic.sol\":4289:4298  arguments */\n          0x06\n            /* \"Topic.sol\":4304:4315  newArgument */\n          dup2\n            /* \"Topic.sol\":4289:4316  arguments.push(newArgument) */\n          swap1\n          dup1\n            /* \"--CODEGEN--\":39:40   */\n          0x01\n            /* \"--CODEGEN--\":33:36   */\n          dup2\n            /* \"--CODEGEN--\":27:37   */\n          sload\n            /* \"--CODEGEN--\":23:41   */\n          add\n            /* \"--CODEGEN--\":57:67   */\n          dup1\n            /* \"--CODEGEN--\":52:55   */\n          dup3\n            /* \"--CODEGEN--\":45:68   */\n          sstore\n            /* \"--CODEGEN--\":79:89   */\n          dup1\n            /* \"--CODEGEN--\":72:89   */\n          swap2\n          pop\n            /* \"--CODEGEN--\":0:93   */\n          pop\n            /* \"Topic.sol\":4289:4316  arguments.push(newArgument) */\n          swap1\n          0x01\n          dup3\n          sub\n          swap1\n          0x00\n          mstore\n          keccak256(0x00, 0x20)\n          swap1\n          0x03\n          mul\n          add\n          0x00\n          swap1\n          swap2\n          swap3\n          swap1\n          swap2\n          swap1\n          swap2\n          pop\n          0x00\n          dup3\n          add\n          mload\n          dup2\n          0x00\n          add\n          swap1\n          dup1\n          mload\n          swap1\n          0x20\n          add\n          swap1\n          tag_24\n          swap3\n          swap2\n          swap1\n          tag_25\n          jump\t// in\n        tag_24:\n          pop\n          0x20\n          dup3\n          add\n          mload\n          dup2\n          0x01\n          add\n          exp(0x0100, 0x00)\n          dup2\n          sload\n          dup2\n          0xff\n          mul\n          not\n          and\n          swap1\n          dup4\n          iszero\n          iszero\n          mul\n          or\n          swap1\n          sstore\n          pop\n          0x40\n          dup3\n          add\n          mload\n          dup2\n          0x01\n          add\n          exp(0x0100, 0x01)\n          dup2\n          sload\n          dup2\n          0xffffffffffffffffffffffffffffffffffffffff\n          mul\n          not\n          and\n          swap1\n          dup4\n          0xffffffffffffffffffffffffffffffffffffffff\n          and\n          mul\n          or\n          swap1\n          sstore\n          pop\n          0x60\n          dup3\n          add\n          mload\n          dup2\n          0x02\n          add\n          sstore\n          pop\n          pop\n          pop\n            /* \"Topic.sol\":4378:4379  1 */\n          0x01\n            /* \"Topic.sol\":4357:4375  getArgumentCount() */\n          tag_26\n            /* \"Topic.sol\":4357:4373  getArgumentCount */\n          shl(0x20, tag_27)\n            /* \"Topic.sol\":4357:4375  getArgumentCount() */\n          0x20\n          shr\n          jump\t// in\n        tag_26:\n            /* \"Topic.sol\":4357:4379  getArgumentCount() - 1 */\n          sub\n            /* \"Topic.sol\":4327:4342  createdArgument */\n          0x0d\n            /* \"Topic.sol\":4327:4354  createdArgument[msg.sender] */\n          0x00\n            /* \"Topic.sol\":4343:4353  msg.sender */\n          caller\n            /* \"Topic.sol\":4327:4354  createdArgument[msg.sender] */\n          0xffffffffffffffffffffffffffffffffffffffff\n          and\n          0xffffffffffffffffffffffffffffffffffffffff\n          and\n          dup2\n          mstore\n          0x20\n          add\n          swap1\n          dup2\n          mstore\n          0x20\n          add\n          0x00\n          keccak256\n            /* \"Topic.sol\":4327:4379  createdArgument[msg.sender] = getArgumentCount() - 1 */\n          dup2\n          swap1\n          sstore\n          pop\n            /* \"Topic.sol\":1592:1593  _ */\n          pop\n            /* \"Topic.sol\":3894:4389  function createArgument(string memory argumentContent, bool belief) public _mustBeWithinTimeFrame {\r... */\n          pop\n          pop\n          jump\t// out\n            /* \"Topic.sol\":4859:4956  function getArgumentCount() public view returns (uint) {\r... */\n        tag_27:\n            /* \"Topic.sol\":4908:4912  uint */\n          0x00\n            /* \"Topic.sol\":4932:4941  arguments */\n          0x06\n            /* \"Topic.sol\":4932:4948  arguments.length */\n          dup1\n          sload\n          swap1\n          pop\n            /* \"Topic.sol\":4925:4948  return arguments.length */\n          swap1\n          pop\n            /* \"Topic.sol\":4859:4956  function getArgumentCount() public view returns (uint) {\r... */\n          swap1\n          jump\t// out\n            /* \"Topic.sol\":96:9879  contract Topic {\r... */\n        tag_13:\n          dup3\n          dup1\n          sload\n          0x01\n          dup2\n          0x01\n          and\n          iszero\n          0x0100\n          mul\n          sub\n          and\n          0x02\n          swap1\n          div\n          swap1\n          0x00\n          mstore\n          keccak256(0x00, 0x20)\n          swap1\n          0x1f\n          add\n          0x20\n          swap1\n          div\n          dup2\n          add\n          swap3\n          dup3\n          0x1f\n          lt\n          tag_30\n          jumpi\n          dup1\n          mload\n          not(0xff)\n          and\n          dup4\n          dup1\n          add\n          or\n          dup6\n          sstore\n          jump(tag_29)\n        tag_30:\n          dup3\n          dup1\n          add\n          0x01\n          add\n          dup6\n          sstore\n          dup3\n          iszero\n          tag_29\n          jumpi\n          swap2\n          dup3\n          add\n        tag_31:\n          dup3\n          dup2\n          gt\n          iszero\n          tag_32\n          jumpi\n          dup3\n          mload\n          dup3\n          sstore\n          swap2\n          0x20\n          add\n          swap2\n          swap1\n          0x01\n          add\n          swap1\n          jump(tag_31)\n        tag_32:\n        tag_29:\n          pop\n          swap1\n          pop\n          tag_33\n          swap2\n          swap1\n          tag_34\n          jump\t// in\n        tag_33:\n          pop\n          swap1\n          jump\t// out\n        tag_22:\n          mload(0x40)\n          dup1\n          0x80\n          add\n          0x40\n          mstore\n          dup1\n          0x60\n          dup2\n          mstore\n          0x20\n          add\n          iszero(iszero(0x00))\n          dup2\n          mstore\n          0x20\n          add\n          and(0xffffffffffffffffffffffffffffffffffffffff, 0x00)\n          dup2\n          mstore\n          0x20\n          add\n          0x00\n          dup2\n          mstore\n          pop\n          swap1\n          jump\t// out\n        tag_25:\n          dup3\n          dup1\n          sload\n          0x01\n          dup2\n          0x01\n          and\n          iszero\n          0x0100\n          mul\n          sub\n          and\n          0x02\n          swap1\n          div\n          swap1\n          0x00\n          mstore\n          keccak256(0x00, 0x20)\n          swap1\n          0x1f\n          add\n          0x20\n          swap1\n          div\n          dup2\n          add\n          swap3\n          dup3\n          0x1f\n          lt\n          tag_36\n          jumpi\n          dup1\n          mload\n          not(0xff)\n          and\n          dup4\n          dup1\n          add\n          or\n          dup6\n          sstore\n          jump(tag_35)\n        tag_36:\n          dup3\n          dup1\n          add\n          0x01\n          add\n          dup6\n          sstore\n          dup3\n          iszero\n          tag_35\n          jumpi\n          swap2\n          dup3\n          add\n        tag_37:\n          dup3\n          dup2\n          gt\n          iszero\n          tag_38\n          jumpi\n          dup3\n          mload\n          dup3\n          sstore\n          swap2\n          0x20\n          add\n          swap2\n          swap1\n          0x01\n          add\n          swap1\n          jump(tag_37)\n        tag_38:\n        tag_35:\n          pop\n          swap1\n          pop\n          tag_39\n          swap2\n          swap1\n          tag_34\n          jump\t// in\n        tag_39:\n          pop\n          swap1\n          jump\t// out\n        tag_34:\n          tag_40\n          swap2\n          swap1\n        tag_41:\n          dup1\n          dup3\n          gt\n          iszero\n          tag_42\n          jumpi\n          0x00\n          dup2\n          0x00\n          swap1\n          sstore\n          pop\n          0x01\n          add\n          jump(tag_41)\n        tag_42:\n          pop\n          swap1\n          jump\n        tag_40:\n          swap1\n          jump\t// out\n        tag_16:\n          dataSize(sub_0)\n          dup1\n          dataOffset(sub_0)\n          0x00\n          codecopy\n          0x00\n          return\n        stop\n        data_8912f675a50e382e9fd7b592cf1cd9595235c43ce4309904b1bd35e2a18fc4ee 596f75206861766520616c7265616479206372656174656420616e20617267756d656e742e\n        data_9f7f122b70f117f8950311c325d9279ba88d6a0d2b593ed4f11b7663b9f48d07 54686520706572696f6420666f722074686520546f7069632068617320616c726561647920656e6465642e\n        data_aa34df7392f94c823c9355455ea589580c646b3576ea8448d1271c2c6cadfb70 596f752068617665206e6f742063686f73656e207965742077686574686572207468652073746174656d656e742069732074727565206f722066616c7365\n\n        sub_0: assembly {\n                /* \"Topic.sol\":96:9879  contract Topic {\r... */\n              mstore(0x40, 0x80)\n              jumpi(tag_1, lt(calldatasize, 0x04))\n              shr(0xe0, calldataload(0x00))\n              dup1\n              0x8a4d5a67\n              gt\n              tag_30\n              jumpi\n              dup1\n              0xca94fb2b\n              gt\n              tag_31\n              jumpi\n              dup1\n              0xf7ca7c72\n              gt\n              tag_32\n              jumpi\n              dup1\n              0xf7ca7c72\n              eq\n              tag_26\n              jumpi\n              dup1\n              0xfa391c64\n              eq\n              tag_27\n              jumpi\n              dup1\n              0xfbba5cb9\n              eq\n              tag_28\n              jumpi\n              dup1\n              0xfbbf93a0\n              eq\n              tag_29\n              jumpi\n              jump(tag_1)\n            tag_32:\n              dup1\n              0xca94fb2b\n              eq\n              tag_23\n              jumpi\n              dup1\n              0xe5d00035\n              eq\n              tag_24\n              jumpi\n              dup1\n              0xe72b0148\n              eq\n              tag_25\n              jumpi\n              jump(tag_1)\n            tag_31:\n              dup1\n              0xb384abef\n              gt\n              tag_33\n              jumpi\n              dup1\n              0xb384abef\n              eq\n              tag_19\n              jumpi\n              dup1\n              0xb3b9ac1d\n              eq\n              tag_20\n              jumpi\n              dup1\n              0xb6e54bdf\n              eq\n              tag_21\n              jumpi\n              dup1\n              0xc234d789\n              eq\n              tag_22\n              jumpi\n              jump(tag_1)\n            tag_33:\n              dup1\n              0x8a4d5a67\n              eq\n              tag_16\n              jumpi\n              dup1\n              0x9380b1cf\n              eq\n              tag_17\n              jumpi\n              dup1\n              0xaec2ccae\n              eq\n              tag_18\n              jumpi\n              jump(tag_1)\n            tag_30:\n              dup1\n              0x3197cbb6\n              gt\n              tag_34\n              jumpi\n              dup1\n              0x4e71d92d\n              gt\n              tag_35\n              jumpi\n              dup1\n              0x4e71d92d\n              eq\n              tag_12\n              jumpi\n              dup1\n              0x53322842\n              eq\n              tag_13\n              jumpi\n              dup1\n              0x6e3ebc2e\n              eq\n              tag_14\n              jumpi\n              dup1\n              0x74986bfc\n              eq\n              tag_15\n              jumpi\n              jump(tag_1)\n            tag_35:\n              dup1\n              0x3197cbb6\n              eq\n              tag_9\n              jumpi\n              dup1\n              0x44fe9432\n              eq\n              tag_10\n              jumpi\n              dup1\n              0x4dd54033\n              eq\n              tag_11\n              jumpi\n              jump(tag_1)\n            tag_34:\n              dup1\n              0x09f74db7\n              gt\n              tag_36\n              jumpi\n              dup1\n              0x09f74db7\n              eq\n              tag_5\n              jumpi\n              dup1\n              0x0a68f631\n              eq\n              tag_6\n              jumpi\n              dup1\n              0x2b925b25\n              eq\n              tag_7\n              jumpi\n              dup1\n              0x2ec32e6d\n              eq\n              tag_8\n              jumpi\n              jump(tag_1)\n            tag_36:\n              dup1\n              0x02d05d3f\n              eq\n              tag_2\n              jumpi\n              dup1\n              0x0715ef00\n              eq\n              tag_3\n              jumpi\n              dup1\n              0x09c7caf1\n              eq\n              tag_4\n              jumpi\n            tag_1:\n              stop\n                /* \"Topic.sol\":449:471  address public creator */\n            tag_2:\n              callvalue\n                /* \"--CODEGEN--\":8:17   */\n              dup1\n                /* \"--CODEGEN--\":5:7   */\n              iszero\n              tag_39\n              jumpi\n                /* \"--CODEGEN--\":30:31   */\n              0x00\n                /* \"--CODEGEN--\":27:28   */\n              dup1\n                /* \"--CODEGEN--\":20:32   */\n              revert\n                /* \"--CODEGEN--\":5:7   */\n            tag_39:\n                /* \"Topic.sol\":449:471  address public creator */\n              pop\n              tag_40\n              tag_41\n              jump\t// in\n            tag_40:\n              mload(0x40)\n              dup1\n              dup3\n              0xffffffffffffffffffffffffffffffffffffffff\n              and\n              0xffffffffffffffffffffffffffffffffffffffff\n              and\n              dup2\n              mstore\n              0x20\n              add\n              swap2\n              pop\n              pop\n              mload(0x40)\n              dup1\n              swap2\n              sub\n              swap1\n              return\n                /* \"Topic.sol\":3894:4389  function createArgument(string memory argumentContent, bool belief) public _mustBeWithinTimeFrame {\r... */\n            tag_3:\n              callvalue\n                /* \"--CODEGEN--\":8:17   */\n              dup1\n                /* \"--CODEGEN--\":5:7   */\n              iszero\n              tag_42\n              jumpi\n                /* \"--CODEGEN--\":30:31   */\n              0x00\n                /* \"--CODEGEN--\":27:28   */\n              dup1\n                /* \"--CODEGEN--\":20:32   */\n              revert\n                /* \"--CODEGEN--\":5:7   */\n            tag_42:\n                /* \"Topic.sol\":3894:4389  function createArgument(string memory argumentContent, bool belief) public _mustBeWithinTimeFrame {\r... */\n              pop\n              tag_43\n              0x04\n              dup1\n              calldatasize\n              sub\n                /* \"--CODEGEN--\":13:15   */\n              0x40\n                /* \"--CODEGEN--\":8:11   */\n              dup2\n                /* \"--CODEGEN--\":5:16   */\n              lt\n                /* \"--CODEGEN--\":2:4   */\n              iszero\n              tag_44\n              jumpi\n                /* \"--CODEGEN--\":29:30   */\n              0x00\n                /* \"--CODEGEN--\":26:27   */\n              dup1\n                /* \"--CODEGEN--\":19:31   */\n              revert\n                /* \"--CODEGEN--\":2:4   */\n            tag_44:\n                /* \"Topic.sol\":3894:4389  function createArgument(string memory argumentContent, bool belief) public _mustBeWithinTimeFrame {\r... */\n              dup2\n              add\n              swap1\n              dup1\n              dup1\n              calldataload\n              swap1\n              0x20\n              add\n              swap1\n                /* \"--CODEGEN--\":21:32   */\n              0x0100000000\n                /* \"--CODEGEN--\":8:19   */\n              dup2\n                /* \"--CODEGEN--\":5:33   */\n              gt\n                /* \"--CODEGEN--\":2:4   */\n              iszero\n              tag_45\n              jumpi\n                /* \"--CODEGEN--\":46:47   */\n              0x00\n                /* \"--CODEGEN--\":43:44   */\n              dup1\n                /* \"--CODEGEN--\":36:48   */\n              revert\n                /* \"--CODEGEN--\":2:4   */\n            tag_45:\n                /* \"Topic.sol\":3894:4389  function createArgument(string memory argumentContent, bool belief) public _mustBeWithinTimeFrame {\r... */\n              dup3\n              add\n                /* \"--CODEGEN--\":35:44   */\n              dup4\n                /* \"--CODEGEN--\":28:32   */\n              0x20\n                /* \"--CODEGEN--\":12:26   */\n              dup3\n                /* \"--CODEGEN--\":8:33   */\n              add\n                /* \"--CODEGEN--\":5:45   */\n              gt\n                /* \"--CODEGEN--\":2:4   */\n              iszero\n              tag_46\n              jumpi\n                /* \"--CODEGEN--\":58:59   */\n              0x00\n                /* \"--CODEGEN--\":55:56   */\n              dup1\n                /* \"--CODEGEN--\":48:60   */\n              revert\n                /* \"--CODEGEN--\":2:4   */\n            tag_46:\n                /* \"Topic.sol\":3894:4389  function createArgument(string memory argumentContent, bool belief) public _mustBeWithinTimeFrame {\r... */\n              dup1\n              calldataload\n              swap1\n              0x20\n              add\n              swap2\n                /* \"--CODEGEN--\":100:109   */\n              dup5\n                /* \"--CODEGEN--\":95:96   */\n              0x01\n                /* \"--CODEGEN--\":81:93   */\n              dup4\n                /* \"--CODEGEN--\":77:97   */\n              mul\n                /* \"--CODEGEN--\":67:75   */\n              dup5\n                /* \"--CODEGEN--\":63:98   */\n              add\n                /* \"--CODEGEN--\":60:110   */\n              gt\n                /* \"--CODEGEN--\":39:50   */\n              0x0100000000\n                /* \"--CODEGEN--\":25:37   */\n              dup4\n                /* \"--CODEGEN--\":22:51   */\n              gt\n                /* \"--CODEGEN--\":11:118   */\n              or\n                /* \"--CODEGEN--\":8:10   */\n              iszero\n              tag_47\n              jumpi\n                /* \"--CODEGEN--\":131:132   */\n              0x00\n                /* \"--CODEGEN--\":128:129   */\n              dup1\n                /* \"--CODEGEN--\":121:133   */\n              revert\n                /* \"--CODEGEN--\":8:10   */\n            tag_47:\n                /* \"Topic.sol\":3894:4389  function createArgument(string memory argumentContent, bool belief) public _mustBeWithinTimeFrame {\r... */\n              swap2\n              swap1\n              dup1\n              dup1\n              0x1f\n              add\n              0x20\n              dup1\n              swap2\n              div\n              mul\n              0x20\n              add\n              mload(0x40)\n              swap1\n              dup2\n              add\n              0x40\n              mstore\n              dup1\n              swap4\n              swap3\n              swap2\n              swap1\n              dup2\n              dup2\n              mstore\n              0x20\n              add\n              dup4\n              dup4\n                /* \"--CODEGEN--\":30:33   */\n              dup1\n                /* \"--CODEGEN--\":22:28   */\n              dup3\n                /* \"--CODEGEN--\":14:20   */\n              dup5\n                /* \"--CODEGEN--\":1:34   */\n              calldatacopy\n                /* \"--CODEGEN--\":99:100   */\n              0x00\n                /* \"--CODEGEN--\":93:96   */\n              dup2\n                /* \"--CODEGEN--\":85:91   */\n              dup5\n                /* \"--CODEGEN--\":81:97   */\n              add\n                /* \"--CODEGEN--\":74:101   */\n              mstore\n                /* \"--CODEGEN--\":137:141   */\n              0x1f\n                /* \"--CODEGEN--\":133:142   */\n              not\n                /* \"--CODEGEN--\":126:130   */\n              0x1f\n                /* \"--CODEGEN--\":121:124   */\n              dup3\n                /* \"--CODEGEN--\":117:131   */\n              add\n                /* \"--CODEGEN--\":113:143   */\n              and\n                /* \"--CODEGEN--\":106:143   */\n              swap1\n              pop\n                /* \"--CODEGEN--\":169:172   */\n              dup1\n                /* \"--CODEGEN--\":161:167   */\n              dup4\n                /* \"--CODEGEN--\":157:173   */\n              add\n                /* \"--CODEGEN--\":147:173   */\n              swap3\n              pop\n                /* \"Topic.sol\":3894:4389  function createArgument(string memory argumentContent, bool belief) public _mustBeWithinTimeFrame {\r... */\n              pop\n              pop\n              pop\n              pop\n              pop\n              pop\n              swap2\n              swap3\n              swap2\n              swap3\n              swap1\n              dup1\n              calldataload\n              iszero\n              iszero\n              swap1\n              0x20\n              add\n              swap1\n              swap3\n              swap2\n              swap1\n              pop\n              pop\n              pop\n              tag_48\n              jump\t// in\n            tag_43:\n              stop\n                /* \"Topic.sol\":646:696  mapping(address => uint) public monetaryInvestment */\n            tag_4:\n              callvalue\n                /* \"--CODEGEN--\":8:17   */\n              dup1\n                /* \"--CODEGEN--\":5:7   */\n              iszero\n              tag_49\n              jumpi\n                /* \"--CODEGEN--\":30:31   */\n              0x00\n                /* \"--CODEGEN--\":27:28   */\n              dup1\n                /* \"--CODEGEN--\":20:32   */\n              revert\n                /* \"--CODEGEN--\":5:7   */\n            tag_49:\n                /* \"Topic.sol\":646:696  mapping(address => uint) public monetaryInvestment */\n              pop\n              tag_50\n              0x04\n              dup1\n              calldatasize\n              sub\n                /* \"--CODEGEN--\":13:15   */\n              0x20\n                /* \"--CODEGEN--\":8:11   */\n              dup2\n                /* \"--CODEGEN--\":5:16   */\n              lt\n                /* \"--CODEGEN--\":2:4   */\n              iszero\n              tag_51\n              jumpi\n                /* \"--CODEGEN--\":29:30   */\n              0x00\n                /* \"--CODEGEN--\":26:27   */\n              dup1\n                /* \"--CODEGEN--\":19:31   */\n              revert\n                /* \"--CODEGEN--\":2:4   */\n            tag_51:\n                /* \"Topic.sol\":646:696  mapping(address => uint) public monetaryInvestment */\n              dup2\n              add\n              swap1\n              dup1\n              dup1\n              calldataload\n              0xffffffffffffffffffffffffffffffffffffffff\n              and\n              swap1\n              0x20\n              add\n              swap1\n              swap3\n              swap2\n              swap1\n              pop\n              pop\n              pop\n              tag_52\n              jump\t// in\n            tag_50:\n              mload(0x40)\n              dup1\n              dup3\n              dup2\n              mstore\n              0x20\n              add\n              swap2\n              pop\n              pop\n              mload(0x40)\n              dup1\n              swap2\n              sub\n              swap1\n              return\n                /* \"Topic.sol\":1091:1125  address payable[] public lieVoters */\n            tag_5:\n              callvalue\n                /* \"--CODEGEN--\":8:17   */\n              dup1\n                /* \"--CODEGEN--\":5:7   */\n              iszero\n              tag_53\n              jumpi\n                /* \"--CODEGEN--\":30:31   */\n              0x00\n                /* \"--CODEGEN--\":27:28   */\n              dup1\n                /* \"--CODEGEN--\":20:32   */\n              revert\n                /* \"--CODEGEN--\":5:7   */\n            tag_53:\n                /* \"Topic.sol\":1091:1125  address payable[] public lieVoters */\n              pop\n              tag_54\n              0x04\n              dup1\n              calldatasize\n              sub\n                /* \"--CODEGEN--\":13:15   */\n              0x20\n                /* \"--CODEGEN--\":8:11   */\n              dup2\n                /* \"--CODEGEN--\":5:16   */\n              lt\n                /* \"--CODEGEN--\":2:4   */\n              iszero\n              tag_55\n              jumpi\n                /* \"--CODEGEN--\":29:30   */\n              0x00\n                /* \"--CODEGEN--\":26:27   */\n              dup1\n                /* \"--CODEGEN--\":19:31   */\n              revert\n                /* \"--CODEGEN--\":2:4   */\n            tag_55:\n                /* \"Topic.sol\":1091:1125  address payable[] public lieVoters */\n              dup2\n              add\n              swap1\n              dup1\n              dup1\n              calldataload\n              swap1\n              0x20\n              add\n              swap1\n              swap3\n              swap2\n              swap1\n              pop\n              pop\n              pop\n              tag_56\n              jump\t// in\n            tag_54:\n              mload(0x40)\n              dup1\n              dup3\n              0xffffffffffffffffffffffffffffffffffffffff\n              and\n              0xffffffffffffffffffffffffffffffffffffffff\n              and\n              dup2\n              mstore\n              0x20\n              add\n              swap2\n              pop\n              pop\n              mload(0x40)\n              dup1\n              swap2\n              sub\n              swap1\n              return\n                /* \"Topic.sol\":540:567  Argument[] public arguments */\n            tag_6:\n              callvalue\n                /* \"--CODEGEN--\":8:17   */\n              dup1\n                /* \"--CODEGEN--\":5:7   */\n              iszero\n              tag_57\n              jumpi\n                /* \"--CODEGEN--\":30:31   */\n              0x00\n                /* \"--CODEGEN--\":27:28   */\n              dup1\n                /* \"--CODEGEN--\":20:32   */\n              revert\n                /* \"--CODEGEN--\":5:7   */\n            tag_57:\n                /* \"Topic.sol\":540:567  Argument[] public arguments */\n              pop\n              tag_58\n              0x04\n              dup1\n              calldatasize\n              sub\n                /* \"--CODEGEN--\":13:15   */\n              0x20\n                /* \"--CODEGEN--\":8:11   */\n              dup2\n                /* \"--CODEGEN--\":5:16   */\n              lt\n                /* \"--CODEGEN--\":2:4   */\n              iszero\n              tag_59\n              jumpi\n                /* \"--CODEGEN--\":29:30   */\n              0x00\n                /* \"--CODEGEN--\":26:27   */\n              dup1\n                /* \"--CODEGEN--\":19:31   */\n              revert\n                /* \"--CODEGEN--\":2:4   */\n            tag_59:\n                /* \"Topic.sol\":540:567  Argument[] public arguments */\n              dup2\n              add\n              swap1\n              dup1\n              dup1\n              calldataload\n              swap1\n              0x20\n              add\n              swap1\n              swap3\n              swap2\n              swap1\n              pop\n              pop\n              pop\n              tag_60\n              jump\t// in\n            tag_58:\n              mload(0x40)\n              dup1\n              dup1\n              0x20\n              add\n              dup6\n              iszero\n              iszero\n              iszero\n              iszero\n              dup2\n              mstore\n              0x20\n              add\n              dup5\n              0xffffffffffffffffffffffffffffffffffffffff\n              and\n              0xffffffffffffffffffffffffffffffffffffffff\n              and\n              dup2\n              mstore\n              0x20\n              add\n              dup4\n              dup2\n              mstore\n              0x20\n              add\n              dup3\n              dup2\n              sub\n              dup3\n              mstore\n              dup7\n              dup2\n              dup2\n              mload\n              dup2\n              mstore\n              0x20\n              add\n              swap2\n              pop\n              dup1\n              mload\n              swap1\n              0x20\n              add\n              swap1\n              dup1\n              dup4\n              dup4\n                /* \"--CODEGEN--\":23:24   */\n              0x00\n                /* \"--CODEGEN--\":8:108   */\n            tag_61:\n                /* \"--CODEGEN--\":33:36   */\n              dup4\n                /* \"--CODEGEN--\":30:31   */\n              dup2\n                /* \"--CODEGEN--\":27:37   */\n              lt\n                /* \"--CODEGEN--\":8:108   */\n              iszero\n              tag_63\n              jumpi\n                /* \"--CODEGEN--\":99:100   */\n              dup1\n                /* \"--CODEGEN--\":94:97   */\n              dup3\n                /* \"--CODEGEN--\":90:101   */\n              add\n                /* \"--CODEGEN--\":84:102   */\n              mload\n                /* \"--CODEGEN--\":80:81   */\n              dup2\n                /* \"--CODEGEN--\":75:78   */\n              dup5\n                /* \"--CODEGEN--\":71:82   */\n              add\n                /* \"--CODEGEN--\":64:103   */\n              mstore\n                /* \"--CODEGEN--\":52:54   */\n              0x20\n                /* \"--CODEGEN--\":49:50   */\n              dup2\n                /* \"--CODEGEN--\":45:55   */\n              add\n                /* \"--CODEGEN--\":40:55   */\n              swap1\n              pop\n                /* \"--CODEGEN--\":8:108   */\n              jump(tag_61)\n            tag_63:\n                /* \"--CODEGEN--\":12:26   */\n              pop\n                /* \"Topic.sol\":540:567  Argument[] public arguments */\n              pop\n              pop\n              pop\n              swap1\n              pop\n              swap1\n              dup2\n              add\n              swap1\n              0x1f\n              and\n              dup1\n              iszero\n              tag_64\n              jumpi\n              dup1\n              dup3\n              sub\n              dup1\n              mload\n              0x01\n              dup4\n              0x20\n              sub\n              0x0100\n              exp\n              sub\n              not\n              and\n              dup2\n              mstore\n              0x20\n              add\n              swap2\n              pop\n            tag_64:\n              pop\n              swap6\n              pop\n              pop\n              pop\n              pop\n              pop\n              pop\n              mload(0x40)\n              dup1\n              swap2\n              sub\n              swap1\n              return\n                /* \"Topic.sol\":478:507  uint public minimumInvestment */\n            tag_7:\n              callvalue\n                /* \"--CODEGEN--\":8:17   */\n              dup1\n                /* \"--CODEGEN--\":5:7   */\n              iszero\n              tag_65\n              jumpi\n                /* \"--CODEGEN--\":30:31   */\n              0x00\n                /* \"--CODEGEN--\":27:28   */\n              dup1\n                /* \"--CODEGEN--\":20:32   */\n              revert\n                /* \"--CODEGEN--\":5:7   */\n            tag_65:\n                /* \"Topic.sol\":478:507  uint public minimumInvestment */\n              pop\n              tag_66\n              tag_67\n              jump\t// in\n            tag_66:\n              mload(0x40)\n              dup1\n              dup3\n              dup2\n              mstore\n              0x20\n              add\n              swap2\n              pop\n              pop\n              mload(0x40)\n              dup1\n              swap2\n              sub\n              swap1\n              return\n                /* \"Topic.sol\":3690:3786  function getTruthCount() public view returns (uint) {\r... */\n            tag_8:\n              callvalue\n                /* \"--CODEGEN--\":8:17   */\n              dup1\n                /* \"--CODEGEN--\":5:7   */\n              iszero\n              tag_68\n              jumpi\n                /* \"--CODEGEN--\":30:31   */\n              0x00\n                /* \"--CODEGEN--\":27:28   */\n              dup1\n                /* \"--CODEGEN--\":20:32   */\n              revert\n                /* \"--CODEGEN--\":5:7   */\n            tag_68:\n                /* \"Topic.sol\":3690:3786  function getTruthCount() public view returns (uint) {\r... */\n              pop\n              tag_69\n              tag_70\n              jump\t// in\n            tag_69:\n              mload(0x40)\n              dup1\n              dup3\n              dup2\n              mstore\n              0x20\n              add\n              swap2\n              pop\n              pop\n              mload(0x40)\n              dup1\n              swap2\n              sub\n              swap1\n              return\n                /* \"Topic.sol\":514:533  uint public endTime */\n            tag_9:\n              callvalue\n                /* \"--CODEGEN--\":8:17   */\n              dup1\n                /* \"--CODEGEN--\":5:7   */\n              iszero\n              tag_71\n              jumpi\n                /* \"--CODEGEN--\":30:31   */\n              0x00\n                /* \"--CODEGEN--\":27:28   */\n              dup1\n                /* \"--CODEGEN--\":20:32   */\n              revert\n                /* \"--CODEGEN--\":5:7   */\n            tag_71:\n                /* \"Topic.sol\":514:533  uint public endTime */\n              pop\n              tag_72\n              tag_73\n              jump\t// in\n            tag_72:\n              mload(0x40)\n              dup1\n              dup3\n              dup2\n              mstore\n              0x20\n              add\n              swap2\n              pop\n              pop\n              mload(0x40)\n              dup1\n              swap2\n              sub\n              swap1\n              return\n                /* \"Topic.sol\":952:999  mapping(address => uint) public createdArgument */\n            tag_10:\n              callvalue\n                /* \"--CODEGEN--\":8:17   */\n              dup1\n                /* \"--CODEGEN--\":5:7   */\n              iszero\n              tag_74\n              jumpi\n                /* \"--CODEGEN--\":30:31   */\n              0x00\n                /* \"--CODEGEN--\":27:28   */\n              dup1\n                /* \"--CODEGEN--\":20:32   */\n              revert\n                /* \"--CODEGEN--\":5:7   */\n            tag_74:\n                /* \"Topic.sol\":952:999  mapping(address => uint) public createdArgument */\n              pop\n              tag_75\n              0x04\n              dup1\n              calldatasize\n              sub\n                /* \"--CODEGEN--\":13:15   */\n              0x20\n                /* \"--CODEGEN--\":8:11   */\n              dup2\n                /* \"--CODEGEN--\":5:16   */\n              lt\n                /* \"--CODEGEN--\":2:4   */\n              iszero\n              tag_76\n              jumpi\n                /* \"--CODEGEN--\":29:30   */\n              0x00\n                /* \"--CODEGEN--\":26:27   */\n              dup1\n                /* \"--CODEGEN--\":19:31   */\n              revert\n                /* \"--CODEGEN--\":2:4   */\n            tag_76:\n                /* \"Topic.sol\":952:999  mapping(address => uint) public createdArgument */\n              dup2\n              add\n              swap1\n              dup1\n              dup1\n              calldataload\n              0xffffffffffffffffffffffffffffffffffffffff\n              and\n              swap1\n              0x20\n              add\n              swap1\n              swap3\n              swap2\n              swap1\n              pop\n              pop\n              pop\n              tag_77\n              jump\t// in\n            tag_75:\n              mload(0x40)\n              dup1\n              dup3\n              dup2\n              mstore\n              0x20\n              add\n              swap2\n              pop\n              pop\n              mload(0x40)\n              dup1\n              swap2\n              sub\n              swap1\n              return\n                /* \"Topic.sol\":6830:7049  function calculateMonetaryGain(uint initialMonetaryInvestment) public view returns (uint) {\r... */\n            tag_11:\n              callvalue\n                /* \"--CODEGEN--\":8:17   */\n              dup1\n                /* \"--CODEGEN--\":5:7   */\n              iszero\n              tag_78\n              jumpi\n                /* \"--CODEGEN--\":30:31   */\n              0x00\n                /* \"--CODEGEN--\":27:28   */\n              dup1\n                /* \"--CODEGEN--\":20:32   */\n              revert\n                /* \"--CODEGEN--\":5:7   */\n            tag_78:\n                /* \"Topic.sol\":6830:7049  function calculateMonetaryGain(uint initialMonetaryInvestment) public view returns (uint) {\r... */\n              pop\n              tag_79\n              0x04\n              dup1\n              calldatasize\n              sub\n                /* \"--CODEGEN--\":13:15   */\n              0x20\n                /* \"--CODEGEN--\":8:11   */\n              dup2\n                /* \"--CODEGEN--\":5:16   */\n              lt\n                /* \"--CODEGEN--\":2:4   */\n              iszero\n              tag_80\n              jumpi\n                /* \"--CODEGEN--\":29:30   */\n              0x00\n                /* \"--CODEGEN--\":26:27   */\n              dup1\n                /* \"--CODEGEN--\":19:31   */\n              revert\n                /* \"--CODEGEN--\":2:4   */\n            tag_80:\n                /* \"Topic.sol\":6830:7049  function calculateMonetaryGain(uint initialMonetaryInvestment) public view returns (uint) {\r... */\n              dup2\n              add\n              swap1\n              dup1\n              dup1\n              calldataload\n              swap1\n              0x20\n              add\n              swap1\n              swap3\n              swap2\n              swap1\n              pop\n              pop\n              pop\n              tag_81\n              jump\t// in\n            tag_79:\n              mload(0x40)\n              dup1\n              dup3\n              dup2\n              mstore\n              0x20\n              add\n              swap2\n              pop\n              pop\n              mload(0x40)\n              dup1\n              swap2\n              sub\n              swap1\n              return\n                /* \"Topic.sol\":5970:6822  function claim() public {\r... */\n            tag_12:\n              callvalue\n                /* \"--CODEGEN--\":8:17   */\n              dup1\n                /* \"--CODEGEN--\":5:7   */\n              iszero\n              tag_82\n              jumpi\n                /* \"--CODEGEN--\":30:31   */\n              0x00\n                /* \"--CODEGEN--\":27:28   */\n              dup1\n                /* \"--CODEGEN--\":20:32   */\n              revert\n                /* \"--CODEGEN--\":5:7   */\n            tag_82:\n                /* \"Topic.sol\":5970:6822  function claim() public {\r... */\n              pop\n              tag_83\n              tag_84\n              jump\t// in\n            tag_83:\n              stop\n                /* \"Topic.sol\":729:764  uint public totalMonetaryInvestment */\n            tag_13:\n              callvalue\n                /* \"--CODEGEN--\":8:17   */\n              dup1\n                /* \"--CODEGEN--\":5:7   */\n              iszero\n              tag_85\n              jumpi\n                /* \"--CODEGEN--\":30:31   */\n              0x00\n                /* \"--CODEGEN--\":27:28   */\n              dup1\n                /* \"--CODEGEN--\":20:32   */\n              revert\n                /* \"--CODEGEN--\":5:7   */\n            tag_85:\n                /* \"Topic.sol\":729:764  uint public totalMonetaryInvestment */\n              pop\n              tag_86\n              tag_87\n              jump\t// in\n            tag_86:\n              mload(0x40)\n              dup1\n              dup3\n              dup2\n              mstore\n              0x20\n              add\n              swap2\n              pop\n              pop\n              mload(0x40)\n              dup1\n              swap2\n              sub\n              swap1\n              return\n                /* \"Topic.sol\":3794:3886  function getLieCount() public view returns (uint) {\r... */\n            tag_14:\n              callvalue\n                /* \"--CODEGEN--\":8:17   */\n              dup1\n                /* \"--CODEGEN--\":5:7   */\n              iszero\n              tag_88\n              jumpi\n                /* \"--CODEGEN--\":30:31   */\n              0x00\n                /* \"--CODEGEN--\":27:28   */\n              dup1\n                /* \"--CODEGEN--\":20:32   */\n              revert\n                /* \"--CODEGEN--\":5:7   */\n            tag_88:\n                /* \"Topic.sol\":3794:3886  function getLieCount() public view returns (uint) {\r... */\n              pop\n              tag_89\n              tag_90\n              jump\t// in\n            tag_89:\n              mload(0x40)\n              dup1\n              dup3\n              dup2\n              mstore\n              0x20\n              add\n              swap2\n              pop\n              pop\n              mload(0x40)\n              dup1\n              swap2\n              sub\n              swap1\n              return\n                /* \"Topic.sol\":2319:2395  function isTopic() public pure returns (bool) {\r... */\n            tag_15:\n              callvalue\n                /* \"--CODEGEN--\":8:17   */\n              dup1\n                /* \"--CODEGEN--\":5:7   */\n              iszero\n              tag_91\n              jumpi\n                /* \"--CODEGEN--\":30:31   */\n              0x00\n                /* \"--CODEGEN--\":27:28   */\n              dup1\n                /* \"--CODEGEN--\":20:32   */\n              revert\n                /* \"--CODEGEN--\":5:7   */\n            tag_91:\n                /* \"Topic.sol\":2319:2395  function isTopic() public pure returns (bool) {\r... */\n              pop\n              tag_92\n              tag_93\n              jump\t// in\n            tag_92:\n              mload(0x40)\n              dup1\n              dup3\n              iszero\n              iszero\n              iszero\n              iszero\n              dup2\n              mstore\n              0x20\n              add\n              swap2\n              pop\n              pop\n              mload(0x40)\n              dup1\n              swap2\n              sub\n              swap1\n              return\n                /* \"Topic.sol\":421:442  string public content */\n            tag_16:\n              callvalue\n                /* \"--CODEGEN--\":8:17   */\n              dup1\n                /* \"--CODEGEN--\":5:7   */\n              iszero\n              tag_94\n              jumpi\n                /* \"--CODEGEN--\":30:31   */\n              0x00\n                /* \"--CODEGEN--\":27:28   */\n              dup1\n                /* \"--CODEGEN--\":20:32   */\n              revert\n                /* \"--CODEGEN--\":5:7   */\n            tag_94:\n                /* \"Topic.sol\":421:442  string public content */\n              pop\n              tag_95\n              tag_96\n              jump\t// in\n            tag_95:\n              mload(0x40)\n              dup1\n              dup1\n              0x20\n              add\n              dup3\n              dup2\n              sub\n              dup3\n              mstore\n              dup4\n              dup2\n              dup2\n              mload\n              dup2\n              mstore\n              0x20\n              add\n              swap2\n              pop\n              dup1\n              mload\n              swap1\n              0x20\n              add\n              swap1\n              dup1\n              dup4\n              dup4\n                /* \"--CODEGEN--\":23:24   */\n              0x00\n                /* \"--CODEGEN--\":8:108   */\n            tag_97:\n                /* \"--CODEGEN--\":33:36   */\n              dup4\n                /* \"--CODEGEN--\":30:31   */\n              dup2\n                /* \"--CODEGEN--\":27:37   */\n              lt\n                /* \"--CODEGEN--\":8:108   */\n              iszero\n              tag_99\n              jumpi\n                /* \"--CODEGEN--\":99:100   */\n              dup1\n                /* \"--CODEGEN--\":94:97   */\n              dup3\n                /* \"--CODEGEN--\":90:101   */\n              add\n                /* \"--CODEGEN--\":84:102   */\n              mload\n                /* \"--CODEGEN--\":80:81   */\n              dup2\n                /* \"--CODEGEN--\":75:78   */\n              dup5\n                /* \"--CODEGEN--\":71:82   */\n              add\n                /* \"--CODEGEN--\":64:103   */\n              mstore\n                /* \"--CODEGEN--\":52:54   */\n              0x20\n                /* \"--CODEGEN--\":49:50   */\n              dup2\n                /* \"--CODEGEN--\":45:55   */\n              add\n                /* \"--CODEGEN--\":40:55   */\n              swap1\n              pop\n                /* \"--CODEGEN--\":8:108   */\n              jump(tag_97)\n            tag_99:\n                /* \"--CODEGEN--\":12:26   */\n              pop\n                /* \"Topic.sol\":421:442  string public content */\n              pop\n              pop\n              pop\n              swap1\n              pop\n              swap1\n              dup2\n              add\n              swap1\n              0x1f\n              and\n              dup1\n              iszero\n              tag_100\n              jumpi\n              dup1\n              dup3\n              sub\n              dup1\n              mload\n              0x01\n              dup4\n              0x20\n              sub\n              0x0100\n              exp\n              sub\n              not\n              and\n              dup2\n              mstore\n              0x20\n              add\n              swap2\n              pop\n            tag_100:\n              pop\n              swap3\n              pop\n              pop\n              pop\n              mload(0x40)\n              dup1\n              swap2\n              sub\n              swap1\n              return\n                /* \"Topic.sol\":7251:7584  function creatorClaim() public _creatorOnly {\r... */\n            tag_17:\n              callvalue\n                /* \"--CODEGEN--\":8:17   */\n              dup1\n                /* \"--CODEGEN--\":5:7   */\n              iszero\n              tag_101\n              jumpi\n                /* \"--CODEGEN--\":30:31   */\n              0x00\n                /* \"--CODEGEN--\":27:28   */\n              dup1\n                /* \"--CODEGEN--\":20:32   */\n              revert\n                /* \"--CODEGEN--\":5:7   */\n            tag_101:\n                /* \"Topic.sol\":7251:7584  function creatorClaim() public _creatorOnly {\r... */\n              pop\n              tag_102\n              tag_103\n              jump\t// in\n            tag_102:\n              stop\n                /* \"Topic.sol\":576:613  mapping(address => uint) public voted */\n            tag_18:\n              callvalue\n                /* \"--CODEGEN--\":8:17   */\n              dup1\n                /* \"--CODEGEN--\":5:7   */\n              iszero\n              tag_104\n              jumpi\n                /* \"--CODEGEN--\":30:31   */\n              0x00\n                /* \"--CODEGEN--\":27:28   */\n              dup1\n                /* \"--CODEGEN--\":20:32   */\n              revert\n                /* \"--CODEGEN--\":5:7   */\n            tag_104:\n                /* \"Topic.sol\":576:613  mapping(address => uint) public voted */\n              pop\n              tag_105\n              0x04\n              dup1\n              calldatasize\n              sub\n                /* \"--CODEGEN--\":13:15   */\n              0x20\n                /* \"--CODEGEN--\":8:11   */\n              dup2\n                /* \"--CODEGEN--\":5:16   */\n              lt\n                /* \"--CODEGEN--\":2:4   */\n              iszero\n              tag_106\n              jumpi\n                /* \"--CODEGEN--\":29:30   */\n              0x00\n                /* \"--CODEGEN--\":26:27   */\n              dup1\n                /* \"--CODEGEN--\":19:31   */\n              revert\n                /* \"--CODEGEN--\":2:4   */\n            tag_106:\n                /* \"Topic.sol\":576:613  mapping(address => uint) public voted */\n              dup2\n              add\n              swap1\n              dup1\n              dup1\n              calldataload\n              0xffffffffffffffffffffffffffffffffffffffff\n              and\n              swap1\n              0x20\n              add\n              swap1\n              swap3\n              swap2\n              swap1\n              pop\n              pop\n              pop\n              tag_107\n              jump\t// in\n            tag_105:\n              mload(0x40)\n              dup1\n              dup3\n              dup2\n              mstore\n              0x20\n              add\n              swap2\n              pop\n              pop\n              mload(0x40)\n              dup1\n              swap2\n              sub\n              swap1\n              return\n                /* \"Topic.sol\":2457:3682  function vote(uint argumentIndex, uint reputationCost) public payable _mustBeWithinTimeFrame {\r... */\n            tag_19:\n              tag_108\n              0x04\n              dup1\n              calldatasize\n              sub\n                /* \"--CODEGEN--\":13:15   */\n              0x40\n                /* \"--CODEGEN--\":8:11   */\n              dup2\n                /* \"--CODEGEN--\":5:16   */\n              lt\n                /* \"--CODEGEN--\":2:4   */\n              iszero\n              tag_109\n              jumpi\n                /* \"--CODEGEN--\":29:30   */\n              0x00\n                /* \"--CODEGEN--\":26:27   */\n              dup1\n                /* \"--CODEGEN--\":19:31   */\n              revert\n                /* \"--CODEGEN--\":2:4   */\n            tag_109:\n                /* \"Topic.sol\":2457:3682  function vote(uint argumentIndex, uint reputationCost) public payable _mustBeWithinTimeFrame {\r... */\n              dup2\n              add\n              swap1\n              dup1\n              dup1\n              calldataload\n              swap1\n              0x20\n              add\n              swap1\n              swap3\n              swap2\n              swap1\n              dup1\n              calldataload\n              swap1\n              0x20\n              add\n              swap1\n              swap3\n              swap2\n              swap1\n              pop\n              pop\n              pop\n              tag_110\n              jump\t// in\n            tag_108:\n              stop\n                /* \"Topic.sol\":7057:7243  function calculateReputationGain(uint initialReputation) pure public returns (uint) {\r... */\n            tag_20:\n              callvalue\n                /* \"--CODEGEN--\":8:17   */\n              dup1\n                /* \"--CODEGEN--\":5:7   */\n              iszero\n              tag_111\n              jumpi\n                /* \"--CODEGEN--\":30:31   */\n              0x00\n                /* \"--CODEGEN--\":27:28   */\n              dup1\n                /* \"--CODEGEN--\":20:32   */\n              revert\n                /* \"--CODEGEN--\":5:7   */\n            tag_111:\n                /* \"Topic.sol\":7057:7243  function calculateReputationGain(uint initialReputation) pure public returns (uint) {\r... */\n              pop\n              tag_112\n              0x04\n              dup1\n              calldatasize\n              sub\n                /* \"--CODEGEN--\":13:15   */\n              0x20\n                /* \"--CODEGEN--\":8:11   */\n              dup2\n                /* \"--CODEGEN--\":5:16   */\n              lt\n                /* \"--CODEGEN--\":2:4   */\n              iszero\n              tag_113\n              jumpi\n                /* \"--CODEGEN--\":29:30   */\n              0x00\n                /* \"--CODEGEN--\":26:27   */\n              dup1\n                /* \"--CODEGEN--\":19:31   */\n              revert\n                /* \"--CODEGEN--\":2:4   */\n            tag_113:\n                /* \"Topic.sol\":7057:7243  function calculateReputationGain(uint initialReputation) pure public returns (uint) {\r... */\n              dup2\n              add\n              swap1\n              dup1\n              dup1\n              calldataload\n              swap1\n              0x20\n              add\n              swap1\n              swap3\n              swap2\n              swap1\n              pop\n              pop\n              pop\n              tag_114\n              jump\t// in\n            tag_112:\n              mload(0x40)\n              dup1\n              dup3\n              dup2\n              mstore\n              0x20\n              add\n              swap2\n              pop\n              pop\n              mload(0x40)\n              dup1\n              swap2\n              sub\n              swap1\n              return\n                /* \"Topic.sol\":1181:1201  uint public majority */\n            tag_21:\n              callvalue\n                /* \"--CODEGEN--\":8:17   */\n              dup1\n                /* \"--CODEGEN--\":5:7   */\n              iszero\n              tag_115\n              jumpi\n                /* \"--CODEGEN--\":30:31   */\n              0x00\n                /* \"--CODEGEN--\":27:28   */\n              dup1\n                /* \"--CODEGEN--\":20:32   */\n              revert\n                /* \"--CODEGEN--\":5:7   */\n            tag_115:\n                /* \"Topic.sol\":1181:1201  uint public majority */\n              pop\n              tag_116\n              tag_117\n              jump\t// in\n            tag_116:\n              mload(0x40)\n              dup1\n              dup3\n              dup2\n              mstore\n              0x20\n              add\n              swap2\n              pop\n              pop\n              mload(0x40)\n              dup1\n              swap2\n              sub\n              swap1\n              return\n                /* \"Topic.sol\":4859:4956  function getArgumentCount() public view returns (uint) {\r... */\n            tag_22:\n              callvalue\n                /* \"--CODEGEN--\":8:17   */\n              dup1\n                /* \"--CODEGEN--\":5:7   */\n              iszero\n              tag_118\n              jumpi\n                /* \"--CODEGEN--\":30:31   */\n              0x00\n                /* \"--CODEGEN--\":27:28   */\n              dup1\n                /* \"--CODEGEN--\":20:32   */\n              revert\n                /* \"--CODEGEN--\":5:7   */\n            tag_118:\n                /* \"Topic.sol\":4859:4956  function getArgumentCount() public view returns (uint) {\r... */\n              pop\n              tag_119\n              tag_120\n              jump\t// in\n            tag_119:\n              mload(0x40)\n              dup1\n              dup3\n              dup2\n              mstore\n              0x20\n              add\n              swap2\n              pop\n              pop\n              mload(0x40)\n              dup1\n              swap2\n              sub\n              swap1\n              return\n                /* \"Topic.sol\":814:866  mapping(address => uint) public reputationInvestment */\n            tag_23:\n              callvalue\n                /* \"--CODEGEN--\":8:17   */\n              dup1\n                /* \"--CODEGEN--\":5:7   */\n              iszero\n              tag_121\n              jumpi\n                /* \"--CODEGEN--\":30:31   */\n              0x00\n                /* \"--CODEGEN--\":27:28   */\n              dup1\n                /* \"--CODEGEN--\":20:32   */\n              revert\n                /* \"--CODEGEN--\":5:7   */\n            tag_121:\n                /* \"Topic.sol\":814:866  mapping(address => uint) public reputationInvestment */\n              pop\n              tag_122\n              0x04\n              dup1\n              calldatasize\n              sub\n                /* \"--CODEGEN--\":13:15   */\n              0x20\n                /* \"--CODEGEN--\":8:11   */\n              dup2\n                /* \"--CODEGEN--\":5:16   */\n              lt\n                /* \"--CODEGEN--\":2:4   */\n              iszero\n              tag_123\n              jumpi\n                /* \"--CODEGEN--\":29:30   */\n              0x00\n                /* \"--CODEGEN--\":26:27   */\n              dup1\n                /* \"--CODEGEN--\":19:31   */\n              revert\n                /* \"--CODEGEN--\":2:4   */\n            tag_123:\n                /* \"Topic.sol\":814:866  mapping(address => uint) public reputationInvestment */\n              dup2\n              add\n              swap1\n              dup1\n              dup1\n              calldataload\n              0xffffffffffffffffffffffffffffffffffffffff\n              and\n              swap1\n              0x20\n              add\n              swap1\n              swap3\n              swap2\n              swap1\n              pop\n              pop\n              pop\n              tag_124\n              jump\t// in\n            tag_122:\n              mload(0x40)\n              dup1\n              dup3\n              dup2\n              mstore\n              0x20\n              add\n              swap2\n              pop\n              pop\n              mload(0x40)\n              dup1\n              swap2\n              sub\n              swap1\n              return\n                /* \"Topic.sol\":1032:1068  address payable[] public truthVoters */\n            tag_24:\n              callvalue\n                /* \"--CODEGEN--\":8:17   */\n              dup1\n                /* \"--CODEGEN--\":5:7   */\n              iszero\n              tag_125\n              jumpi\n                /* \"--CODEGEN--\":30:31   */\n              0x00\n                /* \"--CODEGEN--\":27:28   */\n              dup1\n                /* \"--CODEGEN--\":20:32   */\n              revert\n                /* \"--CODEGEN--\":5:7   */\n            tag_125:\n                /* \"Topic.sol\":1032:1068  address payable[] public truthVoters */\n              pop\n              tag_126\n              0x04\n              dup1\n              calldatasize\n              sub\n                /* \"--CODEGEN--\":13:15   */\n              0x20\n                /* \"--CODEGEN--\":8:11   */\n              dup2\n                /* \"--CODEGEN--\":5:16   */\n              lt\n                /* \"--CODEGEN--\":2:4   */\n              iszero\n              tag_127\n              jumpi\n                /* \"--CODEGEN--\":29:30   */\n              0x00\n                /* \"--CODEGEN--\":26:27   */\n              dup1\n                /* \"--CODEGEN--\":19:31   */\n              revert\n                /* \"--CODEGEN--\":2:4   */\n            tag_127:\n                /* \"Topic.sol\":1032:1068  address payable[] public truthVoters */\n              dup2\n              add\n              swap1\n              dup1\n              dup1\n              calldataload\n              swap1\n              0x20\n              add\n              swap1\n              swap3\n              swap2\n              swap1\n              pop\n              pop\n              pop\n              tag_128\n              jump\t// in\n            tag_126:\n              mload(0x40)\n              dup1\n              dup3\n              0xffffffffffffffffffffffffffffffffffffffff\n              and\n              0xffffffffffffffffffffffffffffffffffffffff\n              and\n              dup2\n              mstore\n              0x20\n              add\n              swap2\n              pop\n              pop\n              mload(0x40)\n              dup1\n              swap2\n              sub\n              swap1\n              return\n                /* \"Topic.sol\":906:943  uint public totalReputationInvestment */\n            tag_25:\n              callvalue\n                /* \"--CODEGEN--\":8:17   */\n              dup1\n                /* \"--CODEGEN--\":5:7   */\n              iszero\n              tag_129\n              jumpi\n                /* \"--CODEGEN--\":30:31   */\n              0x00\n                /* \"--CODEGEN--\":27:28   */\n              dup1\n                /* \"--CODEGEN--\":20:32   */\n              revert\n                /* \"--CODEGEN--\":5:7   */\n            tag_129:\n                /* \"Topic.sol\":906:943  uint public totalReputationInvestment */\n              pop\n              tag_130\n              tag_131\n              jump\t// in\n            tag_130:\n              mload(0x40)\n              dup1\n              dup3\n              dup2\n              mstore\n              0x20\n              add\n              swap2\n              pop\n              pop\n              mload(0x40)\n              dup1\n              swap2\n              sub\n              swap1\n              return\n                /* \"Topic.sol\":4397:4851  function modifyArgument(uint argumentIndex, string memory newContent, bool belief) public _mustBeWithinTimeFrame  {\r... */\n            tag_26:\n              callvalue\n                /* \"--CODEGEN--\":8:17   */\n              dup1\n                /* \"--CODEGEN--\":5:7   */\n              iszero\n              tag_132\n              jumpi\n                /* \"--CODEGEN--\":30:31   */\n              0x00\n                /* \"--CODEGEN--\":27:28   */\n              dup1\n                /* \"--CODEGEN--\":20:32   */\n              revert\n                /* \"--CODEGEN--\":5:7   */\n            tag_132:\n                /* \"Topic.sol\":4397:4851  function modifyArgument(uint argumentIndex, string memory newContent, bool belief) public _mustBeWithinTimeFrame  {\r... */\n              pop\n              tag_133\n              0x04\n              dup1\n              calldatasize\n              sub\n                /* \"--CODEGEN--\":13:15   */\n              0x60\n                /* \"--CODEGEN--\":8:11   */\n              dup2\n                /* \"--CODEGEN--\":5:16   */\n              lt\n                /* \"--CODEGEN--\":2:4   */\n              iszero\n              tag_134\n              jumpi\n                /* \"--CODEGEN--\":29:30   */\n              0x00\n                /* \"--CODEGEN--\":26:27   */\n              dup1\n                /* \"--CODEGEN--\":19:31   */\n              revert\n                /* \"--CODEGEN--\":2:4   */\n            tag_134:\n                /* \"Topic.sol\":4397:4851  function modifyArgument(uint argumentIndex, string memory newContent, bool belief) public _mustBeWithinTimeFrame  {\r... */\n              dup2\n              add\n              swap1\n              dup1\n              dup1\n              calldataload\n              swap1\n              0x20\n              add\n              swap1\n              swap3\n              swap2\n              swap1\n              dup1\n              calldataload\n              swap1\n              0x20\n              add\n              swap1\n                /* \"--CODEGEN--\":21:32   */\n              0x0100000000\n                /* \"--CODEGEN--\":8:19   */\n              dup2\n                /* \"--CODEGEN--\":5:33   */\n              gt\n                /* \"--CODEGEN--\":2:4   */\n              iszero\n              tag_135\n              jumpi\n                /* \"--CODEGEN--\":46:47   */\n              0x00\n                /* \"--CODEGEN--\":43:44   */\n              dup1\n                /* \"--CODEGEN--\":36:48   */\n              revert\n                /* \"--CODEGEN--\":2:4   */\n            tag_135:\n                /* \"Topic.sol\":4397:4851  function modifyArgument(uint argumentIndex, string memory newContent, bool belief) public _mustBeWithinTimeFrame  {\r... */\n              dup3\n              add\n                /* \"--CODEGEN--\":35:44   */\n              dup4\n                /* \"--CODEGEN--\":28:32   */\n              0x20\n                /* \"--CODEGEN--\":12:26   */\n              dup3\n                /* \"--CODEGEN--\":8:33   */\n              add\n                /* \"--CODEGEN--\":5:45   */\n              gt\n                /* \"--CODEGEN--\":2:4   */\n              iszero\n              tag_136\n              jumpi\n                /* \"--CODEGEN--\":58:59   */\n              0x00\n                /* \"--CODEGEN--\":55:56   */\n              dup1\n                /* \"--CODEGEN--\":48:60   */\n              revert\n                /* \"--CODEGEN--\":2:4   */\n            tag_136:\n                /* \"Topic.sol\":4397:4851  function modifyArgument(uint argumentIndex, string memory newContent, bool belief) public _mustBeWithinTimeFrame  {\r... */\n              dup1\n              calldataload\n              swap1\n              0x20\n              add\n              swap2\n                /* \"--CODEGEN--\":100:109   */\n              dup5\n                /* \"--CODEGEN--\":95:96   */\n              0x01\n                /* \"--CODEGEN--\":81:93   */\n              dup4\n                /* \"--CODEGEN--\":77:97   */\n              mul\n                /* \"--CODEGEN--\":67:75   */\n              dup5\n                /* \"--CODEGEN--\":63:98   */\n              add\n                /* \"--CODEGEN--\":60:110   */\n              gt\n                /* \"--CODEGEN--\":39:50   */\n              0x0100000000\n                /* \"--CODEGEN--\":25:37   */\n              dup4\n                /* \"--CODEGEN--\":22:51   */\n              gt\n                /* \"--CODEGEN--\":11:118   */\n              or\n                /* \"--CODEGEN--\":8:10   */\n              iszero\n              tag_137\n              jumpi\n                /* \"--CODEGEN--\":131:132   */\n              0x00\n                /* \"--CODEGEN--\":128:129   */\n              dup1\n                /* \"--CODEGEN--\":121:133   */\n              revert\n                /* \"--CODEGEN--\":8:10   */\n            tag_137:\n                /* \"Topic.sol\":4397:4851  function modifyArgument(uint argumentIndex, string memory newContent, bool belief) public _mustBeWithinTimeFrame  {\r... */\n              swap2\n              swap1\n              dup1\n              dup1\n              0x1f\n              add\n              0x20\n              dup1\n              swap2\n              div\n              mul\n              0x20\n              add\n              mload(0x40)\n              swap1\n              dup2\n              add\n              0x40\n              mstore\n              dup1\n              swap4\n              swap3\n              swap2\n              swap1\n              dup2\n              dup2\n              mstore\n              0x20\n              add\n              dup4\n              dup4\n                /* \"--CODEGEN--\":30:33   */\n              dup1\n                /* \"--CODEGEN--\":22:28   */\n              dup3\n                /* \"--CODEGEN--\":14:20   */\n              dup5\n                /* \"--CODEGEN--\":1:34   */\n              calldatacopy\n                /* \"--CODEGEN--\":99:100   */\n              0x00\n                /* \"--CODEGEN--\":93:96   */\n              dup2\n                /* \"--CODEGEN--\":85:91   */\n              dup5\n                /* \"--CODEGEN--\":81:97   */\n              add\n                /* \"--CODEGEN--\":74:101   */\n              mstore\n                /* \"--CODEGEN--\":137:141   */\n              0x1f\n                /* \"--CODEGEN--\":133:142   */\n              not\n                /* \"--CODEGEN--\":126:130   */\n              0x1f\n                /* \"--CODEGEN--\":121:124   */\n              dup3\n                /* \"--CODEGEN--\":117:131   */\n              add\n                /* \"--CODEGEN--\":113:143   */\n              and\n                /* \"--CODEGEN--\":106:143   */\n              swap1\n              pop\n                /* \"--CODEGEN--\":169:172   */\n              dup1\n                /* \"--CODEGEN--\":161:167   */\n              dup4\n                /* \"--CODEGEN--\":157:173   */\n              add\n                /* \"--CODEGEN--\":147:173   */\n              swap3\n              pop\n                /* \"Topic.sol\":4397:4851  function modifyArgument(uint argumentIndex, string memory newContent, bool belief) public _mustBeWithinTimeFrame  {\r... */\n              pop\n              pop\n              pop\n              pop\n              pop\n              pop\n              swap2\n              swap3\n              swap2\n              swap3\n              swap1\n              dup1\n              calldataload\n              iszero\n              iszero\n              swap1\n              0x20\n              add\n              swap1\n              swap3\n              swap2\n              swap1\n              pop\n              pop\n              pop\n              tag_138\n              jump\t// in\n            tag_133:\n              stop\n                /* \"Topic.sol\":1151:1174  bool public isCompleted */\n            tag_27:\n              callvalue\n                /* \"--CODEGEN--\":8:17   */\n              dup1\n                /* \"--CODEGEN--\":5:7   */\n              iszero\n              tag_139\n              jumpi\n                /* \"--CODEGEN--\":30:31   */\n              0x00\n                /* \"--CODEGEN--\":27:28   */\n              dup1\n                /* \"--CODEGEN--\":20:32   */\n              revert\n                /* \"--CODEGEN--\":5:7   */\n            tag_139:\n                /* \"Topic.sol\":1151:1174  bool public isCompleted */\n              pop\n              tag_140\n              tag_141\n              jump\t// in\n            tag_140:\n              mload(0x40)\n              dup1\n              dup3\n              iszero\n              iszero\n              iszero\n              iszero\n              dup2\n              mstore\n              0x20\n              add\n              swap2\n              pop\n              pop\n              mload(0x40)\n              dup1\n              swap2\n              sub\n              swap1\n              return\n                /* \"Topic.sol\":771:801  uint public finalMonetaryTotal */\n            tag_28:\n              callvalue\n                /* \"--CODEGEN--\":8:17   */\n              dup1\n                /* \"--CODEGEN--\":5:7   */\n              iszero\n              tag_142\n              jumpi\n                /* \"--CODEGEN--\":30:31   */\n              0x00\n                /* \"--CODEGEN--\":27:28   */\n              dup1\n                /* \"--CODEGEN--\":20:32   */\n              revert\n                /* \"--CODEGEN--\":5:7   */\n            tag_142:\n                /* \"Topic.sol\":771:801  uint public finalMonetaryTotal */\n              pop\n              tag_143\n              tag_144\n              jump\t// in\n            tag_143:\n              mload(0x40)\n              dup1\n              dup3\n              dup2\n              mstore\n              0x20\n              add\n              swap2\n              pop\n              pop\n              mload(0x40)\n              dup1\n              swap2\n              sub\n              swap1\n              return\n                /* \"Topic.sol\":7592:7738  function getDetails() public view returns (address, uint, uint, bool) {\r... */\n            tag_29:\n              callvalue\n                /* \"--CODEGEN--\":8:17   */\n              dup1\n                /* \"--CODEGEN--\":5:7   */\n              iszero\n              tag_145\n              jumpi\n                /* \"--CODEGEN--\":30:31   */\n              0x00\n                /* \"--CODEGEN--\":27:28   */\n              dup1\n                /* \"--CODEGEN--\":20:32   */\n              revert\n                /* \"--CODEGEN--\":5:7   */\n            tag_145:\n                /* \"Topic.sol\":7592:7738  function getDetails() public view returns (address, uint, uint, bool) {\r... */\n              pop\n              tag_146\n              tag_147\n              jump\t// in\n            tag_146:\n              mload(0x40)\n              dup1\n              dup6\n              0xffffffffffffffffffffffffffffffffffffffff\n              and\n              0xffffffffffffffffffffffffffffffffffffffff\n              and\n              dup2\n              mstore\n              0x20\n              add\n              dup5\n              dup2\n              mstore\n              0x20\n              add\n              dup4\n              dup2\n              mstore\n              0x20\n              add\n              dup3\n              iszero\n              iszero\n              iszero\n              iszero\n              dup2\n              mstore\n              0x20\n              add\n              swap5\n              pop\n              pop\n              pop\n              pop\n              pop\n              mload(0x40)\n              dup1\n              swap2\n              sub\n              swap1\n              return\n                /* \"Topic.sol\":449:471  address public creator */\n            tag_41:\n              0x03\n              0x00\n              swap1\n              sload\n              swap1\n              0x0100\n              exp\n              swap1\n              div\n              0xffffffffffffffffffffffffffffffffffffffff\n              and\n              dup2\n              jump\t// out\n                /* \"Topic.sol\":3894:4389  function createArgument(string memory argumentContent, bool belief) public _mustBeWithinTimeFrame {\r... */\n            tag_48:\n                /* \"Topic.sol\":1526:1533  endTime */\n              sload(0x05)\n                /* \"Topic.sol\":1508:1523  block.timestamp */\n              timestamp\n                /* \"Topic.sol\":1508:1533  block.timestamp < endTime */\n              lt\n                /* \"Topic.sol\":1500:1581  require(block.timestamp < endTime, 'The period for the Topic has already ended.') */\n              tag_149\n              jumpi\n              mload(0x40)\n              0x08c379a000000000000000000000000000000000000000000000000000000000\n              dup2\n              mstore\n              0x04\n              add\n              dup1\n              dup1\n              0x20\n              add\n              dup3\n              dup2\n              sub\n              dup3\n              mstore\n              0x2b\n              dup2\n              mstore\n              0x20\n              add\n              dup1\n              data_9f7f122b70f117f8950311c325d9279ba88d6a0d2b593ed4f11b7663b9f48d07\n              0x2b\n              swap2\n              codecopy\n              0x40\n              add\n              swap2\n              pop\n              pop\n              mload(0x40)\n              dup1\n              swap2\n              sub\n              swap1\n              revert\n            tag_149:\n                /* \"Topic.sol\":4042:4043  0 */\n              0x00\n                /* \"Topic.sol\":4011:4026  createdArgument */\n              0x0d\n                /* \"Topic.sol\":4011:4038  createdArgument[msg.sender] */\n              0x00\n                /* \"Topic.sol\":4027:4037  msg.sender */\n              caller\n                /* \"Topic.sol\":4011:4038  createdArgument[msg.sender] */\n              0xffffffffffffffffffffffffffffffffffffffff\n              and\n              0xffffffffffffffffffffffffffffffffffffffff\n              and\n              dup2\n              mstore\n              0x20\n              add\n              swap1\n              dup2\n              mstore\n              0x20\n              add\n              0x00\n              keccak256\n              sload\n                /* \"Topic.sol\":4011:4043  createdArgument[msg.sender] == 0 */\n              eq\n                /* \"Topic.sol\":4003:4085  require(createdArgument[msg.sender] == 0, 'You have already created an argument.') */\n              tag_151\n              jumpi\n              mload(0x40)\n              0x08c379a000000000000000000000000000000000000000000000000000000000\n              dup2\n              mstore\n              0x04\n              add\n              dup1\n              dup1\n              0x20\n              add\n              dup3\n              dup2\n              sub\n              dup3\n              mstore\n              0x25\n              dup2\n              mstore\n              0x20\n              add\n              dup1\n              data_8912f675a50e382e9fd7b592cf1cd9595235c43ce4309904b1bd35e2a18fc4ee\n              0x25\n              swap2\n              codecopy\n              0x40\n              add\n              swap2\n              pop\n              pop\n              mload(0x40)\n              dup1\n              swap2\n              sub\n              swap1\n              revert\n            tag_151:\n                /* \"Topic.sol\":4098:4125  Argument memory newArgument */\n              tag_152\n              tag_153\n              jump\t// in\n            tag_152:\n                /* \"Topic.sol\":4128:4278  Argument({\r... */\n              mload(0x40)\n              dup1\n              0x80\n              add\n              0x40\n              mstore\n              dup1\n                /* \"Topic.sol\":4161:4176  argumentContent */\n              dup5\n                /* \"Topic.sol\":4128:4278  Argument({\r... */\n              dup2\n              mstore\n              0x20\n              add\n                /* \"Topic.sol\":4199:4205  belief */\n              dup4\n                /* \"Topic.sol\":4128:4278  Argument({\r... */\n              iszero\n              iszero\n              dup2\n              mstore\n              0x20\n              add\n                /* \"Topic.sol\":4229:4239  msg.sender */\n              caller\n                /* \"Topic.sol\":4128:4278  Argument({\r... */\n              0xffffffffffffffffffffffffffffffffffffffff\n              and\n              dup2\n              mstore\n              0x20\n              add\n                /* \"Topic.sol\":4265:4266  0 */\n              0x00\n                /* \"Topic.sol\":4128:4278  Argument({\r... */\n              dup2\n              mstore\n              pop\n                /* \"Topic.sol\":4098:4278  Argument memory newArgument = Argument({\r... */\n              swap1\n              pop\n                /* \"Topic.sol\":4289:4298  arguments */\n              0x06\n                /* \"Topic.sol\":4304:4315  newArgument */\n              dup2\n                /* \"Topic.sol\":4289:4316  arguments.push(newArgument) */\n              swap1\n              dup1\n                /* \"--CODEGEN--\":39:40   */\n              0x01\n                /* \"--CODEGEN--\":33:36   */\n              dup2\n                /* \"--CODEGEN--\":27:37   */\n              sload\n                /* \"--CODEGEN--\":23:41   */\n              add\n                /* \"--CODEGEN--\":57:67   */\n              dup1\n                /* \"--CODEGEN--\":52:55   */\n              dup3\n                /* \"--CODEGEN--\":45:68   */\n              sstore\n                /* \"--CODEGEN--\":79:89   */\n              dup1\n                /* \"--CODEGEN--\":72:89   */\n              swap2\n              pop\n                /* \"--CODEGEN--\":0:93   */\n              pop\n                /* \"Topic.sol\":4289:4316  arguments.push(newArgument) */\n              swap1\n              0x01\n              dup3\n              sub\n              swap1\n              0x00\n              mstore\n              keccak256(0x00, 0x20)\n              swap1\n              0x03\n              mul\n              add\n              0x00\n              swap1\n              swap2\n              swap3\n              swap1\n              swap2\n              swap1\n              swap2\n              pop\n              0x00\n              dup3\n              add\n              mload\n              dup2\n              0x00\n              add\n              swap1\n              dup1\n              mload\n              swap1\n              0x20\n              add\n              swap1\n              tag_155\n              swap3\n              swap2\n              swap1\n              tag_156\n              jump\t// in\n            tag_155:\n              pop\n              0x20\n              dup3\n              add\n              mload\n              dup2\n              0x01\n              add\n              exp(0x0100, 0x00)\n              dup2\n              sload\n              dup2\n              0xff\n              mul\n              not\n              and\n              swap1\n              dup4\n              iszero\n              iszero\n              mul\n              or\n              swap1\n              sstore\n              pop\n              0x40\n              dup3\n              add\n              mload\n              dup2\n              0x01\n              add\n              exp(0x0100, 0x01)\n              dup2\n              sload\n              dup2\n              0xffffffffffffffffffffffffffffffffffffffff\n              mul\n              not\n              and\n              swap1\n              dup4\n              0xffffffffffffffffffffffffffffffffffffffff\n              and\n              mul\n              or\n              swap1\n              sstore\n              pop\n              0x60\n              dup3\n              add\n              mload\n              dup2\n              0x02\n              add\n              sstore\n              pop\n              pop\n              pop\n                /* \"Topic.sol\":4378:4379  1 */\n              0x01\n                /* \"Topic.sol\":4357:4375  getArgumentCount() */\n              tag_157\n                /* \"Topic.sol\":4357:4373  getArgumentCount */\n              tag_120\n                /* \"Topic.sol\":4357:4375  getArgumentCount() */\n              jump\t// in\n            tag_157:\n                /* \"Topic.sol\":4357:4379  getArgumentCount() - 1 */\n              sub\n                /* \"Topic.sol\":4327:4342  createdArgument */\n              0x0d\n                /* \"Topic.sol\":4327:4354  createdArgument[msg.sender] */\n              0x00\n                /* \"Topic.sol\":4343:4353  msg.sender */\n              caller\n                /* \"Topic.sol\":4327:4354  createdArgument[msg.sender] */\n              0xffffffffffffffffffffffffffffffffffffffff\n              and\n              0xffffffffffffffffffffffffffffffffffffffff\n              and\n              dup2\n              mstore\n              0x20\n              add\n              swap1\n              dup2\n              mstore\n              0x20\n              add\n              0x00\n              keccak256\n                /* \"Topic.sol\":4327:4379  createdArgument[msg.sender] = getArgumentCount() - 1 */\n              dup2\n              swap1\n              sstore\n              pop\n                /* \"Topic.sol\":1592:1593  _ */\n              pop\n                /* \"Topic.sol\":3894:4389  function createArgument(string memory argumentContent, bool belief) public _mustBeWithinTimeFrame {\r... */\n              pop\n              pop\n              jump\t// out\n                /* \"Topic.sol\":646:696  mapping(address => uint) public monetaryInvestment */\n            tag_52:\n              mstore(0x20, 0x08)\n              dup1\n              0x00\n              mstore\n              keccak256(0x00, 0x40)\n              0x00\n              swap2\n              pop\n              swap1\n              pop\n              sload\n              dup2\n              jump\t// out\n                /* \"Topic.sol\":1091:1125  address payable[] public lieVoters */\n            tag_56:\n              0x0f\n              dup2\n              dup2\n              sload\n              dup2\n              lt\n              tag_158\n              jumpi\n              invalid\n            tag_158:\n              swap1\n              0x00\n              mstore\n              keccak256(0x00, 0x20)\n              add\n              0x00\n              swap2\n              pop\n              sload\n              swap1\n              0x0100\n              exp\n              swap1\n              div\n              0xffffffffffffffffffffffffffffffffffffffff\n              and\n              dup2\n              jump\t// out\n                /* \"Topic.sol\":540:567  Argument[] public arguments */\n            tag_60:\n              0x06\n              dup2\n              dup2\n              sload\n              dup2\n              lt\n              tag_160\n              jumpi\n              invalid\n            tag_160:\n              swap1\n              0x00\n              mstore\n              keccak256(0x00, 0x20)\n              swap1\n              0x03\n              mul\n              add\n              0x00\n              swap2\n              pop\n              swap1\n              pop\n              dup1\n              0x00\n              add\n              dup1\n              sload\n              0x01\n              dup2\n              0x01\n              and\n              iszero\n              0x0100\n              mul\n              sub\n              and\n              0x02\n              swap1\n              div\n              dup1\n              0x1f\n              add\n              0x20\n              dup1\n              swap2\n              div\n              mul\n              0x20\n              add\n              mload(0x40)\n              swap1\n              dup2\n              add\n              0x40\n              mstore\n              dup1\n              swap3\n              swap2\n              swap1\n              dup2\n              dup2\n              mstore\n              0x20\n              add\n              dup3\n              dup1\n              sload\n              0x01\n              dup2\n              0x01\n              and\n              iszero\n              0x0100\n              mul\n              sub\n              and\n              0x02\n              swap1\n              div\n              dup1\n              iszero\n              tag_162\n              jumpi\n              dup1\n              0x1f\n              lt\n              tag_163\n              jumpi\n              0x0100\n              dup1\n              dup4\n              sload\n              div\n              mul\n              dup4\n              mstore\n              swap2\n              0x20\n              add\n              swap2\n              jump(tag_162)\n            tag_163:\n              dup3\n              add\n              swap2\n              swap1\n              0x00\n              mstore\n              keccak256(0x00, 0x20)\n              swap1\n            tag_164:\n              dup2\n              sload\n              dup2\n              mstore\n              swap1\n              0x01\n              add\n              swap1\n              0x20\n              add\n              dup1\n              dup4\n              gt\n              tag_164\n              jumpi\n              dup3\n              swap1\n              sub\n              0x1f\n              and\n              dup3\n              add\n              swap2\n            tag_162:\n              pop\n              pop\n              pop\n              pop\n              pop\n              swap1\n              dup1\n              0x01\n              add\n              0x00\n              swap1\n              sload\n              swap1\n              0x0100\n              exp\n              swap1\n              div\n              0xff\n              and\n              swap1\n              dup1\n              0x01\n              add\n              0x01\n              swap1\n              sload\n              swap1\n              0x0100\n              exp\n              swap1\n              div\n              0xffffffffffffffffffffffffffffffffffffffff\n              and\n              swap1\n              dup1\n              0x02\n              add\n              sload\n              swap1\n              pop\n              dup5\n              jump\t// out\n                /* \"Topic.sol\":478:507  uint public minimumInvestment */\n            tag_67:\n              sload(0x04)\n              dup2\n              jump\t// out\n                /* \"Topic.sol\":3690:3786  function getTruthCount() public view returns (uint) {\r... */\n            tag_70:\n                /* \"Topic.sol\":3736:3740  uint */\n              0x00\n                /* \"Topic.sol\":3760:3771  truthVoters */\n              0x0e\n                /* \"Topic.sol\":3760:3778  truthVoters.length */\n              dup1\n              sload\n              swap1\n              pop\n                /* \"Topic.sol\":3753:3778  return truthVoters.length */\n              swap1\n              pop\n                /* \"Topic.sol\":3690:3786  function getTruthCount() public view returns (uint) {\r... */\n              swap1\n              jump\t// out\n                /* \"Topic.sol\":514:533  uint public endTime */\n            tag_73:\n              sload(0x05)\n              dup2\n              jump\t// out\n                /* \"Topic.sol\":952:999  mapping(address => uint) public createdArgument */\n            tag_77:\n              mstore(0x20, 0x0d)\n              dup1\n              0x00\n              mstore\n              keccak256(0x00, 0x40)\n              0x00\n              swap2\n              pop\n              swap1\n              pop\n              sload\n              dup2\n              jump\t// out\n                /* \"Topic.sol\":6830:7049  function calculateMonetaryGain(uint initialMonetaryInvestment) public view returns (uint) {\r... */\n            tag_81:\n                /* \"Topic.sol\":6914:6918  uint */\n              0x00\n                /* \"Topic.sol\":6931:6942  uint result */\n              dup1\n                /* \"Topic.sol\":6994:7017  totalMonetaryInvestment */\n              sload(0x09)\n                /* \"Topic.sol\":6966:6991  initialMonetaryInvestment */\n              dup4\n                /* \"Topic.sol\":6945:6963  finalMonetaryTotal */\n              sload(0x0a)\n                /* \"Topic.sol\":6945:6991  finalMonetaryTotal * initialMonetaryInvestment */\n              mul\n                /* \"Topic.sol\":6945:7017  finalMonetaryTotal * initialMonetaryInvestment / totalMonetaryInvestment */\n              dup2\n              tag_167\n              jumpi\n              invalid\n            tag_167:\n              div\n                /* \"Topic.sol\":6931:7017  uint result = finalMonetaryTotal * initialMonetaryInvestment / totalMonetaryInvestment */\n              swap1\n              pop\n                /* \"Topic.sol\":7035:7041  result */\n              dup1\n                /* \"Topic.sol\":7028:7041  return result */\n              swap2\n              pop\n              pop\n                /* \"Topic.sol\":6830:7049  function calculateMonetaryGain(uint initialMonetaryInvestment) public view returns (uint) {\r... */\n              swap2\n              swap1\n              pop\n              jump\t// out\n                /* \"Topic.sol\":5970:6822  function claim() public {\r... */\n            tag_84:\n                /* \"Topic.sol\":6031:6038  endTime */\n              sload(0x05)\n                /* \"Topic.sol\":6013:6028  block.timestamp */\n              timestamp\n                /* \"Topic.sol\":6013:6038  block.timestamp > endTime */\n              gt\n                /* \"Topic.sol\":6005:6097  require(block.timestamp > endTime, 'You can only claim your rewards after the time period.') */\n              tag_169\n              jumpi\n              mload(0x40)\n              0x08c379a000000000000000000000000000000000000000000000000000000000\n              dup2\n              mstore\n              0x04\n              add\n              dup1\n              dup1\n              0x20\n              add\n              dup3\n              dup2\n              sub\n              dup3\n              mstore\n              0x36\n              dup2\n              mstore\n              0x20\n              add\n              dup1\n              data_1382083f71a022fa6144748d79496d6f05d3bcf3a0f484b323383c5c8edd8d26\n              0x36\n              swap2\n              codecopy\n              0x40\n              add\n              swap2\n              pop\n              pop\n              mload(0x40)\n              dup1\n              swap2\n              sub\n              swap1\n              revert\n            tag_169:\n                /* \"Topic.sol\":6108:6126  uint argumentIndex */\n              0x00\n                /* \"Topic.sol\":6129:6134  voted */\n              0x07\n                /* \"Topic.sol\":6129:6146  voted[msg.sender] */\n              0x00\n                /* \"Topic.sol\":6135:6145  msg.sender */\n              caller\n                /* \"Topic.sol\":6129:6146  voted[msg.sender] */\n              0xffffffffffffffffffffffffffffffffffffffff\n              and\n              0xffffffffffffffffffffffffffffffffffffffff\n              and\n              dup2\n              mstore\n              0x20\n              add\n              swap1\n              dup2\n              mstore\n              0x20\n              add\n              0x00\n              keccak256\n              sload\n                /* \"Topic.sol\":6108:6146  uint argumentIndex = voted[msg.sender] */\n              swap1\n              pop\n                /* \"Topic.sol\":6182:6183  0 */\n              0x00\n                /* \"Topic.sol\":6165:6178  argumentIndex */\n              dup2\n                /* \"Topic.sol\":6165:6183  argumentIndex != 0 */\n              eq\n              iszero\n                /* \"Topic.sol\":6157:6244  require(argumentIndex != 0, 'You did not vote during the period, so you cannot claim.') */\n              tag_170\n              jumpi\n              mload(0x40)\n              0x08c379a000000000000000000000000000000000000000000000000000000000\n              dup2\n              mstore\n              0x04\n              add\n              dup1\n              dup1\n              0x20\n              add\n              dup3\n              dup2\n              sub\n              dup3\n              mstore\n              0x38\n              dup2\n              mstore\n              0x20\n              add\n              dup1\n              data_0f62f618588d36303d76fa765b4096f4535e8428b36a788090d83035227e6cbf\n              0x38\n              swap2\n              codecopy\n              0x40\n              add\n              swap2\n              pop\n              pop\n              mload(0x40)\n              dup1\n              swap2\n              sub\n              swap1\n              revert\n            tag_170:\n                /* \"Topic.sol\":6255:6275  Argument storage arg */\n              0x00\n                /* \"Topic.sol\":6278:6287  arguments */\n              0x06\n                /* \"Topic.sol\":6288:6301  argumentIndex */\n              dup3\n                /* \"Topic.sol\":6278:6302  arguments[argumentIndex] */\n              dup2\n              sload\n              dup2\n              lt\n              tag_171\n              jumpi\n              invalid\n            tag_171:\n              swap1\n              0x00\n              mstore\n              keccak256(0x00, 0x20)\n              swap1\n              0x03\n              mul\n              add\n                /* \"Topic.sol\":6255:6302  Argument storage arg = arguments[argumentIndex] */\n              swap1\n              pop\n                /* \"Topic.sol\":6356:6357  0 */\n              0x00\n                /* \"Topic.sol\":6344:6352  majority */\n              sload(0x11)\n                /* \"Topic.sol\":6344:6357  majority == 0 */\n              eq\n                /* \"Topic.sol\":6340:6405  if (majority == 0) {\r... */\n              iszero\n              tag_173\n              jumpi\n                /* \"Topic.sol\":6374:6393  calculateMajority() */\n              tag_174\n                /* \"Topic.sol\":6374:6391  calculateMajority */\n              tag_175\n                /* \"Topic.sol\":6374:6393  calculateMajority() */\n              jump\t// in\n            tag_174:\n                /* \"Topic.sol\":6340:6405  if (majority == 0) {\r... */\n            tag_173:\n                /* \"Topic.sol\":6434:6435  1 */\n              0x01\n                /* \"Topic.sol\":6422:6430  majority */\n              sload(0x11)\n                /* \"Topic.sol\":6422:6435  majority == 1 */\n              eq\n                /* \"Topic.sol\":6422:6449  majority == 1 && arg.isTrue */\n              dup1\n              iszero\n              tag_176\n              jumpi\n              pop\n                /* \"Topic.sol\":6439:6442  arg */\n              dup1\n                /* \"Topic.sol\":6439:6449  arg.isTrue */\n              0x01\n              add\n              0x00\n              swap1\n              sload\n              swap1\n              0x0100\n              exp\n              swap1\n              div\n              0xff\n              and\n                /* \"Topic.sol\":6422:6449  majority == 1 && arg.isTrue */\n            tag_176:\n                /* \"Topic.sol\":6421:6484  (majority == 1 && arg.isTrue) || (majority == 2 && !arg.isTrue) */\n              dup1\n              tag_177\n              jumpi\n              pop\n                /* \"Topic.sol\":6467:6468  2 */\n              0x02\n                /* \"Topic.sol\":6455:6463  majority */\n              sload(0x11)\n                /* \"Topic.sol\":6455:6468  majority == 2 */\n              eq\n                /* \"Topic.sol\":6455:6483  majority == 2 && !arg.isTrue */\n              dup1\n              iszero\n              tag_178\n              jumpi\n              pop\n                /* \"Topic.sol\":6473:6476  arg */\n              dup1\n                /* \"Topic.sol\":6473:6483  arg.isTrue */\n              0x01\n              add\n              0x00\n              swap1\n              sload\n              swap1\n              0x0100\n              exp\n              swap1\n              div\n              0xff\n              and\n                /* \"Topic.sol\":6472:6483  !arg.isTrue */\n              iszero\n                /* \"Topic.sol\":6455:6483  majority == 2 && !arg.isTrue */\n            tag_178:\n                /* \"Topic.sol\":6421:6484  (majority == 1 && arg.isTrue) || (majority == 2 && !arg.isTrue) */\n            tag_177:\n                /* \"Topic.sol\":6421:6503  (majority == 1 && arg.isTrue) || (majority == 2 && !arg.isTrue) || (majority == 3) */\n              dup1\n              tag_179\n              jumpi\n              pop\n                /* \"Topic.sol\":6501:6502  3 */\n              0x03\n                /* \"Topic.sol\":6489:6497  majority */\n              sload(0x11)\n                /* \"Topic.sol\":6489:6502  majority == 3 */\n              eq\n                /* \"Topic.sol\":6421:6503  (majority == 1 && arg.isTrue) || (majority == 2 && !arg.isTrue) || (majority == 3) */\n            tag_179:\n                /* \"Topic.sol\":6417:6815  if ((majority == 1 && arg.isTrue) || (majority == 2 && !arg.isTrue) || (majority == 3)) {\r... */\n              iszero\n              tag_180\n              jumpi\n                /* \"Topic.sol\":6520:6530  msg.sender */\n              caller\n                /* \"Topic.sol\":6520:6539  msg.sender.transfer */\n              0xffffffffffffffffffffffffffffffffffffffff\n              and\n                /* \"Topic.sol\":6520:6599  msg.sender.transfer(this.calculateMonetaryGain(monetaryInvestment[msg.sender])) */\n              0x08fc\n                /* \"Topic.sol\":6540:6544  this */\n              address\n                /* \"Topic.sol\":6540:6566  this.calculateMonetaryGain */\n              0xffffffffffffffffffffffffffffffffffffffff\n              and\n              0x4dd54033\n                /* \"Topic.sol\":6567:6585  monetaryInvestment */\n              0x08\n                /* \"Topic.sol\":6567:6597  monetaryInvestment[msg.sender] */\n              0x00\n                /* \"Topic.sol\":6586:6596  msg.sender */\n              caller\n                /* \"Topic.sol\":6567:6597  monetaryInvestment[msg.sender] */\n              0xffffffffffffffffffffffffffffffffffffffff\n              and\n              0xffffffffffffffffffffffffffffffffffffffff\n              and\n              dup2\n              mstore\n              0x20\n              add\n              swap1\n              dup2\n              mstore\n              0x20\n              add\n              0x00\n              keccak256\n              sload\n                /* \"Topic.sol\":6540:6598  this.calculateMonetaryGain(monetaryInvestment[msg.sender]) */\n              mload(0x40)\n              dup3\n              0xffffffff\n              and\n              0xe0\n              shl\n              dup2\n              mstore\n              0x04\n              add\n              dup1\n              dup3\n              dup2\n              mstore\n              0x20\n              add\n              swap2\n              pop\n              pop\n              0x20\n              mload(0x40)\n              dup1\n              dup4\n              sub\n              dup2\n              dup7\n              dup1\n              extcodesize\n              iszero\n                /* \"--CODEGEN--\":8:17   */\n              dup1\n                /* \"--CODEGEN--\":5:7   */\n              iszero\n              tag_181\n              jumpi\n                /* \"--CODEGEN--\":30:31   */\n              0x00\n                /* \"--CODEGEN--\":27:28   */\n              dup1\n                /* \"--CODEGEN--\":20:32   */\n              revert\n                /* \"--CODEGEN--\":5:7   */\n            tag_181:\n                /* \"Topic.sol\":6540:6598  this.calculateMonetaryGain(monetaryInvestment[msg.sender]) */\n              pop\n              gas\n              staticcall\n              iszero\n                /* \"--CODEGEN--\":8:17   */\n              dup1\n                /* \"--CODEGEN--\":5:7   */\n              iszero\n              tag_182\n              jumpi\n                /* \"--CODEGEN--\":45:61   */\n              returndatasize\n                /* \"--CODEGEN--\":42:43   */\n              0x00\n                /* \"--CODEGEN--\":39:40   */\n              dup1\n                /* \"--CODEGEN--\":24:62   */\n              returndatacopy\n                /* \"--CODEGEN--\":77:93   */\n              returndatasize\n                /* \"--CODEGEN--\":74:75   */\n              0x00\n                /* \"--CODEGEN--\":67:94   */\n              revert\n                /* \"--CODEGEN--\":5:7   */\n            tag_182:\n                /* \"Topic.sol\":6540:6598  this.calculateMonetaryGain(monetaryInvestment[msg.sender]) */\n              pop\n              pop\n              pop\n              pop\n              mload(0x40)\n              returndatasize\n                /* \"--CODEGEN--\":13:15   */\n              0x20\n                /* \"--CODEGEN--\":8:11   */\n              dup2\n                /* \"--CODEGEN--\":5:16   */\n              lt\n                /* \"--CODEGEN--\":2:4   */\n              iszero\n              tag_183\n              jumpi\n                /* \"--CODEGEN--\":29:30   */\n              0x00\n                /* \"--CODEGEN--\":26:27   */\n              dup1\n                /* \"--CODEGEN--\":19:31   */\n              revert\n                /* \"--CODEGEN--\":2:4   */\n            tag_183:\n                /* \"Topic.sol\":6540:6598  this.calculateMonetaryGain(monetaryInvestment[msg.sender]) */\n              dup2\n              add\n              swap1\n              dup1\n              dup1\n              mload\n              swap1\n              0x20\n              add\n              swap1\n              swap3\n              swap2\n              swap1\n              pop\n              pop\n              pop\n                /* \"Topic.sol\":6520:6599  msg.sender.transfer(this.calculateMonetaryGain(monetaryInvestment[msg.sender])) */\n              swap1\n              dup2\n              iszero\n              mul\n              swap1\n              mload(0x40)\n              0x00\n              mload(0x40)\n              dup1\n              dup4\n              sub\n              dup2\n              dup6\n              dup9\n              dup9\n              call\n              swap4\n              pop\n              pop\n              pop\n              pop\n              iszero\n                /* \"--CODEGEN--\":8:17   */\n              dup1\n                /* \"--CODEGEN--\":5:7   */\n              iszero\n              tag_184\n              jumpi\n                /* \"--CODEGEN--\":45:61   */\n              returndatasize\n                /* \"--CODEGEN--\":42:43   */\n              0x00\n                /* \"--CODEGEN--\":39:40   */\n              dup1\n                /* \"--CODEGEN--\":24:62   */\n              returndatacopy\n                /* \"--CODEGEN--\":77:93   */\n              returndatasize\n                /* \"--CODEGEN--\":74:75   */\n              0x00\n                /* \"--CODEGEN--\":67:94   */\n              revert\n                /* \"--CODEGEN--\":5:7   */\n            tag_184:\n                /* \"Topic.sol\":6520:6599  msg.sender.transfer(this.calculateMonetaryGain(monetaryInvestment[msg.sender])) */\n              pop\n                /* \"Topic.sol\":6614:6642  ReputationFactory repFactory */\n              0x00\n                /* \"Topic.sol\":6663:6687  reputationFactoryAddress */\n              dup1\n              0x00\n              swap1\n              sload\n              swap1\n              0x0100\n              exp\n              swap1\n              div\n              0xffffffffffffffffffffffffffffffffffffffff\n              and\n                /* \"Topic.sol\":6614:6688  ReputationFactory repFactory = ReputationFactory(reputationFactoryAddress) */\n              swap1\n              pop\n                /* \"Topic.sol\":6703:6713  repFactory */\n              dup1\n                /* \"Topic.sol\":6703:6727  repFactory.addReputation */\n              0xffffffffffffffffffffffffffffffffffffffff\n              and\n              0x5f2ab567\n                /* \"Topic.sol\":6728:6732  this */\n              address\n                /* \"Topic.sol\":6728:6756  this.calculateReputationGain */\n              0xffffffffffffffffffffffffffffffffffffffff\n              and\n              0xb3b9ac1d\n                /* \"Topic.sol\":6757:6777  reputationInvestment */\n              0x0b\n                /* \"Topic.sol\":6757:6789  reputationInvestment[msg.sender] */\n              0x00\n                /* \"Topic.sol\":6778:6788  msg.sender */\n              caller\n                /* \"Topic.sol\":6757:6789  reputationInvestment[msg.sender] */\n              0xffffffffffffffffffffffffffffffffffffffff\n              and\n              0xffffffffffffffffffffffffffffffffffffffff\n              and\n              dup2\n              mstore\n              0x20\n              add\n              swap1\n              dup2\n              mstore\n              0x20\n              add\n              0x00\n              keccak256\n              sload\n                /* \"Topic.sol\":6728:6790  this.calculateReputationGain(reputationInvestment[msg.sender]) */\n              mload(0x40)\n              dup3\n              0xffffffff\n              and\n              0xe0\n              shl\n              dup2\n              mstore\n              0x04\n              add\n              dup1\n              dup3\n              dup2\n              mstore\n              0x20\n              add\n              swap2\n              pop\n              pop\n              0x20\n              mload(0x40)\n              dup1\n              dup4\n              sub\n              dup2\n              dup7\n              dup1\n              extcodesize\n              iszero\n                /* \"--CODEGEN--\":8:17   */\n              dup1\n                /* \"--CODEGEN--\":5:7   */\n              iszero\n              tag_185\n              jumpi\n                /* \"--CODEGEN--\":30:31   */\n              0x00\n                /* \"--CODEGEN--\":27:28   */\n              dup1\n                /* \"--CODEGEN--\":20:32   */\n              revert\n                /* \"--CODEGEN--\":5:7   */\n            tag_185:\n                /* \"Topic.sol\":6728:6790  this.calculateReputationGain(reputationInvestment[msg.sender]) */\n              pop\n              gas\n              staticcall\n              iszero\n                /* \"--CODEGEN--\":8:17   */\n              dup1\n                /* \"--CODEGEN--\":5:7   */\n              iszero\n              tag_186\n              jumpi\n                /* \"--CODEGEN--\":45:61   */\n              returndatasize\n                /* \"--CODEGEN--\":42:43   */\n              0x00\n                /* \"--CODEGEN--\":39:40   */\n              dup1\n                /* \"--CODEGEN--\":24:62   */\n              returndatacopy\n                /* \"--CODEGEN--\":77:93   */\n              returndatasize\n                /* \"--CODEGEN--\":74:75   */\n              0x00\n                /* \"--CODEGEN--\":67:94   */\n              revert\n                /* \"--CODEGEN--\":5:7   */\n            tag_186:\n                /* \"Topic.sol\":6728:6790  this.calculateReputationGain(reputationInvestment[msg.sender]) */\n              pop\n              pop\n              pop\n              pop\n              mload(0x40)\n              returndatasize\n                /* \"--CODEGEN--\":13:15   */\n              0x20\n                /* \"--CODEGEN--\":8:11   */\n              dup2\n                /* \"--CODEGEN--\":5:16   */\n              lt\n                /* \"--CODEGEN--\":2:4   */\n              iszero\n              tag_187\n              jumpi\n                /* \"--CODEGEN--\":29:30   */\n              0x00\n                /* \"--CODEGEN--\":26:27   */\n              dup1\n                /* \"--CODEGEN--\":19:31   */\n              revert\n                /* \"--CODEGEN--\":2:4   */\n            tag_187:\n                /* \"Topic.sol\":6728:6790  this.calculateReputationGain(reputationInvestment[msg.sender]) */\n              dup2\n              add\n              swap1\n              dup1\n              dup1\n              mload\n              swap1\n              0x20\n              add\n              swap1\n              swap3\n              swap2\n              swap1\n              pop\n              pop\n              pop\n                /* \"Topic.sol\":6792:6802  msg.sender */\n              caller\n                /* \"Topic.sol\":6703:6803  repFactory.addReputation(this.calculateReputationGain(reputationInvestment[msg.sender]), msg.sender) */\n              mload(0x40)\n              dup4\n              0xffffffff\n              and\n              0xe0\n              shl\n              dup2\n              mstore\n              0x04\n              add\n              dup1\n              dup4\n              dup2\n              mstore\n              0x20\n              add\n              dup3\n              0xffffffffffffffffffffffffffffffffffffffff\n              and\n              0xffffffffffffffffffffffffffffffffffffffff\n              and\n              dup2\n              mstore\n              0x20\n              add\n              swap3\n              pop\n              pop\n              pop\n              0x00\n              mload(0x40)\n              dup1\n              dup4\n              sub\n              dup2\n              0x00\n              dup8\n              dup1\n              extcodesize\n              iszero\n                /* \"--CODEGEN--\":8:17   */\n              dup1\n                /* \"--CODEGEN--\":5:7   */\n              iszero\n              tag_188\n              jumpi\n                /* \"--CODEGEN--\":30:31   */\n              0x00\n                /* \"--CODEGEN--\":27:28   */\n              dup1\n                /* \"--CODEGEN--\":20:32   */\n              revert\n                /* \"--CODEGEN--\":5:7   */\n            tag_188:\n                /* \"Topic.sol\":6703:6803  repFactory.addReputation(this.calculateReputationGain(reputationInvestment[msg.sender]), msg.sender) */\n              pop\n              gas\n              call\n              iszero\n                /* \"--CODEGEN--\":8:17   */\n              dup1\n                /* \"--CODEGEN--\":5:7   */\n              iszero\n              tag_189\n              jumpi\n                /* \"--CODEGEN--\":45:61   */\n              returndatasize\n                /* \"--CODEGEN--\":42:43   */\n              0x00\n                /* \"--CODEGEN--\":39:40   */\n              dup1\n                /* \"--CODEGEN--\":24:62   */\n              returndatacopy\n                /* \"--CODEGEN--\":77:93   */\n              returndatasize\n                /* \"--CODEGEN--\":74:75   */\n              0x00\n                /* \"--CODEGEN--\":67:94   */\n              revert\n                /* \"--CODEGEN--\":5:7   */\n            tag_189:\n                /* \"Topic.sol\":6703:6803  repFactory.addReputation(this.calculateReputationGain(reputationInvestment[msg.sender]), msg.sender) */\n              pop\n              pop\n              pop\n              pop\n                /* \"Topic.sol\":6417:6815  if ((majority == 1 && arg.isTrue) || (majority == 2 && !arg.isTrue) || (majority == 3)) {\r... */\n              pop\n            tag_180:\n                /* \"Topic.sol\":5970:6822  function claim() public {\r... */\n              pop\n              pop\n              jump\t// out\n                /* \"Topic.sol\":729:764  uint public totalMonetaryInvestment */\n            tag_87:\n              sload(0x09)\n              dup2\n              jump\t// out\n                /* \"Topic.sol\":3794:3886  function getLieCount() public view returns (uint) {\r... */\n            tag_90:\n                /* \"Topic.sol\":3838:3842  uint */\n              0x00\n                /* \"Topic.sol\":3862:3871  lieVoters */\n              0x0f\n                /* \"Topic.sol\":3862:3878  lieVoters.length */\n              dup1\n              sload\n              swap1\n              pop\n                /* \"Topic.sol\":3855:3878  return lieVoters.length */\n              swap1\n              pop\n                /* \"Topic.sol\":3794:3886  function getLieCount() public view returns (uint) {\r... */\n              swap1\n              jump\t// out\n                /* \"Topic.sol\":2319:2395  function isTopic() public pure returns (bool) {\r... */\n            tag_93:\n                /* \"Topic.sol\":2359:2363  bool */\n              0x00\n                /* \"Topic.sol\":2383:2387  true */\n              0x01\n                /* \"Topic.sol\":2376:2387  return true */\n              swap1\n              pop\n                /* \"Topic.sol\":2319:2395  function isTopic() public pure returns (bool) {\r... */\n              swap1\n              jump\t// out\n                /* \"Topic.sol\":421:442  string public content */\n            tag_96:\n              0x02\n              dup1\n              sload\n              0x01\n              dup2\n              0x01\n              and\n              iszero\n              0x0100\n              mul\n              sub\n              and\n              0x02\n              swap1\n              div\n              dup1\n              0x1f\n              add\n              0x20\n              dup1\n              swap2\n              div\n              mul\n              0x20\n              add\n              mload(0x40)\n              swap1\n              dup2\n              add\n              0x40\n              mstore\n              dup1\n              swap3\n              swap2\n              swap1\n              dup2\n              dup2\n              mstore\n              0x20\n              add\n              dup3\n              dup1\n              sload\n              0x01\n              dup2\n              0x01\n              and\n              iszero\n              0x0100\n              mul\n              sub\n              and\n              0x02\n              swap1\n              div\n              dup1\n              iszero\n              tag_192\n              jumpi\n              dup1\n              0x1f\n              lt\n              tag_193\n              jumpi\n              0x0100\n              dup1\n              dup4\n              sload\n              div\n              mul\n              dup4\n              mstore\n              swap2\n              0x20\n              add\n              swap2\n              jump(tag_192)\n            tag_193:\n              dup3\n              add\n              swap2\n              swap1\n              0x00\n              mstore\n              keccak256(0x00, 0x20)\n              swap1\n            tag_194:\n              dup2\n              sload\n              dup2\n              mstore\n              swap1\n              0x01\n              add\n              swap1\n              0x20\n              add\n              dup1\n              dup4\n              gt\n              tag_194\n              jumpi\n              dup3\n              swap1\n              sub\n              0x1f\n              and\n              dup3\n              add\n              swap2\n            tag_192:\n              pop\n              pop\n              pop\n              pop\n              pop\n              dup2\n              jump\t// out\n                /* \"Topic.sol\":7251:7584  function creatorClaim() public _creatorOnly {\r... */\n            tag_103:\n                /* \"Topic.sol\":1267:1274  creator */\n              0x03\n              0x00\n              swap1\n              sload\n              swap1\n              0x0100\n              exp\n              swap1\n              div\n              0xffffffffffffffffffffffffffffffffffffffff\n              and\n                /* \"Topic.sol\":1253:1274  msg.sender == creator */\n              0xffffffffffffffffffffffffffffffffffffffff\n              and\n                /* \"Topic.sol\":1253:1263  msg.sender */\n              caller\n                /* \"Topic.sol\":1253:1274  msg.sender == creator */\n              0xffffffffffffffffffffffffffffffffffffffff\n              and\n              eq\n                /* \"Topic.sol\":1245:1337  require(msg.sender == creator, 'You must be the creator of this Topic in order to do this.') */\n              tag_196\n              jumpi\n              mload(0x40)\n              0x08c379a000000000000000000000000000000000000000000000000000000000\n              dup2\n              mstore\n              0x04\n              add\n              dup1\n              dup1\n              0x20\n              add\n              dup3\n              dup2\n              sub\n              dup3\n              mstore\n              0x3a\n              dup2\n              mstore\n              0x20\n              add\n              dup1\n              data_8e90808f17bc1108e9ea5a79970bcefb81f12d2e44e112b3ad4b251ae0873244\n              0x3a\n              swap2\n              codecopy\n              0x40\n              add\n              swap2\n              pop\n              pop\n              mload(0x40)\n              dup1\n              swap2\n              sub\n              swap1\n              revert\n            tag_196:\n                /* \"Topic.sol\":7350:7351  0 */\n              0x00\n                /* \"Topic.sol\":7333:7346  getLieCount() */\n              tag_198\n                /* \"Topic.sol\":7333:7344  getLieCount */\n              tag_90\n                /* \"Topic.sol\":7333:7346  getLieCount() */\n              jump\t// in\n            tag_198:\n                /* \"Topic.sol\":7315:7330  getTruthCount() */\n              tag_199\n                /* \"Topic.sol\":7315:7328  getTruthCount */\n              tag_70\n                /* \"Topic.sol\":7315:7330  getTruthCount() */\n              jump\t// in\n            tag_199:\n                /* \"Topic.sol\":7315:7346  getTruthCount() + getLieCount() */\n              add\n                /* \"Topic.sol\":7315:7351  getTruthCount() + getLieCount() == 0 */\n              eq\n                /* \"Topic.sol\":7306:7418  require((getTruthCount() + getLieCount() == 0), 'The money goes to the people who participated in the process.') */\n              tag_200\n              jumpi\n              mload(0x40)\n              0x08c379a000000000000000000000000000000000000000000000000000000000\n              dup2\n              mstore\n              0x04\n              add\n              dup1\n              dup1\n              0x20\n              add\n              dup3\n              dup2\n              sub\n              dup3\n              mstore\n              0x3d\n              dup2\n              mstore\n              0x20\n              add\n              dup1\n              data_487936df645dd8c7181d68f73972966a3a06b5ee3756057942e5a7608d64edfe\n              0x3d\n              swap2\n              codecopy\n              0x40\n              add\n              swap2\n              pop\n              pop\n              mload(0x40)\n              dup1\n              swap2\n              sub\n              swap1\n              revert\n            tag_200:\n                /* \"Topic.sol\":7455:7462  endTime */\n              sload(0x05)\n                /* \"Topic.sol\":7437:7452  block.timestamp */\n              timestamp\n                /* \"Topic.sol\":7437:7462  block.timestamp > endTime */\n              gt\n                /* \"Topic.sol\":7429:7521  require(block.timestamp > endTime, 'You can only claim your rewards after the time period.') */\n              tag_201\n              jumpi\n              mload(0x40)\n              0x08c379a000000000000000000000000000000000000000000000000000000000\n              dup2\n              mstore\n              0x04\n              add\n              dup1\n              dup1\n              0x20\n              add\n              dup3\n              dup2\n              sub\n              dup3\n              mstore\n              0x36\n              dup2\n              mstore\n              0x20\n              add\n              dup1\n              data_1382083f71a022fa6144748d79496d6f05d3bcf3a0f484b323383c5c8edd8d26\n              0x36\n              swap2\n              codecopy\n              0x40\n              add\n              swap2\n              pop\n              pop\n              mload(0x40)\n              dup1\n              swap2\n              sub\n              swap1\n              revert\n            tag_201:\n                /* \"Topic.sol\":7534:7544  msg.sender */\n              caller\n                /* \"Topic.sol\":7534:7553  msg.sender.transfer */\n              0xffffffffffffffffffffffffffffffffffffffff\n              and\n                /* \"Topic.sol\":7534:7576  msg.sender.transfer(address(this).balance) */\n              0x08fc\n                /* \"Topic.sol\":7554:7575  address(this).balance */\n              selfbalance\n                /* \"Topic.sol\":7534:7576  msg.sender.transfer(address(this).balance) */\n              swap1\n              dup2\n              iszero\n              mul\n              swap1\n              mload(0x40)\n              0x00\n              mload(0x40)\n              dup1\n              dup4\n              sub\n              dup2\n              dup6\n              dup9\n              dup9\n              call\n              swap4\n              pop\n              pop\n              pop\n              pop\n              iszero\n                /* \"--CODEGEN--\":8:17   */\n              dup1\n                /* \"--CODEGEN--\":5:7   */\n              iszero\n              tag_202\n              jumpi\n                /* \"--CODEGEN--\":45:61   */\n              returndatasize\n                /* \"--CODEGEN--\":42:43   */\n              0x00\n                /* \"--CODEGEN--\":39:40   */\n              dup1\n                /* \"--CODEGEN--\":24:62   */\n              returndatacopy\n                /* \"--CODEGEN--\":77:93   */\n              returndatasize\n                /* \"--CODEGEN--\":74:75   */\n              0x00\n                /* \"--CODEGEN--\":67:94   */\n              revert\n                /* \"--CODEGEN--\":5:7   */\n            tag_202:\n                /* \"Topic.sol\":7534:7576  msg.sender.transfer(address(this).balance) */\n              pop\n                /* \"Topic.sol\":7251:7584  function creatorClaim() public _creatorOnly {\r... */\n              jump\t// out\n                /* \"Topic.sol\":576:613  mapping(address => uint) public voted */\n            tag_107:\n              mstore(0x20, 0x07)\n              dup1\n              0x00\n              mstore\n              keccak256(0x00, 0x40)\n              0x00\n              swap2\n              pop\n              swap1\n              pop\n              sload\n              dup2\n              jump\t// out\n                /* \"Topic.sol\":2457:3682  function vote(uint argumentIndex, uint reputationCost) public payable _mustBeWithinTimeFrame {\r... */\n            tag_110:\n                /* \"Topic.sol\":1526:1533  endTime */\n              sload(0x05)\n                /* \"Topic.sol\":1508:1523  block.timestamp */\n              timestamp\n                /* \"Topic.sol\":1508:1533  block.timestamp < endTime */\n              lt\n                /* \"Topic.sol\":1500:1581  require(block.timestamp < endTime, 'The period for the Topic has already ended.') */\n              tag_204\n              jumpi\n              mload(0x40)\n              0x08c379a000000000000000000000000000000000000000000000000000000000\n              dup2\n              mstore\n              0x04\n              add\n              dup1\n              dup1\n              0x20\n              add\n              dup3\n              dup2\n              sub\n              dup3\n              mstore\n              0x2b\n              dup2\n              mstore\n              0x20\n              add\n              dup1\n              data_9f7f122b70f117f8950311c325d9279ba88d6a0d2b593ed4f11b7663b9f48d07\n              0x2b\n              swap2\n              codecopy\n              0x40\n              add\n              swap2\n              pop\n              pop\n              mload(0x40)\n              dup1\n              swap2\n              sub\n              swap1\n              revert\n            tag_204:\n                /* \"Topic.sol\":2586:2587  0 */\n              0x00\n                /* \"Topic.sol\":2569:2582  argumentIndex */\n              dup3\n                /* \"Topic.sol\":2569:2587  argumentIndex != 0 */\n              eq\n              iszero\n                /* \"Topic.sol\":2561:2651  require(argumentIndex != 0, 'You cannot vote for the argument generated by the contract.') */\n              tag_206\n              jumpi\n              mload(0x40)\n              0x08c379a000000000000000000000000000000000000000000000000000000000\n              dup2\n              mstore\n              0x04\n              add\n              dup1\n              dup1\n              0x20\n              add\n              dup3\n              dup2\n              sub\n              dup3\n              mstore\n              0x3b\n              dup2\n              mstore\n              0x20\n              add\n              dup1\n              data_a51d6c7e63ccd193933dbe11cb306fe5ec831a64f09f21fc7409bad4b2e4d83d\n              0x3b\n              swap2\n              codecopy\n              0x40\n              add\n              swap2\n              pop\n              pop\n              mload(0x40)\n              dup1\n              swap2\n              sub\n              swap1\n              revert\n            tag_206:\n                /* \"Topic.sol\":2691:2692  0 */\n              0x00\n                /* \"Topic.sol\":2670:2675  voted */\n              0x07\n                /* \"Topic.sol\":2670:2687  voted[msg.sender] */\n              0x00\n                /* \"Topic.sol\":2676:2686  msg.sender */\n              caller\n                /* \"Topic.sol\":2670:2687  voted[msg.sender] */\n              0xffffffffffffffffffffffffffffffffffffffff\n              and\n              0xffffffffffffffffffffffffffffffffffffffff\n              and\n              dup2\n              mstore\n              0x20\n              add\n              swap1\n              dup2\n              mstore\n              0x20\n              add\n              0x00\n              keccak256\n              sload\n                /* \"Topic.sol\":2670:2692  voted[msg.sender] == 0 */\n              eq\n                /* \"Topic.sol\":2662:2750  require(voted[msg.sender] == 0, 'You have already voted. You may not change your vote.') */\n              tag_207\n              jumpi\n              mload(0x40)\n              0x08c379a000000000000000000000000000000000000000000000000000000000\n              dup2\n              mstore\n              0x04\n              add\n              dup1\n              dup1\n              0x20\n              add\n              dup3\n              dup2\n              sub\n              dup3\n              mstore\n              0x35\n              dup2\n              mstore\n              0x20\n              add\n              dup1\n              data_e7eff9e8bfd97a1462a69b9b489e013c0dc4931276c8cdd67607888c761a1d3c\n              0x35\n              swap2\n              codecopy\n              0x40\n              add\n              swap2\n              pop\n              pop\n              mload(0x40)\n              dup1\n              swap2\n              sub\n              swap1\n              revert\n            tag_207:\n                /* \"Topic.sol\":2782:2799  minimumInvestment */\n              sload(0x04)\n                /* \"Topic.sol\":2769:2778  msg.value */\n              callvalue\n                /* \"Topic.sol\":2769:2799  msg.value >= minimumInvestment */\n              lt\n              iszero\n                /* \"Topic.sol\":2761:2874  require(msg.value >= minimumInvestment, 'You must invest at least the minimum amount as decided by the creator.') */\n              tag_208\n              jumpi\n              mload(0x40)\n              0x08c379a000000000000000000000000000000000000000000000000000000000\n              dup2\n              mstore\n              0x04\n              add\n              dup1\n              dup1\n              0x20\n              add\n              dup3\n              dup2\n              sub\n              dup3\n              mstore\n              0x46\n              dup2\n              mstore\n              0x20\n              add\n              dup1\n              data_34b98d23d562a1a462a2b6766e2d3e1a49232f6fdafbe1eaa8383a3a59d99a34\n              0x46\n              swap2\n              codecopy\n              0x60\n              add\n              swap2\n              pop\n              pop\n              mload(0x40)\n              dup1\n              swap2\n              sub\n              swap1\n              revert\n            tag_208:\n                /* \"Topic.sol\":2885:2912  TopicAssigner topicAssigner */\n              0x00\n                /* \"Topic.sol\":2929:2949  topicAssignerAddress */\n              0x01\n              0x00\n              swap1\n              sload\n              swap1\n              0x0100\n              exp\n              swap1\n              div\n              0xffffffffffffffffffffffffffffffffffffffff\n              and\n                /* \"Topic.sol\":2885:2950  TopicAssigner topicAssigner = TopicAssigner(topicAssignerAddress) */\n              swap1\n              pop\n                /* \"Topic.sol\":2970:2983  topicAssigner */\n              dup1\n                /* \"Topic.sol\":2970:2992  topicAssigner.hasTopic */\n              0xffffffffffffffffffffffffffffffffffffffff\n              and\n              0x902701b7\n                /* \"Topic.sol\":2993:3003  msg.sender */\n              caller\n                /* \"Topic.sol\":3013:3017  this */\n              address\n                /* \"Topic.sol\":2970:3019  topicAssigner.hasTopic(msg.sender, address(this)) */\n              mload(0x40)\n              dup4\n              0xffffffff\n              and\n              0xe0\n              shl\n              dup2\n              mstore\n              0x04\n              add\n              dup1\n              dup4\n              0xffffffffffffffffffffffffffffffffffffffff\n              and\n              0xffffffffffffffffffffffffffffffffffffffff\n              and\n              dup2\n              mstore\n              0x20\n              add\n              dup3\n              0xffffffffffffffffffffffffffffffffffffffff\n              and\n              0xffffffffffffffffffffffffffffffffffffffff\n              and\n              dup2\n              mstore\n              0x20\n              add\n              swap3\n              pop\n              pop\n              pop\n              0x20\n              mload(0x40)\n              dup1\n              dup4\n              sub\n              dup2\n              dup7\n              dup1\n              extcodesize\n              iszero\n                /* \"--CODEGEN--\":8:17   */\n              dup1\n                /* \"--CODEGEN--\":5:7   */\n              iszero\n              tag_209\n              jumpi\n                /* \"--CODEGEN--\":30:31   */\n              0x00\n                /* \"--CODEGEN--\":27:28   */\n              dup1\n                /* \"--CODEGEN--\":20:32   */\n              revert\n                /* \"--CODEGEN--\":5:7   */\n            tag_209:\n                /* \"Topic.sol\":2970:3019  topicAssigner.hasTopic(msg.sender, address(this)) */\n              pop\n              gas\n              staticcall\n              iszero\n                /* \"--CODEGEN--\":8:17   */\n              dup1\n                /* \"--CODEGEN--\":5:7   */\n              iszero\n              tag_210\n              jumpi\n                /* \"--CODEGEN--\":45:61   */\n              returndatasize\n                /* \"--CODEGEN--\":42:43   */\n              0x00\n                /* \"--CODEGEN--\":39:40   */\n              dup1\n                /* \"--CODEGEN--\":24:62   */\n              returndatacopy\n                /* \"--CODEGEN--\":77:93   */\n              returndatasize\n                /* \"--CODEGEN--\":74:75   */\n              0x00\n                /* \"--CODEGEN--\":67:94   */\n              revert\n                /* \"--CODEGEN--\":5:7   */\n            tag_210:\n                /* \"Topic.sol\":2970:3019  topicAssigner.hasTopic(msg.sender, address(this)) */\n              pop\n              pop\n              pop\n              pop\n              mload(0x40)\n              returndatasize\n                /* \"--CODEGEN--\":13:15   */\n              0x20\n                /* \"--CODEGEN--\":8:11   */\n              dup2\n                /* \"--CODEGEN--\":5:16   */\n              lt\n                /* \"--CODEGEN--\":2:4   */\n              iszero\n              tag_211\n              jumpi\n                /* \"--CODEGEN--\":29:30   */\n              0x00\n                /* \"--CODEGEN--\":26:27   */\n              dup1\n                /* \"--CODEGEN--\":19:31   */\n              revert\n                /* \"--CODEGEN--\":2:4   */\n            tag_211:\n                /* \"Topic.sol\":2970:3019  topicAssigner.hasTopic(msg.sender, address(this)) */\n              dup2\n              add\n              swap1\n              dup1\n              dup1\n              mload\n              swap1\n              0x20\n              add\n              swap1\n              swap3\n              swap2\n              swap1\n              pop\n              pop\n              pop\n                /* \"Topic.sol\":2962:3073  require(topicAssigner.hasTopic(msg.sender, address(this)), \"You don't have this topic on your available list.\") */\n              tag_212\n              jumpi\n              mload(0x40)\n              0x08c379a000000000000000000000000000000000000000000000000000000000\n              dup2\n              mstore\n              0x04\n              add\n              dup1\n              dup1\n              0x20\n              add\n              dup3\n              dup2\n              sub\n              dup3\n              mstore\n              0x31\n              dup2\n              mstore\n              0x20\n              add\n              dup1\n              data_7f2fbf1567b414ddc89c86dd77666c523e02cd5b22fdeb330a6102a2952a5d5d\n              0x31\n              swap2\n              codecopy\n              0x40\n              add\n              swap2\n              pop\n              pop\n              mload(0x40)\n              dup1\n              swap2\n              sub\n              swap1\n              revert\n            tag_212:\n                /* \"Topic.sol\":3122:3146  reputationFactoryAddress */\n              0x00\n              dup1\n              swap1\n              sload\n              swap1\n              0x0100\n              exp\n              swap1\n              div\n              0xffffffffffffffffffffffffffffffffffffffff\n              and\n                /* \"Topic.sol\":3104:3163  ReputationFactory(reputationFactoryAddress).spendReputation */\n              0xffffffffffffffffffffffffffffffffffffffff\n              and\n              0x37c10389\n                /* \"Topic.sol\":3172:3176  this */\n              address\n                /* \"Topic.sol\":3179:3193  reputationCost */\n              dup5\n                /* \"Topic.sol\":3195:3205  msg.sender */\n              caller\n                /* \"Topic.sol\":3104:3206  ReputationFactory(reputationFactoryAddress).spendReputation(address(this), reputationCost, msg.sender) */\n              mload(0x40)\n              dup5\n              0xffffffff\n              and\n              0xe0\n              shl\n              dup2\n              mstore\n              0x04\n              add\n              dup1\n              dup5\n              0xffffffffffffffffffffffffffffffffffffffff\n              and\n              0xffffffffffffffffffffffffffffffffffffffff\n              and\n              dup2\n              mstore\n              0x20\n              add\n              dup4\n              dup2\n              mstore\n              0x20\n              add\n              dup3\n              0xffffffffffffffffffffffffffffffffffffffff\n              and\n              0xffffffffffffffffffffffffffffffffffffffff\n              and\n              dup2\n              mstore\n              0x20\n              add\n              swap4\n              pop\n              pop\n              pop\n              pop\n              0x00\n              mload(0x40)\n              dup1\n              dup4\n              sub\n              dup2\n              0x00\n              dup8\n              dup1\n              extcodesize\n              iszero\n                /* \"--CODEGEN--\":8:17   */\n              dup1\n                /* \"--CODEGEN--\":5:7   */\n              iszero\n              tag_213\n              jumpi\n                /* \"--CODEGEN--\":30:31   */\n              0x00\n                /* \"--CODEGEN--\":27:28   */\n              dup1\n                /* \"--CODEGEN--\":20:32   */\n              revert\n                /* \"--CODEGEN--\":5:7   */\n            tag_213:\n                /* \"Topic.sol\":3104:3206  ReputationFactory(reputationFactoryAddress).spendReputation(address(this), reputationCost, msg.sender) */\n              pop\n              gas\n              call\n              iszero\n                /* \"--CODEGEN--\":8:17   */\n              dup1\n                /* \"--CODEGEN--\":5:7   */\n              iszero\n              tag_214\n              jumpi\n                /* \"--CODEGEN--\":45:61   */\n              returndatasize\n                /* \"--CODEGEN--\":42:43   */\n              0x00\n                /* \"--CODEGEN--\":39:40   */\n              dup1\n                /* \"--CODEGEN--\":24:62   */\n              returndatacopy\n                /* \"--CODEGEN--\":77:93   */\n              returndatasize\n                /* \"--CODEGEN--\":74:75   */\n              0x00\n                /* \"--CODEGEN--\":67:94   */\n              revert\n                /* \"--CODEGEN--\":5:7   */\n            tag_214:\n                /* \"Topic.sol\":3104:3206  ReputationFactory(reputationFactoryAddress).spendReputation(address(this), reputationCost, msg.sender) */\n              pop\n              pop\n              pop\n              pop\n                /* \"Topic.sol\":3237:3250  argumentIndex */\n              dup3\n                /* \"Topic.sol\":3217:3222  voted */\n              0x07\n                /* \"Topic.sol\":3217:3234  voted[msg.sender] */\n              0x00\n                /* \"Topic.sol\":3223:3233  msg.sender */\n              caller\n                /* \"Topic.sol\":3217:3234  voted[msg.sender] */\n              0xffffffffffffffffffffffffffffffffffffffff\n              and\n              0xffffffffffffffffffffffffffffffffffffffff\n              and\n              dup2\n              mstore\n              0x20\n              add\n              swap1\n              dup2\n              mstore\n              0x20\n              add\n              0x00\n              keccak256\n                /* \"Topic.sol\":3217:3250  voted[msg.sender] = argumentIndex */\n              dup2\n              swap1\n              sstore\n              pop\n                /* \"Topic.sol\":3294:3303  msg.value */\n              callvalue\n                /* \"Topic.sol\":3261:3279  monetaryInvestment */\n              0x08\n                /* \"Topic.sol\":3261:3291  monetaryInvestment[msg.sender] */\n              0x00\n                /* \"Topic.sol\":3280:3290  msg.sender */\n              caller\n                /* \"Topic.sol\":3261:3291  monetaryInvestment[msg.sender] */\n              0xffffffffffffffffffffffffffffffffffffffff\n              and\n              0xffffffffffffffffffffffffffffffffffffffff\n              and\n              dup2\n              mstore\n              0x20\n              add\n              swap1\n              dup2\n              mstore\n              0x20\n              add\n              0x00\n              keccak256\n                /* \"Topic.sol\":3261:3303  monetaryInvestment[msg.sender] = msg.value */\n              dup2\n              swap1\n              sstore\n              pop\n                /* \"Topic.sol\":3341:3350  msg.value */\n              callvalue\n                /* \"Topic.sol\":3314:3337  totalMonetaryInvestment */\n              0x09\n              0x00\n                /* \"Topic.sol\":3314:3350  totalMonetaryInvestment += msg.value */\n              dup3\n              dup3\n              sload\n              add\n              swap3\n              pop\n              pop\n              dup2\n              swap1\n              sstore\n              pop\n                /* \"Topic.sol\":3396:3410  reputationCost */\n              dup2\n                /* \"Topic.sol\":3361:3381  reputationInvestment */\n              0x0b\n                /* \"Topic.sol\":3361:3393  reputationInvestment[msg.sender] */\n              0x00\n                /* \"Topic.sol\":3382:3392  msg.sender */\n              caller\n                /* \"Topic.sol\":3361:3393  reputationInvestment[msg.sender] */\n              0xffffffffffffffffffffffffffffffffffffffff\n              and\n              0xffffffffffffffffffffffffffffffffffffffff\n              and\n              dup2\n              mstore\n              0x20\n              add\n              swap1\n              dup2\n              mstore\n              0x20\n              add\n              0x00\n              keccak256\n                /* \"Topic.sol\":3361:3410  reputationInvestment[msg.sender] = reputationCost */\n              dup2\n              swap1\n              sstore\n              pop\n                /* \"Topic.sol\":3450:3464  reputationCost */\n              dup2\n                /* \"Topic.sol\":3421:3446  totalReputationInvestment */\n              0x0c\n              0x00\n                /* \"Topic.sol\":3421:3464  totalReputationInvestment += reputationCost */\n              dup3\n              dup3\n              sload\n              add\n              swap3\n              pop\n              pop\n              dup2\n              swap1\n              sstore\n              pop\n                /* \"Topic.sol\":3477:3486  arguments */\n              0x06\n                /* \"Topic.sol\":3487:3500  argumentIndex */\n              dup4\n                /* \"Topic.sol\":3477:3501  arguments[argumentIndex] */\n              dup2\n              sload\n              dup2\n              lt\n              tag_215\n              jumpi\n              invalid\n            tag_215:\n              swap1\n              0x00\n              mstore\n              keccak256(0x00, 0x20)\n              swap1\n              0x03\n              mul\n              add\n                /* \"Topic.sol\":3477:3511  arguments[argumentIndex].voteCount */\n              0x02\n              add\n              0x00\n                /* \"Topic.sol\":3477:3513  arguments[argumentIndex].voteCount++ */\n              dup2\n              sload\n              dup1\n              swap3\n              swap2\n              swap1\n              0x01\n              add\n              swap2\n              swap1\n              pop\n              sstore\n              pop\n                /* \"Topic.sol\":3528:3537  arguments */\n              0x06\n                /* \"Topic.sol\":3538:3551  argumentIndex */\n              dup4\n                /* \"Topic.sol\":3528:3552  arguments[argumentIndex] */\n              dup2\n              sload\n              dup2\n              lt\n              tag_217\n              jumpi\n              invalid\n            tag_217:\n              swap1\n              0x00\n              mstore\n              keccak256(0x00, 0x20)\n              swap1\n              0x03\n              mul\n              add\n                /* \"Topic.sol\":3528:3559  arguments[argumentIndex].isTrue */\n              0x01\n              add\n              0x00\n              swap1\n              sload\n              swap1\n              0x0100\n              exp\n              swap1\n              div\n              0xff\n              and\n                /* \"Topic.sol\":3524:3675  if (arguments[argumentIndex].isTrue) {\r... */\n              iszero\n              tag_219\n              jumpi\n                /* \"Topic.sol\":3576:3587  truthVoters */\n              0x0e\n                /* \"Topic.sol\":3593:3603  msg.sender */\n              caller\n                /* \"Topic.sol\":3576:3604  truthVoters.push(msg.sender) */\n              swap1\n              dup1\n                /* \"--CODEGEN--\":39:40   */\n              0x01\n                /* \"--CODEGEN--\":33:36   */\n              dup2\n                /* \"--CODEGEN--\":27:37   */\n              sload\n                /* \"--CODEGEN--\":23:41   */\n              add\n                /* \"--CODEGEN--\":57:67   */\n              dup1\n                /* \"--CODEGEN--\":52:55   */\n              dup3\n                /* \"--CODEGEN--\":45:68   */\n              sstore\n                /* \"--CODEGEN--\":79:89   */\n              dup1\n                /* \"--CODEGEN--\":72:89   */\n              swap2\n              pop\n                /* \"--CODEGEN--\":0:93   */\n              pop\n                /* \"Topic.sol\":3576:3604  truthVoters.push(msg.sender) */\n              swap1\n              0x01\n              dup3\n              sub\n              swap1\n              0x00\n              mstore\n              keccak256(0x00, 0x20)\n              add\n              0x00\n              swap1\n              swap2\n              swap3\n              swap1\n              swap2\n              swap1\n              swap2\n              0x0100\n              exp\n              dup2\n              sload\n              dup2\n              0xffffffffffffffffffffffffffffffffffffffff\n              mul\n              not\n              and\n              swap1\n              dup4\n              0xffffffffffffffffffffffffffffffffffffffff\n              and\n              mul\n              or\n              swap1\n              sstore\n              pop\n              pop\n                /* \"Topic.sol\":3524:3675  if (arguments[argumentIndex].isTrue) {\r... */\n              jump(tag_221)\n            tag_219:\n                /* \"Topic.sol\":3637:3646  lieVoters */\n              0x0f\n                /* \"Topic.sol\":3652:3662  msg.sender */\n              caller\n                /* \"Topic.sol\":3637:3663  lieVoters.push(msg.sender) */\n              swap1\n              dup1\n                /* \"--CODEGEN--\":39:40   */\n              0x01\n                /* \"--CODEGEN--\":33:36   */\n              dup2\n                /* \"--CODEGEN--\":27:37   */\n              sload\n                /* \"--CODEGEN--\":23:41   */\n              add\n                /* \"--CODEGEN--\":57:67   */\n              dup1\n                /* \"--CODEGEN--\":52:55   */\n              dup3\n                /* \"--CODEGEN--\":45:68   */\n              sstore\n                /* \"--CODEGEN--\":79:89   */\n              dup1\n                /* \"--CODEGEN--\":72:89   */\n              swap2\n              pop\n                /* \"--CODEGEN--\":0:93   */\n              pop\n                /* \"Topic.sol\":3637:3663  lieVoters.push(msg.sender) */\n              swap1\n              0x01\n              dup3\n              sub\n              swap1\n              0x00\n              mstore\n              keccak256(0x00, 0x20)\n              add\n              0x00\n              swap1\n              swap2\n              swap3\n              swap1\n              swap2\n              swap1\n              swap2\n              0x0100\n              exp\n              dup2\n              sload\n              dup2\n              0xffffffffffffffffffffffffffffffffffffffff\n              mul\n              not\n              and\n              swap1\n              dup4\n              0xffffffffffffffffffffffffffffffffffffffff\n              and\n              mul\n              or\n              swap1\n              sstore\n              pop\n              pop\n                /* \"Topic.sol\":3524:3675  if (arguments[argumentIndex].isTrue) {\r... */\n            tag_221:\n                /* \"Topic.sol\":1592:1593  _ */\n              pop\n                /* \"Topic.sol\":2457:3682  function vote(uint argumentIndex, uint reputationCost) public payable _mustBeWithinTimeFrame {\r... */\n              pop\n              pop\n              jump\t// out\n                /* \"Topic.sol\":7057:7243  function calculateReputationGain(uint initialReputation) pure public returns (uint) {\r... */\n            tag_114:\n                /* \"Topic.sol\":7135:7139  uint */\n              0x00\n                /* \"Topic.sol\":7152:7166  uint256 result */\n              dup1\n                /* \"Topic.sol\":7194:7196  10 */\n              0x0a\n                /* \"Topic.sol\":7189:7191  11 */\n              0x0b\n                /* \"Topic.sol\":7169:7186  initialReputation */\n              dup5\n                /* \"Topic.sol\":7169:7191  initialReputation * 11 */\n              mul\n                /* \"Topic.sol\":7169:7196  initialReputation * 11 / 10 */\n              dup2\n              tag_224\n              jumpi\n              invalid\n            tag_224:\n              div\n                /* \"Topic.sol\":7152:7196  uint256 result = initialReputation * 11 / 10 */\n              swap1\n              pop\n                /* \"Topic.sol\":7229:7235  result */\n              dup1\n                /* \"Topic.sol\":7222:7235  return result */\n              swap2\n              pop\n              pop\n                /* \"Topic.sol\":7057:7243  function calculateReputationGain(uint initialReputation) pure public returns (uint) {\r... */\n              swap2\n              swap1\n              pop\n              jump\t// out\n                /* \"Topic.sol\":1181:1201  uint public majority */\n            tag_117:\n              sload(0x11)\n              dup2\n              jump\t// out\n                /* \"Topic.sol\":4859:4956  function getArgumentCount() public view returns (uint) {\r... */\n            tag_120:\n                /* \"Topic.sol\":4908:4912  uint */\n              0x00\n                /* \"Topic.sol\":4932:4941  arguments */\n              0x06\n                /* \"Topic.sol\":4932:4948  arguments.length */\n              dup1\n              sload\n              swap1\n              pop\n                /* \"Topic.sol\":4925:4948  return arguments.length */\n              swap1\n              pop\n                /* \"Topic.sol\":4859:4956  function getArgumentCount() public view returns (uint) {\r... */\n              swap1\n              jump\t// out\n                /* \"Topic.sol\":814:866  mapping(address => uint) public reputationInvestment */\n            tag_124:\n              mstore(0x20, 0x0b)\n              dup1\n              0x00\n              mstore\n              keccak256(0x00, 0x40)\n              0x00\n              swap2\n              pop\n              swap1\n              pop\n              sload\n              dup2\n              jump\t// out\n                /* \"Topic.sol\":1032:1068  address payable[] public truthVoters */\n            tag_128:\n              0x0e\n              dup2\n              dup2\n              sload\n              dup2\n              lt\n              tag_226\n              jumpi\n              invalid\n            tag_226:\n              swap1\n              0x00\n              mstore\n              keccak256(0x00, 0x20)\n              add\n              0x00\n              swap2\n              pop\n              sload\n              swap1\n              0x0100\n              exp\n              swap1\n              div\n              0xffffffffffffffffffffffffffffffffffffffff\n              and\n              dup2\n              jump\t// out\n                /* \"Topic.sol\":906:943  uint public totalReputationInvestment */\n            tag_131:\n              sload(0x0c)\n              dup2\n              jump\t// out\n                /* \"Topic.sol\":4397:4851  function modifyArgument(uint argumentIndex, string memory newContent, bool belief) public _mustBeWithinTimeFrame  {\r... */\n            tag_138:\n                /* \"Topic.sol\":1526:1533  endTime */\n              sload(0x05)\n                /* \"Topic.sol\":1508:1523  block.timestamp */\n              timestamp\n                /* \"Topic.sol\":1508:1533  block.timestamp < endTime */\n              lt\n                /* \"Topic.sol\":1500:1581  require(block.timestamp < endTime, 'The period for the Topic has already ended.') */\n              tag_229\n              jumpi\n              mload(0x40)\n              0x08c379a000000000000000000000000000000000000000000000000000000000\n              dup2\n              mstore\n              0x04\n              add\n              dup1\n              dup1\n              0x20\n              add\n              dup3\n              dup2\n              sub\n              dup3\n              mstore\n              0x2b\n              dup2\n              mstore\n              0x20\n              add\n              dup1\n              data_9f7f122b70f117f8950311c325d9279ba88d6a0d2b593ed4f11b7663b9f48d07\n              0x2b\n              swap2\n              codecopy\n              0x40\n              add\n              swap2\n              pop\n              pop\n              mload(0x40)\n              dup1\n              swap2\n              sub\n              swap1\n              revert\n            tag_229:\n                /* \"Topic.sol\":4522:4542  Argument storage arg */\n              0x00\n                /* \"Topic.sol\":4545:4554  arguments */\n              0x06\n                /* \"Topic.sol\":4555:4568  argumentIndex */\n              dup5\n                /* \"Topic.sol\":4545:4569  arguments[argumentIndex] */\n              dup2\n              sload\n              dup2\n              lt\n              tag_231\n              jumpi\n              invalid\n            tag_231:\n              swap1\n              0x00\n              mstore\n              keccak256(0x00, 0x20)\n              swap1\n              0x03\n              mul\n              add\n                /* \"Topic.sol\":4522:4569  Argument storage arg = arguments[argumentIndex] */\n              swap1\n              pop\n                /* \"Topic.sol\":4603:4613  msg.sender */\n              caller\n                /* \"Topic.sol\":4588:4613  arg.creator == msg.sender */\n              0xffffffffffffffffffffffffffffffffffffffff\n              and\n                /* \"Topic.sol\":4588:4591  arg */\n              dup2\n                /* \"Topic.sol\":4588:4599  arg.creator */\n              0x01\n              add\n              0x01\n              swap1\n              sload\n              swap1\n              0x0100\n              exp\n              swap1\n              div\n              0xffffffffffffffffffffffffffffffffffffffff\n              and\n                /* \"Topic.sol\":4588:4613  arg.creator == msg.sender */\n              0xffffffffffffffffffffffffffffffffffffffff\n              and\n              eq\n                /* \"Topic.sol\":4580:4681  require(arg.creator == msg.sender, 'You must be the creator of this argument to modify its contents') */\n              tag_233\n              jumpi\n              mload(0x40)\n              0x08c379a000000000000000000000000000000000000000000000000000000000\n              dup2\n              mstore\n              0x04\n              add\n              dup1\n              dup1\n              0x20\n              add\n              dup3\n              dup2\n              sub\n              dup3\n              mstore\n              0x3f\n              dup2\n              mstore\n              0x20\n              add\n              dup1\n              data_462972cdfa3949c714200f01cc0119c34f13d2febb0b716c5c847368d043f42b\n              0x3f\n              swap2\n              codecopy\n              0x40\n              add\n              swap2\n              pop\n              pop\n              mload(0x40)\n              dup1\n              swap2\n              sub\n              swap1\n              revert\n            tag_233:\n                /* \"Topic.sol\":4717:4718  0 */\n              0x00\n                /* \"Topic.sol\":4700:4703  arg */\n              dup2\n                /* \"Topic.sol\":4700:4713  arg.voteCount */\n              0x02\n              add\n              sload\n                /* \"Topic.sol\":4700:4718  arg.voteCount == 0 */\n              eq\n                /* \"Topic.sol\":4692:4778  require(arg.voteCount == 0, 'Argument has already been voted on. Cannot be modified.') */\n              tag_234\n              jumpi\n              mload(0x40)\n              0x08c379a000000000000000000000000000000000000000000000000000000000\n              dup2\n              mstore\n              0x04\n              add\n              dup1\n              dup1\n              0x20\n              add\n              dup3\n              dup2\n              sub\n              dup3\n              mstore\n              0x37\n              dup2\n              mstore\n              0x20\n              add\n              dup1\n              data_1be1a3b9e30cac1814559605f4ac4b55233032853cb87250e77213ea0088799b\n              0x37\n              swap2\n              codecopy\n              0x40\n              add\n              swap2\n              pop\n              pop\n              mload(0x40)\n              dup1\n              swap2\n              sub\n              swap1\n              revert\n            tag_234:\n                /* \"Topic.sol\":4803:4813  newContent */\n              dup3\n                /* \"Topic.sol\":4789:4792  arg */\n              dup2\n                /* \"Topic.sol\":4789:4800  arg.content */\n              0x00\n              add\n                /* \"Topic.sol\":4789:4813  arg.content = newContent */\n              swap1\n              dup1\n              mload\n              swap1\n              0x20\n              add\n              swap1\n              tag_235\n              swap3\n              swap2\n              swap1\n              tag_236\n              jump\t// in\n            tag_235:\n              pop\n                /* \"Topic.sol\":4837:4843  belief */\n              dup2\n                /* \"Topic.sol\":4824:4827  arg */\n              dup2\n                /* \"Topic.sol\":4824:4834  arg.isTrue */\n              0x01\n              add\n              0x00\n                /* \"Topic.sol\":4824:4843  arg.isTrue = belief */\n              0x0100\n              exp\n              dup2\n              sload\n              dup2\n              0xff\n              mul\n              not\n              and\n              swap1\n              dup4\n              iszero\n              iszero\n              mul\n              or\n              swap1\n              sstore\n              pop\n                /* \"Topic.sol\":1592:1593  _ */\n              pop\n                /* \"Topic.sol\":4397:4851  function modifyArgument(uint argumentIndex, string memory newContent, bool belief) public _mustBeWithinTimeFrame  {\r... */\n              pop\n              pop\n              pop\n              jump\t// out\n                /* \"Topic.sol\":1151:1174  bool public isCompleted */\n            tag_141:\n              0x10\n              0x00\n              swap1\n              sload\n              swap1\n              0x0100\n              exp\n              swap1\n              div\n              0xff\n              and\n              dup2\n              jump\t// out\n                /* \"Topic.sol\":771:801  uint public finalMonetaryTotal */\n            tag_144:\n              sload(0x0a)\n              dup2\n              jump\t// out\n                /* \"Topic.sol\":7592:7738  function getDetails() public view returns (address, uint, uint, bool) {\r... */\n            tag_147:\n                /* \"Topic.sol\":7635:7642  address */\n              0x00\n                /* \"Topic.sol\":7644:7648  uint */\n              dup1\n                /* \"Topic.sol\":7650:7654  uint */\n              0x00\n                /* \"Topic.sol\":7656:7660  bool */\n              dup1\n                /* \"Topic.sol\":7681:7688  creator */\n              0x03\n              0x00\n              swap1\n              sload\n              swap1\n              0x0100\n              exp\n              swap1\n              div\n              0xffffffffffffffffffffffffffffffffffffffff\n              and\n                /* \"Topic.sol\":7690:7707  minimumInvestment */\n              sload(0x04)\n                /* \"Topic.sol\":7709:7716  endTime */\n              sload(0x05)\n                /* \"Topic.sol\":7718:7729  isCompleted */\n              0x10\n              0x00\n              swap1\n              sload\n              swap1\n              0x0100\n              exp\n              swap1\n              div\n              0xff\n              and\n                /* \"Topic.sol\":7673:7730  return (creator, minimumInvestment, endTime, isCompleted) */\n              swap4\n              pop\n              swap4\n              pop\n              swap4\n              pop\n              swap4\n              pop\n                /* \"Topic.sol\":7592:7738  function getDetails() public view returns (address, uint, uint, bool) {\r... */\n              swap1\n              swap2\n              swap3\n              swap4\n              jump\t// out\n                /* \"Topic.sol\":5127:5962  function calculateMajority() internal {\r... */\n            tag_175:\n                /* \"Topic.sol\":5196:5197  0 */\n              0x00\n                /* \"Topic.sol\":5184:5192  majority */\n              sload(0x11)\n                /* \"Topic.sol\":5184:5197  majority == 0 */\n              eq\n                /* \"Topic.sol\":5176:5236  require(majority == 0, 'Majority has already been decided.') */\n              tag_239\n              jumpi\n              mload(0x40)\n              0x08c379a000000000000000000000000000000000000000000000000000000000\n              dup2\n              mstore\n              0x04\n              add\n              dup1\n              dup1\n              0x20\n              add\n              dup3\n              dup2\n              sub\n              dup3\n              mstore\n              0x22\n              dup2\n              mstore\n              0x20\n              add\n              dup1\n              data_b923ef61fa2999a084d0e68c9e9898cf18c32317d3ee24c87dceb47dffcde339\n              0x22\n              swap2\n              codecopy\n              0x40\n              add\n              swap2\n              pop\n              pop\n              mload(0x40)\n              dup1\n              swap2\n              sub\n              swap1\n              revert\n            tag_239:\n                /* \"Topic.sol\":5270:5275  false */\n              0x00\n                /* \"Topic.sol\":5255:5275  isCompleted == false */\n              iszero\n              iszero\n                /* \"Topic.sol\":5255:5266  isCompleted */\n              0x10\n              0x00\n              swap1\n              sload\n              swap1\n              0x0100\n              exp\n              swap1\n              div\n              0xff\n              and\n                /* \"Topic.sol\":5255:5275  isCompleted == false */\n              iszero\n              iszero\n              eq\n                /* \"Topic.sol\":5247:5317  require(isCompleted == false, 'Topic is already marked as completed.') */\n              tag_240\n              jumpi\n              mload(0x40)\n              0x08c379a000000000000000000000000000000000000000000000000000000000\n              dup2\n              mstore\n              0x04\n              add\n              dup1\n              dup1\n              0x20\n              add\n              dup3\n              dup2\n              sub\n              dup3\n              mstore\n              0x25\n              dup2\n              mstore\n              0x20\n              add\n              dup1\n              data_69abe80003e6d0795ace8e04b4282120b32e88a03434cef64287876f072cb77e\n              0x25\n              swap2\n              codecopy\n              0x40\n              add\n              swap2\n              pop\n              pop\n              mload(0x40)\n              dup1\n              swap2\n              sub\n              swap1\n              revert\n            tag_240:\n                /* \"Topic.sol\":5354:5361  endTime */\n              sload(0x05)\n                /* \"Topic.sol\":5336:5351  block.timestamp */\n              timestamp\n                /* \"Topic.sol\":5336:5361  block.timestamp > endTime */\n              gt\n                /* \"Topic.sol\":5328:5430  require(block.timestamp > endTime, 'Majority can only be calculated after the time period has ended.') */\n              tag_241\n              jumpi\n              mload(0x40)\n              0x08c379a000000000000000000000000000000000000000000000000000000000\n              dup2\n              mstore\n              0x04\n              add\n              dup1\n              dup1\n              0x20\n              add\n              dup3\n              dup2\n              sub\n              dup3\n              mstore\n              0x40\n              dup2\n              mstore\n              0x20\n              add\n              dup1\n              data_81338d347818a2fed0620a7e85f685926d9e1bdbc7e2764bf0092067d32f7024\n              0x40\n              swap2\n              codecopy\n              0x40\n              add\n              swap2\n              pop\n              pop\n              mload(0x40)\n              dup1\n              swap2\n              sub\n              swap1\n              revert\n            tag_241:\n                /* \"Topic.sol\":5443:5458  uint truthCount */\n              0x00\n                /* \"Topic.sol\":5461:5476  getTruthCount() */\n              tag_242\n                /* \"Topic.sol\":5461:5474  getTruthCount */\n              tag_70\n                /* \"Topic.sol\":5461:5476  getTruthCount() */\n              jump\t// in\n            tag_242:\n                /* \"Topic.sol\":5443:5476  uint truthCount = getTruthCount() */\n              swap1\n              pop\n                /* \"Topic.sol\":5487:5500  uint lieCount */\n              0x00\n                /* \"Topic.sol\":5503:5516  getLieCount() */\n              tag_243\n                /* \"Topic.sol\":5503:5514  getLieCount */\n              tag_90\n                /* \"Topic.sol\":5503:5516  getLieCount() */\n              jump\t// in\n            tag_243:\n                /* \"Topic.sol\":5487:5516  uint lieCount = getLieCount() */\n              swap1\n              pop\n                /* \"Topic.sol\":5527:5543  uint winnerCount */\n              0x00\n                /* \"Topic.sol\":5546:5547  0 */\n              dup1\n                /* \"Topic.sol\":5527:5547  uint winnerCount = 0 */\n              swap1\n              pop\n                /* \"Topic.sol\":5577:5585  lieCount */\n              dup2\n                /* \"Topic.sol\":5564:5574  truthCount */\n              dup4\n                /* \"Topic.sol\":5564:5585  truthCount > lieCount */\n              gt\n                /* \"Topic.sol\":5560:5869  if (truthCount > lieCount) {\r... */\n              iszero\n              tag_244\n              jumpi\n                /* \"Topic.sol\":5613:5614  1 */\n              0x01\n                /* \"Topic.sol\":5602:5610  majority */\n              0x11\n                /* \"Topic.sol\":5602:5614  majority = 1 */\n              dup2\n              swap1\n              sstore\n              pop\n                /* \"Topic.sol\":5643:5653  truthCount */\n              dup3\n                /* \"Topic.sol\":5629:5653  winnerCount = truthCount */\n              swap1\n              pop\n                /* \"Topic.sol\":5560:5869  if (truthCount > lieCount) {\r... */\n              jump(tag_245)\n            tag_244:\n                /* \"Topic.sol\":5688:5696  lieCount */\n              dup2\n                /* \"Topic.sol\":5675:5685  truthCount */\n              dup4\n                /* \"Topic.sol\":5675:5696  truthCount < lieCount */\n              lt\n                /* \"Topic.sol\":5671:5869  if (truthCount < lieCount) {\r... */\n              iszero\n              tag_246\n              jumpi\n                /* \"Topic.sol\":5724:5725  2 */\n              0x02\n                /* \"Topic.sol\":5713:5721  majority */\n              0x11\n                /* \"Topic.sol\":5713:5725  majority = 2 */\n              dup2\n              swap1\n              sstore\n              pop\n                /* \"Topic.sol\":5754:5762  lieCount */\n              dup2\n                /* \"Topic.sol\":5740:5762  winnerCount = lieCount */\n              swap1\n              pop\n                /* \"Topic.sol\":5671:5869  if (truthCount < lieCount) {\r... */\n              jump(tag_247)\n            tag_246:\n                /* \"Topic.sol\":5806:5807  3 */\n              0x03\n                /* \"Topic.sol\":5795:5803  majority */\n              0x11\n                /* \"Topic.sol\":5795:5807  majority = 3 */\n              dup2\n              swap1\n              sstore\n              pop\n                /* \"Topic.sol\":5849:5857  lieCount */\n              dup2\n                /* \"Topic.sol\":5836:5846  truthCount */\n              dup4\n                /* \"Topic.sol\":5836:5857  truthCount + lieCount */\n              add\n                /* \"Topic.sol\":5822:5857  winnerCount = truthCount + lieCount */\n              swap1\n              pop\n                /* \"Topic.sol\":5671:5869  if (truthCount < lieCount) {\r... */\n            tag_247:\n                /* \"Topic.sol\":5560:5869  if (truthCount > lieCount) {\r... */\n            tag_245:\n                /* \"Topic.sol\":5902:5923  address(this).balance */\n              selfbalance\n                /* \"Topic.sol\":5881:5899  finalMonetaryTotal */\n              0x0a\n                /* \"Topic.sol\":5881:5923  finalMonetaryTotal = address(this).balance */\n              dup2\n              swap1\n              sstore\n              pop\n                /* \"Topic.sol\":5950:5954  true */\n              0x01\n                /* \"Topic.sol\":5936:5947  isCompleted */\n              0x10\n              0x00\n                /* \"Topic.sol\":5936:5954  isCompleted = true */\n              0x0100\n              exp\n              dup2\n              sload\n              dup2\n              0xff\n              mul\n              not\n              and\n              swap1\n              dup4\n              iszero\n              iszero\n              mul\n              or\n              swap1\n              sstore\n              pop\n                /* \"Topic.sol\":5127:5962  function calculateMajority() internal {\r... */\n              pop\n              pop\n              pop\n              jump\t// out\n                /* \"Topic.sol\":96:9879  contract Topic {\r... */\n            tag_153:\n              mload(0x40)\n              dup1\n              0x80\n              add\n              0x40\n              mstore\n              dup1\n              0x60\n              dup2\n              mstore\n              0x20\n              add\n              iszero(iszero(0x00))\n              dup2\n              mstore\n              0x20\n              add\n              and(0xffffffffffffffffffffffffffffffffffffffff, 0x00)\n              dup2\n              mstore\n              0x20\n              add\n              0x00\n              dup2\n              mstore\n              pop\n              swap1\n              jump\t// out\n            tag_156:\n              dup3\n              dup1\n              sload\n              0x01\n              dup2\n              0x01\n              and\n              iszero\n              0x0100\n              mul\n              sub\n              and\n              0x02\n              swap1\n              div\n              swap1\n              0x00\n              mstore\n              keccak256(0x00, 0x20)\n              swap1\n              0x1f\n              add\n              0x20\n              swap1\n              div\n              dup2\n              add\n              swap3\n              dup3\n              0x1f\n              lt\n              tag_249\n              jumpi\n              dup1\n              mload\n              not(0xff)\n              and\n              dup4\n              dup1\n              add\n              or\n              dup6\n              sstore\n              jump(tag_248)\n            tag_249:\n              dup3\n              dup1\n              add\n              0x01\n              add\n              dup6\n              sstore\n              dup3\n              iszero\n              tag_248\n              jumpi\n              swap2\n              dup3\n              add\n            tag_250:\n              dup3\n              dup2\n              gt\n              iszero\n              tag_251\n              jumpi\n              dup3\n              mload\n              dup3\n              sstore\n              swap2\n              0x20\n              add\n              swap2\n              swap1\n              0x01\n              add\n              swap1\n              jump(tag_250)\n            tag_251:\n            tag_248:\n              pop\n              swap1\n              pop\n              tag_252\n              swap2\n              swap1\n              tag_253\n              jump\t// in\n            tag_252:\n              pop\n              swap1\n              jump\t// out\n            tag_236:\n              dup3\n              dup1\n              sload\n              0x01\n              dup2\n              0x01\n              and\n              iszero\n              0x0100\n              mul\n              sub\n              and\n              0x02\n              swap1\n              div\n              swap1\n              0x00\n              mstore\n              keccak256(0x00, 0x20)\n              swap1\n              0x1f\n              add\n              0x20\n              swap1\n              div\n              dup2\n              add\n              swap3\n              dup3\n              0x1f\n              lt\n              tag_255\n              jumpi\n              dup1\n              mload\n              not(0xff)\n              and\n              dup4\n              dup1\n              add\n              or\n              dup6\n              sstore\n              jump(tag_254)\n            tag_255:\n              dup3\n              dup1\n              add\n              0x01\n              add\n              dup6\n              sstore\n              dup3\n              iszero\n              tag_254\n              jumpi\n              swap2\n              dup3\n              add\n            tag_256:\n              dup3\n              dup2\n              gt\n              iszero\n              tag_257\n              jumpi\n              dup3\n              mload\n              dup3\n              sstore\n              swap2\n              0x20\n              add\n              swap2\n              swap1\n              0x01\n              add\n              swap1\n              jump(tag_256)\n            tag_257:\n            tag_254:\n              pop\n              swap1\n              pop\n              tag_258\n              swap2\n              swap1\n              tag_253\n              jump\t// in\n            tag_258:\n              pop\n              swap1\n              jump\t// out\n            tag_253:\n              tag_259\n              swap2\n              swap1\n            tag_260:\n              dup1\n              dup3\n              gt\n              iszero\n              tag_261\n              jumpi\n              0x00\n              dup2\n              0x00\n              swap1\n              sstore\n              pop\n              0x01\n              add\n              jump(tag_260)\n            tag_261:\n              pop\n              swap1\n              jump\n            tag_259:\n              swap1\n              jump\t// out\n            stop\n            data_0f62f618588d36303d76fa765b4096f4535e8428b36a788090d83035227e6cbf 596f7520646964206e6f7420766f746520647572696e672074686520706572696f642c20736f20796f752063616e6e6f7420636c61696d2e\n            data_1382083f71a022fa6144748d79496d6f05d3bcf3a0f484b323383c5c8edd8d26 596f752063616e206f6e6c7920636c61696d20796f75722072657761726473206166746572207468652074696d6520706572696f642e\n            data_1be1a3b9e30cac1814559605f4ac4b55233032853cb87250e77213ea0088799b 417267756d656e742068617320616c7265616479206265656e20766f746564206f6e2e2043616e6e6f74206265206d6f6469666965642e\n            data_34b98d23d562a1a462a2b6766e2d3e1a49232f6fdafbe1eaa8383a3a59d99a34 596f75206d75737420696e76657374206174206c6561737420746865206d696e696d756d20616d6f756e742061732064656369646564206279207468652063726561746f722e\n            data_462972cdfa3949c714200f01cc0119c34f13d2febb0b716c5c847368d043f42b 596f75206d757374206265207468652063726561746f72206f66207468697320617267756d656e7420746f206d6f646966792069747320636f6e74656e7473\n            data_487936df645dd8c7181d68f73972966a3a06b5ee3756057942e5a7608d64edfe 546865206d6f6e657920676f657320746f207468652070656f706c652077686f2070617274696369706174656420696e207468652070726f636573732e\n            data_69abe80003e6d0795ace8e04b4282120b32e88a03434cef64287876f072cb77e 546f70696320697320616c7265616479206d61726b656420617320636f6d706c657465642e\n            data_7f2fbf1567b414ddc89c86dd77666c523e02cd5b22fdeb330a6102a2952a5d5d 596f7520646f6e27742068617665207468697320746f706963206f6e20796f757220617661696c61626c65206c6973742e\n            data_81338d347818a2fed0620a7e85f685926d9e1bdbc7e2764bf0092067d32f7024 4d616a6f726974792063616e206f6e6c792062652063616c63756c61746564206166746572207468652074696d6520706572696f642068617320656e6465642e\n            data_8912f675a50e382e9fd7b592cf1cd9595235c43ce4309904b1bd35e2a18fc4ee 596f75206861766520616c7265616479206372656174656420616e20617267756d656e742e\n            data_8e90808f17bc1108e9ea5a79970bcefb81f12d2e44e112b3ad4b251ae0873244 596f75206d757374206265207468652063726561746f72206f66207468697320546f70696320696e206f7264657220746f20646f20746869732e\n            data_9f7f122b70f117f8950311c325d9279ba88d6a0d2b593ed4f11b7663b9f48d07 54686520706572696f6420666f722074686520546f7069632068617320616c726561647920656e6465642e\n            data_a51d6c7e63ccd193933dbe11cb306fe5ec831a64f09f21fc7409bad4b2e4d83d 596f752063616e6e6f7420766f746520666f722074686520617267756d656e742067656e6572617465642062792074686520636f6e74726163742e\n            data_b923ef61fa2999a084d0e68c9e9898cf18c32317d3ee24c87dceb47dffcde339 4d616a6f726974792068617320616c7265616479206265656e20646563696465642e\n            data_e7eff9e8bfd97a1462a69b9b489e013c0dc4931276c8cdd67607888c761a1d3c 596f75206861766520616c726561647920766f7465642e20596f75206d6179206e6f74206368616e676520796f757220766f74652e\n\n            auxdata: 0xa265627a7a72315820eb17ec9d2ad2a79ff36a6ef872bbb841755d71590398659b7fb6d484e0fa988764736f6c63430005100032\n        }\n    }\n\n    auxdata: 0xa265627a7a723158203464f0c116e20953e21dd39b1dc37f914d3f1de34c84f7599459fac60a0dc1da64736f6c63430005100032\n}\n","bytecode":{"linkReferences":{},"object":"6080604052732a705700f9debcb867fe1e29c564513f1e9e4bdc600260006101000a81548173ffffffffffffffffffffffffffffffffffffffff021916908373ffffffffffffffffffffffffffffffffffffffff16021790555034801561006557600080fd5b50336000806101000a81548173ffffffffffffffffffffffffffffffffffffffff021916908373ffffffffffffffffffffffffffffffffffffffff16021790555061392a806100b56000396000f3fe6080604052600436106200007a5760003560e01c80639c6472c011620000555780639c6472c0146200024e578063d7f0007a14620002a3578063dc983f081462000322578063dfb097001462000445576200007a565b8063012a3bd3146200007f5780630a5e47bb146200011f5780638da5cb5b14620001f4575b600080fd5b3480156200008c57600080fd5b50620000c660048036036040811015620000a557600080fd5b81019080803590602001909291908035906020019092919050505062000473565b6040518080602001828103825283818151815260200191508051906020019060200280838360005b838110156200010b578082015181840152602081019050620000ee565b505050509050019250505060405180910390f35b620001f2600480360360608110156200013757600080fd5b81019080803590602001906401000000008111156200015557600080fd5b8201836020820111156200016857600080fd5b803590602001918460018302840111640100000000831117156200018b57600080fd5b91908080601f016020809104026020016040519081016040528093929190818152602001838380828437600081840152601f19601f82011690508083019250505050505050919291929080359060200190929190803590602001909291905050506200055c565b005b3480156200020157600080fd5b506200020c62000a08565b604051808273ffffffffffffffffffffffffffffffffffffffff1673ffffffffffffffffffffffffffffffffffffffff16815260200191505060405180910390f35b3480156200025b57600080fd5b50620002a1600480360360208110156200027457600080fd5b81019080803573ffffffffffffffffffffffffffffffffffffffff16906020019092919050505062000a2d565b005b348015620002b057600080fd5b50620002e060048036036020811015620002c957600080fd5b810190808035906020019092919050505062000b18565b604051808273ffffffffffffffffffffffffffffffffffffffff1673ffffffffffffffffffffffffffffffffffffffff16815260200191505060405180910390f35b3480156200032f57600080fd5b50620003ec600480360360208110156200034857600080fd5b81019080803590602001906401000000008111156200036657600080fd5b8201836020820111156200037957600080fd5b803590602001918460208302840111640100000000831117156200039c57600080fd5b919080806020026020016040519081016040528093929190818152602001838360200280828437600081840152601f19601f82011690508083019250505050505050919291929050505062000b55565b6040518080602001828103825283818151815260200191508051906020019060200280838360005b838110156200043157808201518184015260208101905062000414565b505050509050019250505060405180910390f35b3480156200045257600080fd5b506200045d62000c4e565b6040518082815260200191505060405180910390f35b606060008383039050606081604051908082528060200260200182016040528015620004ae5781602001602082028038833980820191505090505b50905060008090505b828110156200055057600181870181548110620004d057fe5b9060005260206000200160009054906101000a900473ffffffffffffffffffffffffffffffffffffffff168282815181106200050857fe5b602002602001019073ffffffffffffffffffffffffffffffffffffffff16908173ffffffffffffffffffffffffffffffffffffffff16815250508080600101915050620004b7565b50809250505092915050565b600073ffffffffffffffffffffffffffffffffffffffff16600360009054906101000a900473ffffffffffffffffffffffffffffffffffffffff1673ffffffffffffffffffffffffffffffffffffffff16141562000606576040517f08c379a000000000000000000000000000000000000000000000000000000000815260040180806020018281038252605e81526020018062003898605e913960600191505060405180910390fd5b6000600260009054906101000a900473ffffffffffffffffffffffffffffffffffffffff16600360009054906101000a900473ffffffffffffffffffffffffffffffffffffffff1685858533604051620006609062000c5b565b808773ffffffffffffffffffffffffffffffffffffffff1673ffffffffffffffffffffffffffffffffffffffff1681526020018673ffffffffffffffffffffffffffffffffffffffff1673ffffffffffffffffffffffffffffffffffffffff168152602001806020018581526020018481526020018373ffffffffffffffffffffffffffffffffffffffff1673ffffffffffffffffffffffffffffffffffffffff168152602001828103825286818151815260200191508051906020019080838360005b838110156200074157808201518184015260208101905062000724565b50505050905090810190601f1680156200076f5780820380516001836020036101000a031916815260200191505b50975050505050505050604051809103906000f08015801562000796573d6000803e3d6000fd5b50905060008190508073ffffffffffffffffffffffffffffffffffffffff166108fc479081150290604051600060405180830381858888f19350505050158015620007e5573d6000803e3d6000fd5b5060018290806001815401808255809150509060018203906000526020600020016000909192909190916101000a81548173ffffffffffffffffffffffffffffffffffffffff021916908373ffffffffffffffffffffffffffffffffffffffff160217905550506000600260009054906101000a900473ffffffffffffffffffffffffffffffffffffffff16905060008173ffffffffffffffffffffffffffffffffffffffff16639f96dab0336040518263ffffffff1660e01b8152600401808273ffffffffffffffffffffffffffffffffffffffff1673ffffffffffffffffffffffffffffffffffffffff16815260200191505060206040518083038186803b158015620008f357600080fd5b505afa15801562000908573d6000803e3d6000fd5b505050506040513d60208110156200091f57600080fd5b810190808051906020019092919050505090508073ffffffffffffffffffffffffffffffffffffffff1663c881cc6084336040518363ffffffff1660e01b8152600401808373ffffffffffffffffffffffffffffffffffffffff1673ffffffffffffffffffffffffffffffffffffffff1681526020018273ffffffffffffffffffffffffffffffffffffffff1673ffffffffffffffffffffffffffffffffffffffff16815260200192505050600060405180830381600087803b158015620009e657600080fd5b505af1158015620009fb573d6000803e3d6000fd5b5050505050505050505050565b6000809054906101000a900473ffffffffffffffffffffffffffffffffffffffff1681565b6000809054906101000a900473ffffffffffffffffffffffffffffffffffffffff1673ffffffffffffffffffffffffffffffffffffffff163373ffffffffffffffffffffffffffffffffffffffff161462000ad4576040517f08c379a0000000000000000000000000000000000000000000000000000000008152600401808060200182810382526042815260200180620038566042913960600191505060405180910390fd5b80600360006101000a81548173ffffffffffffffffffffffffffffffffffffffff021916908373ffffffffffffffffffffffffffffffffffffffff16021790555050565b6001818154811062000b2657fe5b906000526020600020016000915054906101000a900473ffffffffffffffffffffffffffffffffffffffff1681565b606060008251905060608160405190808252806020026020018201604052801562000b8f5781602001602082028038833980820191505090505b50905060008090505b8281101562000c4357600185828151811062000bb057fe5b60200260200101518154811062000bc357fe5b9060005260206000200160009054906101000a900473ffffffffffffffffffffffffffffffffffffffff1682828151811062000bfb57fe5b602002602001019073ffffffffffffffffffffffffffffffffffffffff16908173ffffffffffffffffffffffffffffffffffffffff1681525050808060010191505062000b98565b508092505050919050565b6000600180549050905090565b612bec8062000c6a8339019056fe60806040523480156200001157600080fd5b5060405162002bec38038062002bec833981810160405260c08110156200003757600080fd5b810190808051906020019092919080519060200190929190805160405193929190846401000000008211156200006c57600080fd5b838201915060208201858111156200008357600080fd5b8251866001820283011164010000000082111715620000a157600080fd5b8083526020830192505050908051906020019080838360005b83811015620000d7578082015181840152602081019050620000ba565b50505050905090810190601f168015620001055780820380516001836020036101000a031916815260200191505b50604052602001805190602001909291908051906020019092919080519060200190929190505050856000806101000a81548173ffffffffffffffffffffffffffffffffffffffff021916908373ffffffffffffffffffffffffffffffffffffffff16021790555084600160006101000a81548173ffffffffffffffffffffffffffffffffffffffff021916908373ffffffffffffffffffffffffffffffffffffffff1602179055508360029080519060200190620001c6929190620004c8565b508260048190555080600360006101000a81548173ffffffffffffffffffffffffffffffffffffffff021916908373ffffffffffffffffffffffffffffffffffffffff16021790555060006011819055506001820242016005819055506000600a81905550620002576040518060600160405280603e815260200162002bae603e913960006200026360201b60201c565b5050505050506200063e565b6005544210620002bf576040517f08c379a000000000000000000000000000000000000000000000000000000000815260040180806020018281038252602b81526020018062002b83602b913960400191505060405180910390fd5b6000600d60003373ffffffffffffffffffffffffffffffffffffffff1673ffffffffffffffffffffffffffffffffffffffff168152602001908152602001600020541462000359576040517f08c379a000000000000000000000000000000000000000000000000000000000815260040180806020018281038252602581526020018062002b5e6025913960400191505060405180910390fd5b620003636200054f565b604051806080016040528084815260200183151581526020013373ffffffffffffffffffffffffffffffffffffffff16815260200160008152509050600681908060018154018082558091505090600182039060005260206000209060030201600090919290919091506000820151816000019080519060200190620003eb9291906200058f565b5060208201518160010160006101000a81548160ff02191690831515021790555060408201518160010160016101000a81548173ffffffffffffffffffffffffffffffffffffffff021916908373ffffffffffffffffffffffffffffffffffffffff16021790555060608201518160020155505050600162000472620004bb60201b60201c565b03600d60003373ffffffffffffffffffffffffffffffffffffffff1673ffffffffffffffffffffffffffffffffffffffff16815260200190815260200160002081905550505050565b6000600680549050905090565b828054600181600116156101000203166002900490600052602060002090601f016020900481019282601f106200050b57805160ff19168380011785556200053c565b828001600101855582156200053c579182015b828111156200053b5782518255916020019190600101906200051e565b5b5090506200054b919062000616565b5090565b604051806080016040528060608152602001600015158152602001600073ffffffffffffffffffffffffffffffffffffffff168152602001600081525090565b828054600181600116156101000203166002900490600052602060002090601f016020900481019282601f10620005d257805160ff191683800117855562000603565b8280016001018555821562000603579182015b8281111562000602578251825591602001919060010190620005e5565b5b50905062000612919062000616565b5090565b6200063b91905b80821115620006375760008160009055506001016200061d565b5090565b90565b612510806200064e6000396000f3fe6080604052600436106101b75760003560e01c80638a4d5a67116100ec578063ca94fb2b1161008a578063f7ca7c7211610064578063f7ca7c7214610982578063fa391c6414610a60578063fbba5cb914610a8f578063fbbf93a014610aba576101b7565b8063ca94fb2b14610877578063e5d00035146108dc578063e72b014814610957576101b7565b8063b384abef116100c6578063b384abef1461079a578063b3b9ac1d146107d2578063b6e54bdf14610821578063c234d7891461084c576101b7565b80638a4d5a671461068e5780639380b1cf1461071e578063aec2ccae14610735576101b7565b80633197cbb6116101595780634e71d92d116101335780634e71d92d146105f257806353322842146106095780636e3ebc2e1461063457806374986bfc1461065f576101b7565b80633197cbb61461051357806344fe94321461053e5780634dd54033146105a3576101b7565b806309f74db71161019557806309f74db7146103495780630a68f631146103c45780632b925b25146104bd5780632ec32e6d146104e8576101b7565b806302d05d3f146101b95780630715ef001461021057806309c7caf1146102e4575b005b3480156101c557600080fd5b506101ce610b2a565b604051808273ffffffffffffffffffffffffffffffffffffffff1673ffffffffffffffffffffffffffffffffffffffff16815260200191505060405180910390f35b34801561021c57600080fd5b506102e26004803603604081101561023357600080fd5b810190808035906020019064010000000081111561025057600080fd5b82018360208201111561026257600080fd5b8035906020019184600183028401116401000000008311171561028457600080fd5b91908080601f016020809104026020016040519081016040528093929190818152602001838380828437600081840152601f19601f820116905080830192505050505050509192919290803515159060200190929190505050610b50565b005b3480156102f057600080fd5b506103336004803603602081101561030757600080fd5b81019080803573ffffffffffffffffffffffffffffffffffffffff169060200190929190505050610d98565b6040518082815260200191505060405180910390f35b34801561035557600080fd5b506103826004803603602081101561036c57600080fd5b8101908080359060200190929190505050610db0565b604051808273ffffffffffffffffffffffffffffffffffffffff1673ffffffffffffffffffffffffffffffffffffffff16815260200191505060405180910390f35b3480156103d057600080fd5b506103fd600480360360208110156103e757600080fd5b8101908080359060200190929190505050610dec565b6040518080602001851515151581526020018473ffffffffffffffffffffffffffffffffffffffff1673ffffffffffffffffffffffffffffffffffffffff168152602001838152602001828103825286818151815260200191508051906020019080838360005b8381101561047f578082015181840152602081019050610464565b50505050905090810190601f1680156104ac5780820380516001836020036101000a031916815260200191505b509550505050505060405180910390f35b3480156104c957600080fd5b506104d2610eee565b6040518082815260200191505060405180910390f35b3480156104f457600080fd5b506104fd610ef4565b6040518082815260200191505060405180910390f35b34801561051f57600080fd5b50610528610f01565b6040518082815260200191505060405180910390f35b34801561054a57600080fd5b5061058d6004803603602081101561056157600080fd5b81019080803573ffffffffffffffffffffffffffffffffffffffff169060200190929190505050610f07565b6040518082815260200191505060405180910390f35b3480156105af57600080fd5b506105dc600480360360208110156105c657600080fd5b8101908080359060200190929190505050610f1f565b6040518082815260200191505060405180910390f35b3480156105fe57600080fd5b50610607610f3d565b005b34801561061557600080fd5b5061061e611368565b6040518082815260200191505060405180910390f35b34801561064057600080fd5b5061064961136e565b6040518082815260200191505060405180910390f35b34801561066b57600080fd5b5061067461137b565b604051808215151515815260200191505060405180910390f35b34801561069a57600080fd5b506106a3611384565b6040518080602001828103825283818151815260200191508051906020019080838360005b838110156106e35780820151818401526020810190506106c8565b50505050905090810190601f1680156107105780820380516001836020036101000a031916815260200191505b509250505060405180910390f35b34801561072a57600080fd5b50610733611422565b005b34801561074157600080fd5b506107846004803603602081101561075857600080fd5b81019080803573ffffffffffffffffffffffffffffffffffffffff1690602001909291905050506115d4565b6040518082815260200191505060405180910390f35b6107d0600480360360408110156107b057600080fd5b8101908080359060200190929190803590602001909291905050506115ec565b005b3480156107de57600080fd5b5061080b600480360360208110156107f557600080fd5b8101908080359060200190929190505050611c11565b6040518082815260200191505060405180910390f35b34801561082d57600080fd5b50610836611c2d565b6040518082815260200191505060405180910390f35b34801561085857600080fd5b50610861611c33565b6040518082815260200191505060405180910390f35b34801561088357600080fd5b506108c66004803603602081101561089a57600080fd5b81019080803573ffffffffffffffffffffffffffffffffffffffff169060200190929190505050611c40565b6040518082815260200191505060405180910390f35b3480156108e857600080fd5b50610915600480360360208110156108ff57600080fd5b8101908080359060200190929190505050611c58565b604051808273ffffffffffffffffffffffffffffffffffffffff1673ffffffffffffffffffffffffffffffffffffffff16815260200191505060405180910390f35b34801561096357600080fd5b5061096c611c94565b6040518082815260200191505060405180910390f35b34801561098e57600080fd5b50610a5e600480360360608110156109a557600080fd5b8101908080359060200190929190803590602001906401000000008111156109cc57600080fd5b8201836020820111156109de57600080fd5b80359060200191846001830284011164010000000083111715610a0057600080fd5b91908080601f016020809104026020016040519081016040528093929190818152602001838380828437600081840152601f19601f820116905080830192505050505050509192919290803515159060200190929190505050611c9a565b005b348015610a6c57600080fd5b50610a75611e53565b604051808215151515815260200191505060405180910390f35b348015610a9b57600080fd5b50610aa4611e66565b6040518082815260200191505060405180910390f35b348015610ac657600080fd5b50610acf611e6c565b604051808573ffffffffffffffffffffffffffffffffffffffff1673ffffffffffffffffffffffffffffffffffffffff1681526020018481526020018381526020018215151515815260200194505050505060405180910390f35b600360009054906101000a900473ffffffffffffffffffffffffffffffffffffffff1681565b6005544210610baa576040517f08c379a000000000000000000000000000000000000000000000000000000000815260040180806020018281038252602b81526020018061241f602b913960400191505060405180910390fd5b6000600d60003373ffffffffffffffffffffffffffffffffffffffff1673ffffffffffffffffffffffffffffffffffffffff1681526020019081526020016000205414610c42576040517f08c379a00000000000000000000000000000000000000000000000000000000081526004018080602001828103825260258152602001806123c06025913960400191505060405180910390fd5b610c4a61205d565b604051806080016040528084815260200183151581526020013373ffffffffffffffffffffffffffffffffffffffff16815260200160008152509050600681908060018154018082558091505090600182039060005260206000209060030201600090919290919091506000820151816000019080519060200190610cd092919061209d565b5060208201518160010160006101000a81548160ff02191690831515021790555060408201518160010160016101000a81548173ffffffffffffffffffffffffffffffffffffffff021916908373ffffffffffffffffffffffffffffffffffffffff160217905550606082015181600201555050506001610d4f611c33565b03600d60003373ffffffffffffffffffffffffffffffffffffffff1673ffffffffffffffffffffffffffffffffffffffff16815260200190815260200160002081905550505050565b60086020528060005260406000206000915090505481565b600f8181548110610dbd57fe5b906000526020600020016000915054906101000a900473ffffffffffffffffffffffffffffffffffffffff1681565b60068181548110610df957fe5b9060005260206000209060030201600091509050806000018054600181600116156101000203166002900480601f016020809104026020016040519081016040528092919081815260200182805460018160011615610100020316600290048015610ea55780601f10610e7a57610100808354040283529160200191610ea5565b820191906000526020600020905b815481529060010190602001808311610e8857829003601f168201915b5050505050908060010160009054906101000a900460ff16908060010160019054906101000a900473ffffffffffffffffffffffffffffffffffffffff16908060020154905084565b60045481565b6000600e80549050905090565b60055481565b600d6020528060005260406000206000915090505481565b60008060095483600a540281610f3157fe5b04905080915050919050565b6005544211610f97576040517f08c379a00000000000000000000000000000000000000000000000000000000081526004018080602001828103825260368152602001806121fb6036913960400191505060405180910390fd5b6000600760003373ffffffffffffffffffffffffffffffffffffffff1673ffffffffffffffffffffffffffffffffffffffff1681526020019081526020016000205490506000811415611035576040517f08c379a00000000000000000000000000000000000000000000000000000000081526004018080602001828103825260388152602001806121c36038913960400191505060405180910390fd5b60006006828154811061104457fe5b906000526020600020906003020190506000601154141561106857611067611eb9565b5b600160115414801561108857508060010160009054906101000a900460ff165b806110b0575060026011541480156110af57508060010160009054906101000a900460ff16155b5b806110bd57506003601154145b15611364573373ffffffffffffffffffffffffffffffffffffffff166108fc3073ffffffffffffffffffffffffffffffffffffffff16634dd54033600860003373ffffffffffffffffffffffffffffffffffffffff1673ffffffffffffffffffffffffffffffffffffffff168152602001908152602001600020546040518263ffffffff1660e01b81526004018082815260200191505060206040518083038186803b15801561116c57600080fd5b505afa158015611180573d6000803e3d6000fd5b505050506040513d602081101561119657600080fd5b81019080805190602001909291905050509081150290604051600060405180830381858888f193505050501580156111d2573d6000803e3d6000fd5b5060008060009054906101000a900473ffffffffffffffffffffffffffffffffffffffff1690508073ffffffffffffffffffffffffffffffffffffffff16635f2ab5673073ffffffffffffffffffffffffffffffffffffffff1663b3b9ac1d600b60003373ffffffffffffffffffffffffffffffffffffffff1673ffffffffffffffffffffffffffffffffffffffff168152602001908152602001600020546040518263ffffffff1660e01b81526004018082815260200191505060206040518083038186803b1580156112a557600080fd5b505afa1580156112b9573d6000803e3d6000fd5b505050506040513d60208110156112cf57600080fd5b8101908080519060200190929190505050336040518363ffffffff1660e01b8152600401808381526020018273ffffffffffffffffffffffffffffffffffffffff1673ffffffffffffffffffffffffffffffffffffffff16815260200192505050600060405180830381600087803b15801561134a57600080fd5b505af115801561135e573d6000803e3d6000fd5b50505050505b5050565b60095481565b6000600f80549050905090565b60006001905090565b60028054600181600116156101000203166002900480601f01602080910402602001604051908101604052809291908181526020018280546001816001161561010002031660029004801561141a5780601f106113ef5761010080835404028352916020019161141a565b820191906000526020600020905b8154815290600101906020018083116113fd57829003601f168201915b505050505081565b600360009054906101000a900473ffffffffffffffffffffffffffffffffffffffff1673ffffffffffffffffffffffffffffffffffffffff163373ffffffffffffffffffffffffffffffffffffffff16146114c8576040517f08c379a000000000000000000000000000000000000000000000000000000000815260040180806020018281038252603a8152602001806123e5603a913960400191505060405180910390fd5b60006114d261136e565b6114da610ef4565b0114611531576040517f08c379a000000000000000000000000000000000000000000000000000000000815260040180806020018281038252603d8152602001806122ed603d913960400191505060405180910390fd5b600554421161158b576040517f08c379a00000000000000000000000000000000000000000000000000000000081526004018080602001828103825260368152602001806121fb6036913960400191505060405180910390fd5b3373ffffffffffffffffffffffffffffffffffffffff166108fc479081150290604051600060405180830381858888f193505050501580156115d1573d6000803e3d6000fd5b50565b60076020528060005260406000206000915090505481565b6005544210611646576040517f08c379a000000000000000000000000000000000000000000000000000000000815260040180806020018281038252602b81526020018061241f602b913960400191505060405180910390fd5b60008214156116a0576040517f08c379a000000000000000000000000000000000000000000000000000000000815260040180806020018281038252603b81526020018061244a603b913960400191505060405180910390fd5b6000600760003373ffffffffffffffffffffffffffffffffffffffff1673ffffffffffffffffffffffffffffffffffffffff1681526020019081526020016000205414611738576040517f08c379a00000000000000000000000000000000000000000000000000000000081526004018080602001828103825260358152602001806124a76035913960400191505060405180910390fd5b600454341015611793576040517f08c379a00000000000000000000000000000000000000000000000000000000081526004018080602001828103825260468152602001806122686046913960600191505060405180910390fd5b6000600160009054906101000a900473ffffffffffffffffffffffffffffffffffffffff1690508073ffffffffffffffffffffffffffffffffffffffff1663902701b733306040518363ffffffff1660e01b8152600401808373ffffffffffffffffffffffffffffffffffffffff1673ffffffffffffffffffffffffffffffffffffffff1681526020018273ffffffffffffffffffffffffffffffffffffffff1673ffffffffffffffffffffffffffffffffffffffff1681526020019250505060206040518083038186803b15801561186b57600080fd5b505afa15801561187f573d6000803e3d6000fd5b505050506040513d602081101561189557600080fd5b81019080805190602001909291905050506118fb576040517f08c379a000000000000000000000000000000000000000000000000000000000815260040180806020018281038252603181526020018061234f6031913960400191505060405180910390fd5b6000809054906101000a900473ffffffffffffffffffffffffffffffffffffffff1673ffffffffffffffffffffffffffffffffffffffff166337c103893084336040518463ffffffff1660e01b8152600401808473ffffffffffffffffffffffffffffffffffffffff1673ffffffffffffffffffffffffffffffffffffffff1681526020018381526020018273ffffffffffffffffffffffffffffffffffffffff1673ffffffffffffffffffffffffffffffffffffffff1681526020019350505050600060405180830381600087803b1580156119d757600080fd5b505af11580156119eb573d6000803e3d6000fd5b5050505082600760003373ffffffffffffffffffffffffffffffffffffffff1673ffffffffffffffffffffffffffffffffffffffff1681526020019081526020016000208190555034600860003373ffffffffffffffffffffffffffffffffffffffff1673ffffffffffffffffffffffffffffffffffffffff168152602001908152602001600020819055503460096000828254019250508190555081600b60003373ffffffffffffffffffffffffffffffffffffffff1673ffffffffffffffffffffffffffffffffffffffff1681526020019081526020016000208190555081600c6000828254019250508190555060068381548110611ae857fe5b90600052602060002090600302016002016000815480929190600101919050555060068381548110611b1657fe5b906000526020600020906003020160010160009054906101000a900460ff1615611ba557600e3390806001815401808255809150509060018203906000526020600020016000909192909190916101000a81548173ffffffffffffffffffffffffffffffffffffffff021916908373ffffffffffffffffffffffffffffffffffffffff16021790555050611c0c565b600f3390806001815401808255809150509060018203906000526020600020016000909192909190916101000a81548173ffffffffffffffffffffffffffffffffffffffff021916908373ffffffffffffffffffffffffffffffffffffffff160217905550505b505050565b600080600a600b840281611c2157fe5b04905080915050919050565b60115481565b6000600680549050905090565b600b6020528060005260406000206000915090505481565b600e8181548110611c6557fe5b906000526020600020016000915054906101000a900473ffffffffffffffffffffffffffffffffffffffff1681565b600c5481565b6005544210611cf4576040517f08c379a000000000000000000000000000000000000000000000000000000000815260040180806020018281038252602b81526020018061241f602b913960400191505060405180910390fd5b600060068481548110611d0357fe5b906000526020600020906003020190503373ffffffffffffffffffffffffffffffffffffffff168160010160019054906101000a900473ffffffffffffffffffffffffffffffffffffffff1673ffffffffffffffffffffffffffffffffffffffff1614611dbb576040517f08c379a000000000000000000000000000000000000000000000000000000000815260040180806020018281038252603f8152602001806122ae603f913960400191505060405180910390fd5b6000816002015414611e18576040517f08c379a00000000000000000000000000000000000000000000000000000000081526004018080602001828103825260378152602001806122316037913960400191505060405180910390fd5b82816000019080519060200190611e3092919061211d565b50818160010160006101000a81548160ff02191690831515021790555050505050565b601060009054906101000a900460ff1681565b600a5481565b600080600080600360009054906101000a900473ffffffffffffffffffffffffffffffffffffffff16600454600554601060009054906101000a900460ff16935093509350935090919293565b600060115414611f14576040517f08c379a00000000000000000000000000000000000000000000000000000000081526004018080602001828103825260228152602001806124856022913960400191505060405180910390fd5b60001515601060009054906101000a900460ff16151514611f80576040517f08c379a000000000000000000000000000000000000000000000000000000000815260040180806020018281038252602581526020018061232a6025913960400191505060405180910390fd5b6005544211611fda576040517f08c379a00000000000000000000000000000000000000000000000000000000081526004018080602001828103825260408152602001806123806040913960400191505060405180910390fd5b6000611fe4610ef4565b90506000611ff061136e565b905060008090508183111561200f576001601181905550829050612036565b81831015612027576002601181905550819050612035565b600360118190555081830190505b5b47600a819055506001601060006101000a81548160ff021916908315150217905550505050565b604051806080016040528060608152602001600015158152602001600073ffffffffffffffffffffffffffffffffffffffff168152602001600081525090565b828054600181600116156101000203166002900490600052602060002090601f016020900481019282601f106120de57805160ff191683800117855561210c565b8280016001018555821561210c579182015b8281111561210b5782518255916020019190600101906120f0565b5b509050612119919061219d565b5090565b828054600181600116156101000203166002900490600052602060002090601f016020900481019282601f1061215e57805160ff191683800117855561218c565b8280016001018555821561218c579182015b8281111561218b578251825591602001919060010190612170565b5b509050612199919061219d565b5090565b6121bf91905b808211156121bb5760008160009055506001016121a3565b5090565b9056fe596f7520646964206e6f7420766f746520647572696e672074686520706572696f642c20736f20796f752063616e6e6f7420636c61696d2e596f752063616e206f6e6c7920636c61696d20796f75722072657761726473206166746572207468652074696d6520706572696f642e417267756d656e742068617320616c7265616479206265656e20766f746564206f6e2e2043616e6e6f74206265206d6f6469666965642e596f75206d75737420696e76657374206174206c6561737420746865206d696e696d756d20616d6f756e742061732064656369646564206279207468652063726561746f722e596f75206d757374206265207468652063726561746f72206f66207468697320617267756d656e7420746f206d6f646966792069747320636f6e74656e7473546865206d6f6e657920676f657320746f207468652070656f706c652077686f2070617274696369706174656420696e207468652070726f636573732e546f70696320697320616c7265616479206d61726b656420617320636f6d706c657465642e596f7520646f6e27742068617665207468697320746f706963206f6e20796f757220617661696c61626c65206c6973742e4d616a6f726974792063616e206f6e6c792062652063616c63756c61746564206166746572207468652074696d6520706572696f642068617320656e6465642e596f75206861766520616c7265616479206372656174656420616e20617267756d656e742e596f75206d757374206265207468652063726561746f72206f66207468697320546f70696320696e206f7264657220746f20646f20746869732e54686520706572696f6420666f722074686520546f7069632068617320616c726561647920656e6465642e596f752063616e6e6f7420766f746520666f722074686520617267756d656e742067656e6572617465642062792074686520636f6e74726163742e4d616a6f726974792068617320616c7265616479206265656e20646563696465642e596f75206861766520616c726561647920766f7465642e20596f75206d6179206e6f74206368616e676520796f757220766f74652ea265627a7a72315820eb17ec9d2ad2a79ff36a6ef872bbb841755d71590398659b7fb6d484e0fa988764736f6c63430005100032596f75206861766520616c7265616479206372656174656420616e20617267756d656e742e54686520706572696f6420666f722074686520546f7069632068617320616c726561647920656e6465642e596f752068617665206e6f742063686f73656e207965742077686574686572207468652073746174656d656e742069732074727565206f722066616c7365596f75206d757374206265207468652063726561746f72206f66207468697320546f70696320466163746f727920696e206f7264657220746f20646f20746869732e4120546f7069632041737369676e657220636f6e74726163742061646472657373206d7573742062652061737369676e6564206265666f7265206265696e672061626c6520746f2063726561746520616e79206e657720746f706963732ea265627a7a723158203464f0c116e20953e21dd39b1dc37f914d3f1de34c84f7599459fac60a0dc1da64736f6c63430005100032","opcodes":"PUSH1 0x80 PUSH1 0x40 MSTORE PUSH20 0x2A705700F9DEBCB867FE1E29C564513F1E9E4BDC PUSH1 0x2 PUSH1 0x0 PUSH2 0x100 EXP DUP2 SLOAD DUP2 PUSH20 0xFFFFFFFFFFFFFFFFFFFFFFFFFFFFFFFFFFFFFFFF MUL NOT AND SWAP1 DUP4 PUSH20 0xFFFFFFFFFFFFFFFFFFFFFFFFFFFFFFFFFFFFFFFF AND MUL OR SWAP1 SSTORE POP CALLVALUE DUP1 ISZERO PUSH2 0x65 JUMPI PUSH1 0x0 DUP1 REVERT JUMPDEST POP CALLER PUSH1 0x0 DUP1 PUSH2 0x100 EXP DUP2 SLOAD DUP2 PUSH20 0xFFFFFFFFFFFFFFFFFFFFFFFFFFFFFFFFFFFFFFFF MUL NOT AND SWAP1 DUP4 PUSH20 0xFFFFFFFFFFFFFFFFFFFFFFFFFFFFFFFFFFFFFFFF AND MUL OR SWAP1 SSTORE POP PUSH2 0x392A DUP1 PUSH2 0xB5 PUSH1 0x0 CODECOPY PUSH1 0x0 RETURN INVALID PUSH1 0x80 PUSH1 0x40 MSTORE PUSH1 0x4 CALLDATASIZE LT PUSH3 0x7A JUMPI PUSH1 0x0 CALLDATALOAD PUSH1 0xE0 SHR DUP1 PUSH4 0x9C6472C0 GT PUSH3 0x55 JUMPI DUP1 PUSH4 0x9C6472C0 EQ PUSH3 0x24E JUMPI DUP1 PUSH4 0xD7F0007A EQ PUSH3 0x2A3 JUMPI DUP1 PUSH4 0xDC983F08 EQ PUSH3 0x322 JUMPI DUP1 PUSH4 0xDFB09700 EQ PUSH3 0x445 JUMPI PUSH3 0x7A JUMP JUMPDEST DUP1 PUSH4 0x12A3BD3 EQ PUSH3 0x7F JUMPI DUP1 PUSH4 0xA5E47BB EQ PUSH3 0x11F JUMPI DUP1 PUSH4 0x8DA5CB5B EQ PUSH3 0x1F4 JUMPI JUMPDEST PUSH1 0x0 DUP1 REVERT JUMPDEST CALLVALUE DUP1 ISZERO PUSH3 0x8C JUMPI PUSH1 0x0 DUP1 REVERT JUMPDEST POP PUSH3 0xC6 PUSH1 0x4 DUP1 CALLDATASIZE SUB PUSH1 0x40 DUP2 LT ISZERO PUSH3 0xA5 JUMPI PUSH1 0x0 DUP1 REVERT JUMPDEST DUP2 ADD SWAP1 DUP1 DUP1 CALLDATALOAD SWAP1 PUSH1 0x20 ADD SWAP1 SWAP3 SWAP2 SWAP1 DUP1 CALLDATALOAD SWAP1 PUSH1 0x20 ADD SWAP1 SWAP3 SWAP2 SWAP1 POP POP POP PUSH3 0x473 JUMP JUMPDEST PUSH1 0x40 MLOAD DUP1 DUP1 PUSH1 0x20 ADD DUP3 DUP2 SUB DUP3 MSTORE DUP4 DUP2 DUP2 MLOAD DUP2 MSTORE PUSH1 0x20 ADD SWAP2 POP DUP1 MLOAD SWAP1 PUSH1 0x20 ADD SWAP1 PUSH1 0x20 MUL DUP1 DUP4 DUP4 PUSH1 0x0 JUMPDEST DUP4 DUP2 LT ISZERO PUSH3 0x10B JUMPI DUP1 DUP3 ADD MLOAD DUP2 DUP5 ADD MSTORE PUSH1 0x20 DUP2 ADD SWAP1 POP PUSH3 0xEE JUMP JUMPDEST POP POP POP POP SWAP1 POP ADD SWAP3 POP POP POP PUSH1 0x40 MLOAD DUP1 SWAP2 SUB SWAP1 RETURN JUMPDEST PUSH3 0x1F2 PUSH1 0x4 DUP1 CALLDATASIZE SUB PUSH1 0x60 DUP2 LT ISZERO PUSH3 0x137 JUMPI PUSH1 0x0 DUP1 REVERT JUMPDEST DUP2 ADD SWAP1 DUP1 DUP1 CALLDATALOAD SWAP1 PUSH1 0x20 ADD SWAP1 PUSH5 0x100000000 DUP2 GT ISZERO PUSH3 0x155 JUMPI PUSH1 0x0 DUP1 REVERT JUMPDEST DUP3 ADD DUP4 PUSH1 0x20 DUP3 ADD GT ISZERO PUSH3 0x168 JUMPI PUSH1 0x0 DUP1 REVERT JUMPDEST DUP1 CALLDATALOAD SWAP1 PUSH1 0x20 ADD SWAP2 DUP5 PUSH1 0x1 DUP4 MUL DUP5 ADD GT PUSH5 0x100000000 DUP4 GT OR ISZERO PUSH3 0x18B JUMPI PUSH1 0x0 DUP1 REVERT JUMPDEST SWAP2 SWAP1 DUP1 DUP1 PUSH1 0x1F ADD PUSH1 0x20 DUP1 SWAP2 DIV MUL PUSH1 0x20 ADD PUSH1 0x40 MLOAD SWAP1 DUP2 ADD PUSH1 0x40 MSTORE DUP1 SWAP4 SWAP3 SWAP2 SWAP1 DUP2 DUP2 MSTORE PUSH1 0x20 ADD DUP4 DUP4 DUP1 DUP3 DUP5 CALLDATACOPY PUSH1 0x0 DUP2 DUP5 ADD MSTORE PUSH1 0x1F NOT PUSH1 0x1F DUP3 ADD AND SWAP1 POP DUP1 DUP4 ADD SWAP3 POP POP POP POP POP POP POP SWAP2 SWAP3 SWAP2 SWAP3 SWAP1 DUP1 CALLDATALOAD SWAP1 PUSH1 0x20 ADD SWAP1 SWAP3 SWAP2 SWAP1 DUP1 CALLDATALOAD SWAP1 PUSH1 0x20 ADD SWAP1 SWAP3 SWAP2 SWAP1 POP POP POP PUSH3 0x55C JUMP JUMPDEST STOP JUMPDEST CALLVALUE DUP1 ISZERO PUSH3 0x201 JUMPI PUSH1 0x0 DUP1 REVERT JUMPDEST POP PUSH3 0x20C PUSH3 0xA08 JUMP JUMPDEST PUSH1 0x40 MLOAD DUP1 DUP3 PUSH20 0xFFFFFFFFFFFFFFFFFFFFFFFFFFFFFFFFFFFFFFFF AND PUSH20 0xFFFFFFFFFFFFFFFFFFFFFFFFFFFFFFFFFFFFFFFF AND DUP2 MSTORE PUSH1 0x20 ADD SWAP2 POP POP PUSH1 0x40 MLOAD DUP1 SWAP2 SUB SWAP1 RETURN JUMPDEST CALLVALUE DUP1 ISZERO PUSH3 0x25B JUMPI PUSH1 0x0 DUP1 REVERT JUMPDEST POP PUSH3 0x2A1 PUSH1 0x4 DUP1 CALLDATASIZE SUB PUSH1 0x20 DUP2 LT ISZERO PUSH3 0x274 JUMPI PUSH1 0x0 DUP1 REVERT JUMPDEST DUP2 ADD SWAP1 DUP1 DUP1 CALLDATALOAD PUSH20 0xFFFFFFFFFFFFFFFFFFFFFFFFFFFFFFFFFFFFFFFF AND SWAP1 PUSH1 0x20 ADD SWAP1 SWAP3 SWAP2 SWAP1 POP POP POP PUSH3 0xA2D JUMP JUMPDEST STOP JUMPDEST CALLVALUE DUP1 ISZERO PUSH3 0x2B0 JUMPI PUSH1 0x0 DUP1 REVERT JUMPDEST POP PUSH3 0x2E0 PUSH1 0x4 DUP1 CALLDATASIZE SUB PUSH1 0x20 DUP2 LT ISZERO PUSH3 0x2C9 JUMPI PUSH1 0x0 DUP1 REVERT JUMPDEST DUP2 ADD SWAP1 DUP1 DUP1 CALLDATALOAD SWAP1 PUSH1 0x20 ADD SWAP1 SWAP3 SWAP2 SWAP1 POP POP POP PUSH3 0xB18 JUMP JUMPDEST PUSH1 0x40 MLOAD DUP1 DUP3 PUSH20 0xFFFFFFFFFFFFFFFFFFFFFFFFFFFFFFFFFFFFFFFF AND PUSH20 0xFFFFFFFFFFFFFFFFFFFFFFFFFFFFFFFFFFFFFFFF AND DUP2 MSTORE PUSH1 0x20 ADD SWAP2 POP POP PUSH1 0x40 MLOAD DUP1 SWAP2 SUB SWAP1 RETURN JUMPDEST CALLVALUE DUP1 ISZERO PUSH3 0x32F JUMPI PUSH1 0x0 DUP1 REVERT JUMPDEST POP PUSH3 0x3EC PUSH1 0x4 DUP1 CALLDATASIZE SUB PUSH1 0x20 DUP2 LT ISZERO PUSH3 0x348 JUMPI PUSH1 0x0 DUP1 REVERT JUMPDEST DUP2 ADD SWAP1 DUP1 DUP1 CALLDATALOAD SWAP1 PUSH1 0x20 ADD SWAP1 PUSH5 0x100000000 DUP2 GT ISZERO PUSH3 0x366 JUMPI PUSH1 0x0 DUP1 REVERT JUMPDEST DUP3 ADD DUP4 PUSH1 0x20 DUP3 ADD GT ISZERO PUSH3 0x379 JUMPI PUSH1 0x0 DUP1 REVERT JUMPDEST DUP1 CALLDATALOAD SWAP1 PUSH1 0x20 ADD SWAP2 DUP5 PUSH1 0x20 DUP4 MUL DUP5 ADD GT PUSH5 0x100000000 DUP4 GT OR ISZERO PUSH3 0x39C JUMPI PUSH1 0x0 DUP1 REVERT JUMPDEST SWAP2 SWAP1 DUP1 DUP1 PUSH1 0x20 MUL PUSH1 0x20 ADD PUSH1 0x40 MLOAD SWAP1 DUP2 ADD PUSH1 0x40 MSTORE DUP1 SWAP4 SWAP3 SWAP2 SWAP1 DUP2 DUP2 MSTORE PUSH1 0x20 ADD DUP4 DUP4 PUSH1 0x20 MUL DUP1 DUP3 DUP5 CALLDATACOPY PUSH1 0x0 DUP2 DUP5 ADD MSTORE PUSH1 0x1F NOT PUSH1 0x1F DUP3 ADD AND SWAP1 POP DUP1 DUP4 ADD SWAP3 POP POP POP POP POP POP POP SWAP2 SWAP3 SWAP2 SWAP3 SWAP1 POP POP POP PUSH3 0xB55 JUMP JUMPDEST PUSH1 0x40 MLOAD DUP1 DUP1 PUSH1 0x20 ADD DUP3 DUP2 SUB DUP3 MSTORE DUP4 DUP2 DUP2 MLOAD DUP2 MSTORE PUSH1 0x20 ADD SWAP2 POP DUP1 MLOAD SWAP1 PUSH1 0x20 ADD SWAP1 PUSH1 0x20 MUL DUP1 DUP4 DUP4 PUSH1 0x0 JUMPDEST DUP4 DUP2 LT ISZERO PUSH3 0x431 JUMPI DUP1 DUP3 ADD MLOAD DUP2 DUP5 ADD MSTORE PUSH1 0x20 DUP2 ADD SWAP1 POP PUSH3 0x414 JUMP JUMPDEST POP POP POP POP SWAP1 POP ADD SWAP3 POP POP POP PUSH1 0x40 MLOAD DUP1 SWAP2 SUB SWAP1 RETURN JUMPDEST CALLVALUE DUP1 ISZERO PUSH3 0x452 JUMPI PUSH1 0x0 DUP1 REVERT JUMPDEST POP PUSH3 0x45D PUSH3 0xC4E JUMP JUMPDEST PUSH1 0x40 MLOAD DUP1 DUP3 DUP2 MSTORE PUSH1 0x20 ADD SWAP2 POP POP PUSH1 0x40 MLOAD DUP1 SWAP2 SUB SWAP1 RETURN JUMPDEST PUSH1 0x60 PUSH1 0x0 DUP4 DUP4 SUB SWAP1 POP PUSH1 0x60 DUP2 PUSH1 0x40 MLOAD SWAP1 DUP1 DUP3 MSTORE DUP1 PUSH1 0x20 MUL PUSH1 0x20 ADD DUP3 ADD PUSH1 0x40 MSTORE DUP1 ISZERO PUSH3 0x4AE JUMPI DUP2 PUSH1 0x20 ADD PUSH1 0x20 DUP3 MUL DUP1 CODESIZE DUP4 CODECOPY DUP1 DUP3 ADD SWAP2 POP POP SWAP1 POP JUMPDEST POP SWAP1 POP PUSH1 0x0 DUP1 SWAP1 POP JUMPDEST DUP3 DUP2 LT ISZERO PUSH3 0x550 JUMPI PUSH1 0x1 DUP2 DUP8 ADD DUP2 SLOAD DUP2 LT PUSH3 0x4D0 JUMPI INVALID JUMPDEST SWAP1 PUSH1 0x0 MSTORE PUSH1 0x20 PUSH1 0x0 KECCAK256 ADD PUSH1 0x0 SWAP1 SLOAD SWAP1 PUSH2 0x100 EXP SWAP1 DIV PUSH20 0xFFFFFFFFFFFFFFFFFFFFFFFFFFFFFFFFFFFFFFFF AND DUP3 DUP3 DUP2 MLOAD DUP2 LT PUSH3 0x508 JUMPI INVALID JUMPDEST PUSH1 0x20 MUL PUSH1 0x20 ADD ADD SWAP1 PUSH20 0xFFFFFFFFFFFFFFFFFFFFFFFFFFFFFFFFFFFFFFFF AND SWAP1 DUP2 PUSH20 0xFFFFFFFFFFFFFFFFFFFFFFFFFFFFFFFFFFFFFFFF AND DUP2 MSTORE POP POP DUP1 DUP1 PUSH1 0x1 ADD SWAP2 POP POP PUSH3 0x4B7 JUMP JUMPDEST POP DUP1 SWAP3 POP POP POP SWAP3 SWAP2 POP POP JUMP JUMPDEST PUSH1 0x0 PUSH20 0xFFFFFFFFFFFFFFFFFFFFFFFFFFFFFFFFFFFFFFFF AND PUSH1 0x3 PUSH1 0x0 SWAP1 SLOAD SWAP1 PUSH2 0x100 EXP SWAP1 DIV PUSH20 0xFFFFFFFFFFFFFFFFFFFFFFFFFFFFFFFFFFFFFFFF AND PUSH20 0xFFFFFFFFFFFFFFFFFFFFFFFFFFFFFFFFFFFFFFFF AND EQ ISZERO PUSH3 0x606 JUMPI PUSH1 0x40 MLOAD PUSH32 0x8C379A000000000000000000000000000000000000000000000000000000000 DUP2 MSTORE PUSH1 0x4 ADD DUP1 DUP1 PUSH1 0x20 ADD DUP3 DUP2 SUB DUP3 MSTORE PUSH1 0x5E DUP2 MSTORE PUSH1 0x20 ADD DUP1 PUSH3 0x3898 PUSH1 0x5E SWAP2 CODECOPY PUSH1 0x60 ADD SWAP2 POP POP PUSH1 0x40 MLOAD DUP1 SWAP2 SUB SWAP1 REVERT JUMPDEST PUSH1 0x0 PUSH1 0x2 PUSH1 0x0 SWAP1 SLOAD SWAP1 PUSH2 0x100 EXP SWAP1 DIV PUSH20 0xFFFFFFFFFFFFFFFFFFFFFFFFFFFFFFFFFFFFFFFF AND PUSH1 0x3 PUSH1 0x0 SWAP1 SLOAD SWAP1 PUSH2 0x100 EXP SWAP1 DIV PUSH20 0xFFFFFFFFFFFFFFFFFFFFFFFFFFFFFFFFFFFFFFFF AND DUP6 DUP6 DUP6 CALLER PUSH1 0x40 MLOAD PUSH3 0x660 SWAP1 PUSH3 0xC5B JUMP JUMPDEST DUP1 DUP8 PUSH20 0xFFFFFFFFFFFFFFFFFFFFFFFFFFFFFFFFFFFFFFFF AND PUSH20 0xFFFFFFFFFFFFFFFFFFFFFFFFFFFFFFFFFFFFFFFF AND DUP2 MSTORE PUSH1 0x20 ADD DUP7 PUSH20 0xFFFFFFFFFFFFFFFFFFFFFFFFFFFFFFFFFFFFFFFF AND PUSH20 0xFFFFFFFFFFFFFFFFFFFFFFFFFFFFFFFFFFFFFFFF AND DUP2 MSTORE PUSH1 0x20 ADD DUP1 PUSH1 0x20 ADD DUP6 DUP2 MSTORE PUSH1 0x20 ADD DUP5 DUP2 MSTORE PUSH1 0x20 ADD DUP4 PUSH20 0xFFFFFFFFFFFFFFFFFFFFFFFFFFFFFFFFFFFFFFFF AND PUSH20 0xFFFFFFFFFFFFFFFFFFFFFFFFFFFFFFFFFFFFFFFF AND DUP2 MSTORE PUSH1 0x20 ADD DUP3 DUP2 SUB DUP3 MSTORE DUP7 DUP2 DUP2 MLOAD DUP2 MSTORE PUSH1 0x20 ADD SWAP2 POP DUP1 MLOAD SWAP1 PUSH1 0x20 ADD SWAP1 DUP1 DUP4 DUP4 PUSH1 0x0 JUMPDEST DUP4 DUP2 LT ISZERO PUSH3 0x741 JUMPI DUP1 DUP3 ADD MLOAD DUP2 DUP5 ADD MSTORE PUSH1 0x20 DUP2 ADD SWAP1 POP PUSH3 0x724 JUMP JUMPDEST POP POP POP POP SWAP1 POP SWAP1 DUP2 ADD SWAP1 PUSH1 0x1F AND DUP1 ISZERO PUSH3 0x76F JUMPI DUP1 DUP3 SUB DUP1 MLOAD PUSH1 0x1 DUP4 PUSH1 0x20 SUB PUSH2 0x100 EXP SUB NOT AND DUP2 MSTORE PUSH1 0x20 ADD SWAP2 POP JUMPDEST POP SWAP8 POP POP POP POP POP POP POP POP PUSH1 0x40 MLOAD DUP1 SWAP2 SUB SWAP1 PUSH1 0x0 CREATE DUP1 ISZERO DUP1 ISZERO PUSH3 0x796 JUMPI RETURNDATASIZE PUSH1 0x0 DUP1 RETURNDATACOPY RETURNDATASIZE PUSH1 0x0 REVERT JUMPDEST POP SWAP1 POP PUSH1 0x0 DUP2 SWAP1 POP DUP1 PUSH20 0xFFFFFFFFFFFFFFFFFFFFFFFFFFFFFFFFFFFFFFFF AND PUSH2 0x8FC SELFBALANCE SWAP1 DUP2 ISZERO MUL SWAP1 PUSH1 0x40 MLOAD PUSH1 0x0 PUSH1 0x40 MLOAD DUP1 DUP4 SUB DUP2 DUP6 DUP9 DUP9 CALL SWAP4 POP POP POP POP ISZERO DUP1 ISZERO PUSH3 0x7E5 JUMPI RETURNDATASIZE PUSH1 0x0 DUP1 RETURNDATACOPY RETURNDATASIZE PUSH1 0x0 REVERT JUMPDEST POP PUSH1 0x1 DUP3 SWAP1 DUP1 PUSH1 0x1 DUP2 SLOAD ADD DUP1 DUP3 SSTORE DUP1 SWAP2 POP POP SWAP1 PUSH1 0x1 DUP3 SUB SWAP1 PUSH1 0x0 MSTORE PUSH1 0x20 PUSH1 0x0 KECCAK256 ADD PUSH1 0x0 SWAP1 SWAP2 SWAP3 SWAP1 SWAP2 SWAP1 SWAP2 PUSH2 0x100 EXP DUP2 SLOAD DUP2 PUSH20 0xFFFFFFFFFFFFFFFFFFFFFFFFFFFFFFFFFFFFFFFF MUL NOT AND SWAP1 DUP4 PUSH20 0xFFFFFFFFFFFFFFFFFFFFFFFFFFFFFFFFFFFFFFFF AND MUL OR SWAP1 SSTORE POP POP PUSH1 0x0 PUSH1 0x2 PUSH1 0x0 SWAP1 SLOAD SWAP1 PUSH2 0x100 EXP SWAP1 DIV PUSH20 0xFFFFFFFFFFFFFFFFFFFFFFFFFFFFFFFFFFFFFFFF AND SWAP1 POP PUSH1 0x0 DUP2 PUSH20 0xFFFFFFFFFFFFFFFFFFFFFFFFFFFFFFFFFFFFFFFF AND PUSH4 0x9F96DAB0 CALLER PUSH1 0x40 MLOAD DUP3 PUSH4 0xFFFFFFFF AND PUSH1 0xE0 SHL DUP2 MSTORE PUSH1 0x4 ADD DUP1 DUP3 PUSH20 0xFFFFFFFFFFFFFFFFFFFFFFFFFFFFFFFFFFFFFFFF AND PUSH20 0xFFFFFFFFFFFFFFFFFFFFFFFFFFFFFFFFFFFFFFFF AND DUP2 MSTORE PUSH1 0x20 ADD SWAP2 POP POP PUSH1 0x20 PUSH1 0x40 MLOAD DUP1 DUP4 SUB DUP2 DUP7 DUP1 EXTCODESIZE ISZERO DUP1 ISZERO PUSH3 0x8F3 JUMPI PUSH1 0x0 DUP1 REVERT JUMPDEST POP GAS STATICCALL ISZERO DUP1 ISZERO PUSH3 0x908 JUMPI RETURNDATASIZE PUSH1 0x0 DUP1 RETURNDATACOPY RETURNDATASIZE PUSH1 0x0 REVERT JUMPDEST POP POP POP POP PUSH1 0x40 MLOAD RETURNDATASIZE PUSH1 0x20 DUP2 LT ISZERO PUSH3 0x91F JUMPI PUSH1 0x0 DUP1 REVERT JUMPDEST DUP2 ADD SWAP1 DUP1 DUP1 MLOAD SWAP1 PUSH1 0x20 ADD SWAP1 SWAP3 SWAP2 SWAP1 POP POP POP SWAP1 POP DUP1 PUSH20 0xFFFFFFFFFFFFFFFFFFFFFFFFFFFFFFFFFFFFFFFF AND PUSH4 0xC881CC60 DUP5 CALLER PUSH1 0x40 MLOAD DUP4 PUSH4 0xFFFFFFFF AND PUSH1 0xE0 SHL DUP2 MSTORE PUSH1 0x4 ADD DUP1 DUP4 PUSH20 0xFFFFFFFFFFFFFFFFFFFFFFFFFFFFFFFFFFFFFFFF AND PUSH20 0xFFFFFFFFFFFFFFFFFFFFFFFFFFFFFFFFFFFFFFFF AND DUP2 MSTORE PUSH1 0x20 ADD DUP3 PUSH20 0xFFFFFFFFFFFFFFFFFFFFFFFFFFFFFFFFFFFFFFFF AND PUSH20 0xFFFFFFFFFFFFFFFFFFFFFFFFFFFFFFFFFFFFFFFF AND DUP2 MSTORE PUSH1 0x20 ADD SWAP3 POP POP POP PUSH1 0x0 PUSH1 0x40 MLOAD DUP1 DUP4 SUB DUP2 PUSH1 0x0 DUP8 DUP1 EXTCODESIZE ISZERO DUP1 ISZERO PUSH3 0x9E6 JUMPI PUSH1 0x0 DUP1 REVERT JUMPDEST POP GAS CALL ISZERO DUP1 ISZERO PUSH3 0x9FB JUMPI RETURNDATASIZE PUSH1 0x0 DUP1 RETURNDATACOPY RETURNDATASIZE PUSH1 0x0 REVERT JUMPDEST POP POP POP POP POP POP POP POP POP POP POP JUMP JUMPDEST PUSH1 0x0 DUP1 SWAP1 SLOAD SWAP1 PUSH2 0x100 EXP SWAP1 DIV PUSH20 0xFFFFFFFFFFFFFFFFFFFFFFFFFFFFFFFFFFFFFFFF AND DUP2 JUMP JUMPDEST PUSH1 0x0 DUP1 SWAP1 SLOAD SWAP1 PUSH2 0x100 EXP SWAP1 DIV PUSH20 0xFFFFFFFFFFFFFFFFFFFFFFFFFFFFFFFFFFFFFFFF AND PUSH20 0xFFFFFFFFFFFFFFFFFFFFFFFFFFFFFFFFFFFFFFFF AND CALLER PUSH20 0xFFFFFFFFFFFFFFFFFFFFFFFFFFFFFFFFFFFFFFFF AND EQ PUSH3 0xAD4 JUMPI PUSH1 0x40 MLOAD PUSH32 0x8C379A000000000000000000000000000000000000000000000000000000000 DUP2 MSTORE PUSH1 0x4 ADD DUP1 DUP1 PUSH1 0x20 ADD DUP3 DUP2 SUB DUP3 MSTORE PUSH1 0x42 DUP2 MSTORE PUSH1 0x20 ADD DUP1 PUSH3 0x3856 PUSH1 0x42 SWAP2 CODECOPY PUSH1 0x60 ADD SWAP2 POP POP PUSH1 0x40 MLOAD DUP1 SWAP2 SUB SWAP1 REVERT JUMPDEST DUP1 PUSH1 0x3 PUSH1 0x0 PUSH2 0x100 EXP DUP2 SLOAD DUP2 PUSH20 0xFFFFFFFFFFFFFFFFFFFFFFFFFFFFFFFFFFFFFFFF MUL NOT AND SWAP1 DUP4 PUSH20 0xFFFFFFFFFFFFFFFFFFFFFFFFFFFFFFFFFFFFFFFF AND MUL OR SWAP1 SSTORE POP POP JUMP JUMPDEST PUSH1 0x1 DUP2 DUP2 SLOAD DUP2 LT PUSH3 0xB26 JUMPI INVALID JUMPDEST SWAP1 PUSH1 0x0 MSTORE PUSH1 0x20 PUSH1 0x0 KECCAK256 ADD PUSH1 0x0 SWAP2 POP SLOAD SWAP1 PUSH2 0x100 EXP SWAP1 DIV PUSH20 0xFFFFFFFFFFFFFFFFFFFFFFFFFFFFFFFFFFFFFFFF AND DUP2 JUMP JUMPDEST PUSH1 0x60 PUSH1 0x0 DUP3 MLOAD SWAP1 POP PUSH1 0x60 DUP2 PUSH1 0x40 MLOAD SWAP1 DUP1 DUP3 MSTORE DUP1 PUSH1 0x20 MUL PUSH1 0x20 ADD DUP3 ADD PUSH1 0x40 MSTORE DUP1 ISZERO PUSH3 0xB8F JUMPI DUP2 PUSH1 0x20 ADD PUSH1 0x20 DUP3 MUL DUP1 CODESIZE DUP4 CODECOPY DUP1 DUP3 ADD SWAP2 POP POP SWAP1 POP JUMPDEST POP SWAP1 POP PUSH1 0x0 DUP1 SWAP1 POP JUMPDEST DUP3 DUP2 LT ISZERO PUSH3 0xC43 JUMPI PUSH1 0x1 DUP6 DUP3 DUP2 MLOAD DUP2 LT PUSH3 0xBB0 JUMPI INVALID JUMPDEST PUSH1 0x20 MUL PUSH1 0x20 ADD ADD MLOAD DUP2 SLOAD DUP2 LT PUSH3 0xBC3 JUMPI INVALID JUMPDEST SWAP1 PUSH1 0x0 MSTORE PUSH1 0x20 PUSH1 0x0 KECCAK256 ADD PUSH1 0x0 SWAP1 SLOAD SWAP1 PUSH2 0x100 EXP SWAP1 DIV PUSH20 0xFFFFFFFFFFFFFFFFFFFFFFFFFFFFFFFFFFFFFFFF AND DUP3 DUP3 DUP2 MLOAD DUP2 LT PUSH3 0xBFB JUMPI INVALID JUMPDEST PUSH1 0x20 MUL PUSH1 0x20 ADD ADD SWAP1 PUSH20 0xFFFFFFFFFFFFFFFFFFFFFFFFFFFFFFFFFFFFFFFF AND SWAP1 DUP2 PUSH20 0xFFFFFFFFFFFFFFFFFFFFFFFFFFFFFFFFFFFFFFFF AND DUP2 MSTORE POP POP DUP1 DUP1 PUSH1 0x1 ADD SWAP2 POP POP PUSH3 0xB98 JUMP JUMPDEST POP DUP1 SWAP3 POP POP POP SWAP2 SWAP1 POP JUMP JUMPDEST PUSH1 0x0 PUSH1 0x1 DUP1 SLOAD SWAP1 POP SWAP1 POP SWAP1 JUMP JUMPDEST PUSH2 0x2BEC DUP1 PUSH3 0xC6A DUP4 CODECOPY ADD SWAP1 JUMP INVALID PUSH1 0x80 PUSH1 0x40 MSTORE CALLVALUE DUP1 ISZERO PUSH3 0x11 JUMPI PUSH1 0x0 DUP1 REVERT JUMPDEST POP PUSH1 0x40 MLOAD PUSH3 0x2BEC CODESIZE SUB DUP1 PUSH3 0x2BEC DUP4 CODECOPY DUP2 DUP2 ADD PUSH1 0x40 MSTORE PUSH1 0xC0 DUP2 LT ISZERO PUSH3 0x37 JUMPI PUSH1 0x0 DUP1 REVERT JUMPDEST DUP2 ADD SWAP1 DUP1 DUP1 MLOAD SWAP1 PUSH1 0x20 ADD SWAP1 SWAP3 SWAP2 SWAP1 DUP1 MLOAD SWAP1 PUSH1 0x20 ADD SWAP1 SWAP3 SWAP2 SWAP1 DUP1 MLOAD PUSH1 0x40 MLOAD SWAP4 SWAP3 SWAP2 SWAP1 DUP5 PUSH5 0x100000000 DUP3 GT ISZERO PUSH3 0x6C JUMPI PUSH1 0x0 DUP1 REVERT JUMPDEST DUP4 DUP3 ADD SWAP2 POP PUSH1 0x20 DUP3 ADD DUP6 DUP2 GT ISZERO PUSH3 0x83 JUMPI PUSH1 0x0 DUP1 REVERT JUMPDEST DUP3 MLOAD DUP7 PUSH1 0x1 DUP3 MUL DUP4 ADD GT PUSH5 0x100000000 DUP3 GT OR ISZERO PUSH3 0xA1 JUMPI PUSH1 0x0 DUP1 REVERT JUMPDEST DUP1 DUP4 MSTORE PUSH1 0x20 DUP4 ADD SWAP3 POP POP POP SWAP1 DUP1 MLOAD SWAP1 PUSH1 0x20 ADD SWAP1 DUP1 DUP4 DUP4 PUSH1 0x0 JUMPDEST DUP4 DUP2 LT ISZERO PUSH3 0xD7 JUMPI DUP1 DUP3 ADD MLOAD DUP2 DUP5 ADD MSTORE PUSH1 0x20 DUP2 ADD SWAP1 POP PUSH3 0xBA JUMP JUMPDEST POP POP POP POP SWAP1 POP SWAP1 DUP2 ADD SWAP1 PUSH1 0x1F AND DUP1 ISZERO PUSH3 0x105 JUMPI DUP1 DUP3 SUB DUP1 MLOAD PUSH1 0x1 DUP4 PUSH1 0x20 SUB PUSH2 0x100 EXP SUB NOT AND DUP2 MSTORE PUSH1 0x20 ADD SWAP2 POP JUMPDEST POP PUSH1 0x40 MSTORE PUSH1 0x20 ADD DUP1 MLOAD SWAP1 PUSH1 0x20 ADD SWAP1 SWAP3 SWAP2 SWAP1 DUP1 MLOAD SWAP1 PUSH1 0x20 ADD SWAP1 SWAP3 SWAP2 SWAP1 DUP1 MLOAD SWAP1 PUSH1 0x20 ADD SWAP1 SWAP3 SWAP2 SWAP1 POP POP POP DUP6 PUSH1 0x0 DUP1 PUSH2 0x100 EXP DUP2 SLOAD DUP2 PUSH20 0xFFFFFFFFFFFFFFFFFFFFFFFFFFFFFFFFFFFFFFFF MUL NOT AND SWAP1 DUP4 PUSH20 0xFFFFFFFFFFFFFFFFFFFFFFFFFFFFFFFFFFFFFFFF AND MUL OR SWAP1 SSTORE POP DUP5 PUSH1 0x1 PUSH1 0x0 PUSH2 0x100 EXP DUP2 SLOAD DUP2 PUSH20 0xFFFFFFFFFFFFFFFFFFFFFFFFFFFFFFFFFFFFFFFF MUL NOT AND SWAP1 DUP4 PUSH20 0xFFFFFFFFFFFFFFFFFFFFFFFFFFFFFFFFFFFFFFFF AND MUL OR SWAP1 SSTORE POP DUP4 PUSH1 0x2 SWAP1 DUP1 MLOAD SWAP1 PUSH1 0x20 ADD SWAP1 PUSH3 0x1C6 SWAP3 SWAP2 SWAP1 PUSH3 0x4C8 JUMP JUMPDEST POP DUP3 PUSH1 0x4 DUP2 SWAP1 SSTORE POP DUP1 PUSH1 0x3 PUSH1 0x0 PUSH2 0x100 EXP DUP2 SLOAD DUP2 PUSH20 0xFFFFFFFFFFFFFFFFFFFFFFFFFFFFFFFFFFFFFFFF MUL NOT AND SWAP1 DUP4 PUSH20 0xFFFFFFFFFFFFFFFFFFFFFFFFFFFFFFFFFFFFFFFF AND MUL OR SWAP1 SSTORE POP PUSH1 0x0 PUSH1 0x11 DUP2 SWAP1 SSTORE POP PUSH1 0x1 DUP3 MUL TIMESTAMP ADD PUSH1 0x5 DUP2 SWAP1 SSTORE POP PUSH1 0x0 PUSH1 0xA DUP2 SWAP1 SSTORE POP PUSH3 0x257 PUSH1 0x40 MLOAD DUP1 PUSH1 0x60 ADD PUSH1 0x40 MSTORE DUP1 PUSH1 0x3E DUP2 MSTORE PUSH1 0x20 ADD PUSH3 0x2BAE PUSH1 0x3E SWAP2 CODECOPY PUSH1 0x0 PUSH3 0x263 PUSH1 0x20 SHL PUSH1 0x20 SHR JUMP JUMPDEST POP POP POP POP POP POP PUSH3 0x63E JUMP JUMPDEST PUSH1 0x5 SLOAD TIMESTAMP LT PUSH3 0x2BF JUMPI PUSH1 0x40 MLOAD PUSH32 0x8C379A000000000000000000000000000000000000000000000000000000000 DUP2 MSTORE PUSH1 0x4 ADD DUP1 DUP1 PUSH1 0x20 ADD DUP3 DUP2 SUB DUP3 MSTORE PUSH1 0x2B DUP2 MSTORE PUSH1 0x20 ADD DUP1 PUSH3 0x2B83 PUSH1 0x2B SWAP2 CODECOPY PUSH1 0x40 ADD SWAP2 POP POP PUSH1 0x40 MLOAD DUP1 SWAP2 SUB SWAP1 REVERT JUMPDEST PUSH1 0x0 PUSH1 0xD PUSH1 0x0 CALLER PUSH20 0xFFFFFFFFFFFFFFFFFFFFFFFFFFFFFFFFFFFFFFFF AND PUSH20 0xFFFFFFFFFFFFFFFFFFFFFFFFFFFFFFFFFFFFFFFF AND DUP2 MSTORE PUSH1 0x20 ADD SWAP1 DUP2 MSTORE PUSH1 0x20 ADD PUSH1 0x0 KECCAK256 SLOAD EQ PUSH3 0x359 JUMPI PUSH1 0x40 MLOAD PUSH32 0x8C379A000000000000000000000000000000000000000000000000000000000 DUP2 MSTORE PUSH1 0x4 ADD DUP1 DUP1 PUSH1 0x20 ADD DUP3 DUP2 SUB DUP3 MSTORE PUSH1 0x25 DUP2 MSTORE PUSH1 0x20 ADD DUP1 PUSH3 0x2B5E PUSH1 0x25 SWAP2 CODECOPY PUSH1 0x40 ADD SWAP2 POP POP PUSH1 0x40 MLOAD DUP1 SWAP2 SUB SWAP1 REVERT JUMPDEST PUSH3 0x363 PUSH3 0x54F JUMP JUMPDEST PUSH1 0x40 MLOAD DUP1 PUSH1 0x80 ADD PUSH1 0x40 MSTORE DUP1 DUP5 DUP2 MSTORE PUSH1 0x20 ADD DUP4 ISZERO ISZERO DUP2 MSTORE PUSH1 0x20 ADD CALLER PUSH20 0xFFFFFFFFFFFFFFFFFFFFFFFFFFFFFFFFFFFFFFFF AND DUP2 MSTORE PUSH1 0x20 ADD PUSH1 0x0 DUP2 MSTORE POP SWAP1 POP PUSH1 0x6 DUP2 SWAP1 DUP1 PUSH1 0x1 DUP2 SLOAD ADD DUP1 DUP3 SSTORE DUP1 SWAP2 POP POP SWAP1 PUSH1 0x1 DUP3 SUB SWAP1 PUSH1 0x0 MSTORE PUSH1 0x20 PUSH1 0x0 KECCAK256 SWAP1 PUSH1 0x3 MUL ADD PUSH1 0x0 SWAP1 SWAP2 SWAP3 SWAP1 SWAP2 SWAP1 SWAP2 POP PUSH1 0x0 DUP3 ADD MLOAD DUP2 PUSH1 0x0 ADD SWAP1 DUP1 MLOAD SWAP1 PUSH1 0x20 ADD SWAP1 PUSH3 0x3EB SWAP3 SWAP2 SWAP1 PUSH3 0x58F JUMP JUMPDEST POP PUSH1 0x20 DUP3 ADD MLOAD DUP2 PUSH1 0x1 ADD PUSH1 0x0 PUSH2 0x100 EXP DUP2 SLOAD DUP2 PUSH1 0xFF MUL NOT AND SWAP1 DUP4 ISZERO ISZERO MUL OR SWAP1 SSTORE POP PUSH1 0x40 DUP3 ADD MLOAD DUP2 PUSH1 0x1 ADD PUSH1 0x1 PUSH2 0x100 EXP DUP2 SLOAD DUP2 PUSH20 0xFFFFFFFFFFFFFFFFFFFFFFFFFFFFFFFFFFFFFFFF MUL NOT AND SWAP1 DUP4 PUSH20 0xFFFFFFFFFFFFFFFFFFFFFFFFFFFFFFFFFFFFFFFF AND MUL OR SWAP1 SSTORE POP PUSH1 0x60 DUP3 ADD MLOAD DUP2 PUSH1 0x2 ADD SSTORE POP POP POP PUSH1 0x1 PUSH3 0x472 PUSH3 0x4BB PUSH1 0x20 SHL PUSH1 0x20 SHR JUMP JUMPDEST SUB PUSH1 0xD PUSH1 0x0 CALLER PUSH20 0xFFFFFFFFFFFFFFFFFFFFFFFFFFFFFFFFFFFFFFFF AND PUSH20 0xFFFFFFFFFFFFFFFFFFFFFFFFFFFFFFFFFFFFFFFF AND DUP2 MSTORE PUSH1 0x20 ADD SWAP1 DUP2 MSTORE PUSH1 0x20 ADD PUSH1 0x0 KECCAK256 DUP2 SWAP1 SSTORE POP POP POP POP JUMP JUMPDEST PUSH1 0x0 PUSH1 0x6 DUP1 SLOAD SWAP1 POP SWAP1 POP SWAP1 JUMP JUMPDEST DUP3 DUP1 SLOAD PUSH1 0x1 DUP2 PUSH1 0x1 AND ISZERO PUSH2 0x100 MUL SUB AND PUSH1 0x2 SWAP1 DIV SWAP1 PUSH1 0x0 MSTORE PUSH1 0x20 PUSH1 0x0 KECCAK256 SWAP1 PUSH1 0x1F ADD PUSH1 0x20 SWAP1 DIV DUP2 ADD SWAP3 DUP3 PUSH1 0x1F LT PUSH3 0x50B JUMPI DUP1 MLOAD PUSH1 0xFF NOT AND DUP4 DUP1 ADD OR DUP6 SSTORE PUSH3 0x53C JUMP JUMPDEST DUP3 DUP1 ADD PUSH1 0x1 ADD DUP6 SSTORE DUP3 ISZERO PUSH3 0x53C JUMPI SWAP2 DUP3 ADD JUMPDEST DUP3 DUP2 GT ISZERO PUSH3 0x53B JUMPI DUP3 MLOAD DUP3 SSTORE SWAP2 PUSH1 0x20 ADD SWAP2 SWAP1 PUSH1 0x1 ADD SWAP1 PUSH3 0x51E JUMP JUMPDEST JUMPDEST POP SWAP1 POP PUSH3 0x54B SWAP2 SWAP1 PUSH3 0x616 JUMP JUMPDEST POP SWAP1 JUMP JUMPDEST PUSH1 0x40 MLOAD DUP1 PUSH1 0x80 ADD PUSH1 0x40 MSTORE DUP1 PUSH1 0x60 DUP2 MSTORE PUSH1 0x20 ADD PUSH1 0x0 ISZERO ISZERO DUP2 MSTORE PUSH1 0x20 ADD PUSH1 0x0 PUSH20 0xFFFFFFFFFFFFFFFFFFFFFFFFFFFFFFFFFFFFFFFF AND DUP2 MSTORE PUSH1 0x20 ADD PUSH1 0x0 DUP2 MSTORE POP SWAP1 JUMP JUMPDEST DUP3 DUP1 SLOAD PUSH1 0x1 DUP2 PUSH1 0x1 AND ISZERO PUSH2 0x100 MUL SUB AND PUSH1 0x2 SWAP1 DIV SWAP1 PUSH1 0x0 MSTORE PUSH1 0x20 PUSH1 0x0 KECCAK256 SWAP1 PUSH1 0x1F ADD PUSH1 0x20 SWAP1 DIV DUP2 ADD SWAP3 DUP3 PUSH1 0x1F LT PUSH3 0x5D2 JUMPI DUP1 MLOAD PUSH1 0xFF NOT AND DUP4 DUP1 ADD OR DUP6 SSTORE PUSH3 0x603 JUMP JUMPDEST DUP3 DUP1 ADD PUSH1 0x1 ADD DUP6 SSTORE DUP3 ISZERO PUSH3 0x603 JUMPI SWAP2 DUP3 ADD JUMPDEST DUP3 DUP2 GT ISZERO PUSH3 0x602 JUMPI DUP3 MLOAD DUP3 SSTORE SWAP2 PUSH1 0x20 ADD SWAP2 SWAP1 PUSH1 0x1 ADD SWAP1 PUSH3 0x5E5 JUMP JUMPDEST JUMPDEST POP SWAP1 POP PUSH3 0x612 SWAP2 SWAP1 PUSH3 0x616 JUMP JUMPDEST POP SWAP1 JUMP JUMPDEST PUSH3 0x63B SWAP2 SWAP1 JUMPDEST DUP1 DUP3 GT ISZERO PUSH3 0x637 JUMPI PUSH1 0x0 DUP2 PUSH1 0x0 SWAP1 SSTORE POP PUSH1 0x1 ADD PUSH3 0x61D JUMP JUMPDEST POP SWAP1 JUMP JUMPDEST SWAP1 JUMP JUMPDEST PUSH2 0x2510 DUP1 PUSH3 0x64E PUSH1 0x0 CODECOPY PUSH1 0x0 RETURN INVALID PUSH1 0x80 PUSH1 0x40 MSTORE PUSH1 0x4 CALLDATASIZE LT PUSH2 0x1B7 JUMPI PUSH1 0x0 CALLDATALOAD PUSH1 0xE0 SHR DUP1 PUSH4 0x8A4D5A67 GT PUSH2 0xEC JUMPI DUP1 PUSH4 0xCA94FB2B GT PUSH2 0x8A JUMPI DUP1 PUSH4 0xF7CA7C72 GT PUSH2 0x64 JUMPI DUP1 PUSH4 0xF7CA7C72 EQ PUSH2 0x982 JUMPI DUP1 PUSH4 0xFA391C64 EQ PUSH2 0xA60 JUMPI DUP1 PUSH4 0xFBBA5CB9 EQ PUSH2 0xA8F JUMPI DUP1 PUSH4 0xFBBF93A0 EQ PUSH2 0xABA JUMPI PUSH2 0x1B7 JUMP JUMPDEST DUP1 PUSH4 0xCA94FB2B EQ PUSH2 0x877 JUMPI DUP1 PUSH4 0xE5D00035 EQ PUSH2 0x8DC JUMPI DUP1 PUSH4 0xE72B0148 EQ PUSH2 0x957 JUMPI PUSH2 0x1B7 JUMP JUMPDEST DUP1 PUSH4 0xB384ABEF GT PUSH2 0xC6 JUMPI DUP1 PUSH4 0xB384ABEF EQ PUSH2 0x79A JUMPI DUP1 PUSH4 0xB3B9AC1D EQ PUSH2 0x7D2 JUMPI DUP1 PUSH4 0xB6E54BDF EQ PUSH2 0x821 JUMPI DUP1 PUSH4 0xC234D789 EQ PUSH2 0x84C JUMPI PUSH2 0x1B7 JUMP JUMPDEST DUP1 PUSH4 0x8A4D5A67 EQ PUSH2 0x68E JUMPI DUP1 PUSH4 0x9380B1CF EQ PUSH2 0x71E JUMPI DUP1 PUSH4 0xAEC2CCAE EQ PUSH2 0x735 JUMPI PUSH2 0x1B7 JUMP JUMPDEST DUP1 PUSH4 0x3197CBB6 GT PUSH2 0x159 JUMPI DUP1 PUSH4 0x4E71D92D GT PUSH2 0x133 JUMPI DUP1 PUSH4 0x4E71D92D EQ PUSH2 0x5F2 JUMPI DUP1 PUSH4 0x53322842 EQ PUSH2 0x609 JUMPI DUP1 PUSH4 0x6E3EBC2E EQ PUSH2 0x634 JUMPI DUP1 PUSH4 0x74986BFC EQ PUSH2 0x65F JUMPI PUSH2 0x1B7 JUMP JUMPDEST DUP1 PUSH4 0x3197CBB6 EQ PUSH2 0x513 JUMPI DUP1 PUSH4 0x44FE9432 EQ PUSH2 0x53E JUMPI DUP1 PUSH4 0x4DD54033 EQ PUSH2 0x5A3 JUMPI PUSH2 0x1B7 JUMP JUMPDEST DUP1 PUSH4 0x9F74DB7 GT PUSH2 0x195 JUMPI DUP1 PUSH4 0x9F74DB7 EQ PUSH2 0x349 JUMPI DUP1 PUSH4 0xA68F631 EQ PUSH2 0x3C4 JUMPI DUP1 PUSH4 0x2B925B25 EQ PUSH2 0x4BD JUMPI DUP1 PUSH4 0x2EC32E6D EQ PUSH2 0x4E8 JUMPI PUSH2 0x1B7 JUMP JUMPDEST DUP1 PUSH4 0x2D05D3F EQ PUSH2 0x1B9 JUMPI DUP1 PUSH4 0x715EF00 EQ PUSH2 0x210 JUMPI DUP1 PUSH4 0x9C7CAF1 EQ PUSH2 0x2E4 JUMPI JUMPDEST STOP JUMPDEST CALLVALUE DUP1 ISZERO PUSH2 0x1C5 JUMPI PUSH1 0x0 DUP1 REVERT JUMPDEST POP PUSH2 0x1CE PUSH2 0xB2A JUMP JUMPDEST PUSH1 0x40 MLOAD DUP1 DUP3 PUSH20 0xFFFFFFFFFFFFFFFFFFFFFFFFFFFFFFFFFFFFFFFF AND PUSH20 0xFFFFFFFFFFFFFFFFFFFFFFFFFFFFFFFFFFFFFFFF AND DUP2 MSTORE PUSH1 0x20 ADD SWAP2 POP POP PUSH1 0x40 MLOAD DUP1 SWAP2 SUB SWAP1 RETURN JUMPDEST CALLVALUE DUP1 ISZERO PUSH2 0x21C JUMPI PUSH1 0x0 DUP1 REVERT JUMPDEST POP PUSH2 0x2E2 PUSH1 0x4 DUP1 CALLDATASIZE SUB PUSH1 0x40 DUP2 LT ISZERO PUSH2 0x233 JUMPI PUSH1 0x0 DUP1 REVERT JUMPDEST DUP2 ADD SWAP1 DUP1 DUP1 CALLDATALOAD SWAP1 PUSH1 0x20 ADD SWAP1 PUSH5 0x100000000 DUP2 GT ISZERO PUSH2 0x250 JUMPI PUSH1 0x0 DUP1 REVERT JUMPDEST DUP3 ADD DUP4 PUSH1 0x20 DUP3 ADD GT ISZERO PUSH2 0x262 JUMPI PUSH1 0x0 DUP1 REVERT JUMPDEST DUP1 CALLDATALOAD SWAP1 PUSH1 0x20 ADD SWAP2 DUP5 PUSH1 0x1 DUP4 MUL DUP5 ADD GT PUSH5 0x100000000 DUP4 GT OR ISZERO PUSH2 0x284 JUMPI PUSH1 0x0 DUP1 REVERT JUMPDEST SWAP2 SWAP1 DUP1 DUP1 PUSH1 0x1F ADD PUSH1 0x20 DUP1 SWAP2 DIV MUL PUSH1 0x20 ADD PUSH1 0x40 MLOAD SWAP1 DUP2 ADD PUSH1 0x40 MSTORE DUP1 SWAP4 SWAP3 SWAP2 SWAP1 DUP2 DUP2 MSTORE PUSH1 0x20 ADD DUP4 DUP4 DUP1 DUP3 DUP5 CALLDATACOPY PUSH1 0x0 DUP2 DUP5 ADD MSTORE PUSH1 0x1F NOT PUSH1 0x1F DUP3 ADD AND SWAP1 POP DUP1 DUP4 ADD SWAP3 POP POP POP POP POP POP POP SWAP2 SWAP3 SWAP2 SWAP3 SWAP1 DUP1 CALLDATALOAD ISZERO ISZERO SWAP1 PUSH1 0x20 ADD SWAP1 SWAP3 SWAP2 SWAP1 POP POP POP PUSH2 0xB50 JUMP JUMPDEST STOP JUMPDEST CALLVALUE DUP1 ISZERO PUSH2 0x2F0 JUMPI PUSH1 0x0 DUP1 REVERT JUMPDEST POP PUSH2 0x333 PUSH1 0x4 DUP1 CALLDATASIZE SUB PUSH1 0x20 DUP2 LT ISZERO PUSH2 0x307 JUMPI PUSH1 0x0 DUP1 REVERT JUMPDEST DUP2 ADD SWAP1 DUP1 DUP1 CALLDATALOAD PUSH20 0xFFFFFFFFFFFFFFFFFFFFFFFFFFFFFFFFFFFFFFFF AND SWAP1 PUSH1 0x20 ADD SWAP1 SWAP3 SWAP2 SWAP1 POP POP POP PUSH2 0xD98 JUMP JUMPDEST PUSH1 0x40 MLOAD DUP1 DUP3 DUP2 MSTORE PUSH1 0x20 ADD SWAP2 POP POP PUSH1 0x40 MLOAD DUP1 SWAP2 SUB SWAP1 RETURN JUMPDEST CALLVALUE DUP1 ISZERO PUSH2 0x355 JUMPI PUSH1 0x0 DUP1 REVERT JUMPDEST POP PUSH2 0x382 PUSH1 0x4 DUP1 CALLDATASIZE SUB PUSH1 0x20 DUP2 LT ISZERO PUSH2 0x36C JUMPI PUSH1 0x0 DUP1 REVERT JUMPDEST DUP2 ADD SWAP1 DUP1 DUP1 CALLDATALOAD SWAP1 PUSH1 0x20 ADD SWAP1 SWAP3 SWAP2 SWAP1 POP POP POP PUSH2 0xDB0 JUMP JUMPDEST PUSH1 0x40 MLOAD DUP1 DUP3 PUSH20 0xFFFFFFFFFFFFFFFFFFFFFFFFFFFFFFFFFFFFFFFF AND PUSH20 0xFFFFFFFFFFFFFFFFFFFFFFFFFFFFFFFFFFFFFFFF AND DUP2 MSTORE PUSH1 0x20 ADD SWAP2 POP POP PUSH1 0x40 MLOAD DUP1 SWAP2 SUB SWAP1 RETURN JUMPDEST CALLVALUE DUP1 ISZERO PUSH2 0x3D0 JUMPI PUSH1 0x0 DUP1 REVERT JUMPDEST POP PUSH2 0x3FD PUSH1 0x4 DUP1 CALLDATASIZE SUB PUSH1 0x20 DUP2 LT ISZERO PUSH2 0x3E7 JUMPI PUSH1 0x0 DUP1 REVERT JUMPDEST DUP2 ADD SWAP1 DUP1 DUP1 CALLDATALOAD SWAP1 PUSH1 0x20 ADD SWAP1 SWAP3 SWAP2 SWAP1 POP POP POP PUSH2 0xDEC JUMP JUMPDEST PUSH1 0x40 MLOAD DUP1 DUP1 PUSH1 0x20 ADD DUP6 ISZERO ISZERO ISZERO ISZERO DUP2 MSTORE PUSH1 0x20 ADD DUP5 PUSH20 0xFFFFFFFFFFFFFFFFFFFFFFFFFFFFFFFFFFFFFFFF AND PUSH20 0xFFFFFFFFFFFFFFFFFFFFFFFFFFFFFFFFFFFFFFFF AND DUP2 MSTORE PUSH1 0x20 ADD DUP4 DUP2 MSTORE PUSH1 0x20 ADD DUP3 DUP2 SUB DUP3 MSTORE DUP7 DUP2 DUP2 MLOAD DUP2 MSTORE PUSH1 0x20 ADD SWAP2 POP DUP1 MLOAD SWAP1 PUSH1 0x20 ADD SWAP1 DUP1 DUP4 DUP4 PUSH1 0x0 JUMPDEST DUP4 DUP2 LT ISZERO PUSH2 0x47F JUMPI DUP1 DUP3 ADD MLOAD DUP2 DUP5 ADD MSTORE PUSH1 0x20 DUP2 ADD SWAP1 POP PUSH2 0x464 JUMP JUMPDEST POP POP POP POP SWAP1 POP SWAP1 DUP2 ADD SWAP1 PUSH1 0x1F AND DUP1 ISZERO PUSH2 0x4AC JUMPI DUP1 DUP3 SUB DUP1 MLOAD PUSH1 0x1 DUP4 PUSH1 0x20 SUB PUSH2 0x100 EXP SUB NOT AND DUP2 MSTORE PUSH1 0x20 ADD SWAP2 POP JUMPDEST POP SWAP6 POP POP POP POP POP POP PUSH1 0x40 MLOAD DUP1 SWAP2 SUB SWAP1 RETURN JUMPDEST CALLVALUE DUP1 ISZERO PUSH2 0x4C9 JUMPI PUSH1 0x0 DUP1 REVERT JUMPDEST POP PUSH2 0x4D2 PUSH2 0xEEE JUMP JUMPDEST PUSH1 0x40 MLOAD DUP1 DUP3 DUP2 MSTORE PUSH1 0x20 ADD SWAP2 POP POP PUSH1 0x40 MLOAD DUP1 SWAP2 SUB SWAP1 RETURN JUMPDEST CALLVALUE DUP1 ISZERO PUSH2 0x4F4 JUMPI PUSH1 0x0 DUP1 REVERT JUMPDEST POP PUSH2 0x4FD PUSH2 0xEF4 JUMP JUMPDEST PUSH1 0x40 MLOAD DUP1 DUP3 DUP2 MSTORE PUSH1 0x20 ADD SWAP2 POP POP PUSH1 0x40 MLOAD DUP1 SWAP2 SUB SWAP1 RETURN JUMPDEST CALLVALUE DUP1 ISZERO PUSH2 0x51F JUMPI PUSH1 0x0 DUP1 REVERT JUMPDEST POP PUSH2 0x528 PUSH2 0xF01 JUMP JUMPDEST PUSH1 0x40 MLOAD DUP1 DUP3 DUP2 MSTORE PUSH1 0x20 ADD SWAP2 POP POP PUSH1 0x40 MLOAD DUP1 SWAP2 SUB SWAP1 RETURN JUMPDEST CALLVALUE DUP1 ISZERO PUSH2 0x54A JUMPI PUSH1 0x0 DUP1 REVERT JUMPDEST POP PUSH2 0x58D PUSH1 0x4 DUP1 CALLDATASIZE SUB PUSH1 0x20 DUP2 LT ISZERO PUSH2 0x561 JUMPI PUSH1 0x0 DUP1 REVERT JUMPDEST DUP2 ADD SWAP1 DUP1 DUP1 CALLDATALOAD PUSH20 0xFFFFFFFFFFFFFFFFFFFFFFFFFFFFFFFFFFFFFFFF AND SWAP1 PUSH1 0x20 ADD SWAP1 SWAP3 SWAP2 SWAP1 POP POP POP PUSH2 0xF07 JUMP JUMPDEST PUSH1 0x40 MLOAD DUP1 DUP3 DUP2 MSTORE PUSH1 0x20 ADD SWAP2 POP POP PUSH1 0x40 MLOAD DUP1 SWAP2 SUB SWAP1 RETURN JUMPDEST CALLVALUE DUP1 ISZERO PUSH2 0x5AF JUMPI PUSH1 0x0 DUP1 REVERT JUMPDEST POP PUSH2 0x5DC PUSH1 0x4 DUP1 CALLDATASIZE SUB PUSH1 0x20 DUP2 LT ISZERO PUSH2 0x5C6 JUMPI PUSH1 0x0 DUP1 REVERT JUMPDEST DUP2 ADD SWAP1 DUP1 DUP1 CALLDATALOAD SWAP1 PUSH1 0x20 ADD SWAP1 SWAP3 SWAP2 SWAP1 POP POP POP PUSH2 0xF1F JUMP JUMPDEST PUSH1 0x40 MLOAD DUP1 DUP3 DUP2 MSTORE PUSH1 0x20 ADD SWAP2 POP POP PUSH1 0x40 MLOAD DUP1 SWAP2 SUB SWAP1 RETURN JUMPDEST CALLVALUE DUP1 ISZERO PUSH2 0x5FE JUMPI PUSH1 0x0 DUP1 REVERT JUMPDEST POP PUSH2 0x607 PUSH2 0xF3D JUMP JUMPDEST STOP JUMPDEST CALLVALUE DUP1 ISZERO PUSH2 0x615 JUMPI PUSH1 0x0 DUP1 REVERT JUMPDEST POP PUSH2 0x61E PUSH2 0x1368 JUMP JUMPDEST PUSH1 0x40 MLOAD DUP1 DUP3 DUP2 MSTORE PUSH1 0x20 ADD SWAP2 POP POP PUSH1 0x40 MLOAD DUP1 SWAP2 SUB SWAP1 RETURN JUMPDEST CALLVALUE DUP1 ISZERO PUSH2 0x640 JUMPI PUSH1 0x0 DUP1 REVERT JUMPDEST POP PUSH2 0x649 PUSH2 0x136E JUMP JUMPDEST PUSH1 0x40 MLOAD DUP1 DUP3 DUP2 MSTORE PUSH1 0x20 ADD SWAP2 POP POP PUSH1 0x40 MLOAD DUP1 SWAP2 SUB SWAP1 RETURN JUMPDEST CALLVALUE DUP1 ISZERO PUSH2 0x66B JUMPI PUSH1 0x0 DUP1 REVERT JUMPDEST POP PUSH2 0x674 PUSH2 0x137B JUMP JUMPDEST PUSH1 0x40 MLOAD DUP1 DUP3 ISZERO ISZERO ISZERO ISZERO DUP2 MSTORE PUSH1 0x20 ADD SWAP2 POP POP PUSH1 0x40 MLOAD DUP1 SWAP2 SUB SWAP1 RETURN JUMPDEST CALLVALUE DUP1 ISZERO PUSH2 0x69A JUMPI PUSH1 0x0 DUP1 REVERT JUMPDEST POP PUSH2 0x6A3 PUSH2 0x1384 JUMP JUMPDEST PUSH1 0x40 MLOAD DUP1 DUP1 PUSH1 0x20 ADD DUP3 DUP2 SUB DUP3 MSTORE DUP4 DUP2 DUP2 MLOAD DUP2 MSTORE PUSH1 0x20 ADD SWAP2 POP DUP1 MLOAD SWAP1 PUSH1 0x20 ADD SWAP1 DUP1 DUP4 DUP4 PUSH1 0x0 JUMPDEST DUP4 DUP2 LT ISZERO PUSH2 0x6E3 JUMPI DUP1 DUP3 ADD MLOAD DUP2 DUP5 ADD MSTORE PUSH1 0x20 DUP2 ADD SWAP1 POP PUSH2 0x6C8 JUMP JUMPDEST POP POP POP POP SWAP1 POP SWAP1 DUP2 ADD SWAP1 PUSH1 0x1F AND DUP1 ISZERO PUSH2 0x710 JUMPI DUP1 DUP3 SUB DUP1 MLOAD PUSH1 0x1 DUP4 PUSH1 0x20 SUB PUSH2 0x100 EXP SUB NOT AND DUP2 MSTORE PUSH1 0x20 ADD SWAP2 POP JUMPDEST POP SWAP3 POP POP POP PUSH1 0x40 MLOAD DUP1 SWAP2 SUB SWAP1 RETURN JUMPDEST CALLVALUE DUP1 ISZERO PUSH2 0x72A JUMPI PUSH1 0x0 DUP1 REVERT JUMPDEST POP PUSH2 0x733 PUSH2 0x1422 JUMP JUMPDEST STOP JUMPDEST CALLVALUE DUP1 ISZERO PUSH2 0x741 JUMPI PUSH1 0x0 DUP1 REVERT JUMPDEST POP PUSH2 0x784 PUSH1 0x4 DUP1 CALLDATASIZE SUB PUSH1 0x20 DUP2 LT ISZERO PUSH2 0x758 JUMPI PUSH1 0x0 DUP1 REVERT JUMPDEST DUP2 ADD SWAP1 DUP1 DUP1 CALLDATALOAD PUSH20 0xFFFFFFFFFFFFFFFFFFFFFFFFFFFFFFFFFFFFFFFF AND SWAP1 PUSH1 0x20 ADD SWAP1 SWAP3 SWAP2 SWAP1 POP POP POP PUSH2 0x15D4 JUMP JUMPDEST PUSH1 0x40 MLOAD DUP1 DUP3 DUP2 MSTORE PUSH1 0x20 ADD SWAP2 POP POP PUSH1 0x40 MLOAD DUP1 SWAP2 SUB SWAP1 RETURN JUMPDEST PUSH2 0x7D0 PUSH1 0x4 DUP1 CALLDATASIZE SUB PUSH1 0x40 DUP2 LT ISZERO PUSH2 0x7B0 JUMPI PUSH1 0x0 DUP1 REVERT JUMPDEST DUP2 ADD SWAP1 DUP1 DUP1 CALLDATALOAD SWAP1 PUSH1 0x20 ADD SWAP1 SWAP3 SWAP2 SWAP1 DUP1 CALLDATALOAD SWAP1 PUSH1 0x20 ADD SWAP1 SWAP3 SWAP2 SWAP1 POP POP POP PUSH2 0x15EC JUMP JUMPDEST STOP JUMPDEST CALLVALUE DUP1 ISZERO PUSH2 0x7DE JUMPI PUSH1 0x0 DUP1 REVERT JUMPDEST POP PUSH2 0x80B PUSH1 0x4 DUP1 CALLDATASIZE SUB PUSH1 0x20 DUP2 LT ISZERO PUSH2 0x7F5 JUMPI PUSH1 0x0 DUP1 REVERT JUMPDEST DUP2 ADD SWAP1 DUP1 DUP1 CALLDATALOAD SWAP1 PUSH1 0x20 ADD SWAP1 SWAP3 SWAP2 SWAP1 POP POP POP PUSH2 0x1C11 JUMP JUMPDEST PUSH1 0x40 MLOAD DUP1 DUP3 DUP2 MSTORE PUSH1 0x20 ADD SWAP2 POP POP PUSH1 0x40 MLOAD DUP1 SWAP2 SUB SWAP1 RETURN JUMPDEST CALLVALUE DUP1 ISZERO PUSH2 0x82D JUMPI PUSH1 0x0 DUP1 REVERT JUMPDEST POP PUSH2 0x836 PUSH2 0x1C2D JUMP JUMPDEST PUSH1 0x40 MLOAD DUP1 DUP3 DUP2 MSTORE PUSH1 0x20 ADD SWAP2 POP POP PUSH1 0x40 MLOAD DUP1 SWAP2 SUB SWAP1 RETURN JUMPDEST CALLVALUE DUP1 ISZERO PUSH2 0x858 JUMPI PUSH1 0x0 DUP1 REVERT JUMPDEST POP PUSH2 0x861 PUSH2 0x1C33 JUMP JUMPDEST PUSH1 0x40 MLOAD DUP1 DUP3 DUP2 MSTORE PUSH1 0x20 ADD SWAP2 POP POP PUSH1 0x40 MLOAD DUP1 SWAP2 SUB SWAP1 RETURN JUMPDEST CALLVALUE DUP1 ISZERO PUSH2 0x883 JUMPI PUSH1 0x0 DUP1 REVERT JUMPDEST POP PUSH2 0x8C6 PUSH1 0x4 DUP1 CALLDATASIZE SUB PUSH1 0x20 DUP2 LT ISZERO PUSH2 0x89A JUMPI PUSH1 0x0 DUP1 REVERT JUMPDEST DUP2 ADD SWAP1 DUP1 DUP1 CALLDATALOAD PUSH20 0xFFFFFFFFFFFFFFFFFFFFFFFFFFFFFFFFFFFFFFFF AND SWAP1 PUSH1 0x20 ADD SWAP1 SWAP3 SWAP2 SWAP1 POP POP POP PUSH2 0x1C40 JUMP JUMPDEST PUSH1 0x40 MLOAD DUP1 DUP3 DUP2 MSTORE PUSH1 0x20 ADD SWAP2 POP POP PUSH1 0x40 MLOAD DUP1 SWAP2 SUB SWAP1 RETURN JUMPDEST CALLVALUE DUP1 ISZERO PUSH2 0x8E8 JUMPI PUSH1 0x0 DUP1 REVERT JUMPDEST POP PUSH2 0x915 PUSH1 0x4 DUP1 CALLDATASIZE SUB PUSH1 0x20 DUP2 LT ISZERO PUSH2 0x8FF JUMPI PUSH1 0x0 DUP1 REVERT JUMPDEST DUP2 ADD SWAP1 DUP1 DUP1 CALLDATALOAD SWAP1 PUSH1 0x20 ADD SWAP1 SWAP3 SWAP2 SWAP1 POP POP POP PUSH2 0x1C58 JUMP JUMPDEST PUSH1 0x40 MLOAD DUP1 DUP3 PUSH20 0xFFFFFFFFFFFFFFFFFFFFFFFFFFFFFFFFFFFFFFFF AND PUSH20 0xFFFFFFFFFFFFFFFFFFFFFFFFFFFFFFFFFFFFFFFF AND DUP2 MSTORE PUSH1 0x20 ADD SWAP2 POP POP PUSH1 0x40 MLOAD DUP1 SWAP2 SUB SWAP1 RETURN JUMPDEST CALLVALUE DUP1 ISZERO PUSH2 0x963 JUMPI PUSH1 0x0 DUP1 REVERT JUMPDEST POP PUSH2 0x96C PUSH2 0x1C94 JUMP JUMPDEST PUSH1 0x40 MLOAD DUP1 DUP3 DUP2 MSTORE PUSH1 0x20 ADD SWAP2 POP POP PUSH1 0x40 MLOAD DUP1 SWAP2 SUB SWAP1 RETURN JUMPDEST CALLVALUE DUP1 ISZERO PUSH2 0x98E JUMPI PUSH1 0x0 DUP1 REVERT JUMPDEST POP PUSH2 0xA5E PUSH1 0x4 DUP1 CALLDATASIZE SUB PUSH1 0x60 DUP2 LT ISZERO PUSH2 0x9A5 JUMPI PUSH1 0x0 DUP1 REVERT JUMPDEST DUP2 ADD SWAP1 DUP1 DUP1 CALLDATALOAD SWAP1 PUSH1 0x20 ADD SWAP1 SWAP3 SWAP2 SWAP1 DUP1 CALLDATALOAD SWAP1 PUSH1 0x20 ADD SWAP1 PUSH5 0x100000000 DUP2 GT ISZERO PUSH2 0x9CC JUMPI PUSH1 0x0 DUP1 REVERT JUMPDEST DUP3 ADD DUP4 PUSH1 0x20 DUP3 ADD GT ISZERO PUSH2 0x9DE JUMPI PUSH1 0x0 DUP1 REVERT JUMPDEST DUP1 CALLDATALOAD SWAP1 PUSH1 0x20 ADD SWAP2 DUP5 PUSH1 0x1 DUP4 MUL DUP5 ADD GT PUSH5 0x100000000 DUP4 GT OR ISZERO PUSH2 0xA00 JUMPI PUSH1 0x0 DUP1 REVERT JUMPDEST SWAP2 SWAP1 DUP1 DUP1 PUSH1 0x1F ADD PUSH1 0x20 DUP1 SWAP2 DIV MUL PUSH1 0x20 ADD PUSH1 0x40 MLOAD SWAP1 DUP2 ADD PUSH1 0x40 MSTORE DUP1 SWAP4 SWAP3 SWAP2 SWAP1 DUP2 DUP2 MSTORE PUSH1 0x20 ADD DUP4 DUP4 DUP1 DUP3 DUP5 CALLDATACOPY PUSH1 0x0 DUP2 DUP5 ADD MSTORE PUSH1 0x1F NOT PUSH1 0x1F DUP3 ADD AND SWAP1 POP DUP1 DUP4 ADD SWAP3 POP POP POP POP POP POP POP SWAP2 SWAP3 SWAP2 SWAP3 SWAP1 DUP1 CALLDATALOAD ISZERO ISZERO SWAP1 PUSH1 0x20 ADD SWAP1 SWAP3 SWAP2 SWAP1 POP POP POP PUSH2 0x1C9A JUMP JUMPDEST STOP JUMPDEST CALLVALUE DUP1 ISZERO PUSH2 0xA6C JUMPI PUSH1 0x0 DUP1 REVERT JUMPDEST POP PUSH2 0xA75 PUSH2 0x1E53 JUMP JUMPDEST PUSH1 0x40 MLOAD DUP1 DUP3 ISZERO ISZERO ISZERO ISZERO DUP2 MSTORE PUSH1 0x20 ADD SWAP2 POP POP PUSH1 0x40 MLOAD DUP1 SWAP2 SUB SWAP1 RETURN JUMPDEST CALLVALUE DUP1 ISZERO PUSH2 0xA9B JUMPI PUSH1 0x0 DUP1 REVERT JUMPDEST POP PUSH2 0xAA4 PUSH2 0x1E66 JUMP JUMPDEST PUSH1 0x40 MLOAD DUP1 DUP3 DUP2 MSTORE PUSH1 0x20 ADD SWAP2 POP POP PUSH1 0x40 MLOAD DUP1 SWAP2 SUB SWAP1 RETURN JUMPDEST CALLVALUE DUP1 ISZERO PUSH2 0xAC6 JUMPI PUSH1 0x0 DUP1 REVERT JUMPDEST POP PUSH2 0xACF PUSH2 0x1E6C JUMP JUMPDEST PUSH1 0x40 MLOAD DUP1 DUP6 PUSH20 0xFFFFFFFFFFFFFFFFFFFFFFFFFFFFFFFFFFFFFFFF AND PUSH20 0xFFFFFFFFFFFFFFFFFFFFFFFFFFFFFFFFFFFFFFFF AND DUP2 MSTORE PUSH1 0x20 ADD DUP5 DUP2 MSTORE PUSH1 0x20 ADD DUP4 DUP2 MSTORE PUSH1 0x20 ADD DUP3 ISZERO ISZERO ISZERO ISZERO DUP2 MSTORE PUSH1 0x20 ADD SWAP5 POP POP POP POP POP PUSH1 0x40 MLOAD DUP1 SWAP2 SUB SWAP1 RETURN JUMPDEST PUSH1 0x3 PUSH1 0x0 SWAP1 SLOAD SWAP1 PUSH2 0x100 EXP SWAP1 DIV PUSH20 0xFFFFFFFFFFFFFFFFFFFFFFFFFFFFFFFFFFFFFFFF AND DUP2 JUMP JUMPDEST PUSH1 0x5 SLOAD TIMESTAMP LT PUSH2 0xBAA JUMPI PUSH1 0x40 MLOAD PUSH32 0x8C379A000000000000000000000000000000000000000000000000000000000 DUP2 MSTORE PUSH1 0x4 ADD DUP1 DUP1 PUSH1 0x20 ADD DUP3 DUP2 SUB DUP3 MSTORE PUSH1 0x2B DUP2 MSTORE PUSH1 0x20 ADD DUP1 PUSH2 0x241F PUSH1 0x2B SWAP2 CODECOPY PUSH1 0x40 ADD SWAP2 POP POP PUSH1 0x40 MLOAD DUP1 SWAP2 SUB SWAP1 REVERT JUMPDEST PUSH1 0x0 PUSH1 0xD PUSH1 0x0 CALLER PUSH20 0xFFFFFFFFFFFFFFFFFFFFFFFFFFFFFFFFFFFFFFFF AND PUSH20 0xFFFFFFFFFFFFFFFFFFFFFFFFFFFFFFFFFFFFFFFF AND DUP2 MSTORE PUSH1 0x20 ADD SWAP1 DUP2 MSTORE PUSH1 0x20 ADD PUSH1 0x0 KECCAK256 SLOAD EQ PUSH2 0xC42 JUMPI PUSH1 0x40 MLOAD PUSH32 0x8C379A000000000000000000000000000000000000000000000000000000000 DUP2 MSTORE PUSH1 0x4 ADD DUP1 DUP1 PUSH1 0x20 ADD DUP3 DUP2 SUB DUP3 MSTORE PUSH1 0x25 DUP2 MSTORE PUSH1 0x20 ADD DUP1 PUSH2 0x23C0 PUSH1 0x25 SWAP2 CODECOPY PUSH1 0x40 ADD SWAP2 POP POP PUSH1 0x40 MLOAD DUP1 SWAP2 SUB SWAP1 REVERT JUMPDEST PUSH2 0xC4A PUSH2 0x205D JUMP JUMPDEST PUSH1 0x40 MLOAD DUP1 PUSH1 0x80 ADD PUSH1 0x40 MSTORE DUP1 DUP5 DUP2 MSTORE PUSH1 0x20 ADD DUP4 ISZERO ISZERO DUP2 MSTORE PUSH1 0x20 ADD CALLER PUSH20 0xFFFFFFFFFFFFFFFFFFFFFFFFFFFFFFFFFFFFFFFF AND DUP2 MSTORE PUSH1 0x20 ADD PUSH1 0x0 DUP2 MSTORE POP SWAP1 POP PUSH1 0x6 DUP2 SWAP1 DUP1 PUSH1 0x1 DUP2 SLOAD ADD DUP1 DUP3 SSTORE DUP1 SWAP2 POP POP SWAP1 PUSH1 0x1 DUP3 SUB SWAP1 PUSH1 0x0 MSTORE PUSH1 0x20 PUSH1 0x0 KECCAK256 SWAP1 PUSH1 0x3 MUL ADD PUSH1 0x0 SWAP1 SWAP2 SWAP3 SWAP1 SWAP2 SWAP1 SWAP2 POP PUSH1 0x0 DUP3 ADD MLOAD DUP2 PUSH1 0x0 ADD SWAP1 DUP1 MLOAD SWAP1 PUSH1 0x20 ADD SWAP1 PUSH2 0xCD0 SWAP3 SWAP2 SWAP1 PUSH2 0x209D JUMP JUMPDEST POP PUSH1 0x20 DUP3 ADD MLOAD DUP2 PUSH1 0x1 ADD PUSH1 0x0 PUSH2 0x100 EXP DUP2 SLOAD DUP2 PUSH1 0xFF MUL NOT AND SWAP1 DUP4 ISZERO ISZERO MUL OR SWAP1 SSTORE POP PUSH1 0x40 DUP3 ADD MLOAD DUP2 PUSH1 0x1 ADD PUSH1 0x1 PUSH2 0x100 EXP DUP2 SLOAD DUP2 PUSH20 0xFFFFFFFFFFFFFFFFFFFFFFFFFFFFFFFFFFFFFFFF MUL NOT AND SWAP1 DUP4 PUSH20 0xFFFFFFFFFFFFFFFFFFFFFFFFFFFFFFFFFFFFFFFF AND MUL OR SWAP1 SSTORE POP PUSH1 0x60 DUP3 ADD MLOAD DUP2 PUSH1 0x2 ADD SSTORE POP POP POP PUSH1 0x1 PUSH2 0xD4F PUSH2 0x1C33 JUMP JUMPDEST SUB PUSH1 0xD PUSH1 0x0 CALLER PUSH20 0xFFFFFFFFFFFFFFFFFFFFFFFFFFFFFFFFFFFFFFFF AND PUSH20 0xFFFFFFFFFFFFFFFFFFFFFFFFFFFFFFFFFFFFFFFF AND DUP2 MSTORE PUSH1 0x20 ADD SWAP1 DUP2 MSTORE PUSH1 0x20 ADD PUSH1 0x0 KECCAK256 DUP2 SWAP1 SSTORE POP POP POP POP JUMP JUMPDEST PUSH1 0x8 PUSH1 0x20 MSTORE DUP1 PUSH1 0x0 MSTORE PUSH1 0x40 PUSH1 0x0 KECCAK256 PUSH1 0x0 SWAP2 POP SWAP1 POP SLOAD DUP2 JUMP JUMPDEST PUSH1 0xF DUP2 DUP2 SLOAD DUP2 LT PUSH2 0xDBD JUMPI INVALID JUMPDEST SWAP1 PUSH1 0x0 MSTORE PUSH1 0x20 PUSH1 0x0 KECCAK256 ADD PUSH1 0x0 SWAP2 POP SLOAD SWAP1 PUSH2 0x100 EXP SWAP1 DIV PUSH20 0xFFFFFFFFFFFFFFFFFFFFFFFFFFFFFFFFFFFFFFFF AND DUP2 JUMP JUMPDEST PUSH1 0x6 DUP2 DUP2 SLOAD DUP2 LT PUSH2 0xDF9 JUMPI INVALID JUMPDEST SWAP1 PUSH1 0x0 MSTORE PUSH1 0x20 PUSH1 0x0 KECCAK256 SWAP1 PUSH1 0x3 MUL ADD PUSH1 0x0 SWAP2 POP SWAP1 POP DUP1 PUSH1 0x0 ADD DUP1 SLOAD PUSH1 0x1 DUP2 PUSH1 0x1 AND ISZERO PUSH2 0x100 MUL SUB AND PUSH1 0x2 SWAP1 DIV DUP1 PUSH1 0x1F ADD PUSH1 0x20 DUP1 SWAP2 DIV MUL PUSH1 0x20 ADD PUSH1 0x40 MLOAD SWAP1 DUP2 ADD PUSH1 0x40 MSTORE DUP1 SWAP3 SWAP2 SWAP1 DUP2 DUP2 MSTORE PUSH1 0x20 ADD DUP3 DUP1 SLOAD PUSH1 0x1 DUP2 PUSH1 0x1 AND ISZERO PUSH2 0x100 MUL SUB AND PUSH1 0x2 SWAP1 DIV DUP1 ISZERO PUSH2 0xEA5 JUMPI DUP1 PUSH1 0x1F LT PUSH2 0xE7A JUMPI PUSH2 0x100 DUP1 DUP4 SLOAD DIV MUL DUP4 MSTORE SWAP2 PUSH1 0x20 ADD SWAP2 PUSH2 0xEA5 JUMP JUMPDEST DUP3 ADD SWAP2 SWAP1 PUSH1 0x0 MSTORE PUSH1 0x20 PUSH1 0x0 KECCAK256 SWAP1 JUMPDEST DUP2 SLOAD DUP2 MSTORE SWAP1 PUSH1 0x1 ADD SWAP1 PUSH1 0x20 ADD DUP1 DUP4 GT PUSH2 0xE88 JUMPI DUP3 SWAP1 SUB PUSH1 0x1F AND DUP3 ADD SWAP2 JUMPDEST POP POP POP POP POP SWAP1 DUP1 PUSH1 0x1 ADD PUSH1 0x0 SWAP1 SLOAD SWAP1 PUSH2 0x100 EXP SWAP1 DIV PUSH1 0xFF AND SWAP1 DUP1 PUSH1 0x1 ADD PUSH1 0x1 SWAP1 SLOAD SWAP1 PUSH2 0x100 EXP SWAP1 DIV PUSH20 0xFFFFFFFFFFFFFFFFFFFFFFFFFFFFFFFFFFFFFFFF AND SWAP1 DUP1 PUSH1 0x2 ADD SLOAD SWAP1 POP DUP5 JUMP JUMPDEST PUSH1 0x4 SLOAD DUP2 JUMP JUMPDEST PUSH1 0x0 PUSH1 0xE DUP1 SLOAD SWAP1 POP SWAP1 POP SWAP1 JUMP JUMPDEST PUSH1 0x5 SLOAD DUP2 JUMP JUMPDEST PUSH1 0xD PUSH1 0x20 MSTORE DUP1 PUSH1 0x0 MSTORE PUSH1 0x40 PUSH1 0x0 KECCAK256 PUSH1 0x0 SWAP2 POP SWAP1 POP SLOAD DUP2 JUMP JUMPDEST PUSH1 0x0 DUP1 PUSH1 0x9 SLOAD DUP4 PUSH1 0xA SLOAD MUL DUP2 PUSH2 0xF31 JUMPI INVALID JUMPDEST DIV SWAP1 POP DUP1 SWAP2 POP POP SWAP2 SWAP1 POP JUMP JUMPDEST PUSH1 0x5 SLOAD TIMESTAMP GT PUSH2 0xF97 JUMPI PUSH1 0x40 MLOAD PUSH32 0x8C379A000000000000000000000000000000000000000000000000000000000 DUP2 MSTORE PUSH1 0x4 ADD DUP1 DUP1 PUSH1 0x20 ADD DUP3 DUP2 SUB DUP3 MSTORE PUSH1 0x36 DUP2 MSTORE PUSH1 0x20 ADD DUP1 PUSH2 0x21FB PUSH1 0x36 SWAP2 CODECOPY PUSH1 0x40 ADD SWAP2 POP POP PUSH1 0x40 MLOAD DUP1 SWAP2 SUB SWAP1 REVERT JUMPDEST PUSH1 0x0 PUSH1 0x7 PUSH1 0x0 CALLER PUSH20 0xFFFFFFFFFFFFFFFFFFFFFFFFFFFFFFFFFFFFFFFF AND PUSH20 0xFFFFFFFFFFFFFFFFFFFFFFFFFFFFFFFFFFFFFFFF AND DUP2 MSTORE PUSH1 0x20 ADD SWAP1 DUP2 MSTORE PUSH1 0x20 ADD PUSH1 0x0 KECCAK256 SLOAD SWAP1 POP PUSH1 0x0 DUP2 EQ ISZERO PUSH2 0x1035 JUMPI PUSH1 0x40 MLOAD PUSH32 0x8C379A000000000000000000000000000000000000000000000000000000000 DUP2 MSTORE PUSH1 0x4 ADD DUP1 DUP1 PUSH1 0x20 ADD DUP3 DUP2 SUB DUP3 MSTORE PUSH1 0x38 DUP2 MSTORE PUSH1 0x20 ADD DUP1 PUSH2 0x21C3 PUSH1 0x38 SWAP2 CODECOPY PUSH1 0x40 ADD SWAP2 POP POP PUSH1 0x40 MLOAD DUP1 SWAP2 SUB SWAP1 REVERT JUMPDEST PUSH1 0x0 PUSH1 0x6 DUP3 DUP2 SLOAD DUP2 LT PUSH2 0x1044 JUMPI INVALID JUMPDEST SWAP1 PUSH1 0x0 MSTORE PUSH1 0x20 PUSH1 0x0 KECCAK256 SWAP1 PUSH1 0x3 MUL ADD SWAP1 POP PUSH1 0x0 PUSH1 0x11 SLOAD EQ ISZERO PUSH2 0x1068 JUMPI PUSH2 0x1067 PUSH2 0x1EB9 JUMP JUMPDEST JUMPDEST PUSH1 0x1 PUSH1 0x11 SLOAD EQ DUP1 ISZERO PUSH2 0x1088 JUMPI POP DUP1 PUSH1 0x1 ADD PUSH1 0x0 SWAP1 SLOAD SWAP1 PUSH2 0x100 EXP SWAP1 DIV PUSH1 0xFF AND JUMPDEST DUP1 PUSH2 0x10B0 JUMPI POP PUSH1 0x2 PUSH1 0x11 SLOAD EQ DUP1 ISZERO PUSH2 0x10AF JUMPI POP DUP1 PUSH1 0x1 ADD PUSH1 0x0 SWAP1 SLOAD SWAP1 PUSH2 0x100 EXP SWAP1 DIV PUSH1 0xFF AND ISZERO JUMPDEST JUMPDEST DUP1 PUSH2 0x10BD JUMPI POP PUSH1 0x3 PUSH1 0x11 SLOAD EQ JUMPDEST ISZERO PUSH2 0x1364 JUMPI CALLER PUSH20 0xFFFFFFFFFFFFFFFFFFFFFFFFFFFFFFFFFFFFFFFF AND PUSH2 0x8FC ADDRESS PUSH20 0xFFFFFFFFFFFFFFFFFFFFFFFFFFFFFFFFFFFFFFFF AND PUSH4 0x4DD54033 PUSH1 0x8 PUSH1 0x0 CALLER PUSH20 0xFFFFFFFFFFFFFFFFFFFFFFFFFFFFFFFFFFFFFFFF AND PUSH20 0xFFFFFFFFFFFFFFFFFFFFFFFFFFFFFFFFFFFFFFFF AND DUP2 MSTORE PUSH1 0x20 ADD SWAP1 DUP2 MSTORE PUSH1 0x20 ADD PUSH1 0x0 KECCAK256 SLOAD PUSH1 0x40 MLOAD DUP3 PUSH4 0xFFFFFFFF AND PUSH1 0xE0 SHL DUP2 MSTORE PUSH1 0x4 ADD DUP1 DUP3 DUP2 MSTORE PUSH1 0x20 ADD SWAP2 POP POP PUSH1 0x20 PUSH1 0x40 MLOAD DUP1 DUP4 SUB DUP2 DUP7 DUP1 EXTCODESIZE ISZERO DUP1 ISZERO PUSH2 0x116C JUMPI PUSH1 0x0 DUP1 REVERT JUMPDEST POP GAS STATICCALL ISZERO DUP1 ISZERO PUSH2 0x1180 JUMPI RETURNDATASIZE PUSH1 0x0 DUP1 RETURNDATACOPY RETURNDATASIZE PUSH1 0x0 REVERT JUMPDEST POP POP POP POP PUSH1 0x40 MLOAD RETURNDATASIZE PUSH1 0x20 DUP2 LT ISZERO PUSH2 0x1196 JUMPI PUSH1 0x0 DUP1 REVERT JUMPDEST DUP2 ADD SWAP1 DUP1 DUP1 MLOAD SWAP1 PUSH1 0x20 ADD SWAP1 SWAP3 SWAP2 SWAP1 POP POP POP SWAP1 DUP2 ISZERO MUL SWAP1 PUSH1 0x40 MLOAD PUSH1 0x0 PUSH1 0x40 MLOAD DUP1 DUP4 SUB DUP2 DUP6 DUP9 DUP9 CALL SWAP4 POP POP POP POP ISZERO DUP1 ISZERO PUSH2 0x11D2 JUMPI RETURNDATASIZE PUSH1 0x0 DUP1 RETURNDATACOPY RETURNDATASIZE PUSH1 0x0 REVERT JUMPDEST POP PUSH1 0x0 DUP1 PUSH1 0x0 SWAP1 SLOAD SWAP1 PUSH2 0x100 EXP SWAP1 DIV PUSH20 0xFFFFFFFFFFFFFFFFFFFFFFFFFFFFFFFFFFFFFFFF AND SWAP1 POP DUP1 PUSH20 0xFFFFFFFFFFFFFFFFFFFFFFFFFFFFFFFFFFFFFFFF AND PUSH4 0x5F2AB567 ADDRESS PUSH20 0xFFFFFFFFFFFFFFFFFFFFFFFFFFFFFFFFFFFFFFFF AND PUSH4 0xB3B9AC1D PUSH1 0xB PUSH1 0x0 CALLER PUSH20 0xFFFFFFFFFFFFFFFFFFFFFFFFFFFFFFFFFFFFFFFF AND PUSH20 0xFFFFFFFFFFFFFFFFFFFFFFFFFFFFFFFFFFFFFFFF AND DUP2 MSTORE PUSH1 0x20 ADD SWAP1 DUP2 MSTORE PUSH1 0x20 ADD PUSH1 0x0 KECCAK256 SLOAD PUSH1 0x40 MLOAD DUP3 PUSH4 0xFFFFFFFF AND PUSH1 0xE0 SHL DUP2 MSTORE PUSH1 0x4 ADD DUP1 DUP3 DUP2 MSTORE PUSH1 0x20 ADD SWAP2 POP POP PUSH1 0x20 PUSH1 0x40 MLOAD DUP1 DUP4 SUB DUP2 DUP7 DUP1 EXTCODESIZE ISZERO DUP1 ISZERO PUSH2 0x12A5 JUMPI PUSH1 0x0 DUP1 REVERT JUMPDEST POP GAS STATICCALL ISZERO DUP1 ISZERO PUSH2 0x12B9 JUMPI RETURNDATASIZE PUSH1 0x0 DUP1 RETURNDATACOPY RETURNDATASIZE PUSH1 0x0 REVERT JUMPDEST POP POP POP POP PUSH1 0x40 MLOAD RETURNDATASIZE PUSH1 0x20 DUP2 LT ISZERO PUSH2 0x12CF JUMPI PUSH1 0x0 DUP1 REVERT JUMPDEST DUP2 ADD SWAP1 DUP1 DUP1 MLOAD SWAP1 PUSH1 0x20 ADD SWAP1 SWAP3 SWAP2 SWAP1 POP POP POP CALLER PUSH1 0x40 MLOAD DUP4 PUSH4 0xFFFFFFFF AND PUSH1 0xE0 SHL DUP2 MSTORE PUSH1 0x4 ADD DUP1 DUP4 DUP2 MSTORE PUSH1 0x20 ADD DUP3 PUSH20 0xFFFFFFFFFFFFFFFFFFFFFFFFFFFFFFFFFFFFFFFF AND PUSH20 0xFFFFFFFFFFFFFFFFFFFFFFFFFFFFFFFFFFFFFFFF AND DUP2 MSTORE PUSH1 0x20 ADD SWAP3 POP POP POP PUSH1 0x0 PUSH1 0x40 MLOAD DUP1 DUP4 SUB DUP2 PUSH1 0x0 DUP8 DUP1 EXTCODESIZE ISZERO DUP1 ISZERO PUSH2 0x134A JUMPI PUSH1 0x0 DUP1 REVERT JUMPDEST POP GAS CALL ISZERO DUP1 ISZERO PUSH2 0x135E JUMPI RETURNDATASIZE PUSH1 0x0 DUP1 RETURNDATACOPY RETURNDATASIZE PUSH1 0x0 REVERT JUMPDEST POP POP POP POP POP JUMPDEST POP POP JUMP JUMPDEST PUSH1 0x9 SLOAD DUP2 JUMP JUMPDEST PUSH1 0x0 PUSH1 0xF DUP1 SLOAD SWAP1 POP SWAP1 POP SWAP1 JUMP JUMPDEST PUSH1 0x0 PUSH1 0x1 SWAP1 POP SWAP1 JUMP JUMPDEST PUSH1 0x2 DUP1 SLOAD PUSH1 0x1 DUP2 PUSH1 0x1 AND ISZERO PUSH2 0x100 MUL SUB AND PUSH1 0x2 SWAP1 DIV DUP1 PUSH1 0x1F ADD PUSH1 0x20 DUP1 SWAP2 DIV MUL PUSH1 0x20 ADD PUSH1 0x40 MLOAD SWAP1 DUP2 ADD PUSH1 0x40 MSTORE DUP1 SWAP3 SWAP2 SWAP1 DUP2 DUP2 MSTORE PUSH1 0x20 ADD DUP3 DUP1 SLOAD PUSH1 0x1 DUP2 PUSH1 0x1 AND ISZERO PUSH2 0x100 MUL SUB AND PUSH1 0x2 SWAP1 DIV DUP1 ISZERO PUSH2 0x141A JUMPI DUP1 PUSH1 0x1F LT PUSH2 0x13EF JUMPI PUSH2 0x100 DUP1 DUP4 SLOAD DIV MUL DUP4 MSTORE SWAP2 PUSH1 0x20 ADD SWAP2 PUSH2 0x141A JUMP JUMPDEST DUP3 ADD SWAP2 SWAP1 PUSH1 0x0 MSTORE PUSH1 0x20 PUSH1 0x0 KECCAK256 SWAP1 JUMPDEST DUP2 SLOAD DUP2 MSTORE SWAP1 PUSH1 0x1 ADD SWAP1 PUSH1 0x20 ADD DUP1 DUP4 GT PUSH2 0x13FD JUMPI DUP3 SWAP1 SUB PUSH1 0x1F AND DUP3 ADD SWAP2 JUMPDEST POP POP POP POP POP DUP2 JUMP JUMPDEST PUSH1 0x3 PUSH1 0x0 SWAP1 SLOAD SWAP1 PUSH2 0x100 EXP SWAP1 DIV PUSH20 0xFFFFFFFFFFFFFFFFFFFFFFFFFFFFFFFFFFFFFFFF AND PUSH20 0xFFFFFFFFFFFFFFFFFFFFFFFFFFFFFFFFFFFFFFFF AND CALLER PUSH20 0xFFFFFFFFFFFFFFFFFFFFFFFFFFFFFFFFFFFFFFFF AND EQ PUSH2 0x14C8 JUMPI PUSH1 0x40 MLOAD PUSH32 0x8C379A000000000000000000000000000000000000000000000000000000000 DUP2 MSTORE PUSH1 0x4 ADD DUP1 DUP1 PUSH1 0x20 ADD DUP3 DUP2 SUB DUP3 MSTORE PUSH1 0x3A DUP2 MSTORE PUSH1 0x20 ADD DUP1 PUSH2 0x23E5 PUSH1 0x3A SWAP2 CODECOPY PUSH1 0x40 ADD SWAP2 POP POP PUSH1 0x40 MLOAD DUP1 SWAP2 SUB SWAP1 REVERT JUMPDEST PUSH1 0x0 PUSH2 0x14D2 PUSH2 0x136E JUMP JUMPDEST PUSH2 0x14DA PUSH2 0xEF4 JUMP JUMPDEST ADD EQ PUSH2 0x1531 JUMPI PUSH1 0x40 MLOAD PUSH32 0x8C379A000000000000000000000000000000000000000000000000000000000 DUP2 MSTORE PUSH1 0x4 ADD DUP1 DUP1 PUSH1 0x20 ADD DUP3 DUP2 SUB DUP3 MSTORE PUSH1 0x3D DUP2 MSTORE PUSH1 0x20 ADD DUP1 PUSH2 0x22ED PUSH1 0x3D SWAP2 CODECOPY PUSH1 0x40 ADD SWAP2 POP POP PUSH1 0x40 MLOAD DUP1 SWAP2 SUB SWAP1 REVERT JUMPDEST PUSH1 0x5 SLOAD TIMESTAMP GT PUSH2 0x158B JUMPI PUSH1 0x40 MLOAD PUSH32 0x8C379A000000000000000000000000000000000000000000000000000000000 DUP2 MSTORE PUSH1 0x4 ADD DUP1 DUP1 PUSH1 0x20 ADD DUP3 DUP2 SUB DUP3 MSTORE PUSH1 0x36 DUP2 MSTORE PUSH1 0x20 ADD DUP1 PUSH2 0x21FB PUSH1 0x36 SWAP2 CODECOPY PUSH1 0x40 ADD SWAP2 POP POP PUSH1 0x40 MLOAD DUP1 SWAP2 SUB SWAP1 REVERT JUMPDEST CALLER PUSH20 0xFFFFFFFFFFFFFFFFFFFFFFFFFFFFFFFFFFFFFFFF AND PUSH2 0x8FC SELFBALANCE SWAP1 DUP2 ISZERO MUL SWAP1 PUSH1 0x40 MLOAD PUSH1 0x0 PUSH1 0x40 MLOAD DUP1 DUP4 SUB DUP2 DUP6 DUP9 DUP9 CALL SWAP4 POP POP POP POP ISZERO DUP1 ISZERO PUSH2 0x15D1 JUMPI RETURNDATASIZE PUSH1 0x0 DUP1 RETURNDATACOPY RETURNDATASIZE PUSH1 0x0 REVERT JUMPDEST POP JUMP JUMPDEST PUSH1 0x7 PUSH1 0x20 MSTORE DUP1 PUSH1 0x0 MSTORE PUSH1 0x40 PUSH1 0x0 KECCAK256 PUSH1 0x0 SWAP2 POP SWAP1 POP SLOAD DUP2 JUMP JUMPDEST PUSH1 0x5 SLOAD TIMESTAMP LT PUSH2 0x1646 JUMPI PUSH1 0x40 MLOAD PUSH32 0x8C379A000000000000000000000000000000000000000000000000000000000 DUP2 MSTORE PUSH1 0x4 ADD DUP1 DUP1 PUSH1 0x20 ADD DUP3 DUP2 SUB DUP3 MSTORE PUSH1 0x2B DUP2 MSTORE PUSH1 0x20 ADD DUP1 PUSH2 0x241F PUSH1 0x2B SWAP2 CODECOPY PUSH1 0x40 ADD SWAP2 POP POP PUSH1 0x40 MLOAD DUP1 SWAP2 SUB SWAP1 REVERT JUMPDEST PUSH1 0x0 DUP3 EQ ISZERO PUSH2 0x16A0 JUMPI PUSH1 0x40 MLOAD PUSH32 0x8C379A000000000000000000000000000000000000000000000000000000000 DUP2 MSTORE PUSH1 0x4 ADD DUP1 DUP1 PUSH1 0x20 ADD DUP3 DUP2 SUB DUP3 MSTORE PUSH1 0x3B DUP2 MSTORE PUSH1 0x20 ADD DUP1 PUSH2 0x244A PUSH1 0x3B SWAP2 CODECOPY PUSH1 0x40 ADD SWAP2 POP POP PUSH1 0x40 MLOAD DUP1 SWAP2 SUB SWAP1 REVERT JUMPDEST PUSH1 0x0 PUSH1 0x7 PUSH1 0x0 CALLER PUSH20 0xFFFFFFFFFFFFFFFFFFFFFFFFFFFFFFFFFFFFFFFF AND PUSH20 0xFFFFFFFFFFFFFFFFFFFFFFFFFFFFFFFFFFFFFFFF AND DUP2 MSTORE PUSH1 0x20 ADD SWAP1 DUP2 MSTORE PUSH1 0x20 ADD PUSH1 0x0 KECCAK256 SLOAD EQ PUSH2 0x1738 JUMPI PUSH1 0x40 MLOAD PUSH32 0x8C379A000000000000000000000000000000000000000000000000000000000 DUP2 MSTORE PUSH1 0x4 ADD DUP1 DUP1 PUSH1 0x20 ADD DUP3 DUP2 SUB DUP3 MSTORE PUSH1 0x35 DUP2 MSTORE PUSH1 0x20 ADD DUP1 PUSH2 0x24A7 PUSH1 0x35 SWAP2 CODECOPY PUSH1 0x40 ADD SWAP2 POP POP PUSH1 0x40 MLOAD DUP1 SWAP2 SUB SWAP1 REVERT JUMPDEST PUSH1 0x4 SLOAD CALLVALUE LT ISZERO PUSH2 0x1793 JUMPI PUSH1 0x40 MLOAD PUSH32 0x8C379A000000000000000000000000000000000000000000000000000000000 DUP2 MSTORE PUSH1 0x4 ADD DUP1 DUP1 PUSH1 0x20 ADD DUP3 DUP2 SUB DUP3 MSTORE PUSH1 0x46 DUP2 MSTORE PUSH1 0x20 ADD DUP1 PUSH2 0x2268 PUSH1 0x46 SWAP2 CODECOPY PUSH1 0x60 ADD SWAP2 POP POP PUSH1 0x40 MLOAD DUP1 SWAP2 SUB SWAP1 REVERT JUMPDEST PUSH1 0x0 PUSH1 0x1 PUSH1 0x0 SWAP1 SLOAD SWAP1 PUSH2 0x100 EXP SWAP1 DIV PUSH20 0xFFFFFFFFFFFFFFFFFFFFFFFFFFFFFFFFFFFFFFFF AND SWAP1 POP DUP1 PUSH20 0xFFFFFFFFFFFFFFFFFFFFFFFFFFFFFFFFFFFFFFFF AND PUSH4 0x902701B7 CALLER ADDRESS PUSH1 0x40 MLOAD DUP4 PUSH4 0xFFFFFFFF AND PUSH1 0xE0 SHL DUP2 MSTORE PUSH1 0x4 ADD DUP1 DUP4 PUSH20 0xFFFFFFFFFFFFFFFFFFFFFFFFFFFFFFFFFFFFFFFF AND PUSH20 0xFFFFFFFFFFFFFFFFFFFFFFFFFFFFFFFFFFFFFFFF AND DUP2 MSTORE PUSH1 0x20 ADD DUP3 PUSH20 0xFFFFFFFFFFFFFFFFFFFFFFFFFFFFFFFFFFFFFFFF AND PUSH20 0xFFFFFFFFFFFFFFFFFFFFFFFFFFFFFFFFFFFFFFFF AND DUP2 MSTORE PUSH1 0x20 ADD SWAP3 POP POP POP PUSH1 0x20 PUSH1 0x40 MLOAD DUP1 DUP4 SUB DUP2 DUP7 DUP1 EXTCODESIZE ISZERO DUP1 ISZERO PUSH2 0x186B JUMPI PUSH1 0x0 DUP1 REVERT JUMPDEST POP GAS STATICCALL ISZERO DUP1 ISZERO PUSH2 0x187F JUMPI RETURNDATASIZE PUSH1 0x0 DUP1 RETURNDATACOPY RETURNDATASIZE PUSH1 0x0 REVERT JUMPDEST POP POP POP POP PUSH1 0x40 MLOAD RETURNDATASIZE PUSH1 0x20 DUP2 LT ISZERO PUSH2 0x1895 JUMPI PUSH1 0x0 DUP1 REVERT JUMPDEST DUP2 ADD SWAP1 DUP1 DUP1 MLOAD SWAP1 PUSH1 0x20 ADD SWAP1 SWAP3 SWAP2 SWAP1 POP POP POP PUSH2 0x18FB JUMPI PUSH1 0x40 MLOAD PUSH32 0x8C379A000000000000000000000000000000000000000000000000000000000 DUP2 MSTORE PUSH1 0x4 ADD DUP1 DUP1 PUSH1 0x20 ADD DUP3 DUP2 SUB DUP3 MSTORE PUSH1 0x31 DUP2 MSTORE PUSH1 0x20 ADD DUP1 PUSH2 0x234F PUSH1 0x31 SWAP2 CODECOPY PUSH1 0x40 ADD SWAP2 POP POP PUSH1 0x40 MLOAD DUP1 SWAP2 SUB SWAP1 REVERT JUMPDEST PUSH1 0x0 DUP1 SWAP1 SLOAD SWAP1 PUSH2 0x100 EXP SWAP1 DIV PUSH20 0xFFFFFFFFFFFFFFFFFFFFFFFFFFFFFFFFFFFFFFFF AND PUSH20 0xFFFFFFFFFFFFFFFFFFFFFFFFFFFFFFFFFFFFFFFF AND PUSH4 0x37C10389 ADDRESS DUP5 CALLER PUSH1 0x40 MLOAD DUP5 PUSH4 0xFFFFFFFF AND PUSH1 0xE0 SHL DUP2 MSTORE PUSH1 0x4 ADD DUP1 DUP5 PUSH20 0xFFFFFFFFFFFFFFFFFFFFFFFFFFFFFFFFFFFFFFFF AND PUSH20 0xFFFFFFFFFFFFFFFFFFFFFFFFFFFFFFFFFFFFFFFF AND DUP2 MSTORE PUSH1 0x20 ADD DUP4 DUP2 MSTORE PUSH1 0x20 ADD DUP3 PUSH20 0xFFFFFFFFFFFFFFFFFFFFFFFFFFFFFFFFFFFFFFFF AND PUSH20 0xFFFFFFFFFFFFFFFFFFFFFFFFFFFFFFFFFFFFFFFF AND DUP2 MSTORE PUSH1 0x20 ADD SWAP4 POP POP POP POP PUSH1 0x0 PUSH1 0x40 MLOAD DUP1 DUP4 SUB DUP2 PUSH1 0x0 DUP8 DUP1 EXTCODESIZE ISZERO DUP1 ISZERO PUSH2 0x19D7 JUMPI PUSH1 0x0 DUP1 REVERT JUMPDEST POP GAS CALL ISZERO DUP1 ISZERO PUSH2 0x19EB JUMPI RETURNDATASIZE PUSH1 0x0 DUP1 RETURNDATACOPY RETURNDATASIZE PUSH1 0x0 REVERT JUMPDEST POP POP POP POP DUP3 PUSH1 0x7 PUSH1 0x0 CALLER PUSH20 0xFFFFFFFFFFFFFFFFFFFFFFFFFFFFFFFFFFFFFFFF AND PUSH20 0xFFFFFFFFFFFFFFFFFFFFFFFFFFFFFFFFFFFFFFFF AND DUP2 MSTORE PUSH1 0x20 ADD SWAP1 DUP2 MSTORE PUSH1 0x20 ADD PUSH1 0x0 KECCAK256 DUP2 SWAP1 SSTORE POP CALLVALUE PUSH1 0x8 PUSH1 0x0 CALLER PUSH20 0xFFFFFFFFFFFFFFFFFFFFFFFFFFFFFFFFFFFFFFFF AND PUSH20 0xFFFFFFFFFFFFFFFFFFFFFFFFFFFFFFFFFFFFFFFF AND DUP2 MSTORE PUSH1 0x20 ADD SWAP1 DUP2 MSTORE PUSH1 0x20 ADD PUSH1 0x0 KECCAK256 DUP2 SWAP1 SSTORE POP CALLVALUE PUSH1 0x9 PUSH1 0x0 DUP3 DUP3 SLOAD ADD SWAP3 POP POP DUP2 SWAP1 SSTORE POP DUP2 PUSH1 0xB PUSH1 0x0 CALLER PUSH20 0xFFFFFFFFFFFFFFFFFFFFFFFFFFFFFFFFFFFFFFFF AND PUSH20 0xFFFFFFFFFFFFFFFFFFFFFFFFFFFFFFFFFFFFFFFF AND DUP2 MSTORE PUSH1 0x20 ADD SWAP1 DUP2 MSTORE PUSH1 0x20 ADD PUSH1 0x0 KECCAK256 DUP2 SWAP1 SSTORE POP DUP2 PUSH1 0xC PUSH1 0x0 DUP3 DUP3 SLOAD ADD SWAP3 POP POP DUP2 SWAP1 SSTORE POP PUSH1 0x6 DUP4 DUP2 SLOAD DUP2 LT PUSH2 0x1AE8 JUMPI INVALID JUMPDEST SWAP1 PUSH1 0x0 MSTORE PUSH1 0x20 PUSH1 0x0 KECCAK256 SWAP1 PUSH1 0x3 MUL ADD PUSH1 0x2 ADD PUSH1 0x0 DUP2 SLOAD DUP1 SWAP3 SWAP2 SWAP1 PUSH1 0x1 ADD SWAP2 SWAP1 POP SSTORE POP PUSH1 0x6 DUP4 DUP2 SLOAD DUP2 LT PUSH2 0x1B16 JUMPI INVALID JUMPDEST SWAP1 PUSH1 0x0 MSTORE PUSH1 0x20 PUSH1 0x0 KECCAK256 SWAP1 PUSH1 0x3 MUL ADD PUSH1 0x1 ADD PUSH1 0x0 SWAP1 SLOAD SWAP1 PUSH2 0x100 EXP SWAP1 DIV PUSH1 0xFF AND ISZERO PUSH2 0x1BA5 JUMPI PUSH1 0xE CALLER SWAP1 DUP1 PUSH1 0x1 DUP2 SLOAD ADD DUP1 DUP3 SSTORE DUP1 SWAP2 POP POP SWAP1 PUSH1 0x1 DUP3 SUB SWAP1 PUSH1 0x0 MSTORE PUSH1 0x20 PUSH1 0x0 KECCAK256 ADD PUSH1 0x0 SWAP1 SWAP2 SWAP3 SWAP1 SWAP2 SWAP1 SWAP2 PUSH2 0x100 EXP DUP2 SLOAD DUP2 PUSH20 0xFFFFFFFFFFFFFFFFFFFFFFFFFFFFFFFFFFFFFFFF MUL NOT AND SWAP1 DUP4 PUSH20 0xFFFFFFFFFFFFFFFFFFFFFFFFFFFFFFFFFFFFFFFF AND MUL OR SWAP1 SSTORE POP POP PUSH2 0x1C0C JUMP JUMPDEST PUSH1 0xF CALLER SWAP1 DUP1 PUSH1 0x1 DUP2 SLOAD ADD DUP1 DUP3 SSTORE DUP1 SWAP2 POP POP SWAP1 PUSH1 0x1 DUP3 SUB SWAP1 PUSH1 0x0 MSTORE PUSH1 0x20 PUSH1 0x0 KECCAK256 ADD PUSH1 0x0 SWAP1 SWAP2 SWAP3 SWAP1 SWAP2 SWAP1 SWAP2 PUSH2 0x100 EXP DUP2 SLOAD DUP2 PUSH20 0xFFFFFFFFFFFFFFFFFFFFFFFFFFFFFFFFFFFFFFFF MUL NOT AND SWAP1 DUP4 PUSH20 0xFFFFFFFFFFFFFFFFFFFFFFFFFFFFFFFFFFFFFFFF AND MUL OR SWAP1 SSTORE POP POP JUMPDEST POP POP POP JUMP JUMPDEST PUSH1 0x0 DUP1 PUSH1 0xA PUSH1 0xB DUP5 MUL DUP2 PUSH2 0x1C21 JUMPI INVALID JUMPDEST DIV SWAP1 POP DUP1 SWAP2 POP POP SWAP2 SWAP1 POP JUMP JUMPDEST PUSH1 0x11 SLOAD DUP2 JUMP JUMPDEST PUSH1 0x0 PUSH1 0x6 DUP1 SLOAD SWAP1 POP SWAP1 POP SWAP1 JUMP JUMPDEST PUSH1 0xB PUSH1 0x20 MSTORE DUP1 PUSH1 0x0 MSTORE PUSH1 0x40 PUSH1 0x0 KECCAK256 PUSH1 0x0 SWAP2 POP SWAP1 POP SLOAD DUP2 JUMP JUMPDEST PUSH1 0xE DUP2 DUP2 SLOAD DUP2 LT PUSH2 0x1C65 JUMPI INVALID JUMPDEST SWAP1 PUSH1 0x0 MSTORE PUSH1 0x20 PUSH1 0x0 KECCAK256 ADD PUSH1 0x0 SWAP2 POP SLOAD SWAP1 PUSH2 0x100 EXP SWAP1 DIV PUSH20 0xFFFFFFFFFFFFFFFFFFFFFFFFFFFFFFFFFFFFFFFF AND DUP2 JUMP JUMPDEST PUSH1 0xC SLOAD DUP2 JUMP JUMPDEST PUSH1 0x5 SLOAD TIMESTAMP LT PUSH2 0x1CF4 JUMPI PUSH1 0x40 MLOAD PUSH32 0x8C379A000000000000000000000000000000000000000000000000000000000 DUP2 MSTORE PUSH1 0x4 ADD DUP1 DUP1 PUSH1 0x20 ADD DUP3 DUP2 SUB DUP3 MSTORE PUSH1 0x2B DUP2 MSTORE PUSH1 0x20 ADD DUP1 PUSH2 0x241F PUSH1 0x2B SWAP2 CODECOPY PUSH1 0x40 ADD SWAP2 POP POP PUSH1 0x40 MLOAD DUP1 SWAP2 SUB SWAP1 REVERT JUMPDEST PUSH1 0x0 PUSH1 0x6 DUP5 DUP2 SLOAD DUP2 LT PUSH2 0x1D03 JUMPI INVALID JUMPDEST SWAP1 PUSH1 0x0 MSTORE PUSH1 0x20 PUSH1 0x0 KECCAK256 SWAP1 PUSH1 0x3 MUL ADD SWAP1 POP CALLER PUSH20 0xFFFFFFFFFFFFFFFFFFFFFFFFFFFFFFFFFFFFFFFF AND DUP2 PUSH1 0x1 ADD PUSH1 0x1 SWAP1 SLOAD SWAP1 PUSH2 0x100 EXP SWAP1 DIV PUSH20 0xFFFFFFFFFFFFFFFFFFFFFFFFFFFFFFFFFFFFFFFF AND PUSH20 0xFFFFFFFFFFFFFFFFFFFFFFFFFFFFFFFFFFFFFFFF AND EQ PUSH2 0x1DBB JUMPI PUSH1 0x40 MLOAD PUSH32 0x8C379A000000000000000000000000000000000000000000000000000000000 DUP2 MSTORE PUSH1 0x4 ADD DUP1 DUP1 PUSH1 0x20 ADD DUP3 DUP2 SUB DUP3 MSTORE PUSH1 0x3F DUP2 MSTORE PUSH1 0x20 ADD DUP1 PUSH2 0x22AE PUSH1 0x3F SWAP2 CODECOPY PUSH1 0x40 ADD SWAP2 POP POP PUSH1 0x40 MLOAD DUP1 SWAP2 SUB SWAP1 REVERT JUMPDEST PUSH1 0x0 DUP2 PUSH1 0x2 ADD SLOAD EQ PUSH2 0x1E18 JUMPI PUSH1 0x40 MLOAD PUSH32 0x8C379A000000000000000000000000000000000000000000000000000000000 DUP2 MSTORE PUSH1 0x4 ADD DUP1 DUP1 PUSH1 0x20 ADD DUP3 DUP2 SUB DUP3 MSTORE PUSH1 0x37 DUP2 MSTORE PUSH1 0x20 ADD DUP1 PUSH2 0x2231 PUSH1 0x37 SWAP2 CODECOPY PUSH1 0x40 ADD SWAP2 POP POP PUSH1 0x40 MLOAD DUP1 SWAP2 SUB SWAP1 REVERT JUMPDEST DUP3 DUP2 PUSH1 0x0 ADD SWAP1 DUP1 MLOAD SWAP1 PUSH1 0x20 ADD SWAP1 PUSH2 0x1E30 SWAP3 SWAP2 SWAP1 PUSH2 0x211D JUMP JUMPDEST POP DUP2 DUP2 PUSH1 0x1 ADD PUSH1 0x0 PUSH2 0x100 EXP DUP2 SLOAD DUP2 PUSH1 0xFF MUL NOT AND SWAP1 DUP4 ISZERO ISZERO MUL OR SWAP1 SSTORE POP POP POP POP POP JUMP JUMPDEST PUSH1 0x10 PUSH1 0x0 SWAP1 SLOAD SWAP1 PUSH2 0x100 EXP SWAP1 DIV PUSH1 0xFF AND DUP2 JUMP JUMPDEST PUSH1 0xA SLOAD DUP2 JUMP JUMPDEST PUSH1 0x0 DUP1 PUSH1 0x0 DUP1 PUSH1 0x3 PUSH1 0x0 SWAP1 SLOAD SWAP1 PUSH2 0x100 EXP SWAP1 DIV PUSH20 0xFFFFFFFFFFFFFFFFFFFFFFFFFFFFFFFFFFFFFFFF AND PUSH1 0x4 SLOAD PUSH1 0x5 SLOAD PUSH1 0x10 PUSH1 0x0 SWAP1 SLOAD SWAP1 PUSH2 0x100 EXP SWAP1 DIV PUSH1 0xFF AND SWAP4 POP SWAP4 POP SWAP4 POP SWAP4 POP SWAP1 SWAP2 SWAP3 SWAP4 JUMP JUMPDEST PUSH1 0x0 PUSH1 0x11 SLOAD EQ PUSH2 0x1F14 JUMPI PUSH1 0x40 MLOAD PUSH32 0x8C379A000000000000000000000000000000000000000000000000000000000 DUP2 MSTORE PUSH1 0x4 ADD DUP1 DUP1 PUSH1 0x20 ADD DUP3 DUP2 SUB DUP3 MSTORE PUSH1 0x22 DUP2 MSTORE PUSH1 0x20 ADD DUP1 PUSH2 0x2485 PUSH1 0x22 SWAP2 CODECOPY PUSH1 0x40 ADD SWAP2 POP POP PUSH1 0x40 MLOAD DUP1 SWAP2 SUB SWAP1 REVERT JUMPDEST PUSH1 0x0 ISZERO ISZERO PUSH1 0x10 PUSH1 0x0 SWAP1 SLOAD SWAP1 PUSH2 0x100 EXP SWAP1 DIV PUSH1 0xFF AND ISZERO ISZERO EQ PUSH2 0x1F80 JUMPI PUSH1 0x40 MLOAD PUSH32 0x8C379A000000000000000000000000000000000000000000000000000000000 DUP2 MSTORE PUSH1 0x4 ADD DUP1 DUP1 PUSH1 0x20 ADD DUP3 DUP2 SUB DUP3 MSTORE PUSH1 0x25 DUP2 MSTORE PUSH1 0x20 ADD DUP1 PUSH2 0x232A PUSH1 0x25 SWAP2 CODECOPY PUSH1 0x40 ADD SWAP2 POP POP PUSH1 0x40 MLOAD DUP1 SWAP2 SUB SWAP1 REVERT JUMPDEST PUSH1 0x5 SLOAD TIMESTAMP GT PUSH2 0x1FDA JUMPI PUSH1 0x40 MLOAD PUSH32 0x8C379A000000000000000000000000000000000000000000000000000000000 DUP2 MSTORE PUSH1 0x4 ADD DUP1 DUP1 PUSH1 0x20 ADD DUP3 DUP2 SUB DUP3 MSTORE PUSH1 0x40 DUP2 MSTORE PUSH1 0x20 ADD DUP1 PUSH2 0x2380 PUSH1 0x40 SWAP2 CODECOPY PUSH1 0x40 ADD SWAP2 POP POP PUSH1 0x40 MLOAD DUP1 SWAP2 SUB SWAP1 REVERT JUMPDEST PUSH1 0x0 PUSH2 0x1FE4 PUSH2 0xEF4 JUMP JUMPDEST SWAP1 POP PUSH1 0x0 PUSH2 0x1FF0 PUSH2 0x136E JUMP JUMPDEST SWAP1 POP PUSH1 0x0 DUP1 SWAP1 POP DUP2 DUP4 GT ISZERO PUSH2 0x200F JUMPI PUSH1 0x1 PUSH1 0x11 DUP2 SWAP1 SSTORE POP DUP3 SWAP1 POP PUSH2 0x2036 JUMP JUMPDEST DUP2 DUP4 LT ISZERO PUSH2 0x2027 JUMPI PUSH1 0x2 PUSH1 0x11 DUP2 SWAP1 SSTORE POP DUP2 SWAP1 POP PUSH2 0x2035 JUMP JUMPDEST PUSH1 0x3 PUSH1 0x11 DUP2 SWAP1 SSTORE POP DUP2 DUP4 ADD SWAP1 POP JUMPDEST JUMPDEST SELFBALANCE PUSH1 0xA DUP2 SWAP1 SSTORE POP PUSH1 0x1 PUSH1 0x10 PUSH1 0x0 PUSH2 0x100 EXP DUP2 SLOAD DUP2 PUSH1 0xFF MUL NOT AND SWAP1 DUP4 ISZERO ISZERO MUL OR SWAP1 SSTORE POP POP POP POP JUMP JUMPDEST PUSH1 0x40 MLOAD DUP1 PUSH1 0x80 ADD PUSH1 0x40 MSTORE DUP1 PUSH1 0x60 DUP2 MSTORE PUSH1 0x20 ADD PUSH1 0x0 ISZERO ISZERO DUP2 MSTORE PUSH1 0x20 ADD PUSH1 0x0 PUSH20 0xFFFFFFFFFFFFFFFFFFFFFFFFFFFFFFFFFFFFFFFF AND DUP2 MSTORE PUSH1 0x20 ADD PUSH1 0x0 DUP2 MSTORE POP SWAP1 JUMP JUMPDEST DUP3 DUP1 SLOAD PUSH1 0x1 DUP2 PUSH1 0x1 AND ISZERO PUSH2 0x100 MUL SUB AND PUSH1 0x2 SWAP1 DIV SWAP1 PUSH1 0x0 MSTORE PUSH1 0x20 PUSH1 0x0 KECCAK256 SWAP1 PUSH1 0x1F ADD PUSH1 0x20 SWAP1 DIV DUP2 ADD SWAP3 DUP3 PUSH1 0x1F LT PUSH2 0x20DE JUMPI DUP1 MLOAD PUSH1 0xFF NOT AND DUP4 DUP1 ADD OR DUP6 SSTORE PUSH2 0x210C JUMP JUMPDEST DUP3 DUP1 ADD PUSH1 0x1 ADD DUP6 SSTORE DUP3 ISZERO PUSH2 0x210C JUMPI SWAP2 DUP3 ADD JUMPDEST DUP3 DUP2 GT ISZERO PUSH2 0x210B JUMPI DUP3 MLOAD DUP3 SSTORE SWAP2 PUSH1 0x20 ADD SWAP2 SWAP1 PUSH1 0x1 ADD SWAP1 PUSH2 0x20F0 JUMP JUMPDEST JUMPDEST POP SWAP1 POP PUSH2 0x2119 SWAP2 SWAP1 PUSH2 0x219D JUMP JUMPDEST POP SWAP1 JUMP JUMPDEST DUP3 DUP1 SLOAD PUSH1 0x1 DUP2 PUSH1 0x1 AND ISZERO PUSH2 0x100 MUL SUB AND PUSH1 0x2 SWAP1 DIV SWAP1 PUSH1 0x0 MSTORE PUSH1 0x20 PUSH1 0x0 KECCAK256 SWAP1 PUSH1 0x1F ADD PUSH1 0x20 SWAP1 DIV DUP2 ADD SWAP3 DUP3 PUSH1 0x1F LT PUSH2 0x215E JUMPI DUP1 MLOAD PUSH1 0xFF NOT AND DUP4 DUP1 ADD OR DUP6 SSTORE PUSH2 0x218C JUMP JUMPDEST DUP3 DUP1 ADD PUSH1 0x1 ADD DUP6 SSTORE DUP3 ISZERO PUSH2 0x218C JUMPI SWAP2 DUP3 ADD JUMPDEST DUP3 DUP2 GT ISZERO PUSH2 0x218B JUMPI DUP3 MLOAD DUP3 SSTORE SWAP2 PUSH1 0x20 ADD SWAP2 SWAP1 PUSH1 0x1 ADD SWAP1 PUSH2 0x2170 JUMP JUMPDEST JUMPDEST POP SWAP1 POP PUSH2 0x2199 SWAP2 SWAP1 PUSH2 0x219D JUMP JUMPDEST POP SWAP1 JUMP JUMPDEST PUSH2 0x21BF SWAP2 SWAP1 JUMPDEST DUP1 DUP3 GT ISZERO PUSH2 0x21BB JUMPI PUSH1 0x0 DUP2 PUSH1 0x0 SWAP1 SSTORE POP PUSH1 0x1 ADD PUSH2 0x21A3 JUMP JUMPDEST POP SWAP1 JUMP JUMPDEST SWAP1 JUMP INVALID MSIZE PUSH16 0x7520646964206E6F7420766F74652064 PUSH22 0x72696E672074686520706572696F642C20736F20796F PUSH22 0x2063616E6E6F7420636C61696D2E596F752063616E20 PUSH16 0x6E6C7920636C61696D20796F75722072 PUSH6 0x776172647320 PUSH2 0x6674 PUSH6 0x722074686520 PUSH21 0x696D6520706572696F642E417267756D656E742068 PUSH2 0x7320 PUSH2 0x6C72 PUSH6 0x616479206265 PUSH6 0x6E20766F7465 PUSH5 0x206F6E2E20 NUMBER PUSH2 0x6E6E PUSH16 0x74206265206D6F6469666965642E596F PUSH22 0x206D75737420696E76657374206174206C6561737420 PUSH21 0x6865206D696E696D756D20616D6F756E7420617320 PUSH5 0x6563696465 PUSH5 0x2062792074 PUSH9 0x652063726561746F72 0x2E MSIZE PUSH16 0x75206D75737420626520746865206372 PUSH6 0x61746F72206F PUSH7 0x20746869732061 PUSH19 0x67756D656E7420746F206D6F64696679206974 PUSH20 0x20636F6E74656E7473546865206D6F6E65792067 PUSH16 0x657320746F207468652070656F706C65 KECCAK256 PUSH24 0x686F2070617274696369706174656420696E207468652070 PUSH19 0x6F636573732E546F70696320697320616C7265 PUSH2 0x6479 KECCAK256 PUSH14 0x61726B656420617320636F6D706C PUSH6 0x7465642E596F PUSH22 0x20646F6E27742068617665207468697320746F706963 KECCAK256 PUSH16 0x6E20796F757220617661696C61626C65 KECCAK256 PUSH13 0x6973742E4D616A6F7269747920 PUSH4 0x616E206F PUSH15 0x6C792062652063616C63756C617465 PUSH5 0x2061667465 PUSH19 0x207468652074696D6520706572696F64206861 PUSH20 0x20656E6465642E596F75206861766520616C7265 PUSH2 0x6479 KECCAK256 PUSH4 0x72656174 PUSH6 0x6420616E2061 PUSH19 0x67756D656E742E596F75206D75737420626520 PUSH21 0x68652063726561746F72206F66207468697320546F PUSH17 0x696320696E206F7264657220746F20646F KECCAK256 PUSH21 0x6869732E54686520706572696F6420666F72207468 PUSH6 0x20546F706963 KECCAK256 PUSH9 0x617320616C72656164 PUSH26 0x20656E6465642E596F752063616E6E6F7420766F746520666F72 KECCAK256 PUSH21 0x686520617267756D656E742067656E657261746564 KECCAK256 PUSH3 0x792074 PUSH9 0x6520636F6E74726163 PUSH21 0x2E4D616A6F726974792068617320616C7265616479 KECCAK256 PUSH3 0x65656E KECCAK256 PUSH5 0x6563696465 PUSH5 0x2E596F7520 PUSH9 0x61766520616C726561 PUSH5 0x7920766F74 PUSH6 0x642E20596F75 KECCAK256 PUSH14 0x6179206E6F74206368616E676520 PUSH26 0x6F757220766F74652EA265627A7A72315820EB17EC9D2AD2A79F RETURN PUSH11 0x6EF872BBB841755D715903 SWAP9 PUSH6 0x9B7FB6D484E0 STATICCALL SWAP9 DUP8 PUSH5 0x736F6C6343 STOP SDIV LT STOP ORIGIN MSIZE PUSH16 0x75206861766520616C72656164792063 PUSH19 0x656174656420616E20617267756D656E742E54 PUSH9 0x6520706572696F6420 PUSH7 0x6F722074686520 SLOAD PUSH16 0x7069632068617320616C726561647920 PUSH6 0x6E6465642E59 PUSH16 0x752068617665206E6F742063686F7365 PUSH15 0x207965742077686574686572207468 PUSH6 0x207374617465 PUSH14 0x656E742069732074727565206F72 KECCAK256 PUSH7 0x616C7365596F75 KECCAK256 PUSH14 0x7573742062652074686520637265 PUSH2 0x746F PUSH19 0x206F66207468697320546F7069632046616374 PUSH16 0x727920696E206F7264657220746F2064 PUSH16 0x20746869732E4120546F706963204173 PUSH20 0x69676E657220636F6E7472616374206164647265 PUSH20 0x73206D7573742062652061737369676E65642062 PUSH6 0x666F72652062 PUSH6 0x696E67206162 PUSH13 0x6520746F206372656174652061 PUSH15 0x79206E657720746F706963732EA265 PUSH3 0x7A7A72 BALANCE PC KECCAK256 CALLVALUE PUSH5 0xF0C116E209 MSTORE8 0xE2 SAR 0xD3 SWAP12 SAR 0xC3 PUSH32 0x914D3F1DE34C84F7599459FAC60A0DC1DA64736F6C6343000510003200000000 "},"gasEstimates":{"creation":{"codeDepositCost":"2926800","executionCost":"44941","totalCost":"2971741"},"external":{"createTopic(string,uint256,uint256)":"infinite","deployedTopics(uint256)":"2039","getContracts(uint256,uint256)":"infinite","getNumberOfDeployedContracts()":"1087","getTopicsAtIndices(uint256[])":"infinite","owner()":"1098","updateTopicAssignerAddress(address)":"infinite"}},"methodIdentifiers":{"createTopic(string,uint256,uint256)":"0a5e47bb","deployedTopics(uint256)":"d7f0007a","getContracts(uint256,uint256)":"012a3bd3","getNumberOfDeployedContracts()":"dfb09700","getTopicsAtIndices(uint256[])":"dc983f08","owner()":"8da5cb5b","updateTopicAssignerAddress(address)":"9c6472c0"}},"storageLayout":{"storage":[{"astId":1396,"contract":"TopicFactory.sol:TopicFactory","label":"owner","offset":0,"slot":"0","type":"t_address"},{"astId":1399,"contract":"TopicFactory.sol:TopicFactory","label":"deployedTopics","offset":0,"slot":"1","type":"t_array(t_address)dyn_storage"},{"astId":1402,"contract":"TopicFactory.sol:TopicFactory","label":"reputationFactoryAddress","offset":0,"slot":"2","type":"t_address"},{"astId":1404,"contract":"TopicFactory.sol:TopicFactory","label":"topicAssignerAddress","offset":0,"slot":"3","type":"t_address"}],"types":{"t_address":{"encoding":"inplace","label":"address","numberOfBytes":"20"},"t_array(t_address)dyn_storage":{"base":"t_address","encoding":"dynamic_array","label":"address[]","numberOfBytes":"32"}}},"userdoc":{"methods":{}}}