{
  "contractName": "Reputation",
  "abi": [
    {
      "inputs": [
        {
          "internalType": "address",
          "name": "repFactoryAddress",
          "type": "address"
        },
        {
          "internalType": "address",
          "name": "sender",
          "type": "address"
        }
      ],
      "payable": false,
      "stateMutability": "nonpayable",
      "type": "constructor"
    },
    {
      "constant": true,
      "inputs": [],
      "name": "owner",
      "outputs": [
        {
          "internalType": "address",
          "name": "",
          "type": "address"
        }
      ],
      "payable": false,
      "stateMutability": "view",
      "type": "function"
    },
    {
      "constant": true,
      "inputs": [],
      "name": "rep",
      "outputs": [
        {
          "internalType": "uint256",
          "name": "",
          "type": "uint256"
        }
      ],
      "payable": false,
      "stateMutability": "view",
      "type": "function"
    },
    {
      "constant": false,
      "inputs": [
        {
          "internalType": "address payable",
          "name": "topicAddress",
          "type": "address"
        }
      ],
      "name": "addTopic",
      "outputs": [],
      "payable": false,
      "stateMutability": "nonpayable",
      "type": "function"
    },
    {
      "constant": true,
      "inputs": [
        {
          "internalType": "uint256",
          "name": "startIndex",
          "type": "uint256"
        },
        {
          "internalType": "uint256",
          "name": "endIndex",
          "type": "uint256"
        }
      ],
      "name": "getTopics",
      "outputs": [
        {
          "internalType": "address[]",
          "name": "",
          "type": "address[]"
        }
      ],
      "payable": false,
      "stateMutability": "view",
      "type": "function"
    },
    {
      "constant": true,
      "inputs": [],
      "name": "getNumberOfTopics",
      "outputs": [
        {
          "internalType": "uint256",
          "name": "",
          "type": "uint256"
        }
      ],
      "payable": false,
      "stateMutability": "view",
      "type": "function"
    },
    {
      "constant": true,
      "inputs": [
        {
          "internalType": "uint256",
          "name": "startIndex",
          "type": "uint256"
        },
        {
          "internalType": "uint256",
          "name": "endIndex",
          "type": "uint256"
        }
      ],
      "name": "getVotedTopics",
      "outputs": [
        {
          "internalType": "address[]",
          "name": "",
          "type": "address[]"
        }
      ],
      "payable": false,
      "stateMutability": "view",
      "type": "function"
    },
    {
      "constant": true,
      "inputs": [],
      "name": "getNumberOfVotedTopics",
      "outputs": [
        {
          "internalType": "uint256",
          "name": "",
          "type": "uint256"
        }
      ],
      "payable": false,
      "stateMutability": "view",
      "type": "function"
    },
    {
      "constant": false,
      "inputs": [
        {
          "internalType": "uint256",
          "name": "addRep",
          "type": "uint256"
        }
      ],
      "name": "addReputation",
      "outputs": [],
      "payable": false,
      "stateMutability": "nonpayable",
      "type": "function"
    },
    {
      "constant": false,
      "inputs": [
        {
          "internalType": "address",
          "name": "topic",
          "type": "address"
        },
        {
          "internalType": "uint256",
          "name": "removeRep",
          "type": "uint256"
        }
      ],
      "name": "spendReputation",
      "outputs": [],
      "payable": false,
      "stateMutability": "nonpayable",
      "type": "function"
    }
  ],
  "bytecode": "0x608060405234801561001057600080fd5b50604051610a96380380610a968339818101604052604081101561003357600080fd5b810190808051906020019092919080519060200190929190505050816000806101000a81548173ffffffffffffffffffffffffffffffffffffffff021916908373ffffffffffffffffffffffffffffffffffffffff160217905550606460028190555080600160006101000a81548173ffffffffffffffffffffffffffffffffffffffff021916908373ffffffffffffffffffffffffffffffffffffffff16021790555050506109ae806100e86000396000f3fe608060405234801561001057600080fd5b50600436106100935760003560e01c8063b50ac9fc11610066578063b50ac9fc146101db578063c729818b14610209578063ccc0795914610227578063d7dc8c7b14610245578063f18df9e7146102d257610093565b806356ea46d9146100985780638da5cb5b14610125578063908f91841461016f578063a450736c146101bd575b600080fd5b6100ce600480360360408110156100ae57600080fd5b810190808035906020019092919080359060200190929190505050610316565b6040518080602001828103825283818151815260200191508051906020019060200280838360005b838110156101115780820151818401526020810190506100f6565b505050509050019250505060405180910390f35b61012d6103fc565b604051808273ffffffffffffffffffffffffffffffffffffffff1673ffffffffffffffffffffffffffffffffffffffff16815260200191505060405180910390f35b6101bb6004803603604081101561018557600080fd5b81019080803573ffffffffffffffffffffffffffffffffffffffff16906020019092919080359060200190929190505050610422565b005b6101c561059c565b6040518082815260200191505060405180910390f35b610207600480360360208110156101f157600080fd5b81019080803590602001909291905050506105a9565b005b610211610661565b6040518082815260200191505060405180910390f35b61022f61066e565b6040518082815260200191505060405180910390f35b61027b6004803603604081101561025b57600080fd5b810190808035906020019092919080359060200190929190505050610674565b6040518080602001828103825283818151815260200191508051906020019060200280838360005b838110156102be5780820151818401526020810190506102a3565b505050509050019250505060405180910390f35b610314600480360360208110156102e857600080fd5b81019080803573ffffffffffffffffffffffffffffffffffffffff16906020019092919050505061075a565b005b60606000838303905060608484036040519080825280602002602001820160405280156103525781602001602082028038833980820191505090505b50905060008090505b828110156103f05760038187018154811061037257fe5b9060005260206000200160009054906101000a900473ffffffffffffffffffffffffffffffffffffffff168282815181106103a957fe5b602002602001019073ffffffffffffffffffffffffffffffffffffffff16908173ffffffffffffffffffffffffffffffffffffffff1681525050808060010191505061035b565b50809250505092915050565b600160009054906101000a900473ffffffffffffffffffffffffffffffffffffffff1681565b6000809054906101000a900473ffffffffffffffffffffffffffffffffffffffff1673ffffffffffffffffffffffffffffffffffffffff163373ffffffffffffffffffffffffffffffffffffffff16146104c7576040517f08c379a00000000000000000000000000000000000000000000000000000000081526004018080602001828103825260358152602001806109456035913960400191505060405180910390fd5b806002541015610522576040517f08c379a00000000000000000000000000000000000000000000000000000000081526004018080602001828103825260278152602001806108ea6027913960400191505060405180910390fd5b60048290806001815401808255809150509060018203906000526020600020016000909192909190916101000a81548173ffffffffffffffffffffffffffffffffffffffff021916908373ffffffffffffffffffffffffffffffffffffffff16021790555050806002600082825403925050819055505050565b6000600480549050905090565b6000809054906101000a900473ffffffffffffffffffffffffffffffffffffffff1673ffffffffffffffffffffffffffffffffffffffff163373ffffffffffffffffffffffffffffffffffffffff161461064e576040517f08c379a00000000000000000000000000000000000000000000000000000000081526004018080602001828103825260358152602001806109456035913960400191505060405180910390fd5b8060026000828254019250508190555050565b6000600380549050905090565b60025481565b60606000838303905060608484036040519080825280602002602001820160405280156106b05781602001602082028038833980820191505090505b50905060008090505b8281101561074e576004818701815481106106d057fe5b9060005260206000200160009054906101000a900473ffffffffffffffffffffffffffffffffffffffff1682828151811061070757fe5b602002602001019073ffffffffffffffffffffffffffffffffffffffff16908173ffffffffffffffffffffffffffffffffffffffff168152505080806001019150506106b9565b50809250505092915050565b600160009054906101000a900473ffffffffffffffffffffffffffffffffffffffff1673ffffffffffffffffffffffffffffffffffffffff168173ffffffffffffffffffffffffffffffffffffffff166302d05d3f6040518163ffffffff1660e01b815260040160206040518083038186803b1580156107d957600080fd5b505afa1580156107ed573d6000803e3d6000fd5b505050506040513d602081101561080357600080fd5b810190808051906020019092919050505073ffffffffffffffffffffffffffffffffffffffff1614610880576040517f08c379a00000000000000000000000000000000000000000000000000000000081526004018080602001828103825260348152602001806109116034913960400191505060405180910390fd5b60038190806001815401808255809150509060018203906000526020600020016000909192909190916101000a81548173ffffffffffffffffffffffffffffffffffffffff021916908373ffffffffffffffffffffffffffffffffffffffff160217905550505056fe596f7520646f6e2774206861766520656e6f7567682072657020746f206769766520617761792e4d757374206265207468652063726561746f72206f662074686520546f70696320696e206f7264657220746f206164642069742e4f6e6c79207468652072657075746174696f6e20666163746f72792063616e20696e766f6b6520746869732066756e6374696f6e2ea265627a7a72315820f4a09bdd35a80f53be31f1ca4134f89f7eb0c7f69f9625b250335c803b3d443564736f6c63430005100032",
  "source": "pragma solidity ^0.5.10;\r\n\r\nimport './Topic.sol';\r\n\r\ncontract Reputation {\r\n    address reputationFactoryAddress;\r\n    \r\n    address public owner;\r\n    uint public rep;\r\n    address[] topics;\r\n    address[] votedTopics;\r\n\r\n    modifier _ownerOnly() {\r\n        require(msg.sender == owner, 'You must be the creator of this Topic in order to do this.');\r\n        _;\r\n    }\r\n\r\n    modifier _reputationFactoryOnly() {\r\n        require(msg.sender == reputationFactoryAddress, 'Only the reputation factory can invoke this function.');\r\n        _;\r\n    }\r\n\r\n    constructor(address repFactoryAddress, address sender) public {\r\n        reputationFactoryAddress = repFactoryAddress;\r\n        rep = 100;\r\n        owner = sender;\r\n    }\r\n\r\n    function addTopic(address payable topicAddress) public {\r\n        require(Topic(topicAddress).creator() == owner, \"Must be the creator of the Topic in order to add it.\");\r\n        topics.push(topicAddress);\r\n    }\r\n\r\n    function getTopics(uint startIndex, uint endIndex) public view returns (address[] memory) {\r\n        uint diff = endIndex - startIndex;\r\n        address[] memory tempTopics = new address[](endIndex-startIndex);\r\n\r\n        for (uint i = 0; i < diff; i++) {\r\n            tempTopics[i] = address(topics[startIndex + i]);\r\n        }\r\n        return tempTopics;\r\n    }\r\n\r\n    function getNumberOfTopics() public view returns (uint) {\r\n        return topics.length;\r\n    }\r\n\r\n    function getVotedTopics(uint startIndex, uint endIndex) public view returns (address[] memory) {\r\n        uint diff = endIndex - startIndex;\r\n        address[] memory tempTopics = new address[](endIndex-startIndex);\r\n\r\n        for (uint i = 0; i < diff; i++) {\r\n            tempTopics[i] = address(votedTopics[startIndex + i]);\r\n        }\r\n        return tempTopics;\r\n    }\r\n\r\n    function getNumberOfVotedTopics() public view returns (uint) {\r\n        return votedTopics.length;\r\n    }\r\n\r\n    function addReputation(uint addRep) public _reputationFactoryOnly {\r\n        rep += addRep;\r\n    }\r\n\r\n    function spendReputation(address topic, uint removeRep) public _reputationFactoryOnly {\r\n        require(rep >= removeRep, \"You don't have enough rep to give away.\");\r\n        votedTopics.push(topic);\r\n        rep -= removeRep;\r\n    }\r\n}",
  "sourcePath": "C:\\Users\\Alex\\Projects\\TruthOrLie\\contracts\\Reputation.sol",
  "compiler": {
    "name": "solc",
    "version": "0.5.16+commit.9c3226ce.Emscripten.clang"
  },
  "schemaVersion": "3.0.23",
  "updatedAt": "2020-03-01T21:48:40.956Z",
  "devdoc": {
    "methods": {}
  },
  "userdoc": {
    "methods": {}
  }
}