{
  "contractName": "ReputationFactory",
  "abi": [
    {
      "inputs": [],
      "payable": false,
      "stateMutability": "nonpayable",
      "type": "constructor"
    },
    {
      "constant": true,
      "inputs": [
        {
          "internalType": "address",
          "name": "",
          "type": "address"
        }
      ],
      "name": "deployedReputations",
      "outputs": [
        {
          "internalType": "address",
          "name": "",
          "type": "address"
        }
      ],
      "payable": false,
      "stateMutability": "view",
      "type": "function"
    },
    {
      "constant": true,
      "inputs": [],
      "name": "owner",
      "outputs": [
        {
          "internalType": "address",
          "name": "",
          "type": "address"
        }
      ],
      "payable": false,
      "stateMutability": "view",
      "type": "function"
    },
    {
      "constant": false,
      "inputs": [
        {
          "internalType": "address",
          "name": "_topicFactoryAddress",
          "type": "address"
        }
      ],
      "name": "updateTopicFactoryAddress",
      "outputs": [],
      "payable": false,
      "stateMutability": "nonpayable",
      "type": "function"
    },
    {
      "constant": false,
      "inputs": [],
      "name": "createReputation",
      "outputs": [],
      "payable": false,
      "stateMutability": "nonpayable",
      "type": "function"
    },
    {
      "constant": false,
      "inputs": [
        {
          "internalType": "uint256",
          "name": "addRep",
          "type": "uint256"
        },
        {
          "internalType": "address",
          "name": "sender",
          "type": "address"
        }
      ],
      "name": "addReputation",
      "outputs": [],
      "payable": false,
      "stateMutability": "nonpayable",
      "type": "function"
    },
    {
      "constant": false,
      "inputs": [
        {
          "internalType": "address",
          "name": "topicAddress",
          "type": "address"
        },
        {
          "internalType": "uint256",
          "name": "removeRep",
          "type": "uint256"
        },
        {
          "internalType": "address",
          "name": "sender",
          "type": "address"
        }
      ],
      "name": "spendReputation",
      "outputs": [],
      "payable": false,
      "stateMutability": "nonpayable",
      "type": "function"
    }
  ],
  "bytecode": "0x6080604052600060025534801561001557600080fd5b50336000806101000a81548173ffffffffffffffffffffffffffffffffffffffff021916908373ffffffffffffffffffffffffffffffffffffffff1602179055506117a4806100656000396000f3fe608060405234801561001057600080fd5b50600436106100625760003560e01c806337c10389146100675780635f2ab567146100d55780636cd9fa60146101235780638da5cb5b146101675780639f96dab0146101b1578063d8874c3614610235575b600080fd5b6100d36004803603606081101561007d57600080fd5b81019080803573ffffffffffffffffffffffffffffffffffffffff16906020019092919080359060200190929190803573ffffffffffffffffffffffffffffffffffffffff16906020019092919050505061023f565b005b610121600480360360408110156100eb57600080fd5b8101908080359060200190929190803573ffffffffffffffffffffffffffffffffffffffff169060200190929190505050610581565b005b6101656004803603602081101561013957600080fd5b81019080803573ffffffffffffffffffffffffffffffffffffffff16906020019092919050505061088e565b005b61016f610977565b604051808273ffffffffffffffffffffffffffffffffffffffff1673ffffffffffffffffffffffffffffffffffffffff16815260200191505060405180910390f35b6101f3600480360360208110156101c757600080fd5b81019080803573ffffffffffffffffffffffffffffffffffffffff16906020019092919050505061099c565b604051808273ffffffffffffffffffffffffffffffffffffffff1673ffffffffffffffffffffffffffffffffffffffff16815260200191505060405180910390f35b61023d6109cf565b005b6000600160009054906101000a900473ffffffffffffffffffffffffffffffffffffffff1690508073ffffffffffffffffffffffffffffffffffffffff166333cfe2ce336040518263ffffffff1660e01b8152600401808273ffffffffffffffffffffffffffffffffffffffff1673ffffffffffffffffffffffffffffffffffffffff16815260200191505060206040518083038186803b1580156102e357600080fd5b505afa1580156102f7573d6000803e3d6000fd5b505050506040513d602081101561030d57600080fd5b8101908080519060200190929190505050610373576040517f08c379a000000000000000000000000000000000000000000000000000000000815260040180806020018281038252603681526020018061173a6036913960400191505060405180910390fd5b6000600360008473ffffffffffffffffffffffffffffffffffffffff1673ffffffffffffffffffffffffffffffffffffffff16815260200190815260200160002060009054906101000a900473ffffffffffffffffffffffffffffffffffffffff1690508273ffffffffffffffffffffffffffffffffffffffff168173ffffffffffffffffffffffffffffffffffffffff16638da5cb5b6040518163ffffffff1660e01b815260040160206040518083038186803b15801561043457600080fd5b505afa158015610448573d6000803e3d6000fd5b505050506040513d602081101561045e57600080fd5b810190808051906020019092919050505073ffffffffffffffffffffffffffffffffffffffff16146104db576040517f08c379a00000000000000000000000000000000000000000000000000000000081526004018080602001828103825260408152602001806116c36040913960400191505060405180910390fd5b8073ffffffffffffffffffffffffffffffffffffffff1663908f918486866040518363ffffffff1660e01b8152600401808373ffffffffffffffffffffffffffffffffffffffff1673ffffffffffffffffffffffffffffffffffffffff16815260200182815260200192505050600060405180830381600087803b15801561056257600080fd5b505af1158015610576573d6000803e3d6000fd5b505050505050505050565b6000600160009054906101000a900473ffffffffffffffffffffffffffffffffffffffff1690508073ffffffffffffffffffffffffffffffffffffffff166333cfe2ce336040518263ffffffff1660e01b8152600401808273ffffffffffffffffffffffffffffffffffffffff1673ffffffffffffffffffffffffffffffffffffffff16815260200191505060206040518083038186803b15801561062557600080fd5b505afa158015610639573d6000803e3d6000fd5b505050506040513d602081101561064f57600080fd5b81019080805190602001909291905050506106b5576040517f08c379a000000000000000000000000000000000000000000000000000000000815260040180806020018281038252603681526020018061173a6036913960400191505060405180910390fd5b6000600360008473ffffffffffffffffffffffffffffffffffffffff1673ffffffffffffffffffffffffffffffffffffffff16815260200190815260200160002060009054906101000a900473ffffffffffffffffffffffffffffffffffffffff1690508273ffffffffffffffffffffffffffffffffffffffff168173ffffffffffffffffffffffffffffffffffffffff16638da5cb5b6040518163ffffffff1660e01b815260040160206040518083038186803b15801561077657600080fd5b505afa15801561078a573d6000803e3d6000fd5b505050506040513d60208110156107a057600080fd5b810190808051906020019092919050505073ffffffffffffffffffffffffffffffffffffffff161461081d576040517f08c379a00000000000000000000000000000000000000000000000000000000081526004018080602001828103825260408152602001806116c36040913960400191505060405180910390fd5b8073ffffffffffffffffffffffffffffffffffffffff1663b50ac9fc856040518263ffffffff1660e01b815260040180828152602001915050600060405180830381600087803b15801561087057600080fd5b505af1158015610884573d6000803e3d6000fd5b5050505050505050565b6000809054906101000a900473ffffffffffffffffffffffffffffffffffffffff1673ffffffffffffffffffffffffffffffffffffffff163373ffffffffffffffffffffffffffffffffffffffff1614610933576040517f08c379a00000000000000000000000000000000000000000000000000000000081526004018080602001828103825260428152602001806116816042913960600191505060405180910390fd5b80600160006101000a81548173ffffffffffffffffffffffffffffffffffffffff021916908373ffffffffffffffffffffffffffffffffffffffff16021790555050565b6000809054906101000a900473ffffffffffffffffffffffffffffffffffffffff1681565b60036020528060005260406000206000915054906101000a900473ffffffffffffffffffffffffffffffffffffffff1681565b600073ffffffffffffffffffffffffffffffffffffffff16600360003373ffffffffffffffffffffffffffffffffffffffff1673ffffffffffffffffffffffffffffffffffffffff16815260200190815260200160002060009054906101000a900473ffffffffffffffffffffffffffffffffffffffff1673ffffffffffffffffffffffffffffffffffffffff1614610ab3576040517f08c379a00000000000000000000000000000000000000000000000000000000081526004018080602001828103825260378152602001806117036037913960400191505060405180910390fd5b60003033604051610ac390610bdd565b808373ffffffffffffffffffffffffffffffffffffffff1673ffffffffffffffffffffffffffffffffffffffff1681526020018273ffffffffffffffffffffffffffffffffffffffff1673ffffffffffffffffffffffffffffffffffffffff16815260200192505050604051809103906000f080158015610b48573d6000803e3d6000fd5b50905080600360003373ffffffffffffffffffffffffffffffffffffffff1673ffffffffffffffffffffffffffffffffffffffff16815260200190815260200160002060006101000a81548173ffffffffffffffffffffffffffffffffffffffff021916908373ffffffffffffffffffffffffffffffffffffffff160217905550600160026000828254019250508190555050565b610a9680610beb8339019056fe608060405234801561001057600080fd5b50604051610a96380380610a968339818101604052604081101561003357600080fd5b810190808051906020019092919080519060200190929190505050816000806101000a81548173ffffffffffffffffffffffffffffffffffffffff021916908373ffffffffffffffffffffffffffffffffffffffff160217905550606460028190555080600160006101000a81548173ffffffffffffffffffffffffffffffffffffffff021916908373ffffffffffffffffffffffffffffffffffffffff16021790555050506109ae806100e86000396000f3fe608060405234801561001057600080fd5b50600436106100935760003560e01c8063b50ac9fc11610066578063b50ac9fc146101db578063c729818b14610209578063ccc0795914610227578063d7dc8c7b14610245578063f18df9e7146102d257610093565b806356ea46d9146100985780638da5cb5b14610125578063908f91841461016f578063a450736c146101bd575b600080fd5b6100ce600480360360408110156100ae57600080fd5b810190808035906020019092919080359060200190929190505050610316565b6040518080602001828103825283818151815260200191508051906020019060200280838360005b838110156101115780820151818401526020810190506100f6565b505050509050019250505060405180910390f35b61012d6103fc565b604051808273ffffffffffffffffffffffffffffffffffffffff1673ffffffffffffffffffffffffffffffffffffffff16815260200191505060405180910390f35b6101bb6004803603604081101561018557600080fd5b81019080803573ffffffffffffffffffffffffffffffffffffffff16906020019092919080359060200190929190505050610422565b005b6101c561059c565b6040518082815260200191505060405180910390f35b610207600480360360208110156101f157600080fd5b81019080803590602001909291905050506105a9565b005b610211610661565b6040518082815260200191505060405180910390f35b61022f61066e565b6040518082815260200191505060405180910390f35b61027b6004803603604081101561025b57600080fd5b810190808035906020019092919080359060200190929190505050610674565b6040518080602001828103825283818151815260200191508051906020019060200280838360005b838110156102be5780820151818401526020810190506102a3565b505050509050019250505060405180910390f35b610314600480360360208110156102e857600080fd5b81019080803573ffffffffffffffffffffffffffffffffffffffff16906020019092919050505061075a565b005b60606000838303905060608484036040519080825280602002602001820160405280156103525781602001602082028038833980820191505090505b50905060008090505b828110156103f05760038187018154811061037257fe5b9060005260206000200160009054906101000a900473ffffffffffffffffffffffffffffffffffffffff168282815181106103a957fe5b602002602001019073ffffffffffffffffffffffffffffffffffffffff16908173ffffffffffffffffffffffffffffffffffffffff1681525050808060010191505061035b565b50809250505092915050565b600160009054906101000a900473ffffffffffffffffffffffffffffffffffffffff1681565b6000809054906101000a900473ffffffffffffffffffffffffffffffffffffffff1673ffffffffffffffffffffffffffffffffffffffff163373ffffffffffffffffffffffffffffffffffffffff16146104c7576040517f08c379a00000000000000000000000000000000000000000000000000000000081526004018080602001828103825260358152602001806109456035913960400191505060405180910390fd5b806002541015610522576040517f08c379a00000000000000000000000000000000000000000000000000000000081526004018080602001828103825260278152602001806108ea6027913960400191505060405180910390fd5b60048290806001815401808255809150509060018203906000526020600020016000909192909190916101000a81548173ffffffffffffffffffffffffffffffffffffffff021916908373ffffffffffffffffffffffffffffffffffffffff16021790555050806002600082825403925050819055505050565b6000600480549050905090565b6000809054906101000a900473ffffffffffffffffffffffffffffffffffffffff1673ffffffffffffffffffffffffffffffffffffffff163373ffffffffffffffffffffffffffffffffffffffff161461064e576040517f08c379a00000000000000000000000000000000000000000000000000000000081526004018080602001828103825260358152602001806109456035913960400191505060405180910390fd5b8060026000828254019250508190555050565b6000600380549050905090565b60025481565b60606000838303905060608484036040519080825280602002602001820160405280156106b05781602001602082028038833980820191505090505b50905060008090505b8281101561074e576004818701815481106106d057fe5b9060005260206000200160009054906101000a900473ffffffffffffffffffffffffffffffffffffffff1682828151811061070757fe5b602002602001019073ffffffffffffffffffffffffffffffffffffffff16908173ffffffffffffffffffffffffffffffffffffffff168152505080806001019150506106b9565b50809250505092915050565b600160009054906101000a900473ffffffffffffffffffffffffffffffffffffffff1673ffffffffffffffffffffffffffffffffffffffff168173ffffffffffffffffffffffffffffffffffffffff166302d05d3f6040518163ffffffff1660e01b815260040160206040518083038186803b1580156107d957600080fd5b505afa1580156107ed573d6000803e3d6000fd5b505050506040513d602081101561080357600080fd5b810190808051906020019092919050505073ffffffffffffffffffffffffffffffffffffffff1614610880576040517f08c379a00000000000000000000000000000000000000000000000000000000081526004018080602001828103825260348152602001806109116034913960400191505060405180910390fd5b60038190806001815401808255809150509060018203906000526020600020016000909192909190916101000a81548173ffffffffffffffffffffffffffffffffffffffff021916908373ffffffffffffffffffffffffffffffffffffffff160217905550505056fe596f7520646f6e2774206861766520656e6f7567682072657020746f206769766520617761792e4d757374206265207468652063726561746f72206f662074686520546f70696320696e206f7264657220746f206164642069742e4f6e6c79207468652072657075746174696f6e20666163746f72792063616e20696e766f6b6520746869732066756e6374696f6e2ea265627a7a72315820f4a09bdd35a80f53be31f1ca4134f89f7eb0c7f69f9625b250335c803b3d443564736f6c63430005100032596f75206d757374206265207468652063726561746f72206f66207468697320546f70696320466163746f727920696e206f7264657220746f20646f20746869732e4d75737420626520746865206f776e6572206f66207468652052657075746174696f6e20436f6e747261637420696e206f7264657220746f207573652069742e412072657075746174696f6e20636f6e74726163742068617320616c7265616479206265656e206372656174656420666f7220796f752e4f6e6c79206f6666696369616c20546f70696320436f6e7472616374732063616e20696e766f6b6520746869732066756e6374696f6ea265627a7a723158205df23a91ae519ab8a5c84c436b260c1a493e5870dbe1b92ea1e08e0c6d035a1e64736f6c63430005100032",
  "source": "pragma solidity ^0.5.10;\r\n\r\nimport \"./Reputation.sol\";\r\nimport \"./TopicFactory.sol\";\r\n\r\ncontract ReputationFactory {\r\n    address public owner;    \r\n    address topicFactoryAddress;\r\n    uint256 deployedReputationCount = 0;\r\n    mapping(address => address) public deployedReputations;\r\n\r\n    modifier _ownerOnly() {\r\n        require(msg.sender == owner, 'You must be the creator of this Topic Factory in order to do this.');\r\n        _;\r\n    }\r\n\r\n    modifier _topicContractsOnly() {\r\n        // Topic topic = Topic(msg.sender);\r\n        // require(topic.isTopic(), \"Only Topic Contracts can invoke this function\");\r\n        // topic.getTruthCount();\r\n        TopicFactory topicFactory = TopicFactory(topicFactoryAddress);\r\n        require(topicFactory.checkIfValidTopicAddress(msg.sender), \"Only official Topic Contracts can invoke this function\");\r\n        _;\r\n    }\r\n\r\n    constructor() public {\r\n        owner = msg.sender;\r\n    }\r\n\r\n    function updateTopicFactoryAddress(address _topicFactoryAddress) public _ownerOnly {\r\n        topicFactoryAddress = _topicFactoryAddress;\r\n    }\r\n\r\n    function createReputation() public {\r\n        require(\r\n            deployedReputations[msg.sender] == address(0x0),\r\n            \"A reputation contract has already been created for you.\"\r\n        );\r\n\r\n        Reputation newReputation = new Reputation(address(this), msg.sender);\r\n        deployedReputations[msg.sender] = address(newReputation);\r\n        deployedReputationCount += 1;\r\n    }\r\n\r\n    function addReputation(uint256 addRep, address sender)\r\n        public\r\n        _topicContractsOnly\r\n    {\r\n        Reputation userReputation = Reputation(deployedReputations[sender]);\r\n        require(\r\n            userReputation.owner() == sender,\r\n            \"Must be the owner of the Reputation Contract in order to use it.\"\r\n        );\r\n        userReputation.addReputation(addRep);\r\n    }\r\n\r\n    function spendReputation(\r\n        address topicAddress,\r\n        uint256 removeRep,\r\n        address sender\r\n    ) public _topicContractsOnly {\r\n        Reputation userReputation = Reputation(deployedReputations[sender]);\r\n        require(\r\n            userReputation.owner() == sender,\r\n            \"Must be the owner of the Reputation Contract in order to use it.\"\r\n        );\r\n        userReputation.spendReputation(topicAddress, removeRep);\r\n    }\r\n}\r\n",
  "sourcePath": "C:\\Users\\Alex\\Projects\\TruthOrLie\\contracts\\ReputationFactory.sol",
  "compiler": {
    "name": "solc",
    "version": "0.5.16+commit.9c3226ce.Emscripten.clang"
  },
  "schemaVersion": "3.0.23",
  "updatedAt": "2020-03-01T21:52:50.878Z",
  "networkType": "ethereum",
  "devdoc": {
    "methods": {}
  },
  "userdoc": {
    "methods": {}
  }
}