{
  "contractName": "TopicAssigner",
  "abi": [
    {
      "inputs": [
        {
          "internalType": "address",
          "name": "_topicFactoryAddress",
          "type": "address"
        }
      ],
      "payable": false,
      "stateMutability": "nonpayable",
      "type": "constructor"
    },
    {
      "anonymous": false,
      "inputs": [
        {
          "indexed": false,
          "internalType": "string",
          "name": "description",
          "type": "string"
        }
      ],
      "name": "LogNewProvableQuery",
      "type": "event"
    },
    {
      "constant": true,
      "inputs": [
        {
          "internalType": "address",
          "name": "",
          "type": "address"
        }
      ],
      "name": "assignedVisibleTopics",
      "outputs": [
        {
          "internalType": "uint256",
          "name": "",
          "type": "uint256"
        }
      ],
      "payable": false,
      "stateMutability": "view",
      "type": "function"
    },
    {
      "constant": true,
      "inputs": [],
      "name": "owner",
      "outputs": [
        {
          "internalType": "address",
          "name": "",
          "type": "address"
        }
      ],
      "payable": false,
      "stateMutability": "view",
      "type": "function"
    },
    {
      "constant": true,
      "inputs": [
        {
          "internalType": "address",
          "name": "",
          "type": "address"
        }
      ],
      "name": "proofFailed",
      "outputs": [
        {
          "internalType": "bool",
          "name": "",
          "type": "bool"
        }
      ],
      "payable": false,
      "stateMutability": "view",
      "type": "function"
    },
    {
      "constant": true,
      "inputs": [
        {
          "internalType": "bytes32",
          "name": "",
          "type": "bytes32"
        }
      ],
      "name": "queryToUserAddress",
      "outputs": [
        {
          "internalType": "address",
          "name": "",
          "type": "address"
        }
      ],
      "payable": false,
      "stateMutability": "view",
      "type": "function"
    },
    {
      "constant": true,
      "inputs": [],
      "name": "topicFactoryAddress",
      "outputs": [
        {
          "internalType": "address",
          "name": "",
          "type": "address"
        }
      ],
      "payable": false,
      "stateMutability": "view",
      "type": "function"
    },
    {
      "constant": false,
      "inputs": [
        {
          "internalType": "uint256",
          "name": "numTopics",
          "type": "uint256"
        }
      ],
      "name": "changeNumVisibleTopics",
      "outputs": [],
      "payable": false,
      "stateMutability": "nonpayable",
      "type": "function"
    },
    {
      "constant": true,
      "inputs": [
        {
          "internalType": "address",
          "name": "sender",
          "type": "address"
        },
        {
          "internalType": "address",
          "name": "topicAddress",
          "type": "address"
        }
      ],
      "name": "hasTopic",
      "outputs": [
        {
          "internalType": "bool",
          "name": "",
          "type": "bool"
        }
      ],
      "payable": false,
      "stateMutability": "view",
      "type": "function"
    },
    {
      "constant": true,
      "inputs": [
        {
          "internalType": "address",
          "name": "sender",
          "type": "address"
        }
      ],
      "name": "getRandomTopics",
      "outputs": [
        {
          "internalType": "address[]",
          "name": "",
          "type": "address[]"
        }
      ],
      "payable": false,
      "stateMutability": "view",
      "type": "function"
    },
    {
      "constant": false,
      "inputs": [],
      "name": "refreshRandomTopics",
      "outputs": [],
      "payable": true,
      "stateMutability": "payable",
      "type": "function"
    },
    {
      "constant": false,
      "inputs": [
        {
          "internalType": "bytes32",
          "name": "_myid",
          "type": "bytes32"
        },
        {
          "internalType": "string",
          "name": "_result",
          "type": "string"
        }
      ],
      "name": "__callback",
      "outputs": [],
      "payable": false,
      "stateMutability": "nonpayable",
      "type": "function"
    },
    {
      "constant": false,
      "inputs": [
        {
          "internalType": "bytes32",
          "name": "_queryId",
          "type": "bytes32"
        },
        {
          "internalType": "string",
          "name": "_result",
          "type": "string"
        },
        {
          "internalType": "bytes",
          "name": "_proof",
          "type": "bytes"
        }
      ],
      "name": "__callback",
      "outputs": [],
      "payable": false,
      "stateMutability": "nonpayable",
      "type": "function"
    },
    {
      "constant": false,
      "inputs": [],
      "name": "reclaimExtraEther",
      "outputs": [],
      "payable": false,
      "stateMutability": "nonpayable",
      "type": "function"
    }
  ],
  "bytecode": "0x6080604052600a6005553480156200001657600080fd5b5060405162004bc538038062004bc5833981810160405260208110156200003c57600080fd5b810190808051906020019092919050505080600760006101000a81548173ffffffffffffffffffffffffffffffffffffffff021916908373ffffffffffffffffffffffffffffffffffffffff160217905550620000a3603060f81b620000eb60201b60201c565b33600660006101000a81548173ffffffffffffffffffffffffffffffffffffffff021916908373ffffffffffffffffffffffffffffffffffffffff1602179055505062000b0c565b600073ffffffffffffffffffffffffffffffffffffffff16600160009054906101000a900473ffffffffffffffffffffffffffffffffffffffff1673ffffffffffffffffffffffffffffffffffffffff1614806200017b5750600062000179600160009054906101000a900473ffffffffffffffffffffffffffffffffffffffff166200044e60201b60201c565b145b1562000195576200019360006200045960201b60201c565b505b600160009054906101000a900473ffffffffffffffffffffffffffffffffffffffff1673ffffffffffffffffffffffffffffffffffffffff166338cc48316040518163ffffffff1660e01b8152600401602060405180830381600087803b1580156200020057600080fd5b505af115801562000215573d6000803e3d6000fd5b505050506040513d60208110156200022c57600080fd5b810190808051906020019092919050505073ffffffffffffffffffffffffffffffffffffffff166000809054906101000a900473ffffffffffffffffffffffffffffffffffffffff1673ffffffffffffffffffffffffffffffffffffffff16146200037957600160009054906101000a900473ffffffffffffffffffffffffffffffffffffffff1673ffffffffffffffffffffffffffffffffffffffff166338cc48316040518163ffffffff1660e01b8152600401602060405180830381600087803b158015620002fc57600080fd5b505af115801562000311573d6000803e3d6000fd5b505050506040513d60208110156200032857600080fd5b81019080805190602001909291905050506000806101000a81548173ffffffffffffffffffffffffffffffffffffffff021916908373ffffffffffffffffffffffffffffffffffffffff1602179055505b6000809054906101000a900473ffffffffffffffffffffffffffffffffffffffff1673ffffffffffffffffffffffffffffffffffffffff1663688dcfd7826040518263ffffffff1660e01b815260040180827effffffffffffffffffffffffffffffffffffffffffffffffffffffffffffff19167effffffffffffffffffffffffffffffffffffffffffffffffffffffffffffff19168152602001915050600060405180830381600087803b1580156200043257600080fd5b505af115801562000447573d6000803e3d6000fd5b5050505050565b6000813b9050919050565b60006200046b6200047260201b60201c565b9050919050565b6000806200049a731d3b2638a7cc9f2cb3d298a3da7a90b67e5506ed6200044e60201b60201c565b11156200054657731d3b2638a7cc9f2cb3d298a3da7a90b67e5506ed600160006101000a81548173ffffffffffffffffffffffffffffffffffffffff021916908373ffffffffffffffffffffffffffffffffffffffff1602179055506200053c6040518060400160405280600b81526020017f6574685f6d61696e6e657400000000000000000000000000000000000000000081525062000a4160201b60201c565b6001905062000a3e565b60006200056d73c03a2615d5efaf5f49f60b7bb6583eaec212fdf16200044e60201b60201c565b1115620006195773c03a2615d5efaf5f49f60b7bb6583eaec212fdf1600160006101000a81548173ffffffffffffffffffffffffffffffffffffffff021916908373ffffffffffffffffffffffffffffffffffffffff1602179055506200060f6040518060400160405280600c81526020017f6574685f726f707374656e33000000000000000000000000000000000000000081525062000a4160201b60201c565b6001905062000a3e565b60006200064073b7a07bcf2ba2f2703b24c0691b5278999c59ac7e6200044e60201b60201c565b1115620006ec5773b7a07bcf2ba2f2703b24c0691b5278999c59ac7e600160006101000a81548173ffffffffffffffffffffffffffffffffffffffff021916908373ffffffffffffffffffffffffffffffffffffffff160217905550620006e26040518060400160405280600981526020017f6574685f6b6f76616e000000000000000000000000000000000000000000000081525062000a4160201b60201c565b6001905062000a3e565b60006200071373146500cfd35b22e4a392fe0adc06de1a1368ed486200044e60201b60201c565b1115620007bf5773146500cfd35b22e4a392fe0adc06de1a1368ed48600160006101000a81548173ffffffffffffffffffffffffffffffffffffffff021916908373ffffffffffffffffffffffffffffffffffffffff160217905550620007b56040518060400160405280600b81526020017f6574685f72696e6b65627900000000000000000000000000000000000000000081525062000a4160201b60201c565b6001905062000a3e565b6000620007e673a2998efd205fb9d4b4963afb70778d6354ad3a416200044e60201b60201c565b1115620008925773a2998efd205fb9d4b4963afb70778d6354ad3a41600160006101000a81548173ffffffffffffffffffffffffffffffffffffffff021916908373ffffffffffffffffffffffffffffffffffffffff160217905550620008886040518060400160405280600a81526020017f6574685f676f65726c690000000000000000000000000000000000000000000081525062000a4160201b60201c565b6001905062000a3e565b6000620008b9736f485c8bf6fc43ea212e93bbf8ce046c7f1cb4756200044e60201b60201c565b11156200091f57736f485c8bf6fc43ea212e93bbf8ce046c7f1cb475600160006101000a81548173ffffffffffffffffffffffffffffffffffffffff021916908373ffffffffffffffffffffffffffffffffffffffff1602179055506001905062000a3e565b6000620009467320e12a1f859b3feae5fb2a0a32c18f5a65555bbf6200044e60201b60201c565b1115620009ac577320e12a1f859b3feae5fb2a0a32c18f5a65555bbf600160006101000a81548173ffffffffffffffffffffffffffffffffffffffff021916908373ffffffffffffffffffffffffffffffffffffffff1602179055506001905062000a3e565b6000620009d37351efaf4c8b3c9afbd5ab9f4bbc82784ab6ef8faa6200044e60201b60201c565b111562000a39577351efaf4c8b3c9afbd5ab9f4bbc82784ab6ef8faa600160006101000a81548173ffffffffffffffffffffffffffffffffffffffff021916908373ffffffffffffffffffffffffffffffffffffffff1602179055506001905062000a3e565b600090505b90565b806002908051906020019062000a5992919062000a5d565b5050565b828054600181600116156101000203166002900490600052602060002090601f016020900481019282601f1062000aa057805160ff191683800117855562000ad1565b8280016001018555821562000ad1579182015b8281111562000ad057825182559160200191906001019062000ab3565b5b50905062000ae0919062000ae4565b5090565b62000b0991905b8082111562000b0557600081600090555060010162000aeb565b5090565b90565b6140a98062000b1c6000396000f3fe6080604052600436106100a75760003560e01c8063902701b711610064578063902701b7146104c8578063ccb40d8f14610551578063cf592dea146105b6578063ec634e271461060d578063ed58307814610648578063f0f22eb41461065f576100a7565b806327dc297e146100ac57806338bbfa501461017e5780633d2e83f0146102e7578063811f287e146103625780638da5cb5b146104085780638f3737d21461045f575b600080fd5b3480156100b857600080fd5b5061017c600480360360408110156100cf57600080fd5b8101908080359060200190929190803590602001906401000000008111156100f657600080fd5b82018360208201111561010857600080fd5b8035906020019184600183028401116401000000008311171561012a57600080fd5b91908080601f016020809104026020016040519081016040528093929190818152602001838380828437600081840152601f19601f820116905080830192505050505050509192919290505050610669565b005b34801561018a57600080fd5b506102e5600480360360608110156101a157600080fd5b8101908080359060200190929190803590602001906401000000008111156101c857600080fd5b8201836020820111156101da57600080fd5b803590602001918460018302840111640100000000831117156101fc57600080fd5b91908080601f016020809104026020016040519081016040528093929190818152602001838380828437600081840152601f19601f8201169050808301925050505050505091929192908035906020019064010000000081111561025f57600080fd5b82018360208201111561027157600080fd5b8035906020019184600183028401116401000000008311171561029357600080fd5b91908080601f016020809104026020016040519081016040528093929190818152602001838380828437600081840152601f19601f8201169050808301925050505050505091929192905050506106ac565b005b3480156102f357600080fd5b506103206004803603602081101561030a57600080fd5b8101908080359060200190929190505050610948565b604051808273ffffffffffffffffffffffffffffffffffffffff1673ffffffffffffffffffffffffffffffffffffffff16815260200191505060405180910390f35b34801561036e57600080fd5b506103b16004803603602081101561038557600080fd5b81019080803573ffffffffffffffffffffffffffffffffffffffff16906020019092919050505061097b565b6040518080602001828103825283818151815260200191508051906020019060200280838360005b838110156103f45780820151818401526020810190506103d9565b505050509050019250505060405180910390f35b34801561041457600080fd5b5061041d610d25565b604051808273ffffffffffffffffffffffffffffffffffffffff1673ffffffffffffffffffffffffffffffffffffffff16815260200191505060405180910390f35b34801561046b57600080fd5b506104ae6004803603602081101561048257600080fd5b81019080803573ffffffffffffffffffffffffffffffffffffffff169060200190929190505050610d4b565b604051808215151515815260200191505060405180910390f35b3480156104d457600080fd5b50610537600480360360408110156104eb57600080fd5b81019080803573ffffffffffffffffffffffffffffffffffffffff169060200190929190803573ffffffffffffffffffffffffffffffffffffffff169060200190929190505050610d6b565b604051808215151515815260200191505060405180910390f35b34801561055d57600080fd5b506105a06004803603602081101561057457600080fd5b81019080803573ffffffffffffffffffffffffffffffffffffffff169060200190929190505050610dfc565b6040518082815260200191505060405180910390f35b3480156105c257600080fd5b506105cb610e14565b604051808273ffffffffffffffffffffffffffffffffffffffff1673ffffffffffffffffffffffffffffffffffffffff16815260200191505060405180910390f35b34801561061957600080fd5b506106466004803603602081101561063057600080fd5b8101908080359060200190929190505050610e3a565b005b34801561065457600080fd5b5061065d610eea565b005b610667610fd9565b005b6106a8828260006040519080825280601f01601f1916602001820160405280156106a25781602001600182028038833980820191505090505b506106ac565b5050565b6106b4611098565b73ffffffffffffffffffffffffffffffffffffffff163373ffffffffffffffffffffffffffffffffffffffff16146106eb57600080fd5b60006106f88484846113b5565b60ff1614610790576001600a60006008600087815260200190815260200160002060009054906101000a900473ffffffffffffffffffffffffffffffffffffffff1673ffffffffffffffffffffffffffffffffffffffff1673ffffffffffffffffffffffffffffffffffffffff16815260200190815260200160002060006101000a81548160ff02191690831515021790555061081c565b6000600a60006008600087815260200190815260200160002060009054906101000a900473ffffffffffffffffffffffffffffffffffffffff1673ffffffffffffffffffffffffffffffffffffffff1673ffffffffffffffffffffffffffffffffffffffff16815260200190815260200160002060006101000a81548160ff0219169083151502179055505b6000826040516020018082805190602001908083835b602083106108555780518252602082019150602081019050602083039250610832565b6001836020036101000a0380198251168184511680821785525050505050509050019150506040516020818303038152906040528051906020012060001c905080600960006008600088815260200190815260200160002060009054906101000a900473ffffffffffffffffffffffffffffffffffffffff1673ffffffffffffffffffffffffffffffffffffffff1673ffffffffffffffffffffffffffffffffffffffff168152602001908152602001600020819055506008600085815260200190815260200160002060006101000a81549073ffffffffffffffffffffffffffffffffffffffff021916905550505050565b60086020528060005260406000206000915054906101000a900473ffffffffffffffffffffffffffffffffffffffff1681565b60606000600760009054906101000a900473ffffffffffffffffffffffffffffffffffffffff16905060008173ffffffffffffffffffffffffffffffffffffffff1663dfb097006040518163ffffffff1660e01b815260040160206040518083038186803b1580156109ec57600080fd5b505afa158015610a00573d6000803e3d6000fd5b505050506040513d6020811015610a1657600080fd5b8101908080519060200190929190505050905060008111610a82576040517f08c379a000000000000000000000000000000000000000000000000000000000815260040180806020018281038252604a815260200180613f7b604a913960600191505060405180910390fd5b6000600960008673ffffffffffffffffffffffffffffffffffffffff1673ffffffffffffffffffffffffffffffffffffffff1681526020019081526020016000205490506000811415610b0a576000604051908082528060200260200182016040528015610aff5781602001602082028038833980820191505090505b509350505050610d20565b6060600554604051908082528060200260200182016040528015610b3d5781602001602082028038833980820191505090505b50905060008090505b6005548160ff161015610bb15782604051602001808281526020019150506040516020818303038152906040528051906020012060001c9250838381610b8857fe5b06828260ff1681518110610b9857fe5b6020026020010181815250508080600101915050610b46565b508373ffffffffffffffffffffffffffffffffffffffff1663dc983f08826040518263ffffffff1660e01b81526004018080602001828103825283818151815260200191508051906020019060200280838360005b83811015610c21578082015181840152602081019050610c06565b505050509050019250505060006040518083038186803b158015610c4457600080fd5b505afa158015610c58573d6000803e3d6000fd5b505050506040513d6000823e3d601f19601f820116820180604052506020811015610c8257600080fd5b8101908080516040519392919084640100000000821115610ca257600080fd5b83820191506020820185811115610cb857600080fd5b8251866020820283011164010000000082111715610cd557600080fd5b8083526020830192505050908051906020019060200280838360005b83811015610d0c578082015181840152602081019050610cf1565b505050509050016040525050509450505050505b919050565b600660009054906101000a900473ffffffffffffffffffffffffffffffffffffffff1681565b600a6020528060005260406000206000915054906101000a900460ff1681565b60006060610d788461097b565b905060008090505b6005548160ff161015610def578373ffffffffffffffffffffffffffffffffffffffff16828260ff1681518110610db357fe5b602002602001015173ffffffffffffffffffffffffffffffffffffffff161415610de257600192505050610df6565b8080600101915050610d80565b5060009150505b92915050565b60096020528060005260406000206000915090505481565b600760009054906101000a900473ffffffffffffffffffffffffffffffffffffffff1681565b600660009054906101000a900473ffffffffffffffffffffffffffffffffffffffff1673ffffffffffffffffffffffffffffffffffffffff163373ffffffffffffffffffffffffffffffffffffffff1614610ee0576040517f08c379a000000000000000000000000000000000000000000000000000000000815260040180806020018281038252603a815260200180613fc5603a913960400191505060405180910390fd5b8060058190555050565b600660009054906101000a900473ffffffffffffffffffffffffffffffffffffffff1673ffffffffffffffffffffffffffffffffffffffff163373ffffffffffffffffffffffffffffffffffffffff1614610f90576040517f08c379a000000000000000000000000000000000000000000000000000000000815260040180806020018281038252603a815260200180613fc5603a913960400191505060405180910390fd5b3373ffffffffffffffffffffffffffffffffffffffff166108fc479081150290604051600060405180830381858888f19350505050158015610fd6573d6000803e3d6000fd5b50565b6000809050600062030d4090506000610ff4836008846114e5565b9050336008600083815260200190815260200160002060006101000a81548173ffffffffffffffffffffffffffffffffffffffff021916908373ffffffffffffffffffffffffffffffffffffffff1602179055507fc4dc360d0a9c0677a3379ae0a3d81e887f761e65fdf3d7e00859d1bcd3c4738960405180806020018281038252603681526020018061403f6036913960400191505060405180910390a1505050565b60008073ffffffffffffffffffffffffffffffffffffffff16600160009054906101000a900473ffffffffffffffffffffffffffffffffffffffff1673ffffffffffffffffffffffffffffffffffffffff1614806111205750600061111e600160009054906101000a900473ffffffffffffffffffffffffffffffffffffffff16611a80565b145b156111315761112f6000611a8b565b505b600160009054906101000a900473ffffffffffffffffffffffffffffffffffffffff1673ffffffffffffffffffffffffffffffffffffffff166338cc48316040518163ffffffff1660e01b8152600401602060405180830381600087803b15801561119b57600080fd5b505af11580156111af573d6000803e3d6000fd5b505050506040513d60208110156111c557600080fd5b810190808051906020019092919050505073ffffffffffffffffffffffffffffffffffffffff166000809054906101000a900473ffffffffffffffffffffffffffffffffffffffff1673ffffffffffffffffffffffffffffffffffffffff161461130e57600160009054906101000a900473ffffffffffffffffffffffffffffffffffffffff1673ffffffffffffffffffffffffffffffffffffffff166338cc48316040518163ffffffff1660e01b8152600401602060405180830381600087803b15801561129357600080fd5b505af11580156112a7573d6000803e3d6000fd5b505050506040513d60208110156112bd57600080fd5b81019080805190602001909291905050506000806101000a81548173ffffffffffffffffffffffffffffffffffffffff021916908373ffffffffffffffffffffffffffffffffffffffff1602179055505b6000809054906101000a900473ffffffffffffffffffffffffffffffffffffffff1673ffffffffffffffffffffffffffffffffffffffff1663c281d19e6040518163ffffffff1660e01b815260040160206040518083038186803b15801561137557600080fd5b505afa158015611389573d6000803e3d6000fd5b505050506040513d602081101561139f57600080fd5b8101908080519060200190929190505050905090565b60007f4c00000000000000000000000000000000000000000000000000000000000000826000815181106113e557fe5b602001015160f81c60f81b7effffffffffffffffffffffffffffffffffffffffffffffffffffffffffffff191614158061147857507f50000000000000000000000000000000000000000000000000000000000000008260018151811061144857fe5b602001015160f81c60f81b7effffffffffffffffffffffffffffffffffffffffffffffffffffffffffffff191614155b806114a45750600160ff168260028151811061149057fe5b602001015160f81c60f81b60f81c60ff1614155b156114b257600190506114de565b60006114c78386866114c2611a9c565b611b3e565b9050806114d85760029150506114de565b60009150505b9392505050565b600080831180156114f7575060208311155b61150057600080fd5b600a84029350606060016040519080825280601f01601f19166020018201604052801561153c5781602001600182028038833980820191505090505b5090508360f81b8160008151811061155057fe5b60200101907effffffffffffffffffffffffffffffffffffffffffffffffffffffffffffff1916908160001a905350606060206040519080825280601f01601f1916602001820160405280156115b55781602001600182028038833980820191505090505b509050606060206040519080825280601f01601f1916602001820160405280156115ee5781602001600182028038833980820191505090505b50905060006115fb6121e9565b905060208352424118600143034018602084015260208252806020830152606060206040519080825280601f01601f19166020018201604052801561164f5781602001600182028038833980820191505090505b509050886020820152606060086040519080825280601f01601f19166020018201604052801561168e5781602001600182028038833980820191505090505b5090506116a18260186008846000612506565b506116aa613e94565b6040518060800160405280878152602001888152602001868152602001848152509050600061170f6040518060400160405280600681526020017f72616e646f6d0000000000000000000000000000000000000000000000000000815250838c612565565b9050606060086040519080825280601f01601f1916602001820160405280156117475781602001600182028038833980820191505090505b50905060208401517f0100000000000000000000000000000000000000000000000000000000000000810460278301537e01000000000000000000000000000000000000000000000000000000000000810460268301537d010000000000000000000000000000000000000000000000000000000000810460258301537c0100000000000000000000000000000000000000000000000000000000810460248301537b01000000000000000000000000000000000000000000000000000000810460238301537a010000000000000000000000000000000000000000000000000000810460228301537901000000000000000000000000000000000000000000000000008104602183015378010000000000000000000000000000000000000000000000008104602083015350611a6d82828560016004811061188657fe5b602002015160028760006004811061189a57fe5b60200201516040518082805190602001908083835b602083106118d257805182526020820191506020810190506020830392506118af565b6001836020036101000a038019825116818451168082178552505050505050905001915050602060405180830381855afa158015611914573d6000803e3d6000fd5b5050506040513d602081101561192957600080fd5b81019080805190602001909291905050508760026004811061194757fe5b60200201516040516020018085805190602001908083835b60208310611982578051825260208201915060208101905060208303925061195f565b6001836020036101000a03801982511681845116808217855250505050505090500184805190602001908083835b602083106119d357805182526020820191506020810190506020830392506119b0565b6001836020036101000a03801982511681845116808217855250505050505090500183815260200182805190602001908083835b60208310611a2a5780518252602082019150602081019050602083039250611a07565b6001836020036101000a038019825116818451168082178552505050505050905001945050505050604051602081830303815290604052805190602001206128d2565b8199505050505050505050509392505050565b6000813b9050919050565b6000611a956128ee565b9050919050565b606060028054600181600116156101000203166002900480601f016020809104026020016040519081016040528092919081815260200182805460018160011615610100020316600290048015611b345780601f10611b0957610100808354040283529160200191611b34565b820191906000526020600020905b815481529060010190602001808311611b1757829003601f168201915b5050505050905090565b6000806020600287604581518110611b5257fe5b602001015160f81c60f81b60f81c60ff1601604401019050606060206040519080825280601f01601f191660200182016040528015611ba05781602001600182028038833980820191505090505b509050611bb287836020846000612506565b50600284876040516020018083805190602001908083835b60208310611bed5780518252602082019150602081019050602083039250611bca565b6001836020036101000a038019825116818451168082178552505050505050905001828152602001925050506040516020818303038152906040526040518082805190602001908083835b60208310611c5b5780518252602082019150602081019050602083039250611c38565b6001836020036101000a038019825116818451168082178552505050505050905001915050602060405180830381855afa158015611c9d573d6000803e3d6000fd5b5050506040513d6020811015611cb257600080fd5b81019080805190602001909291905050506040516020018082815260200191505060405160208183030381529060405280519060200120818051906020012014611d01576000925050506121e1565b60606002886001604986010181518110611d1757fe5b602001015160f81c60f81b60f81c60ff16016040519080825280601f01601f191660200182016040528015611d5b5781602001600182028038833980820191505090505b509050611d7088604985018351846000612506565b50611e3b6002826040518082805190602001908083835b60208310611daa5780518252602082019150602081019050602083039250611d87565b6001836020036101000a038019825116818451168082178552505050505050905001915050602060405180830381855afa158015611dec573d6000803e3d6000fd5b5050506040513d6020811015611e0157600080fd5b8101908080519060200190929190505050878a6008602088010181518110611e2557fe5b602001015160f81c60f81b60f81c60ff16612e45565b611e4b57600093505050506121e1565b606060296040519080825280601f01601f191660200182016040528015611e815781602001600182028038833980820191505090505b509050611e9689602086016029846000612506565b506060604080519080825280601f01601f191660200182016040528015611ecc5781602001600182028038833980820191505090505b5090506000604184516029602089010101019050611ef28b604083036040856000612506565b5060006002836040518082805190602001908083835b60208310611f2b5780518252602082019150602081019050602083039250611f08565b6001836020036101000a038019825116818451168082178552505050505050905001915050602060405180830381855afa158015611f6d573d6000803e3d6000fd5b5050506040513d6020811015611f8257600080fd5b8101908080519060200190929190505050905083816040516020018083805190602001908083835b60208310611fcd5780518252602082019150602081019050602083039250611faa565b6001836020036101000a0380198251168184511680821785525050505050509050018281526020019250505060405160208183030381529060405280519060200120600360008d815260200190815260200160002054141561204557600360008c815260200190815260200160002060009055612055565b60009750505050505050506121e1565b606060496040519080825280601f01601f19166020018201604052801561208b5781602001600182028038833980820191505090505b50905061209d8d896049846000612506565b506121466002826040518082805190602001908083835b602083106120d757805182526020820191506020810190506020830392506120b4565b6001836020036101000a038019825116818451168082178552505050505050905001915050602060405180830381855afa158015612119573d6000803e3d6000fd5b5050506040513d602081101561212e57600080fd5b81019080805190602001909291905050508786612ef5565b61215b576000985050505050505050506121e1565b6004600083815260200190815260200160002060009054906101000a900460ff166121b55761218a8d846130b3565b6004600084815260200190815260200160002060006101000a81548160ff0219169083151502179055505b6004600083815260200190815260200160002060009054906101000a900460ff16985050505050505050505b949350505050565b60008073ffffffffffffffffffffffffffffffffffffffff16600160009054906101000a900473ffffffffffffffffffffffffffffffffffffffff1673ffffffffffffffffffffffffffffffffffffffff1614806122715750600061226f600160009054906101000a900473ffffffffffffffffffffffffffffffffffffffff16611a80565b145b15612282576122806000611a8b565b505b600160009054906101000a900473ffffffffffffffffffffffffffffffffffffffff1673ffffffffffffffffffffffffffffffffffffffff166338cc48316040518163ffffffff1660e01b8152600401602060405180830381600087803b1580156122ec57600080fd5b505af1158015612300573d6000803e3d6000fd5b505050506040513d602081101561231657600080fd5b810190808051906020019092919050505073ffffffffffffffffffffffffffffffffffffffff166000809054906101000a900473ffffffffffffffffffffffffffffffffffffffff1673ffffffffffffffffffffffffffffffffffffffff161461245f57600160009054906101000a900473ffffffffffffffffffffffffffffffffffffffff1673ffffffffffffffffffffffffffffffffffffffff166338cc48316040518163ffffffff1660e01b8152600401602060405180830381600087803b1580156123e457600080fd5b505af11580156123f8573d6000803e3d6000fd5b505050506040513d602081101561240e57600080fd5b81019080805190602001909291905050506000806101000a81548173ffffffffffffffffffffffffffffffffffffffff021916908373ffffffffffffffffffffffffffffffffffffffff1602179055505b6000809054906101000a900473ffffffffffffffffffffffffffffffffffffffff1673ffffffffffffffffffffffffffffffffffffffff1663abaa5f3e6040518163ffffffff1660e01b815260040160206040518083038186803b1580156124c657600080fd5b505afa1580156124da573d6000803e3d6000fd5b505050506040513d60208110156124f057600080fd5b8101908080519060200190929190505050905090565b606060008285019050808451101561251d57600080fd5b600086602001905060008460200190505b868860200101821015612556578189015180828801525060208201915060208101905061252e565b85935050505095945050505050565b60008073ffffffffffffffffffffffffffffffffffffffff16600160009054906101000a900473ffffffffffffffffffffffffffffffffffffffff1673ffffffffffffffffffffffffffffffffffffffff1614806125ed575060006125eb600160009054906101000a900473ffffffffffffffffffffffffffffffffffffffff16611a80565b145b156125fe576125fc6000611a8b565b505b600160009054906101000a900473ffffffffffffffffffffffffffffffffffffffff1673ffffffffffffffffffffffffffffffffffffffff166338cc48316040518163ffffffff1660e01b8152600401602060405180830381600087803b15801561266857600080fd5b505af115801561267c573d6000803e3d6000fd5b505050506040513d602081101561269257600080fd5b810190808051906020019092919050505073ffffffffffffffffffffffffffffffffffffffff166000809054906101000a900473ffffffffffffffffffffffffffffffffffffffff1673ffffffffffffffffffffffffffffffffffffffff16146127db57600160009054906101000a900473ffffffffffffffffffffffffffffffffffffffff1673ffffffffffffffffffffffffffffffffffffffff166338cc48316040518163ffffffff1660e01b8152600401602060405180830381600087803b15801561276057600080fd5b505af1158015612774573d6000803e3d6000fd5b505050506040513d602081101561278a57600080fd5b81019080805190602001909291905050506000806101000a81548173ffffffffffffffffffffffffffffffffffffffff021916908373ffffffffffffffffffffffffffffffffffffffff1602179055505b6060600460405190808252806020026020018201604052801561281257816020015b60608152602001906001900390816127fd5790505b5090508360006004811061282257fe5b60200201518160008151811061283457fe5b60200260200101819052508360016004811061284c57fe5b60200201518160018151811061285e57fe5b60200260200101819052508360026004811061287657fe5b60200201518160028151811061288857fe5b6020026020010181905250836003600481106128a057fe5b6020020151816003815181106128b257fe5b60200260200101819052506128c88582856134cb565b9150509392505050565b8060036000848152602001908152602001600020819055505050565b60008061290e731d3b2638a7cc9f2cb3d298a3da7a90b67e5506ed611a80565b11156129b057731d3b2638a7cc9f2cb3d298a3da7a90b67e5506ed600160006101000a81548173ffffffffffffffffffffffffffffffffffffffff021916908373ffffffffffffffffffffffffffffffffffffffff1602179055506129a76040518060400160405280600b81526020017f6574685f6d61696e6e6574000000000000000000000000000000000000000000815250613a2d565b60019050612e42565b60006129cf73c03a2615d5efaf5f49f60b7bb6583eaec212fdf1611a80565b1115612a715773c03a2615d5efaf5f49f60b7bb6583eaec212fdf1600160006101000a81548173ffffffffffffffffffffffffffffffffffffffff021916908373ffffffffffffffffffffffffffffffffffffffff160217905550612a686040518060400160405280600c81526020017f6574685f726f707374656e330000000000000000000000000000000000000000815250613a2d565b60019050612e42565b6000612a9073b7a07bcf2ba2f2703b24c0691b5278999c59ac7e611a80565b1115612b325773b7a07bcf2ba2f2703b24c0691b5278999c59ac7e600160006101000a81548173ffffffffffffffffffffffffffffffffffffffff021916908373ffffffffffffffffffffffffffffffffffffffff160217905550612b296040518060400160405280600981526020017f6574685f6b6f76616e0000000000000000000000000000000000000000000000815250613a2d565b60019050612e42565b6000612b5173146500cfd35b22e4a392fe0adc06de1a1368ed48611a80565b1115612bf35773146500cfd35b22e4a392fe0adc06de1a1368ed48600160006101000a81548173ffffffffffffffffffffffffffffffffffffffff021916908373ffffffffffffffffffffffffffffffffffffffff160217905550612bea6040518060400160405280600b81526020017f6574685f72696e6b656279000000000000000000000000000000000000000000815250613a2d565b60019050612e42565b6000612c1273a2998efd205fb9d4b4963afb70778d6354ad3a41611a80565b1115612cb45773a2998efd205fb9d4b4963afb70778d6354ad3a41600160006101000a81548173ffffffffffffffffffffffffffffffffffffffff021916908373ffffffffffffffffffffffffffffffffffffffff160217905550612cab6040518060400160405280600a81526020017f6574685f676f65726c6900000000000000000000000000000000000000000000815250613a2d565b60019050612e42565b6000612cd3736f485c8bf6fc43ea212e93bbf8ce046c7f1cb475611a80565b1115612d3757736f485c8bf6fc43ea212e93bbf8ce046c7f1cb475600160006101000a81548173ffffffffffffffffffffffffffffffffffffffff021916908373ffffffffffffffffffffffffffffffffffffffff16021790555060019050612e42565b6000612d567320e12a1f859b3feae5fb2a0a32c18f5a65555bbf611a80565b1115612dba577320e12a1f859b3feae5fb2a0a32c18f5a65555bbf600160006101000a81548173ffffffffffffffffffffffffffffffffffffffff021916908373ffffffffffffffffffffffffffffffffffffffff16021790555060019050612e42565b6000612dd97351efaf4c8b3c9afbd5ab9f4bbc82784ab6ef8faa611a80565b1115612e3d577351efaf4c8b3c9afbd5ab9f4bbc82784ab6ef8faa600160006101000a81548173ffffffffffffffffffffffffffffffffffffffff021916908373ffffffffffffffffffffffffffffffffffffffff16021790555060019050612e42565b600090505b90565b6000806001905082845114612e5957600080fd5b60008090505b83811015612ee957848181518110612e7357fe5b602001015160f81c60f81b7effffffffffffffffffffffffffffffffffffffffffffffffffffffffffffff1916868260208110612eac57fe5b1a60f81b7effffffffffffffffffffffffffffffffffffffffffffffffffffffffffffff191614612edc57600091505b8080600101915050612e5f565b50809150509392505050565b6000806000806000606060206040519080825280601f01601f191660200182016040528015612f335781602001600182028038833980820191505090505b5090506000602089600381518110612f4757fe5b602001015160f81c60f81b60f81c60ff16036004019050612f6d89826020856000612506565b9150606060206040519080825280601f01601f191660200182016040528015612fa55781602001600182028038833980820191505090505b509050602282019150612fe18a60208c6001860381518110612fc357fe5b602001015160f81c60f81b60f81c60ff160384016020846000612506565b90506020830151945060208101519350612ffe8b601b8787613a47565b80975081985050508573ffffffffffffffffffffffffffffffffffffffff16898051906020012060001c73ffffffffffffffffffffffffffffffffffffffff1614156130545760019750505050505050506130ac565b6130618b601c8787613a47565b80975081985050508573ffffffffffffffffffffffffffffffffffffffff16898051906020012060001c73ffffffffffffffffffffffffffffffffffffffff16149750505050505050505b9392505050565b600080606060028560018601815181106130c957fe5b602001015160f81c60f81b60f81c60ff16016040519080825280601f01601f19166020018201604052801561310d5781602001600182028038833980820191505090505b50905061311f85858351846000612506565b506060604080519080825280601f01601f1916602001820160405280156131555781602001600182028038833980820191505090505b5090506131688660046040846000612506565b50606060626040519080825280601f01601f19166020018201604052801561319f5781602001600182028038833980820191505090505b509050600160f81b816000815181106131b457fe5b60200101907effffffffffffffffffffffffffffffffffffffffffffffffffffffffffffff1916908160001a9053506131f587604188036041846001612506565b5060606040518060400160405280602081526020017ffd94fa71bc0ba10d39d464d0d8f465efeef0a2764e3887fcc9df41ded20f505c81525090506132408160006020856042612506565b506132e96002836040518082805190602001908083835b6020831061327a5780518252602082019150602081019050602083039250613257565b6001836020036101000a038019825116818451168082178552505050505050905001915050602060405180830381855afa1580156132bc573d6000803e3d6000fd5b5050506040513d60208110156132d157600080fd5b81019080805190602001909291905050508585612ef5565b9450846132fe576000955050505050506134c5565b6060604051806060016040528060408152602001613fff604091399050606060426040519080825280601f01601f1916602001820160405280156133515781602001600182028038833980820191505090505b50905060fe60f81b8160008151811061336657fe5b60200101907effffffffffffffffffffffffffffffffffffffffffffffffffffffffffffff1916908160001a9053506133a58a60036041846001612506565b50606060028b6045815181106133b757fe5b602001015160f81c60f81b60f81c60ff16016040519080825280601f01601f1916602001820160405280156133fb5781602001600182028038833980820191505090505b50905061340e8b60448351846000612506565b506134b76002836040518082805190602001908083835b602083106134485780518252602082019150602081019050602083039250613425565b6001836020036101000a038019825116818451168082178552505050505050905001915050602060405180830381855afa15801561348a573d6000803e3d6000fd5b5050506040513d602081101561349f57600080fd5b81019080805190602001909291905050508285612ef5565b975087985050505050505050505b92915050565b60008073ffffffffffffffffffffffffffffffffffffffff16600160009054906101000a900473ffffffffffffffffffffffffffffffffffffffff1673ffffffffffffffffffffffffffffffffffffffff16148061355357506000613551600160009054906101000a900473ffffffffffffffffffffffffffffffffffffffff16611a80565b145b15613564576135626000611a8b565b505b600160009054906101000a900473ffffffffffffffffffffffffffffffffffffffff1673ffffffffffffffffffffffffffffffffffffffff166338cc48316040518163ffffffff1660e01b8152600401602060405180830381600087803b1580156135ce57600080fd5b505af11580156135e2573d6000803e3d6000fd5b505050506040513d60208110156135f857600080fd5b810190808051906020019092919050505073ffffffffffffffffffffffffffffffffffffffff166000809054906101000a900473ffffffffffffffffffffffffffffffffffffffff1673ffffffffffffffffffffffffffffffffffffffff161461374157600160009054906101000a900473ffffffffffffffffffffffffffffffffffffffff1673ffffffffffffffffffffffffffffffffffffffff166338cc48316040518163ffffffff1660e01b8152600401602060405180830381600087803b1580156136c657600080fd5b505af11580156136da573d6000803e3d6000fd5b505050506040513d60208110156136f057600080fd5b81019080805190602001909291905050506000806101000a81548173ffffffffffffffffffffffffffffffffffffffff021916908373ffffffffffffffffffffffffffffffffffffffff1602179055505b60008060009054906101000a900473ffffffffffffffffffffffffffffffffffffffff1673ffffffffffffffffffffffffffffffffffffffff16632ef3accc86856040518363ffffffff1660e01b81526004018080602001838152602001828103825284818151815260200191508051906020019080838360005b838110156137d75780820151818401526020810190506137bc565b50505050905090810190601f1680156138045780820380516001836020036101000a031916815260200191505b509350505050602060405180830381600087803b15801561382457600080fd5b505af1158015613838573d6000803e3d6000fd5b505050506040513d602081101561384e57600080fd5b81019080805190602001909291905050509050823a02670de0b6b3a764000001811115613881576000801b915050613a26565b606061388c85613a8b565b90506000809054906101000a900473ffffffffffffffffffffffffffffffffffffffff1673ffffffffffffffffffffffffffffffffffffffff1663c55c1cb68360008985896040518663ffffffff1660e01b8152600401808581526020018060200180602001848152602001838103835286818151815260200191508051906020019080838360005b83811015613930578082015181840152602081019050613915565b50505050905090810190601f16801561395d5780820380516001836020036101000a031916815260200191505b50838103825285818151815260200191508051906020019080838360005b8381101561399657808201518184015260208101905061397b565b50505050905090810190601f1680156139c35780820380516001836020036101000a031916815260200191505b5096505050505050506020604051808303818588803b1580156139e557600080fd5b505af11580156139f9573d6000803e3d6000fd5b50505050506040513d6020811015613a1057600080fd5b8101908080519060200190929190505050925050505b9392505050565b8060029080519060200190613a43929190613ebb565b5050565b60008060008060405188815287602082015286604082015285606082015260208160808360006001610bb8f192508051915050818193509350505094509492505050565b6060613a95613b0b565b613a9d613f3b565b613aa981610400613b17565b613ab281613b61565b60008090505b8351811015613af457613ae7848281518110613ad057fe5b602002602001015183613b6f90919063ffffffff16565b8080600101915050613ab8565b50613afe81613b94565b8060000151915050919050565b60405180590338823950565b6000819050600060208281613b2857fe5b0614613b415760208181613b3857fe5b06602003810190505b808360200181815250506040518084526000815281810160405250505050565b613b6c816004613ba2565b50565b613b7c8260028351613bc3565b613b8f8183613d0390919063ffffffff16565b505050565b613b9f816007613ba2565b50565b613bbf601f60058360ff16901b1783613dae90919063ffffffff16565b5050565b60178111613bef57613bea8160058460ff16901b60ff161784613dae90919063ffffffff16565b613cfe565b60ff8111613c3057613c14601860058460ff16901b1784613dae90919063ffffffff16565b613c2a81600185613dee9092919063ffffffff16565b50613cfd565b61ffff8111613c7257613c56601960058460ff16901b1784613dae90919063ffffffff16565b613c6c81600285613dee9092919063ffffffff16565b50613cfc565b63ffffffff8111613cb657613c9a601a60058460ff16901b1784613dae90919063ffffffff16565b613cb081600485613dee9092919063ffffffff16565b50613cfb565b67ffffffffffffffff8111613cfa57613ce2601b60058460ff16901b1784613dae90919063ffffffff16565b613cf881600885613dee9092919063ffffffff16565b505b5b5b5b5b505050565b613d0b613f3b565b82602001518360000151518351011115613d3b57613d3a836002613d3486602001518651613e55565b02613e71565b5b60008060008451905085518051602081830101945086518101825260208701935050505b60208110613d825781518352602083019250602082019150602081039050613d5f565b60006001826020036101000a039050801983511681855116818117865250508694505050505092915050565b81602001516001836000015151011115613dd457613dd3826002846020015102613e71565b5b815180516020818301018381536001820183525050505050565b613df6613f3b565b836020015184600001515183011115613e2457613e23846002613e1d876020015186613e55565b02613e71565b5b60006001836101000a0390508451805184818301018684198251161781528582018352505050849150509392505050565b600081831115613e6757829050613e6b565b8190505b92915050565b606082600001519050613e848383613b17565b613e8e8382613d03565b50505050565b60405180608001604052806004905b6060815260200190600190039081613ea35790505090565b828054600181600116156101000203166002900490600052602060002090601f016020900481019282601f10613efc57805160ff1916838001178555613f2a565b82800160010185558215613f2a579182015b82811115613f29578251825591602001919060010190613f0e565b5b509050613f379190613f55565b5090565b604051806040016040528060608152602001600081525090565b613f7791905b80821115613f73576000816000905550600101613f5b565b5090565b9056fe4e6f20746f70696320636f6e74726163747320617265206465706c6f7965642e20556e61626c6520746f20706572666f726d2072616e646f6d20746f7069632061737369676e6d656e74596f75206d757374206265207468652063726561746f72206f66207468697320546f70696320696e206f7264657220746f20646f20746869732e7fb956469c5c9b89840d55b43537e66a98dd4811ea0a27224272c2e5622911e8537a2f8e86a46baec82864e98dd01e9ccc2f8bc5dfc9cbe5a91a290498dd96e450726f7661626c65207175657279207761732073656e742c207374616e64696e6720627920666f722074686520616e737765722e2e2ea265627a7a72315820e844f057690632b57409a8da9f09ee47556e5340ca1ad2f9aacd64ed29d9a7aa64736f6c63430005100032",
  "source": "pragma solidity ^0.5.10;\r\n\r\nimport \"./TopicFactory.sol\";\r\n// import \"github.com/provable-things/ethereum-api/provableAPI.sol\";\r\nimport \"./provableAPI_0.5.sol\";\r\n\r\ncontract TopicAssigner is usingProvable {\r\n    uint256 constant MAX_INT_FROM_BYTE = 256;\r\n    uint256 constant NUM_RANDOM_BYTES_REQUESTED = 8;\r\n    uint256 NUM_VISIBLE_TOPICS = 10;\r\n\r\n    address public owner;\r\n    address public topicFactoryAddress;\r\n\r\n    mapping(bytes32 => address) public queryToUserAddress;\r\n    mapping(address => uint) public assignedVisibleTopics;\r\n    mapping(address => bool) public proofFailed;\r\n    \r\n    event LogNewProvableQuery(string description);\r\n    \r\n    modifier _ownerOnly() {\r\n        require(msg.sender == owner, 'You must be the creator of this Topic in order to do this.');\r\n        _;\r\n    }\r\n    \r\n    constructor(address _topicFactoryAddress) public {\r\n        topicFactoryAddress = _topicFactoryAddress;\r\n        provable_setProof(proofType_Ledger);\r\n        owner = msg.sender;\r\n    }\r\n    \r\n    function changeNumVisibleTopics(uint numTopics) public _ownerOnly {\r\n        NUM_VISIBLE_TOPICS = numTopics;\r\n    }\r\n\r\n    function hasTopic(address sender, address topicAddress) public view returns (bool) {\r\n        address[] memory availableTopics = getRandomTopics(sender);\r\n        for (uint8 i = 0; i < NUM_VISIBLE_TOPICS; i++) {\r\n            if (availableTopics[i] == topicAddress) {\r\n                return true;\r\n            }\r\n        }\r\n        return false;\r\n    }\r\n\r\n    function getRandomTopics(address sender) public view returns (address[] memory) {\r\n        TopicFactory topicFactory = TopicFactory(topicFactoryAddress);\r\n        uint256 ceiling = topicFactory.getNumberOfDeployedContracts();\r\n        require(\r\n            ceiling > 0,\r\n            \"No topic contracts are deployed. Unable to perform random topic assignment\"\r\n        );\r\n\r\n        uint randomSeed = assignedVisibleTopics[sender];\r\n        //require(randomSeed != 0, \"You must press the refresh button at least once to generate a random seed.\");\r\n        if (randomSeed == 0) {\r\n            return new address[](0);\r\n        } else {\r\n            uint256[] memory indices = new uint256[](NUM_VISIBLE_TOPICS);\r\n    \r\n            for (uint8 i = 0; i < NUM_VISIBLE_TOPICS; i++) {\r\n                randomSeed = uint(keccak256(abi.encodePacked(randomSeed)));\r\n                indices[i] = (randomSeed % ceiling);\r\n            }\r\n    \r\n            return topicFactory.getTopicsAtIndices(indices);\r\n        }\r\n    }\r\n\r\n    // The user calls this function to pick a random set of topics\r\n    function refreshRandomTopics() public payable {\r\n        // Make sure there are topic smart contracts available (unneeded)\r\n        // TopicFactory topicFactory = TopicFactory(topicFactoryAddress);\r\n        // uint256 ceiling = topicFactory.getNumberOfDeployedContracts();\r\n        // require(\r\n        //     ceiling > 0,\r\n        //     \"No topic contracts are deployed. Unable to perform random topic assignment\"\r\n        // );\r\n\r\n        uint256 QUERY_EXECUTION_DELAY = 0;\r\n        uint256 GAS_FOR_CALLBACK = 200000;\r\n        bytes32 queryId = provable_newRandomDSQuery(\r\n            QUERY_EXECUTION_DELAY,\r\n            NUM_RANDOM_BYTES_REQUESTED,\r\n            GAS_FOR_CALLBACK\r\n        );\r\n\r\n        queryToUserAddress[queryId] = msg.sender;\r\n        emit LogNewProvableQuery(\r\n            \"Provable query was sent, standing by for the answer...\"\r\n        );\r\n    }\r\n\r\n    // Callback function for the provable API\r\n    function __callback(bytes32 _queryId, string memory _result,bytes memory _proof) public {\r\n        require(msg.sender == provable_cbAddress());\r\n\r\n        if (provable_randomDS_proofVerify__returnCode(_queryId,_result,_proof) !=0) { // The proof verification has failed! Handle this case however you see fit.\r\n            proofFailed[queryToUserAddress[_queryId]] = true;\r\n        } else { // The proof verifiction has passed!\r\n\r\n            // Make sure there are topic smart contracts available (unneeded)\r\n            // TopicFactory topicFactory = TopicFactory(topicFactoryAddress);\r\n            // uint256 ceiling = topicFactory.getNumberOfDeployedContracts();\r\n            // require(ceiling > 0, \"No topic contracts are deployed. Unable to perform random topic assignment\");\r\n\r\n            // Generate random number\r\n            // address[NUM_VISIBLE_TOPICS] storage visibleTopics = assignedVisibleTopics[queryToUserAddress[_queryId]];\r\n            // uint256 hash = uint256(keccak256(abi.encodePacked(_result)));\r\n            // assignedVisibleTopics[queryToUserAddress[_queryId]] = hash;\r\n\r\n            // By hashing, pick the remaining topics\r\n            // for (uint256 i = 0; i < NUM_VISIBLE_TOPICS; i++) {\r\n            //     hash = uint256(keccak256(abi.encodePacked(hash)));\r\n            //     visibleTopics[i] = topicFactory.deployedTopics(hash % ceiling);\r\n            // }\r\n\r\n            proofFailed[queryToUserAddress[_queryId]] = false;\r\n            // delete queryToUserAddress[_queryId];\r\n        }\r\n\r\n        uint256 hash = uint256(keccak256(abi.encodePacked(_result)));\r\n        assignedVisibleTopics[queryToUserAddress[_queryId]] = hash;\r\n        delete queryToUserAddress[_queryId];\r\n    }\r\n\r\n    function reclaimExtraEther() public _ownerOnly {\r\n        msg.sender.transfer(address(this).balance);\r\n    }\r\n}\r\n\r\n",
  "sourcePath": "C:\\Users\\Alex\\Projects\\TruthOrLie\\contracts\\TopicAssigner.sol",
  "compiler": {
    "name": "solc",
    "version": "0.5.16+commit.9c3226ce.Emscripten.clang"
  },
  "schemaVersion": "3.0.23",
  "updatedAt": "2020-03-01T21:52:50.883Z",
  "networkType": "ethereum",
  "devdoc": {
    "methods": {
      "__callback(bytes32,string)": {
        "details": "The following `__callback` functions are just placeholders ideally     meant to be defined in child contract when proofs are used.     The function bodies simply silence compiler warnings."
      }
    }
  },
  "userdoc": {
    "methods": {}
  }
}