{
  "contractName": "TopicFactory",
  "abi": [
    {
      "inputs": [
        {
          "internalType": "address",
          "name": "_reputationFactoryAddress",
          "type": "address"
        }
      ],
      "payable": false,
      "stateMutability": "nonpayable",
      "type": "constructor"
    },
    {
      "anonymous": false,
      "inputs": [
        {
          "indexed": false,
          "internalType": "address",
          "name": "sender",
          "type": "address"
        },
        {
          "indexed": false,
          "internalType": "address",
          "name": "topicAddress",
          "type": "address"
        },
        {
          "indexed": false,
          "internalType": "uint256",
          "name": "minInvestment",
          "type": "uint256"
        },
        {
          "indexed": false,
          "internalType": "uint256",
          "name": "secondsAvailable",
          "type": "uint256"
        }
      ],
      "name": "LogNewTopic",
      "type": "event"
    },
    {
      "anonymous": false,
      "inputs": [
        {
          "indexed": false,
          "internalType": "address",
          "name": "sender",
          "type": "address"
        },
        {
          "indexed": false,
          "internalType": "address",
          "name": "topicAddress",
          "type": "address"
        },
        {
          "indexed": false,
          "internalType": "bytes32",
          "name": "key",
          "type": "bytes32"
        }
      ],
      "name": "LogRemoveTopic",
      "type": "event"
    },
    {
      "constant": true,
      "inputs": [],
      "name": "owner",
      "outputs": [
        {
          "internalType": "address",
          "name": "",
          "type": "address"
        }
      ],
      "payable": false,
      "stateMutability": "view",
      "type": "function"
    },
    {
      "constant": false,
      "inputs": [
        {
          "internalType": "address",
          "name": "newAdminAddress",
          "type": "address"
        }
      ],
      "name": "addAdmin",
      "outputs": [],
      "payable": false,
      "stateMutability": "nonpayable",
      "type": "function"
    },
    {
      "constant": false,
      "inputs": [],
      "name": "removeAdmin",
      "outputs": [],
      "payable": false,
      "stateMutability": "nonpayable",
      "type": "function"
    },
    {
      "constant": true,
      "inputs": [
        {
          "internalType": "address",
          "name": "a",
          "type": "address"
        }
      ],
      "name": "addressToBytes32",
      "outputs": [
        {
          "internalType": "bytes32",
          "name": "",
          "type": "bytes32"
        }
      ],
      "payable": false,
      "stateMutability": "pure",
      "type": "function"
    },
    {
      "constant": true,
      "inputs": [
        {
          "internalType": "bytes32",
          "name": "b",
          "type": "bytes32"
        }
      ],
      "name": "bytes32ToAddress",
      "outputs": [
        {
          "internalType": "address",
          "name": "",
          "type": "address"
        }
      ],
      "payable": false,
      "stateMutability": "pure",
      "type": "function"
    },
    {
      "constant": false,
      "inputs": [
        {
          "internalType": "address",
          "name": "_topicAssignerAddress",
          "type": "address"
        }
      ],
      "name": "updateTopicAssignerAddress",
      "outputs": [],
      "payable": false,
      "stateMutability": "nonpayable",
      "type": "function"
    },
    {
      "constant": false,
      "inputs": [
        {
          "internalType": "string",
          "name": "topicContent",
          "type": "string"
        },
        {
          "internalType": "uint256",
          "name": "minInvestment",
          "type": "uint256"
        },
        {
          "internalType": "uint256",
          "name": "secondsAvailable",
          "type": "uint256"
        }
      ],
      "name": "createTopic",
      "outputs": [],
      "payable": true,
      "stateMutability": "payable",
      "type": "function"
    },
    {
      "constant": true,
      "inputs": [
        {
          "internalType": "address",
          "name": "topicAddress",
          "type": "address"
        }
      ],
      "name": "checkIfValidTopicAddress",
      "outputs": [
        {
          "internalType": "bool",
          "name": "",
          "type": "bool"
        }
      ],
      "payable": false,
      "stateMutability": "view",
      "type": "function"
    },
    {
      "constant": false,
      "inputs": [
        {
          "internalType": "address",
          "name": "topicAddress",
          "type": "address"
        }
      ],
      "name": "markTopicAsCompleted",
      "outputs": [],
      "payable": false,
      "stateMutability": "nonpayable",
      "type": "function"
    },
    {
      "constant": false,
      "inputs": [
        {
          "internalType": "address",
          "name": "topicAddress",
          "type": "address"
        }
      ],
      "name": "adminRemoveDeployedTopic",
      "outputs": [],
      "payable": false,
      "stateMutability": "nonpayable",
      "type": "function"
    },
    {
      "constant": true,
      "inputs": [
        {
          "internalType": "uint256",
          "name": "index",
          "type": "uint256"
        }
      ],
      "name": "getDeployedTopic",
      "outputs": [
        {
          "internalType": "address",
          "name": "",
          "type": "address"
        }
      ],
      "payable": false,
      "stateMutability": "view",
      "type": "function"
    },
    {
      "constant": true,
      "inputs": [],
      "name": "getNumberOfDeployedContracts",
      "outputs": [
        {
          "internalType": "uint256",
          "name": "",
          "type": "uint256"
        }
      ],
      "payable": false,
      "stateMutability": "view",
      "type": "function"
    },
    {
      "constant": true,
      "inputs": [],
      "name": "getNumberOfCompletedContracts",
      "outputs": [
        {
          "internalType": "uint256",
          "name": "",
          "type": "uint256"
        }
      ],
      "payable": false,
      "stateMutability": "view",
      "type": "function"
    },
    {
      "constant": true,
      "inputs": [
        {
          "internalType": "uint256",
          "name": "startIndex",
          "type": "uint256"
        },
        {
          "internalType": "uint256",
          "name": "endIndex",
          "type": "uint256"
        }
      ],
      "name": "getTopicsBetweenIndices",
      "outputs": [
        {
          "internalType": "address[]",
          "name": "",
          "type": "address[]"
        }
      ],
      "payable": false,
      "stateMutability": "view",
      "type": "function"
    },
    {
      "constant": true,
      "inputs": [
        {
          "internalType": "uint256",
          "name": "startIndex",
          "type": "uint256"
        },
        {
          "internalType": "uint256",
          "name": "endIndex",
          "type": "uint256"
        }
      ],
      "name": "getCompletedTopicsBetweenIndices",
      "outputs": [
        {
          "internalType": "address[]",
          "name": "",
          "type": "address[]"
        }
      ],
      "payable": false,
      "stateMutability": "view",
      "type": "function"
    },
    {
      "constant": true,
      "inputs": [
        {
          "internalType": "uint256[]",
          "name": "indices",
          "type": "uint256[]"
        }
      ],
      "name": "getTopicsAtIndices",
      "outputs": [
        {
          "internalType": "address[]",
          "name": "",
          "type": "address[]"
        }
      ],
      "payable": false,
      "stateMutability": "view",
      "type": "function"
    }
  ],
  "bytecode": "0x608060405265e35fa931a000600b5534801561001a57600080fd5b506040516151d83803806151d88339818101604052602081101561003d57600080fd5b810190808051906020019092919050505080600860006101000a81548173ffffffffffffffffffffffffffffffffffffffff021916908373ffffffffffffffffffffffffffffffffffffffff16021790555033600760006101000a81548173ffffffffffffffffffffffffffffffffffffffff021916908373ffffffffffffffffffffffffffffffffffffffff160217905550506150f8806100e06000396000f3fe6080604052600436106200010a5760003560e01c80638da5cb5b11620000975780639d378fe911620000615780639d378fe914620005f9578063dc983f081462000699578063dfb0970014620007bc578063e25db2a414620007ea576200010a565b80638da5cb5b14620004b15780638fdb9d72146200050b5780639a202d47146200058a5780639c6472c014620005a4576200010a565b80635ced058e11620000d95780635ced058e14620002d457806370480275146200035357806373cd5cce14620003a857806382c947b71462000448576200010a565b80630a5e47bb146200010f57806333cfe2ce14620001e4578063405b21f714620002515780635159467b146200027f575b600080fd5b620001e2600480360360608110156200012757600080fd5b81019080803590602001906401000000008111156200014557600080fd5b8201836020820111156200015857600080fd5b803590602001918460018302840111640100000000831117156200017b57600080fd5b91908080601f016020809104026020016040519081016040528093929190818152602001838380828437600081840152601f19601f82011690508083019250505050505050919291929080359060200190929190803590602001909291905050506200083f565b005b348015620001f157600080fd5b5062000237600480360360208110156200020a57600080fd5b81019080803573ffffffffffffffffffffffffffffffffffffffff16906020019092919050505062000e72565b604051808215151515815260200191505060405180910390f35b3480156200025e57600080fd5b506200026962000ec8565b6040518082815260200191505060405180910390f35b3480156200028c57600080fd5b50620002d260048036036020811015620002a557600080fd5b81019080803573ffffffffffffffffffffffffffffffffffffffff16906020019092919050505062000edb565b005b348015620002e157600080fd5b506200031160048036036020811015620002fa57600080fd5b810190808035906020019092919050505062000fe6565b604051808273ffffffffffffffffffffffffffffffffffffffff1673ffffffffffffffffffffffffffffffffffffffff16815260200191505060405180910390f35b3480156200036057600080fd5b50620003a6600480360360208110156200037957600080fd5b81019080803573ffffffffffffffffffffffffffffffffffffffff16906020019092919050505062000ff3565b005b348015620003b557600080fd5b50620003ef60048036036040811015620003ce57600080fd5b8101908080359060200190929190803590602001909291905050506200114b565b6040518080602001828103825283818151815260200191508051906020019060200280838360005b838110156200043457808201518184015260208101905062000417565b505050509050019250505060405180910390f35b3480156200045557600080fd5b506200049b600480360360208110156200046e57600080fd5b81019080803573ffffffffffffffffffffffffffffffffffffffff169060200190929190505050620011f3565b6040518082815260200191505060405180910390f35b348015620004be57600080fd5b50620004c962001216565b604051808273ffffffffffffffffffffffffffffffffffffffff1673ffffffffffffffffffffffffffffffffffffffff16815260200191505060405180910390f35b3480156200051857600080fd5b5062000548600480360360208110156200053157600080fd5b81019080803590602001909291905050506200123c565b604051808273ffffffffffffffffffffffffffffffffffffffff1673ffffffffffffffffffffffffffffffffffffffff16815260200191505060405180910390f35b3480156200059757600080fd5b50620005a262001306565b005b348015620005b157600080fd5b50620005f760048036036020811015620005ca57600080fd5b81019080803573ffffffffffffffffffffffffffffffffffffffff16906020019092919050505062001360565b005b3480156200060657600080fd5b5062000640600480360360408110156200061f57600080fd5b8101908080359060200190929190803590602001909291905050506200144c565b6040518080602001828103825283818151815260200191508051906020019060200280838360005b838110156200068557808201518184015260208101905062000668565b505050509050019250505060405180910390f35b348015620006a657600080fd5b506200076360048036036020811015620006bf57600080fd5b8101908080359060200190640100000000811115620006dd57600080fd5b820183602082011115620006f057600080fd5b803590602001918460208302840111640100000000831117156200071357600080fd5b919080806020026020016040519081016040528093929190818152602001838360200280828437600081840152601f19601f820116905080830192505050505050509192919290505050620014f4565b6040518080602001828103825283818151815260200191508051906020019060200280838360005b83811015620007a85780820151818401526020810190506200078b565b505050509050019250505060405180910390f35b348015620007c957600080fd5b50620007d462001522565b6040518082815260200191505060405180910390f35b348015620007f757600080fd5b506200083d600480360360208110156200081057600080fd5b81019080803573ffffffffffffffffffffffffffffffffffffffff16906020019092919050505062001535565b005b600073ffffffffffffffffffffffffffffffffffffffff16600960009054906101000a900473ffffffffffffffffffffffffffffffffffffffff1673ffffffffffffffffffffffffffffffffffffffff161415620008e9576040517f08c379a000000000000000000000000000000000000000000000000000000000815260040180806020018281038252605e81526020018062004f75605e913960600191505060405180910390fd5b600030600860009054906101000a900473ffffffffffffffffffffffffffffffffffffffff16600960009054906101000a900473ffffffffffffffffffffffffffffffffffffffff1686868633604051620009449062001b99565b808873ffffffffffffffffffffffffffffffffffffffff1673ffffffffffffffffffffffffffffffffffffffff1681526020018773ffffffffffffffffffffffffffffffffffffffff1673ffffffffffffffffffffffffffffffffffffffff1681526020018673ffffffffffffffffffffffffffffffffffffffff1673ffffffffffffffffffffffffffffffffffffffff168152602001806020018581526020018481526020018373ffffffffffffffffffffffffffffffffffffffff1673ffffffffffffffffffffffffffffffffffffffff168152602001828103825286818151815260200191508051906020019080838360005b8381101562000a5757808201518184015260208101905062000a3a565b50505050905090810190601f16801562000a855780820380516001836020036101000a031916815260200191505b5098505050505050505050604051809103906000f08015801562000aad573d6000803e3d6000fd5b50905060008190508073ffffffffffffffffffffffffffffffffffffffff166108fc600b5434039081150290604051600060405180830381858888f1935050505015801562000b00573d6000803e3d6000fd5b506000600760009054906101000a900473ffffffffffffffffffffffffffffffffffffffff1690508073ffffffffffffffffffffffffffffffffffffffff166108fc600b549081150290604051600060405180830381858888f1935050505015801562000b71573d6000803e3d6000fd5b50600062000b7f84620011f3565b905062000b978160006200164190919063ffffffff16565b836004600083815260200190815260200160002060006101000a81548173ffffffffffffffffffffffffffffffffffffffff021916908373ffffffffffffffffffffffffffffffffffffffff1602179055506000600860009054906101000a900473ffffffffffffffffffffffffffffffffffffffff16905060008173ffffffffffffffffffffffffffffffffffffffff16639f96dab0336040518263ffffffff1660e01b8152600401808273ffffffffffffffffffffffffffffffffffffffff1673ffffffffffffffffffffffffffffffffffffffff16815260200191505060206040518083038186803b15801562000c9057600080fd5b505afa15801562000ca5573d6000803e3d6000fd5b505050506040513d602081101562000cbc57600080fd5b810190808051906020019092919050505090508073ffffffffffffffffffffffffffffffffffffffff1663f18df9e7866040518263ffffffff1660e01b8152600401808273ffffffffffffffffffffffffffffffffffffffff1673ffffffffffffffffffffffffffffffffffffffff168152602001915050600060405180830381600087803b15801562000d4f57600080fd5b505af115801562000d64573d6000803e3d6000fd5b505050506001600660008873ffffffffffffffffffffffffffffffffffffffff1673ffffffffffffffffffffffffffffffffffffffff16815260200190815260200160002060006101000a81548160ff0219169083151502179055507f3de526a908f518e7ea42b44d581b69406f6a241dcfa2890d7830e3272ad039d733878a8a604051808573ffffffffffffffffffffffffffffffffffffffff1673ffffffffffffffffffffffffffffffffffffffff1681526020018473ffffffffffffffffffffffffffffffffffffffff1673ffffffffffffffffffffffffffffffffffffffff16815260200183815260200182815260200194505050505060405180910390a1505050505050505050565b6000600660008373ffffffffffffffffffffffffffffffffffffffff1673ffffffffffffffffffffffffffffffffffffffff16815260200190815260200160002060009054906101000a900460ff169050919050565b600062000ed6600262001750565b905090565b600a60003373ffffffffffffffffffffffffffffffffffffffff1673ffffffffffffffffffffffffffffffffffffffff16815260200190815260200160002060009054906101000a900460ff168062000f815750600760009054906101000a900473ffffffffffffffffffffffffffffffffffffffff1673ffffffffffffffffffffffffffffffffffffffff163373ffffffffffffffffffffffffffffffffffffffff16145b62000fd8576040517f08c379a00000000000000000000000000000000000000000000000000000000081526004018080602001828103825260298152602001806200503d6029913960400191505060405180910390fd5b62000fe38162001761565b50565b60008160001c9050919050565b600a60003373ffffffffffffffffffffffffffffffffffffffff1673ffffffffffffffffffffffffffffffffffffffff16815260200190815260200160002060009054906101000a900460ff1680620010995750600760009054906101000a900473ffffffffffffffffffffffffffffffffffffffff1673ffffffffffffffffffffffffffffffffffffffff163373ffffffffffffffffffffffffffffffffffffffff16145b620010f0576040517f08c379a00000000000000000000000000000000000000000000000000000000081526004018080602001828103825260298152602001806200503d6029913960400191505060405180910390fd5b6001600a60008373ffffffffffffffffffffffffffffffffffffffff1673ffffffffffffffffffffffffffffffffffffffff16815260200190815260200160002060006101000a81548160ff02191690831515021790555050565b606060008383039050606081604051908082528060200260200182016040528015620011865781602001602082028038833980820191505090505b50905060008090505b82811015620011c257808601828281518110620011a857fe5b60200260200101818152505080806001019150506200118f565b506060620011db8260026200185f90919063ffffffff16565b9050620011e8816200190d565b935050505092915050565b60008173ffffffffffffffffffffffffffffffffffffffff1660001b9050919050565b600760009054906101000a900473ffffffffffffffffffffffffffffffffffffffff1681565b6000806200125583600062001a0290919063ffffffff16565b90506200126d81600062001a2790919063ffffffff16565b620012c4576040517f08c379a0000000000000000000000000000000000000000000000000000000008152600401808060200182810382526025815260200180620050666025913960400191505060405180910390fd5b60006004600083815260200190815260200160002060009054906101000a900473ffffffffffffffffffffffffffffffffffffffff1690508092505050919050565b6000600a60003373ffffffffffffffffffffffffffffffffffffffff1673ffffffffffffffffffffffffffffffffffffffff16815260200190815260200160002060006101000a81548160ff021916908315150217905550565b600760009054906101000a900473ffffffffffffffffffffffffffffffffffffffff1673ffffffffffffffffffffffffffffffffffffffff163373ffffffffffffffffffffffffffffffffffffffff161462001408576040517f08c379a000000000000000000000000000000000000000000000000000000000815260040180806020018281038252604281526020018062004f336042913960600191505060405180910390fd5b80600960006101000a81548173ffffffffffffffffffffffffffffffffffffffff021916908373ffffffffffffffffffffffffffffffffffffffff16021790555050565b606060008383039050606081604051908082528060200260200182016040528015620014875781602001602082028038833980820191505090505b50905060008090505b82811015620014c357808601828281518110620014a957fe5b602002602001018181525050808060010191505062001490565b506060620014dc8260006200185f90919063ffffffff16565b9050620014e9816200190d565b935050505092915050565b6060806200150d8360006200185f90919063ffffffff16565b90506200151a816200190d565b915050919050565b600062001530600062001750565b905090565b8073ffffffffffffffffffffffffffffffffffffffff163373ffffffffffffffffffffffffffffffffffffffff1614620015bb576040517f08c379a00000000000000000000000000000000000000000000000000000000081526004018080602001828103825260398152602001806200508b6039913960400191505060405180910390fd5b6000620015c882620011f3565b9050620015d58262001761565b620015eb8160026200164190919063ffffffff16565b816005600083815260200190815260200160002060006101000a81548173ffffffffffffffffffffffffffffffffffffffff021916908373ffffffffffffffffffffffffffffffffffffffff1602179055505050565b6000801b8114156200169f576040517f08c379a000000000000000000000000000000000000000000000000000000000815260040180806020018281038252602881526020018062004f0b6028913960400191505060405180910390fd5b620016ab828262001a27565b1562001703576040517f08c379a0000000000000000000000000000000000000000000000000000000008152600401808060200182810382526035815260200180620050086035913960400191505060405180910390fd5b600182600101829080600181540180825580915050906001820390600052602060002001600090919290919091505503826000016000838152602001908152602001600020819055505050565b600081600101805490509050919050565b60006200176e82620011f3565b90506200178681600062001a7e90919063ffffffff16565b6004600082815260200190815260200160002060006101000a81549073ffffffffffffffffffffffffffffffffffffffff02191690557fa47cfc8cdf313693db1a69bb82559cc1a32d10f6d85a649a1baddf5c1e0ac22c338383604051808473ffffffffffffffffffffffffffffffffffffffff1673ffffffffffffffffffffffffffffffffffffffff1681526020018373ffffffffffffffffffffffffffffffffffffffff1673ffffffffffffffffffffffffffffffffffffffff168152602001828152602001935050505060405180910390a15050565b6060808251604051908082528060200260200182016040528015620018935781602001602082028038833980820191505090505b50905060008090505b835181101562001902576000848281518110620018b557fe5b60200260200101519050856001018181548110620018cf57fe5b9060005260206000200154838381518110620018e757fe5b6020026020010181815250505080806001019150506200189c565b508091505092915050565b6060600082519050606081604051908082528060200260200182016040528015620019475781602001602082028038833980820191505090505b50905060008090505b8451811015620019f757600460008683815181106200196b57fe5b6020026020010151815260200190815260200160002060009054906101000a900473ffffffffffffffffffffffffffffffffffffffff16828281518110620019af57fe5b602002602001019073ffffffffffffffffffffffffffffffffffffffff16908173ffffffffffffffffffffffffffffffffffffffff1681525050808060010191505062001950565b508092505050919050565b600082600101828154811062001a1457fe5b9060005260206000200154905092915050565b6000808360010180549050141562001a43576000905062001a78565b8183600101846000016000858152602001908152602001600020548154811062001a6957fe5b90600052602060002001541490505b92915050565b62001a8a828262001a27565b62001ae1576040517f08c379a000000000000000000000000000000000000000000000000000000000815260040180806020018281038252603581526020018062004fd36035913960400191505060405180910390fd5b600082600101600162001af48562001750565b038154811062001b0057fe5b90600052602060002001549050600083600001600084815260200190815260200160002054905080846000016000848152602001908152602001600020819055508184600101828154811062001b5257fe5b9060005260206000200181905550836000016000848152602001908152602001600020600090558360010180548091906001900362001b92919062001ba7565b5050505050565b61330c8062001bff83390190565b81548183558181111562001bd15781836000526020600020918201910162001bd0919062001bd6565b5b505050565b62001bfb91905b8082111562001bf757600081600090555060010162001bdd565b5090565b9056fe60806040523480156200001157600080fd5b506040516200330c3803806200330c833981810160405260e08110156200003757600080fd5b81019080805190602001909291908051906020019092919080519060200190929190805160405193929190846401000000008211156200007657600080fd5b838201915060208201858111156200008d57600080fd5b8251866001820283011164010000000082111715620000ab57600080fd5b8083526020830192505050908051906020019080838360005b83811015620000e1578082015181840152602081019050620000c4565b50505050905090810190601f1680156200010f5780820380516001836020036101000a031916815260200191505b5060405260200180519060200190929190805190602001909291908051906020019092919050505086600260006101000a81548173ffffffffffffffffffffffffffffffffffffffff021916908373ffffffffffffffffffffffffffffffffffffffff160217905550856000806101000a81548173ffffffffffffffffffffffffffffffffffffffff021916908373ffffffffffffffffffffffffffffffffffffffff16021790555084600160006101000a81548173ffffffffffffffffffffffffffffffffffffffff021916908373ffffffffffffffffffffffffffffffffffffffff16021790555083600390805190602001906200021192919062000514565b508260058190555080600460006101000a81548173ffffffffffffffffffffffffffffffffffffffff021916908373ffffffffffffffffffffffffffffffffffffffff16021790555060006016819055506001820242016006819055506000600e81905550620002a26040518060600160405280603e8152602001620032ce603e91396000620002af60201b60201c565b505050505050506200068a565b60065442106200030b576040517f08c379a000000000000000000000000000000000000000000000000000000000815260040180806020018281038252602b815260200180620032a3602b913960400191505060405180910390fd5b6000601360003373ffffffffffffffffffffffffffffffffffffffff1673ffffffffffffffffffffffffffffffffffffffff1681526020019081526020016000205414620003a5576040517f08c379a00000000000000000000000000000000000000000000000000000000081526004018080602001828103825260258152602001806200327e6025913960400191505060405180910390fd5b620003af6200059b565b604051806080016040528084815260200183151581526020013373ffffffffffffffffffffffffffffffffffffffff1681526020016000815250905060078190806001815401808255809150509060018203906000526020600020906003020160009091929091909150600082015181600001908051906020019062000437929190620005db565b5060208201518160010160006101000a81548160ff02191690831515021790555060408201518160010160016101000a81548173ffffffffffffffffffffffffffffffffffffffff021916908373ffffffffffffffffffffffffffffffffffffffff160217905550606082015181600201555050506001620004be6200050760201b60201c565b03601360003373ffffffffffffffffffffffffffffffffffffffff1673ffffffffffffffffffffffffffffffffffffffff16815260200190815260200160002081905550505050565b6000600780549050905090565b828054600181600116156101000203166002900490600052602060002090601f016020900481019282601f106200055757805160ff191683800117855562000588565b8280016001018555821562000588579182015b82811115620005875782518255916020019190600101906200056a565b5b50905062000597919062000662565b5090565b604051806080016040528060608152602001600015158152602001600073ffffffffffffffffffffffffffffffffffffffff168152602001600081525090565b828054600181600116156101000203166002900490600052602060002090601f016020900481019282601f106200061e57805160ff19168380011785556200064f565b828001600101855582156200064f579182015b828111156200064e57825182559160200191906001019062000631565b5b5090506200065e919062000662565b5090565b6200068791905b808211156200068357600081600090555060010162000669565b5090565b90565b612be4806200069a6000396000f3fe60806040526004361061020f5760003560e01c80638a4d5a6711610118578063d04ae69d116100a0578063f9588ed91161006f578063f9588ed914610c3a578063fa391c6414610c65578063fbba5cb914610c94578063fbbf93a014610cbf578063fda9198b14610d685761020f565b8063d04ae69d14610a8b578063e5d0003514610ab6578063e72b014814610b31578063f7ca7c7214610b5c5761020f565b8063b6e54bdf116100e7578063b6e54bdf146108f8578063c234d78914610923578063c50eb9841461094e578063c884ef83146109bd578063ca94fb2b14610a265761020f565b80638a4d5a67146107b45780639380b1cf14610844578063aec2ccae1461085b578063b384abef146108c05761020f565b80633197cbb61161019b5780634e71d92d1161016a5780634e71d92d146106e95780636dc7a627146107005780636e3ebc2e1461072f57806374986bfc1461075a57806385730fa1146107895761020f565b80633197cbb6146105c55780633e50b331146105f05780633ff894ad1461065957806344fe9432146106845761020f565b80630a68f631116101e25780630a68f6311461041c578063159e7064146105155780631c7cd6ac146105445780632b925b251461056f5780632ec32e6d1461059a5761020f565b806302d05d3f146102115780630715ef001461026857806309c7caf11461033c57806309f74db7146103a1575b005b34801561021d57600080fd5b50610226610dc3565b604051808273ffffffffffffffffffffffffffffffffffffffff1673ffffffffffffffffffffffffffffffffffffffff16815260200191505060405180910390f35b34801561027457600080fd5b5061033a6004803603604081101561028b57600080fd5b81019080803590602001906401000000008111156102a857600080fd5b8201836020820111156102ba57600080fd5b803590602001918460018302840111640100000000831117156102dc57600080fd5b91908080601f016020809104026020016040519081016040528093929190818152602001838380828437600081840152601f19601f820116905080830192505050505050509192919290803515159060200190929190505050610de9565b005b34801561034857600080fd5b5061038b6004803603602081101561035f57600080fd5b81019080803573ffffffffffffffffffffffffffffffffffffffff169060200190929190505050611031565b6040518082815260200191505060405180910390f35b3480156103ad57600080fd5b506103da600480360360208110156103c457600080fd5b8101908080359060200190929190505050611049565b604051808273ffffffffffffffffffffffffffffffffffffffff1673ffffffffffffffffffffffffffffffffffffffff16815260200191505060405180910390f35b34801561042857600080fd5b506104556004803603602081101561043f57600080fd5b8101908080359060200190929190505050611085565b6040518080602001851515151581526020018473ffffffffffffffffffffffffffffffffffffffff1673ffffffffffffffffffffffffffffffffffffffff168152602001838152602001828103825286818151815260200191508051906020019080838360005b838110156104d75780820151818401526020810190506104bc565b50505050905090810190601f1680156105045780820380516001836020036101000a031916815260200191505b509550505050505060405180910390f35b34801561052157600080fd5b5061052a611187565b604051808215151515815260200191505060405180910390f35b34801561055057600080fd5b506105596112ec565b6040518082815260200191505060405180910390f35b34801561057b57600080fd5b506105846112f2565b6040518082815260200191505060405180910390f35b3480156105a657600080fd5b506105af6112f8565b6040518082815260200191505060405180910390f35b3480156105d157600080fd5b506105da611305565b6040518082815260200191505060405180910390f35b3480156105fc57600080fd5b5061063f6004803603602081101561061357600080fd5b81019080803573ffffffffffffffffffffffffffffffffffffffff16906020019092919050505061130b565b604051808215151515815260200191505060405180910390f35b34801561066557600080fd5b5061066e6113c7565b6040518082815260200191505060405180910390f35b34801561069057600080fd5b506106d3600480360360208110156106a757600080fd5b81019080803573ffffffffffffffffffffffffffffffffffffffff1690602001909291905050506113cd565b6040518082815260200191505060405180910390f35b3480156106f557600080fd5b506106fe6113e5565b005b34801561070c57600080fd5b50610715611816565b604051808215151515815260200191505060405180910390f35b34801561073b57600080fd5b506107446118c9565b6040518082815260200191505060405180910390f35b34801561076657600080fd5b5061076f6118d6565b604051808215151515815260200191505060405180910390f35b34801561079557600080fd5b5061079e6118df565b6040518082815260200191505060405180910390f35b3480156107c057600080fd5b506107c96118e5565b6040518080602001828103825283818151815260200191508051906020019080838360005b838110156108095780820151818401526020810190506107ee565b50505050905090810190601f1680156108365780820380516001836020036101000a031916815260200191505b509250505060405180910390f35b34801561085057600080fd5b50610859611983565b005b34801561086757600080fd5b506108aa6004803603602081101561087e57600080fd5b81019080803573ffffffffffffffffffffffffffffffffffffffff169060200190929190505050611b95565b6040518082815260200191505060405180910390f35b6108f6600480360360408110156108d657600080fd5b810190808035906020019092919080359060200190929190505050611bad565b005b34801561090457600080fd5b5061090d6120e8565b6040518082815260200191505060405180910390f35b34801561092f57600080fd5b506109386120ee565b6040518082815260200191505060405180910390f35b34801561095a57600080fd5b506109a76004803603604081101561097157600080fd5b8101908080359060200190929190803573ffffffffffffffffffffffffffffffffffffffff1690602001909291905050506120fb565b6040518082815260200191505060405180910390f35b3480156109c957600080fd5b50610a0c600480360360208110156109e057600080fd5b81019080803573ffffffffffffffffffffffffffffffffffffffff169060200190929190505050612137565b604051808215151515815260200191505060405180910390f35b348015610a3257600080fd5b50610a7560048036036020811015610a4957600080fd5b81019080803573ffffffffffffffffffffffffffffffffffffffff169060200190929190505050612157565b6040518082815260200191505060405180910390f35b348015610a9757600080fd5b50610aa061216f565b6040518082815260200191505060405180910390f35b348015610ac257600080fd5b50610aef60048036036020811015610ad957600080fd5b8101908080359060200190929190505050612175565b604051808273ffffffffffffffffffffffffffffffffffffffff1673ffffffffffffffffffffffffffffffffffffffff16815260200191505060405180910390f35b348015610b3d57600080fd5b50610b466121b1565b6040518082815260200191505060405180910390f35b348015610b6857600080fd5b50610c3860048036036060811015610b7f57600080fd5b810190808035906020019092919080359060200190640100000000811115610ba657600080fd5b820183602082011115610bb857600080fd5b80359060200191846001830284011164010000000083111715610bda57600080fd5b91908080601f016020809104026020016040519081016040528093929190818152602001838380828437600081840152601f19601f8201169050808301925050505050505091929192908035151590602001909291905050506121b7565b005b348015610c4657600080fd5b50610c4f612370565b6040518082815260200191505060405180910390f35b348015610c7157600080fd5b50610c7a612378565b604051808215151515815260200191505060405180910390f35b348015610ca057600080fd5b50610ca961238b565b6040518082815260200191505060405180910390f35b348015610ccb57600080fd5b50610cd4612391565b604051808c73ffffffffffffffffffffffffffffffffffffffff1673ffffffffffffffffffffffffffffffffffffffff1681526020018b81526020018a81526020018915151515815260200188151515158152602001871515151581526020018681526020018581526020018481526020018381526020018281526020019b50505050505050505050505060405180910390f35b348015610d7457600080fd5b50610dad60048036036040811015610d8b57600080fd5b810190808035906020019092919080351515906020019092919050505061246a565b6040518082815260200191505060405180910390f35b600460009054906101000a900473ffffffffffffffffffffffffffffffffffffffff1681565b6006544210610e43576040517f08c379a000000000000000000000000000000000000000000000000000000000815260040180806020018281038252602b815260200180612aa0602b913960400191505060405180910390fd5b6000601360003373ffffffffffffffffffffffffffffffffffffffff1673ffffffffffffffffffffffffffffffffffffffff1681526020019081526020016000205414610edb576040517f08c379a0000000000000000000000000000000000000000000000000000000008152600401808060200182810382526025815260200180612a416025913960400191505060405180910390fd5b610ee3612747565b604051806080016040528084815260200183151581526020013373ffffffffffffffffffffffffffffffffffffffff16815260200160008152509050600781908060018154018082558091505090600182039060005260206000209060030201600090919290919091506000820151816000019080519060200190610f69929190612787565b5060208201518160010160006101000a81548160ff02191690831515021790555060408201518160010160016101000a81548173ffffffffffffffffffffffffffffffffffffffff021916908373ffffffffffffffffffffffffffffffffffffffff160217905550606082015181600201555050506001610fe86120ee565b03601360003373ffffffffffffffffffffffffffffffffffffffff1673ffffffffffffffffffffffffffffffffffffffff16815260200190815260200160002081905550505050565b600b6020528060005260406000206000915090505481565b600a818154811061105657fe5b906000526020600020016000915054906101000a900473ffffffffffffffffffffffffffffffffffffffff1681565b6007818154811061109257fe5b9060005260206000209060030201600091509050806000018054600181600116156101000203166002900480601f01602080910402602001604051908101604052809291908181526020018280546001816001161561010002031660029004801561113e5780601f106111135761010080835404028352916020019161113e565b820191906000526020600020905b81548152906001019060200180831161112157829003601f168201915b5050505050908060010160009054906101000a900460ff16908060010160019054906101000a900473ffffffffffffffffffffffffffffffffffffffff16908060020154905084565b600080600160009054906101000a900473ffffffffffffffffffffffffffffffffffffffff1690506000600860003373ffffffffffffffffffffffffffffffffffffffff1673ffffffffffffffffffffffffffffffffffffffff168152602001908152602001600020541480156112e657508073ffffffffffffffffffffffffffffffffffffffff1663902701b733306040518363ffffffff1660e01b8152600401808373ffffffffffffffffffffffffffffffffffffffff1673ffffffffffffffffffffffffffffffffffffffff1681526020018273ffffffffffffffffffffffffffffffffffffffff1673ffffffffffffffffffffffffffffffffffffffff1681526020019250505060206040518083038186803b1580156112aa57600080fd5b505afa1580156112be573d6000803e3d6000fd5b505050506040513d60208110156112d457600080fd5b81019080805190602001909291905050505b91505090565b60105481565b60055481565b6000600980549050905090565b60065481565b6000806007600860008573ffffffffffffffffffffffffffffffffffffffff1673ffffffffffffffffffffffffffffffffffffffff168152602001908152602001600020548154811061135a57fe5b90600052602060002090600302019050600160165414801561138a57508060010160009054906101000a900460ff165b806113b2575060026016541480156113b157508060010160009054906101000a900460ff16155b5b806113bf57506003601654145b915050919050565b600d5481565b60136020528060005260406000206000915090505481565b6113ed611816565b611442576040517f08c379a000000000000000000000000000000000000000000000000000000000815260040180806020018281038252603d815260200180612acb603d913960400191505060405180910390fd5b6000600860003373ffffffffffffffffffffffffffffffffffffffff1673ffffffffffffffffffffffffffffffffffffffff16815260200190815260200160002054905060006007828154811061149557fe5b90600052602060002090600302019050600060165414156114b9576114b86124eb565b5b6114c23361130b565b156115f6573373ffffffffffffffffffffffffffffffffffffffff166108fc3073ffffffffffffffffffffffffffffffffffffffff1663fda9198b600b60003373ffffffffffffffffffffffffffffffffffffffff1673ffffffffffffffffffffffffffffffffffffffff168152602001908152602001600020548560010160009054906101000a900460ff166040518363ffffffff1660e01b815260040180838152602001821515151581526020019250505060206040518083038186803b15801561158e57600080fd5b505afa1580156115a2573d6000803e3d6000fd5b505050506040513d60208110156115b857600080fd5b81019080805190602001909291905050509081150290604051600060405180830381858888f193505050501580156115f4573d6000803e3d6000fd5b505b60008060009054906101000a900473ffffffffffffffffffffffffffffffffffffffff1690508073ffffffffffffffffffffffffffffffffffffffff16635f2ab5673073ffffffffffffffffffffffffffffffffffffffff1663c50eb984600f60003373ffffffffffffffffffffffffffffffffffffffff1673ffffffffffffffffffffffffffffffffffffffff16815260200190815260200160002054336040518363ffffffff1660e01b8152600401808381526020018273ffffffffffffffffffffffffffffffffffffffff1673ffffffffffffffffffffffffffffffffffffffff1681526020019250505060206040518083038186803b1580156116fc57600080fd5b505afa158015611710573d6000803e3d6000fd5b505050506040513d602081101561172657600080fd5b8101908080519060200190929190505050336040518363ffffffff1660e01b8152600401808381526020018273ffffffffffffffffffffffffffffffffffffffff1673ffffffffffffffffffffffffffffffffffffffff16815260200192505050600060405180830381600087803b1580156117a157600080fd5b505af11580156117b5573d6000803e3d6000fd5b505050506001601460003373ffffffffffffffffffffffffffffffffffffffff1673ffffffffffffffffffffffffffffffffffffffff16815260200190815260200160002060006101000a81548160ff021916908315150217905550505050565b600080600860003373ffffffffffffffffffffffffffffffffffffffff1673ffffffffffffffffffffffffffffffffffffffff1681526020019081526020016000205490506006544211801561186d575060008114155b80156118c35750601460003373ffffffffffffffffffffffffffffffffffffffff1673ffffffffffffffffffffffffffffffffffffffff16815260200190815260200160002060009054906101000a900460ff16155b91505090565b6000600a80549050905090565b60006001905090565b600c5481565b60038054600181600116156101000203166002900480601f01602080910402602001604051908101604052809291908181526020018280546001816001161561010002031660029004801561197b5780601f106119505761010080835404028352916020019161197b565b820191906000526020600020905b81548152906001019060200180831161195e57829003601f168201915b505050505081565b600460009054906101000a900473ffffffffffffffffffffffffffffffffffffffff1673ffffffffffffffffffffffffffffffffffffffff163373ffffffffffffffffffffffffffffffffffffffff1614611a29576040517f08c379a000000000000000000000000000000000000000000000000000000000815260040180806020018281038252603a815260200180612a66603a913960400191505060405180910390fd5b6000611a336118c9565b611a3b6112f8565b0114611a92576040517f08c379a000000000000000000000000000000000000000000000000000000000815260040180806020018281038252603d81526020018061299f603d913960400191505060405180910390fd5b6006544211611aec576040517f08c379a00000000000000000000000000000000000000000000000000000000081526004018080602001828103825260368152602001806128ad6036913960400191505060405180910390fd5b3373ffffffffffffffffffffffffffffffffffffffff166108fc479081150290604051600060405180830381858888f19350505050158015611b32573d6000803e3d6000fd5b50611b3b61266b565b6001601460003373ffffffffffffffffffffffffffffffffffffffff1673ffffffffffffffffffffffffffffffffffffffff16815260200190815260200160002060006101000a81548160ff021916908315150217905550565b60086020528060005260406000206000915090505481565b6006544210611c07576040517f08c379a000000000000000000000000000000000000000000000000000000000815260040180806020018281038252602b815260200180612aa0602b913960400191505060405180910390fd5b6000821415611c61576040517f08c379a000000000000000000000000000000000000000000000000000000000815260040180806020018281038252603b815260200180612b08603b913960400191505060405180910390fd5b600554341015611cbc576040517f08c379a000000000000000000000000000000000000000000000000000000000815260040180806020018281038252604681526020018061291a6046913960600191505060405180910390fd5b611cc4611187565b611d19576040517f08c379a000000000000000000000000000000000000000000000000000000000815260040180806020018281038252604b815260200180612b65604b913960600191505060405180910390fd5b600060646002340281611d2857fe5b049050600081340390506000600460009054906101000a900473ffffffffffffffffffffffffffffffffffffffff1690508073ffffffffffffffffffffffffffffffffffffffff166108fc849081150290604051600060405180830381858888f19350505050158015611d9f573d6000803e3d6000fd5b506000809054906101000a900473ffffffffffffffffffffffffffffffffffffffff1673ffffffffffffffffffffffffffffffffffffffff166337c103893086336040518463ffffffff1660e01b8152600401808473ffffffffffffffffffffffffffffffffffffffff1673ffffffffffffffffffffffffffffffffffffffff1681526020018381526020018273ffffffffffffffffffffffffffffffffffffffff1673ffffffffffffffffffffffffffffffffffffffff1681526020019350505050600060405180830381600087803b158015611e7c57600080fd5b505af1158015611e90573d6000803e3d6000fd5b5050505084600860003373ffffffffffffffffffffffffffffffffffffffff1673ffffffffffffffffffffffffffffffffffffffff1681526020019081526020016000208190555081600b60003373ffffffffffffffffffffffffffffffffffffffff1673ffffffffffffffffffffffffffffffffffffffff1681526020019081526020016000208190555083600f60003373ffffffffffffffffffffffffffffffffffffffff1673ffffffffffffffffffffffffffffffffffffffff168152602001908152602001600020819055508360126000828254019250508190555060078581548110611f7d57fe5b90600052602060002090600302016002016000815480929190600101919050555060078581548110611fab57fe5b906000526020600020906003020160010160009054906101000a900460ff161561205a5760093390806001815401808255809150509060018203906000526020600020016000909192909190916101000a81548173ffffffffffffffffffffffffffffffffffffffff021916908373ffffffffffffffffffffffffffffffffffffffff160217905550508360106000828254019250508190555081600c600082825401925050819055506120e1565b600a3390806001815401808255809150509060018203906000526020600020016000909192909190916101000a81548173ffffffffffffffffffffffffffffffffffffffff021916908373ffffffffffffffffffffffffffffffffffffffff160217905550508360116000828254019250508190555081600d600082825401925050819055505b5050505050565b60165481565b6000600780549050905090565b60006121068261130b565b1561212057600a600b84028161211857fe5b049050612131565b600a600884028161212d57fe5b0490505b92915050565b60146020528060005260406000206000915054906101000a900460ff1681565b600f6020528060005260406000206000915090505481565b60115481565b6009818154811061218257fe5b906000526020600020016000915054906101000a900473ffffffffffffffffffffffffffffffffffffffff1681565b60125481565b6006544210612211576040517f08c379a000000000000000000000000000000000000000000000000000000000815260040180806020018281038252602b815260200180612aa0602b913960400191505060405180910390fd5b60006007848154811061222057fe5b906000526020600020906003020190503373ffffffffffffffffffffffffffffffffffffffff168160010160019054906101000a900473ffffffffffffffffffffffffffffffffffffffff1673ffffffffffffffffffffffffffffffffffffffff16146122d8576040517f08c379a000000000000000000000000000000000000000000000000000000000815260040180806020018281038252603f815260200180612960603f913960400191505060405180910390fd5b6000816002015414612335576040517f08c379a00000000000000000000000000000000000000000000000000000000081526004018080602001828103825260378152602001806128e36037913960400191505060405180910390fd5b8281600001908051906020019061234d929190612807565b50818160010160006101000a81548160ff02191690831515021790555050505050565b600047905090565b601560009054906101000a900460ff1681565b600e5481565b6000806000806000806000806000806000600460009054906101000a900473ffffffffffffffffffffffffffffffffffffffff16600554600654601560009054906101000a900460ff166123e3611816565b601460003373ffffffffffffffffffffffffffffffffffffffff1673ffffffffffffffffffffffffffffffffffffffff16815260200190815260200160002060009054906101000a900460ff16476124396112f8565b6124416118c9565b6010546011549a509a509a509a509a509a509a509a509a509a509a50909192939495969798999a565b600080821561247d57600c549050612483565b600d5490505b600081116124955760009150506124e5565b601560009054906101000a900460ff16156124d557600360165414156124bf57600d54600c540190505b8084600e5402816124cc57fe5b049150506124e5565b80844702816124e057fe5b049150505b92915050565b600060165414612546576040517f08c379a0000000000000000000000000000000000000000000000000000000008152600401808060200182810382526022815260200180612b436022913960400191505060405180910390fd5b60001515601560009054906101000a900460ff161515146125b2576040517f08c379a00000000000000000000000000000000000000000000000000000000081526004018080602001828103825260258152602001806129dc6025913960400191505060405180910390fd5b600654421161260c576040517f08c379a0000000000000000000000000000000000000000000000000000000008152600401808060200182810382526040815260200180612a016040913960400191505060405180910390fd5b60006126166112f8565b905060006126226118c9565b905080821115612639576001601681905550612658565b8082101561264e576002601681905550612657565b60036016819055505b5b47600e8190555061266761266b565b5050565b6001601560006101000a81548160ff0219169083151502179055506000600260009054906101000a900473ffffffffffffffffffffffffffffffffffffffff1690508073ffffffffffffffffffffffffffffffffffffffff1663e25db2a4306040518263ffffffff1660e01b8152600401808273ffffffffffffffffffffffffffffffffffffffff1673ffffffffffffffffffffffffffffffffffffffff168152602001915050600060405180830381600087803b15801561272c57600080fd5b505af1158015612740573d6000803e3d6000fd5b5050505050565b604051806080016040528060608152602001600015158152602001600073ffffffffffffffffffffffffffffffffffffffff168152602001600081525090565b828054600181600116156101000203166002900490600052602060002090601f016020900481019282601f106127c857805160ff19168380011785556127f6565b828001600101855582156127f6579182015b828111156127f55782518255916020019190600101906127da565b5b5090506128039190612887565b5090565b828054600181600116156101000203166002900490600052602060002090601f016020900481019282601f1061284857805160ff1916838001178555612876565b82800160010185558215612876579182015b8281111561287557825182559160200191906001019061285a565b5b5090506128839190612887565b5090565b6128a991905b808211156128a557600081600090555060010161288d565b5090565b9056fe596f752063616e206f6e6c7920636c61696d20796f75722072657761726473206166746572207468652074696d6520706572696f642e417267756d656e742068617320616c7265616479206265656e20766f746564206f6e2e2043616e6e6f74206265206d6f6469666965642e596f75206d75737420696e76657374206174206c6561737420746865206d696e696d756d20616d6f756e742061732064656369646564206279207468652063726561746f722e596f75206d757374206265207468652063726561746f72206f66207468697320617267756d656e7420746f206d6f646966792069747320636f6e74656e7473546865206d6f6e657920676f657320746f207468652070656f706c652077686f2070617274696369706174656420696e207468652070726f636573732e546f70696320697320616c7265616479206d61726b656420617320636f6d706c657465642e4d616a6f726974792063616e206f6e6c792062652063616c63756c61746564206166746572207468652074696d6520706572696f642068617320656e6465642e596f75206861766520616c7265616479206372656174656420616e20617267756d656e742e596f75206d757374206265207468652063726561746f72206f66207468697320546f70696320696e206f7264657220746f20646f20746869732e54686520706572696f6420666f722074686520546f7069632068617320616c726561647920656e6465642e596f7520646964206e6f7420766f746520647572696e672074686520706572696f64206f722074686520706572696f64206973206e6f74206f7665722e596f752063616e6e6f7420766f746520666f722074686520617267756d656e742067656e6572617465642062792074686520636f6e74726163742e4d616a6f726974792068617320616c7265616479206265656e20646563696465642e596f7520646f6e27742068617665207468697320746f706963206f6e20796f757220617661696c61626c65206c697374206f7220796f75206861766520616c726561647920766f7465642ea265627a7a723158203fc43bb68ba41e5adff0cbf884c4bc21cced7eb6a9cacf23bec7425d86f9fa0b64736f6c63430005100032596f75206861766520616c7265616479206372656174656420616e20617267756d656e742e54686520706572696f6420666f722074686520546f7069632068617320616c726561647920656e6465642e596f752068617665206e6f742063686f73656e207965742077686574686572207468652073746174656d656e742069732074727565206f722066616c7365556e6f7264657265644b65795365742831303029202d204b65792063616e6e6f7420626520307830596f75206d757374206265207468652063726561746f72206f66207468697320546f70696320466163746f727920696e206f7264657220746f20646f20746869732e4120546f7069632041737369676e657220636f6e74726163742061646472657373206d7573742062652061737369676e6564206265666f7265206265696e672061626c6520746f2063726561746520616e79206e657720746f706963732e556e6f7264657265644b65795365742831303229202d204b657920646f6573206e6f7420657869737420696e20746865207365742e556e6f7264657265644b65795365742831303129202d204b657920616c72656164792065786973747320696e20746865207365742e596f75206d75737420626520616e2061646d696e20696e206f7264657220746f20646f20746869732e43616e277420676574206120746f706963207468617420646f65736e27742065786973742e4f6e6c792074686520746f70696320636f6e747261637420697473656c662063616e20636f6d706c6574652074686520636f6e74726163742ea265627a7a72315820dc45f3db15af22cda7d76813b299b75f54b62c78a41cde382e444a29e0917a1364736f6c63430005100032",
  "source": "pragma solidity ^0.5.10;\r\n\r\nimport './Topic.sol';\r\nimport './ReputationFactory.sol';\r\nimport './Reputation.sol';\r\nimport \"./HitchensUnorderedKeySet.sol\";\r\n\r\ncontract TopicFactory {\r\n    \r\n    using HitchensUnorderedKeySetLib for HitchensUnorderedKeySetLib.Set;\r\n    HitchensUnorderedKeySetLib.Set topicSet;\r\n    HitchensUnorderedKeySetLib.Set completedTopicSet;\r\n    \r\n    mapping(bytes32 => address) deployedTopics;\r\n    mapping(bytes32 => address) completedTopics;\r\n    \r\n    mapping(address => bool) isValidTopic;\r\n    address public owner;    \r\n    address reputationFactoryAddress;\r\n    address topicAssignerAddress;\r\n    mapping(address => bool) isAdmin;\r\n\r\n    uint commission = 250000000000000; // wei to create new topic\r\n\r\n    // Logging events\r\n    event LogNewTopic(address sender, address topicAddress, uint minInvestment, uint secondsAvailable);\r\n    event LogRemoveTopic(address sender, address topicAddress, bytes32 key);\r\n    \r\n    modifier _ownerOnly() {\r\n        require(msg.sender == owner, 'You must be the creator of this Topic Factory in order to do this.');\r\n        _;\r\n    }\r\n\r\n    modifier _adminOnly() {\r\n        require(isAdmin[msg.sender] || msg.sender == owner, 'You must be an admin in order to do this.');\r\n        _;\r\n    }\r\n\r\n    function addAdmin(address newAdminAddress) public _adminOnly {\r\n        isAdmin[newAdminAddress] = true;\r\n    }\r\n\r\n    function removeAdmin() public {\r\n        isAdmin[msg.sender] = false;\r\n    }\r\n\r\n    // Helper functions to convert from a \r\n    // Topic smart contract's address to byte32 and back\r\n    function addressToBytes32(address a) public pure returns(bytes32) {\r\n      return bytes32(uint(uint160(a)));\r\n    }\r\n    \r\n    function bytes32ToAddress(bytes32 b) public pure returns(address) {\r\n      return address(uint160(uint(b)));\r\n    }\r\n    \r\n    constructor(address _reputationFactoryAddress) public {\r\n        reputationFactoryAddress = _reputationFactoryAddress;\r\n        owner = msg.sender;\r\n    }\r\n    \r\n    function updateTopicAssignerAddress(address _topicAssignerAddress) public _ownerOnly {\r\n        topicAssignerAddress = _topicAssignerAddress;\r\n    }\r\n    \r\n    function createTopic(string memory topicContent, uint minInvestment, uint secondsAvailable) payable public {\r\n        require(topicAssignerAddress != address(0), \"A Topic Assigner contract address must be assigned before being able to create any new topics.\");\r\n        Topic newTopic = new Topic(address(this), reputationFactoryAddress, topicAssignerAddress, topicContent, minInvestment, secondsAvailable, msg.sender);\r\n        address payable newTopicAddress = address(uint160(address(newTopic)));\r\n\r\n        // Commission\r\n        newTopicAddress.transfer(msg.value - commission);\r\n        address payable ownerPayable = address(uint160(address(owner)));\r\n        ownerPayable.transfer(commission);\r\n        \r\n        bytes32 key = addressToBytes32(address(newTopic));\r\n        topicSet.insert(key);\r\n        deployedTopics[key] = address(newTopic);\r\n\r\n        // In an attempt to only perform a single transaction, we add the topic right after creation.\r\n        // IMPORTANT NOTE: Must have created reputation object using the reputation factory prior to creating this topic\r\n        ReputationFactory reputationFactory = ReputationFactory(reputationFactoryAddress);\r\n        address reputationAddress = reputationFactory.deployedReputations(msg.sender);\r\n        Reputation(reputationAddress).addTopic(newTopicAddress);\r\n        \r\n        isValidTopic[address(newTopic)] = true;\r\n\r\n        emit LogNewTopic(msg.sender, address(newTopic), minInvestment, secondsAvailable);\r\n    }\r\n\r\n    function checkIfValidTopicAddress(address topicAddress) public view returns (bool) {\r\n        return isValidTopic[topicAddress];\r\n    }\r\n    \r\n    function markTopicAsCompleted(address topicAddress) public {\r\n        require(msg.sender == topicAddress, 'Only the topic contract itself can complete the contract.');\r\n        bytes32 key = addressToBytes32(topicAddress);\r\n        removeDeployedTopic(topicAddress);\r\n        completedTopicSet.insert(key);\r\n        completedTopics[key] = topicAddress;\r\n    }\r\n\r\n    function adminRemoveDeployedTopic(address topicAddress) public _adminOnly {\r\n        removeDeployedTopic(topicAddress);\r\n    }\r\n    \r\n    function removeDeployedTopic(address topicAddress) internal {\r\n        bytes32 key = addressToBytes32(topicAddress);\r\n        topicSet.remove(key); // Note that this will fail automatically if the key doesn't exist\r\n        delete deployedTopics[key];\r\n        emit LogRemoveTopic(msg.sender, topicAddress, key);\r\n    }\r\n    \r\n    function getDeployedTopic(uint index) public view returns(address) {\r\n        bytes32 key = topicSet.keyAtIndex(index);\r\n        require(topicSet.exists(key), \"Can't get a topic that doesn't exist.\");\r\n        address topicAddress = deployedTopics[key];\r\n        return(topicAddress);\r\n    }\r\n    \r\n\r\n    function getNumberOfDeployedContracts() public view returns (uint) {\r\n        return topicSet.count();\r\n    }\r\n    \r\n    function getNumberOfCompletedContracts() public view returns (uint) {\r\n        return completedTopicSet.count();\r\n    }\r\n    \r\n    function convertKeyListToTopicList(bytes32[] memory keyList) internal view returns (address[] memory) {\r\n        uint count = keyList.length;\r\n\r\n        address[] memory topics = new address[](count);\r\n\r\n        for (uint i = 0; i < keyList.length; i++) {\r\n            topics[i] = deployedTopics[keyList[i]];\r\n        }  \r\n        return topics;\r\n    }\r\n\r\n    function getTopicsBetweenIndices(uint startIndex, uint endIndex) public view returns (address[] memory) {\r\n        uint diff = endIndex - startIndex;\r\n        uint[] memory indices = new uint[](diff); \r\n        \r\n        for (uint i = 0; i < diff; i++) {\r\n            indices[i] = startIndex + i;\r\n        }\r\n        bytes32[] memory keys = topicSet.keysAtIndices(indices);\r\n\r\n        return convertKeyListToTopicList(keys);\r\n    }\r\n    \r\n    function getCompletedTopicsBetweenIndices(uint startIndex, uint endIndex) public view returns (address[] memory) {\r\n        uint diff = endIndex - startIndex;\r\n        uint[] memory indices = new uint[](diff); \r\n        \r\n        for (uint i = 0; i < diff; i++) {\r\n            indices[i] = startIndex + i;\r\n        }\r\n        bytes32[] memory keys = completedTopicSet.keysAtIndices(indices);\r\n\r\n        return convertKeyListToTopicList(keys);\r\n    } \r\n    \r\n    function getTopicsAtIndices(uint[] memory indices) public view returns (address[] memory) {\r\n        bytes32[] memory keys = topicSet.keysAtIndices(indices);\r\n        return convertKeyListToTopicList(keys);\r\n    }\r\n}",
  "sourcePath": "C:\\Users\\Alex\\Projects\\TruthOrLie\\contracts\\TopicFactory.sol",
  "compiler": {
    "name": "solc",
    "version": "0.5.16+commit.9c3226ce.Emscripten.clang"
  },
  "schemaVersion": "3.0.23",
  "updatedAt": "2020-03-01T21:52:50.870Z",
  "networkType": "ethereum",
  "devdoc": {
    "methods": {}
  },
  "userdoc": {
    "methods": {}
  }
}