{
  "contractName": "Topic",
  "abi": [
    {
      "inputs": [
        {
          "internalType": "address",
          "name": "_topicFactoryAddress",
          "type": "address"
        },
        {
          "internalType": "address",
          "name": "repFactoryAddress",
          "type": "address"
        },
        {
          "internalType": "address",
          "name": "_topicAssignerAddress",
          "type": "address"
        },
        {
          "internalType": "string",
          "name": "topicContent",
          "type": "string"
        },
        {
          "internalType": "uint256",
          "name": "minInvestment",
          "type": "uint256"
        },
        {
          "internalType": "uint256",
          "name": "secondsAvailable",
          "type": "uint256"
        },
        {
          "internalType": "address",
          "name": "sender",
          "type": "address"
        }
      ],
      "payable": false,
      "stateMutability": "nonpayable",
      "type": "constructor"
    },
    {
      "payable": true,
      "stateMutability": "payable",
      "type": "fallback"
    },
    {
      "constant": true,
      "inputs": [
        {
          "internalType": "uint256",
          "name": "",
          "type": "uint256"
        }
      ],
      "name": "arguments",
      "outputs": [
        {
          "internalType": "string",
          "name": "content",
          "type": "string"
        },
        {
          "internalType": "bool",
          "name": "isTrue",
          "type": "bool"
        },
        {
          "internalType": "address",
          "name": "creator",
          "type": "address"
        },
        {
          "internalType": "uint256",
          "name": "voteCount",
          "type": "uint256"
        }
      ],
      "payable": false,
      "stateMutability": "view",
      "type": "function"
    },
    {
      "constant": true,
      "inputs": [
        {
          "internalType": "address",
          "name": "",
          "type": "address"
        }
      ],
      "name": "claimed",
      "outputs": [
        {
          "internalType": "bool",
          "name": "",
          "type": "bool"
        }
      ],
      "payable": false,
      "stateMutability": "view",
      "type": "function"
    },
    {
      "constant": true,
      "inputs": [],
      "name": "content",
      "outputs": [
        {
          "internalType": "string",
          "name": "",
          "type": "string"
        }
      ],
      "payable": false,
      "stateMutability": "view",
      "type": "function"
    },
    {
      "constant": true,
      "inputs": [
        {
          "internalType": "address",
          "name": "",
          "type": "address"
        }
      ],
      "name": "createdArgument",
      "outputs": [
        {
          "internalType": "uint256",
          "name": "",
          "type": "uint256"
        }
      ],
      "payable": false,
      "stateMutability": "view",
      "type": "function"
    },
    {
      "constant": true,
      "inputs": [],
      "name": "creator",
      "outputs": [
        {
          "internalType": "address",
          "name": "",
          "type": "address"
        }
      ],
      "payable": false,
      "stateMutability": "view",
      "type": "function"
    },
    {
      "constant": true,
      "inputs": [],
      "name": "endTime",
      "outputs": [
        {
          "internalType": "uint256",
          "name": "",
          "type": "uint256"
        }
      ],
      "payable": false,
      "stateMutability": "view",
      "type": "function"
    },
    {
      "constant": true,
      "inputs": [],
      "name": "finalMonetaryTotal",
      "outputs": [
        {
          "internalType": "uint256",
          "name": "",
          "type": "uint256"
        }
      ],
      "payable": false,
      "stateMutability": "view",
      "type": "function"
    },
    {
      "constant": true,
      "inputs": [],
      "name": "isCompleted",
      "outputs": [
        {
          "internalType": "bool",
          "name": "",
          "type": "bool"
        }
      ],
      "payable": false,
      "stateMutability": "view",
      "type": "function"
    },
    {
      "constant": true,
      "inputs": [],
      "name": "lieMonetaryInvestment",
      "outputs": [
        {
          "internalType": "uint256",
          "name": "",
          "type": "uint256"
        }
      ],
      "payable": false,
      "stateMutability": "view",
      "type": "function"
    },
    {
      "constant": true,
      "inputs": [],
      "name": "lieReputation",
      "outputs": [
        {
          "internalType": "uint256",
          "name": "",
          "type": "uint256"
        }
      ],
      "payable": false,
      "stateMutability": "view",
      "type": "function"
    },
    {
      "constant": true,
      "inputs": [
        {
          "internalType": "uint256",
          "name": "",
          "type": "uint256"
        }
      ],
      "name": "lieVoters",
      "outputs": [
        {
          "internalType": "address payable",
          "name": "",
          "type": "address"
        }
      ],
      "payable": false,
      "stateMutability": "view",
      "type": "function"
    },
    {
      "constant": true,
      "inputs": [],
      "name": "majority",
      "outputs": [
        {
          "internalType": "uint256",
          "name": "",
          "type": "uint256"
        }
      ],
      "payable": false,
      "stateMutability": "view",
      "type": "function"
    },
    {
      "constant": true,
      "inputs": [],
      "name": "minimumInvestment",
      "outputs": [
        {
          "internalType": "uint256",
          "name": "",
          "type": "uint256"
        }
      ],
      "payable": false,
      "stateMutability": "view",
      "type": "function"
    },
    {
      "constant": true,
      "inputs": [
        {
          "internalType": "address",
          "name": "",
          "type": "address"
        }
      ],
      "name": "monetaryInvestment",
      "outputs": [
        {
          "internalType": "uint256",
          "name": "",
          "type": "uint256"
        }
      ],
      "payable": false,
      "stateMutability": "view",
      "type": "function"
    },
    {
      "constant": true,
      "inputs": [
        {
          "internalType": "address",
          "name": "",
          "type": "address"
        }
      ],
      "name": "reputationInvestment",
      "outputs": [
        {
          "internalType": "uint256",
          "name": "",
          "type": "uint256"
        }
      ],
      "payable": false,
      "stateMutability": "view",
      "type": "function"
    },
    {
      "constant": true,
      "inputs": [],
      "name": "totalReputationInvestment",
      "outputs": [
        {
          "internalType": "uint256",
          "name": "",
          "type": "uint256"
        }
      ],
      "payable": false,
      "stateMutability": "view",
      "type": "function"
    },
    {
      "constant": true,
      "inputs": [],
      "name": "truthMonetaryInvestment",
      "outputs": [
        {
          "internalType": "uint256",
          "name": "",
          "type": "uint256"
        }
      ],
      "payable": false,
      "stateMutability": "view",
      "type": "function"
    },
    {
      "constant": true,
      "inputs": [],
      "name": "truthReputation",
      "outputs": [
        {
          "internalType": "uint256",
          "name": "",
          "type": "uint256"
        }
      ],
      "payable": false,
      "stateMutability": "view",
      "type": "function"
    },
    {
      "constant": true,
      "inputs": [
        {
          "internalType": "uint256",
          "name": "",
          "type": "uint256"
        }
      ],
      "name": "truthVoters",
      "outputs": [
        {
          "internalType": "address payable",
          "name": "",
          "type": "address"
        }
      ],
      "payable": false,
      "stateMutability": "view",
      "type": "function"
    },
    {
      "constant": true,
      "inputs": [
        {
          "internalType": "address",
          "name": "",
          "type": "address"
        }
      ],
      "name": "voted",
      "outputs": [
        {
          "internalType": "uint256",
          "name": "",
          "type": "uint256"
        }
      ],
      "payable": false,
      "stateMutability": "view",
      "type": "function"
    },
    {
      "constant": true,
      "inputs": [],
      "name": "isTopic",
      "outputs": [
        {
          "internalType": "bool",
          "name": "",
          "type": "bool"
        }
      ],
      "payable": false,
      "stateMutability": "pure",
      "type": "function"
    },
    {
      "constant": true,
      "inputs": [],
      "name": "canVote",
      "outputs": [
        {
          "internalType": "bool",
          "name": "",
          "type": "bool"
        }
      ],
      "payable": false,
      "stateMutability": "view",
      "type": "function"
    },
    {
      "constant": false,
      "inputs": [
        {
          "internalType": "uint256",
          "name": "argumentIndex",
          "type": "uint256"
        },
        {
          "internalType": "uint256",
          "name": "reputationCost",
          "type": "uint256"
        }
      ],
      "name": "vote",
      "outputs": [],
      "payable": true,
      "stateMutability": "payable",
      "type": "function"
    },
    {
      "constant": true,
      "inputs": [],
      "name": "getTruthCount",
      "outputs": [
        {
          "internalType": "uint256",
          "name": "",
          "type": "uint256"
        }
      ],
      "payable": false,
      "stateMutability": "view",
      "type": "function"
    },
    {
      "constant": true,
      "inputs": [],
      "name": "getLieCount",
      "outputs": [
        {
          "internalType": "uint256",
          "name": "",
          "type": "uint256"
        }
      ],
      "payable": false,
      "stateMutability": "view",
      "type": "function"
    },
    {
      "constant": false,
      "inputs": [
        {
          "internalType": "string",
          "name": "argumentContent",
          "type": "string"
        },
        {
          "internalType": "bool",
          "name": "belief",
          "type": "bool"
        }
      ],
      "name": "createArgument",
      "outputs": [],
      "payable": false,
      "stateMutability": "nonpayable",
      "type": "function"
    },
    {
      "constant": false,
      "inputs": [
        {
          "internalType": "uint256",
          "name": "argumentIndex",
          "type": "uint256"
        },
        {
          "internalType": "string",
          "name": "newContent",
          "type": "string"
        },
        {
          "internalType": "bool",
          "name": "belief",
          "type": "bool"
        }
      ],
      "name": "modifyArgument",
      "outputs": [],
      "payable": false,
      "stateMutability": "nonpayable",
      "type": "function"
    },
    {
      "constant": true,
      "inputs": [],
      "name": "getArgumentCount",
      "outputs": [
        {
          "internalType": "uint256",
          "name": "",
          "type": "uint256"
        }
      ],
      "payable": false,
      "stateMutability": "view",
      "type": "function"
    },
    {
      "constant": true,
      "inputs": [],
      "name": "canClaim",
      "outputs": [
        {
          "internalType": "bool",
          "name": "",
          "type": "bool"
        }
      ],
      "payable": false,
      "stateMutability": "view",
      "type": "function"
    },
    {
      "constant": false,
      "inputs": [],
      "name": "claim",
      "outputs": [],
      "payable": false,
      "stateMutability": "nonpayable",
      "type": "function"
    },
    {
      "constant": false,
      "inputs": [],
      "name": "creatorClaim",
      "outputs": [],
      "payable": false,
      "stateMutability": "nonpayable",
      "type": "function"
    },
    {
      "constant": true,
      "inputs": [
        {
          "internalType": "uint256",
          "name": "initialMonetaryInvestment",
          "type": "uint256"
        },
        {
          "internalType": "bool",
          "name": "onTruthSide",
          "type": "bool"
        }
      ],
      "name": "calculateMonetaryGain",
      "outputs": [
        {
          "internalType": "uint256",
          "name": "",
          "type": "uint256"
        }
      ],
      "payable": false,
      "stateMutability": "view",
      "type": "function"
    },
    {
      "constant": true,
      "inputs": [
        {
          "internalType": "uint256",
          "name": "initialReputation",
          "type": "uint256"
        },
        {
          "internalType": "address",
          "name": "sender",
          "type": "address"
        }
      ],
      "name": "calculateReputationGain",
      "outputs": [
        {
          "internalType": "uint256",
          "name": "",
          "type": "uint256"
        }
      ],
      "payable": false,
      "stateMutability": "view",
      "type": "function"
    },
    {
      "constant": true,
      "inputs": [],
      "name": "getDetails",
      "outputs": [
        {
          "internalType": "address",
          "name": "",
          "type": "address"
        },
        {
          "internalType": "uint256",
          "name": "",
          "type": "uint256"
        },
        {
          "internalType": "uint256",
          "name": "",
          "type": "uint256"
        },
        {
          "internalType": "bool",
          "name": "",
          "type": "bool"
        },
        {
          "internalType": "bool",
          "name": "",
          "type": "bool"
        },
        {
          "internalType": "bool",
          "name": "",
          "type": "bool"
        },
        {
          "internalType": "uint256",
          "name": "",
          "type": "uint256"
        },
        {
          "internalType": "uint256",
          "name": "",
          "type": "uint256"
        },
        {
          "internalType": "uint256",
          "name": "",
          "type": "uint256"
        },
        {
          "internalType": "uint256",
          "name": "",
          "type": "uint256"
        },
        {
          "internalType": "uint256",
          "name": "",
          "type": "uint256"
        }
      ],
      "payable": false,
      "stateMutability": "view",
      "type": "function"
    },
    {
      "constant": true,
      "inputs": [
        {
          "internalType": "address",
          "name": "sender",
          "type": "address"
        }
      ],
      "name": "inMajority",
      "outputs": [
        {
          "internalType": "bool",
          "name": "",
          "type": "bool"
        }
      ],
      "payable": false,
      "stateMutability": "view",
      "type": "function"
    },
    {
      "constant": true,
      "inputs": [],
      "name": "getMoneyPool",
      "outputs": [
        {
          "internalType": "uint256",
          "name": "",
          "type": "uint256"
        }
      ],
      "payable": false,
      "stateMutability": "view",
      "type": "function"
    }
  ],
  "bytecode": "0x60806040523480156200001157600080fd5b506040516200330c3803806200330c833981810160405260e08110156200003757600080fd5b81019080805190602001909291908051906020019092919080519060200190929190805160405193929190846401000000008211156200007657600080fd5b838201915060208201858111156200008d57600080fd5b8251866001820283011164010000000082111715620000ab57600080fd5b8083526020830192505050908051906020019080838360005b83811015620000e1578082015181840152602081019050620000c4565b50505050905090810190601f1680156200010f5780820380516001836020036101000a031916815260200191505b5060405260200180519060200190929190805190602001909291908051906020019092919050505086600260006101000a81548173ffffffffffffffffffffffffffffffffffffffff021916908373ffffffffffffffffffffffffffffffffffffffff160217905550856000806101000a81548173ffffffffffffffffffffffffffffffffffffffff021916908373ffffffffffffffffffffffffffffffffffffffff16021790555084600160006101000a81548173ffffffffffffffffffffffffffffffffffffffff021916908373ffffffffffffffffffffffffffffffffffffffff16021790555083600390805190602001906200021192919062000514565b508260058190555080600460006101000a81548173ffffffffffffffffffffffffffffffffffffffff021916908373ffffffffffffffffffffffffffffffffffffffff16021790555060006016819055506001820242016006819055506000600e81905550620002a26040518060600160405280603e8152602001620032ce603e91396000620002af60201b60201c565b505050505050506200068a565b60065442106200030b576040517f08c379a000000000000000000000000000000000000000000000000000000000815260040180806020018281038252602b815260200180620032a3602b913960400191505060405180910390fd5b6000601360003373ffffffffffffffffffffffffffffffffffffffff1673ffffffffffffffffffffffffffffffffffffffff1681526020019081526020016000205414620003a5576040517f08c379a00000000000000000000000000000000000000000000000000000000081526004018080602001828103825260258152602001806200327e6025913960400191505060405180910390fd5b620003af6200059b565b604051806080016040528084815260200183151581526020013373ffffffffffffffffffffffffffffffffffffffff1681526020016000815250905060078190806001815401808255809150509060018203906000526020600020906003020160009091929091909150600082015181600001908051906020019062000437929190620005db565b5060208201518160010160006101000a81548160ff02191690831515021790555060408201518160010160016101000a81548173ffffffffffffffffffffffffffffffffffffffff021916908373ffffffffffffffffffffffffffffffffffffffff160217905550606082015181600201555050506001620004be6200050760201b60201c565b03601360003373ffffffffffffffffffffffffffffffffffffffff1673ffffffffffffffffffffffffffffffffffffffff16815260200190815260200160002081905550505050565b6000600780549050905090565b828054600181600116156101000203166002900490600052602060002090601f016020900481019282601f106200055757805160ff191683800117855562000588565b8280016001018555821562000588579182015b82811115620005875782518255916020019190600101906200056a565b5b50905062000597919062000662565b5090565b604051806080016040528060608152602001600015158152602001600073ffffffffffffffffffffffffffffffffffffffff168152602001600081525090565b828054600181600116156101000203166002900490600052602060002090601f016020900481019282601f106200061e57805160ff19168380011785556200064f565b828001600101855582156200064f579182015b828111156200064e57825182559160200191906001019062000631565b5b5090506200065e919062000662565b5090565b6200068791905b808211156200068357600081600090555060010162000669565b5090565b90565b612be4806200069a6000396000f3fe60806040526004361061020f5760003560e01c80638a4d5a6711610118578063d04ae69d116100a0578063f9588ed91161006f578063f9588ed914610c3a578063fa391c6414610c65578063fbba5cb914610c94578063fbbf93a014610cbf578063fda9198b14610d685761020f565b8063d04ae69d14610a8b578063e5d0003514610ab6578063e72b014814610b31578063f7ca7c7214610b5c5761020f565b8063b6e54bdf116100e7578063b6e54bdf146108f8578063c234d78914610923578063c50eb9841461094e578063c884ef83146109bd578063ca94fb2b14610a265761020f565b80638a4d5a67146107b45780639380b1cf14610844578063aec2ccae1461085b578063b384abef146108c05761020f565b80633197cbb61161019b5780634e71d92d1161016a5780634e71d92d146106e95780636dc7a627146107005780636e3ebc2e1461072f57806374986bfc1461075a57806385730fa1146107895761020f565b80633197cbb6146105c55780633e50b331146105f05780633ff894ad1461065957806344fe9432146106845761020f565b80630a68f631116101e25780630a68f6311461041c578063159e7064146105155780631c7cd6ac146105445780632b925b251461056f5780632ec32e6d1461059a5761020f565b806302d05d3f146102115780630715ef001461026857806309c7caf11461033c57806309f74db7146103a1575b005b34801561021d57600080fd5b50610226610dc3565b604051808273ffffffffffffffffffffffffffffffffffffffff1673ffffffffffffffffffffffffffffffffffffffff16815260200191505060405180910390f35b34801561027457600080fd5b5061033a6004803603604081101561028b57600080fd5b81019080803590602001906401000000008111156102a857600080fd5b8201836020820111156102ba57600080fd5b803590602001918460018302840111640100000000831117156102dc57600080fd5b91908080601f016020809104026020016040519081016040528093929190818152602001838380828437600081840152601f19601f820116905080830192505050505050509192919290803515159060200190929190505050610de9565b005b34801561034857600080fd5b5061038b6004803603602081101561035f57600080fd5b81019080803573ffffffffffffffffffffffffffffffffffffffff169060200190929190505050611031565b6040518082815260200191505060405180910390f35b3480156103ad57600080fd5b506103da600480360360208110156103c457600080fd5b8101908080359060200190929190505050611049565b604051808273ffffffffffffffffffffffffffffffffffffffff1673ffffffffffffffffffffffffffffffffffffffff16815260200191505060405180910390f35b34801561042857600080fd5b506104556004803603602081101561043f57600080fd5b8101908080359060200190929190505050611085565b6040518080602001851515151581526020018473ffffffffffffffffffffffffffffffffffffffff1673ffffffffffffffffffffffffffffffffffffffff168152602001838152602001828103825286818151815260200191508051906020019080838360005b838110156104d75780820151818401526020810190506104bc565b50505050905090810190601f1680156105045780820380516001836020036101000a031916815260200191505b509550505050505060405180910390f35b34801561052157600080fd5b5061052a611187565b604051808215151515815260200191505060405180910390f35b34801561055057600080fd5b506105596112ec565b6040518082815260200191505060405180910390f35b34801561057b57600080fd5b506105846112f2565b6040518082815260200191505060405180910390f35b3480156105a657600080fd5b506105af6112f8565b6040518082815260200191505060405180910390f35b3480156105d157600080fd5b506105da611305565b6040518082815260200191505060405180910390f35b3480156105fc57600080fd5b5061063f6004803603602081101561061357600080fd5b81019080803573ffffffffffffffffffffffffffffffffffffffff16906020019092919050505061130b565b604051808215151515815260200191505060405180910390f35b34801561066557600080fd5b5061066e6113c7565b6040518082815260200191505060405180910390f35b34801561069057600080fd5b506106d3600480360360208110156106a757600080fd5b81019080803573ffffffffffffffffffffffffffffffffffffffff1690602001909291905050506113cd565b6040518082815260200191505060405180910390f35b3480156106f557600080fd5b506106fe6113e5565b005b34801561070c57600080fd5b50610715611816565b604051808215151515815260200191505060405180910390f35b34801561073b57600080fd5b506107446118c9565b6040518082815260200191505060405180910390f35b34801561076657600080fd5b5061076f6118d6565b604051808215151515815260200191505060405180910390f35b34801561079557600080fd5b5061079e6118df565b6040518082815260200191505060405180910390f35b3480156107c057600080fd5b506107c96118e5565b6040518080602001828103825283818151815260200191508051906020019080838360005b838110156108095780820151818401526020810190506107ee565b50505050905090810190601f1680156108365780820380516001836020036101000a031916815260200191505b509250505060405180910390f35b34801561085057600080fd5b50610859611983565b005b34801561086757600080fd5b506108aa6004803603602081101561087e57600080fd5b81019080803573ffffffffffffffffffffffffffffffffffffffff169060200190929190505050611b95565b6040518082815260200191505060405180910390f35b6108f6600480360360408110156108d657600080fd5b810190808035906020019092919080359060200190929190505050611bad565b005b34801561090457600080fd5b5061090d6120e8565b6040518082815260200191505060405180910390f35b34801561092f57600080fd5b506109386120ee565b6040518082815260200191505060405180910390f35b34801561095a57600080fd5b506109a76004803603604081101561097157600080fd5b8101908080359060200190929190803573ffffffffffffffffffffffffffffffffffffffff1690602001909291905050506120fb565b6040518082815260200191505060405180910390f35b3480156109c957600080fd5b50610a0c600480360360208110156109e057600080fd5b81019080803573ffffffffffffffffffffffffffffffffffffffff169060200190929190505050612137565b604051808215151515815260200191505060405180910390f35b348015610a3257600080fd5b50610a7560048036036020811015610a4957600080fd5b81019080803573ffffffffffffffffffffffffffffffffffffffff169060200190929190505050612157565b6040518082815260200191505060405180910390f35b348015610a9757600080fd5b50610aa061216f565b6040518082815260200191505060405180910390f35b348015610ac257600080fd5b50610aef60048036036020811015610ad957600080fd5b8101908080359060200190929190505050612175565b604051808273ffffffffffffffffffffffffffffffffffffffff1673ffffffffffffffffffffffffffffffffffffffff16815260200191505060405180910390f35b348015610b3d57600080fd5b50610b466121b1565b6040518082815260200191505060405180910390f35b348015610b6857600080fd5b50610c3860048036036060811015610b7f57600080fd5b810190808035906020019092919080359060200190640100000000811115610ba657600080fd5b820183602082011115610bb857600080fd5b80359060200191846001830284011164010000000083111715610bda57600080fd5b91908080601f016020809104026020016040519081016040528093929190818152602001838380828437600081840152601f19601f8201169050808301925050505050505091929192908035151590602001909291905050506121b7565b005b348015610c4657600080fd5b50610c4f612370565b6040518082815260200191505060405180910390f35b348015610c7157600080fd5b50610c7a612378565b604051808215151515815260200191505060405180910390f35b348015610ca057600080fd5b50610ca961238b565b6040518082815260200191505060405180910390f35b348015610ccb57600080fd5b50610cd4612391565b604051808c73ffffffffffffffffffffffffffffffffffffffff1673ffffffffffffffffffffffffffffffffffffffff1681526020018b81526020018a81526020018915151515815260200188151515158152602001871515151581526020018681526020018581526020018481526020018381526020018281526020019b50505050505050505050505060405180910390f35b348015610d7457600080fd5b50610dad60048036036040811015610d8b57600080fd5b810190808035906020019092919080351515906020019092919050505061246a565b6040518082815260200191505060405180910390f35b600460009054906101000a900473ffffffffffffffffffffffffffffffffffffffff1681565b6006544210610e43576040517f08c379a000000000000000000000000000000000000000000000000000000000815260040180806020018281038252602b815260200180612aa0602b913960400191505060405180910390fd5b6000601360003373ffffffffffffffffffffffffffffffffffffffff1673ffffffffffffffffffffffffffffffffffffffff1681526020019081526020016000205414610edb576040517f08c379a0000000000000000000000000000000000000000000000000000000008152600401808060200182810382526025815260200180612a416025913960400191505060405180910390fd5b610ee3612747565b604051806080016040528084815260200183151581526020013373ffffffffffffffffffffffffffffffffffffffff16815260200160008152509050600781908060018154018082558091505090600182039060005260206000209060030201600090919290919091506000820151816000019080519060200190610f69929190612787565b5060208201518160010160006101000a81548160ff02191690831515021790555060408201518160010160016101000a81548173ffffffffffffffffffffffffffffffffffffffff021916908373ffffffffffffffffffffffffffffffffffffffff160217905550606082015181600201555050506001610fe86120ee565b03601360003373ffffffffffffffffffffffffffffffffffffffff1673ffffffffffffffffffffffffffffffffffffffff16815260200190815260200160002081905550505050565b600b6020528060005260406000206000915090505481565b600a818154811061105657fe5b906000526020600020016000915054906101000a900473ffffffffffffffffffffffffffffffffffffffff1681565b6007818154811061109257fe5b9060005260206000209060030201600091509050806000018054600181600116156101000203166002900480601f01602080910402602001604051908101604052809291908181526020018280546001816001161561010002031660029004801561113e5780601f106111135761010080835404028352916020019161113e565b820191906000526020600020905b81548152906001019060200180831161112157829003601f168201915b5050505050908060010160009054906101000a900460ff16908060010160019054906101000a900473ffffffffffffffffffffffffffffffffffffffff16908060020154905084565b600080600160009054906101000a900473ffffffffffffffffffffffffffffffffffffffff1690506000600860003373ffffffffffffffffffffffffffffffffffffffff1673ffffffffffffffffffffffffffffffffffffffff168152602001908152602001600020541480156112e657508073ffffffffffffffffffffffffffffffffffffffff1663902701b733306040518363ffffffff1660e01b8152600401808373ffffffffffffffffffffffffffffffffffffffff1673ffffffffffffffffffffffffffffffffffffffff1681526020018273ffffffffffffffffffffffffffffffffffffffff1673ffffffffffffffffffffffffffffffffffffffff1681526020019250505060206040518083038186803b1580156112aa57600080fd5b505afa1580156112be573d6000803e3d6000fd5b505050506040513d60208110156112d457600080fd5b81019080805190602001909291905050505b91505090565b60105481565b60055481565b6000600980549050905090565b60065481565b6000806007600860008573ffffffffffffffffffffffffffffffffffffffff1673ffffffffffffffffffffffffffffffffffffffff168152602001908152602001600020548154811061135a57fe5b90600052602060002090600302019050600160165414801561138a57508060010160009054906101000a900460ff165b806113b2575060026016541480156113b157508060010160009054906101000a900460ff16155b5b806113bf57506003601654145b915050919050565b600d5481565b60136020528060005260406000206000915090505481565b6113ed611816565b611442576040517f08c379a000000000000000000000000000000000000000000000000000000000815260040180806020018281038252603d815260200180612acb603d913960400191505060405180910390fd5b6000600860003373ffffffffffffffffffffffffffffffffffffffff1673ffffffffffffffffffffffffffffffffffffffff16815260200190815260200160002054905060006007828154811061149557fe5b90600052602060002090600302019050600060165414156114b9576114b86124eb565b5b6114c23361130b565b156115f6573373ffffffffffffffffffffffffffffffffffffffff166108fc3073ffffffffffffffffffffffffffffffffffffffff1663fda9198b600b60003373ffffffffffffffffffffffffffffffffffffffff1673ffffffffffffffffffffffffffffffffffffffff168152602001908152602001600020548560010160009054906101000a900460ff166040518363ffffffff1660e01b815260040180838152602001821515151581526020019250505060206040518083038186803b15801561158e57600080fd5b505afa1580156115a2573d6000803e3d6000fd5b505050506040513d60208110156115b857600080fd5b81019080805190602001909291905050509081150290604051600060405180830381858888f193505050501580156115f4573d6000803e3d6000fd5b505b60008060009054906101000a900473ffffffffffffffffffffffffffffffffffffffff1690508073ffffffffffffffffffffffffffffffffffffffff16635f2ab5673073ffffffffffffffffffffffffffffffffffffffff1663c50eb984600f60003373ffffffffffffffffffffffffffffffffffffffff1673ffffffffffffffffffffffffffffffffffffffff16815260200190815260200160002054336040518363ffffffff1660e01b8152600401808381526020018273ffffffffffffffffffffffffffffffffffffffff1673ffffffffffffffffffffffffffffffffffffffff1681526020019250505060206040518083038186803b1580156116fc57600080fd5b505afa158015611710573d6000803e3d6000fd5b505050506040513d602081101561172657600080fd5b8101908080519060200190929190505050336040518363ffffffff1660e01b8152600401808381526020018273ffffffffffffffffffffffffffffffffffffffff1673ffffffffffffffffffffffffffffffffffffffff16815260200192505050600060405180830381600087803b1580156117a157600080fd5b505af11580156117b5573d6000803e3d6000fd5b505050506001601460003373ffffffffffffffffffffffffffffffffffffffff1673ffffffffffffffffffffffffffffffffffffffff16815260200190815260200160002060006101000a81548160ff021916908315150217905550505050565b600080600860003373ffffffffffffffffffffffffffffffffffffffff1673ffffffffffffffffffffffffffffffffffffffff1681526020019081526020016000205490506006544211801561186d575060008114155b80156118c35750601460003373ffffffffffffffffffffffffffffffffffffffff1673ffffffffffffffffffffffffffffffffffffffff16815260200190815260200160002060009054906101000a900460ff16155b91505090565b6000600a80549050905090565b60006001905090565b600c5481565b60038054600181600116156101000203166002900480601f01602080910402602001604051908101604052809291908181526020018280546001816001161561010002031660029004801561197b5780601f106119505761010080835404028352916020019161197b565b820191906000526020600020905b81548152906001019060200180831161195e57829003601f168201915b505050505081565b600460009054906101000a900473ffffffffffffffffffffffffffffffffffffffff1673ffffffffffffffffffffffffffffffffffffffff163373ffffffffffffffffffffffffffffffffffffffff1614611a29576040517f08c379a000000000000000000000000000000000000000000000000000000000815260040180806020018281038252603a815260200180612a66603a913960400191505060405180910390fd5b6000611a336118c9565b611a3b6112f8565b0114611a92576040517f08c379a000000000000000000000000000000000000000000000000000000000815260040180806020018281038252603d81526020018061299f603d913960400191505060405180910390fd5b6006544211611aec576040517f08c379a00000000000000000000000000000000000000000000000000000000081526004018080602001828103825260368152602001806128ad6036913960400191505060405180910390fd5b3373ffffffffffffffffffffffffffffffffffffffff166108fc479081150290604051600060405180830381858888f19350505050158015611b32573d6000803e3d6000fd5b50611b3b61266b565b6001601460003373ffffffffffffffffffffffffffffffffffffffff1673ffffffffffffffffffffffffffffffffffffffff16815260200190815260200160002060006101000a81548160ff021916908315150217905550565b60086020528060005260406000206000915090505481565b6006544210611c07576040517f08c379a000000000000000000000000000000000000000000000000000000000815260040180806020018281038252602b815260200180612aa0602b913960400191505060405180910390fd5b6000821415611c61576040517f08c379a000000000000000000000000000000000000000000000000000000000815260040180806020018281038252603b815260200180612b08603b913960400191505060405180910390fd5b600554341015611cbc576040517f08c379a000000000000000000000000000000000000000000000000000000000815260040180806020018281038252604681526020018061291a6046913960600191505060405180910390fd5b611cc4611187565b611d19576040517f08c379a000000000000000000000000000000000000000000000000000000000815260040180806020018281038252604b815260200180612b65604b913960600191505060405180910390fd5b600060646002340281611d2857fe5b049050600081340390506000600460009054906101000a900473ffffffffffffffffffffffffffffffffffffffff1690508073ffffffffffffffffffffffffffffffffffffffff166108fc849081150290604051600060405180830381858888f19350505050158015611d9f573d6000803e3d6000fd5b506000809054906101000a900473ffffffffffffffffffffffffffffffffffffffff1673ffffffffffffffffffffffffffffffffffffffff166337c103893086336040518463ffffffff1660e01b8152600401808473ffffffffffffffffffffffffffffffffffffffff1673ffffffffffffffffffffffffffffffffffffffff1681526020018381526020018273ffffffffffffffffffffffffffffffffffffffff1673ffffffffffffffffffffffffffffffffffffffff1681526020019350505050600060405180830381600087803b158015611e7c57600080fd5b505af1158015611e90573d6000803e3d6000fd5b5050505084600860003373ffffffffffffffffffffffffffffffffffffffff1673ffffffffffffffffffffffffffffffffffffffff1681526020019081526020016000208190555081600b60003373ffffffffffffffffffffffffffffffffffffffff1673ffffffffffffffffffffffffffffffffffffffff1681526020019081526020016000208190555083600f60003373ffffffffffffffffffffffffffffffffffffffff1673ffffffffffffffffffffffffffffffffffffffff168152602001908152602001600020819055508360126000828254019250508190555060078581548110611f7d57fe5b90600052602060002090600302016002016000815480929190600101919050555060078581548110611fab57fe5b906000526020600020906003020160010160009054906101000a900460ff161561205a5760093390806001815401808255809150509060018203906000526020600020016000909192909190916101000a81548173ffffffffffffffffffffffffffffffffffffffff021916908373ffffffffffffffffffffffffffffffffffffffff160217905550508360106000828254019250508190555081600c600082825401925050819055506120e1565b600a3390806001815401808255809150509060018203906000526020600020016000909192909190916101000a81548173ffffffffffffffffffffffffffffffffffffffff021916908373ffffffffffffffffffffffffffffffffffffffff160217905550508360116000828254019250508190555081600d600082825401925050819055505b5050505050565b60165481565b6000600780549050905090565b60006121068261130b565b1561212057600a600b84028161211857fe5b049050612131565b600a600884028161212d57fe5b0490505b92915050565b60146020528060005260406000206000915054906101000a900460ff1681565b600f6020528060005260406000206000915090505481565b60115481565b6009818154811061218257fe5b906000526020600020016000915054906101000a900473ffffffffffffffffffffffffffffffffffffffff1681565b60125481565b6006544210612211576040517f08c379a000000000000000000000000000000000000000000000000000000000815260040180806020018281038252602b815260200180612aa0602b913960400191505060405180910390fd5b60006007848154811061222057fe5b906000526020600020906003020190503373ffffffffffffffffffffffffffffffffffffffff168160010160019054906101000a900473ffffffffffffffffffffffffffffffffffffffff1673ffffffffffffffffffffffffffffffffffffffff16146122d8576040517f08c379a000000000000000000000000000000000000000000000000000000000815260040180806020018281038252603f815260200180612960603f913960400191505060405180910390fd5b6000816002015414612335576040517f08c379a00000000000000000000000000000000000000000000000000000000081526004018080602001828103825260378152602001806128e36037913960400191505060405180910390fd5b8281600001908051906020019061234d929190612807565b50818160010160006101000a81548160ff02191690831515021790555050505050565b600047905090565b601560009054906101000a900460ff1681565b600e5481565b6000806000806000806000806000806000600460009054906101000a900473ffffffffffffffffffffffffffffffffffffffff16600554600654601560009054906101000a900460ff166123e3611816565b601460003373ffffffffffffffffffffffffffffffffffffffff1673ffffffffffffffffffffffffffffffffffffffff16815260200190815260200160002060009054906101000a900460ff16476124396112f8565b6124416118c9565b6010546011549a509a509a509a509a509a509a509a509a509a509a50909192939495969798999a565b600080821561247d57600c549050612483565b600d5490505b600081116124955760009150506124e5565b601560009054906101000a900460ff16156124d557600360165414156124bf57600d54600c540190505b8084600e5402816124cc57fe5b049150506124e5565b80844702816124e057fe5b049150505b92915050565b600060165414612546576040517f08c379a0000000000000000000000000000000000000000000000000000000008152600401808060200182810382526022815260200180612b436022913960400191505060405180910390fd5b60001515601560009054906101000a900460ff161515146125b2576040517f08c379a00000000000000000000000000000000000000000000000000000000081526004018080602001828103825260258152602001806129dc6025913960400191505060405180910390fd5b600654421161260c576040517f08c379a0000000000000000000000000000000000000000000000000000000008152600401808060200182810382526040815260200180612a016040913960400191505060405180910390fd5b60006126166112f8565b905060006126226118c9565b905080821115612639576001601681905550612658565b8082101561264e576002601681905550612657565b60036016819055505b5b47600e8190555061266761266b565b5050565b6001601560006101000a81548160ff0219169083151502179055506000600260009054906101000a900473ffffffffffffffffffffffffffffffffffffffff1690508073ffffffffffffffffffffffffffffffffffffffff1663e25db2a4306040518263ffffffff1660e01b8152600401808273ffffffffffffffffffffffffffffffffffffffff1673ffffffffffffffffffffffffffffffffffffffff168152602001915050600060405180830381600087803b15801561272c57600080fd5b505af1158015612740573d6000803e3d6000fd5b5050505050565b604051806080016040528060608152602001600015158152602001600073ffffffffffffffffffffffffffffffffffffffff168152602001600081525090565b828054600181600116156101000203166002900490600052602060002090601f016020900481019282601f106127c857805160ff19168380011785556127f6565b828001600101855582156127f6579182015b828111156127f55782518255916020019190600101906127da565b5b5090506128039190612887565b5090565b828054600181600116156101000203166002900490600052602060002090601f016020900481019282601f1061284857805160ff1916838001178555612876565b82800160010185558215612876579182015b8281111561287557825182559160200191906001019061285a565b5b5090506128839190612887565b5090565b6128a991905b808211156128a557600081600090555060010161288d565b5090565b9056fe596f752063616e206f6e6c7920636c61696d20796f75722072657761726473206166746572207468652074696d6520706572696f642e417267756d656e742068617320616c7265616479206265656e20766f746564206f6e2e2043616e6e6f74206265206d6f6469666965642e596f75206d75737420696e76657374206174206c6561737420746865206d696e696d756d20616d6f756e742061732064656369646564206279207468652063726561746f722e596f75206d757374206265207468652063726561746f72206f66207468697320617267756d656e7420746f206d6f646966792069747320636f6e74656e7473546865206d6f6e657920676f657320746f207468652070656f706c652077686f2070617274696369706174656420696e207468652070726f636573732e546f70696320697320616c7265616479206d61726b656420617320636f6d706c657465642e4d616a6f726974792063616e206f6e6c792062652063616c63756c61746564206166746572207468652074696d6520706572696f642068617320656e6465642e596f75206861766520616c7265616479206372656174656420616e20617267756d656e742e596f75206d757374206265207468652063726561746f72206f66207468697320546f70696320696e206f7264657220746f20646f20746869732e54686520706572696f6420666f722074686520546f7069632068617320616c726561647920656e6465642e596f7520646964206e6f7420766f746520647572696e672074686520706572696f64206f722074686520706572696f64206973206e6f74206f7665722e596f752063616e6e6f7420766f746520666f722074686520617267756d656e742067656e6572617465642062792074686520636f6e74726163742e4d616a6f726974792068617320616c7265616479206265656e20646563696465642e596f7520646f6e27742068617665207468697320746f706963206f6e20796f757220617661696c61626c65206c697374206f7220796f75206861766520616c726561647920766f7465642ea265627a7a723158203fc43bb68ba41e5adff0cbf884c4bc21cced7eb6a9cacf23bec7425d86f9fa0b64736f6c63430005100032596f75206861766520616c7265616479206372656174656420616e20617267756d656e742e54686520706572696f6420666f722074686520546f7069632068617320616c726561647920656e6465642e596f752068617665206e6f742063686f73656e207965742077686574686572207468652073746174656d656e742069732074727565206f722066616c7365",
  "source": "pragma solidity ^0.5.10;\r\n\r\nimport './ReputationFactory.sol';\r\nimport './TopicAssigner.sol';\r\n\r\ncontract Topic {\r\n    address reputationFactoryAddress;\r\n    address topicAssignerAddress;\r\n    address topicFactoryAddress;\r\n\r\n    struct Argument {\r\n        string content; // The argument in words\r\n        bool isTrue; // Whether this argument thinks the statement is true or false.\r\n        address creator;\r\n        uint voteCount;\r\n    }\r\n    \r\n    string public content;\r\n    address public creator;\r\n    uint public minimumInvestment;\r\n    uint public endTime;\r\n    Argument[] public arguments;\r\n\r\n    // Vote Section\r\n    mapping(address => uint) public voted; // User to argument index\r\n    address payable[] public truthVoters; //TODO: Remove?\r\n    address payable[] public lieVoters; // TODO: Remove?\r\n\r\n    // Monetary Investment Section\r\n    mapping(address => uint) public monetaryInvestment; // User to wei investment\r\n    uint public truthMonetaryInvestment;\r\n    uint public lieMonetaryInvestment;\r\n    uint public finalMonetaryTotal;\r\n    \r\n    // Reputation Investment Section\r\n    mapping(address => uint) public reputationInvestment; // User to reputation investment\r\n    uint public truthReputation;\r\n    uint public lieReputation;\r\n    uint public totalReputationInvestment;\r\n\r\n    mapping(address => uint) public createdArgument; // User to argument index\r\n\r\n    mapping(address => bool) public claimed; // Whether or not the user has already claimed their reward for this topic\r\n    bool public isCompleted;\r\n    uint public majority;\r\n\r\n    modifier _creatorOnly() {\r\n        require(msg.sender == creator, 'You must be the creator of this Topic in order to do this.');\r\n        _;\r\n    }\r\n\r\n    modifier _mustBeWithinTimeFrame() {\r\n        require(block.timestamp < endTime, 'The period for the Topic has already ended.');\r\n        _;\r\n    }\r\n\r\n    function() external payable {}\r\n\r\n    constructor(address _topicFactoryAddress, address repFactoryAddress, address _topicAssignerAddress, string memory topicContent, uint minInvestment, uint secondsAvailable, address sender) public {\r\n        topicFactoryAddress = _topicFactoryAddress;\r\n        reputationFactoryAddress = repFactoryAddress;\r\n        topicAssignerAddress = _topicAssignerAddress;\r\n        content = topicContent;\r\n        minimumInvestment = minInvestment;\r\n        creator = sender;\r\n        majority = 0;\r\n        endTime = block.timestamp + secondsAvailable  * 1 seconds;\r\n\r\n        finalMonetaryTotal = 0;\r\n\r\n        // The first argument of every topic is always\r\n        createArgument('You have not chosen yet whether the statement is true or false', false);\r\n    }\r\n\r\n    function isTopic() public pure returns (bool) {\r\n        return true;\r\n    }\r\n\r\n    function canVote() public view returns (bool) {\r\n        TopicAssigner topicAssigner = TopicAssigner(topicAssignerAddress); \r\n        return voted[msg.sender] == 0 && topicAssigner.hasTopic(msg.sender, address(this));\r\n    }\r\n\r\n    // You help determine the truth. Majority rules!\r\n    function vote(uint argumentIndex, uint reputationCost) public payable _mustBeWithinTimeFrame {\r\n        require(argumentIndex != 0, 'You cannot vote for the argument generated by the contract.');\r\n        require(msg.value >= minimumInvestment, 'You must invest at least the minimum amount as decided by the creator.');\r\n        require(canVote(), \"You don't have this topic on your available list or you have already voted.\");\r\n        \r\n        // Commission for topic creators\r\n        uint commission = msg.value * 2 / 100; \r\n        uint valueAfterCommision = msg.value - commission;\r\n        address payable creatorPayable = address(uint160(address(creator)));\r\n        creatorPayable.transfer(commission);\r\n\r\n        ReputationFactory(reputationFactoryAddress).spendReputation(address(this), reputationCost, msg.sender);\r\n        voted[msg.sender] = argumentIndex;\r\n        monetaryInvestment[msg.sender] = valueAfterCommision;\r\n        reputationInvestment[msg.sender] = reputationCost;\r\n        totalReputationInvestment += reputationCost;\r\n\r\n        arguments[argumentIndex].voteCount++;\r\n        if (arguments[argumentIndex].isTrue) {\r\n            truthVoters.push(msg.sender);\r\n            truthReputation += reputationCost;\r\n            truthMonetaryInvestment += valueAfterCommision;\r\n        } else {\r\n            lieVoters.push(msg.sender);\r\n            lieReputation += reputationCost;\r\n            lieMonetaryInvestment += valueAfterCommision;\r\n        }\r\n    }\r\n\r\n    function getTruthCount() public view returns (uint) {\r\n        return truthVoters.length;\r\n    }\r\n\r\n    function getLieCount() public view returns (uint) {\r\n        return lieVoters.length;\r\n    }\r\n\r\n    function createArgument(string memory argumentContent, bool belief) public _mustBeWithinTimeFrame {\r\n        require(createdArgument[msg.sender] == 0, 'You have already created an argument.');\r\n\r\n        Argument memory newArgument = Argument({\r\n            content: argumentContent,\r\n            isTrue: belief,\r\n            creator: msg.sender,\r\n            voteCount: 0\r\n        });\r\n        arguments.push(newArgument);\r\n        createdArgument[msg.sender] = getArgumentCount() - 1;\r\n\r\n    }\r\n\r\n    function modifyArgument(uint argumentIndex, string memory newContent, bool belief) public _mustBeWithinTimeFrame  {\r\n        Argument storage arg = arguments[argumentIndex];\r\n        require(arg.creator == msg.sender, 'You must be the creator of this argument to modify its contents');\r\n        require(arg.voteCount == 0, 'Argument has already been voted on. Cannot be modified.');\r\n        arg.content = newContent;\r\n        arg.isTrue = belief;\r\n    }\r\n\r\n    function getArgumentCount() public view returns (uint) {\r\n        return arguments.length;\r\n    }\r\n\r\n    // Prevent additional submissions (after time period)\r\n    // function endTopic() public _mustBeWithinTimeFrame {\r\n    //     isCompleted = true;\r\n    // }\r\n\r\n    function calculateMajority() internal {\r\n        require(majority == 0, 'Majority has already been decided.');\r\n        require(isCompleted == false, 'Topic is already marked as completed.');\r\n        require(block.timestamp > endTime, 'Majority can only be calculated after the time period has ended.');\r\n\r\n        uint truthCount = getTruthCount();\r\n        uint lieCount = getLieCount();\r\n\r\n        if (truthCount > lieCount) {\r\n            majority = 1;\r\n        } else if (truthCount < lieCount) {\r\n            majority = 2;\r\n        } else {\r\n            majority = 3;\r\n        }\r\n\r\n        finalMonetaryTotal = address(this).balance;\r\n        markAsCompleted();\r\n    }\r\n    \r\n    function markAsCompleted() internal {\r\n        isCompleted = true;\r\n        \r\n        // Mark as completed in the topic factory\r\n        TopicFactory topicFactory = TopicFactory(topicFactoryAddress);\r\n        topicFactory.markTopicAsCompleted(address(this));\r\n    }\r\n\r\n    function canClaim() public view returns (bool) {\r\n        uint argumentIndex = voted[msg.sender];\r\n        return block.timestamp > endTime && argumentIndex != 0 && !claimed[msg.sender];\r\n    }\r\n\r\n    function claim() public {\r\n        require(canClaim(), 'You did not vote during the period or the period is not over.');\r\n        uint argumentIndex = voted[msg.sender];\r\n        Argument storage arg = arguments[argumentIndex];\r\n\r\n        // Get majority\r\n        if (majority == 0) {\r\n            calculateMajority();\r\n        }\r\n\r\n        if (inMajority(msg.sender)) {\r\n            msg.sender.transfer(this.calculateMonetaryGain(monetaryInvestment[msg.sender], arg.isTrue));\r\n        }\r\n\r\n        ReputationFactory repFactory = ReputationFactory(reputationFactoryAddress);\r\n        repFactory.addReputation(this.calculateReputationGain(reputationInvestment[msg.sender], msg.sender), msg.sender);\r\n        claimed[msg.sender] = true;\r\n    }\r\n\r\n    function creatorClaim() public _creatorOnly {\r\n        require((getTruthCount() + getLieCount() == 0), 'The money goes to the people who participated in the process.');\r\n        require(block.timestamp > endTime, 'You can only claim your rewards after the time period.');\r\n\r\n        msg.sender.transfer(address(this).balance);\r\n        markAsCompleted();\r\n        claimed[msg.sender] = true;\r\n    }\r\n\r\n    // function calculateMonetaryGainForUser() public view returns (uint) {\r\n    //     return this.calculateMonetaryGain(monetaryInvestment[msg.sender];\r\n    // }\r\n\r\n    function calculateMonetaryGain(uint initialMonetaryInvestment, bool onTruthSide) public view returns (uint) {\r\n        uint tempTotalInvestment;\r\n        if (onTruthSide) {\r\n            tempTotalInvestment = truthMonetaryInvestment;\r\n        } else {\r\n            tempTotalInvestment = lieMonetaryInvestment;\r\n        }\r\n\r\n        if (tempTotalInvestment <= 0) {\r\n            return 0;\r\n        }\r\n\r\n        if (isCompleted) {\r\n            if (majority == 3) {\r\n                tempTotalInvestment = truthMonetaryInvestment + lieMonetaryInvestment;\r\n            }\r\n            return finalMonetaryTotal * initialMonetaryInvestment / tempTotalInvestment;\r\n        } else {\r\n            return address(this).balance * initialMonetaryInvestment / tempTotalInvestment;\r\n        }\r\n    }\r\n\r\n    function calculateReputationGain(uint initialReputation, address sender) public view returns (uint) {\r\n        if (inMajority(sender)) {\r\n            return initialReputation * 11 / 10; \r\n        } else {\r\n            return initialReputation * 8 / 10; \r\n        }\r\n    }\r\n\r\n    function getDetails() public view returns (address, uint, uint, bool, bool, bool, uint, uint, uint, uint, uint) {\r\n        return (creator, minimumInvestment, endTime, isCompleted, canClaim(), claimed[msg.sender], address(this).balance, getTruthCount(), getLieCount(), truthReputation, lieReputation);\r\n    }\r\n\r\n    function inMajority(address sender) public view returns (bool) {\r\n        Argument storage arg = arguments[voted[sender]];\r\n        return (majority == 1 && arg.isTrue) || (majority == 2 && !arg.isTrue) || (majority == 3);\r\n    }\r\n\r\n    function getMoneyPool() public view returns (uint) {\r\n        return address(this).balance;\r\n    }\r\n\r\n    // Too much ether is spent on an individual\r\n    // function distributeMoney() public _creatorOnly {\r\n    //     require(isCompleted == true, 'The period for the Topic must have ended in order to redistribute the money.');\r\n    //     uint truthCount = getTruthCount();\r\n    //     uint lieCount = getLieCount();\r\n\r\n    //     uint winnerCount;\r\n    //     address payable[] memory winnerAddresses;\r\n\r\n    //     // TODO Change money distribution formula\r\n    //     uint total = address(this).balance;\r\n    //     if (truthCount > lieCount) {\r\n    //         winnerCount = truthVoters.length;\r\n    //         winnerAddresses = truthVoters;\r\n    //     } else if (lieCount < truthCount) {\r\n    //         winnerCount = lieVoters.length;\r\n    //         winnerAddresses = lieVoters;\r\n    //     } else {\r\n    //         winnerCount = truthVoters.length + lieVoters.length;\r\n    //         winnerAddresses = concatenateArrays(truthVoters, lieVoters);\r\n    //     }\r\n\r\n    //     uint perIndividual = total / winnerCount;\r\n    //     for (uint i = 0; i < winnerCount; i++) {\r\n    //         winnerAddresses[i].transfer(perIndividual);\r\n    //     }\r\n    // }\r\n\r\n\r\n\r\n    // function getDetails() public view returns (uint minimumContribution, uint balance, uint requestCount, uint contributorCount, address manager) {\r\n    //     // (uint minimumContribution, uint balance, uint requestCount, uint contributorCount, address manager)\r\n    //     return (\r\n    //         minimumContribution,\r\n    //         address(this).balance,\r\n    //         requests.length,\r\n    //         contributorCount,\r\n    //         manager\r\n    //     );\r\n    // }\r\n\r\n    // function concatenateArrays(address payable[] storage arr1, address payable[] storage arr2) private view returns(address payable[] memory) {\r\n    //     address payable[] memory returnArr = new address payable[](arr1.length + arr2.length);\r\n\r\n    //     uint i = 0;\r\n    //     for (; i < arr1.length; i++) {\r\n    //         returnArr[i] = arr1[i];\r\n    //     }\r\n\r\n    //     uint j = 0;\r\n    //     while (j < arr1.length) {\r\n    //         returnArr[i++] = arr2[j++];\r\n    //     }\r\n\r\n    //     return returnArr;\r\n    // }\r\n}",
  "sourcePath": "C:\\Users\\Alex\\Projects\\TruthOrLie\\contracts\\Topic.sol",
  "compiler": {
    "name": "solc",
    "version": "0.5.16+commit.9c3226ce.Emscripten.clang"
  },
  "schemaVersion": "3.0.23",
  "updatedAt": "2020-03-01T21:48:40.986Z",
  "devdoc": {
    "methods": {}
  },
  "userdoc": {
    "methods": {}
  }
}